:020000040800F2
:10000000904A0120F1010008010000105F52000831
:100010003D5A0008351100083D6F0008000000003F
:10002000000000000000000000000000715C0008FB
:1000300035120008000000003F5A00081D5E00084D
:100040000B0200080B0200080B0200080B0200085C
:100050000B0200080B0200080B0200080B0200084C
:100060000B0200080B0200080B0200080B0200083C
:100070000B0200080B0200080B0200080B0200082C
:100080000B0200080B0200080B0200080B0200081C
:100090000B0200083D1200080B0200080B020008CA
:1000A0000B020008995E00080B0200080B02000812
:1000B000155F00080B0200080B0200080B02000885
:1000C0000B0200080B0200080B0200080B020008DC
:1000D0000B020008316F00080B0200080B02000839
:1000E0000B0200080B0200080B0200080B020008BC
:1000F0000B0200080B0200080B0200080B020008AC
:100100000B0200080B0200080B0200080B0200089B
:100110000B0200080B0200080B0200080B0200088B
:100120000B0200080B0200080B0200080B0200087B
:100130000B0200080B0200080B0200080B0200086B
:100140000B0200080B0200080B0200080B0200085B
:100150000B0200080B0200080B0200080B0200084B
:100160000B0200080B0200080B0200080B0200083B
:100170000B0200080B0200080B0200080B0200082B
:100180000B0200080B0200080B0200080B0200081B
:100190000B020008000000000B0200080B02000820
:1001A0000B0200080B0200080B0200080B020008FB
:1001B0000B0200080B0200080B0200080B020008EB
:1001C0000B0200080B0200080B0200080B020008DB
:1001D0000B0200080B020008DFF810D000F0C2FC90
:1001E0000048004741A60008AFF30080904A012074
:1001F0000648804706480047FEE7FEE7FEE7FEE7C1
:10020000FEE7FEE7FEE7FEE7FEE7FEE7895E0008A1
:10021000D90100082DE9F05F0546002092469B4673
:1002200088460646814640241BE02846414647460C
:10023000224600F0BBF953465A46C01A914110D3EA
:1002400011461846224600F0A2F92D1A67EB010864
:100250004F4622460120002100F099F917EB0009D2
:100260004E41201EA4F10104DFDC484631462A46F7
:100270004346BDE8F09F40EA01039B0703D009E035
:1002800008C9121F08C0042AFAD203E011F8013B82
:1002900000F8013B521EF9D27047D2B201E000F8DB
:1002A000012B491EFBD270470022F6E710B513461A
:1002B0000A4604461946FFF7F0FF204610BD70B508
:1002C000064606F0AFFE046805460A2200213046C5
:1002D00000F0DCF92C6070BD2DE9FE4F804681EA0C
:1002E0000300C00F0C46009021F0004123F00045B0
:1002F000B8EB0200A94105D24046214690461C4673
:100300000B46024623F00040104347D0270DC7F3A9
:100310000A00C3F30A510290401A019040286BDA98
:10032000C3F3130040F4801B0098924620B10023D1
:10033000D2EB030A63EB0B0B01985946C0F1400264
:10034000504600F024F906460D4650465946019A9B
:1003500000F03CF910EB08006141002487EA1152DB
:1003600084EAE7731A4340D0009A62B3019A012AE3
:100370004FEA075215DC001B61EB02014FF000420F
:1003800002EA0752CDE90042001C41F580113246D5
:100390002B4600F022FA03B0BDE8F08F404621461C
:1003A000F9E7001B61EB0201001C41F58013001806
:1003B0005B412018A2F5001747EB030140EAD57016
:1003C000B6196D4111E06D084FEA360645EAC07571
:1003D0004FEA0752001B61EB0201001C41F580113E
:1003E00049084FEA30000019514132462B4603B00C
:1003F000BDE8F04F00F0E2B9009801224000002370
:10040000D0EB020263EBE073009821464FEAE07400
:10041000B8EB000061EB0401E9E783F000435BE720
:1004200081F0004158E72DE9F04D81EA030404F022
:10043000004B21F0004514464FF0000A23F0004124
:1004400050EA050220D054EA01021DD0C5F30A5734
:100450000246C5F31303C1F31300C1F30A5640F477
:10046000801543F48013A7EB0608101BD64608F24C
:10047000FD3873EB050002D308F1010801E0921882
:100480005B41B8F1000F03DA00200146BDE8F08DB2
:1004900000204FF48011064684460EE0171B73EBD4
:1004A000050705D3121B63EB050306434CEA010C59
:1004B00049084FEA300092185B4150EA0107EDD13C
:1004C00052EA030012D082EA040083EA05010843DD
:1004D00005D0101BAB4106D20122002306E000220A
:1004E0004FF0004302E06FF0010253101AEB0600D8
:1004F0004CEB085110EB0A0041EB0B01BDE8F04D4D
:1005000000F05CB900F0004230F000400AD0C10DAC
:1005100001F56071C0F3160042EA0151C2084007BC
:100520001143704700200146704701F0004330B48A
:1005300021F0004150EA010206D00A0DA2F56072D6
:10054000C1F31301002A02DC30BC00207047440FC5
:1005500044EAC104C100E01830BC00EBC25000F016
:10056000CDB830B50B46014600202022012409E019
:1005700021FA02F59D4205D303FA02F5491B04FA5C
:1005800002F52844151EA2F10102F1DC30BD202A3B
:1005900004DB203A00FA02F1002070479140C2F1DA
:1005A000200320FA03F3194390407047202A04DB0C
:1005B000203A21FA02F00021704721FA02F3D040DC
:1005C000C2F120029140084319467047202A06DBF9
:1005D000CB17203A41FA02F043EAE07306E041FA11
:1005E00002F3D040C2F120029140084319467047FF
:1005F0000FB4002300B589B00CA900910B996FF0DE
:100600000042CB601E4B06931E4B07930423CDE99B
:1006100001321D4A089202466B46002000F056FB4C
:1006200009B05DF814FB70B586B006464FF0FF3098
:100630000091CDE90101002015460C460490324698
:10064000694604A8FFF7D4FF02460498211825B193
:1006500008B1084600E020462860049800280DD024
:10066000002A02DD0098884208D0081B0094CDE9DA
:1006700001043246694604A8FFF7BAFF06B070BD10
:10068000050F0008230F0008910B00082DE9F04723
:1006900091460F4680460446002614F8015B2DB1B2
:1006A00000F072FA0068405DC007F6D12B2D02D031
:1006B0002D2D18D0641E4A463946204600F042FCD3
:1006C00027B13968A14201D1C7F8008071054FF008
:1006D00002040BD54042002803DD06F0A3FC0460B1
:1006E000A007BDE8F08746F48066E4E70028F8DA62
:1006F00006F098FC04606FF00040F2E70029A8BF04
:100700007047401C490008BF20F00100704710B43A
:10071000B0FA80FC00FA0CF050EA010404BF10BCEF
:10072000704749B1CCF1200421FA04F411FA0CF11C
:1007300018BF012121430843A3EB0C01CB1D4FEA55
:1007400000614FEA102042BF002010BC704700EB50
:10075000C35010440029A4BF10BC7047401C49007E
:1007600008BF20F0010010BC7047F0B400F0004258
:1007700021F0004120F00040CE0DC30DC1F3160161
:1007800041F40001C0F316004C42154640F400004D
:10079000761E09E010EB440002D582F00042404290
:1007A0008842F7D840005B1EB342F9DA18B1F0BCBA
:1007B0000021FFF7ACBF2846F0BC704710B5141EEF
:1007C00073F1000408DA401C41F1000192185B410A
:1007D0001A4301D120F0010010BD2DE9F04D9246E1
:1007E0009B4611B1B1FA81F202E0B0FA80F22032F8
:1007F0009046FFF7CCFE04460F4640EA0A0041EA65
:100800000B0153465A46084313D0114653EA0100E0
:1008100019D0C8F140025046FFF7C8FE05460E4603
:10082000504659464246FFF7B2FE084305D0012024
:1008300004E020463946BDE8F08D0020054346EA35
:10084000E0762C4337430A986305E40AA0EB0800DE
:100850000022FD0A44EA47540A3002D5002001462E
:10086000E9E7010510196941DDE908450019694109
:10087000BDE8F04DA2E72DE9FE4F81EA030404F044
:10088000004421F0004100944FF0000B23F000439E
:1008900050EA01045ED052EA03045BD0C3F30A5469
:1008A000C1F30A552C44A4F2F3340194A0FB025482
:1008B000C1F3130141F48011C3F3130343F4801314
:1008C00001FB024400FB034E840A970A44EA815468
:1008D00047EA8357A4FB076802958D0A05FB078545
:1008E0004FEA932C04FB0C542705029D4FEA06584F
:1008F00047EA1637B5EB08056EEB070C870E920E2C
:1009000047EA811742EA8312A7FB0201B6EB0B010B
:1009100064EB00042B0D43EA0C335E1844EB1C50CF
:10092000DA465146E7FB0201C5F313044FEA0B33E5
:1009300043EA14534FEA0432019C43EA0603A4F14C
:100940000C040294009CCDE900B4FFF746FF03B00D
:10095000BDE8F08F00200146F9E770B521F00043B3
:1009600003430CD0C1F30A550024D5EB040564EB16
:100970000403D617AD1AB34102DB0020014670BD57
:10098000201841EB025170BD2DE9F04D00231A46AD
:100990001B1A8A4103DB00200146BDE8F08DC1F33C
:1009A0000A52C1F3130141F480154FF0000BD10737
:1009B00002D100186D41521E0027044640F2FF117B
:1009C000384601EB620A3E468046024600204FF45C
:1009D0008011FFF7EBFDC2197141BB1846EB010016
:1009E000B4EB030C75EB000C04D3E41A65EB0005C3
:1009F00017460E46241908F101006D41804634283F
:100A0000E3DDF91946EB0600091BA84103D24FF0BC
:100A1000FF32134601E0002213461BEB070046EBB2
:100A20000A51BDE8F04DFFF7C9BE2DE9FE4FC3F3F3
:100A30000A5701F000450024C1F30A56C3F313031B
:100A4000C1F3130143F4801312EB020AA64641F4EA
:100A50008011009543EB030CA7F1010B16E0B0EBFE
:100A60000A0061EB0C01071E71F1000707DA4FF075
:100A70000008D0EB080085F0004568EB0101171A6B
:100A800073EB0107EBD3761E001849415E45F6DA99
:100A900050EA010209D0CDE900E500221346029692
:100AA000FFF79BFE03B0BDE8F08F20460099F9E701
:100AB0000EB5C10F80EAE0700844CA07002140F279
:100AC00033438DE80E000A460B46FFF786FE03B05F
:100AD00000BDC1F30A52C1F3130140F2FF3341F4E8
:100AE00080119A4202DA00200146704740F23343F7
:100AF0009A42A2F2334202DC5242FFF757BDFFF79F
:100B000046BD000030B5041E71F1000404DB4FF057
:100B10000044404264EB0101141E73F1000405DB44
:100B20001C464FF00043524263EB04038B4208BF64
:100B3000824230BD30B5041E71F1000404DB4FF079
:100B40000044404264EB0101141E73F1000405DB14
:100B50001C464FF00043524263EB0403994208BF26
:100B6000904230BD064C074D06E0E06840F00103BE
:100B700094E8070098471034AC42F6D3FFF730FBF7
:100B80005CC400089CC40008004870470CC40008FE
:100B900010B50446FFF7F8FF0068005D00F00100A3
:100BA00010BD00002DE9FF4F087883B09946FF285B
:100BB00005D0491C2D2804D00024002008E0002086
:100BC0000BE00124F9E700EB800003EB4000491C37
:100BD0000B78FF2BF7D104B1404200230293147825
:100BE00019461D462D2C01D02B2C04D1521C2D2C26
:100BF00013D000240294AA461478FF2C0FD00A25A3
:100C0000A3FB057801FB05814FF0000C03FB0C11E1
:100C1000521CE3194AEB0101EEE70124EAE78144A3
:100C200053EA010002D019F5C87F06DA03980021C3
:100C3000C0E9001107B0BDE8F08F0025AE4E2F4689
:100C4000DFF8B882184600F0DAF9CDE90001B9F111
:100C5000000002DAC9F1000400E004460023A74ABC
:100C60001AEB030B42EB045A12E0E00707D02A46C6
:100C7000334638464146FFF7FEFD074688462A467A
:100C8000334610461946FFF7F6FD05460E4664103A
:100C9000002CEAD1DDE90001B9F1000F5A465346B4
:100CA00006DAFFF7C0FB3A464346FFF7BCFB05E018
:100CB000FFF7E1FD3A464346FFF7DDFD029A0AB130
:100CC00081F00041039AC2E90001B3E72DE9FF4F2B
:100CD0001F468DB0D7E901464FF0FF382E2045461C
:100CE0004FF000090B90B9696D1C0E988847396A5E
:100CF000824688470028F6D1BAF1FF3F0AD024F493
:100D0000D064002E11DDBAF12B0F08D0BAF12D0FEF
:100D10000BD102E0404611B08DE744F48064B9691C
:100D20006D1C0E9888478246761E6946600501D57F
:100D30002D2000E02B208DF8000001F1010B0DF1BA
:100D4000200809E0B9696D1C0E98884782460F9803
:100D500044F40074761E0560002E02DDBAF1300FF7
:100D6000F0D00B998A453ED144F0800406E00F99FB
:100D7000681CA9F1010944F400740860B9696D1C8C
:100D8000761E0E98884782463028F0D02BE00B99CB
:100D90008A4505D1200603D444F08004761E18E06D
:100DA000504607F0D5FD08B30DF11301761E44F44B
:100DB00000748B4508D2AAF130000BF8010B200615
:100DC00007D5A9F1010003E0200602D409F10100D2
:100DD0008146A00502D50F99681C0860B9696D1C91
:100DE0000E9888478246002ED1DC53E0002E51DD5C
:100DF000BAF1650F02D0BAF1450F4BD1A00549D524
:100E0000B9696D1C24F44074761E0E98884782469A
:100E1000002E0CDD2B2804D0BAF12D0F07D144F49D
:100E20008074B9696D1C0E9888478246761EE0056D
:100E300001D52D2100E02B2108F8011BCDF82C80D5
:100E400021E00DF12901761E44F4007488450CD28E
:100E5000AAF1300010F0FF0088F8000002D10B99D1
:100E6000884509D908F1010806E0E00501D52448C4
:100E700001E042F20F708146B9696D1C0E988847F7
:100E800082460F980560002E04DD504607F060FD95
:100E90000028D6D1F9690E988847FF208BF800000A
:100EA00088F800000020069007904B466A4608A983
:100EB00006A8FFF777FEA00502D46FF001002AE72D
:100EC00014F0240F0AD0E00714D1DDE906123868C7
:100ED000031D3B600068C0E900120BE0DDE906017C
:100EE000FFF723FB0146E00704D13868021D3A6092
:100EF0000068016028460EE7000014400000F03F43
:100F0000F1D8FFFF426842B1016811F8013B23B1FB
:100F1000521EC0E90012184670470121C160881EA8
:100F2000704742685AB1C368016843B983688B420D
:100F300005D0491E521CC0E90012002070474FF036
:100F4000FF3070472DE9F05F824600780027154694
:100F50008B460AF10104B946302801D09DB113E057
:100F600014F8010B0127782803D0582801D045B187
:100F70000AE00DB1102D07D10027102514F8010B40
:100F800002E0082500E00A250026B0460EE005FB39
:100F9000080005FB06F1012701EB10461FFA80F857
:100FA000B6F5803F00D3B94614F8010B294600F08E
:100FB00018F80028EBDABBF1000F05D00FB1641E62
:100FC00000E05446CBF80040B9F1000F06D006F01F
:100FD00029F802210160C81EBDE8F09F48EA0640DA
:100FE000FAE73A2800D2303820F02002412A01D313
:100FF000A2F13700884201D34FF0FF3070470EB5A1
:1010000040F2334202920022CDE900221346FFF75C
:10101000E4FB03B000BD30B58C1810F8012B12F0C2
:101020000F0301D110F8013B120906D110F8012B72
:1010300003E010F8015B01F8015B5B1EF9D101E0F0
:1010400001F8013B521EFBD1A142E6D3002030BD86
:1010500070B50446006881688268C1F3400112F0EF
:10106000010F28D039BB816801F00D01012914D18D
:101070008168124A1140891C816021680320086040
:1010800002F0C6F8054612E002F0C2F8401B022842
:101090000DD920688068C00709D0E06D40F01000CD
:1010A000E065206E40F001002066012070BD2068E0
:1010B0008068C007E8D1002070BD0000C0FFFF7F3E
:1010C00070B504460068816811F0010F2DD1816868
:1010D000174A11421AD18168D5432940491C8160C1
:1010E00002F096F806461BE0816811F0010F03D16B
:1010F00081682940491C816002F08AF8801B02281F
:101100000ED920680068C043C00709D0E06D40F0E8
:101110001000E065206E40F001002066012070BDE7
:1011200020680168C943C907DED1002070BD0000F6
:101130003F000080FEE700002DE9F04714462DED4A
:10114000028B894692ED020AD2ED030A054620EE93
:10115000000A00EEA00AD2ED040A00EEA00ADFEDBC
:10116000220A20EE200A00F04DF8B0EE408A94EDFD
:10117000050A10209FED1D1ADFED1D0A09F03CF94C
:10118000074610209FED1B1ADFED1B0AB0EE480A40
:1011900009F032F99FED198A94ED0D0A0820B0EE9E
:1011A000481AFBEE040A09F027F9064694ED0E0AE8
:1011B0000820B0EE481AFBEE040A09F01DF966F3A8
:1011C000174860F31F680E4865F30F0567F31F4566
:1011D00040682030C9F80C00C9F80150C9F80580F2
:1011E000BDEC028BBDE8F087ABAA2A3F0000C842E5
:1011F000000000000000A0420000A0C20000484320
:101200007001002010EE100A084901EB600100EEA9
:10121000901A0749A1EB600001EE100A40EE010AA6
:10122000B6EE000A20EE800A7047000000F8BC1FEE
:10123000DF59375F704772B6FEE700002DE9F04FC7
:1012400091B0B24801F0A9FBB14C4021631C04F1FC
:101250000C02AE4801F028FBAE48AF4990ED110AF0
:10126000D1ED070A20EE200ADFEDAC0A90ED0D2A41
:10127000D0ED0E1A80EE201AD0ED0A0A90ED080A81
:10128000A74809F0D7FEA64AA048521C02F10B015C
:1012900001F09AFA60788146FF2839D04FF0000CAF
:1012A000A778FF2F37D00020E3780CEA000CFF2B43
:1012B00033D0002026790CEA000CFF2E2FD000201E
:1012C00065790CEA000CFF2D2BD00020A2790CEAE6
:1012D000000CFF2A27D00020E1790CEA000CFF293E
:1012E00023D000200CEA000C207AFB281FD04FF0FE
:1012F000000800BF1CEA080F4FF0000B1AD0894805
:10130000A0F800B000888849088011B0BDE8F08FCF
:101310004FF0010CC4E70120C6E70120CAE7012015
:10132000CEE70120D2E70120D6E70120DAE74FF02F
:101330000108DFE7B9F1FF0F33D04FF0000CFF2FAA
:1013400032D04FF0000800BF0CEA080CFF2B2ED063
:101350004FF000080CEA080CFF2E2BD04FF00008CD
:101360000CEA080CFF2D28D04FF000080CEA080CFE
:10137000FF2A25D04FF000080CEA080CFF2922D0E4
:101380004FF000080CEA080CFC281FD04FF00008B2
:10139000DFF898A11CEA080F4FF0010E19D00221C6
:1013A0004CE04FF0010CCAE74FF00108CCE74FF0DA
:1013B0000108CFE74FF00108D2E74FF00108D5E769
:1013C0004FF00108D8E74FF00108DBE74FF00108C4
:1013D000DEE7FF2E38D04FF0000CFF2D37D04FF056
:1013E000000800BF1CFB08FCB9F1FF0F32D04FF022
:1013F000000800BF0CEA080CFF2F2ED04FF00008A9
:10140000FF2B2DD05FF0000408EA0408404C0CEAE2
:10141000080CFF2A26D04FF0000800BF0CEA080C89
:10142000FF2922D04FF000080CEA080CFD281FD03D
:101430004FF000081CEA080F1DD05946CAF80010EA
:101440003B49C1F800E060E74FF0010CC5E74FF001
:101450000108C7E74FF00108CCE74FF00108CFE7DC
:101460000124D1E74FF00108D8E74FF00108DBE78E
:101470004FF00108DEE7FF2E25D00026FF2D24D0F7
:101480005FF0000516FB05F5B9F1FF0F1FD0002630
:101490003540FF2F1DD00026FF2B1CD000231E40FF
:1014A0003540FF2A19D000221540FF2917D000210E
:1014B0000D40FE2815D00020054214D011B0BDE823
:1014C000F04F05F045BD0126D8E70125DAE70126F2
:1014D000DEE70126E0E70123E1E70122E4E701215D
:1014E000E6E70120E8E7DAF800000228ABD1084976
:1014F000084D3C22103168460F95FEF7BCFE94E87B
:101500000F000AF09FF8C5F89CB0FEE6F007002037
:10151000A005002004000010700000208FC255417B
:1015200070050020020000200400002008000020B8
:101530000C000020F0B5D1E901650C692C430D6861
:10154000BEB145F080452C43D1E90665354391F89D
:1015500020704E69406D46EA07663543CE6803EB5E
:10156000C303354300EBC3000023E0E802450C4D04
:101570000FE044EA8544E7E7D418D65CE77846EA0A
:101580000766A77864783F0447EA0424264340C0EE
:101590001B1DCC6805EB144424789C42ECD8F0BDAC
:1015A0004CC20008144A117F1448012901D00329B4
:1015B0000FD1036823F400730360036843F40063EE
:1015C0000360036823F400630360036843F400735B
:1015D0000360022901D003290BD1016841F4805135
:1015E0000160016821F480510160016841F480616B
:1015F00001600020107770473C000020002002406E
:101600000C490A6A520210D5C20703D04A6942F057
:1016100004024A61800703D5486940F400404861EC
:10162000486940F4803048617047486948F20402D4
:101630001043F4E7002002400E4A136A5B0201D512
:10164000C90703D0516921F4006102E0516941F4F6
:10165000006151615169C0B221F47E7141EAC0005C
:101660005061506940F002005061506940F4803090
:101670005061704700200240054910B54C6944F0A4
:1016800001044C610260BFF36F8F436010BD000026
:1016900000200240094A10B55469402344F48024D4
:1016A0005461EFF3108272B610C95B1E10C013F0C4
:1016B000FF03F9D182F3108810BD00000020024022
:1016C00070B5064601F0A4FD0546134C07E000BFC7
:1016D00001F09EFD401BB04201D9032070BD20697E
:1016E000C003F5D420694CF2FA3108400CD00B4904
:1016F0004A6802434A60010F01D0A169A16101015A
:1017000000D02061012070BD2069C00701D00120F8
:101710002061002070BD0000002002403C0000203D
:10172000DFED020A30EEC00A00F002B8DB0FC93F5D
:10173000DFED100A02E000BF30EE200AB5EEC00A6D
:10174000F1EE10FAF8D30C4910EE100A884202DBD1
:1017500030EE600AF8E7DFED090A094920EE200AB9
:10176000BDEEC00A10EE100A01EB800090ED000AF9
:1017700070470000DB0FC940DB0FC94083F9A2426C
:101780004CBA00080148406870470000C4020010CD
:10179000014890ED8D0A7047C4020010034890ED97
:1017A0008D0AD0ED890A30EE200A7047C40200107D
:1017B0000148006870470000C402001000EE100AE3
:1017C000DFED220A9FED221AB8EE400A10B520EE96
:1017D000200A20EE010A30EEC01ADFED1E0A61EE8B
:1017E000201A81EE801A81EE200A10EE100AFEF710
:1017F00089FE41EC100B05F023FD9FED171B51EC0A
:10180000100B53EC112BFEF70EFE9FED151B53EC46
:10181000112BFEF761FD41EC100B53EC102B9FEDEB
:10182000120B51EC100BFEF7FEFD9FED111B53EC5C
:10183000112BFEF7F2FD9FED101B53EC112BFEF761
:101840004BFDFEF772FE00EE100A10BD333353401D
:101850000000803900401C46000000000058AB40EA
:10186000000000E0E1796B3F000000000000F03F65
:101870000000006066127140000000000000E03FC0
:1018800000EE100ADFED220A9FED221AB8EE400AA0
:1018900010B520EE200A20EE010A30EEC01AC0EE8C
:1018A000010A9FED1D1A60EE810A80EE810A10EE9A
:1018B000100AFEF727FE41EC100B05F0C1FC9FED6E
:1018C000171B51EC100B53EC112BFEF7ACFD9FEDE9
:1018D000151B53EC112BFEF7FFFC41EC100B53ECE6
:1018E000102B9FED120B51EC100BFEF79CFD9FEDA2
:1018F000111B53EC112BFEF790FD9FED101B53ECC9
:10190000112BFEF7E9FCFEF710FE00EE100A10BDE9
:10191000333353400000803900401C460000000073
:101920000058AB40000000E0E1796B3F0000000090
:101930000000F03F000000606612714000000000EF
:101940000000E03FF8B500260446009690F85800E5
:101950000D4601280BD0012084F858002046FFF7DF
:1019600077FB0100E06D04D040F010002AE0022077
:10197000F8BD20F4885040F00200E06520688268DD
:10198000134B1A4005F080431A4342F00042826034
:10199000104A20680EE0009B5B1C0093934209D321
:1019A000E06D20F0020040F01000E06584F858601F
:1019B0000120F8BD8368DB0FEDD1E06D20F002005F
:1019C00040F00100E06584F858600846F8BD00006A
:1019D000C0FFFF3F02DE04002DE9F84F4FF0000981
:1019E0000446CDF800900D4694F85820DFF80084A6
:1019F00061694F464846012A0AD00126FD4A84F80B
:101A0000586041B1296A012905D0A36EEBB129E0E4
:101A10000220BDE8F88F6868092838D1A96A4FF418
:101A2000785041B12B6801F07C0100EA5340084333
:101A3000E96A084302E0296800EA51402168CB6C5A
:101A400013400343CB64606621E0C4E91971A96ABD
:101A5000286A31B101F07C01401E0843E96A08435D
:101A600000E0401E29682B79C1F3846103F01F0355
:101A700099400143A06E401EA066636E43EA0103D5
:101A8000636604D12068C16C11401943C1642068A9
:101A900003F022FC58B995F8250098B12068C16878
:101AA00095F8262021F4401141EA4251C160206896
:101AB00003F01AFC8246206803F00EFC5AEA00008C
:101AC0000DD0FBE095F8260095F82410400540EA7B
:101AD00001512068C26822F440121143E6E7A86A67
:101AE00030B1E86A20B195F8250001285ED003E006
:101AF00095F82500012804D02068C16821F0007104
:101B000003E02068C16841F00071C16095F83000C1
:101B1000012852D02068016921F002010161AA6800
:101B200029682068B2F1004F38D003F0E1FB20684B
:101B3000416921F00041416120686969C268C2F3CE
:101B4000C102520091402A69042A44D000EB82006D
:101B50002B68026EDFF8A0C203F0F84302EA0C0221
:101B60000B431A4342F00041016620682A69A969C3
:101B700000EB8200026E22F080720A430266297F27
:101B800020682A69012923D05FF0000100EB820060
:101B9000026E22F000720A4302668FE0002203F018
:101BA000A7FB2068416941F00041C4E7E06D40F0C7
:101BB0002000E0654FF00109A8E7D5E90D100143C9
:101BC0002068026922F4FF7242F002021143A5E785
:101BD0004FF00071DAE7002103F074FB4003206846
:101BE0004FF0000172D003F06DFB90FAA0F0B0FA54
:101BF00080F1286842036ED090FAA0F0B0FA80F02D
:101C0000814204D100221146206803F080FB0121AB
:101C1000206803F057FB400320684FF001015DD0BE
:101C200003F050FB90FAA0F0B0FA80F1286842036C
:101C300059D090FAA0F0B0FA80F0814204D100228D
:101C40000121206803F063FB0221206803F03AFBC6
:101C5000400320684FF0020148D003F033FB90FAB4
:101C6000A0F0B0FA80F12868420344D090FAA0F0C6
:101C7000B0FA80F0814204D100220221206803F0F2
:101C800046FB0321206803F01DFB400320684FF052
:101C9000030133D003F016FB90FAA0F0B0FA80F104
:101CA000286842032FD090FAA0F0B0FA80F0814269
:101CB00004D100220321206803F029FB20688168F9
:101CC00011F0010F22D0AFE000E004E003F0FAFAD7
:101CD000C0F384618DE7C0F3846091E703F0F2FA0A
:101CE000C0F38461A2E7C0F38460A6E703F0EAFAD8
:101CF000C0F38461B7E7C0F38460BBE703F0E2FAA6
:101D0000C0F38461CCE7C0F38460D0E7EB68296856
:101D1000434550F8B03FC1F3120101D10B4300E03D
:101D20008B430360E86840457ED1286841031CD09E
:101D300090FAA0F1B1FA81F1491C01F01F010929C3
:101D40004FEA403132D8002912D000BF90FAA0F1FA
:101D5000B1FA81F101F1010101F01F0106FA01F66A
:101D600009D100BFC0F3846109E0C0F38461E3E7F7
:101D7000C0F38461EEE790FAA0F1B1FA81F101F1CC
:101D8000010101F01F0146EA816102D1C0F38460C4
:101D900003E090FAA0F0B0FA80F000F1010000F04A
:101DA0001F0000EB400041EA005139E000290ED04D
:101DB00090FAA0F1B1FA81F101F1010101F01F01E6
:101DC00006FA01F606D100BFC0F3846106E0C0F355
:101DD0008461F1E790FAA0F1B1FA81F101F101011A
:101DE00001F01F0146EA816109D1C0F384600AE075
:101DF00000007F400040100400F0FF0314E090FA60
:101E0000A0F0B0FA80F000F1010000F01F003A4AA3
:101E100000EB400002EB005041EA000141F000718C
:101E2000AA68206803F064FA34482B6803425ED045
:101E300020684FF0A04C3249324E334D604501D0FE
:101E4000A84201D10A4600E032469268DFF8BC8021
:101E500002F0E072434503D0DFF8B480434520D15F
:101E60005FEA02281DD4604505D02A4B98423ED136
:101E7000A84200D0314642F400008A6822F0E072A5
:101E800002438A60244825490068B0FBF1F0801CB9
:101E900000EB4000800000E0401E00900028FBD1D5
:101EA00025E0DFF87C8043450FD15FEAC2180CD4EF
:101EB000A84202D11B4B984219D0604502D0A842DB
:101EC00000D0314642F080700CE0DFF85C80434582
:101ED0000DD153020BD4A84209D0604500D0314641
:101EE00042F480008A6822F0E07202438A6084F83B
:101EF000587048468DE50000000020FE0000088074
:101F0000000300500007005000010050000021C3F2
:101F10001000C090000600505C000020400D03003F
:101F2000000052C700050050000084CB0068A1F5F6
:101F300080710F390ED0B1F5837F08D0B1F5037FE2
:101F400002D0D0F880007047D0F88C007047D0F8ED
:101F500088007047D0F88400704700002DE9F041F8
:101F6000044600684FF0A0453E4FA84201D0B84259
:101F700001D13D4900E03D49896801F01F0603F0A9
:101F8000ABF908BB2168C868C96C00F0004011F4C7
:101F9000C07F00D190B194F85800012814D00120DE
:101FA00084F858002046FFF78BF801004FF000023C
:101FB0000CD084F858200846BDE8F081E06D40F070
:101FC0002000E0650120F7E70220F5E7E06DC0059D
:101FD00004D5206E20F00800206600E02266E06D47
:101FE00042F20103984340F48050E0652068204BA2
:101FF000DFF880C0B84201D1AE4604E0984201D17A
:10200000E64600E08646864500D02EB9D4F85CE06E
:102010002EF4801EC4F85CE04FF0600EC0F800E0C3
:1020200084F858202068B84204D0984201D165460F
:1020300000E00546854209D046B1062E06D0072E9F
:1020400004D0E06D40F48010E065B4E7C26812F09F
:10205000007FB0D18268084B1A4042F008028260CB
:10206000A9E70000000100500003005000070050E5
:102070000005005000040050C0FFFF7F2DE9F04F25
:10208000044690F858009BB00F464FF0000B012813
:1020900012D0012084F85800002617961896206860
:1020A0004FF0A048DFF81C91DFF81CA1474D4045D8
:1020B00006D12846009508E002201BB0BDE8F08F4D
:1020C00048450AD15046CDF800A003F00DF9009024
:1020D000206803F009F940B109E0E06D40F020000C
:1020E000E06584F858600120E7E7009850B1E06DA2
:1020F00040F02000E0654FF0010B00BF84F858600D
:102100005846DAE720684146884201D0A84201D10A
:102110002F4800E02F48D7F800C02F4B40F61F7221
:10212000BCF1000F2DD0D0F808C094F838802CF402
:10213000604C4CEA483CD7F804804CEA080CC0F8E4
:1021400008C0D4F800C08C4501D0AC4504D18968E2
:10215000AB6801F0010109E0D9F80810DAF808507D
:1021600001F0010105F001059B68294303F001031B
:102170001943C3D1BB683968194383689343194332
:102180001DE0876827F46047876027688F4201D089
:10219000AF4204D18968AB6801F0010109E0D9F8C8
:1021A0000810DAF8085001F0010105F001059B68FC
:1021B000294303F001031943A0D181689143816051
:1021C0009CE7000000040050000500500001005092
:1021D000000300500007005000060050F8B54FF013
:1021E000000504002E46009502D0E06D10B107E016
:1021F0000120F8BD204600F00DF9266684F85860ED
:1022000020688168C1F3407119B18168754A114035
:10221000816020688168C1F3007189B98168724A60
:10222000114041F080518160704871490068B0FBF5
:10223000F1F04000801C00E0401E00900028FBD11F
:1022400020688168C1F3007141B9E16D41F010016E
:10225000E165216E41F001012166012503F040F89E
:10226000E16DC90600D430B1E06D40F01000E065CA
:1022700001252846F8BDE06D20F4807040F0020092
:10228000E0652068816811F0010F27D14FF0A0436D
:10229000584A984201D0904204D19968966801F05A
:1022A00001010AE054498968544E01F00101B66801
:1022B00006F001063143524EB66806F0010631437E
:1022C0000CD1984201D0904201D14E4800E04E48D6
:1022D0006168826822F47C120A438260E168E06BE4
:1022E000627F0843A16841EA4231084394F8241010
:1022F00040EA0140012904D1218D444A02EB4141C9
:102300000843E16A29B101F47871226B014342EA82
:1023100001002168CA683E4B1A400243CA60206827
:102320000169626B21F0406111430161206802F094
:10233000D7FF0646206802F0CBFF30432ED1207F26
:1023400094F83810800340EA41012068C26844F2E2
:1023500002039A430A43C260206900282068016989
:102360000AD041F480310161206850F8C01F226911
:102370006FF30D01114307E021F480310161206802
:1023800050F8C01F6FF30D01016094F84000012860
:102390000CD02068016921F0010101616069012808
:1023A0002068016B21F00F0111D013E0D4E9110175
:1023B0000843D4E913121143084321680A6940F223
:1023C000FC739A43104340F001000861E6E7226A7B
:1023D000521E11430163E06D20F0020040F0010045
:1023E000E06546E7C0FFFF5FC0FFFF7F5C000020A5
:1023F000400D030000010050000400500005005093
:102400000006005000030050000700500000FEFFCF
:102410000740F0FF2DE9F0439BB00446142115A8B6
:10242000FDF742FF54216846FDF73EFF4FF400419F
:10243000206800268A03524D0327524C4FF09049E2
:10244000B0F1A04F12D0504B4FF00208984246D145
:1024500068461192009100F0DDFF08B1FEF7EBFE37
:102460002868401C286001281FD026E06846119289
:10247000009100F0CFFF08B1FEF7DDFE2868401C98
:102480002860012807D1E06C40F40050E064E06C63
:1024900000F400501A90E06C40F00100E064E06C41
:1024A00000F001001A90042064E0E06C40F4005059
:1024B000E064E06C00F400501A90E06C40F0010021
:1024C000E064E06CCDF8548000F001001A9015A98A
:1024D00048462AE000F072FD1BB0BDE8F0832B4BAC
:1024E0009A01D103984223D168460092129100F0DC
:1024F00091FF08B1FEF79FFE6868401C68600128E4
:1025000007D1E06C40F48040E064E06C00F480406F
:102510001A90E06C40F00200E064E06CCDF854806A
:1025200000F002001A901A4815A9CDE91676D1E7F5
:10253000184B9842D0D168460092129100F06AFF81
:1025400008B1FEF778FE6868401C6860012807D172
:10255000E06C40F48040E064E06C00F480401A904D
:10256000E06C40F00100E064E06C00F001001A90C3
:102570004FF440701796CDE9150715A94846A9E70D
:102580002400002000100240000100500004005010
:10259000000400480006005010B590F825300021D6
:1025A0000122022B03D00421C163012122E0036830
:1025B0001C6824F00E041C60836C1C6824F4807476
:1025C0001C6003681C6824F001041C6090F844300F
:1025D000046C03F01F0302FA03F36360D0E91334C1
:1025E0005C60436D33B11C6824F480741C60D0E9D6
:1025F00016345C6080F82520002280F824200846EC
:1026000010BD70B590F82520002401212346022A30
:1026100007D00422C26380F8251080F824300124FA
:1026200029E00268156825F00E0515600268156836
:1026300025F001051560826C156825F4807515601C
:1026400090F84420056C02F01F0201FA02F26A6061
:10265000D0E913255560426D32B1156825F48075B7
:102660001560D0E91625556080F8251080F82430D3
:10267000816B01B18847204670BD000070B50446EB
:1026800000F0C6FD0546601C02D0044840680444C2
:1026900000F0BEFD401BA042FAD370BD3000002008
:1026A00000EB4001C1EBC0104FF6FF7101EAC00022
:1026B000AFF3008070B54FF6FA710A4D081A84B274
:1026C00028684462284601F01DFF4FF6F97128681A
:1026D00001E0426A94B28C42FBD3BDE870400148ED
:1026E00001F096BFB409002030B590F85C30012BA2
:1026F00007D0022B05D0016E41F0020101660120D6
:1027000030BD0468A36D4D0701D0DD071DD011F069
:10271000380F01D09D0718D511F4E07F01D05D0777
:1027200013D511F4F05F01D01D070ED511F4604FE1
:1027300001D0DD0609D511F4403F01D09D0604D536
:1027400011F47C0F05D05D0603D4E56D45F001055D
:10275000E5654C0701D0DC071DD111F0380F01D021
:102760009C0718D411F4E07F01D05C0713D411F456
:10277000F05F01D01C070ED411F4604F01D0DC06CD
:1027800009D411F4403F01D09C0604D411F47C0F0D
:1027900006D05B0604D50368DC6D44F00204DC65FA
:1027A0000B0604D5036853F8DC4F14431C60CB05BB
:1027B00004D5036853F8E04F14431C600068426D71
:1027C0000A434265002030BD70B5044690F85C00B5
:1027D000022803D0206E40F0080007E02068D0F8FF
:1027E000C4309B0205D5206E40F4007020660120A5
:1027F00070BDD0F8C400C0F301452B462046FEF75B
:1028000099FE21680120A840C1F8CC00A0650020F5
:1028100070BD10B590F85C20012A07D0022A05D0BF
:10282000016E41F002010166012010BD0A687AB113
:102830000B7B0A690C7A42EA43734A69406C496827
:1028400042EA847200EBC100C0E90032002010BDF2
:102850000B7A4A690C8A42EA83720B7B006CDB06B6
:10286000496843EA04431A4340F82120EEE730B5B3
:1028700090F85C50039C012D05D0016E41F00401DD
:102880000166012030BD0901006841EA820141EA88
:10289000430150F8802F214322F03F021143016091
:1028A000002030BD70477047F0B590F85C40022CB6
:1028B00003D0016E41F008014DE0046840293DD08D
:1028C000D4F898502D0743D0D4F89840C4F301268B
:1028D000D0F84C4006EBC60504EBC504256815F09E
:1028E00080455560256839D025F06045156025681C
:1028F000284F05F00055956020CC05F00045156186
:1029000034F8045BADB2D56154F8045C05F470256D
:10291000D56054F8045C05F48015556154F8045CE6
:1029200005F40015956154F8045CC5F3066515625D
:1029300054F8045CED0F5562002518E0D4F890506F
:102940002D0705D0D4F89040C4F30126846CC1E76C
:10295000016E41F4807101660120F0BDC5F38A4526
:10296000C4E700BF14F805C003F805C06D1CD2F819
:102970000CC007EB1C4C9CF800C0AC45F2D80068BA
:10298000402903D0C0F89C600020F0BDC0F89460DE
:10299000FAE700004CC2000870472DE9F0470446F2
:1029A0000068016D466D01F4E0510E40016D476D08
:1029B00001F007010F40016D426D01F0380102EA9C
:1029C0000108016D456D01F471010D40016D426D0D
:1029D00001F4602102EA0109016D490607D5416D44
:1029E000490604D5402101652046FFF7D5FF206840
:1029F000016DC9050DD5416DC9050AD5D0F8D8209E
:102A0000D0F8E01011404FF480720265204600F0CB
:102A1000E1F92EB1206806653146204600F0DCF968
:102A20002FB1206807653946204600F0B9F9B8F1A2
:102A3000000005D0216808654146204600F0B1F944
:102A40002068016D890508D5416D890505D54FF4CC
:102A500000710165204600F0C0F92068016D09068B
:102A60000CD5416D090609D5D0F8D420D0F8DC107A
:102A7000114080220265204600F0ADF92068016D0A
:102A8000890408D5416D890405D54FF400510165CD
:102A9000204600F09EF92068016D090408D5416DBB
:102AA000090405D54FF400410165204600F090F976
:102AB0002068016D490409D5416D490406D54FF4DC
:102AC00080410165206E40F080002066B9F1000071
:102AD00005D02168086549462046FFF7E4FE25B188
:102AE00020680565206E28432066206E002802D0ED
:102AF0002046FFF7D7FEBDE8F08700002DE9F04142
:102B0000040006D0DFF8F48194F85C00002518B1C9
:102B100007E00120BDE8F08184F85D50204600F018
:102B2000F9F82068816921F01001816100F070FBE3
:102B30000646032705E000BF00F06AFB801B0A2859
:102B400011D8206880690007F6D42068816941F0B7
:102B50000101816100F05CFB06460BE000F058FBD0
:102B6000801B0A2806D9206E40F00100206684F8F8
:102B70005C70CEE720688069C007EFD0206881696B
:102B800041F0020181612168414502D15C496068E0
:102B90000860207C01282068816937D041F040011D
:102BA0008161607C01282068816932D021F48041F4
:102BB0008161A07C0128206881692DD041F4805179
:102BC000816120688169A26821F4407111438161AB
:102BD0002068816921F0A40181612068016921F0E8
:102BE00010010161E068012819D010B302281BD040
:102BF0002068816941F0800181612068016941F0AC
:102C000010010161E06803280ED012E021F04001BC
:102C1000C6E741F48041CBE721F48051D0E720683A
:102C2000816941F0040103E02068816941F02001DD
:102C30008161207EE26940066FF0FF0101EB022214
:102C4000A0F100701043226AA38A521E10430A02A8
:102C500002EB034318432368D861A068B0F5407FB6
:102C600010D1D4E90A0301EB0321401E0843216B74
:102C7000131303EB01110843A18C02EB014108433C
:102C80002168C860206850F8C01FE26B11430160E2
:102C90001D4A21681B48914200D11C481C4A9142A0
:102CA00001D100F5D460206451F8802FA38E22F466
:102CB000F81242EA03420A6000F17001616421687F
:102CC00051F8802F94F8383022F0706242EA0362A3
:102CD0000A6000F1B001A164D831E164D831216506
:102CE00018316165D83100E020C08842FCD3A56569
:102CF0002566012084F85C0000200BE7006400409A
:102D00000065004000A400400068004050A700405B
:102D1000006C004010B59CB00446142115A8FDF7C6
:102D2000C3FA54216846FDF7BFFA1B492068884260
:102D300030D18014009040030E90684600F06AFB8A
:102D400008B1FEF778FA1548816D41F00071816590
:102D5000816D01F000711A91C16C41F00101C164F3
:102D6000C06C15A900F001001A904FF4C0501590E6
:102D70000220169000201790189009201990C00684
:102D800000F01CF903220021152000F0ABFA1520F9
:102D900000F09AFA1CB010BD006400400010024020
:102DA0007047704790F85C10012905D0016E41F022
:102DB0000401016601207047022180F85C1001685F
:102DC0008A6922F001028A61002101660846704783
:102DD0007047704770477047704770472DE9F05F44
:102DE000054633488946017801290CD001268046E2
:102DF00006704FF47A7B5846FEF762FC07004FF0EE
:102E0000000A03D04FE00220BDE8F09F5146404643
:102E1000C8F804A0274C226892050AD52168490504
:102E200005D5216821F480612160032109E006773E
:102E300008E02268520504D5216821F480612160F0
:102E4000022101772868012807D04FF0FF31C9F827
:102E5000001040F2FA3BAE681EE06868FEF7D0FB57
:102E60005846FEF72DFC0746606948F20401884386
:102E7000606116E030466968FEF7DEFB4FF47A7059
:102E8000FEF71EFC0700606920EA0B00606102D0BB
:102E9000C9F8006005E0761CD5E902010844B0429B
:102EA000E8D8FEF77FFB88F800A03846ACE70000C2
:102EB0003C00002000200240054901204A6942F000
:102EC00000424A614969002900DA00207047000089
:102ED00000200240054901204A6942F080424A61CF
:102EE0004969490000D500207047000000200240D9
:102EF000064900204A69520007D5054ACA60054ABA
:102F0000CA604969490000D501207047002002408D
:102F10003B2A19087F6E5D4C2DE9F0471B4D044696
:102F20001646287898468A46012809D0012028703C
:102F30004FF47A794846FEF7C3FB002718B119E031
:102F40000220BDE8F0876F6024B1012C09D0022C6B
:102F500007D00CE0324643465046FEF78DFB012475
:102F60000CE031465046FEF795FB022C04D0484653
:102F7000FEF7A6FB2F70E4E74FF480244846FEF7E7
:102F80009FFB03494A69A2434A61F3E73C000020E2
:102F900000200240064900204A69002A07DA054A53
:102FA0008A60054A8A604969002900DA0120704771
:102FB0000020024023016745AB89EFCD2DE9F04F9A
:102FC000DFF82092002301260324A9F1040B85B029
:102FD0000F2709F1040AABF1040EFAE006FA03F533
:102FE0002A407CD091F804C00CF0030CBCF1010F16
:102FF00002D0BCF1020F26D1D0F808C0CDF800C035
:103000004FEA430C04FA0CF8CDF810C0DDF800C00C
:103010002CEA080CCDF800C0D1F80C80DDF810C007
:1030200008FA0CF8DDF800C048EA0C08C0F808807F
:10303000D0F804C02CEA050C0D79C5F300159D40AD
:1030400045EA0C0545600D79ED43AD070ED0C56826
:103050004FEA430804FA08FC25EA0C05D1F808C039
:103060000CFA08FC4CEA050CC0F80CC00D7905F010
:103070000305022D16D1DD0800EB850CCDF808C044
:10308000DCF820805D074FEAD56C07FA0CF528EADA
:1030900005080D6905FA0CF5DDF808C045EA0805D4
:1030A000CCF8205005684FEA430CCDF808C004FA6C
:1030B0000CFC25EA0C0591F804C00CF00308DDF8BF
:1030C00008C008FA0CF848EA0508C0F800804D6806
:1030D00015F4403F7CD0444DD5F860C000E077E067
:1030E0004CF0010CC5F860C02D6E23F0030C05F008
:1030F000010500953D4D65440295AD684FEA837C1E
:103100004FEA1C7807FA08FC25EA0C05B0F1904F4D
:1031100006D0DFF8DCC0604505D14FF0010C20E09F
:103120004FF0000C1DE0DFF8CCC0604502D14FF03D
:10313000020C16E0DFF8C0C0604502D14FF0030C6E
:103140000FE0DFF8B8C0604502D14FF0040C08E092
:10315000DFF8ACC0604502D14FF0050C01E04FF044
:10316000060C0CFA08FC4CEA050C029DC5F808C0D8
:10317000D9F80050CC46D1F8048095435FEAC828BE
:1031800000D51543CCF80050DAF80050D446D1F8F9
:10319000048095435FEA882800D51543CCF8005099
:1031A000DBF80050DC46D1F8048095435FEA8838AC
:1031B00000D51543CCF80050DEF80050F446D1F8A5
:1031C000048095435FEAC83800D51543CCF8005019
:1031D0005B1C0A6832FA03F57FF400AF05B0BDE866
:1031E000F08F000008040140001002400000014080
:1031F0000004004800080048000C00480010004887
:10320000001400480AB18161704781627047000074
:103210000148806870470000300000200248816843
:1032200042681144816070473000002010B50024CE
:10323000032000F077F8002000F008F808B101241E
:1032400001E000F025F8204610BD000070B50E4EDC
:1032500005460024706898B14FF47A71B1FBF0F024
:103260000A490968B1FBF0F000F09BFF40B9102D4E
:1032700006D200222946501E00F034F8356000E0E6
:103280000124204670BD0000300000205C000020BA
:103290000C4808B5016E41F001010166016E01F0B4
:1032A00001010091816D41F080518165806D00F0D8
:1032B00080500090052000F035F8BDE8084000F08F
:1032C000A1B8000000100240002809DB00F01F0236
:1032D000012191404009800000F1E020C0F8001178
:1032E00070470000F0B40E4B1B680C46C3F302237A
:1032F000C3F10705042D00D90425191D072901D2A2
:10330000002300E0DB1E012606FA05F1491E2140DC
:1033100099409E40761E16403143F0BC03F071BECA
:103320000CED00E0064900F0070208684FF6FF03C5
:10333000184040EA0220034A10430860704700002A
:103340000CED00E00000FA052B492C4B0A683221F5
:103350004A432B4940B1B0F5007F086829D020F4DA
:10336000C06040F480602CE00868C0F3412002286F
:1033700004D051F8800F20F4807022E0D1F8800052
:1033800020F48070C1F88000086820F4C06040F428
:1033900000700860B2FBF3F0401C00E0401E4A6978
:1033A000520501D50028F9D1486940050AD5032006
:1033B0007047C0F34120022806D051F8800F40F436
:1033C0008070086000207047D1F8800040F4807061
:1033D000C1F88000086820F4C06040F40070086004
:1033E000B2FBF3F0401C00E0401E4A695205DBD5F9
:1033F0000028F9D1D8E700005C00002040420F000F
:10340000007000400248816841F48041816070474B
:10341000007000402DE9F843044600680026BB4DCB
:1034200000035ED5A86D0027C00008D4A86D40F049
:103430008050A865A86D012700F080500090DFF84B
:10344000D092D9F8001041F48071C9F80010FFF74C
:10345000DFFE804606E000BFFFF7DAFEA0EB0800C3
:1034600002282BD8D9F80000C005F5D5D5F8900072
:1034700010F4407014D0216D814211D0D5F8900025
:10348000D5F8901020F4407041F48031C5F89010C8
:10349000D5F8901021F48031C5F89010C5F890004F
:1034A000C00711D0FFF7B4FE804641F2883907E02B
:1034B000FFF7AEFEA0EB0801494501D903260BE05A
:1034C000D5F890008007F3D5D5F89000216D20F451
:1034D00040700843C5F890001FB1A86D20F08050DF
:1034E000A8652078C00707D0D5F88800616820F06B
:1034F00003000843C5F888002078800707D5D5F871
:103500008800A16820F00C000843C5F888002078E6
:10351000400707D5D5F88800E16820F0300008435F
:10352000C5F888002078000707D5D5F888002169FC
:1035300020F0C0000843C5F888002078C00607D5F1
:10354000D5F88800616920F440700843C5F8880008
:103550002078800607D5D5F88800A16920F440605E
:103560000843C5F888002078400607D5D5F88800BC
:10357000E16920F440500843C5F88800207800062F
:1035800007D5D5F88800216A20F440400843C5F8E3
:1035900088002088C00507D5D5F88800616A20F426
:1035A00040300843C5F888002068800307D5D5F867
:1035B0009C00A16A20F003000843C5F89C00208805
:1035C000800507D5D5F88800E16A20F4402008433B
:1035D000C5F88800208840050FD5D5F88800216BF4
:1035E00020F440100843C5F88800206BB0F5801F18
:1035F00003D1E86840F48010E860208800050FD50A
:10360000D5F88800616B20F440000843C5F88800B5
:10361000606BB0F5800F03D1E86840F48010E8607B
:103620002088C0040FD5D5F88800A16B20F0407029
:103630000843C5F88800A06BB0F1807F03D1E8682B
:1036400040F48010E86020884FF0006180040ED5BF
:10365000D5F88800E26B20F040601043C5F8880080
:10366000E06B884203D1E86840F48010E86020886D
:1036700040040ED5D5F88800226C20F0406010433D
:10368000C5F88800206C884203D1E86840F48010B7
:10369000E860208800040FD5D5F88800616C20F020
:1036A00040500843C5F88800606CB0F1805F03D1DA
:1036B000E86840F48030E8602068C0030FD5D5F892
:1036C0008800A16C20F040400843C5F88800A06C39
:1036D000B0F1804F03D1E86840F48030E8602068A2
:1036E00040030FD5D5F89C00E16C20F4401008434E
:1036F000C5F89C00E06CB0F5001F03D1E86840F409
:103700008010E8603046BDE8F883000000100240F9
:10371000007000402DE9F0470E4605004FF000070D
:1037200025D0DFF8AC81D8F8000000F00F00B042DF
:103730000CD2D8F8001021F00F013143C8F8001066
:10374000D8F8000000F00F00B04210D12968614C99
:10375000C80741F2883A5AD06868DFF87C9103289C
:1037600008D0022820682DD0400500282CDB01203D
:10377000BDE8F08720688001F9D5E06800F0030219
:10378000E068C0F30310401C032A19D0534A00BF5D
:10379000B2FBF0F0E268C2F306225043E268C2F3E3
:1037A0004162521C5200B0FBF2F0484517D9A068A4
:1037B00010F0F00F0CD0880711D5A86840B10EE0CA
:1037C000474AE5E78003D0E700F0B6F8484506D958
:1037D000A06820F0F00040F08000A0608027A06882
:1037E000696820F003000843A060FFF711FD8146DF
:1037F00006E000BFFFF70CFDA0EB090151453AD8E8
:10380000A068696800F00C00B0EB810FF2D1286865
:10381000810714D5400703D5A06840F4E060A0609C
:103820002878000705D5A06820F4605040F4E060D7
:10383000A060A068A96820F0F000084304E0802F91
:1038400003D1A06820F0F000A060D8F80010404636
:1038500001F00F01B14216D9016821F00F01314387
:103860000160FFF7D5FC074607E000BFFFF7D0FC7B
:10387000C11B514501D903207AE7D8F8000000F0B8
:103880000F00B042F2D12878400705D5A068E9685A
:1038900020F4E0600843A0602878000706D5A068FF
:1038A000296920F4605040EAC100A06000F044F8AB
:1038B000A1680C4AC1F30311515C01F01F01C8401B
:1038C0000949086009480068BDE8F047FFF7BEBC39
:1038D000002002400010024000B4C4040024F400A0
:1038E00040787D0184C200085C0000203000002088
:1038F0000548064900688968054AC1F30221515C00
:1039000001F01F01C84070475C0000200010024019
:1039100094C200080548064900688968054AC1F351
:10392000C221515C01F01F01C84070475C000020BB
:103930000010024094C20008184910B58868C0F30E
:1039400081021748012A0BD08A68164BC2F3810204
:10395000022A06D08A68C2F38102032A03D000201B
:1039600010BD184610BDCA6802F00304CA68C2F34D
:103970000312521C032C02D0B0FBF2F001E0B3FBA7
:10398000F2F0CA68C968C2F306225043C1F341612C
:10399000491C4900B0FBF1F010BD000000100240CE
:1039A0000024F40040787D012DE9F84304007AD02A
:1039B0002078FA4DC00747D0A868E96800F00C00ED
:1039C00001F003010C2802D0082817D001E00329D8
:1039D00014D06068B0F5803F17D0B0F5A02F2868EC
:1039E00017D020F480302860286820F480202860D8
:1039F0006068E0B1FFF70CFC064614E0286880031D
:103A000022D560680028D2D01EE0286840F48030BB
:103A1000EDE740F480202860F7E700BFFFF7F8FBF0
:103A2000801B642870D828688003F7D50CE0FFF766
:103A3000EFFB064605E000BFFFF7EAFB801B6428AA
:103A4000F0D828688003F7D4207880074CD5A86880
:103A5000E96800F00C0001F003010C2802D00428F2
:103A60000DD001E002290AD0E068002828682BD098
:103A700040F480702860FFF7CBFB064619E0286809
:103A8000400502D5E068002891D06868217C20F0CC
:103A9000FE4040EA01606860C1480068FFF7D6FB5D
:103AA000002800D120E076E1FFF7B2FB801B02285E
:103AB000B8D828684005F7D56868217C20F0FE401A
:103AC00040EA016068600FE020F480702860FFF732
:103AD0009FFB064605E000BFFFF79AFB801B02280C
:103AE000A0D828684005F7D42078000729D5606958
:103AF0000028D5F8940013D040F00100C5F89400D8
:103B0000FFF786FB064606E090E000BFFFF780FB6C
:103B1000801B022886D8D5F894008007F6D510E0DF
:103B200020F00100C5F89400FFF772FB064604E0A0
:103B3000FFF76EFB801B022878D8D5F89400800729
:103B4000F6D42078400761D5A86D0026C00008D4BF
:103B5000A86D40F08050A865A86D012600F0805047
:103B6000009090480168C90511D40168804641F46D
:103B700080710160FFF74CFB074604E0FFF748FB4C
:103B8000C01B022852D8D8F80000C005F6D5A0689E
:103B9000012815D00528D5F8900016D020F0010096
:103BA000C5F89000D5F8900020F00400C5F890000A
:103BB000A06841F28838B8B1FFF72AFB07460EE04B
:103BC000D5F8900040F00100F0E740F00400C5F89F
:103BD0009000F5E7FFF71CFBC11B414526D8D5F83F
:103BE00090008007F6D50CE0FFF712FB074604E0D3
:103BF000FFF70EFBC11B414518D8D5F89000800790
:103C0000F6D41EB1A86D20F08050A86520788006FB
:103C100029D5A0690028D5F8980013D040F00100FC
:103C2000C5F89800FFF7F4FA064606E077E000BF13
:103C3000FFF7EEFA801B022877D8D5F898008007A6
:103C4000F6D510E020F00100C5F89800FFF7E0FA83
:103C5000064604E0FFF7DCFA801B022865D8D5F899
:103C600098008007F6D4E069F0B3A968C1F3810138
:103C7000032961D00228286820F0807028600BD0CA
:103C8000E86820F00300E860E86847490840E86019
:103C9000FFF7BEFA04464BE0FFF7BAFA064604E027
:103CA000FFF7B6FA801B02283FD828688001F7D4B6
:103CB000F4E908016FF00F0202EB01110843218AB9
:103CC0005204490802EB4151A26841EA022108432B
:103CD000217D4FF07E42490802EB41610843217B80
:103CE00040EAC160E96800E062E0304A1140084300
:103CF000E860286840F080702860E86840F08070D4
:103D0000E860FFF785FA044605E000BFFFF780FA98
:103D1000001B022809D828688001F7D548E004E094
:103D2000FFF776FA001B022802D90320BDE8F883CA
:103D300028688001F4D43BE00128F7D0E868226AC3
:103D400000F00301914226D1616A00F0F0020901FE
:103D5000103991421FD1A26A00F4FE41B1EB022F4B
:103D600019D194F82C2000F07841B1EBC26F12D138
:103D7000218E00F4C00249084905A1F500119142C5
:103D800009D194F8341000F0C06049084906A1F147
:103D9000007181420CD00120C8E7000000100240F1
:103DA0003000002000700040FFFFEEFE0C809F01FD
:103DB0000020BBE770B5040009D0606A002540B15F
:103DC00025616561A56294F85D0040B10CE00120B9
:103DD00070BD6068B0F5827FF4D0E561F2E784F8E9
:103DE0005C50204600F05CF8022084F85D002068FA
:103DF000016821F040010160E1684FF4E062914206
:103E000001D9002001E04FF48050B1F5706F02D06D
:103E1000914200D0A562A188228901F4827102F446
:103E200004421143227C02F002021143227D02F07F
:103E300001021143228B02F400721143227F02F02F
:103E40003802114394F8202002F080021143228DA1
:103E500002F40052114322681160A169042202EAAF
:103E6000114194F8242000F4805002F01002114314
:103E700094F8342002F008021143A28902F470621F
:103E800011430143206841602068C16921F4006149
:103E9000C1612566012084F85D00002070BD00002E
:103EA00010B586B0044614216846FCF7FDF9236876
:103EB0001F4C00221F480221A34219D1036E43F474
:103EC00080530366036E03F480530593C36C43F081
:103ED0000103C364C06C00F001000590E0208DE890
:103EE00007000520CDE9031069464FF090401BE024
:103EF000114CA3421AD1836D43F400438365836D53
:103F000003F400430593C36C43F00403C364C06C23
:103F100000F0040005904FF4E0508DE80700062003
:103F2000CDE9031069460548FFF748F806B010BD13
:103F30000030014000100240003C004000080048F2
:103F40002DE9F05F044690F85C0000270A9E1D46AC
:103F500092468B464FF0010901280ED0012084F8CB
:103F60005C00FFF755F9804694F85D006168012810
:103F70000CD0B1F5827F07D102E00220BDE8F09FAE
:103F8000A16809B9042801D0022700E1BBF1000FA4
:103F900024D0BAF1000F21D005B394F85D000428B5
:103FA00002D0052084F85D0000202066C4F840A0FF
:103FB000A4F84650A4F84450C4F838B0E587A58763
:103FC000E0642065E0684FF4E061884201D8012D8B
:103FD00006D92068426822F4805205E00127D6E025
:103FE0002068426842F480524260206802685206AB
:103FF00003D4026842F040020260E06888426068D0
:1040000045D908B1012D3AD1A06B21680088C8605C
:10401000A06B801CA063E08F401EE0872FE020682B
:10402000816889070FD5E18F69B1B9F1010F0AD114
:10403000A16B0988C160A06B801CA063E08F401E4B
:10404000E0874FF0000920688168C9070FD0B4F8F5
:10405000461061B1C068216C0880206C801C20640F
:10406000B4F84600401EA4F846004FF00109FFF7DF
:10407000CFF8A0EB0800B04201D3701C75D1E08FDF
:104080000028CCD1B4F846000028C8D176E008B1A9
:10409000012D6CD1E08F0128A06B08D92168008820
:1040A000C860A06B801CA063E08F801E07E02168C1
:1040B00000780873A06B401CA063E08F401EE0876F
:1040C00055E02068816889071AD5E18FC1B1B9F13F
:1040D000010F15D1E18F0129A16B07D90988C160B2
:1040E000A06B801CA063E08F801E06E0097801733E
:1040F000A06B401CA063E08F401EE0874FF00009DA
:1041000020688168C90728D0B4F8461029B3B4F8EC
:104110004610012914D9C068216C0880206C801CCD
:104120002064B4F84600801EA4F84600B4F84600A7
:10413000012810D82068416841F4805141600AE0AC
:10414000007B216C0870206C401C2064B4F8460091
:10415000401EA4F846004FF00109FFF759F8A0EB04
:104160000800B04202D3701C01D018E0BEB1E08F4D
:104170000028A6D1B4F846000028A2D14246314614
:10418000204601F085FC10B1012720202066012087
:1041900084F85D00002084F85C003846EEE60327D2
:1041A000F5E710B5401EB0F1807F01D3012010BDAE
:1041B0004FF0E02460610F21601702F022FF002021
:1041C000A06107202061002010BD70477047704734
:1041D000F0B590F83C20012A58D0012280F83C200C
:1041E000CA688B6822F440721A434B6822F48062DA
:1041F0001A430B6822F400621A430B6922F48052BE
:104200001A434B6922F400521A430B6B22F480428A
:104210001A430B8B22F4702242EA03421C4C0368BF
:1042200000271C4D1C4EA34203D0AB4201D0B34229
:1042300005D1D1F81CC022F0805242EA0C02A34200
:1042400003D0AB4201D0B3421BD1B1F828C022F455
:10425000700242EA0C52D1F820C022F0807242EA89
:104260000C02D1F824C022F0007242EA0C02A342F0
:1042700003D0AB4201D0B34203D1C96A22F000524D
:104280000A435A6480F83C700020F0BD0220F0BD63
:10429000002C01400034014000500140704770473D
:1042A00070470000F0B590F83C20012A43D001256A
:1042B00080F83C50022280F83D2003685A689C68D0
:1042C0001E4E1F4FDFF87CC0B34203D0BB4201D06B
:1042D000634504D122F4700E4A6842EA0E02DFF808
:1042E00068E002EA0E02D1F800E04EEA020EC3F8DE
:1042F00004E00268B24212D0B2F1804F0FD0134BEB
:104300009A420CD0124B9A4209D0124B9A4206D0D4
:10431000BA4204D0104B9A4201D0624504D1896858
:1043200024F080031943916080F83D50002180F80B
:104330003C100846F0BD0220F0BD0000002C0140FA
:1043400000340140005001408FFFFFFD0004004099
:1043500000080040000C00400040014010B5044639
:10436000022249B104290ED0082913D094F847003D
:10437000012816D0012010BD94F844000128F9D17D
:1043800084F844200FE094F845000128F2D184F825
:10439000452008E094F846000128EBD184F8462037
:1043A00001E084F847200422206801F07EFE2068A6
:1043B000416C41F40041416413492068884214D0A3
:1043C000B0F1804F11D0114988420ED01049884277
:1043D0000BD01049884208D00F49884205D00F49B8
:1043E000884202D00E49884207D181680D4A1140A7
:1043F000062906D0B1F5803F03D0016841F00101E4
:104400000160002010BD0000002C014000040040AD
:1044100000080040000C0040003401400040014012
:104420000050014007000100704710B5040003D0A0
:1044300094F83D0010B107E0012010BD002084F881
:104440003C00204600F022F8022084F83D00211DA7
:10445000206801F0B3FD012084F8480084F83E0094
:1044600084F83F0084F8400084F8410084F842005A
:1044700084F8430084F8440084F8450084F846003A
:1044800084F8470084F83D00002010BD08B51A4AA2
:1044900001681A4891420ED1016E41F40061016633
:1044A000006E022200F40060009000211920FEF747
:1044B00019FF19201CE0B1F1804F0BD0104A914236
:1044C00007D1816D41F010018165806D00F0100011
:1044D000009008BD816D41F001018165806D002271
:1044E00000F00100009001211C20FEF7FBFE1C20C3
:1044F000BDE80840FEF7E8BE002C01400010024075
:104500000010004090F83D10012901D001207047B3
:10451000022180F83D1000681249884214D0B0F1A1
:10452000804F11D0104988420ED0104988420BD0DC
:104530000F49884208D00F49884205D00E49884269
:1045400002D00E49884207D181680D4A11400629E0
:1045500006D0B1F5803F03D0016841F00101016050
:1045600000207047002C014000040040000800407B
:10457000000C004000340140004001400050014068
:104580000700010090F83D10012901D0012070477B
:10459000022180F83D100168CA6842F00102CA6039
:1045A00000681349884214D0B0F1804F11D01149EE
:1045B00088420ED0104988420BD01049884208D05A
:1045C0000F49884205D00F49884202D00E498842DF
:1045D00007D181680D4A1140062906D0B1F5803F08
:1045E00003D0016841F00101016000207047000024
:1045F000002C01400004004000080040000C004076
:10460000003401400040014000500140070001001B
:1046100001680A6A41F211131A4207D10A6A9B0023
:104620001A4203D10A6822F001020A60012180F8CF
:104630003D1000207047000070B5044690F83C0023
:10464000002501281CD0012684F83C60022084F853
:104650003D0022689068334B184020F47F40906002
:104660000868B0F5005F2ED016DC402849D009DC80
:10467000D0B1102818D0202816D0302849D113E006
:10468000022070BD50282AD0602830D070280FD06A
:10469000B0F5805F3DD13DE010F00F0F39D1011131
:1046A000A1F58031072934D822680146104625E05B
:1046B000CB68D1E90121206801F004FD2068816800
:1046C00041F0770109E0CB68D1E90121206801F0D0
:1046D000F9FC2068816841F4804181601AE0CA6871
:1046E0004968206801F0C2FE5021206806E0CA68CF
:1046F0004968206801F0CBFE6021206801F0ECFCE5
:1047000008E0CA684968206801F0B0FE40212068CE
:10471000F4E7012584F83D60002084F83C00284639
:1047200070BD000088FFCEFF704770B5044600687A
:1047300001694FF00005C943890715D4C168C94311
:10474000890711D4E91E0161012020772068806962
:104750008007204602D0FFF7E7FF04E000F03AF9B7
:10476000204600F0FCF9257720680169C943490714
:1047700017D4C168C943490713D46FF0040101611C
:10478000022020772068806910F4407F204602D004
:10479000FFF7CAFF04E000F01DF9204600F0DFF942
:1047A000257720680169C943090716D4C168C94340
:1047B000090712D46FF008010161042020772068F6
:1047C000C0698007204602D0FFF7AEFF04E000F08A
:1047D00001F9204600F0C3F9257720680169C94333
:1047E000C90617D4C168C943C90613D46FF01001B4
:1047F0000161082020772068C06910F4407F2046BE
:1048000002D0FFF791FF04E000F0E4F8204600F04A
:10481000A6F9257720680169C943C90708D1C1688D
:10482000C943C90704D1891E0161204600F022FA5C
:1048300020680169C943090609D4C168C94309064A
:1048400005D46FF0800101612046FFF7BFFC2068AE
:104850000169C943C90509D4C168C943090605D41A
:104860006FF4807101612046FFF7AFFC2068016999
:10487000C943490609D4C168C943490605D46FF044
:1048800040010161204600F0F6F920680169C94342
:10489000890609D4C168C943890605D46FF020018F
:1048A00001612046FFF793FC20680169C943C902F2
:1048B00009D4C168C943C90205D46FF480110161EC
:1048C0002046FFF7ECFC20680169C943890209D43E
:1048D000C168C943890205D46FF400110161204603
:1048E000FFF7DCFC20680169C943490209D4C168AB
:1048F000C943490205D46FF4800101612046FFF7E6
:10490000CFFC20680169C94309020BD4C168C943BF
:10491000090207D46FF4000101612046BDE8704030
:10492000FFF782BD70BD000070B586B0044614214B
:104930006846FBF7B9FC23492068884240D12248E9
:10494000C16C41F00401C164C16C01F00401059126
:10495000C16C41F00201C164C06C022500F002008C
:1049600005904FF4005000900024CDE9015404203C
:10497000CDE90340154E69463046FEF71FFB072080
:104980000090CDE9015469463046CDE90345FEF774
:1049900015FB01200090CDE901540620CDE903402C
:1049A0000B4E69463046FEF709FB28020090CDE920
:1049B00001540C20CDE9034069463046FEF7FEFA6B
:1049C00006B070BD002C01400010024000080048F5
:1049D00000040048704770B5044690F83C0000267B
:1049E0000D4601280BD0012084F83C000C2A4AD047
:1049F00007DC82B1042A20D0082A06D131E0022047
:104A000070BD102A53D0142A63D00126002084F8E8
:104A10003C00304670BD206801F068FB2068816969
:104A200041F0080181612068816921F00401816100
:104A3000206881692A69114311E0206801F0ACFB0C
:104A40002068816941F4006181612068816921F4F5
:104A500080618161206881692A6941EA022181615E
:104A6000D4E7206801F0E8FB2068C16941F0080143
:104A7000C1612068C16921F00401C1612068C16978
:104A80002A69114311E0206801F026FC2068C16901
:104A900041F40061C1612068C16921F48061C16194
:104AA0002068C1692A6941EA0221C161AEE7206834
:104AB00001F062FC2068016D41F008010165206889
:104AC000016D21F0040101652068016D2A6911431F
:104AD00011E0206801F08CFC2068016D41F4006158
:104AE00001652068016D21F4806101652068016D18
:104AF0002A6941EA0221016588E710B5040003D064
:104B000094F83D0010B107E0012010BD002084F8AA
:104B10003C00204600F022F8022084F83D00211DD0
:104B2000206801F04BFA012084F8480084F83E0028
:104B300084F83F0084F8400084F8410084F8420083
:104B400084F8430084F8440084F8450084F8460063
:104B500084F8470084F83D00002010BD704770477E
:104B600070B50446022269B1042912D0082917D071
:104B70000C291CD0102921D094F84300012824D0FE
:104B8000012070BD94F83E000128F9D184F83E2040
:104B90001DE094F83F000128F2D184F83F2016E090
:104BA00094F840000128EBD184F840200FE094F8FD
:104BB00041000128E4D184F8412008E094F8420043
:104BC0000128DDD184F8422001E084F8432001224D
:104BD000206801F05DFA1D4920681D4A1D4B1E4DDD
:104BE00088420BD0904209D0984207D01B4EB04269
:104BF00004D01B4EB04201D0A84203D1466C46F40B
:104C0000004646642068884211D0B0F1804F0ED033
:104C1000144988420BD01449884208D0134988426D
:104C200005D0904203D0984201D0A84207D18168B4
:104C30000F4A1140062906D0B1F5803F03D0016824
:104C400041F001010160002070BD0000002C014016
:104C50000034014000400140005001400044014048
:104C6000004801400004004000080040000C0040E3
:104C7000070001007047704790F88010012918D094
:104C8000012180F880102421C0F8841050F8641BA2
:104C90000A680B6823F001030B6022F00051002228
:104CA000026050F8643C19602021016202771046CE
:104CB0007047022070477047704770B5044690F8FF
:104CC000800001281DD0012084F880002420C4F831
:104CD000840020680568026822F0010202602068F2
:104CE000826822F060620A438260204601F0E2FBA3
:104CF000206805602020C4F88400002084F880002B
:104D000070BD022070BD70B5044690F88000012887
:104D10001DD0012084F880002420C4F8840020687D
:104D20000568026822F0010202602068826822F0B1
:104D300060420A438260204601F0BCFB20680560A7
:104D40002020C4F88400002084F8800070BD022078
:104D500070BD7047704770472DE9F0410368044605
:104D6000D86919689A6840F60F0528424FF0000587
:104D700009D186067ED501F0200602F080573E4319
:104D800078D0216F27E1A94EA94F16400F40374335
:104D900070D0C70709D0CF0507D501271F62D4F807
:104DA0008C3043F00103C4F88C3083070AD5D30755
:104DB00008D0276802233B62D4F88C3043F0040308
:104DC000C4F88C3043070AD5D30708D027680423DA
:104DD0003B62D4F88C3043F00203C4F88C300307F4
:104DE0000CD501F02003334308D026680823336232
:104DF000D4F88C3043F00803C4F88C3003050BD58D
:104E00004B0109D526684FF400633362D4F88C3027
:104E100043F02003C4F88C30D4F88C30002B3AD007
:104E2000800609D501F0200002F08051084303D02C
:104E3000216F09B120468847D4F88C002168896821
:104E4000490602D410F0280F27D0204601F0F2FBCB
:104E50002068806840061BD52068083050E8001F95
:104E600021F0400140E80012002AF5D1E06F78B14E
:104E7000704900E017E08163E06FFDF7C2FB002896
:104E800009D0E06F816B00E02046BDE8F0410847A3
:104E90002046FFF760FFBDE8F0812046FFF75BFF8B
:104EA000C4F88C50F7E7E76E2026012F7ED1C706A5
:104EB0007CD5CF067AD5102018622068806840061D
:104EC00042D5E16F086840680004000CE3D0B4F8F4
:104ED0005C208242DFD9A4F85E0008680068800682
:104EE0002BD4206850E8001F21F4807140E80012A4
:104EF000002AF6D12068083050E8001F21F0010197
:104F000040E80012002AF5D12068083050E8001F60
:104F100021F0400140E80012002AF5D1C4F8886071
:104F2000E566216851E8000F20F0100041E800021A
:104F3000002AF6D1E06FFDF72FFBB4F85C00B4F85F
:104F40005E10401A81B22CE0B4F85C00B4F85E1038
:104F5000401A81B2B4F85E0000289CD000299AD093
:104F6000226852E8000F20F4907042E80003002B02
:104F7000F6D12E4BDB432068083050E8002F1A4052
:104F800040E80027002FF6D1C4F88860E566256761
:104F9000226852E8000F20F0100042E80003002BC6
:104FA000F6D12046FFF787FE75E7FFE7C70209D570
:104FB000570207D54FF4801018622046BDE8F04133
:104FC000FFF7C8BE03060AD501F0800302F4000211
:104FD000134304D0616F00297FF456AF5BE74206AC
:104FE00011D54A060FD52046016851E8002F22F05E
:104FF000400241E80023002BF6D1C0F884604567E9
:1050000000F02CF947E7020206D54A0004D52046F5
:10501000BDE8F041FFF79DBEC001C5D50029C3DA48
:105020002046BDE8F041FFF747BE00000100001038
:10503000200100042166000810B5040003D0D4F854
:10504000840010B107E0012010BD002084F880002A
:10505000204600F027F82420C4F884002068016866
:1050600021F001010160204601F026FD0128EBD06E
:10507000A06A10B1204601F03FFA2068416821F48F
:10508000904141602068816821F02A018160206898
:10509000016841F0010101602046BDE8104001F0C7
:1050A0008FBA000010B59CB00446142115A8FBF778
:1050B000FBF854216846FBF7F7F81A492068884244
:1050C0002ED101200024CDE900046846FEF7A2F9A4
:1050D00008B1FCF7B0F81448016E41F48041016654
:1050E000016E01F480411A91C16C41F00401C16468
:1050F000C06C15A900F004001A9030201590022011
:10510000CDE916040720CDE918400848FDF756FF01
:10511000022211462520FEF7E5F82520FEF7D4F8F7
:105120001CB010BD003801400010024000080048CB
:1051300030B4D0F88830202B20D1E1B1DAB190F82A
:105140008030012B1AD0012380F880300023C36601
:105150000B4C0368A3420BD05B681B0208D50468A4
:1051600054E8003F43F0806344E80035002DF6D159
:1051700030BC01F0EDBD012030BC70470220FBE7E0
:105180000080004010B5012203490448FFF7D0FF1A
:10519000BDE8104006F0B2BA2D000020000A002041
:1051A0002DE9F8430446D0F884001F4616460D4604
:1051B000202851D1DDB1D6B194F8800001284BD020
:1051C000012084F880004FF00008C4F88C80212072
:1051D000C4F884001834FEF71BF8A6878146E687DA
:1051E00054F8100C183CB0F5805F03D004E00120A7
:1051F000BDE8F883206920B12E46002584F8808020
:1052000010E00026FAE78021204601F02DFEB8B913
:10521000C6B116F8010B21688862B4F85600401E2A
:10522000A4F85600B4F856004B464FF00002009721
:105230000028E8D14FF04001204601F015FE30B1C2
:105240000320D5E735F8020BC0F30800E3E7202080
:10525000C4F884000020CBE70220C9E77047FEE7CE
:1052600013488068002821D0124911484A69801CDF
:10527000B2F1854F03DD038843F0010303800E4B39
:105280009A4203DA028842F0020202800B4B4A6B18
:105290009A4203DD028842F008020280896B084AC4
:1052A000914203DD018841F0100101807047000048
:1052B00000000020040000100000C0410000C842AF
:1052C0000000F04200EB8100006E00F0F8407047F3
:1052D0008068C0F3C00070478068C0F3C0007047AA
:1052E0008068C0F3800070478068C0F3800070471A
:1052F000042303EAD15310B518444369C1F30451A0
:1053000007248C40A3438A401343436110BD00EB44
:105310008100016E21F000411143016670470000D9
:105320000F4910B50A88881E03889A4216D0028851
:1053300022B10123821ED36000239360008808807D
:105340000888084A0849FBF7F7FE074ABDE81040FD
:10535000521C02F10B010548FDF736BA10BD0000E2
:10536000040000200400001070050020F007002059
:1053700070B592B000240F9410943C2168461194AB
:10538000FAF792FF21484FF0A041042501604FF445
:105390004031C0E90114C4600461C0E905450477E7
:1053A00044770126066280F8244080F83840C463C0
:1053B00080F84040FCF712FF08B1FBF73CFF0FA953
:1053C00012480F94FCF75AFE08B1FBF734FF10485F
:1053D00000900920CDE901047F2008960594CDE9CD
:1053E000030580208DF824408DF825400A900B900D
:1053F0008DF826408DF8304069460448FCF7ECFAF9
:10540000002801D0FBF717FF12B070BD4006002046
:105410000800900C70B590B03C216846FAF744FF44
:105420001E481D49002401604FF44031C0E90114B9
:10543000C46004250461C0E905450477447701266A
:10544000066280F8244080F83840C46380F8404009
:10545000FCF7C4FE08B1FBF7EEFE114800900920EE
:10546000CDE901047F2008960594CDE9030580204D
:105470008DF824408DF825400A900B908DF8264039
:105480008DF8304069460548FCF7A6FA002801D09F
:10549000FBF7D1FE10B070BD00010050AC0600203B
:1054A0000400600870B592B000240F9410943C2161
:1054B00068461194FAF7F8FE224821490425016054
:1054C0004902C0E90114C4600461C0E905450477DC
:1054D00044770126066280F8244080F83840C4638F
:1054E00080F84040FCF77AFE08B1FBF7A4FE0FA954
:1054F00014480F94FCF7C2FD08B1FBF79CFE12485C
:10550000009009200190032002907F2008960594C6
:10551000CDE9030588200A908DF8244080208DF87D
:1055200025400B908DF826408DF83040694605489F
:10553000FCF752FA002801D0FBF77DFE12B070BDD7
:1055400000040050180700200200300430B58FB06E
:105550003C216846FAF7A8FE25482449002401604A
:105560004FF40021C0E90114042585610121C460C4
:10557000C0E9044104774477016280F8244080F850
:105580003840C46380F84040FCF728FE08B1FBF7C0
:1055900052FE184800900920019002AA02207F21A3
:1055A000059482E82300089088200A908DF8244012
:1055B00080208DF825400B908DF826408DF83040E6
:1055C00069460B48FCF708FA08B1FBF734FE0A48B5
:1055D000009040F20F10019069460548FCF7FCF975
:1055E000002801D0FBF727FE0FB030BD00060050A9
:1055F000840700200200300404006008124810B53F
:10560000104901600021416081600122C160027483
:10561000417481740A23C0E905320C230424C36158
:10562000C0E9084200F1280C8CE81C004263C0E984
:105630000E21FDF763FA002803D0BDE81040FBF708
:10564000FABD10BD00640040F00700202DE9F041D4
:1056500086B014216846FAF727FE3448C16C41F041
:105660000401C164C16C01F004010591C16C41F0F9
:105670002001C164C16C01F020010591C16C41F0B1
:105680000101C164C16C01F001010591C16C41F0DF
:105690000201C164C06C264E00F002000590002299
:1056A00008213046FDF7AEFD4FF09047002248F24A
:1056B00010013846FDF7A6FDDFF878800022702142
:1056C0004046FDF79FFD0820009001250024CDE90C
:1056D0000154694630460394FDF770FCCDE900544F
:1056E000694638460294FDF769FC10200090CDE928
:1056F0000154694638460394FDF760FCE803CDE9A0
:1057000000050320CDE9024069463846FDF756FC06
:105710007020CDE900050220CDE9024069464046EF
:10572000FDF74CFC06B0BDE8F0810000001002401F
:105730000008004800040048124810B510490160F4
:105740004FF48271416000214FF47062C0E902128F
:105750000122C0E90412520282612022C0E907211D
:1057600007224162C0E90A1201634163FEF722FB8E
:10577000002803D0BDE81040FBF75DBD10BD000060
:105780000030014054080020124810B51049016053
:105790004FF48271416000214FF47062C0E902123F
:1057A0000222026101224261520282611022C0E99A
:1057B000072107224162C0E90A1201634163FEF733
:1057C000F9FA002803D0BDE81040FBF734BD10BD46
:1057D000003C0040B808002010B59CB0002419948B
:1057E0001A9417941894149415941C2168461694CE
:1057F000FAF75AFD342107A8FAF756FD3B483A4913
:10580000C0E900142021816040F64C01C0E9031476
:105810000121C0E90514FEF708FE08B1FBF70BFDF6
:105820004FF48050179017A93048FEF705FF08B1D4
:10583000FBF701FD2D48FFF760F908B1FBF7FBFC12
:105840007020CDE9140414A928481694FEF72AFD07
:1058500008B1FBF7F0FC6020CDE9000404200294BD
:10586000CDE9034005940022694620480694FFF7DD
:10587000B2F808B1FBF7DFFC042269461B48FFF7CA
:10588000AAF808B1FBF7D7FC082269461748049428
:10589000FFF7A1F808B1FBF7CEFC40F648000190F5
:1058A0000C2269461148FFF796F808B1FBF7C3FCD4
:1058B0000794089409944FF400500A94CDE90B40E2
:1058C0000D9400030E94CDE90F401194129407A992
:1058D00006481394FEF77CFC08B1FBF7ACFC0348C8
:1058E000FFF722F81CB010BD002C01401C0900205D
:1058F00010B58EB000240794089409940A940B9470
:105900000C941C2168460D94FAF7CEFC1E484FF00B
:10591000804101603121C0E9011440F64751C0E9DE
:1059200003148461FEF781FD08B1FBF784FC4FF49A
:105930008050079007A91448FEF77EFE08B1FBF7D8
:105940007AFC1148FFF7D9F808B1FBF774FC702016
:105950000B900BA90D940C48FEF7A4FC08B1FBF7C3
:105960006AFC6020009040F64650CDE901040C220C
:10597000694605480494FFF72EF8002801D0FBF78C
:105980005AFC0EB010BD0000680900203EB500248E
:105990000F48009401940D4902940160A921C0E9C7
:1059A00001144FF6FF71C16080218161FEF73DFD5A
:1059B00008B1FBF740FC0094694605480294FEF7E5
:1059C00071FC002801D0FBF736FC3EBD0010004002
:1059D000B4090020184810B5164901604FF4612140
:1059E0004160002181600C22C160C0E90412816124
:1059F000C161016241628162FFF71EFB08B1FBF7E2
:105A00001AFC00210C48FFF77EF908B1FBF713FCE4
:105A100000210948FFF751F908B1FBF70CFC0648D3
:105A2000FFF72AF9002803D0BDE81040FBF703BCBC
:105A300010BD000000380140000A0020FEE770475A
:105A400070B500252DED028BB0EE408A11615060DB
:105A500082ED878A144695600122D1034FF0904071
:105A6000FDF7D0FB4FF40340A0829FED080A84EDC0
:105A7000898A84ED8A0A256004F50D70BDEC028BDD
:105A80005021BDE87040FAF70FBC00000000000094
:105A9000F8B515460E460B460092044600224FF418
:105AA000C05100F019F888B9334600228021204601
:105AB000009500F081F848B9334600224FF4C061E8
:105AC0002046009500F008F8002804D0206E40F031
:105AD000200020660320F8BD2DE9FE4F4FF0000A9C
:105AE000984617460E4604460C9D8DF804A0FDF717
:105AF0008FFB411BA8EB0105FDF78AFB814620685F
:105B00004FF4C06B0C3002902A480068C0EBC00014
:105B100000EB8000000D6843009043E05E4506D135
:105B20002FB9029800788DF804009DF80400B8F1B0
:105B3000FF3F37D0FDF76CFBA0EB0900A84203D272
:105B400015B1009858B32BE02068416821F0E001BE
:105B500041606068B0F5827F0BD1A068B0F5004F5E
:105B600002D0B0F5806F04D12068016821F04001B7
:105B70000160A06AB0F5005F09D12068016821F4D6
:105B8000005101602068016841F40051016001206A
:105B900084F85D0084F85CA00320BDE8FE8F00253A
:105BA000401E0090206880683040B842B6D1002086
:105BB000F3E700005C0000202DE9F8431E46914603
:105BC00088460446089DFDF723FB401B351AFDF768
:105BD0001FFB074625480068C0F3CB30684338E018
:105BE000701C37D0FDF714FBC01BA84203D215B1BF
:105BF000009860B32CE02068416821F0E00141602A
:105C00006068B0F5827F0BD1A068B0F5004F02D07C
:105C1000B0F5806F04D12068016821F04001016077
:105C2000A06AB0F5005F09D12068016821F4005135
:105C300001602068016841F400510160012084F88E
:105C40005D00002084F85C000320BDE8F883002597
:105C5000401E00902068816838EA010004D00021CD
:105C60004945BDD10020F0E70121F9E75C000020A3
:105C700070470000F0B504462DED028B85B04FF45F
:105C80000340ADF80C00B0EE408A132004EB800115
:105C9000401E91ED8C0A002881ED8D0AF6DC4FF450
:105CA00000464FF09047002231463846FDF7AAFAE9
:105CB0000125032301AA03A94F480095FEF740F9E7
:105CC000012231463846FDF79DFABDF806004FF433
:105CD0007C7101EA9010BDF80410C9B200EB81207C
:105CE000BDF80810C1F303110844C11204EB81018F
:105CF00020608A6905EBE021CB1701EB536323F0A9
:105D00007F03C91A04EB8101C30A8969DB02C31A44
:105D1000891A4B4302EBE3210144E26860688A1A66
:105D200000EBD073B2EB630F02DDA268521E07E0F6
:105D3000434203EBD373B2EB630F02DAA268521C47
:105D4000A26000EE101A9FED2D1AE160B8EEC00AB5
:105D500060EE011A00EE100AB8EEC00AC1EE800A29
:105D6000C4ED8A0A94ED020AB8EEC00A40EE010AB8
:105D700094ED890A30EEC00A00EE900A84ED8D0A97
:105D8000F8EEE00A22695143C1EE201A91FBF0F3CC
:105D900000FB131000EE900AB8EEE02AD4ED870A5B
:105DA00041EE820AF5EEC00AF1EE10FA02D270EE70
:105DB000810A06E010EE900A1149884201DD70EE7A
:105DC000C10AC4ED860AD4EDA00A70EE600AB3EEF3
:105DD000030A28EE001A80EE810A00EE902AF8EEFF
:105DE000E00A84ED8B0A20EE800A84ED8C0A05B06F
:105DF000BDEC028BF0BD0000B8080020DB0FC940ED
:105E0000DB0FC940014880ED870A7047C4020010CB
:105E1000014880ED890A7047C4020010FDF7FEB901
:105E200010B594B038216846FAF73EFA14210EA84E
:105E3000FAF73AFA0020FDF787FA012000900004F3
:105E4000032405210190CDE9084102204421CDE938
:105E50000A1007900C900D906846FDF7A5FD08B15B
:105E600072B6FEE70F20CDE90E04002010901190CD
:105E7000129004210EA8FDF74DFC002801D072B647
:105E8000FEE714B010BD00000248016841F4700143
:105E90000160704788ED00E010B509211648FCF755
:105EA00045F8164C092160601548FCF73FF8206062
:105EB00014489FED150AFFF7DDFE1248134990EDD7
:105EC000860A84ED090A90ED8C0A84ED0B0AD0ED68
:105ED0008D0A91ED070A80EE801A84ED081AD0ED44
:105EE0008B0A80EE801A84ED0A1A05F0B5F9BDE838
:105EF00010400748FEF719BCAC0600200400001053
:105F000040060020C402001017B7D13770000020EF
:105F10001C09002070B509212DED028B2048FCF7EB
:105F200005F8204D288040F20F111D48FBF7FEFFB9
:105F3000688009211C48FBF7F9FF1C4C00EE900A11
:105F4000DFED1B1A94ED050AB8EEE01A9FED198AF1
:105F5000F0EE400A41EE610A00EEC80A84ED050A3F
:105F60002888FBF72BFCD4ED0E0A30EEC00A40EE79
:105F7000480AC4ED0E0A6888FBF782FCD4ED0D0ACE
:105F800030EEC00A40EE480AC4ED0D0AFFF768F98A
:105F9000BDEC028B0848BDE87040FEF7C6BB0000B0
:105FA00084070020180000201807002004000010BB
:105FB0009999F83CCDCC4C3D680900202DE9F04F73
:105FC00002682A4B2A4E2B4FDFF8ACC02B4C2C4DCD
:105FD0004FF0804B98420BD0584509D0B04207D0C3
:105FE000B84205D0604503D0A04201D0A84204D1F8
:105FF00022F070084A6842EA0802DFF88880DFF879
:106000008890DFF888A0984211D058450FD0B04250
:106010000DD0B8420BD0604509D0A04207D0404512
:1060200005D0484503D0504501D0A84203D122F401
:106030004076CA6832434E6922F0800232430260E1
:106040008A68C2620A688262984209D0A04207D078
:10605000404505D0484503D0504501D0A84201D164
:106060000969016301214161BDE8F08F002C014005
:106070000004004000080040000C004000340140D3
:1060800000500140004001400044014000480140F0
:1060900010B501F01F030121046A99408C4304628A
:1060A000016A9A401143016210BD10B501F01F034F
:1060B0000421046A99408C430462016A9A401143A6
:1060C000016210BD10B5846842EA032224F47F44C3
:1060D0000A432243826010BD8268034B1A400A4380
:1060E00042F00701816070478FFFCFFF2DE9F04735
:1060F000026A22F001020262056A436882691F4C4B
:1061000025F0020522400C6822F0030214438A683D
:106110001C4E2A431A4D1C4FDFF870C0DFF87090F8
:10612000DFF870A0A84209D0B04207D0B84205D02D
:10613000604503D0484501D0504506D122F00808FB
:10614000CA6842EA080222F00402A84209D0B0421A
:1061500007D0B84205D0604503D0484501D050452E
:1061600005D14D6923F440731D438B692B43436074
:106170008461496841630262BDE8F0878FFFFEFFDA
:10618000002C014000340140004001400044014027
:106190000048014000500140F0B5026A22F01002B0
:1061A0000262056A426883691C4C1E4E23400C68DB
:1061B00023F4407343EA042425F020038D681A4F2A
:1061C00043EA0513164DA84203D0B04201D0B842AD
:1061D00007D1D1F80CC023F0800343EA0C1323F05D
:1061E0004003A8420CD0B0420AD0104DA84207D0BC
:1061F0000F4DA84204D00F4DA84201D0B84207D19C
:106200004D6922F4406242EA85028D6942EA8502C4
:1062100042608461496881630362F0BDFF8FFFFEC5
:10622000002C01400034014000500140004001407A
:106230000044014000480140F0B5026A22F4807237
:106240000262056A4268C3691C4C1E4E23400C68FA
:1062500023F003031C4325F400738D681A4F43EAAF
:106260000523174DA84203D0B04201D0B84207D150
:10627000D1F80CC023F4006343EA0C2323F48063B9
:10628000A8420CD0B0420AD0104DA84207D0104D01
:10629000A84204D00F4DA84201D0B84207D14D69A1
:1062A00022F4405242EA05128D6942EA0512426028
:1062B000C4614968C1630362F0BD00008FFFFEFF47
:1062C000002C0140003401400050014000400140DA
:1062D0000044014000480140F0B5026A22F48052B7
:1062E0000262056A4268C3691C4C1E4E23400C685A
:1062F00023F4407343EA042425F400538D681A4FB5
:1063000043EA0533164DA84203D0B04201D0B8424B
:1063100007D1D1F80CC023F4004343EA0C3323F433
:106320008043A8420CD0B0420AD0104DA84207D0FA
:106330000F4DA84204D00F4DA84201D0B84207D15A
:106340004D6922F4404242EA85128D6942EA851283
:106350004260C461496801640362F0BDFF8FFFFEC3
:10636000002C014000340140005001400040014039
:10637000004401400048014030B5026A22F48032F6
:106380000262046A4268036D124D2B400D681D4382
:1063900024F400330C8943EA04430F4CA0420ED08E
:1063A0000E4CA0420BD00E4CA04208D00D4CA04287
:1063B00005D00D4CA04202D00C4CA04204D14C6937
:1063C00022F4803242EA0422426005654968816411
:1063D000036230BD8FFFFEFF002C014000340140FE
:1063E000004001400044014000480140005001408D
:1063F00030B5026A22F480120262046A4268036DB8
:10640000134D24F400142B400D6843EA05230D8935
:1064100044EA05540F4DA8420ED00F4DA8420BD0B0
:106420000E4DA84208D00E4DA84205D00D4DA842F1
:1064300002D00D4DA84204D14D6922F4802242EAD7
:106440008522426003654968C164046230BD000072
:10645000FF8FFFFE002C014000340140004001404E
:1064600000440140004801400050014010B5036A5B
:10647000046A24F001040462846924F0F00444EA0C
:10648000021423F00A020A438461026210BD10B5AF
:10649000036A23F0100303628369046A23F47043E0
:1064A00043EA023224F0A00343EA0111826101624F
:1064B00010BD000030B5416EB9B1026891689268B4
:1064C000C1F342610B4B520F9C5CE50003F10804E1
:1064D000A25CB5FBF2F2A0F86A205A5C615CD200C3
:1064E000B2FBF1F1A0F8681030BD0121A0F86A10EC
:1064F000F8E7000074C2000890F82810C90706D019
:1065000001684A68C36A22F400321A434A6090F86C
:106510002810890706D501684A68036B22F4803287
:106520001A434A6090F82810490706D501684A685E
:10653000436B22F480221A434A6090F8281009071E
:1065400006D501684A68836B22F400421A434A6008
:1065500090F82810C90606D501688A68C36B22F432
:1065600080521A438A6090F82810890606D501687F
:106570008A68036C22F400521A438A6090F828104B
:10658000490611D501684A68436C22F480121A4307
:106590004A60416CB1F5801F06D101684A68836C7E
:1065A00022F4C0021A434A6090F82810090606D562
:1065B00001684A68C06C22F4002202434A607047B6
:1065C000F8B500260446C0F88C60FCF721FE0546AD
:1065D000206800686FF07E47000708D52B46002230
:1065E0004FF400112046009700F03EFC60B920688F
:1065F000006840070AD52B4600224FF48001204650
:10660000009700F031FC08B10320F8BD2020C4F849
:106610008400C4F8880044F86C6F00202675F8BD2B
:1066200010B5806A0021A0F85E10A0F85610FEF7A1
:1066300092FB10BD10B5026852E8001F21F4907162
:1066400042E80013002BF6D10E4B0268083252E8E4
:10665000001F194042E80014002CF6D1C16E012938
:1066600008D1016851E8002F22F0100241E8002310
:10667000002BF6D12021C0F888100021C1660167E7
:1066800010BD0000FEFFFFEF10B5B0F86020D0F89D
:1066900088300168222B04D0886940F008008861A6
:1066A00010BD496A836D11401980816D891C816517
:1066B000B0F85E10491EA0F85E10B0F85E10002918
:1066C000EED1026852E8001F21F4907142E80013F5
:1066D000002BF6D10168083151E8002F22F00102A9
:1066E00041E80023002BF5D12021C0F888100021BB
:1066F0000167C26E012A02D0FEF744FD10BDC166DB
:10670000026852E8001F21F0100142E80013002B3C
:10671000F6D10168CA69D243D20601D410220A62B6
:10672000B0F85C10FEF7C7FA10BD00002DE9F04785
:106730000446B0F860600068C569D0F800A0D0F8E1
:106740000880D4F88810222905D0816941F0080119
:106750008161BDE8F087B4F868704FF0000963E02C
:106760002068406AA16D30400880A06D801CA06543
:10677000B4F85E00401EA4F85E002068C569690791
:1067800030D0E9070AD05FEACA5107D5012101627A
:10679000D4F88C0040F00100C4F88C00A8070BD599
:1067A0005FEAC87008D0216802200862D4F88C0023
:1067B00040F00400C4F88C0068070BD55FEAC8708D
:1067C00008D0216804200862D4F88C0040F0020050
:1067D000C4F88C00D4F88C0020B12046FEF7BBFA38
:1067E000C4F88C90B4F85E00F0B9216851E8000F4D
:1067F00020F4807041E80002002AF6D1264A206881
:10680000083050E8001F114040E80013002BF6D17B
:106810002020C4F88800C4F87090E16E4846012931
:1068200023D02046FEF7AEFC0FB1A80698D4B4F8EA
:106830005E0000288DD0B4F86810814289D92068A4
:10684000083050E8001F21F0805140E80012002A73
:10685000F5D112482067206850E8001F41F0200160
:1068600040E80012002AF6D173E7E066216851E89B
:10687000000F20F0100041E80002002AF6D1206845
:10688000C169C943C90601D410210162B4F85C1082
:106890002046FEF710FAC7E7FEFFFFEF8966000803
:1068A00010B5B0F86020D0F888300168222B04D0F1
:1068B000886940F00800886110BD496A1140826D06
:1068C0001170816D491C8165B0F85E10491EA0F8F9
:1068D0005E10B0F85E100029EED1026852E8001F89
:1068E00021F4907142E80013002BF6D101680831C1
:1068F00051E8002F22F0010241E80023002BF5D1DE
:106900002021C0F8881000210167C26E012A02D040
:10691000FEF738FC10BDC166026852E8001F21F086
:10692000100142E80013002BF6D10168CA69D24376
:10693000D20601D410220A62B0F85C10FEF7BBF94F
:1069400010BD00002DE9F0470446B0F86060006813
:10695000C569D0F800A0D0F80880D4F888102229A2
:1069600005D0816941F008018161BDE8F087B4F884
:1069700068704FF0000963E02068406AA16D304004
:106980000870A06D401CA065B4F85E00401EA4F81D
:106990005E002068C569690730D0E9070AD05FEA60
:1069A000CA5107D501210162D4F88C0040F00100E2
:1069B000C4F88C00A8070BD55FEAC87008D021681E
:1069C00002200862D4F88C0040F00400C4F88C0067
:1069D00068070BD55FEAC87008D0216804200862F8
:1069E000D4F88C0040F00200C4F88C00D4F88C007D
:1069F00020B12046FEF7AFF9C4F88C90B4F85E00E1
:106A0000F0B9216851E8000F20F4807041E80002DD
:106A1000002AF6D1264A2068083050E8001F1140AD
:106A200040E80013002BF6D12020C4F88800C4F8F9
:106A30007090E16E4846012923D02046FEF7A2FB64
:106A40000FB1A80698D4B4F85E0000288DD0B4F831
:106A50006810814289D92068083050E8001F21F071
:106A6000805140E80012002AF5D1124820672168C1
:106A700051E8000F40F0200041E80002002AF6D162
:106A800073E7E066216851E8000F20F0100041E84C
:106A90000002002AF6D12068C169C943C90601D4A1
:106AA00010210162B4F85C102046FEF704F9C7E734
:106AB000FEFFFFEFA16800082DE9F04104460168E0
:106AC00080682269E3691043626900251A43104314
:106AD000DFF84CC20A68934B1A4002430A602068F0
:106AE0004168E26821F44051114341602168A06986
:106AF000614501D0226A10438A688B4B1A400243D9
:106B00008A602068C16A626A21F00F011143C16284
:106B10008649236886488B420DD1D0F8880010F052
:106B2000030006D0012867D0022854D0032851D191
:106B300064E001204FE07F498B420BD1D0F8880000
:106B400010F00C0047D0042845D0082852D00C285B
:106B500040D153E078498B420BD1D0F8880010F037
:106B6000300038D0102847D0202843D0302831D1E9
:106B700044E072498B420BD1D0F8880010F0C0007D
:106B800029D0402838D0802834D0C02822D135E000
:106B90006B498B420ED1D0F8880010F440701AD0A7
:106BA000B0F5807F28D0B0F5007F23D0B0F5407FCE
:106BB00010D123E063450DD1D0F8880010F4406077
:106BC00009D0B0F5806F17D0B0F5006F12D0B0F5D6
:106BD000406F13D010205B4A5B4F00264FF40041FA
:106BE000634539D160B102280DD004280DD00828A2
:106BF00031D10EE00220EEE70420ECE70820EAE7BE
:106C0000FCF776FE03E0114603E0FCF795FE010079
:106C10007BD0606A37F810206768B1FBF2F007EBB1
:106C20004703834269D8B0EB073F66D80023084684
:106C30001946F9F7EFFA090241EA106102027808F1
:106C4000101871413A460023F9F7E4FA3F4AA0F5DB
:106C50004071914257D950E0E3694FF6EF788B428B
:106C60002BD1092849D2DFE800F005080D48254856
:106C700048480E00FCF73CFE01E0FCF74BFE01002B
:106C800001D142E01146606A37F81000B1FBF0F024
:106C90004100606801EB5001B1FBF0F1A1F110007F
:106CA00040452AD84FF6F07201EA0200C1F34201D2
:106CB000084328E0FCF740FEE1E709281DD2DFE8A1
:106CC00000F005080D1C1E1C1C1C0E00FCF710FE1D
:106CD00001E0FCF71FFE010001D116E01146606AD9
:106CE00037F81000B1FBF0F1606801EB5001B1FB27
:106CF000F0F0A0F11001414504D9012505E0FCF7B1
:106D00001BFEE8E780B22168C8600120A4F86A0091
:106D100024F8680F2846A660E660BDE8F081000010
:106D200000800040F369FFCFFFF4FF1100380140FD
:106D3000001002400044004000480040004C004069
:106D4000005000400024F4005CC20008FFFC0F006B
:106D500070B58165A0F85C20A0F85E200021016775
:106D600083684FF48055FF24AB4204D10369FBB91B
:106D700040F2FF1322E07F26C3B1B3F1805F1AD047
:106D8000A0F86010C0F88C102223C0F88830036887
:106D9000083353E8004F44F0010443E80046002E56
:106DA000F5D1436EB3F1005F0ED032E0036943B911
:106DB000A0F86040E6E703691BB13F23A0F860300C
:106DC000E0E7A0F86060DDE7B0F86830934220D8D3
:106DD0008268AA4201D10269CAB11F4A026780F8DB
:106DE0008010016941B1026852E8001F41F48071CE
:106DF00042E80013002BF6D10168083151E8002F5A
:106E000042F0805241E80023002BF5D121E0134AE3
:106E1000E4E78268AA4201D102697AB1104A0267A6
:106E200080F88010016959B1026852E8001F41F4EE
:106E3000907142E80013002BF6D10AE0094AEEE710
:106E4000026852E8001F41F0200142E80013002BC5
:106E5000F6D1002070BD0000456900082D670008CC
:106E6000A1680008896600082DE9F0479A46174690
:106E70000E4604464FF000094FF02008089D4AE0F6
:106E8000681C48D0FCF7C4F9A0EB0A00A8422AD835
:106E90004DB32068016849073DD5C069C04300056E
:106EA00039D421684FF400600862206850E8001F60
:106EB00021F4D07140E80012002AF6D12068083091
:106EC00050E8001F21F0010140E80012002AF5D12E
:106ED00044F8848FC4F80480C4F8088004F8049C43
:106EE0000320BDE8F087216851E8000F20F4D0703E
:106EF00041E80002002AF6D12068083050E8001F5F
:106F000021F0010140E80012002AF5D144F8848FF5
:106F1000C4F80480E2E72068C06936EA000004D0C3
:106F20000020B842ACD00020DBE70120F9E70000E8
:106F30000148FDF711BF0000000A0020FEE7000035
:106F4000014602484FF40072F9F795B9DC020010CF
:106F500010B5084C00209FED080AA06084ED890A56
:106F600020469FED060AFEF785FE94ED8D0A84ED1E
:106F7000890A10BDC4020010000000006F1283399E
:106F80000FB4054B10B503A9044A029801F0E8FCC0
:106F900010BC5DF814FB000075A400086000002020
:106FA00003B401984100009850EAC12018BF0420A2
:106FB0004A0D18BF40F0010040F2FF72B2EB515F82
:106FC00008BF40F00200012808BF052002B070474A
:106FD0004100080218BF04200A0E18BF40F001004B
:106FE0004FF07F4232EA010108BF40F00200012861
:106FF00008BF0520704720F00040C0F1FF40C00FDF
:1070000070470907090E002804DB00F1E02080F832
:107010000014704700F00F0000F1E02080F8141D0C
:1070200070470000004870476C000020000000001E
:1070300030B583B0044601F0ADFB9FED090B05466A
:107040008DED000B002221466846F9F7ECFA284640
:1070500001F0B6FB9DED000B03B030BD0000000059
:107060000000000000000000B4EEE00AF1EE10FAAB
:1070700001DCB0EE600A7047B4EEE00AF1EE10FAFF
:1070800001D3B0EE600A704710B52DED040B86B049
:107090009DED060B10EE100A10EE901A8DED000B10
:1070A000002818BF0120084320F00040C0F17F6095
:1070B00000F1E040C00F21D19DED080B10EE101A39
:1070C00010EE900A8DED000B002918BF0121084336
:1070D00020F00040C0F17F6000F1E040C00F0DD112
:1070E00029490798B1EB400F04BF0698002842D009
:1070F0000998400004BF089800283CD09DED080B7B
:1071000053EC102B9DED060B51EC100BF9F78DFC99
:10711000CDE902019DED020B40F2FF7110EE900AE5
:107120008DED000B31EA105021D00798039900F043
:10713000004001F00041884219D09DED080B8DED13
:10714000040B9DED020B8DED000B10EE900A0599DE
:1071500061F31E0005909DED041B9DED020B51ECAB
:10716000110B53EC102BF9F75BF9CDE902019DED02
:10717000020B0AB010BD012001F022FB0AB0BDE8ED
:10718000104001F019BA00000000E0FF10B52DED2D
:10719000028BF0EE408A18EE900AB0EE608A20F082
:1071A0000040C0F1FF40C00F07D118EE100A20F0D8
:1071B0000040C0F1FF40C00F2BD018EE101A18EE9F
:1071C000900AF9F7D2FA00EE100A10EE100A6FEAF0
:1071D000D05010F0FF0F04BFBDEC028B10BD18EEB5
:1071E000900A00F0004110EE100A00F000408142C9
:1071F00004BFBDEC028B10BD18EE101A10EE100A81
:10720000BDEC028B61F31E0000EE900A30EE600AC6
:1072100010BD18EE900A4FF07F41B1EB400F1CBF3C
:1072200018EE100A5FEA4000C7D1012001F0C8FA49
:10723000BDEC028BBDE8104001F0F2B90000000087
:1072400070B5D94B00242DED020B2DED108BDDE92F
:107250001010984205DA20F000429A4201D809D174
:1072600041B19DED100BBDEC108B02B0BDE870403C
:1072700001F08EB9B0F5801F26DA11430BD000283B
:1072800013DA012001F09CFABDEC108B02B0BDE8CE
:10729000704001F091B9022001F092FA01F060F91A
:1072A00051EC100B81F000419EE06FF035049FED32
:1072B000C00B53EC102B9DED100B51EC100BF9F79C
:1072C000DAFACDE91001084604EB2051C0F31304AB
:1072D000B948A1F2FF31204400F4801080F07F62B1
:1072E00082F04052224301EB20559FEDB50B1192E5
:1072F00053EC102B9DED100B51EC100BF9F78DF8A2
:1073000041EC180BA01CC0F313009FEDAFDB9FED09
:10731000B0EBB14E7E4403286CD296ED000B51ECDD
:10732000180B53EC102BF9F7EDFB1DD1002D01BF0D
:1073300096ED000BBDEC108B02B070BD2846F9F73E
:10734000B7FB41EC180B53EC1D2BF9F794FA41EC09
:10735000190B53EC1E2B51EC180BF9F78CFA53EC6C
:10736000192BF8F7B9FF3FE09FED9D0B51EC180B7F
:1073700053EC102BF9F77FFA9FED9B1B53EC112B6D
:10738000F9F74EF841EC190B53EC182B51EC180B94
:10739000F9F771FA53EC192BF9F76DFA41EC190B67
:1073A000002D04BF53EC192B51EC180B1AD02846B2
:1073B000F9F77EFB41EC1A0B53EC1D2BF9F75BFA46
:1073C00053EC192BF9F72CF853EC182BF9F725F897
:1073D00041EC180B53EC1E2B51EC1A0BF9F74BFA3E
:1073E00053EC182BF9F719F8BDEC108B02B041ECF7
:1073F000100B70BD9FED7E0B51EC180B53EC102B56
:10740000F8F76AFF41EC100B51EC180B53EC102B02
:10741000F9F709F841EC190B2846F9F749FB41EC5B
:107420001B0B53EC192B51EC190BF9F724FA41EC17
:107430001A0B714853EC1A2B261851EC1A0BF9F75A
:107440001AFA41EC1F0B6D48C4F1510404F5D7241E
:10745000B0EE4F0AF0EE6F0A0321784401F001F814
:1074600053EC1F2B51EC100BF9F705FA41EC1C0BF8
:107470006348B0EE4F0AF0EE6F0A0421784400F042
:10748000F0FF53EC1A2B51EC100BF9F7F4F93443DD
:1074900053EC1C2BF8F720FF41EC1C0B002C4CDDAF
:1074A0009FED510B51EC180B53EC102BF9F7E3F94E
:1074B00053EC182BF9F7DFF941EC1A0B55B353ECE9
:1074C0001D2B51EC1B0BF9F7D6F941EC1D0B53ECBE
:1074D0001C2B51EC1A0BF8F7FFFE53EC192BF9F7A4
:1074E000CAF953EC1D2BF8F7F7FE53EC1A2BF8F7FB
:1074F00097FF53EC182BF8F790FF41EC180B53EC67
:107500001E2B51EC1B0BF9F7B6F953EC182BF8F7BF
:1075100084FF69E753EC1C2B51EC1A0BF8F7DCFEE7
:1075200053EC192BF9F7A7F953EC1A2BF8F778FF5E
:1075300053EC182BF8F774FF56E735B353EC1D2BBB
:1075400051EC1B0BF9F797F941EC1A0B53EC1C2B80
:1075500051EC180BF8F761FF53EC192BF9F78BF985
:1075600053EC1A2BF8F759FF53EC182BF8F755FF8B
:1075700041EC180B53EC1E2B51EC1B0BF9F77BF96C
:1075800053EC182BF8F749FF2EE753EC1C2B51EC6A
:10759000180BF8F742FF53EC192BF9F76CF953EC81
:1075A000182BF8F73DFF1FE70000F07F00000000F8
:1075B0000000000000005043645F0900000000006C
:1075C000000000000000F03F763C7935EF39EA3DDD
:1075D0000000E0FE422EE63F4850000000000000A0
:1075E000555555555555D53F000000000000E03F6A
:1075F000000000000000004086EBF9FF424E000052
:10760000384E0000000000002DE9F04D2DED040B78
:107610002DED0E8B96B0DDE92550279CDDF890A06E
:1076200025F0004624F00048BAF1000F14BF0121F4
:10763000002101EB4502FC4953184A1093422AD31A
:10764000002814BF0123002303EB44030B44F74934
:107650008B4220D358EA00019FEDF59B76D0DFF8EE
:10766000D8B35D4503D1BAF1000F05D188E0BAF176
:10767000000F08BF002100D0012101EB450111F5E9
:10768000001F08D8002814BF0121002101EB44018C
:1076900011F5001F0BD99DED261B9DED240B16B097
:1076A000BDEC0E8B04B0BDE8F04D00F07BBF0027B1
:1076B000002DBCBFE149884521DAE1498845A8BFD2
:1076C00002271CDAC3451ADCDE4901EB28511429D4
:1076D00008DDC1F1340220FA02F101FA02F282421D
:1076E0000DD108E058B9C1F1140228FA02F101FAEB
:1076F00002F2424503D101F00101C1F1020756EA4D
:107700000A0124D1002C22DA002D18BF022F01D04B
:10771000012F0AD0022001F053F816B0BDEC0E8BF9
:1077200004B0BDE8F04D00F01BBF022001F048F8A6
:1077300000F016FF51EC100B81F0004141EC100BF2
:1077400016B0BDEC0E8B04B0BDE8F08D18E09FEDD7
:10775000BEAB9FEDBF8B002871D1B848804522D1C8
:1077600005F1804010F5801008BFBAF1000F07D076
:10777000B3450ADC002CA8BF9DED260BE0DA0DE036
:10778000B0EE490AF0EE690ADAE7002C06DA9DED60
:10779000260B51EC100B81F000416FE0AE487844AD
:1077A00090ED000BCCE7D8454DD1002C48DA2EB136
:1077B00086423AD1BAF1000F42D126E0BAF1000F69
:1077C00013D0022000F0FCFF00F006FF8DED020B4D
:1077D0009DED240B8DED000B10EE900A039961F3E3
:1077E0001E0003909DED020BAAE78DED02AB9DED0F
:1077F000240B1AEE901A10EE900A8DED000B61F337
:107800001E0003909DED020B9AE78DED028B9DED1E
:10781000240B18EE901A10EE900A8DED000B61F318
:107820001E0003909DED020B8AE709DA9DED240B03
:1078300051EC190B53EC102BF8F7F5FD1EE020E08E
:107840009DED240B7CE786421BDAB4F1804F0DD00E
:10785000A4F10050B0F1FF5013D1002D11DB9DEDCC
:10786000240B51EC100B03F0FDFD07E09DED240B04
:1078700053EC102B51EC100B00F0C2BC41EC100B80
:107880005EE79DED240B51EC100B02F0A9FDBAF15F
:10789000000FCDE90E0142D19FED710B46B3A6F169
:1078A000E040B0F17F600CD05E4538D1002D00DAA9
:1078B000A7B3022F0CBF01204FF0FF30F9F7F8F803
:1078C000DCE7002D01DD002C0DDA002D01DD002CA0
:1078D0001FDB002D16DA002C14DB012F08BF9FEDF3
:1078E000620B3FF42DAFB0EE4A0AF0EE6A0A27E7CA
:1078F000022F18BF002D0CD0012F0AD1002DFFF64A
:107900001FAF06E0002DB8BF002C08DA012F3FF4AE
:1079100017AFB0EE480AF0EE680A11E71BE001204D
:1079200000EBE57050EA070115D0791EB0EE498AE8
:10793000F0EE698A084308BF9FED4D8B4E48002545
:10794000804570DD4D494E48884514DDB0420DDB61
:10795000002C19DB2FE0012000F032FF16B0BDEC47
:107960000E8B04B0BDE8F04D00F026BEB34502DC3E
:10797000002C09DC1FE0864202DA002C1BDA03E04F
:107980005E452BDD002C16DD022000F019FF00F013
:1079900023FE8DED020B53EC1A2B51EC180BF8F76C
:1079A0006AFFCDE900010399019861F31E0003907D
:1079B0009DED020BC4E6022000F002FF00F01CFE69
:1079C00010EE901A18EE900A8DED020B8DED008BE3
:1079D00061F31E0003909DED020BB1E69DED0E0BD1
:1079E00053EC192B51EC100BF8F717FD9FED260BFC
:1079F000CDE9080153EC102B9DED080B51EC100B59
:107A0000F8F739FF9FED221B53EC112BF8F708FD17
:107A10009DED081B53EC112BF8F72DFF9FED1E1B5E
:107A200053EC112B3CE08CE0FFFF1F00FFFF0F0029
:107A3000000000000000F03F0000F03F0000F07F79
:107A40000000404301FCFFFF000000000000F07F49
:107A50000000000000000000BE4B0000000000001D
:107A60000000000000000080000000000000F0FFA7
:107A7000000000000000F0BF0000E0410000F04303
:107A8000FFFFEF3F00000000000000000000D03FBB
:107A9000555555555555D53F000000000000E03FB5
:107AA000F8F7BEFC9DED080B41EC1A0B53EC102BC4
:107AB00051EC100BF8F7DFFE53EC1A2BF8F7DBFE56
:107AC00041EC1A0B9FEDFE0B53EC102B9DED080BB8
:107AD00051EC100BF8F7CFFE41EC1B0B9FEDFA0BAE
:107AE00051EC1A0B53EC102BF8F7C5FE41EC1A0BB6
:107AF0009FEDF70B53EC102B9DED080B51EC100B89
:107B0000F8F7B9FE53EC1A2BF8F787FC41EC1A0B87
:107B100051EC1B0B53EC1A2BF8F7DEFB0690CDE96A
:107B200006519DED060B53EC1B2B51EC100BF8F797
:107B300074FC53EC1A2BF8F773FC41EC100B00F0BB
:107B4000A1B90020B6F5801F0EDA9FEDE30B53ECD0
:107B5000102B9DED0E0B51EC100BF8F78CFECDE9C0
:107B60000E016FF034000E4600EB2650A0F2FF37F6
:107B7000C6F31300DA4940F07F6646F0405688426B
:107B8000D8BF002408DDD7498142C8BF012403DCE7
:107B90000024A6F580167F1CD348784400EBC4006F
:107BA0000F9690ED00CB9DED0E0B53EC1C2B51EC82
:107BB000100BF8F732FC9DED0E0B41EC1B0B53EC58
:107BC0001C2B51EC100BF8F787FB41EC100B51EC20
:107BD000190B53EC102BF8F726FC41EC1D0B51EC64
:107BE0001B0B53EC1D2BF8F746FE41EC1A0BBF485C
:107BF0008DED10AB7844109590ED000B4FF00050D8
:107C000040EA660000EB84408DED080B00F5002093
:107C100009909DED080B53EC1C2B51EC100BF8F761
:107C2000FCFB9DED0E1B53EC112BF8F7F9FB41EC1F
:107C3000100B53EC102B9DED100B51EC100BF8F7C3
:107C40001AFE9DED080B41EC1C0B53EC102B9DED27
:107C5000100B51EC100BF8F70EFE53EC1B2BF8F742
:107C6000DFFB53EC1C2BF8F7D8FB53EC1D2BF8F77C
:107C700002FE41EC1C0B53EC1A2B51EC1A0BF8F7DB
:107C8000FAFD41EC1B0B9A480621B0EE4B0AF0EED0
:107C90006B0A784400F0E5FBB0EE401AF0EE601A93
:107CA000B0EE41DAF0EE61DA53EC1B2B51EC1B0B1A
:107CB000F8F7E1FD53EC1D2BF8F7DDFD9DED100B02
:107CC00041EC1B0B53EC1A2B51EC100BF8F704FB97
:107CD00053EC1C2BF8F7CFFD53EC1B2BF8F7FCFAF9
:107CE0009DED100B41EC1B0B53EC102B51EC100BCA
:107CF000F8F7C1FD41EC1D0B9FED7FEB53EC1E2B04
:107D0000F8F7EAFA53EC1B2BF8F7E6FA0890CDE9FE
:107D100008519DED080B53EC1E2B51EC100BF8F79E
:107D20007CFB53EC1D2BF8F778FB53EC1B2BF8F77F
:107D300077FB9DED080B41EC1D0B53EC102B9DEDDB
:107D4000100B51EC100BF8F796FD41EC1B0B53ECAC
:107D50001A2B51EC1D0BF8F78EFD9DED080B41EC35
:107D60001A0B53EC102B51EC1C0BF8F784FD53EC61
:107D70001A2BF8F7B1FA41EC1A0B51EC1B0B53EC30
:107D80001A2BF8F7A9FA0C90CDE90C519DED0C0BCC
:107D900053EC1B2B51EC100BF8F73FFB53EC1A2B59
:107DA000F8F73EFB41EC1B0B9FED550B53EC102BF2
:107DB0009DED0C0B51EC100BF8F75DFD41EC1A0B2F
:107DC0009FED510B51EC1B0B53EC102BF8F753FDAF
:107DD00041EC1B0B9FED4E0B53EC102B9DED0C0B50
:107DE00051EC100BF8F747FD53EC1B2BF8F774FA26
:107DF00041EC100B4848784400EBC40090ED001BA8
:107E000051EC100B53EC112BF8F766FA41EC1B0BFD
:107E10003846F8F74DFECDE9080153EC1B2B51EC29
:107E20001A0BF8F759FA41EC100B3C48784400EB78
:107E3000C40090ED00CB51EC100B53EC1C2BF8F769
:107E40004BFA9DED081B53EC112BF8F745FA069001
:107E5000CDE906519DED080B53EC102B9DED060B63
:107E600051EC100BF8F7D9FA53EC1C2BF8F7D5FAB4
:107E700053EC1A2BF8F7D1FA53EC1B2BF8F7D0FA86
:107E800041EC100B9DED261B53EC102B8DED001BD0
:107E900000959DED260B51EC100BF8F7ECFC9DEDD9
:107EA000000B41EC1A0B53EC102B9DED260B51EC03
:107EB000100BF8F7B2FA9DED061B53EC112B2FE0D7
:107EC000000000604715F73FFE822B654715F73F1E
:107ED00044DF5DF80BAE543E00000000000040435C
:107EE0008E9803007AB60B003A47000068470000FE
:107EF0007246000000000000000000000000084082
:107F0000000000E009C7EE3FFD033ADC09C7EE3F81
:107F1000F5015B14E02F3EBEFE440000B8440000B3
:107F2000F8F7A9FC53EC1A2BF8F7D6F99DED060BE0
:107F300041EC1A0B53EC102B9DED000B51EC100B88
:107F4000F8F799FCCDE90C019DED0C0B51EC1A0BE7
:107F500053EC102BF8F7C0F9CDE902010C46AA4901
:107F60008C422FDB611A084318D19DED0C0B53ECAA
:107F7000102B9DED020B51EC100BF8F74EFA41EC73
:107F80001B0B9FEDA30B51EC1A0B53EC102BF8F7C6
:107F9000A3F953EC1B2BF8F7CDFD2DD2022000F0F6
:107FA0000FFC00F019FB10EE901A18EE900A8DED00
:107FB000020B8DED008B61F31E0003909DED020B13
:107FC000FFF7BEBB944A24F00041914214D3934979
:107FD000214408437FF4EFAC9DED0C0B53EC102BC8
:107FE0009DED020B51EC100BF8F717FA53EC1A2B1E
:107FF000F8F7A0FD7FF6DFAC24F000408849894AFD
:10800000002601EB205182422BDA481C4FF48011EC
:1080100021FA00F02044844AC0F30A517A44A1F2C4
:10802000FF3192ED000B814A8DED080BCA4020EA2A
:108030000202C0F3130040F48010C1F1140120FAD1
:1080400001F60992002CB8BF76429DED080B53EC67
:10805000102B9DED0C0B51EC100BF8F7DEF9CDE970
:108060000C019DED0C0B51EC1A0B53EC102BF8F797
:1080700033F99FED6F0B0890CDE9085153EC102BAD
:108080009DED080B51EC100BF8F7F5FB41EC1B0BC9
:108090009FED690B53EC102B9DED080B51EC100B71
:1080A000F8F7E9FB9DED0C0B41EC1C0B53EC102B8E
:1080B0009DED080B51EC100BF8F7AFF953EC1A2BB0
:1080C000F8F7AEF99FED5E1B53EC112BF8F7D3FBDD
:1080D00053EC1C2BF8F700F941EC1A0B51EC1B0B7D
:1080E00053EC1A2BF8F7F8F8CDE902019DED020BDD
:1080F00053EC1B2B51EC100BF8F78FF953EC1A2BA8
:10810000F8F78EF99DED020B41EC1A0B53EC102B96
:1081100051EC100BF8F7AFFBCDE908014A489DED93
:10812000080B0521784400F09CF99DED081B51ECEB
:10813000100B53EC112BF8F79EFB9DED021B53EC3B
:10814000112BF8F76DF9CDE906019DED020B53EC0B
:108150001A2B51EC100BF8F78EFB53EC1A2BF8F797
:10816000BBF89FED3B0B41EC1A0B53EC102B9DED34
:10817000060B51EC100BF8F750F99DED060B41EC96
:108180001B0B53EC102B9DED020B51EC100BF8F771
:1081900072FB53EC1B2BF8F746F953EC1A2BF8F74C
:1081A0003CF99DED021B53EC112BF8F736F953EC1B
:1081B000192BF8F735F9CDE9020101EB065001154D
:1081C0000029C8BF039015DC9DED020B324651EC2F
:1081D000100BF8F7C2FBFEF7E3FE042808BF00F01F
:1081E0000BFA32469DED020B51EC100BF8F7B5FB84
:1081F000CDE902019DED020B51EC180B53EC102B55
:10820000F8F739FBFFF73ABB000090400000000090
:10821000FE822B654715973C00CC904000346F3FA1
:1082200001FCFFFF0000E03F40430000FFFF0F00A4
:1082300000000000432EE63F396CA80C615C20BEB4
:10824000EF39FAFE422EE63F104200000000000027
:10825000000000000000004000B510EE101A2DEDE7
:10826000028B81B0524A6846B2EB410F2ED94FF0D3
:10827000E640B0EB410F94BF00204FF0FF3000907C
:108280000098B0EE408A00286ADB10F0010F4BD056
:1082900068EE080A9FED471A9FED470A00EE810A33
:1082A0009FED461A10F0020F00EE801AB7EE000A9A
:1082B00000EE810A02BF01B0BDEC028B00BD00BF21
:1082C00001B0B1EE400ABDEC028B00BD3C4B21F089
:1082D0000042934241D911F0004FDFED3A0A20EEFF
:1082E000201ADFED390A19BF31EE601A71EE200A4B
:1082F00031EE201A71EE600ABDEEE01A11EE100A9E
:108300009FED321A00F0030000EEC10A9FED301A13
:10831000009000EEC10A9FED2F1A00EEC10A9FEDFA
:108320002E1A00EEC10AABE728EE080A9FED2B1AC1
:10833000DFED2B0A10F0020F40EE410A9FED291AE3
:1083400000EE201A61EE000AB0EE480A08EE200A9C
:10835000B6D101B0BDEC028B00BD00F071F98FE722
:1083600018EE100A4000B0F17F4F0DD218EE100A3F
:10837000FEF72EFE042808BF00F05AF9B0EE480AB6
:1083800001B0BDEC028B00BD09D1012000F018FA4C
:1083900001B0BDEC028B5DF804EB00F041B901B017
:1083A000B0EE480ABDEC028B5DF804EB00F034B986
:1083B000B61F927EB93AB2BACA9F2A3DDDFFFFBE10
:1083C000490E494683F9223F0000004B0000C93F97
:1083D00000A0FD390020A2331A61342C336D4C39D2
:1083E000DA82083CA0AA2ABE00B52DED048BB0EEBF
:1083F000409AF0EE609A83B051EC190BF8F7C4FA8A
:1084000041EC180B18EE100A18EE901A8DED008B47
:10841000002818BF0120084320F00040C0F17F6011
:1084200000F1E040C00F14D019EE101A19EE900AB6
:108430008DED009B002918BF0121084320F000406A
:10844000C0F17F6000F1E040C00F04BF012000F0E8
:10845000B7F9B0EE480A03B0F0EE680ABDEC048B41
:1084600000BD70B504462DED028B4D1E00EBC5001E
:10847000B0EE408AF0EE608A90ED000B35F0060019
:1084800017D053EC182B51EC100BF8F7F4F941EC22
:10849000100B6D1E04EBC50090ED001B51EC100B92
:1084A00053EC112BF7F718FF41EC100B35F00600D9
:1084B000E7D1022D36D0042D1CD0062D1CBFBDECFB
:1084C000028B70BD53EC182B51EC100BF8F7D3F95D
:1084D00094ED0A1B53EC112BF7F7FEFE53EC182B0F
:1084E000F8F7C9F994ED081B53EC112BF7F7F4FEDC
:1084F00041EC100B53EC182B51EC100BF8F7BBF9B7
:1085000094ED061B53EC112BF7F7E6FE53EC182BFA
:10851000F8F7B1F994ED040B53EC102BF7F7DCFEF0
:1085200041EC100B53EC182B51EC100BF8F7A3F99E
:1085300094ED021B53EC112BF7F7CEFE53EC182BE6
:10854000F8F799F994ED001B53EC112BF7F7C4FEE3
:10855000BDEC028B41EC100B70BD00000000000070
:108560009FED070B10B553EC102B9FED070B51EC53
:10857000100BF7F758FF41EC100B10BD0000000086
:108580000000000000000000000000000000F03FBC
:1085900010B553EC102B51EC100BF7F79DFE41EC8E
:1085A000100B10BD10B553EC112B51EC100BF7F75D
:1085B00093FE41EC100B10BD9FED050B10B553EC75
:1085C000102B51EC100BF7F72EFF41EC100B10BDE8
:1085D00000000000000000009FED050B10B553ECFB
:1085E000102B51EC100BF8F746F941EC100B10BDB5
:1085F00000000000000000709FED050B10B553EC6B
:10860000102B51EC100BF8F736F941EC100B10BDA4
:10861000000000000000001030EE000A704700006B
:10862000DFED020A80EEA00A7047000000000000A3
:108630009FED020A20EE000A7047000000000010C3
:108640002DE9F0014FF07F42B2EB410F9FBF4FF099
:10865000FF310160BDE8F00170474FF0004242EA8F
:108660000123C1F3C752783A551112F01F0C434C45
:10867000CCF120067C44C1F3C752A2F178024FEA44
:10868000621204EB820254F8254008BFD2E9015679
:1086900012D0556804FA0CF425FA06F73C439768A3
:1086A00005FA0CF527FA06F8D26807FA0CFCF24036
:1086B00045EA08054CEA0206A4FB034CA5FB03525D
:1086C000A6FB03631D449D4234BF012600261319F7
:1086D000334416B1934202D903E0934201D20122FE
:1086E00000E00022624402F1200C9206DC0C42EA17
:1086F000443200EE102A5B03DFED210AF8EEC01AC7
:1087000000EE103A4FEA9C1C11F0004FB8EE400A00
:10871000C0F800C020EE201A00EE105ADFED190A52
:10872000B8EE400A20EE200A71EE810A70EE800A4F
:1087300010EE902A02F500626FF30B0200EE902A11
:1087400070EEE11A31EEC11ADFED101A30EE411A67
:108750009FED0D0A20EE800A01EE210A9FED0C1A12
:1087600000EE810A04BFBDE8F0017047CCF18051F2
:108770000160BDE8F001B1EE400A7047F03C000036
:10878000000000360000802C22AAFD29DB0FC92F33
:108790000000C92F01480068704700006C000020ED
:1087A00002E008C8121F08C1002AFAD170477047BA
:1087B000002001E001C1121F002AFBD17047000018
:1087C00001490860704700006C0000202DE9FF5F40
:1087D00082B00021DDE90430020DDDF840B0034332
:1087E00018D044F61050A2F2FF32424315141198EB
:1087F00001281FD0A5EB0B00401C5FEA000A4FF0D8
:1088000000064E4FDFF83891B046504615D5CAF1F4
:10881000000413E0119801244AA3012801D16FEA52
:108820000B010298119AC0E90031C0E9024206B07A
:10883000BDE8F09FCBF10000DFE704460021404A8D
:10884000491842EB0450CDE9001012E0E00707D0D0
:1088500032463B4640464946F8F70DF88046894681
:1088600032463B4610461946F8F705F806460F46CD
:108870006410002CEAD1DDE90401DDE90023BAF13E
:10888000000F06DAF7F7F7FF42464B46F7F7F3FF1C
:1088900005E0F7F7C8FD42464B46F7F7C4FD04462E
:1088A0000E460022284BF8F745F903D84FF0FF3069
:1088B000014607E00022254B20463146F7F70CFD24
:1088C000F8F707F9102409E0002C0ADB0A2200233C
:1088D000F7F7A0FC039B30321A55641E50EA0102E0
:1088E000F2D1641C039AC4F111031444119A012AB1
:1088F00003D0012208430DD10AE0084304D0002030
:108900004FF0110B119072E7A3EB0B056D1E0DE0FC
:108910005B4504DD4FF0000205F1010504E003DAD8
:108920004FF00002A5F10105002AECD00298119940
:10893000C0E90231C0E9004579E7000000001440B9
:108940000000F03F300000000000F0430000E03F76
:1089500030380A2801D201207047002070470000FB
:108960002DE9FF4F95B09A46884606460025EEE170
:10897000252877D100242746F94A0121039400E0F5
:10898000044316F8013F203B01FA03F01042F7D1EF
:1089900030782A2811D06FF02F033078A0F1300200
:1089A000092A16D8039A44F0020402EB820203EB70
:1089B00042021044761C0390EFE758F8042B039210
:1089C000002A03DA504244F40054039044F00204B5
:1089D000761C30782E2816D116F8010F44F00404C6
:1089E0002A280DD06FF02F023078A0F13003092B28
:1089F00009D807EB870302EB4303C718761CF3E79C
:108A000058F8047B761C30786C280FD006DC4C2894
:108A100017D068280DD06A2814D104E0742810D02B
:108A20007A280FD10DE044F400140AE044F48014D5
:108A300001E044F440147278824202D104F58014BB
:108A4000761C761C307866280BD013DC582877D03B
:108A500009DC002875D04528F6D04628F4D04728F0
:108A60001AD193E118E0632835D0642879D06528BD
:108A700012D18BE1702873D008DC6728F1D0692807
:108A80006FD06E280DD06F2806D1ACE073282CD0A3
:108A9000752874D0782853D05246179990476D1C8A
:108AA00054E1C4F30250022809D003280DD0D8F8AD
:108AB000001004280DD00D6008F1040846E1D8F834
:108AC0000010EA17C1E90052F6E7D8F800100D804F
:108AD000F2E70D70F0E718F8041B8DF80010002085
:108AE0008DF80100EB46012003E058F804BB4FF07D
:108AF000FF3061074FF0000102D40DE009F10101E0
:108B00008946B9420FDA8145F8DB1BF809100029C4
:108B1000F4D108E009F1010189468142FADB1BF832
:108B200009100029F6D103985346A0EB0907214606
:108B30003846179A00F080FA284400EB090507E050
:108B400044E008E10DE01BF8010B524617999047ED
:108B5000B9F10109F7D2534621463846179AF2E097
:108B600039E00A21C4F302524FF0000B0091022AAF
:108B700006D058F8040BC117032A09D00AE023E0F5
:108B800008F1070020F00702F2E80201904605E034
:108B900000B2C117042A01D140B2C117002906DA78
:108BA0000A460021404261EB02012D2202E022052B
:108BB00004D52B228DF80420012203E0E20701D026
:108BC0002022F7E7914657E00A2100E010214FF0FC
:108BD000000B00910BE010214FF0000B44F0040457
:108BE0000827009103E008204FF0000B0090C4F329
:108BF0000252022A05D058F8040B0021032A08D09B
:108C000008E008F1070020F00702F2E802019046B0
:108C100003E080B2042A00D1C0B24FF0000922075D
:108C20002AD53278702A07D0DDF800C08CF0100CFD
:108C30005CEA0B0C05D00EE040228DF804200122E6
:108C400008E050EA010306D030238DF804308DF897
:108C5000052002229146009B83F0080353EA0B0390
:108C60000AD150EA010201D1620705D530228DF800
:108C700004204FF001097F1E3278582A04D039A20F
:108C80000C920CAA02920BE03BA2F9E75B46009A19
:108C9000F7F7C0FA0C9B9B5C029A521E029213706B
:108CA00050EA0102F2D1029804A9081A00F1200B3F
:108CB000600702D524F4803400E001275F4502DD1F
:108CC000A7EB0B0000E0002000EB0B0100900398E5
:108CD0004944401A0390E00306D453462146179AAC
:108CE000039800F0A9F90544002706E001A85246C0
:108CF000C05D179990476D1C7F1C4F45F6DBE00364
:108D00000CD553462146179A039800F095F905446F
:108D100004E030205246179990476D1C0099481E78
:108D200000900029F5DC08E002980299524600788C
:108D3000491C0291179990476D1CBBF10001ABF1E2
:108D4000010BF1DC5BE100F065F90544761C30783D
:108D500000287FF40DAE19B02846BDE8F08F000062
:108D60000928010030313233343536373839616201
:108D700063646566000000003031323334353637C5
:108D8000383941424344454600000000600700D4A2
:108D9000062708F1070020F00700F0E802238046CC
:108DA00003F0004C5FEA0C0001D097A009E0200519
:108DB00001D596A005E0E00701D095A001E0AFF253
:108DC0004C001390307823F0004365280CD006DC6B
:108DD000452809D046281DD047287FD13BE066288A
:108DE00018D067287AD136E00021112F01DB11203D
:108DF00000E0781CCDE9000104A90CA8FFF7E6FC0F
:108E0000DDE90D010C9A4FF0000B07F101091092FA
:108E100000914EE04FF000400097CDE9011004A909
:108E20000CA8FFF7D3FCDDE90D020C9B0F994FF066
:108E3000000B91461093009211B9791C00EB0109C7
:108E4000B7EB090003D4C0F1FF3B07F10109A9EB1F
:108E50000700019042E0012F00DA01270021112FC5
:108E600001DD112000E03846CDE9000104A90CA87D
:108E7000FFF7ACFCDDE90D010C9A00914FF0000BFF
:108E8000B946109221070FD4009A4A4503DA914659
:108E900001E0A9F10109B9F1010F05DD109AA9F16D
:108EA0000101515C3029F4D0B84202DA10F1040F0C
:108EB00003DA0121CDE9011010E0002803DC83442E
:108EC000A9EB000102E0411C494500DD8946A0EB09
:108ED0000B00401C01904FF000400290200705D489
:108EE0000198484502DB4FF0FF30019000208DF8DB
:108EF0004B0002980DF14B07B0F1004F25D0022036
:108F00000C902B200D90029800280CDA4042029021
:108F10002D200D9007E00A210298F7F722FB30314F
:108F2000029007F8011D0C99481E0C900029F2DCF4
:108F300002980028EFD1791E0D980870307800F063
:108F4000200040F0450007F8020D11A8C01BC01D0D
:108F500002901398007800B1012000EB09010198FC
:108F600001EBE071029801440398401A401E0390FF
:108F7000E00306D453462146179A039800F05CF8A4
:108F800005441398007818B15246179990476D1C04
:108F9000E00323D553462146179A039800F04CF876
:108FA00005441BE0BBF1000F07DB0098584504DDCA
:108FB0001098179910F80B0001E0179930205246CD
:108FC000904701980BF1010B401E05F1010501903E
:108FD00004D12E205246179990476D1CB9F100011B
:108FE000A9F10109DEDC05E017F8010B52461799DB
:108FF00090476D1C0299481E02900029F4DC5346EC
:109000002146179A03989EE62D0000002B000000D1
:10901000200000002DE9F041044600251E461746B9
:10902000880404D405E039462020B0476D1C641E36
:10903000F9D52846BDE8F0812DE9F0410446002528
:109040001E469046C80301D5302700E0202788043B
:1090500004D505E041463846B0476D1C641EF9D57D
:109060002846BDE8F081000070B514462DED048B54
:109070000D460646F0EE418AB0EE609AF0EE409A58
:10908000F8F74EFBF0EE401AB0EE690AB0EE618AD6
:10909000F8F74EFB68EE090A9FED141A9FED142AAB
:1090A00040EE680A60EE011A68EE022A28EE011A04
:1090B000C6ED000AF6EE000A48EE601A40EE602A9D
:1090C00000EE601A61EE891A42EEE81AC5ED001A48
:1090D00060EE021A48EE601A61EE891A41EE681AD3
:1090E000C4ED001ABDEC048B70BD0000D7B35D3F2A
:1090F000D7B35DBF2DE9F34F2DED0C8BADF50D7D95
:109100000C46F6A0FDF73CFFDFEDFDAA4FF46066CC
:10911000304601F03BFD8146304601F037FD054603
:10912000B9F1000F7DD0002D7BD04FF40077384689
:1091300001F02CFD8990002873D031464846F7F79E
:10914000B3F831462846F7F7AFF839468998F7F76C
:10915000ABF8304601F01AFD8046304601F016FDAE
:109160008246B8F1000F5CD0BAF1000F59D03146F9
:109170004046F7F799F831465046F7F795F83946E3
:1091800003A8F7F791F88998FDF7DAFE304601F069
:10919000FDFC8B90304601F0F9FC8A908B980028FA
:1091A0003FD08A9800283CD031468B98F7F77CF85E
:1091B00031468A98F7F778F89FEDD29AF0EE498A0F
:1091C000DFEDD1BA8DED839AB6EE00BA8DED86BA99
:1091D00083AA85A984A8B0EE491AF0EE6B0AB0EE16
:1091E000680AFFF741FF86AA87A988A8DDED831AE0
:1091F0009DED851ADDED840AB7EE000A02F06AF9EA
:10920000DFF808B3002649F64047B7EE008A00BFF2
:10921000DBF80000C16A490800EE101AB8EE400AF7
:1092200000E039E3DDED880A78EE600A20EE200ADE
:10923000BCEEC00A10EE101A4163B548DBF800100E
:109240000068CA6A4FEA520200EE102AB8B1F8EE7E
:10925000400A9DED870A38EE400A20EE800ABCEEF7
:10926000C00A10EE102A8A63DBF80000C16ADDED47
:10927000860A490800EE101AB8EE400A16E0DDED45
:10928000860AB8EE400A78EE600A20EE200ABCEEAC
:10929000C00A10EE102A8A63DBF80000C16ADDED17
:1092A000870A490800EE101AB8EE400A78EE600A04
:1092B00020EE200ABCEEC00A10EE101AC163642032
:1092C000F9F7F8F9761CBE42A2DB9FED92AA9998B5
:1092D000B0EE4A0AFCF7CEFCD4F88C106068401A55
:1092E00000EE100AF8EEC00A9FED8B0A60EE800ACD
:1092F000C4ED020AD4F888102068401A01EE100A62
:1093000004F14001081FB8EEC11A21EE001AB1EEB7
:10931000600A84ED031A70EE411AC4ED041A94ED4C
:10932000090A00F0E5FC206CF7F7ECF841EC100BB3
:109330009FED7ADBB0EE4D1AF0EE6D1AFEF764F990
:10934000B0EE40CAF0EE60CAE06BF7F7DBF841EC34
:10935000100BB0EE4D1AF0EE6D1AFEF755F9B0EEA7
:10936000401AF0EE601A53EC1C2B51EC110BF6F77F
:10937000B3FF41EC100BFFF737F851EC100BF7F788
:10938000D4F80CEE900A67A0FDF7FAFD0024F1EE88
:109390000C9A00264FEA0B0778EEAA8A83AA85A9C1
:1093A00084A8B0EE491AF0EE6B0AB0EE680AFFF737
:1093B0005BFE86AA87A988A8DDED831A9DED851A34
:1093C000DDED840AB7EE000A02F084F83868BB4687
:1093D000C16ADDED880A490800EE101A78EE600ACD
:1093E000B8EE400A20EE200ABCEEC00A10EE101AB9
:1093F0004163474839680068CA6A4FEA520200EE82
:10940000102AB8EE400AA8B1DDED870A78EE600AAE
:1094100020EE200ABCEEC00A10EE102A8A63DBF8A8
:109420000000C16ADDED860A490800EE101AB8EEA8
:10943000400A14E0DDED860A78EE600A20EE200A8C
:10944000BCEEC00A10EE102A8A63DBF80000C16A85
:10945000DDED870A490800EE101AB8EE400A78EEF2
:10946000600A20EE200ABCEEC00A10EE101AC1639A
:109470006420F9F71FF9B0EE4A0A9998FCF7FAFB55
:10948000761C282E88DBB0EE4A0A9998FCF7F2FB8E
:10949000F8F784F988EEA9CAB0EE40DA09EB840047
:1094A0003CEE4D0A80ED000AF8F782F98B9941F8FD
:1094B000240000901DEE100AF7F724F806460F4628
:1094C0001CEE100AF7F71EF841EC100B00980096FE
:1094D000CDE9017053EC102B21463BE053746172CF
:1094E00074696E672063616C6962726174696F6E22
:1094F0002070726F6365647572650A0D000000006C
:109500007CD9A03A00000000CDCCCC3D1C09002045
:109510007001002017B7D137FFFFA4BC0000000086
:10952000000000402043757272656E7420416E67C2
:109530006C65203A20526F746F7220416E676C65C3
:10954000203A2052617720456E636F646572200A6D
:109550000D0A0D00D3A0FDF713FD641CB4F5607F68
:10956000FFF617AF0024B0EE4ADADFF854B3D54E59
:10957000002700BF78EEEA8A83AA85A984A8B0EE06
:10958000491AF0EE6B0AB0EE680AFFF76DFD86AA85
:1095900087A988A8DDED831A9DED851ADDED840A83
:1095A000B7EE000A01F096FF3068C16ADDED880A67
:1095B000490800EE101A78EE600AB8EE400A20EE74
:1095C000200ABCEEC00A10EE101A4163DBF800005E
:1095D00000283068C16A4FEA510100EE101AB8EE57
:1095E000400A14D0DDED870A78EE600A20EE200AEA
:1095F000BCEEC00A10EE101A81633068C16ADDED5E
:10960000860A490800EE101AB8EE400A13E0DDEDB4
:10961000860A78EE600A20EE200ABCEEC00A10EE40
:10962000101A81633068C16ADDED870A490800EECF
:10963000101AB8EE400A78EE600A20EE200ABCEE5E
:10964000C00A10EE101AC1636420F9F733F8B0EEC7
:109650004D0A9998FCF70EFB7F1C282F8ADBB0EE91
:109660004D0A9998FCF706FBF8F798F888EEA9CA16
:10967000B0EE40AA05EB84003CEE4A0A80ED000AF9
:10968000F8F796F88A99834641F824001AEE100AF2
:10969000F6F738FF06460F461CEE100AF6F732FFC3
:1096A00041EC100B8DE8C00853EC102B21467DA037
:1096B000FDF766FC4FF46076641CB442FFF655AFCC
:1096C000B0EE490A0020DFED800A00BF09EB8001FF
:1096D00091ED001AA5EB800101F54061401CD1ED30
:1096E0007F1AB04271EE211A81EEA01A31EE000A03
:1096F000ECDB20EE290A10EE100AF6F703FF41EC2E
:10970000100B9FED721BFDF7BFFC51EC100BF6F731
:109710000CFF08EE100AB0EE480AFCF773FB6D4828
:1097200080ED008A5FF0000009EB800191ED000AF6
:10973000A5EB800101F54061D1ED7F0A08EB8001C6
:10974000401C30EE200AB04220EE0B0A81ED000AE8
:10975000EADB0024DFED608A00210AEB84070819A8
:10976000403802D500F5607003E0B04201DBA0F59F
:10977000607008EB800097ED000AD0ED000A491CEC
:10978000802900EEA80A87ED000AE8DB802C12DAB7
:1097900008EB8400D7ED000A90ED000A30EE600A75
:1097A00020EE290AFEF758FD20EE2C0A03A800EB54
:1097B000840080ED000AD7ED000A9FED481A641C72
:1097C000B44280EE810A30EE099AC5DB8B980168BD
:1097D0008A98D0F8FC0D084400EBD070471040A0E8
:1097E000FDF7CEFB4AA0FDF7CBFB0024DFED558A49
:1097F00004EBE7267F2E00DD803EF7F7C3FF00EE87
:10980000100AC4EBC4010AEB8100B8EEC00AD0ED27
:10981000000A8998324670EEC90A214620EE200AD5
:10982000C0EE280ABDEEE00A10EE103A40F82630ED
:1098300045A0FDF7A5FB0120F8F732FF641C802C42
:10984000D6DB8998FDF77CFB1D488022143089996E
:10985000F6F711FD18EE100AF6F754FE41EC100B66
:109860003EA053EC102BFDF78BFB01F04BFD504657
:1098700000F00EFE404600F00BFE484600F008FEE9
:10988000284600F005FE899800F002FE8B9800F053
:10989000FFFD8A9800F0FCFD0DF50D7DBDEC0C8BF5
:1098A000BDE8FC8F256409252E346609202020257B
:1098B0002E3466092020202025640D0A00000000B7
:1098C000700100201C0900200000E044000000603E
:1098D000FB211940700000200000003C00006044A3
:1098E0000A0D20456E636F646572206E6F6E2D6C7D
:1098F000696E65617269747920636F6D70656E73EE
:109900006174696F6E207461626C650D0A000000FD
:109910002053616D706C65204E756D626572203AE2
:10992000204C6F6F6B757020496E646578203A200B
:109930004C6F6F6B75702056616C75650A0D0A0D62
:1099400000000000DB0FC9402564092020202564A9
:10995000092020202564200D0A0000000A0D456E14
:10996000636F64657220456C656374726963616CD2
:10997000204F66667365742028726164292025660D
:109980000D0A00007CB5164C2068A188ADF80410C3
:10999000019900F00CFA134D012220212846F9F715
:1099A00031FC1149114801F027F90F490F48FFF721
:1099B000A1FB002220212846F9F724FCC820F8F753
:1099C0006FFE0BA0FDF7DCFA2068A188ADF804104B
:1099D000019900F0DDF915490020C8607CBD000048
:1099E0001C0000200004004804000010C402001005
:1099F0000A0D2043616C6962726174696F6E206345
:109A00006F6D706C6574652E2020507265737320C5
:109A1000276573632720746F2072657475726E20DA
:109A2000746F206D656E750A0D0000000000002047
:109A300038B50C4901244A684264496881640021B0
:109A4000C0E90E140464416300F134010648F8F7DC
:109A5000E0FE02220023114603480094F8F707FFB6
:109A600038BD000070010020F007002000214FF4F5
:109A700000220162C0E9062141620161C162816286
:109A80004161704770B58D4D04462DED028B9FED01
:109A90008C0A4168D0F88C00D4F88820091A206814
:109AA00000EE901A801A01EE100AF8EEE00A2B6818
:109AB000B8EEC11A60EE800A21EE000AC4ED020A77
:109AC00043B1F1EE600A84ED030A30EEC00A84ED82
:109AD000040A07E0F1EE600A84ED040A30EEC00AE1
:109AE00084ED030A04F1080094ED090A04F1400131
:109AF000D0EC030A343000F0FBF894ED110AD4EDF9
:109B0000100A30EE601ADFED6F1A01EE610A84ED83
:109B1000110A94ED050A9FED6C1A20EE010A9FEDE3
:109B20006B1A6B4804F1500120EE010A84ED060A1D
:109B300090ED031A081F84ED071A94ED241AD4ED52
:109B40000F1A31EE618A94ED251A71EE608AD4ED18
:109B50001D0A94ED201A60EE810A94ED1B1A41EE65
:109B6000080AC4ED130AD4ED1E0A94ED211A60EE22
:109B7000810A94ED1C1A41EE280AC4ED140A00F083
:109B800001FD94ED200A30EE081A84ED201A94EDC0
:109B9000210A70EE280AC4ED210A94ED2F0AB4EED2
:109BA000C01AF1EE10FA01DD84ED200AF4EEC00ACD
:109BB000F1EE10FA01DD84ED210AD4ED200AB1EEB8
:109BC000400AF4EEC00AF1EE10FA01D284ED200A48
:109BD000D4ED210AF4EEC00AF1EE10FA01D284EDC0
:109BE000210A94ED090AD4ED0B0A9FED3A1A04F10B
:109BF0006802111F00EE810A94ED141AD4ED130AC5
:109C0000081FFFF731FA04F16000021FD0EC030ACD
:109C1000111F94ED050A0C3801F05CFC2E482F4909
:109C20002D680A1F0068131F002DC56AB7EE000AD1
:109C300000EE905AF8EE600A12D094ED171A30EE4A
:109C4000411A60EE810AFCEEE00A10EE905A0D60B7
:109C5000C16A94ED161A00EE901AF8EE600A11E04F
:109C600094ED161A30EE411A60EE810AFCEEE00A1D
:109C700010EE905A0D60C16A94ED171A00EE901A1A
:109C8000F8EE600A30EE411A60EE810AFCEEE00A5E
:109C900010EE901A1160C06A94ED151A00EE900A49
:109CA00030EE410AF8EE600A20EE800ABCEEC00AEF
:109CB00010EE100A1860BDEC028B70BD7001002020
:109CC000FFFFA4BCCDCC4C3DD7A3703F3ACD133F92
:109CD0007000002051491D381C0900203C2C014017
:109CE000DFED020A30EEC00A01F096BBDB0FC93F80
:109CF00070B50C462DED068B0546F0EE618AB0EE90
:109D0000419AF0EE609AB0EE40AAFFF7E9FFB0EE9C
:109D1000402AB0EE4A0AB0EE428A01F07DFBDFED48
:109D2000170AF6EE002ADFED161A20EE201A68EE6A
:109D3000200A08EE621A40EE620A21EE093A20EE8D
:109D4000211A08EE293A08EE621A01EE283A9FED30
:109D50000D1A23EE012A85ED002A28EE212A60EE55
:109D6000691A00EE622A42EE491A40EEE81A21EE24
:109D7000810A84ED000ABDEC068B70BDD7B35D3F50
:109D8000D7B35DBFABAA2A3F1C23062200F0BAB8A6
:109D900070B504460D46022200F018F840F00403A6
:109DA00029462046BDE87040022200F0ABB870B5ED
:109DB00004460D46022200F009F820F0040329466B
:109DC0002046BDE87040022200F09CB807B54FF471
:109DD000004040EAC22081B2684600F001F80EBDA2
:109DE00038B5018004464FF09045002210212846E6
:109DF000F9F708FA642000900123A21C21460848C4
:109E0000FAF79EF8064800BF90F85D100229FBD0D3
:109E1000012210212846F9F7F5F9608838BD0000C5
:109E2000540800202DE9FF410DF12808920298E81E
:109E3000F01042EA432242EA042242EA8512DDE9B6
:109E40000F1042EA461242EA071242EACC0242EA04
:109E50008101014388B240F440516846FFF7C0FFDA
:109E6000BDE8FF812DE9FF410DF12808520298E875
:109E7000F01042EA032242EAC41242EA4512DDE946
:109E80000F1042EA061242EAC70242EA8C0242EA94
:109E90004101014388B240F480516846FFF7A0FFBA
:109EA000BDE8FF811FB51102069841EA0311014385
:109EB00088B240F4C0516846FFF792FF1FBD1FB53E
:109EC0009202DDE9061042EA032242EA011101434F
:109ED00088B240F400516846FFF782FF1FBD1FB5EE
:109EE0009202DDE90710069C42EA032242EA84124C
:109EF00042EA0111014388B240F420516846FFF75D
:109F00006FFF1FBD1FB543EAC22081B26846FFF74D
:109F100067FF1FBD1CB5204908688988ADF804108B
:109F20000199FFF735FF1DA0FDF72AF81DA0FDF7E9
:109F300027F80A20F8F7BEFB1EA0FDF721F80A203B
:109F4000F8F7B8FB20A0FDF71BF80A20F8F7B2FBE2
:109F500024A0FDF715F80A20F8F7ACFB25A0FDF7C3
:109F60000FF80A20F8F7A6FB28A0FDF709F80A2049
:109F7000F8F7A0FB2CA0FDF703F80A20F8F79AFBEE
:109F80002F490020C86002B00246BDE810401021F1
:109F90002C48F9F737B900001C0000200A0D0A0D03
:109FA0000A0D000020436F6D6D616E64733A0A0DF7
:109FB00000000000206D202D204D6F746F72204D29
:109FC0006F64650A0D0000002063202D2043616C42
:109FD00069627261746520456E636F6465720A0D13
:109FE000000000002073202D2053657475700A0D49
:109FF000000000002065202D20446973706C617999
:10A0000020456E636F6465720A0D0000207A202D72
:10A0100020536574205A65726F20506F736974699C
:10A020006F6E0A0D0000000020657363202D20452F
:10A0300078697420746F204D656E750A0D000000FC
:10A0400000000020000400487FB543A0FCF798FF03
:10A050000A20F8F72FFB48A14BA0CDE900014BA344
:10A060004BA24EA14FA0FCF78BFF0A20F8F722FB72
:10A07000544CA068F6F746FACDE9020152A00090D0
:10A0800053A354A259A15AA0FCF77AFF0A20F8F76B
:10A0900011FBE069F6F736FACDE902015CA0009009
:10A0A0005CA35DA25FA160A0FCF76AFF0A20F8F73D
:10A0B00001FB654D65A057A3696865A2CDE9000164
:10A0C00065A166A0FCF75CFF0A20F8F7F3FAA9681F
:10A0D0005EA0CDE900014FA368A26CA15FA0FCF7D0
:10A0E0004FFF0A20F8F7E6FAE068F6F70BFACDE939
:10A0F000020167A0009068A368A26DA13CA0FCF7D4
:10A100003FFF0A20F8F7D6FAA069F6F7FBF9CDE988
:10A11000020168A0009060A368A26EA134A0FCF7C1
:10A120002FFF0A20F8F7C6FAE9686BA0CDE9000115
:10A1300038A36BA272A173A0FCF722FF0A20F8F7E4
:10A14000B9FA7748FCF71CFF0A20F8F7B3FA75490B
:10A150000020C8607FBD00000A0D0A0D20436F6E0D
:10A1600066696775726174696F6E204F7074696F8C
:10A170006E73200A0D0A0A0063757272656E742090
:10A1800076616C75650000006D6178006D696E0028
:10A19000706172616D657465720000007072656651
:10A1A0006978000020252D347320252D333173204C
:10A1B000252D357320252D367320252D32730A0D5C
:10A1C0000A0D000070000020323030300000000026
:10A1D0003130300043757272656E742042616E6476
:10A1E00077696474682028487A29000062000000BA
:10A1F00020252D347320252D33317320252D3573E3
:10A2000020252D367320252E31660A0D0000000012
:10A210002D0000003000000047656172205261741B
:10A22000696F00006700000020252D347320252D64
:10A2300033317320252D357320252D367320252E9F
:10A2400033660A0D00000000700100203132370033
:10A2500043414E20494400006900000020252D3470
:10A260007320252D33317320252D357320252D3670
:10A270007320252D35690A0D0000000043414E2052
:10A280004D61737465722049440000006D00000048
:10A2900037302E3000000000302E300043757272CF
:10A2A000656E74204C696D69742028412900000096
:10A2B0006C00000033332E3000000000465720436E
:10A2C000757272656E74204C696D6974202841291D
:10A2D00000000000660000003130303030300000F7
:10A2E00043414E2054696D656F757420286379630E
:10A2F0006C6573292830203D206E6F6E6529000043
:10A300007400000020252D347320252D3331732057
:10A31000252D357320252D36732025640A0D000068
:10A3200010C40008000000201CB511490868898885
:10A33000ADF804100199FFF73AFD0E4800F048FF10
:10A340000120F8F7ADF90B489FED0B0A012280EDD3
:10A35000240A80ED250A10210848F8F753FF084920
:10A360000020C860BDE81C4006A0FCF709BE000044
:10A370001C00002004000010000000000004004841
:10A38000000000200A0D20456E746572696E67201A
:10A390004D6F746F72204D6F6465200A0D000000D0
:10A3A00000B585B000200190022002907B20039030
:10A3B00005200490694601A8F8F710FD02A0FCF7FB
:10A3C000DFFD009805B000BD4C656176696E6720C1
:10A3D000657261736520666C6173682E0000000011
:10A3E00082B0CDE9000121F0004001909DED000B0D
:10A3F00002B051EC100B7047012131EE601A814020
:10A4000070EE600A491E00EE101AB8EEC00A20EE87
:10A41000800AC0EE010ABDEEE00A10EE100A704795
:10A42000B4EEE00AF1EE10FA07DDB4EEC10AF1EE87
:10A4300010FA01DCB0EE410A7047F4EEC10AF1EE09
:10A4400010FAF7DDB0EE600A7047B4EEE00AF1EE04
:10A4500010FA07D2B4EEC10AF1EE10FA01D3B0EE51
:10A46000410A7047F4EEC10AF1EE10FAF7D2B0EEED
:10A47000600A704738B504468DF8000002230122B7
:10A4800069460248FAF78CFE204638BD000A0020D3
:10A4900010B5002821D0114B0022001F196803E0DD
:10A4A000814203D80A4649680029F9D152B113689C
:10A4B000841A9C4204D1006818441060104602E0DF
:10A4C000506000E0186039B102680B1A934203D162
:10A4D0000B681A4402604968416010BD64000020A6
:10A4E00022499FED230ADFED261AD1ED020A20EE64
:10A4F000801ADFED200A21EE201A80ED1D1A91ED61
:10A50000021A21EE001A21EE201A80ED1E1A91ED9A
:10A51000021A21EE001A80ED1B1A91ED021A21EEAB
:10A52000001A80ED1C1A91ED021A21EE000A20EEAD
:10A53000200ADFED110A80EE801ADFED100A80EDAF
:10A540002F1A91ED020A20EE200AF0EE000A20EE0A
:10A55000201AB7EE000AF0EE400A41EE610A80EEE2
:10A56000201A30EE410A80ED1F0A7047700000206B
:10A57000C7BC8E3A9B551F3D0000344217B7D137F8
:10A58000DB0F494000B5F0EE401A90ED000A0A4694
:10A59000034660EE000A91ED000A40EE000AB0EEBC
:10A5A000600AF6F72FFEB4EEE10AF1EE10FA0FDDC5
:10A5B000D3ED000A60EEA10A80EE801A83ED001A46
:10A5C000D2ED000A60EEA10A80EE801A82ED001A38
:10A5D00000BD000010B5164C164B002204EB8201A2
:10A5E000D1E9000100EE100A03EB820000EE901AA0
:10A5F000921C80EC020A402AF0DB0F4B0F4900202E
:10A6000003EB800292EC020AB8EEC00AF8EEE00A10
:10A61000BDEEC00A10EE102ABDEEE00A41F820207F
:10A6200001EB8002801C82ED010AFF28E8DD10BDED
:10A6300000D807087000002000D90708700100202A
:10A640002DED028BADF50A7DF8F7F0FDFBF7E8FB89
:10A65000FAF7FCFFFAF78CFEFBF76EF8FBF794F8BD
:10A66000FBF7BAF8FBF7B6F9FBF790F9FAF71AFF20
:10A67000FAF7D0FEFBF73CF9FAF768FFFAF7BEFFEE
:10A68000F648016841F480710160016841F400718D
:10A690000160016841F480610160F14A07219FED8A
:10A6A000F18A4FF48020B0EE480AFBF7C9F9012087
:10A6B000F8F700F87F21EC48F7F744F97F21EB48E1
:10A6C000F7F740F97F21EA48F7F73CF97F21E9489D
:10A6D000F7F738F9E448F7F741FCE448F7F73EFCB0
:10A6E000E348F7F73BFCE348F7F738FC0120F7F7BE
:10A6F000C5FFE148F9F746FFE048F9F743FFE04CB2
:10A70000002208212046F8F77DFD0120F7F7B6FF6B
:10A71000012210214FF09040F8F774FD012208212A
:10A720002046F8F76FFD0120F7F7A8FFD54E3068F7
:10A730000090B188ADF804100199FFF725FB0120C6
:10A74000F7F79CFF01250024CDE90345CDE9054538
:10A7500000940194029430688790B188ADF820127B
:10A760002B4622468899FFF77DFB0120F7F786FFED
:10A770004FF00209CDE9004903270395049502949F
:10A78000CDE9055730688790B188ADF820120123D4
:10A7900000228899FFF746FB0120F7F76FFFBA49BF
:10A7A000081F01F0F7F84FF00408CDF8008030687A
:10A7B0000190B188ADF80810434603220299FFF7D3
:10A7C00071FB0120F7F75AFFCDF80080CDF8048027
:10A7D00030680290B188ADF80C1001231A46039935
:10A7E000FFF76DFB0120F7F749FF0120F7F746FF60
:10A7F00003940494CDE90547CDE9004902943068FB
:10A800008790B188ADF82012012300228899FFF7C4
:10A8100009FB0120F7F732FF0F200095CDE9017009
:10A8200030680390B188ADF810100323002204991A
:10A83000FFF755FB0120F7F721FF30680090B18842
:10A84000ADF804100199FFF7A3FA0120F7F716FFFE
:10A850008D488C3800F0BCFC0120F7F70FFF002179
:10A860008548FAF77DF904218348FAF779F9082138
:10A870008148FAF775F900217F48F9F76FFD042147
:10A880007D48F9F76BFD08217B48F9F767FDFFF775
:10A89000A1FE7E4E306820F00040C0F1FF4000284D
:10A8A00001D586ED008A706820F00040C0F1FF40BD
:10A8B000002801D586ED018AB068FCF79CFB744F37
:10A8C00050B996ED020A10EE100AB84204D0B5EE67
:10A8D000C00AF1EE10FA03D19FED6E0A86ED020A6E
:10A8E000F068FCF788FB50B996ED030A10EE100AE9
:10A8F000B84204D0B5EEC00AF1EE10FA03D19FEDD4
:10A90000660A86ED030AB069FCF775FB10B9B069F9
:10A91000B84203D1B2EE040A86ED060A5F4F7868AA
:10A9200000EE100AB8EEC00A10EE101A21F0004135
:10A93000C1F1FF41002901D4401C00D17D60B868FD
:10A9400000EE100AB8EEC00A10EE101A21F0004115
:10A95000C1F1FF41002901D4401C00D1BC60F8685E
:10A9600000EE100AB8EEC00A10EE101A21F00041F5
:10A97000C1F1FF41002901D4401C00D1FC60F06905
:10A98000FCF739FB30B996ED070AB5EEC00AF1EED7
:10A9900010FA03D19FED420A86ED070A96ED000AF0
:10A9A000FBF730FA96ED010AFBF732FA4FF400712B
:10A9B00007A8F5F779FC39498022143107A8F5F783
:10A9C0005AFC07A8FCF7BCFA2F488C38FFF788FD23
:10A9D0000A20F7F753FE33A0FCF7D2FA38A0FCF7B1
:10A9E000CFFA3CA13CA0FCF7CBFA27488C38D0E941
:10A9F00022123FA0FCF7C4FA3068F5F783FD41EC62
:10AA0000100B45A053EC102BFCF7BAFA7068F5F761
:10AA100079FD41EC100B4CA053EC102BFCF7B0FA75
:10AA200051A07968FCF7ACFA5348FFF701F8524897
:10AA30003038FFF71BF85148F8F7B4F9002201212C
:10AA40004E48F7F751FE4E48056001224D494E48E9
:10AA5000FAF76EFBFAF764FCFCE700000020024006
:10AA6000C40200100000000040060020AC060020D8
:10AA700018070020840700201C0900206809002016
:10AA8000000800481C00002090000010700000200A
:10AA9000000080BF0000C84200008C42700100200E
:10AAA000000010420A0D205953432036302D373212
:10AAB0002D43414E2D4472697665200A0D00000039
:10AAC0000A0D20446562756720496E666F3A0A0D6B
:10AAD00000000000312E3000204669726D776172EF
:10AAE000652056657273696F6E3A2025730A0D00F2
:10AAF0002041444331204F66667365743A202564D3
:10AB00002020202041444332204F66667365743A0A
:10AB10002025640A0D00000020506F736974696F6E
:10AB20006E2053656E736F7220456C656374726935
:10AB300063616C204F66667365743A202020252E71
:10AB400034660A0D00000000204F75747075742083
:10AB50005A65726F20506F736974696F6E3A202066
:10AB6000252E34660A0D00002043414E2049443A08
:10AB7000202025640A0D0000A0050020F007002019
:10AB80000C0000202D000020000A0020F0B50B3042
:10AB9000154D20F007010024144A0FE003688B4292
:10ABA0000BD38B4205D95E1A43184768C3E9006787
:10ABB00000E04368136002C004E0021D1068002832
:10ABC000ECD12046002802D1286808B10020F0BD51
:10ABD000064A07481060074A121A22F00702C0E925
:10ABE000002401202860D7E76800002064000020CE
:10ABF000940A0020900A01202DE9F04F2DED0A8BD8
:10AC000083468BB00C46CDA0FCF7BAF99FEDD31A62
:10AC1000B0EE418A9FEDD2BA8DED041AB6EE000A6D
:10AC20008DED070AF0EE419A002504AA06A905A8B1
:10AC3000F0EE4B0AB0EE480AFEF716FA07AA09A989
:10AC400008A8DDED041A9DED061ADDED050AB7EE44
:10AC5000000A00F03FFCC34F002644F62068F7EEE0
:10AC6000008A3968BA46CA6ADDED080A520800EE61
:10AC7000102A78EEE00AB8EE400A20EE200ABCEE78
:10AC8000C00A10EE102A4A633968CA6ADDED090A63
:10AC9000520800EE102A78EEE00AB8EE400A20EEE4
:10ACA000200ABCEEC00A10EE102A8A63DAF800000F
:10ACB000C16ADDED070A490800EE101A78EEE00AD5
:10ACC000B8EE400A20EE200ABCEEC00A10EE101AC0
:10ACD000C1636420F7F7EEFC761C4645C1DB58469D
:10ACE000DFEDA1BAB0EE6B0AFAF7C4FF0120F7F767
:10ACF000D7FCD4F88C106068401A00EE100AF8EE09
:10AD0000C00A9FED9A0A60EE800AC4ED020A21682B
:10AD1000D4F88800081A01EE100A04F14001081F57
:10AD2000B8EEC11A21EE001AB1EE600A84ED031AE2
:10AD300070EE411AC4ED041A94ED090AFEF7D8FF2B
:10AD4000206CF5F7DFFB41EC100B9FED89CBB0EEEB
:10AD50004C1AF0EE6C1AFCF757FCB0EE40AAF0EE7D
:10AD600060AAE06BF5F7CEFB41EC100BB0EE4C1A8D
:10AD7000F0EE6C1AFCF748FCB0EE401AF0EE601AE8
:10AD800053EC1A2B51EC110BF5F7A6FA41EC100B12
:10AD9000FDF72AFB51EC100BF5F7C7FB064676A032
:10ADA000FCF7EEF83046F5F7ADFB80468946206C9F
:10ADB000F5F7A8FB06460F46E06BF5F7A3FB8DE819
:10ADC000C00341EC100B6FA053EC102BFCF7D8F82C
:10ADD000DFF8C48154469FED71AA04AA06A905A80C
:10ADE000B0EE691AF0EE4B0AB0EE480AFEF73CF9F5
:10ADF00007AA09A908A8DDED041A9DED061ADDEDE4
:10AE0000050AB7EE000A00F065FB6420F7F752FC74
:10AE10002068C16ADDED080A490800EE101A78EED4
:10AE2000E00AB8EE400A20EE200ABCEEC00A10EE9E
:10AE3000101A41632068C16ADDED090A490800EE75
:10AE4000101A78EEE00AB8EE400A20EE200ABCEEB6
:10AE5000C00A10EE101A81632068C16ADDED070A8E
:10AE6000490800EE101A78EEE00AB8EE400A20EE2B
:10AE7000200ABCEEC00A10EE101AC1635846B0EEAC
:10AE80006B0AFAF7F7FEF6F789FCB5EEC08AF1EE29
:10AE900010FA01D1B0EE409AC82D17DD002510EE52
:10AEA000100AF5F72FFBF1EE0C0A064688EE200A91
:10AEB0000F4610EE100AF5F725FB41EC100B38A0F9
:10AEC00053EC102BCDE90067FCF75AF838EE0A8AEC
:10AED0006D1C18EE100A4045FFF67FAFF6F75EFCDA
:10AEE00070EE490AF5EEC00AF1EE10FA01DD012418
:10AEF00000E0002410EE100AF5F704FB05460E46AC
:10AF000019EE100AF5F7FEFA41EC100BCDE90056E8
:10AF100053EC102B26A0FCF733F821462EA0FCF7AB
:10AF20002FF80CB131A000E035A0FCF729F840481B
:10AF300004600BB0BDEC0A8BBDE8F08F0A0D204316
:10AF40006865636B696E67207068617365206F72F6
:10AF5000646572696E670A0D000000000000000061
:10AF6000CDCCCC3D1C09002017B7D137FFFFA4BCC6
:10AF700000000000000000400A0D43757272656E0B
:10AF8000740A0D002566092020202025660920204E
:10AF90002025660D0A000000DB0F49416F12833A3D
:10AFA000252E346609202020252E34660D0A000047
:10AFB00054686574612053746172743A20202025AE
:10AFC0006620202020546865746120456E643A2014
:10AFD0002025660A0D000000446972656374696F7C
:10AFE0006E3A202025640A0D00000000506861734D
:10AFF000696E6720636F72726563740A0D000000EA
:10B0000050686173696E6720696E636F7272656301
:10B01000742E20205377617070696E6720706861AC
:10B02000736573205620616E6420570A0D0000007E
:10B03000700100202DE9F04106462DED048BB0EEA5
:10B04000418AF0EE609A82B0F0EE428AB0EE619AE8
:10B050001420B2EE041AFAEE040AFFF7CDF90746FF
:10B0600014209FED341ADFED340AB0EE690AFFF7C1
:10B07000C3F9804610209FED311ADFED310AB0EEA2
:10B08000480AFFF7B9F99FED2F8A05460720B0EE71
:10B09000481AFBEE040AB0EE490AFFF7ADF9044680
:10B0A0000720B0EE481AFBEE040AB0EE680AFFF77C
:10B0B000A3F90099002267F313010091BDF8023053
:10B0C0009DF8047043EA074368F31713ADF80230A4
:10B0D000190C8DF80410BDF8051065F30F01ADF8DB
:10B0E000051019499DF807500B7863F300058DF89A
:10B0F0000750ABB19DF8073060F347038DF8073078
:10B100000A70124840681030F0600098C6F80100DC
:10B110000198C6F8050002B0BDEC048BBDE8F081D3
:10B120009DF8070064F347008DF8070001200870C0
:10B13000E7E7000000002042000020C20000C842F3
:10B140000000C8C2000048432C000020700100200D
:10B15000FEB50D4CD4F81802F5F7D4F905460E46A5
:10B16000D4F83402F5F7CEF941EC100B20680095C5
:10B17000CDE9016053EC102B04A0FBF701FFBDE803
:10B18000FE400120F7F78CBAC4020010204D656321
:10B1900068616E6963616C20416E676C653A20205E
:10B1A000256620202020456C656374726963616C9C
:10B1B00020416E676C653A202025662020202052B1
:10B1C00061773A202025640A0D000000FFF752B98C
:10B1D0001F490A68D36A00EE103AF8EE400AB6EE4C
:10B1E000000A60EE800AFCEEE00A10EE903AD363AB
:10B1F0000A68D36A00EE903AF8EE600A60EE800AC0
:10B20000FCEEE00A10EE903A53630968CA6A00EE59
:10B21000902AF8EE600A20EE800ABCEEC00A10EE1A
:10B22000102A8A639FED0B0A80ED240A80ED250A1F
:10B2300080ED0F0A80ED100A80ED110A80ED210AE1
:10B2400080ED200A80ED140A80ED130A704700009B
:10B250001C09002000000000254810B5816806295F
:10B260003AD2DFE801F0030A11393A41C0680028F8
:10B2700032D0BDE81040FEF74DBEC06800282BD08C
:10B28000BDE81040FEF77EBBC06818B1BDE81040B5
:10B29000FFF74AB8174C1848D4F89C10C068814290
:10B2A0000DDD00280BDD9FED150A84ED240A84EDE9
:10B2B000250A84ED2A0A84ED2B0A84ED2C0A0D4818
:10B2C00000F06AF994ED090A0D490A482434FEF7A2
:10B2D000D9FBA06F401CA06710BDC0680028FBD040
:10B2E000BDE81040FEF7B0BEBDE81040FFF730BF2C
:10B2F0000000002004000010700100200000000089
:10B30000F005002070B5F7F745FE08B1012070BDCB
:10B31000F7F7EEFD08B1022070BDFFF741F8401CC1
:10B3200001D0032070BD20494CF2FA3008614FF47F
:10B330007A70F6F7C5F908B1052070BD1B4D1C4E9B
:10B34000002400BF05EB840006EB8401D0E9002354
:10B350000020F7F7E1FD28B1214616A0FBF710FE0B
:10B36000062070BDA41C402CECDB1B4D1B4E0024A2
:10B3700005EB840006EB8401D0E900230020F7F7F9
:10B38000CBFD28B1214616A0FBF7FAFD072070BDC2
:10B39000A41CFF2CECDDF7F78FFDF7F79BFD19A040
:10B3A000FBF7EEFD002070BD002002407000002081
:10B3B00000D8070853617665546F466C6173682046
:10B3C0006661696C2077726974696E6720666C6F5C
:10B3D00061742023256400007001002000D9070853
:10B3E00053617665546F466C617368206661696C61
:10B3F0002077726974696E6720696E7420232564F2
:10B400000000000053617665546F466C61736820DC
:10B41000416C6C204F6B0A0010B52DED028B9FED37
:10B420000E8AF0EE480AFBF7B1FEB5EEC00AF1EE67
:10B4300010FA01D230EE080ADFED080A084920EEC2
:10B44000200ABDEEC00A10EE100A01EB800090ED5C
:10B45000000ABDEC028B10BDDB0FC94083F9A2428C
:10B460004CBA000800B52DED048B83B041EC190BEC
:10B47000F5F78AFA41EC180B18EE100A18EE901A3C
:10B480008DED008B002818BF0120084320F00040FC
:10B49000C0F17F6000F1E040C00F14D019EE101A27
:10B4A00019EE900A8DED009B002918BF0121084379
:10B4B00020F00040C0F17F6000F1E040C00F04BF09
:10B4C0000120FDF77DF951EC180B03B0BDEC048BA6
:10B4D00000BD000070B514462DED088BF0EE619AAA
:10B4E000B0EE41AAF0EE60AAB0EE408A0D460646E4
:10B4F000B0EE691AF0EE4A0AB0EE6A0AFEF7A5FF4E
:10B50000F0EE408AB0EE691AF0EE4A0AB0EE6A0A2E
:10B51000FEF786FF38EE800AF6EE008A20EE289AC3
:10B520007AEEC90ADFED1AAA80EE880AF0EE6A0AFE
:10B5300030EE280AFBF798FD9FED16BAF0EE4B0AA5
:10B54000FBF79AFD7AEE490A86ED000A80EE880A3A
:10B55000F0EE6A0A30EE280AFBF786FDF0EE4B0AA1
:10B56000FBF78AFD85ED000A39EEC90AC0EE080A2C
:10B5700030EEA80AF0EE6A0AFBF776FDF0EE4B0A11
:10B58000FBF77AFD84ED000ABDEC088B70BD00006E
:10B5900000000000D7A3703F90ED280AD0ED080A04
:10B5A00090ED0A1A1A4930EE600AD0ED2A0A20EE10
:10B5B000200AD0ED290A70EEC10A90ED2B1A01EE97
:10B5C000200AD0ED2C0A91ED071A70EE200A80EEC9
:10B5D000810ADFED100A60EE200A9FED0F0AC0ED30
:10B5E000250A80ED240A90ED070AF4EEC00AF1EE78
:10B5F00010FA01DD80ED250AD0ED250AB1EE400AF2
:10B60000F4EEC00AF1EE10FA01D280ED250A70477F
:10B61000700000208FC255410000000001EE100AAA
:10B6200070EEC00A0120B8EEC11A8840401E21EE1B
:10B63000201A00EE900AF8EEE01AC1EE210A30EE70
:10B64000800A70470FB4102110B5F2EE040A2DEDF8
:10B65000028B82B0BAEE040A199CDDF81900009042
:10B66000DDF81D000190BDF80000FFF7D7FF84ED65
:10B67000280ABDF802000E21C0F30D00DFED180A04
:10B680009FED180AFFF7CAFF84ED290A9FED178A7C
:10B69000BDF803000A218009DFED130AB0EE480A65
:10B6A000FFF7BCFF84ED2A0A9DF805000821DFEDB5
:10B6B000100AB0EE480AFFF7B1FF84ED2B0ABDF87F
:10B6C00006001021DFED0B0A9FED0B0AFFF7A6FF26
:10B6D00084ED2C0A02B0BDEC028B10BC5DF814FBAB
:10B6E00000002042000020C200007A440000000058
:10B6F000000048420000C8420000C8C22DE9F047DF
:10B700008248DFF80C8201262DED028B002500789F
:10B71000A8F110041B2809D1A560E66065702570AA
:10B72000002142465554491C0829FBDBA1689FEDC6
:10B73000798A794F99B1A16804294CD0A16805296B
:10B740006CD0A168022906D1642804D1734880ED29
:10B75000258A80ED248ABDEC028BBDE8F0876D2838
:10B7600032D005DC63282DD06528F4D1052030E0E7
:10B7700073282DD07A28EED1B0EE480AFAF748FBAC
:10B7800067489FED680AFAF775FA1420F6F792FFFA
:10B79000F5F7FEFF87ED010AFFF7B4FDFEF71AFF8C
:10B7A00097ED010AFAF734FB7868F4F7ABFEBDECCD
:10B7B000028B41EC100BBDE8F04753EC102B5AA064
:10B7C000FBF7DEBBA66001E0022002E0E660C2E714
:10B7D0000420A060FAE70D280CD06178002978D009
:10B7E000414401F8010C5A49FFF7F0FC6078401C15
:10B7F0006070B0E7A1462178564C692937D006DC45
:10B80000622920D0662950D0672906D167E06C29CB
:10B8100037D06D2930D074295CD000E071E04EA0A3
:10B82000FBF7AEFBFFF76EFDFEF7D4FEC9F80C6028
:10B8300089F8015089F80050002041460D54401C01
:10B840000828FBDB87E73248FBF7F2FB51EC100BD3
:10B85000F4F76BFE00EE100ADFED490AFBF70CFC73
:10B86000DFED480AFBF700FC87ED020ADAE728481B
:10B87000F4F725FD6060D5E72548F4F720FDA060CA
:10B88000D0E72348FBF7D4FB51EC100BF4F74DFE47
:10B8900000EE100ADFED3C0AFBF7EEFBF0EE480A83
:10B8A000FBF7E2FB87ED030ABCE71948FBF7C0FB97
:10B8B00051EC100BF4F739FE00EE100ADFED330AFD
:10B8C000FBF7DAFBF0EE480AFBF7CEFB87ED060A42
:10B8D000A8E714E00E48F4F7F2FCE060A2E70C4899
:10B8E000FBF7A6FB51EC100BF4F71FFE00EE100A5D
:10B8F000DFED270AFBF7B8FB87ED070A92E7207018
:10B9000071E71B289ED1A56060E700002D00002094
:10B910001000002000000000700000200400001053
:10B92000C402001017B7D1370A0D20205361766585
:10B9300064206E6577207A65726F20706F7369740A
:10B94000696F6E3A2020252E34660A0D0A0D00001C
:10B9500060000020700100200A0D202725632720A9
:10B960004E6F7420612076616C696420636F6D6D29
:10B97000616E64207072656669780A0D0A0D0000B8
:10B980000000FA440000C84200008C42000004425B
:10B990006F12833A2DE9F04700262DED028B8A467F
:10B9A000DFF89C80814635464FF480673446B6EE1A
:10B9B000008A00BFD8F80010CA6A00EE102AB8EE5C
:10B9C000400A20EE080ABCEEC00A10EE102A4A63B4
:10B9D000D8F80010CA6A00EE102AB8EE400A20EE2D
:10B9E000080ABCEEC00A10EE102A8A63D8F80000DC
:10B9F000C16A00EE101AB8EE400A20EE080ABCEE4A
:10BA0000C00A10EE101AC1630120F6F753FE092197
:10BA10000C48F6F78BFA054409210B48F6F786FA2D
:10BA2000641C0644BC42C5DB96FBF7F1C9F8001064
:10BA300095FBF7F1CAF80010BDEC028BBDE8F0876A
:10BA40001C090020AC060020400600200000000079
:10BA50002975493CDF6EC93C6F0E173D3160493D89
:10BA60008FA97B3D38F4963D6B0EB03D4721C93D13
:10BA70005E2EE23DEC2FFB3D7F130A3E698C163EA5
:10BA800076FD223EA5662F3E97CA3B3E4A29483E98
:10BA9000807D543EDAC9603E560E6D3EF54A793ED1
:10BAA0003CBD823E0FD1883EA4DF8E3EFBE8943E33
:10BAB000C4EB9A3EFFE7A03EFCDEA63E6CCFAC3E58
:10BAC0004EB9B23EA29CB83E1878BE3EB24BC43EC0
:10BAD000BD18CA3EECDDCF3EED99D53E614FDB3E51
:10BAE00059FAE03EC39EE63EB038EC3E71C9F13EE5
:10BAF0005452F73EBBD0FC3E5322013FB2D7033F26
:10BB0000D387063FB532093F5AD80B3FC0780E3F66
:10BB10004013113F82A8133FDF37163F55C1183F2E
:10BB2000E5441B3F8FC21D3F543A203F8AAB223F62
:10BB3000DB16253F9E7B273FD3D9293F7B312C3F06
:10BB4000ED812E3F79CC303FD00F333FF14B353F65
:10BB50008481373FE2AF393F0AD73B3FFDF63D3F97
:10BB6000130F403F9B20423F9E29443F132C463FEA
:10BB70000326483FBD184A3F9B034C3FF3E54D3F2A
:10BB800016C14F3FB493513F745E533F5721553F09
:10BB90000EDB563F8F8D583FE3365A3FB2D75B3F9F
:10BBA000A4705D3F69005F3F5188603F0C07623FB2
:10BBB0009A7C633FA3E9643F274E663F7EA9673FB7
:10BBC00050FC683F4E456A3FC6856B3F12BD6C3FD7
:10BBD00031EB6D3F23106F3F412B703FD93D713FDB
:10BBE0009D46723F3546733F9F3C743F3529753FF4
:10BBF0009E0C763F32E6763F9AB6773F2C7D783FB3
:10BC0000EB39793F7CED793F39977A3F22377B3F9B
:10BC100036CD7B3F75597C3F87DC7C3F1D557D3F92
:10BC200087C47D3F74297E3F34857E3F77D67E3F33
:10BC30008E1E7F3F295C7F3FEF8F7F3F88BA7F3F1B
:10BC4000A5DA7F3FEDF07F3F61FD7F3F0000803F41
:10BC500023F87F3F19E77F3F92CB7F3F37A67F3F97
:10BC6000AF777F3FAB3E7F3FD2FB7E3F25AF7E3F2E
:10BC7000A3587E3F4DF87D3F228E7D3F221A7D3FA7
:10BC80004E9C7C3FA5147C3F27837B3FD5E77A3FC2
:10BC900057437A3F0395793FDBDC783FDF1A783FE3
:10BCA000B54F773FB77A763FE59B753FE5B3743F75
:10BCB000B9C2733FB9C7723F8BC3713F31B6703F92
:10BCC000029F6F3FA67E6E3F1D556D3F68226C3F01
:10BCD00086E66A3F1FA2693FE353683F22FD663F45
:10BCE000349D653F1A34643F22C3623F5648613F2A
:10BCF000ACC55F3FD6395E3F7AA55C3F9A085B3F93
:10BD00003563593F4AB5573F82FF553F8E40543FF8
:10BD1000637A523FB4AB503F80D44E3F6FF54C3FF7
:10BD2000280F4B3F5C20493FB329473FD42B453F69
:10BD30001826433F7E18413FB0033F3FABE73C3FEF
:10BD400072C43A3F5B99383FB667363FDC2E343FCA
:10BD5000CCEE313F2FA82F3F5C5A2D3FFB052B3FE8
:10BD60000DAB283F9049263F2EE2233F9773213F9A
:10BD700019FF1E3FB6841C3FC5031A3F957D173F30
:10BD8000D8F0143FDD5E123FFCC60F3F35290D3F52
:10BD90002F860A3FECDD073F6A30053FAA7D023F50
:10BDA000598BFF3E3012FA3E8A8EF43E0803EF3E76
:10BDB000096DE93EDDCDE33E8525DE3E4F75D83E7B
:10BDC0003CBDD23EFCFBCC3EDF32C73E3563C13EBC
:10BDD0005D8ABB3E47ACB53E05C5AF3E84D8A93EA3
:10BDE00075E5A33E89EA9D3E60EA973EF7E4913E01
:10BDF00002D98B3ECEC7853EB7627F3EF52D733E9E
:10BE0000B7EE663EFDA45A3E65534E3EF0F9413E04
:10BE10003D9B353E0E32293EA0C31C3EF44F103EE2
:10BE20000AD7033EC4B1EE3DB9A5D53DA298BC3DAD
:10BE30001B82A33D49658A3D6685623DD637303D0C
:10BE4000F7C7FB3CC615973C5374C93B5374C9BB39
:10BE5000C61597BCF7C7FBBCD63730BD668562BD3B
:10BE600049658ABD1B82A3BDA298BCBDB9A5D5BD3D
:10BE7000C4B1EEBD0AD703BEF44F10BEA0C31CBEB2
:10BE80000E3229BE3D9B35BEF0F941BE65534EBE14
:10BE9000FDA45ABEB7EE66BEF52D73BEB7627FBE77
:10BEA000CEC785BE02D98BBEF7E491BE60EA97BECD
:10BEB00089EA9DBE75E5A3BE84D8A9BE05C5AFBEFF
:10BEC00047ACB5BE5D8ABBBE3563C1BEDF32C7BEFF
:10BED000FCFBCCBE3CBDD2BE4F75D8BE8525DEBEB8
:10BEE000DDCDE3BE096DE9BE0803EFBE8A8EF4BE68
:10BEF0003012FABE598BFFBEAA7D02BF6A3005BF61
:10BF0000ECDD07BF2F860ABF35290DBFFCC60FBF6A
:10BF1000DD5E12BFD8F014BF957D17BFC5031ABFF1
:10BF2000B6841CBF19FF1EBF977321BF2EE223BF2B
:10BF3000904926BF0DAB28BFFB052BBF5C5A2DBF18
:10BF40002FA82FBFCCEE31BFDC2E34BFB66736BF73
:10BF50005B9938BF72C43ABFABE73CBFB0033FBF89
:10BF60007E1841BF182643BFD42B45BFB32947BF16
:10BF70005C2049BF280F4BBF6FF54CBF80D44EBF2C
:10BF8000B4AB50BF637A52BF8E4054BF82FF55BFDF
:10BF90004AB557BF356359BF9A085BBF7AA55CBFE6
:10BFA000D6395EBFACC55FBF564861BF22C362BF12
:10BFB0001A3464BF349D65BF22FD66BFE35368BF7A
:10BFC0001FA269BF86E66ABF68226CBF1D556DBFA0
:10BFD000A67E6EBF029F6FBF31B670BF8BC371BFAD
:10BFE000B9C772BFB9C273BFE5B374BFE59B75BF74
:10BFF000B77A76BFB54F77BFDF1A78BFDBDC78BF83
:10C00000039579BF57437ABFD5E77ABF27837BBFB4
:10C01000A5147CBF4E9C7CBF221A7DBF228E7DBFA3
:10C020004DF87DBFA3587EBF25AF7EBFD2FB7EBF3C
:10C03000AB3E7FBFAF777FBF37A67FBF92CB7FBFBF
:10C0400019E77FBF23F87FBF000080BF61FD7FBF7E
:10C05000EDF07FBFA5DA7FBF88BA7FBFEF8F7FBFCC
:10C06000295C7FBF8E1E7FBF77D67EBF34857EBFA3
:10C0700074297EBF87C47DBF1D557DBF87DC7CBF13
:10C0800075597CBF36CD7BBF22377BBF39977ABFCE
:10C090007CED79BFEB3979BF2C7D78BF9AB677BF3D
:10C0A00032E676BF9E0C76BF352975BF9F3C74BFC4
:10C0B000354673BF9D4672BFD93D71BF412B70BFDE
:10C0C00023106FBF31EB6DBF12BD6CBFC6856BBF58
:10C0D0004E456ABF50FC68BF7EA967BF274E66BF4A
:10C0E000A3E964BF9A7C63BF0C0762BF518860BF3D
:10C0F00069005FBFA4705DBFB2D75BBFE3365ABFB4
:10C100008F8D58BF0EDB56BF572155BF745E53BF8E
:10C11000B49351BF16C14FBFF3E54DBF9B034CBF56
:10C12000BD184ABF032648BF132C46BF9E2944BFF3
:10C130009B2042BF130F40BFFDF63DBF0AD73BBF58
:10C14000E2AF39BF848137BFF14B35BFD00F33BF6A
:10C1500079CC30BFED812EBF7B312CBFD3D929BF25
:10C160009E7B27BFDB1625BF8AAB22BF543A20BF78
:10C170008FC21DBFE5441BBF55C118BFDF3716BFB7
:10C1800082A813BF401311BFC0780EBF5AD80BBF8F
:10C19000B53209BFD38706BFB2D703BF532201BF51
:10C1A000BBD0FCBE5452F7BE71C9F1BEB038ECBE74
:10C1B000C39EE6BE59FAE0BE614FDBBEED99D5BE27
:10C1C000ECDDCFBEBD18CABEB24BC4BE1878BEBE31
:10C1D000A29CB8BE4EB9B2BE6CCFACBEFCDEA6BE51
:10C1E000FFE7A0BEC4EB9ABEFBE894BEA4DF8EBE00
:10C1F0000FD188BE3CBD82BEF54A79BE560E6DBEDB
:10C20000DAC960BE807D54BE4A2948BE97CA3BBE8B
:10C21000A5662FBE76FD22BE698C16BE7F130ABEB0
:10C22000EC2FFBBD5E2EE2BD4721C9BD6B0EB0BD3C
:10C2300038F496BD8FA97BBD316049BD6F0E17BD27
:10C24000DF6EC9BC297549BC000000000001020373
:10C2500004050607080C10141820304001000200E5
:10C260000400060008000A000C0010002000400036
:10C27000800000010101010307010000080402041D
:10C280000801010100000000000000000102030499
:10C290000607080900000000010203040000000076
:10C2A00004FA97999999D93FAF788E1DC571CC3F03
:10C2B0009FC678D0099AC33F935555555555E53FCC
:10C2C000599322942449D23FDE03CB966446C73F5C
:10C2D00044523EDF12F1C23F000000000000F03F78
:10C2E000000000000000F83F000000000000000017
:10C2F0000000004003B8E23F000000000000000022
:10C3000006D0CF43EBFD4C3E033333333333E33FAF
:10C31000FFAB6FDBB66DDB3F4D268F515555D53FDB
:10C3200001411DA96074D13F65DBC9934A86CD3FA9
:10C33000EF4E454A287ECA3F3E5555555555C53F97
:10C3400093BDBE166CC166BF2CDE25AF6A56113F89
:10C35000F16BD2C541BDBBBED0A4BE726937663E8B
:10C360000000000000000000000000006E83F9A241
:10C370002915444ED15727FCC0DD34F5999562DB71
:10C380004190433CAB6351FE004040404040404040
:10C390004040414141414140404040404040404098
:10C3A000404040404040404040050202020202023C
:10C3B000020202020202020202202020202020208B
:10C3C000202020020202020202029090909090909F
:10C3D000101010101010101010101010101010105D
:10C3E00010101010020202020202888888888888D1
:10C3F00008080808080808080808080808080808BD
:10C4000008080808020202024000000089C3000870
:10C410000A0D20546F206368616E67652061207685
:10C42000616C75652C207479706520277072656663
:10C430006978272776616C75652727454E544552E4
:10C44000270A0D20692E652E2027623130303027D3
:10C4500027454E544552270A0D0A0D009CC400087A
:10C460000000002070000000A08700080CC5000834
:10C470000000001004000000A087000810C500089C
:10C480000400001044050000161000080CC5000848
:10C4900070000020204A0100B08700080000000062
:10C4A000000000000000000000000000000000008C
:10C4B000000000000000000000000000000000007C
:10C4C000000000000000000000000000100000005C
:10C4D000010000000000000000000000000000005B
:10C4E000000000000000000001000000000000004B
:10C4F00000000000000000000024F4000000000024
:10C50000000000000000000000000000FEE7000046
:0CC5100001FF01FF01FF01FF01FF014FCF
:04000005080001D915
:00000001FF
