S32508000000B8570120DD0100083D4B000843440008394B0008590B0008055B0008000000003D
S32508000020000000000000000000000000D14D0008A10E000800000000554C0008D34D000804
S32508000040F7010008F7010008F7010008F7010008F7010008F7010008F7010008F701000892
S32508000060F7010008F7010008F7010008F7010008F7010008F7010008F7010008F701000872
S32508000080F7010008F7010008F7010008F70100085D0B0008F7010008F7010008F7010008E2
S325080000A0F7010008B54E0008F7010008F701000839500008F7010008F7010008F701000896
S325080000C0F7010008F7010008F7010008F7010008F7010008F7010008D15A0008F7010008DF
S325080000E0F7010008F7010008F7010008F7010008F7010008F7010008F7010008F7010008F2
S32508000100F7010008F7010008F7010008F7010008F7010008F7010008F7010008F7010008D1
S32508000120F7010008F7010008F7010008F7010008F70100080000000000000000F7010008B1
S32508000140F7010008F7010008F7010008F7010008F7010008F7010008F7010008F701000891
S32508000160F7010008F7010008F7010008F7010008F7010008F7010008F70100080000000071
S3250800018000000000F70100080000000000000000F70100080000000000000000F701000851
S325080001A0000000000000000000000000F7010008F7010008F7010008F7010008F701000831
S325080001C0F7010008DFF810D000F0D8FB00480047D58F0008AFF30080B85701200648804735
S325080001E006480047FEE7FEE7FEE7FEE7FEE7FEE7FEE7FEE7FEE7FEE7994E0008C5010008AD
S325080002002DE9F05F0546002092469B4688460646814640241BE0284641464746224600F02D
S325080002203AFA53465A46C01A914110D311461846224600F021FA2D1A67EB01084F462246ED
S325080002400120002100F018FA17EB00094E41201EA4F10104DFDC484631462A464346BDE87C
S32508000260F09F40EA01039B0703D009E008C9121F08C0042AFAD203E011F8013B00F8013B35
S32508000280521EF9D27047D2B201E000F8012B491EFBD270470022F6E710B513460A46044633
S325080002A01946FFF7F0FF204610BD2DE9FE4F804681EA0300C00F0C46009021F0004123F00C
S325080002C00045B8EB0200A94105D24046214690461C460B46024623F00040104347D0270DB6
S325080002E0C7F30A00C3F30A510290401A019040286BDAC3F3130040F4801B0098924620B118
S325080003000023D2EB030A63EB0B0B01985946C0F14002504600F0B0F906460D465046594650
S32508000320019A00F0C8F910EB08006141002487EA115284EAE7731A4340D0009A62B3019A47
S32508000340012A4FEA075215DC001B61EB02014FF0004202EA0752CDE90042001C41F58011D6
S3250800036032462B4600F0FFF903B0BDE8F08F40462146F9E7001B61EB0201001C41F58013AB
S3250800038000185B412018A2F5001747EB030140EAD570B6196D4111E06D084FEA360645EA89
S325080003A0C0754FEA0752001B61EB0201001C41F5801149084FEA30000019514132462B46CD
S325080003C003B0BDE8F04F00F0BFB90098012240000023D0EB020263EBE073009821464FEA5A
S325080003E0E074B8EB000061EB0401E9E783F000435BE781F0004158E72DE9FE4F81EA030419
S3250800040004F0004421F0004100944FF0000B23F0004350EA01045ED052EA03045BD0C3F37F
S325080004200A54C1F30A552C44A4F2F3340194A0FB0254C1F3130141F48011C3F3130343F4F9
S32508000440801301FB024400FB034E840A970A44EA815447EA8357A4FB076802958D0A05FBF4
S3250800046007854FEA932C04FB0C542705029D4FEA065847EA1637B5EB08056EEB070C870EFD
S32508000480920E47EA811742EA8312A7FB0201B6EB0B0164EB00042B0D43EA0C335E1844EB36
S325080004A01C50DA465146E7FB0201C5F313044FEA0B3343EA14534FEA0432019C43EA06030A
S325080004C0A4F10C040294009CCDE900B400F04BF903B0BDE8F08F00200146F9E72DE9F04D28
S325080004E081EA030404F0004B21F0004514464FF0000A23F0004150EA050220D054EA01027E
S325080005001DD0C5F30A570246C5F31303C1F31300C1F30A5640F4801543F48013A7EB0608A3
S32508000520101BD64608F2FD3873EB050002D308F1010801E092185B41B8F1000F03DA002021
S325080005400146BDE8F08D00204FF48011064684460EE0171B73EB050705D3121B63EB050335
S3250800056006434CEA010C49084FEA300092185B4150EA0107EDD152EA030012D082EA040050
S3250800058083EA0501084305D0101BAB4106D20122002306E000224FF0004302E06FF00102B7
S325080005A053101AEB06004CEB085110EB0A0041EB0B01BDE8F04D00F0C7B800F0004230F04F
S325080005C000400AD0C10D01F56071C0F3160042EA0151C208400711437047002001467047DD
S325080005E030B5041E71F1000404DB4FF00044404264EB0101141E73F1000405DB1C464FF030
S325080006000043524263EB04038B4208BF824230BD30B5041E71F1000404DB4FF0004440420A
S3250800062064EB0101141E73F1000405DB1C464FF00043524263EB0403994208BF904230BDB3
S3250800064001F0004330B421F0004150EA010206D00A0DA2F56072C1F31301002A02DC30BCD3
S3250800066000207047440F44EAC104C100E01830BC00EBC25000F031B8202A04DB203A00FA57
S3250800068002F1002070479140C2F1200320FA03F3194390407047202A04DB203A21FA02F058
S325080006A00021704721FA02F3D040C2F120029140084319467047202A06DBCB17203A41FA8B
S325080006C002F043EAE07306E041FA02F3D040C2F1200291400843194670470029A8BF704726
S325080006E0401C490008BF20F00100704710B4B0FA80FC00FA0CF050EA010404BF10BC704753
S3250800070049B1CCF1200421FA04F411FA0CF118BF012121430843A3EB0C01CB1D4FEA006110
S325080007204FEA102042BF002010BC704700EBC35010440029A4BF10BC7047401C490008BFD1
S3250800074020F0010010BC704710B5141E73F1000408DA401C41F1000192185B411A4301D1B2
S3250800076020F0010010BD2DE9F04D92469B4611B1B1FA81F202E0B0FA80F220329046FFF785
S325080007807BFF04460F4640EA0A0041EA0B0153465A46084313D0114653EA010019D0C8F129
S325080007A040025046FFF777FF05460E46504659464246FFF761FF084305D0012004E02046AA
S325080007C03946BDE8F08D0020054346EAE0762C4337430A986305E40AA0EB08000022FD0ADF
S325080007E044EA47540A3002D500200146E9E7010510196941DDE9084500196941BDE8F04D49
S32508000800A2E770B521F0004303430CD0C1F30A550024D5EB040564EB0403D617AD1AB341A8
S3250800082002DB0020014670BD201841EB025170BD2DE9F04D00231A461B1A8A4103DB002081
S325080008400146BDE8F08DC1F30A52C1F3130141F480154FF0000BD10702D100186D41521E54
S325080008600027044640F2FF11384601EB620A3E468046024600204FF48011FFF70CFFC2197F
S325080008807141BB1846EB0100B4EB030C75EB000C04D3E41A65EB000517460E46241908F168
S325080008A001006D4180463428E3DDF91946EB0600091BA84103D24FF0FF32134601E00022A2
S325080008C013461BEB070046EB0A51BDE8F04DFFF73BBF2DE9FE4FC3F30A5701F00045002472
S325080008E0C1F30A56C3F31303C1F3130143F4801312EB020AA64641F48011009543EB030CEB
S32508000900A7F1010B16E0B0EB0A0061EB0C01071E71F1000707DA4FF00008D0EB080085F043
S32508000920004568EB0101171A73EB0107EBD3761E001849415E45F6DA50EA010209D0CDE945
S3250800094000E5002213460296FFF70DFF03B0BDE8F08F20460099F9E70EB5C10F80EAE0708C
S325080009600844CA07002140F233438DE80E000A460B46FFF7F8FE03B000BD0000064C074D5D
S3250800098006E0E06840F0010394E8070098471034AC42F6D3FFF71AFC08CD000828CD0008A4
S325080009A070B58C1810F8015B15F0070301D110F8013B2A1106D110F8012B03E010F8016B3A
S325080009C001F8016B5B1EF9D12B0705D40023521E0DD401F8013BFAE710F8013BCB1A921CF5
S325080009E003E013F8015B01F8015B521EF9D5A142D8D3002070BD000055494A6822F4403259
S32508000A004A604A6843681A434A600268526822F4807203685A6002685368026943EA022288
S32508000A2003685A600268526822F0407203685A600268526883681A4303685A600268926881
S32508000A4022F4006203689A6002689268C3681A4303689A603F4B826A9A4218D002689268BC
S32508000A6022F0706203689A6002689268836A1A4303689A600268926822F0405203689A609F
S32508000A8002689268C36A1A4303689A600BE00268926822F0706203689A600268926822F0E7
S32508000AA0405203689A600268926822F0020203689A6002689368027E43EA420203689A6097
S32508000AC02022125CA2B10268526842F4006203685A600268526822F4604203685A600268B9
S32508000AE05368426A521E43EA423203685A6005E00268526822F4006203685A600268D26AFF
S32508000B0022F470020368DA620268D36A828B521E43EA02520368DA620268926822F4007260
S32508000B2003689A600268936890F8302043EA422203689A600268926822F4806203689A604E
S32508000B4002689368426943EA822203689A607047002301400100000F00BFFEE710B5034862
S32508000B6001F06CF900F0E6F810BD0000C415002000B58BB0002006900790012008900C4833
S32508000B80406840010190002002904FF4F0700390002004900590012009900E200A9001A970
S32508000BA0044800F0FBFF08B100F07BF90BB000BDBC0B0020C4150020FEB504460D461646D0
S32508000BC01F465B48406840F47871009861F317000090062C7ED2DFE804F00310294E6D94DF
S32508000BE0002001900290009820F07F4000F100600090684607F080FA97E000200190029083
S32508000C00200A8DF80400E1B28DF8051029128DF80610E9B28DF80710009820F07F4000F181
S32508000C2000600090684607F067FA7EE0002001900290200A8DF80400E1B28DF805102912F4
S32508000C408DF80610E9B28DF8071031128DF80810F1B28DF8091039128DF80A10F9B28DF879
S32508000C600B10009820F07F4000F100600090684607F042FA59E0002001900290200A8DF8F7
S32508000C800400E1B28DF8051029128DF80610E9B28DF8071031128DF80810F1B28DF80910E7
S32508000CA0009820F07F4000F100600090684607F023FA3AE0002001900290200A8DF804000C
S32508000CC0E1B28DF8051029128DF80610E9B28DF8071000E028E031128DF80810F1B28DF8DC
S32508000CE0091039128DF80810F9B28DF80910009820F07F4000F100600090684607F0FCF9BA
S32508000D0013E0002001900290200A8DF80400E1B28DF80510009820F07F4000F10060009067
S32508000D20684607F0E9F900E000BF00BFFEBD0000BC0B002010B58AB008AB6A4600210A4849
S32508000D4000F0BFFF044664B90499079861F31F6007900099079861F31700079007A808F0E9
S32508000D6015FE0AB010BD0000C415002001B584B00B48406840F43871019861F3170001907B
S32508000D80019820F07F4000F180600190BDF8100002A90AF0B1FB01A807F0AEF905B000BDAC
S32508000DA0BC0B00200CB5F0EE400ACDED010ACDED000A0A49019801EB60000190084900981A
S32508000DC0A1EB600000909DED010A9DED001A00EE810AB6EE001A20EE010A0CBD00F8BC1F64
S32508000DE0DF59375F70B504460E4608480068844201D0012070BD2146054807F085FB054641
S32508000E00B54201D00120F5E70020F3E7400000200000020810B5002008E04FF0FF3208490D
S32508000E2041F82020074941F82020401C0828F4DB0549086880F3088800BF4868804710BD43
S32508000E4080E100E080E200E00000060870B505460C4600260A4800682044B0F5003F0CD825
S32508000E6022460748016828460AF0C0FB06460448006820440249086000E00126304670BD60
S32508000E804000002010B507F0F3FB08B1012010BD00200249086000BFF9E7000040000020C1
S32508000EA07047704701490860704700000C3C024070B504460A460026092502B909E0012AE1
S32508000EC001D1160205E0022A01D1160201E04FF4407600F09FF80546092D28D1154800687F
S32508000EE020F440701349086008460068304308600846006820F0F80008600846006844F0BB
S32508000F00020108430B4908600846006840F48030086000F07FF805460648006820F002003D
S32508000F20044908600846006820F0F8000860284670BD0000103C024009201349096801F4B4
S32508000F408031B1F5803F01D101201CE00E49096801F0100109B1062015E00B49096801F425
S32508000F60807109B102200EE00749096801F0E00109B1072007E00449096801F0020109B1E1
S32508000F80082000E0092070470C3C02400348006840F000400149086070470000103C0240B7
S32508000FA030B502460C46092500F034F80546092D19D10E48006820F440700C490860084662
S32508000FC0006840F4007008600846006840F001000860146000F01EF805460448006820F0B7
S32508000FE0010002490860284630BD0000103C02400548006800F0004028B1044802490C39AC
S325080010000860034808607047103C024023016745AB89EFCD08B509200090FFF78DFF00901A
S3250800102002E0FFF789FF00909DF800000128F8D09DF8000008BD10B507F05AFA044603F085
S325080010409DFD204607F05AFA10BD10B507F050FA044603F075FD204607F050FA10BD000041
S3250800106000B5B0EE401ADFED040A70EEC10AB0EE600A00F003F800BDDB0FC93FF0EE400AE8
S3250800108005E09FED130A30EE800AF0EE400AF5EEC00AF1EE10FAF4D305E09FED0D0A30EEE1
S325080010A0C00AF0EE400A9FED0A0AF4EEC00AF1EE10FAF2DA9FED070A20EE800ABDEEC00A85
S325080010C010EE100A044901EB800090ED000A7047DB0FC94083F9A24204C00008014890ED0E
S325080010E00B0A7047D00F002070B5F0EE400A234B93ED070A20EE200ADFED211A20EE210A53
S32508001100DFED201A80EE212ABDEEC20A10EE102A1346D61702EB9646B0131B4B93ED060A8B
S32508001120DFED171A20EE210ADFED161A80EE212ABDEEC20A10EE104A04EB8035531B00EEE7
S32508001140103AB8EEC00AB0EE401A9FED100AB4EEC01AF1EE10FA01DD411C09E09FED0C0AFE
S32508001160B4EEC01AF1EE10FA01DD014600E0411E00EE101AB8EEC00A70BD0000BC06002001
S3250800118000008046DB0FC940D00F002000000046000000C630B50246864C8869A04200D0DB
S325080011A000BF00BF92F83C00012801D1022030BD012082F83C0000BF0868092816D9106835
S325080011C0C0680C780A3C04EB44050724AC40A0431468E0600C780A3C04EB44048868A04050
S325080011E01468E46820431468E06013E0106800690C7804EB44050724AC40A0431468206173
S325080012000C7804EB44048868A040146824692043146820611068806B20F440101468A06386
S325080012201068846B088A401E44EA00501468A0630879C01C0C7C001B00EB80041F20A040BE
S325080012401468A46B8443106884630879C01C0C7C001B00EB8004088880B2A0401468A46B33
S3250800126020431468A063534C8869A04218D01068806820F470201468A060106880688C694F
S3250800128020431468A0601068806820F440101468A06010688068CC6920431468A0600BE0C2
S325080012A01068806820F470201468A0601068806820F440101468A060487D30B1106840689A
S325080012C040F480601468606005E01068406820F4806014686060087D30B11068406840F4C1
S325080012E080501468606005E01068406820F48050146860604868012804D002280FD00328CE
S3250800130027D119E0106840696FF30B001468606110684069CC6820431468606126E0106890
S3250800132080696FF30B001468A06110688069CC6820431468A06119E01068C0696FF30B0050
S325080013401468E0611068C069CC6820431468E0610CE01068006A6FF30B001468206210681C
S32508001360006ACC6820431468206200BF00BF124B124C1068A04206D10868122803D15868B8
S3250800138040F4800058600D4C1068A0420AD10C4C0868A04202D00868112803D1586840F458
S325080013A00000586000BF002082F83C0000BF00BFFDE6000001000F0000230140002001409C
S325080013C01200001008B5024600200090401F13681860012911D002290BD0032905D0042997
S325080013E00FD11068806C00900CE01068406C009008E01068006C009004E01068C06B0090F8
S3250800140000E000BF00BF009808BD000038B50146002000900022002300BF91F83C0001282D
S3250800142001D1022038BD012081F83C0000BF0868806800F00100A0B90868806840F00100F5
S325080014400D68A86035480068354DB0FBF5F000EB4000009002E00098401E00900098002827
S32508001460F9D10868806800F0010000284BD0086C42F20105A84340F480500864086C00F497
S32508001480807008B90020486400BF002081F83C0000BF401F0D682860224C606800F01F00CD
S325080014A0B0B90868806800F4401008B9012000E00020024608684068012525EA90230AB332
S325080014C003B30868806840F480000D68A86022E00868806800F4401008B9012000E000203F
S325080014E0024608684068012525EA90230E4D0868A84210D132B12BB10868806840F4800035
S325080015000D68A86007E0086C40F010000864486C40F001004864002084E7000010020020EB
S3250800152040420F00002301400020014038B502460020009000BF92F83C00012801D10220C0
S3250800154038BD012082F83C0000BF0868092816D91068C0680C780A3C04EB44050724AC40A9
S32508001560A0431468E0600C780A3C04EB44048868A0401468E46820431468E06013E010689B
S3250800158000690C7804EB44050724AC40A043146820610C7804EB44048868A040146824698D
S325080015A02043146820614868072817D21068406B0C79641E04EB84051F24AC40A0431468C5
S325080015C06063088880B20C79641E04EB8404A0401468646B20431468606331E048680D2837
S325080015E017D21068006B0C79E41F04EB84051F24AC40A04314682063088880B20C79E41FB6
S3250800160004EB8404A0401468246B20431468206316E01068C06A0C790D3C04EB84051F24D7
S32508001620AC40A0431468E062088880B20C790D3C04EB8404A0401468E46A20431468E0623D
S325080016401E4B1F4C1068A0420AD10868122807D1586820F400005860586840F48000586039
S32508001660174C1068A04222D1164C0868A04202D0086811281BD1586820F4800058605868C5
S3250800168040F4000058600F4C0868A0420FD10E4800680E4CB0FBF4F000EB800040000090E1
S325080016A002E00098401E009000980028F9D100BF002082F83C0000BF00BF41E7002301408B
S325080016C000200140120000101002002040420F0001460868C06C704770B5044600250CB9C3
S325080016E0012070BD1549A06A884200D000BF206C30B9204600F024F80020606484F83C004A
S32508001700206C00F0100088B9206C20F4885040F0020020642046FFF76FF900206064206C8C
S3250800172020F0020040F00100206400E0012500BF002084F83C0000BF2846D2E70100000F41
S3250800174010B586B00446142101A8FEF7A3FD63492068884245D100BF002000906048006830
S3250800176040F480705E4908600846006800F48070009000BF00BF00BF002000905848143825
S32508001780006840F004005649143908600846006800F00400009000BF00BF00BF0020009024
S325080017A00846006840F0020008600846006800F00200009000BF00BF0120019003200290AE
S325080017C00020039001A9474800F04AFE01200190032002900020039001A9434800F040FE5A
S325080017E079E042492068884245D100BF002000903B48006840F400703949086008460068F1
S3250800180000F40070009000BF00BF00BF0020009033481438006840F0040031491439086047
S325080018200846006800F00400009000BF00BF00BF002000900846006840F0020008600846D5
S32508001840006800F00200009000BF00BF02200190032002900020039001A9224800F000FEF5
S3250800186002200190032002900020039001A91E4800F0F6FD2FE01E49206888422BD100BFC9
S32508001880002000901648006840F48060144908600846006800F48060009000BF00BF00BF94
S325080018A0002000900E481438006840F001000C49143908600846006800F00100009000BF2F
S325080018C000BF01200190032002900020039001A9084800F0C5FD06B010BD00000020014091
S325080018E044380240000802400004024000210140002201400000024008B5014600200090D1
S3250800190000BF91F83C00012801D1022008BD012081F83C0000BF0868806800F00100A0B91C
S325080019200868806840F001000B6898603F4800683F4BB0FBF3F000EB4000009002E0009869
S32508001940401E009000980028F9D10868806800F00100002860D0086C40F20163984340F447
S32508001960807008640868406800F4806028B1086C20F4005040F480500864086C00F48050B8
S32508001980B0F5805F04D1486C20F00600486401E00020486400BF002081F83C0000BF254AFB
S325080019A06FF022000B681860506800F01F0018BB214B0868984213D0204B0868984204D1F0
S325080019C0101D006800F01F0050B11D4B086898422AD11848001D006800F01F00102823D286
S325080019E00868806800F04050F0B90868806840F080400B68986017E00F4B0868984213D126
S32508001A000868806800F0405070B90868806840F080400B68986007E0086C40F010000864FD
S32508001A20486C40F00100486400206FE71002002040420F00002301400020014000210140A7
S32508001A4000220140F0B504460D461E4694F8207020688368A86800B900E000BF012F01D077
S32508001A60022F7CD103F0806030B903F0006018B903F08050002873D0C3F30161022905D9AB
S32508001A80606A40F4000060620120F0BD012088403060A86860B9B5F800C0E86840EA4C5C79
S32508001AA0206800F5C07000EB0110C0F800C00FE0D5E901C040EACC00D5F80CC040EA0C00C4
S32508001AC0D4F800C00CF5C07C0CEB011CCCF80000D5F810C0206800F5C07000EB0110C0F859
S32508001AE004C0287D01280ED1206800F5C07000EB0110406840F4807C206800F5C07000EB4E
S32508001B000110C0F804C0D079000692F806C040EA0C4092F805C040EA0C2C10794CEA000C99
S32508001B20206800F5C07000EB0110C0F80CC0D078000692F802C040EA0C4092F801C040EAE5
S32508001B400C2092F800C040EA0C00D4F800C00CF5C07C0CEB011CCCF80800206801E016E0C3
S32508001B600FE000F5C07000EB0110006840F0010C206800F5C07000EB0110C0F800C0002061
S32508001B8083E7606A40F40010606201207DE7606A40F480206062012077E70000F0B50446AA
S32508001BA00A46216894F82050012D01D0022D7ED1424901F50071086840F00100086008685A
S32508001BC020F47C5008600868566A40EA06200860107D00F01F06012000FA06F3C869984305
S32508001BE0C861A1F50071D069C8B9D1F80C029843C1F80C02908880B2968940EA064601F59F
S32508001C001070576940F83760108880B2168940EA064601F51070576900EBC7004660D06901
S32508001C20012819D1D1F80C021843C1F80C02908880B2168840EA064601F51070576940F8BE
S32508001C403760908980B2168940EA064601F51070576900EBC7004660906928B9D1F8040248
S32508001C609843C1F8040204E0D1F804021843C1F80402106928B9D1F814029843C1F814020C
S32508001C8004E0D1F814021843C1F81402106A012804D1D1F81C021843C1F81C02D1F80002ED
S32508001CA020F00100C1F800020020F0BDFFE7606A40F4802060620120F7E700000064004094
S32508001CC0704770B5044694F82050012D01D0022D7DD151B92068C06800F0030080B9606AA8
S32508001CE040F400106062012070BD2068006900F0030028B9606A40F4001060620120F3E7F2
S32508001D00206800F5D87000EB0110006800F004009060906840B9206800F5D87000EB0110F6
S32508001D200068400D106007E0206800F5D87000EB01100068C0085060206800F5D87000EB38
S32508001D400110006800F00200D060206800F5D87000EB0110406800F00F001061206800F584
S32508001D60D87000EB0110406800F47F40000A9061206800F5D87000EB01104068000C506195
S32508001D80206800F5D87000EB011080681870206800F5D87000EB0110806800F47F40000A9E
S32508001DA05870206800F5D87000EB0110806800F47F00000C9870206800F5D87000EB01105C
S32508001DC08068000ED870206800F5D87000E02FE000EB0110C0681871206800F5D87000EBA6
S32508001DE00110C06800F47F40000A5871206800F5D87000EB0110C06800F47F00000C9871A5
S32508001E00206800F5D87000EB0110C068000ED87131B92068C06840F020002668F06005E0C7
S32508001E202068006940F020002668306100205BE7606A40F480206062012055E72DE9F05FB0
S32508001E4004460025206846692068D0F80490206887682068D0F80CA02068D0F810B02068DF
S32508001E60D0F8188006F00100002855D007F00100C0B101202168886007F0020018B120468D
S32508001E8000F03FFA0EE007F0040010B145F4006508E007F0080010B145F4805502E02046C5
S32508001EA000F02EFA07F48070C8B14FF480702168886007F4007018B1204600F024FA0EE05E
S32508001EC007F4806010B145F4005508E007F4006010B145F4804502E0204600F013FA07F488
S32508001EE08030C8B14FF480302168886007F4003018B1204600F009FA0EE007F4802010B1B0
S32508001F0045F4004508E007F4002010B145F4803502E0204600F0F8F906F0080038B10AF079
S32508001F20100020B145F4007510202168C86006F0040040B10AF0080028B108202168C86084
S32508001F40204600F0A9F906F0020038B12068C06800F0030010B1204600F09FF906F0400012
S32508001F6038B10BF0100020B145F4806510202168086106F0200040B10BF0080028B1082043
S32508001F8021680861204600F089F906F0100038B12068006900F0030010B1204600F07FF907
S32508001FA006F4003040B109F0100028B1102021684860204600F074F906F4803040B109F05E
S32508001FC0080028B1082021684860204600F09EF906F4004088B309F0040078B306F4807045
S32508001FE020B108F0010008B145F0010506F4007020B108F0020008B145F0020506F4806011
S3250800200020B108F0040008B145F0040506F40060A0B108F0700088B108F07000402817D0EB
S3250800202006DC10280BD020280CD0302819D10CE0502810D0602814D110E01DE019E045F06B
S3250800204008050FE045F010050CE045F0200509E045F0400506E045F0800503E045F48075D2
S3250800206000E000BF00BF2068806920F07000216888610420216848602DB1606A2843606267
S325080020802046FFF71DFEBDE8F09F70B504460CB9012070BD94F8200010B9204600F0B0F892
S325080020A02068006840F001002168086000F0D0FA05460DE000F0CCFA401B0A2808D9606A20
S325080020C040F400306062052084F820000120E0E72068406800F001000028EBD0206800682F
S325080020E020F002002168086000F0B2FA05460DE000F0AEFA401B0A2808D9606A40F40030C7
S325080021006062052084F820000120C2E72068406800F002000028EBD1207E012806D1206838
S32508002120006840F080002168086005E02068006820F0800021680860607E012806D12068CC
S32508002140006840F040002168086005E02068006820F0400021680860A07E012806D12068EC
S32508002160006840F020002168086005E02068006820F0200021680860E07E012806D12068CC
S32508002180006820F010002168086005E02068006840F0100021680860207F012806D120688B
S325080021A0006840F008002168086005E02068006820F0080021680860607F012806D120683B
S325080021C0006840F004002168086005E02068006820F0040021680860D4E9020108432169F5
S325080021E00843616908436168491E08432168C86100206062012084F82000002049E7000055
S3250800220010B586B00446142101A8FEF743F81F492068884238D100BF002000901C4800685F
S3250800222040F000701A4908600846006800F00070009000BF00BF00BF0020009014481038EE
S32508002240006840F002001249103908600846006800F00200009000BF00BF4FF44070019090
S325080022600220029000200390032004900920059001A9084800F0F4F801221146142000F000
S3250800228075FA142000F062FA06B010BD00640040403802400004024070477047704770473E
S325080022A0704770B5044694F82000012822D1022084F820002068006820F001002168086072
S325080022C000F0C6F905460DE000F0C2F9401B0A2808D9606A40F400306062052084F820003F
S325080022E0012070BD2068406800F001000028EBD16062F6E7606A40F4002060620120F0E706
S32508002300704770477047704770477047704770B50446A56D00F09CF9064694F83500022871
S3250800232008D08020606500BF002084F8340000BF012070BD2068006820F0160021680860AF
S325080023402068406920F0800021684861206C08B9A06C28B12068006820F008002168086051
S325080023602068006820F001002168086010E000F06FF9801B05280BD920206065032084F8C5
S32508002380350000BF002084F8340000BF0320D0E72068006800F001000028E8D194F85C1018
S325080023A03F208840A860012084F8350000BF002084F8340000BF00BFBBE7014691F835005A
S325080023C0022803D08020486501207047052081F835000868006820F001000A68106000200F
S325080023E0F3E7000070B5044600F032F906462546681C10B104480078054400BF00F028F992
S32508002400801BA842FAD370BD0C02002010B5044604EB4401C1EBC4114FF6FF7202EAC100DA
S3250800242000F002F810BD000070B504464FF6FF70001B401F85B2094800684562074801F063
S32508002440EBF903E005480068406A85B24FF6F9708542F7DB014801F081FA70BD2C17002085
S32508002460F8B502460B460025002400200021D1E0012606FA01F51E6806EA0504AC4274D1FE
S325080024801E7906F00306012E04D01E7906F00306022E13D190684F000326BE40B0434F003B
S325080024A0DE68BE4030439060506801268E40B0431E79C6F300168E40304350601E7906F0E3
S325080024C00306032E09D0D0684F000326BE40B0434F009E68BE403043D0601E7906F00306AE
S325080024E0022E13D1CF0802F1200656F827004E07F70E0F26BE40B0434F07FF0E1E69BE40ED
S325080025003043CF0802F1200646F8270010684F000326BE40B0431E7906F003064F00BE4021
S32508002520304310605E6806F44036002E71D000BF00260096394E366846F48046374F3E6041
S325080025403E46366806F48046009600BF00BF344E8F0856F827008E07370F0F26BE40B043E8
S32508002560304EB24202D100261FE052E02E4EB24201D1012619E02D4EB24201D1022614E0F2
S325080025802B4EB24201D103260FE02A4EB24201D104260AE0284EB24201D1052605E0274EC3
S325080025A0B24201D1062600E007268F073F0FBE4030431B4E8F0846F82700214E3068A0436A
S325080025C05E6806F4801606B120431D4E3060361D3068A0435E6806F4001606B12043184E5E
S325080025E0361D3060164E361F3068A0435E6806F4003606B12043124E361F3060361F306874
S32508002600A0435E6806F4803606B120430C4E083E3060491C1029FFF42BAFF8BD443802402B
S3250800262008380140000002400004024000080240000C0240001002400014024000180240E9
S32508002640083C01400AB1816101E00B0483617047014800687047000004020020034800687E
S32508002660034909780844014908607047040200200C02002010B50D48006840F400700B49FC
S3250800268008600846006840F4806008600846006840F480700860032000F0A6F8002000F08F
S325080026A007F800F02BF8002010BD0000003C024070B504460E4800784FF47A71B1FBF0F098
S325080026C00C490968B1FBF0F5284600F0EAFE08B1012070BD102C07D200222146501E00F04C
S325080026E045F80548046001E00120F2E70020F0E70C020020100200200802002008B500BF06
S32508002700002000901048006840F480400E4908600846006800F48040009000BF00BF00BF51
S3250800272000200090081F006840F08050091F08600846006800F08050009000BF00BF052013
S3250800274000F052F808BD00004438024001460846002809DB00F01F0301229A4043099B0017
S3250800276003F1E023C3F8002100BF70472DE9F05F80460D461646002703F040FA0746394608
S325080027802A46334601F00700C0F1070ABAF1040F02D94FF0040A01E0C0F1070AD14600F1F7
S325080027A0040ABAF1070F02D24FF0000A01E0A0F1030AD4464FF0010A0AFA09FAAAF1010A8F
S325080027C00AEA020A0AFA0CFA4FF0010B0BFA0CFBABF1010B0BEA030B4AEA0B0421464046AF
S325080027E003F014FABDE8F09F00BF00F00702064B19684FF6FF031940044B0B4343EA02217F
S32508002800014B196000BF70470CED00E00000FA0500BF00BF00BF00BF00BFBFF34F8F00BF8D
S3250800282000BF00BF0948006800F4E06008490843001D0649086000BF00BF00BFBFF34F8FE2
S3250800284000BF00BF00BF00BF00BFFDE70CED00E00000FA0538B5002400BF002000901D480E
S32508002860006840F080501B4908600846006800F08050009000BF00BF012017490864FFF7AF
S32508002880E7FE044607E0FFF7E3FE001BB0F57A7F01D9032038BD1148406800F48030B0F548
S325080028A0803FF0D101200C494864FFF7D1FE044607E0FFF7CDFE001BB0F57A7F01D90320FB
S325080028C0E8E70648406800F40030B0F5003FF0D10020DFE74038024000000E4200700040BC
S325080028E070B504460D460CB9012070BD5848006800F00F00A84209D255490D700846006858
S3250800290000F00F00A84201D00120EEE7207800F0020002281DD1207800F00400042805D1C9
S325080029204C48006840F4E0504A490860207800F00800082805D14748006840F4604045493F
S3250800294008604448006820F0F000A168084341490860207800F00100A8B36068012807D11A
S325080029603C4808380068C0F34040B8B90120BCE76068022802D06068032807D13548083869
S325080029800068C0F3406048B90120AEE7314808380068C0F3400008B90120A6E72D48006857
S325080029A020F00300616808432A490860FFF750FE064609E0FFF74CFE801B41F288318842FD
S325080029C002D9032091E707E02248006800F00C006168B0EB810FEDD11D48006800F00F0040
S325080029E0A84209D91A490D700846006800F00F00A84201D0012078E7207800F00400042875
S32508002A0007D11448006820F4E050E168084311490860207800F00800082808D10D4800681C
S32508002A2020F46040216940EAC1000A49086000F03FF808490968C1F30311074A515CC840ED
S32508002A400649086006480068FFF732FE00204CE7003C02400838024008CC00081002002074
S32508002A600802002001480068704700001002002000B5FFF7F7FF04490968C1F38221034A81
S32508002A80515CC84000BD00000838024018CC000800B5FFF7E7FF04490968C1F34231034A85
S32508002AA0515CC84000BD00000838024018CC00082DE9F047002400250026A146A2463F4816
S32508002AC0006800F00C0030B1042807D0082808D00C286BD138E0DFF8E8A06AE0DFF8E4A00C
S32508002AE067E03648001F006800F03F043348001F006800F4800078B132483049091F09681E
S32508002B00C1F38811A0FB01700146224600233846FDF776FB05460DE029482849091F0968E6
S32508002B20C1F38811A0FB0171224600233846FDF767FB05462148001F0068C0F30140401C43
S32508002B404600B5FBF6FA34E01C48001F006800F03F041A48001F006800F4800078B1194868
S32508002B601649091F0968C1F38811A0FB01700146224600233846FDF743FB05460EE01048E3
S32508002B800E49091F0968C1F38811A0FB01700146224600233846FDF733FB05460748001FB3
S32508002BA00068C0F30279B5FBF9FA02E0DFF810A000BF00BF5046BDE8F087000008380240B3
S32508002BC00024F40000127A00F8B504460CB90120F8BD207800F0010000286FD0FE48006813
S32508002BE000F00C0004281BD0FB48006800F00C00082807D1F848001F006800F48000B0F525
S32508002C00800F0DD0F448006800F00C000C2813D1F148001F006800F48000B0F5800F0BD13E
S32508002C20ED4808380068C0F34040002859D06068002856D10120CBE700BF6068B0F5803F50
S32508002C4008D1E5480838006840F48030E249083908601EE06068B0F5A02F0DD1DE48083882
S32508002C60006840F48020DC49083908600846006840F4803008600CE0D7480838006820F473
S32508002C808030D549083908600846006820F48020086000BF606890B1FFF7DAFC054606E018
S32508002CA0FFF7D6FC401B642801D9032090E7CA4808380068C0F340400028F1D011E0FFF726
S32508002CC0C7FC054606E0FFF7C3FC401B642801D903207DE7C04808380068C0F340400028EA
S32508002CE0F1D1207800F0020002286BD1BA48006800F00C00B8B1B848006800F00C000828B1
S32508002D0005D1B548001F006800F4800058B1B248006800F00C000C281CD1AF48001F0068D1
S32508002D2000F48000B0B9AC4808380068C0F3400020B1E068012801D0012049E7A648083887
S32508002D40006820F0F800216940EAC100A2490839086037E0E06800B30120A0490860FFF772
S32508002D6077FC054606E0FFF773FC401B022801D903202DE7984808380068C0F34000002803
S32508002D80F1D095480838006820F0F800216940EAC10091490839086014E000208F4908608B
S32508002DA0FFF756FC054606E0FFF752FC401B022801D903200CE7884808380068C0F3400068
S32508002DC00028F1D1207800F0080008282CD16069A8B1012082490860FFF73AFC054606E06B
S32508002DE0FFF736FC401B022801D90320F0E67A486C300068C0F340000028F1D014E000208F
S32508002E0077490860FFF724FC054606E0FFF720FC401B022801D90320DAE66F486C30006826
S32508002E20C0F340000028F1D1207800F00400042870D1002768483830006800F0805090B9FE
S32508002E4000BF0020009064483830006840F080506149383108600846006800F080500090F8
S32508002E6000BF00BF01275F48006800F48070B0B95C48006840F480705A490860FFF7E8FB2E
S32508002E80054606E0FFF7E4FB401B022801D903209EE65448006800F480700028F2D000BF87
S32508002EA0A068012808D14C486830006840F001004949683108601DE0A06805280DD1464804
S32508002EC06830006840F004004349683108600846006840F0010008600CE03F486830006861
S32508002EE020F001003C49683108600846006820F00400086000BFA068A8B1FFF7A9FB0546F6
S32508002F0009E0FFF7A5FB401B41F28831884202D903205DE626E0304868300068C0F3400061
S32508002F200028EED013E0FFF793FB054608E0FFF78FFB401B41F28831884201D9032047E638
S32508002F40254868300068C0F340000028EFD1012F07D121483830006820F080501E4938312A
S32508002F60086000BFA069002851D01B48006800F00C00082861D0A069022849D100201749D5
S32508002F800866FFF765FB054606E0FFF761FB401B022801D903201BE60F4808380068C0F3A7
S32508002FA040600028F1D1D4E907010843616A40EA81110122A06AC2EB500041EA00412C2000
S32508002FC0005D41EA00613020005D41EA00700249091F0860012007E00838024000004742C4
S32508002FE0800E4742007000402F490866FFF730FB054606E0FFF72CFB401B022801D9032025
S32508003000E6E52A480068C0F340600028F2D048E0002025490866FFF71BFB054606E0FFF769
S3250800302017FB401B022801D90320D1E51F480068C0F340600028F2D133E0A069012800D115
S32508003040C6E51A48001D0668A069012827D006F48001E069814222D106F03F01206A8142A4
S325080030601DD147F6C0703040616AB0EB811F16D106F440310122A06AC2EB5000B1EB004F0A
S325080030800DD106F070612C20005DB1EB006F06D106F0E0413020005DB1EB007F01D0012021
S325080030A096E5002094E50000000047420038024010B504460CB9012010BD606A38B96068A6
S325080030C0B0F5827F00D105E00021E16102E00021216161610021A16294F8510028B90020DA
S325080030E084F85000204600F047F8022084F851002068006820F0400021680860A08800F425
S325080031008270218901F404410843A18901F400610843217C01F002010843217D01F0010148
S325080031200843218B01F400710843217F01F0380108432021095D01F080010843218D01F4BD
S3250800314000510843216808600421A06901EA104094F8241001F010010843216848602068A5
S32508003160C06920F400602168C86100206065012084F8510000209FE710B586B004461421FF
S3250800318001A8FDF787F837492068884230D100BF002000903448006840F4805032490860F8
S325080031A00846006800F48050009000BF00BF00BF002000902C481438006840F001002A493E
S325080031C0143908600846006800F00100009000BF00BFE0200190022002900020039003205C
S325080031E004900520059001A92048FFF739F936E01F492068884232D100BF002000901A4895
S32508003200001F006840F400401749091F08600846006800F40040009000BF00BF00BF0020DE
S32508003220009011481438006840F004000E49143908600846006800F00400009000BF00BFEB
S325080032404FF4E05001900220029000200390032004900620059001A90648FFF701F906B0E5
S3250800326010BD0000003001404438024000000240003C0040000802402DE9FF5F04468846B0
S3250800328091461D460E9E012002900020019000BF94F85000012803D1022004B0BDE8F09F34
S325080032A0012084F8500000BFFFF7D2F9074694F851B060680390AA46BBF1010F0BD003983C
S325080032C0B0F5827F04D1A06810B9BBF1040F02D002200190DBE0B8F1000F03D0B9F1000F51
S325080032E000D015B901200190D1E094F85100042802D0052084F8510000206065C4F8389089
S32508003300E587A587C4F83080E586A586206460642068006800F04000402805D02068006870
S3250800332040F0400021680860E068B0F5006F4AD1606810B1BAF1010F09D1206B00882168ED
S32508003340C860206B801C2063E08E401EE08633E02068806800F00200022810D1E08E70B14C
S32508003360029801280BD1206B00882168C860206B801C2063E08E401EE086002002902068C6
S32508003380806800F0010068B1E08F58B12068C068A16B0880A06B801CA063E08F401EE08793
S325080033A001200290FFF754F9C01BB04204D3701C10B1032001906AE0E08E0028C8D1E08F7C
S325080033C00028C5D14AE0606810B1BAF1010F09D1206B007821680873206B401C2063E08EFA
S325080033E0401EE08634E02068806800F00200022810D1E08E70B1029801280BD1206B007849
S3250800340021680873206B401C2063E08E401EE086002002902068806800F0010068B1E08F63
S3250800342058B12068C068A16B0870A06B401CA063E08F401EE08701200290FFF709F9C01B1D
S32508003440B04201D3701C00B916B9032001901EE0E08E0028C7D1E08F0028C4D13A46314681
S32508003460204601F013FC20B101200190202060650DE0A06850B900BF002000902068C06833
S32508003480009020688068009000BF00BF00BF012084F8510000BF002084F8500000BF019860
S325080034A0FBE670B504462546681EB0F1807F01D301200FE0681E4FF0E02148610F214FF05B
S325080034C0FF3002F0A3FB00204FF0E021886107200861002070BD7047704710B5034600225B
S325080034E000BF93F83C00012801D1022010BD012083F83C0000BF22F0FF00CC6840EA040242
S3250800350022F440708C6840EA040222F480604C6840EA040222F400600C6840EA040222F4A9
S3250800352080500C6940EA040222F400504C6940EA040222F48040CC6940EA0402186842645C
S3250800354000BF002083F83C0000BF00BFCEE7000030B502460B4600BF92F83C00012801D196
S32508003560022030BD012082F83C0000BF022082F83D00106844681068816824F07004186832
S32508003580044310684460184D1068A8421BD01068B0F1804F17D0154D1068A84213D0144D31
S325080035A01068A8420FD0134D1068A8420BD0124D1068A84207D0114D1068A84203D0104D97
S325080035C01068A84205D121F080015868014310688160012082F83D0000BF002082F83C0049
S325080035E000BF00BFBDE70000000001400004004000080040000C00400004014000400140BC
S325080036000018004070B504460D4615B994F842000BE0042D02D14320005D06E0082D02D149
S325080036204420005D01E04520005D012801D0012070BD1DB9022084F842000EE0042D03D127
S3250800364002214320015508E0082D03D102214420015502E0022145200155042229462068D5
S3250800366001F0B1FE2068406C40F40040216848641A49206888421BD02068B0F1804F17D040
S3250800368017492068884213D01649206888420FD01549206888420BD014492068884207D0E6
S325080036A013492068884203D01249206888420CD12068806800F00706062E0CD02068006884
S325080036C040F001002168086005E02068006840F00100216808600020AAE7000000000140D1
S325080036E00004004000080040000C004000040140004001400018004010B504460CB90120D1
S3250800370010BD94F83D0028B9002084F83C00204600F026F8022084F83D00211D206801F046
S32508003720D5FD012084F8460000BF84F83E0001213F200155402001554120015500BF00BF8B
S32508003740012084F8420043200155442001554520015500BF012084F83D000020D0E70000DE
S3250800376038B5044629492068884218D100BF002000902748006840F00100254908600846BC
S32508003780006800F00100009000BF00BF012200211920FEF7EBFF1920FEF7D8FF34E02068B7
S325080037A0B0F1804F1AD100BF002000901848001F006840F001001649091F08600846006874
S325080037C000F00100009000BF00BF022201211C20FEF7CCFF1C20FEF7B9FF15E00D492068DE
S325080037E0884211D100BF002000900948001F006840F010000649091F08600846006800F003
S325080038001000009000BF00BF38BD0000000001404438024000100040014691F83D00012802
S3250800382001D001207047022081F83D001A4B086898421BD00868B0F1804F17D0174B0868C6
S32508003840984213D0164B086898420FD0154B086898420BD0144B0868984207D0134B086840
S32508003860984203D0124B086898420CD10868806800F00702062A0CD00868006840F00100A3
S325080038800B68186005E00868006840F001000B6818600020C6E70000000001400004004004
S325080038A000080040000C0040000401400040014000180040014691F83D00012801D0012020
S325080038C07047022081F83D000868C06840F001000B68D8601A4B086898421BD00868B0F12C
S325080038E0804F17D0174B0868984213D0164B086898420FD0154B086898420BD0144B086897
S32508003900984207D0134B0868984203D0124B086898420CD10868806800F00702062A0CD08C
S325080039200868006840F001000B68186005E00868006840F001000B6818600020C0E70000E5
S32508003940000001400004004000080040000C0040000401400040014000180040014600BF1C
S325080039600868006A41F21112104050B90868006A9210104028B90868006820F001000A68A8
S32508003980106000BF012081F83D00002070472DE9F04104460D46002700BF94F83C00012881
S325080039A002D10220BDE8F081012084F83C0000BF022084F83D002068866826F0770626F458
S325080039C07F46206886602868502833D00CDC202850D004DC00284BD0102851D149E030284D
S325080039E049D040284CD139E060282DD0702807D0B0F5805F03D0B0F5005F41D10DE041E093
S32508003A00D5E902136A68206801F0EEFC2068866846F077062068866034E0D5E902136A6840
S32508003A20206801F0E1FC2068806840F480402168886027E0EA686968206801F0C5FD502177
S32508003A40206801F0DCFC1DE0EA686968206801F0CEFD6021206801F0D2FC13E0EA686968C5
S32508003A60206801F0B1FD4021206801F0C8FC09E000BF00BF00BF2968206801F0C0FC01E0A6
S32508003A80012700BF00BF012084F83D0000BF002084F83C0000BF384684E7704710B5044693
S32508003AA020680069C0F34000D8B12068C068C0F34000B0B16FF0020021680861012020777C
S32508003AC02068806900F0030018B12046FFF7E5FF05E0204600F000F9204600F0B4F9002014
S32508003AE0207720680069C0F38000D8B12068C068C0F38000B0B16FF00400216808610220B9
S32508003B0020772068806900F4407018B12046FFF7C4FF05E0204600F0DFF8204600F093F90F
S32508003B200020207720680069C0F3C000D8B12068C068C0F3C000B0B16FF0080021680861F6
S32508003B40042020772068C06900F0030018B12046FFF7A3FF05E0204600F0BEF8204600F0EA
S32508003B6072F90020207720680069C0F30010D8B12068C068C0F30010B0B16FF0100021680C
S32508003B800861082020772068C06900F4407018B12046FFF782FF05E0204600F09DF82046BE
S32508003BA000F051F9002020772068006900F0010058B12068C06800F0010030B16FF0010039
S32508003BC021680861204600F0C5F920680069C0F3C01058B12068C068C0F3C01030B16FF0E1
S32508003BE08000216808612046FFF775FC20680069C0F3801058B12068C068C0F3801030B167
S32508003C006FF0400021680861204600F0A4F920680069C0F3401058B12068C068C0F3401062
S32508003C2030B16FF02000216808612046FFF754FC10BD000010B586B00446142101A8FCF795
S32508003C4029FB2149206888423BD100BF002000901E48006840F002001C4908600846006878
S32508003C6000F00200009000BF00BF00BF002000900846006840F0010008600846006800F0D2
S32508003C800100009000BF00BF4FF460400190022002900020039004900120059001A90C48E4
S32508003CA0FEF7DEFB4FF4E06001900220029000200390032004900120059001A90548FEF754
S32508003CC0CFFB06B010BD00000000014030380240000402400000024070472DE9F0410446CE
S32508003CE00D461646002700BF94F83C00012802D10220BDE8F081012084F83C0000BF36B1A6
S32508003D00042E1BD0082E31D00C2E5ED145E02946206801F07DFB2068806940F00800216821
S32508003D2088612068806920F004002168886120688069296908432168886148E029462068B6
S32508003D4001F09EFB2068806940F40060216888612068806920F4806021688861206880690C
S32508003D60296940EA01202168886130E02946206801F0C4FB2068C06940F008002168C86194
S32508003D802068C06920F004002168C8612068C069296908432168C86119E02946206801F07D
S32508003DA0E9FB2068C06940F400602168C8612068C06920F480602168C8612068C069296980
S32508003DC040EA01202168C86101E0012700BF00BF00BF002084F83C0000BF384689E710B548
S32508003DE004460CB9012010BD94F83D0028B9002084F83C00204600F025F8022084F83D00E8
S32508003E00211D206801F062FA012084F8460000BF84F83E0001213F20015540200155412037
S32508003E20015500BF00BF012084F8420043200155442001554520015500BF012084F83D00FA
S32508003E400020D0E77047704770B504460D4615B994F83E000BE0042D02D13F20005D06E024
S32508003E60082D02D14020005D01E04120005D012801D0012070BD1DB9022084F83E000EE0E8
S32508003E80042D03D102213F20015508E0082D03D102214020015502E002214120015501228E
S32508003EA02946206801F07EFA23492068884203D022492068884201D1012000E0002028B17A
S32508003EC02068406C40F40040216848641A49206888421BD02068B0F1804F17D0184920688F
S32508003EE0884213D01749206888420FD01649206888420BD011492068884207D01349206883
S32508003F00884203D01249206888420CD12068806800F00706062E0CD02068006840F00100CE
S32508003F202168086005E02068006840F001002168086000209EE70000000001400004014060
S32508003F400004004000080040000C0040004001400018004070477047704770472DE9F84F69
S32508003F600446206805682068C668206847694FF00009CA4605F00F09B9F1000F0AD105F018
S32508003F80200038B106F0200020B1204601F093FBBDE8F88FB9F1000F7CD007F0010018B944
S32508003FA006F49070002875D005F0010030B106F4807018B1206C40F00100206405F00400C8
S32508003FC030B107F0010018B1206C40F00200206405F0020030B107F0010018B1206C40F09A
S32508003FE00400206405F0080048B106F0200010B907F0010018B1206C40F008002064206CC1
S32508004000002846D005F0200028B106F0200010B1204601F050FB20684069C0F3801A206CE3
S3250800402000F0080010B9BAF1000F2DD0204601F0FCFA2068406900F04000402820D100BF34
S3250800404000BF2168143151E8001F21F040002168143141E80002002AF3D100BFA06B50B16A
S325080040607548A16B0865A06BFEF7A7F988B1A06B016D88470DE02046FFF76FFF09E009E052
S325080040802046FFF76AFF04E02046FFF766FF002020647DE7206B012876D105F01000002878
S325080040A072D006F010000028FAD000BF0020009020680068009020684068009000BF00BF8B
S325080040C02068406900F0400040285ED1A06B006840681FFA80F8B8F1000F54D0A08D4045A0
S325080040E051DDA4F82E80A06BC069B0F5807F43D000BF00BF21680C3151E8001F21F48070AE
S3250800410021680C3141E80002002AF3D100BF00BF00BF2168143151E8001F21F001002168B4
S32508004120143141E80002002AF3D100BF00BF00BF2168143151E8001F21F040002168143191
S3250800414041E80002002AF3D100BF202084F83E000020206300BF00BF21680C3151E8001F40
S3250800416021F0100021680C3141E80002002AF3D100BFA06BFEF7CBF8A08DE28D801A81B246
S325080041802046FFF7E9FE03E740E0A08DE18D401A1FFA80F8E08DC0B3B8F1000F35D000BFE2
S325080041A000BF21680C3151E8001F21F4907021680C3141E80002002AF3D100BF00BF00BFE3
S325080041C02168143151E8001F21F001002168143141E80002002AF3D100BF202084F83E00F9
S325080041E00020206300BF00BF21680C3151E8001F21F0100021680C3141E80002002AF3D172
S3250800420000BF41462046FFF7A7FEC1E605F0800030B106F0800018B1204601F0DFFBB7E63F
S3250800422005F0400030B106F0400018B1204601F032FAADE600BFABE61756000810B5044671
S325080042400CB9012010BDA06900B100E000BF94F83D0028B9002084F83C00204600F028F84C
S32508004260242084F83D002068C06820F400502168C860204601F09CFA2068006920F49040AC
S32508004280216808612068406920F02A00216848612068C06840F400502168C86000202064F8
S325080042A0202084F83D0084F83E000020CAE7000010B586B00446142101A8FBF7EBFF2749FD
S325080042C02068884247D100BF002000902448006840F40030224908600846006800F4003012
S325080042E0009000BF00BF00BF002000901C481038006840F001001A49103908600846006824
S3250800430000F00100009000BF00BF0C2001900220029000200390022004900720059001A950
S325080043201048FEF79DF8012211462620FEF71EFA2620FEF70BFA0C480068C06840F020004C
S3250800434009490968C860022200212620FEF70EFA2620FEF7FBF906B010BD000000440040A6
S3250800436040380240000002407417002070472DE9F84F04460E46174699464FF0000A94F8C5
S325080043803D0020285AD106B117B90120BDE8F88F00BF94F83C00012801D10220F6E70120E9
S325080043A084F83C0000BF00202064212084F83D00FEF74EF98246A784E784A068B0F5805FB4
S325080043C004D1206910B90025B04602E035464FF0000800BF002084F83C0000BF1BE05346FF
S325080043E0002280212046CDF8009001F027FB08B10320CBE745B9B8F80000C0F3080021689E
S32508004400486008F1020803E02878216848606D1CE08C401EE084E08C0028E0D15346002278
S3250800442040212046CDF8009001F008FB08B10320ACE7202084F83D000020A7E70220A5E79A
S32508004440704700BFFEE700001C480068A0B31C4890ED030A1B48D0ED0A0AB4EEE00AF1EE47
S3250800446010FA06DD1848008820F00800083016490880134890ED040A1248D0ED0B0AB4EE6E
S32508004480E00AF1EE10FA06DD0F48008820F0100010300D4908800A4890ED030ADFED0B0A7E
S325080044A0B4EEE00AF1EE10FA06D20748008820F08000803004490880704700008C00002052
S325080044C028120020BC06002090000020000048C210B5002132E00122002028E0194B03EB43
S325080044E0800393ED000A174C431C04EB8303D3ED000AB4EEE00AF1EE10FA17DD234603EBE0
S325080045008003D3ED000AB0EE600A431C04EB8303D3ED000A234603EB8003C3ED000A431CA7
S3250800452004EB830383ED000A002200BF401CC1F1FF038342D2DC02B102E0491CFF29CADB53
S3250800454000BF10BDBC02002038B500240E4800880E49098888420FD00C48008838B1FCF7AB
S3250800456074FD00200A49086001200A4908600124064800880449088024B1044800880090FC
S32508004580FCF7F4FB38BD000092000020900000208C0000208800002000B58DB000200990D5
S325080045A00A900B900C90202101A8FBF773FE2348234908604FF4803048600021204881608B
S325080045C00161017680F82010C1621E4981620021C1600121C161002180F8301001214161BC
S325080045E0FDF77AF808B1FCF75CFC0820099001200A9000200B9009A91148FCF797FF08B1BF
S32508004600FCF74FFC0A200190012002900590002003904FF4801008900011079000208DF8E0
S3250800462019008DF81800049001A90548FCF7B2FD08B1FCF736FC0DB000BD000000200140D0
S32508004640EC1400200100000F00B58DB0002009900A900B900C90202101A8FBF71BFE234840
S32508004660234908604FF4803048600021204881600161017680F82010C1621E498162002144
S32508004680C1600121C161002180F8301001214161FDF722F808B1FCF704FC0920099001206D
S325080046A00A9000200B9009A91148FCF73FFF08B1FCF7F7FB0B200190012002900590002099
S325080046C003904FF4801008900011079000208DF819008DF81800049001A90548FCF75AFDF6
S325080046E008B1FCF7DEFB0DB000BD000000210140341500200100000F1FB5002000900190BD
S32508004700029003901548164908604FF4803048600021134881600161017680F82010C162A6
S32508004720104981620021C1600121C161002180F8301001214161FCF7CFFF08B1FCF7B1FBF3
S3250800474000200090012001900020029069460448FCF7ECFE08B1FCF7A4FB1FBD00220140D5
S325080047607C1500200100000F10B50F480F4908600520486000210D488160C1604FF4A02145
S3250800478001614FF48011416100210176417681760121C176002101774177FDF776FC08B124
S325080047A0FCF77FFB10BD000000640040C415002000B587B0142102A8FBF76CFD00BF00200F
S325080047C001903048006840F080002E4908600846006800F08000019000BF00BF00BF0020B7
S325080047E001900846006840F0040008600846006800F00400019000BF00BF00BF002001909F
S325080048000846006840F0010008600846006800F00100019000BF00BF00BF002001900846C7
S32508004820006840F0020008600846006800F00200019000BF00BF002248F210011248FDF7F6
S3250800484001FF002240211148FDF7FCFE48F21000029001200390002004900220059002A9DA
S325080048600948FDF7FDFD4020029001200390022004900020059002A90448FDF7F1FD07B04A
S3250800488000BD000030380240000002400004024010B51048104908604FF48270486000213F
S325080048A00D4881604FF40061C1600021016141614FF4007181611021C161002101624162BA
S325080048C081620A21C162FEF7F3FB08B1FCF7E9FA10BD000000300140EC15002010B50F48AC
S325080048E00F4908604FF48270486000210C4881604FF40061C1600021016101214161490260
S3250800490081610021C1610162416281620A21C162FEF7CEFB08B1FCF7C4FA10BD003C0040BC
S325080049204416002000B595B0002011901290139014900F9010901C2108A8FBF7ABFC202145
S325080049406846FBF7A7FC3E483E4908600020486020213C48816040F6C901C160002101617F
S325080049600121416180218161FEF7C6FE08B1FCF798FA4FF48050119011A93248FFF707F80E
S3250800498008B1FCF78EFA2F48FFF729FA08B1FCF788FA70200F90002010900FA92948FEF70A
S325080049A0D7FD08B1FCF77DFA6020089040F26540099000200A900B9004200C9000200D9098
S325080049C00E90002208A91F48FFF787F908B1FCF768FA042208A91B48FFF77FF908B1FCF719
S325080049E060FA082208A91748FFF777F908B1FCF758FA7020089040F6C70009900C2208A914
S32508004A001048FFF76AF908B1FCF74BFA00200090019002905A200390002004904FF40050BF
S32508004A2005900020079069460648FEF756FD08B1FCF737FA0348FFF7FDF815B000BD000042
S32508004A40000001409C16002000B587B000200390049005900690019002904FF08040144958
S32508004A6008605920486000211148816040F2E731C160002101618161FEF73EFE08B1FCF797
S32508004A8010FA4FF48050039003A90948FEF77FFF08B1FCF706FA00200190029001A9044803
S32508004AA0FEF756FD08B1FCF7FCF907B000BD0000E41600201CB50020009001900E480F49B1
S32508004AC008605920486000210C4881604FF6FF71C16000218161FEF70FFE08B1FCF7E1F988
S32508004AE000200090019069460448FEF731FD08B1FCF7D7F91CBD0000001000402C17002041
S32508004B0010B50B480B4908604FF47A304860002108488160C16001610C2141610021816177
S32508004B20C161FFF78BFB08B1FCF7BBF910BD0000004400407417002000BFFEE77047000012
S32508004B400D480068406C20F400400B49096848646FF0010008490968086100BF0648006819
S32508004B60006900F001000028F8D06FF00100024909680861704700009C16002010B534488E
S32508004B800068C06A00EE100AB8EE400AF6EE000A20EE200ABCEEC00A10EE100A2C490968E5
S32508004BA048632B480068C06A00EE100AB8EE400AF6EE000A20EE200ABCEEC00A10EE100A8D
S32508004BC023490968886322480068C06A00EE100AB8EE400AF6EE000A20EE200ABCEEC00A71
S32508004BE010EE100A1A490968C8636FF0010018490968086100BF16480068006900F0010016
S32508004C000028F8D06FF0010011490968086110480068406C40F400400D490968486400218E
S32508004C200B48FFF711F900210948FEF7EBFC04210748FFF709F904210548FEF7E3FC0821EA
S32508004C400348FFF701F908210148FEF7DBFC10BD9C160020704700009FED0A0A0A4880ED18
S32508004C60260A9FED080A80ED270A9FED060A80ED2A0A9FED040A80ED280A9FED020A80ED3F
S32508004C80290A704700000000281200207CB504460D461646164800681821B0FBF1F01549AF
S32508004CA0B0FBF1F04FF47A71484301906068B0F5827F0DD12B46002280212046009600F0A4
S32508004CC01BF898B1606D40F02000606503207CBD00BF019800B908E00198401E0190206823
S32508004CE08068C0F3C0100028F3D100BF0020EEE71002002040420F002DE9F84F04460D46DE
S32508004D0090461E46DDF82890FDF7A2FCA0EB0900371AFDF79DFC82462C480068C0F3CB3068
S32508004D207843009045E0701C002842D0FDF790FCA0EB0A00B84200D2A7BB2068406820F0AC
S32508004D40E000216848606068B0F5827F0DD1A068B0F5004F03D0A068B0F5806F05D120681F
S32508004D60006820F0400021680860A06AB0F5005F0DD100BF2068006820F40050216808608C
S32508004D802068006840F400502168086000BF012084F8510000BF002084F8500000BF032066
S32508004DA0BDE8F88FFFE7009800B900270098401E0090206880682840A84201D1012000E040
S32508004DC000204045AFD10020EAE7000010020020704710B5FDF742FC10BD000000B593B00A
S32508004DE0342106A8FBF756FA142101A8FBF752FA00BF002000902648006840F08050244992
S32508004E0008600846006800F08050009000BF00BF00BF002000901F48006840F440401D4940
S32508004E2008600846006800F44040009000BF00BF012006900004079002200C9041050D91D0
S32508004E4004210E91B4210F91022110911191129106A8FDF7B9FE08B1FCF723F8FDF7FAFCF8
S32508004E6008B1FCF71EF80F20019002200290002003904FF4A05004904FF4805005900521A6
S32508004E8001A8FDF72DFD08B1FCF70BF813B000BD40380240007000400548006840F470004B
S32508004EA0034908604FF00060014980390860704788ED00E010B52DED028B01215248FCF7FF
S32508004EC081FA5249086001215148FCF77BFA4F4948605048006850B308460068D1F88410CD
S32508004EE0401A00EE100AB8EEC00ADFED4B0A20EE200A464880ED050A40684449D1F88810D9
S32508004F00401A00EE100AB8EEC00ADFED430A20EE200A3E4880ED070A90ED050AB1EE400AE7
S32508004F20D0ED070A30EE600A80ED060A2AE0374800683649D1F88410401A00EE100AB8EEBB
S32508004F40C00ADFED350A20EE200A304880ED050A40682E49D1F88810401A00EE100AB8EEBA
S32508004F60C00ADFED2D0A20EE200A284880ED060A90ED050AB1EE400AD0ED060A30EE600A67
S32508004F8080ED070A9FED250A254805F027FB25480078022808D106F009F9B0EE408A03F00B
S32508004FA08BFD214880ED000A1D4890ED030A174880ED0C0A1A4890ED060A1C48D0ED070A89
S32508004FC080EE201A114880ED0B1A154890ED040A1648D0ED070A80EE201A9FED150A21EEBA
S32508004FE0000A0A4880ED0D0A0D4890ED050A074880ED0E0A06F054F8FBF79CFE0D48FEF7F6
S325080050004DFDBDEC028B10BDEC1400202812002034150020BC0B00200000A53C17B7D137B4
S32508005020D00F0020F8010020FC010020BC060020DB0FC9409C16002010B52DED108B86B0D6
S325080050408D48FCF759FC8D48FCF756FC8C48FCF753FC8B48FCF73CFB8A498860084690ED72
S32508005060020AB8EEC00ADFED880A20EE200A8DED050A90ED080A90ED081ADDED050A71EE21
S32508005080600A9FED821A01EE600A80ED080A7B48FCF71EFB00EE100AB8EE400ADFED7C0A7F
S325080050A020EE200ADFED7B0A80EE201AB0EE418A7148FCF70DFB00EE100AB8EE400ADFEDD0
S325080050C0740A20EE200ADFED730A80EE201AF0EE418A9FED6F0A30EE480AC8EE000A9FEDB1
S325080050E06E0A20EE800A8DED040A9FED690A30EE680ADFED690A20EE200AC0EE280ACDED6A
S32508005100030A9DED040ADFED640A80EE201A11EE104A2046FBF751FA41EC1F0BB0EE4F0AB0
S32508005120F0EE6F0A00F02CFEB0EE40EAF0EE60EA9FED5A0B53EC102B51EC1E0BFBF7CEF976
S3250800514041EC1D0B9FED570B53EC102BFBF7ADF841EC1C0B53EC1C2B9FED540B51EC100BD0
S32508005160FBF7BCF941EC1B0B9FED520B53EC102BFBF73CF941EC1A0B9FED500B53EC102BEA
S32508005180FBF793F841EC190BFBF75AFA02909DED030ADFED410A80EE201A11EE104A204646
S325080051A0FBF70BFA41EC1E0BB0EE4E0AF0EE6E0A00F0E6FDB0EE40DAF0EE60DA9FED370BD7
S325080051C053EC102B51EC1D0BFBF788F941EC1C0B9FED340B53EC102BFBF767F841EC1B0B32
S325080051E053EC1B2B9FED310B51EC100BFBF776F941EC1A0B9FED2F0B53EC102BFBF7F6F829
S3250800520041EC190B9FED2D0B53EC102BFBF74DF841EC1F0BFBF714FA01901A4890ED030AE6
S3250800522090ED031ADDED020A71EE600A9FED171A01EE600A80ED030A90ED040A90ED041A71
S32508005240DDED010A71EE600A9FED101A01EE600A80ED040A1B48007820B106F0C7F8002097
S3250800526018490870FFF7F0F81748FEF717FC06B0BDEC108B10BD0000EC14002034150020B2
S325080052807C1500202812002027A7113D0AD7233C333353400000804500401C460000000039
S325080052A000DCAE40000000E0E1796B3F000000000000F03F0000006066127140000000007A
S325080052C00000E03FE8000020E416002010B50268294B98420ED0B0F1804F0BD0274B98428D
S325080052E008D0274B984205D0264B984202D0264B984203D122F070024B681A431E4B984294
S3250800530020D0B0F1804F1DD01C4B98421AD01C4B984217D01B4B984214D01B4B984211D09A
S325080053201A4B98420ED01A4B98420BD0194B984208D0194B984205D0184B984202D0184B8D
S32508005340984203D122F44072CB681A4322F080034C6943EA040202608B68C3620B688362EA
S32508005360054B984202D0084B984201D10B6903630123436110BD0000000001400004004030
S3250800538000080040000C00400004014000400140004401400048014000180040001C0040E3
S325080053A00020004030B501F01F05012404FA05F3046A9C430462046A01F01F0502FA05F53E
S325080053C02C43046230BD30B501F01F05042404FA05F3046A9C430462046A01F01F0502FAB3
S325080053E005F52C43046230BD30B50C46816821F47F4142EA032525432943816030BD0A46A8
S32508005400816821F0700142F0070319438160704730B5056A25F001050562026A4368846909
S3250800542024F0700424F003040D682C4322F002028D682A43104DA84200D103E00F4DA8421E
S3250800544006D100BF22F00802CD682A4322F00402094DA84202D0094DA84207D123F480739E
S3250800546023F400734D692B438D692B43436084614D684563026230BD000001400004014050
S3250800548030B5056A25F010050562026A4368846924F4E04424F440740D6844EA052422F02F
S325080054A020028D6842EA0512124DA84200D103E0114DA84207D100BF22F08002CD6842EAB3
S325080054C0051222F040020B4DA84202D00A4DA84209D123F4806323F400634D6943EA850345
S325080054E08D6943EA8503436084614D688563026230BD0000000001400004014030B5056AA3
S3250800550025F480750562026A4368C46924F0700424F003040D682C4322F400728D6842EA94
S325080055200522124DA84200D103E0114DA84207D100BF22F40062CD6842EA052222F4806262
S325080055400A4DA84202D00A4DA84209D123F4805323F400534D6943EA05138D6943EA051385
S325080055604360C4614D68C563026230BD000001400004014030B5056A25F480550562036A8B
S325080055804468C26922F4E04222F440720D6842EA052223F400538D6843EA0533084DA8425B
S325080055A002D0084DA84204D124F480444D6944EA85144460C2614D680564036230BD000067
S325080055C0000001400004014030B50B461446026A056A25F001050562816921F0F00141EA33
S325080055E0041122F00A021A438161026230BD30B50B461446056A25F0100505628169026AF4
S3250800560021F4704141EA043122F0A00242EA03128161026230BD70B50546AC6B0020E08522
S32508005620E0842046FEF799FC70BD00BF00BF02680C3252E8002F22F4907102680C3242E863
S325080056400013002BF3D100BF00BF00BF0268143252E8002F22F001010268143242E80013E3
S32508005660002BF3D100BF016B01290ED100BF00BF02680C3252E8002F22F0100102680C329F
S3250800568042E80013002BF3D100BF202180F83E1000210163704710B504462068C06820F0FF
S325080056A040002168C860202084F83D002046FEF7C7FE002010BDF8B5044694F83E002228DA
S325080056C073D1A068B0F5805F0CD1206950B90025A66A20684068C0F308003080A06A801C07
S325080056E0A06215E0A56A0026A068B0F5805F03D0A06828B9206918B920684068287004E022
S325080057002068406800F07F002870A06A401CA062E08D401E80B2E085002844D12068C0688D
S3250800572020F020002168C8602068C06820F480702168C8602068406920F0010021684861A1
S32508005740202084F83E00206B012826D10020206300BF00BF21680C3151E8001F21F0100036
S3250800576021680C3141E80002002AF3D100BF2068006800F0100010280AD100BF002000900B
S3250800578020680068009020684068009000BF00BFA18D2046FEF7E0FB02E02046FEF7E6FDB9
S325080057A00020F8BD01E00020FBE70220F9E700002DE9F84F04462068006920F44050E1689C
S325080057C00843216808612169A068084361690843E169084300902068C06849F20C61884344
S325080057E0009908432168C8602068406920F44070A16908432168486176492068884203D0A6
S3250800580075492068884203D1FDF742F9814602E0FDF72EF98146E069B0F5004F6CD1022040
S325080058206168A0FB015003461920A9FB007001462A463846FAF7E4FC6421B0FBF1F04FEABF
S32508005840001A02206168A0FB01510B461920A9FB00712A463846FAF7D3FC83460220616847
S32508005860A0FB015003461920A9FB00712A463846FAF7C6FC6421B0FBF1F000EBC00101EB4D
S325080058800010ABEB8000322101EBC0006421B0FBF1F000F0F8000AEB400A02206168A0FB17
S325080058A0015003461920A9FB007001462A463846FAF7A6FC834602206168A0FB0150034642
S325080058C01920A9FB00712A463846FAF799FC6421B0FBF1F000EBC00101EB0010ABEB800029
S325080058E0322101EBC0006421B0FBF1F000F007005044216888606AE004206168A0FB01506B
S3250800590003461920A9FB007001462A463846FAF777FC824604206168A0FB01500346192027
S32508005920A9FB007001462A463846FAF769FC6421B0FBF1F000EBC00101EB0010AAEB8000EC
S32508005940322101EB00106421B0FBF1F000F0F00A04206168A0FB017003461920A9FB00517F
S325080059603A462846FAF74CFC6421B0FBF1F00AEB001A04206168A0FB01510B461920A9FBCA
S3250800598000712A463846FAF73BFC834604206168A0FB015003461920A9FB007001462A4683
S325080059A03846FAF72DFC6421B0FBF1F000EBC00101EB0010ABEB8000322101EB001064219E
S325080059C0B0FBF1F000F00F00504421688860BDE8F88F00000010014000140140014691F887
S325080059E03D00212828D18868B0F5805F0BD1086948B90A6A1088C0F308000B685860086AF4
S32508005A00801C086205E00B6A581C086218780B685860C88C401E80B2C88458B90868C068A6
S32508005A2020F080000B68D8600868C06840F040000B68D860002070470220FCE72DE9F04147
S32508005A4004460D4617469846069E34E0701C88B32EB1FCF7FDFDA0EB0800B0422BD900BFCD
S32508005A6000BF21680C3151E8001F21F4D07021680C3141E80002002AF3D100BF00BF00BFCA
S32508005A802168143151E8001F21F001002168143141E80002002AF3D100BF202084F83D0021
S32508005AA084F83E0000BF002084F83C0000BF0320BDE8F081FFE7206800682840A84201D195
S32508005AC0012000E00020B842C0D00020F0E7000008B50B4800684068C0B200900121684624
S32508005AE004F070FC04F0A6FF05480068C06840F0200003490968C8600148FEF72FFA08BD61
S32508005B007417002000BFFEE710B52DED028B9FED160A164880ED0C0A9FED130A144880EDBD
S32508005B200B0A002012490862486202F0D3FD05F03DFBB0EE408A02F0BFFF0C4880ED0C0AD5
S32508005B409FED0C0A0A4804F049FD094890ED060A064880ED010A064890ED060A80ED0B0A08
S32508005B60BDEC028B10BD000000000000BC060020D00F002017B7D1370FB4054B10B503A9D9
S32508005B80044A029801F0BCFB10BC5DF814FB0000A58800081402002003B4019841000098A3
S32508005BA050EAC12018BF04204A0D18BF40F0010040F2FF72B2EB515F08BF40F00200012850
S32508005BC008BF052002B070474100080218BF04200A0E18BF40F001004FF07F4232EA0101DE
S32508005BE008BF40F00200012808BF05207047014621F00040C0F1FF40C00F70470248006812
S32508005C00C0F30220704700000CED00E010B5002804DB0A07130E054A135406E00A07140E44
S32508005C20034A00F00F031B1FD45410BD00E400E018ED00E02DED020B019820F0004001908E
S32508005C409DED000B02B07047B0EE401AB4EEE01AF1EE10FA02DDB0EE410A7047B0EE600A34
S32508005C60FBE7B0EE401AB4EEE01AF1EE10FA02D2B0EE410A7047B0EE600AFBE710B52DED7A
S32508005C80040B86B09DED060B10EE100A10EE901A8DED000B002818BF0120084320F0004016
S32508005CA0C0F17F6000F1E040C00F21D19DED080B10EE101A10EE900A8DED000B002918BF92
S32508005CC00121084320F00040C0F17F6000F1E040C00F0DD129490798B1EB400F04BF06984E
S32508005CE0002842D00998400004BF089800283CD09DED080B53EC102B9DED060B51EC100BDA
S32508005D00FAF7E7FDCDE902019DED020B40F2FF7110EE900A8DED000B31EA105021D0079886
S32508005D20039900F0004001F00041884219D09DED080B8DED040B9DED020B8DED000B10EE64
S32508005D40900A059961F31E0005909DED041B9DED020B51EC110B53EC102BFAF74AFBCDE9F7
S32508005D6002019DED020B0AB010BD012001F0C2FA0AB0BDE8104001F0BFB900000000E0FF2F
S32508005D8070B5D94B00242DED020B2DED108BDDE91010984205DA20F000429A4201D809D12C
S32508005DA041B19DED100BBDEC108B02B0BDE8704001F08EB9B0F5801F26DA11430BD0002820
S32508005DC013DA012001F096FABDEC108B02B0BDE8704001F091B9022001F08CFA01F060F9BD
S32508005DE051EC100B81F000419EE06FF035049FEDC00B53EC102B9DED100B51EC100BFAF7B6
S32508005E00FBFACDE91001084604EB2051C0F31304B948A1F2FF31204400F4801080F07F6243
S32508005E2082F04052224301EB20559FEDB50B119253EC102B9DED100B51EC100BFAF7D6FA63
S32508005E4041EC180BA01CC0F313009FEDAFDB9FEDB0EBB14E7E4403286CD296ED000B51EC30
S32508005E60180B53EC102BFAF7BBFB1DD1002D01BF96ED000BBDEC108B02B070BD2846FAF7E5
S32508005E806BFD41EC180B53EC1D2BFAF7B5FA41EC190B53EC1E2B51EC180BFAF7ADFA53EC05
S32508005EA0192BFAF702FA3FE09FED9D0B51EC180B53EC102BFAF7A0FA9FED9B1B53EC112B2E
S32508005EC0FAF797FA41EC190B53EC182B51EC180BFAF792FA53EC192BFAF78EFA41EC190B35
S32508005EE0002D04BF53EC192B51EC180B1AD02846FAF732FD41EC1A0B53EC1D2BFAF77CFA09
S32508005F0053EC192BFAF775FA53EC182BFAF76EFA41EC180B53EC1E2B51EC1A0BFAF76CFA24
S32508005F2053EC182BFAF762FABDEC108B02B041EC100B70BD9FED7E0B51EC180B53EC102B2A
S32508005F40FAF7B3F941EC100B51EC180B53EC102BFAF7C4FA41EC190B2846FAF7FDFC41ECEF
S32508005F601B0B53EC192B51EC190BFAF745FA41EC1A0B714853EC1A2B261851EC1A0BFAF7B9
S32508005F803BFA41EC1F0B6D48C4F1510404F5D724B0EE4F0AF0EE6F0A0321784401F001F89C
S32508005FA053EC1F2B51EC100BFAF726FA41EC1C0B6348B0EE4F0AF0EE6F0A0421784400F0C3
S32508005FC0F0FF53EC1A2B51EC100BFAF715FA344353EC1C2BFAF769F941EC1C0B002C4CDDEF
S32508005FE09FED510B51EC180B53EC102BFAF704FA53EC182BFAF700FA41EC1A0B55B353ECDC
S325080060001D2B51EC1B0BFAF7F7F941EC1D0B53EC1C2B51EC1A0BFAF748F953EC192BFAF703
S32508006020EBF953EC1D2BFAF740F953EC1A2BFAF7E0F953EC182BFAF7D9F941EC180B53EC9B
S325080060401E2B51EC1B0BFAF7D7F953EC182BFAF7CDF969E753EC1C2B51EC1A0BFAF725F945
S3250800606053EC192BFAF7C8F953EC1A2BFAF7C1F953EC182BFAF7BDF956E735B353EC1D2BD9
S3250800608051EC1B0BFAF7B8F941EC1A0B53EC1C2B51EC180BFAF7AAF953EC192BFAF7ACF908
S325080060A053EC1A2BFAF7A2F953EC182BFAF79EF941EC180B53EC1E2B51EC1B0BFAF79CF9F7
S325080060C053EC182BFAF792F92EE753EC1C2B51EC180BFAF78BF953EC192BFAF78DF953EC0B
S325080060E0182BFAF786F91FE70000F07F000000000000000000005043645F0900000000000B
S32508006100000000000000F03F763C7935EF39EA3D0000E0FE422EE63F886E0000000000002A
S32508006120555555555555D53F000000000000E03F000000000000004086EBF9FF826C000089
S32508006140786C0000000000002DE9F04D2DED040B2DED0E8B96B0DDE92550279CDDF890A0D5
S3250800616025F0004624F00048BAF1000F14BF0121002101EB4502FC4953184A1093422AD37B
S32508006180002814BF0123002303EB44030B44F7498B4220D358EA00019FEDF59B76D0DFF8AF
S325080061A0D8B35D4503D1BAF1000F05D188E0BAF1000F08BF002100D0012101EB450111F50C
S325080061C0001F08D8002814BF0121002101EB440111F5001F0BD99DED261B9DED240B16B0F0
S325080061E0BDEC0E8B04B0BDE8F04D00F07BBF0027002DBCBFE149884521DAE1498845A8BF70
S3250800620002271CDAC3451ADCDE4901EB2851142908DDC1F1340220FA02F101FA02F28242FD
S325080062200DD108E058B9C1F1140228FA02F101FA02F2424503D101F00101C1F1020756EA64
S325080062400A0124D1002C22DA002D18BF022F01D0012F0AD0022001F04DF816B0BDEC0E8B98
S3250800626004B0BDE8F04D00F01BBF022001F042F800F016FF51EC100B81F0004141EC100B0C
S3250800628016B0BDEC0E8B04B0BDE8F08D18E09FEDBEAB9FEDBF8B002871D1B848804522D12D
S325080062A005F1804010F5801008BFBAF1000F07D0B3450ADC002CA8BF9DED260BE0DA0DE05A
S325080062C0B0EE490AF0EE690ADAE7002C06DA9DED260B51EC100B81F000416FE0AE487844DB
S325080062E090ED000BCCE7D8454DD1002C48DA2EB186423AD1BAF1000F42D126E0BAF1000F8D
S3250800630013D0022000F0F6FF00F006FF8DED020B9DED240B8DED000B10EE900A039961F343
S325080063201E0003909DED020BAAE78DED02AB9DED240B1AEE901A10EE900A8DED000B61F373
S325080063401E0003909DED020B9AE78DED028B9DED240B18EE901A10EE900A8DED000B61F385
S325080063601E0003909DED020B8AE709DA9DED240B51EC190B53EC102BFAF7B0F81EE020E048
S325080063809DED240B7CE786421BDAB4F1804F0DD0A4F10050B0F1FF5013D1002D11DB9DED69
S325080063A0240B51EC100B04F079FF07E09DED240B53EC102B51EC100B00F0C2BC41EC100BB4
S325080063C05EE79DED240B51EC100B02F077F9BAF1000FCDE90E0142D19FED710B46B3A6F1CD
S325080063E0E040B0F17F600CD05E4538D1002D00DAA7B3022F0CBF01204FF0FF30FAF7ACFAE4
S32508006400DCE7002D01DD002C0DDA002D01DD002C1FDB002D16DA002C14DB012F08BF9FEDA1
S32508006420620B3FF42DAFB0EE4A0AF0EE6A0A27E7022F18BF002D0CD0012F0AD1002DFFF642
S325080064401FAF06E0002DB8BF002C08DA012F3FF417AFB0EE480AF0EE680A11E71BE001204B
S3250800646000EBE57050EA070115D0791EB0EE498AF0EE698A084308BF9FED4D8B4E4800259D
S32508006480804570DD4D494E48884514DDB0420DDB002C19DB2FE0012000F02CFF16B0BDEC3E
S325080064A00E8B04B0BDE8F04D00F026BEB34502DC002C09DC1FE0864202DA002C1BDA03E03D
S325080064C05E452BDD002C16DD022000F013FF00F023FE8DED020B53EC1A2B51EC180BF9F754
S325080064E08BFFCDE900010399019861F31E0003909DED020BC4E6022000F0FCFE00F01CFEBC
S3250800650010EE901A18EE900A8DED020B8DED008B61F31E0003909DED020BB1E69DED0E0BC3
S3250800652053EC192B51EC100BF9F760FF9FED260BCDE9080153EC102B9DED080B51EC100B38
S32508006540F9F75AFF9FED221B53EC112BF9F751FF9DED081B53EC112BF9F74EFF9FED1E1B36
S3250800656053EC112B3CE08CE0FFFF1F00FFFF0F00000000000000F03F0000F03F0000F07F13
S325080065800000404301FCFFFF000000000000F07F0000000000000000FE6900000000000099
S325080065A00000000000000080000000000000F0FF000000000000F0BF0000E0410000F0435B
S325080065C0FFFFEF3F00000000000000000000D03F555555555555D53F000000000000E03F41
S325080065E0F9F707FF9DED080B41EC1A0B53EC102B51EC100BF9F700FF53EC1A2BF9F7FCFE79
S3250800660041EC1A0B9FEDFE0B53EC102B9DED080B51EC100BF9F7F0FE41EC1B0B9FEDFA0B54
S3250800662051EC1A0B53EC102BF9F7E6FE41EC1A0B9FEDF70B53EC102B9DED080B51EC100B4D
S32508006640F9F7DAFE53EC1A2BF9F7D0FE41EC1A0B51EC1B0B53EC1A2BF9F727FE0690CDE988
S3250800666006519DED060B53EC1B2B51EC100BF9F7BDFE53EC1A2BF9F7BCFE41EC100B00F02C
S32508006680A1B90020B6F5801F0EDA9FEDE30B53EC102B9DED0E0B51EC100BF9F7ADFECDE900
S325080066A00E016FF034000E4600EB2650A0F2FF37C6F31300DA4940F07F6646F04056884213
S325080066C0D8BF002408DDD7498142C8BF012403DC0024A6F580167F1CD348784400EBC40028
S325080066E00F9690ED00CB9DED0E0B53EC1C2B51EC100BF9F77BFE9DED0E0B41EC1B0B53EC80
S325080067001C2B51EC100BF9F7D0FD41EC100B51EC190B53EC102BF9F7E1FE41EC1D0B51EC8B
S325080067201B0B53EC1D2BF9F767FE41EC1A0BBF488DED10AB7844109590ED000B4FF0005043
S3250800674040EA660000EB84408DED080B00F5002009909DED080B53EC1C2B51EC100BF9F746
S3250800676045FE9DED0E1B53EC112BF9F742FE41EC100B53EC102B9DED100B51EC100BF9F7BB
S325080067803BFE9DED080B41EC1C0B53EC102B9DED100B51EC100BF9F72FFE53EC1B2BF9F7B8
S325080067A028FE53EC1C2BF9F721FE53EC1D2BF9F723FE41EC1C0B53EC1A2B51EC1A0BF9F74E
S325080067C01BFE41EC1B0B9A480621B0EE4B0AF0EE6B0A784400F0E5FBB0EE401AF0EE601A14
S325080067E0B0EE41DAF0EE61DA53EC1B2B51EC1B0BF9F702FE53EC1D2BF9F7FEFD9DED100BCA
S3250800680041EC1B0B53EC1A2B51EC100BF9F74DFD53EC1C2BF9F7F0FD53EC1B2BF9F745FDE7
S325080068209DED100B41EC1B0B53EC102B51EC100BF9F7E2FD41EC1D0B9FED7FEB53EC1E2BDE
S32508006840F9F733FD53EC1B2BF9F72FFD0890CDE908519DED080B53EC1E2B51EC100BF9F755
S32508006860C5FD53EC1D2BF9F7C1FD53EC1B2BF9F7C0FD9DED080B41EC1D0B53EC102B9DEDEB
S32508006880100B51EC100BF9F7B7FD41EC1B0B53EC1A2B51EC1D0BF9F7AFFD9DED080B41EC31
S325080068A01A0B53EC102B51EC1C0BF9F7A5FD53EC1A2BF9F7FAFC41EC1A0B51EC1B0B53ECD7
S325080068C01A2BF9F7F2FC0C90CDE90C519DED0C0B53EC1B2B51EC100BF9F788FD53EC1A2B61
S325080068E0F9F787FD41EC1B0B9FED550B53EC102B9DED0C0B51EC100BF9F77EFD41EC1A0BA7
S325080069009FED510B51EC1B0B53EC102BF9F774FD41EC1B0B9FED4E0B53EC102B9DED0C0BF0
S3250800692051EC100BF9F768FD53EC1B2BF9F7BDFC41EC100B4848784400EBC40090ED001B93
S3250800694051EC100B53EC112BF9F7AFFC41EC1B0B3846FAF701F8CDE9080153EC1B2B51EC7F
S325080069601A0BF9F7A2FC41EC100B3C48784400EBC40090ED00CB51EC100B53EC1C2BF9F709
S3250800698094FC9DED081B53EC112BF9F78EFC0690CDE906519DED080B53EC102B9DED060B62
S325080069A051EC100BF9F722FD53EC1C2BF9F71EFD53EC1A2BF9F71AFD53EC1B2BF9F719FDBB
S325080069C041EC100B9DED261B53EC102B8DED001B00959DED260B51EC100BF9F70DFD9DED5B
S325080069E0000B41EC1A0B53EC102B9DED260B51EC100BF9F7FBFC9DED061B53EC112B2FE083
S32508006A00000000604715F73FFE822B654715F73F44DF5DF80BAE543E00000000000040438E
S32508006A208E9803007AB60B007A650000A8650000B26400000000000000000000000008409A
S32508006A40000000E009C7EE3FFD033ADC09C7EE3FF5015B14E02F3EBE3E630000F8620000CD
S32508006A60F9F7CAFC53EC1A2BF9F71FFC9DED060B41EC1A0B53EC102B9DED000B51EC100B6F
S32508006A80F9F7BAFCCDE90C019DED0C0B51EC1A0B53EC102BF9F709FCCDE902010C46AA490F
S32508006AA08C422FDB611A084318D19DED0C0B53EC102B9DED020B51EC100BF9F797FC41EC87
S32508006AC01B0B9FEDA30B51EC1A0B53EC102BF9F7ECFB53EC1B2BF9F79BFD2DD2022000F077
S32508006AE009FC00F019FB10EE901A18EE900A8DED020B8DED008B61F31E0003909DED020B0F
S32508006B00FFF7BEBB944A24F00041914214D39349214408437FF4EFAC9DED0C0B53EC102B56
S32508006B209DED020B51EC100BF9F760FC53EC1A2BF9F76EFD7FF6DFAC24F000408849894A35
S32508006B40002601EB205182422BDA481C4FF4801121FA00F02044844AC0F30A517A44A1F207
S32508006B60FF3192ED000B814A8DED080BCA4020EA0202C0F3130040F48010C1F1140120FA72
S32508006B8001F60992002CB8BF76429DED080B53EC102B9DED0C0B51EC100BF9F727FCCDE921
S32508006BA00C019DED0C0B51EC1A0B53EC102BF9F77CFB9FED6F0B0890CDE9085153EC102BAF
S32508006BC09DED080B51EC100BF9F716FC41EC1B0B9FED690B53EC102B9DED080B51EC100BEE
S32508006BE0F9F70AFC9DED0C0B41EC1C0B53EC102B9DED080B51EC100BF9F7F8FB53EC1A2BC6
S32508006C00F9F7F7FB9FED5E1B53EC112BF9F7F4FB53EC1C2BF9F749FB41EC1A0B51EC1B0BB6
S32508006C2053EC1A2BF9F741FBCDE902019DED020B53EC1B2B51EC100BF9F7D8FB53EC1A2B22
S32508006C40F9F7D7FB9DED020B41EC1A0B53EC102B51EC100BF9F7D0FBCDE908014A489DED13
S32508006C60080B0521784400F09CF99DED081B51EC100B53EC112BF9F7BFFB9DED021B53EC7C
S32508006C80112BF9F7B6FBCDE906019DED020B53EC1A2B51EC100BF9F7AFFB53EC1A2BF9F7CB
S32508006CA004FB9FED3B0B41EC1A0B53EC102B9DED060B51EC100BF9F799FB9DED060B41ECEA
S32508006CC01B0B53EC102B9DED020B51EC100BF9F793FB53EC1B2BF9F701FC53EC1A2BF9F7B3
S32508006CE085FB9DED021B53EC112BF9F77FFB53EC192BF9F77EFBCDE9020101EB065001157D
S32508006D000029C8BF039015DC9DED020B324651EC100BF9F776FDFEF73FFF042808BF00F051
S32508006D200BFA32469DED020B51EC100BF9F769FDCDE902019DED020B51EC180B53EC102B59
S32508006D40F9F75AFBFFF73ABB0000904000000000FE822B654715973C00CC904000346F3F68
S32508006D6001FCFFFF0000E03F80610000FFFF0F0000000000432EE63F396CA80C615C20BE73
S32508006D80EF39FAFE422EE63F5060000000000000000000000000004000B510EE101A2DED49
S32508006DA0028B81B0524A6846B2EB410F2ED94FF0E640B0EB410F94BF00204FF0FF30009008
S32508006DC00098B0EE408A00286ADB10F0010F4BD068EE080A9FED471A9FED470A00EE810A62
S32508006DE09FED461A10F0020F00EE801AB7EE000A00EE810A02BF01B0BDEC028B00BD00BFB4
S32508006E0001B0B1EE400ABDEC028B00BD3C4B21F00042934241D911F0004FDFED3A0A20EEA0
S32508006E20201ADFED390A19BF31EE601A71EE200A31EE201A71EE600ABDEEE01A11EE100A21
S32508006E409FED321A00F0030000EEC10A9FED301A009000EEC10A9FED2F1A00EEC10A9FED67
S32508006E602E1A00EEC10AABE728EE080A9FED2B1ADFED2B0A10F0020F40EE410A9FED291A1E
S32508006E8000EE201A61EE000AB0EE480A08EE200AB6D101B0BDEC028B00BD00F071F98FE758
S32508006EA018EE100A4000B0F17F4F0DD218EE100AFEF78AFE042808BF00F05AF9B0EE480A53
S32508006EC001B0BDEC028B00BD09D1012000F012FA01B0BDEC028B5DF804EB00F041B901B043
S32508006EE0B0EE480ABDEC028B5DF804EB00F034B9B61F927EB93AB2BACA9F2A3DDDFFFFBE90
S32508006F00490E494683F9223F0000004B0000C93F00A0FD390020A2331A61342C336D4C3982
S32508006F20DA82083CA0AA2ABE00B52DED048BB0EE409AF0EE609A83B051EC190BF9F778FCCB
S32508006F4041EC180B18EE100A18EE901A8DED008B002818BF0120084320F00040C0F17F60B3
S32508006F6000F1E040C00F14D019EE101A19EE900A8DED009B002918BF0121084320F000409B
S32508006F80C0F17F6000F1E040C00F04BF012000F0B1F9B0EE480A03B0F0EE680ABDEC048BCA
S32508006FA000BD70B504462DED028B4D1E00EBC500B0EE408AF0EE608A90ED000B35F00600F2
S32508006FC017D053EC182B51EC100BF9F715FA41EC100B6D1E04EBC50090ED001B51EC100B6C
S32508006FE053EC112BF9F761F941EC100B35F00600E7D1022D36D0042D1CD0062D1CBFBDEC8A
S32508007000028B70BD53EC182B51EC100BF9F7F4F994ED0A1B53EC112BF9F747F953EC182B1E
S32508007020F9F7EAF994ED081B53EC112BF9F73DF941EC100B53EC182B51EC100BF9F7DCF943
S3250800704094ED061B53EC112BF9F72FF953EC182BF9F7D2F994ED040B53EC102BF9F725F998
S3250800706041EC100B53EC182B51EC100BF9F7C4F994ED021B53EC112BF9F717F953EC182B98
S32508007080F9F7BAF994ED001B53EC112BF9F70DF9BDEC028B41EC100B70BD00000000000087
S325080070A09FED070B10B553EC102B9FED070B51EC100BF9F713FA41EC100B10BD00000000DD
S325080070C00000000000000000000000000000F03F10B553EC102B51EC100BF9F7E6F841ECE1
S325080070E0100B10BD10B553EC112B51EC100BF9F7DCF841EC100B10BD9FED050B10B553EC89
S32508007100102B51EC100BF9F7E9F941EC100B10BD00000000000000009FED050B10B553EC47
S32508007120102B51EC100BF9F767F941EC100B10BD00000000000000709FED050B10B553EC39
S32508007140102B51EC100BF9F757F941EC100B10BD000000000000001030EE000A704700004A
S32508007160DFED020A80EEA00A70470000000000009FED020A20EE000A7047000000000010E3
S325080071802DE9F0014FF07F42B2EB410F9FBF4FF0FF310160BDE8F00170474FF0004242EAC5
S325080071A00123C1F3C752783A551112F01F0C434CCCF120067C44C1F3C752A2F178024FEA46
S325080071C0621204EB820254F8254008BFD2E9015612D0556804FA0CF425FA06F73C439768F9
S325080071E005FA0CF527FA06F8D26807FA0CFCF24045EA08054CEA0206A4FB034CA5FB035290
S32508007200A6FB03631D449D4234BF012600261319334416B1934202D903E0934201D2012211
S3250800722000E00022624402F1200C9206DC0C42EA443200EE102A5B03DFED210AF8EEC01A1A
S3250800724000EE103A4FEA9C1C11F0004FB8EE400AC0F800C020EE201A00EE105ADFED190AB0
S32508007260B8EE400A20EE200A71EE810A70EE800A10EE902A02F500626FF30B0200EE902ADE
S3250800728070EEE11A31EEC11ADFED101A30EE411A9FED0D0A20EE800A01EE210A9FED0C1A17
S325080072A000EE810A04BFBDE8F0017047CCF180510160BDE8F001B1EE400A7047305B000087
S325080072C0000000360000802C22AAFD29DB0FC92F0000C92F02E008C8121F08C1002AFAD151
S325080072E070477047002001E001C1121F002AFBD170470000014908607047000020020020C6
S325080073002DE9F84F9946924688460546002706E025280AD051464A4690476D1C7F1C28783C
S325080073200028F5D13846BDE8F88F002315F8011F18462E2915D115F8011F04232A290DD038
S325080073406FF02F022978A1F13004092C09D800EB800002EB400008446D1CF3E758F8040B6C
S325080073606D1C2A78002ADDD0632A07D0732A0FD0104651464A4690477F1C2AE018F8042BE5
S325080073808DF8002000218DF801106E46012103E058F8046B4FF0FF315A074FF0000401D423
S325080073A009E0641C84420BDA8C42FADB325D002AF7D105E0641C8C42FCDB305D0028F9D1FE
S325080073C0274404E016F8010B51464A469047641EF8D26D1CA3E7000070B52DED068BB0EE6B
S325080073E040AAB0EE609AF0EE419A04460D461646B0EE4A0AF9F734FEB0EE408AB0EE4A0ADD
S32508007400F9F73CFEF0EE408A28EE090A08EEE90A84ED000A9FED170A28EE800AF6EE000AC4
S3250800742000EEC80A20EE090ADFED130A68EE200AB6EE001A41EE680A00EEE90A85ED000A38
S325080074409FED0D0A28EE800AF6EE000A00EEC80A20EE090ADFED070A68EE200AB6EE001AF1
S3250800746041EE680A00EEE90A86ED000ABDEC068B70BD0000D7B35D3FD7B35DBF10B52DEDED
S32508007480068BB0EE408A03F091FEF0EE408A214890ED0B0ADFED200A30EE600A30EE480AD2
S325080074A01E48D0ED000AF8EEE00A9FED1D1A01EE600A10EE101A0846F9F77FF841EC1A0B76
S325080074C0B0EE4A0AF0EE6A0AFEF7B4FBB0EE409AF0EE609A9FED130B53EC102B51EC190BE1
S325080074E0F9F77EF813D20D480068FF280CDC0F480A49096800EB8100C0ED008A07480068F2
S32508007500401C0649086002E0002004490860BDEC068B10BD28120020DB0F4941700100202D
S32508007520DB0FC93C00000040E17A843FBC0200202DE9F04F2DED108BADF5137D05460C4639
S32508007540F9A0FEF719FB4FF46070909028208F909FEDFE0AF0EE40AA4FF4606001F0DEFFB4
S3250800756081464FF4606001F0D9FF8246B9F1000F02D0BAF1000F05D10DF5137DBDEC108BB1
S32508007580BDE8F08F80208E90800001F0C7FF064606B9F1E74FF460614846F8F77BFE4FF4A4
S325080075A060615046F8F776FE4FF400713046F8F771FE4FF4606001F0B1FF80464FF460600E
S325080075C001F0ACFF0746B8F1000F00D007B9D3E74FF460614046F8F75DFE4FF4606138465C
S325080075E0F8F758FE80208D9081000DA8F8F752FE4FF40072314605F13400F8F732FE4FF44E
S32508007600606001F08BFF92904FF4606001F086FF9190929808B1919800B9ADE74FF4606108
S325080076209298F8F737FE4FF460619198F8F732FE9FEDC78A9FEDC69A9FEDC6DADFEDC4DA43
S325080076409FEDC30A8DED0A0AB6EE000A8DED070A0AAA0BA90CA8B0EE6D1AF0EE4D0AB0EEE8
S32508007660480AFFF7B9FE07AA08A909A8DDED0A1A9DED0B1ADDED0C0AB7EE000A03F046FE87
S325080076804FF0000B7BE0B4480068C06A400800EE100AB8EE400ADDED090AB7EE001A71EE6E
S325080076A0600A20EE200ABCEEC00A10EE100AAA490968C863A948006870B3A7480068C06A02
S325080076C0400800EE100AB8EE400ADDED080AB7EE001A71EE600A20EE200ABCEEC00A10EE4E
S325080076E0100A9D49096888639B480068C06A400800EE100AB8EE400ADDED070AB7EE001AD1
S3250800770071EE600A20EE200ABCEEC00A10EE100A9149096848632DE08F480068C06A40081A
S3250800772000EE100AB8EE400ADDED070AB7EE001A71EE600A20EE200ABCEEC00A10EE100A1C
S3250800774085490968886384480068C06A400800EE100AB8EE400ADDED080AB7EE001A71EE59
S32508007760600A20EE200ABCEEC00A10EE100A7A49096848636420FAF757FE0BF1010B49F6DD
S3250800778040408345FFF67FAF9FED750A284602F025FF7448F9F73AFE7348F9F737FE0121FB
S325080077A07048F9F70FFE206001216F48F9F70AFE60602168D4F88400081A00EE100AB8EE4C
S325080077C0C00ADFED6A0A20EE200A84ED050A6168D4F88800081A00EE100AB8EEC00ADFED56
S325080077E0630A20EE200A84ED060A94ED050AB1EE400AD4ED060A30EE600A84ED070A94ED80
S32508007800072AF0EE421A94ED062AB0EE421A94ED052AF0EE420A94ED0C2AB0EE420A04F1D4
S325080078204401081F00F094FE94ED110A10EE101A0846F8F7C2FE41EC1C0B9FED4D1BB0EEA5
S325080078404C0AF0EE6C0AFEF77FFCB0EE40EAF0EE60EA94ED100A10EE101A0846F8F7ADFE65
S3250800786041EC1C0B9FED421BB0EE4C0AF0EE6C0AFEF76AFC8DED040B53EC1E2B9DED040B70
S3250800788051EC100BF8F711FD41EC1B0BB0EE4B0AF0EE6B0AFFF748FBB0EE40FAF0EE60FAA3
S325080078A051EC1F0BF8F7CCFE09EE900A4FF0000BEBE000200590C7E038EE2A0AB0EE408AD6
S325080078C00AAA0BA90CA8B0EE6D1AF0EE4D0AB0EE480AFFF781FD07AA08A909A8DDED0A1ABF
S325080078E09DED0B1ADDED0C0AB7EE000A03F00EFD19480068C06A400800EE100AB8EE400A0B
S32508007900DDED090AB7EE001A71EE600A20EE200ABCEEC00A10EE100A0F490968C8630F48E5
S32508007920006848B30C4828E05374617274696E672063616C6962726174696F6E2070726F15
S325080079406365647572650A0D000000007CD9A03A000000009A99193E9C160020BC0B002018
S3250800796017B7D137EC140020341500200000A53C00000000000000402DE00068C06A400892
S3250800798000EE100AB8EE400ADDED080AB7EE001A71EE600A20EE200ABCEEC00A10EE100AB9
S325080079A0FE4909688863FD480068C06A400800EE100AB8EE400ADDED070AB7EE001A71EE06
S325080079C0600A20EE200ABCEEC00A10EE100AF349096848632DE0F1480068C06A400800EE05
S325080079E0100AB8EE400ADDED070AB7EE001A71EE600A20EE200ABCEEC00A10EE100AE74918
S32508007A0009688863E5480068C06A400800EE100AB8EE400ADDED080AB7EE001A71EE600A99
S32508007A2020EE200ABCEEC00A10EE100ADB49096848636420FAF7F8FC1FED370A284602F01E
S32508007A40CDFD0598401C059005982828FFF634AF1FED3D0A284602F0C1FD95ED060AD5ED36
S32508007A600B0A30EE200AB0EE409AF1EE0C0A88EE200A30EE490A09EB8B0080ED000AE969D5
S32508007A80929840F82B100BF1010BBBF5607FFFF610AF4FF0000BC1E0002005909DE038EEAD
S32508007AA06A0AB0EE408A0AAA0BA90CA8B0EE6D1AF0EE4D0AB0EE480AFFF78EFC07AA08A994
S32508007AC009A8DDED0A1A9DED0B1ADDED0C0AB7EE000A03F01BFCB1480068C06A400800EEF0
S32508007AE0100AB8EE400ADDED090AB7EE001A71EE600A20EE200ABCEEC00A10EE100AA74955
S32508007B000968C863A648006870B3A4480068C06A400800EE100AB8EE400ADDED080AB7EE03
S32508007B20001A71EE600A20EE200ABCEEC00A10EE100A9A490968886398480068C06A400897
S32508007B4000EE100AB8EE400ADDED070AB7EE001A71EE600A20EE200ABCEEC00A10EE100AF8
S32508007B608E49096848632DE08C480068C06A400800EE100AB8EE400ADDED070AB7EE001AB7
S32508007B8071EE600A20EE200ABCEEC00A10EE100A82490968886381480068C06A400800EE92
S32508007BA0100AB8EE400ADDED080AB7EE001A71EE600A20EE200ABCEEC00A10EE100A7749C5
S32508007BC0096848636420FAF72FFC1FED9B0A284602F004FD0598401C059005982828FFF659
S32508007BE05EAF1FEDA10A284602F0F8FC95ED060AD5ED0B0A30EE200AB0EE409AF1EE0C0A41
S32508007C0088EE200A30EE490A0AEB8B0080ED000AE969919840F82B100BF1010BBBF5607FC9
S32508007C20FFF63AAF5FEDB68A002015E009EB800191ED000A40F27F31091A0AEB8101D1ED80
S32508007C40000A70EE200A9FED571A80EE810A30EE280AF0EE408A401CB0F5607FE6DBB1EE56
S32508007C600C0A28EE800A10EE101A0846F8F7A5FC41EC1C0B9FED4C1BB0EE4C0AF0EE6C0AAB
S32508007C80FDF7FCFFB0EE40BAF0EE60BA51EC1B0BF8F7D6FC08EE900A4548C0ED008AC0ED32
S32508007CA0008A90ED000A85ED0C0A1FEDD7AA002015E009EB800191ED000AC0F56071491E91
S32508007CC00AEB8101D1ED000A30EE200AF6EE000A20EE200A08EB800181ED000A401CB0F5FC
S32508007CE0607FE6DB4FF0000B7FE0002120E0A1F1400202EB0B00002802DA00F5607004E093
S32508007D00B0F5607F01DBA0F5607008EB800292ED000ADFED280A80EE201A07EB8B0292EDEE
S32508007D20000A31EE000A07EB8B0282ED000A491C8029DCDBBBF1800F49DA08EB8B00D0EDAC
S32508007D40000A07EB8B0090ED001A70EEC10AB1EE0C1A60EE810AB0EE600AFFF71DF820EE0F
S32508007D60290A0DA800EB8B0080ED000A0DA830F82B0005900DA800EB8B00408804901FFAE3
S32508007D808BF10220DDE90432F8F716FF00200190029003900DA800EB8B000DE09C16002077
S32508007DA0BC0B00200000E04400000060FB211940BC0600200000004390ED000A8DED010AA4
S32508007DC0032301AA0121102003F020FA00BF07EB8B00D0ED000A9FED5B1A80EE810A30EE4A
S32508007DE00A0AB0EE40AA0BF1010BBBF5607FFFF67CAF92990A689199D1F8FC1D501800EB26
S32508007E00D071491006910020059041E0DDE9050100EBE11BBBF17F0F01DDABF1800B0598BE
S32508007E20C0EBC00007EB800090ED000A30EE4A0ADFED450A20EE200ADFED440A80EE201A49
S32508007E40BDEEC10A10EE100A46F82B0056F82B004FF6FF7C0CEA204336F82B0082B21FFAE5
S32508007E608BF10320F8F7A8FE56F82B0000EE100AB8EEC00A8DED040A012304AA19461120E5
S32508007E8003F0C4F90A20FAF7C1FA0598401C059005988028BADB4FF40072314605F1340090
S32508007EA0F8F7DFF94FF4007231462948F8F7D9F910209FED261ADFED270AB0EE680A00F096
S32508007EC09EFC1FFA80FB00231A4659460420F8F773FE0A20FAF79AFA00231A46194605200A
S32508007EE0F8F76AFE00231A460121062003F08EF919480069009018480FC802F05DFA10B935
S32508007F00154802F051FA144802F0F2F9124802F0E7F9384600F0D6FC404600F0D3FC484641
S32508007F2000F0D0FC504600F0CDFC304600F0CAFC929800F0C7FC919800F0C4FC00BFFFF791
S32508007F401BBB00000000604400008046DB0FC940D80B002000000000BC0F002070B5F9F7DD
S32508007F606AF80024002514E0104890ED080AF3EE040AB4EEE00AF1EE10FA05DD681CC0B231
S32508007F800546142800DD06E00220FAF73FFA601CC4B2FA2CE8DB00BF012240210448FAF7E2
S32508007FA051FB00200349086070BD000028120020000402408800002010B50B490B4801F0C1
S32508007FC0E3FA09490948FFF7B3FA6420FAF71EFAC820FAF71BFAF9F738F800200449086000
S32508007FE001200449086010BD28120020D00F00208C0000208800002008B5334890ED0B0A59
S325080080003248D0ED000A30EE600ADFED310AB4EEE00AF1EE10FA18D8B1EE040A2A4880ED91
S32508008020290AB2EE000A80ED270A03F025FA2648D0ED0C0AB0EE600A264900F0A7F82348F3
S3250800804090ED000AFFF71AFA2BE01F4802F0B4FFF8F7FBFF012020498861FCF739FA4FF4A5
S3250800806080621E491E48F8F7FCF81E48006900901C480FC802F0A0F910B91A4802F094F991
S32508008080184802F035F9174802F02AF900F022FB0020154908600120144908600020144988
S325080080A0086013480068401C114908601149884209DD0020084988610D4908600A4908608C
S325080080C001200A49086008BD28120020A0000020DB0FC941DC140020BC0B0020BC0200200E
S325080080E0F0060020BC0F00208C00002088000020A4000020400D030010B588B004460120A1
S3250800810007901948007810B9012007900FE016480078012802D10220079008E0124800782C
S32508008120022804D10420079000200F4908700E480078401C0C4908702068C0F3036005905D
S325080081402088C0F30A00103001900020039004908DF8180007AB221D01A90448F9F772FCB2
S32508008160012008B010BD000000020020C415002030B50346184603E00C780444E0B2491CFE
S32508008180141EA2F10105EAB2F6D130BD70B52DED068B04460D46B0EE40AA94ED072AF0EE31
S325080081A0421A94ED062AB0EE421A94ED052AF0EE420A94ED0C2AB0EE420A04F14401081FCE
S325080081C000F0C6F994ED120AD4ED110A70EE600A94ED120A9FEDBE1A01EE600A84ED120ABA
S325080081E094ED080ADFEDBB0A20EE200ADFEDBA0A20EE200ADFEDB90A20EE200A84ED090A02
S32508008200B74890ED030A84ED0A0A94ED230AD4ED100A30EE600AB0EE408A94ED240AD4ED59
S32508008220110A30EE600AF0EE408A94ED1F0AD4ED1B0A00EE880A84ED130A94ED091AF0EEC5
S32508008240410A94ED131AB0EE410AFDF70AFDF0EE409A94ED090AB1EE400AF0EE400AB0EE38
S32508008260690AFDF7F1FC84ED130A94ED1B0AD4ED1C0A60EE200A94ED1F0A00EE880A84ED6E
S325080082801F0A94ED091AF0EE410A94ED1F1AB0EE410AFDF7E6FCF0EE409A94ED090AB1EE76
S325080082A0400AF0EE400AB0EE690AFDF7CDFC84ED1F0AD4ED090A60EEA00A94ED131AD4ED9B
S325080082C0131A41EE610AB0EE600AF8F76BFDB0EE409A94ED200AD4ED1B0A00EEA80A84ED50
S325080082E0140A94ED1B0AD4ED1C0A60EE200A94ED200A00EEA80A84ED200A94ED091AF0EEE5
S32508008300410A94ED201AB0EE410AFDF7AAFCF0EE409A94ED090AB1EE400AF0EE400AB0EECB
S32508008320690AFDF791FC84ED200AD4ED130A60EEA00A94ED141AD4ED141A41EE210AB0EE34
S32508008340600AF8F72FFD84ED2B0AD4ED140AB0EE600AF0EE490AFDF784FCF0EE409AF1EEC1
S32508008360490AFDF771FC84ED140AD4ED090AB0EE600A04F15001081F00F072FBD4ED141A17
S32508008380B0EE611AD4ED131AF0EE610AD4ED0C1AB0EE610A04F16802111F081FFFF71CF8CF
S325080083A094ED1A2AF0EE421A94ED192AB0EE421A94ED182AF0EE420A94ED092AB0EE420A67
S325080083C004F15C02111F081F02F0A0FF45480068E8B345480068C06A00EE100AB8EE400AAD
S325080083E0D4ED150AB7EE001A71EE600A20EE200ABCEEC00A10EE100A3C49C8633A480068A9
S32508008400C06A00EE100AB8EE400AD4ED160AB7EE001A71EE600A20EE200ABCEEC00A10EE19
S32508008420100A886330480068C06A00EE100AB8EE400AD4ED170AB7EE001A71EE600A20EEAF
S32508008440200ABCEEC00A10EE100A48633DE0FFE725480068C06A00EE100AB8EE400AD4EDF2
S32508008460150AB7EE001A71EE600A20EE200ABCEEC00A10EE100A1D49C8631B480068C06AFD
S3250800848000EE100AB8EE400AD4ED170AB7EE001A71EE600A20EE200ABCEEC00A10EE100AA8
S325080084A0886311480068C06A00EE100AB8EE400AD4ED160AB7EE001A71EE600A20EE200A3F
S325080084C0BCEEC00A10EE100A4863BDEC068B70BDCDCC4C3D3333933F3333733F3ACD133F25
S325080084E0BC060020BC0B00209C1600200000014000BFEFF31081084672B6704700BF80F301
S32508008500108800BF7047000030B502460B460020002108E0545C84EA1064044D55F8244004
S3250800852084EA0020491C9942F4D330BD04C8000808B5014608788DF8030048788DF8020084
S3250800854088788DF80100C8788DF80000009808BD70B52DED068BF0EE40AAB0EE609AF0EE57
S32508008560419AB0EE61AA04460D46B0EE6A0AF8F777FDB0EE408AB0EE6A0AF8F77FFDF0EE94
S32508008580408A9FED1E0A28EE800AF6EE000A00EEC80A20EE290A08EE090ADFED190A68EE72
S325080085A0A00AB6EE001A41EE480A00EE8A0ADFED150A20EE200A84ED000A9FED110A68EEA7
S325080085C0000AB6EE000A40EE680AB1EE680A20EE090A00EEE90ADFED090A68EE200AB6EE1F
S325080085E0001A41EE680A00EECA0ADFED060A20EE200A85ED000ABDEC068B70BDD7B35D3FD3
S32508008600D7B35DBFABAA2A3F10B5F8F71EFD002240210348FAF716F800200249086010BDAC
S32508008620000402408800002010B5F8F704FD0C4802F0C2FC0120F9F7E9FE9FED0A0A08489D
S3250800864080ED230A9FED070A80ED240A012240210548F9F7F7FF00200449086010BD0000E1
S325080086602812002000000000000402408800002010B5F8F7BDFCF120F8F714FC02212820BC
S32508008680F8F716FC092804D0F8F780FC4FF0FF3010BDF8F77BFC074C07E02068B0F1FF3F19
S325080086A002D06FF00100F3E7241D03488442F4D30020EDE7000002080000040882B0CDE995
S325080086C0000121F0004001909DED000B02B051EC100B704710B52DED028B02F067FDB0EEF3
S325080086E0408A002016E00E4901EB800191ED000AB4EEC80AF1EE10FA0BD20A4A1080128888
S32508008700511CCA1701EB12621212A1EB0222064B1A80401CFF28E6DDBDEC028B10BD000095
S32508008720BC0200206C0100206E0100200FB50549029851F82000042101FB030090ED000A71
S325080087400FBD0000EC0000200FB50449029851F8200050F8230004B000BD0000EC00002037
S3250800876010B50446F8F712FC0020207010BD0000072900D907218160034A52F821204260D6
S325080087800022027070470000EC00002010B50446F8F72EFCF120F8F785FB054AA16852F82A
S325080087A021000221F8F784FB0120207010BD00000C0100201FB52DED020B2DED028B82B07A
S325080087C01C46B0EE408A8DED018A0423079A03FB04200199F8F7E4FB02B0BDEC028B06B0CC
S325080087E010BD3FB581B01C46089D00950423029A03FB04200099F8F7D3FB05B030BD0146B9
S3250800880071EE602AF0EE621AB0EE602A30EE423A01208840401E02EE900AF8EEE22A63EE31
S32508008820222A82EEA13AFDEEC32A12EE900A7047F0EE401AF4EEE01AF1EE10FA0ADDF4EEA4
S32508008840C11AF1EE10FA02DDB0EE610A7047B0EE410AFBE7F4EEC10AF1EE10FA02DDB0EEC9
S32508008860600AF3E7B0EE410AF0E7F0EE401AF4EEE01AF1EE10FA0AD2F4EEC11AF1EE10FA67
S3250800888002D2B0EE610A7047B0EE410AFBE7F4EEC10AF1EE10FA02D2B0EE600AF3E7B0EE81
S325080088A0410AF0E738B504460D46E0B200900223012269460248FBF75AFD204638BD0000F7
S325080088C07417002010B5002821D0114B0022001F196803E0814203D80A4649680029F9D16E
S325080088E052B11368841A9C4204D1006818441060104602E0506000E0186039B102680B1AAE
S32508008900934203D10B681A4402604968416010BD1802002010B503460C46A018411EC817BE
S3250800892001EB5060C011A1EBC010185C10BD0246481D00F07F00135C881D00F07F00105C14
S3250800894043EA0023C81D00F07F00105C43EA004301F1080000F07F00105C43EA006080B2F5
S325080089607047024601F1090000F07F00105C70479FED170A80ED1C0A164991ED020ADFED68
S32508008980160A20EE200A80ED1B0A91ED020ADFED130A20EE200AF0EE000A60EE200A9FED48
S325080089A0101AB7EE000A00EEC10AF7EE000A80EE801AB7EE000A30EE410A80ED1E0A90EDF6
S325080089C01C0ADFED080A20EE200A80ED1D0A70479B551F3DBC060020C7BC8E3A17B7D137B3
S325080089E0DB0F4940CDCCCC3D70B5194802F0E4FAF8F721FB0024002514E0154890ED080ACA
S32508008A00F3EE040AB4EEE00AF1EE10FA05DD681CC0B20546142800DD06E00220F9F7F6FCBE
S32508008A20601CC4B2FA2CE8DB00BF0120F9F7EEFC012240210748F9F705FE002006490860F6
S32508008A40034890ED0B0A054880ED000A70BD0000281200200004024088000020A000002032
S32508008A6030B505460C46F0EE401AD5ED000A60EEA00A94ED001AD4ED002A41EE220AB0EEEB
S32508008A80600AF8F78FF9B0EE402AB4EEE12AF1EE10FA0FDD95ED000A20EE210AC0EE020ADE
S32508008AA0C5ED000A94ED000A20EE210AC0EE020AC4ED000A30BD0000F0EE400AFD48FE4912
S32508008AC0098800EB8100D0ED001AF4EEE01AF1EE10FA37D8F748F949098800EB8100D0EDA5
S32508008AE0001AF4EEE01AF1EE10FA2BDBF148F349098800EB8100D0ED001AEE48EE4909883C
S32508008B0000EB810090ED002A71EEC21A9FEDEC2A82EE211AE948008801EE900AF8EE611A09
S32508008B209FEDE72A61EE821AE248E449098800EB810090ED002A30EEC22AB0EE610A01EEA2
S32508008B40020A05E2DD4A1188CA1701EB12621212A1EB0222D74B03EB8202D2ED001AF4EEF0
S32508008B60E01AF1EE10FA52D8D44A1288501CC21700EB12621212A0EB022203EB8202D2ED7A
S32508008B80001AF4EEE01AF1EE10FA40DBCB490888C11700EB11610912A0EB0121C64A11808B
S32508008BA011460988481CC11700EB11610912A0EB0121C24A118018461146098800EB81000F
S32508008BC0D0ED001A1846BC49098800EB810090ED002A71EEC21A9FEDBA2A82EE211A1046FD
S32508008BE0008801EE900AF8EE611A9FEDB52A61EE821A18461146098800EB810090ED002A46
S32508008C0030EEC22AB0EE610A01EE020AA0E1AB4A1288511CCA1701EB12621212A1EB0222A6
S32508008C20A44B03EB8202D2ED001AF4EEE01AF1EE10FA53D8A14A1288901CC21700EB126293
S32508008C401212A0EB022203EB8202D2ED001AF4EEE01AF1EE10FA41DB98490988481CC11759
S32508008C6000EB11610912A0EB0121934A118011460988481CC11700EB11610912A0EB01210A
S32508008C808E4A118018461146098800EB8100D0ED001A18468849098800EB810090ED002A01
S32508008CA071EEC21A9FED862A82EE211A1046008801EE900AF8EE611A9FED812A61EE821A9A
S32508008CC018461146098800EB810090ED002A30EEC22AB0EE610A01EE020A39E176480088BF
S32508008CE0401E002803D574480088FF3002E072480088401E6F4901EB8000D0ED001AF4EE36
S32508008D00E01AF1EE10FA4FD808466B49098800EB8100D0ED001AF4EEE01AF1EE10FA43DB82
S32508008D2065480088401E002803D563480088FF3002E061480088401E5F4908800988481C9A
S32508008D40C11700EB11610912A0EB01215B4A118058481146098800EB8100D0ED001A55486A
S32508008D605549098800EB810090ED002A71EEC21A9FED532A82EE211A1046008801EE900A4D
S32508008D80F8EE611A9FED4E2A61EE821A49481146098800EB810090ED002A30EEC22AB0EE41
S32508008DA0610A01EE020AD3E043480088801E002803D541480088FE3002E03F480088801E0D
S32508008DC03C4901EB8000D0ED001AF4EEE01AF1EE10FA59D838480088401E002803D53648E3
S32508008DE00088FF3002E034480088401E314901EB8000D0ED001AF4EEE01AF1EE10FA43DBCA
S32508008E002D480088801E002803D52B480088FE3002E029480088801E274908800988481C1A
S32508008E20C11700EB11610912A0EB0121234A118020481146098800EB8100D0ED001A1D4831
S32508008E401D49098800EB810090ED002A71EEC21A9FED1B2A82EE211A1046008801EE900ADC
S32508008E60F8EE611A9FED162A61EE821A11481146098800EB810090ED002A30EEC22AB0EED0
S32508008E80610A01EE020A63E0FF200B49088000200A4908800748098800EB8100D0ED001A02
S32508008EA0F4EEE01AF1EE10FA30DB0248D0ED001A08E00000BC0200206C0100206E010020D1
S32508008EC00000B43F9FED3D2A71EE821A3C49098800EB810090ED002A71EEC21A1FED082A01
S32508008EE082EE211ADFED351A70EEA11A35483449098800EB810090ED002A31EEC22ADFED10
S32508008F002F1AB0EE610A01EE020A21E02D48D0ED001A9FED2A2A71EE821A2949098800EBE0
S32508008F20810090ED002A71EEC21A1FED1B2A82EE211A24482249098800EB8100D0ED001A19
S32508008F4030EEE12ADFED1D1AB0EE610A01EE020ADFED1A1AB4EEE10AF1EE10FA05DDDFEDAF
S32508008F60171A70EE611AB0EE610AB5EEC00AF1EE10FA05D2DFED111A70EE211AB0EE610A0A
S32508008F80DFED111A60EE211A9FED0C2AC1EE822A0E48D0ED0C1A72EEE11AB0EE610ADFEDBD
S32508008FA00C1AB4EEE10AF1EE10FA05DDDFED061A70EE611AB0EE610A704700000000B443A9
S32508008FC06C010020BC020020DB0FC940BC060020DB0F49402DED028B82B0F9F74BFBFBF7CF
S32508008FE0FDFEFBF7E5FBFBF78BFDFBF79BFCFBF7BBFBFBF773FCFBF7CFFAFBF725FBFBF7CB
S325080090007BFBFBF757FDFBF71FFDFBF741FC0621FE4801F097F9FD4800690090FB480FC803
S3250800902001F09AF9FA4890ED000A10EE101A0846FCF7DDFD20B19FEDF70AF54880ED000A80
S32508009040F34890ED010A10EE101A0846FCF7CFFD20B19FEDF00AEE4880ED010AEC4890ED54
S32508009060020A10EE101A0846FCF7C1FD80B9E84890ED020AFFEE000AB4EE600AF1EE10FAD1
S3250800908006D090ED020AB5EEC00AF1EE10FA04D19FEDE10ADE4880ED020ADD4890ED030A73
S325080090A010EE101A0846FCF7A2FD80B9D84890ED030AFFEE000AB4EE600AF1EE10FA06D0F5
S325080090C090ED030AB5EEC00AF1EE10FA04D1B3EE0C0ACF4880ED030ACD4890ED060A10EEE5
S325080090E0101A0846FCF783FD48B9C94890ED060AFFEE000AB4EE600AF1EE10FA04D1B2EE77
S32508009100040AC34880ED060AC44890ED010AB8EEC00A10EE101A0846FCF769FD18B9BF4800
S325080091204068401C10B90120BC494860BB4890ED020AB8EEC00A10EE101A0846FCF757FDCD
S3250800914018B9B6488068401C10B90020B3498860B24890ED030AB8EEC00A10EE101A0846B7
S32508009160FCF745FD18B9AD48C068401C10B90020AA49C860A64890ED070A10EE101A08466C
S32508009180FCF735FD48B9A24890ED070AFFEE000AB4EE600AF1EE10FA04D1B7EE000A9C48CF
S325080091A080ED070A9D4890ED060AB8EEC00A10EE101A0846FCF71BFD18B998488069401CCA
S325080091C010B9002095498861914890ED0C0A10EE101A0846FCF70BFD48B98D4890ED0C0A8B
S325080091E0FFEE000AB4EE600AF1EE10FA04D19FED890A874880ED0C0A854890ED080A10EED5
S32508009200101A0846FCF7F3FC48B9814890ED080AFFEE000AB4EE600AF1EE10FA04D1B3EE2B
S325080092200C0A7B4880ED080A794890ED090A10EE101A0846FCF7DBFC48B9754890ED090AE9
S32508009240FFEE000AB4EE600AF1EE10FA04D19FED720A6F4880ED090A6D4890ED0A0A10EEBC
S32508009260101A0846FCF7C3FC48B9694890ED0A0AFFEE000AB4EE600AF1EE10FA04D19FED26
S32508009280660A634880ED0A0A614890ED0B0A10EE101A0846FCF7ABFC48B95D4890ED0B0AA1
S325080092A0FFEE000AB4EE600AF1EE10FA04D19FED5C0A574880ED0B0A554890ED070AF3EEC0
S325080092C00E0AB4EEE00AF1EE10FA01DD002400E0802413E053480068401C524908600A20EE
S325080092E0F9F780F84F480068642807DD4E48008820F0400040304C49088011E0D721022083
S3250800930002F0ACF9D728E5D10221032002F0A6F90228DFD12146092002F0A0F9A042D9D19B
S3250800932000BF0A20F9F75EF84FF48062384934313E48F6F796FF4FF4007238491C313C48D6
S32508009340F6F78FFF3B48FFF713FB64213848343801F01EFB2E4890ED010A3548343880ED2E
S325080093600B0A2B4890ED000A3148343880ED0C0A07202F49343988622B480088C0F3801034
S3250800938010BB2648806901281ED19FED2B0A084601F024F9FFF79EF90A20F9F723F801F0B5
S325080093A005FFB0EE408AB0EE480AFFF785FBF0EE408AB0EE680AF7F797FEBDEEC00A1C48B9
S325080093C0343880ED090A00BF1C48F8F71FF81C48F8F71CF80025002654E01A48F8F78CFAAD
S325080093E01848F8F775F913498860084690ED020AB8EEC00ADFED140A20EE200AB0EE408A8D
S3250800940090ED080AD0ED080A20E00000BC0F0020BC060020000000000000C842BC0B002022
S325080094200000FA42B401002090000020BC020020041000202812002017B7D137EC140020FB
S32508009440341500207C15002027A7113D70EEC80A9FED2B1A01EE600A80ED080A90ED080A60
S32508009460DFED280AB4EEE00AF1EE10FA05DD701CC0B206463C2800DD06E00120F8F7B2FF57
S32508009480681CC5B2FA2DA8DB00BF1F48FAF712FA00211D48FAF7D8FC00211B48FAF7B2F88C
S325080094A004211948FAF7D0FC04211748FAF7AAF808211548FAF7C8FC08211348FAF7A2F8FA
S325080094C0F7F7B9FD0120F8F78DFF1049081F02F029F9F7F7BAFD0D48883801F06DFDF7F7A7
S325080094E047FB0B48F8F7DDFE0A48FAF7E3F901200949086001F060F801E0FBF725F8FCE7E9
S325080095000AD7233C000070429C160020B0120020C4150020E416002088000020F0B50B30FC
S32508009520154D20F007010024144A0FE003688B420BD38B4205D95E1A43184768C3E90067DC
S3250800954000E04368136002C004E0021D10680028ECD12046002802D1286808B10020F0BD66
S32508009560064A07481060074A121A22F00702C0E9002401202860D7E71C020020180200208A
S32508009580BC170020B817012070B52DED068B88B005460C4600231A4619461846F7F70CFB00
S325080095A09FEDB00AB0EE408A9FEDAE0AF0EE409A9FEDAD0AB0EE40AA9FEDAA0AF0EE40AA20
S325080095C09FEDA80A8DED050AB6EE000A8DED020A05AA06A907A8B0EE6A1AF0EE4A0AB0EE83
S325080095E0480AFDF7F9FE02AA03A904A8DDED051A9DED061ADDED070AB7EE000A01F086FE8A
S32508009600002648E099480068C06A400800EE100AB8EE400ADDED040AB7EE001A71EE600ADB
S3250800962020EE200ABCEEC00A10EE100A8F490968C8638E480068C06A400800EE100AB8EE86
S32508009640400ADDED030AB7EE001A71EE600A20EE200ABCEEC00A10EE100A84490968886366
S3250800966082480068C06A400800EE100AB8EE400ADDED020AB7EE001A71EE600A20EE200AAA
S32508009680BCEEC00A10EE100A7849096848636420F8F7CAFE761C44F620608642B2DB9FEDEB
S325080096A0740A284600F09AFF0120F8F7AFFED4F884102068401A00EE100AB8EEC00ADFEDE4
S325080096C06D0A20EE200A84ED050AD4F888106068401A00EE100AB8EEC00ADFED660A20EE05
S325080096E0200A84ED060A94ED050AB1EE400AD4ED060A30EE600A84ED070A94ED072AF0EECD
S32508009700421A94ED062AB0EE421A94ED052AF0EE420A94ED0C2AB0EE420A04F14401081F58
S32508009720FEF716FF75E005AA06A907A8B0EE6A1AF0EE4A0AB0EE480AFDF74EFE02AA03A9D3
S3250800974004A8DDED051A9DED061ADDED070AB7EE000A01F0DBFD6420F8F766FE434800689F
S32508009760C06A400800EE100AB8EE400ADDED040AB7EE001A71EE600A20EE200ABCEEC00A65
S3250800978010EE100A39490968C86338480068C06A400800EE100AB8EE400ADDED030AB7EEB7
S325080097A0001A71EE600A20EE200ABCEEC00A10EE100A2E49096888632C480068C06A4008D3
S325080097C000EE100AB8EE400ADDED020AB7EE001A71EE600A20EE200ABCEEC00A10EE100A61
S325080097E02249096848639FED220A284600F0F6FE95ED060AF0EE409AB5EEC08AF1EE10FAAA
S3250800980001D1F0EE698A9FED1C0A38EE000AB0EE408A9FED1A0AB4EEC08AF1EE10FA82D373
S3250800982095ED069A39EE680AB5EEC00AF1EE10FA01DD012000E000200190012301AA19464B
S32508009840092001F0E3FC0E4901980860019881B200231A460120F7F7AFF908B0BDEC068BB1
S3250800986070BD0000000000009A99193E9C16002017B7D1370000A53C6F12833ADB0F4941E8
S32508009880BC0B00202DE9F0432DED068B83B00446B0EE40AAB0EE608AF0EE418AB0EE619A10
S325080098A0F0EE429A14209FED331ADFED330AB0EE4A0AFEF7A4FF074614209FED2E1ADFED1F
S325080098C02E0AB0EE480AFEF79AFF804610209FED2B1ADFED2B0AB0EE680AFEF790FF8146A1
S325080098E007209FED281AFBEE040AB0EE490AFEF786FF054607209FED231AFBEE040AB0EE33
S32508009900690AFEF77CFF0646019867F313000190DDF8050068F31F30CDF805001FFA89F093
S32508009920ADF80900184801789DF80B0061F300008DF80B001448007848B99DF80B0065F341
S3250800994047008DF80B0001200F49087008E09DF80B0066F347008DF80B0000200A4908708E
S32508009960019820600298606003B0BDEC068BBDE8F083000000002042000020C20000884253
S32508009980000088C200004843010200202DE9F0472DED028B82B004464FF0000A207800F080
S325080099A01F05FB484068A84205D025B102B0BDEC028BBDE8F0872088C0F345101D287CD2AE
S325080099C0DFE800F07B0F25436298CAFDFCFBFAF9F8F7F6F5F4F3F2F1F0EFEEEDECEBEAE91D
S325080099E0E8002068000E88B90020EA4908600120E9490860211D002001F087FD206820F0B9
S32508009A007F4000F1807020604FF0010A1DE22068000EC8B9E148008820B1211D012001F0E6
S32508009A2074FD09E00220DB4908600120DA490860211D002001F069FD206820F07F4000F167
S32508009A40807020604FF0010AE0E72068000ED0B9D248008860B1211D012001F056FD20687A
S32508009A6020F07F4000F1807020604FF0010A0AE00120C8490860C8490860206820F07F400A
S32508009A8020604FF0000AC1E708212068B1EB106F2FD1C349201D01F059FDC148D0ED122AE9
S32508009AA09FEDC03A62EE832ABF4890ED073A62EE832AB0EE621ABA4800E0FAE3D0ED032A90
S32508009AC0B0EE622AD0ED042AF0EE621AD0ED0D2AF0EE620AD0ED0B2AB0EE620A201DFFF79C
S32508009AE0D1FE206820F07F4000F1006020604FF0010AE0E32068000E68BB211D002001F04C
S32508009B0004FD206820F07F4000F1807020602046FEF7F2FA6420F8F787FC00BF00BF00BF04
S32508009B2000BF00BFBFF34F8F00BF00BF00BF9F48006800F4E0609E490843001D9B490860AE
S32508009B4000BF00BF00BFBFF34F8F00BF00BF00BF00BF00BFFDE7AEE32068000E002870D1FB
S32508009B608C48006860BBFBF7CFFFF7F7B7FA8E4880ED010A8F48006900908E480FC800F066
S32508009B801BFC10B98B4800F00FFC8A4800F0B0FB884816E07BE309E3DCE2BDE27FE26DE27F
S32508009BA058E251E226E20CE2F7E1DDE1B4E191E16EE14BE128E105E1C8E0B2E082E053E05E
S32508009BC00DE000F08DFB7B480069009079480FC800F0C2FB211D002001F097FC3BE06D485F
S32508009BE00068022833D1744890ED040AF6EE000AB4EEE00AF1EE10FA24D2FBF785FFF7F7BD
S32508009C006DFA694880ED010A6A480069009069480FC800F0D1FB10B9664800F0C5FB6548E3
S32508009C2000F066FB634800F05BFB62480069009060480FC800F090FB211D002001F065FC87
S32508009C4009E010E0211D012001F05FFC03E0211D012001F05AFC206820F07F4000F18070B1
S32508009C6020604FF0010A26E302212068B1EB106F27D16079217940EA01261021DFED4F0A2B
S32508009C809FED4F0A304601F046FC474880ED070AD0ED070AB0EE600A10209FED481ADFED5B
S32508009CA0480AFEF7ACFD0646B0B2211D01F024FC206820F07F4000F1007020604FF0010A27
S32508009CC000BFF8E201212068B1EB106F28D120792F494860F6F74CFF36480069009035483A
S32508009CE00FC800F069FB10B9324800F05DFB314800F0FEFA2F4800F0F3FA2E48006900907C
S32508009D002C480FC800F028FB211D002001F0FDFB206820F07F4000F1807020604FF0010A8E
S32508009D20C9E201212068B1EB106F0ED120791849C860211D002001F0E8FB206820F07F401B
S32508009D4000F1807020604FF0010AB4E202212068B1EB106F1AD16079217940EA012008EE4F
S32508009D60100AB8EEC80A104880ED020A0C48FEF7FFFD211D002001F0C8FB206820F07F40C4
S32508009D8000F1807020604FF0010A00BF93E20000BC0B00208C0000208800002090000020EB
S32508009DA028120020802B993DBC0600200CED00E00000FA05BC0F0020D00F0020000048428C
S32508009DC00000000002212068B1EB106F1BD16079217940EA01261021DFEDFE0A1FED080ADC
S32508009DE0304601F098FBFC4880ED030A211D002001F08BFB206820F07F4000F18070206010
S32508009E004FF0010A00BF56E202212068B1EB106F1BD16079217940EA01261021DFEDEF0A87
S32508009E201FED190A304601F076FBEB4880ED080A211D002001F069FB206820F07F4000F160
S32508009E40807020604FF0010A00BF34E202212068B1EB106F1BD16079217940EA01261021BE
S32508009E60DFEDDE0A1FED2A0A304601F054FBDA4880ED090A211D002001F047FB206820F05F
S32508009E807F4000F1807020604FF0010A00BF12E202212068B1EB106F1BD16079217940EA48
S32508009EA001261021DFEDCE0A1FED3B0A304601F032FBC94880ED0A0A211D002001F025FBB2
S32508009EC0206820F07F4000F1807020604FF0010A00BFF0E102212068B1EB106F1BD1607957
S32508009EE0217940EA01261021DFEDBD0A1FED4C0A304601F010FBB84880ED0B0A211D0020F1
S32508009F0001F003FB206820F07F4000F1807020604FF0010A00BFCEE12068000E18BBB14872
S32508009F2000690090AF480FC800F046FA10B9AD4800F03AFAAB4800F0DBF9AA4800F0D0F9D8
S32508009F40A84800690090A7480FC800F005FA211D002001F0DAFA206820F07F4000F18070FA
S32508009F6020604FF0010AA6E12068000EA0B99E48008800209C4908809C48008800209B4928
S32508009F800880211D01F0C1FA206820F07F4000F1807020604FF0010A8DE12068000E78B90A
S32508009FA0F6F770FF0646B0B2211D01F0AEFA206820F07F4000F1807020604FF0010A00BFF1
S32508009FC079E108212068B1EB106F12D12068010E201DF6F73BFF0646B0B2211D01F095FA03
S32508009FE0206820F07F4000F1807020604FF0010A00BF60E108212068B1EB106F23D104F19C
S3250800A0000800FEF795FA0746201DFEF791FA80463946F6F7E7FE064601969DF80400207178
S3250800A0209DF8050060719DF80600A0719DF80700E07100BF206820F07F4000F18070206097
S3250800A0404FF0010A00BF36E12068000E08B9F6F7E1FE30E12068000E78B9211D292001F05F
S3250800A0604BFAA11D592001F047FA206820F07F4000F1806020604FF0010A1CE12068000E9F
S3250800A08060B959490888211D01F036FA206820F07F4000F1007020604FF0010A0BE1206812
S3250800A0A0000EC0BB4C48D0ED070AB0EE600A10201FEDBE1A5FEDBE0AFEF7A1FB0646300A60
S3250800A0C0207166714A480179A171017BE171424890ED020ABDEEC00A10EE107A390A217238
S3250800A0E06772D0ED030AB0EE600A10209FED391A5FEDCD0AFEF783FB80464FEA1821A172B7
S3250800A10084F80B80206820F07F4000F1006020604FF0010A00BFCEE02068000EC8B93248BA
S3250800A120008820B1211D012001F0EFF909E0032030490860012030490860211D002001F042
S3250800A140E4F9206820F07F4000F1807020604FF0010AB0E02068000E38BB022027490870EF
S3250800A160B0EE080A264880ED290AB2EE0E0A80ED270A244890ED000AB0EE408A10209FEDA6
S3250800A180221A5FEDF10AB0EE480AFEF738FB0646B0B2211D01F0B0F9206820F07F4000F148
S3250800A1A0007020604FF0010A00BF84E02068000E70BB0948D0ED080AB0EE600A10209FED8F
S3250800A1C0071ADFED120AFEF71AFB0646300A207166711EE000002042BC0600200000C84224
S3250800A1E000004843BC0F00209000002092000020BC0B00208C00002088000020F801002025
S3250800A20028120020FC010020DB0FC940000000003CE03048D0ED090AB0EE600A10201FED1E
S3250800A220111A5FED060AFEF7EAFA0746390AA171E7712848D0ED0A0AB0EE600A10201FED31
S3250800A240181A5FED0E0AFEF7DAFA80464FEA1821217284F809801F48D0ED0B0AB0EE600A80
S3250800A26010201FED211A5FED170AFEF7C8FA81464FEA1921A17284F80B90206820F07F407A
S3250800A28000F1006020604FF0010A00BF13E02068000E68B90020104908701FED240A0F48AA
S3250800A2A080ED290A1FED270A80ED270A4FF0000A01E0FFE700BF00BF00200849C1F89400C9
S3250800A2C0BAF1000F02D02046FDF716FF00BFFFF76DBB0000BC060020F80100202812002043
S3250800A2E010B50446002020742046FEF739FA10BD38B50546002409E0104850F824002346C0
S3250800A300009095E80700FEF76CFA641CFF2CF3DD0EE0A4F580700A4901EB8000D0ED000A48
S3250800A320B0EE600A234695E80700FEF743FA641CB4F5107FEDDB0020287438BDBC0B0020D0
S3250800A340BC06002070B504460D4629462046FEF70FFAE56070BD00000FB410B5002408E072
S3250800A360234602A807C8FEF7EFF90D4941F82400641CFF2CF4DD0CE0234602A807C8FEF71E
S3250800A380D5F9A4F58070074901EB800080ED000A641CB4F5107FEFDB10BC5DF814FB000073
S3250800A3A0BC0B0020BC06002010B504462046FEF7EDF90120207410BD0FB49DF8100004B0D8
S3250800A3C07047000038B505460C460A490094CA882B460868802100F0CCFD0649C9880819F9
S3250800A3E0C11700EB5161C911A0EBC111014AD18038BD0000240200202DE9F04706460F46DE
S3250800A4004FF0FF0A00244FF0FF38A1466949CB888A880889802100F09BFD84B2092C02DA4D
S3250800A4205046BDE8F0876348408940BB61498A8823460868802100F051FD0FFA80F8B8F14F
S3250800A440000F0EDB01205B494881A1F80480CB888A880889802100F07BFD09280FDA50469C
S3250800A460DFE7544989882144C81EC11700EB5161C911A0EBC1114F4A91805046D1E74D48D6
S3250800A480008960B94B4A91881068FEF750FA4949088108460089A04201DD5046C1E745482A
S3250800A4A00089444989880844401E80281CDD41480068404B9B88C1183E488088C0F18000E5
S3250800A4C0C2B24846FDF754FE81463A48007A401E384B1B7918448038C2B2364801684846F1
S3250800A4E0FDF746FE81460CE032480068314B9B88C1183048007A401EC2B24846FDF738FE8D
S3250800A50081462C4B1A8999881868FEF703FA48453ED128488088274909890844802816DDBC
S3250800A52024488088C0F1800085B222480068214A928881182A463046F5F793FE1D4B1B89D2
S3250800A5405A1B1C4B70191968F5F78BFE09E019480068184B9B88C118164802893046F5F736
S3250800A56080FE144800893880124A91881068FEF7F8F982460F4989880E4A12898818C11743
S3250800A58000EB5161C911A0EBC1110A4A91800AE008498988481CC11700EB5161C911A0EBEA
S3250800A5A0C111044A91800020024908814881504637E700002402002010B506480021016010
S3250800A5C041608160044803490860FAF745FB002010BD000024020020300200202DE9F047E8
S3250800A5E02DED0E8B82B00446F0EE409A4FF6FF70206000224FF40041D848F8F723F86420DE
S3250800A6000123221D21460090D548F8F735FE00BFD34890F851000228FAD00122D103CF48DE
S3250800A620F8F710F8A088C0F30D00E061E069C11104F1340050F821600122E16902EBE11094
S3250800A640C11700EB5161C911A0EBC11204F1340151F82270E069C111A0EBC110B91B484364
S3250800A66006EBE018E0694044C4F8340204F50D7003C8451AD4F83402C4F838024FF0000944
S3250800A680B5F5005F02DD4FF0FF3904E015F5005F01DA4FF00109206A4844206294F8540262
S3250800A6A020B900202062012084F8540294ED8F0AD4ED900A9FEDAB1A01EE200A84ED8F0A35
S3250800A6C0D4F8341294ED8F0ABDEEC00A10EE100A081A00EE100AB8EEC08A05E09FEDA20A7C
S3250800A6E038EE400AB0EE408A9FEDA00AB4EEC08AF1EE10FAF2DC05E09FED9B0A38EE000A55
S3250800A700B0EE408A9FED9A0AB4EEC08AF1EE10FAF2D394ED8F0AD4ED910A9FED921A60EEFD
S3250800A720810A00EE880A84ED8F0A07E094ED8F0ADFED8D0A30EE600A84ED8F0A94ED8F0AE6
S3250800A740DFED890AB4EEE00AF1EE10FAEEDC07E094ED8F0ADFED840A30EE200A84ED8F0AA0
S3250800A76094ED8F0AB5EEC00AF1EE10FAF0D394ED900AD4ED920A9FED7B1A60EE810A00EE38
S3250800A780880A84ED900A4FF0000A94ED900AB5EEC00AF1EE10FA02DD94ED900A03E094EDF6
S3250800A7A0900AB1EE400AD4ED940AB4EEE00AF1EE10FA05D29FED6F0A84ED900A4FF0010A03
S3250800A7C0BAF1000F04D0B6EE000A84ED930A2FE0002D04DD9FED670A84ED930A28E0002DC4
S3250800A7E004DAB7EE000A84ED930A21E094ED930AD4ED900A9FED5B1A01EE200A84ED930A0E
S3250800A80094ED930AF7EE000AB4EEE00AF1EE10FA03DDB7EE000A84ED930A94ED930AB5EE4A
S3250800A820C00AF1EE10FA03D29FED520A84ED930A94ED8D0AB8EEC00AD4ED930A70EE208A9E
S3250800A84094ED8D0AB8EEC09A9FED4B0A29EE000ADFED450A80EE201A84ED021AD4E90801BA
S3250800A860084400EE100AF8EEC00A94ED020A9FED421A01EE200AD4ED0B0A30EE600A84ED69
S3250800A880060AD4ED900A9FED381A80EE810AD4ED040A70EEC00A94ED040A9FED381A01EE15
S3250800A8A0600A84ED040A94ED0C0A10EE101A0846F5F783FE41EC1B0B94ED0A0AB8EEC00ACF
S3250800A8C020EE280A10EE101A0846F5F776FE41EC1E0B9FED2B1BB0EE4E0AF0EE6E0AFBF7EE
S3250800A8E0CDF9B0EE40DAF0EE60DA9FED270B53EC102B51EC1D0BF5F77FFD41EC1C0B53EC1C
S3250800A9001B2BF5F7D2FC41EC1A0BF5F799FEE06094ED030AB5EEC00AF1EE10FA07D294EDD6
S3250800A920030ADFED150A30EE200A84ED030A94ED030ADFED110AB4EEE00AF1EE10FA07DD7D
S3250800A94094ED030ADFED0C0A30EE600A84ED030A02B0BDEC0E8BBDE8F08700000000024021
S3250800A9604416002017B7D1370000804600000046000000C600000000DB0FC940ABAAAA3E77
S3250800A980000000000000D04000000060FB21393FF0B52DED028B81B004460E4600271CE067
S3250800A9A04FF6FF70206000224FF400411E48F7F749FE64200123221D214600901B48F8F7E4
S3250800A9C05BFC00BF194890F851000228FAD00122D1031548F7F736FE7F1CB742E0DB4FF41D
S3250800A9E0FA6500EE105AB8EEC08AB0EE000A28EE000A84ED910A94ED910AF5EE000A20EEB7
S3250800AA00200AD4ED910A20EE200A84ED920A94ED920ADFED070A20EE200A84ED940A01B06B
S3250800AA20BDEC028BF0BD0000000002404416002017B751372DE9F0432DED088BA7B00020A6
S3250800AA4006904FF0FF0906A907A8FFF7D5FC81464846B9F1160F7DD008DCA0F110000628C2
S3250800AA6079D2DFE800F018B1FEFDFCFB202873D006DC172871D0182870D019286BD1E6E15A
S3250800AA8021286CD0FF28F9D14FF0FF3027B0BDEC088BBDE8F08307A8407B4FF07F4101EA45
S3250800AAA0006007A9097B4FF47F0202EA0141084307A9C97A121202EA0121084307A9897A94
S3250800AAC040EA010407A8407C110401EA006007A9097C120202EA0141084307A9C97B121294
S3250800AAE002EA0121084307A9897B40EA010507A8407D110401EA006007A9097D120202EA09
S3250800AB000141084307A9C97C121202EA0121084307A9897C40EA010607A8407E110401EAD5
S3250800AB20006007A9097E120202EA0141084307A9C97D121202EA0121084307A9897D40EA90
S3250800AB40010707A8407F110401EA006007A9097F120205E01DE1A1E185E13BE153E193E136
S3250800AB6002EA0141084307A9C97E121202EA0121084307A9897E40EA010800EE104AB0EE0A
S3250800AB80408A00EE105AF0EE408A00EE106AB0EE409A00EE107AF0EE409A00EE108AB0EEA7
S3250800ABA040AAB0EE4A2AF0EE691AB0EE491AF0EE680AB0EE480A00F063FBBB48007810B957
S3250800ABC00120B94908706CE107A8407B4FF07F4101EA006007A9097B4FF47F0202EA0141A5
S3250800ABE0084307A9C97A121202EA0121084307A9897A40EA010407A8407C110401EA0060DF
S3250800AC0007A9097C120202EA0141084307A9C97B121202EA0121084307A9897B084308EEFE
S3250800AC20100A07A8407D110401EA006007A9097D120202EA0141084307A9C97C121202EA58
S3250800AC400121084307A9897C40EA010507A8407E110401EA006007A9097E03E08DE083E0DD
S3250800AC6073E065E0120202EA0141084307A9C97D121202EA0121084307A9897D084308EE37
S3250800AC80900A07A8407F110401EA006007A9097F120202EA0141084307A9C97E121202EA72
S3250800ACA00121084307A9897E40EA010600EE104AB0EE409AF0EE489A00EE105AB0EE40AAD1
S3250800ACC0F0EE68AA00EE106AB0EE40BA774880ED079ABDEEE90A764880ED010ADFED750A8A
S3250800ACE0B0EE4A0AFAF7BDFFF0EE40BADFED720AFAF7AAFF6D4880ED020ABDEEEA0A6C486C
S3250800AD0080ED030ADFED6D0AB0EE4B0AFAF7A9FFF0EE40BADFED6A0AFAF796FF634880ED26
S3250800AD20030A00231A460121222000F06FFAB8E002206449086001206349086000231A4631
S3250800AD400121084600F062FAABE000205D49086001205D490860F9F77FFF00231A4601212E
S3250800AD60072000F053FA9CE000231A460121122000F04CFAF7F74CFD93E00120514908600B
S3250800AD805149086000231A460121052000F03EFA87E0FAF7B9FE4D48006900904B480FC8AA
S3250800ADA0FFF70AFB10B94948FFF7FEFA4748FFF79FFA4648FFF794FA444800690090434802
S3250800ADC00FC8FFF7C9FA00231A460121082000F01DFA66E03D48006900903C480FC8FFF7EC
S3250800ADE0EBFA10B93948FFF7DFFA3848FFF780FA3648FFF775FA35480069009033480FC8AC
S3250800AE00FFF7AAFA4DE0294890ED070A8DED010A274890ED010AB8EEC00A8DED020A234881
S3250800AE2090ED020A8DED030A214890ED030AB8EEC00A8DED040A1D4890ED030A8DED050A91
S3250800AE40052301AA0121032000F0E0F929E014221F4901A8F5F705FA052301AA01211320A0
S3250800AE6000F0D4F91DE01B4800880020194908801948008800201849088000231A4601217E
S3250800AE80202000F0C3F900BF124800880590012305AA1946212000F0B9F900BF4FF0FF3040
S3250800AEA0F4E500BF0020F1E5E8000020BC060020BC0B00200000FA440000C842000020427B
S3250800AEC0000000008C00002088000020BC0F0020F0B700089000002092000020F0B5054624
S3250800AEE00C46002100BF2BE0501890FBF4F604FB16002E5C5018401C90FBF4F704FB17003B
S3250800AF00285C46EA00265018801C90FBF4F704FB1700285C46EA00465018C01C90FBF4F705
S3250800AF2004FB1700285C46EA0060084EB04205D1501890FBF4F604FB1600F0BD481C81B285
S3250800AF40D81E8842D0DC4FF0FF30F6E7FF318A2330B5044600259A4202DC981A85B202E076
S3250800AF60881A184485B2AC4201DD002030BD2846FCE72DE9F04705460E4614461F46DDF8E4
S3250800AF80208004EB0800B0420FDD301B1FFA80F928194A463946F5F764F9A8EB090207EB28
S3250800AFA009012846F5F75DF904E0281942463946F5F757F9BDE8F08737490968C96A00EE33
S3250800AFC0101AB8EE400AF6EE000A20EE200ABCEEC00A10EE101A304A1268D1632E49096877
S3250800AFE0C96A00EE101AB8EE400AF6EE000A20EE200ABCEEC00A10EE101A274A12685163A7
S3250800B00025490968C96A00EE101AB8EE400AF6EE000A20EE200ABCEEC00A10EE101A1E4ADE
S3250800B020126891639FED1D0A80ED260A9FED1B0A80ED270A9FED190A80ED2A0A9FED170AF8
S3250800B04080ED280A9FED150A80ED290A9FED130A80ED230A9FED110A80ED240A9FED0F0ACE
S3250800B06080ED100A9FED0D0A80ED110A9FED0B0A80ED120A9FED090A80ED200A9FED070A13
S3250800B08080ED1F0A9FED050A80ED140A9FED030A80ED130A704700009C160020000000003A
S3250800B0A010B53948006830B101280AD0022811D0032867D15DE03548006808B1FDF7A4FA15
S3250800B0C060E03248006810B1FCF748FF01E0FCF773FF57E02D48006810B1FDF7A5FA47E070
S3250800B0E02B4890ED250AB8EEC00ADFED2A0A20EE200ADFED290A60EE200A284890ED030A0A
S3250800B100B8EEC00AF4EEC00AF1EE10FA1EDDC06800281BDD9FED220A1D4880ED230A9FED96
S3250800B120200A80ED240A9FED1E0A80ED280A9FED1C0A80ED290A9FED1A0A80ED2A0A1948E5
S3250800B140008820F02000203016490880104800F093F90F48D0ED0C0AB0EE600A1249FDF79D
S3250800B16015F80B48D0F89400401C0949C1F8940008E00648006810B1FDF736FC01E0FCF7B1
S3250800B1803BFF00BF00BF10BD8C000020880000202812002017B7D13700007A44BC0B0020F3
S3250800B1A00000000090000020DC1400203EB500BF00200290002210211148F7F743FA642002
S3250800B1C0012301AA02A900900E48F8F755F800BF00BF0C4890F851000228FAD001221021D2
S3250800B1E00748F7F72FFABDF80400841000EE104AB8EE400ADFED040A20EE200A3EBD000049
S3250800B20000000240EC1500206EFAB33CF8B505460E4617461C4600200090A006040E144897
S3250800B2201449086004F10B00C1F805000846067145720A220020FCF79BFF009022463946B1
S3250800B2409DF80000FCF794FF00900B4B0A2209490A48F9F78CF8084B224639460748F9F722
S3250800B26086F8054B012269460448F9F780F8F8BDFF318A23B0020020FFFF0F007417002050
S3250800B280054880ED260AC0ED270A80ED2A1AC0ED281A80ED292A70472812002000B52DED98
S3250800B2A0048B83B041EC190BF5F7C2FA41EC180B18EE100A18EE901A8DED008B002818BFA1
S3250800B2C00120084320F00040C0F17F6000F1E040C00F14D019EE101A19EE900A8DED009B69
S3250800B2E0002918BF0121084320F00040C0F17F6000F1E040C00F04BF0120FBF7FBFF51EC06
S3250800B300180B03B0BDEC048B00BD000070B52DED088BB0EE408AF0EE608AB0EE419AF0EEFB
S3250800B320619A04460D461646B0EE691AF0EE490AB0EE680AFDF799FAF0EE40AAB0EE691A39
S3250800B340F0EE490AB0EE680AFDF772FA3AEE800AF6EE000A20EE200AB0EE40AA38EECA0AE4
S3250800B360C0EE080AB6EE000A30EE800AB0EE40BADFED1D0AFAF768FCF0EE40AAF7EE000A12
S3250800B380FAF76FFC84ED000A79EE4A0A80EE880AF6EE000A30EE200AB0EE40BADFED120A57
S3250800B3A0FAF752FCF0EE40AAF7EE000AFAF759FC85ED000A79EECA0A80EE880AF6EE000A9E
S3250800B3C030EE200AB0EE40BADFED070AFAF73CFCF0EE40AAF7EE000AFAF743FC86ED000A15
S3250800B3E0BDEC088B70BD0000CDCC4C3D00B587B01C480068022820D11B4890ED0B0A8DED72
S3250800B400010A90ED0D0ADFED190A20EE200A8DED020A90ED120A1648D0ED070A20EE200AD5
S3250800B420DFED140A20EE200A8DED030A032301AA01210220FFF7EAFE00BF0B4890ED080AC1
S3250800B4408DED040A90ED030A8DED050A90ED040A8DED060A032304AA01210420FFF7D6FE4A
S3250800B46007B000BD8C00002028120020DB0FC940BC060020802B993D10B52DED028B044638
S3250800B48094ED260AD4ED0B0A30EE600AD4ED280A20EE200AD4ED270A94ED0D1A70EEC10AA1
S3250800B4A094ED291A01EE200AD4ED2A0A30EE200A0E48D0ED070A80EE201AB0EE418A9FEDA3
S3250800B4C00C0AC8EE000AC4ED240A9FED0A0A84ED230AD4ED0A0AB0EE600A04F19001081FE1
S3250800B4E0FDF7BEFABDEC028B10BD0000BC060020802B993D0000000003B59DF80000487027
S3250800B5009DF80100087002200CBD03B59DF80000087001200CBDB0EE401A30EEC10AF0EEB6
S3250800B520401AB0EE412A00EE100AB8EEC00A60EE212A01228A40521E00EE102AB8EEC03A64
S3250800B54082EE830A30EE020A704700007CB505460C462868009068680190BDF800001021CA
S3250800B560DFED1B0A9FED1B0AFFF7D5FF84ED260ABDF80210C1F30D000E21DFED150A9FED82
S3250800B580150AFFF7C8FF84ED270ABDF8031088090A21DFED110A9FED110AFFF7BCFF84EDEB
S3250800B5A0280A9DF805000821DFED0D0A9FED0B0AFFF7B1FF84ED290ABDF806001021DFED02
S3250800B5C0090A9FED090AFFF7A6FF84ED2A0A7CBD00002042000020C200C07F44000000006B
S3250800B5E000004C4200008842000088C22DE9F04780460E461446F5F7FBFCA408C14600251F
S3250800B60012E015483044042101FB050759F825103846F5F7C5FC092805D0F5F7B7FC4FF097
S3250800B620FF30BDE8F0876D1CA542EAD3F5F7AEFC00210DE008483044042202FB010759F8A0
S3250800B64021003A68904202D06FF00100E9E7491CA142EFD30020E4E7000002083EB5044609
S3250800B6600D464EF654200290002210212B48F6F7E9FF6420012301AA02A900902848F7F798
S3250800B680FBFD00BF264890F851000228FAD0012210212248F6F7D6FF00200290BDF80800BB
S3250800B6A028430290BDF8080040EA04200290002210211A48F6F7C6FF6420012301AA02A97D
S3250800B6C000901748F7F7D8FD00BF154890F851000228FAD0012210211048F6F7B3FF002056
S3250800B6E002900190002210210C48F6F7ABFF6420012301AA02A900900948F7F7BDFD00BF95
S3250800B700074890F851000228FAD0012210210348F6F798FF9DF804003EBD00000000024006
S3250800B720EC1500202DE9F04705460E460027B8464FF480642B480068C06A00EE100AB8EEEF
S3250800B740400AF6EE000A20EE200ABCEEC00A10EE100A24490968486322480068C06A00EE6C
S3250800B760100AB8EE400AF6EE000A20EE200ABCEEC00A10EE100A1B49096888631948006876
S3250800B780C06A00EE100AB8EE400AF6EE000A20EE200ABCEEC00A10EE100A12490968C863D0
S3250800B7A04FF0000914E01048F5F730FE0F48F5F72DFE0120F6F716FE01210B48F5F702FEDC
S3250800B7C0074401210948F5F7FDFD804409F10109A145E8DB97FBF4F0286098FBF4F0306041
S3250800B7E0BDE8F0879C160020EC14002034150020000024420000B24200000000000000006A
S3250800B80000000000000000002975493CDF6EC93C6F0E173D3160493D8FA97B3D38F4963DCE
S3250800B8206B0EB03D4721C93D5E2EE23DEC2FFB3D7F130A3E698C163E76FD223EA5662F3EBA
S3250800B84097CA3B3E4A29483E807D543EDAC9603E560E6D3EF54A793E3CBD823E0FD1883ED3
S3250800B860A4DF8E3EFBE8943EC4EB9A3EFFE7A03EFCDEA63E6CCFAC3E4EB9B23EA29CB83E5D
S3250800B8801878BE3EB24BC43EBD18CA3EECDDCF3EED99D53E614FDB3E59FAE03EC39EE63E04
S3250800B8A0B038EC3E71C9F13E5452F73EBBD0FC3E5322013FB2D7033FD387063FB532093F11
S3250800B8C05AD80B3FC0780E3F4013113F82A8133FDF37163F55C1183FE5441B3F8FC21D3F32
S3250800B8E0543A203F8AAB223FDB16253F9E7B273FD3D9293F7B312C3FED812E3F79CC303F29
S3250800B900D00F333FF14B353F8481373FE2AF393F0AD73B3FFDF63D3F130F403F9B20423FED
S3250800B9209E29443F132C463F0326483FBD184A3F9B034C3FF3E54D3F16C14F3FB493513F14
S3250800B940745E533F5721553F0EDB563F8F8D583FE3365A3FB2D75B3FA4705D3F69005F3FAC
S3250800B9605188603F0C07623F9A7C633FA3E9643F274E663F7EA9673F50FC683F4E456A3F90
S3250800B980C6856B3F12BD6C3F31EB6D3F23106F3F412B703FD93D713F9D46723F3546733FDF
S3250800B9A09F3C743F3529753F9E0C763F32E6763F9AB6773F2C7D783FEB39793F7CED793F4A
S3250800B9C039977A3F22377B3F36CD7B3F75597C3F87DC7C3F1D557D3F87C47D3F74297E3FCA
S3250800B9E034857E3F77D67E3F8E1E7F3F295C7F3FEF8F7F3F88BA7F3FA5DA7F3FEDF07F3FF8
S3250800BA0061FD7F3F0000803F23F87F3F19E77F3F92CB7F3F37A67F3FAF777F3FAB3E7F3F65
S3250800BA20D2FB7E3F25AF7E3FA3587E3F4DF87D3F228E7D3F221A7D3F4E9C7C3FA5147C3FA7
S3250800BA4027837B3FD5E77A3F57437A3F0395793FDBDC783FDF1A783FB54F773FB77A763F9E
S3250800BA60E59B753FE5B3743FB9C2733FB9C7723F8BC3713F31B6703F029F6F3FA67E6E3F27
S3250800BA801D556D3F68226C3F86E66A3F1FA2693FE353683F22FD663F349D653F1A34643FC0
S3250800BAA022C3623F5648613FACC55F3FD6395E3F7AA55C3F9A085B3F3563593F4AB5573F3E
S3250800BAC082FF553F8E40543F637A523FB4AB503F80D44E3F6FF54C3F280F4B3F5C20493FF1
S3250800BAE0B329473FD42B453F1826433F7E18413FB0033F3FABE73C3F72C43A3F5B99383F25
S3250800BB00B667363FDC2E343FCCEE313F2FA82F3F5C5A2D3FFB052B3F0DAB283F9049263FB0
S3250800BB202EE2233F9773213F19FF1E3FB6841C3FC5031A3F957D173FD8F0143FDD5E123FE1
S3250800BB40FCC60F3F35290D3F2F860A3FECDD073F6A30053FAA7D023F598BFF3E3012FA3E2F
S3250800BB608A8EF43E0803EF3E096DE93EDDCDE33E8525DE3E4F75D83E3CBDD23EFCFBCC3E23
S3250800BB80DF32C73E3563C13E5D8ABB3E47ACB53E05C5AF3E84D8A93E75E5A33E89EA9D3EA1
S3250800BBA060EA973EF7E4913E02D98B3ECEC7853EB7627F3EF52D733EB7EE663EFDA45A3E87
S3250800BBC065534E3EF0F9413E3D9B353E0E32293EA0C31C3EF44F103E0AD7033EC4B1EE3DA9
S3250800BBE0B9A5D53DA298BC3D1B82A33D49658A3D6685623DD637303DF7C7FB3CC615973CFB
S3250800BC005374C93B5374C9BBC61597BCF7C7FBBCD63730BD668562BD49658ABD1B82A3BD67
S3250800BC20A298BCBDB9A5D5BDC4B1EEBD0AD703BEF44F10BEA0C31CBE0E3229BE3D9B35BE51
S3250800BC40F0F941BE65534EBEFDA45ABEB7EE66BEF52D73BEB7627FBECEC785BE02D98BBE03
S3250800BC60F7E491BE60EA97BE89EA9DBE75E5A3BE84D8A9BE05C5AFBE47ACB5BE5D8ABBBEA4
S3250800BC803563C1BEDF32C7BEFCFBCCBE3CBDD2BE4F75D8BE8525DEBEDDCDE3BE096DE9BED7
S3250800BCA00803EFBE8A8EF4BE3012FABE598BFFBEAA7D02BF6A3005BFECDD07BF2F860ABF06
S3250800BCC035290DBFFCC60FBFDD5E12BFD8F014BF957D17BFC5031ABFB6841CBF19FF1EBF62
S3250800BCE0977321BF2EE223BF904926BF0DAB28BFFB052BBF5C5A2DBF2FA82FBFCCEE31BF02
S3250800BD00DC2E34BFB66736BF5B9938BF72C43ABFABE73CBFB0033FBF7E1841BF182643BFD8
S3250800BD20D42B45BFB32947BF5C2049BF280F4BBF6FF54CBF80D44EBFB4AB50BF637A52BF1F
S3250800BD408E4054BF82FF55BF4AB557BF356359BF9A085BBF7AA55CBFD6395EBFACC55FBFE9
S3250800BD60564861BF22C362BF1A3464BF349D65BF22FD66BFE35368BF1FA269BF86E66ABF6C
S3250800BD8068226CBF1D556DBFA67E6EBF029F6FBF31B670BF8BC371BFB9C772BFB9C273BF30
S3250800BDA0E5B374BFE59B75BFB77A76BFB54F77BFDF1A78BFDBDC78BF039579BF57437ABF95
S3250800BDC0D5E77ABF27837BBFA5147CBF4E9C7CBF221A7DBF228E7DBF4DF87DBFA3587EBF46
S3250800BDE025AF7EBFD2FB7EBFAB3E7FBFAF777FBF37A67FBF92CB7FBF19E77FBF23F87FBF42
S3250800BE00000080BF61FD7FBFEDF07FBFA5DA7FBF88BA7FBFEF8F7FBF295C7FBF8E1E7FBF78
S3250800BE2077D67EBF34857EBF74297EBF87C47DBF1D557DBF87DC7CBF75597CBF36CD7BBF81
S3250800BE4022377BBF39977ABF7CED79BFEB3979BF2C7D78BF9AB677BF32E676BF9E0C76BFA9
S3250800BE60352975BF9F3C74BF354673BF9D4672BFD93D71BF412B70BF23106FBF31EB6DBFC9
S3250800BE8012BD6CBFC6856BBF4E456ABF50FC68BF7EA967BF274E66BFA3E964BF9A7C63BF28
S3250800BEA00C0762BF518860BF69005FBFA4705DBFB2D75BBFE3365ABF8F8D58BF0EDB56BF8B
S3250800BEC0572155BF745E53BFB49351BF16C14FBFF3E54DBF9B034CBFBD184ABF032648BF0D
S3250800BEE0132C46BF9E2944BF9B2042BF130F40BFFDF63DBF0AD73BBFE2AF39BF848137BFFB
S3250800BF00F14B35BFD00F33BF79CC30BFED812EBF7B312CBFD3D929BF9E7B27BFDB1625BF84
S3250800BF208AAB22BF543A20BF8FC21DBFE5441BBF55C118BFDF3716BF82A813BF401311BF49
S3250800BF40C0780EBF5AD80BBFB53209BFD38706BFB2D703BF532201BFBBD0FCBE5452F7BEE4
S3250800BF6071C9F1BEB038ECBEC39EE6BE59FAE0BE614FDBBEED99D5BEECDDCFBEBD18CABE2D
S3250800BF80B24BC4BE1878BEBEA29CB8BE4EB9B2BE6CCFACBEFCDEA6BEFFE7A0BEC4EB9ABEAF
S3250800BFA0FBE894BEA4DF8EBE0FD188BE3CBD82BEF54A79BE560E6DBEDAC960BE807D54BE3B
S3250800BFC04A2948BE97CA3BBEA5662FBE76FD22BE698C16BE7F130ABEEC2FFBBD5E2EE2BD14
S3250800BFE04721C9BD6B0EB0BD38F496BD8FA97BBD316049BD6F0E17BDDF6EC9BC297549BC13
S3250800C00000000000000000002975493CDF6EC93C6F0E173D3160493D8FA97B3D38F4963DC6
S3250800C0206B0EB03D4721C93D5E2EE23DEC2FFB3D7F130A3E698C163E76FD223EA5662F3EB2
S3250800C04097CA3B3E4A29483E807D543EDAC9603E560E6D3EF54A793E3CBD823E0FD1883ECB
S3250800C060A4DF8E3EFBE8943EC4EB9A3EFFE7A03EFCDEA63E6CCFAC3E4EB9B23EA29CB83E55
S3250800C0801878BE3EB24BC43EBD18CA3EECDDCF3EED99D53E614FDB3E59FAE03EC39EE63EFC
S3250800C0A0B038EC3E71C9F13E5452F73EBBD0FC3E5322013FB2D7033FD387063FB532093F09
S3250800C0C05AD80B3FC0780E3F4013113F82A8133FDF37163F55C1183FE5441B3F8FC21D3F2A
S3250800C0E0543A203F8AAB223FDB16253F9E7B273FD3D9293F7B312C3FED812E3F79CC303F21
S3250800C100D00F333FF14B353F8481373FE2AF393F0AD73B3FFDF63D3F130F403F9B20423FE5
S3250800C1209E29443F132C463F0326483FBD184A3F9B034C3FF3E54D3F16C14F3FB493513F0C
S3250800C140745E533F5721553F0EDB563F8F8D583FE3365A3FB2D75B3FA4705D3F69005F3FA4
S3250800C1605188603F0C07623F9A7C633FA3E9643F274E663F7EA9673F50FC683F4E456A3F88
S3250800C180C6856B3F12BD6C3F31EB6D3F23106F3F412B703FD93D713F9D46723F3546733FD7
S3250800C1A09F3C743F3529753F9E0C763F32E6763F9AB6773F2C7D783FEB39793F7CED793F42
S3250800C1C039977A3F22377B3F36CD7B3F75597C3F87DC7C3F1D557D3F87C47D3F74297E3FC2
S3250800C1E034857E3F77D67E3F8E1E7F3F295C7F3FEF8F7F3F88BA7F3FA5DA7F3FEDF07F3FF0
S3250800C20061FD7F3F0000803F23F87F3F19E77F3F92CB7F3F37A67F3FAF777F3FAB3E7F3F5D
S3250800C220D2FB7E3F25AF7E3FA3587E3F4DF87D3F228E7D3F221A7D3F4E9C7C3FA5147C3F9F
S3250800C24027837B3FD5E77A3F57437A3F0395793FDBDC783FDF1A783FB54F773FB77A763F96
S3250800C260E59B753FE5B3743FB9C2733FB9C7723F8BC3713F31B6703F029F6F3FA67E6E3F1F
S3250800C2801D556D3F68226C3F86E66A3F1FA2693FE353683F22FD663F349D653F1A34643FB8
S3250800C2A022C3623F5648613FACC55F3FD6395E3F7AA55C3F9A085B3F3563593F4AB5573F36
S3250800C2C082FF553F8E40543F637A523FB4AB503F80D44E3F6FF54C3F280F4B3F5C20493FE9
S3250800C2E0B329473FD42B453F1826433F7E18413FB0033F3FABE73C3F72C43A3F5B99383F1D
S3250800C300B667363FDC2E343FCCEE313F2FA82F3F5C5A2D3FFB052B3F0DAB283F9049263FA8
S3250800C3202EE2233F9773213F19FF1E3FB6841C3FC5031A3F957D173FD8F0143FDD5E123FD9
S3250800C340FCC60F3F35290D3F2F860A3FECDD073F6A30053FAA7D023F598BFF3E3012FA3E27
S3250800C3608A8EF43E0803EF3E096DE93EDDCDE33E8525DE3E4F75D83E3CBDD23EFCFBCC3E1B
S3250800C380DF32C73E3563C13E5D8ABB3E47ACB53E05C5AF3E84D8A93E75E5A33E89EA9D3E99
S3250800C3A060EA973EF7E4913E02D98B3ECEC7853EB7627F3EF52D733EB7EE663EFDA45A3E7F
S3250800C3C065534E3EF0F9413E3D9B353E0E32293EA0C31C3EF44F103E0AD7033EC4B1EE3DA1
S3250800C3E0B9A5D53DA298BC3D1B82A33D49658A3D6685623DD637303DF7C7FB3CC615973CF3
S3250800C4005374C93B5374C9BBC61597BCF7C7FBBCD63730BD668562BD49658ABD1B82A3BD5F
S3250800C420A298BCBDB9A5D5BDC4B1EEBD0AD703BEF44F10BEA0C31CBE0E3229BE3D9B35BE49
S3250800C440F0F941BE65534EBEFDA45ABEB7EE66BEF52D73BEB7627FBECEC785BE02D98BBEFB
S3250800C460F7E491BE60EA97BE89EA9DBE75E5A3BE84D8A9BE05C5AFBE47ACB5BE5D8ABBBE9C
S3250800C4803563C1BEDF32C7BEFCFBCCBE3CBDD2BE4F75D8BE8525DEBEDDCDE3BE096DE9BECF
S3250800C4A00803EFBE8A8EF4BE3012FABE598BFFBEAA7D02BF6A3005BFECDD07BF2F860ABFFE
S3250800C4C035290DBFFCC60FBFDD5E12BFD8F014BF957D17BFC5031ABFB6841CBF19FF1EBF5A
S3250800C4E0977321BF2EE223BF904926BF0DAB28BFFB052BBF5C5A2DBF2FA82FBFCCEE31BFFA
S3250800C500DC2E34BFB66736BF5B9938BF72C43ABFABE73CBFB0033FBF7E1841BF182643BFD0
S3250800C520D42B45BFB32947BF5C2049BF280F4BBF6FF54CBF80D44EBFB4AB50BF637A52BF17
S3250800C5408E4054BF82FF55BF4AB557BF356359BF9A085BBF7AA55CBFD6395EBFACC55FBFE1
S3250800C560564861BF22C362BF1A3464BF349D65BF22FD66BFE35368BF1FA269BF86E66ABF64
S3250800C58068226CBF1D556DBFA67E6EBF029F6FBF31B670BF8BC371BFB9C772BFB9C273BF28
S3250800C5A0E5B374BFE59B75BFB77A76BFB54F77BFDF1A78BFDBDC78BF039579BF57437ABF8D
S3250800C5C0D5E77ABF27837BBFA5147CBF4E9C7CBF221A7DBF228E7DBF4DF87DBFA3587EBF3E
S3250800C5E025AF7EBFD2FB7EBFAB3E7FBFAF777FBF37A67FBF92CB7FBF19E77FBF23F87FBF3A
S3250800C600000080BF61FD7FBFEDF07FBFA5DA7FBF88BA7FBFEF8F7FBF295C7FBF8E1E7FBF70
S3250800C62077D67EBF34857EBF74297EBF87C47DBF1D557DBF87DC7CBF75597CBF36CD7BBF79
S3250800C64022377BBF39977ABF7CED79BFEB3979BF2C7D78BF9AB677BF32E676BF9E0C76BFA1
S3250800C660352975BF9F3C74BF354673BF9D4672BFD93D71BF412B70BF23106FBF31EB6DBFC1
S3250800C68012BD6CBFC6856BBF4E456ABF50FC68BF7EA967BF274E66BFA3E964BF9A7C63BF20
S3250800C6A00C0762BF518860BF69005FBFA4705DBFB2D75BBFE3365ABF8F8D58BF0EDB56BF83
S3250800C6C0572155BF745E53BFB49351BF16C14FBFF3E54DBF9B034CBFBD184ABF032648BF05
S3250800C6E0132C46BF9E2944BF9B2042BF130F40BFFDF63DBF0AD73BBFE2AF39BF848137BFF3
S3250800C700F14B35BFD00F33BF79CC30BFED812EBF7B312CBFD3D929BF9E7B27BFDB1625BF7C
S3250800C7208AAB22BF543A20BF8FC21DBFE5441BBF55C118BFDF3716BF82A813BF401311BF41
S3250800C740C0780EBF5AD80BBFB53209BFD38706BFB2D703BF532201BFBBD0FCBE5452F7BEDC
S3250800C76071C9F1BEB038ECBEC39EE6BE59FAE0BE614FDBBEED99D5BEECDDCFBEBD18CABE25
S3250800C780B24BC4BE1878BEBEA29CB8BE4EB9B2BE6CCFACBEFCDEA6BEFFE7A0BEC4EB9ABEA7
S3250800C7A0FBE894BEA4DF8EBE0FD188BE3CBD82BEF54A79BE560E6DBEDAC960BE807D54BE33
S3250800C7C04A2948BE97CA3BBEA5662FBE76FD22BE698C16BE7F130ABEEC2FFBBD5E2EE2BD0C
S3250800C7E04721C9BD6B0EB0BD38F496BD8FA97BBD316049BD6F0E17BDDF6EC9BC297549BC0B
S3250800C8000000000000000000B71DC1046E3B8209D926430DDC7604136B6BC517B24D861A34
S3250800C8200550471EB8ED08260FF0C922D6D68A2F61CB4B2B649B0C35D386CD310AA08E3C61
S3250800C840BDBD4F3870DB114CC7C6D0481EE09345A9FD5241ACAD155F1BB0D45BC296975661
S3250800C860758B5652C836196A7F2BD86EA60D9B6311105A6714401D79A35DDC7D7A7B9F70B7
S3250800C880CD665E74E0B6239857ABE29C8E8DA191399060953CC0278B8BDDE68F52FBA582AA
S3250800C8A0E5E66486585B2BBEEF46EABA3660A9B7817D68B3842D2FAD3330EEA9EA16ADA459
S3250800C8C05D0B6CA0906D32D42770F3D0FE56B0DD494B71D94C1B36C7FB06F7C32220B4CED7
S3250800C8E0953D75CA28803AF29F9DFBF646BBB8FBF1A679FFF4F63EE143EBFFE59ACDBCE82F
S3250800C9002DD07DEC77708634C06D4730194B043DAE56C539AB0682271C1B4323C53D002E90
S3250800C9207220C12ACF9D8E1278804F16A1A60C1B16BBCD1F13EB8A01A4F64B057DD0080808
S3250800C940CACDC90C07AB9778B0B6567C69901571DE8DD475DBDD936B6CC0526FB5E6116280
S3250800C96002FBD066BF469F5E085B5E5AD17D1D576660DC5363309B4DD42D5A490D0B19440E
S3250800C980BA16D84097C6A5AC20DB64A8F9FD27A54EE0E6A14BB0A1BFFCAD60BB258B23B6CD
S3250800C9A09296E2B22F2BAD8A98366C8E41102F83F60DEE87F35DA9994440689D9D662B9000
S3250800C9C02A7BEA94E71DB4E0500075E4892636E93E3BF7ED3B6BB0F38C7671F7555032FA36
S3250800C9E0E24DF3FE5FF0BCC6E8ED7DC231CB3ECF86D6FFCB8386B8D5349B79D1EDBD3ADC86
S3250800CA005AA0FBD8EEE00C6959FDCD6D80DB8E6037C64F643296087A858BC97E5CAD8A73C8
S3250800CA20EBB04B77560D044FE110C54B383686468F2B47428A7B005C3D66C158E44082553F
S3250800CA40535D43519E3B1D252926DC21F0009F2C471D5E28424D1936F550D8322C769B3FCF
S3250800CA609B6B5A3B26D6150391CBD40748ED970AFFF0560EFAA011104DBDD014949B931915
S3250800CA802386521D0E562FF1B94BEEF5606DADF8D7706CFCD2202BE2653DEAE6BC1BA9EB08
S3250800CAA00B0668EFB6BB27D701A6E6D3D880A5DE6F9D64DA6ACD23C4DDD0E2C004F6A1CD37
S3250800CAC0B3EB60C97E8D3EBDC990FFB910B6BCB4A7AB7DB0A2FB3AAE15E6FBAACCC0B8A7A5
S3250800CAE07BDD79A3C660369B717DF79FA85BB4921F4675961A163288AD0BF38C742DB0818D
S3250800CB00C330718599908A5D2E8D4B59F7AB085440B6C95045E68E4EF2FB4F4A2BDD0C47BA
S3250800CB209CC0CD43217D827B9660437F4F460072F85BC176FD0B86684A16476C9330046166
S3250800CB40242DC565E94B9B115E565A1587701918306DD81C353D9F0282205E065B061D0BEE
S3250800CB60EC1BDC0F51A69337E6BB52333F9D113E8880D03A8DD097243ACD5620E3EB152DEC
S3250800CB8054F6D4297926A9C5CE3B68C1171D2BCCA000EAC8A550ADD6124D6CD2CB6B2FDF2B
S3250800CBA07C76EEDBC1CBA1E376D660E7AFF023EA18EDE2EE1DBDA5F0AAA064F4738627F95E
S3250800CBC0C49BE6FD09FDB889BEE0798D67C63A80D0DBFB84D58BBC9A62967D9EBBB03E9304
S3250800CBE00CADFF97B110B0AF060D71ABDF2B32A66836F3A26D66B4BCDA7B75B8035D36B564
S3250800CC00B440F7B183F9A242000000000000000001020304060708090000000001020304D8
S3250800CC2004FA97999999D93FAF788E1DC571CC3F9FC678D0099AC33F935555555555E53FA9
S3250800CC40599322942449D23FDE03CB966446C73F44523EDF12F1C23F000000000000F03FCE
S3250800CC60000000000000F83F00000000000000000000004003B8E23F000000000000000053
S3250800CC8006D0CF43EBFD4C3E033333333333E33FFFAB6FDBB66DDB3F4D268F515555D53FC6
S3250800CCA001411DA96074D13F65DBC9934A86CD3FEF4E454A287ECA3F3E5555555555C53F9C
S3250800CCC093BDBE166CC166BF2CDE25AF6A56113FF16BD2C541BDBBBED0A4BE726937663E90
S3250800CCE00000000000000000000000006E83F9A22915444ED15727FCC0DD34F5999562DB4E
S3250800CD004190433CAB6351FE28CD00080000002024020000A009000868CD000824020020E1
S3250800CD2094550100E47200083112081A40041A80041AC004111A01041A02041A04041A06E6
S3250800CD40042921213210321832205A3004A23809424401200982A80946E80982CCD129287D
S30D0800CD604201031124F400004E
S325080600007060002065020608F30C0608C10C0608F10C06085B040608AD0D0608000000003F
S32508060020000000000000000000000000F70C06085D04060800000000F50C0608F90C06080A
S325080600407F0206087F0206087F0206087F0206087F0206087F0206087F0206087F02060814
S325080600607F0206087F0206087F0206087F0206087F0206087F0206087F0206087F020608F4
S325080600807F0206087F0206087F0206087F0206087F0206087F0206087F0206087F020608D4
S325080600A07F0206087F0206087F0206087F0206087F0206087F0206087F0206087F020608B4
S325080600C07F0206087F0206087F0206087F0206087F0206087F0206087F0206087F02060894
S325080600E07F0206087F0206087F0206087F0206087F0206087F0206087F0206087F02060874
S325080601007F0206087F0206087F0206087F0206087F0206087F0206087F0206087F02060853
S325080601207F0206087F0206087F0206087F0206087F02060800000000000000007F02060851
S325080601407F0206087F0206087F0206087F0206087F0206087F0206087F0206087F02060813
S325080601607F0206087F0206087F0206087F0206087F0206087F0206087F0206080000000082
S32508060180000000007F02060800000000000000007F02060800000000000000007F0206089E
S325080601A00000000000000000000000007F0206087F0206087F0206087F0206087F02060860
S325080601C07F02060800F002F800F03CF80AA090E8000C82448344AAF10107DA4501D100F02F
S325080601E031F8AFF2090EBAE80F0013F0010F18BFFB1A43F001031847E00C0000000D0000CB
S32508060200103A24BF78C878C1FAD8520724BF30C830C144BF04680C60704700000023002454
S3250806022000250026103A28BF78C1FBD8520728BF30C148BF0B6070471FB500F03FFE1FBDEB
S3250806024010B510BD00F0CFF81146FFF7F5FF00F0BFFD00F0EDF803B4FFF7F2FF03BC00F032
S32508060260F5F800000948804709480047FEE7FEE7FEE7FEE7FEE7FEE7FEE7FEE7FEE7FEE7DB
S3250806028004480549054A064B704700009D0D0608C50106087000002070600020702000209D
S325080602A07020002053EA020C00F069802DE9F04B4FF00006002B1FBFB3FA83F503FA05F49C
S325080602C024FA05F65E4012BF1643B2FA82F502FA05F4C5F120051EBF22FA05FC44EA0C04FE
S325080602E0203556EA044C4FEA144418BF641C4FF000084FF00009904271EB030C39D300291C
S3250806030019BFB1FA81F701FA07F6B0FA80F700FA07F6C7F120071EBF20FA07FC46EA0C06A3
S325080603202037B6FBF4FCA7EB0507103F07F01F0BCBF120060CFA0BFB2CFA06F644BFB34697
S325080603400026202FA4BF5E464FF0000B5BEA060C08BF4FF0010B19EB0B09ABFB027C48EBEB
S325080603600608C01B06FB02CC0BFB03CC71EB0C01C1E70B46024641464846BDE8F08B13B535
S325080603804FF000004FF00001AFF30080BDE81C4070474FF0000200B5134694469646203992
S325080603A022BFA0E80C50A0E80C50B1F12001BFF4F7AF090728BFA0E80C5048BF0CC05DF861
S325080603C004EB890028BF40F8042B08BF704748BF20F8022B11F0804F18BF00F8012B7047F7
S325080603E0704770477047754600F02CF8AE4605006946534620F00700854618B020B5FFF73F
S325080604003FFFBDE820404FF000064FF000074FF000084FF0000B21F00701AC46ACE8C00901
S32508060420ACE8C009ACE8C009ACE8C0098D46704710B50446AFF300802046BDE81040FFF785
S325080604400ABF0000004870471000002001491820ABBEFEE7260002007047FEE77047000045
S3250806046001490860704700000C3C024070B50646002529B1012927D0022928D04FF44075C9
S3250806048000F080F809281ED1124C206820F440702060206828432060206820F0F800206013
S325080604A0206846F0020108432060206840F48030206000F067F8216821F0020121602168BA
S325080604C021F0F801216070BD4FF48075D8E74FF40075D5E7103C02400D4909200A68D20391
S325080604E001D5012070470A68D20601D5062070470A68D20501D5022070470A6812F0E00FE2
S3250806050001D00720704709688907FBD5082070470C3C02400248016841F0004101607047A1
S32508060520103C024070B50D46064600F02BF8092813D10A4C206820F440702060206840F44F
S3250806054000702060206840F001002060356000F019F8216821F00101216070BD103C0240F0
S3250806056005480068002805DA034804490C3801600349016070470000103C024023016745AC
S32508060580AB89EFCD08B509208DF80000FFF7A4FF8DF800009DF800000128F7D09DF80000B4
S325080605A008BD000001488068704700000000002002488168027811448160704700000020A0
S325080605C00B4810B5016841F400710160016841F480610160016841F480710160032000F09C
S325080605E061F80F2000F006F800F024F8002010BD003C024070B50D4D04464FF47A71287863
S32508060600B1FBF0F00A490968B1FBF0F000F044FB48B9102C07D200222146501E00F022F8A4
S3250806062000206C6070BD012070BD0000000000200C0000200A4808B5016841F48041016024
S32508060640006800F4804000900548001F016841F080510160006800F08050009008BD000025
S3250806066044380240F0B40E4B1B680C46C3F30223C3F10705042D00D90425191D072901D2CF
S32508060680002300E0DB1E012606FA05F1491E214099409E40761E16403143F0BC00F087BB72
S325080606A00CED00E0064900F0070208684FF6FF03184040EA0220034A1043086070470000EB
S325080606C00CED00E00000FA052DE9F8431748016841F0805101600068154F00F080500126FF
S325080606E000903E64FFF75EFF05464FF47A78114C05E000BFFFF756FF401B40450DD8606808
S32508060700C003F7D57E64FFF74DFF0546464607E0FFF748FF401BB04202D90320BDE8F883AC
S3250806072060688003F4D50020F8E700004038024000000E42007000402DE9F0470E46050032
S3250806074065D0DFF81481D8F80000F7B200F00F00B04207D288F80070D8F8000000F00F00E2
S32508060760B04254D128683D4C810712D5400703D5206840F4E05020602878000703D5206834
S3250806078040F4604020602068A96820F0F000084320602878C0072DD0304968680839012876
S325080607A012D0022813D0032811D00968890700292DDA216821F0030101432160FFF7F2FEB0
S325080607C0814641F2883A0EE009688903EFE709688901ECE7FFF7E6FEA0EB0901514502D9DA
S325080607E00320BDE8F0872068696800F00C00B0EB810FEFD1D8F80010404601F00F01B1420C
S3250806080007D90770006800F00F00B04201D00120E7E72878400705D52068E96820F4E05076
S32508060820084320602878000706D52068296920F4604040EAC100206000F018F82168084A43
S32508060840C1F30311515CC8400649086006480068FFF7D0FE0020C4E7003C0240083802400B
S32508060860C60E06080C00002004000020224810B5006810F00C02214815D04110042A11D0DF
S325080608801D4C241F082A0FD00C2A0CD12268236802F03F025B0221D52068C0F38810A0FB6B
S325080608A0010120E0084610BD2268236802F03F025B0205D52068C0F38810A0FB010104E034
S325080608C02168C1F38811A1FB00010023FFF7EAFC2168C1F30141491C49000AE02168C1F33E
S325080608E08811A1FB00010023FFF7DCFC2168C1F30271B0FBF1F010BD083802400024F4001A
S325080609002DE9F84F04007DD0DFF878B32078ABF10407C007A7F1040550D0DBF800105846CB
S32508060920C1F3810101290FD00168C1F38101022902D13968490207D40068C0F38100032839
S3250806094009D13868400206D52868800336D560680028D8D032E06068B0F5803F10D0B0F573
S32508060960A02F286810D020F480302860286820F4802028606068A0B1FFF714FE06460CE0B3
S32508060980286840F48030F4E740F480202860F7E7FFF708FE801B642876D828688003F7D56A
S325080609A00CE0FFF7FFFD064605E000BFFFF7FAFD801B6428F0D828688003F7D42078DFF82C
S325080609C0C89280074FF0000A44D5DBF80010584611F00C0F0FD00168C1F38101022902D1A7
S325080609E03968490207D50068C0F3810003280AD13868400207D42868800715D5E06801284A
S32508060A0000D111E03AE1E068B0B10120C9F80000FFF7C8FD064604E0FFF7C4FD801B0228F3
S32508060A20BAD828688007F7D52868216920F0F80040EAC10028600DE0C9F800A0FFF7B2FDA5
S32508060A40064604E0FFF7AEFD801B02281CD828688007F7D42078000727D5DFF828828B4827
S32508060A60616908F16C0881B101210160FFF79AFD064604E0FFF796FD801B022804D8D8F8BF
S32508060A8000008007F6D510E089E0C0F800A0FFF789FD064605E000BFFFF784FD801B022897
S32508060AA07DD8D8F800008007F6D42078400769D574484FF0000838300068C0000BD4714864
S32508060AC03830016841F08051016000684FF0010800F0805000906E4E3068C00511D4306838
S32508060AE040F480703060FFF75DFD009006E000BFFFF758FD0099401A022850D83068C005BC
S32508060B00F6D5604EA068683601280FD00528306810D020F001003060306820F00400306018
S32508060B20A068B8B1FFF73EFD00900FE0306840F00100F4E740F004003060F7E7FFF732FD15
S32508060B400099411A41F28830814264D830688007F4D50EE0FFF726FD009007E0FFF722FD28
S32508060B600099411A41F28830814254D830688007F4D4B8F1000F05D042483830016821F0B3
S32508060B8080510160A069A8B3DBF80010C1F38101022947D00228C9F860A005D000E03AE096
S32508060BA0FFF700FD044639E0FFF7FCFC064604E0FFF7F8FC801B02282DD828688001F7D41D
S32508060BC0F4E907010843E168324A490802EB0141A26841EA82110843217C40EA0160217DB3
S32508060BE040EA017038600120C9F86000FFF7DAFC044606E044E000BFFFF7D4FC001B022882
S32508060C0009D828688001F7D53AE000BFFFF7CAFC001B022802D90320BDE8F88F28688001ED
S32508060C20F4D42DE00128F7D03868E26900F48001914223D1226A00F03F0191421ED147F6F9
S32508060C40C071626A0140B1EB821F17D1A26A4FF0FF3300F4403103EB5202B1EB024F0DD12E
S32508060C6094F82C2000F07061B1EB026F06D194F8301000F0E040B0EB017F01D00120CBE748
S32508060C800020C9E70838024000004742800E4742007000400000FFFF10B5401EB0F1807FDD
S32508060CA001D3012010BD4FF0E02460610F21601700F07DF80020A06107202061002010BD98
S32508060CC0FEE70000094808B5016841F080010160016801F080010091016841F00101016028
S32508060CE0006800F00100009008BD000030380240FEE7FEE770477047FFF75ABC30B593B01C
S32508060D0034216846FFF745FB14210DA8FFF741FB20480025016841F080510160006800F0B9
S32508060D20805012901C48016841F4404101600068022400F44040129001200090000401905F
S32508060D408001CDE9064004200890B420CDE909040B9468460C94FFF7D3FD08B172B6FEE736
S32508060D60FFF7B2FC08B172B6FEE70DA90F2081E831004FF4A05010904FF4805011900521C9
S32508060D800DA8FFF7D9FC002801D072B6FEE713B030BD0000403802400070004002480168EC
S32508060DA041F470010160704788ED00E0FEE70907090E002804DB00F1E02080F800147047C5
S32508060DC000F00F0000F1E02080F8141D70470000FFF7F6FBFFF792FFFFF774FF0D490C482E
S32508060DE00860002400F01AF818B1641C052CF9DBFEE7BFF34F8F0748001D0168064A01F474
S32508060E00E06111430160BFF34F8F00BFFDE700000000060808ED00E00400FA052DE9F04762
S32508060E20FFF79EFBF120FFF71BFB00244FF0FF38E0000221FFF71AFB092821D1641C052C76
S32508060E40F6DBFFF767FB1C4D4FF000606FF001090168491C29D1001DA842F9D38A465746DC
S32508060E60FFF77EFB4FF400465FF0000407EB840055F8241000F10060FFF754FB092804D081
S32508060E80FFF748FB4046BDE8F087641CB442EDD3FFF740FB00200BE007EB800101F100612B
S32508060EA055F8202009688A4201D04846EBE7401CB042F1D35046E6E7000002084FF04070B5
S32508060EC0E1EE100A7047000000000000000001020304060708090000F80E06080000002002
S32508060EE01000000000020608080F060810000020606000001C02060801000000100000006C
S30D08060F00000000000024F400BD
S9030000FC
