:020000040800F2
:10000000E0CE0020D9010008973E0008BF39000863
:10001000953E0008D5100008E94B000800000000DC
:10002000000000000000000000000000F93F000890
:100030001D11000800000000993E0008354200082C
:10004000F3010008F3010008F3010008F3010008C0
:10005000F3010008F3010008F3010008F3010008B0
:10006000F3010008F3010008F3010008F3010008A0
:10007000F3010008F3010008F3010008F301000890
:10008000F3010008F3010008F3010008F301000880
:10009000D9100008F3010008F3010008F30100087B
:1000A000F3010008DD420008F3010008F301000835
:1000B00051430008F3010008F3010008F3010008B0
:1000C000F3010008F3010008F3010008F301000840
:1000D000F3010008F3010008DD4B0008F3010008FC
:1000E000F3010008F3010008F3010008F301000820
:1000F000F3010008F3010008F3010008F301000810
:10010000F3010008F3010008F3010008F3010008FF
:10011000F3010008F3010008F3010008F3010008EF
:10012000F3010008F3010008F3010008F3010008DF
:10013000F30100080000000000000000F3010008C7
:10014000F3010008F3010008F3010008F3010008BF
:10015000F3010008F3010008F3010008F3010008AF
:10016000F3010008F3010008F3010008F30100089F
:10017000F3010008F3010008F3010008000000008B
:1001800000000000F3010008000000000000000073
:10019000F30100080000000000000000F301000867
:1001A000000000000000000000000000F301000853
:1001B000F3010008F3010008F3010008F30100084F
:1001C000F3010008DFF80CD000F096FC004800476F
:1001D00029820008E0CE00200648804706480047F4
:1001E000FEE7FEE7FEE7FEE7FEE7FEE7FEE7FEE7E7
:1001F000FEE7FEE7C1420008C50100082DE9F05FF7
:100200000546002092469B46884606468146402485
:100210001BE0284641464746224600F02DFA534649
:100220005A46C01A914110D311461846224600F092
:1002300014FA2D1A67EB01084F46224601200021CF
:1002400000F00BFA17EB00094E41201EA4F1010447
:10025000DFDC484631462A464346BDE8F09F40EA87
:1002600001039B0703D009E008C9121F08C0042A34
:10027000FAD203E011F8013B00F8013B521EF9D21B
:100280007047D2B201E000F8012B491EFBD2704743
:100290000022F6E710B513460A4604461946FFF752
:1002A000F0FF204610BD70B5064604F011FD04684D
:1002B00005460A220021304600F04EFA2C6070BD3F
:1002C0002DE9FE4F804681EA0300C00F0C460090E6
:1002D00021F0004123F00045B8EB0200A94105D20E
:1002E0004046214690461C460B46024623F00040FD
:1002F000104347D0270DC7F30A00C3F30A510290F9
:10030000401A019040286BDAC3F3130040F4801BBD
:100310000098924620B10023D2EB030A63EB0B0B4B
:1003200001985946C0F14002504600F096F9064641
:100330000D4650465946019A00F0AEF910EB080000
:100340006141002487EA115284EAE7731A4340D0DE
:10035000009A62B3019A012A4FEA075215DC001B8A
:1003600061EB02014FF0004202EA0752CDE9004280
:10037000001C41F5801132462B4600F06BFA03B0A9
:10038000BDE8F08F40462146F9E7001B61EB020112
:10039000001C41F5801300185B412018A2F50017DE
:1003A00047EB030140EAD570B6196D4111E06D08C5
:1003B0004FEA360645EAC0754FEA0752001B61EB6B
:1003C0000201001C41F5801149084FEA3000001974
:1003D000514132462B4603B0BDE8F04F00F02BBA36
:1003E0000098012240000023D0EB020263EBE0738F
:1003F000009821464FEAE074B8EB000061EB04017D
:10040000E9E783F000435BE781F0004158E72DE91D
:10041000FE4F81EA030404F0004421F000410094FF
:100420004FF0000B23F0004350EA01045ED052EA83
:1004300003045BD0C3F30A54C1F30A552C44A4F25D
:10044000F3340194A0FB0254C1F3130141F4801171
:10045000C3F3130343F4801301FB024400FB034E78
:10046000840A970A44EA815447EA8357A4FB076841
:1004700002958D0A05FB07854FEA932C04FB0C546B
:100480002705029D4FEA065847EA1637B5EB0805DF
:100490006EEB070C870E920E47EA811742EA831231
:1004A000A7FB0201B6EB0B0164EB00042B0D43EA42
:1004B0000C335E1844EB1C50DA465146E7FB020150
:1004C000C5F313044FEA0B3343EA14534FEA0432E3
:1004D000019C43EA0603A4F10C040294009CCDE9BC
:1004E00000B400F0B7F903B0BDE8F08F002001467A
:1004F000F9E72DE9F04D81EA030404F0004B21F007
:10050000004514464FF0000A23F0004150EA05026E
:1005100020D054EA01021DD0C5F30A570246C5F3A4
:100520001303C1F31300C1F30A5640F4801543F4DA
:100530008013A7EB0608101BD64608F2FD3873EBB4
:10054000050002D308F1010801E092185B41B8F1FF
:10055000000F03DA00200146BDE8F08D00204FF4C3
:100560008011064684460EE0171B73EB050705D382
:10057000121B63EB050306434CEA010C49084FEAE2
:10058000300092185B4150EA0107EDD152EA0300B6
:1005900012D082EA040083EA0501084305D0101B4B
:1005A000AB4106D20122002306E000224FF00043B7
:1005B00002E06FF0010253101AEB06004CEB0851F9
:1005C00010EB0A0041EB0B01BDE8F04D00F033B930
:1005D00000F0004230F000400AD0C10D01F560711A
:1005E000C0F3160042EA0151C208400711437047A8
:1005F00000200146704701F0004330B421F0004173
:1006000050EA010206D00A0DA2F56072C1F313018F
:10061000002A02DC30BC00207047440F44EAC104C9
:10062000C100E01830BC00EBC25000F0CDB830B5CE
:100630000B46014600202022012409E021FA02F5A0
:100640009D4205D303FA02F5491B04FA02F528443A
:10065000151EA2F10102F1DC30BD202A04DB203A94
:1006600000FA02F1002070479140C2F1200320FA05
:1006700003F3194390407047202A04DB203A21FA03
:1006800002F00021704721FA02F3D040C2F12002AB
:100690009140084319467047202A06DBCB17203AC1
:1006A00041FA02F043EAE07306E041FA02F3D04077
:1006B000C2F1200291400843194670470FB400234D
:1006C00000B589B00CA900910B996FF00042CB6086
:1006D0001E4B06931E4B07930423CDE901321D4A9E
:1006E000089202466B46002000F0BAFA09B05DF8A5
:1006F00014FB70B586B006464FF0FF300091CDE98F
:100700000101002015460C4604903246694604A8B3
:10071000FFF7D4FF02460498211825B108B1084616
:1007200000E020462860049800280DD0002A02DD51
:100730000098884208D0081B0094CDE90104324695
:10074000694604A8FFF7BAFF06B070BD990E00080D
:10075000B70E0008250B00082DE9F04791460F461B
:1007600080460446002614F8015B2DB100F0D6F94E
:100770000068405DC007F6D12B2D02D02D2D18D07A
:10078000641E4A463946204600F0A6FB27B1396868
:10079000A14201D1C7F8008071054FF002040BD5CA
:1007A0004042002803DD04F093FA0460A007BDE88E
:1007B000F08746F48066E4E70028F8DA04F088FA67
:1007C00004606FF00040F2E70029A8BF7047401CAA
:1007D000490008BF20F00100704710B4B0FA80FC57
:1007E00000FA0CF050EA010404BF10BC704749B194
:1007F000CCF1200421FA04F411FA0CF118BF012104
:1008000021430843A3EB0C01CB1D4FEA00614FEAE3
:10081000102042BF002010BC704700EBC3501044B2
:100820000029A4BF10BC7047401C490008BF20F03D
:10083000010010BC704710B5141E73F1000408DAF3
:10084000401C41F1000192185B411A4301D120F094
:10085000010010BD2DE9F04D92469B4611B1B1FA51
:1008600081F202E0B0FA80F220329046FFF7F5FE06
:1008700004460F4640EA0A0041EA0B0153465A4635
:10088000084313D0114653EA010019D0C8F14002C1
:100890005046FFF7F1FE05460E4650465946424681
:1008A000FFF7DBFE084305D0012004E0204639466F
:1008B000BDE8F08D0020054346EAE0762C4337433F
:1008C0000A986305E40AA0EB08000022FD0A44EA46
:1008D00047540A3002D500200146E9E70105101906
:1008E0006941DDE9084500196941BDE8F04DA2E71D
:1008F00070B521F0004303430CD0C1F30A55002426
:10090000D5EB040564EB0403D617AD1AB34102DB43
:100910000020014670BD201841EB025170BD2DE949
:10092000F04D00231A461B1A8A4103DB00200146C2
:10093000BDE8F08DC1F30A52C1F3130141F48015F3
:100940004FF0000BD10702D100186D41521E002755
:10095000044640F2FF11384601EB620A3E468046EB
:10096000024600204FF48011FFF786FEC219714144
:10097000BB1846EB0100B4EB030C75EB000C04D381
:10098000E41A65EB000517460E46241908F101002C
:100990006D4180463428E3DDF91946EB0600091B5A
:1009A000A84103D24FF0FF32134601E00022134664
:1009B0001BEB070046EB0A51BDE8F04DFFF73BBFCC
:1009C0002DE9FE4FC3F30A5701F000450024C1F39F
:1009D0000A56C3F31303C1F3130143F4801312EB5C
:1009E000020AA64641F48011009543EB030CA7F1DF
:1009F000010B16E0B0EB0A0061EB0C01071E71F170
:100A0000000707DA4FF00008D0EB080085F000453A
:100A100068EB0101171A73EB0107EBD3761E001880
:100A200049415E45F6DA50EA010209D0CDE900E518
:100A3000002213460296FFF70DFF03B0BDE8F08FCA
:100A400020460099F9E70EB5C10F80EAE07008442E
:100A5000CA07002140F233438DE80E000A460B46D8
:100A6000FFF7F8FE03B000BDC1F30A52C1F3130152
:100A700040F2FF3341F480119A4202DA002001462D
:100A8000704740F233439A42A2F2334202DC5242B0
:100A9000FFF7F2BDFFF7E1BD30B5041E71F10004B0
:100AA00004DB4FF00044404264EB0101141E73F17B
:100AB000000405DB1C464FF00043524263EB040385
:100AC0008B4208BF824230BD30B5041E71F1000474
:100AD00004DB4FF00044404264EB0101141E73F14B
:100AE000000405DB1C464FF00043524263EB040355
:100AF000994208BF904230BD064C074D06E0E068C1
:100B000040F0010394E8070098471034AC42F6D354
:100B1000FFF75CFBFC9D00081C9E00080048704726
:100B2000AC9D000810B50446FFF7F8FF0068005DB3
:100B300000F0010010BD00002DE9FF4F087883B0E0
:100B40009946FF2805D0491C2D2804D000240020F8
:100B500008E000200BE00124F9E700EB800003EB44
:100B60004000491C0B78FF2BF7D104B14042002311
:100B70000293147819461D462D2C01D02B2C04D13C
:100B8000521C2D2C13D000240294AA461478FF2C5A
:100B90000FD00A25A3FB057801FB05814FF0000C5F
:100BA00003FB0C11521CE3194AEB0101EEE701248F
:100BB000EAE7814453EA010002D019F5C87F06DA5A
:100BC00003980021C0E9001107B0BDE8F08F0025AF
:100BD000AE4E2F46DFF8B882184600F0DAF9CDE9BC
:100BE0000001B9F1000002DAC9F1000400E0044696
:100BF0000023A74A1AEB030B42EB045A12E0E0076A
:100C000007D02A46334638464146FFF700FC0746E0
:100C100088462A46334610461946FFF7F8FB054634
:100C20000E466410002CEAD1DDE90001B9F1000F95
:100C30005A46534606DAFFF75CFC3A464346FFF74E
:100C400058FC05E0FFF7E3FB3A464346FFF7DFFBBE
:100C5000029A0AB181F00041039AC2E90001B3E7A8
:100C60002DE9FF4F1F468DB0D7E901464FF0FF3801
:100C70002E2045464FF000090B90B9696D1C0E9867
:100C80008847396A824688470028F6D1BAF1FF3F83
:100C90000AD024F4D064002E11DDBAF12B0F08D055
:100CA000BAF12D0F0BD102E0404611B08DE744F4AC
:100CB0008064B9696D1C0E9888478246761E694625
:100CC000600501D52D2000E02B208DF8000001F1FA
:100CD000010B0DF1200809E0B9696D1C0E988847D9
:100CE00082460F9844F40074761E0560002E02DDE3
:100CF000BAF1300FF0D00B998A453ED144F0800410
:100D000006E00F99681CA9F1010944F40074086019
:100D1000B9696D1C761E0E98884782463028F0D03F
:100D20002BE00B998A4505D1200603D444F08004BA
:100D3000761E18E0504605F007FC08B30DF11301CC
:100D4000761E44F400748B4508D2AAF130000BF8EB
:100D5000010B200607D5A9F1010003E0200602D40B
:100D600009F101008146A00502D50F99681C0860B1
:100D7000B9696D1C0E9888478246002ED1DC53E07D
:100D8000002E51DDBAF1650F02D0BAF1450F4BD1FB
:100D9000A00549D5B9696D1C24F44074761E0E98DF
:100DA00088478246002E0CDD2B2804D0BAF12D0F87
:100DB00007D144F48074B9696D1C0E988847824647
:100DC000761EE00501D52D2100E02B2108F8011B3E
:100DD000CDF82C8021E00DF12901761E44F4007439
:100DE00088450CD2AAF1300010F0FF0088F800000E
:100DF00002D10B99884509D908F1010806E0E00500
:100E000001D5244801E042F20F708146B9696D1C9A
:100E10000E98884782460F980560002E04DD5046E4
:100E200005F092FB0028D6D1F9690E988847FF207B
:100E30008BF8000088F800000020069007904B46D1
:100E40006A4608A906A8FFF777FEA00502D46FF04E
:100E500001002AE714F0240F0AD0E00714D1DDE9DD
:100E600006123868031D3B600068C0E900120BE001
:100E7000DDE90601FFF7BFFB0146E00704D1386852
:100E8000021D3A600068016028460EE70000144029
:100E90000000F03FF1D8FFFF426842B1016811F84D
:100EA000013B23B1521EC0E90012184670470121D0
:100EB000C160881E704742685AB1C368016843B96F
:100EC00083688B4205D0491E521CC0E900120020E5
:100ED00070474FF0FF3070472DE9F05F8246007891
:100EE000002715468B460AF10104B946302801D087
:100EF0009DB113E014F8010B0127782803D058287E
:100F000001D045B10AE00DB1102D07D10027102501
:100F100014F8010B02E0082500E00A250026B0467F
:100F20000EE005FB080005FB06F1012701EB10466A
:100F30001FFA80F8B6F5803F00D3B94614F8010BCC
:100F4000294600F018F80028EBDABBF1000F05D0B5
:100F50000FB1641E00E05446CBF80040B9F1000F19
:100F600006D003F0B5FE02210160C81EBDE8F09F67
:100F700048EA0640FAE73A2800D2303820F020024A
:100F8000412A01D3A2F13700884201D34FF0FF304C
:100F900070470EB540F2334202920022CDE90022A2
:100FA0001346FFF757FC03B000BD0000464910B5DB
:100FB0004A6822F440324A604A6843681A434A60E9
:100FC00001684A6822F480724A6001684A680369CD
:100FD00042EA03224A6001684A6822F040724A608D
:100FE00001684A6883681A434A6001688A6822F483
:100FF00000628A6001688A68C3681A438A60816AED
:101000006FF07062D14201688A6822F070628A6073
:1010100001688A680CD0836A1A438A6001688A680A
:1010200022F040528A6001688A68C36A1A4301E06C
:1010300022F040528A6001688A6822F002028A60C7
:1010400001688A68037E42EA43028A6090F82010B1
:10105000002901684A680FD042F400624A600168C2
:101060004A6822F460424A6001684A68174C436A41
:1010700004EB43331A4301E022F400624A60016842
:10108000CA6A22F47002CA620168CA6A838B104C71
:1010900004EB03531A43CA6201688A6822F400729F
:1010A0008A6001688A6890F8303042EA43228A6098
:1010B00001688A6822F480628A6001688A684069EF
:1010C00042EA8020886010BD0023014000E0FFFF5D
:1010D0000000F0FFFEE7000010B5034800F0D7FD68
:1010E000BDE8104006F0DCBA400D002010EE100AFA
:1010F000084901EB600100EE901A0749A1EB60007E
:1011000001EE100A40EE010AB6EE000A20EE800A57
:101110007047000000F8BC1FDF59375F7047704709
:1011200001490860704700000C3C024070B506465B
:10113000002529B1012927D0022928D04FF4407574
:1011400000F080F809281ED1124C206820F440706D
:101150002060206828432060206820F0F80020608C
:10116000206846F0020108432060206840F4803087
:10117000206000F067F8216821F0020121602168F9
:1011800021F0F801216070BD4FF48075D8E74FF46D
:101190000075D5E7103C02400D4909200A68D203CA
:1011A00001D5012070470A68D20601D50620704794
:1011B0000A68D20501D5022070470A6812F0E00FD4
:1011C00001D00720704709688907FBD508207047C0
:1011D0000C3C02400248016841F000410160704748
:1011E000103C024070B50D46064600F02BF8092869
:1011F00013D10A4C206820F440702060206840F42D
:1012000000702060206840F001002060356000F030
:1012100019F8216821F00101216070BD103C0240E5
:1012200005480068002805DA034804490C380160C5
:101230000349016070470000103C024023016745EC
:10124000AB89EFCD08B509208DF80000FFF7A4FFAA
:101250008DF800009DF800000128F7D09DF80000EF
:1012600008BD0000DFED020A30EEC00A00F002B84F
:10127000DB0FC93FDFED0F0A01E030EE200AB5EECB
:10128000C00AF1EE10FAF8D30B4910EE100A8842AA
:1012900002DB30EE600AF8E7DFED080A084920EECD
:1012A000200ABDEEC00A10EE100A01EB800090ED9E
:1012B000000A7047DB0FC940DB0FC94083F9A24227
:1012C000289400080148406870470000840000200E
:1012D000014890ED870A704784000020014890ED96
:1012E000CB0A704784000020014890ED890A7047BE
:1012F00084000020034890ED890AD0ED8A0A30EE80
:10130000200A704784000020014890EDCA0A704707
:10131000840000200148006870470000840000201D
:1013200070B590F83C206A4C012A19D0012280F84F
:101330003C200A6807250368092A13D9DE680A3A9F
:1013400002EB42029540AE43DE600A788B680A3AAF
:1013500002EB420293400268D5682B43D36010E051
:10136000022070BD1E6902EB42029540AE431E6131
:101370000A788B6802EB42029340026815692B439E
:1013800013610268936B23F4401393630268936BB9
:101390000D8A504E06EB05552B4393630A790B7C5F
:1013A000D21AD21C02EB82021F2393400268956B73
:1013B0009D4395630A790B7CD21A0B88D21C02EBF1
:1013C00082029BB293400268956B2B4393638A69B8
:1013D000A2420268936823F47023936002689368C2
:1013E0000CD08C69234393600268936823F4401304
:1013F000936002689368CC69234301E023F44013AF
:1014000093604A7D002A0268536802D043F48063E7
:1014100001E023F4806353600A7D002A0268536868
:1014200002D043F4805301E023F4805353604A68B0
:10143000012A16D0022A1FD0032A026827D0136A75
:101440006FF30B0313620268136ACC6823431362C1
:10145000224B0468204A9C4227D10C68122C20D0D1
:1014600023E0026853696FF30B0353610268536909
:10147000CC6823435361EBE7026893696FF30B0376
:10148000936102689369CC6823439361E0E7D36971
:101490006FF30B03D3610268D369CC682343D36134
:1014A000D6E7546844F48004546004689C420AD12E
:1014B0000968A1F18053123B01D0112903D1516871
:1014C00041F400015160002180F83C10084670BDD5
:1014D00001000F000000F0FF002301400020014048
:1014E00008B5002200920368521F1A60012911D02A
:1014F00002290CD0032906D0042901D0009808BD88
:101500000068806C01E00068406C009008BD0068D5
:10151000006CFAE70068C06BF7E7000018B500221E
:10152000009290F83C10012907D0012180F83C106E
:1015300001688B68DB0702D011E0022018BD8B68C0
:1015400043F001038B602649264B0968B1FBF3F198
:1015500001EB410100E0491E00910029FBD1016827
:101560008B68DB0732D0036C42F20104A34343F4DF
:1015700080530364036CDB0500D4426480F83C2094
:101580006FF004020A60184949680068C90681685A
:1015900001F440110FD0B9B100214268134B42F35E
:1015A0008022521C984219D1C1B1BAB1816841F46C
:1015B0008001816012E029B10021426842F380225B
:1015C000521CF1E70121F8E70121E6E7016C41F047
:1015D00010010164416C41F001014164002018BD1B
:1015E0007000002040420F00002301400020014015
:1015F00078B50024009490F83C20012A19D00122EB
:1016000080F83C200A6807250368092A13D9DE6898
:101610000A3A02EB42029540AE43DE600A788B68DC
:101620000A3A02EB420293400268D5682B43D3602A
:1016300010E0022078BD1E6902EB42029540AE43E5
:101640001E610A788B6802EB4202934002681569BA
:101650002B4313614A681F25072A13D203685E6B68
:10166000521E02EB82029540AE435E630A8893B23B
:101670000A79521E02EB820293400268556B2B439B
:10168000536327E003680D2A12D21E6BD21F02EBB0
:1016900082029540AE431E630A8893B20A79D21F34
:1016A00002EB820293400268156B2B43136311E037
:1016B000DE6A0D3A02EB82029540AE43DE620A8892
:1016C00093B20A790D3A02EB820293400268D56A1E
:1016D0002B43D3621B4B0568194A9D420AD10D6802
:1016E000122D07D1556825F400055560556845F45D
:1016F0008005556005689D421DD1134D0B68AB42B6
:1017000001D0112B17D1536823F480035360536821
:1017100043F4000353600968A9420CD10B490C4AF9
:101720000968B1FBF2F101EB8101490000E0491EBB
:1017300000910029FBD180F83C40002078BD0000DA
:101740000023014000200140120000107000002022
:1017500040420F000068C06C704770B504004FF045
:10176000000603D0206C002510B107E0012070BDF9
:10177000204600F01DF8656484F83C50206CC006DB
:1017800010D4206C20F4885040F0020020642046E1
:10179000FFF70CFC6564206C20F0020040F00100B3
:1017A000206400E0012684F83C50304670BD000003
:1017B000F0B587B0044614216846FEF769FD364847
:1017C000DFF8D0C021680025334B143801270324EB
:1017D000324A334E614518D1196841F4807119605D
:1017E000196801F480710591016841F004010160FC
:1017F000016801F004010591016841F002010160F6
:10180000006800F0020005901CE0DFF898C0614518
:1018100028D1196841F400711960196801F4007148
:101820000591016841F004010160016801F00401C3
:101830000591016841F0020101600068022700F093
:1018400002000590009769461046CDE9014500F079
:10185000AFFC694630460097CDE9014500F0A8FC91
:1018600007B0F0BD104A9142FAD1196841F4806185
:101870001960196801F480610591016841F0010166
:1018800001600068009700F0010005906946074874
:10189000E2E7000000200140443802400008024016
:1018A00000040240002101400022014000000240EB
:1018B00018B50022009290F83C10012907D00121B0
:1018C00080F83C1001688B68DB0702D011E0022031
:1018D00018BD8B6843F001038B602E492E4B0968BD
:1018E000B1FBF3F101EB410100E0491E0091002939
:1018F000FBD101688B68DB0742D0036C40F20164C6
:10190000A34343F4807303644B685B0505D5036C04
:1019100023F4005343F480530364036CDB0404D5C5
:10192000436C23F00603436400E0426480F83C20EB
:101930001A4A6FF022030B6051680068CA06184902
:1019400006D0884224D1816811F0405F13D01FE097
:101950008842F8D0134A904203D1D1F80423D2062A
:10196000F1D0114A904213D1D1F8041301F01F01B4
:101970001029E8D30CE0816841F08041816007E0E4
:10198000016C41F010010164416C41F001014164BE
:10199000002018BD7000002040420F0000230140CD
:1019A00000200140002101400022014090F8202049
:1019B000012A07D0022A05D0416A41F48021416200
:1019C00001207047006842690A4342610020704765
:1019D000F0B590F820500468A468012D05D0022DC0
:1019E00003D0416A41F4802153E014F0406F01D1EB
:1019F000E5004BD5C4F30164022C03D9416A41F4DC
:101A0000000146E00125A5401D608B684FF4C075BC
:101A10009BB1CE6833434E6843EAC603066805EBC4
:101A20000417F3514FF4C273076803EB04130E69F4
:101A3000FE50097D012905D009E00E88CB6843EAF4
:101A40004653EBE70168CE5846F48076CE501179C4
:101A5000D2F805304FF4C67641EA0323016806EB5D
:101A600004168B511178D2F801204FF4C47341EA67
:101A70000221026803EB0413D150006805EB041146
:101A8000425842F0010242500020F0BD416A41F448
:101A9000001141620120F0BD10B590F82020012A0C
:101AA00007D0022A05D0416A41F480214162012019
:101AB00010BD3B48D0F8002242F00102C0F80022DD
:101AC000D0F8002222F47C52C0F80022D0F8002284
:101AD0004B6A42EA0322C0F800220A7D02F01F038B
:101AE00001229A40D0F81C329343C0F81C32CB69D3
:101AF000B3B9D0F80C329343C0F80C328C894B68E0
:101B000064F31F434C6900EBC404C4F840320C89F1
:101B10000B6864F31F434C6900EBC404C4F84432FF
:101B2000CB69012B16D1D0F80C321343C0F80C321C
:101B30000C884B6864F31F434C6900EBC404C4F881
:101B400040320C89CB6864F31F434C6900EBC4043A
:101B5000C4F844328B69002BD0F804320ED0134302
:101B6000C0F804320B69002BD0F8143208D01343AC
:101B7000C0F81432096A012904D008E09343EFE762
:101B80009343F5E7D0F81C121143C0F81C12D0F8AB
:101B9000001221F00101C0F80012002010BD000069
:101BA00000640040704730B590F82040012C05D00B
:101BB000022C03D0416A41F480215DE004680029D1
:101BC00055D02469A40754D04FF4D874056804EBA9
:101BD00001142D5915F00405956005682D594ED056
:101BE000ED08556005682C5904F00204D4604FF4E8
:101BF000DA74056804EB01142D5905F00F05156121
:101C000005682D59C5F30725956105682C59240CE5
:101C100054614FF4DC72046802EB0112A4581C708A
:101C20000468A458240A5C700468A458240C9C70AE
:101C30000468A258120EDA704FF4DE72046802EBE8
:101C40000112A4581C710468A458240A5C71046829
:101C5000A458240C9C710468A258120EDA71006812
:101C600081B1016941F020010161002030BDE468CB
:101C7000A8E7416A41F400114162012030BD6D0DB9
:101C80001560AFE7C16841F02001C160EDE72DE9C3
:101C9000F05F0546006800244669D0F80490876824
:101CA000D0F80CB0D0F810A0D0F81880F10748D0C8
:101CB000F90714D001218160B80703D5284600F048
:101CC000E0F90CE0780702D54FF4006407E038072C
:101CD00002D54FF4805402E0284600F0D1F9F8050F
:101CE00016D529684FF480708860B80503D528465A
:101CF00000F0C9F90CE0780502D544F4005407E07F
:101D0000380502D544F4804402E0284600F0BAF9D0
:101D1000F80316D529684FF480308860B80303D5DE
:101D2000284600F0B2F90CE0780302D544F40044F0
:101D300007E0380302D544F4803402E0284600F07E
:101D4000A3F9300707D55FEACB6004D529681020D6
:101D500044F40074C86070074FF0080707D55FEAC5
:101D60000B7004D52868C760284600F059F9B00701
:101D700006D52868C068800702D0284600F051F9CF
:101D8000700607D55FEACA6004D52968102044F4BC
:101D900080640861B00607D55FEA0A7004D5286838
:101DA0000761284600F03EF9F00606D5286800696C
:101DB000800702D0284600F036F9B00308D55FEA64
:101DC000C96005D5296810204860284600F02CF924
:101DD000F00307D55FEA097004D5286847602846F4
:101DE00000F054F9300446D55FEA497040D5F0055B
:101DF00004D55FEAC87001D044F00104B00504D5F1
:101E00005FEA887001D544F00204700504D55FEAEA
:101E1000487001D544F00404300529D518F0700F3E
:101E200026D008F07000402815D006DC102809D014
:101E300020280AD0302816D10AE050280ED0602879
:101E400011D10EE044F008040DE044F010040AE063
:101E500044F0200407E044F0400404E044F080042F
:101E600001E044F480742868816921F07001816187
:101E7000296804204860002C05D0686A2043686205
:101E80002846FFF78FFEBDE8F09F70B5040003D031
:101E900094F8200010B104E0012070BD204600F04D
:101EA00081F82068016841F00101016000F06EFADC
:101EB0000546052604E000F069FA401B0A2811D8FF
:101EC00020684068C007F6D02068016821F0020150
:101ED000016000F05BFA05460BE000F057FA401B8A
:101EE0000A2806D9606A40F40030606284F82060F5
:101EF000D2E7206840688007EFD4207E0128206860
:101F000001683DD021F080010160607E01282068D9
:101F1000016838D021F040010160A07E01282068CE
:101F2000016833D021F020010160E07E01282068A3
:101F300001682ED041F010010160207F0128206847
:101F4000016829D021F008010160607F0128206824
:101F5000016824D021F004010160D4E902010843A2
:101F6000D4E90412114308436168491E08432168FB
:101F7000C86100206062012084F82000002070BD4C
:101F800041F08001C0E741F04001C5E741F0200188
:101F9000CAE721F01001CFE741F00801D4E741F092
:101FA0000401D9E710B586B0044614216846FEF74F
:101FB0006FF918492068884229D117480021026822
:101FC00042F000720260006800F000700590124854
:101FD0001038026842F002020260006800F002005D
:101FE00005904FF4407000900220CDE901010320DC
:101FF0000390092004906946084800F0D9F80022AF
:102000000121142000F032FA142000F021FA06B069
:1020100010BD00000064004040380240000402404F
:102020007047704770477047704770B5044690F826
:102030002000012804D0606A40F40020606217E0AC
:10204000022084F820002068016821F0010101606D
:1020500000F09CF905460DE000F098F9401B0A28B5
:1020600008D9606A40F400306062052084F82000DE
:10207000012070BD20684068C007EDD1606270BD6E
:1020800070477047704770477047704770472DE939
:10209000F0410446876D00F079F9054694F8350063
:1020A0000026022806D08020606584F83460012074
:1020B000BDE8F0812068016821F016010160206808
:1020C000416921F080014161206C08B9A06C20B108
:1020D0002068016821F0080101602068016821F092
:1020E000010101600CE000F051F9401B052807D9FF
:1020F00020206065032084F8350084F83460D7E739
:1021000020680068C007EED194F85C103F2088403A
:10211000B860012084F8350084F834600020C7E7F7
:1021200090F83510022903D08021416501207047C5
:10213000052180F835100068016821F00101016077
:102140000020704770B5044600F020F90546601C79
:1021500002D004480078044400F018F9401BA04263
:10216000FAD370BD6400002000EB4001C1EBC01049
:102170004FF6FF7101EAC000AFF3008070B54FF673
:10218000FA710A4D081A84B228684462284600F0A1
:1021900017FF4FF6F971286801E0426A94B28C4249
:1021A000FBD3BDE87040014800F086BF500E002010
:1021B0002DE9F84FDFF890910022A9F1040B0327D5
:1021C0004FF00F0C09F1040AABF1040E01250B6866
:1021D00095402B40AB426ED10C7904F00304012CE6
:1021E00001D0022C15D18668540007FA04F826EABB
:1021F0000806D1F80C8008FA04F848EA0608C0F886
:1022000008804468AC430D79C5F30015954025431B
:1022100045600C79E443A40708D0C568540007FA68
:1022200004F6B5438E68A6402E43C6600C7904F0D0
:102230000304022C11D1D40800EB8406356A54073C
:10224000E40E0CFA04F825EA0805D1F8108008FA23
:1022500004F848EA0508C6F820800568540007FA23
:1022600004F6B5430E7906F00306A6402E43066039
:102270004C6814F4403F61D0344C256845F48045E7
:102280002560246822F0030504F480440094304C57
:1022900005EB0408D8F808589407260F0CFA06F442
:1022A000A5432C4CA04201D100241FE02A4CA0429F
:1022B00002D101241AE041E0284CA04201D10224BD
:1022C00014E0274CA04201D103240FE0254CA0428A
:1022D00001D104240AE0244CA04201D1052405E0E8
:1022E000224CA04201D1062400E00724B4402C4334
:1022F000C8F80848D9F800404D464E689C43F6029D
:1023000000D51C432C60DAF8004055464E689C43CB
:10231000B60200D51C432C60DBF800405D464E68D9
:102320009C43B60300D51C432C60DEF80040754684
:102330004E689C43F60300D51C432C60521C102AA7
:10234000FFF444AFBDE8F88F083C01404438024038
:10235000003001400000024000040240000802403A
:10236000000C02400010024000140240001802401D
:10237000426921EA02030A4043EA0241816170474F
:102380000AB1816170470904FBE7000001488068D9
:102390007047000064000020024881680278114400
:1023A00081607047640000200B4810B5016841F45B
:1023B00000710160016841F480610160016841F4CD
:1023C00080710160032000F071F8002000F006F831
:1023D00000F024F8002010BD003C024070B50D4D07
:1023E00004464FF47A712878B1FBF0F00A49096885
:1023F000B1FBF0F000F0EFFC48B9102C07D200223E
:102400002146501E00F032F800206C6070BD0120A3
:1024100070BD000064000020700000200B4882B0F6
:10242000016841F480410160006800F48040009040
:102430000648001F016841F080510160006800F00B
:1024400080500090052002B000F030B844380240BF
:10245000002809DB00F01F020121914040098000A3
:1024600000F1E020C0F8001170470000F0B40E4BFE
:102470001B68C3F30223C3F10704042C00D904240E
:102480001D1D072D01D2002300E0DB1E012606FAE8
:1024900004F56D1E0D409D409E40761E164045EA97
:1024A0000601F0BC02F003BC0CED00E0064A00F0AF
:1024B000070110684FF6FF03184040EA0120034966
:1024C00008431060704700000CED00E00000FA05C2
:1024D0002DE9F8431748016841F080510160006818
:1024E000DFF8548000F0805001270090C8F8407059
:1024F000FFF74CFF04464FF47A75104E04E0FFF7E7
:1025000045FF001BA8420DD87068C003F7D5C8F876
:102510004470FFF73BFF044607E0FFF737FF001B5F
:10252000A84202D90320BDE8F88370688003F4D57F
:102530000020F8E74038024000000E4200700040E2
:102540002DE9F0470D46040065D0DFF81491D9F865
:102550000000EFB200F00F00A84207D289F8007027
:10256000D9F8000000F00F00A84254D120683D4E79
:10257000810712D5400703D5306840F4E050306041
:102580002078000703D5306840F460403060306840
:10259000A16820F0F000084330602078C0072DD0FB
:1025A000304960680839012812D0022813D0032866
:1025B00011D00968890700292DDA316821F003015B
:1025C00001433160FFF7E2FE804641F2883A0EE0B7
:1025D00009688903EFE709688901ECE7FFF7D6FE90
:1025E000A0EB0801514502D90320BDE8F08730680F
:1025F000616800F00C00B0EB810FEFD1D9F800104A
:10260000484601F00F01A94207D90770006800F0A1
:102610000F00A84201D00120E7E72078400705D548
:102620003068E16820F4E05008433060207800070B
:1026300006D53068216920F4604040EAC10030606E
:1026400000F038F83168084AC1F30311515CC84002
:102650000649086006480068FFF7C0FE0020C4E78E
:10266000003C024008380240289C0008700000200E
:10267000680000200448054900680968044AC1F35D
:102680008221515CC8407047700000200838024029
:10269000389C00080448054900680968044AC1F3E9
:1026A0004231515CC8407047700000200838024039
:1026B000389C0008224810B5006810F00C01214831
:1026C00015D04310042911D01D4C241F08290FD008
:1026D0000C290CD1216801F03F022168490221D563
:1026E0002068C0F38810A0FB030120E0184610BD4D
:1026F000216801F03F022168490205D52068C0F336
:102700008810A0FB030104E02168C1F38811A1FB3C
:1027100000010023FDF772FD2168C1F30141491C4E
:1027200049000AE02168C1F38811A1FB00010023E0
:10273000FDF764FD2168C1F30271B0FBF1F010BD3B
:10274000083802400024F4002DE9F84F040078D046
:102750002078DB4EC007A6F104054ED0301D01687D
:10276000C1F3810101290FD00168C1F38101022960
:1027700002D13168490207D40068C0F38100032800
:1027800009D13068400206D52868800335D56068D5
:102790000028DCD031E06068B0F5803F10D0B0F5A3
:1027A000A02F286810D020F480302860286820F4FA
:1027B000802028606068A0B1FFF7E8FD07460CE0C4
:1027C000286840F48030F4E740F480202860F7E780
:1027D000FFF7DCFDC01B642875D828688003F7D597
:1027E0000BE0FFF7D3FD074604E0FFF7CFFDC01B6A
:1027F0006428F1D828688003F7D42078DFF8C4A2D1
:1028000080074FF0000B44D5AD48001D016811F062
:102810000C0F0FD00168C1F38101022902D1316888
:10282000490207D50068C0F3810003280AD1306847
:10283000400207D42868800715D5E068012800D138
:1028400011E038E1E068B0B10120CAF80000FFF7FC
:102850009DFD074604E0FFF799FDC01B0228BBD889
:1028600028688007F7D52868216920F0F80040EA39
:10287000C10028600DE0CAF800B0FFF787FD0746E9
:1028800004E0FFF783FDC01B02281CD828688007DE
:10289000F7D42078000726D5DFF824828A486169BA
:1028A00008F1700881B101210160FFF76FFD074653
:1028B00004E0FFF76BFDC01B022804D8D8F8000025
:1028C0008007F6D50FE089E0C0F800B0FFF75EFDA5
:1028D000074604E0FFF75AFDC01B02287ED8D8F84F
:1028E00000008007F6D42078400769D574484FF07F
:1028F00000093C300068C0000BD471483C300168CE
:1029000041F08051016000684FF0010900F08050F3
:1029100000906E480168C90511D40168804641F4F1
:1029200080710160FFF732FD074604E0FFF72EFDDE
:10293000C01B022852D8D8F80000C005F6D5604F59
:10294000A0686C3701280FD00528386810D020F017
:1029500001003860386820F004003860A068B8B121
:10296000FFF714FD80460FE0386840F00100F4E7FF
:1029700040F004003860F7E7FFF708FDA0EB08011E
:1029800041F28830814263D838688007F4D50EE080
:10299000FFF7FCFC804607E0FFF7F8FCA0EB08011E
:1029A00041F28830814253D838688007F4D4B9F1B5
:1029B000000F05D042483C30016821F08051016091
:1029C000A069B0B33E49091D0968C1F3810102291C
:1029D00045D00228CAF860B005D000E038E0FFF723
:1029E000D5FC044637E0FFF7D1FC074604E0FFF7CB
:1029F000CDFCC01B02282BD828688001F7D4F4E94D
:102A000007010843E168324A490802EB0141A26824
:102A100041EA82110843217C40EA0160217D40EABD
:102A2000017030600120CAF86000FFF7AFFC044677
:102A300005E042E0FFF7AAFC001B022808D828683E
:102A40008001F7D539E0FFF7A1FC001B022802D96D
:102A50000320BDE8F88F28688001F4D42DE0012818
:102A6000F7D03068E26900F48001914223D1226AF4
:102A700000F03F0191421ED147F6C071626A0140E9
:102A8000B1EB821F17D1A26A4FF0FF3300F440313F
:102A900003EB5202B1EB024F0DD194F82C2000F061
:102AA0007061B1EB026F06D194F8301000F0E04095
:102AB000B0EB017F01D00120CBE70020C9E7000087
:102AC0000438024000004742800E47420070004038
:102AD0000000FFFF70B5040009D0606A002540B116
:102AE00025616561A56294F8510040B10CE00120B8
:102AF00070BD6068B0F5827FF4D0E561F2E784F8DC
:102B00005050204600F044F8022084F8510020681C
:102B1000016821F040010160A088218900F48270E1
:102B200001F404410843A18901F400610843217CB8
:102B300001F002010843217D01F001010843218BCE
:102B400001F400710843217F01F03801084394F833
:102B5000201001F080010843218D01F40051084349
:102B600021680860A069042101EA104094F824104B
:102B700001F010010843216848602068C16921F410
:102B80000061C1616565012084F85100002070BDBD
:102B900010B586B0044614216846FDF779FB144948
:102BA0002068884221D113480021026842F4004283
:102BB0000260006800F4004005900E48103802687A
:102BC00042F004020260006800F0040005904FF437
:102BD000E05000900220CDE901010320039006207F
:102BE000049069460448FFF7E3FA06B010BD000000
:102BF000003C004040380240000802402DE9F84FF8
:102C0000044690F8500001250A9E1F4692468B46C6
:102C10004FF0000801280ED0012084F85000FFF783
:102C2000B5FB814694F85100616801280CD0B1F5DC
:102C3000827F07D102E00220BDE8F88FA16809B9C0
:102C4000042801D00220B6E0BBF1000F27D0BAF172
:102C5000000F24D01FB394F85100042802D005209F
:102C600084F8510000206065C4F838A0E787A78782
:102C7000C4F830B0E786A7862064606420680168E5
:102C8000490603D4016841F040010160E068B0F5F5
:102C9000006F606805D0E8B3012F43D079E00120D0
:102CA00089E008B1012F34D1206B21680088C86009
:102CB000206B801C2063E08E401EE08629E02068A7
:102CC000816889070DD5E18E59B1012D09D1216B9C
:102CD0000988C160206B801C2063E08E401EE08666
:102CE000002520688168C9070BD0E18F49B1C06811
:102CF000A16B0880A06B801CA063E08F401EE08762
:102D00000125FFF743FBA0EB0900B04201D3701C83
:102D100050D100E006E0E08E0028D0D1E08F0028FE
:102D2000CDD13CE0206B216800780873206B401CFB
:102D30002063E08E401EE0862BE0206881688907D2
:102D40000DD5E18E59B1012D09D1216B097801739F
:102D5000206B401C2063E08E401EE086002520682A
:102D60008168C9070BD0E18F49B1C068A16B0870B9
:102D7000A06B401CA063E08F401EE0870125FFF799
:102D800005FBA0EB0900B04202D3701C01D011E09A
:102D900086B1E08E0028D0D1E08F0028CDD14A4600
:102DA0003146204601F0A0F838B120204FF001084C
:102DB000606508E00320804605E0A06818B9206837
:102DC000C16880680090012084F85100002084F8D8
:102DD0005000404630E710B5401EB0F1807F01D36F
:102DE000012010BD4FF0E02460610F21601701F059
:102DF0005EFF0020A06107202061002010BD704709
:102E0000704710B590F83C20012A22D0012280F8AA
:102E10003C20CA688C6822F4407222434C6822F439
:102E2000806222430C6822F4006222430C6922F47F
:102E3000805222434C6922F400522243C969002384
:102E400022F480420A4301684A6480F83C30002042
:102E500010BD022010BD000070B590F83C20012A82
:102E600032D0012580F83C50022280F83D200268D3
:102E70005368946823F070060B6833435360134B18
:102E800002689A4214D0B2F1804F11D0104B9A428E
:102E90000ED0104B9A420BD00F4B9A4208D00F4BDA
:102EA0009A4205D00E4B9A4202D00E4B9A4204D160
:102EB000496824F080031943916080F83D50002157
:102EC00080F83C10084670BD022070BD0000014033
:102ED0000004004000080040000C004000040140D5
:102EE000004001400018004010B5040003D094F8E1
:102EF0003D0010B107E0012010BD002084F83C0027
:102F0000204600F01FF8022084F83D00211D2068B3
:102F100001F08EFB012084F8460084F83E0084F81E
:102F20003F0084F8400084F8410084F8420084F8AF
:102F3000430084F8440084F8450084F83D000020F4
:102F400010BD000008B500681A4988420FD11A4820
:102F5000016841F0010101600068002200F00100F9
:102F6000009011461920FFF781FA19201EE012493E
:102F7000091FB0F1804F0BD0104A904207D108686A
:102F800040F010000860086800F01000009008BDD4
:102F9000086840F0010008600868012200F00100A4
:102FA000009011461C20FFF761FA1C20BDE8084084
:102FB000FFF74EBA000001404438024000100040C4
:102FC00090F83D10012901D001207047022180F8BE
:102FD0003D1000681149884214D0B0F1804F11D0E3
:102FE0000F4988420ED00F4988420BD00E498842C3
:102FF00008D00E49884205D00D49884202D00D49BB
:10300000884204D1816801F00701062903D00168D4
:1030100041F0010101600020704700000000014004
:103020000004004000080040000C00400004014083
:10303000004001400018004090F83D10012901D0E7
:1030400001207047022180F83D100168CA6842F0F3
:103050000102CA6000681149884214D0B0F1804F63
:1030600011D00F4988420ED00E4988420BD00E492C
:10307000884208D00D49884205D00D49884202D0C7
:103080000C49884204D1816801F00701062903D068
:10309000016841F00101016000207047000001401B
:1030A0000004004000080040000C00400004014003
:1030B000004001400018004001680A6A41F2111303
:1030C0001A4207D10A6A9B101A4203D10A6822F0F9
:1030D00001020A60012180F83D100020704770B5A0
:1030E000044690F83C000025012817D0012684F8FA
:1030F0003C60022084F83D002068826822F077025C
:1031000022F47F4282600868502838D00DDC2028E5
:103110004FD005DC90B3102811D14AE0022070BDD9
:10312000302846D040280AD13BE060282FD07028B4
:103130000DD0B0F5805F03D0B0F5005F12D001254F
:1031400084F83D60002084F83C00284670BDCB68C0
:10315000D1E90121206801F0DCFA2068816841F0A2
:10316000770109E0CB68D1E90121206801F0D1FAAB
:103170002068816841F480418160E1E719E0CA6814
:103180004968206801F09AFB5021206806E0CA686F
:103190004968206801F0A3FB6021206801F0C3FAB0
:1031A000CEE7CA684968206801F088FB40212068A2
:1031B000F4E7226801461046F0E7704770B5044610
:1031C000006801694FF00005C943890715D4C1683B
:1031D000C943890711D4E91E0161012020772068C5
:1031E00080698007204602D0FFF7E7FF04E000F087
:1031F000C5F8204600F057F9257720680169C943D2
:10320000490717D4C168C943490713D46FF00401B3
:103210000161022020772068806910F4407F2046F9
:1032200002D0FFF7CAFF04E000F0A8F8204600F043
:103230003AF9257720680169C943090716D4C1689E
:10324000C943090712D46FF00801016104202077F7
:103250002068C0698007204602D0FFF7AEFF04E077
:1032600000F08CF8204600F01EF9257720680169EF
:10327000C943C90617D4C168C943C90613D46FF03E
:1032800010010161082020772068C06910F4407F98
:10329000204602D0FFF791FF04E000F06FF82046CF
:1032A00000F001F9257720680169C943C90708D1F1
:1032B000C168C943C90704D1891E0161204600F0D5
:1032C0005BF920680169C943090609D4C168C9438B
:1032D000090605D46FF0800101612046FFF78FFDDC
:1032E00020680169C943490609D4C168C943490630
:1032F00005D46FF040010161204600F03EF92068DE
:103300000169C94389060BD4C168C943890607D43A
:103310006FF0200101612046BDE87040FFF770BDED
:1033200070BD000010B586B0044614216846FCF755
:10333000AFFF0F492068884217D10E48002102686C
:1033400042F001020260006800F0010005904FF4B5
:10335000E06000900220CDE90101032003900120EC
:10336000049069460448FEF723FF06B010BD000034
:10337000000001403038024000000240704770B544
:10338000044690F83C0000260D4601280FD001208D
:1033900084F83C006AB1042A1DD0082A2FD00C2AD8
:1033A0003FD00126002084F83C00304670BD02204A
:1033B00070BD206801F0C0F92068816941F0080102
:1033C00081612068816921F004018161206881693F
:1033D0002A69114311E0206801F0DEF92068816953
:1033E00041F4006181612068816921F4806181611B
:1033F000206881692A6941EA02218161D2E7206857
:1034000001F000FA2068C16941F00801C16120683B
:10341000C16921F00401C1612068C1692A691143B1
:1034200011E0206801F022FA2068C16941F40061CE
:10343000C1612068C16921F48061C1612068C169EE
:103440002A6941EA0221C161ACE710B5040003D04A
:1034500094F83D0010B107E0012010BD002084F871
:103460003C00204600F01EF8022084F83D00211D9B
:10347000206801F0DDF8012084F8460084F83E0061
:1034800084F83F0084F8400084F8410084F842004A
:1034900084F8430084F8440084F8450084F83D0033
:1034A000002010BD7047704710B5044649B104298B
:1034B0000AD008290BD094F8410001280AD0012035
:1034C00010BD94F83E00F8E794F83F00F5E794F853
:1034D0004000F2E70220B1B3042938D0082939D0DE
:1034E00084F841000122206801F006F91B49206898
:1034F0001B4A884201D0904203D1436C43F40043FD
:1035000043642068884213D0B0F1804F10D0154931
:1035100088420DD0144988420AD01449884207D005
:10352000904205D01249884202D01249884204D103
:10353000816801F00701062903D0016841F001010B
:103540000160002010BDFFE784F83E00CAE784F860
:103550003F00C7E784F84000C4E7000000000140D6
:10356000000401400004004000080040000C00403E
:103570000040014000180040704770477047704796
:10358000F8B5016804460868CA684B6910F00F0F67
:103590004FF0000559D003F0010602F4907737434D
:1035A00065D0C10705D0D10503D5216C41F00101DB
:1035B0002164410705D5D90703D0216C41F00201F0
:1035C0002164810705D5D90703D0216C41F004019E
:1035D0002164010707D502F02001314303D0216C9B
:1035E00041F008012164216C00293AD0800604D5FD
:1035F000900602D5204601F0B3F920684069216C9D
:10360000C0F38010090700D460B3204601F081F9AF
:1036100020684069400621D52068143050E8001F1A
:1036200021F0400140E80012002AF5D1A06BA8B1BA
:103630006C490165A06BFEF773FD002811D0A06BEB
:10364000016D01B0BDE8F040084783060FD5930631
:103650000DD52046BDE8F84001F082B92046FFF7BD
:103660008EFFF8BD2046FFF78AFF2564F8BD266B64
:103670002023012E79D1C60677D5D60675D50868E0
:10368000486800904869400640D5A16B08684068CA
:103690000004000CEAD0A28D8242E7D9E085C86917
:1036A000B0F5807F2DD020680C3050E8001F21F449
:1036B000807140E80012002AF5D12068143050E8EB
:1036C000001F21F0010140E80012002AF5D1206816
:1036D000143050E8001F21F0400140E80012002A99
:1036E000F5D184F83E30256320680C3050E8001F87
:1036F00021F0100140E80012002AF5D1A06BFEF77E
:10370000C6FCA08DE18D401A81B229E0A08DE18D2B
:10371000401A81B2E08D0028A8D00029A6D02068E8
:103720000C3050E8002F22F4907240E80026002E62
:10373000F5D12068143050E8002F22F0010240E853
:103740000026002EF5D184F83E30256320680C3029
:1037500050E8002F22F0100240E80023002BF5D1A2
:103760002046FFF70BFFF8BDFFE705062BD5150632
:1037700029D594F83D002128F5D1A068B0F5805FE7
:1037800001D12069B0B1206A411C21622168007812
:103790004860E08C401E0004000CE084E3D1206807
:1037A000C16821F08001C1602068C16841F040011A
:1037B000C160D8E7206A0088C0F308004860206A2A
:1037C000801C2062E5E74006CDD55006CBD5CA68FF
:1037D000204622F04002CA6084F83D3000F0EEF846
:1037E000C1E700000349000870B5040004D094F854
:1037F0003D00002510B106E0012070BD84F83C506A
:10380000204600F023F8242084F83D002068C16899
:1038100021F40051C160204601F002F920680169DD
:1038200021F4904101612068416921F02A01416140
:103830002068C16841F40051C1602564202084F8EB
:103840003D0084F83E00002070BD000010B586B039
:10385000044614216846FCF71BFD1749206888427E
:1038600028D116480021026842F400320260006844
:1038700000F40030059011481038026842F001024F
:103880000260006800F0010005900C20009002200A
:10389000CDE9010103200390072004906946084800
:1038A000FEF786FC002202212620FEF7DFFD2620FF
:1038B000FEF7CEFD06B010BD004400404038024087
:1038C0000000024090F83E30202B0ED159B152B189
:1038D00090F83C30012B08D0012380F83C300023C5
:1038E000036301F023B901207047022070470000F4
:1038F00010B5012203490448FFF7E4FFBDE810407A
:1039000005F0BCBB59000020980E00202DE9F843BB
:10391000044690F83D001F4615460E4620284BD120
:10392000C6B1BDB194F83C00012845D0012084F80F
:103930003C004FF00008C4F84080212084F83D008E
:10394000FEF724FDA5848146E584A068B0F5805F7C
:1039500003D004E00120BDE8F883206920B135469A
:10396000002684F83C800EE00025FAE780212046FE
:1039700001F0F9F8A0B9ADB115F8010B2168486064
:10398000E08C401EE084E08C4B464FF00002009734
:103990000028EBD14FF04001204601F0E4F830B1AF
:1039A0000320D8E736F8020BC0F30800E6E7202032
:1039B00084F83D000020CEE70220CCE77047FEE708
:1039C00070B58CB00024089409940A9420216846AC
:1039D0000B94FCF75DFC1F481D494FF480360160D5
:1039E000C0E901640461047680F820401A49C0E906
:1039F0000A140125C561C46080F830404561FDF7B7
:103A0000ACFE08B1FDF78BFB0820CDE9080508A93D
:103A10000A941048FDF7ECFD08B1FDF780FB0A2081
:103A2000CDE900054FF480100294CDE906608DF8D1
:103A3000154004958DF81440694606480394FDF737
:103A40006FFC002801D0FDF76AFB0CB070BD0000D0
:103A500000200140680C00200100000F70B58CB000
:103A60000024089409940A94202168460B94FCF7DA
:103A70000FFC1F481D494FF480360160C0E9016406
:103A80000461047680F820401A49C0E90A1401252F
:103A9000C561C46080F830404561FDF75EFE08B145
:103AA000FDF73DFB0920CDE9080508A90A94104857
:103AB000FDF79EFD08B1FDF732FB0B20CDE90005B7
:103AC0004FF480100294CDE906608DF815400495FE
:103AD0008DF81440694606480394FDF721FC002840
:103AE00001D0FDF71CFB0CB070BD000000210140AF
:103AF000B00C00200100000F7FB500241548009491
:103B0000019402941249039401604FF48031C0E99A
:103B100001140461047680F820400F49C0E90A14BA
:103B20000125C561C46080F830404561FDF715FE90
:103B300008B1FDF7F4FACDE900456946054802945D
:103B4000FDF756FD002801D0FDF7E9FA7FBD000022
:103B500000220140F80C00200100000F0F4810B5B2
:103B60000D4901600521416000214FF4A0228160D0
:103B7000C0E903124FF480124261017641768176EA
:103B8000C17601774177FEF780F9002803D0BDE8C0
:103B90001040FDF7C4BA10BD00640040400D002085
:103BA0002DE9F04387B014216846FCF771FB2A48E1
:103BB0000024016841F080010160016801F080018A
:103BC0000591016841F004010160016801F0040100
:103BD0000591016841F001010160016801F00101F6
:103BE0000591016841F0020101600068DFF86C8016
:103BF00000F002000590002220214046FEF7C0FBA5
:103C0000DFF85C904FF40847002239464846FEF73B
:103C1000B7FBE020009001A90220032581E83100D4
:103C20000520049069464846FEF7C2FA2020012686
:103C3000CDE9000669464046CDE90245FEF7B8FAEF
:103C4000CDE9007669464846CDE90245FEF7B0FA6F
:103C500007B0BDE8F08300003038024000080240A1
:103C600000000240104810B50E4901604FF4827107
:103C7000416000214FF40062C0E902120122C0E954
:103C800004125202C0E906210162416281620A21E6
:103C9000C162FEF71FFF002803D0BDE81040FDF70A
:103CA0003EBA10BD003C0040680D002030B595B014
:103CB00000240F9410941194129413941C216846BC
:103CC0001494FCF7E5FA202107A8FCF7E1FA38483C
:103CD0003649202580E8320040F6CA01C0E90314C5
:103CE0000121416180218161FFF7FEF808B1FDF7F4
:103CF00016FA4FF480500F900FA92D48FFF7EFF9F7
:103D000008B1FDF70CFA2A48FFF79FFB08B1FDF751
:103D100006FACDE9135413A92548FFF79DF808B119
:103D2000FDF7FDF96020CDE900040220CDE9020491
:103D30000420CDE90404002269461D480694FFF7DB
:103D40001EFB08B1FDF7EBF9042269461848FFF79E
:103D500016FB08B1FDF7E3F9082269461448FFF79E
:103D60000EFB08B1FDF7DBF940F6C80001900C220C
:103D7000694604940E48FFF702FB08B1FDF7CFF93E
:103D80000794089409944FF400500A94CDE90B402D
:103D900007A907480E94FFF734F808B1FDF7BFF9FB
:103DA0000348FFF7BFFA15B030BD00000000014026
:103DB000C00D002010B586B0002416480094019470
:103DC0000294039404944FF08041059401605921BA
:103DD000C0E9011440F2E731C0E903148461FFF740
:103DE00083F808B1FDF79BF94FF4805000906946C5
:103DF0000848FFF774F908B1FDF791F9049404A994
:103E000004480594FFF728F8002801D0FDF787F94A
:103E100006B010BD080E00201CB500240E4800940A
:103E20000C49019401605921C0E901144FF6FF715A
:103E30008461C160FFF758F808B1FDF770F900948C
:103E4000694605480194FFF707F8002801D0FDF7FF
:103E500066F91CBD00100040500E00200C4810B543
:103E60000A4901604FF461214160002181600C2208
:103E7000C160C0E904128161C161FFF7B5FC00288F
:103E800003D0BDE81040FDF74AB910BD0044004022
:103E9000980E0020FEE770477047000070B50025BF
:103EA0002DED028BB0EE408A1161506082ED888A60
:103EB000144695600122D1030948FEF761FA4FF6D6
:103EC000FF7060619FED070A84ED8A8A84ED8B0A9A
:103ED00084ED8C0A84ED8D0A2560BDEC028B70BDEB
:103EE000000002400000000038B504461248134D9F
:103EF0004FF47A730068B0FBF5F0584300906068A7
:103F0000B0F5827F0DD10B46009200228021204621
:103F100000F016F870B1606D40F02000606503207D
:103F200038BD009830B1401E009020688068C043C2
:103F30000006F6D5002038BD7000002000366E0166
:103F40002DE9F8431E46914688460446089DFEF733
:103F50001DFA401B351AFEF719FA07462548006876
:103F6000C0F3CB30684338E0701C37D0FEF70EFA50
:103F7000C01BA84203D215B1009860B32CE02068A2
:103F8000416821F0E00141606068B0F5827F0BD1AB
:103F9000A068B0F5004F02D0B0F5806F04D1206862
:103FA000016821F040010160A06AB0F5005F09D10D
:103FB0002068016821F4005101602068016841F423
:103FC00000510160012084F85100002084F8500065
:103FD0000320BDE8F8830025401E0090206881681A
:103FE00038EA010004D000204845BDD10020F0E7A8
:103FF0000120F9E77000002070470000F0B52DEDBA
:10400000028B83B00446808A774FADF804004FF4EA
:104010000046B0EE408A002231463846FEF7B0F93D
:104020000220009001230DF1060201A96F48FEF75E
:10403000E5FD0546012231463846FEF7A1F9BDF8F7
:104040000600C0F30D0020601DB1294668A000F0F5
:10405000EDFD2068C11104EB81018A69012101EBAA
:10406000E011CB1701EB536323F07F03C91A04EB74
:10407000810120F07F038969C31A891A4B4302EB3F
:10408000E3110144E26860688A1A00EBD073B2EB76
:10409000630F02DDA268521E07E0434203EBD373B5
:1040A000B2EB630F02DAA268521CA26000EE101A93
:1040B000E16094ED8B1AB8EEC00A84ED8C1ADFED46
:1040C000521A60EE210A00EE100AB8EEC02A80EE05
:1040D000820A84ED8B0AA268424300EE902AB8EE71
:1040E000E02A00EE901AF8EEE00A72EE200A20EEC6
:1040F000A12A00EE900AF8EEE02AC2EE220AC4EDF0
:10410000860A94ED8A2A70EEC20AC4ED890A00EE8E
:10411000900A2269F8EEE00A4A4392FBF0F181EE40
:10412000A02A00FB112000EE900AF8EEE02AD4ED60
:10413000880A42EE220AF5EEC00AF1EE10FA02D227
:1041400070EEA10A06E010EE900A3049884201DDC7
:1041500070EEE10A30EE411AC4ED870A11EE100A42
:1041600010F17F5F02D931EE210A06E011EE100A4C
:104170002749884204DD31EE610AC0EE081A01E0E9
:10418000C1EE081A3C210120F0EE610A0A1A04EB84
:104190008202401C92ED8D0A884282ED8E0A70EEFA
:1041A000200AF3DB00EE101AC4ED8E1AB8EEC01A26
:1041B00080EE810A9FED171A84EDCA0AD4ED040A35
:1041C000F8EEE00A20EE200A84EDCB0AD4EDCC0A0A
:1041D00060EE810A9FED101A40EE010AC4EDCC0A90
:1041E00003B0BDEC028BF0BD00000240680D002062
:1041F000656E636F64657220726564206572726FAC
:1042000072202564200A0D00DB0FC940DB0FC94076
:1042100000004040A4707D3F0AD7233C014880ED58
:10422000880A704784000020014880ED8A0A7047A0
:1042300084000020FEF7B0B830B593B03421684652
:10424000FCF726F814210DA8FCF722F81A480025DF
:10425000016841F080510160006800F080501290C8
:104260001648016841F4404101600068022400F4EE
:104270004040129001200090000401908001CDE99F
:10428000064004200890B420CDE909040B94684648
:104290000C94FEF759FAFEF71BF90DA90F2081E8DF
:1042A00031004FF4A0501090E002119005210DA8AC
:1042B000FEF746F913B030BD4038024000700040B0
:1042C0000548016841F47001016003494FF0006046
:1042D000803908607047000088ED00E010B50121CA
:1042E0001548FDF7FDF8154C012160601448FDF7F5
:1042F000F7F8206013489FED140AFFF77FFEFCF7E4
:10430000E7FF84ED0C0AFCF7EFFF84ED0B0AFCF7E6
:10431000FBFF84ED0D0AFCF7E1FF84ED0E0A04F0CB
:104320000BFDD4F8A400401CC4F8A400BDE8104064
:104330000648FEF743BF0000B00C0020CC08002068
:10434000680C00208400002017B7D137C00D002072
:104350002DE9F041964896492DED108B0088401CC0
:1043600008809448FDF7A4FA9348FDF7A1FA934812
:10437000FDF79EFA9148FDF7EDF9914C00EE100A19
:10438000A060D4ED080A9FED8F1AB8EEC00A60EE67
:10439000810A9FED8D1A20EE010A9FED8C1A864846
:1043A00040EE010AC4ED080AFDF7D4F900EE100A48
:1043B000B8EE400ADFED868A20EE280A9FED859A46
:1043C0007C4820EE098AFDF7C5F938EEC81A00EEE0
:1043D000100AC8EE010AB8EE400A20EE280A20EEC4
:1043E000090A9FED7DFA38EEC01A21EE0F1A60EE31
:1043F0008F0AC1EE00FA80EE8F0A10EE100AFCF769
:10440000E7F841EC100B00F017FD9FED749B51ECA9
:10441000100B53EC192BFCF76CF89FED72AB53ECBF
:104420001A2BFBF74DFF41EC100B53EC102B9FEDBB
:104430006FBB51EC1B0BFCF75CF89FED6ECB53ECA4
:104440001C2BFBF7DEFF9FED6DDB53EC1D2BFBF709
:1044500037FF9FED6CEB53EC1E2BFBF7D8FF41ECC5
:10446000180BD4ED030A9FED690A20EE800A10EEC6
:10447000100AFCF7ADF853EC182BFBF721FFFCF703
:10448000BAF88FEE8F0AE06010EE100AFCF7A0F881
:1044900041EC100B00F0D0FC53EC192B51EC100B3D
:1044A000FCF727F853EC1A2BFBF70AFF41EC100B33
:1044B00051EC1B0B53EC102BFCF71BF853EC1C2B93
:1044C000FBF79FFF53EC1D2BFBF7FAFE53EC1E2B63
:1044D000FBF79DFF41EC180BD4ED040A9FED4B0A4E
:1044E00020EE800A10EE100AFCF772F853EC182B3D
:1044F000FBF7E6FEFCF77FF82061454FE6680121F7
:10450000444A454B0025BE4202DC444EB04203DD26
:1045100084F8D01215601960DFF804C1A06C414F17
:10452000DFF804814FF40066604511DDDFF880C0DC
:10453000DCF80400401CCCF80400B0F5FA6F07DD8D
:10454000022084F8D00215601960CCF8045014E001
:1045500094F8D00201280CD1002231463846FDF7EC
:104560000FFF13480088642803D120214046FDF73F
:10457000FFFE94F8D00202280DD1002231463846C1
:10458000FDF7FEFE0A480088B0F5FA7F03D120212E
:104590004046FDF7EDFE06480188B1F57A7F00D36D
:1045A00005802248BDEC108BBDE8F041FEF706BE49
:1045B0005C000020680C0020B00C0020F80C0020EB
:1045C000CC0800203333733FCDCC4C3D0C514F3CD5
:1045D000333353400000803900401C460000000087
:1045E0000058AB40000000E0E1796B3F00000000A4
:1045F0000000F03F00000060661271400000000003
:104600000000E03F000000A09999B93F6666663F50
:104610000000F042480000204C0000200000BE4294
:104620000000A0410000024000080240080E0020E7
:10463000F0B50268254D264E264FDFF89CC0274B6B
:104640004FF0804EA84209D0704507D0B04205D047
:10465000B84203D0604501D0984203D122F07004E3
:104660004A682243A8421BD0704519D0B04217D0E7
:10467000B84215D0604513D0984211D0184CA042D2
:104680000ED0184CA0420BD0174CA04208D0174CAB
:10469000A04205D0164CA04202D0164CA04203D135
:1046A00022F44074CA6822434C6922F080022243FB
:1046B00002608A68C2620A688262A84201D0984297
:1046C00001D10969016301214161F0BD0000014090
:1046D0000004004000080040000C004000040140BD
:1046E00000400140004401400048014000180040E3
:1046F000001C00400020004010B501F01F01012304
:10470000046A8B409C430462036A8A401343036239
:1047100010BD10B5846842EA032224F47F440A43A2
:104720002243826010BD826822F070020A4342F088
:104730000701816070470000F0B5026A22F00102B3
:104740000262026A43688469114E24F073050C68A2
:10475000104F2C4322F002058A682A43B04201D050
:10476000B84205D122F00805CA682A4322F00402A3
:10477000B04201D0B84205D14D6923F440731D43C6
:104780008B692B4343608461496841630262F0BDD9
:104790000000014000040140F0B5026A22F010025E
:1047A0000262026A436884690D6824F4E64444EABC
:1047B00005248D6822F0200242EA05120F4D104EAA
:1047C000A84201D0B04206D1CF6822F0800242EA6E
:1047D000071222F04002A84201D0B04207D14D6931
:1047E00023F4406343EA85038D6943EA850343600C
:1047F0008461496881630262F0BD000000000140ED
:1048000000040140F0B5026A22F480720262026A7A
:104810004368C46922F4007224F073050C68124ED8
:104820002C438D6842EA05220E4DA84201D0B042C9
:1048300006D1CF6822F4006242EA072222F48062A5
:10484000A84201D0B04207D14D6923F4405343EA56
:1048500005138D6943EA05134360C4614968C16368
:104860000262F0BD000001400004014030B5026A60
:1048700022F480520262036A4268C4690D6824F41B
:10488000E64444EA05248D6823F4005343EA0533E3
:10489000084DA84202D0084DA84204D14D6922F427
:1048A000804242EA85124260C46149680164036241
:1048B00030BD0000000001400004014010B5046A52
:1048C000036A23F001030362836923F0F00343EAE0
:1048D000021324F00A020A438361026210BD10B57C
:1048E000036A23F0100303628469036A24F47044AA
:1048F00044EA023223F0A00343EA0111826101621B
:1049000010BD10B5806B0021C185C184FEF737FE54
:1049100010BD01680C3151E8002F22F4907241E87B
:104920000023002BF5D10168143151E8002F22F04B
:10493000010241E80023002BF5D1016B012909D1C7
:1049400001680C3151E8002F22F0100241E80023E9
:10495000002BF5D1202180F83E1000210163704723
:1049600008B590F83E10222901D0022008BD8168C8
:104970004FF48053994201D1026922B1826A99426F
:104980001BD049B10AE00268816A5268C2F308028A
:104990000A80816A891C08E0016971B1016849686F
:1049A00001F07F011170816A491C8162C18D491E2D
:1049B0000904090CC18503D019E001684968F1E7D1
:1049C0000168CA6822F02002CA600168CA6822F43D
:1049D0008072CA6001684A6922F001024A6120219E
:1049E00080F83E10016B012903D0FEF781FF002003
:1049F00008BD0021016301680C3151E8002F22F04D
:104A0000100241E80023002BF5D101680A68D206A4
:104A100002D50A6849680091818DFEF7AFFDE6E78F
:104A200070B5044600680169E26821F44051114301
:104A30000161A1682069E269014360691043014393
:104A40002068C26849F20C639A430A43C260206836
:104A50004169A26921F440711143416131492068E3
:104A6000884202D03049884202D1FDF713FE01E0AE
:104A7000FDF700FEE2690023192164253226B2F514
:104A8000004F626828D0A0FB0101930F9200FBF752
:104A9000B5FB0146B0FBF5F06FF01802504301EB97
:104AA000800006EB0010B0FBF5F000F0F002B1FB67
:104AB000F5F002EB0012B1FBF5F06FF0180358436C
:104AC00001EB800006EB0010B0FBF5F000F00F00EA
:104AD00021681044886070BDA0FB010192185B4101
:104AE000FBF78CFB0146B0FBF5F00201B1FBF5F0E2
:104AF0006FF01803584301EB800006EBC000B0FBD9
:104B0000F5F000F0F80002EB4002B1FBF5F058437D
:104B100001EB800006EBC000B0FBF5F000F00700F1
:104B2000D6E7000000100140001401408162828538
:104B3000C28500210164222280F83E2080F83C10CA
:104B4000016921B10168CA6842F48072CA600168D3
:104B50004A6942F001024A610068C16841F02001DF
:104B6000C160002070472DE9F0411E461746884677
:104B70000446069D26E0681C24D025B1FDF706FCFE
:104B8000801BA8421ED920680C3050E8001F21F479
:104B9000D07140E80012002AF5D12068143050E8A6
:104BA000001F21F0010140E80012002AF5D1202069
:104BB00084F83D0084F83E00002084F83C00032087
:104BC000BDE8F0812068016838EA010004D00020C7
:104BD000B842D0D00020F3E70120F9E70148FEF702
:104BE000CFBC0000980E0020FEE7000001460248FE
:104BF0004FF40072FBF733BB9C00002010B5084C4B
:104C000000209FED080AA06084ED8A0A20469FEDEF
:104C1000060AFFF7F3F9FCF767FB84ED8A0A10BD7B
:104C200084000020000000006F1283390FB4054B90
:104C300010B503A9044A029801F08EFC10BC5DF87F
:104C400014FB0000FD8000087400002003B40198EC
:104C50004100009850EAC12018BF04204A0D18BF37
:104C600040F0010040F2FF72B2EB515F08BF40F02C
:104C70000200012808BF052002B070474100080269
:104C800018BF04200A0E18BF40F001004FF07F4209
:104C900032EA010108BF40F00200012808BF0520E8
:104CA000704720F00040C0F1FF40C00F7047090777
:104CB000090E002804DB00F1E02080F800147047A2
:104CC00000F00F0000F1E02080F8141D7047000094
:104CD000004870478000002030B583B0044601F0E2
:104CE00055FB9FED090B05468DED000B002221467B
:104CF0006846FBF7FEFC284601F05EFB9DED000BCD
:104D000003B030BD00000000000000000000000003
:104D1000B4EEE00AF1EE10FA01DCB0EE600A704782
:104D2000B4EEE00AF1EE10FA01D3B0EE600A70477B
:104D300010B52DED040B86B09DED060B10EE100A9C
:104D400010EE901A8DED000B002818BF01200843CB
:104D500020F00040C0F17F6000F1E040C00F21D1A1
:104D60009DED080B10EE101A10EE900A8DED000B61
:104D7000002918BF0121084320F00040C0F17F60E6
:104D800000F1E040C00F0DD129490798B1EB400F69
:104D900004BF0698002842D00998400004BF089834
:104DA00000283CD09DED080B53EC102B9DED060B1D
:104DB00051EC100BFBF704FECDE902019DED020B57
:104DC00040F2FF7110EE900A8DED000B31EA1050A9
:104DD00021D00798039900F0004001F0004188427B
:104DE00019D09DED080B8DED040B9DED020B8DEDA3
:104DF000000B10EE900A059961F31E0005909DEDE1
:104E0000041B9DED020B51EC110B53EC102BFBF727
:104E1000FBFACDE902019DED020B0AB010BD0120A5
:104E200001F0CAFA0AB0BDE8104001F0C1B90000B3
:104E30000000E0FF0000000070B5D94B00242DED0C
:104E4000020B2DED108BDDE91010984205DA20F0F1
:104E500000429A4201D809D141B19DED100BBDEC41
:104E6000108B02B0BDE8704001F08EB9B0F5801F24
:104E700026DA11430BD0002813DA012001F09CFA46
:104E8000BDEC108B02B0BDE8704001F091B902207A
:104E900001F092FA01F060F951EC100B81F0004141
:104EA0009EE06FF035049FEDC00B53EC102B9DED91
:104EB000100B51EC100BFBF7AAFACDE910010846D4
:104EC00004EB2051C0F31304B948A1F2FF31204490
:104ED00000F4801080F07F6282F04052224301EBA8
:104EE00020559FEDB50B119253EC102B9DED100B3F
:104EF00051EC100BFBF785FA41EC180BA01CC0F32A
:104F000013009FEDAFDB9FEDB0EBB14E7E44032865
:104F10006CD296ED000B51EC180B53EC102BFBF7F9
:104F2000BBFD1DD1002D01BF96ED000BBDEC108B1C
:104F300002B070BD2846FBF786FD41EC180B53EC20
:104F40001D2BFBF764FA41EC190B53EC1E2B51ECB3
:104F5000180BFBF75CFA53EC192BFBF7B1F93FE0A8
:104F60009FED9D0B51EC180B53EC102BFBF74FFAF8
:104F70009FED9B1B53EC112BFBF746FA41EC190BF1
:104F800053EC182B51EC180BFBF741FA53EC192B8F
:104F9000FBF73DFA41EC190B002D04BF53EC192B24
:104FA00051EC180B1AD02846FBF74DFD41EC1A0BBB
:104FB00053EC1D2BFBF72BFA53EC192BFBF724FAC0
:104FC00053EC182BFBF71DFA41EC180B53EC1E2B7E
:104FD00051EC1A0BFBF71BFA53EC182BFBF711FAE9
:104FE000BDEC108B02B041EC100B70BD9FED7E0B41
:104FF00051EC180B53EC102BFBF762F941EC100B42
:1050000051EC180B53EC102BFBF773FA41EC190B16
:105010002846FBF718FD41EC1B0B53EC192B51EC08
:10502000190BFBF7F4F941EC1A0B714853EC1A2BEE
:10503000261851EC1A0BFBF7EAF941EC1F0B6D48EF
:10504000C4F1510404F5D724B0EE4F0AF0EE6F0A14
:105050000321784401F001F853EC1F2B51EC100BA5
:10506000FBF7D5F941EC1C0B6348B0EE4F0AF0EEAC
:105070006F0A0421784400F0F0FF53EC1A2B51EC36
:10508000100BFBF7C4F9344353EC1C2BFBF718F956
:1050900041EC1C0B002C4CDD9FED510B51EC180B1F
:1050A00053EC102BFBF7B3F953EC182BFBF7AFF9CC
:1050B00041EC1A0B55B353EC1D2B51EC1B0BFBF7BA
:1050C000A6F941EC1D0B53EC1C2B51EC1A0BFBF712
:1050D000F7F853EC192BFBF79AF953EC1D2BFBF760
:1050E000EFF853EC1A2BFBF78FF953EC182BFBF767
:1050F00088F941EC180B53EC1E2B51EC1B0BFBF702
:1051000086F953EC182BFBF77CF969E753EC1C2B61
:1051100051EC1A0BFBF7D4F853EC192BFBF777F98A
:1051200053EC1A2BFBF770F953EC182BFBF76CF9C7
:1051300056E735B353EC1D2B51EC1B0BFBF767F90E
:1051400041EC1A0B53EC1C2B51EC180BFBF759F9E3
:1051500053EC192BFBF75BF953EC1A2BFBF751F9C6
:1051600053EC182BFBF74DF941EC180B53EC1E2BAD
:1051700051EC1B0BFBF74BF953EC182BFBF741F9E8
:105180002EE753EC1C2B51EC180BFBF73AF953ECC0
:10519000192BFBF73CF953EC182BFBF735F91FE7FC
:1051A0000000F07F000000000000000000005043FD
:1051B000645F090000000000000000000000F03FF4
:1051C000763C7935EF39EA3D0000E0FE422EE63FBD
:1051D000F04D000000000000555555555555D53F80
:1051E000000000000000E03F000000000000004060
:1051F00086EBF9FFEA4B0000E04B000000000000E6
:105200002DE9F04D2DED040B2DED0E8B96B0DDE963
:105210002550279CDDF890A025F0004624F000489A
:10522000BAF1000F14BF0121002101EB4502FC4936
:1052300053184A1093422AD3002814BF0123002395
:1052400003EB44030B44F7498B4220D358EA000197
:105250009FEDF59B76D0DFF8D8B35D4503D1BAF169
:10526000000F05D188E0BAF1000F08BF002100D07F
:10527000012101EB450111F5001F08D8002814BFDA
:105280000121002101EB440111F5001F0BD99DED17
:10529000261B9DED240B16B0BDEC0E8B04B0BDE8B3
:1052A000F04D00F07BBF0027002DBCBFE1498845D1
:1052B00021DAE1498845A8BF02271CDAC3451ADC78
:1052C000DE4901EB2851142908DDC1F1340220FA2E
:1052D00002F101FA02F282420DD108E058B9C1F19F
:1052E000140228FA02F101FA02F2424503D101F058
:1052F0000101C1F1020756EA0A0124D1002C22DA89
:10530000002D18BF022F01D0012F0AD0022001F07A
:1053100053F816B0BDEC0E8B04B0BDE8F04D00F0B4
:105320001BBF022001F048F800F016FF51EC100BF3
:1053300081F0004141EC100B16B0BDEC0E8B04B0B7
:10534000BDE8F08D18E09FEDBEAB9FEDBF8B002850
:1053500071D1B848804522D105F1804010F5801008
:1053600008BFBAF1000F07D0B3450ADC002CA8BF74
:105370009DED260BE0DA0DE0B0EE490AF0EE690A89
:10538000DAE7002C06DA9DED260B51EC100B81F0CC
:1053900000416FE0AE48784490ED000BCCE7D84573
:1053A0004DD1002C48DA2EB186423AD1BAF1000F25
:1053B00042D126E0BAF1000F13D0022000F0FCFF2A
:1053C00000F006FF8DED020B9DED240B8DED000B23
:1053D00010EE900A039961F31E0003909DED020BFD
:1053E000AAE78DED02AB9DED240B1AEE901A10EE9C
:1053F000900A8DED000B61F31E0003909DED020BF2
:105400009AE78DED028B9DED240B18EE901A10EEAD
:10541000900A8DED000B61F31E0003909DED020BD1
:105420008AE709DA9DED240B51EC190B53EC102B94
:10543000FBF75FF81EE020E09DED240B7CE7864241
:105440001BDAB4F1804F0DD0A4F10050B0F1FF5041
:1054500013D1002D11DB9DED240B51EC100B03F04B
:10546000C5FC07E09DED240B53EC102B51EC100B09
:1054700000F0C2BC41EC100B5EE79DED240B51EC3B
:10548000100B02F0A9FDBAF1000FCDE90E0142D1D7
:105490009FED710B46B3A6F1E040B0F17F600CD0F8
:1054A0005E4538D1002D00DAA7B3022F0CBF0120D2
:1054B0004FF0FF30FBF7C7FADCE7002D01DD002CD1
:1054C0000DDA002D01DD002C1FDB002D16DA002C7B
:1054D00014DB012F08BF9FED620B3FF42DAFB0EE40
:1054E0004A0AF0EE6A0A27E7022F18BF002D0CD0F7
:1054F000012F0AD1002DFFF61FAF06E0002DB8BF27
:10550000002C08DA012F3FF417AFB0EE480AF0EE96
:10551000680A11E71BE0012000EBE57050EA070183
:1055200015D0791EB0EE498AF0EE698A084308BFAB
:105530009FED4D8B4E480025804570DD4D494E480E
:10554000884514DDB0420DDB002C19DB2FE0012073
:1055500000F032FF16B0BDEC0E8B04B0BDE8F04D8C
:1055600000F026BEB34502DC002C09DC1FE08642B9
:1055700002DA002C1BDA03E05E452BDD002C16DD81
:10558000022000F019FF00F023FE8DED020B53EC1A
:105590001A2B51EC180BFAF73AFFCDE900010399E9
:1055A000019861F31E0003909DED020BC4E60220FA
:1055B00000F002FF00F01CFE10EE901A18EE900AA8
:1055C0008DED020B8DED008B61F31E0003909DEDC0
:1055D000020BB1E69DED0E0B53EC192B51EC100BA9
:1055E000FAF70FFF9FED260BCDE9080153EC102BC6
:1055F0009DED080B51EC100BFAF709FF9FED221BF4
:1056000053EC112BFAF700FF9DED081B53EC112B07
:10561000FAF7FDFE9FED1E1B53EC112B3CE08CE0D6
:10562000FFFF1F00FFFF0F00000000000000F03F21
:105630000000F03F0000F07F0000404301FCFFFF4E
:10564000000000000000F07F0000000000000000EB
:10565000664900000000000000000000000000801B
:10566000000000000000F0FF000000000000F0BF9C
:105670000000E0410000F043FFFFEF3F00000000AA
:10568000000000000000D03F555555555555D53FF9
:10569000000000000000E03FFAF7B6FE9DED080BA9
:1056A00041EC1A0B53EC102B51EC100BFAF7AFFE38
:1056B00053EC1A2BFAF7ABFE41EC1A0B9FEDFE0BE5
:1056C00053EC102B9DED080B51EC100BFAF79FFEDD
:1056D00041EC1B0B9FEDFA0B51EC1A0B53EC102B0A
:1056E000FAF795FE41EC1A0B9FEDF70B53EC102BDC
:1056F0009DED080B51EC100BFAF789FE53EC1A2BB9
:10570000FAF77FFE41EC1A0B51EC1B0B53EC1A2BF2
:10571000FAF7D6FD0690CDE906519DED060B53EC48
:105720001B2B51EC100BFAF76CFE53EC1A2BFAF70B
:105730006BFE41EC100B00F0A1B90020B6F5801F04
:105740000EDA9FEDE30B53EC102B9DED0E0B51EC9D
:10575000100BFAF75CFECDE90E016FF034000E4637
:1057600000EB2650A0F2FF37C6F31300DA4940F0F1
:105770007F6646F040568842D8BF002408DDD749EE
:105780008142C8BF012403DC0024A6F580167F1CDB
:10579000D348784400EBC4000F9690ED00CB9DED0C
:1057A0000E0B53EC1C2B51EC100BFAF72AFE9DED5F
:1057B0000E0B41EC1B0B53EC1C2B51EC100BFAF7AE
:1057C0007FFD41EC100B51EC190B53EC102BFAF749
:1057D00090FE41EC1D0B51EC1B0B53EC1D2BFAF70B
:1057E00016FE41EC1A0BBF488DED10AB78441095B6
:1057F00090ED000B4FF0005040EA660000EB844053
:105800008DED080B00F5002009909DED080B53EC81
:105810001C2B51EC100BFAF7F4FD9DED0E1B53EC15
:10582000112BFAF7F1FD41EC100B53EC102B9DED11
:10583000100B51EC100BFAF7EAFD9DED080B41EC53
:105840001C0B53EC102B9DED100B51EC100BFAF7C9
:10585000DEFD53EC1B2BFAF7D7FD53EC1C2BFAF7AC
:10586000D0FD53EC1D2BFAF7D2FD41EC1C0B53EC91
:105870001A2B51EC1A0BFAF7CAFD41EC1B0B9A4894
:105880000621B0EE4B0AF0EE6B0A784400F0E5FB1F
:10589000B0EE401AF0EE601AB0EE41DAF0EE61DAE6
:1058A00053EC1B2B51EC1B0BFAF7B1FD53EC1D2BEA
:1058B000FAF7ADFD9DED100B41EC1B0B53EC1A2BD1
:1058C00051EC100BFAF7FCFC53EC1C2BFAF79FFD84
:1058D00053EC1B2BFAF7F4FC9DED100B41EC1B0B6A
:1058E00053EC102B51EC100BFAF791FD41EC1D0B12
:1058F0009FED7FEB53EC1E2BFAF7E2FC53EC1B2BD6
:10590000FAF7DEFC0890CDE908519DED080B53EC49
:105910001E2B51EC100BFAF774FD53EC1D2BFAF70C
:1059200070FD53EC1B2BFAF76FFD9DED080B41EC5E
:105930001D0B53EC102B9DED100B51EC100BFAF7D7
:1059400066FD41EC1B0B53EC1A2B51EC1D0BFAF7C7
:105950005EFD9DED080B41EC1A0B53EC102B51EC46
:105960001C0BFAF754FD53EC1A2BFAF7A9FC41EC87
:105970001A0B51EC1B0B53EC1A2BFAF7A1FC0C90F1
:10598000CDE90C519DED0C0B53EC1B2B51EC100B86
:10599000FAF737FD53EC1A2BFAF736FD41EC1B0BE7
:1059A0009FED550B53EC102B9DED0C0B51EC100B98
:1059B000FAF72DFD41EC1A0B9FED510B51EC1B0B2F
:1059C00053EC102BFAF723FD41EC1B0B9FED4E0B14
:1059D00053EC102B9DED0C0B51EC100BFAF717FD4F
:1059E00053EC1B2BFAF76CFC41EC100B4848784445
:1059F00000EBC40090ED001B51EC100B53EC112B8D
:105A0000FAF75EFC41EC1B0B3846FBF71CF8CDE9BE
:105A1000080153EC1B2B51EC1A0BFAF751FC41EC2B
:105A2000100B3C48784400EBC40090ED00CB51ECE7
:105A3000100B53EC1C2BFAF743FC9DED081B53ECA9
:105A4000112BFAF73DFC0690CDE906519DED080BB0
:105A500053EC102B9DED060B51EC100BFAF7D1FC1B
:105A600053EC1C2BFAF7CDFC53EC1A2BFAF7C9FCBC
:105A700053EC1B2BFAF7C8FC41EC100B9DED261BD9
:105A800053EC102B8DED001B00959DED260B51EC7A
:105A9000100BFAF7BCFC9DED000B41EC1A0B53EC1C
:105AA000102B9DED260B51EC100BFAF7AAFC9DED87
:105AB000061B53EC112B2FE0000000604715F73F49
:105AC000FE822B654715F73F44DF5DF80BAE543E71
:105AD00000000000000040438E9803007AB60B00DF
:105AE000E2440000104500001A44000000000000DD
:105AF0000000000000000840000000E009C7EE3F81
:105B0000FD033ADC09C7EE3FF5015B14E02F3EBE12
:105B1000A642000060420000FAF779FC53EC1A2B11
:105B2000FAF7CEFB9DED060B41EC1A0B53EC102B54
:105B30009DED000B51EC100BFAF769FCCDE90C015F
:105B40009DED0C0B51EC1A0B53EC102BFAF7B8FB34
:105B5000CDE902010C46AA498C422FDB611A0843A9
:105B600018D19DED0C0B53EC102B9DED020B51EC5D
:105B7000100BFAF746FC41EC1B0B9FEDA30B51EC0D
:105B80001A0B53EC102BFAF79BFB53EC1B2BFAF779
:105B90009BFF2DD2022000F00FFC00F019FB10EE4D
:105BA000901A18EE900A8DED020B8DED008B61F3CB
:105BB0001E0003909DED020BFFF7BEBB944A24F03C
:105BC0000041914214D39349214408437FF4EFAC40
:105BD0009DED0C0B53EC102B9DED020B51EC100BBB
:105BE000FAF70FFC53EC1A2BFAF76EFF7FF6DFACD7
:105BF00024F000408849894A002601EB2051824266
:105C00002BDA481C4FF4801121FA00F02044844A1A
:105C1000C0F30A517A44A1F2FF3192ED000B814AA0
:105C20008DED080BCA4020EA0202C0F3130040F4D5
:105C30008010C1F1140120FA01F60992002CB8BFBE
:105C400076429DED080B53EC102B9DED0C0B51ECA7
:105C5000100BFAF7D6FBCDE90C019DED0C0B51ECC6
:105C60001A0B53EC102BFAF72BFB9FED6F0B0890E0
:105C7000CDE9085153EC102B9DED080B51EC100BA6
:105C8000FAF7C5FB41EC1B0B9FED690B53EC102B96
:105C90009DED080B51EC100BFAF7B9FB9DED0C0BC9
:105CA00041EC1C0B53EC102B9DED080B51EC100B31
:105CB000FAF7A7FB53EC1A2BFAF7A6FB9FED5E1B36
:105CC00053EC112BFAF7A3FB53EC1C2BFAF7F8FA61
:105CD00041EC1A0B51EC1B0B53EC1A2BFAF7F0FAB0
:105CE000CDE902019DED020B53EC1B2B51EC100B87
:105CF000FAF787FB53EC1A2BFAF786FB9DED020BA4
:105D000041EC1A0B53EC102B51EC100BFAF77FFB04
:105D1000CDE908014A489DED080B0521784400F0C3
:105D20009CF99DED081B51EC100B53EC112BFAF76D
:105D30006EFB9DED021B53EC112BFAF765FBCDE9D1
:105D400006019DED020B53EC1A2B51EC100BFAF7E8
:105D50005EFB53EC1A2BFAF7B3FA9FED3B0B41ECC9
:105D60001A0B53EC102B9DED060B51EC100BFAF7B0
:105D700048FB9DED060B41EC1B0B53EC102B9DEDEE
:105D8000020B51EC100BFAF742FB53EC1B2BFAF70A
:105D9000B0FB53EC1A2BFAF734FB9DED021B53ECCE
:105DA000112BFAF72EFB53EC192BFAF72DFBCDE94B
:105DB000020101EB065001150029C8BF039015DC54
:105DC0009DED020B324651EC100BFAF791FDFEF7F8
:105DD0003DFF042808BF00F00BFA32469DED020B90
:105DE00051EC100BFAF784FDCDE902019DED020B99
:105DF00051EC180B53EC102BFAF709FBFFF73ABBE9
:105E00000000904000000000FE822B654715973C83
:105E100000CC904000346F3F01FCFFFF0000E03FEA
:105E2000E8400000FFFF0F0000000000432EE63FA7
:105E3000396CA80C615C20BEEF39FAFE422EE63FB9
:105E4000B83F00000000000000000000000000401B
:105E500000B510EE101A2DED028B81B0524A684643
:105E6000B2EB410F2ED94FF0E640B0EB410F94BF9B
:105E700000204FF0FF3000900098B0EE408A0028DC
:105E80006ADB10F0010F4BD068EE080A9FED471A4D
:105E90009FED470A00EE810A9FED461A10F0020FAF
:105EA00000EE801AB7EE000A00EE810A02BF01B0D0
:105EB000BDEC028B00BD00BF01B0B1EE400ABDECED
:105EC000028B00BD3C4B21F00042934241D911F0BE
:105ED000004FDFED3A0A20EE201ADFED390A19BF34
:105EE00031EE601A71EE200A31EE201A71EE600A6E
:105EF000BDEEE01A11EE100A9FED321A00F0030019
:105F000000EEC10A9FED301A009000EEC10A9FED2D
:105F10002F1A00EEC10A9FED2E1A00EEC10AABE760
:105F200028EE080A9FED2B1ADFED2B0A10F0020F66
:105F300040EE410A9FED291A00EE201A61EE000A98
:105F4000B0EE480A08EE200AB6D101B0BDEC028BD3
:105F500000BD00F071F98FE718EE100A4000B0F1B3
:105F60007F4F0DD218EE100AFEF788FE042808BFF6
:105F700000F05AF9B0EE480A01B0BDEC028B00BD4A
:105F800009D1012000F018FA01B0BDEC028B5DF8D8
:105F900004EB00F041B901B0B0EE480ABDEC028B51
:105FA0005DF804EB00F034B9B61F927EB93AB2BA8C
:105FB000CA9F2A3DDDFFFFBE490E494683F9223FB5
:105FC0000000004B0000C93F00A0FD390020A233B3
:105FD0001A61342C336D4C39DA82083CA0AA2ABEEF
:105FE00000B52DED048BB0EE409AF0EE609A83B0D0
:105FF00051EC190BFAF793FC41EC180B18EE100A50
:1060000018EE901A8DED008B002818BF0120084370
:1060100020F00040C0F17F6000F1E040C00F14D0DC
:1060200019EE101A19EE900A8DED009B002918BF89
:106030000121084320F00040C0F17F6000F1E04002
:10604000C00F04BF012000F0B7F9B0EE480A03B05A
:10605000F0EE680ABDEC048B00BD70B504462DED72
:10606000028B4D1E00EBC500B0EE408AF0EE608A58
:1060700090ED000B35F0060017D053EC182B51ECC7
:10608000100BFAF7C4F941EC100B6D1E04EBC500C0
:1060900090ED001B51EC100B53EC112BFAF710F99B
:1060A00041EC100B35F00600E7D1022D36D0042D5F
:1060B0001CD0062D1CBFBDEC028B70BD53EC182B01
:1060C00051EC100BFAF7A3F994ED0A1B53EC112BCA
:1060D000FAF7F6F853EC182BFAF799F994ED081B38
:1060E00053EC112BFAF7ECF841EC100B53EC182B96
:1060F00051EC100BFAF78BF994ED061B53EC112BB6
:10610000FAF7DEF853EC182BFAF781F994ED040B4B
:1061100053EC102BFAF7D4F841EC100B53EC182B7E
:1061200051EC100BFAF773F994ED021B53EC112BA1
:10613000FAF7C6F853EC182BFAF769F994ED001B3F
:1061400053EC112BFAF7BCF8BDEC028B41EC100BB1
:1061500070BD0000000000009FED070B10B553EC70
:10616000102B9FED070B51EC100BFAF7C2F941EC25
:10617000100B10BD00000000000000000000000037
:10618000000000000000F03F10B553EC102B51EC64
:10619000100BFAF795F841EC100B10BD10B553EC4D
:1061A000112B51EC100BFAF78BF841EC100B10BDD2
:1061B0009FED050B10B553EC102B51EC100BFAF7BB
:1061C00098F941EC100B10BD000000000000000029
:1061D0009FED050B10B553EC102B51EC100BFAF79B
:1061E00016F941EC100B10BD00000000000000701B
:1061F0009FED050B10B553EC102B51EC100BFAF77B
:1062000006F941EC100B10BD00000000000000106A
:1062100030EE000A70470000DFED020A80EEA00AAF
:1062200070470000000000009FED020A20EE000A07
:1062300070470000000000102DE9F0014FF07F4290
:10624000B2EB410F9FBF4FF0FF310160BDE8F0019D
:1062500070474FF0004242EA0123C1F3C752783A37
:10626000551112F01F0C434CCCF120067C44C1F3B5
:10627000C752A2F178024FEA621204EB820254F88C
:10628000254008BFD2E9015612D0556804FA0CF433
:1062900025FA06F73C43976805FA0CF527FA06F845
:1062A000D26807FA0CFCF24045EA08054CEA0206FF
:1062B000A4FB034CA5FB0352A6FB03631D449D42B4
:1062C00034BF012600261319334416B1934202D974
:1062D00003E0934201D2012200E00022624402F175
:1062E000200C9206DC0C42EA443200EE102A5B03DA
:1062F000DFED210AF8EEC01A00EE103A4FEA9C1CBE
:1063000011F0004FB8EE400AC0F800C020EE201A8D
:1063100000EE105ADFED190AB8EE400A20EE200A0E
:1063200071EE810A70EE800A10EE902A02F500628A
:106330006FF30B0200EE902A70EEE11A31EEC11AF3
:10634000DFED101A30EE411A9FED0D0A20EE800AA3
:1063500001EE210A9FED0C1A00EE810A04BFBDE890
:10636000F0017047CCF180510160BDE8F001B1EE61
:10637000400A7047983A0000000000360000802C68
:1063800022AAFD29DB0FC92F0000C92F0148006890
:10639000704700008000002002E008C8121F08C1FA
:1063A000002AFAD170477047002001E001C1121F96
:1063B000002AFBD1704700000149086070470000C7
:1063C000800000202DE9FF5F82B00021DDE904306C
:1063D000020DDDF840B0034318D044F61050A2F28D
:1063E000FF3242431514119801281FD0A5EB0B0072
:1063F000401C5FEA000A4FF000064E4FDFF838916C
:10640000B046504615D5CAF1000413E01198012496
:106410004AA3012801D16FEA0B010298119AC0E941
:106420000031C0E9024206B0BDE8F09FCBF10000A8
:10643000DFE704460021404A491842EB0450CDE909
:10644000001012E0E00707D032463B46404649467E
:10645000F9F7DDFF8046894632463B46104619462D
:10646000F9F7D5FF06460F466410002CEAD1DDE9A6
:106470000401DDE90023BAF1000F06DAF9F7C7FFDE
:1064800042464B46F9F7C3FF05E0FAF732F84246B9
:106490004B46FAF72EF804460E460022284BFAF730
:1064A00013FB03D84FF0FF30014607E00022254BD5
:1064B00020463146F9F704FFFAF7D6FA102409E02E
:1064C000002C0ADB0A220023F9F798FE039B3032E6
:1064D0001A55641E50EA0102F2D1641C039AC4F1F9
:1064E00011031444119A012A03D0012208430DD14B
:1064F0000AE0084304D000204FF0110B119072E71E
:10650000A3EB0B056D1E0DE05B4504DD4FF00002B3
:1065100005F1010504E003DA4FF00002A5F10105E1
:10652000002AECD002981199C0E90231C0E9004577
:1065300079E70000000014400000F03F3000000048
:106540000000F0430000E03F30380A2801D201206B
:1065500070470020704700002DE9FF4F95B09B4623
:106560008946064600250FE2252877D100242746D4
:10657000F84A0121059400E0044316F8013F203B4E
:1065800001FA03F01042F7D130782A2811D06FF0C9
:106590002F033078A0F13002092A16D8059A44F06A
:1065A000020402EB820203EB42021044761C0590C7
:1065B000EFE759F8042B0592002A03DA504244F41D
:1065C0000054059044F00204761C30782E2816D131
:1065D00016F8010F44F004042A280DD06FF02F02A2
:1065E0003078A0F13003092B09D807EB870302EBC1
:1065F0004303C718761CF3E759F8047B761C307800
:106600006C280FD006DC4C2817D068280DD06A28DB
:1066100014D104E0742810D07A280FD10DE044F48E
:1066200000140AE044F4801401E044F44014727849
:10663000824202D104F58014761C761C30786628DC
:106640000BD013DC582877D009DC002875D04528FA
:10665000F6D04628F4D047281AD19DE118E06328E7
:1066600035D0642879D0652812D195E1702873D08F
:1066700008DC6728F1D069286FD06E280DD06F280C
:1066800006D1B5E073282CD0752875D0782874D041
:106690005A46179990476D1C75E1C4F302500228C1
:1066A00009D003280DD0D9F8001004280DD00D60B2
:1066B00009F1040967E1D9F80010EA17C1E90052AD
:1066C000F6E7D9F800100D80F2E70D70F0E719F841
:1066D000041B8DF8001000208DF80100EA4601200F
:1066E00003E059F804AB4FF0FF3061074FF00001B1
:1066F00002D40DE008F101018846B9420FDA804565
:10670000F8DB1AF808100029F4D108E008F10101BB
:1067100088468142FADB1AF808100029F6D105985C
:106720005B46A0EB080721463846179A00F094FA1A
:10673000284400EB080507E04DE029E10DE01AF8D8
:10674000010B5A4617999047B8F10108F7D25B46FA
:1067500021463846179A13E142E00A220092C4F318
:1067600002524FF0000A022A08D059F804CB032A3B
:106770004FEAEC710AD00DE029E02AE009F10701A7
:1067800021F00702F2E802C1914609E00FFA8CFC01
:106790004FEAEC71042A03D14FFA8CFC4FEAEC71FA
:1067A000002907DA0A460021DCF1000C61EB020146
:1067B0002D2202E0220504D52B228DF8042001228F
:1067C00003E0E20701D02022F7E7904659E00A21D2
:1067D00002E010220DE010214FF0000A00910BE0C2
:1067E00010224FF0000A44F004040827009203E04E
:1067F00008224FF0000A0092C4F30252022A05D088
:1068000059F804CB0021032A08D009E009F1070157
:1068100021F00702F2E802C1914605E01FFA8CFC64
:10682000042A01D10CF0FF0C4FF00008220728D5F4
:10683000702806D0009B83F0100353EA0A0305D0AA
:106840000EE040228DF80420012208E05CEA0102FB
:1068500006D030228DF804208DF8050002229046E3
:10686000009B83F0080353EA0A030AD15CEA0102A1
:1068700001D1620705D530228DF804204FF00108C0
:106880007F1E582804D034A003900EA802900DE07B
:1068900036A0F9E753466046009AF9F7AFFC844604
:1068A0000398825C0298401E029002705CEA01002C
:1068B000F0D1029806A9081A00F1200A600702D553
:1068C00024F4803400E00127574502DDA7EB0A00DD
:1068D00000E0002000EB0A01009005984144401AB6
:1068E0000590E00306D45B462146179A059800F010
:1068F000B3F90544002706E001A85A46C05D179980
:1069000090476D1C7F1C4745F6DBE0030CD55B46CA
:106910002146179A059800F09FF9054404E03020BD
:106920005A46179990476D1C0099481E00900029FF
:10693000F5DC08E0029802995A460078491C029159
:10694000179990476D1CBAF10001AAF1010AF1DC18
:1069500065E1000009280100303132333435363723
:10696000383961626364656600000000303132339B
:10697000343536373839414243444546000000003B
:1069800000F058F90544761C307800287FF4ECAD0F
:1069900019B02846BDE8F08F620700D4062709F138
:1069A000070222F0070CFCE80223E14603F000484E
:1069B0005FEA080C02D00FF2702C0DE05FEA045C75
:1069C00002D50FF2682C07E05FEAC47C02D00FF218
:1069D000602C01E0AFF2700C4FF0FF3823F0004361
:1069E000CDF850C065280CD006DC452809D04628D3
:1069F0001DD047283DD13DE0662818D067287ED1BC
:106A000038E00021112F01DB112000E0781CCDE9D6
:106A1000000106A90EA8FFF7D5FCDDE90F010E9ACB
:106A200003910021009207F1010A04914DE04FF01B
:106A300000400097CDE9011006A90EA8FFF7C2FC9F
:106A4000DDE90F0203920E9B11990022DDF80CA0E4
:106A50000093049211B9791C00EB010AB7EB0A000C
:106A600004D4C0F1FF3007F1010A0490AAEB07003B
:106A7000019044E0012F00DA01270021112F01DDF0
:106A8000112000E03846CDE9000106A90EA8FFF765
:106A900099FCDDE90F010E9A039100210491009207
:106AA000BA4621070CD40399514500DA8A46BAF157
:106AB000010F05DD009AAAF10101515C302908D0CF
:106AC000B84202DA10F1040F06DA0121CDE9011013
:106AD00015E0AAF10101E9E7002805DC0499014469
:106AE0000491AAEB000102E0411C514500DD8A46F9
:106AF0000499401A401C01904FF00040029020077A
:106B000004D40198504501DBCDF8048000208DF8B5
:106B10004F0002980DF14F07B0F1004F25D02B2008
:106B20000E9002984FF0020800280CDA40420290C2
:106B30002D200E9007E00A210298F9F778FD3031F8
:106B4000029007F8011DB8F10001A8F10108F2DC7C
:106B500002980028EFD1791E0E980870307800F066
:106B6000200040F0450007F8020D12A8C01B00F1FC
:106B700007081498007800B1012000EB0A01019881
:106B800001EBE07105984144401A401E0590E00376
:106B900006D45B462146179A059800F05DF8054437
:106BA0001498007818B15A46179990476D1CE00365
:106BB00024D55B462146179A059800F04DF8054408
:106BC0001CE00498002807DBDDE90301884203DDAF
:106BD0000098405C179901E0179930205A46904779
:106BE000049805F10105401C04900198401E019095
:106BF00004D12E205A46179990476D1CBAF1000116
:106C0000AAF1010ADDDC05E017F8010B5A461799D5
:106C100090476D1CB8F10001A8F10108F4DC5B4657
:106C20002146179A0598ABE62D0000002B000000C6
:106C3000200000002DE9F041044600251E461746BD
:106C4000880404D405E039462020B0476D1C641E3A
:106C5000F9D52846BDE8F0812DE9F041044600252C
:106C60001E469046C80301D5302700E0202788043F
:106C700004D505E041463846B0476D1C641EF9D581
:106C80002846BDE8F081000070B515462DED048B57
:106C90000C460646F0EE418AB0EE609AF0EE409A5D
:106CA000FAF7E0FAB0EE408AB0EE690AFAF7E2FAD3
:106CB00068EE090A9FED141A40EE680A60EE011AA8
:106CC00028EE011AC6ED000AF6EE000A48EE601A38
:106CD00000EE601A21EE892ADFED0C1A68EE212AF7
:106CE00060EE211A40EE602A48EE601A02EEE82AB1
:106CF00061EE891A41EE681A84ED002AC5ED001A8A
:106D0000BDEC048B70BD0000D7B35D3FD7B35DBF52
:106D10002DE9F34F2DED0C8BADF50D7D0C46F7A055
:106D2000FDF784FF9FEDFE9A4FF46067384601F04F
:106D30003DFC8246384601F039FC0646BAF1000FA8
:106D40007ED0002E7CD04FF40075284601F02EFC3A
:106D50008590002874D039465046F9F799FA39469B
:106D60003046F9F795FAA84629468598F9F790FA3A
:106D7000384601F01BFC0546384601F017FC8346F7
:106D8000002D5DD0BBF1000F5AD039462846F9F7E7
:106D90007FFA39465846F9F77BFA414603A8F9F7D6
:106DA00077FA8598FDF722FF384601F0FFFB8B90BC
:106DB000384601F0FBFB8A908B98002840D08A98D7
:106DC00000283DD039468B98F9F762FA39468A98FF
:106DD000F9F75EFA9FEDD3CAB0EE4C8A9FEDD2DA96
:106DE0008DED86CAF6EE00CACDED83CA86AA88A9C3
:106DF00087A8B0EE4C1AF0EE4D0AB0EE480AFFF745
:106E000043FF83AA84A989A8DDED861A9DED881A1F
:106E1000DDED870AB7EE000A02F020F8DFF80C93E8
:106E2000DFF80C830027F7EE008AD8F80000C16A6B
:106E3000DDED890A490800EE101AB8EE400A00E0BC
:106E400050E378EEE00A20EE200ABCEEC00A10EE15
:106E5000101AC163D9F800000028D8F80000C26AEF
:106E60004FEA520200EE102AB8EE400A15D0DDEDCE
:106E7000840A78EEE00A20EE200ABCEEC00A10EE8A
:106E8000102A8263D8F80000C16ADDED830A490840
:106E900000EE101AB8EE400A14E0DDED830A78EE39
:106EA000E00A20EE200ABCEEC00A10EE102A82632F
:106EB000D8F80000C16ADDED840A490800EE101A16
:106EC000B8EE400A78EEE00A20EE200ABCEEC00AD6
:106ED00010EE101A41636420FBF750F949F6404068
:106EE0007F1C8742A1DBDFED93DA9998B0EE6D0A43
:106EF000FDF784F8D4F890106068401A00EE100A8C
:106F0000F8EEC00A9FED8C0A20EE801A84ED061A76
:106F1000D4F88C102068401A00EE900A04F1440165
:106F2000081FF8EEE00A60EE801AB1EE410AC4EDE7
:106F3000071A70EE610AC4ED050A94ED0C0A00F020
:106F4000F3FD606CF9F744FB41EC100B9FED7BBB4C
:106F5000B0EE4B1AF0EE6B1AFEF752F9B0EE40AA03
:106F6000F0EE60AA206CF9F733FB41EC100BB0EEA9
:106F70004B1AF0EE6B1AFEF743F953EC1A2B51EC57
:106F8000100BF9F79DF941EC100BFFF729F851ECC4
:106F9000100BF9F730FB0AEE100A6AA0FDF746FE67
:106FA0000024C146F1EE0C9A002738EE098A86AA21
:106FB00088A987A8B0EE4C1AF0EE4D0AB0EE480A48
:106FC000FFF762FE83AA84A989A8DDED861A9DEDEC
:106FD000881ADDED870AB7EE000A01F03FFFD9F805
:106FE0000000C16A490800EE101AF8EE400A9DED53
:106FF000890A38EEC00A20EE800ABCEEC00A10EE04
:10700000101AC1634948006808B3D9F80000C16A82
:10701000DDED840A490800EE101A78EEE00AB8EEB9
:10702000400A20EE200ABCEEC00A10EE101A81635E
:10703000D9F80000C16ADDED830A490800EE101A94
:1070400078EEE00AB8EE400A20EE200A20E0D9F8F7
:107050000000C26ADDED830A520800EE102A78EEC5
:10706000E00AB8EE400A20EE200ABCEEC00A10EE9C
:10707000102A8263D9F80000C16A490800EE101A8C
:10708000F8EE400A9DED840A38EEC00A20EE800A30
:10709000BCEEC00A10EE101A41636420FBF76EF8D4
:1070A000B0EE6D0A9998FCF7A9FF7F1C282FFFF618
:1070B0007CAFB0EE6D0A9998FCF7A0FFFAF71AF9C9
:1070C00088EE29BAF0EE40AA0AEB84003BEE6A0A89
:1070D00080ED000AFAF71EF98B9941F82400009020
:1070E0001AEE900AF9F774FA074688461BEE100A62
:1070F000F9F76EFA41EC100B00983BE053746172A3
:1071000074696E672063616C6962726174696F6E25
:107110002070726F6365647572650A0D000000006F
:107120007CD9A03A000000009A99193EB8040020CA
:10713000C00D002017B7D1370000A53C00000000AB
:10714000000000402043757272656E7420416E67C6
:107150006C65203A20526F746F7220416E676C65C7
:10716000203A2052617720456E636F646572200A71
:107170000D0A0D000097CDE9018053EC102B21463C
:10718000DBA0FDF753FD641CB4F5607FFFF60CAF88
:107190000024DFF87893DFF87883002738EE498AF7
:1071A00086AA88A987A8B0EE4C1AF0EE4D0AB0EE78
:1071B000480AFFF769FD83AA84A989A8DDED861A2C
:1071C0009DED881ADDED870AB7EE000A01F046FE54
:1071D000D8F80000C26ADDED890A520800EE102AD4
:1071E00078EEE00AB8EE400A20EE200ABCEEC00AB3
:1071F00010EE102AC263D9F800000028D8F8000069
:10720000C26A4FEA520200EE102AB8EE400A15D0C8
:10721000DDED840A78EEE00A20EE200ABCEEC00A1A
:1072200010EE102A8263D8F80000C16ADDED830AEF
:10723000490800EE101AB8EE400A14E0DDED830AAA
:1072400078EEE00A20EE200ABCEEC00A10EE102A0A
:107250008263D8F80000C16ADDED840A490800EEB7
:10726000101AB8EE400A78EEE00A20EE200ABCEED2
:10727000C00A10EE101A41636420FAF77FFFB0EEE7
:107280006D0A9998FCF7BAFE7F1C282F86DBB0EEBA
:107290006D0A9998FCF7B2FEFAF72CF888EE29BA35
:1072A000F0EE40AA06EB84003BEE6A0A80ED000A8D
:1072B000FAF730F88A99814641F824001AEE900ACC
:1072C000F9F786F9074688461BEE100AF9F780F9A8
:1072D00041EC100B8DE8800353EC102B214684A069
:1072E000FDF7A4FC4FF46077641CBC42FFF651AF7D
:1072F000B0EE4C8A00209FED870A0AEB8001D1EDA9
:10730000000AA6EB800101F54061401C91ED7F1A57
:10731000B84230EE811AC1EE000A30EE888AECDB0A
:1073200028EE290A10EE100AF9F752F941EC100B79
:107330009FED791BFDF7FCFC51EC100BF9F75BF9A5
:1073400008EE900AB0EE680AFCF768FF7448C0EDDA
:10735000008A00200AEB8001B84691ED000AA6EBF6
:10736000800101F54061D1ED7F0A05EB8001401CF1
:1073700030EE200A404520EE2C0A81ED000AE9DBC0
:1073800000249FED688A00210BEB84070819403820
:1073900002D500F5607003E0404501DBA0F56070A8
:1073A00005EB800097ED000AD0ED000A491C80290A
:1073B00000EE880A87ED000AE8DB802C12DA05EB84
:1073C0008400D7ED000A90ED000A30EE600A20EE4E
:1073D000290AFEF73DFD20EE0A0A03A800EB84000F
:1073E00080ED000AD7ED000A9FED4F1A641C44455A
:1073F00080EE810A30EE0CCAC5DB8B9801688A9852
:10740000D0F8FC0D084400EBD0704FEA600847A0AC
:10741000FDF70CFC51A0FDF709FC00279FED5C8AED
:1074200007EBE8147F2C00DD803CF9F74BFF00EE02
:10743000100AC7EBC7010BEB8100B8EEC00AD0ED14
:10744000000A8598224670EECC0A394620EE200AC2
:10745000C0EE080ABDEEE00A10EE103A40F8243003
:107460004CA0FDF7E3FB0120FAF77EFE7F1C802F86
:10747000D6DB8598FDF7BAFB244880221430859925
:10748000F8F7EDFE18EE900AF9F7A2F841EC100BB0
:1074900045A053EC102BFDF7C9FB4D480169009145
:1074A0000FC801F0C0FB10B9494801F0B5FB4848CE
:1074B00001F056FB464801F04FFB584600F02CFE09
:1074C000284600F029FE504600F026FE304600F027
:1074D00023FE859800F020FE8B9800F01DFE8A9810
:1074E00000F01AFE0DF50D7DBDEC0C8BBDE8FC8F98
:1074F000256409252E346609202020252E346609AE
:107500002020202025640D0A00000000B80400207F
:10751000C00D00200000E04400000060FB21194085
:10752000B80300200000003C000060440A0D204524
:107530006E636F646572206E6F6E2D6C696E65612F
:107540007269747920636F6D70656E736174696FB1
:107550006E207461626C650D0A0000002053616D3D
:10756000706C65204E756D626572203A204C6F6FAD
:107570006B757020496E646578203A204C6F6F6B94
:1075800075702056616C75650A0D0A0D00000000CB
:10759000DB0FC94025640920202025640920202014
:1075A0002564200D0A0000000A0D456E636F6465B6
:1075B0007220456C656374726963616C204F666606
:1075C0007365742028726164292025660D0A000005
:1075D000B808002070B501220E4DD402214628467D
:1075E000FAF7CEFE0C490D4801F016F80A490B488F
:1075F000FFF78EFBC820FAF7B7FD09A0FDF716FBD1
:10760000002221462846FAF7BBFE14490020C86034
:1076100070BD000000000240CC0800208400002063
:107620000A0D2043616C6962726174696F6E206338
:107630006F6D706C6574652E2020507265737320B9
:10764000276573632720746F2072657475726E20CE
:10765000746F206D656E750A0D00000040000020FB
:10766000094A0021816352685201C0E90A21E022DF
:10767000C0E90C21016401214164816400F1280109
:107680000248FAF709BA0000B8040020400D0020B3
:107690000821C16100214161816180F8201070479B
:1076A0002DE9F04F854C93B0631C04F10C020021CE
:1076B0008348FAF778FA00287ED1DFF808B28248CA
:1076C0009BED032ADBED041A9BED121ADBED0D0A8C
:1076D0009BED0B0A01F0BCF97B4A11AB521C02F185
:1076E0000B017748FAF774F960788146FF2833D0A8
:1076F0004FF0000CA778FF2F31D00020E6780CEA7D
:10770000000CFF2E2DD0002025790CEA000CFF2D57
:1077100029D0002063790CEA000CFF2B25D0002033
:10772000A2790CEA000CFF2A21D00020E1790CEAB2
:10773000000CFF291DD000200CEA000C207AFC2848
:1077400019D04FF00008DFF884A11CEA080F4FF0B1
:10775000010E13D0022145E04FF0010CCAE70120D1
:10776000CCE70120D0E70120D4E70120D8E70120B1
:10777000DCE70120E0E74FF00108E4E7FF2D37D018
:107780004FF0000CFF2B36D04FF000081CFB08FC1C
:10779000B9F1FF0F32D000240CEA040CFF2F2FD0D8
:1077A0000024FF2E2ED04FF0000804EA08040CEA53
:1077B000040C424CFF2A00E07CE026D04FF0000889
:1077C0000CEA080CFF2923D04FF000080CEA080C43
:1077D000FD2820D04FF000081CEA080F4FF00008E9
:1077E0001CD04146CAF800103949C1F800E05DE0FC
:1077F0004FF0010CC6E74FF00108C7E70124CBE7C3
:107800000124CEE74FF00108CFE74FF00108D7E79A
:107810004FF00108DAE74FF00108DDE7FF2D22D035
:107820000025FF2B21D0002315FB03F5B9F1FF0F35
:107830001DD000231D40FF2F1BD00023FF2E1AD088
:10784000002633401D40FF2A17D000221540FF2993
:1078500015D000210D40FE2813D00020054212D083
:10786000FDF7CCF922E00125DBE70123DCE701236A
:10787000E0E70123E2E70126E3E70122E6E7012151
:10788000E8E70120EAE7DAF8000002280ED10B4908
:107890005D46402210316846CDF840B0F8F7DFFC75
:1078A00094E80F0001F08AFBC5F8A8800221044883
:1078B000FAF77CF813B0BDE8F08F0000C40B00208D
:1078C000400D0020CC080020A00B00204800002024
:1078D0004C00002070B504462DED068BB0EE40AA9A
:1078E000D0F8A400854D401CC4F8A4009FED840A84
:1078F0006168D4F890002268091AD4F88C002B68CB
:10790000101A53B100EE901AF8EEE00A60EE800A09
:10791000C4ED060A00EE900A09E000EE900AF8EEC7
:10792000E00A60EE800AC4ED060A00EE901A04F147
:107930004401081FF8EEE00A20EE800A84ED070AF1
:1079400094ED061AD4ED071AB1EE410A70EE610A01
:10795000C4ED050A94ED0C0A00F0E6F894ED120A65
:10796000DFED680A60EE200A94ED110A9FED661AB9
:10797000664E40EE010AC4ED120AD4ED250A94EDDC
:10798000101A70EEC18AD4ED260A30EEC08A94ED4A
:10799000210A30EE280A84ED210A94ED220A30EE05
:1079A000080A84ED220A96ED020ADFED599A20EECC
:1079B000290A9FED589A60EE090A9FED571A04F1C3
:1079C0008801081F81EE200A00F006FC96ED020AED
:1079D00094ED211A20EE290A60EE090A60EE810A70
:1079E00040EE280AC4ED140A96ED020AD4ED220AEC
:1079F00020EE290A20EE091A61EE200A40EE080A5C
:107A0000C4ED150A94ED080ADFED440A04F15401AF
:107A1000081F20EE200A00F0DFFB04F16C02111FAA
:107A200094ED151AD4ED140A94ED0C0A081FFFF713
:107A30002BF904F16400021FD0EC030A111F94ED2E
:107A4000080A0C3801F00AFA35482A6835490068F6
:107A5000002AB7EE000AC26A94ED161A00EE902AC8
:107A600030EE411AF8EE600A60EE810AFCEEE00AA0
:107A700010EE902ACA63C26A00EE902AF8EE600AFD
:107A800012D094ED171A30EE411A60EE810AFCEE26
:107A9000E00A10EE902A8A63C06A94ED181A00EE8C
:107AA000900AF8EE600A11E094ED181A30EE411ACF
:107AB00060EE810AFCEEE00A10EE902A8A63C06A4A
:107AC00094ED171A00EE900AF8EE600A30EE410AC3
:107AD00020EE800ABCEEC00A10EE100A486384ED66
:107AE0000CAAD4F8A40049F64041884202DD0020E7
:107AF000C4F8A400BDEC068B70BD0000B8040020E3
:107B00000000A53C3333733FCDCC4C3DB80300207F
:107B1000E02D903A77BE1F3D6666E6419A99993FFF
:107B2000C00D00200000014070B50D462DED068B04
:107B30000446F0EE618AB0EE419AF0EE609AB0EE43
:107B400040AAF9F78FFBB0EE408AB0EE4A0AF9F787
:107B500091FBDFED172AB6EE002ADFED161A60EE74
:107B6000220A48EE420A20EE891A60EE210A68EEE7
:107B7000211A08EE291A48EE420A40EE421A00EE97
:107B8000A81ADFED0D0A21EE201A84ED001A20EE6E
:107B9000691A01EEC91A68EE221A40EE421A01EE85
:107BA000E81A21EE200A85ED000ABDEC068B70BDB7
:107BB000D7B35D3FD7B35DBFABAA2A3F10B5002254
:107BC0004FF400611948FAF7DBFB19A0FDF72EF816
:107BD00019A0FDF72BF80A20FAF7D0FA1AA0FDF742
:107BE00025F80A20FAF7CAFA1CA0FDF71FF80A20A8
:107BF000FAF7C4FA20A0FDF719F80A20FAF7BEFA3E
:107C000021A0FDF713F80A20FAF7B8FA24A0FDF72F
:107C10000DF80A20FAF7B2FA28A0FDF707F80A20B3
:107C2000FAF7ACFA2B490020C86010BD00000240F2
:107C30000A0D0A0D0A0D000020436F6D6D616E6420
:107C4000733A0A0D00000000206D202D204D6F7446
:107C50006F72204D6F64650A0D0000002063202DB7
:107C60002043616C69627261746520456E636F6464
:107C700065720A0D000000002073202D20536574EA
:107C800075700A0D000000002065202D20446973E6
:107C9000706C617920456E636F6465720A0D000037
:107CA000207A202D20536574205A65726F20506F02
:107CB000736974696F6E0A0D0000000020657363BC
:107CC000202D204578697420746F204D656E750AEB
:107CD0000D000000400000207FB53BA0FCF7A6FF90
:107CE0000A20FAF74BFA40A143A0CDE9000143A3D3
:107CF00043A246A147A0FCF799FF0A20FAF73EFAF3
:107D00004C4CA068F8F764FCCDE902014AA0009051
:107D10004BA34CA251A152A0FCF788FF0A20FAF70E
:107D20002DFA574D57A058A3696858A2CDE9000114
:107D300058A159A0FCF77AFF0A20FAF71FFAA968A0
:107D400050A0CDE9000150A35BA25FA152A0FCF7B7
:107D50006DFF0A20FAF712FAE068F8F739FCCDE96E
:107D600002015AA000905BA35BA260A13CA0FCF7BB
:107D70005DFF0A20FAF702FAA069F8F729FCCDE9BD
:107D800002015BA0009053A35BA261A134A0FCF7A9
:107D90004DFF0A20FAF7F2F9E9685EA0CDE900018B
:107DA00039A35EA265A166A0FCF740FF0A20FAF79E
:107DB000E5F96A48FCF73AFF0A20FAF7DFF9684963
:107DC0000020C8607FBD00000A0D0A0D20436F6EC1
:107DD00066696775726174696F6E204F7074696F40
:107DE0006E73200A0D0A0A0063757272656E742044
:107DF00076616C75650000006D6178006D696E00DC
:107E0000706172616D657465720000007072656604
:107E10006978000020252D347320252D33317320FF
:107E2000252D357320252D367320252D32730A0D0F
:107E30000A0D0000B803002032303030000000008E
:107E40003130300043757272656E742042616E6429
:107E500077696474682028487A290000620000006D
:107E600020252D347320252D33317320252D357396
:107E700020252D367320252E31660A0D00000000C6
:107E8000B8040020313237003000000043414E205A
:107E9000494400006900000020252D347320252D61
:107EA00033317320252D357320252D367320252D54
:107EB00035690A0D0000000043414E204D61737486
:107EC00065722049440000006D00000034302E30FF
:107ED00000000000302E300043757272656E742011
:107EE0004C696D6974202841290000006C00000075
:107EF00033332E3000000000465720437572726500
:107F00006E74204C696D69742028412900000000BE
:107F100066000000313030303030000043414E20E8
:107F200054696D656F757420286379636C65732976
:107F30002830203D206E6F6E65290000740000001F
:107F400020252D347320252D33317320252D3573B5
:107F500020252D36732025640A0D0000B09D0008F1
:107F60004000002070B50122D1020F48FAF708FA4C
:107F70000E4C00252046C4F8B05000F099FE0120B8
:107F8000FAF7F2F89FED0A0A012284ED250A84ED42
:107F9000260A20210748FAF7F3F90748C560BDE82B
:107FA000704006A0FCF742BE00000240CC08002052
:107FB0000000000000080240400000200A0D20459B
:107FC0006E746572696E67204D6F746F72204D6FAD
:107FD0006465200A0D00000082B0CDE9000121F0A7
:107FE000004001909DED000B02B051EC100B70476A
:107FF000034850F8220000EB830090ED000A704720
:1080000000000020024850F8220050F8230070477A
:108010000000002010B50446F9F7DCF800212170BB
:1080200010BD0000072900D90721044A816052F8D9
:108030002110416000210170704700000000002005
:1080400010B50446F9F7ECF8F120F9F769F805499D
:10805000A06851F820000221F9F768F8012020708B
:1080600010BD00002000002001EB830010EE101A6C
:10807000F9F7B8B8009A01EB83001146F9F7B2B8E6
:10808000012131EE601A814070EE600A491E00EE57
:10809000101AB8EEC00A20EE800AC0EE010ABDEE4A
:1080A000E00A10EE100A7047B4EEE00AF1EE10FAA2
:1080B00007DDB4EEC10AF1EE10FA01DCB0EE410AC0
:1080C0007047F4EEC10AF1EE10FAF7DDB0EE600A87
:1080D0007047B4EEE00AF1EE10FA07D2B4EEC10A2E
:1080E000F1EE10FA01D3B0EE410A7047F4EEC10A86
:1080F000F1EE10FAF7D2B0EE600A704738B50446D8
:108100008DF800000223012269460248FBF7FEFBBE
:10811000204638BD980E002010B5002821D0114B04
:108120000022001F196803E0814203D80A4649680B
:108130000029F9D152B11368841A9C4204D1006815
:1081400018441060104602E0506000E0186039B139
:1081500002680B1A934203D10B681A440260496803
:10816000416010BD780000209FED160A164980ED91
:108170001E0A80ED1F0AD1ED020A9FED140ADFED01
:10818000151A60EE800AC0ED1C0AD1ED020A20EE3D
:10819000800ADFED0F0A80ED1D0A91ED020A20EE44
:1081A000200AF0EE000A20EE201AB7EE000AF0EEE8
:1081B000400A41EE610A80EE201A30EE410A80ED5D
:1081C000200A704777BE1F3DB8030020E02D903A8B
:1081D00017B7D137DB0F494000B5F0EE401A90EDEC
:1081E000000A0A46034660EE000A91ED000A40EEDE
:1081F000000AB0EE600AF8F779FFB4EEE10AF1EE9A
:1082000010FA0FDDD3ED000A60EEA10A80EE801AAD
:1082100083ED001AD2ED000A60EEA10A80EE801A0A
:1082200082ED001A00BD00002DED028BADF5027D40
:10823000FAF7BAF8FCF700F8FBF7B2FCFBF70EFE12
:10824000FBF734FDFBF78AFCFBF70CFDFBF7B8FBF3
:10825000FBF704FCFBF750FCFBF7DEFDFBF7AAFD88
:108260008D4A07219FED8D8A4FF48040B0EE480A79
:10827000FBF714FE0120F9F765FF8948F9F74EF97D
:108280008848F9F74BF98848F9F712FB8748FAF75D
:10829000D3FE8748FAF7D0FE0122864DD40221464C
:1082A0002846FAF76DF80A20F9F74CFF8249081FB3
:1082B00001F05EF8002221462846FAF761F87E4870
:1082C000903800F0F5FC0A20F9F73CFF00217748D0
:1082D000FBF7EAF804217548FBF7E6F80821734834
:1082E000FBF7E2F874480621A43800F061FC7248FC
:1082F000A438016900910FC800F062FC6F4C20683F
:10830000FCF7CFFC08B184ED008A6068FCF7C9FC7B
:1083100008B184ED018AA068FCF7C3FC684D50B930
:10832000D4ED020A10EE900AA84204D0F5EEC00A7D
:10833000F1EE10FA03D19FED630A84ED020AE068C2
:10834000FCF7AFFC50B9D4ED030A10EE900AA84236
:1083500004D0F5EEC00AF1EE10FA03D19FED5A0AEF
:1083600084ED030AA069FCF79CFC10B9A069A8423F
:1083700001D184ED068A554D95ED010AB8EEC00A8B
:1083800010EE100AFCF78DFC012610B96868401C3D
:1083900000D16E6095ED020AB8EEC00A10EE100A28
:1083A000FCF77FFC002710B9A868401C00D1AF6023
:1083B00095ED030AB8EEC00A10EE100AFCF771FC46
:1083C00010B9E868401C00D1EF6094ED000AFBF79B
:1083D00025FF94ED010AFBF727FF4FF4007101A878
:1083E000F7F756FF39498022143101A8F7F737FF14
:1083F00001A8FCF7FBFB30489038FFF7B5FE0A20D8
:10840000F9F7A0FE32A0FCF711FC35A0FCF70EFC3A
:1084100038A139A0FCF70AFC27489038D0E923128C
:108420003BA0FCF703FC2068F8F7D2F841EC100BF6
:1084300041A053EC102BFCF7F9FB6068F8F7C8F883
:1084400041EC100B48A053EC102BFCF7EFFB4EA0B7
:108450006968FCF7EBFB5048FFF702F94E482438F7
:10846000FFF716F94D48F9F7E0FD02214B48F9F7FF
:108470009DFA002211461920F9F7F8FF0122114652
:108480001420F9F7F3FF46480660012245494648A3
:10849000FBF718FAFEE7000084000020000000004F
:1084A000680C0020B00C0020F80C0020C00D00204B
:1084B000080E0020000002405C090020B8030020E4
:1084C000000080BF00007A4400002042B804002071
:1084D0000A0D20595343204C69746533200A0D005E
:1084E0000A0D20446562756720496E666F3A0A0D71
:1084F00000000000312E3000204669726D776172F5
:10850000652056657273696F6E3A2025730A0D00F7
:108510002041444331204F66667365743A202564D8
:108520002020202041444332204F66667365743A10
:108530002025640A0D00000020506F736974696F74
:108540006E2053656E736F7220456C65637472693B
:1085500063616C204F66667365743A202020252E77
:1085600034660A0D00000000204F75747075742089
:108570005A65726F20506F736974696F6E3A20206C
:10858000252E34660A0D00002043414E2049443A0E
:10859000202025640A0D0000C40B0020400D00209F
:1085A0004C00002059000020980E0020F0B50B3040
:1085B000154D20F007010024144A0FE003688B4298
:1085C0000BD38B4205D95E1A43184768C3E900678D
:1085D00000E04368136002C004E0021D1068002838
:1085E000ECD12046002802D1286808B10020F0BD57
:1085F000064A07481060074A121A22F00702C0E92B
:10860000002401202860D7E77C00002078000020AB
:10861000E40E0020E08E00202DE9F04F2DED0A8BB6
:1086200083468BB00C46CCA0FCF700FB9FEDD28AB2
:108630009FEDD2BA8DED048AF0EE489AB6EE000AAC
:108640008DED070A002504AA05A906A8B0EE691A4F
:10865000F0EE4B0AB0EE480AFEF716FB07AA09A98E
:1086600008A8DDED041A9DED051ADDED060AB7EE4A
:10867000000A00F0F3FBC24F002644F62068F7EE34
:10868000008A3868BA46C26ADDED080A520800EE70
:10869000102A78EEE00AB8EE400A20EE200ABCEE7E
:1086A000C00A10EE102AC2633868C26ADDED090AFA
:1086B000520800EE102A78EEE00AB8EE400A20EEEA
:1086C000200ABCEEC00A10EE102A8263DAF800001D
:1086D000C16ADDED070A490800EE101A78EEE00ADB
:1086E000B8EE400A20EE200ABCEEC00A10EE101AC6
:1086F00041636420F9F742FD761C4645C1DB5846CC
:10870000DFEDA0BAB0EE6B0AFBF778FC0120F9F7B9
:108710002BFDD4F890106068401A00EE100AF8EEB5
:10872000C00A9FED990A20EE801A84ED061A21688E
:10873000D4F88C00081A00EE900A04F14401081FD6
:10874000F8EEE00A60EE801AB1EE410AC4ED071AB5
:1087500070EE610AC4ED050A94ED0C0AFFF7E4F926
:10876000606CF7F735FF41EC100B9FED88CBB0EE56
:108770004C1AF0EE6C1AFCF743FDB0EE40AAF0EE96
:1087800060AA206CF7F724FF41EC100BB0EE4C1AF6
:10879000F0EE6C1AFCF734FD53EC1A2B51EC100B75
:1087A000F7F78EFD41EC100BFDF71AFC51EC100BA6
:1087B000F7F721FF064677A0FCF738FA3046F7F7BF
:1087C00007FF80468946606CF7F702FF06460F46B2
:1087D000206CF7F7FDFE8DE8C00341EC100B70A094
:1087E00053EC102BFCF722FA724C80E004AA05A986
:1087F00006A8B0EE691AF0EE4B0AB0EE480AFEF792
:1088000043FA07AA09A908A8DDED041A9DED051A87
:10881000DDED060AB7EE000A00F020FB6420F9F750
:10882000ADFCDAF80000C26ADDED080A520800EE7D
:10883000102A78EEE00AB8EE400A20EE200ABCEEDC
:10884000C00A10EE102AC263DAF80000C26ADDED39
:10885000090A520800EE102A78EEE00AB8EE400A43
:1088600020EE200ABCEEC00A10EE102A8263DAF86D
:108870000000C16ADDED070A490800EE101A78EE23
:10888000E00AB8EE400A20EE200ABCEEC00A10EE64
:10889000101A41635846B0EE6B0AFBF7AFFBF8F7CE
:1088A00029FDB5EEC08AF1EE10FA01D1B0EE409A82
:1088B000C82D17DD002510EE100AF7F789FEF1EE3E
:1088C0000C0A064688EE200A0F4610EE100AF7F74B
:1088D0007FFE41EC100B38A053EC102BCDE9006764
:1088E000FCF7A4F99FED380A6D1C38EE008A18EEEB
:1088F000100AA042FFF67AAFF8F7FCFC70EE490AC6
:10890000F5EEC00AF1EE10FA01DD012600E00026C6
:1089100010EE100AF7F75CFE04460D4619EE100A39
:10892000F7F756FE41EC100B28A053EC102BCDE9C5
:108930000045FCF77BF931462EA0FCF777F90EB124
:1089400031A000E035A0FCF771F9404806600BB09B
:10895000BDEC0A8BBDE8F08F0A0D20436865636BA0
:10896000696E67207068617365206F7264657269F3
:108970006E670A0D00000000000000009A99193E81
:10898000C00D002017B7D1370000A53C0000000043
:10899000000000400A0D43757272656E740A0D0086
:1089A0002566092020202025660920202025660D27
:1089B0000A000000DB0F4941252E346609202020E3
:1089C000252E34660D0A00006F12833A54686574D0
:1089D000612053746172743A202020256620202083
:1089E00020546865746120456E643A202025660A2B
:1089F0000D000000446972656374696F6E3A20204F
:108A000025640A0D0000000050686173696E6720DC
:108A1000636F72726563740A0D00000050686173C1
:108A2000696E6720696E636F72726563742E2020B1
:108A30005377617070696E67207068617365732029
:108A40005620616E6420570A0D000000B804002013
:108A50002DE9F04104462DED068BB0EE41AAF0EE73
:108A600060AA82B09FED358ADFED358AB0EE429A7A
:108A7000F0EE619A1420B0EE481AF0EE680AFFF7A3
:108A8000FFFA074614209FED2F1ADFED2F0AB0EEF4
:108A90006A0AFFF7F5FA80461020B0EE481AF0EEA9
:108AA000680AB0EE4A0AFFF7EBFA9FED288A0646FD
:108AB0000720B0EE481AFBEE040AB0EE690AFFF791
:108AC000DFFA05460720B0EE481AFBEE040AB0EEC6
:108AD000490AFFF7D5FA0346009867F313000090A0
:108AE000DDF801101A4868F31F31CDF80110ADF818
:108AF000056002789DF8071062F300018DF80710F9
:108B0000AAB163F347018DF80710002101701148E5
:108B1000406840F01000E0600098C4F8010001983F
:108B2000C4F8050002B0BDEC068BBDE8F08165F32A
:108B300047018DF807100121E8E700000000C84256
:108B40000000C8C200803B4400803BC40000484392
:108B500058000020B804002000210174FFF75ABA21
:108B6000F8B5114E05460024234656F8240000901F
:108B700095E80700FFF77EFA641CFF2CF4DD0B4E2E
:108B80004FF4A077BC420CDA06EB8400A0F58060BD
:108B9000234690ED000A95E80700FFF765FA641C8C
:108BA000F0E700202874F8BDB8040020B8030020C6
:108BB00070B50C460546FFF735FAEC6070BD000055
:108BC0002DE9F047124D074688469146002423467A
:108BD0004A4641463846FFF715FA45F82400641C1A
:108BE000FF2CF4DD0B4D4FF4A076B4420DDA234692
:108BF0004A4641463846FFF7FBF905EB8400A0F5ED
:108C00008060641C80ED000AEFE7BDE8F08700009B
:108C1000B8040020B803002010B50446FFF710FA8E
:108C20000121217410BD0098C0B27047FEB5F8F75D
:108C300071FB0646F8F74CFB10EE100AF7F7C8FC7C
:108C40000D460446F8F750FB10EE100AF7F7C0FC8B
:108C500041EC100B8DE8700053EC102B03A0FBF7D8
:108C6000E5FFBDE8FE400120F9F77EBA204D6563BF
:108C700068616E6963616C20416E676C653A2020A3
:108C8000256620202020456C656374726963616CE1
:108C900020416E676C653A202025662020202052F6
:108CA00061773A202025640A0D000000FFF726BAFC
:108CB0001F4A1168CB6A00EE103AF8EE400AB6EE91
:108CC000000A60EE800AFCEEE00A10EE903ACB63F8
:108CD0001168CB6A00EE903AF8EE600A60EE800A06
:108CE000FCEEE00A10EE903A4B631168CA6A00EE9F
:108CF000902AF8EE600A20EE800ABCEEC00A10EE60
:108D0000102A8A639FED0B0A80ED250A80ED260A62
:108D100080ED100A80ED110A80ED120A80ED220A22
:108D200080ED210A80ED150A80ED140A70470000DD
:108D3000C00D00200000000070B5274DA86806286F
:108D40003DD2DFE800F0030A113C3D44E86800280A
:108D500035D0BDE87040FEF731BFE86800282ED05E
:108D6000BDE87040FEF736BCE86818B1FFF7FAF8C6
:108D7000002023E0194C1A48D4F8A810C06881429A
:108D80000DDD00280BDD9FED170A84ED250A84ED2B
:108D9000260A84ED2F0A84ED300A84ED310A0F484B
:108DA00000F0BEF894ED0C0A0F490C483034FEF781
:108DB00091FDA06F401CA0676868401C686070BD92
:108DC000E8680028FBD0BDE87040FEF785BFBDE82D
:108DD0007040FFF72BBF000040000020CC080020AF
:108DE000B804002000000000180C002000B52DED94
:108DF000048B83B041EC190BF7F791FD41EC180B94
:108E000018EE100A18EE901A8DED008B002818BF8E
:108E10000120084320F00040C0F17F6000F1E040F5
:108E2000C00F14D019EE101A19EE900A8DED009BA8
:108E3000002918BF0121084320F00040C0F17F60E5
:108E400000F1E040C00F04BF0120FDF7B5FA51EC7E
:108E5000180B03B0BDEC048B00BD000070B51646C6
:108E60002DED088BF0EE61AAF0EE419AB0EE60AA0B
:108E7000F0EE408A0D460446B0EE6A1AF0EE690A3A
:108E8000B0EE4A0AFFF725F9B0EE408AB0EE6A1A52
:108E9000F0EE690AB0EE4A0AFFF706F938EE000A6A
:108EA000B6EE009A20EE098A7AEE480A9FED1AAAD9
:108EB00080EEA80AF0EE4A0A30EE090AFBF728FF16
:108EC0009FED16BAF0EE4B0AFBF72AFF79EEC80ABF
:108ED00084ED000A80EEA80AF0EE4A0A30EE090A94
:108EE000FBF716FFF0EE4B0AFBF71AFF85ED000AC1
:108EF0003AEEC80AC0EE280A30EE890AF0EE4A0AB5
:108F0000FBF706FFF0EE4B0AFBF70AFF86ED000ABF
:108F1000BDEC088B70BD0000CDCC4C3D3333733FAE
:108F200019499FED184A90ED0B3A4968D0ED2D2A6A
:108F300090ED2F2AD0ED0D1A90ED2E1AD0ED300ABB
:108F400090ED310A042902DBDFED103A01E0F2EE88
:108F5000083AC3EE234A72EEE42A22EE822AC1EED8
:108F6000A32A31EE621A00EE812A72EE000A80EE28
:108F7000A30ADFED070A20EE200A80ED260A80ED25
:108F8000254A704700000000B804002048E19241E3
:108F90008FC2554101EE100A70EEC00A0120B8EEF2
:108FA000C11A8840401E21EE201A00EE900AF8EE09
:108FB000E01AC1EE210A30EE800A70470FB410218A
:108FC00010B52DED048B82B09FED258ADDF82100D0
:108FD0000090DFED248ADDF8250001901C9CBDF88F
:108FE0000000F0EE480AB0EE680AFFF7D3FF84ED08
:108FF0002D0ABDF802000E21C0F30D00DFED1A0AA4
:109000009FED1A0AFFF7C6FF84ED2E0A9FED199A0D
:10901000BDF803000A218009DFED150AB0EE490A08
:10902000FFF7B8FF84ED2F0A9DF805000821DFED5A
:10903000120AB0EE490AFFF7ADFF84ED300ABDF821
:1090400006001021F0EE480AB0EE680AFFF7A2FF12
:1090500084ED310A02B0BDEC048B10BC5DF814FB4A
:109060000000C8420000C8C200803B4400803BC4EE
:1090700000007A4400000000000048422DE9F0475B
:1090800099489A4F01242DED028B0026007882B07A
:10909000A7F110081B280CD1C8F80860C8F80C40CC
:1090A00088F8016088F8006000217E54491C082976
:1090B000FBDBD8F808109FED8E8A8E4DDFF838A2C2
:1090C000B9B1D8F80810042968D0D8F808100529D3
:1090D00076D0D8F80810022906D1642804D1874830
:1090E00080ED268A80ED258A02B0BDEC028BBDE8BA
:1090F000F0876D2827D005DC632821D06528F3D1BF
:10910000052026E0732823D07A28EDD1B0EE480A56
:10911000FBF78AF87A489FED7B0AFAF76FFF142075
:10912000F9F72CF8F8F7E0F885ED010ADAF8100005
:1091300000909AE80F005446FFF775FD60B10EE00D
:10914000C8F8084001E0022003E0C8F80C40CBE773
:109150000420C8F80800F8E76748FFF75DFD664897
:10916000FFF7FEFC6448FFF7F7FC2069009094E8E5
:109170000F00FFF725FD95ED010AFBF755F868682C
:10918000F7F726FA02B041EC100BBDEC028B53EC62
:10919000102BBDE8F0475CA0FBF748BD0D2810D0B0
:1091A00098F80110002975D0394401F8010C604984
:1091B000FFF77CFD98F80100401C88F8010093E758
:1091C0008DE0C14698F80010DFF868816C2938D02E
:1091D00006DC622915D0662948D0692904D124E02B
:1091E0006D2928D0742956D053A0FBF71FFDDAF85B
:1091F000100000909AE80F005546FFF714FDA0B349
:1092000052E03A48FBF768FD51EC100BF7F7F3F921
:1092100000EE100ADFED520AFBF782FDDFED510A86
:10922000FBF776FD85ED020AE1E73048F7F73BF8FA
:10923000C8F80400DBE72D48F7F735F8C8F8080050
:10924000D5E72A48FBF748FD51EC100BF7F7D3F9A7
:1092500000EE100ADFED440AFBF762FDF0EE480A6B
:10926000FBF756FD85ED030AC1E71AE01F48FBF73F
:1092700033FD51EC100BF7F7BEF900EE100ADFEDED
:109280003B0AFBF74DFDF0EE480AFBF741FD85ED8B
:10929000060AACE720E01548F7F705F8C8F80C0017
:1092A000A5E71548FFF7B8FC1348FFF759FC12482B
:1092B000FFF752FC2869009095E80F00FFF780FC4B
:1092C000C9F80C4089F8016089F8006000203E541C
:1092D000401C0828FBDB07E788F8000067E71B282D
:1092E000F9D1C8F8086030E759000020500000208C
:1092F00000000000B8030020B8080020CC080020BF
:109300008400002017B7D1370A0D202053617665FD
:1093100064206E6577207A65726F20706F73697450
:10932000696F6E3A2020252E34660A0D0A0D000062
:1093300074000020B80400200A0D20272563272090
:109340004E6F7420612076616C696420636F6D6D6F
:10935000616E64207072656669780A0D0A0D0000FE
:109360000000FA440000C84200002042000004420D
:109370002DE9F04700262DED028B8A46DFF89C8010
:10938000814635464FF480673446B6EE008AD8F8F9
:109390000000C26A00EE102AB8EE400A20EE080A69
:1093A000BCEEC00A10EE102A4263D8F80000C26A70
:1093B00000EE102AB8EE400A20EE080ABCEEC00A01
:1093C00010EE102A8263D8F80000C16A00EE101A6D
:1093D000B8EE400A20EE080ABCEEC00A10EE101AE1
:1093E000C1630120F8F7AEFE01210D48F8F778F8C7
:1093F000054401210B48F8F773F8641C0644BC428D
:10940000C5DB96FBF7F1C9F8001095FBF7F1CAF838
:109410000010BDEC028BBDE8F0870000C00D0020FD
:10942000B00C0020680C0020000000002975493CA9
:10943000DF6EC93C6F0E173D3160493D8FA97B3D02
:1094400038F4963D6B0EB03D4721C93D5E2EE23D9E
:10945000EC2FFB3D7F130A3E698C163E76FD223EC3
:10946000A5662F3E97CA3B3E4A29483E807D543E22
:10947000DAC9603E560E6D3EF54A793E3CBD823EED
:109480000FD1883EA4DF8E3EFBE8943EC4EB9A3EAB
:10949000FFE7A03EFCDEA63E6CCFAC3E4EB9B23E2E
:1094A000A29CB83E1878BE3EB24BC43EBD18CA3E20
:1094B000ECDDCF3EED99D53E614FDB3E59FAE03E03
:1094C000C39EE63EB038EC3E71C9F13E5452F73EC1
:1094D000BBD0FC3E5322013FB2D7033FD387063FA8
:1094E000B532093F5AD80B3FC0780E3F4013113FA9
:1094F00082A8133FDF37163F55C1183FE5441B3F95
:109500008FC21D3F543A203F8AAB223FDB16253FD6
:109510009E7B273FD3D9293F7B312C3FED812E3FC6
:1095200079CC303FD00F333FF14B353F8481373F0B
:10953000E2AF393F0AD73B3FFDF63D3F130F403FB7
:109540009B20423F9E29443F132C463F0326483F21
:10955000BD184A3F9B034C3FF3E54D3F16C14F3FBB
:10956000B493513F745E533F5721553F0EDB563F36
:109570008F8D583FE3365A3FB2D75B3FA4705D3FB3
:1095800069005F3F5188603F0C07623F9A7C633FF0
:10959000A3E9643F274E663F7EA9673F50FC683FC2
:1095A0004E456A3FC6856B3F12BD6C3F31EB6D3F48
:1095B00023106F3F412B703FD93D713F9D46723F55
:1095C0003546733F9F3C743F3529753F9E0C763F6F
:1095D00032E6763F9AB6773F2C7D783FEB39793F7C
:1095E0007CED793F39977A3F22377B3F36CD7B3F01
:1095F00075597C3F87DC7C3F1D557D3F87C47D3F8F
:1096000074297E3F34857E3F77D67E3F8E1E7F3F16
:10961000295C7F3FEF8F7F3F88BA7F3FA5DA7F3F8E
:10962000EDF07F3F61FD7F3F0000803F23F87F3FEB
:1096300019E77F3F92CB7F3F37A67F3FAF777F3FD2
:10964000AB3E7F3FD2FB7E3F25AF7E3FA3587E3FA0
:109650004DF87D3F228E7D3F221A7D3F4E9C7C3F00
:10966000A5147C3F27837B3FD5E77A3F57437A3F5A
:109670000395793FDBDC783FDF1A783FB54F773FC2
:10968000B77A763FE59B753FE5B3743FB9C2733F48
:10969000B9C7723F8BC3713F31B6703F029F6F3FB6
:1096A000A67E6E3F1D556D3F68226C3F86E66A3F81
:1096B0001FA2693FE353683F22FD663F349D653F2B
:1096C0001A34643F22C3623F5648613FACC55F3FD6
:1096D000D6395E3F7AA55C3F9A085B3F3563593FB8
:1096E0004AB5573F82FF553F8E40543F637A523F01
:1096F000B4AB503F80D44E3F6FF54C3F280F4B3FEB
:109700005C20493FB329473FD42B453F1826433FB0
:109710007E18413FB0033F3FABE73C3F72C43A3F46
:109720005B99383FB667363FDC2E343FCCEE313F95
:109730002FA82F3F5C5A2D3FFB052B3F0DAB283F39
:109740009049263F2EE2233F9773213F19FF1E3F8A
:10975000B6841C3FC5031A3F957D173FD8F0143FD0
:10976000DD5E123FFCC60F3F35290D3F2F860A3FB5
:10977000ECDD073F6A30053FAA7D023F598BFF3E73
:109780003012FA3E8A8EF43E0803EF3E096DE93E40
:10979000DDCDE33E8525DE3E4F75D83E3CBDD23E55
:1097A000FCFBCC3EDF32C73E3563C13E5D8ABB3E2B
:1097B00047ACB53E05C5AF3E84D8A93E75E5A33E8E
:1097C00089EA9D3E60EA973EF7E4913E02D98B3EDE
:1097D000CEC7853EB7627F3EF52D733EB7EE663E3F
:1097E000FDA45A3E65534E3EF0F9413E3D9B353E49
:1097F0000E32293EA0C31C3EF44F103E0AD7033E52
:10980000C4B1EE3DB9A5D53DA298BC3D1B82A33D98
:1098100049658A3D6685623DD637303DF7C7FB3CDA
:10982000C615973C5374C93B5374C9BBC61597BC46
:10983000F7C7FBBCD63730BD668562BD49658ABDBA
:109840001B82A3BDA298BCBDB9A5D5BDC4B1EEBD58
:109850000AD703BEF44F10BEA0C31CBE0E3229BEF1
:109860003D9B35BEF0F941BE65534EBEFDA45ABEC8
:10987000B7EE66BEF52D73BEB7627FBECEC785BE9E
:1098800002D98BBEF7E491BE60EA97BE89EA9DBE1D
:1098900075E5A3BE84D8A9BE05C5AFBE47ACB5BEAD
:1098A0005D8ABBBE3563C1BEDF32C7BEFCFBCCBE2A
:1098B0003CBDD2BE4F75D8BE8525DEBEDDCDE3BE34
:1098C000096DE9BE0803EFBE8A8EF4BE3012FABEFF
:1098D000598BFFBEAA7D02BF6A3005BFECDD07BF12
:1098E0002F860ABF35290DBFFCC60FBFDD5E12BF34
:1098F000D8F014BF957D17BFC5031ABFB6841CBF2F
:1099000019FF1EBF977321BF2EE223BF904926BFC8
:109910000DAB28BFFB052BBF5C5A2DBF2FA82FBF57
:10992000CCEE31BFDC2E34BFB66736BF5B9938BF93
:1099300072C43ABFABE73CBFB0033FBF7E1841BF24
:10994000182643BFD42B45BFB32947BF5C2049BF6E
:10995000280F4BBF6FF54CBF80D44EBFB4AB50BF88
:10996000637A52BF8E4054BF82FF55BF4AB557BF7E
:10997000356359BF9A085BBF7AA55CBFD6395EBF15
:10998000ACC55FBF564861BF22C362BF1A3464BF13
:10999000349D65BF22FD66BFE35368BF1FA269BF48
:1099A00086E66ABF68226CBF1D556DBFA67E6EBF7E
:1099B000029F6FBF31B670BF8BC371BFB9C772BF93
:1099C000B9C273BFE5B374BFE59B75BFB77A76BF05
:1099D000B54F77BFDF1A78BFDBDC78BF039579BF5F
:1099E00057437ABFD5E77ABF27837BBFA5147CBFD7
:1099F0004E9C7CBF221A7DBF228E7DBF4DF87DBF5D
:109A0000A3587EBF25AF7EBFD2FB7EBFAB3E7FBFDC
:109A1000AF777FBF37A67FBF92CB7FBF19E77FBFEE
:109A200023F87FBF000080BF61FD7FBFEDF07FBFE7
:109A3000A5DA7FBF88BA7FBFEF8F7FBF295C7FBF6A
:109A40008E1E7FBF77D67EBF34857EBF74297EBFD2
:109A500087C47DBF1D557DBF87DC7CBF75597CBF2A
:109A600036CD7BBF22377BBF39977ABF7CED79BF7C
:109A7000EB3979BF2C7D78BF9AB677BF32E676BFD7
:109A80009E0C76BF352975BF9F3C74BF354673BFAA
:109A90009D4672BFD93D71BF412B70BF23106FBF70
:109AA00031EB6DBF12BD6CBFC6856BBF4E456ABF43
:109AB00050FC68BF7EA967BF274E66BFA3E964BF9D
:109AC0009A7C63BF0C0762BF518860BF69005FBFAB
:109AD000A4705DBFB2D75BBFE3365ABF8F8D58BF4E
:109AE0000EDB56BF572155BF745E53BFB49351BFB1
:109AF00016C14FBFF3E54DBF9B034CBFBD184ABF16
:109B0000032648BF132C46BF9E2944BF9B2042BF5B
:109B1000130F40BFFDF63DBF0AD73BBFE2AF39BFD1
:109B2000848137BFF14B35BFD00F33BF79CC30BF05
:109B3000ED812EBF7B312CBFD3D929BF9E7B27BFA0
:109B4000DB1625BF8AAB22BF543A20BF8FC21DBF90
:109B5000E5441BBF55C118BFDF3716BF82A813BF2E
:109B6000401311BFC0780EBF5AD80BBFB53209BF22
:109B7000D38706BFB2D703BF532201BFBBD0FCBE01
:109B80005452F7BE71C9F1BEB038ECBEC39EE6BEFA
:109B900059FAE0BE614FDBBEED99D5BEECDDCFBE1C
:109BA000BD18CABEB24BC4BE1878BEBEA29CB8BE19
:109BB0004EB9B2BE6CCFACBEFCDEA6BEFFE7A0BE07
:109BC000C4EB9ABEFBE894BEA4DF8EBE0FD188BE64
:109BD0003CBD82BEF54A79BE560E6DBEDAC960BE86
:109BE000807D54BE4A2948BE97CA3BBEA5662FBE9B
:109BF00076FD22BE698C16BE7F130ABEEC2FFBBD1C
:109C00005E2EE2BD4721C9BD6B0EB0BD38F496BDD6
:109C10008FA97BBD316049BD6F0E17BDDF6EC9BC1A
:109C2000297549BC00000000000000000000000091
:109C300001020304060708090000000001020304F2
:109C400004FA97999999D93FAF788E1DC571CC3F89
:109C50009FC678D0099AC33F935555555555E53F52
:109C6000599322942449D23FDE03CB966446C73FE2
:109C700044523EDF12F1C23F000000000000F03FFE
:109C8000000000000000F83F00000000000000009D
:109C90000000004003B8E23F0000000000000000A8
:109CA00006D0CF43EBFD4C3E033333333333E33F36
:109CB000FFAB6FDBB66DDB3F4D268F515555D53F62
:109CC00001411DA96074D13F65DBC9934A86CD3F30
:109CD000EF4E454A287ECA3F3E5555555555C53F1E
:109CE00093BDBE166CC166BF2CDE25AF6A56113F10
:109CF000F16BD2C541BDBBBED0A4BE726937663E12
:109D00000000000000000000000000006E83F9A2C7
:109D10002915444ED15727FCC0DD34F5999562DBF7
:109D20004190433CAB6351FE0040404040404040C6
:109D3000404041414141414040404040404040401E
:109D400040404040404040404005020202020202C2
:109D50000202020202020202022020202020202011
:109D60002020200202020202020290909090909025
:109D700010101010101010101010101010101010E3
:109D80001010101002020202020288888888888857
:109D90000808080808080808080808080808080843
:109DA000080808080202020240000000299D00087D
:109DB0000A0D20546F206368616E6765206120760C
:109DC000616C75652C2074797065202770726566EA
:109DD0006978272776616C75652727454E5445526B
:109DE000270A0D20692E652E20276231303030275A
:109DF00027454E544552270A0D0A0D001C9E0008A7
:109E0000000000208400000098630008A09E000865
:109E1000840000205CCE0000A86300080000000859
:109E2000004000080080000800C000080000010891
:109E300000000208000004080000060800000000FE
:109E400008000000100000001800000020000000C2
:109E5000300000003000000038000000000000006A
:109E600000000000000000000000000000000000F2
:109E700000000000000000000000000000000000E2
:109E80000100000010000000000000000024F400A9
:109E900000000000000000000000000000000000C2
:04000005080001C529
:00000001FF
