:020000040800F2
:10000000605F0120ED010008B7720008FD64000880
:10001000B5720008C51A000871A4000800000000AD
:10002000000000000000000000000000E186000861
:100030005928000800000000917E0008F99200088D
:10004000070200080702000807020008070200086C
:10005000070200080702000807020008070200085C
:10006000070200080702000807020008070200084C
:10007000070200080702000807020008070200083C
:10008000070200080702000807020008070200082C
:100090000702000807020008070200089B2A000860
:1000A000070200087593000807020008070200080D
:1000B000F5930008A9940008070200080702000849
:1000C00007020008070200080702000807020008EC
:1000D0000702000831A40008070200080702000810
:1000E000852A000807020008070200080702000826
:1000F00007020008070200080702000807020008BC
:1001000007020008070200080702000807020008AB
:10011000070200080702000807020008070200089B
:10012000070200080702000807020008070200088B
:10013000070200080702000807020008070200087B
:10014000070200080702000807020008070200086B
:10015000070200080702000807020008070200085B
:10016000070200080702000807020008070200084B
:10017000070200080702000807020008070200083B
:10018000070200080702000807020008070200082B
:10019000070200080000000007020008070200082C
:1001A000070200080702000807020008070200080B
:1001B00007020008070200080702000807020008FB
:1001C00007020008070200080702000807020008EB
:1001D0000702000807020008DFF80CD000F09EFCC0
:1001E000004800472DDD0008605F01200648804779
:1001F00006480047FEE7FEE7FEE7FEE7FEE7FEE70C
:10020000FEE7FEE7FEE7FEE765930008D901000878
:100210002DE9F05F0546002092469B46884606463B
:10022000814640241BE0284641464746224600F0CE
:10023000C2F953465A46C01A914110D31146184686
:10024000224600F0A9F92D1A67EB01084F46224615
:100250000120002100F0A0F917EB00094E41201EFB
:10026000A4F10104DFDC484631462A464346BDE896
:10027000F09F40EA01039B0703D009E008C9121F61
:1002800008C0042AFAD203E011F8013B00F8013B50
:10029000521EF9D27047D2B201E000F8012B491E7C
:1002A000FBD270470022F6E710B513460A46044613
:1002B0001946FFF7F0FF204610BD421C10F8011B45
:1002C0000029FBD1801A704770B506460AF030FA53
:1002D000046805460A220021304600F0DDF92C6052
:1002E00070BD2DE9FE4F804681EA0300C00F0C4629
:1002F000009021F0004123F00045B8EB0200A94135
:1003000005D24046214690461C460B46024623F045
:100310000040104347D0270DC7F30A00C3F30A512A
:100320000290401A019040286BDAC3F3130040F4A6
:10033000801B0098924620B10023D2EB030A63EBA6
:100340000B0B01985946C0F14002504600F024F9C9
:1003500006460D4650465946019A00F03CF910EB0E
:1003600008006141002487EA115284EAE7731A43C6
:1003700040D0009A62B3019A012A4FEA075215DC75
:10038000001B61EB02014FF0004202EA0752CDE987
:100390000042001C41F5801132462B4600F0FAF96C
:1003A00003B0BDE8F08F40462146F9E7001B61EB42
:1003B0000201001C41F5801300185B412018A2F5D2
:1003C000001747EB030140EAD570B6196D4111E003
:1003D0006D084FEA360645EAC0754FEA0752001B22
:1003E00061EB0201001C41F5801149084FEA300021
:1003F0000019514132462B4603B0BDE8F04F00F0E2
:10040000BAB90098012240000023D0EB020263EB4E
:10041000E073009821464FEAE074B8EB000061EB0E
:100420000401E9E783F000435BE781F0004158E70E
:100430002DE9F04D81EA030404F0004B21F0004562
:1004400014464FF0000A23F0004150EA050220D084
:1004500054EA01021DD0C5F30A570246C5F313033F
:10046000C1F31300C1F30A5640F4801543F480131E
:10047000A7EB0608101BD64608F2FD3873EB050003
:1004800002D308F1010801E092185B41B8F1000FB6
:1004900003DA00200146BDE8F08D00204FF4801102
:1004A000064684460EE0171B73EB050705D3121BA7
:1004B00063EB050306434CEA010C49084FEA3000A0
:1004C00092185B4150EA0107EDD152EA030012D0C5
:1004D00082EA040083EA0501084305D0101BAB4102
:1004E00006D20122002306E000224FF0004302E082
:1004F0006FF0010253101AEB06004CEB085110EBA1
:100500000A0041EB0B01BDE8F04D00F034B900F0FA
:10051000004230F000400AD0C10D01F56071C0F317
:10052000160042EA0151C2084007114370470020FB
:100530000146704701F0004330B421F0004150EA19
:10054000010206D00A0DA2F56072C1F31301002A60
:1005500002DC30BC00207047440F44EAC104C100F3
:10056000E01830BC00EBC25000F0CEB830B50B46FE
:10057000014600202022012409E021FA02F59D42D3
:1005800005D303FA02F5491B04FA02F52844151EA7
:10059000A2F10102F1DC30BD202A04DB203A00FA8E
:1005A00002F1002070479140C2F1200320FA03F3CA
:1005B000194390407047202A04DB203A21FA02F0C8
:1005C0000021704721FA02F3D040C2F1200291408D
:1005D000084319467047202A06DBCB17203A41FA18
:1005E00002F043EAE07306E041FA02F3D040C2F1C0
:1005F0002002914008431946704700000FB40023C1
:1006000000B589B00CA900910B996FF00042CB6046
:100610001E4B06931E4B07930423CDE901321D4A5E
:10062000089202466B46002000F02CFB09B05DF8F2
:1006300014FB70B586B006464FF0FF300091CDE94F
:100640000101002015460C4604903246694604A874
:10065000FFF7D4FF02460498211825B108B10846D7
:1006600000E020462860049800280DD0002A02DD12
:100670000098884208D0081B0094CDE90104324656
:10068000694604A8FFF7BAFF06B070BDBD0E0008AA
:10069000DB0E0008490B00082DE9F04791460F4694
:1006A00080460446002614F8015B2DB100F048FA9C
:1006B0000068405DC007F6D12B2D02D02D2D18D03B
:1006C000641E4A463946204600F018FC27B13968B6
:1006D000A14201D1C7F8008071054FF002040BD58B
:1006E0004042002803DD0AF023F80460A007BDE8BB
:1006F000F08746F48066E4E70028F8DA0AF018F894
:1007000004606FF00040F2E70029A8BF7047401C6A
:10071000490008BF20F00100704710B4B0FA80FC17
:1007200000FA0CF050EA010404BF10BC704749B154
:10073000CCF1200421FA04F411FA0CF118BF0121C4
:1007400021430843A3EB0C01CB1D4FEA00614FEAA4
:10075000102042BF002010BC704700EBC350104473
:100760000029A4BF10BC7047401C490008BF20F0FE
:10077000010010BC704710B5141E73F1000408DAB4
:10078000401C41F1000192185B411A4301D120F055
:10079000010010BD2DE9F04D92469B4611B1B1FA12
:1007A00081F202E0B0FA80F220329046FFF7F4FEC8
:1007B00004460F4640EA0A0041EA0B0153465A46F6
:1007C000084313D0114653EA010019D0C8F1400282
:1007D0005046FFF7F0FE05460E4650465946424643
:1007E000FFF7DAFE084305D0012004E02046394631
:1007F000BDE8F08D0020054346EAE0762C43374300
:100800000A986305E40AA0EB08000022FD0A44EA06
:1008100047540A3002D500200146E9E701051019C6
:100820006941DDE9084500196941BDE8F04DA2E7DD
:100830002DE9FE4F81EA030404F0004421F0004159
:1008400000944FF0000B23F0004350EA01045ED007
:1008500052EA03045BD0C3F30A54C1F30A552C4493
:10086000A4F2F3340194A0FB0254C1F3130141F448
:100870008011C3F3130343F4801301FB024400FB14
:10088000034E840A970A44EA815447EA8357A4FB3B
:10089000076802958D0A05FB07854FEA932C04FB38
:1008A0000C542705029D4FEA065847EA1637B5EB68
:1008B00008056EEB070C870E920E47EA811742EA95
:1008C0008312A7FB0201B6EB0B0164EB00042B0DB6
:1008D00043EA0C335E1844EB1C50DA465146E7FB02
:1008E0000201C5F313044FEA0B3343EA14534FEAF2
:1008F0000432019C43EA0603A4F10C040294009C18
:10090000CDE900B4FFF746FF03B0BDE8F08F00204B
:100910000146F9E770B521F0004303430CD0C1F361
:100920000A550024D5EB040564EB0403D617AD1A71
:10093000B34102DB0020014670BD201841EB02519B
:1009400070BD2DE9F04D00231A461B1A8A4103DBC6
:1009500000200146BDE8F08DC1F30A52C1F3130136
:1009600041F480154FF0000BD10702D100186D4102
:10097000521E0027044640F2FF11384601EB620A7E
:100980003E468046024600204FF48011FFF713FEDA
:10099000C2197141BB1846EB0100B4EB030C75EBB7
:1009A000000C04D3E41A65EB000517460E46241923
:1009B00008F101006D4180463428E3DDF91946EB6A
:1009C0000600091BA84103D24FF0FF32134601E095
:1009D000002213461BEB070046EB0A51BDE8F04D21
:1009E000FFF7C9BE2DE9FE4FC3F30A5701F00045DA
:1009F0000024C1F30A56C3F31303C1F3130143F4F4
:100A0000801312EB020AA64641F48011009543EBD5
:100A1000030CA7F1010B16E0B0EB0A0061EB0C012F
:100A2000071E71F1000707DA4FF00008D0EB08004D
:100A300085F0004568EB0101171A73EB0107EBD352
:100A4000761E001849415E45F6DA50EA010209D0E7
:100A5000CDE900E5002213460296FFF79BFE03B0A6
:100A6000BDE8F08F20460099F9E70EB5C10F80EA86
:100A7000E0700844CA07002140F233438DE80E00BD
:100A80000A460B46FFF786FE03B000BDC1F30A52CB
:100A9000C1F3130140F2FF3341F480119A4202DAAC
:100AA00000200146704740F233439A42A2F233429B
:100AB00002DC5242FFF77FBDFFF76EBD30B5041E6A
:100AC00071F1000404DB4FF00044404264EB01018B
:100AD000141E73F1000405DB1C464FF00043524224
:100AE00063EB04038B4208BF824230BD30B5041E65
:100AF00071F1000404DB4FF00044404264EB01015B
:100B0000141E73F1000405DB1C464FF000435242F3
:100B100063EB0403994208BF904230BD064C074D79
:100B200006E0E06840F0010394E8070098471034BD
:100B3000AC42F6D3FFF754FB9C010108BC0101084D
:100B4000004870474C01010810B50446FFF7F8FF54
:100B50000068005D00F0010010BD00002DE9FF4FAE
:100B6000087883B09946FF2805D0491C2D2804D069
:100B70000024002008E000200BE00124F9E700EB4E
:100B8000800003EB4000491C0B78FF2BF7D104B128
:100B9000404200230293147819461D462D2C01D0A3
:100BA0002B2C04D1521C2D2C13D000240294AA46C5
:100BB0001478FF2C0FD00A25A3FB057801FB0581D3
:100BC0004FF0000C03FB0C11521CE3194AEB01011E
:100BD000EEE70124EAE7814453EA010002D019F567
:100BE000C87F06DA03980021C0E9001107B0BDE80C
:100BF000F08F0025AE4E2F46DFF8B882184600F081
:100C0000DAF9CDE90001B9F1000002DAC9F1000416
:100C100000E004460023A74A1AEB030B42EB045AF8
:100C200012E0E00707D02A46334638464146FFF730
:100C3000FFFD074688462A46334610461946FFF709
:100C4000F7FD05460E466410002CEAD1DDE90001EF
:100C5000B9F1000F5A46534606DAFFF7E9FB3A4668
:100C60004346FFF7E5FB05E0FFF7E2FD3A46434662
:100C7000FFF7DEFD029A0AB181F00041039AC2E952
:100C80000001B3E72DE9FF4F1F468DB0D7E90146BC
:100C90004FF0FF382E2045464FF000090B90B96900
:100CA0006D1C0E988847396A824688470028F6D11D
:100CB000BAF1FF3F0AD024F4D064002E11DDBAF15E
:100CC0002B0F08D0BAF12D0F0BD102E0404611B026
:100CD0008DE744F48064B9696D1C0E98884782469C
:100CE000761E6946600501D52D2000E02B208DF889
:100CF000000001F1010B0DF1200809E0B9696D1C3C
:100D00000E98884782460F9844F40074761E05605A
:100D1000002E02DDBAF1300FF0D00B998A453ED19A
:100D200044F0800406E00F99681CA9F1010944F41D
:100D300000740860B9696D1C761E0E98884782465B
:100D40003028F0D02BE00B998A4505D1200603D43A
:100D500044F08004761E18E050460BF025F908B3E5
:100D60000DF11301761E44F400748B4508D2AAF1EC
:100D700030000BF8010B200607D5A9F1010003E0B4
:100D8000200602D409F101008146A00502D50F9981
:100D9000681C0860B9696D1C0E9888478246002E51
:100DA000D1DC53E0002E51DDBAF1650F02D0BAF16B
:100DB000450F4BD1A00549D5B9696D1C24F4407489
:100DC000761E0E9888478246002E0CDD2B2804D014
:100DD000BAF12D0F07D144F48074B9696D1C0E98D7
:100DE00088478246761EE00501D52D2100E02B21A3
:100DF00008F8011BCDF82C8021E00DF12901761EA9
:100E000044F4007488450CD2AAF1300010F0FF00C1
:100E100088F8000002D10B99884509D908F101082A
:100E200006E0E00501D5244801E042F20F7081465A
:100E3000B9696D1C0E98884782460F980560002E90
:100E400004DD50460BF0B0F80028D6D1F9690E98B1
:100E50008847FF208BF8000088F8000000200690EB
:100E600007904B466A4608A906A8FFF777FEA0053B
:100E700002D46FF001002AE714F0240F0AD0E00733
:100E800014D1DDE906123868031D3B600068C0E933
:100E900000120BE0DDE90601FFF74CFB0146E0071D
:100EA00004D13868021D3A600068016028460EE7E8
:100EB000000014400000F03FF1D8FFFF426842B14B
:100EC000016811F8013B23B1521EC0E90012184617
:100ED00070470121C160881E704742685AB1C368DB
:100EE000016843B983688B4205D0491E521CC0E992
:100EF0000012002070474FF0FF3070472DE9F05F7F
:100F000082460078002715468B460AF10104B9464F
:100F1000302801D09DB113E014F8010B0127782887
:100F200003D0582801D045B10AE00DB1102D07D1EA
:100F30000027102514F8010B02E0082500E00A251F
:100F40000026B0460EE005FB080005FB06F1012770
:100F500001EB10461FFA80F8B6F5803F00D3B94682
:100F600014F8010B294600F018F80028EBDABBF161
:100F7000000F05D00FB1641E00E05446CBF80040CE
:100F8000B9F1000F06D009F0D3FB02210160C81EA1
:100F9000BDE8F09F48EA0640FAE73A2800D2303828
:100FA00020F02002412A01D3A2F13700884201D368
:100FB0004FF0FF3070470EB540F2334202920022EC
:100FC000CDE900221346FFF7E5FB03B000BD70B585
:100FD0008C1810F8015B15F0070301D110F8013BE4
:100FE0002A1106D110F8012B03E010F8016B01F86B
:100FF000016B5B1EF9D12B0705D40023521E0DD4C3
:1010000001F8013BFAE710F8013BCB1A921C03E010
:1010100013F8015B01F8015B521EF9D5A142D8D348
:10102000002070BD70B50446006881688268C1F315
:10103000400112F0010F28D039BB816801F00D0189
:10104000012914D18168124A1140891C81602168EC
:101050000320086003F070F8054612E003F06CF816
:10106000401B02280DD920688068C00709D0E06DB8
:1010700040F01000E065206E40F001002066012085
:1010800070BD20688068C007E8D1002070BD0000F6
:10109000C0FFFF7F70B504460068816811F0010F42
:1010A0002DD18168174A11421AD18168D543294050
:1010B000491C816003F040F806461BE0816811F08E
:1010C000010F03D181682940491C816003F034F885
:1010D000801B02280ED920680068C043C00709D0D1
:1010E000E06D40F01000E065206E40F001002066E9
:1010F000012070BD20680168C943C907DED1002006
:1011000070BD00003F0000802DE9F05FD04D8A46A1
:101110000024611E6982C10600F00F074FF001092B
:10112000284685F80B90807BA34604D54FF0010B31
:1011300020F0100005E0C10601D5012F70D100F0AC
:101140000F00A873000607EB1050C0B200268046BF
:1011500044281DD009DC122811D022280FD02428C1
:101160000FD0B8F1420F20D109E0482810D08228D2
:1011700005D084280CD0B8F1880F16D108E00220E1
:1011800007E0B3492E31881E00F038FA040004D17C
:10119000687B00F039FE040007D0A87B02286ED0DF
:1011A00004286DD008286CD1ECE06E854046B8F17B
:1011B000340F22D022DC222831D010DC14281CD09D
:1011C00007DC112874D012283BD0B8F1130F70D16E
:1011D00031E0182811D0B8F1210F6AD1ABE02828EE
:1011E0000BD005DC232808D0B8F1240F61D149E0E9
:1011F000312822D0B8F1320F5BD1BFE048285ED051
:101200000FDC42287FD005DC38286FD0B8F1410FC1
:101210004FD187E0432869D0B8F1440F49D195E018
:10122000F2E0A8F18100082843D2DFE800F07265FF
:10123000A760A9A9A98F1324B9E0864813240670D2
:10124000B5E009F0FBF8287820B105F07FFB040039
:1012500002D006E05124AAE0EE7200F001FC040086
:1012600004D0FF2C6FD0E87A20B105E07A4981F8EC
:1012700000909CE000F0FAFB05F0A0FB97E089E00D
:1012800084E073E007F05EFD040006D17048EE7262
:10129000383000F081FB040004D0FF2C53D0E87AF2
:1012A00040B109E0288F07F007FD85F802907EE045
:1012B0004AE065E000F0D8FB07F04AFF77E007F06E
:1012C00037FF040004D1EE7200F0CCFB040004D020
:1012D000FF2C38D0E87A18B104E085F8019066E078
:1012E00000F0C6FB07F062FF61E00CE046E000F0B2
:1012F000BFFB07F05BFF0AE000F0BAFB044607F013
:1013000055FFEE7294BB00F0AFFB07F021FFEE72C9
:101310004DE000F0ADFB044607F048FFEE722CBB39
:101320004FF0410800F0A0FB044607F011FFEE72F9
:10133000E4B94FF0210805F041FB00F097FB0446AB
:10134000444806702AE047E042480670BBF1000FAF
:1013500002D0404600F03CF9A87A68B9A87B10F0AA
:101360000C0F09D0E88D10B1022003E016E0A88D23
:1013700010B1032001F094FBFE2418E0112416E0C4
:10138000122414E000F074FB07F010FF00F06CFB77
:1013900007F0DEFE162C04D00220A873FF2C1BD011
:1013A00005E005F00BFB00F061FB85F80E90A87BD3
:1013B00000F00F01B94247D054EA0A012BD038435C
:1013C000000728D5687818B100F052FB07F0EEFE50
:1013D000E88DD8B102201CE085F80C904046A5F8B5
:1013E0002A80B8F1120F07D0132805D0242806D080
:1013F000482804D0C82004E04FF4FA6001E042F22B
:10140000283080B232386882BDE8F09FA88D10B1D4
:10141000032001F022FA4CB1A87B082801D1042056
:10142000A873C0B240F01000A87306E0BAF1000043
:1014300002D0044647F01007AF732E73A87B2146F5
:10144000BDE8F05F07F052BC2E730021F8E7000002
:1014500084090020F4090020CA0900202DE9F04188
:10146000594C207B00287CD0608A00250127002869
:10147000608DA8461AD0122853D0132851D02428A2
:1014800076D048286DD1E07A00286AD060790028AB
:1014900069D0B4F91800002863DDB4F91A10884245
:1014A0005FDCA4F81880A4F81A8083E0C0F3071664
:1014B000122806D0132804D024280DD0482846D15D
:1014C00014E0E07A08B900F0D1FA05F077FA09E003
:1014D000258D3CE001253AE0E07A08B900F0C4FA35
:1014E00007F036FEA07A0028F4D0F1E7607950B119
:1014F000A07910B1E07810B103E02D2506E0E08D71
:1015000018B91A2502E0E08D18B11B25E07A18B150
:1015100004E0082667701CE000F0AAFA07F046FE17
:1015200015E0E07A00284CD084F80B8000F098FA9F
:1015300038B1FF2845D000F099FABDE8F04105F038
:101540003DBA2248077094F82A0000F00F06002EDA
:1015500037D084F80C800DB146F01006294630468D
:1015600002E02EE004E020E0BDE8F04107F0BEBB61
:10157000E07A002825D0144884F80B80383000F039
:101580000BFA38B1FF281CD000F06EFABDE8F0412C
:1015900007F0DEBDA7700426DBE7FF2811D000F0BE
:1015A00067FABDE8F04107F001BEE08D10B1E078C8
:1015B000002806D000F056FA0028EED16770082601
:1015C000C7E7BDE8F081000084090020CA090020B7
:1015D0007047000030B5084D002400BFC4EB041074
:1015E00005EB0010017809B100F016FD641CA4B2EF
:1015F000022CF3D330BD0000F81900202DE9F34F81
:101600007B484FF0000881B0018844464546464675
:10161000022902D91920BDE8FE8F4FF6FF7BDFF8C3
:10162000D49182462FE000BF0AEB4400C4EB0411C2
:101630008078C0F30310A04209EB011000900078FD
:1016400010D1F0B90098D0F8E87006E0384600F004
:101650003BFA5FEA0008DED1283739895945F5D1D0
:1016600001210CE068B10098D0F8E87003E000BFF9
:1016700000F050FB283738895845F9D100210098EF
:101680000170641CA4B2BAF800305246A342CBD811
:10169000002052E002EB4001897811F00F0104D0E4
:1016A000012919D0022946D12EE0C0EB001409EB24
:1016B00004144FF4C077C4F8E4700021A78B08E04D
:1016C00004EB810CDCF820C056FA8CF6491CB6B24B
:1016D00089B28F42F4D82EE0C0EB0014802709EBCA
:1016E00004140021C4F8E470B4F8407009E000BFAD
:1016F00004EB810CDCF844C056FA8CF6491CB6B2F7
:1017000089B28F42F4D816E0C0EB001409EB041440
:101710004FF48077C4F8E4700021B4F84C7008E00E
:1017200004EB810CDCF850C056FA8CF6491CB6B2BA
:1017300089B28F42F4D8401C80B28342AAD82C4A86
:10174000F6080020921D148849E000BF02EB40011A
:10175000897811F00F0104D0012917D002293CD15A
:1017600028E0C0EB001709EB07170021B7F8583045
:1017700009E000BF07EB810CDCF85CC055FA8CF582
:10178000491CADB289B28B42F4D826E0C0EB0017F9
:1017900009EB07170021B7F8843008E007EB810C4C
:1017A000DCF888C055FA8CF5491CADB289B28B4281
:1017B000F4D812E0C0EB001309EB03130021B3F8D7
:1017C000907008E003EB810CDCF894C055FA8CF5BE
:1017D000491CADB289B28F42F4D8401C80B2844219
:1017E000B4D80199E808088002980680404612E7BC
:1017F00064000020F819002030B500222D4B2E4C3B
:1018000053E000BF04EB42018D78C5F3031115F0DE
:101810000F0504D0012D26D0022D44D132E0C1EBBA
:10182000011103EB011191F89F50058031F8AC5F75
:10183000458051F810592D0C85808D8AC5804D69E1
:101840002D0C05810D8B45818D692D0C85810D88B1
:10185000C581CD8C05820D8D45824D8D8582897B1C
:10186000C18218301FE0C1EB011103EB011191F8A7
:101870009F5020F8025BB1F8AC5020F8025BD1F821
:10188000AC100DE0C1EB011103EB011191F89F5079
:1018900020F8025BB1F8B05020F8025BD1F8B0102C
:1018A000090C20F8021B521C92B221889142A9D83F
:1018B00030BD0000F81900206A000020F0B5354C5A
:1018C0000022334B25885FE004EB42018E78C6F39B
:1018D000031116F00F0604D0012E2ED0022E51D186
:1018E0003EE0C1EB011103EB011110F8026B81F82E
:1018F0009E6030F8026B41F8C86F30F8047B06EB4D
:10190000074641F8286930F8026C0E6430F8027B13
:1019100006EB07460E6430F80A6B8E6130F8087CDF
:1019200006EB07468E6130F8066C8E8330F8046C47
:10193000CE8310F8026C0E8124E0C1EB011103EBA1
:10194000011110F8026B81F89E6030F8026BC1F84B
:10195000C86030F8027B06EB0746C1F8C86011E0AA
:10196000C1EB011103EB011610F8027B86F89E70A3
:1019700030F8021BC6F8E01030F8027B01EB07419B
:10198000C6F8E010521C92B295429DD8F0BD0000FE
:10199000F819002064000020F8B5002000902A48C3
:1019A000008880BB28490020183901F10C040B88FD
:1019B00001F124022380138041F28935234EDFF8A0
:1019C00090C0DFF890E01CE004EB80077D6001EB45
:1019D0004007BF7817F00F0704D0012F06D0022F61
:1019E0000DD108E002EB80077E6008E002EB800783
:1019F000C7F804C003E002EB8007C7F804E0401C0E
:101A0000C0B28342E0D804224FF41A61684604F061
:101A1000FDFB114900980978012912D14FF47A7120
:101A2000B0FBF1F10D4A0020CDF80010C0EB00131F
:101A300002EB03131C7804B19961401C80B20228A8
:101A4000F4D30020F8BD00007C00002000981100B5
:101A5000009821000098310089090020F819002021
:101A6000002070470020704700207047002070471A
:101A70000020704730B5044600204FF6FF7505E0A2
:101A8000204600F021F8002803D128342189A942FA
:101A9000F6D130BD38B541EAC00084B200224FF41F
:101AA0008051074802F043FB200A08F0E3FC8DF860
:101AB0000000E0B208F0DEFC8DF8000038BD000048
:101AC00000040048FEE7000030B500B3144B0022CC
:101AD000196849B10D890489A54215D902601968B0
:101AE00041600860186018E018604260026014E00D
:101AF00007D90A68C0E900210A6802B1506008608D
:101B00000BE04B6833B119460B89A342F0D14FF07B
:101B1000010030BD4860C0E900124FF0000030BD48
:101B2000B807002030B5064D2C6803E020896468B2
:101B300000F0F0F8002CF9D10020286030BD000042
:101B4000B807002010B50D4C206828B1002104F022
:101B500067FE002020600CE04FF480700CF066FB04
:101B6000040008D00E220649FEF783FB204606F04B
:101B70004FFB002010BD072010BD00008009002091
:101B8000501F00200148006870470000B80700207F
:101B9000024900200860024908807047800900203F
:101BA000100A00202DE9F84F214F3C68002C3DD051
:101BB000DFF880A0204D214E9AF800000090DFF859
:101BC00080B0DFF880802B689BF80010B8F8000028
:101BD0003268A0470746FF2828D0DFF86C90002421
:101BE00099F8000001280DD0022804D003280CD059
:101BF00004280FD109E01549086818B10BF0BEFFA1
:101C0000124804600022114601E02A683168384613
:101C100006F02EFC89F80040A8F800408BF8004040
:101C2000346003482C608AF800400460BDE8F88FF7
:101C3000200A0020060A00201C0A0020180A0020A2
:101C4000070A00200E0A0020050A0020240A0020AE
:101C5000074900B500200860081DFFF70BFF0028AA
:101C600004D104485DF804EBFFF704BF00BD000099
:101C7000B80700206806002010B51B482022002469
:101C800002804480446044F21F01846081814CF2F0
:101C90005033C0E904348483046280F84040134820
:101CA00002804480446084608181C0E9043484837C
:101CB000046280F840400E480470FFF7C9FF08B185
:101CC000FFF730FF0B4804700B4804700B4804808A
:101CD0000B4804700B4804600B4804600B48046018
:101CE0000B48046010BD0000C81E00200C1F00201F
:101CF000F4090020050A0020060A00200E0A002030
:101D0000070A0020180A00201C0A0020200A0020D0
:101D1000240A00200C4B196813E00A8982420FD173
:101D2000D1E9002002B1506000B1026000220A60D7
:101D30004A601A6809891289914200D11860704777
:101D400049680029E9D17047B8070020C188090B0C
:101D500009290CD2DFE801F00B0905090909090975
:101D6000070006F0EBB806F053BA042070470520D0
:101D70007047000010EE100A084901EB600100EE08
:101D8000901A0749A1EB600001EE100A40EE010A2B
:101D9000B6EE000A20EE800A7047000000F8BC1F73
:101DA000DF59375F38B5174C608EC0B10025ADF8EC
:101DB000005002224FF48861684604F027FABDF80B
:101DC0000000ADF80000C00709D1E08D38B160789F
:101DD00020B11B210420FFF797F938BDE570607929
:101DE0000028FAD060780028F7D0A07940B1E079D7
:101DF0000028F2D11A21BDE838400420FFF784B949
:101E00002C21F8E7840900202DE9F0475E4D0646B5
:101E10000024288E42F6FF71884202D21420BDE8C9
:101E2000F087002000F088FF42880188D30774D132
:101E3000CB0772D18379DB0723D08088C0F381037D
:101E4000012B1ED180071CD5222A1AD34FF480788B
:101E5000424516D81F03B94213D34FF440594945A0
:101E60000FD2012000F068FF41880288CB0754D1CF
:101E7000D30752D18379DB0703D0808810F00C0F91
:101E800001D016247EE08007FBD52229F9D34145F5
:101E9000F7D8B8464245F4D34A45F2D200274FF06E
:101EA000010A032E2DD985F809A0032000F044FF74
:101EB000014640880A88C3072FD1D3072DD18B79DB
:101EC000DB071BD028B1AB8D984202D10BB144285F
:101ED00001D91E2456E0888810F00C0FF9D1A97B97
:101EE000022906D0E98E8A42F3D1800709D56F72A4
:101EF00007E04245EDD34A45F7D3EAE7A98D084309
:101F0000E7D1022E3BD9022000F016FF014640889F
:101F10000A88C30701D1D30701D017207FE78B7947
:101F2000DB0720D010B3EB8D98421FD1F3B14428CA
:101F30001CD88888C0F38101012917D1A97B022907
:101F400007D0A98E8A4211D1410607D585F804A091
:101F500005E042450AD34A45F6D307E02F718007D2
:101F60000DD56F720BE0E98D084308D01D2409E000
:101F7000304600F0E1FEC0882882761CF6B2687B0D
:101F80008642F5D320464AE78409002070B5204BED
:101F90001E4C03F1440241F63246751C24889B898D
:101FA000928902291DD003DC01B301292CD104E060
:101FB000032921D0222927D10DE0B04202D11CB340
:101FC000980711E0A8421FD190071DD5E4B9114828
:101FD000008858B918E0A84216D1900714D52CB93A
:101FE00012E0B04204D1580700280DDA002070BD7D
:101FF000A84209D15007F7E7B04201D11807F3E72B
:10200000A84201D11007EFE7122070BDB2090020ED
:10201000C81E0020B009002010B50489024690F8BF
:102020009F0000235A3C82F89F00B4F5C04407D0BB
:10203000012C2CD0022C33D0042C3AD0C0B223E097
:10204000B2F8A00001B24C1F042C0BD2052900D11C
:102050000120062900D10220072900D103200829E8
:1020600000D10420114600B200F0AAFB50B3138146
:10207000B2F9A000411E042901D2022021E0401F34
:1020800004281FD292F89F0082F89F001AE0B2F94C
:10209000A200114600F094FBA0B11381042010E0CF
:1020A000B2F9A400114600F08BFB58B1138108204F
:1020B00007E0B2F9A600114600F082FB10B11381CF
:1020C0008020D08092F8A810D2F8E400491EC840C1
:1020D000C00704D0BDE81040104600F02DB810BD78
:1020E0002DE9F041DFF84480002400BFC4EB041167
:1020F00008EB0116D6F8E85065B14FF6FF7702E01D
:10210000FFF708FE28352889B842F9D1D6F8E8004B
:102110000BF034FD06490020641C08800549E4B238
:10212000022C0880E2D3BDE8F0810000F8190020FD
:10213000B2090020B00900204C49D1ED090A9FEDF9
:102140004C0A20EE801ADFED4B0AC1EE201ABDEEDC
:10215000E11A80ED2B1A91ED0B1A61EE001A9FED3A
:10216000461A81EE812AFDEEC21AC0ED2C1AD1ED7D
:10217000121A21EE800AC0EE201ABDEEE10A80EDAF
:102180002D0AB1F8D020A0F8C020D1ED061A9FED9D
:102190003B0A61EE801AFCEEE11A11EE902AA0F8DB
:1021A000C220D1ED0E1A61EE801AFDEEE11A11EE99
:1021B000902AA0F8C420D1ED0F1A21EE800ABDEEBE
:1021C000C00A10EE102AA0F8C6200279F2B3827875
:1021D000E2B3C278D2B34278C2BBB0F8AA20082AD0
:1021E0003FD190ED320AB8EEC00A60EE201A9FEDA2
:1021F000240A61EE801AC1ED2D1AD0ED381AF8EEDE
:10220000E11A21EE811A21EE001A81ED2E1A90EDCD
:102210002E1AB8EEC11A61EE200A20EE800ADFED18
:10222000190A81ED310AB0F8BC2000EE102AB8EE90
:10223000400A60EE200A9FED140A60EE800AC1EDAC
:102240002F0AB0F8BE2000EE902A00E009E0F8EE78
:10225000600A9FED0E1A60EE810A20EE800A81ED81
:10226000300A30F8A81F4180704700003412002067
:102270000000004F0000FA430000FA440000C8428A
:102280000000003000007A4400008037000048431E
:102290002DE9F04F00202DED028B81B005464FF463
:1022A00000674FF0100B82464FF001089FEDB58B91
:1022B000DFF8D892CDF80000C5EB051109EB011449
:1022C000F0212046FDF7EEFF84F800A084F801809D
:1022D00084F8028084F803A084F804A084F80580C0
:1022E000A4F80680A4F808A084ED048B04F11C0077
:1022F0000646CC22A649C4F818A0FDF7BAFF002173
:10230000380407E004EB8102491C136A89B205FB1B
:1023100000331362A28B8A42F4D8002108E000BF88
:1023200004EB8102491C536C89B205FB00335364F2
:10233000B4F840208A42F3D8002107E004EB810280
:10234000491C136D89B205FB00331365B4F84C20AA
:102350008A42F3D8002107E004EB8102491CD36DC7
:1023600089B205FB0033D365B4F858208A42F3D80C
:10237000002108E004EB8102491C52F8883F89B231
:1023800005FB00331360B4F884208A42F2D80021A0
:1023900009E000BF04EB8102491C52F8943F89B266
:1023A00005FB00331360B4F890208A42F2D84FF452
:1023B000A0600BF03BFF76494FF4A062CC31C4F82B
:1023C000E800FDF756FF4FF6FF7CD4F8E800CAE0BE
:1023D00046F25A028B1A91427CD032DC42F206035A
:1023E000A1EB030299426BD018DCB1F5D05F5DD050
:1023F00009DCB1F5B05F4AD06FF4B0528A1848D00A
:10240000012A4CD148E06FF4D0528A1851D0012AE9
:1024100052D0A2F5C062043A41D17CE00A2A6ED0C3
:1024200006DC012A7DD0022A7ED0032A37D17EE045
:10243000393AB2F5804244D0012A45D0022A2ED141
:1024400045E0172B64D010DC062B4FD006DC012BA7
:1024500043D0022B44D0042B21D144E0072B48D099
:102460000A2B49D0122B1AD14CE02B2B6BD006DC57
:102470001D2B4AD0202B60D0232B10D160E0682B7D
:1024800064D0A52B65D0B3F5956F08D164E0866163
:1024900005E004F1400201E004F14C028261A1F583
:1024A000A052BA425BD205FB0B115AE004F158026C
:1024B000F4E704F18402F1E704F19002EEE709E0A9
:1024C0002CE004F19C02E9E704F19E02E6E704F146
:1024D0009F02E3E704F1A002E0E704F1A202DDE7D6
:1024E00004F1A402DAE704F1A602D7E704F1A80296
:1024F000D4E704F1AA02D1E704F1AC02CEE719E077
:102500000FE011E004F1B002C8E704F1B402C5E73E
:1025100004F1B802C2E704F1BC02BFE704F1BE0255
:10252000BCE704F1C002B9E704F1C202B6E704F166
:10253000C402B3E704F1C602B0E704F1C802ADE794
:1025400004F1CC02AAE704F1D802A7E704F1DC0207
:10255000A4E704F1E002A1E704F1E4029EE705FB31
:10256000071101812830018961457FF431AF6D1C6D
:10257000ADB2022DFFF4A0AE009801B0BDEC028B0D
:10258000BDE8F08F0000000000000000F8190020F6
:10259000940000202DE9F05F0026844FDFF810B290
:1025A000DFF810A2B1464FF0010800BFC6EB0610DD
:1025B00007EB00142078002874D094F89F504FF651
:1025C00090510D40218994F89E0000296BD1E1883B
:1025D000042905D29BF80010082901D10421E180CB
:1025E000E188102948D008DC01290ED0022915D035
:1025F00004291BD0082906D12BE020295DD04029D1
:102600006DD0802979D0002503E09BF800000828D0
:1026100002D0A4F8068074E002206CE000F087008D
:1026200045F0200506286CD1042064E000F0860106
:1026300045F021050229EFD010F0820FECD000F018
:10264000C701072903D000F08F000F2859D10820B7
:1026500051E000F0870145F023050629E4D000F0A1
:1026600086010229D8D010F0820FD5D000F08F005B
:102670000F2846D110203EE000F08F0145F02705DD
:10268000072908D000F0860102290DD000F087014B
:1026900006290BD01FE0B4F8A4000028D7D046F2DA
:1026A0005C0023E078E022E0202024E0B4F8A200DF
:1026B0000028B9D046F25B0018E0B4F8A01045F04D
:1026C000070541B194F89F1001F06F01072902D06E
:1026D00046F25A000AE010F0820F9DD011E0B4F8E3
:1026E000A60045F00F0528B146F25E002081BDE846
:1026F000F09F02E08020E08003E045F0080500063E
:102700008AD4E088102828D008DC01280AD00228C2
:1027100008D0042806D0082804D10CE020281CD0BA
:1027200040281AD084F8018084F8039084F804903B
:1027300084F805802BE084F8018084F8038084F815
:10274000049084F80580DAF8003040464946524645
:1027500043B311601849086024E084F8019084F8BC
:10276000038084F8048084F80590DAF8001040466D
:102770005246022903D0022111600F49086001224C
:1027800020210E4801F0D3FCE07801280AD025F082
:10279000100000BF84F89F00761CB6B2022EFFF432
:1027A00005AFA4E745F01000F4E70000F819002099
:1027B00092090020080000201000002000040048BA
:1027C000012806D0022805D0032803D0042801D010
:1027D000002070470120704730B51C48417900291E
:1027E0000AD0C28B002142B1838B934205D3817101
:1027F000C279002A00D0C17130BD838B934202D2CE
:10280000828B521C828301228271448C24B1038CFE
:10281000A342ECD25B1C03840D4B0E4D1C8D2D8905
:10282000AC4207D2C271B0F918100029E4DD418B27
:10283000491C09E0C479002CDED0C17183F8402026
:10284000B0F91820002AD7DD418330BD840900206B
:10285000C81E0020E8090020704738B54FF4807189
:10286000ADF8001040F6060101EBC004022221463B
:10287000684603F023FD02222146684603F0C6FCA9
:10288000BDF80000C005F6D538BD0000034800784B
:10289000002801D0FEF79EBE704700008609002088
:1028A0000948406818B909494888401C48800848C8
:1028B000007830B10749B1F90000002801DD401E61
:1028C0000880FFF789BF0000C81E0020740900209F
:1028D0009009002096090020F8B50025ADF80050B9
:1028E00002220421684603F091FCBDF800001E4C52
:1028F000ADF80000000A607302220621684603F06A
:1029000085FCBDF80000ADF8000040F6FF7101EB5A
:102910008020208607F092FD002604E03046FFF775
:102920009CFF761CF6B2607B8642F7D303F0F0FE84
:10293000E5722573E5706570A57025716586A583C0
:10294000E583258465846571A57225852587E585E0
:10295000A5850120A073002106F0C8F965852572C0
:10296000BDE8F840FFF714B9840900202DE9FE43C3
:1029700000260120ADF80060ADF8040003F0C0FFB0
:102980003C4F40F60E08387840B10222414601A87B
:1029900003F03CFCBDF80400ADF8040003F0E2FCD9
:1029A0000446354DC00711D0287B78B902224FF478
:1029B0009071684603F02AFCBDF80000ADF80000F5
:1029C00024F01104C0B20021FEF79EFBE0060FD5F3
:1029D000287B78B9A87BC1060ED420F0100101290C
:1029E0000AD024F0100400F00F000021FEF78CFB49
:1029F000287B08B1FEF732FD3878002838D0BDF8C2
:102A00000400C00705D1A87B002100F00F00FEF7ED
:102A10007BFBA00509D56E8718480222018816485D
:102A20003A3003F04BFC03F0ABFEBDF80400144C4D
:102A30008007207801D508B114E098B103F0D0FEEA
:102A400020780028BDF8040002D040F4007001E0B6
:102A500020F4007080B2ADF804000222414601A8C3
:102A600003F02CFC03F07EFCC00501D503F08EFDC5
:102A7000BDE8FE83CA09002084090020D609002091
:102A8000CB09002010B54FF4806001F013FABDE8C7
:102A900010404FF4006001F00DBA802001F00ABA36
:102AA00038B50021ADF8001040F6060101EBC00476
:102AB00002222146684603F001FC022221466846B4
:102AC00003F0A4FBBDF80000C005F6D438BD72B613
:102AD000FEE70000144A117F1448012901D00329A0
:102AE0000FD1036823F400730360036843F40063A9
:102AF0000360036823F400630360036843F4007316
:102B00000360022901D003290BD1016841F48051EF
:102B10000160016821F480510160016841F4806125
:102B20000160002010777047400000200020024024
:102B30000C490A6A520210D5C20703D04A6942F012
:102B400004024A61800703D5486940F400404861A7
:102B5000486940F4803048617047486948F204028F
:102B60001043F4E7002002400E4A136A5B0201D5CD
:102B7000C90703D0516921F4006102E0516941F4B1
:102B8000006151615169C0B221F47E7141EAC00017
:102B90005061506940F002005061506940F480304B
:102BA0005061704700200240054910B54C6944F05F
:102BB00001044C610260BFF36F8F436010BD0000E1
:102BC00000200240094A10B55469402344F480248F
:102BD0005461EFF3108272B610C95B1E10C013F07F
:102BE000FF03F9D182F3108810BD000000200240DD
:102BF00070B5064601F0A0FA0546134C07E000BF89
:102C000001F09AFA401BB04201D9032070BD20693F
:102C1000C003F5D420694CF2FA3108400CD00B49BE
:102C20004A6802434A60010F01D0A169A161010114
:102C300000D02061012070BD2069C00701D00120B3
:102C40002061002070BD00000020024040000020F4
:102C5000DFED020A30EEC00A00F002B8DB0FC93F18
:102C6000DFED100A02E000BF30EE200AB5EEC00A28
:102C7000F1EE10FAF8D30C4910EE100A884202DB8C
:102C800030EE600AF8E7DFED090A094920EE200A74
:102C9000BDEEC00A10EE100A01EB800090ED000AB4
:102CA00070470000DB0FC940DB0FC94083F9A24227
:102CB00034EE00080148406870470000500A0020C8
:102CC000014890ED870A7047500A0020014890EDB6
:102CD000B70A7047500A0020014890ED890A7047F2
:102CE000500A0020034890ED890AD0ED8A0A30EEA0
:102CF000200A7047500A0020014890EDB60A70473C
:102D0000500A00200188428891420BD000EB8102DA
:102D1000491C926889B201808388994203D10021BD
:102D2000018000E000221046704700000148006862
:102D300070470000500A00204FF4006110B501EB0D
:102D4000C0010822024803F061FA014810BD0000EA
:102D5000C009002000EE100ADFED220A9FED221AC2
:102D6000B8EE400A10B520EE200A20EE010A30EE3F
:102D7000C01ADFED1E0A61EE201A81EE801A81EE84
:102D8000200A10EE100AFDF7C2FB41EC100B07F011
:102D900083FD9FED171B51EC100B53EC112BFDF72E
:102DA00047FB9FED151B53EC112BFDF79AFA41ECF5
:102DB000100B53EC102B9FED120B51EC100BFDF789
:102DC00037FB9FED111B53EC112BFDF72BFB9FEDF8
:102DD000101B53EC112BFDF784FAFDF7ABFB00EE53
:102DE000100A10BD333353400000803900401C46A8
:102DF000000000000058AB40000000E0E1796B3FAC
:102E0000000000000000F03F00000060661271400A
:102E1000000000000000E03F00EE100ADFED220A93
:102E20009FED221AB8EE400A10B520EE200A20EEDF
:102E3000010A30EEC01AC0EE010A9FED1D1A60EEC5
:102E4000810A80EE810A10EE100AFDF760FB41EC6A
:102E5000100B07F021FD9FED171B51EC100B53ECED
:102E6000112BFDF7E5FA9FED151B53EC112BFDF728
:102E700038FA41EC100B53EC102B9FED120B51EC78
:102E8000100BFDF7D5FA9FED111B53EC112BFDF73D
:102E9000C9FA9FED101B53EC112BFDF722FAFDF739
:102EA00049FB00EE100A10BD333353400000803957
:102EB00000401C46000000000058AB40000000E04D
:102EC000E1796B3F000000000000F03F000000606F
:102ED00066127140000000000000E03FF8B50026D7
:102EE0000446009690F858000D4601280BD00120AA
:102EF00084F858002046FEF795F80100E06D04D0F4
:102F000040F010002AE00220F8BD20F4885040F084
:102F10000200E06520688268134B1A4005F0804388
:102F20001A4342F000428260104A20680EE0009B83
:102F30005B1C0093934209D3E06D20F0020040F047
:102F40001000E06584F858600120F8BD8368DB0F4D
:102F5000EDD1E06D20F0020040F00100E06584F862
:102F600058600846F8BD0000C0FFFF3F02DE0400C5
:102F70002DE9F84F4FF000090446CDF800900D46BA
:102F800094F85820DFF8008461694F464846012ACA
:102F90000AD00126FD4A84F8586041B1296A012906
:102FA00005D0A36EEBB129E00220BDE8F88F686878
:102FB000092838D1A96A4FF4785041B12B6801F043
:102FC0007C0100EA53400843E96A084302E02968AB
:102FD00000EA51402168CB6C13400343CB64606628
:102FE00021E0C4E91971A96A286A31B101F07C01B4
:102FF000401E0843E96A084300E0401E29682B7917
:10300000C1F3846103F01F0399400143A06E401E89
:10301000A066636E43EA0103636604D12068C16C55
:1030200011401943C164206803F08CFA58B995F82F
:10303000250098B12068C16895F8262021F4401138
:1030400041EA4251C160206803F084FA8246206858
:1030500003F078FA5AEA00000DD0FBE095F826005C
:1030600095F82410400540EA01512068C26822F416
:1030700040121143E6E7A86A30B1E86A20B195F83A
:10308000250001285ED003E095F82500012804D032
:103090002068C16821F0007103E02068C16841F038
:1030A0000071C16095F83000012852D02068016994
:1030B00021F002010161AA6829682068B2F1004F7D
:1030C00038D003F04BFA2068416921F0004141619A
:1030D00020686969C268C2F3C102520091402A693E
:1030E000042A44D000EB82002B68026EDFF8A0C2F5
:1030F00003F0F84302EA0C020B431A4342F000418A
:10310000016620682A69A96900EB8200026E22F03C
:1031100080720A430266297F20682A69012923D028
:103120005FF0000100EB8200026E22F000720A43A1
:1031300002668FE0002203F011FA2068416941F035
:103140000041C4E7E06D40F02000E0654FF0010968
:10315000A8E7D5E90D1001432068026922F4FF7247
:1031600042F002021143A5E74FF00071DAE70021B7
:1031700003F0DEF9400320684FF0000172D003F045
:10318000D7F990FAA0F0B0FA80F1286842036ED027
:1031900090FAA0F0B0FA80F0814204D100221146EA
:1031A000206803F0EAF90121206803F0C1F9400327
:1031B00020684FF001015DD003F0BAF990FAA0F059
:1031C000B0FA80F12868420359D090FAA0F0B0FA22
:1031D00080F0814204D100220121206803F0CDF962
:1031E0000221206803F0A4F9400320684FF0020197
:1031F00048D003F09DF990FAA0F0B0FA80F1286869
:10320000420344D090FAA0F0B0FA80F0814204D199
:1032100000220221206803F0B0F90321206803F0A6
:1032200087F9400320684FF0030133D003F080F9A1
:1032300090FAA0F0B0FA80F1286842032FD090FAFB
:10324000A0F0B0FA80F0814204D10022032120686E
:1032500003F093F92068816811F0010F22D0AFE0EC
:1032600000E004E003F064F9C0F384618DE7C0F38B
:10327000846091E703F05CF9C0F38461A2E7C0F3D6
:103280008460A6E703F054F9C0F38461B7E7C0F3A4
:103290008460BBE703F04CF9C0F38461CCE7C0F372
:1032A0008460D0E7EB682968434550F8B03FC1F32C
:1032B000120101D10B4300E08B430360E8684045F5
:1032C0007ED1286841031CD090FAA0F1B1FA81F1B7
:1032D000491C01F01F0109294FEA403132D8002969
:1032E00012D000BF90FAA0F1B1FA81F101F1010111
:1032F00001F01F0106FA01F609D100BFC0F3846195
:1033000009E0C0F38461E3E7C0F38461EEE790FA7B
:10331000A0F1B1FA81F101F1010101F01F0146EACA
:10332000816102D1C0F3846003E090FAA0F0B0FAAA
:1033300080F000F1010000F01F0000EB400041EAC6
:10334000005139E000290ED090FAA0F1B1FA81F1D4
:1033500001F1010101F01F0106FA01F606D100BFDB
:10336000C0F3846106E0C0F38461F1E790FAA0F154
:10337000B1FA81F101F1010101F01F0146EA816119
:1033800009D1C0F384600AE000007F4000401004CF
:1033900000F0FF0314E090FAA0F0B0FA80F000F122
:1033A000010000F01F003A4A00EB400002EB005021
:1033B00041EA000141F00071AA68206803F0CEF8EC
:1033C00034482B6803425ED020684FF0A04C32494D
:1033D000324E334D604501D0A84201D10A4600E08B
:1033E00032469268DFF8BC8002F0E072434503D0B9
:1033F000DFF8B480434520D15FEA02281DD4604540
:1034000005D02A4B98423ED1A84200D0314642F422
:1034100000008A6822F0E07202438A60244825494D
:103420000068B0FBF1F0801C00EB4000800000E081
:10343000401E00900028FBD125E0DFF87C8043454A
:103440000FD15FEAC2180CD4A84202D11B4B98429C
:1034500019D0604502D0A84200D0314642F08070B9
:103460000CE0DFF85C8043450DD153020BD4A84239
:1034700009D0604500D0314642F480008A6822F0CD
:10348000E07202438A6084F8587048468DE5000077
:10349000000020FE000008800003005000070050DC
:1034A00000010050000021C31000C0900006005031
:1034B00060000020400D0300000052C700050050CE
:1034C000000084CB0068A1F580710F390ED0B1F5F2
:1034D000837F08D0B1F5037F02D0D0F88000704719
:1034E000D0F88C007047D0F888007047D0F884007E
:1034F000704700002DE9F041044600684FF0A045F8
:103500003E4FA84201D0B84201D13D4900E03D49BB
:10351000896801F01F0603F015F808BB2168C86828
:10352000C96C00F0004011F4C07F00D190B194F854
:103530005800012814D0012084F858002046FDF7D7
:10354000A9FD01004FF000020CD084F85820084675
:10355000BDE8F081E06D40F02000E0650120F7E774
:103560000220F5E7E06DC00504D5206E20F00800CC
:10357000206600E02266E06D42F20103984340F4C9
:103580008050E0652068204BDFF880C0B84201D150
:10359000AE4604E0984201D1E64600E08646864504
:1035A00000D02EB9D4F85CE02EF4801EC4F85CE0A4
:1035B0004FF0600EC0F800E084F858202068B84250
:1035C00004D0984201D1654600E00546854209D005
:1035D00046B1062E06D0072E04D0E06D40F48010D0
:1035E000E065B4E7C26812F0007FB0D18268084B92
:1035F0001A4042F008028260A9E700000001005072
:103600000003005000070050000500500004005067
:10361000C0FFFF7F2DE9F04F044690F858009BB0A3
:103620000F464FF0000B012812D0012084F85800FB
:1036300000261796189620684FF0A048DFF81C91D6
:10364000DFF81CA1474D404506D12846009508E00B
:1036500002201BB0BDE8F08F48450AD15046CDF896
:1036600000A002F077FF0090206802F073FF40B1E5
:1036700009E0E06D40F02000E06584F8586001202A
:10368000E7E7009850B1E06D40F02000E0654FF0B2
:10369000010B00BF84F858605846DAE720684146BD
:1036A000884201D0A84201D12F4800E02F48D7F826
:1036B00000C02F4B40F61F72BCF1000F2DD0D0F888
:1036C00008C094F838802CF4604C4CEA483CD7F899
:1036D00004804CEA080CC0F808C0D4F800C08C453F
:1036E00001D0AC4504D18968AB6801F0010109E063
:1036F000D9F80810DAF8085001F0010105F00105C9
:103700009B68294303F001031943C3D1BB6839689F
:1037100019438368934319431DE0876827F4604782
:10372000876027688F4201D0AF4204D18968AB68B7
:1037300001F0010109E0D9F80810DAF8085001F0A9
:10374000010105F001059B68294303F001031943BA
:10375000A0D18168914381609CE700000004005083
:103760000005005000010050000300500007005009
:1037700000060050F8B54FF0000504002E460095F5
:1037800002D0E06D10B107E00120F8BD204600F046
:103790000DF9266684F8586020688168C1F340718D
:1037A00019B18168754A1140816020688168C1F350
:1037B000007189B98168724A114041F0805181607D
:1037C000704871490068B0FBF1F04000801C00E0D7
:1037D000401E00900028FBD120688168C1F3007171
:1037E00041B9E16D41F01001E165216E41F0010147
:1037F0002166012502F0AAFEE16DC90600D430B1B0
:10380000E06D40F01000E06501252846F8BDE06D50
:1038100020F4807040F00200E0652068816811F0BB
:10382000010F27D14FF0A043584A984201D090424F
:1038300004D19968966801F001010AE05449896849
:10384000544E01F00101B66806F001063143524EB4
:10385000B66806F0010631430CD1984201D090427F
:1038600001D14E4800E04E486168826822F47C1223
:103870000A438260E168E06B627F0843A16841EA25
:103880004231084394F8241040EA0140012904D150
:10389000218D444A02EB41410843E16A29B101F418
:1038A0007871226B014342EA01002168CA683E4BED
:1038B0001A400243CA6020680169626B21F04061CE
:1038C00011430161206802F041FE0646206802F0C3
:1038D00035FE30432ED1207F94F83810800340EA23
:1038E00041012068C26844F202039A430A43C2605D
:1038F00020690028206801690AD041F48031016103
:10390000206850F8C01F22696FF30D01114307E0D2
:1039100021F480310161206850F8C01F6FF30D0160
:10392000016094F8400001280CD02068016921F062
:1039300001010161606901282068016B21F00F011C
:1039400011D013E0D4E911010843D4E91312114353
:10395000084321680A6940F2FC739A43104340F01F
:1039600001000861E6E7226A521E11430163E06D1F
:1039700020F0020040F00100E06546E7C0FFFF5F75
:10398000C0FFFF7F60000020400D030000010050D9
:1039900000040050000500500006005000030050D5
:1039A000000700500000FEFF0740F0FF2DE9F04344
:1039B0009BB00446142115A8FCF774FC54216846FA
:1039C000FCF770FC4FF40041206800268A03524D3A
:1039D0000327524C4FF09049B0F1A04F12D0504BFA
:1039E0004FF00208984246D168461192009100F0CB
:1039F000B5FC08B1FFF76BF82868401C2860012867
:103A00001FD026E068461192009100F0A7FC08B193
:103A1000FFF75DF82868401C2860012807D1E06C9A
:103A200040F40050E064E06C00F400501A90E06C48
:103A300040F00100E064E06C00F001001A90042006
:103A400064E0E06C40F40050E064E06C00F400508E
:103A50001A90E06C40F00100E064E06CCDF8548016
:103A600000F001001A9015A948462AE000F02EFA4D
:103A70001BB0BDE8F0832B4B9A01D103984223D1B0
:103A800068460092129100F069FC08B1FFF71FF838
:103A90006868401C6860012807D1E06C40F48040F1
:103AA000E064E06C00F480401A90E06C40F00200AA
:103AB000E064E06CCDF8548000F002001A901A48DF
:103AC00015A9CDE91676D1E7184B9842D0D16846B2
:103AD0000092129100F042FC08B1FEF7F8FF68680E
:103AE000401C6860012807D1E06C40F48040E0642D
:103AF000E06C00F480401A90E06C40F00100E0645B
:103B0000E06C00F001001A904FF440701796CDE978
:103B1000150715A94846A9E7280000200010024013
:103B2000000100500004005000040048000600504E
:103B300010B590F8253000210122022B03D004217A
:103B4000C163012122E003681C6824F00E041C609C
:103B5000836C1C6824F480741C6003681C6824F067
:103B600001041C6090F84430046C03F01F0302FA57
:103B700003F36360D0E913345C60436D33B11C68B8
:103B800024F480741C60D0E916345C6080F8252031
:103B9000002280F82420084610BD70B590F825203A
:103BA000002401212346022A07D00422C26380F8A0
:103BB000251080F82430012429E00268156825F0DA
:103BC0000E0515600268156825F001051560826C08
:103BD000156825F48075156090F84420056C02F096
:103BE0001F0201FA02F26A60D0E913255560426DA6
:103BF00032B1156825F480751560D0E91625556039
:103C000080F8251080F82430816B01B18847204668
:103C100070BD000070B5044600F08EFA0546601CC9
:103C200002D004484068044400F086FA401BA042D9
:103C3000FAD370BD3400002000EB4001C1EBC0108E
:103C40004FF6FF7101EAC000AFF3008070B54FF688
:103C5000FA710A4D081A84B228684462284601F0B5
:103C600027FC4FF6F971286801E0426A94B28C4251
:103C7000FBD3BDE87040014801F0A0BC181900203A
:103C80002DE9F05F054633488946017801290CD0BB
:103C90000126804606704FF47A7B5846FEF7A8FF4F
:103CA00007004FF0000A03D04FE00220BDE8F09F6C
:103CB00051464046C8F804A0274C226892050AD510
:103CC0002168490505D5216821F48061216003211F
:103CD00009E0067708E02268520504D5216821F43E
:103CE00080612160022101772868012807D04FF008
:103CF000FF31C9F8001040F2FA3BAE681EE0686878
:103D0000FEF716FF5846FEF773FF0746606948F254
:103D100004018843606116E030466968FEF724FFBD
:103D20004FF47A70FEF764FF0700606920EA0B0029
:103D3000606102D0C9F8006005E0761CD5E9020197
:103D40000844B042E8D8FEF7C5FE88F800A038461F
:103D5000ACE700004000002000200240054901209F
:103D60004A6942F000424A614969002900DA0020AC
:103D70007047000000200240054901204A6942F0D6
:103D800080424A614969490000D50020704700001F
:103D900000200240064900204A69520007D5054A22
:103DA000CA60054ACA604969490000D501207047C8
:103DB000002002403B2A19087F6E5D4C2DE9F04738
:103DC0001B4D04461646287898468A46012809D095
:103DD000012028704FF47A794846FEF709FF002742
:103DE00018B119E00220BDE8F0876F6024B1012C02
:103DF00009D0022C07D00CE0324643465046FEF76D
:103E0000D3FE01240CE031465046FEF7DBFE022CC7
:103E100004D04846FEF7ECFE2F70E4E74FF4802410
:103E20004846FEF7E5FE03494A69A2434A61F3E7C3
:103E30004000002000200240064900204A69002A74
:103E400007DA054A8A60054A8A604969002900DA6A
:103E5000012070470020024023016745AB89EFCD68
:103E600010B5134A80280FD04FF48061884215D0D6
:103E7000490088421BD1104600F04CF9002816D1A9
:103E8000BDE8104005F01ABA8021104600F042F952
:103E900000280CD1BDE8104003F056BF104600F0DA
:103EA00039F9002803D1BDE8104005F087B910BDED
:103EB00000040048044910B50A68024202D00860B4
:103EC000FFF7CEFF10BD0000140401402DE9F04FB4
:103ED000DFF82092002301260324A9F1040B85B00A
:103EE0000F2709F1040AABF1040EFAE006FA03F514
:103EF0002A407CD091F804C00CF0030CBCF1010FF7
:103F000002D0BCF1020F26D1D0F808C0CDF800C015
:103F10004FEA430C04FA0CF8CDF810C0DDF800C0ED
:103F20002CEA080CCDF800C0D1F80C80DDF810C0E8
:103F300008FA0CF8DDF800C048EA0C08C0F8088060
:103F4000D0F804C02CEA050C0D79C5F300159D408E
:103F500045EA0C0545600D79ED43AD070ED0C56807
:103F60004FEA430804FA08FC25EA0C05D1F808C01A
:103F70000CFA08FC4CEA050CC0F80CC00D7905F0F1
:103F80000305022D16D1DD0800EB850CCDF808C025
:103F9000DCF820805D074FEAD56C07FA0CF528EABB
:103FA00005080D6905FA0CF5DDF808C045EA0805B5
:103FB000CCF8205005684FEA430CCDF808C004FA4D
:103FC0000CFC25EA0C0591F804C00CF00308DDF8A0
:103FD00008C008FA0CF848EA0508C0F800804D68E7
:103FE00015F4403F7CD0444DD5F860C000E077E048
:103FF0004CF0010CC5F860C02D6E23F0030C05F0E9
:10400000010500953D4D65440295AD684FEA837CFE
:104010004FEA1C7807FA08FC25EA0C05B0F1904F2E
:1040200006D0DFF8DCC0604505D14FF0010C20E080
:104030004FF0000C1DE0DFF8CCC0604502D14FF01E
:10404000020C16E0DFF8C0C0604502D14FF0030C4F
:104050000FE0DFF8B8C0604502D14FF0040C08E073
:10406000DFF8ACC0604502D14FF0050C01E04FF025
:10407000060C0CFA08FC4CEA050C029DC5F808C0B9
:10408000D9F80050CC46D1F8048095435FEAC8289F
:1040900000D51543CCF80050DAF80050D446D1F8DA
:1040A000048095435FEA882800D51543CCF800507A
:1040B000DBF80050DC46D1F8048095435FEA88388D
:1040C00000D51543CCF80050DEF80050F446D1F886
:1040D000048095435FEAC83800D51543CCF80050FA
:1040E0005B1C0A6832FA03F57FF400AF05B0BDE847
:1040F000F08F000008040140001002400000014061
:104100000004004800080048000C00480010004867
:10411000001400480069084000D00120704742693F
:1041200021EA02030A4043EA0241816170470AB171
:104130008161704781627047014880687047000064
:104140003400002002488168426811448160704751
:104150003400002010B50024032000F087F8002070
:1041600000F008F808B1012401E000F025F820462D
:1041700010BD000070B50E4E05460024706898B161
:104180004FF47A71B1FBF0F00A490968B1FBF0F025
:1041900000F0C9FF40B9102D06D200222946501E5A
:1041A00000F044F8356000E00124204670BD0000B6
:1041B00034000020600000200C4808B5016E41F07A
:1041C00001010166016E01F001010091816D41F074
:1041D00080518165806D00F080500090052000F0D6
:1041E00045F8BDE8084000F0B1B8000000100240FA
:1041F00000280DDB00F01F020121914040098000E2
:1042000000F1E020C0F88011BFF34F8FBFF36F8F34
:104210007047002809DB00F01F020121914040098E
:10422000800000F1E020C0F800117047F0B40E4BA0
:104230001B680C46C3F30223C3F10705042D00D904
:104240000425191D072901D2002300E0DB1E0126E9
:1042500006FA05F1491E214099409E40761E1640FF
:104260003143F0BC06F053BA0CED00E0064900F013
:10427000070208684FF6FF03184040EA0220034A8D
:1042800010430860704700000CED00E00000FA05E4
:104290002B492C4B0A6832214A432B4940B1B0F5D7
:1042A000007F086829D020F4C06040F480602CE0D2
:1042B0000868C0F34120022804D051F8800F20F490
:1042C000807022E0D1F8800020F48070C1F8800076
:1042D000086820F4C06040F400700860B2FBF3F09E
:1042E000401C00E0401E4A69520501D50028F9D162
:1042F000486940050AD503207047C0F341200228D1
:1043000006D051F8800F40F480700860002070479C
:10431000D1F8800040F48070C1F88000086820F473
:10432000C06040F400700860B2FBF3F0401C00E095
:10433000401E4A695205DBD50028F9D1D8E70000B4
:104340006000002040420F00007000400248816879
:1043500041F4804181607047007000402DE9F843CE
:10436000044600680026BB4D00035ED5A86D0027FB
:10437000C00008D4A86D40F08050A865A86D012742
:1043800000F080500090DFF8D092D9F8001041F48E
:104390008071C9F80010FFF7CFFE804606E000BF2D
:1043A000FFF7CAFEA0EB080002282BD8D9F80000BE
:1043B000C005F5D5D5F8900010F4407014D0216DEB
:1043C000814211D0D5F89000D5F8901020F44070BB
:1043D00041F48031C5F89010D5F8901021F4803167
:1043E000C5F89010C5F89000C00711D0FFF7A4FEE3
:1043F000804641F2883907E0FFF79EFEA0EB0801F6
:10440000494501D903260BE0D5F890008007F3D584
:10441000D5F89000216D20F440700843C5F8900055
:104420001FB1A86D20F08050A8652078C00707D084
:10443000D5F88800616820F003000843C5F88800BB
:104440002078800707D5D5F88800A16820F00C00F7
:104450000843C5F888002078400707D5D5F88800BC
:10446000E16820F030000843C5F888002078000794
:1044700007D5D5F88800216920F0C0000843C5F8A9
:1044800088002078C00607D5D5F88800616920F437
:1044900040700843C5F888002078800607D5D5F815
:1044A0008800A16920F440600843C5F8880020789E
:1044B000400607D5D5F88800E16920F4405008434C
:1044C000C5F888002078000607D5D5F88800216A4D
:1044D00020F440400843C5F888002088C00507D56F
:1044E000D5F88800616A20F440300843C5F8880098
:1044F0002068800307D5D5F89C00A16A20F003004E
:104500000843C5F89C002088800507D5D5F88800A9
:10451000E16A20F440200843C5F88800208840055F
:104520000FD5D5F88800216B20F440100843C5F85A
:104530008800206BB0F5801F03D1E86840F480103C
:10454000E860208800050FD5D5F88800616B20F45D
:1045500040000843C5F88800606BB0F5800F03D1B8
:10456000E86840F48010E8602088C0040FD5D5F8D2
:104570008800A16B20F040700843C5F88800A06B4C
:10458000B0F1807F03D1E86840F48010E8602088B3
:104590004FF0006180040ED5D5F88800E26B20F062
:1045A00040601043C5F88800E06B884203D1E8689A
:1045B00040F48010E860208840040ED5D5F88800CB
:1045C000226C20F040601043C5F88800206C8842BF
:1045D00003D1E86840F48010E860208800040FD51B
:1045E000D5F88800616C20F040500843C5F8880079
:1045F000606CB0F1805F03D1E86840F48030E8601F
:104600002068C0030FD5D5F88800A16C20F0404089
:104610000843C5F88800A06CB0F1804F03D1E8686A
:1046200040F48030E860206840030FD5D5F89C0046
:10463000E16C20F440100843C5F89C00E06CB0F534
:10464000001F03D1E86840F48010E8603046BDE800
:10465000F883000000100240007000402DE9F04790
:104660000E4605004FF0000725D0DFF8AC81D8F8E2
:10467000000000F00F00B0420CD2D8F8001021F07A
:104680000F013143C8F80010D8F8000000F00F0007
:10469000B04210D12968614CC80741F2883A5AD01B
:1046A0006868DFF87C91032808D0022820682DD0A4
:1046B000400500282CDB0120BDE8F0872068800140
:1046C000F9D5E06800F00302E068C0F30310401C75
:1046D000032A19D0534A00BFB2FBF0F0E268C2F3DC
:1046E00006225043E268C2F34162521C5200B0FB02
:1046F000F2F0484517D9A06810F0F00F0CD08807E9
:1047000011D5A86840B10EE0474AE5E78003D0E73D
:1047100000F0B6F8484506D9A06820F0F00040F057
:104720008000A0608027A068696820F0030008432B
:10473000A060FFF701FD814606E000BFFFF7FCFC2B
:10474000A0EB090151453AD8A068696800F00C0057
:10475000B0EB810FF2D12868810714D5400703D54B
:10476000A06840F4E060A0602878000705D5A06844
:1047700020F4605040F4E060A060A068A96820F0D8
:10478000F000084304E0802F03D1A06820F0F0007F
:10479000A060D8F80010404601F00F01B14216D9D0
:1047A000016821F00F0131430160FFF7C5FC0746A6
:1047B00007E000BFFFF7C0FCC11B514501D9032032
:1047C0007AE7D8F8000000F00F00B042F2D1287864
:1047D000400705D5A068E96820F4E0600843A060C0
:1047E0002878000706D5A068296920F4605040EABF
:1047F000C100A06000F044F8A1680C4AC1F30311A5
:10480000515C01F01F01C84009490860094800686F
:10481000BDE8F047FFF7AEBC0020024000100240A8
:1048200000B4C4040024F40000127A005CF600080E
:1048300060000020340000200548064900688968AF
:10484000054AC1F30221515C01F01F01C8407047C5
:1048500060000020001002406CF600080548064980
:1048600000688968054AC1F3C221515C01F01F014B
:10487000C840704760000020001002406CF600083D
:10488000184910B58868C0F381021748012A0BD077
:104890008A684310C2F38102022A06D08A68C2F3F2
:1048A0008102032A03D0002010BD184610BDCA683B
:1048B00002F00304CA68C2F30312521C032C02D094
:1048C000B0FBF2F001E0B3FBF2F0CA68C968C2F3D2
:1048D00006225043C1F34161491C4900B0FBF1F08D
:1048E00010BD0000001002400024F4002DE9F84340
:1048F00004007AD02078FA4DC00747D0A868E9684C
:1049000000F00C0001F003010C2802D0082817D099
:1049100001E0032914D06068B0F5803F17D0B0F5EE
:10492000A02F286817D020F480302860286820F451
:10493000802028606068E0B1FFF7FEFB064614E0C7
:104940002868800322D560680028D2D01EE028683D
:1049500040F48030EDE740F480202860F7E700BFA6
:10496000FFF7EAFB801B642870D828688003F7D51E
:104970000CE0FFF7E1FB064605E000BFFFF7DCFBBC
:10498000801B6428F0D828688003F7D4207880073B
:104990004CD5A868E96800F00C0001F003010C2870
:1049A00002D004280DD001E002290AD0E0680028D6
:1049B00028682BD040F480702860FFF7BDFB0646C6
:1049C00019E02868400502D5E068002891D06868A1
:1049D000217C20F0FE4040EA01606860C148006828
:1049E000FFF7C8FB002800D120E076E1FFF7A4FB29
:1049F000801B0228B8D828684005F7D56868217C54
:104A000020F0FE4040EA016068600FE020F4807012
:104A10002860FFF791FB064605E000BFFFF78CFB1F
:104A2000801B0228A0D828684005F7D4207800070A
:104A300029D560690028D5F8940013D040F0010012
:104A4000C5F89400FFF778FB064606E090E000BF4B
:104A5000FFF772FB801B022886D8D5F894008007E8
:104A6000F6D510E020F00100C5F89400FFF764FBD4
:104A7000064604E0FFF760FB801B022878D8D5F8D3
:104A800094008007F6D42078400761D5A86D0026F1
:104A9000C00008D4A86D40F08050A865A86D01261C
:104AA00000F08050009090480168C90511D4016859
:104AB000804641F480710160FFF73EFB074604E049
:104AC000FFF73AFBC01B022852D8D8F80000C005F7
:104AD000F6D5A068012815D00528D5F8900016D085
:104AE00020F00100C5F89000D5F8900020F00400F7
:104AF000C5F89000A06841F28838B8B1FFF71CFBF8
:104B000007460EE0D5F8900040F00100F0E740F0D5
:104B10000400C5F89000F5E7FFF70EFBC11B414507
:104B200026D8D5F890008007F6D50CE0FFF704FBF7
:104B3000074604E0FFF700FBC11B414518D8D5F834
:104B400090008007F6D41EB1A86D20F08050A865B3
:104B50002078800629D5A0690028D5F8980013D0C0
:104B600040F00100C5F89800FFF7E6FA064606E0B7
:104B700077E000BFFFF7E0FA801B022877D8D5F86E
:104B800098008007F6D510E020F00100C5F89800E5
:104B9000FFF7D2FA064604E0FFF7CEFA801B0228A0
:104BA00065D8D5F898008007F6D4E069F0B3A96815
:104BB000C1F38101032961D00228286820F08070A8
:104BC00028600BD0E86820F00300E860E8684749F7
:104BD0000840E860FFF7B0FA04464BE0FFF7ACFA94
:104BE000064604E0FFF7A8FA801B02283FD8286891
:104BF0008001F7D4F4E908016FF00F0202EB011114
:104C00000843218A5204490802EB4151A26841EA53
:104C100002210843217D4FF07E42490802EB4161A9
:104C20000843217B40EAC160E96800E062E0304A65
:104C300011400843E860286840F080702860E86808
:104C400040F08070E860FFF777FA044605E000BFA7
:104C5000FFF772FA001B022809D828688001F7D5EF
:104C600048E004E0FFF768FA001B022802D903209D
:104C7000BDE8F88328688001F4D43BE00128F7D030
:104C8000E868226A00F00301914226D1616A00F0CF
:104C9000F0020901103991421FD1A26A00F4FE41CD
:104CA000B1EB022F19D194F82C2000F07841B1EB30
:104CB000C26F12D1218E00F4C00249084905A1F546
:104CC0000011914209D194F8341000F0C0604908F5
:104CD0004906A1F1007181420CD00120C8E7000013
:104CE000001002403400002000700040FFFFEEFE84
:104CF0000C809F010020BBE770B5040009D0606AFA
:104D0000002540B125616561A56294F85D0040B160
:104D10000CE0012070BD6068B0F5827FF4D0E561E1
:104D2000F2E784F85C50204600F05CF8022084F83A
:104D30005D002068016821F040010160E1684FF4E6
:104D4000E062914201D9002001E04FF48050B1F5BA
:104D5000706F02D0914200D0A562A188228901F42F
:104D6000827102F404421143227C02F002021143D8
:104D7000227D02F001021143228B02F400721143E2
:104D8000227F02F03802114394F8202002F08002C2
:104D90001143228D02F40052114322681160A1696F
:104DA000042202EA114194F8242000F4805002F019
:104DB0001002114394F8342002F008021143A28932
:104DC00002F4706211430143206841602068C169A8
:104DD00021F40061C1612566012084F85D00002096
:104DE00070BD000030B587B0044614216846FBF75B
:104DF00059FA2E4D236800222D4802210524AB428A
:104E000018D1036E43F480530366036E03F480539A
:104E10000593C36C43F00103C364C06C00F0010050
:104E20000590E0208DE80700CDE9031469464FF0B6
:104E3000904019E01F4DAB421AD1836D43F480437B
:104E40008365836D03F480430593C36C43F00203D1
:104E5000C364C06C00F002000590A8008DE8070054
:104E6000CDE9031469461448FFF730F807B030BDA8
:104E7000124CA342FAD1836D43F400438365836DE2
:104E800003F400430593C36C43F00403C364C06C94
:104E900000F0040005904FF4E0508DE80700062074
:104EA000CDE9031069460648DEE700000030014006
:104EB000001002400038004000040048003C004060
:104EC000000800482DE9F05F044690F85C000027D8
:104ED0000A9E1D4692468B464FF0010901280ED0CE
:104EE000012084F85C00FFF727F9804694F85D0004
:104EF000616801280CD0B1F5827F07D102E0022061
:104F0000BDE8F09FA16809B9042801D0022700E19B
:104F1000BBF1000F24D0BAF1000F21D005B394F8F3
:104F20005D00042802D0052084F85D000020206682
:104F3000C4F840A0A4F84650A4F84450C4F838B0CF
:104F4000E587A587E0642065E0684FF4E06188426A
:104F500001D8012D06D92068426822F4805205E06C
:104F60000127D6E02068426842F4805242602068FF
:104F70000268520603D4026842F040020260E06810
:104F80008842606845D908B1012D3AD1A06B2168EB
:104F90000088C860A06B801CA063E08F401EE08783
:104FA0002FE02068816889070FD5E18F69B1B9F1D9
:104FB000010F0AD1A16B0988C160A06B801CA0639E
:104FC000E08F401EE0874FF0000920688168C90724
:104FD0000FD0B4F8461061B1C068216C0880206C15
:104FE000801C2064B4F84600401EA4F846004FF030
:104FF0000109FFF7A1F8A0EB0800B04201D3701C33
:1050000075D1E08F0028CCD1B4F846000028C8D173
:1050100076E008B1012D6CD1E08F0128A06B08D992
:1050200021680088C860A06B801CA063E08F801E90
:1050300007E0216800780873A06B401CA063E08F34
:10504000401EE08755E02068816889071AD5E18F06
:10505000C1B1B9F1010F15D1E18F0129A16B07D9B8
:105060000988C160A06B801CA063E08F801E06E0F1
:1050700009780173A06B401CA063E08F401EE0879D
:105080004FF0000920688168C90728D0B4F846109D
:1050900029B3B4F84610012914D9C068216C0880DE
:1050A000206C801C2064B4F84600801EA4F84600E2
:1050B000B4F84600012810D82068416841F48051B6
:1050C00041600AE0007B216C0870206C401C206469
:1050D000B4F84600401EA4F846004FF00109FFF75F
:1050E0002BF8A0EB0800B04202D3701C01D018E0EE
:1050F000BEB1E08F0028A6D1B4F846000028A2D1A6
:1051000042463146204603F0FBF910B1012720202A
:105110002066012084F85D00002084F85C00384699
:10512000EEE60327F5E710B5401EB0F1807F01D30E
:10513000012010BD4FF0E02460610F21601705F0E1
:10514000E6FA0020A06107202061002010BD704712
:1051500070477047F0B590F83C20012A58D00122E2
:1051600080F83C20CA688B6822F440721A434B686E
:1051700022F480621A430B6822F400621A430B691E
:1051800022F480521A434B6922F400521A430B6BEB
:1051900022F480421A430B8B22F4702242EA03422B
:1051A0001C4C036800271C4D1C4EA34203D0AB428D
:1051B00001D0B34205D1D1F81CC022F0805242EA9E
:1051C0000C02A34203D0AB4201D0B3421BD1B1F8D1
:1051D00028C022F4700242EA0C52D1F820C022F01A
:1051E000807242EA0C02D1F824C022F0007242EA36
:1051F0000C02A34203D0AB4201D0B34203D1C96A2F
:1052000022F000520A435A6480F83C700020F0BD3E
:105210000220F0BD002C014000340140005001404C
:105220007047704770470000F0B590F83C20012AA5
:1052300043D0012580F83C50022280F83D200368CD
:105240005A689C681E4E1F4FDFF87CC0B34203D0E3
:10525000BB4201D0634504D122F4700E4A6842EA91
:105260000E02DFF868E002EA0E02D1F800E04EEA32
:10527000020EC3F804E00268B24212D0B2F1804FCD
:105280000FD0134B9A420CD0124B9A4209D0124BBA
:105290009A4206D0BA4204D0104B9A4201D06245DD
:1052A00004D1896824F080031943916080F83D504F
:1052B000002180F83C100846F0BD0220F0BD00003F
:1052C000002C014000340140005001408FFFFFFDE1
:1052D0000004004000080040000C00400040014075
:1052E00010B50446022249B104290ED0082913D072
:1052F00094F84700012816D0012010BD94F844000E
:105300000128F9D184F844200FE094F845000128E1
:10531000F2D184F8452008E094F846000128EBD14A
:1053200084F8462001E084F847200422206804F035
:105330003CF92068416C41F4004141641349206804
:10534000884214D0B0F1804F11D0114988420ED05C
:10535000104988420BD01049884208D00F49884232
:1053600005D00F49884202D00E49884207D1816892
:105370000D4A1140062906D0B1F5803F03D00168DF
:1053800041F001010160002010BD0000002C01402F
:105390000004004000080040000C004000340140C0
:1053A000004001400050014007000100704710B567
:1053B000040003D094F83D0010B107E0012010BDB7
:1053C000002084F83C00204600F022F8022084F8F7
:1053D0003D00211D206804F071F8012084F8480088
:1053E00084F83E0084F83F0084F8400084F84100CF
:1053F00084F8420084F8430084F8440084F84500AF
:1054000084F8460084F8470084F83D00002010BD71
:1054100008B5234A0168234891420ED1016E41F438
:1054200000610166006E022200F40060009000211D
:105430001920FEF7FBFE192013E0B1F1804F14D0C4
:10544000194A914220D1816D41F002018165806D40
:10545000012200F00200009011461D20FEF7E6FE3A
:105460001D20BDE80840FEF7D4BE816D41F001016A
:105470008165806D002200F00100009001211C2058
:10548000FEF7D4FE1C20ECE7084A914207D1816D5B
:1054900041F010018165806D00F01000009008BDA2
:1054A000002C0140001002400004004000100040A9
:1054B00090F83D10012901D001207047022180F8A9
:1054C0003D1000681249884214D0B0F1804F11D0CD
:1054D000104988420ED0104988420BD00F498842AB
:1054E00008D00F49884205D00E49884202D00E49A3
:1054F000884207D181680D4A1140062906D0B1F5CE
:10550000803F03D0016841F0010101600020704735
:10551000002C01400004004000080040000C004046
:1055200000340140004001400050014007000100EC
:1055300090F83D10012901D001207047022180F828
:105540003D100168CA6842F00102CA600068134950
:10555000884214D0B0F1804F11D0114988420ED04A
:10556000104988420BD01049884208D00F49884220
:1055700005D00F49884202D00E49884207D1816880
:105580000D4A1140062906D0B1F5803F03D00168CD
:1055900041F001010160002070470000002C014033
:1055A0000004004000080040000C004000340140AE
:1055B00000400140005001400700010001680A6AF4
:1055C00041F211131A4207D10A6A9B001A4203D111
:1055D0000A6822F001020A60012180F83D100020D3
:1055E0007047000070B5044690F83C000025012883
:1055F0001CD0012684F83C60022084F83D0022681B
:105600009068334B184020F47F4090600868B0F5F4
:10561000005F2ED016DC402849D009DCD0B110281C
:1056200018D0202816D0302849D113E0022070BDB0
:1056300050282AD0602830D070280FD0B0F5805F75
:105640003DD13DE010F00F0F39D10111A1F58031AE
:10565000072934D822680146104625E0CB68D1E9F5
:105660000121206803F0AEFF2068816841F07701D6
:1056700009E0CB68D1E90121206803F0A3FF20688D
:10568000816841F4804181601AE0CA6849682068F5
:1056900004F06CF95021206806E0CA684968206867
:1056A00004F075F96021206803F096FF08E0CA68ED
:1056B0004968206804F05AF940212068F4E7012580
:1056C00084F83D60002084F83C00284670BD00004E
:1056D00088FFCEFF704770B50446006801694FF03F
:1056E0000005C943890715D4C168C943890711D486
:1056F000E91E01610120207720688069800720462B
:1057000002D0FFF7E7FF04E000F03AF9204600F08E
:10571000FCF9257720680169C943490717D4C16896
:10572000C943490713D46FF00401016102202077B7
:105730002068806910F4407F204602D0FFF7CAFF3E
:1057400004E000F01DF9204600F0DFF9257720681D
:105750000169C943090716D4C168C943090712D4AE
:105760006FF008010161042020772068C06980077C
:10577000204602D0FFF7AEFF04E000F001F920461A
:1057800000F0C3F9257720680169C943C90617D419
:10579000C168C943C90613D46FF010010161082024
:1057A00020772068C06910F4407F204602D0FFF7C0
:1057B00091FF04E000F0E4F8204600F0A6F9257718
:1057C00020680169C943C90708D1C168C943C9072D
:1057D00004D1891E0161204600F022FA2068016987
:1057E000C943090609D4C168C943090605D46FF045
:1057F000800101612046FFF7ABFC20680169C943C5
:10580000C90509D4C168C943090605D46FF480717C
:1058100001612046FFF79BFC20680169C9434906E6
:1058200009D4C168C943490605D46FF0400101613C
:10583000204600F0F6F920680169C943890609D4B9
:10584000C168C943890605D46FF020010161204673
:10585000FFF77FFC20680169C943C90209D4C16808
:10586000C943C90205D46FF4801101612046FFF7D6
:10587000D8FC20680169C943890209D4C168C943B9
:10588000890205D46FF4001101612046FFF7C8FCBE
:1058900020680169C943490209D4C168C943490262
:1058A00005D46FF4800101612046FFF7BBFC20683E
:1058B0000169C94309020BD4C168C943090207D46D
:1058C0006FF4000101612046BDE87040FFF76EBD36
:1058D00070BD000070B586B0044614216846FAF722
:1058E000E1FC23492068884240D12248C16C41F044
:1058F0000401C164C16C01F004010591C16C41F067
:105900000201C164C06C022500F0020005904FF452
:10591000005000900024CDE901540420CDE903405B
:10592000154E69463046FEF7D1FA07200090CDE9C2
:10593000015469463046CDE90345FEF7C7FA012018
:105940000090CDE901540620CDE903400B4E694695
:105950003046FEF7BBFA28020090CDE901540C2036
:10596000CDE9034069463046FEF7B0FA06B070BD97
:10597000002C0140001002400008004800040048CC
:10598000704770B5044690F83C0000260D4601288B
:105990000BD0012084F83C000C2A4AD007DC82B1ED
:1059A000042A20D0082A06D131E0022070BD102A36
:1059B00053D0142A63D00126002084F83C003046DE
:1059C00070BD206803F012FE2068816941F0080173
:1059D00081612068816921F0040181612068816909
:1059E0002A69114311E0206803F056FE206881699E
:1059F00041F4006181612068816921F480618161E5
:105A0000206881692A6941EA02218161D4E720681E
:105A100003F092FE2068C16941F00801C16120686D
:105A2000C16921F00401C1612068C1692A6911437B
:105A300011E0206803F0D0FE2068C16941F40061E4
:105A4000C1612068C16921F48061C1612068C169B8
:105A50002A6941EA0221C161AEE7206803F00CFF28
:105A60002068016D41F0080101652068016D21F099
:105A7000040101652068016D2A69114311E0206865
:105A800003F036FF2068016D41F400610165206874
:105A9000016D21F4806101652068016D2A6941EA88
:105AA0000221016588E710B5040003D094F83D0099
:105AB00010B107E0012010BD002084F83C00204612
:105AC00000F022F8022084F83D00211D206803F038
:105AD000F5FC012084F8480084F83E0084F83F007B
:105AE00084F8400084F8410084F8420084F84300C0
:105AF00084F8440084F8450084F8460084F84700A0
:105B000084F83D00002010BD7047704770B5044612
:105B1000022269B1042912D0082917D00C291CD0FF
:105B2000102921D094F84300012824D0012070BD11
:105B300094F83E000128F9D184F83E201DE094F845
:105B40003F000128F2D184F83F2016E094F840008D
:105B50000128EBD184F840200FE094F8410001289F
:105B6000E4D184F8412008E094F842000128DDD116
:105B700084F8422001E084F843200122206803F0E9
:105B800007FD1D4920681D4A1D4B1E4D88420BD044
:105B9000904209D0984207D01B4EB04204D01B4E11
:105BA000B04201D0A84203D1466C46F40046466498
:105BB0002068884211D0B0F1804F0ED0144988423D
:105BC0000BD01449884208D01349884205D090422E
:105BD00003D0984201D0A84207D181680F4A1140F2
:105BE000062906D0B1F5803F03D0016841F00101DC
:105BF0000160002070BD0000002C01400034014015
:105C00000040014000500140004401400048014074
:105C10000004004000080040000C004007000100A4
:105C20007047704790F88010012918D0012180F842
:105C300080102421C0F8841050F8641B0A680B6897
:105C400023F001030B6022F000510022026050F8A3
:105C5000643C1960202101620277104670470220DF
:105C600070477047704770B5044690F8800001286F
:105C70001DD0012084F880002420C4F8840020680E
:105C80000568026822F0010202602068826822F042
:105C900060620A438260204603F08CFE2068056043
:105CA0002020C4F88400002084F8800070BD022009
:105CB00070BD70B5044690F8800001281DD0012009
:105CC00084F880002420C4F88400206805680268F5
:105CD00022F0010202602068826822F060420A43DA
:105CE0008260204603F066FE206805602020C4F82C
:105CF0008400002084F8800070BD022070BD7047D1
:105D0000704770472DE9F04103680446D869196867
:105D10009A6840F60F0528424FF0000509D1860623
:105D20007ED501F0200602F080573E4378D0216FE7
:105D300027E1A94EA94F16400F40374370D0C7073F
:105D400009D0CF0507D501271F62D4F88C3043F066
:105D50000103C4F88C3083070AD5D30708D027681D
:105D600002233B62D4F88C3043F00403C4F88C3037
:105D700043070AD5D30708D0276804233B62D4F829
:105D80008C3043F00203C4F88C3003070CD501F0CB
:105D90002003334308D0266808233362D4F88C30BC
:105DA00043F00803C4F88C3003050BD54B0109D52B
:105DB00026684FF400633362D4F88C3043F020033C
:105DC000C4F88C30D4F88C30002B3AD0800609D53A
:105DD00001F0200002F08051084303D0216F09B187
:105DE00020468847D4F88C0021688968490602D487
:105DF00010F0280F27D0204603F09CFE2068806812
:105E000040061BD52068083050E8001F21F04001F3
:105E100040E80012002AF5D1E06F78B1704900E047
:105E200017E08163E06FFDF7B8FE002809D0E06F4E
:105E3000816B00E02046BDE8F04108472046FFF7AF
:105E400060FFBDE8F0812046FFF75BFFC4F88C508F
:105E5000F7E7E76E2026012F7ED1C7067CD5CF0657
:105E60007AD51020186220688068400642D5E16F1C
:105E7000086840680004000CE3D0B4F85C2082425B
:105E8000DFD9A4F85E000868006880062BD420687B
:105E900050E8001F21F4807140E80012002AF6D17A
:105EA0002068083050E8001F21F0010140E800128E
:105EB000002AF5D12068083050E8001F21F0400189
:105EC00040E80012002AF5D1C4F88860E566216830
:105ED00051E8000F20F0100041E80002002AF6D13E
:105EE000E06FFDF725FEB4F85C00B4F85E10401AD0
:105EF00081B22CE0B4F85C00B4F85E10401A81B2B4
:105F0000B4F85E0000289CD000299AD0226852E89C
:105F1000000F20F4907042E80003002BF6D12E4BC6
:105F2000DB432068083050E8002F1A4040E8002783
:105F3000002FF6D1C4F88860E5662567226852E82C
:105F4000000F20F0100042E80003002BF6D120469D
:105F5000FFF787FE75E7FFE7C70209D5570207D5A8
:105F60004FF4801018622046BDE8F041FFF7C8BE2C
:105F700003060AD501F0800302F40002134304D0A3
:105F8000616F00297FF456AF5BE7420611D54A06E0
:105F90000FD52046016851E8002F22F0400241E869
:105FA0000023002BF6D1C0F88460456700F02CF97F
:105FB00047E7020206D54A0004D52046BDE8F04175
:105FC000FFF79DBEC001C5D50029C3DA2046BDE854
:105FD000F041FFF747BE000001000010200100045F
:105FE000219B000810B5040003D0D4F8840010B140
:105FF00007E0012010BD002084F88000204600F05A
:1060000027F82420C4F884002068016821F00101E9
:106010000160204603F0D0FF0128EBD0A06A10B148
:10602000204603F0E9FC2068416821F4904141607A
:106030002068816821F02A0181602068016841F0B0
:10604000010101602046BDE8104003F039BD0000A9
:1060500010B59CB00446142115A8FAF723F9542171
:106060006846FAF71FF91A49206888422ED10120A4
:106070000024CDE900046846FEF770F908B1FCF78A
:1060800026FD1448016E41F480410166016E01F461
:1060900080411A91C16C41F00401C164C06C15A922
:1060A00000F004001A90302015900220CDE916046B
:1060B0000720CDE918400848FDF708FF02221146E5
:1060C0002520FEF7B3F82520FEF7A3F81CB010BD7D
:1060D00000380140001002400008004830B4D0F8F9
:1060E0008830202B20D1E1B1DAB190F88030012B3B
:1060F0001AD0012380F880300023C3660B4C03685C
:10610000A3420BD05B681B0208D5046854E8003F2B
:1061100043F0806344E80035002DF6D130BC04F034
:1061200097B8012030BC70470220FBE70080004098
:1061300010B5012203490448FFF7D0FFBDE8104025
:1061400008F0E6BC30000020641900202DE9F84377
:106150000446D0F884001F4616460D46202851D12B
:10616000DDB1D6B194F8800001284BD0012084F82D
:1061700080004FF00008C4F88C802120C4F884000F
:106180001834FDF7D9FFA6878146E68754F8100C2E
:10619000183CB0F5805F03D004E00120BDE8F8832F
:1061A000206920B12E46002584F8808010E000266A
:1061B000FAE78021204604F0D7F8B8B9C6B116F83E
:1061C000010B21688862B4F85600401EA4F85600FE
:1061D000B4F856004B464FF0000200970028E8D173
:1061E0004FF04001204604F0BFF830B10320D5E75E
:1061F00035F8020BC0F30800E3E72020C4F8840060
:106200000020CBE70220C9E7704700002DE9F041EC
:106210000E46144605464FF48057DFF8608027E0AD
:106220001D20FDF7E5FF2820FDF7E2FF2820FDF700
:10623000DFFF172004F040FA02213046FBF72AFC6A
:10624000FF2004F017F905F8010B1D20FDF7E1FF11
:106250002820FDF7DEFF2820FDF7DBFF172004F0E4
:1062600049FA012239464046FDF761FF761CB6B275
:10627000641EA4B2D4D2BDE8F0810000000400483E
:1062800070B50B460546144600260221184600F05C
:1062900037F906E004B9FF26304604F0EBF805F8BC
:1062A000010B641EA4B2F5D2BDE8704001221103B7
:1062B0000148FDF73CBF0000000400482DE9F84309
:1062C0000E46144605464FF48057DFF85C8025E003
:1062D0001D20FDF78DFF2820FDF78AFF2820FDF700
:1062E00087FF04213046FBF7D5FB15F8010B04F0BE
:1062F000C1F88DF800001D20FDF78BFF2820FDF769
:1063000088FF2820FDF785FF172004F0F3F901220C
:1063100039464046FDF70BFF761CB6B2641EA4B2A8
:10632000D6D2BDE8F88300000004004838B50B461B
:10633000044615460421184600F0E2F805E02078EE
:1063400004F098F8ADF80000641C6D1EADB2F6D2F2
:10635000BDE83840012211030148FDF7E8BE000006
:106360000004004870B51D20FDF742FF2820FDF70E
:106370003FFF2820FDF73CFF172004F09DF9114D49
:106380004FF48054002221462846FDF7D0FE022219
:106390004FF408710C48FFF773FF0122214628468D
:1063A000FDF7C5FE1D20FDF734FF2820FDF731FF66
:1063B0002820FDF72EFF172004F09CF902480088E2
:1063C00070BD0000000400483C0A002070B50122A6
:1063D0000C4D140321462846FDF7A9FE0022214654
:1063E0002846FDF7A4FE02224FF408710648FFF785
:1063F00047FF012221462846FDF799FE0248008802
:1064000070BD0000000400483C0A0020F8B50024DC
:1064100093264FF4017500BFADF8006002222946B3
:106420006846FFF74BFFADF8004002222946684658
:10643000FFF7ECFEBDF800009328EDD1ADF8004069
:10644000042229466846FFF739FF172004F052F965
:106450002820FDF7DEFE2820FDF7DBFE0448FFF7CD
:1064600027F81D20FDF7D5FE62B60020F8BD00001C
:10647000CC1800207047000070B51948007800283B
:1064800022D11848007800281ED0174A0021174C46
:10649000958B174B1748012D17D04578012D13D137
:1064A0001B68456843F609565B1B134D6B434FF45D
:1064B000FA6593FBF5F54388734305EB831353604B
:1064C000636041804160417070BD51609183616043
:1064D000A1834180012141701968416070BD0000B5
:1064E000890900208C090020C81E00200C1F0020F4
:1064F000240400407409002040420F00FEE7000021
:1065000038B541EAC00084B200224FF480510748F8
:10651000FDF70DFE200A03F0ADFF8DF80000E0B29C
:1065200003F0A8FF8DF8000038BD0000000400480B
:1065300000EB8100006E00F0F84070478068C0F307
:10654000C00070478068C0F3C00070478068C0F327
:10655000800070478068C0F380007047042303EA1E
:10656000D15310B518444369C1F3045107248C403A
:10657000A3438A401343436110BD00EB8100016EC9
:1065800021F0004111430166704700002DE9FC41F4
:10659000314C02226846A189FFF738FEBDF80000A1
:1065A000ADF80000E07901270026012817D10A2064
:1065B00007F03CFE050012D02E606E602E81042094
:1065C0002880A888002120F47060A880EF80072030
:1065D0002881284600F024F9284607F0CFFABDF8B4
:1065E0000000801D81B2ADF800106078A2791043E0
:1065F00002D02770BDE8FC8126706089814201D9F4
:10660000ADF8000007F012FE20610028F1D0BDF8BF
:106610000020A189FFF7FAFDADF80460022240F6E0
:10662000040101A8FFF7F2FDBDF80400ADF8040075
:10663000BDF8040000050AD508480680A0896189D4
:1066400002220844801E81B20448FFF7DFFD206962
:1066500000F022F9CEE70000C8090020BE090020A2
:106660002DE9F84306462648007800F00F0001287F
:1066700007D0244CA07820B1607820B10720BDE875
:10668000F883F020FBE73588E189A81D804682B2B7
:106690003046FFF713FE0027ADF80070022240F6E7
:1066A0000C016846FFF7B2FDBDF80000ADF8000030
:1066B000BDF80000000518D4207A1349401B801F44
:1066C000C0B20F80022807D228F00101C0F10202F7
:1066D00031440D48F9F7CDFDE089218902220844B3
:1066E000801E81B20848FFF7E9FD606908B12761A3
:1066F00001E0064820610120666160700020BEE76D
:1067000092090020C8090020BE090020601D002059
:10671000F8B5194D2220002468814FF4807028813B
:106720000001A881E88115480A2140F60E06048080
:1067300044808180343802220480448081802C612E
:10674000AC616C61EC61EC70ADF8004031466846BC
:10675000FFF75CFDBDF80000022220F40070ADF8E8
:10676000000031466846FFF7A9FDAC706C702C70D4
:10677000AC712C716C71F8BDC8090020941E00200A
:1067800070B5154C00256570A06920B1E16911B99B
:1067900007F0F4F9A5616069A061E06918B1FFF73D
:1067A0005FFFE56105E00D48FCF7ACFA08B1FFF7C3
:1067B00057FFA07900280DD081070BD520F00200EB
:1067C000A0712069FBF7BEF9002803D0A07940F042
:1067D0000200A07170BD0000C8090020601E0020EA
:1067E00070B50E4CA5698DB16078002650B1E06996
:1067F00040B90120FCF731F86069E0610120FCF745
:106800004FF966702846FFF72BFFA661E07810B1BC
:106810000020E07070BD0120FBE70000C8090020E7
:106820002DE9F0410646194800270D46007800F092
:106830000F00012808D0B088154C20F47040B080BB
:106840006179490703D004E0F020BDE8F08101211F
:106850006171617940EA0130B0803046FFF700FF96
:1068600040B10C49304601F03BFB070002D045F037
:10687000800502E06079401C6071280604D5A1798A
:1068800005F07F000843A0713846DEE7920900203A
:10689000C8090020601E002070B504468188228847
:1068A000080B04250126B2F5807F06D9258021F446
:1068B0007060A080E680082011E00F4910B10A79CD
:1068C000904213D008710D49204601F009FB0028C1
:1068D00011D02580A18821F47061A180E6802081FB
:1068E0002046BDE870400021FFF79ABF2046BDE872
:1068F000704007F043B970BDC8090020941E002005
:1069000070B5042501260F48FCF7FCF904000FD0F0
:1069100000F066FC0028F6D02580A18821F4706183
:10692000A180E680208100212046FFF779FFEAE779
:1069300005480078002803D0BDE87040FFF726BE68
:1069400070BD0000941E0020C809002070B500250D
:106950002846FCF7F1F9184C418861810088A08134
:106960000120FCF7E9F9418821810088E081A289B2
:1069700063891344834204D90844904201D9162004
:1069800070BD0020FCF78CF80120FCF789F86089C5
:1069900007F04CFC206110B10021E17107E00120FB
:1069A000E0710A2007F042FC206100B9022507F0DF
:1069B000E5F8284670BD0000C8090020F8B5264C4F
:1069C00000252846A570FBF748FF0120FBF745FF8F
:1069D000A06908B107F0D2F8E06920B1A169884246
:1069E00001D007F0CBF8606938B1A169884204D0C2
:1069F000E169884201D007F0C1F8A5616561E561F0
:106A0000E57040F60E06ADF80050022231466846A9
:106A1000FFF7FCFBBDF80000022220F40070ADF887
:106A2000000031466846FFF749FC65702570A57186
:106A3000257165710948FCF765F908B107F09EF802
:106A400006483438FCF75EF9002803D0BDE8F8406A
:106A500007F094B8F8BD0000C8090020941E00207B
:106A600070B592B000240F9410943C2168461194A4
:106A7000F9F718FC21484FF0A041042501604FF4BC
:106A80004031C0E90114C4600461C0E905450477E0
:106A900044770126066280F8244080F83840C463B9
:106AA00080F84040FCF766FE08B1FCF710F80FA92B
:106AB00012480F94FCF7AEFD08B1FCF708F8104837
:106AC00000900920CDE901047F2008960594CDE9C6
:106AD000030580208DF824408DF825400A900B9006
:106AE0008DF826408DF8304069460448FCF740FA9E
:106AF000002801D0FBF7EBFF12B070BD5815002045
:106B00000800900C70B590B03C216846F9F7CAFBBC
:106B10001E481D49002401604FF44031C0E90114B2
:106B2000C46004250461C0E9054504774477012663
:106B3000066280F8244080F83840C46380F8404002
:106B4000FCF718FE08B1FBF7C2FF114800900920BE
:106B5000CDE901047F2008960594CDE90305802046
:106B60008DF824408DF825400A900B908DF8264032
:106B70008DF8304069460548FCF7FAF9002801D045
:106B8000FBF7A5FF10B070BD00010050C415002038
:106B90000400600870B592B000240F9410943C215A
:106BA00068461194F9F77EFB2248214904250160CB
:106BB0004902C0E90114C4600461C0E905450477D5
:106BC00044770126066280F8244080F83840C46388
:106BD00080F84040FCF7CEFD08B1FBF778FF0FA925
:106BE00014480F94FCF716FD08B1FBF770FF12482C
:106BF000009009200190032002907F2008960594C0
:106C0000CDE9030588200A908DF8244080208DF876
:106C100025400B908DF826408DF830406946054898
:106C2000FCF7A6F9002801D0FBF751FF12B070BDA8
:106C300000040050301600200200300430B58FB040
:106C40003C216846F9F72EFB2548244900240160C1
:106C50004FF40021C0E90114042585610121C460BD
:106C6000C0E9044104774477016280F8244080F849
:106C70003840C46380F84040FCF77CFD08B1FBF766
:106C800026FF184800900920019002AA02207F21C7
:106C9000059482E82300089088200A908DF824400B
:106CA00080208DF825400B908DF826408DF83040DF
:106CB00069460B48FCF75CF908B1FBF708FF0A4886
:106CC000009040F20F10019069460548FCF750F91A
:106CD000002801D0FBF7FBFE0FB030BD00060050CE
:106CE0009C16002002003004040060082DE9F041E9
:106CF00086B014216846F9F7D5FA4648C16C41F0D0
:106D00000401C164C16C01F004010591C16C41F042
:106D10002001C164C16C01F020010591C16C41F0FA
:106D20000101C164C16C01F001010591C16C41F028
:106D30000201C164C06C384E00F0020005900022D0
:106D400008213046FDF7F3F94FF09047002248F252
:106D500010013846FDF7EBF9DFF8C080002241F260
:106D600070014046FDF7E3F908200090012500245A
:106D7000CDE90154694630460394FDF7A7F8CDE903
:106D80000054694638460294FDF7A0F810200090A0
:106D9000CDE90154694638460394FDF797F84FF45E
:106DA000486000904FF40410CDE901046946404664
:106DB000FDF78CF82803CDE900050226CDE902563F
:106DC00069464046FDF782F8E803CDE90005CDE9C4
:106DD000024669463846FDF779F87020CDE900058E
:106DE000CDE9024669464046FDF770F801220021D0
:106DF0001720FDF71BFA1720FDF70BFA01220221DD
:106E00002820FDF713FA2820FDF703FA06B0BDE8A5
:106E1000F081000000100240000800480004004813
:106E2000124810B5104901604FF482714160002191
:106E30004FF47062C0E902120122C0E9041252024A
:106E400082612022C0E9072107224162C0E90A12BB
:106E500001634163FDF750FF002803D0BDE81040F7
:106E6000FBF735BE10BD00000030014008170020C0
:106E7000124810B5104901604FF482714160002141
:106E80004FF4E062C0E90212022202610122426173
:106E9000520282610822C0E9072107224162C0E94B
:106EA0000A1201634163FDF727FF002803D0BDE804
:106EB0001040FBF70CBE10BD003800406C170020DE
:106EC000124810B5104901604FF4827141600021F1
:106ED0004FF47062C0E902120122C0E904125202AA
:106EE00082611022C0E9072107224162C0E90A122B
:106EF00001634163FDF700FF002803D0BDE81040A7
:106F0000FBF7E5BD10BD0000003C0040D01700209D
:106F100010B59CB0002419941A94179418941494E2
:106F200015941C2168461694F9F7BCF9342107A87A
:106F3000F9F7B8F93B483A49C0E9001420218160CB
:106F400040F64C01C0E903140121C0E90514FEF725
:106F50002EFA08B1FBF7BBFD4FF48050179017A92C
:106F60003048FEF73FFB08B1FBF7B1FD2D48FEF7B7
:106F70009AFD08B1FBF7ABFD7020CDE9140414A90C
:106F800028481694FEF750F908B1FBF7A0FD6020E1
:106F9000CDE9000404200294CDE9034005940022C9
:106FA000694620480694FEF7ECFC08B1FBF78FFD1C
:106FB000042269461B48FEF7E4FC08B1FBF787FD95
:106FC0000822694617480494FEF7DBFC08B1FBF77A
:106FD0007EFD40F64B0001900C2269461148FEF7F9
:106FE000D0FC08B1FBF773FD0794089409944FF4A3
:106FF00000500A94CDE90B400D9400030E94CDE9A6
:107000000F401194129407A906481394FEF7A2F8B2
:1070100008B1FBF75CFD0348FEF75CFC1CB010BD3B
:10702000002C01403418002010B58EB000240794C5
:10703000089409940A940B940C941C2168460D94AE
:10704000F9F730F91E484FF0804101603121C0E965
:10705000011440F64751C0E903148461FEF7A7F913
:1070600008B1FBF734FD4FF48050079007A914488E
:10707000FEF7B8FA08B1FBF72AFD1148FEF713FD39
:1070800008B1FBF724FD70200B900BA90D940C4860
:10709000FEF7CAF808B1FBF71AFD6020009040F631
:1070A0004650CDE901040C22694605480494FEF7D8
:1070B00068FC002801D0FBF70AFD0EB010BD0000EF
:1070C0008018002010B588B000241848009401945E
:1070D0000294039404940594134906940160A92131
:1070E000C0E901144FF47A71C0E903148021816171
:1070F000FEF75DF908B1FBF7EAFC4FF48050009011
:1071000069460A48FEF76EFA08B1FBF7E0FC049402
:1071100004A906480694FEF787F8002801D0FBF77B
:10712000D6FC08B010BD000000040040CC180020C0
:107130003EB500240F48009401940D49029401606B
:10714000A921C0E901144FF6FF71C160802181615E
:10715000FEF72DF908B1FBF7BAFC00946946054823
:107160000294FEF761F8002801D0FBF7B0FC3EBDA9
:107170000010004018190020184810B51649016089
:107180004FF461214160002181600C22C160C0E99F
:1071900004128161C161016241628162FEF722FFD6
:1071A00008B1FBF794FC00210C48FEF782FD08B102
:1071B000FBF78DFC00210948FEF755FD08B1FBF7F0
:1071C00086FC0648FEF72EFD002803D0BDE81040DF
:1071D000FBF77DBC10BD00000038014064190020A1
:1071E0008188C1F30321032901D002207047FAF7F7
:1071F000ADBD000010B5FBF76FFBFAF73DFD04498C
:10720000002001224880486048700A7010BD0000CC
:107210007409002070B52048007800283BD01F4832
:107220001F4C204D007808B1217839BB1E490978E0
:1072300021BB012680B9FFF795F8410506D51B480B
:107240002670007840B100F00FFE05E0184909886B
:1072500011B9000500D526704FF0E0264FF4000468
:10726000C6F88041BFF34F8FBFF36F8FFBF70EFB64
:10727000287808B100F0E4FDC6F80041FBF776FB82
:10728000FAF790FCFAF78EFD2878002803D0BDE8C5
:107290007040FBF77FB970BD740900208C09002095
:1072A000870900208609002089090020850900201F
:1072B000B2090020FEE7FEE76422B1FBF2F310B54D
:1072C000047823440370B1FBF2F302FB13110A228A
:1072D000B1FBF2F3447823444370B1FBF2F302FBB9
:1072E00013113031817010BD2DE9FF41908954692F
:1072F0001F460E00C0F3032004D0072802D009283F
:1073000008D023E02046F8F7D8FF85B27FB32A469D
:10731000214629E001250DE0B54209D12046F8F7C4
:10732000CCFF85B217B1002DF1D10FE00C251EE086
:107330006D1CADB22046F8F7C0FF0444641CB54292
:1073400004D82078FF2801D0FE28E5D10C2577B19C
:107350000D2209496846F8F78CFF31460DF1090006
:10736000FFF7AAFF0D2269463846F8F782FF04B0FE
:107370002846BDE8F0810000F509002082890069F7
:10738000C2F30322082A04D001EB410100EB4100C3
:1073900070470029FCD0801D7047F0B58A89050030
:1073A0004FF00000C2F3032600D01020072E03D0B8
:1073B00001224FF4187734E00020F0BD082E14D0DD
:1073C0000B6902EB420403EB440423881F2B2BD0F0
:1073D0000EDCA3F1030CBCF1090F1BD2DFE80CF0AB
:1073E00024341A2434341A1A24000C69A41DECE73E
:1073F000BB4219D006DC202B26D02E2B14D02F2BED
:1074000008D121E0A3F5007CBCF1620C1CD0BCF1DA
:10741000010F19D0AA4202D26388184480B2521CCC
:1074200092B2AA42CAD9F0BD0F304FF6F07C00EA02
:107430000C00AA42F3D20B2B01D0BB4202D16388CD
:10744000184480B21030E9E71F304FF6E07C00EAC4
:107450000C00AA42E3D2A3F5007CBCF1620CDBD0A5
:10746000A3F5007CBCF1630CD6D02030D6E72DE923
:10747000F0418046202101FA08F18EB2FAF782FB32
:10748000034600251BE01889B0F5805F16D3B8F1DC
:10749000000F11D01F7B00240BE0E1B21846FFF76C
:1074A0006DFF8088304207D1641CA4B2B8F1000F90
:1074B00002D0BC42F1D901E06D1CADB25B68002B7B
:1074C000E1D12846BDE8F0810A30704710B5044686
:1074D000FAF758FB03E00189A14202D04068002876
:1074E000F9D110BDF0B59489C4F30320E5B20024AE
:1074F000022603B3072803D0082803D0012012E096
:107500000020F0BD90690378106900895843C01DC0
:10751000C0080CE000EB4007136906EB4707401C6E
:10752000DB5BC0B21C44A842F4D9E41DE00800298A
:10753000E7D1801CF0BD07280BD069B1082810697D
:107540000CD001EB410106EB4101405AC01DC008BF
:10755000F0BD10694088F9E70120F0BD0089F5E72A
:107560002DE9FF5F8246202000FA0AF01FFA80F81A
:1075700008884FF4805BDFF880900E9D14460E461D
:10758000584507D1FAF7FEFA030028D15DB31B2056
:10759000287028E0D9F8003020E058451DD3BAF112
:1075A000000F12D01F7B00250CE029461846FFF77C
:1075B000E5FE808810EA080F07D16D1CEDB2BAF124
:1075C000000F02D0BD42F0D907E00398198901806D
:1075D0000398801CA41EA4B203905B681BB1188999
:1075E000012CDAD801E04FF6FF703080C9F8003086
:1075F00004B02046BDE8F09F380A00202DE9FF4F77
:1076000085B00F469889DDE91248C0F303219946F9
:1076100000F0FF0A3D46BB464FF480530291072914
:1076200006D00598984203D3D9F8180090F800A026
:107630005FEA080006D0072969D00598984266D30A
:10764000D3461AE0574503D9112009B0BDE8F08FA1
:1076500029464846FFF792FE808870B1BF4900F086
:107660000702097801F00F01B1EB420F05D940077D
:1076700001D01A20E9E70620E7E7D9F81C603EB1FF
:10768000CDF8008023463946079A0598B047DCE7D5
:107690000598B0F5805F3BD2C7B348463946D9F864
:1076A0001830FFF76BFE4088C01DC20803EB87004F
:1076B00050F8041CC8071ED00023C1F34E00400040
:1076C0000BE000BF30F8021B090A218005785B1C23
:1076D00041EA052124F8021B9BB2B3EB520FF1D310
:1076E000D10707D0218801F47F412180008841EA39
:1076F000102020802BE131F8020B208031F8020BA2
:107700006080201D121FF8F7B4FD20E100E0E4E0E6
:1077100000200390019015E1D9F81860002345B1CD
:107720000598B0F5805F04D3E8B24946FFF735FE0F
:107730000346180906EB40000090E9B24846FFF7FF
:107740001DFE06468548007800F00F01307900F0F4
:107750000700B1EB400F6FD8BD4204D0B8F1000F65
:1077600007D0BD4205D32DB90298072802D024F8CE
:1077700002ABE5E03088B0F5E06F0DD371880829E1
:1077800002D82F3188B207E0102902D0202902D078
:1077900002E0062000E007201F2879D013DC1F2814
:1077A00075D2DFE800F03A4A4A757A4A757A7A98D3
:1077B0009898AEAEAEAEAE85AEAEAE85AEAEAEAE67
:1077C000AE85AEAE4A00342837D012DC302834D033
:1077D00008DC202861D02D282FD02E2858D02F2823
:1077E00055D15AE0312828D0322826D033284ED11E
:1077F00023E0B0F5187F6ED006DC35281DD0362882
:107800001BD037287DD118E0A0F50070613862D018
:10781000012860D0022874D15DE0B8F1000F70D06B
:107820007088010703D0C118090700D1A41CC0F358
:10783000031004EB400461E065E07088484903F000
:107840000F0231F81000904081B200985FEA037C8B
:10785000008801D1A4F800C0B4F800C0A4F800C0AA
:10786000B8F1000F00EA010004D04CEA000CA4F8C3
:1078700000C003E0D04040EA0C0020802088208037
:10788000B0781844000739D1A41C37E000E038E094
:10789000180722D10098008807E018071DD100982A
:1078A000008824F8020B0098408824F8020B25E099
:1078B000180712D10098008824F8020B009840881D
:1078C00024F8020B0098808824F8040B0098C088E4
:1078D00024F8020C12E0180701D00520B5E67088E4
:1078E0000099C01DC2082046F8F7C3FC7088010942
:1078F00004EB4104000701D0207820800120039090
:107900001EE01820A1E60020190700D1218071880F
:107910000A0704D01944090701D124F8021F0021E5
:1079200004E000BF401C24F8021FC0B2B278C2F3CA
:1079300003128242F6D8307940070AD01A2001900B
:107940006D1CADB25D457FF6E7AE039818B100201F
:107950007BE60620F3E7019877E600009209002015
:1079600046FF00082DE9FF4F0C460E4699898FB05F
:107970008146C1F3032AC9B206910020A9F5D0516E
:107980001F46DDF870802546A9F5B0530A90A1F591
:10799000047B0191BAF1070F0FD0B869007810F09D
:1079A000FF000AD1BBF11F0F06D94FF400729342BA
:1079B00002D30199914200D206981D9959B1BAF1AA
:1079C000070F7BD00EB1054621E0119909B198F857
:1079D000000005462CE0864203D9112013B0BDE813
:1079E000F08F31463846FFF7C9FC80880E2101EA46
:1079F0009002D249097801F00F018A4206D210F0B4
:107A0000380F01D01A20E9E70720E7E786B1BBF17C
:107A10001F0F06D94FF40070834202D301998142AF
:107A200006D2B869007810F0FF0F01D001200A904B
:107A3000D7F820C0BCF1000F07D01D980090434636
:107A400031464846119AE047C8E7002002900720D7
:107A50000C9011980028C1D067E1B8690090E1B29C
:107A60003846FFF78BFC0590E0B23946FFF795FCEE
:107A70008646059881880E2000EA9101AF4800787B
:107A800000F00F00814271D32CB100984FEA1E1113
:107A900000EB41000090B44204D01D98002875D03E
:107AA000B44273D36CB9BAF1070F0AD0B8F800101A
:107AB000069AC8B2824202D213208FE70CE10098E6
:107AC000D1E005980088B0F5E06F0ED3059949889C
:107AD000082902D82F3188B207E0102902D02029C6
:107AE00002D002E0062000E007201F287ED013DC31
:107AF0001F287CD2DFE800F03B4B4B7CB94B7CB9B4
:107B0000B9EDEDED7B7B7B7B7BD77B7B7BD77B7B79
:107B10007B7B7BD77B7B4B00342838D012DC302832
:107B200035D008DC202805D02D2830D02E285FD075
:107B30002F285CD199E0312829D0322827D033284A
:107B400055D124E0B0F5187F0FD006DC35281ED0C3
:107B500036281CD037284AD119E0A0F500706138CA
:107B600003D0012801D0022841D1B2E0C6E01D981F
:107B7000E8B305984088010705D000EB0E0109071E
:107B800001D108F10208C0F30311B2E0CBE005987F
:107B90000EF00F03DDF874C04188694830F8111009
:107BA00001FA03F082B2009800889043BCF1000F04
:107BB00004D0B8F800101140014308E0B8F80020E4
:107BC00032EA010C32D10A409A40024391B2009845
:107BD00001800598817801EB0E00000703D100BFFA
:107BE00008F102008046012002909CE000E083E062
:107BF0005FEA0E7070D1B8F8000001900A9820B1C9
:107C0000009801880198814240D1BBF11F0F0FD825
:107C100001984FF40071A0F5B050884208D3019844
:107C2000A0F5D050884203D3019808B11220D5E6C0
:107C3000A9F5E051323903D0A9F5E051333910D11B
:107C4000012C0ED1009801880198814206D001468E
:107C50004846FAF79BF90C900028E8D139490120F1
:107C60000870DDE900010180BAE75FEA0E7033D1E8
:107C70000A9868B100980188B8F80000814205D1DF
:107C800000984188B8F80200814201D01C20A5E686
:107C90000098B8F8001001800098B8F802104180F0
:107CA00008F104009EE75FEA0E7015D10098B8F85D
:107CB000001001800098B8F8021041800098B8F8D0
:107CC000041081800098B8F80610C18008F10800FF
:107CD00088E75FEA0E7001D005207FE605984146EF
:107CE0004088C01DC2080098F8F7C3FA059840887C
:107CF000010908EB410075E718206FE644B10598CB
:107D00004088010709D000EB0E01090703D004E009
:107D100008F1020004E008F10208010908EB410043
:107D2000804618200C90641CA4B2AC427FF695AE3D
:107D3000029808B1002051E60C984FE69209002005
:107D400046FF0008F40900202DE9F0413048007892
:107D500000285BD0FEF73AFB07462E4C2E4E2F4DE7
:107D6000400525D52E48007828B12E48007810B15E
:107D70002D4900200880288D08B1401E2885FEF777
:107D80007BFB2A49012008702948007810B100F0D7
:107D90006BF80DE0022221882648FEF771FA208850
:107DA000318802220844801E81B22248FEF768FA18
:107DB000380503D5308808B9FEF75EFB68880128CE
:107DC00001D1FAF763FD1C481C4F007830B1788868
:107DD000012801D0222801D100F032F8FEF7F6FA8E
:107DE000400513D5688D0222401C6885788521885E
:107DF0001048FEF745FA20883188BDE8F041084474
:107E0000801E81B202220B48FEF73ABABDE8F0812B
:107E10008C090020B8090020B2090020C81E0020EB
:107E20008A0900208909002098090020870900207C
:107E300085090020BE090020860900200C1F0020B3
:107E400010B50648F9F7D8FC0548028805480188AE
:107E5000BDE810400148FEF769BA00001C1C002074
:107E6000B0090020BA090020064810B5028806486B
:107E700001880648FEF704FABDE810400348F9F708
:107E80001DBD0000B2090020B8090020D81B002049
:107E90007047000070B500252DED028BB0EE408AD2
:107EA0001161506082ED888A144695600122D103E9
:107EB0004FF09040FCF73BF94FF6FF7060619FED8B
:107EC000070A84ED8A8A84ED8B0A84ED8C0A84ED9E
:107ED0008D0A2560BDEC028B70BD00000000000023
:107EE00010B54B888C885A1C92B2944200D1002263
:107EF0000C88944201D1072010BD01EB83039860E8
:107F00004A80002010BD38B504464FF401750222A6
:107F100029466846FEF77AF9BDF800002040ADF822
:107F20000000172002F0B7FB022229466846FEF740
:107F3000C5F9172002F0D1FB38BD00002DE9F04F44
:107F400087B00446018900880090AE48002601F001
:107F5000FF09007809F0E00BB046B246354618B18B
:107F6000092007B0BDE8F08F5FEA0B0006D020289B
:107F700005D0402803D0BBF1600F7DD124E160899A
:107F80004FF6FF7202EA002202EB112189B2000AC9
:107F9000CDE902010846FFF799FA049000286CD059
:107FA000DDE90210002709F010030197049AFFF79A
:107FB00099FA824604F10C00011D55460591BBF16A
:107FC000400F05D009F00201BBF1200F19D03DE0B0
:107FD00000990A2933D12946BAF1040F07D8BAF11A
:107FE000000F04D000210180074641802EE0864822
:107FF0000588103D8D4202D20120019026E0059FA8
:1080000024E041B100990A2919D1C9F38101C1F1D4
:10801000040507461AE0A089E18900EB01457B4889
:1080200005F110010088814204D90099801F814226
:1080300005D106E0009805F10A01884201D0082028
:108040008FE70098059F0A388542D5D85FEAC96056
:1080500004D502984FF00108012834D8019870B374
:10806000684F01207871387287F80680039838824B
:108070000298F871049801E0B7E0A3E03863BBF11F
:10808000400F19D0FD62386A18B105F077FD002065
:108090003862F86A401C20F0010006F0C7F8386228
:1080A00070B1BBF1400F12D0009A05990A3A1546FB
:1080B000F8F7DFF800201DE0C7F82CA0E3E738E070
:1080C000B8F1000F01D0052690E004268EE0CDE93E
:1080D0000008DDE902105246049BFFF78FFA060004
:1080E00002D0FF2E09D006E02A46396A0598F8F733
:1080F000C0F860203871BD6278E00420787087F89D
:1081000002800298F87003987881C7F814A0386A42
:10811000B861049809F0F001C069F8610120387075
:108120007C62208920F0FF000843208160203871A4
:1081300065E0BAF1000F06D1324803990182029935
:10814000C17104990163CDE90078049BBBF1400F34
:1081500008D0DDE902102A46FFF704FC0646FF2896
:1081600018D043E0DDE902105246FFF747FA064611
:10817000FF283BD123480321417080F802800299F7
:10818000C17003994181C0E905A70499C969C1611A
:1081900001210DE01B480121417080F80280029A04
:1081A000C270039A4281C0E90557049A126AC261FB
:1081B00001704462208909F0F00120F0FF000843BB
:1081C00020811CE0082611E00E4909798B450CD16D
:1081D000BBF1000F204605D000F0E2FC0646FF2868
:1081E00004D10CE000F08EFBF8E70326CDE900A4F3
:1081F000ABB209F010025946304600F075FC002081
:10820000AFE60000040A0020D0090020D2090020B7
:108210002DE9F04F89B0002604468DF81460007AED
:108220008D4F00F07F0502200690DFF83092208805
:108230004FF48058052D05D0082806D2062009B035
:10824000BDE8F08F0A28F9D36AE0012D03D0032D91
:1082500066D00320D7E0A089052860D8C5B20E22D9
:1082600021467F48F8F705F8681E00F0FF0A0ED295
:10827000A9F80C6000252846FFF7F9F804EB450142
:108280006D1CEDB2C881052DF5D3122032E0B9F88E
:108290000C004D4648B1398804F10C030C398AB200
:1082A000E989ADF80410401E14E05046FFF7DFF8EE
:1082B000ADF80480398804F10E030E398AB2B2EBAE
:1082C000400F09D2911C89B2C2EB40000844401E05
:1082D00090FBF1F0A88100E0AE8105A8009001A913
:1082E0005046FFF73DF9BDF80410E9813988081AB6
:1082F000801F80B220809DF81400002874D120894E
:1083000020F07F0040F002002081B9F80C1061815C
:10831000002904D040F0800020818220069085E072
:10832000A089ADF80400404501D205206BE0FFF7BD
:10833000CDF85FEA000A7CD0032D1ED094F80E80A1
:108340005046FFF7C1F88078414680455AD85046DC
:10835000FFF714F8016821618088A082A07BE0818A
:108360005046FFF7B1F8408804F1160BC0F3032024
:10837000082820D009281ED020E0FFF7A5F80068C3
:10838000C4F80E00002352461946BDF80400FEF75B
:10839000ABFF39880C3080B2891F884201D90C208C
:1083A0002CE004F1120352460021BDF80400FEF750
:1083B0009BFF0C3021E0B8F1000F0ED00023524695
:1083C0004146BDF80400FEF78FFF3988103080B2B7
:1083D000891F884209D9102010E00D2221495846F2
:1083E000F7F747FF1C2009E00FE05B465246414685
:1083F000BDF80400FEF778FF103080B29DF814102D
:10840000F9B102E011208DF814000A2020802089A3
:1084100020F07F0040F007002081668112489DF81F
:10842000141050F82100E060A9F80C60204606996D
:1084300000E00FE0FEF7F4F908B10C4804600020FA
:10844000FDE66681208020896D1C20F07F00284396
:108450002081EBE70820D6E7D0090020040A00209D
:10846000501F0020F509002068FF00088009002047
:108470002DE9FC47204C81460026207813460D4606
:10848000002837D0D4F824C09CF8080000F0E00899
:1084900000F01007B8F1400F21D1184800881038BB
:1084A00086B22046406A1030AE420DD20121617181
:1084B0002172A7716021E56221713246194623625B
:1084C000F7F7D7FEA6620AE0691E032901D80CF16E
:1084D0000C00834203D02A461946F7F7CAFE002053
:1084E0002070606A3346CDE900503A46414648461E
:1084F00000F0FAFABDE8FC87040A0020D009002049
:10850000F8B515460E460B460092044600224FF47D
:10851000C05100F019F888B9334600228021204666
:10852000009500F081F848B9334600224FF4C0614D
:108530002046009500F008F8002804D0206E40F096
:10854000200020660320F8BD2DE9FE4F4FF0000A01
:10855000984617460E4604460C9D8DF804A0FBF77E
:10856000EBFD411BA8EB0105FBF7E6FD814620680A
:108570004FF4C06B0C3002902A480068C0EBC0007A
:1085800000EB8000000D6843009043E05E4506D19B
:108590002FB9029800788DF804009DF80400B8F116
:1085A000FF3F37D0FBF7C8FDA0EB0900A84203D27C
:1085B00015B1009858B32BE02068416821F0E00124
:1085C00041606068B0F5827F0BD1A068B0F5004FC4
:1085D00002D0B0F5806F04D12068016821F040011D
:1085E0000160A06AB0F5005F09D12068016821F43C
:1085F000005101602068016841F4005101600120D0
:1086000084F85D0084F85CA00320BDE8FE8F00259F
:10861000401E0090206880683040B842B6D10020EB
:10862000F3E70000600000202DE9F8431E46914664
:1086300088460446089DFBF77FFD401B351AFBF773
:108640007BFD074625480068C0F3CB30684338E01F
:10865000701C37D0FBF770FDC01BA84203D215B1C8
:10866000009860B32CE02068416821F0E00141608F
:108670006068B0F5827F0BD1A068B0F5004F02D0E2
:10868000B0F5806F04D12068016821F040010160DD
:10869000A06AB0F5005F09D12068016821F400519B
:1086A00001602068016841F400510160012084F8F4
:1086B0005D00002084F85C000320BDE8F8830025FD
:1086C000401E00902068816838EA010004D0002133
:1086D0004945BDD10020F0E70121F9E76000002005
:1086E00070470000F0B52DED028B83B00446808A00
:1086F000ADF804004FF400464FF09047B0EE408ACA
:10870000002231463846FBF712FD0220009001237B
:108710000DF1060201A96F48FCF7D4FB05460122C2
:1087200031463846FBF703FDBDF80600C0F30D00E7
:1087300020601DB1294668A001F06CFF2068C111BE
:1087400004EB81018A69012101EBE011CB1701EBF8
:10875000536323F07F03C91A04EB810120F07F03E8
:108760008969C31A891A4B4302EBE3110144E26899
:1087700060688A1A00EBD073B2EB630F02DDA26867
:10878000521E07E0434203EBD373B2EB630F02DAEE
:10879000A268521CA26000EE901AE16094ED8B0A70
:1087A000F8EEE00A84ED8C0A9FED511A20EE812A42
:1087B00000EE900AF8EEE00AC2EE201AC4ED8B1A21
:1087C000A268424300EE902AB8EEE02A00EE901A2A
:1087D000F8EEE00A72EE200A20EE812A00EE900AFE
:1087E000F8EEE02AC2EE220AC4ED860A94ED8A2A47
:1087F00070EEC20AC4ED890A00EE900A2269F8EE12
:10880000E00A4A4392FBF0F181EE202A00FB11209E
:1088100000EE900AF8EEE02AD4ED880A42EE220A31
:10882000F5EEC00AF1EE10FA02D270EE810A06E00F
:1088300010EE900A2F49884201DD70EEC10A71EEF8
:10884000C01AC4ED870A11EE900A10F17F5F02D9B9
:1088500031EE810A06E011EE900A2749884204DDD4
:1088600031EEC10AC0EE080A01E0C1EE880A2821F3
:108870000120B0EE600A0A1A04EB8202401C92ED5D
:108880008D1A884282ED8E1A31EE000AF3DBC4EDB8
:108890008E0A00EE901AB8EEE01AC0EE010A9FEDC3
:1088A000171AC4EDB60A94ED040AB8EEC00A20EE19
:1088B000800A84EDB70AD4EDB80A60EE810A9FED14
:1088C000101A40EE010AC4EDB80A03B0BDEC028BE9
:1088D000F0BD0000D0170020656E636F64657220E4
:1088E000726564206572726F72202564200A0D0023
:1088F000DB0FC940DB0FC94000004040A4707D3F42
:108900000AD7233C2DE9FC47DFF8D49106460389BA
:10891000002799F8080003F010013D46814201D17B
:108920000127B3E06F48008889F808100938D9F8A2
:10893000201082B2484600297CD0D0E90A4CA046DB
:10894000ACEB04045FEAC37C4FF0010A11D09442FF
:1089500013D83288D21E944205D8C3F3420CCCF10E
:10896000070CA44503D0072C07D9944205D14571C3
:1089700006E080F805A0944201D80E2786E0144650
:1089800057485FEAC872806A20F0010018D00A5C7C
:108990000A52B6F808C0D9F828000CF47F4C20F031
:1089A000010042EA0C020A52D9F82800621E20F0A7
:1089B0000100084406F10A01801CF7F75AFC1BE08D
:1089C000B27A1B0A43EA02230B520120621CD9F837
:1089D00028C00EE006EB4003B3F808809B7A4FEA0C
:1089E000182848EA032300EB5C08401C21F81830E3
:1089F00080B2B0EB520FEDD399F80500C846E8BB42
:108A000098F80620D8F82010CDE900124046D0E9A9
:108A10000B2398F80710B8F81000FEF7A3FF0746DD
:108A2000FF2808D0D8F8200005F0A8F8C8F8205092
:108A300027B32BE029E0022088F8010098F806000F
:108A400088F8020098F8070088F80300B8F81000CA
:108A5000A8F80A00D8F82C00C8F81400D8F82000AC
:108A6000C8F81800D8F830004246006AC8F81C0060
:108A700088F800A0C8F82460557100E014E0157172
:108A8000FF20C8F82850BDE8FC87032789F8055067
:108A900089F80450D9F820004C4610B105F06EF862
:108AA0002562A5623846EEE70A203080F08820F47F
:108AB000704040F44050F08098F80810404609B1EA
:108AC000302100E0202131814179012903D08562E4
:108AD00088F80450E6E7816A2144C8F82810E1E7E5
:108AE000040A0020D20900202DE9F0410746DDE903
:108AF0000604602904D019B1258905F47F45258134
:108B0000E5880A2625F470459FB1268045F400507B
:108B1000E08080202081204850F82700E06002217A
:108B20002046FDF77DFE002801D01C480460BDE80A
:108B3000F08145F44055E580402908D031B36029E3
:108B4000EDD02680208940F060002081E7E7411EBB
:108B500003290BD826802189C0B21143C0F104003B
:108B6000432242EA800001432181D8E7834202D2B6
:108B70000A33238002E000F10A012180A081000C69
:108B8000E081208942F041010843DEE72680208908
:108B900040F02000D9E7000068FF000880090020AD
:108BA0002DE9F0470446007A002700F01001404804
:108BB000027A914201D1012771E03E4A00261288D3
:108BC0000172093A95B2826AC16A53198B4202D97D
:108BD0008D1A467101E0012141713549237A2381C3
:108BE0008146086A896A5FEAC27821F0010C0ED0DA
:108BF00030F80C106A1E01F47F410B430CEB0001AE
:108C0000238104F10A00891CF7F733FB1AE010F8FE
:108C10000CC0002143EA0C23520823810FE08B187B
:108C200030F813C000EB43034FEA1C2C9B784CEA4E
:108C3000032304EB410C491CACF80A3089B2B1EBB8
:108C4000550FECD3E088C84620F4704040F4405003
:108C5000E080208920F0FF00208199F8051099F824
:108C6000082009B942F0010210432081072D08D2E3
:108C70000A2020802089C5F1070240EA42002081B5
:108C800001E0E81C208001290CD0D8F8200004F075
:108C900075FFC8F82060C8F8286088F80460384676
:108CA000BDE8F087D8F828002844C9F82800F6E77E
:108CB000040A0020D009002038B504464FF401759D
:108CC000022229466846FDF7A1FABDF800002043BC
:108CD000ADF80000172001F0DEFC022229466846AC
:108CE000FDF7ECFA172001F0F8FC38BD38B50E4C52
:108CF000ADF80010A27B824200D0A073A1F57F42A4
:108D0000FF3A07D0ADF8001002224FF49A7168467E
:108D1000FDF7D4FAA07BADF8000002224FF4987161
:108D20006846FDF7CBFA38BD84090020014880ED84
:108D3000880A7047500A0020014880ED8A0A70476F
:108D4000500A00202DE9F04F87B04FF0000BCDF80E
:108D500000B0EC49EC4AADF808B0ADF804B0CDF87D
:108D600014B0EA4F898994890326A7F838B0D84609
:108D700035460C4087F803B00220F9F7DDFF028882
:108D8000BA860079800700D501250320F9F7D4FFC2
:108D90000288FA8600793946800700D50126888D39
:108DA000DFF870A300FB06238446D948008883427D
:108DB00004DDBAF80060064496420AD8D64EDFF8C1
:108DC0005C933688B34208DDB9F8003033449342EF
:108DD00003D91E2007B0BDE8F08F8B8ECF8D07FB27
:108DE0000535854204DDBAF80070384498420DD844
:108DF000B54204DDB9F800003044984206D88A46EE
:108E0000954205DD02EB0C00984201D91D20E1E7F7
:108E100002224FF4186103A8FDF7F8F9BDF80C0021
:108E2000ADF80C0004224FF41A616846FDF7EEF924
:108E3000042240F6A41105A8FDF7E8F9B14EDFF8C9
:108E4000C892BDF80C307088B9F80210059A13F476
:108E5000106F25D013F4C06F3ED09D0501D45D0581
:108E60003AD43CB1650701D49D0535D4250701D41A
:108E70005D0531D4009D45B1A5F54347DFF8A0C29B
:108E8000503F674501D33620A4E79F0508D55F050D
:108E900006D52AB1AA4203D34FF00108E4061BD538
:108EA000A04C01272478CCB113F4106F0CD05C05D2
:108EB00003D4032810D003290ED09B0534D40228F4
:108EC0000AD0022908D02FE0022805D0032803D0B9
:108ED000022901D0032936D130207BE7BAF82E00D1
:108EE00013F4106F05D0B8B1B8F1000F13D0032000
:108EF00012E028B1BAF82C10012051B1222108E06B
:108F0000BAF82C0000284FF0000001D0012100E049
:108F10000021B78317E00220BAF82C1021B15905BF
:108F200001D5032100E00221032802D0022805D048
:108F300009E0009B7362C9F8243004E0009B73626F
:108F40009CB2C9F824409AF8093054460BB938B19C
:108F500031B150EA01034FF4806A03D0277203E075
:108F6000292037E7237A4BB1E38D13B1A4F838A059
:108F700004E0A38D13B14FF400632387022805D0CA
:108F8000032803D0022901D0032904D16771E38D9E
:108F90000BB9A4F838B07080A9F80210A4F824B076
:108FA000A4F826B0A4F816B05D46A4F814B0B8F141
:108FB000000F1BD000998A420BD3B2FBF1F0B2FB39
:108FC000F1F380B201FB1323E0821BB9401CE08265
:108FD00000E0E782B2FBF1F0B2FBF1F380B201FBFB
:108FE0001321A08441B1401CA08405E0022800D1D7
:108FF000E782032900D0A7844B4802224FF4846102
:10900000058001A8FDF702F9BDF80400ADF80400E1
:10901000E18D11B308B30222514602A8FDF7F6F81C
:10902000BDF80800ADF8080080B1BDF80410801C40
:10903000484346F2A7110844491CB0FBF1F0000474
:10904000000C608605D0207928B109E0ADF8045005
:109050006586207920B11F20BCE6ADF80850F7E7FF
:10906000207A28B1E08D18B1208F40F480602087ED
:10907000E583A58325846584A571E571258389F839
:10908000405086F840503585BDF80C3098052BD5FA
:10909000264E00980A2228B1B0FBF6F1052903D22A
:1090A000E78308E0E58306E04FF6FF7505EA410136
:1090B000B1FBF2F1E183590516D50599814201D240
:1090C000E08B10E0B1FBF6F0052801D2678406E0E2
:1090D0004FF6FF7101EA4000B0FBF2F06084608C53
:1090E000E18B00EB51006084E08D10B10220F9F7B4
:1090F000D7FCA08D10B10320F9F7D2FCFEF7A0FE3B
:10910000002067E6C81E00200C1F002084090020F4
:10911000D6090020D0090020D4090020D20900205F
:10912000B13C4FC3F4090020020A0020A0860100D0
:109130000649FF208A7A0AB1088D70474A79002AC9
:10914000FBD0C8220A8300224A837047840900208A
:1091500010B5134CE08D10B10220F9F77EFBA08D05
:1091600010B10320F9F779FB4FF2F330FEF7CBFE95
:109170000020E07020726071A071E071E082A08236
:10918000E083A083208460840649A084E08481F881
:109190004000208304492071A070087010BD0000B9
:1091A000840900200C1F0020F4090020024800213F
:1091B000C170417070470000840900202DE9F0471C
:1091C00030480025058030480078002858D02F4EC0
:1091D000DFF8BC80307820B1B8F80010491CA8F83E
:1091E00000102C48028842B32B4C2C482C4B218871
:1091F00000881F88DFF8AC90914215D92A4A13895C
:1092000040B1DFF8A8C0BCF828209A4202D8D21C8E
:10921000ACF8282047B1A8B9B9F82800984205D879
:10922000C01CA9F8280001E060B95FB1FDF7CEF8D5
:10923000000503D42088401C208005E02580A9F883
:10924000285001E0491C21801948007820B91948AC
:10925000007808B1FEF708FEF9F718FB307800280F
:109260000ED0154E308800280AD0B8F800104446B9
:10927000884205D1FEF7E4FD3088012800D1258021
:10928000BDE8F087A0090020890900208609002098
:10929000AA0900209A09002098090020B20900209C
:1092A000B00900200C1F0020E8090020C81E002083
:1092B0008C09002085090020A809002010B5094864
:1092C000002404800848007840B1084840880328FA
:1092D00004D10748008808B9FEF7B2FD05480480AC
:1092E00010BD0000A4090020860900200C1F0020EA
:1092F000A8090020AA090020FAF724BF00B593B0FE
:1093000038216846F6F7CEFF14210EA8F6F7CAFFFB
:109310000020FAF7BDFF0220C10103914021049112
:109320000421CDE9080100905521CDE90A100790EC
:109330000C900D906846FBF7D9FA08B172B6FEE7BB
:109340000F200E9003200F9000201090119012908B
:1093500004210EA8FBF782F9002801D072B6FEE7BF
:1093600013B000BD0248016841F47001016070470C
:1093700088ED00E010B509212DED028B1648FAF7B3
:10938000A1F8164C092160601548FAF79BF8206097
:1093900014489FED150AFFF7A5F9F9F791FC84ED44
:1093A0000A0AF9F799FC9FED118A20EE080A84ED6C
:1093B000090AF9F7A1FC20EE080A84ED0B0AF9F777
:1093C00085FC84ED0C0A05F00BFABDEC028B084815
:1093D000BDE81040FCF77FB9C4150020341200200E
:1093E00058150020500A002017B7D137ABAAAA3D64
:1093F0003418002070B509212DED028B2248FAF7B0
:1094000061F8224D288040F20F111F48FAF75AF8F0
:10941000688009211E48FAF755F81E4C00EE100A24
:109420009FED1D8AA060B8EEC00AD4ED060ADFEDFC
:109430001B8A9FED1B1A60EE880A20EE280A40EE78
:10944000010AC4ED060A2888F9F784FC20EE280AF0
:10945000D4ED0F0A00EE880A84ED0F0A6888F9F748
:10946000DBFC20EE280AD4ED0E0A204600EE880A26
:1094700084ED0E0A04F094FABDEC028B0948BDE8B5
:109480007040FCF728B900009C1600201C0000204A
:1094900030160020341200203333733FCDCC4C3DC6
:1094A0009999F83C8018002010B5F9F7F9F9BDE852
:1094B00010400148FCF70FB9CC1800202DE9F04FFF
:1094C00002682A4B2A4E2B4FDFF8ACC02B4C2C4D98
:1094D0004FF0804B98420BD0584509D0B04207D08E
:1094E000B84205D0604503D0A04201D0A84204D1C3
:1094F00022F070084A6842EA0802DFF88880DFF844
:109500008890DFF888A0984211D058450FD0B0421B
:109510000DD0B8420BD0604509D0A04207D04045DD
:1095200005D0484503D0504501D0A84203D122F4CC
:109530004076CA6832434E6922F0800232430260AC
:109540008A68C2620A688262984209D0A04207D043
:10955000404505D0484503D0504501D0A84201D12F
:109560000969016301214161BDE8F08F002C0140D0
:109570000004004000080040000C0040003401409E
:1095800000500140004001400044014000480140BB
:1095900010B501F01F030121046A99408C43046255
:1095A000016A9A401143016210BD10B501F01F031A
:1095B0000421046A99408C430462016A9A40114371
:1095C000016210BD10B5846842EA032224F47F448E
:1095D0000A432243826010BD8268034B1A400A434B
:1095E00042F00701816070478FFFCFFF2DE9F04700
:1095F000026A22F001020262056A436882691F4C16
:1096000025F0020522400C6822F0030214438A6808
:109610001C4E2A431A4D1C4FDFF870C0DFF87090C3
:10962000DFF870A0A84209D0B04207D0B84205D0F8
:10963000604503D0484501D0504506D122F00808C6
:10964000CA6842EA080222F00402A84209D0B042E5
:1096500007D0B84205D0604503D0484501D05045F9
:1096600005D14D6923F440731D438B692B4343603F
:109670008461496841630262BDE8F0878FFFFEFFA5
:10968000002C0140003401400040014000440140F2
:109690000048014000500140F0B5026A22F010027B
:1096A0000262056A426883691C4C1E4E23400C68A6
:1096B00023F4407343EA042425F020038D681A4FF5
:1096C00043EA0513164DA84203D0B04201D0B84278
:1096D00007D1D1F80CC023F0800343EA0C1323F028
:1096E0004003A8420CD0B0420AD0104DA84207D087
:1096F0000F4DA84204D00F4DA84201D0B84207D167
:109700004D6922F4406242EA85028D6942EA85028F
:1097100042608461496881630362F0BDFF8FFFFE90
:10972000002C014000340140005001400040014045
:109730000044014000480140F0B5026A22F4807202
:109740000262056A4268C3691C4C1E4E23400C68C5
:1097500023F003031C4325F400738D681A4F43EA7A
:109760000523174DA84203D0B04201D0B84207D11B
:10977000D1F80CC023F4006343EA0C2323F4806384
:10978000A8420CD0B0420AD0104DA84207D0104DCC
:10979000A84204D00F4DA84201D0B84207D14D696C
:1097A00022F4405242EA05128D6942EA05124260F3
:1097B000C4614968C1630362F0BD00008FFFFEFF12
:1097C000002C0140003401400050014000400140A5
:1097D0000044014000480140F0B5026A22F4805282
:1097E0000262056A4268C3691C4C1E4E23400C6825
:1097F00023F4407343EA042425F400538D681A4F80
:1098000043EA0533164DA84203D0B04201D0B84216
:1098100007D1D1F80CC023F4004343EA0C3323F4FE
:109820008043A8420CD0B0420AD0104DA84207D0C5
:109830000F4DA84204D00F4DA84201D0B84207D125
:109840004D6922F4404242EA85128D6942EA85124E
:109850004260C461496801640362F0BDFF8FFFFE8E
:10986000002C014000340140005001400040014004
:10987000004401400048014030B5026A22F48032C1
:109880000262046A4268036D124D2B400D681D434D
:1098900024F400330C8943EA04430F4CA0420ED059
:1098A0000E4CA0420BD00E4CA04208D00D4CA04252
:1098B00005D00D4CA04202D00C4CA04204D14C6902
:1098C00022F4803242EA04224260056549688164DC
:1098D000036230BD8FFFFEFF002C014000340140C9
:1098E0000040014000440140004801400050014058
:1098F00030B5026A22F480120262046A4268036D83
:10990000134D24F400142B400D6843EA05230D8900
:1099100044EA05540F4DA8420ED00F4DA8420BD07B
:109920000E4DA84208D00E4DA84205D00D4DA842BC
:1099300002D00D4DA84204D14D6922F4802242EAA2
:109940008522426003654968C164046230BD00003D
:10995000FF8FFFFE002C0140003401400040014019
:1099600000440140004801400050014010B5036A26
:10997000046A24F001040462846924F0F00444EAD7
:10998000021423F00A020A438461026210BD10B57A
:10999000036A23F0100303628369046A23F47043AB
:1099A00043EA023224F0A00343EA0111826101621A
:1099B00010BD000030B5416EB9B10268916892687F
:1099C000C1F342610B4B520F9C5CE50003F10804AC
:1099D000A25CB5FBF2F2A0F86A205A5C615CD2008E
:1099E000B2FBF1F1A0F8681030BD0121A0F86A10B7
:1099F000F8E700004CF6000890F82810C90706D0D8
:109A000001684A68C36A22F400321A434A6090F837
:109A10002810890706D501684A68036B22F4803252
:109A20001A434A6090F82810490706D501684A6829
:109A3000436B22F480221A434A6090F828100907E9
:109A400006D501684A68836B22F400421A434A60D3
:109A500090F82810C90606D501688A68C36B22F4FD
:109A600080521A438A6090F82810890606D501684A
:109A70008A68036C22F400521A438A6090F8281016
:109A8000490611D501684A68436C22F480121A43D2
:109A90004A60416CB1F5801F06D101684A68836C49
:109AA00022F4C0021A434A6090F82810090606D52D
:109AB00001684A68C06C22F4002202434A60704781
:109AC000F8B500260446C0F88C60FAF735FB054669
:109AD000206800686FF07E47000708D52B460022FB
:109AE0004FF400112046009700F03EFC60B920685A
:109AF000006840070AD52B4600224FF4800120461B
:109B0000009700F031FC08B10320F8BD2020C4F814
:109B10008400C4F8880044F86C6F00202675F8BDF6
:109B200010B5806A0021A0F85E10A0F85610FCF76E
:109B3000E8F810BD10B5026852E8001F21F49071DA
:109B400042E80013002BF6D10E4B0268083252E8AF
:109B5000001F194042E80014002CF6D1C16E012903
:109B600008D1016851E8002F22F0100241E80023DB
:109B7000002BF6D12021C0F888100021C1660167B2
:109B800010BD0000FEFFFFEF10B5B0F86020D0F868
:109B900088300168222B04D0886940F00800886171
:109BA00010BD496A836D11401980816D891C8165E2
:109BB000B0F85E10491EA0F85E10B0F85E100029E3
:109BC000EED1026852E8001F21F4907142E80013C0
:109BD000002BF6D10168083151E8002F22F0010274
:109BE00041E80023002BF5D12021C0F88810002186
:109BF0000167C26E012A02D0FCF79AFA10BDC16655
:109C0000026852E8001F21F0100142E80013002B07
:109C1000F6D10168CA69D243D20601D410220A6281
:109C2000B0F85C10FCF71DF810BD00002DE9F047FE
:109C30000446B0F860600068C569D0F800A0D0F8AC
:109C40000880D4F88810222905D0816941F00801E4
:109C50008161BDE8F087B4F868704FF0000963E0F7
:109C60002068406AA16D30400880A06D801CA0650E
:109C7000B4F85E00401EA4F85E002068C56969075C
:109C800030D0E9070AD05FEACA5107D50121016245
:109C9000D4F88C0040F00100C4F88C00A8070BD564
:109CA0005FEAC87008D0216802200862D4F88C00EE
:109CB00040F00400C4F88C0068070BD55FEAC87058
:109CC00008D0216804200862D4F88C0040F002001B
:109CD000C4F88C00D4F88C0020B12046FCF711F8B1
:109CE000C4F88C90B4F85E00F0B9216851E8000F18
:109CF00020F4807041E80002002AF6D1264A20684C
:109D0000083050E8001F114040E80013002BF6D146
:109D10002020C4F88800C4F87090E16E48460129FC
:109D200023D02046FCF704FA0FB1A80698D4B4F863
:109D30005E0000288DD0B4F86810814289D920686F
:109D4000083050E8001F21F0805140E80012002A3E
:109D5000F5D112482067206850E8001F41F020012B
:109D600040E80012002AF6D173E7E066216851E866
:109D7000000F20F0100041E80002002AF6D1206810
:109D8000C169C943C90601D410210162B4F85C104D
:109D90002046FBF766FFC7E7FEFFFFEF899B000841
:109DA00010B5B0F86020D0F888300168222B04D0BC
:109DB000886940F00800886110BD496A1140826DD1
:109DC0001170816D491C8165B0F85E10491EA0F8C4
:109DD0005E10B0F85E100029EED1026852E8001F54
:109DE00021F4907142E80013002BF6D1016808318C
:109DF00051E8002F22F0010241E80023002BF5D1A9
:109E00002021C0F8881000210167C26E012A02D00B
:109E1000FCF78EF910BDC166026852E8001F21F000
:109E2000100142E80013002BF6D10168CA69D24341
:109E3000D20601D410220A62B0F85C10FBF711FFC1
:109E400010BD00002DE9F0470446B0F860600068DE
:109E5000C569D0F800A0D0F80880D4F8881022296D
:109E600005D0816941F008018161BDE8F087B4F84F
:109E700068704FF0000963E02068406AA16D3040CF
:109E80000870A06D401CA065B4F85E00401EA4F8E8
:109E90005E002068C569690730D0E9070AD05FEA2B
:109EA000CA5107D501210162D4F88C0040F00100AD
:109EB000C4F88C00A8070BD55FEAC87008D02168E9
:109EC00002200862D4F88C0040F00400C4F88C0032
:109ED00068070BD55FEAC87008D0216804200862C3
:109EE000D4F88C0040F00200C4F88C00D4F88C0048
:109EF00020B12046FBF705FFC4F88C90B4F85E0053
:109F0000F0B9216851E8000F20F4807041E80002A8
:109F1000002AF6D1264A2068083050E8001F114078
:109F200040E80013002BF6D12020C4F88800C4F8C4
:109F30007090E16E4846012923D02046FCF7F8F8DE
:109F40000FB1A80698D4B4F85E0000288DD0B4F8FC
:109F50006810814289D92068083050E8001F21F03C
:109F6000805140E80012002AF5D11248206721688C
:109F700051E8000F40F0200041E80002002AF6D12D
:109F800073E7E066216851E8000F20F0100041E817
:109F90000002002AF6D12068C169C943C90601D46C
:109FA00010210162B4F85C102046FBF75AFEC7E7A7
:109FB000FEFFFFEFA19D00082DE9F0410446016876
:109FC00080682269E3691043626900251A431043DF
:109FD000DFF84CC20A68934B1A4002430A602068BB
:109FE0004168E26821F44051114341602168A06951
:109FF000614501D0226A10438A688B4B1A400243A4
:10A000008A602068C16A626A21F00F011143C1624F
:10A010008649236886488B420DD1D0F8880010F01D
:10A02000030006D0012867D0022854D0032851D15C
:10A0300064E001204FE07F498B420BD1D0F88800CB
:10A0400010F00C0047D0042845D0082852D00C2826
:10A0500040D153E078498B420BD1D0F8880010F002
:10A06000300038D0102847D0202843D0302831D1B4
:10A0700044E072498B420BD1D0F8880010F0C00048
:10A0800029D0402838D0802834D0C02822D135E0CB
:10A090006B498B420ED1D0F8880010F440701AD072
:10A0A000B0F5807F28D0B0F5007F23D0B0F5407F99
:10A0B00010D123E063450DD1D0F8880010F4406042
:10A0C00009D0B0F5806F17D0B0F5006F12D0B0F5A1
:10A0D000406F13D010205B4A5B4F00264FF40041C5
:10A0E000634539D160B102280DD004280DD008286D
:10A0F00031D10EE00220EEE70420ECE70820EAE789
:10A10000FAF79AFB03E0114603E0FAF7B9FB010006
:10A110007BD0606A37F810206768B1FBF2F007EB7C
:10A120004703834269D8B0EB073F66D8002308464F
:10A130001946F6F76DF8090241EA10610202780843
:10A14000101871413A460023F6F762F83F4AA0F52D
:10A150004071914257D950E0E3694FF6EF788B4256
:10A160002BD1092849D2DFE800F005080D48254821
:10A1700048480E00FAF760FB01E0FAF76FFB0100B8
:10A1800001D142E01146606A37F81000B1FBF0F0EF
:10A190004100606801EB5001B1FBF0F1A1F110004A
:10A1A00040452AD84FF6F07201EA0200C1F342019D
:10A1B000084328E0FAF764FBE1E709281DD2DFE84D
:10A1C00000F005080D1C1E1C1C1C0E00FAF734FBC9
:10A1D00001E0FAF743FB010001D116E01146606A85
:10A1E00037F81000B1FBF0F1606801EB5001B1FBF2
:10A1F000F0F0A0F11001414504D9012505E0FAF77E
:10A200003FFBE8E780B22168C8600120A4F86A003B
:10A2100024F8680F2846A660E660BDE8F0810000DB
:10A2200000800040F369FFCFFFF4FF1100380140C8
:10A23000001002400044004000480040004C004034
:10A24000005000400024F40034F60008FFFC0F002A
:10A2500070B58165A0F85C20A0F85E200021016740
:10A2600083684FF48055FF24AB4204D10369FBB9E6
:10A2700040F2FF1322E07F26C3B1B3F1805F1AD012
:10A28000A0F86010C0F88C102223C0F88830036852
:10A29000083353E8004F44F0010443E80046002E21
:10A2A000F5D1436EB3F1005F0ED032E0036943B9DC
:10A2B000A0F86040E6E703691BB13F23A0F86030D7
:10A2C000E0E7A0F86060DDE7B0F86830934220D89E
:10A2D0008268AA4201D10269CAB11F4A026780F8A6
:10A2E0008010016941B1026852E8001F41F4807199
:10A2F00042E80013002BF6D10168083151E8002F25
:10A3000042F0805241E80023002BF5D121E0134AAE
:10A31000E4E78268AA4201D102697AB1104A026771
:10A3200080F88010016959B1026852E8001F41F4B9
:10A33000907142E80013002BF6D10AE0094AEEE7DB
:10A34000026852E8001F41F0200142E80013002B90
:10A35000F6D1002070BD0000459E00082D9C00082D
:10A36000A19D0008899B00082DE9F0479A461746F1
:10A370000E4604464FF000094FF02008089D4AE0C1
:10A38000681C48D0F9F7D8FEA0EB0A00A8422AD8EA
:10A390004DB32068016849073DD5C069C043000539
:10A3A00039D421684FF400600862206850E8001F2B
:10A3B00021F4D07140E80012002AF6D1206808305C
:10A3C00050E8001F21F0010140E80012002AF5D1F9
:10A3D00044F8848FC4F80480C4F8088004F8049C0E
:10A3E0000320BDE8F087216851E8000F20F4D07009
:10A3F00041E80002002AF6D12068083050E8001F2A
:10A4000021F0010140E80012002AF5D144F8848FC0
:10A41000C4F80480E2E72068C06936EA000004D08E
:10A420000020B842ACD00020DBE70120F9E70000B3
:10A430000148FBF767BC00006419002038B5002410
:10A44000ADF80040022240F202516846FBF7DEFE02
:10A45000BDF800000549ADF80000020501D4C004B4
:10A4600001D50C7038BD0120087038BD840900206A
:10A47000FEE7000001B582B000208DF804000A203C
:10A480000090012301AA02A90248FAF71BFD9DF8DA
:10A4900004000EBD6C170020F0B5544A059D084617
:10A4A00014881DB101B91C78E0B241E00546A14213
:10A4B00001D91120F0BD05EB45044D4D05EB4404D9
:10A4C0000E25A48805EA94064A4D2D7805F00F055F
:10A4D000AE422DD214F0380F01D01A20F0BD072063
:10A4E000F0BDD9B102EB810552F8214033F8026B7F
:10A4F0002E8033F8026B6E8052F821503E4EB542EA
:10A5000014D03E4EB54211D03D4EB5420ED06DB185
:10A5100042F82140CCB111801220F0BD1C88E5B278
:10A52000022D01D91320F0BD14809B1C491C89B257
:10A530008142D6D92D4D00200C3D1188A5F10C0388
:10A5400029809C1D1980218023E0491EE3E700BF7C
:10A5500005EB800641F28937776002EB8007DFF870
:10A5600098C07F68CCF1000C17EB0C0715D0B7F53D
:10A57000801F1CD0B7F5001F28D003EB400C00272C
:10A58000ACF8027004EB400CACF802707760401C31
:10A59000C0B28142DCD80020F0BD4FF4B05603EBCE
:10A5A000400706EB00167E804FF4D05617E041F2CC
:10A5B000016603EB400706EB00167E8041F601269C
:10A5C00006EB001704EB40067780E0E741F20266F5
:10A5D00003EB400706EB00167E8041F6022604EBF3
:10A5E000400706EB00167E80D1E700007C000020CB
:10A5F000F6FA000892090020009811000098210046
:10A6000000983100014602484FF40072F5F731BE60
:10A61000680A00200FB4054B10B503A9044A02983C
:10A6200001F0CAFC10BC5DF814FB000061DB0008FF
:10A63000400A002003B401984100009850EAC1206C
:10A6400018BF04204A0D18BF40F0010040F2FF720D
:10A65000B2EB515F08BF40F00200012808BF05209F
:10A6600002B070474100080218BF04200A0E18BF4C
:10A6700040F001004FF07F4232EA010108BF40F094
:10A680000200012808BF0520704720F00040C0F1FB
:10A69000FF40C00F704700280DDB00F01F020121B2
:10A6A00091404009800000F1E020C0F88011BFF324
:10A6B0004F8FBFF36F8F704700280DDB00F01F0234
:10A6C000012191404009800000F1E020C0F8801194
:10A6D000BFF34F8FBFF36F8F7047002809DB00F087
:10A6E0001F02012191404009800000F1E020C0F8E4
:10A6F00000117047002809DB00F01F020121914082
:10A700004009800000F1E020C0F8001170470907FF
:10A71000090E002804DB00F1E02080F800147047E7
:10A7200000F00F0000F1E02080F8141D70470000D9
:10A73000004870474C0A002030B583B0044601F051
:10A7400055FB9FED090B05468DED000B00222146C0
:10A750006846F5F76EFF284601F05EFB9DED000BA5
:10A7600003B030BD00000000000000000000000049
:10A77000B4EEE00AF1EE10FA01DCB0EE600A7047C8
:10A78000B4EEE00AF1EE10FA01D3B0EE600A7047C1
:10A7900010B52DED040B86B09DED060B10EE100AE2
:10A7A00010EE901A8DED000B002818BF0120084311
:10A7B00020F00040C0F17F6000F1E040C00F21D1E7
:10A7C0009DED080B10EE101A10EE900A8DED000BA7
:10A7D000002918BF0121084320F00040C0F17F602C
:10A7E00000F1E040C00F0DD129490798B1EB400FAF
:10A7F00004BF0698002842D00998400004BF08987A
:10A8000000283CD09DED080B53EC102B9DED060B62
:10A8100051EC100BF6F7E6F8CDE902019DED020BC5
:10A8200040F2FF7110EE900A8DED000B31EA1050EE
:10A8300021D00798039900F0004001F000418842C0
:10A8400019D09DED080B8DED040B9DED020B8DEDE8
:10A85000000B10EE900A059961F31E0005909DED26
:10A86000041B9DED020B51EC110B53EC102BF5F773
:10A87000DCFDCDE902019DED020B0AB010BD012007
:10A8800001F0CAFA0AB0BDE8104001F0C1B90000F9
:10A890000000E0FF0000000070B5D94B00242DED52
:10A8A000020B2DED108BDDE91010984205DA20F037
:10A8B00000429A4201D809D141B19DED100BBDEC87
:10A8C000108B02B0BDE8704001F08EB9B0F5801F6A
:10A8D00026DA11430BD0002813DA012001F09CFA8C
:10A8E000BDEC108B02B0BDE8704001F091B90220C0
:10A8F00001F092FA01F060F951EC100B81F0004187
:10A900009EE06FF035049FEDC00B53EC102B9DEDD6
:10A91000100B51EC100BF5F78BFFCDE91001084639
:10A9200004EB2051C0F31304B948A1F2FF312044D5
:10A9300000F4801080F07F6282F04052224301EBED
:10A9400020559FEDB50B119253EC102B9DED100B84
:10A9500051EC100BF5F766FD41EC180BA01CC0F391
:10A9600013009FEDAFDB9FEDB0EBB14E7E440328AB
:10A970006CD296ED000B51EC180B53EC102BF6F744
:10A980009DF81DD1002D01BF96ED000BBDEC108B85
:10A9900002B070BD2846F6F768F841EC180B53EC8E
:10A9A0001D2BF5F745FF41EC190B53EC1E2B51EC19
:10A9B000180BF5F73DFF53EC192BF5F792FC3FE030
:10A9C0009FED9D0B51EC180B53EC102BF5F730FF5E
:10A9D0009FED9B1B53EC112BF5F727FD41EC190B59
:10A9E00053EC182B51EC180BF5F722FF53EC192BF5
:10A9F000F5F71EFF41EC190B002D04BF53EC192B8A
:10AA000051EC180B1AD02846F6F72FF841EC1A0B28
:10AA100053EC1D2BF5F70CFF53EC192BF5F705FD47
:10AA200053EC182BF5F7FEFC41EC180B53EC1E2BE6
:10AA300051EC1A0BF5F7FCFE53EC182BF5F7F2FC72
:10AA4000BDEC108B02B041EC100B70BD9FED7E0B86
:10AA500051EC180B53EC102BF5F743FC41EC100BA9
:10AA600051EC180B53EC102BF5F7E2FC41EC190BF1
:10AA70002846F5F7FAFF41EC1B0B53EC192B51EC70
:10AA8000190BF5F7D5FE41EC1A0B714853EC1A2B54
:10AA9000261851EC1A0BF5F7CBFE41EC1F0B6D4855
:10AAA000C4F1510404F5D724B0EE4F0AF0EE6F0A5A
:10AAB0000321784401F001F853EC1F2B51EC100BEB
:10AAC000F5F7B6FE41EC1C0B6348B0EE4F0AF0EE12
:10AAD0006F0A0421784400F0F0FF53EC1A2B51EC7C
:10AAE000100BF5F7A5FE344353EC1C2BF5F7F9FBDF
:10AAF00041EC1C0B002C4CDD9FED510B51EC180B65
:10AB000053EC102BF5F794FE53EC182BF5F790FE51
:10AB100041EC1A0B55B353EC1D2B51EC1B0BF5F705
:10AB200087FE41EC1D0B53EC1C2B51EC1A0BF5F777
:10AB3000D8FB53EC192BF5F77BFE53EC1D2BF5F7E7
:10AB4000D0FB53EC1A2BF5F770FC53EC182BF5F7F0
:10AB500069FC41EC180B53EC1E2B51EC1B0BF5F769
:10AB600067FE53EC182BF5F75DFC69E753EC1C2BE3
:10AB700051EC1A0BF5F7B5FB53EC192BF5F758FE12
:10AB800053EC1A2BF5F751FC53EC182BF5F74DFC51
:10AB900056E735B353EC1D2B51EC1B0BF5F748FE74
:10ABA00041EC1A0B53EC1C2B51EC180BF5F73AFC4B
:10ABB00053EC192BF5F73CFE53EC1A2BF5F732FC4E
:10ABC00053EC182BF5F72EFC41EC180B53EC1E2B15
:10ABD00051EC1B0BF5F72CFE53EC182BF5F722FC70
:10ABE0002EE753EC1C2B51EC180BF5F71BFC53EC28
:10ABF000192BF5F71DFE53EC182BF5F716FC1FE784
:10AC00000000F07F00000000000000000000504342
:10AC1000645F090000000000000000000000F03F39
:10AC2000763C7935EF39EA3D0000E0FE422EE63F02
:10AC30003057000000000000555555555555D53F7B
:10AC4000000000000000E03F0000000000000040A5
:10AC500086EBF9FF2A550000205500000000000097
:10AC60002DE9F04D2DED040B2DED0E8B96B0DDE9A9
:10AC70002550279CDDF890A025F0004624F00048E0
:10AC8000BAF1000F14BF0121002101EB4502FC497C
:10AC900053184A1093422AD3002814BF01230023DB
:10ACA00003EB44030B44F7498B4220D358EA0001DD
:10ACB0009FEDF59B76D0DFF8D8B35D4503D1BAF1AF
:10ACC000000F05D188E0BAF1000F08BF002100D0C5
:10ACD000012101EB450111F5001F08D8002814BF20
:10ACE0000121002101EB440111F5001F0BD99DED5D
:10ACF000261B9DED240B16B0BDEC0E8B04B0BDE8F9
:10AD0000F04D00F07BBF0027002DBCBFE149884516
:10AD100021DAE1498845A8BF02271CDAC3451ADCBD
:10AD2000DE4901EB2851142908DDC1F1340220FA73
:10AD300002F101FA02F282420DD108E058B9C1F1E4
:10AD4000140228FA02F101FA02F2424503D101F09D
:10AD50000101C1F1020756EA0A0124D1002C22DACE
:10AD6000002D18BF022F01D0012F0AD0022001F0C0
:10AD700053F816B0BDEC0E8B04B0BDE8F04D00F0FA
:10AD80001BBF022001F048F800F016FF51EC100B39
:10AD900081F0004141EC100B16B0BDEC0E8B04B0FD
:10ADA000BDE8F08D18E09FEDBEAB9FEDBF8B002896
:10ADB00071D1B848804522D105F1804010F580104E
:10ADC00008BFBAF1000F07D0B3450ADC002CA8BFBA
:10ADD0009DED260BE0DA0DE0B0EE490AF0EE690ACF
:10ADE000DAE7002C06DA9DED260B51EC100B81F012
:10ADF00000416FE0AE48784490ED000BCCE7D845B9
:10AE00004DD1002C48DA2EB186423AD1BAF1000F6A
:10AE100042D126E0BAF1000F13D0022000F0FCFF6F
:10AE200000F006FF8DED020B9DED240B8DED000B68
:10AE300010EE900A039961F31E0003909DED020B42
:10AE4000AAE78DED02AB9DED240B1AEE901A10EEE1
:10AE5000900A8DED000B61F31E0003909DED020B37
:10AE60009AE78DED028B9DED240B18EE901A10EEF3
:10AE7000900A8DED000B61F31E0003909DED020B17
:10AE80008AE709DA9DED240B51EC190B53EC102BDA
:10AE9000F5F7CEFA1EE020E09DED240B7CE786421C
:10AEA0001BDAB4F1804F0DD0A4F10050B0F1FF5087
:10AEB00013D1002D11DB9DED240B51EC100B03F091
:10AEC0005BFD07E09DED240B53EC102B51EC100BB8
:10AED00000F0C2BC41EC100B5EE79DED240B51EC81
:10AEE000100B02F007FEBAF1000FCDE90E0142D1BE
:10AEF0009FED710B46B3A6F1E040B0F17F600CD03E
:10AF00005E4538D1002D00DAA7B3022F0CBF012017
:10AF10004FF0FF30F5F7A9FDDCE7002D01DD002C37
:10AF20000DDA002D01DD002C1FDB002D16DA002CC0
:10AF300014DB012F08BF9FED620B3FF42DAFB0EE85
:10AF40004A0AF0EE6A0A27E7022F18BF002D0CD03C
:10AF5000012F0AD1002DFFF61FAF06E0002DB8BF6C
:10AF6000002C08DA012F3FF417AFB0EE480AF0EEDC
:10AF7000680A11E71BE0012000EBE57050EA0701C9
:10AF800015D0791EB0EE498AF0EE698A084308BFF1
:10AF90009FED4D8B4E480025804570DD4D494E4854
:10AFA000884514DDB0420DDB002C19DB2FE00120B9
:10AFB00000F032FF16B0BDEC0E8B04B0BDE8F04DD2
:10AFC00000F026BEB34502DC002C09DC1FE08642FF
:10AFD00002DA002C1BDA03E05E452BDD002C16DDC7
:10AFE000022000F019FF00F023FE8DED020B53EC60
:10AFF0001A2B51EC180BF5F71BFCCDE90001039956
:10B00000019861F31E0003909DED020BC4E602203F
:10B0100000F002FF00F01CFE10EE901A18EE900AED
:10B020008DED020B8DED008B61F31E0003909DED05
:10B03000020BB1E69DED0E0B53EC192B51EC100BEE
:10B04000F5F7F0F99FED260BCDE9080153EC102B35
:10B050009DED080B51EC100BF5F7EAFB9FED221B61
:10B0600053EC112BF5F7E1F99DED081B53EC112B77
:10B07000F5F7DEFB9FED1E1B53EC112B3CE08CE043
:10B08000FFFF1F00FFFF0F00000000000000F03F67
:10B090000000F03F0000F07F0000404301FCFFFF94
:10B0A000000000000000F07F000000000000000031
:10B0B000A652000000000000000000000000008018
:10B0C000000000000000F0FF000000000000F0BFE2
:10B0D0000000E0410000F043FFFFEF3F00000000F0
:10B0E000000000000000D03F555555555555D53F3F
:10B0F000000000000000E03FF5F797F99DED080B18
:10B1000041EC1A0B53EC102B51EC100BF5F790FBA4
:10B1100053EC1A2BF5F78CFB41EC1A0B9FEDFE0B51
:10B1200053EC102B9DED080B51EC100BF5F780FB49
:10B1300041EC1B0B9FEDFA0B51EC1A0B53EC102B4F
:10B14000F5F776FB41EC1A0B9FEDF70B53EC102B48
:10B150009DED080B51EC100BF5F76AFB53EC1A2B25
:10B16000F5F760F941EC1A0B51EC1B0B53EC1A2B61
:10B17000F5F7B7F80690CDE906519DED060B53ECB7
:10B180001B2B51EC100BF5F74DF953EC1A2BF5F77F
:10B190004CF941EC100B00F0A1B90020B6F5801F6E
:10B1A0000EDA9FEDE30B53EC102B9DED0E0B51ECE3
:10B1B000100BF5F73DFBCDE90E016FF034000E46A4
:10B1C00000EB2650A0F2FF37C6F31300DA4940F037
:10B1D0007F6646F040568842D8BF002408DDD74934
:10B1E0008142C8BF012403DC0024A6F580167F1C21
:10B1F000D348784400EBC4000F9690ED00CB9DED52
:10B200000E0B53EC1C2B51EC100BF5F70BF99DEDCD
:10B210000E0B41EC1B0B53EC1C2B51EC100BF5F7F8
:10B2200060F841EC100B51EC190B53EC102BF5F7B7
:10B23000FFF841EC1D0B51EC1B0B53EC1D2BF5F7EC
:10B24000F7FA41EC1A0BBF488DED10AB784410951E
:10B2500090ED000B4FF0005040EA660000EB844098
:10B260008DED080B00F5002009909DED080B53ECC7
:10B270001C2B51EC100BF5F7D5F89DED0E1B53EC84
:10B28000112BF5F7D2F841EC100B53EC102B9DED80
:10B29000100B51EC100BF5F7CBFA9DED080B41ECC0
:10B2A0001C0B53EC102B9DED100B51EC100BF5F714
:10B2B000BFFA53EC1B2BF5F7B8F853EC1C2BF5F742
:10B2C000B1F853EC1D2BF5F7B3FA41EC1C0B53EC22
:10B2D0001A2B51EC1A0BF5F7ABFA41EC1B0B9A4801
:10B2E0000621B0EE4B0AF0EE6B0A784400F0E5FB65
:10B2F000B0EE401AF0EE601AB0EE41DAF0EE61DA2C
:10B3000053EC1B2B51EC1B0BF5F792FA53EC1D2B56
:10B31000F5F78EFA9DED100B41EC1B0B53EC1A2B3D
:10B3200051EC100BF4F7DDFF53EC1C2BF5F780FA12
:10B3300053EC1B2BF4F7D5FF9DED100B41EC1B0BD1
:10B3400053EC102B51EC100BF5F772FA41EC1D0B7E
:10B350009FED7FEB53EC1E2BF4F7C3FF53EC1B2B3D
:10B36000F4F7BFFF0890CDE908519DED080B53ECB1
:10B370001E2B51EC100BF5F755F853EC1D2BF5F780
:10B3800051F853EC1B2BF5F750F89DED080B41ECF1
:10B390001D0B53EC102B9DED100B51EC100BF5F722
:10B3A00047FA41EC1B0B53EC1A2B51EC1D0BF5F734
:10B3B0003FFA9DED080B41EC1A0B53EC102B51ECAE
:10B3C0001C0BF5F735FA53EC1A2BF4F78AFF41EC16
:10B3D0001A0B51EC1B0B53EC1A2BF4F782FF0C9059
:10B3E000CDE90C519DED0C0B53EC1B2B51EC100BCC
:10B3F000F5F718F853EC1A2BF5F717F841EC1B0B7F
:10B400009FED550B53EC102B9DED0C0B51EC100BDD
:10B41000F5F70EFA41EC1A0B9FED510B51EC1B0B9B
:10B4200053EC102BF5F704FA41EC1B0B9FED4E0B80
:10B4300053EC102B9DED0C0B51EC100BF5F7F8F9BC
:10B4400053EC1B2BF4F74DFF41EC100B48487844AC
:10B4500000EBC40090ED001B51EC100B53EC112BD2
:10B46000F4F73FFF41EC1B0B3846F5F7FEFACDE948
:10B47000080153EC1B2B51EC1A0BF4F732FF41EC93
:10B48000100B3C48784400EBC40090ED00CB51EC2D
:10B49000100B53EC1C2BF4F724FF9DED081B53EC11
:10B4A000112BF4F71EFF0690CDE906519DED080B18
:10B4B00053EC102B9DED060B51EC100BF4F7B2FF83
:10B4C00053EC1C2BF4F7AEFF53EC1A2BF4F7AAFF46
:10B4D00053EC1B2BF4F7A9FF41EC100B9DED261B41
:10B4E00053EC102B8DED001B00959DED260B51ECC0
:10B4F000100BF5F79DF99DED000B41EC1A0B53EC89
:10B50000102B9DED260B51EC100BF4F78BFF9DEDEE
:10B51000061B53EC112B2FE0000000604715F73F8E
:10B52000FE822B654715F73F44DF5DF80BAE543EB6
:10B5300000000000000040438E9803007AB60B0024
:10B54000224E0000504E00005A4D00000000000046
:10B550000000000000000840000000E009C7EE3FC6
:10B56000FD033ADC09C7EE3FF5015B14E02F3EBE58
:10B57000E64B0000A04B0000F5F75AF953EC1A2BEC
:10B58000F4F7AFFE9DED060B41EC1A0B53EC102BBC
:10B590009DED000B51EC100BF5F74AF9CDE90C01CC
:10B5A0009DED0C0B51EC1A0B53EC102BF4F799FE9C
:10B5B000CDE902010C46AA498C422FDB611A0843EF
:10B5C00018D19DED0C0B53EC102B9DED020B51ECA3
:10B5D000100BF4F727FF41EC1B0B9FEDA30B51EC75
:10B5E0001A0B53EC102BF4F77CFE53EC1B2BF5F7E6
:10B5F0007DFA2DD2022000F00FFC00F019FB10EEB6
:10B60000901A18EE900A8DED020B8DED008B61F310
:10B610001E0003909DED020BFFF7BEBB944A24F081
:10B620000041914214D39349214408437FF4EFAC85
:10B630009DED0C0B53EC102B9DED020B51EC100B00
:10B64000F4F7F0FE53EC1A2BF5F750FA7FF6DFAC67
:10B6500024F000408849894A002601EB20518242AB
:10B660002BDA481C4FF4801121FA00F02044844A60
:10B67000C0F30A517A44A1F2FF3192ED000B814AE6
:10B680008DED080BCA4020EA0202C0F3130040F41B
:10B690008010C1F1140120FA01F60992002CB8BF04
:10B6A00076429DED080B53EC102B9DED0C0B51ECED
:10B6B000100BF4F7B7FECDE90C019DED0C0B51EC2E
:10B6C0001A0B53EC102BF4F70CFE9FED6F0B089048
:10B6D000CDE9085153EC102B9DED080B51EC100BEC
:10B6E000F5F7A6F841EC1B0B9FED690B53EC102B03
:10B6F0009DED080B51EC100BF5F79AF89DED0C0B36
:10B7000041EC1C0B53EC102B9DED080B51EC100B76
:10B71000F4F788FE53EC1A2BF4F787FE9FED5E1BBF
:10B7200053EC112BF5F784F853EC1C2BF4F7D9FDEF
:10B7300041EC1A0B51EC1B0B53EC1A2BF4F7D1FD17
:10B74000CDE902019DED020B53EC1B2B51EC100BCC
:10B75000F4F768FE53EC1A2BF4F767FE9DED020B2D
:10B7600041EC1A0B53EC102B51EC100BF5F760F871
:10B77000CDE908014A489DED080B0521784400F009
:10B780009CF99DED081B51EC100B53EC112BF5F7B8
:10B790004FF89DED021B53EC112BF4F746FECDE95B
:10B7A00006019DED020B53EC1A2B51EC100BF5F733
:10B7B0003FF853EC1A2BF4F794FD9FED3B0B41EC53
:10B7C0001A0B53EC102B9DED060B51EC100BF4F7FC
:10B7D00029FE9DED060B41EC1B0B53EC102B9DED50
:10B7E000020B51EC100BF5F723F853EC1B2BF4F77D
:10B7F0001FFE53EC1A2BF4F715FE9DED021B53ECC4
:10B80000112BF4F70FFE53EC192BF4F70EFECDE9D4
:10B81000020101EB065001150029C8BF039015DC99
:10B820009DED020B324651EC100BF5F773F8FEF765
:10B8300001FF042808BF00F00BFA32469DED020B11
:10B8400051EC100BF5F766F8CDE902019DED020B06
:10B8500051EC180B53EC102BF4F7EAFFFFF73ABB4F
:10B860000000904000000000FE822B654715973CC9
:10B8700000CC904000346F3F01FCFFFF0000E03F30
:10B88000284A0000FFFF0F0000000000432EE63FA3
:10B89000396CA80C615C20BEEF39FAFE422EE63FFF
:10B8A000F848000000000000000000000000004018
:10B8B00000B510EE101A2DED028B81B0524A684689
:10B8C000B2EB410F2ED94FF0E640B0EB410F94BFE1
:10B8D00000204FF0FF3000900098B0EE408A002822
:10B8E0006ADB10F0010F4BD068EE080A9FED471A93
:10B8F0009FED470A00EE810A9FED461A10F0020FF5
:10B9000000EE801AB7EE000A00EE810A02BF01B015
:10B91000BDEC028B00BD00BF01B0B1EE400ABDEC32
:10B92000028B00BD3C4B21F00042934241D911F003
:10B93000004FDFED3A0A20EE201ADFED390A19BF79
:10B9400031EE601A71EE200A31EE201A71EE600AB3
:10B95000BDEEE01A11EE100A9FED321A00F003005E
:10B9600000EEC10A9FED301A009000EEC10A9FED73
:10B970002F1A00EEC10A9FED2E1A00EEC10AABE7A6
:10B9800028EE080A9FED2B1ADFED2B0A10F0020FAC
:10B9900040EE410A9FED291A00EE201A61EE000ADE
:10B9A000B0EE480A08EE200AB6D101B0BDEC028B19
:10B9B00000BD00F071F98FE718EE100A4000B0F1F9
:10B9C0007F4F0DD218EE100AFEF74CFE042808BF78
:10B9D00000F05AF9B0EE480A01B0BDEC028B00BD90
:10B9E00009D1012000F018FA01B0BDEC028B5DF81E
:10B9F00004EB00F041B901B0B0EE480ABDEC028B97
:10BA00005DF804EB00F034B9B61F927EB93AB2BAD1
:10BA1000CA9F2A3DDDFFFFBE490E494683F9223FFA
:10BA20000000004B0000C93F00A0FD390020A233F8
:10BA30001A61342C336D4C39DA82083CA0AA2ABE34
:10BA400000B52DED048BB0EE409AF0EE609A83B015
:10BA500051EC190BF4F775FF41EC180B18EE100AB6
:10BA600018EE901A8DED008B002818BF01200843B6
:10BA700020F00040C0F17F6000F1E040C00F14D022
:10BA800019EE101A19EE900A8DED009B002918BFCF
:10BA90000121084320F00040C0F17F6000F1E04048
:10BAA000C00F04BF012000F0B7F9B0EE480A03B0A0
:10BAB000F0EE680ABDEC048B00BD70B504462DEDB8
:10BAC000028B4D1E00EBC500B0EE408AF0EE608A9E
:10BAD00090ED000B35F0060017D053EC182B51EC0D
:10BAE000100BF4F7A5FE41EC100B6D1E04EBC50026
:10BAF00090ED001B51EC100B53EC112BF4F7F1FB04
:10BB000041EC100B35F00600E7D1022D36D0042DA4
:10BB10001CD0062D1CBFBDEC028B70BD53EC182B46
:10BB200051EC100BF4F784FE94ED0A1B53EC112B2F
:10BB3000F4F7D7FB53EC182BF4F77AFE94ED081BBF
:10BB400053EC112BF4F7CDFB41EC100B53EC182BFD
:10BB500051EC100BF4F76CFE94ED061B53EC112B1B
:10BB6000F4F7BFFB53EC182BF4F762FE94ED040BD3
:10BB700053EC102BF4F7B5FB41EC100B53EC182BE6
:10BB800051EC100BF4F754FE94ED021B53EC112B07
:10BB9000F4F7A7FB53EC182BF4F74AFE94ED001BC7
:10BBA00053EC112BF4F79DFBBDEC028B41EC100B19
:10BBB00070BD0000000000009FED070B10B553ECB6
:10BBC000102B9FED070B51EC100BF4F731FC41ECFF
:10BBD000100B10BD0000000000000000000000007D
:10BBE000000000000000F03F10B553EC102B51ECAA
:10BBF000100BF4F776FB41EC100B10BD10B553ECB5
:10BC0000112B51EC100BF4F76CFB41EC100B10BD39
:10BC10009FED050B10B553EC102B51EC100BF4F706
:10BC200007FC41EC100B10BD0000000000000000FC
:10BC30009FED050B10B553EC102B51EC100BF4F7E6
:10BC4000F7FD41EC100B10BD00000000000000707B
:10BC50009FED050B10B553EC102B51EC100BF4F7C6
:10BC6000E7FD41EC100B10BD0000000000000010CB
:10BC700030EE000A70470000DFED020A80EEA00AF5
:10BC800070470000000000009FED020A20EE000A4D
:10BC900070470000000000102DE9F0014FF07F42D6
:10BCA000B2EB410F9FBF4FF0FF310160BDE8F001E3
:10BCB00070474FF0004242EA0123C1F3C752783A7D
:10BCC000551112F01F0C434CCCF120067C44C1F3FB
:10BCD000C752A2F178024FEA621204EB820254F8D2
:10BCE000254008BFD2E9015612D0556804FA0CF479
:10BCF00025FA06F73C43976805FA0CF527FA06F88B
:10BD0000D26807FA0CFCF24045EA08054CEA020644
:10BD1000A4FB034CA5FB0352A6FB03631D449D42F9
:10BD200034BF012600261319334416B1934202D9B9
:10BD300003E0934201D2012200E00022624402F1BA
:10BD4000200C9206DC0C42EA443200EE102A5B031F
:10BD5000DFED210AF8EEC01A00EE103A4FEA9C1C03
:10BD600011F0004FB8EE400AC0F800C020EE201AD3
:10BD700000EE105ADFED190AB8EE400A20EE200A54
:10BD800071EE810A70EE800A10EE902A02F50062D0
:10BD90006FF30B0200EE902A70EEE11A31EEC11A39
:10BDA000DFED101A30EE411A9FED0D0A20EE800AE9
:10BDB00001EE210A9FED0C1A00EE810A04BFBDE8D6
:10BDC000F0017047CCF180510160BDE8F001B1EEA7
:10BDD000400A7047D8430000000000360000802C65
:10BDE00022AAFD29DB0FC92F0000C92F01480068D6
:10BDF000704700004C0A002002E008C8121F08C16A
:10BE0000002AFAD170477047002001E001C1121FDB
:10BE1000002AFBD17047000001490860704700000C
:10BE20004C0A00202DE9FF5F82B00021DDE90430DB
:10BE3000020DDDF840B0034318D044F61050A2F2D2
:10BE4000FF3242431514119801281FD0A5EB0B00B7
:10BE5000401C5FEA000A4FF000064E4FDFF83891B1
:10BE6000B046504615D5CAF1000413E011980124DC
:10BE70004AA3012801D16FEA0B010298119AC0E987
:10BE80000031C0E9024206B0BDE8F09FCBF10000EE
:10BE9000DFE704460021404A491842EB0450CDE94F
:10BEA000001012E0E00707D032463B4640464946C4
:10BEB000F4F7BEFC8046894632463B46104619469A
:10BEC000F4F7B6FC06460F466410002CEAD1DDE913
:10BED0000401DDE90023BAF1000F06DAF4F7A8FC4B
:10BEE00042464B46F4F7A4FC05E0F4F7A1FA4246BB
:10BEF0004B46F4F79DFA04460E460022284BF4F711
:10BF0000F5FD03D84FF0FF30014607E00022254B36
:10BF100020463146F4F7E5F9F4F7B8FD102409E0BE
:10BF2000002C0ADB0A220023F4F772F9039B30325B
:10BF30001A55641E50EA0102F2D1641C039AC4F13E
:10BF400011031444119A012A03D0012208430DD190
:10BF50000AE0084304D000204FF0110B119072E763
:10BF6000A3EB0B056D1E0DE05B4504DD4FF00002F9
:10BF700005F1010504E003DA4FF00002A5F1010527
:10BF8000002AECD002981199C0E90231C0E90045BD
:10BF900079E70000000014400000F03F300000008E
:10BFA0000000F0430000E03F30380A2801D20120B1
:10BFB00070470020704700002DE9FF4F95B09B4669
:10BFC0008946064600250FE2252877D1002427461A
:10BFD000F84A0121059400E0044316F8013F203B94
:10BFE00001FA03F01042F7D130782A2811D06FF00F
:10BFF0002F033078A0F13002092A16D8059A44F0B0
:10C00000020402EB820203EB42021044761C05900C
:10C01000EFE759F8042B0592002A03DA504244F462
:10C020000054059044F00204761C30782E2816D176
:10C0300016F8010F44F004042A280DD06FF02F02E7
:10C040003078A0F13003092B09D807EB870302EB06
:10C050004303C718761CF3E759F8047B761C307845
:10C060006C280FD006DC4C2817D068280DD06A2821
:10C0700014D104E0742810D07A280FD10DE044F4D4
:10C0800000140AE044F4801401E044F4401472788F
:10C09000824202D104F58014761C761C3078662822
:10C0A0000BD013DC582877D009DC002875D0452840
:10C0B000F6D04628F4D047281AD19DE118E063282D
:10C0C00035D0642879D0652812D195E1702873D0D5
:10C0D00008DC6728F1D069286FD06E280DD06F2852
:10C0E00006D1B5E073282CD0752875D0782874D087
:10C0F0005A46179990476D1C75E1C4F30250022807
:10C1000009D003280DD0D9F8001004280DD00D60F7
:10C1100009F1040967E1D9F80010EA17C1E90052F2
:10C12000F6E7D9F800100D80F2E70D70F0E719F886
:10C13000041B8DF8001000208DF80100EA46012054
:10C1400003E059F804AB4FF0FF3061074FF00001F6
:10C1500002D40DE008F101018846B9420FDA8045AA
:10C16000F8DB1AF808100029F4D108E008F1010101
:10C1700088468142FADB1AF808100029F6D10598A2
:10C180005B46A0EB080721463846179A00F094FA60
:10C19000284400EB080507E04DE029E10DE01AF81E
:10C1A000010B5A4617999047B8F10108F7D25B4640
:10C1B00021463846179A13E142E00A220092C4F35E
:10C1C00002524FF0000A022A08D059F804CB032A81
:10C1D0004FEAEC710AD00DE029E02AE009F10701ED
:10C1E00021F00702F2E802C1914609E00FFA8CFC47
:10C1F0004FEAEC71042A03D14FFA8CFC4FEAEC7140
:10C20000002907DA0A460021DCF1000C61EB02018B
:10C210002D2202E0220504D52B228DF804200122D4
:10C2200003E0E20701D02022F7E7904659E00A2117
:10C2300002E010220DE010214FF0000A00910BE007
:10C2400010224FF0000A44F004040827009203E093
:10C2500008224FF0000A0092C4F30252022A05D0CD
:10C2600059F804CB0021032A08D009E009F107019D
:10C2700021F00702F2E802C1914605E01FFA8CFCAA
:10C28000042A01D10CF0FF0C4FF00008220728D53A
:10C29000702806D0009B83F0100353EA0A0305D0F0
:10C2A0000EE040228DF80420012208E05CEA010241
:10C2B00006D030228DF804208DF805000222904629
:10C2C000009B83F0080353EA0A030AD15CEA0102E7
:10C2D00001D1620705D530228DF804204FF0010806
:10C2E0007F1E582804D034A003900EA802900DE0C1
:10C2F00036A0F9E753466046009AF3F789FF844673
:10C300000398825C0298401E029002705CEA010071
:10C31000F0D1029806A9081A00F1200A600702D598
:10C3200024F4803400E00127574502DDA7EB0A0022
:10C3300000E0002000EB0A01009005984144401AFB
:10C340000590E00306D45B462146179A059800F055
:10C35000B3F90544002706E001A85A46C05D1799C5
:10C3600090476D1C7F1C4745F6DBE0030CD55B4610
:10C370002146179A059800F09FF9054404E0302003
:10C380005A46179990476D1C0099481E0090002945
:10C39000F5DC08E0029802995A460078491C02919F
:10C3A000179990476D1CBAF10001AAF1010AF1DC5E
:10C3B00065E1000009280100303132333435363769
:10C3C00038396162636465660000000030313233E1
:10C3D0003435363738394142434445460000000081
:10C3E00000F058F90544761C307800287FF4ECAD55
:10C3F00019B02846BDE8F08F620700D4062709F17E
:10C40000070222F0070CFCE80223E14603F0004893
:10C410005FEA080C02D00FF2702C0DE05FEA045CBA
:10C4200002D50FF2682C07E05FEAC47C02D00FF25D
:10C43000602C01E0AFF2700C4FF0FF3823F00043A6
:10C44000CDF850C065280CD006DC452809D0462818
:10C450001DD047283DD13DE0662818D067287ED101
:10C4600038E00021112F01DB112000E0781CCDE91C
:10C47000000106A90EA8FFF7D5FCDDE90F010E9A11
:10C4800003910021009207F1010A04914DE04FF061
:10C4900000400097CDE9011006A90EA8FFF7C2FCE5
:10C4A000DDE90F0203920E9B11990022DDF80CA02A
:10C4B0000093049211B9791C00EB010AB7EB0A0052
:10C4C00004D4C0F1FF3007F1010A0490AAEB070081
:10C4D000019044E0012F00DA01270021112F01DD36
:10C4E000112000E03846CDE9000106A90EA8FFF7AB
:10C4F00099FCDDE90F010E9A03910021049100924D
:10C50000BA4621070CD40399514500DA8A46BAF19C
:10C51000010F05DD009AAAF10101515C302908D014
:10C52000B84202DA10F1040F06DA0121CDE9011058
:10C5300015E0AAF10101E9E7002805DC04990144AE
:10C540000491AAEB000102E0411C514500DD8A463E
:10C550000499401A401C01904FF0004002902007BF
:10C5600004D40198504501DBCDF8048000208DF8FB
:10C570004F0002980DF14F07B0F1004F25D02B204E
:10C580000E9002984FF0020800280CDA4042029008
:10C590002D200E9007E00A210298F3F7E7FF3031D3
:10C5A000029007F8011DB8F10001A8F10108F2DCC2
:10C5B00002980028EFD1791E0E980870307800F0AC
:10C5C000200040F0450007F8020D12A8C01B00F142
:10C5D00007081498007800B1012000EB0A010198C7
:10C5E00001EBE07105984144401A401E0590E003BC
:10C5F00006D45B462146179A059800F05DF805447D
:10C600001498007818B15A46179990476D1CE003AA
:10C6100024D55B462146179A059800F04DF805444D
:10C620001CE00498002807DBDDE90301884203DDF4
:10C630000098405C179901E0179930205A469047BE
:10C64000049805F10105401C04900198401E0190DA
:10C6500004D12E205A46179990476D1CBAF100015B
:10C66000AAF1010ADDDC05E017F8010B5A4617991B
:10C6700090476D1CB8F10001A8F10108F4DC5B469D
:10C680002146179A0598ABE62D0000002B0000000C
:10C69000200000002DE9F041044600251E46174603
:10C6A000880404D405E039462020B0476D1C641E80
:10C6B000F9D52846BDE8F0812DE9F0410446002572
:10C6C0001E469046C80301D5302700E02027880485
:10C6D00004D505E041463846B0476D1C641EF9D5C7
:10C6E0002846BDE8F081000070B514462DED048B9E
:10C6F0000D460646F0EE418AB0EE609AF0EE409AA2
:10C70000F6F7A6FAF0EE401AB0EE690AB0EE618ACA
:10C71000F6F7A6FA68EE090A9FED141A9FED142A9F
:10C7200040EE680A60EE011A68EE022A28EE011A4D
:10C73000C6ED000AF6EE000A48EE601A40EE602AE6
:10C7400000EE601A61EE891A42EEE81AC5ED001A91
:10C7500060EE021A48EE601A61EE891A41EE681A1C
:10C76000C4ED001ABDEC048B70BD0000D7B35D3F73
:10C77000D7B35DBF2DE9F34F2DED0C8BADF50D7DDE
:10C780000C46F6A0FDF746FFDFEDFDAA4FF460660C
:10C79000304601F04BFD8146304601F047FD05462D
:10C7A000B9F1000F7DD0002D7BD04FF400773846D3
:10C7B00001F03CFD8990002873D031464846F3F7DC
:10C7C00071FD31462846F3F76DFD39468998F3F738
:10C7D00069FD304601F02AFD8046304601F026FD15
:10C7E0008246B8F1000F5CD0BAF1000F59D0314643
:10C7F0004046F3F757FD31465046F3F753FD3946AF
:10C8000003A8F3F74FFD8998FDF7FCFE304601F0D1
:10C810000DFD8B90304601F009FD8A908B98002821
:10C820003FD08A9800283CD031468B98F3F73AFDE8
:10C8300031468A98F3F736FD9FEDD29AF0EE498A99
:10C84000DFEDD1BA8DED839AB6EE00BA8DED86BAE2
:10C8500083AA85A984A8B0EE491AF0EE6B0AB0EE5F
:10C86000680AFFF741FF86AA87A988A8DDED831A29
:10C870009DED851ADDED840AB7EE000A02F0B4F8EA
:10C88000DFF808B3002649F64047B7EE008A00BF3C
:10C89000DBF80000C16A490800EE101AB8EE400A41
:10C8A00000E039E3DDED880A78EE600A20EE200A28
:10C8B000BCEEC00A10EE101A4163B548DBF8001058
:10C8C0000068CA6A4FEA520200EE102AB8B1F8EEC8
:10C8D000400A9DED870A38EE400A20EE800ABCEE41
:10C8E000C00A10EE102A8A63DBF80000C16ADDED91
:10C8F000860A490800EE101AB8EE400A16E0DDED8F
:10C90000860AB8EE400A78EE600A20EE200ABCEEF5
:10C91000C00A10EE102A8A63DBF80000C16ADDED60
:10C92000870A490800EE101AB8EE400A78EE600A4D
:10C9300020EE200ABCEEC00A10EE101AC16364207B
:10C94000F7F784F9761CBE42A2DB9FED92AA999874
:10C95000B0EE4A0AFBF7C6FED4F890106068401AA1
:10C9600000EE100AF8EEC00A9FED8B0A60EE800A16
:10C97000C4ED030AD4F88C102068401A01EE100AA6
:10C9800004F14401081FB8EEC11A21EE001AB1EEFD
:10C99000600A84ED041A70EE411AC4ED051A94ED94
:10C9A0000A0A00F0ADFC606CF3F7B1FD41EC100B2E
:10C9B0009FED7ADBB0EE4D1AF0EE6D1AFEF750F9EE
:10C9C000B0EE40CAF0EE60CA206CF3F7A0FD41EC77
:10C9D000100BB0EE4D1AF0EE6D1AFEF741F9B0EE05
:10C9E000401AF0EE601A53EC1C2B51EC110BF3F7CC
:10C9F00078FC41EC100BFFF723F851EC100BF3F728
:10CA000099FD0CEE900A67A0FDF704FE0024F1EEFC
:10CA10000C9A00264FEA0B0778EEAA8A83AA85A90A
:10CA200084A8B0EE491AF0EE6B0AB0EE680AFFF780
:10CA30005BFE86AA87A988A8DDED831A9DED851A7D
:10CA4000DDED840AB7EE000A01F0CEFF3868BB4680
:10CA5000C16ADDED880A490800EE101A78EE600A16
:10CA6000B8EE400A20EE200ABCEEC00A10EE101A02
:10CA70004163474839680068CA6A4FEA520200EECB
:10CA8000102AB8EE400AA8B1DDED870A78EE600AF8
:10CA900020EE200ABCEEC00A10EE102A8A63DBF8F2
:10CAA0000000C16ADDED860A490800EE101AB8EEF2
:10CAB000400A14E0DDED860A78EE600A20EE200AD6
:10CAC000BCEEC00A10EE102A8A63DBF80000C16ACF
:10CAD000DDED870A490800EE101AB8EE400A78EE3C
:10CAE000600A20EE200ABCEEC00A10EE101AC163E4
:10CAF0006420F7F7ABF8B0EE4A0A9998FBF7F2FD1D
:10CB0000761C282E88DBB0EE4A0A9998FBF7EAFDDE
:10CB1000F6F7E8F888EEA9CAB0EE40DA09EB84002F
:10CB20003CEE4D0A80ED000AF6F700F98B9941F8CA
:10CB3000240000901DEE100AF3F7E9FC06460F46AC
:10CB40001CEE100AF3F7E3FC41EC100B0098009682
:10CB5000CDE9017053EC102B21463BE05374617218
:10CB600074696E672063616C6962726174696F6E6B
:10CB70002070726F6365647572650A0D00000000B5
:10CB80007CD9A03A00000000CDCCCC3D3418002068
:10CB9000340E002017B7D137FFFFA4BC00000000FF
:10CBA000000000402043757272656E7420416E670C
:10CBB0006C65203A20526F746F7220416E676C650D
:10CBC000203A2052617720456E636F646572200AB7
:10CBD0000D0A0D00D3A0FDF71DFD641CB4F5607FA8
:10CBE000FFF617AF0024B0EE4ADADFF854B3D54EA3
:10CBF000002700BF78EEEA8A83AA85A984A8B0EE50
:10CC0000491AF0EE6B0AB0EE680AFFF76DFD86AACE
:10CC100087A988A8DDED831A9DED851ADDED840ACC
:10CC2000B7EE000A01F0E0FE3068C16ADDED880A67
:10CC3000490800EE101A78EE600AB8EE400A20EEBD
:10CC4000200ABCEEC00A10EE101A4163DBF80000A7
:10CC500000283068C16A4FEA510100EE101AB8EEA0
:10CC6000400A14D0DDED870A78EE600A20EE200A33
:10CC7000BCEEC00A10EE101A81633068C16ADDEDA7
:10CC8000860A490800EE101AB8EE400A13E0DDEDFE
:10CC9000860A78EE600A20EE200ABCEEC00A10EE8A
:10CCA000101A81633068C16ADDED870A490800EE19
:10CCB000101AB8EE400A78EE600A20EE200ABCEEA8
:10CCC000C00A10EE101AC1636420F6F7BFFFB0EE81
:10CCD0004D0A9998FBF706FD7F1C282F8ADBB0EEE2
:10CCE0004D0A9998FBF7FEFCF5F7FCFF88EEA9CA00
:10CCF000B0EE40AA05EB84003CEE4A0A80ED000A43
:10CD0000F6F714F88A99834641F824001AEE100ABF
:10CD1000F3F7FDFB06460F461CEE100AF3F7F7FB90
:10CD200041EC100B8DE8C00853EC102B21467DA080
:10CD3000FDF770FC4FF46076641CB442FFF655AF0B
:10CD4000B0EE490A0020DFED800A00BF09EB800148
:10CD500091ED001AA5EB800101F54061401CD1ED79
:10CD60007F1AB04271EE211A81EEA01A31EE000A4C
:10CD7000ECDB20EE290A10EE100AF3F7C8FB41ECB9
:10CD8000100B9FED721BFDF703FD51EC100BF3F739
:10CD9000D1FB08EE100AB0EE480AFBF7C7FF6D485A
:10CDA00080ED008A5FF0000009EB800191ED000A40
:10CDB000A5EB800101F54061D1ED7F0A08EB800110
:10CDC000401C30EE200AB04220EE0B0A81ED000A32
:10CDD000EADB0024DFED608A00210AEB84070819F2
:10CDE000403802D500F5607003E0B04201DBA0F5E9
:10CDF000607008EB800097ED000AD0ED000A491C36
:10CE0000802900EEA80A87ED000AE8DB802C12DA00
:10CE100008EB8400D7ED000A90ED000A30EE600ABE
:10CE200020EE290AFEF744FD20EE2C0A03A800EBB1
:10CE3000840080ED000AD7ED000A9FED481A641CBB
:10CE4000B44280EE810A30EE099AC5DB8B98016806
:10CE50008A98D0F8FC0D084400EBD070471040A031
:10CE6000FDF7D8FB4AA0FDF7D5FB0024DFED558A7E
:10CE700004EBE7167F2E00DD803EF5F71BFF00EE8A
:10CE8000100AC4EBC4010AEB8100B8EEC00AD0ED71
:10CE9000000A8998324670EEC90A214620EE200A1F
:10CEA000C0EE280ABDEEE00A10EE103A40F8263037
:10CEB00045A0FDF7AFFB0120F6F7BEFE641C802CF9
:10CEC000D6DB8998FDF79EFB1D4880221430899996
:10CED000F3F7CFF918EE100AF3F719FB41EC100B3A
:10CEE0003EA053EC102BFDF795FB01F0BBFC504628
:10CEF00000F044FE404600F041FE484600F03EFE91
:10CF0000284600F03BFE899800F038FE8B9800F030
:10CF100035FE8A9800F032FE0DF50D7DBDEC0C8BD0
:10CF2000BDE8FC8F256409252E34660920202025C4
:10CF30002E3466092020202025640D0A0000000000
:10CF4000340E0020341800200000E044000000608F
:10CF5000FB211940340D00200000003C000060441B
:10CF60000A0D20456E636F646572206E6F6E2D6CC6
:10CF7000696E65617269747920636F6D70656E7337
:10CF80006174696F6E207461626C650D0A00000047
:10CF90002053616D706C65204E756D626572203A2C
:10CFA000204C6F6F6B757020496E646578203A2055
:10CFB0004C6F6F6B75702056616C75650A0D0A0DAC
:10CFC00000000000DB0FC9402564092020202564F3
:10CFD000092020202564200D0A0000000A0D456E5E
:10CFE000636F64657220456C656374726963616C1C
:10CFF000204F666673657420287261642920256657
:10D000000D0A00007CB5164C2068A188ADF804100C
:10D01000019900F0D4F9134D012220212846F7F799
:10D0200086F81149114801F037F90F490F48FFF709
:10D03000A1FB002220212846F7F779F8C820F6F74F
:10D04000FBFD0BA0FDF7E6FA2068A188ADF80410FF
:10D05000019900F0A5F91549002008617CBD000088
:10D06000200000200004004834120020500A002054
:10D070000A0D2043616C6962726174696F6E20638E
:10D080006F6D706C6574652E20205072657373200F
:10D09000276573632720746F2072657475726E2024
:10D0A000746F206D656E750A0D0000000000002091
:10D0B00070B504462DED048BB0EE409AD0F8A40074
:10D0C000854D401CC4F8A400DFED840A6168D4F8E3
:10D0D00090002268091AD4F88C0000EE101A101A79
:10D0E00001EE100AB8EEC00A2B68B8EEC11A20EEA5
:10D0F000200A61EE200A84ED030A43B1B1EE400A32
:10D10000C4ED040A30EE600A84ED050A07E0B1EED2
:10D11000400AC4ED050A30EE600A84ED040A04F109
:10D120000C0094ED0A0A04F14401D0EC030A3430F7
:10D1300000F0E6F894ED120ADFED690A60EE201ABD
:10D1400094ED110A9FED671A674840EE011AC4ED8D
:10D15000121AD4ED131A61EEA01AD4ED100A40EEA3
:10D16000811AC4ED131A94ED251A31EE608AD4EDBC
:10D17000260A70EEC08A94ED210A30EE080A84ED8A
:10D18000210A94ED220A30EE280A84ED220A90ED5D
:10D19000020ADFED560A20EE200ADFED550A60EEA6
:10D1A000200A9FED541A04F18801081F81EE200A1D
:10D1B00000F05EFD94ED1E0AD4ED210A04F1540145
:10D1C000081F20EE200AD4ED1C0A00EE880A84ED28
:10D1D000140A94ED1F0AD4ED220A20EE200AD4EDA1
:10D1E0001D0A00EEA80A84ED150A94ED060A00F067
:10D1F0003FFD04F16C02111F94ED151AD4ED140AD1
:10D2000094ED0A0A081FFFF76FFA04F16400021F89
:10D21000D0EC030A111F94ED060A0C3801F0E4FB70
:10D22000354836492D680A1F0068131F002DC56A4E
:10D23000F7EE000A00EE105AB8EE400A12D094ED54
:10D24000181A30EEC11A20EE010ABCEEC00A10EE28
:10D25000105A0D60C16A94ED171A00EE101AB8EE5C
:10D26000400A11E094ED171A30EEC11A20EE010ABF
:10D27000BCEEC00A10EE105A0D60C16A94ED181A87
:10D2800000EE101AB8EE400A30EEC11A20EE010A84
:10D29000BCEEC00A10EE101A1160C06A94ED161AA6
:10D2A00000EE100A70EEC10AB8EE400A20EE200A25
:10D2B000BCEEC00A10EE100A186084ED0A9AD4F889
:10D2C000A40049F64041884202DD0020C4F8A400D1
:10D2D000BDEC048B70BD0000340E0020FFFFA4BC29
:10D2E0003333733FCDCC4C3D340D0020E02D903ACC
:10D2F00077BE1F3D00003442341800203C2C014012
:10D3000070B50C462DED068B0546F0EE618AB0EE49
:10D31000419AF0EE609AB0EE40AAF5F799FCB0EEB3
:10D32000402AB0EE4A0AB0EE428AF5F799FCDFEDEA
:10D33000170AF6EE002ADFED161A20EE201A68EE24
:10D34000200A08EE621A40EE620A21EE093A20EE47
:10D35000211A08EE293A08EE621A01EE283A9FEDEA
:10D360000D1A23EE012A85ED002A28EE212A60EE0F
:10D37000691A00EE622A42EE491A40EEE81A21EEDE
:10D38000810A84ED000ABDEC068B70BDD7B35D3F0A
:10D39000D7B35DBFABAA2A3F1C23062200F0BAB860
:10D3A00070B504460D46022200F018F840F0040360
:10D3B00029462046BDE87040022200F0ABB870B5A7
:10D3C00004460D46022200F009F820F00403294625
:10D3D0002046BDE87040022200F09CB807B54FF42B
:10D3E000004040EAC22081B2684600F001F80EBD5C
:10D3F00038B5018004464FF09045002210212846A0
:10D40000F6F795FE642000900123A21C21460848EF
:10D41000F7F758FD064800BF90F85D100229FBD0D1
:10D42000012210212846F6F782FE608838BD0000F0
:10D43000081700202DE9FF410DF12808920298E815
:10D44000F01042EA432242EA042242EA8512DDE970
:10D450000F1042EA461242EA071242EACC0242EABE
:10D460008101014388B240F440516846FFF7C0FF94
:10D47000BDE8FF812DE9FF410DF12808520298E82F
:10D48000F01042EA032242EAC41242EA4512DDE900
:10D490000F1042EA061242EAC70242EA8C0242EA4E
:10D4A0004101014388B240F480516846FFF7A0FF74
:10D4B000BDE8FF811FB51102069841EA031101433F
:10D4C00088B240F4C0516846FFF792FF1FBD1FB5F8
:10D4D0009202DDE9061042EA032242EA0111014309
:10D4E00088B240F400516846FFF782FF1FBD1FB5A8
:10D4F0009202DDE90710069C42EA032242EA841206
:10D5000042EA0111014388B240F420516846FFF716
:10D510006FFF1FBD1FB543EAC22081B26846FFF707
:10D5200067FF1FBD1CB5204908688988ADF8041045
:10D530000199FFF735FF1DA0FDF76CF81DA0FDF761
:10D5400069F80A20F6F782FB1EA0FDF763F80A20AF
:10D55000F6F77CFB20A0FDF75DF80A20F6F776FBD6
:10D5600024A0FDF757F80A20F6F770FB25A0FDF779
:10D5700051F80A20F6F76AFB28A0FDF74BF80A20BD
:10D58000F6F764FB2CA0FDF745F80A20F6F75EFBE2
:10D590002F490020086102B00246BDE8104010216A
:10D5A0002C48F6F7C4BD0000200000200A0D0A0D2B
:10D5B0000A0D000020436F6D6D616E64733A0A0DB1
:10D5C00000000000206D202D204D6F746F72204DE3
:10D5D0006F64650A0D0000002063202D2043616CFC
:10D5E00069627261746520456E636F6465720A0DCD
:10D5F000000000002073202D2053657475700A0D03
:10D60000000000002065202D20446973706C617952
:10D6100020456E636F6465720A0D0000207A202D2C
:10D6200020536574205A65726F20506F7369746956
:10D630006F6E0A0D0000000020657363202D2045E9
:10D6400078697420746F204D656E750A0D000000B6
:10D6500000000020000400487FB53BA0FCF7DAFF83
:10D660000A20F6F7F3FA40A143A0CDE9000143A355
:10D6700043A246A147A0FCF7CDFF0A20F6F7E6FA41
:10D680004C4CA068F2F743FFCDE902014AA000909C
:10D690004BA34CA251A152A0FCF7BCFF0A20F6F705
:10D6A000D5FA574D57A058A3696858A2CDE9000193
:10D6B00058A159A0FCF7AEFF0A20F6F7C7FAA968EF
:10D6C00050A0CDE9000150A35BA25FA152A0FCF7DE
:10D6D000A1FF0A20F6F7BAFAE068F2F718FFCDE9E1
:10D6E00002015AA000905BA35BA260A13CA0FCF7E2
:10D6F00091FF0A20F6F7AAFAA069F2F708FFCDE930
:10D7000002015BA0009053A35BA261A134A0FCF7CF
:10D7100081FF0A20F6F79AFAE9685EA0CDE90001D8
:10D7200039A35EA265A166A0FCF774FF0A20F6F794
:10D730008DFA6A48FCF76EFF0A20F6F787FA684907
:10D74000002008617FBD00000A0D0A0D20436F6EA6
:10D7500066696775726174696F6E204F7074696F66
:10D760006E73200A0D0A0A0063757272656E74206A
:10D7700076616C75650000006D6178006D696E0002
:10D78000706172616D65746572000000707265662B
:10D790006978000020252D347320252D3331732026
:10D7A000252D357320252D367320252D32730A0D36
:10D7B0000A0D0000340D002032303030000000002F
:10D7C0003130300043757272656E742042616E6450
:10D7D00077696474682028487A2900006200000094
:10D7E00020252D347320252D33317320252D3573BD
:10D7F00020252D367320252E31660A0D00000000ED
:10D80000340E0020313237003000000043414E20FA
:10D81000494400006900000020252D347320252D87
:10D8200033317320252D357320252D367320252D7A
:10D8300035690A0D0000000043414E204D617374AC
:10D8400065722049440000006D00000034302E3025
:10D8500000000000302E300043757272656E742037
:10D860004C696D6974202841290000006C0000009B
:10D8700033332E3000000000465720437572726526
:10D880006E74204C696D69742028412900000000E5
:10D8900066000000313030303030000043414E200F
:10D8A00054696D656F757420286379636C6573299D
:10D8B0002830203D206E6F6E652900007400000046
:10D8C00020252D347320252D33317320252D3573DC
:10D8D00020252D36732025640A0D00005001010813
:10D8E000000000207CB5124908688988ADF8041052
:10D8F0000199FFF764FD0F4C00252046C4F8B05095
:10D9000000F02AFF0120F6F797F99FED0B0A01229C
:10D9100084ED250A84ED260A10210848F6F707FC55
:10D9200007480561BDE87C4006A0FCF773BE000017
:10D9300020000020341200200000000000040048F5
:10D94000000000200A0D20456E746572696E672024
:10D950004D6F746F72204D6F6465200A0D000000DA
:10D9600000B585B000200190022002907B2003903A
:10D9700005200490694601A8F6F782F902A0FCF799
:10D9800049FE009805B000BD4C656176696E672060
:10D99000657261736520666C6173682E000000001B
:10D9A0007CB50446806B3B49884205DDD4F8D00045
:10D9B00040F00100C4F8D0003749E06B884205DD33
:10D9C000D4F8D00040F00200C4F8D00094ED030A6F
:10D9D0003248F0EEC00A90ED030AF4EEC00AF1EE10
:10D9E00010FA14DCD4ED040AF0EEE00AF4EEC00AFA
:10D9F000F1EE10FA0BDCD4ED050AF0EEE00AF4EEDD
:10DA0000C00AF1EE10FA02DCD4F8D00005E0D4F838
:10DA1000D00040F00400C4F8D000214D002830D0E0
:10DA20002049086800908988ADF804100199FFF733
:10DA3000B7FC94F8D0001C4E800714D0E868642826
:10DA400003D110213046F6F76AFB94F8D000800726
:10DA500002D516A0FCF7DEFD94F8D000C00702D076
:10DA600019A0FCF7D7FD94F8D000400709D5E86865
:10DA7000C82803D120213046F6F751FB19A0FCF746
:10DA8000C9FDE868B0F57A6F01DB0020E860401C52
:10DA9000E8607CBD0000F0420000C842340D002068
:10DAA00000000020200000200004004844525620BE
:10DAB0006F7665722D74656D7065726174757265CF
:10DAC00021210D0A000000004D4F544F52206F7667
:10DAD00065722D74656D7065726174757265212152
:10DAE0000D0A00006F76657263757272656E74213F
:10DAF000210D0A0082B0CDE9000121F00040019023
:10DB00009DED000B02B051EC100B7047B4EEE00A33
:10DB1000F1EE10FA07DDB4EEC10AF1EE10FA01DC05
:10DB2000B0EE410A7047F4EEC10AF1EE10FAF7DDEB
:10DB3000B0EE600A7047B4EEE00AF1EE10FA07D2D8
:10DB4000B4EEC10AF1EE10FA01D3B0EE410A70470B
:10DB5000F4EEC10AF1EE10FAF7D2B0EE600A7047A7
:10DB600038B504468DF800000223012269460248B8
:10DB7000F8F7ECFA204638BD6419002010B50028EB
:10DB800021D0114B0022001F196803E0814203D805
:10DB90000A4649680029F9D152B11368841A9C4297
:10DBA00004D1006818441060104602E0506000E0A4
:10DBB000186039B102680B1A934203D10B681A44FA
:10DBC00002604968416010BD440A00201C499FED75
:10DBD0001D0ADFED1F1AD1ED020A20EE801ADFEDDB
:10DBE0001A0A21EE201A80ED1E1A91ED021A21EE7A
:10DBF000001A61EE200AC0ED1F0AD1ED020A60EEA4
:10DC0000800AC0ED1C0AD1ED020A20EE800ADFED89
:10DC10000F0A80ED1D0A91ED020A20EE200AF0EEB7
:10DC2000000A20EE201AB7EE000AF0EE400A41EE9C
:10DC3000610A80EE201A30EE410A80ED200A70471A
:10DC4000340D0020E02D903A77BE1F3D17B7D13735
:10DC5000DB0F494000B5B0EE401A90ED000AFCF72A
:10DC60008FFDF0EE410AFCF783FD80ED000A00BD58
:10DC700000B5F0EE401A90ED000A0A46034660EE49
:10DC8000000A91ED000A40EE000AB0EE600AF4F7D7
:10DC900071F8B4EEE10AF1EE10FA0FDDD3ED000AEF
:10DCA00060EEA10A80EE801A83ED001AD2ED000A20
:10DCB00060EEA10A80EE801A82ED001A00BD00001D
:10DCC00010B5164C164B002204EB8201D1E900017D
:10DCD00000EE100A03EB820000EE901A921C80EC1A
:10DCE000020A402AF0DB0F4B0F49002003EB8002B1
:10DCF00092EC020AB8EEC00AF8EEE00ABDEEC00AE5
:10DD000010EE102ABDEEE00A41F8202001EB80025F
:10DD1000801C82ED010AFF28E8DD10BD00D807084D
:10DD2000340D002000D90708340E00202DE9F047FB
:10DD30002DED028BADF50A7DF6F70CFAFBF7DEFA56
:10DD4000F8F7D4FFF8F78CFEF9F76AF8F9F7B8F8A6
:10DD5000F9F7DEF8F9F710FAF9F7EAF9F8F71AFF28
:10DD6000F8F7D0FEF9F784F8F9F7ACF9F9F75CF9B0
:10DD7000F8F764FF0024DFF89CA3E74A07219FED32
:10DD8000E78A4FF48040CAF8AC40B0EE480AFAF790
:10DD900081F80120F5F75AFF7F21E148F5F79EF859
:10DDA0007F21E048F5F79AF87F21DF48F5F796F8EC
:10DDB0007F21DE48F5F792F8D948F5F79BFBD94863
:10DDC000F5F798FBD848F5F795FBD848F5F792FB9F
:10DDD0000120F5F71FFFD648F7F7AAFBD548F7F75C
:10DDE000A7FBD54D002208212846F6F7A0F901200F
:10DDF000F5F710FF012210214FF09040F6F797F948
:10DE0000012208212846F6F792F90120F5F702FFD2
:10DE1000CA4E30680090B188ADF804100199FFF740
:10DE2000BBFA0120F5F7F6FE0125CDE90345CDE962
:10DE3000054500940194029430688790B188ADF84C
:10DE400020122B4600228899FFF714FB0120F5F7DA
:10DE5000E1FE4FF00209CDE900490327039504953F
:10DE60000294CDE9055730688790B188ADF820124B
:10DE7000012300228899FFF7DDFA0120F5F7CAFE99
:10DE80000AF19001081F00F079FF4FF00408CDF867
:10DE9000008030680190B188ADF808104346032235
:10DEA0000299FFF707FB0120F5F7B4FECDF80080DB
:10DEB000CDF8048030680290B188ADF80C100123D1
:10DEC0001A460399FFF703FB0120F5F7A3FE012093
:10DED000F5F7A0FE03940494CDE90547CDE9004988
:10DEE000029430688790B188ADF820120123002297
:10DEF0008899FFF79FFA0120F5F78CFE0F20009517
:10DF0000CDE9017030680390B188ADF8101003239B
:10DF100000220499FFF7EBFA0120F5F77BFE50464B
:10DF200000F01AFC0120F5F775FE00218048F7F794
:10DF3000EDFD04217E48F7F7E9FD08217C48F7F75D
:10DF4000E5FD00217A48F7F7CBF904217848F7F787
:10DF5000C7F908217648F7F7C3F9FFF7B1FEAAF52C
:10DF6000A066306820F00040C0F1FF40002801D5D5
:10DF700086ED008A706820F00040C0F1FF40002864
:10DF800001D586ED018AB068FCF77FFB6C4F50B974
:10DF900096ED020A10EE100AB84204D0B5EEC00A9F
:10DFA000F1EE10FA03D19FED670A86ED020AF068E0
:10DFB000FCF76BFB50B996ED030A10EE100AB8425D
:10DFC00004D0B5EEC00AF1EE10FA03D1B3EE0E0A9A
:10DFD00086ED030AB069FCF758FB10B9B069B84286
:10DFE00001D186ED068A5848416800EE101AB8EE55
:10DFF000C00A10EE102A22F00042C2F1FF42002AAD
:10E0000001D4491C00D14560816800EE101AB8EEB9
:10E01000C00A10EE102A22F00042C2F1FF42002A8C
:10E0200001D4491C00D18460C16800EE101AB8EE1A
:10E03000C00A10EE102A22F00042C2F1FF42002A6C
:10E0400001D4491C00D1C46096ED000AFAF76EFEB7
:10E0500096ED010AFAF770FE4FF4007107A8F2F787
:10E0600021F939498022143107A8F2F702F907A8EB
:10E07000FCF7C8FA2748FFF7A9FD0A20F5F7CAFD03
:10E0800032A0FCF7C7FA36A136A0FCF7C3FADAE9EA
:10E0900023123AA0FCF7BEFA3068F2F738FA41ECE6
:10E0A000100B40A053EC102BFCF7B4FA7068F2F799
:10E0B0002EFA41EC100B47A053EC102BFCF7AAFAF8
:10E0C0009FED4C0B4DA053EC102BFCF7A3FA5148DD
:10E0D0000560012250495148F8F700F8F8F796F921
:10E0E000F9F788F8F4F7D4F84D494E48F3F786FA73
:10E0F0004D4C2570F9F78EF820780128FAD0F3F707
:10E10000EFFFF8F7B7F90DF50A7D0020BDEC028BA3
:10E11000BDE8F08734120020500A00200000000003
:10E1200058150020C4150020301600209C16002031
:10E13000341800208018002000080048200000202B
:10E14000000080BF00007A44340E00200A0D2044F5
:10E150006562756720496E666F3A0A0D000000001F
:10E16000312E3000204669726D77617265205665E8
:10E170007273696F6E3A2025730A0D002041444383
:10E1800031204F66667365743A2025642020202074
:10E1900041444332204F66667365743A2025640A11
:10E1A0000D00000020506F736974696F6E20536515
:10E1B0006E736F7220456C656374726963616C2065
:10E1C0004F66667365743A202020252E34660A0D4A
:10E1D00000000000204F7574707574205A65726FCE
:10E1E00020506F736974696F6E3A2020252E346653
:10E1F0000A0D000000000000000028402047656173
:10E200007220726174696F3A2020252E31660A0DE2
:10E210000A0D0000100000203000002064190020CA
:10E22000B2090020B00900207C090020F0B50B30B5
:10E23000154D20F007010024144A0FE003688B42BB
:10E240000BD38B4205D95E1A43184768C3E90067B0
:10E2500000E04368136002C004E0021D106800285B
:10E26000ECD12046002802D1286808B10020F0BD7A
:10E27000064A07481060074A121A22F00702C0E94E
:10E28000002401202860D7E7480A0020440A002023
:10E29000641F0020601F01202DE9F04F2DED0A8B37
:10E2A00083468BB00C46CDA0FCF7B4F99FEDD31A92
:10E2B000B0EE418A9FEDD2BA8DED041AB6EE000A97
:10E2C0008DED070AF0EE419A002504AA06A905A8DB
:10E2D000F0EE4B0AB0EE480AFEF706FA07AA09A9C3
:10E2E00008A8DDED041A9DED061ADDED050AB7EE6E
:10E2F000000A00F079FBC34F002644F62068F7EED1
:10E30000008A3968BA46CA6ADDED080A520800EE8A
:10E31000102A78EEE00AB8EE400A20EE200ABCEEA1
:10E32000C00A10EE102A4A633968CA6ADDED090A8C
:10E33000520800EE102A78EEE00AB8EE400A20EE0D
:10E34000200ABCEEC00A10EE102A8A63DAF8000038
:10E35000C16ADDED070A490800EE101A78EEE00AFE
:10E36000B8EE400A20EE200ABCEEC00A10EE101AE9
:10E37000C1636420F5F76AFC761C4645C1DB58464C
:10E38000DFEDA1BAB0EE6B0AFAF7ACF90120F5F7B0
:10E3900053FCD4F890106068401A00EE100AF8EEB2
:10E3A000C00A9FED9A0A60EE800AC4ED030A216854
:10E3B000D4F88C00081A01EE100A04F14401081F79
:10E3C000B8EEC11A21EE001AB1EE600A84ED041A0B
:10E3D00070EE411AC4ED051A94ED0A0AFEF790FF9B
:10E3E000606CF2F794F841EC100B9FED89CBB0EE26
:10E3F0004C1AF0EE6C1AFCF733FCB0EE40AAF0EECB
:10E4000060AA206CF2F783F841EC100BB0EE4C1AC6
:10E41000F0EE6C1AFCF724FCB0EE401AF0EE601A35
:10E4200053EC1A2B51EC110BF1F75BFF41EC100B85
:10E43000FDF706FB51EC100BF2F77CF8064676A0D0
:10E44000FCF7E8F83046F2F762F880468946606CDF
:10E45000F2F75DF806460F46206CF2F758F88DE8A3
:10E46000C00341EC100B6FA053EC102BFCF7D2F85B
:10E47000DFF8C48154469FED71AA04AA06A905A835
:10E48000B0EE691AF0EE4B0AB0EE480AFEF72CF92E
:10E4900007AA09A908A8DDED041A9DED061ADDED0D
:10E4A000050AB7EE000A00F09FFA6420F5F7CEFBEC
:10E4B0002068C16ADDED080A490800EE101A78EEFE
:10E4C000E00AB8EE400A20EE200ABCEEC00A10EEC8
:10E4D000101A41632068C16ADDED090A490800EE9F
:10E4E000101A78EEE00AB8EE400A20EE200ABCEEE0
:10E4F000C00A10EE101A81632068C16ADDED070AB8
:10E50000490800EE101A78EEE00AB8EE400A20EE54
:10E51000200ABCEEC00A10EE101AC1635846B0EED5
:10E520006B0AFAF7DFF8F4F7DDFBB5EEC08AF1EE1F
:10E5300010FA01D1B0EE409AC82D17DD002510EE7B
:10E54000100AF1F7E4FFF1EE0C0A064688EE200A05
:10E550000F4610EE100AF1F7DAFF41EC100B38A06D
:10E5600053EC102BCDE90067FCF754F838EE0A8A1B
:10E570006D1C18EE100A4045FFF67FAFF4F7B2FBB2
:10E5800070EE490AF5EEC00AF1EE10FA01DD012441
:10E5900000E0002410EE100AF1F7B9FF05460E4620
:10E5A00019EE100AF1F7B3FF41EC100BCDE900565C
:10E5B00053EC102B26A0FCF72DF821462EA0FCF7DB
:10E5C00029F80CB131A000E035A0FCF723F8404851
:10E5D00004600BB0BDEC0A8BBDE8F08F0A0D204340
:10E5E0006865636B696E67207068617365206F7220
:10E5F000646572696E670A0D00000000000000008B
:10E60000CDCCCC3D3418002017B7D137FFFFA4BCC8
:10E6100000000000000000400A0D43757272656E34
:10E62000740A0D0025660920202020256609202077
:10E630002025660D0A000000DB0F49416F12833A66
:10E64000252E346609202020252E34660D0A000070
:10E6500054686574612053746172743A20202025D7
:10E660006620202020546865746120456E643A203D
:10E670002025660A0D000000446972656374696FA5
:10E680006E3A202025640A0D000000005068617376
:10E69000696E6720636F72726563740A0D00000013
:10E6A00050686173696E6720696E636F727265632B
:10E6B000742E20205377617070696E6720706861D6
:10E6C000736573205620616E6420570A0D000000A8
:10E6D000340E0020FEB5F4F729FB0646F4F7F0FAF5
:10E6E00010EE100AF1F713FF0D460446F4F7F4FAA2
:10E6F00010EE100AF1F70BFF41EC100B8DE87000E3
:10E7000053EC102B03A0FBF785FFBDE8FE40012072
:10E71000F5F792BA204D656368616E6963616C209C
:10E72000416E676C653A2020256620202020456CCC
:10E73000656374726963616C20416E676C653A2031
:10E74000202566202020205261773A202025640A67
:10E750000D000000FFF704BA1F490A68D36A00EEF3
:10E76000103AF8EE400AB6EE000A60EE800AFCEEBF
:10E77000E00A10EE903AD3630A68D36A00EE903A4A
:10E78000F8EE600A60EE800AFCEEE00A10EE903AC5
:10E7900053630968CA6A00EE902AF8EE600A20EE18
:10E7A000800ABCEEC00A10EE102A8A639FED0B0AA5
:10E7B00080ED250A80ED260A80ED100A80ED110A11
:10E7C00080ED120A80ED220A80ED210A80ED150A03
:10E7D00080ED140A7047000034180020000000008B
:10E7E00070B51D4CA068062829D2DFE800F0030AA6
:10E7F000112829302069002821D0BDE87040FEF79B
:10E8000091BE206900281AD0BDE87040FEF7FABB1F
:10E81000206918B1FFF766F800200FE00F4800F0FC
:10E8200045F90E4D0E49284695ED0A0A2C35FEF79E
:10E830003FFCE86F401CE8676068401C606070BD8A
:10E8400020690028FBD0BDE87040FEF705BFBDE899
:10E850007040FFF73FBF000000000020341200208E
:10E860000815002070B5F5F7E7FA08B1012070BD72
:10E87000F5F790FA08B1022070BDFFF771F8401C5F
:10E8800001D0032070BD20494CF2FA3008614FF4EA
:10E890007A70F4F7ADF908B1052070BD1B4D1C4E20
:10E8A000002400BF05EB840006EB8401D0E90023BF
:10E8B0000020F5F783FA28B1214616A0FBF7AAFE3F
:10E8C000062070BDA41C402CECDB1B4D1B4E00240D
:10E8D00005EB840006EB8401D0E900230020F5F766
:10E8E0006DFA28B1214616A0FBF794FE072070BDF3
:10E8F000A41CFF2CECDDF5F731FAF5F73DFA19A071
:10E90000FBF788FE002070BD00200240340D00207F
:10E9100000D8070853617665546F466C61736820B0
:10E920006661696C2077726974696E6720666C6FC6
:10E930006174202325640000340E002000D90708EC
:10E9400053617665546F466C617368206661696CCB
:10E950002077726974696E6720696E74202325645C
:10E960000000000053617665546F466C6173682047
:10E97000416C6C204F6B0A0000B52DED048B83B009
:10E9800041EC190BF1F7DDFF41EC180B18EE100A02
:10E9900018EE901A8DED008B002818BF0120084357
:10E9A00020F00040C0F17F6000F1E040C00F14D0C3
:10E9B00019EE101A19EE900A8DED009B002918BF70
:10E9C0000121084320F00040C0F17F6000F1E040E9
:10E9D000C00F04BF0120FDF71FFA51EC180B03B064
:10E9E000BDEC048B00BD000070B514462DED088B06
:10E9F000F0EE619AB0EE41AAF0EE60AAB0EE408A65
:10EA00000D460646B0EE691AF0EE4A0AB0EE6A0A02
:10EA1000FFF791F8F0EE408AB0EE691AF0EE4A0A7C
:10EA2000B0EE6A0AFFF772F838EE800AF6EE008A56
:10EA300020EE289A7AEEC90ADFED1AAA80EE880A3B
:10EA4000F0EE6A0A30EE280AFBF792FE9FED16BA46
:10EA5000F0EE4B0AFBF794FE7AEE490A86ED000AC7
:10EA600080EE880AF0EE6A0A30EE280AFBF780FE94
:10EA7000F0EE4B0AFBF784FE85ED000A39EEC90A79
:10EA8000C0EE080A30EEA80AF0EE6A0AFBF770FE44
:10EA9000F0EE4B0AFBF774FE84ED000ABDEC088B28
:10EAA00070BD0000CDCC4C3D3333733F90ED2D0A4B
:10EAB00090ED091AD0ED0B1ADFED130A30EE410A82
:10EAC00090ED2F1A20EE010A90ED2E1A31EE611A08
:10EAD000D0ED301A01EE810A90ED311AF2EE081AEB
:10EAE00030EE011A81EE210A9FED081A20EE010A8C
:10EAF00080ED260AC0ED250AF3EE0C0ABBEE0C0AE7
:10EB00009830FFF7A7B80000000000007B145641C2
:10EB10002DE9F0477848DFF8E48101262DED028BDE
:10EB200000250078A8F114041B2809D1A5602661EE
:10EB300065702570002142465554491C0829FBDBAD
:10EB4000A1689FED6F8A6F4F99B1A16804294CD0DD
:10EB5000A16805297DD0A168022906D1642804D1C5
:10EB6000694880ED268A80ED258ABDEC028BBDE8E0
:10EB7000F0876D2832D005DC63282DD06528F4D1CC
:10EB8000052030E073282DD07A28EED1B0EE480A67
:10EB9000FAF7D2F85D489FED5E0AF9F7A3FD14205D
:10EBA000F5F754F8F4F798F887ED010AFFF75AFEE5
:10EBB000FFF786F897ED010AFAF7BEF87868F1F7E3
:10EBC000A6FCBDEC028B41EC100BBDE8F04753EC0A
:10EBD000102B50A0FBF71EBDA66001E0022002E052
:10EBE0002661C2E70420A060FAE70D280CD0617806
:10EBF00000297BD0414401F8010C5049FFF7AAFDE0
:10EC00006078401C6070B0E7A14621784C4C6C29BC
:10EC10003ED006DC62291DD066294DD0692904D179
:10EC20002CE06D292FD074295BD046A0FBF7F2FCB5
:10EC3000FFF718FEFFF744F8C9F8106089F8015093
:10EC400089F80050002041460D54401C0828FBDB89
:10EC50008BE74DE02948FBF76FFD51EC100BF1F706
:10EC600069FC00EE100ADFED410AFBF789FDDFEDDC
:10EC7000400AFBF77DFD87ED020AD9E71F48F1F74F
:10EC800023FB6060D4E71D48F1F71EFBA060CFE7CF
:10EC90001A48FBF751FD51EC100BF1F74BFC00EE5D
:10ECA000100ADFED340AFBF76BFDF0EE480AFBF7C4
:10ECB0005FFD87ED030ABBE71048FBF73DFD51EC14
:10ECC000100BF1F737FC00EE100ADFED2B0AFBF713
:10ECD00057FDF0EE480AFBF74BFD87ED060AA7E764
:10ECE00004E00648F1F7F0FAE060A1E7207084E75D
:10ECF0001B2888D1A56073E7300000201400002095
:10ED000000000000340D002034120020500A0020C2
:10ED100017B7D1370A0D20205361766564206E65E0
:10ED200077207A65726F20706F736974696F6E3ABD
:10ED30002020252E34660A0D0A0D0000400A00200E
:10ED4000340E00200A0D2027256327204E6F7420E3
:10ED5000612076616C696420636F6D6D616E642003
:10ED60007072656669780A0D0A0D00000000FA44A9
:10ED70000000C84200002042000004422DE9F04794
:10ED800000262DED028B8A46DFF89C8081463546B1
:10ED90004FF480673446B6EE008A00BFD8F8001002
:10EDA000CA6A00EE102AB8EE400A20EE080ABCEE4D
:10EDB000C00A10EE102A4A63D8F80010CA6A00EEA2
:10EDC000102AB8EE400A20EE080ABCEEC00A10EE87
:10EDD000102A8A63D8F80000C16A00EE101AB8EE53
:10EDE000400A20EE080ABCEEC00A10EE101AC163F9
:10EDF0000120F4F72BFF09210C48F4F763FB0544CD
:10EE000009210B48F4F75EFB641C0644BC42C5DBD9
:10EE100096FBF7F1C9F8001095FBF7F1CAF800105E
:10EE2000BDEC028BBDE8F08734180020C41500202B
:10EE300058150020000000002975493CDF6EC93CD0
:10EE40006F0E173D3160493D8FA97B3D38F4963DEB
:10EE50006B0EB03D4721C93D5E2EE23DEC2FFB3DE0
:10EE60007F130A3E698C163E76FD223EA5662F3E34
:10EE700097CA3B3E4A29483E807D543EDAC9603EEF
:10EE8000560E6D3EF54A793E3CBD823E0FD1883E1E
:10EE9000A4DF8E3EFBE8943EC4EB9A3EFFE7A03E23
:10EEA000FCDEA63E6CCFAC3E4EB9B23EA29CB83E54
:10EEB0001878BE3EB24BC43EBD18CA3EECDDCF3E14
:10EEC000ED99D53E614FDB3E59FAE03EC39EE63EEA
:10EED000B038EC3E71C9F13E5452F73EBBD0FC3E17
:10EEE0005322013FB2D7033FD387063FB532093FD4
:10EEF0005AD80B3FC0780E3F4013113F82A8133FF2
:10EF0000DF37163F55C1183FE5441B3F8FC21D3FF9
:10EF1000543A203F8AAB223FDB16253F9E7B273F9A
:10EF2000D3D9293F7B312C3FED812E3F79CC303F27
:10EF3000D00F333FF14B353F8481373FE2AF393F4C
:10EF40000AD73B3FFDF63D3F130F403F9B20423F1A
:10EF50009E29443F132C463F0326483FBD184A3F95
:10EF60009B034C3FF3E54D3F16C14F3FB493513FD8
:10EF7000745E533F5721553F0EDB563F8F8D583FF0
:10EF8000E3365A3FB2D75B3FA4705D3F69005F3FF5
:10EF90005188603F0C07623F9A7C633FA3E9643F5E
:10EFA000274E663F7EA9673F50FC683F4E456A3F4B
:10EFB000C6856B3F12BD6C3F31EB6D3F23106F3F39
:10EFC000412B703FD93D713F9D46723F3546733F9F
:10EFD0009F3C743F3529753F9E0C763F32E6763F65
:10EFE0009AB6773F2C7D783FEB39793F7CED793FBE
:10EFF00039977A3F22377B3F36CD7B3F75597C3F2F
:10F0000087DC7C3F1D557D3F87C47D3F74297E3F53
:10F0100034857E3F77D67E3F8E1E7F3F295C7F3FC3
:10F02000EF8F7F3F88BA7F3FA5DA7F3FEDF07F3FCC
:10F0300061FD7F3F0000803F23F87F3F19E77F3F5E
:10F0400092CB7F3F37A67F3FAF777F3FAB3E7F3F7F
:10F05000D2FB7E3F25AF7E3FA3587E3F4DF87D3FDC
:10F06000228E7D3F221A7D3F4E9C7C3FA5147C3F23
:10F0700027837B3FD5E77A3F57437A3F0395793F14
:10F08000DBDC783FDF1A783FB54F773FB77A763FC2
:10F09000E59B753FE5B3743FB9C2733FB9C7723F93
:10F0A0008BC3713F31B6703F029F6F3FA67E6E3FAC
:10F0B0001D556D3F68226C3F86E66A3F1FA2693F7F
:10F0C000E353683F22FD663F349D653F1A34643F39
:10F0D00022C3623F5648613FACC55F3FD6395E3FB1
:10F0E0007AA55C3F9A085B3F3563593F4AB5573F65
:10F0F00082FF553F8E40543F637A523FB4AB503F3E
:10F1000080D44E3F6FF54C3F280F4B3F5C20493F6A
:10F11000B329473FD42B453F1826433F7E18413F34
:10F12000B0033F3FABE73C3F72C43A3F5B99383F87
:10F13000B667363FDC2E343FCCEE313F2FA82F3F51
:10F140005C5A2D3FFB052B3F0DAB283F9049263FD6
:10F150002EE2233F9773213F19FF1E3FB6841C3FC9
:10F16000C5031A3F957D173FD8F0143FDD5E123F6F
:10F17000FCC60F3F35290D3F2F860A3FECDD073FC8
:10F180006A30053FAA7D023F598BFF3E3012FA3E9E
:10F190008A8EF43E0803EF3E096DE93EDDCDE33E85
:10F1A0008525DE3E4F75D83E3CBDD23EFCFBCC3EB5
:10F1B000DF32C73E3563C13E5D8ABB3E47ACB53EDC
:10F1C00005C5AF3E84D8A93E75E5A33E89EA9D3EBC
:10F1D00060EA973EF7E4913E02D98B3ECEC7853E6A
:10F1E000B7627F3EF52D733EB7EE663EFDA45A3EF4
:10F1F00065534E3EF0F9413E3D9B353E0E32293E71
:10F20000A0C31C3EF44F103E0AD7033EC4B1EE3DEE
:10F21000B9A5D53DA298BC3D1B82A33D49658A3D59
:10F220006685623DD637303DF7C7FB3CC615973C37
:10F230005374C93B5374C9BBC61597BCF7C7FBBC15
:10F24000D63730BD668562BD49658ABD1B82A3BDC8
:10F25000A298BCBDB9A5D5BDC4B1EEBD0AD703BE49
:10F26000F44F10BEA0C31CBE0E3229BE3D9B35BE5E
:10F27000F0F941BE65534EBEFDA45ABEB7EE66BE60
:10F28000F52D73BEB7627FBECEC785BE02D98BBED9
:10F29000F7E491BE60EA97BE89EA9DBE75E5A3BE1C
:10F2A00084D8A9BE05C5AFBE47ACB5BE5D8ABBBE9E
:10F2B0003563C1BEDF32C7BEFCFBCCBE3CBDD2BE97
:10F2C0004F75D8BE8525DEBEDDCDE3BE096DE9BE36
:10F2D0000803EFBE8A8EF4BE3012FABE598BFFBE11
:10F2E000AA7D02BF6A3005BFECDD07BF2F860ABFCB
:10F2F00035290DBFFCC60FBFDD5E12BFD8F014BFAD
:10F30000957D17BFC5031ABFB6841CBF19FF1EBF6A
:10F31000977321BF2EE223BF904926BF0DAB28BFB4
:10F32000FB052BBF5C5A2DBF2FA82FBFCCEE31BFE2
:10F33000DC2E34BFB66736BF5B9938BF72C43ABFA4
:10F34000ABE73CBFB0033FBF7E1841BF182643BFA9
:10F35000D42B45BFB32947BF5C2049BF280F4BBF03
:10F360006FF54CBF80D44EBFB4AB50BF637A52BF71
:10F370008E4054BF82FF55BF4AB557BF356359BF52
:10F380009A085BBF7AA55CBFD6395EBFACC55FBFCC
:10F39000564861BF22C362BF1A3464BF349D65BF43
:10F3A00022FD66BFE35368BF1FA269BF86E66ABF3E
:10F3B00068226CBF1D556DBFA67E6EBF029F6FBFDA
:10F3C00031B670BF8BC371BFB9C772BFB9C273BF4B
:10F3D000E5B374BFE59B75BFB77A76BFB54F77BF0E
:10F3E000DF1A78BFDBDC78BF039579BF57437ABF5C
:10F3F000D5E77ABF27837BBFA5147CBF4E9C7CBF1B
:10F40000221A7DBF228E7DBF4DF87DBFA3587EBFDF
:10F4100025AF7EBFD2FB7EBFAB3E7FBFAF777FBF46
:10F4200037A67FBF92CB7FBF19E77FBF23F87FBF8F
:10F43000000080BF61FD7FBFEDF07FBFA5DA7FBF19
:10F4400088BA7FBFEF8F7FBF295C7FBF8E1E7FBFD3
:10F4500077D67EBF34857EBF74297EBF87C47DBFCB
:10F460001D557DBF87DC7CBF75597CBF36CD7BBF0A
:10F4700022377BBF39977ABF7CED79BFEB3979BFF3
:10F480002C7D78BF9AB677BF32E676BF9E0C76BFEA
:10F49000352975BF9F3C74BF354673BF9D4672BF0B
:10F4A000D93D71BF412B70BF23106FBF31EB6DBFD2
:10F4B00012BD6CBFC6856BBF4E456ABF50FC68BFAE
:10F4C0007EA967BF274E66BFA3E964BF9A7C63BF6E
:10F4D0000C0762BF518860BF69005FBFA4705DBF49
:10F4E000B2D75BBFE3365ABF8F8D58BF0EDB56BF16
:10F4F000572155BF745E53BFB49351BF16C14FBF60
:10F50000F3E54DBF9B034CBFBD184ABF032648BF60
:10F51000132C46BF9E2944BF9B2042BF130F40BF00
:10F52000FDF63DBF0AD73BBFE2AF39BF848137BF8D
:10F53000F14B35BFD00F33BF79CC30BFED812EBF3B
:10F540007B312CBFD3D929BF9E7B27BFDB1625BFBC
:10F550008AAB22BF543A20BF8FC21DBFE5441BBFF8
:10F5600055C118BFDF3716BF82A813BF401311BFA4
:10F57000C0780EBF5AD80BBFB53209BFD38706BFBC
:10F58000B2D703BF532201BFBBD0FCBE5452F7BE5B
:10F5900071C9F1BEB038ECBEC39EE6BE59FAE0BEFA
:10F5A000614FDBBEED99D5BEECDDCFBEBD18CABE46
:10F5B000B24BC4BE1878BEBEA29CB8BE4EB9B2BE95
:10F5C0006CCFACBEFCDEA6BEFFE7A0BEC4EB9ABE0D
:10F5D000FBE894BEA4DF8EBE0FD188BE3CBD82BEC8
:10F5E000F54A79BE560E6DBEDAC960BE807D54BE46
:10F5F0004A2948BE97CA3BBEA5662FBE76FD22BEED
:10F60000698C16BE7F130ABEEC2FFBBD5E2EE2BDD9
:10F610004721C9BD6B0EB0BD38F496BD8FA97BBD27
:10F62000316049BD6F0E17BDDF6EC9BC297549BC7D
:10F6300000000000010002000400060008000A00AB
:10F640000C001000200040008000000101010103B7
:10F650000701000008040204080101010000000085
:10F660000000000001020304060708090000000072
:10F6700001020304050008000F00060010000F003F
:10F68000527850444F2061737369676E005478500C
:10F69000444F2061737369676E000500080007001E
:10F6A00007002000070007002000070007002000D7
:10F6B00007000700200007000700200007000700E0
:10F6C00020000700070020000700070020000700B7
:10F6D0006373702F63737620527850444F00FF009D
:10F6E00005000800070007002000070007002000B1
:10F6F000070063737020527850444F00FF000500EC
:10F70000080007000700200007000700200007008E
:10F7100063737620527850444F00FF0005000800C4
:10F72000070007002000070007002000070007006F
:10F730002000070007002000070007002000070046
:10F740000700200007000700200007000700200036
:10F750000700070020000700070020000700637370
:10F76000702F63737620547850444F00FF000500DB
:10F77000080007000700200007000700200007001E
:10F7800063737020547850444F00FF000500080058
:10F790000700070020000700070020000700637330
:10F7A0007620547850444F00FF00060010000700F8
:10F7B0004572726F7220436F64650000060010008E
:10F7C00087004572726F7220636F646500000600E7
:10F7D000100087004D6F746F7220566F6C746167F4
:10F7E00065000300100087004D6F746F7220546530
:10F7F0006D7065726174757265000300100087009A
:10F800004472697665722054656D706572617475B5
:10F8100072650000060010007F00436F6E74726F07
:10F820006C20576F7264000006001000870053744C
:10F830006174757320576F726400030010003F00FD
:10F84000517569636B73746F70204F7074696F6E5C
:10F8500020436F646500030010003F005368757417
:10F86000646F776E204F7074696F6E20436F6465AC
:10F870000000030010003F0044697361626C652062
:10F880004F7065726174696F6E204F7074696F6E2E
:10F8900020436F646500030010003F004661756CF3
:10F8A00074205265616374696F6E20436F646500F4
:10F8B000020008007F004D6F646573206F66204F63
:10F8C0007065726174696F6E000002000800870045
:10F8D0004D6F646573206F66204F70657261746947
:10F8E0006F6E20446973706C617900000400200021
:10F8F0008700506F736974696F6E2041637475611E
:10F900006C2056616C756500040020008700566508
:10F910006C6F636974792041637475616C20566102
:10F920006C756500040020008700546F7271756566
:10F930002041637475616C2056616C75650004002C
:10F9400020007F0054617267657420506F73697482
:10F95000696F6E00040020007F0054617267657457
:10F960002056656C6F6369747900040020007F0085
:10F9700054617267657420546F727175650006007A
:10F9800010007F004B700000060010007F004B64E9
:10F990000000050008000700040020003F000400EC
:10F9A00020003F00536F66747761726520506F735B
:10F9B0006974696F6E204C696D6974004D696E20C1
:10F9C000706F736974696F6E206C696D6974004D36
:10F9D000617820706F736974696F6E206C696D69EE
:10F9E0007400FF00040020003F00517569636B73D1
:10F9F000746F70204465636C61726174696F6E002E
:10FA0000050008000700050008003F00020008008C
:10FA10003F00496E746572706F6C6174696F6E201F
:10FA200054696D6520506572696F6400496E746534
:10FA300072706F6C6174696F6E20706572696F644B
:10FA40002000496E746572706F6C6174696F6E200E
:10FA5000496E64657800FF000700200007005375B9
:10FA600070706F72746564204472697665204D6FA2
:10FA70006465730005000800070006001000070019
:10FA80000600100007004D6F64756C61722064659C
:10FA9000766963652070726F66696C65004D6F648E
:10FAA000756C6520696E6465782064697374616E35
:10FAB0006365004D6178696D756D206E756D626569
:10FAC00072206F66206D6F64756C657300FF0000B7
:10FAD00005000800070007002000070007002000BD
:10FAE00007004D6F64756C652070726F66696C6598
:10FAF000206C69737400050008000F0007002000E7
:10FB00000F00070020000F00436F6E666967757273
:10FB10006564206D6F64756C65204964656E742042
:10FB20006C697374000005000800070007002000DE
:10FB300007000700200007004D6F64756C652064A6
:10FB400065746563746564206C69737400000700F4
:10FB5000200007004465766963652074797065004C
:10FB60000500080007004572726F722072656769B0
:10FB700073746572000009005000070044657669DF
:10FB80006365206E616D6500090020000700486113
:10FB90007264776172652076657273696F6E0000BA
:10FBA000090020000700536F667477617265207644
:10FBB000657273696F6E000005000800070007009A
:10FBC00020000700070020000700070020000700B2
:10FBD0000700200007004964656E74697479005657
:10FBE000656E646F722049440050726F647563746F
:10FBF00020636F6465005265766973696F6E0053A8
:10FC0000657269616C206E756D62657200FF00003F
:10FC1000050008000700070020003F000600100054
:10FC20003F004572726F722053657474696E67731A
:10FC3000004C6F63616C204572726F722052656177
:10FC40006374696F6E0053796E63204572726F72D0
:10FC500020436F756E746572204C696D697400FF86
:10FC600000000500080007000500080007005379A0
:10FC70006E63206D616E61676572207479706500D6
:10FC8000050008000700060010000F000700200014
:10FC90000700000020000000060010000700070019
:10FCA00020000700070020000700000020000000DF
:10FCB000060010003F00070020000700070020009A
:10FCC0003F000600100007000600100007000000BB
:10FCD00010000000000010000000000020000000E4
:10FCE00000002000000000002000000000002000B4
:10FCF0000000000000000000000000000000000004
:10FD000000000000000000000000000000000000F3
:10FD100000000000000000000000000000000000E3
:10FD200000000000000000000000000000000000D3
:10FD300000000000000000000000000000000000C3
:10FD4000010001000700534D206F75747075742019
:10FD5000706172616D657465720053796E6368726B
:10FD60006F6E697A6174696F6E20547970650043B3
:10FD700079636C652054696D65000053796E636822
:10FD8000726F6E697A6174696F6E205479706573F1
:10FD900020737570706F72746564004D696E696D63
:10FDA000756D204379636C652054696D650043610E
:10FDB0006C6320616E6420436F70792054696D65B7
:10FDC0000000476574204379636C652054696D6554
:10FDD0000044656C61792054696D650053796E63E8
:10FDE00030204379636C652054696D6500534D2D57
:10FDF0004576656E74204D6973736564004379635D
:10FE00006C652054696D6520546F6F20536D616C73
:10FE10006C0053686966742054696D6520546F6F77
:10FE20002053686F727400000000000000000000A2
:10FE300000000000000000000053796E632045724E
:10FE4000726F7200FF00534D20696E7075742070E0
:10FE50006172616D657465720053796E6368726F6B
:10FE60006E697A6174696F6E2054797065004379A8
:10FE7000636C652054696D65000053796E63687228
:10FE80006F6E697A6174696F6E2054797065732042
:10FE9000737570706F72746564004D696E696D750D
:10FEA0006D204379636C652054696D650043616C16
:10FEB0006320616E6420436F70792054696D650022
:10FEC00000476574204379636C652054696D650053
:10FED00044656C61792054696D650053796E6330B7
:10FEE000204379636C652054696D6500534D2D4541
:10FEF00076656E74204D6973736564004379636C35
:10FF0000652054696D6520546F6F20536D616C6C72
:10FF10000053686966742054696D6520546F6F20C2
:10FF200053686F72740000000000000000000000C1
:10FF3000000000000000000053796E6320457272DB
:10FF40006F7200FF000000000100030007000F00B7
:10FF50001F003F007F00FF00FF01FF03FF07FF0FAF
:10FF6000FF1FFF3FFF7F00000000000000000305AF
:10FF70000000040501000405050004050000010659
:10FF8000010001060200010600000206410004060D
:10FF9000420004064300040647000406000006066B
:10FFA00010000706120007061300070611000906D5
:10FFB000300009063100090632000906330009063F
:10FFC0003600090600000008200000082100000893
:10FFD00022000008230000080300010604000106B7
:10FFE00004FA97999999D93FAF788E1DC571CC3F86
:10FFF0009FC678D0099AC33F935555555555E53F4F
:020000040801F1
:10000000599322942449D23FDE03CB966446C73FDE
:1000100044523EDF12F1C23F000000000000F03FFA
:10002000000000000000F83F000000000000000099
:100030000000004003B8E23F0000000000000000A4
:1000400006D0CF43EBFD4C3E033333333333E33F32
:10005000FFAB6FDBB66DDB3F4D268F515555D53F5E
:1000600001411DA96074D13F65DBC9934A86CD3F2C
:10007000EF4E454A287ECA3F3E5555555555C53F1A
:1000800093BDBE166CC166BF2CDE25AF6A56113F0C
:10009000F16BD2C541BDBBBED0A4BE726937663E0E
:1000A0000000000000000000000000006E83F9A2C4
:1000B0002915444ED15727FCC0DD34F5999562DBF4
:1000C0004190433CAB6351FE0040404040404040C3
:1000D000404041414141414040404040404040401B
:1000E00040404040404040404005020202020202BF
:1000F000020202020202020202202020202020200E
:100100002020200202020202020290909090909021
:1001100010101010101010101010101010101010DF
:100120001010101002020202020288888888888853
:10013000080808080808080808080808080808083F
:10014000080808080202020240000000C900010875
:100150000A0D20546F206368616E67652061207608
:10016000616C75652C2074797065202770726566E6
:100170006978272776616C75652727454E54455267
:10018000270A0D20692E652E202762313030302756
:1001900027454E544552270A0D0A0D00BC0101089F
:1001A00000000020500A0000CE0F0008E8040108FB
:1001B000500A00201055010008BE0008013432101A
:1001C000021701F9181B24F4142B02161A4B021AF9
:1001D000209B89132CFB98110C3A08641440602072
:1001E0001A7A041AFF041471601014052010140602
:1001F00020082B6060209A0224890C3CFF600A0CC6
:100200001A410C1A64041A6C041A773C1A073C1A37
:1002100008041A09041A10449A6144492CA90C4193
:10022000291019B201253926146CCA884C943577E7
:1002300010031101FD131621230809139AF61B0858
:10024000D00401181A01281A02281AE0240A19F207
:10025000285A02281AFE240B1810F72811131A2105
:100260001A0A281A1C240A195E281A012829501A69
:100270006E240A1980285A02281A8C240A199E28EA
:10028000243F600622071AAA240A19B0285A4028D7
:100290001314F81B081A0401185A41281A28240AB2
:1002A000192E283C5A6003281A3A240A1940285A61
:1002B0005B281A56240A195C285A5C281A72240AE8
:1002C0001978285A5E281A96240A199C283C6060DE
:1002D00002281AB0240A19B6285A61281ACA240A10
:1002E00019D0283C646004281AEC240A19F2285A10
:1002F0006C281308F91B080E0401185A77C81A2431
:10030000240A192A281A7D501A021E1A92240A1940
:10031000A4285A7A781A3E240A1944285A71281AAD
:100320006A240A1970283C052006281A7E240A1916
:1003300084285A06281A88240A198E285A0728134E
:10034000BCF71B08C20401185A08281ACE240A193F
:10035000D4283C092003281AE2240A19E8285A1054
:10036000282AFA240A18F8281B85602519031AE49C
:10037000C40A19EAC814C2602A33020912FA1B0817
:10038000120401183CFF6004501A544C0A195A50C8
:100390004B0265781A584C0A1A5E50021EFF220260
:1003A0001A08049114121C061A024E1374F61B0844
:1003B000800422640214209A13281A8D040A156AF4
:1003C00028114AF0F81A74A41A86040B146006283F
:1003D0003C10F007501AD0241AE2040A1570505A43
:1003E00030281AF6241308FB5B087C281399A419FB
:1003F00016A15A50281A26241A38040A15885003C0
:100400001EFFFF438913100B5353432D4465766938
:100410006365156E2E612E25352E3131320419DBC0
:100420001150085230482611010212042C01020317
:1004300019B9DD220719031A4E881A54040B1480C7
:10044000078C3C011005281A60241A66040A1584DA
:10045000281B08107619281A76241A7C040A158697
:10046000285A09281A88241A8E040A1591285A0A2B
:10047000281AA0241AA6040A159628141810231A5C
:10048000042B1AB8241AD6040A159C2814F1102A31
:100490001A02281310FC1B0822040B14E809281167
:1004A000131C052304081A62241A6E040A15B0509E
:1004B00014321C291A20501A80241346FD0C1408EB
:1004C000C81E28AA332812FE0C14080C1F280392F9
:1004D000FFFF320232014204000D4F537562496E34
:0804E000646578203030300023
:04000005080001D915
:00000001FF
