:020000040800F2
:100000000006002005010008912D0008852A00083F
:100010008D2D000871040008A134000800000000C4
:10002000000000000000000000000000C12D0008DA
:10003000B104000800000000952D0008C32D000841
:100040001F0100081F0100081F0100081F01000810
:100050001F0100081F0100081F0100081F01000800
:100060001F0100081F0100081F0100087504000897
:100070001F0100081F0100081F0100081F010008E0
:100080001F0100081F0100081F0100081F010008D0
:100090001F0100081F0100081F0100081F010008C0
:1000A0001F0100081F0100081F0100081F010008B0
:1000B0001F010008512E00081F0100081F01000841
:1000C0001F0100081F0100081F0100081F01000890
:1000D0001F010008913400081F0100081F010008DB
:1000E0001F0100081F0100081F010008DFF810D0E1
:1000F00000F0F6F800480047FD340008AFF3008038
:10010000000600200648804706480047FEE7FEE755
:10011000FEE7FEE7FEE7FEE7FEE7FEE7FEE7FEE7B7
:100120004F2E0008ED000008D2B201E000F8012BCC
:10013000491EFBD270470022F6E710B513460A4667
:1001400004461946FFF7F0FF204610BD80EA010281
:1001500010B502F00043400022D04A001FD0010E2B
:1001600001EB1261C0F35600C2F3560240F40000E6
:1001700042F40002A0FB022000047F39140400D0E6
:10018000401C50EA124001D44000491EC2B20C0685
:1001900004EBD010401C4008802A02D003E000206D
:1001A00010BD20F00100002900DA0020184310BD26
:1001B00030B480EA010202F0004530F0004221F044
:1001C000004013D090B1C30DD40DC2F31601C0F39B
:1001D0001600E41A41F4000140F400027D3491421B
:1001E00001D3641C00E04900002C02DA30BC00207E
:1001F00070474FF400000023914201D3891A034352
:1002000040084FEA4101F7D151B1914202D14FF07C
:10021000004105E002D24FF0010101E06FF0010161
:1002200003EBC450284430BC00F022B8C10F80EA70
:10023000E0700844CA079623002100F022B800F0BD
:10024000004220F00040C10DC0F3160040F4000051
:100250007F2901DA00207047962903DCC1F196015D
:10026000C84001E096398840002AF4D040427047E7
:100270000029A8BF7047401C490008BF20F00100BA
:10028000704710B4B0FA80FC00FA0CF050EA010498
:1002900004BF10BC704749B1CCF1200421FA04F42A
:1002A00011FA0CF118BF012121430843A3EB0C0103
:1002B000CB1D4FEA00614FEA102042BF002010BC66
:1002C000704700EBC35010440029A4BF10BC704716
:1002D000401C490008BF20F0010010BC704700001E
:1002E000064C074D06E0E06840F0010394E8070083
:1002F00098471034AC42F6D3FFF7FCFE843B00086D
:10030000A43B000870B5044600252068806800F012
:10031000010018B32068806820F00100216888601F
:1003200000F044FF054613E000F040FF401B0228A8
:100330000ED92068806800F0010048B1A06A40F042
:100340001000A062E06A40F00100E062012070BD90
:100350002068806800F001000028E5D10020F6E761
:1003600070B505466C6AA06A00F05000E0B9A06A5A
:1003700040F40070A0622068806800F46020B0F54E
:10038000602F0DD1207B58B9A06A20F48070A06244
:10039000A06A00F4805018B9A06A40F00100A06281
:1003A000204600F0C7F903E0206A016B2846884721
:1003B00070BD70B505466C6AA06A40F04000A0624E
:1003C000E06A40F00400E062204600F0B5F970BD3C
:1003D00070B50446656A284600F0ADF970BD0000AE
:1003E00038B504460025002000902068806800F0A1
:1003F000010078BB2068806840F0010021688860B7
:10040000194800681949B0FBF1F0009002E000982B
:10041000401E009000980028F9D100F0C7FE054664
:1004200019E000F0C3FE401B022814D92068806840
:1004300000F0010078B9A06A40F01000A062E06A04
:1004400040F00100E06200BF002084F8240000BFFB
:10045000012038BD05E02068806800F00100002818
:10046000DFD00020F5E700003800002040420F00F8
:1004700000BFFEE710B5024800F09EFB10BD000073
:100480007800002030B590F840500124AC40C56B96
:100490006C60046863604468102C04D10468A26036
:1004A0000468E16003E00468A1600468E26030BDB4
:1004B000704772B600BFFEE7F8B50446002600207C
:1004C000009000BF94F82400012801D10220F8BD5B
:1004D000012084F8240000BF2046FFF713FF0646E2
:1004E0002046FFF77DFF0646002E69D1A06A20F462
:1004F000885040F00200A062022000F02FFF344933
:100500000968B1FBF0F04000009002E00098401E46
:10051000009000980028F9D12068806840F0080019
:100520002168886000F042FE054616E000F03EFEBD
:10053000401B0A2811D92068806800F0080060B1CB
:10054000A06A20F0020040F01000A06200BF00206E
:1005500084F8240000BF0120B9E72068806800F01B
:1005600008000028E2D12068806840F0040021687B
:10057000886000F01BFE054616E000F017FE401BE9
:100580000A2811D92068806800F0040060B1A06AD0
:1005900020F0020040F01000A06200BF002084F8AC
:1005A000240000BF012092E72068806800F004006A
:1005B0000028E2D1A06A20F0020040F00100A06211
:1005C00000BF002084F8240000BF30467FE7000011
:1005D0003800002038B5024600230020009000BFFC
:1005E00092F82400012801D1022038BD012082F8B0
:1005F000240000BF4868072812D21068406B0C79AD
:10060000641E04EB84051F24AC40A0430D796D1ECD
:1006100005EB85050C68AC4020431468606327E057
:1006200048680D2812D21068006B0C79E41F04EBA7
:1006300084051F24AC40A0430D79ED1F05EB850513
:100640000C68AC4020431468206311E01068C06A55
:100650000C790D3C04EB84051F24AC40A0430D79BC
:100660000D3D05EB85050C68AC4020431468E06245
:1006700008680A2812D31068C0680C780A3C04EB9A
:1006800044050724AC40A0430D780A3D05EB450521
:100690008C68AC4020431468E0600FE0106800698B
:1006A0000C7804EB44050724AC40A0430D7805EB1F
:1006B00045058C68AC402043146820610868102808
:1006C00002D00868112827D1174C1068A0421ED10B
:1006D0001068806800F40000F0B91068806840F489
:1006E00000001468A0600868102815D10F48006841
:1006F0000F4CB0FBF4F000EB80004000009002E0F3
:100700000098401E009000980028F9D104E0906AFB
:1007100040F020009062012300BF002082F82400F6
:1007200000BF184661E700000024014038000020A7
:1007300040420F0070477047704700002DE9F041BC
:100740000446002700250026A84614B90120BDE86C
:10075000F081A06810B1207D00B100BFA06A30B95F
:100760000020E06284F82400204600F089F820464A
:10077000FFF7C8FD0746A06A00F01000002873D1FB
:10078000002F71D1A06A20F4885040F00200A062CE
:10079000E16960680843217B40EA41000643A068A4
:1007A000B0F5807F02D0A068012802D14FF480709C
:1007B00000E000200543207D012811D1207B38B9BD
:1007C000A069401E4FF4006141EA4030054307E054
:1007D000A06A40F02000A062E06A40F00100E06200
:1007E0002068406820F469402843216848602068F8
:1007F000806821490840304321688860A068B0F5CE
:10080000807F02D0A068012802D14FF4807000E000
:100810000020B0F5807F03D1208A401E4FEA0058A7
:100820002068C06A20F4700040EA08002168C862AD
:100830002068806811490840B04208D10020E06279
:10084000A06A20F0020040F00100A06211E0A06A5E
:1008500020F0020040F01000A062E06A40F00100C9
:10086000E062012705E0FFE7A06A40F01000A06207
:10087000012738466BE70000FDF7E1FFFE0E1FFF82
:1008800010B586B0044600200290039004900590B5
:100890002249206888423ED100BF2148806940F447
:1008A00000701F4988610846806900F4007001905B
:1008B00000BF00BF00BF0846806940F004008861A7
:1008C0000846806900F00400019000BF00BFFC20D2
:1008D00002900320039002A9124800F0D1FA1248B6
:1008E0001249086000204860002110488160802182
:1008F000C1604900016189004161202181610021BD
:10090000C16100F027FA08B1FFF7D3FD00BF074827
:100910002062446200BF06B010BD00000024014008
:10092000001002400008014008000240780000204A
:100930002DE9F04104460D46164600275749206828
:10094000884203D056492068884205D15348001D8B
:10095000006800F4702000E0002000287ED100BF75
:1009600094F82400012802D10220BDE8F081012082
:1009700084F8240000BF2046FFF732FD0746002F11
:100980006DD1A06A40F60161884340F48070A06296
:1009900043492068884209D14048001D006800F49E
:1009A000702008B9012002E0002000E0012078B1A9
:1009B000A06A20F48010A0622068406800F4806083
:1009C00000B3A06A20F4005040F48050A06219E007
:1009D000A06A40F48010A06230492068884203D0A9
:1009E0002F492068884205D12C48001D006800F47A
:1009F000806000E0002028B1A06A20F4005040F49C
:100A00008050A062A06A00F4805020B1E06A20F01B
:100A10000600E06201E00020E06200BF002084F8F0
:100A2000240000BF1F48216A88621F48216AC862EB
:100A30001E48216A08636FF0020021680860206880
:100A4000806840F4807021688860226802F14C015F
:100A500033462A46206A00F0B1F901E01AE014E0BA
:100A60002068806800F46020B0F5602F06D120680F
:100A7000806840F4A000216888600CE020688068ED
:100A800040F480102168886005E000BF002084F8F1
:100A9000240000E00127384667E7000000240140F9
:100AA0000028014061030008D1030008B3030008D7
:100AB0000146002291F82100022808D00420886312
:100AC00000BF002081F8200000BF012070470868A7
:100AD000006820F00E000B6818600868006820F0BD
:100AE00001000B68186091F8403001209840CB6BF2
:100AF0005860012081F8210000BF002081F820000B
:100B000000BF1046E2E7000070B50446002594F8E7
:100B10002100022803D00420A063012548E02068BA
:100B2000006820F00E00216808602068006820F04E
:100B30000100216808601F492068884201D1012016
:100B400026E01C4914312068884201D110201FE0A2
:100B5000184928312068884201D1801518E01549CC
:100B60003C312068884201D1801411E01149503194
:100B70002068884202D14FF4803009E00D49643189
:100B80002068884202D14FF4801001E04FF080705D
:100B9000084908394860012084F8210000BF00207E
:100BA00084F8200000BF606B10B12046616B88475D
:100BB000284670BD0800024070B50446E06B056829
:100BC0002068066894F840100420884028400028D7
:100BD00046D006F00400002842D02068006800F0EB
:100BE000200028B92068006820F00400216808600F
:100BF00057492068884201D1042027E05449143124
:100C00002068884201D1402020E0514928312068E5
:100C1000884201D1001519E04D493C3120688842D5
:100C200002D14FF4804011E0494950312068884298
:100C300002D14FF4802009E04549643120688842A0
:100C400002D14FF4800001E04FF080604049083944
:100C50004860E06A00287AD02046E16A884776E05A
:100C600094F84010022088402840A0B306F002000B
:100C700088B32068006800F0200040B92068006850
:100C800020F00A0021680860012084F82100304922
:100C90002068884201D1022028E02D4914312068C3
:100CA000884201D1202021E029492831206888424A
:100CB00001D140151AE026493C312068884202D112
:100CC0004FF4005012E0224950312068884203D18D
:100CD0004FF400300AE017E01D4964312068884273
:100CE00002D14FF4001001E04FF0007018490839AC
:100CF000486000BF002084F8200000BFA06A30B325
:100D00002046A16A884722E094F8401008208840D5
:100D10002840E0B106F00800C8B12068006820F063
:100D20000E002168086094F8401001208840E16BB3
:100D300048600120A06384F8210000BF002084F8EF
:100D4000200000BF206B10B12046216B884770BD8A
:100D5000080002400146002209B901207047164BE5
:100D60000868C01A1423B0FBF3F08000086412482E
:100D70000838C863022081F821000868026843F639
:100D8000F0708243D1E901031843CB6818430B6923
:100D900018434B6918438B691843CB6918430243C6
:100DA0000868026000208863012081F8210000208B
:100DB00081F8200000BFD1E7080002402DE9F04192
:100DC00004460D4616461F464FF0000800BF94F833
:100DD0002000012802D10220BDE8F081012084F822
:100DE000200000BF94F8210001282CD1022084F8B3
:100DF00021000020A0632068006820F00100216825
:100E000008603B46324629462046FFF73BFBE06A36
:100E100030B12068006840F00E00216808600BE0E7
:100E20002068006820F004002168086020680068DD
:100E300040F00A00216808602068006840F0010066
:100E40002168086006E000BF002084F8200000BF91
:100E50004FF002084046BFE770B5044600F0A6F91F
:100E600006462546681C10B104480078054400BFBA
:100E700000F09CF9801BA842FAD370BD340000201A
:100E80002DE9F8470346002294466EE14FF0010831
:100E900008FA02F4D1F8008008EA0400A0427DD1EB
:100EA000DFF8DCA2D1F80480A8EB0A09D0453AD0DB
:100EB00014DCB8F1030F50D009DCB8F1000F31D0C9
:100EC000B8F1010F1CD0B8F1020F49D120E0B8F100
:100ED000110F18D0B8F1120F42D11EE0B9F5881FDA
:100EE00025D006DCB9F5803F20D0B9F5801F37D179
:100EF0001AE0B9F5001F18D0B9F5041F30D117E07A
:100F0000D1F80CC02DE0D1F80C8008F1040C28E0D9
:100F1000D1F80C8008F1080C23E0D1F80C8008F11E
:100F20000C0C1EE000BF00BF00BF00BF00BF00BF31
:100F3000D1F80880B8F1000F02D14FF0040C0BE09B
:100F4000D1F80880B8F1010F03D14FF0080C1C61F3
:100F500002E04FF0080C5C6103E04FF0000C00E091
:100F600000BF00BFFF2801D8984601E003F1040844
:100F70004646FF2802D84FEA820803E0A2F108089B
:100F80004FEA88084746D6F800804FF00F0909FA63
:100F900007F928EA09080CFA07F900E088E048EAAE
:100FA0000908C6F80080D1F8048008F08058B8F12C
:100FB000805F7DD100BFDFF8CC81D8F8188048F081
:100FC0000108DFF8C091C9F81880C846D8F8188021
:100FD00008F00108CDF8008000BF00BF4FEAB93823
:100FE0004FEA920958F829504FEA82784FEA187967
:100FF0004FF00F0808FA09F825EA0805DFF888819C
:10100000434502D14FF0000816E0DFF880814345E8
:1010100002D14FF001080FE0DFF87481434502D19F
:101020004FF0020808E0DFF86C81434502D14FF031
:10103000030801E04FF004084FEA82794FEA19797A
:1010400008FA09F848EA0505DFF84C814FEA9209E9
:1010500048F82950D1F8048008F48018B8F5801FAA
:101060000AD1DFF83881D8F8008048EA0008DFF8B4
:101070002C91C9F8008009E0DFF82081D8F80080C1
:1010800028EA0008DFF81491C9F80080D1F804803C
:1010900008F40018B8F5001F10D1DFF8008108F13E
:1010A0000408D8F8008048EA0008DFF8F09000E073
:1010B0005AE009F10409C9F800800DE0DFF8DC808E
:1010C00008F10408D8F8008028EA0008DFF8CC907E
:1010D00009F10409C9F80080D1F8048008F4003847
:1010E000B8F5003F0ED1DFF8B480A8F10408D8F8B5
:1010F000008048EA0008DFF8A490A9F10409C9F8C3
:1011000000800DE0DFF89480A8F10408D8F8008092
:1011100028EA0008DFF88490A9F10409C9F80080E2
:10112000D1F8048008F48038B8F5803F0ED1DFF89C
:101130006C80A8F10808D8F8008048EA0008DFF8B9
:101140005C90A9F10809C9F800800DE0DFF84C8037
:10115000A8F10808D8F8008028EA0008DFF83C90D9
:10116000A9F10809C9F80080521CD1F8008028FABA
:1011700002F8B8F1000F7FF489AEBDE8F8870000EF
:10118000000011100010024000080140000C014056
:101190000010014000140140080001400804014013
:1011A0000AB1016101E00B04036170470148006866
:1011B000704700002C0000200348006803490978AC
:1011C00008440149086070472C00002034000020CA
:1011D00010B50848006840F0100006490860032078
:1011E00000F0A8F8002000F007F800F02BF800202D
:1011F00010BD00000020024070B504460E48007883
:101200004FF47A71B1FBF0F00C490968B1FBF0F5CD
:10121000284600F00FFD08B1012070BD102C07D248
:1012200000222146501E00F047F80548046001E006
:101230000120F2E70020F0E7340000203800002011
:101240003000002008B500BF1148806940F001005F
:101250000F4988610846806900F00100009000BFD6
:1012600000BF00BF0846C06940F08050C861084612
:10127000C06900F08050009000BF00BF00BF05496A
:10128000486820F0E06040F00070486000BF08BD92
:10129000001002400000014001460846002809DB1A
:1012A00000F01F0301229A4043099B0003F1E02351
:1012B000C3F8002100BF70472DE9F05F80460D465E
:1012C0001646002702F0EEF8074639462A4633460E
:1012D00001F00700C0F1070ABAF1040F02D94FF07C
:1012E000040A01E0C0F1070AD14600F1040ABAF18C
:1012F000070F02D24FF0000A01E0A0F1030AD44622
:101300004FF0010A0AFA09FAAAF1010A0AEA020AE6
:101310000AFA0CFA4FF0010B0BFA0CFBABF1010BC4
:101320000BEA030B4AEA0B042146404602F0C2F8DE
:10133000BDE8F09F00BF00F00702064B19684FF6AA
:10134000FF031940044B0B4343EA0221014B196090
:1013500000BF70470CED00E00000FA052DE9F047F2
:1013600006464FF00008002500270024A146012E64
:1013700031D0022E56D0102E5FD13248446800681A
:1013800000F0807008B33048C4F38341475C04F434
:10139000803078B12B484068C0F340402B4911F8A9
:1013A000008004F4803040B12948B0FBF8F000FB25
:1013B00007F502E0274807FB00F52248406800F4E3
:1013C0008000B0F5800F01D1A94603E06800032139
:1013D000B0FBF1F932E01B48046A04F44070B0F548
:1013E000807F05D104F0020010B14FF4004918E0ED
:1013F00004F44070B0F5007F07D11248406A00F055
:10140000020010B149F640490BE004F44070B0F519
:10141000407F06D10B48006800F4003008B14FF25D
:1014200024490BE000F08CF906494968C1F3813189
:10143000491C4900B0FBF1F900E000BF00BF48467D
:10144000BDE8F087001002405A3B00086A3B0008E4
:1014500000127A0000093D00F8B504460026002578
:10146000207800F0010000286BD000274348C069B5
:1014700000F0805070B900BF4048C06940F0805013
:101480003E49C8610846C06900F08050009000BF26
:1014900000BF01273A48006800F48070B0B93848AE
:1014A000006840F4807036490860FFF77FFE06460A
:1014B00006E0FFF77BFE801B642801D90320F8BDFE
:1014C0002F48006800F480700028F2D02B48006A92
:1014D00000F440752DB3A08800F44070A84220D0DD
:1014E0002648006A20F44075012026490860002043
:1014F00008602248056205F0010090B1FFF756FE32
:10150000064608E0FFF752FE801B41F28831884210
:1015100001D90320D3E71948006A00F0020000282F
:10152000F0D01648006A20F44070616808431349FF
:101530000862012F04D10846C06920F08050C861BC
:1015400000BF207800F00200022807D10B48406855
:1015500020F44040A168084308494860207800F022
:101560001000102807D10548406820F48000E16889
:101570000843024948600020A1E700000010024033
:10158000007000404004424270B504460D460CB95C
:10159000012070BD5A48006800F00700A8420ED232
:1015A0005748006820F0070028435549086008465E
:1015B000006800F00700A84201D00120E9E7207888
:1015C00000F0020002281DD1207800F00400042859
:1015D00005D14C48406840F4E0604A4948602078B2
:1015E00000F00800082805D14648406840F46050E3
:1015F000444948604348406820F0F000A16808432F
:1016000040494860207800F0010078B36068012804
:1016100006D13C48006800F4003090B90120B8E7DA
:101620006068022806D13748006800F0007040B9B1
:101630000120AEE73348006800F0020008B901203D
:10164000A7E73048406820F00300616808432D494F
:101650004860FFF7ABFD064609E0FFF7A7FD801BDA
:1016600041F28831884202D9032092E707E02548F9
:10167000406800F00C006168B0EB810FEDD12048AC
:10168000006800F00700A8420ED91D48006820F04D
:10169000070028431A4908600846006800F0070060
:1016A000A84201D0012074E7207800F0040004284B
:1016B00007D11448406820F4E060E168084311490C
:1016C0004860207800F00800082808D10D484068DC
:1016D00020F46050216940EAC1000A49486000F0E6
:1016E0003FF808494968C1F30311074A515CC840F3
:1016F0000649086006480068FFF77EFD002048E7BD
:1017000000200240001002406C3B0008380000201E
:1017100030000020014800687047000038000020B9
:1017200000B5FFF7F7FF04494968C1F30221034AF6
:10173000515CC84000BD0000001002407C3B000826
:1017400000B5FFF7E7FF04494968C1F3C221034A26
:10175000515CC84000BD0000001002407C3B000806
:1017600070B500210022002400230020134D696879
:1017700001F00C05F5B1042D02D0082D19D101E0BE
:101780000F4819E00F4DC1F38346AB5D01F480357E
:1017900055B10A4D6D68C5F340450B4E725D084D5D
:1017A0005D43B5FBF2F402E0084D03FB05F420466F
:1017B00002E000BF024800BF00BF70BD0010024041
:1017C00000127A00483B0008583B000800093D0021
:1017D000F8B504460CB90120F8BD207800F00100EE
:1017E000002878D0F848406800F00C0004280CD09D
:1017F000F548406800F00C00082811D1F248406814
:1018000000F48030B0F5803F0AD1EF48006800F462
:10181000003000285FD0606800285CD10120DBE741
:1018200000BF6068B0F5803F06D1E748006840F42B
:101830008030E549086028E0606858B9E2480068EF
:1018400020F48030E04908600846006820F48020D9
:1018500008601AE06068B0F5A02F0BD1DA48006884
:1018600040F48020D84908600846006840F4803081
:1018700008600AE0D448006820F48030D24908604B
:101880000846006820F48020086000BF606888B1C6
:10189000FFF78CFC054606E0FFF788FC401B642838
:1018A00001D9032098E7C848006800F400300028F8
:1018B000F2D010E0FFF77AFC054606E0FFF776FC71
:1018C000401B642801D9032086E7BF48006800F464
:1018D00000300028F2D1207800F00200022857D111
:1018E000B948406800F00C0050B1B748406800F0BB
:1018F0000C00082818D1B448406800F4803098B92A
:10190000B148006800F0020020B12069012801D030
:10191000012061E7AC48006820F0F800616940EA06
:10192000C100A949086033E02069E8B10120A74956
:101930000860FFF73BFC054606E0FFF737FC401B5D
:10194000022801D9032047E79F48006800F0020001
:101950000028F2D09C48006820F0F800616940EA55
:10196000C1009949086013E0002098490860FFF71A
:101970001DFC054606E0FFF719FC401B022801D9B3
:10198000032029E79048006800F002000028F2D107
:10199000207800F0080008282DD1A069B8B10120F6
:1019A0008B490860FFF702FC054606E0FFF7FEFBE7
:1019B000401B022801D903200EE78348406A00F04B
:1019C00002000028F2D0012001F0E6F913E0002027
:1019D0007F490860FFF7EAFB054606E0FFF7E6FBF4
:1019E000401B022801D90320F6E67748406A00F040
:1019F00002000028F2D1207800F00400042873D1FE
:101A000000277148C06900F0805070B900BF6E486F
:101A1000C06940F080506C49C8610846C06900F058
:101A20008050009000BF00BF01276A48006800F4A2
:101A30008070B0B96748006840F4807065490860FC
:101A4000FFF7B4FB054606E0FFF7B0FB401B642838
:101A500001D90320C0E65F48006800F480700028C8
:101A6000F2D000BFE068012806D15748006A40F074
:101A700001005549086227E0E06858B95248006AF9
:101A800020F00100504908620846006A20F0040076
:101A9000086219E0E06805280BD14B48006A40F065
:101AA0000400494908620846006A40F001000862E3
:101AB0000AE04548006A20F00100434908620846F0
:101AC000006A20F00400086200BFE068A0B1FFF7E0
:101AD0006DFB054609E0FFF769FB401B41F28831C9
:101AE000884202D9032077E622E03748006A00F0F6
:101AF00002000028EFD012E0FFF758FB054608E08F
:101B0000FFF754FB401B41F28831884201D9032082
:101B100062E62D48006A00F002000028F0D1012F93
:101B200005D12948C06920F080502749C86100BF0D
:101B3000E069C8B32448406800F00C00082860D071
:101B4000E069022848D1002020490866FFF72EFBF3
:101B5000054606E0FFF72AFB401B022801D90320B7
:101B60003AE61948006800F000700028F2D1206AB7
:101B7000B0F5803F07D11448406820F40030A168D8
:101B8000084311494860D4E9080108430E494968EF
:101B900021F4741108430C49486001200B49086680
:101BA000FFF704FB054607E03DE0FFF7FFFA401BA7
:101BB000022801D903200FE60348006800F00070F6
:101BC0000028F2D02FE00000001002400000424246
:101BD0008004424200700040002014490866FFF76C
:101BE000E5FA054606E0FFF7E1FA401B022801D9B5
:101BF0000320F1E50E48006800F000700028F2D1E3
:101C000011E0E069012800D1E6E50948466806F4DC
:101C10008031206A814204D106F47011606A8142E9
:101C200001D00120D8E50020D6E5000000004242A6
:101C30000010024070B504462546681EB0F1807F52
:101C400001D301200FE0681E4FF0E02148610F2111
:101C50004FF0FF3001F02EFC00204FF0E0218861B2
:101C600007200861002070BD7047704730B50246FC
:101C70000B4600BF92F83C00012801D1022030BD84
:101C8000012082F83C0000BF022082F83D0010686D
:101C900044681068816824F0700418680443106870
:101CA0004460104D1068A8420BD01068B0F1804F0E
:101CB00007D00D4D1068A84203D00C4D1068A84203
:101CC00005D121F08001586801431068816001202E
:101CD00082F83D0000BF002082F83C0000BF00BF3A
:101CE000CDE70000002C0140000400400008004047
:101CF00010B504460CB9012010BD94F83D0028B978
:101D0000002084F83C00204600F026F8022084F8E9
:101D10003D00211D206801F0A3F8012084F8460051
:101D200000BF84F83E0001213F20015540200155AD
:101D30004120015500BF00BF012084F8420043202C
:101D40000155442001554520015500BF012084F86C
:101D50003D000020D0E7000038B504462068B0F10F
:101D6000804F0DD100BF1448C06940F001001249F6
:101D7000C8610846C06900F00100009000BF19E08A
:101D80000E492068884215D100BF0B48C06940F059
:101D900002000949C8610846C06900F002000090CD
:101DA00000BF00BF002202211D20FFF785FA1D2081
:101DB000FFF772FA38BD0000001002400004004036
:101DC000014691F83D00012801D001207047022012
:101DD00081F83D00124B086898420BD00868B0F1BA
:101DE000804F07D00F4B0868984203D00E4B08680D
:101DF00098420CD10868806800F00702062A0CD0CF
:101E00000868006840F001000B68186005E0086889
:101E1000006840F001000B6818600020D6E7000061
:101E2000002C01400004004000080040014691F8E9
:101E30003D00012801D001207047022081F83D00BB
:101E40000868C06840F001000B68D860124B086851
:101E500098420BD00868B0F1804F07D00F4B08684C
:101E6000984203D00E4B086898420CD108688068ED
:101E700000F00702062A0CD00868006840F0010054
:101E80000B68186005E00868006840F001000B6806
:101E900018600020D0E70000002C01400004004042
:101EA00000080040014600BF0868006A41F21112B4
:101EB000104050B90868006A9210104028B90868AC
:101EC000006820F001000A68106000BF012081F85E
:101ED0003D00002070472DE9F04104460D460027E3
:101EE00000BF94F83C00012802D10220BDE8F08137
:101EF000012084F83C0000BF022084F83D002068E7
:101F0000866826F0770626F47F4620688660286873
:101F1000502833D00CDC202850D004DC00284BD0D3
:101F2000102851D149E0302849D040284CD139E01F
:101F300060282DD0702807D0B0F5805F03D0B0F5B1
:101F4000005F41D10DE041E0D5E902136A682068E5
:101F500000F0C0FF2068866846F07706206886603B
:101F600034E0D5E902136A68206800F0B3FF206806
:101F7000806840F480402168886027E0EA686968EA
:101F8000206801F077F85021206800F0AEFF1DE0D6
:101F9000EA686968206801F080F86021206800F034
:101FA000A4FF13E0EA686968206801F063F8402143
:101FB000206800F09AFF09E000BF00BF00BF296859
:101FC000206800F092FF01E0012700BF00BF012060
:101FD00084F83D0000BF002084F83C0000BF384674
:101FE00084E7704710B5044620680069C0F34000DC
:101FF000D8B12068C068C0F34000B0B16FF00200F3
:1020000021680861012020772068806900F00300C2
:1020100018B12046FFF7E5FF05E0204600F0ADF8D7
:10202000204600F061F90020207720680069C0F3A5
:102030008000D8B12068C068C0F38000B0B16FF0F4
:10204000040021680861022020772068806900F47C
:10205000407018B12046FFF7C4FF05E0204600F0AD
:102060008CF8204600F040F90020207720680069B5
:10207000C0F3C000D8B12068C068C0F3C000B0B1E0
:102080006FF0080021680861042020772068C0698B
:1020900000F0030018B12046FFF7A3FF05E020463B
:1020A00000F06BF8204600F01FF900202077206830
:1020B0000069C0F30010D8B12068C068C0F30010F8
:1020C000B0B16FF010002168086108202077206807
:1020D000C06900F4407018B12046FFF782FF05E0A8
:1020E000204600F04AF8204600F0FEF80020207755
:1020F0002068006900F0010058B12068C06800F055
:10210000010030B16FF0010021680861204600F045
:10211000EDF820680069C0F3C01058B12068C068AD
:10212000C0F3C01030B16FF0800021680861204614
:10213000FFF79AFD20680069C0F3801058B120684D
:10214000C068C0F3801030B16FF0400021680861B2
:10215000204600F059F920680069C0F3401058B1DA
:102160002068C068C0F3401030B16FF020002168D3
:1021700008612046FFF779FD10BD70472DE9F04159
:1021800004460D461646002700BF94F83C0001287F
:1021900002D10220BDE8F081012084F83C0000BF9C
:1021A00036B1042E1BD0082E31D00C2E5ED145E066
:1021B0002946206800F0A2FE2068806940F00800EF
:1021C000216888612068806920F0040021688861A6
:1021D00020688069296908432168886148E02946A8
:1021E000206800F0BBFE2068806940F40060216830
:1021F00088612068806920F4806021688861206897
:102200008069296940EA01202168886130E0294617
:10221000206800F0D7FE2068C06940F008002168FF
:10222000C8612068C06920F004002168C861206886
:10223000C069296908432168C86119E029462068F6
:1022400000F0F4FE2068C06940F400602168C861B5
:102250002068C06920F480602168C8612068C06976
:10226000296940EA01202168C86101E0012700BF17
:1022700000BF00BF002084F83C0000BF384689E75B
:1022800010B504460CB9012010BD94F83D0028B9E2
:10229000002084F83C00204600F025F8022084F855
:1022A0003D00211D206800F0DBFD012084F8460080
:1022B00000BF84F83E0001213F2001554020015518
:1022C0004120015500BF00BF012084F84200432097
:1022D0000155442001554520015500BF012084F8D7
:1022E0003D000020D0E770477047000070B50646FB
:1022F00000247AE03E4830F814006421484300038B
:102300003B4931F81410C1F5805190FBF1F0394987
:1023100041F82400002029E0364951F82410364ABB
:1023200052F82020914220D3324951F82420324BD8
:10233000411C53F821108A4217D22E4951F824101B
:102340001A4652F82020891A0A03411C53F821101A
:1023500053F82030C91AB2FBF1F2A0F1320102EBBE
:102360000131264A42F8241003E0401CB0F5AE7F4C
:10237000D2D900BF214850F82400B0F5961F04DDE3
:102380004FF496101D4941F824001C4850F82400D1
:1023900010F5483F04DA4FF44830184941F824005A
:1023A000174850F8240040F2DE3148434FF47A7168
:1023B00090FBF1F0114951F8241001EB8101490023
:1023C0004FF47A7291FBF2F108440D4941F8240070
:1023D00051F82400FDF72AFF05464FF08B41FDF729
:1023E000E7FE084941F82400641C062C82DB70BD1E
:1023F0003C0000204C010020D03500086401002082
:102400007C0100209401002070477047704701460E
:102410000022002391F8412091F8423042EA030063
:10242000704700002DE9F84F0446206805682068D1
:10243000C668206847694FF00009CA4605F00F09D1
:10244000B9F1000F0AD105F0200038B106F02000E4
:1024500020B1204600F085FEBDE8F88FB9F1000FED
:102460007BD007F0010018B906F49070002874D0F2
:1024700005F0010030B106F4807018B1606C40F0D6
:102480000100606405F0040030B107F0010018B1EC
:10249000606C40F00200606405F0020030B107F0AB
:1024A000010018B1606C40F00400606405F00800A1
:1024B00048B106F0200010B907F0010018B1606CB7
:1024C00040F008006064606C002845D005F02000F2
:1024D00028B106F0200010B1204600F042FE20682E
:1024E0004069C0F3801A606C00F0080010B9BAF1BE
:1024F000000F2CD0204600F0EEFD2068406900F06F
:10250000400000B300BF00BF2168143151E8001F34
:1025100021F040002168143141E80002002AF3D183
:1025200000BFE06B50B17748E16B4863E06BFEF7AA
:10253000EBFA88B1E06B416B88470DE02046FFF76E
:1025400065FF09E009E02046FFF760FF04E0204650
:10255000FFF75CFF002060647EE7206B012877D1E5
:1025600005F01000002873D006F010000028FAD003
:1025700000BF00200090206800680090206840683C
:10258000009000BF00BF2068406900F040000028B4
:102590005FD0E06B006840681FFA80F8B8F1000F68
:1025A00055D0A08D404552DDA4F82E80E06B8069A7
:1025B000202843D000BF00BF21680C3151E8001F24
:1025C00021F4807021680C3141E80002002AF3D127
:1025D00000BF00BF00BF2168143151E8001F21F087
:1025E00001002168143141E80002002AF3D100BF44
:1025F00000BF00BF2168143151E8001F21F04000E6
:102600002168143141E80002002AF3D100BF2020E4
:1026100084F842000020206300BF00BF21680C3115
:1026200051E8001F21F0100021680C3141E8000240
:10263000002AF3D100BFE06BFEF73AFA0220606394
:10264000A08DE28D801A81B22046FFF7DEFE03E7FF
:1026500042E0A08DE18D401A1FFA80F8E08DD0B3E2
:10266000B8F1000F37D000BF00BF21680C3151E82E
:10267000001F21F4907021680C3141E80002002A0B
:10268000F3D100BF00BF00BF2168143151E8001F23
:1026900021F001002168143141E80002002AF3D141
:1026A00000BF202084F842000020206300BF00BF4C
:1026B00021680C3151E8001F21F0100021680C3115
:1026C00041E80002002AF3D100BF022060634146C6
:1026D0002046FFF79AFEBFE605F0800030B106F015
:1026E000800018B1204600F059FEB5E605F0400024
:1026F00030B106F0400018B1204600F022FDABE6F4
:1027000000BFA9E6C330000810B504460CB901208B
:1027100010BDA06900B100E000BF94F8410028B9E5
:10272000002084F84000204600F02AF8242084F895
:1027300041002068C06820F400502168C86020462D
:1027400000F08EFD2068006920F490402168086147
:102750002068406920F02A00216848612068C0682C
:1027600040F400502168C86000206064202084F894
:10277000410084F842000020606300BFC8E7000009
:1027800010B586B004460020029003900490059096
:102790001E492068884236D100BF1D48806940F438
:1027A00080401B4988610846806900F480400190A0
:1027B00000BF00BF00BF0846806940F00400886188
:1027C0000846806900F00400019000BF00BF481572
:1027D0000290022003900320059002A90D48FEF705
:1027E0004FFB4FF48060029000200390049002A9F8
:1027F0000848FEF745FB002201212520FEF75CFD7D
:102800002520FEF749FD06B010BD0000003801404C
:10281000001002400008014070B504460D461646FF
:1028200094F8420020280BD105B10EB9012070BDEB
:102830000020206332462946204600F08FFDF6E74F
:102840000220F4E7FEB50746594800780A280EDB57
:102850000020574908700A215648FDF76CFC4FF6D6
:10286000FF7314225449554800F0B2F89AE05448D6
:1028700001784F4802780078401C4D4B18704D4845
:1028800081541846007801280AD14A480078442823
:1028900006D00020194608700A214648FDF74BFC77
:1028A0004348007802280AD142484078522806D08E
:1028B00000203F4908700A213E48FDF73CFC3C4897
:1028C000007803280AD13B488078022806D00020EF
:1028D000374908700A213748FDF72DFC3448007845
:1028E000C01E3449085C44285CD131480078801E01
:1028F000085C522856D12E480078401E085C0228F9
:1029000050D1002419E02F4951F824002E49FDF739
:102910001DFC0646FDF793FC00B22DF814003DF8AF
:102920001400C0F307216000801C284A11541DF8D0
:1029300014106000C01C1154641C062CE3DB022040
:10294000224988730025002004E02049095C2944BD
:10295000CDB2401C0F28F8DB44201C4908705220DF
:1029600048700846C573002000F0F8FD4FF47A70F7
:1029700000F012FE4FF6FF73102214490F4800F0CA
:1029800027F800BF0D48FFF742FD2128FAD00120AB
:1029900000F0E4FD0020064908700A210548FDF713
:1029A000CAFB00BF012206490448FFF735FFFEBD00
:1029B00015000020AC01002017000020B801002005
:1029C00014000020940100200000C84200000020F4
:1029D0002DE9F84F04460E46174699464FF0000A77
:1029E00094F8410020284AD106B117B90120BDE86A
:1029F000F88F00206064212084F84100FEF7D6FBA8
:102A00008246A784E784A068B0F5805F04D120697E
:102A100010B90025B04602E035464FF000081BE033
:102A20005346002280212046CDF8009000F0E6FCBD
:102A300008B10320DBE745B9B8F80000C0F308008F
:102A40002168486008F1020803E02878216848609E
:102A50006D1CE08C401EE084E08C0028E0D15346E1
:102A6000002240212046CDF8009000F0C7FC08B1BC
:102A70000320BCE7202084F841000020B7E70220B3
:102A8000B5E7704700BFFEE70EB50020009001904B
:102A900002902E482E49086081152D488160012141
:102AA0000173002101754FF40021C1610020284904
:102AB0004860062126480161FDF740FE08B1FDF798
:102AC000F8FC022000900120019006200290694647
:102AD0001F48FDF77FFD08B1FDF7EBFC03200090D8
:102AE0000220019069461A48FDF774FD08B1FDF710
:102AF000E0FC042000900320019069461448FDF793
:102B000069FD08B1FDF7D5FC052000900420019077
:102B100069460F48FDF75EFD08B1FDF7CAFC0620C7
:102B200000900520019069460948FDF753FD08B162
:102B3000FDF7BFFC0720009006200190694604487D
:102B4000FDF748FD08B1FDF7B4FC0EBD00240140BF
:102B50004800002008B500BF0A48406940F0010065
:102B6000084948610846406900F00100009000BF34
:102B700000BF002211460B20FEF79EFB0B20FEF744
:102B80008BFB08BD0010024000B585B0002001900D
:102B900002900390049000BF2748806940F0200015
:102BA000254988610846806900F02000009000BF38
:102BB00000BF00BF0846806940F0040088610846F5
:102BC000806900F00400009000BF00BF00BF08460D
:102BD000806940F0080088610846806900F00800BC
:102BE000009000BF00BF00224FF400411348FEF7E1
:102BF000D7FA00224FF480711148FEF7D1FA4FF452
:102C000000400190012002900020039002200490D7
:102C100001A90A48FEF734F94FF4807001900120B1
:102C20000290002003900220049001A90448FEF7BE
:102C300027F905B000BD000000100240000C014063
:102C40000008014000B587B0002003900490059073
:102C50000690019002904FF0804014490860472090
:102C600048600021114881604FF6FF71C16000216A
:102C700001618161FFF73CF808B1FDF71AFC4FF4E0
:102C80008050039003A90948FFF725F908B1FDF723
:102C900010FC00200190029001A90448FEF7E6FF15
:102CA00008B1FDF706FC07B000BD0000BC00002025
:102CB00000B58DB0002009900A900B900C90079001
:102CC00008901C216846FDF736FA20482049086024
:102CD00040F2CF20486000211D48816040F2E7317A
:102CE000C1600021016180218161FFF701F808B115
:102CF000FDF7DFFB4FF48050099009A91448FFF756
:102D0000EAF808B1FDF7D5FB1148FFF7B9FA08B1A9
:102D1000FDF7CFFB402007900020089007A90C4842
:102D2000FEF7A4FF08B1FDF7C4FB6020009032203D
:102D30000190002002900490002269460448FFF7A9
:102D40001DFA08B1FDF7B5FB0DB000BD0004004051
:102D50000401002010B50B480B4908604FF41650D1
:102D60004860002108488160C16001610C21416117
:102D700000218161C161FFF7C7FC08B1FDF799FB34
:102D800010BD000000380140B801002000BFFEE780
:102D900000BFFEE77047000008B508490968C90888
:102DA0004FF47A72B1FBF2F14143009100BF00BFD2
:102DB00000994A1E00920029F9D108BD3800002070
:102DC000704710B5FEF7F8F910BD00B593B0282193
:102DD00009A8FDF7B0F9142104A8FDF7ACF900200B
:102DE00000900190029003900120099000040A9045
:102DF00000200B9001200D9002201090C103119132
:102E00004FF4E011129109A8FEF7E2FC08B1FDF7BA
:102E100050FB0F20049002200590002006904FF4F4
:102E20008060079000200890022104A8FEF7ACFB08
:102E300008B1FDF73EFB0220009080030290684637
:102E4000FEF70AFB08B1FDF734FB13B000BD704775
:102E500010B50248FFF7C6F810BD000004010020BD
:102E600010B50268184B984208D0B0F1804F05D0D9
:102E7000164B984202D0164B984203D122F07002B2
:102E80004B681A43104B984208D0B0F1804F05D0E0
:102E90000E4B984202D00E4B984203D122F440725E
:102EA000CB681A4322F080034C6943EA04020260B3
:102EB0008B68C3620B688362034B984201D10B6934
:102EC00003630123436110BD002C01400004004056
:102ED0000008004030B50C46816821F47F4142EA89
:102EE000032525432943816030BD0A46816821F0CE
:102EF000700142F0070319438160704730B5026AE0
:102F0000056A25F0010505624368846924F07004B0
:102F100024F003040D682C4322F002028D682A433A
:102F20000D4DA84206D100BF22F00802CD682A4309
:102F300022F00402084DA84207D123F4807323F441
:102F400000734D692B438D692B43436084614D6849
:102F50004563026230BD0000002C014030B5026ABA
:102F6000056A25F0100505624368846924F4E0448D
:102F700024F440740D6844EA052422F020028D6890
:102F800042EA05120E4DA84207D100BF22F080028E
:102F9000CD6842EA051222F04002094DA84209D14B
:102FA00023F4806323F400634D6943EA85038D694C
:102FB00043EA8503436084614D688563026230BDE6
:102FC000002C014030B5026A056A25F4807505625F
:102FD0004368C46924F0700424F003040D682C4392
:102FE00022F400728D6842EA05220F4DA84207D1F3
:102FF00000BF22F40062CD6842EA052222F480621A
:10300000094DA84209D123F4805323F400534D699C
:1030100043EA05138D6943EA05134360C4614D68B3
:10302000C563026230BD0000002C014030B5036A68
:10303000056A25F4805505624468C26922F4E042BD
:1030400022F440720D6842EA052223F400538D6891
:1030500043EA0533064DA84204D124F480444D6967
:1030600044EA85144460C2614D680564036230BD62
:10307000002C014030B50B461446026A056A25F063
:1030800001050562816921F0F00141EA041122F095
:103090000A021A438161026230BD30B50B46144604
:1030A000026A056A25F010050562816921F4704104
:1030B00041EA043122F0A00242EA03128161026275
:1030C00030BD70B505466C6A0020E085E08420467E
:1030D000FFF79CF970BD00BF00BF02680C3252E8D8
:1030E000002F22F4907102680C3242E80013002B8A
:1030F000F3D100BF00BF00BF0268143252E8002FB6
:1031000022F001010268143242E80013002BF3D1CF
:1031100000BF016B01290ED100BF00BF02680C3255
:1031200052E8002F22F0100102680C3242E800132E
:10313000002BF3D100BF202180F842100021016351
:10314000704710B504462068C06820F04000216830
:10315000C860202084F841002046FFF792FC002040
:1031600010BDF8B5044694F84200222875D1A06835
:10317000B0F5805F0CD1206950B90025A66A20689F
:103180004068C0F308003080A06A801CA06215E08F
:10319000A56A0026A068B0F5805F03D0A06828B9B2
:1031A000206918B920684068287004E020684068E9
:1031B00000F07F002870A06A401CA062E08D401ED5
:1031C00080B2E085002846D12068C06820F0200049
:1031D0002168C8602068C06820F480702168C860D9
:1031E0002068406920F0010021684861202084F8AF
:1031F000420000206063206B012826D1002020635C
:1032000000BF00BF21680C3151E8001F21F0100001
:1032100021680C3141E80002002AF3D100BF206888
:10322000006800F0100010280AD100BF00200090B4
:1032300020680068009020684068009000BF00BFD0
:10324000A18D2046FFF7E1F802E02046FFF7FAFAE9
:103250000020F8BD01E00020FBE70220F9E70000B4
:1032600070B504462168096921F44051E2681143B0
:10327000226811612269A1681143626941EA02056D
:103280002168C96841F20C62914329432268D160E8
:103290002168496921F44071A26911432268516192
:1032A0002D4A2168914202D1FEF74AFA01E0FEF769
:1032B00037FA00EBC00101EB001162689200B1FB2C
:1032C000F2F100EBC00202EB001263689B00B2FB5C
:1032D000F3F26423B2FBF3F202EBC20303EB02123C
:1032E000A1EB8201322202EB01116422B1FBF2F167
:1032F00001F0F00100EBC00202EB001263689B00DA
:10330000B2FBF3F26423B2FBF3F201EB021200EB27
:10331000C00101EB001163689B00B1FBF3F100EB0E
:10332000C00303EB00136668B600B3FBF6F3642634
:10333000B3FBF6F303EBC30606EB0313A1EB830128
:10334000322303EB01116423B1FBF3F101F00F0110
:1033500011442268916070BD0038014010B50346E9
:1033600099629A85DA8500205864222083F8420009
:10337000186928B11868C06840F480701C68E06063
:103380001868406940F001001C6860611868C068F6
:1033900040F020001C68E060002010BD014691F85C
:1033A0004100212828D18868B0F5805F0BD10869D9
:1033B00048B90A6A1088C0F308000B685860086AA8
:1033C000801C086205E00B6A581C086218780B68BC
:1033D0005860C88C401E80B2C88458B90868C0685C
:1033E00020F080000B68D8600868C06840F040009A
:1033F0000B68D860002070470220FCE72DE9F041FF
:1034000004460D4617469846069E34E0701C88B365
:103410002EB1FDF7CBFEA0EB0800B0422BD900BFC8
:1034200000BF21680C3151E8001F21F4D0702168E1
:103430000C3141E80002002AF3D100BF00BF00BFF9
:103440002168143151E8001F21F001002168143176
:1034500041E80002002AF3D100BF202084F8410097
:1034600084F8420000BF002084F8400000BF032021
:10347000BDE8F081FFE7206800682840A84201D13C
:10348000012000E00020B842C0D00020F0E700009A
:1034900010B50248FEF7C6FF10BD0000B8010020BD
:1034A00000BFFEE702480068C0F30220704700003A
:1034B0000CED00E010B5002804DB0A07130E054AE6
:1034C000135406E00A07140E034A00F00F031B1FF3
:1034D000D45410BD00E400E018ED00E002E008C89C
:1034E000121F08C1002AFAD170477047002001E07E
:1034F00001C1121F002AFBD170470000FDF768FED2
:10350000FFF763FCFFF740FBFFF724FBFFF7BCFA74
:10351000FFF720FCFFF796FBFFF7CAFB6420FDF7DF
:103520009BFC0948FCF7C8FF0848FEF77FFC062211
:1035300007490548FDF7FCF9012206490648FFF74F
:103540006BF900BFFEE700004800002004010020E6
:103550003C00002014000020B801002010B50446F3
:10356000012C09D10022C1030948FDF719FE0022F0
:1035700021020848FDF714FE4CB90122110205484A
:10358000FDF70EFE0122D1030148FDF709FE10BD33
:10359000000C01400008014070B504464FF6FF7072
:1035A000001B401F85B20948006845620748FEF7C6
:1035B00007FC03E005480068406A85B24FF6FA70E0
:1035C0008542F7DB0148FEF76DFC70BDBC000020B2
:1035D000F5040500330B05009911050000180500DE
:1035E0003D1E0500A32405000A2B050047310500F8
:1035F000AE370500EB3D050051440500B84A050013
:10360000F55005005C570500995D05000064050054
:103610003D6A0500A3700500E1760500477D0500C1
:1036200085830500EB890500289005006696050056
:10363000CC9C05000AA3050070A90500AEAF0500EB
:10364000EBB5050051BC05008FC20500CCC80500D4
:1036500033CF050070D50500AEDB0500EBE10500BA
:1036600051E805008FEE0500CCF405000AFB0500CB
:1036700070010600AE070600EB0D060028140600D8
:10368000661A0600A32006000A270600472D06003A
:1036900085330600C2390600004006003D4606009C
:1036A0007A4C0600B8520600F5580600335F060053
:1036B00070650600AE6B0600EB7106002878060008
:1036C000667E0600A3840600E18A06001E910600BD
:1036D0005C970600999D0600D7A3060014AA060071
:1036E00051B0060066B60600A3BC0600E1C20600A3
:1036F0001EC906005CCF060099D50600AEDB0600A9
:10370000EBE1060028E8060066EE0600A3F40600DA
:10371000B8FA0600F500070033070700470D070059
:1037200085130700C21907000020070014260700B0
:10373000512C070066320700A3380700E13E07005E
:10374000F5440700334B0700475107008557070032
:10375000C25D0700D7630700146A070028700700DE
:10376000667607007A7C0700B8820700CC880700DD
:103770000A8F07001E9507005C9B070070A10700D9
:1037800085A70700C2AD0700D7B3070014BA07002A
:1037900028C007003DC607007ACC07008FD207007B
:1037A000A3D80700E1DE0700F5E407000AEB0700F5
:1037B00047F107005CF7070070FD0700850308006C
:1037C000C2090800D70F0800EB150800001C08000C
:1037D0001422080051280800662E08007A340800D8
:1037E0008F3A0800A3400800B8460800CC4C0800F7
:1037F000E15208001E590800335F080047650800C1
:103800005C6B08007071080085770800997D0800DE
:10381000AE830800C2890800D78F0800EB95080026
:10382000009C080014A2080028A8080014AE080094
:1038300028B408003DBA080051C0080066C6080058
:103840007ACC08008FD20800A3D808008FDE0800C9
:10385000A3E40800B8EA0800CCF00800E1F608008C
:10386000CCFC0800E1020900F50809000A0F090074
:10387000F51409000A1B09001E2109000A27090086
:103880001E2D0900333309001E390900333F09009A
:1038900047450900334B0900475109005C570900AF
:1038A000475D09005C630900476909005C6F090016
:1038B000477509005C7B0900478109005C870900A6
:1038C000478D09005C930900479909005C9F090036
:1038D00047A509005CAB090047B109005CB70900C6
:1038E00047BD090033C3090047C9090033CF0900A8
:1038F00047D5090033DB09001EE1090033E7090061
:103900001EED09000AF30900F5F809000AFF090095
:10391000F5040A00E10A0A00CC100A00E1160A00C8
:10392000CC1C0A00B8220A00A3280A008F2E0A0025
:10393000A3340A008F3A0A007A400A0066460A0059
:10394000514C0A003D520A0028580A003D5E0A0008
:1039500028640A00146A0A0000700A00EB750A0065
:10396000D77B0A00C2810A00AE870A00998D0A003F
:1039700085930A0070990A005C9F0A0047A50A0017
:1039800033AB0A001EB10A00E1B60A00CCBC0A0043
:10399000B8C20A00A3C80A008FCE0A007AD40A006F
:1039A00066DA0A0051E00A0014E60A0000EC0A0098
:1039B000EBF10A00D7F70A00C2FD0A0085030B00ED
:1039C00070090B005C0F0B0047150B000A1B0B0066
:1039D000F5200B00E1260B00A32C0B008F320B000F
:1039E0007A380B003D3E0B0028440B00144A0B00B4
:1039F000D74F0B00C2550B00855B0B0070610B00AD
:103A00005C670B001E6D0B000A730B00CC780B007B
:103A1000B87E0B007A840B00668A0B0028900B009E
:103A200014960B00D79B0B00C2A10B0085A70B00BF
:103A300070AD0B0033B30B00F5B80B00E1BE0B000B
:103A4000A3C40B008FCA0B0051D00B0014D60B007F
:103A500000DC0B00C2E10B0085E70B0070ED0B00F2
:103A600033F30B00F5F80B00B8FE0B00A3040C00B9
:103A7000660A0C0028100C00EB150C00D71B0C007C
:103A800099210C005C270C001E2D0C00E1320C006B
:103A9000CC380C008F3E0C0051440C00144A0C0032
:103AA000D74F0C0099550C005C5B0C001E610C009C
:103AB000E1660C00A36C0C0066720C0028780C0008
:103AC000EB7D0C00AE830C0070890C00338F0C0072
:103AD000F5940C00B89A0C007AA00C003DA60C00DE
:103AE00000AC0C00C2B10C0085B70C0047BD0C0047
:103AF0000AC30C00CCC80C0066CE0C0028D40C0005
:103B0000EBD90C00AEDF0C0070E50C0033EB0C00C1
:103B1000CCF00C008FF60C0051FC0C0014020D00D0
:103B2000AE070D00700D0D0033130D00F5180D00DC
:103B30008F1E0D0051240D00142A0D00AE2F0D0014
:103B400070350D00333B0D0002030405060708091C
:103B50000A0B0C0D0E0F10100102020304050607DC
:103B600008090A0B0C0D0E0F1010010200000000D6
:103B7000000000000102030406070809000000001D
:103B800001020304A43B0008000000203C000000E8
:103B9000DC340008E03B00083C000020C4050000C5
:103BA000EC34000844520000000000000000000057
:103BB0000000000000000000000000CAFDBEDDD2D1
:103BC000E7B3F628B4F3D3DA323536290D0A00000C
:103BD0000000000010000000010000000024F400BC
:04000005080000ED02
:00000001FF
