S3250800000020CE0020DD010008873D0008CD370008853D0008250B000859490008000000005A
S32508000020000000000000000000000000953F0008E90D0008000000005D3E0008973F000857
S32508000040F7010008F7010008F7010008F7010008F7010008F7010008F7010008F701000892
S32508000060F7010008F7010008F7010008F7010008F7010008F7010008F7010008F701000872
S32508000080F7010008F7010008F7010008F7010008290B0008F7010008F7010008F701000816
S325080000A0F701000841400008F7010008F701000839410008F7010008F7010008F701000827
S325080000C0F7010008F7010008F7010008F7010008F7010008F7010008E1480008F7010008E1
S325080000E0F7010008F7010008F7010008F7010008F7010008F7010008F7010008F7010008F2
S32508000100F7010008F7010008F7010008F7010008F7010008F7010008F7010008F7010008D1
S32508000120F7010008F7010008F7010008F7010008F70100080000000000000000F7010008B1
S32508000140F7010008F7010008F7010008F7010008F7010008F7010008F7010008F701000891
S32508000160F7010008F7010008F7010008F7010008F7010008F7010008F70100080000000071
S3250800018000000000F70100080000000000000000F70100080000000000000000F701000851
S325080001A0000000000000000000000000F7010008F7010008F7010008F7010008F701000831
S325080001C0F7010008DFF810D000F006FC00480047A17C0008AFF3008020CE0020064880476F
S325080001E006480047FEE7FEE7FEE7FEE7FEE7FEE7FEE7FEE7FEE7FEE725400008C50100082F
S325080002002DE9F05F0546002092469B4688460646814640241BE0284641464746224600F02D
S3250800022020FA53465A46C01A914110D311461846224600F007FA2D1A67EB01084F46224621
S325080002400120002100F0FEF917EB00094E41201EA4F10104DFDC484631462A464346BDE897
S32508000260F09F40EA01039B0703D009E008C9121F08C0042AFAD203E011F8013B00F8013B35
S32508000280521EF9D27047D2B201E000F8012B491EFBD270470022F6E710B513460A46044633
S325080002A01946FFF7F0FF204610BD2DE9FE4F804681EA0300C00F0C46009021F0004123F00C
S325080002C00045B8EB0200A94105D24046214690461C460B46024623F00040104347D0270DB6
S325080002E0C7F30A00C3F30A510290401A019040286BDAC3F3130040F4801B0098924620B118
S325080003000023D2EB030A63EB0B0B01985946C0F14002504600F096F906460D46504659466A
S32508000320019A00F0AEF910EB08006141002487EA115284EAE7731A4340D0009A62B3019A61
S32508000340012A4FEA075215DC001B61EB02014FF0004202EA0752CDE90042001C41F58011D6
S3250800036032462B4600F0E5F903B0BDE8F08F40462146F9E7001B61EB0201001C41F58013C5
S3250800038000185B412018A2F5001747EB030140EAD570B6196D4111E06D084FEA360645EA89
S325080003A0C0754FEA0752001B61EB0201001C41F5801149084FEA30000019514132462B46CD
S325080003C003B0BDE8F04F00F0A5B90098012240000023D0EB020263EBE073009821464FEA74
S325080003E0E074B8EB000061EB0401E9E783F000435BE781F0004158E72DE9FE4F81EA030419
S3250800040004F0004421F0004100944FF0000B23F0004350EA01045ED052EA03045BD0C3F37F
S325080004200A54C1F30A552C44A4F2F3340194A0FB0254C1F3130141F48011C3F3130343F4F9
S32508000440801301FB024400FB034E840A970A44EA815447EA8357A4FB076802958D0A05FBF4
S3250800046007854FEA932C04FB0C542705029D4FEA065847EA1637B5EB08056EEB070C870EFD
S32508000480920E47EA811742EA8312A7FB0201B6EB0B0164EB00042B0D43EA0C335E1844EB36
S325080004A01C50DA465146E7FB0201C5F313044FEA0B3343EA14534FEA0432019C43EA06030A
S325080004C0A4F10C040294009CCDE900B400F031F903B0BDE8F08F00200146F9E72DE9F04D42
S325080004E081EA030404F0004B21F0004514464FF0000A23F0004150EA050220D054EA01027E
S325080005001DD0C5F30A570246C5F31303C1F31300C1F30A5640F4801543F48013A7EB0608A3
S32508000520101BD64608F2FD3873EB050002D308F1010801E092185B41B8F1000F03DA002021
S325080005400146BDE8F08D00204FF48011064684460EE0171B73EB050705D3121B63EB050335
S3250800056006434CEA010C49084FEA300092185B4150EA0107EDD152EA030012D082EA040050
S3250800058083EA0501084305D0101BAB4106D20122002306E000224FF0004302E06FF00102B7
S325080005A053101AEB06004CEB085110EB0A0041EB0B01BDE8F04D00F0ADB800F0004230F069
S325080005C000400AD0C10D01F56071C0F3160042EA0151C208400711437047002001467047DD
S325080005E001F0004330B421F0004150EA010206D00A0DA2F56072C1F31301002A02DC30BC34
S3250800060000207047440F44EAC104C100E01830BC00EBC25000F047B830B50B460146002081
S325080006202022012409E021FA02F59D4205D303FA02F5491B04FA02F52844151EA2F1010211
S32508000640F1DC30BD202A04DB203A00FA02F1002070479140C2F1200320FA03F319439040A8
S325080006607047202A04DB203A21FA02F00021704721FA02F3D040C2F12002914008431946DD
S325080006807047202A06DBCB17203A41FA02F043EAE07306E041FA02F3D040C2F120029140B5
S325080006A00843194670470029A8BF7047401C490008BF20F00100704710B4B0FA80FC00FA6C
S325080006C00CF050EA010404BF10BC704749B1CCF1200421FA04F411FA0CF118BF0121214338
S325080006E00843A3EB0C01CB1D4FEA00614FEA102042BF002010BC704700EBC35010440029FC
S32508000700A4BF10BC7047401C490008BF20F0010010BC704710B5141E73F1000408DA401C48
S3250800072041F1000192185B411A4301D120F0010010BD2DE9F04D92469B4611B1B1FA81F239
S3250800074002E0B0FA80F220329046FFF77BFF04460F4640EA0A0041EA0B0153465A46084367
S3250800076013D0114653EA010019D0C8F140025046FFF777FF05460E46504659464246FFF7BB
S3250800078061FF084305D0012004E020463946BDE8F08D0020054346EAE0762C4337430A9846
S325080007A06305E40AA0EB08000022FD0A44EA47540A3002D500200146E9E70105101969412F
S325080007C0DDE9084500196941BDE8F04DA2E770B521F0004303430CD0C1F30A550024D5EB38
S325080007E0040564EB0403D617AD1AB34102DB0020014670BD201841EB025170BD2DE9F04D3C
S3250800080000231A461B1A8A4103DB00200146BDE8F08DC1F30A52C1F3130141F480154FF0FF
S32508000820000BD10702D100186D41521E0027044640F2FF11384601EB620A3E4680460246A3
S3250800084000204FF48011FFF70CFFC2197141BB1846EB0100B4EB030C75EB000C04D3E41A14
S3250800086065EB000517460E46241908F101006D4180463428E3DDF91946EB0600091BA84147
S3250800088003D24FF0FF32134601E0002213461BEB070046EB0A51BDE8F04DFFF73BBF2DE9CF
S325080008A0FE4FC3F30A5701F000450024C1F30A56C3F31303C1F3130143F4801312EB020AF1
S325080008C0A64641F48011009543EB030CA7F1010B16E0B0EB0A0061EB0C01071E71F1000760
S325080008E007DA4FF00008D0EB080085F0004568EB0101171A73EB0107EBD3761E0018494165
S325080009005E45F6DA50EA010209D0CDE900E5002213460296FFF70DFF03B0BDE8F08F204653
S325080009200099F9E70EB5C10F80EAE0700844CA07002140F233438DE80E000A460B46FFF7E3
S32508000940F8FE03B000BDC1F30A52C1F3130140F2FF3341F480119A4202DA0020014670474B
S3250800096040F233439A42A2F2334202DC5242FFF778BEFFF767BE000030B5041E71F10004B6
S3250800098004DB4FF00044404264EB0101141E73F1000405DB1C464FF00043524263EB0403CD
S325080009A08B4208BF824230BD30B5041E71F1000404DB4FF00044404264EB0101141E73F1AC
S325080009C0000405DB1C464FF00043524263EB0403994208BF904230BD064C074D06E0E06823
S325080009E040F0010394E8070098471034AC42F6D3FFF7ECFBACA60008CCA60008464910B553
S32508000A004A6822F440324A604A6843681A434A6001684A6822F480724A6001684A6803692C
S32508000A2042EA03224A6001684A6822F040724A6001684A6883681A434A6001688A6822F4A6
S32508000A4000628A6001688A68C3681A438A60816A6FF07062D14201688A6822F070628A6017
S32508000A6001688A680CD0836A1A438A6001688A6822F040528A6001688A68C36A1A4301E04E
S32508000A8022F040528A6001688A6822F002028A6001688A68037E42EA43028A6090F8201070
S32508000AA0002901684A680FD042F400624A6001684A6822F460424A6001684A68174C436A1B
S32508000AC004EB43331A4301E022F400624A600168CA6A22F47002CA620168CA6A838B104CEB
S32508000AE004EB03531A43CA6201688A6822F400728A6001688A6890F8303042EA43228A608F
S32508000B0001688A6822F480628A6001688A68406942EA8020886010BD0023014000E0FFFFC3
S32508000B200000F0FFFEE7000010B5034800F0FDFEBDE8104000F090B82C0C002000B58BB063
S32508000B4000200D4A01210590CDE90601526804905201CDE900204FF4F072CDE902200E207A
S32508000B60CDE908106946054800F0E4FD002801D000F03BF90BB000BD180200202C0C0020A5
S32508000B80FEB5344C170A02F0FF0C64680E0A44F47875009C1A0A65F31704009400240825D5
S32508000BA0C9B2DBB2062853D2DFE800F00306122636460194029446E001948DF80440012088
S32508000BC08DF805008DF8066002948DF807103AE0019402948DF8044002208DF808708DF8AE
S32508000BE005008DF809C08DF806608DF80A208DF807108DF80B3026E001948DF80440032017
S32508000C0002948DF805008DF806608DF808708DF807108DF809C016E001948DF8044004205C
S32508000C2002948DF805008DF806608DF808208DF807108DF8093006E001948DF8044005202B
S32508000C4002948DF805008DF80350684606F05CFBFEBD00001802002000B58BB003AA0021E0
S32508000C60094801AB00F0EDFD00280AD107988DF803000399009861F317000090684607F091
S32508000C801DFC0BB000BD00002C0C00200EB5094980B2496841F43872009962F317010091EF
S32508000CA004218DF8031001A908F07EFD684606F02BFB0EBD1802002010EE100A084901EB28
S32508000CC0600100EE901A0749A1EB600001EE100A40EE010AB6EE000A20EE800A7047000092
S32508000CE000F8BC1FDF59375F10B50C4608490968884205D10146074806F060FCA04201D031
S32508000D00012010BD03F004FE0028FAD0022010BD18000020000002080020411E820002F1CB
S32508000D20E022C2F88011C2F88012401C0828F5DB0248016881F308884068004700000608FC
S32508000D402DE9F047204A0E4611688B19B3F5003F37D804469246884600F0C8F8B7080025E3
S32508000D60DFF8689010E000BF08EB850101EB090054F8251000F09CF8092804D000F090F8F7
S32508000D804FF0FF3016E06D1CBD42EDD300F088F8002049460BE000BF08EB800254F82030BF
S32508000DA05258934202D06FF0010003E0401CB842F2D30020DAF800203244CAF80020BDE867
S32508000DC0F0870120FBE70000180000200000020810B506F01BFE08B1012010BD0149002064
S32508000DE0086010BD180000207047704701490860704700000C3C024070B50646002529B1A7
S32508000E00012927D0022928D04FF4407500F080F809281ED1124C206820F44070206020684E
S32508000E2028432060206820F0F8002060206846F0020108432060206840F48030206000F041
S32508000E4067F8216821F002012160216821F0F801216070BD4FF48075D8E74FF40075D5E75B
S32508000E60103C02400D4909200A68D20301D5012070470A68D20601D5062070470A68D2051C
S32508000E8001D5022070470A6812F0E00F01D00720704709688907FBD5082070470C3C024049
S32508000EA00248016841F0004101607047103C024070B50D46064600F02BF8092813D10A4C17
S32508000EC0206820F440702060206840F400702060206840F001002060356000F019F8216834
S32508000EE021F00101216070BD103C024005480068002805DA034804490C38016003490160EF
S32508000F0070470000103C024023016745AB89EFCD08B509208DF80000FFF7A4FF8DF8000035
S32508000F209DF800000128F7D09DF8000008BD10B5EFF3108472B602F03BFF84F3108810BD59
S32508000F4000B5EFF3108372B602F01EFF83F3108800BD0000DFED020A30EEC00A00F002B8ED
S32508000F60DB0FC93FDFED100A02E000BF30EE200AB5EEC00AF1EE10FAF8D30C4910EE100A14
S32508000F80884202DB30EE600AF8E7DFED090A094920EE200ABDEEC00A10EE100A01EB8000D3
S32508000FA090ED000A70470000DB0FC940DB0FC94083F9A24248990008014890ED0A0A704725
S32508000FC02C06002070B590F83C206A4D012A19D0012280F83C200A6807230468092A13D9BF
S32508000FE0E6680A3A02EB420293409E43E6600A788B680A3A02EB420293400268D46823435D
S32508001000D36010E0022070BD266902EB420293409E4326610B788A6803EB43039A40036867
S325080010201C6922431A610268936B23F4401393630268936B0C8A504E06EB04542343936334
S325080010400A790B7CD21AD21C02EB82021F2393400268946B9C4394630A790B7CD21AD21CF5
S3250800106002EB82030A8892B29A4003689C6B22439A638A69AA420268936823F4702393608B
S32508001080026893680CD08C69234393600268936823F44013936002689368CC69234301E010
S325080010A023F4401393604A7D002A0268536802D043F4806301E023F4806353600A7D002A84
S325080010C00268536802D043F4805301E023F4805353604A68012A16D0022A1FD0032A02680E
S325080010E027D0136A6FF30B0313620268136ACC6823431362224B0468204A9C4227D10C6806
S32508001100122C20D023E0026853696FF30B03536102685369CC6823435361EBE7026893699A
S325080011206FF30B03936102689369CC6823439361E0E7D3696FF30B03D3610268D369CC68C8
S325080011402343D361D6E7546844F48004546004689C420AD10968A1F18053123B01D01129AB
S3250800116003D1516841F400015160002180F83C10084670BD01000F000000F0FF002301402A
S325080011800020014008B5002200920368521F1A60012911D002290CD0032906D0042901D007
S325080011A0009808BD0068806C01E00068406C009008BD0068006CFAE70068C06BF7E7000000
S325080011C018B50021009190F83C20012A07D0012280F83C2002689368DB0702D011E0022079
S325080011E018BD936843F001039360284A284B1268B2FBF3F202EB420200E0521E0092002AB9
S32508001200FBD102689368DB0735D0036C42F20104A34343F480530364036CDB0500D44164E1
S3250800122080F83C106FF0040111601A4949680068C906816801F440110FD0D1B10022416861
S32508001240154B41F38021491C98421CD1DAB1D1B1816841F48001816015E041B100214268E0
S3250800126042F38022521C71B1002AF1D10BE00121F5E70122E3E7016C41F010010164416C76
S3250800128041F001014164002018BD00006C00002040420F00002301400020014078B5002440
S325080012A0009490F83C20012A19D0012280F83C200A6807230568092A13D9EE680A3A02EBEE
S325080012C0420293409E43EE600B788A680A3B03EB43039A400368DD682A43DA6010E0022089
S325080012E078BD2E6902EB420293409E432E610B788A6803EB43039A4003681D692A431A6144
S325080013004A681F23072A13D205686E6B521E02EB820293409E436E630A8893B20A79521E3F
S3250800132002EB820293400268556B2B43536327E005680D2A12D22E6BD21F02EB82029340B0
S325080013409E432E630B790A88DB1F92B203EB83039A4003681D6B2A431A6311E0EE6A0D3AFE
S3250800136002EB820293409E43EE620B790A880D3B92B203EB83039A400368DD6A2A43DA629F
S325080013801B4B0568194A9D420AD10D68122D07D1556825F400055560556845F48005556003
S325080013A005689D421DD1134D0B68AB4201D0112B17D1536823F480035360536843F4000333
S325080013C053600968A9420CD10B490C4A0968B1FBF2F101EB8101490000E0491E00910029B1
S325080013E0FBD180F83C40002078BD00000023014000200140120000106C00002040420F00C6
S325080014000068C06C704770B504004FF0000503D0206C002610B107E0012070BD204600F035
S325080014201DF8666484F83C60206CC00610D4206C20F4885040F0020020642046FFF7DEFA0F
S325080014406664206C20F0020040F00100206400E0012584F83C60284670BD0000F0B587B0CC
S32508001460044614216846FEF715FF3649DFF8D0C0236800253348143901270324324A334E7E
S32508001480634518D1036843F480730360006800F480700590086840F004000860086800F068
S325080014A004000590086840F002000860086800F0020005901CE0DFF898C0634528D103684D
S325080014C043F400730360006800F400700590086840F004000860086800F00400059008681B
S325080014E040F0020008600868022700F002000590009769461046CDE9014500F0A9FC694648
S3250800150030460097CDE9014500F0A2FC07B0F0BD104A9342FAD1026842F48062026000687C
S3250800152000F480600590086840F0010008600868009700F00100059069460748E2E70000D7
S325080015400020014044380240000802400004024000210140002201400000024018B50021D9
S32508001560009190F83C20012A07D0012280F83C2002689368DB0702D011E0022018BD9368F3
S3250800158043F0010393602E4A2E4B1268B2FBF3F202EB420200E0521E0092002AFBD10268A3
S325080015A09368DB0742D0036C40F20164A34343F48073036453685B0505D5036C23F40053E3
S325080015C043F480530364036CDB0404D5436C23F00603436400E0416480F83C101A496FF0E8
S325080015E02203136049680068CA06184906D0884224D1816811F0405F13D01FE08842F8D069
S32508001600134A904203D1D1F80423D206F1D0114A904213D1D1F8041301F01F011029E8D33A
S325080016200CE0816841F08041816007E0016C41F010010164416C41F001014164002018BD7F
S325080016406C00002040420F0000230140002001400021014000220140F0B590F820500468CC
S32508001660A468012D05D0022D03D0416A41F480215DE014F0406F01D1E50055D5C4F30164DD
S32508001680022C03D9416A41F4000150E00125A5401D608D684FF4C0739DB1CE6835434E687C
S325080016A045EAC605066803EB0417F5514FF4C275076805EB04150E697E51097D012905D0A8
S325080016C009E00E88CD6845EA4655EBE701684E5946F480764E511179D579567941EA056195
S325080016E095792D0445EA062529434FF4C676056806EB0416A9511178D57841EA0561957872
S3250800170052782D0445EA022211434FF4C475026805EB04155151006803EB0411425842F051
S32508001720010242500020F0BD416A41F4001141620120F0BD10B590F82020012A07D0022A1C
S3250800174005D0416A41F480214162012010BD3B48D0F8002242F00102C0F80022D0F800222E
S3250800176022F47C52C0F80022D0F800224B6A42EA0322C0F800220A7D02F01F0301229A403B
S32508001780D0F81C329343C0F81C32CB69B3B9D0F80C329343C0F80C328C894B6864F31F4356
S325080017A04C6900EBC404C4F840320C890B6864F31F434C6900EBC404C4F84432CB69012BCA
S325080017C016D1D0F80C321343C0F80C320C884B6864F31F434C6900EBC404C4F840320C8997
S325080017E0CB6864F31F434C6900EBC404C4F844328B69002BD0F804320ED01343C0F8043216
S325080018000B69002BD0F8143208D01343C0F81432096A012904D008E09343EFE79343F5E72A
S32508001820D0F81C121143C0F81C12D0F8001221F00101C0F80012002010BD00000064004022
S32508001840704730B590F82040012C05D0022C03D0416A41F480215DE00468002955D02469EE
S32508001860A40754D04FF4D874056804EB01142D5915F00405956005682D594ED0ED08556047
S3250800188005682C5904F00204D4604FF4DA74056804EB01142D5905F00F05156105682D5920
S325080018A0C5F30725956105682C59240C54614FF4DC72046802EB0112A4581C700468A4587C
S325080018C0240A5C700468A458240C9C700468A258120EDA704FF4DE72046802EB0112A45891
S325080018E01C710468A458240A5C710468A458240C9C710468A258120EDA71006881B1016970
S3250800190041F020010161002030BDE468A8E7416A41F400114162012030BD6D0D1560AFE7F6
S32508001920C16841F02001C160EDE72DE9F05F0546006800244669D0F804908768D0F80CB06F
S32508001940D0F810A0D0F81880F10748D0F90714D001218160B80703D5284600F0E2F90CE0EE
S32508001960780702D54FF4006407E0380702D54FF4805402E0284600F0D3F9F80516D52968C3
S325080019804FF480708860B80503D5284600F0CBF90CE0780502D544F4005407E0380502D5A0
S325080019A044F4804402E0284600F0BCF9F80316D529684FF480308860B80303D5284600F0E5
S325080019C0B4F90CE0780302D544F4004407E0380302D544F4803402E0284600F0A5F9300798
S325080019E007D55FEACB6004D52968102044F40074C86070074FF0080707D55FEA0B7004D5DD
S32508001A002868C760284600F059F9B00706D52868C068800702D0284600F051F9700607D5B4
S32508001A205FEACA6004D52968102044F480640861B00607D55FEA0A7004D528680761284672
S32508001A4000F03EF9F00606D528680069800702D0284600F036F9B00308D55FEAC96005D5C5
S32508001A60296810204860284600F02CF9F00307D55FEA097004D528684760284600F056F91E
S32508001A80300446D55FEA497040D5F00504D55FEAC87001D044F00104B00504D55FEA8870AA
S32508001AA001D544F00204700504D55FEA487001D544F00404300529D518F0700F26D008F0FF
S32508001AC07000402815D006DC102809D020280AD0302816D10AE050280ED0602811D10EE04F
S32508001AE044F008040DE044F010040AE044F0200407E044F0400404E044F0800401E044F40D
S32508001B0080742868816921F070018161296804204860002C05D0686A204368622846FFF724
S32508001B208FFEBDE8F09F70B5040003D094F8200010B104E0012070BD204600F081F82068E4
S32508001B40016841F00101016000F076FA0546052604E000F071FA401B0A2811D820684068BF
S32508001B60C007F6D02068016821F00201016000F063FA05460BE000F05FFA401B0A2806D92C
S32508001B80606A40F40030606284F82060D2E7206840688007EFD4207E0128206801683DD053
S32508001BA021F080010160607E01282068016838D021F040010160A07E01282068016833D036
S32508001BC021F020010160E07E0128206801682ED041F010010160207F01282068016829D099
S32508001BE021F008010160607F01282068016824D021F004010160D4E902010843D4E904121A
S32508001C00114308436168491E08432168C86100206062012084F82000002070BD41F080014C
S32508001C20C0E741F04001C5E741F02001CAE721F01001CFE741F00801D4E741F00401D9E70B
S32508001C4010B586B0044614216846FEF723FB18492068884229D117480021026842F0007200
S32508001C600260006800F00070059012481038026842F002020260006800F0020005904FF4C1
S32508001C80407000900220CDE9010103200390092004906946084800F0DBF801221146142039
S32508001CA000F03AFA142000F029FA06B010BD00000064004040380240000402407047704716
S32508001CC0704770477047000070B5044690F82000012804D0606A40F40020606218E00220C3
S32508001CE084F820002068016821F00101016000F0A3F905460EE000BF00F09EF9401B0A283D
S32508001D0008D9606A40F400306062052084F82000012070BD20684068C007EDD1606270BD31
S32508001D2070477047704770477047704770472DE9F0410446876D00F07FF9064694F835009A
S32508001D400025022806D08020606584F834500120BDE8F0812068016821F0160101602068B2
S32508001D60416921F080014161206C08B9A06C20B12068016821F0080101602068016821F0DF
S32508001D80010101600CE000F057F9801B052807D920206065032084F8350084F83450D7E767
S32508001DA020680068C007EED194F85C103F208840B860012084F8350084F834500020C7E7C8
S32508001DC090F83510022903D08021416501207047052180F835100068016821F001010160E3
S32508001DE00020704770B5044600F026F90546601C02D004480078044400F01EF9401BA04297
S32508001E00FAD370BD6000002000EB4001C1EBC0104FF6FF7101EAC000AFF3008070B54FF6A6
S32508001E20FA710A4D081A84B228684462284600F0BBFF4FF6F971286801E0426A94B28C424C
S32508001E40FBD3BDE87040014801F02AB8940D00202DE9F84FDFF8ACA10022012403254FF045
S32508001E600F090AF1040BAAF1040E00BF0B6804FA02F63340B3426ED10F7907F00307012FFD
S32508001E8001D0022F16D187684FEA420805FA08FC27EA0C07D1F80CC00CFA08FC4CEA070CCA
S32508001EA0C0F808C04768B7430E79C6F3001696403E4346600E79F643B6070AD0C6684FEADA
S32508001EC0420C05FA0CF7BE438F6807FA0CF73743C7600E7906F00306022E10D1D60800EBA7
S32508001EE08608D8F8206057074FEAD76C09FA0CF7BE430F6907FA0CF73743C8F82070066861
S32508001F004FEA420C05FA0CF7BE430F7907F0030707FA0CF7374307604E6816F4403F6BD041
S32508001F20394E376847F480473760366822F0030706F480460096354E07EB060CDCF80868F9
S32508001F4097074FEA177809FA08F7BE43304FB84202D100271FE04FE02E4FB84201D10127F8
S32508001F6019E02D4FB84201D1022714E02B4FB84201D103270FE02A4FB84201D104270AE03C
S32508001F80284FB84201D1052705E0274FB84201D1062700E0072707FA08F73743CCF80878A4
S32508001FA0DAF800605746D1F804C09E435FEACC2C00D51E433E60DBF800605F46D1F804C05C
S32508001FC09E435FEA8C2C00D51E433E60DEF800607746D1F804C09E435FEA8C3C00D51E4395
S32508001FE03E60084F083F3E68D1F804C09E435FEACC3C00D51E433E60521C102AFFF436AFDE
S32508002000BDE8F88F083C01404438024000300140000002400004024000080240000C0240B2
S325080020200010024000140240001802400AB1816170470904FBE70000014880687047000065
S3250800204060000020024881680278114481607047600000200B4810B5016841F40071016050
S32508002060016841F480610160016841F480710160032000F071F8002000F006F800F024F8EC
S32508002080002010BD003C024070B50D4D04464FF47A712878B1FBF0F00A490968B1FBF0F054
S325080020A000F02DFD48B9102C07D200222146501E00F032F800206C6070BD012070BD00006A
S325080020C0600000206C0000200B4882B0016841F480410160006800F4804000900648001F88
S325080020E0016841F080510160006800F080500090052002B000F030B844380240002809DBD5
S3250800210000F01F02012191404009800000F1E020C0F8001170470000F0B40E4B1B680C46A1
S32508002120C3F30223C3F10705042D00D90425191D072901D2002300E0DB1E012606FA05F171
S32508002140491E214099409E40761E16403143F0BC02F05DBC0CED00E0064900F0070208684C
S325080021604FF6FF03184040EA0220034A10430860704700000CED00E00000FA05BFF34F8F3F
S3250800218005480168054A01F4E06111430160BFF34F8F00BFFDE700000CED00E00400FA0532
S325080021A02DE9F8431748016841F0805101600068154F00F08050012600903E64FFF73CFF7F
S325080021C005464FF47A78114C05E000BFFFF734FF401B40450DD86068C003F7D57E64FFF753
S325080021E02BFF0546464607E0FFF726FF401BB04202D90320BDE8F88360688003F4D500202F
S32508002200F8E700004038024000000E42007000402DE9F0470E46050065D0DFF81481D8F800
S325080022200000F7B200F00F00B04207D288F80070D8F8000000F00F00B04254D128683D4C2E
S32508002240810712D5400703D5206840F4E05020602878000703D5206840F460402060206893
S32508002260A96820F0F000084320602878C0072DD0304968680839012812D0022813D0032843
S3250800228011D00968890700292DDA216821F0030101432160FFF7D0FE814641F2883A0EE04D
S325080022A009688903EFE709688901ECE7FFF7C4FEA0EB0901514502D90320BDE8F0872068EA
S325080022C0696800F00C00B0EB810FEFD1D8F80010404601F00F01B14207D90770006800F02F
S325080022E00F00B04201D00120E7E72878400705D52068E96820F4E0500843206028780007BF
S3250800230006D52068296920F4604040EAC100206000F038F82168084AC1F30311515CC84023
S325080023200649086006480068FFF7AEFE0020C4E7003C0240083802405CA500086C00002020
S32508002340640000200448054900680968044AC1F38221515CC84070476C0000200838024059
S325080023606CA500080448054900680968044AC1F34231515CC84070476C00002008380240D4
S325080023806CA50008224810B5006810F00C02214815D04110042A11D01D4C241F082A0FD006
S325080023A00C2A0CD12268236802F03F025B0221D52068C0F38810A0FB010120E0084610BDD6
S325080023C02268236802F03F025B0205D52068C0F38810A0FB010104E02168C1F38811A1FBAA
S325080023E000010023FDF70CFF2168C1F30141491C49000AE02168C1F38811A1FB00010023FF
S32508002400FDF7FEFE2168C1F30271B0FBF1F010BD083802400024F4002DE9F84F04007DD06D
S32508002420DFF878B32078ABF10407C007A7F1040550D0DBF800105846C1F3810101290FD005
S325080024400168C1F38101022902D13968490207D40068C0F38100032809D13868400206D5AC
S325080024602868800336D560680028D8D032E06068B0F5803F10D0B0F5A02F286810D020F482
S3250800248080302860286820F4802028606068A0B1FFF7D2FD06460CE0286840F48030F4E7C5
S325080024A040F480202860F7E7FFF7C6FD801B642876D828688003F7D50CE0FFF7BDFD0646DF
S325080024C005E000BFFFF7B8FD801B6428F0D828688003F7D42078DFF8C89280074FF0000A39
S325080024E044D5DBF80010584611F00C0F0FD00168C1F38101022902D13968490207D500686C
S32508002500C0F3810003280AD13868400207D42868800715D5E068012800D111E03AE1E0681F
S32508002520B0B10120C9F80000FFF786FD064604E0FFF782FD801B0228BAD828688007F7D5F2
S325080025402868216920F0F80040EAC10028600DE0C9F800A0FFF770FD064604E0FFF76CFD98
S32508002560801B02281CD828688007F7D42078000727D5DFF828828B48616908F16C0881B15A
S3250800258001210160FFF758FD064604E0FFF754FD801B022804D8D8F800008007F6D510E035
S325080025A089E0C0F800A0FFF747FD064605E000BFFFF742FD801B02287DD8D8F8000080077C
S325080025C0F6D42078400769D574484FF0000838300068C0000BD471483830016841F0805108
S325080025E0016000684FF0010800F0805000906E4E3068C00511D4306840F480703060FFF72C
S325080026001BFD009006E000BFFFF716FD0099401A022850D83068C005F6D5604EA068683695
S3250800262001280FD00528306810D020F001003060306820F004003060A068B8B1FFF7FCFCA3
S3250800264000900FE0306840F00100F4E740F004003060F7E7FFF7F0FC0099411A41F28830E6
S32508002660814264D830688007F4D50EE0FFF7E4FC009007E0FFF7E0FC0099411A41F2883079
S32508002680814254D830688007F4D4B8F1000F05D042483830016821F080510160A069A8B3C7
S325080026A0DBF80010C1F38101022947D00228C9F860A005D000E03AE0FFF7BEFC044639E0E4
S325080026C0FFF7BAFC064604E0FFF7B6FC801B02282DD828688001F7D4F4E907010843E16849
S325080026E0324A490802EB0141A26841EA82110843217C40EA0160217D40EA017038600120A3
S32508002700C9F86000FFF798FC044606E044E000BFFFF792FC001B022809D828688001F7D566
S325080027203AE000BFFFF788FC001B022802D90320BDE8F88F28688001F4D42DE00128F7D0F3
S325080027403868E26900F48001914223D1226A00F03F0191421ED147F6C071626A0140B1EBAF
S32508002760821F17D1A26A4FF0FF3300F4403103EB5202B1EB024F0DD194F82C2000F070613A
S32508002780B1EB026F06D194F8301000F0E040B0EB017F01D00120CBE70020C9E7083802405A
S325080027A000004742800E4742007000400000FFFF70B5040009D0606A002540B1256165618F
S325080027C0A56294F8510040B10CE0012070BD6068B0F5827FF4D0E561F2E784F85050204609
S325080027E000F044F8022084F851002068016821F040010160A088218900F4827001F404411A
S325080028000843A18901F400610843217C01F002010843217D01F001010843218B01F40071CA
S325080028200843217F01F03801084394F8201001F080010843218D01F4005108432168086081
S32508002840A069042101EA104094F8241001F010010843216848602068C16921F40061C16179
S325080028606565012084F85100002070BD30B587B0044614216846FDF70DFD234D22680021E3
S32508002880224802230324AA421BD1204A1432156845F480551560126802F4805205920268A9
S325080028A042F0010202600068CDE9021400F001000590E020CDE9000305200490694614483C
S325080028C01EE0144DAA421DD1104A1032156845F400451560126802F400420592026842F0C0
S325080028E0040202600068CDE9021400F0040005904FF4E050CDE900030620049069460648C2
S32508002900FFF7A6FA07B030BD003001403038024000000240003C0040000802402DE9F84FEF
S32508002920044690F8500000270A9E1D4692468B464FF0010901280ED0012084F85000FFF759
S325080029407BFB804694F85100616801280CD0B1F5827F07D102E00220BDE8F88FA16809B908
S32508002960042801D00227C2E0BBF1000F27D0BAF1000F24D01DB394F85100042802D0052051
S3250800298084F8510000206065C4F838A0E587A587C4F830B0E586A5862064606420680168E0
S325080029A0490603D4016841F040010160E068B0F5006F606805D0E8B3012D46D07FE0012748
S325080029C095E008B1012D39D1206B21680088C860206B801C2063E08E401EE0862EE020684D
S325080029E0816889070FD5E18E69B1B9F1010F0AD1216B0988C160206B801C2063E08E401E9A
S32508002A00E0864FF0000920688168C9070CD0E18F51B1C068A16B0880A06B801CA063E08F96
S32508002A20401EE0874FF00109FFF706FBA0EB0800B04200E009E001D3701C50D1E08E00281E
S32508002A40CDD1E08F0028CAD13FE0206B216800780873206B401C2063E08E401EE0862EE0C8
S32508002A602068816889070FD5E18E69B1B9F1010F0AD1216B09780173206B401C2063E08EEC
S32508002A80401EE0864FF0000920688168C9070CD0E18F51B1C068A16B0870A06B401CA06377
S32508002AA0E08F401EE0874FF00109FFF7C5FAA0EB0800B04202D3701C01D010E07EB1E08E92
S32508002AC00028CDD1E08F0028CAD142463146204601F0D8F928B101272020606507E00327B2
S32508002AE005E0A06818B92068C16880680090012084F85100002084F8500038462CE710B5B1
S32508002B00401EB0F1807F01D3012010BD4FF0E02460610F21601701F07AFF0020A06107208A
S32508002B202061002010BD7047704710B590F83C20012A22D0012280F83C20CA688C6822F4B2
S32508002B40407222434C6822F4806222430C6822F4006222430C6922F4805222434C6922F461
S32508002B6000522243C969002322F480420A4301684A6480F83C30002010BD022010BD00003F
S32508002B8070B590F83C20012A32D0012480F83C40022280F83D2003685A689D6822F0700625
S32508002BA00A6832435A60134B02689A4214D0B2F1804F11D0104B9A420ED0104B9A420BD064
S32508002BC00F4B9A4208D00F4B9A4205D00E4B9A4202D00E4B9A4204D1496825F08003194318
S32508002BE0916080F83D40002180F83C10084670BD022070BD00000140000400400008004065
S32508002C00000C004000040140004001400018004010B50446022249B104290ED0082913D0F0
S32508002C2094F84500012816D0012010BD94F842000128F9D184F842200FE094F84300012832
S32508002C40F2D184F8432008E094F844000128EBD184F8442001E084F845200422206801F0E6
S32508002C60CCFB2068416C41F40041416411492068884214D0B0F1804F11D00F4988420ED04E
S32508002C800E4988420BD00E49884208D00D49884205D00D49884202D00C49884204D181686D
S32508002CA001F00701062903D0016841F001010160002010BD00000140000400400008004054
S32508002CC0000C004000040140004001400018004010B5040003D094F83D0010B107E001204E
S32508002CE010BD002084F83C00204600F01FF8022084F83D00211D206801F00EFB012084F87C
S32508002D00460084F83E0084F83F0084F8400084F8410084F8420084F8430084F8440084F8B8
S32508002D20450084F83D00002010BD000008B501681A4881420FD11A48016841F00101016010
S32508002D400068012200F00100009000211920FFF7E3F919201EE01248001FB1F1804F0BD031
S32508002D60104A914207D1016841F010010160006800F01000009008BD016841F0010101607A
S32508002D800068032200F00100009001211C20FFF7C3F91C20BDE80840FFF7B0B9000001403E
S32508002DA0443802400010004090F83D10012901D001207047022180F83D10006811498842DB
S32508002DC014D0B0F1804F11D00F4988420ED00F4988420BD00E49884208D00E49884205D0C4
S32508002DE00D49884202D00D49884204D1816801F00701062903D0016841F0010101600020DD
S32508002E0070470000000001400004004000080040000C0040000401400040014000180040B6
S32508002E2090F83D10012901D001207047022180F83D100168CA6842F00102CA600068114938
S32508002E40884214D0B0F1804F11D00F4988420ED00E4988420BD00E49884208D00D49884250
S32508002E6005D00D49884202D00C49884204D1816801F00701062903D0016841F001010160A8
S32508002E8000207047000001400004004000080040000C004000040140004001400018004016
S32508002EA001680A6A41F211131A4207D10A6A9B101A4203D10A6822F001020A60012180F8C2
S32508002EC03D100020704770B5044690F83C000025012817D0012684F83C60022084F83D003E
S32508002EE02068826822F0770222F47F4282600868502838D00DDC20284FD005DC90B3102872
S32508002F0011D14AE0022070BD302846D040280AD13BE060282FD070280DD0B0F5805F03D029
S32508002F20B0F5005F12D0012584F83D60002084F83C00284670BDCB68D1E90121206801F063
S32508002F4069FA2068816841F0770109E0CB68D1E90121206801F05EFA2068816841F48041B6
S32508002F608160E1E719E0CA684968206801F026FB5021206806E0CA684968206801F02FFBBF
S32508002F806021206801F050FACEE7CA684968206801F014FB40212068F4E7226801461046D4
S32508002FA0F0E7704770B50446006801694FF00005C943890715D4C168C943890711D4E91EBA
S32508002FC0016101202077206880698007204602D0FFF7E7FF04E000F0D9F8204600F06BF95E
S32508002FE0257720680169C943490717D4C168C943490713D46FF0040101610220207720687B
S32508003000806910F4407F204602D0FFF7CAFF04E000F0BCF8204600F04EF92577206801694C
S32508003020C943090716D4C168C943090712D46FF008010161042020772068C069800720462E
S3250800304002D0FFF7AEFF04E000F0A0F8204600F032F9257720680169C943C90617D4C16883
S32508003060C943C90613D46FF010010161082020772068C06910F4407F204602D0FFF791FFBD
S3250800308004E000F083F8204600F015F9257720680169C943C90708D1C168C943C90704D152
S325080030A0891E0161204600F06BF920680169C943090609D4C168C943090605D46FF0800158
S325080030C001612046FFF72FFD20680169C943490609D4C168C943490605D46FF0400101616F
S325080030E0204600F04EF920680169C94389060BD4C168C943890607D46FF0200101612046D2
S32508003100BDE87040FFF710BD70BD000070B586B0044614216846FDF7BDF818492068884278
S325080031202AD117480024016841F002010160016801F002010591016841F0010101600068AD
S32508003140022500F0010005904FF460400090CDE901540126CDE9034669460A48FEF778FEA4
S325080031604FF4E060CDE900050320CDE90240694604960548FEF76CFE06B070BD00000140CF
S32508003180303802400004024000000240704770B5044690F83C0000260D4601280FD0012063
S325080031A084F83C006AB1042A1DD0082A2FD00C2A3FD00126002084F83C00304670BD0220D9
S325080031C070BD206801F038F92068816941F0080181612068816921F00401816120688169A0
S325080031E02A69114311E0206801F056F92068816941F4006181612068816921F480618161ED
S32508003200206881692A6941EA02218161D2E7206801F078F92068C16941F00801C161206832
S32508003220C16921F00401C1612068C1692A69114311E0206801F09AF92068C16941F4006140
S32508003240C1612068C16921F48061C1612068C1692A6941EA0221C161ACE710B5040003D090
S3250800326094F83D0010B107E0012010BD002084F83C00204600F01EF8022084F83D00211D84
S32508003280206801F049F8012084F8460084F83E0084F83F0084F8400084F8410084F84200D7
S325080032A084F8430084F8440084F8450084F83D00002010BD7047704710B50446022249B17F
S325080032C004290ED0082913D094F84100012816D0012010BD94F83E000128F9D184F83E2060
S325080032E00FE094F83F000128F2D184F83F2008E094F840000128EBD184F8402001E084F86D
S3250800330041200122206801F06BF816492068164A884201D0904203D1436C43F400434364E7
S325080033202068884213D0B0F1804F10D00F4988420DD00F4988420AD00E49884207D0904235
S3250800334005D00D49884202D00C49884204D1816801F00701062903D0016841F001010160C3
S32508003360002010BD00000140000401400004004000080040000C004000400140001800401B
S325080033807047704770477047F8B5016804460868CA684B6910F00F0F4FF0000559D003F00F
S325080033A0010602F49077374365D0C10705D0D10503D5216C41F001012164410705D5D907BA
S325080033C003D0216C41F002012164810705D5D90703D0216C41F004012164010707D502F093
S325080033E02001314303D0216C41F008012164216C00293AD0800604D5900602D5204601F028
S325080034002FF920684069216CC0F38010090700D460B3204601F0FDF820684069400621D5C5
S325080034202068143050E8001F21F0400140E80012002AF5D1A06BA8B16C490165A06BFEF760
S32508003440BFFC002811D0A06B016D01B0BDE8F040084783060FD593060DD52046BDE8F84021
S3250800346001F0FEB82046FFF78EFFF8BD2046FFF78AFF2564F8BD266B2023012E79D1C606BD
S3250800348077D5D60675D50868486800904869400640D5A16B086840680004000CEAD0A28DD3
S325080034A08242E7D9E085C869B0F5807F2DD020680C3050E8001F21F4807140E80012002ABE
S325080034C0F5D12068143050E8001F21F0010140E80012002AF5D12068143050E8001F21F084
S325080034E0400140E80012002AF5D184F83E30256320680C3050E8001F21F0100140E800126A
S32508003500002AF5D1A06BFEF712FCA08DE18D401A81B229E0A08DE18D401A81B2E08D0028B1
S32508003520A8D00029A6D020680C3050E8002F22F4907240E80026002EF5D12068143050E8DD
S32508003540002F22F0010240E80026002EF5D184F83E30256320680C3050E8002F22F0100216
S3250800356040E80023002BF5D12046FFF70BFFF8BDFFE705062BD5150629D594F83D002128CA
S32508003580F5D1A068B0F5805F01D12069B0B1206A411C2162216800784860E08C401E00042E
S325080035A0000CE084E3D12068C16821F08001C1602068C16841F04001C160D8E7206A008860
S325080035C0C0F308004860206A801C2062E5E74006CDD55006CBD5CA68204622F04002CA6012
S325080035E084F83D3000F0F1F8C1E700000346000870B5040004D094F83D00002510B106E070
S32508003600012070BD84F83C50204600F023F8242084F83D002068C16821F40051C16020463A
S3250800362001F07EF82068016921F4904101612068416921F02A0141612068C16841F4005194
S32508003640C1602564202084F83D0084F83E00002070BD000010B586B0044614216846FCF797
S3250800366019FE1E492068884235D11D480021026842F400320260006800F40030059018482B
S325080036801038026842F001020260006800F0010005900C2000900220CDE901010390072095
S325080036A0049069460F48FEF7D3FB022201212620FEF732FD2620FEF721FD0B480068C168B2
S325080036C041F02001C160022200212620FEF724FD2620FEF713FD06B010BD00000044004076
S325080036E04038024000000240DC0D002090F83E30202B0ED159B152B190F83C30012B08D092
S32508003700012380F83C300023036301F08FB8012070470220704770472DE9F843044690F847
S325080037203D001F4616460D4620284CD1C5B1BEB194F83C00012846D0012084F83C004FF0C1
S325080037400008C4F84080212084F83D00FEF774FCA6848146E684A068B0F5805F03D004E0DA
S325080037600120BDE8F883206928B12E465FF0000584F83C800EE00026FAE78021204601F0AB
S3250800378072F8A0B9AEB116F8010B21684860E08C401EE084E08C4B464FF000020097002883
S325080037A0EBD14FF04001204601F05DF830B10320D7E735F8020BC0F30800E6E7202084F8D3
S325080037C03D000020CDE70220CBE77047FEE7000013488068002821D012491148124B0A6A79
S325080037E0801C9A4203DD038843F0010303800F4B9A4203DA028842F0020202800C4BCA6840
S325080038009A4203DD028842F0080202800969094A914203DD018841F010010180704700001B
S32508003820000000208008002000001842000040410000C8420000F042F8B50D4E3088B41E09
S325080038402188884212D02088A51E28B1FDF778FB0020A8600120E860208830806888ADF8DC
S3250800386000000098BDE8F840FDF710BAF8BD00000400002070B58CB00024089409940A94D2
S32508003880202168460B94FCF705FD1F481D494FF480360160C0E901640461047680F82040AB
S325080038A01A49C0E90A140125C561C46080F830404561FDF7A8FD08B1FDF797FA0820CDE91D
S325080038C0080508A90A941048FDF7E8FC08B1FDF78CFA0A20CDE900054FF480100294CDE917
S325080038E006608DF8154004958DF81440694606480394FDF767FB002801D0FDF776FA0CB005
S3250800390070BD000000200140540B00200100000F70B58CB00024089409940A942021684631
S325080039200B94FCF7B7FC1F481D494FF480360160C0E901640461047680F820401A49C0E93C
S325080039400A140125C561C46080F830404561FDF75AFD08B1FDF749FA0920CDE9080508A965
S325080039600A941048FDF79AFC08B1FDF73EFA0B20CDE900054FF480100294CDE906608DF8E4
S32508003980154004958DF81440694606480394FDF719FB002801D0FDF728FA0CB070BD0000BE
S325080039A0002101409C0B00200100000F7FB5002415480094019402941249039401604FF4B6
S325080039C08031C0E901140461047680F820400F49C0E90A140125C561C46080F83040456196
S325080039E0FDF711FD08B1FDF700FACDE90045694605480294FDF752FC002801D0FDF7F5F966
S32508003A007FBD000000220140E40B00200100000F104810B50E4901600521416000214FF4DA
S32508003A20A0228160C0E903124FF4801242610176417681760122C27601774177FEF773F88F
S32508003A40002803D0BDE81040FDF7CFB910BD0000006400402C0C00202DE9F04186B0142171
S32508003A606846FCF717FC23480024016841F080010160016801F080010591016841F0040169
S32508003A800160016801F004010591016841F001010160016801F001010591016841F0020136
S32508003AA001600068144F00F0020048F210050590002229463846FEF7B9FADFF84080002286
S32508003AC040214046FEF7B2FA0095022601250396CDE9015469463846FEF7BAF940200394FD
S32508003AE08DE8610069464046FEF7B2F906B0BDE8F08100003038024000000240000402400F
S32508003B00104810B50E4901604FF48271416000214FF40062C0E9021292100161C0E90512A4
S32508003B200822C0E90721416281620A21C162FEF73FFE002803D0BDE81040FDF756B910BDB6
S32508003B4000300140540C0020104810B50E4901604FF48271416000214FF40062C0E9021237
S32508003B600122C0E904125202C0E906210162416281620A21C162FEF71BFE002803D0BDE84C
S32508003B801040FDF732B910BD003C0040AC0C002030B595B000240F94109411941294139440
S32508003BA01C2168461494FCF775FB202107A8FCF771FB3B483949C0E900142021816040F698
S32508003BC0C901C0E903140121416180218161FFF77FF808B1FDF709F94FF480500F900FA980
S32508003BE02F48FFF770F908B1FDF7FFF82C48FFF734FB08B1FDF7F9F87025CDE9135413A998
S32508003C002748FEF7BDFF08B1FDF7EFF8602000904FF4E160CDE901040420CDE903400594DD
S32508003C20002269461E480694FFF7B1FA08B1FDF7DCF840F265400190042269461848FFF7F0
S32508003C40A6FA08B1FDF7D1F8082269461448FFF79EFA08B1FDF7C9F840F6C500CDE900500E
S32508003C600C2269460E48FFF792FA08B1FDF7BDF807945A200894CDE909404FF40050CDE926
S32508003C800B4007A906480E94FEF74FFF08B1FDF7ACF80348FFF73AFA15B030BD000001402F
S32508003CA0040D002010B586B000241648009401940294039404944FF08041059401605921E6
S32508003CC0C0E9011440F2E731C0E903148461FEF7FFFF08B1FDF789F84FF4805000906946B6
S32508003CE00848FFF7F0F808B1FDF77FF8049404A904480594FEF744FF002801D0FDF775F8A8
S32508003D0006B010BD4C0D00201CB500240E4800940C49019401605921C0E901144FF6FF7182
S32508003D208461C160FEF7D4FF08B1FDF75EF80094694605480194FEF723FF002801D0FDF77B
S32508003D4054F81CBD00100040940D00200C4810B50A4901604FF47A314160002181600C2293
S32508003D60C160C0E904128161C161FFF741FC002803D0BDE81040FDF738B810BD00440040F9
S32508003D80DC0D0020FEE77047084801684A6C22F400424A6402686FF00101116100680269EB
S32508003DA0D243D207FBD1016170470000040D0020294810B50168CA6A00EE102AF8EE400AC6
S32508003DC0B6EE000A60EE800AFCEEE00A10EE902A4A630168CA6A00EE902AF8EE600A60EE33
S32508003DE0800AFCEEE00A10EE902A8A630168CA6A00EE902AF8EE600A20EE800ABCEEC00A11
S32508003E0010EE102ACA6301686FF001020A6101680B69DB43DB07FBD10A610068416C41F49B
S32508003E200041416400210C48FFF746FA00210A48FEF7EEFE04210848FFF73EFA0421064879
S32508003E40FEF7E6FE08210448FFF736FABDE8104008210148FEF7DCBE040D00207047000002
S32508003E6007489FED060A80ED2A0A80ED2B0A80ED2E0A80ED2C0A80ED2D0A70470000000063
S32508003E808008002038B504461248134B0068B0FBF3F04FF47A73584300906068B0F5827FBE
S32508003EA00DD10B46009200228021204600F016F870B1606D40F020006065032038BD009859
S32508003EC030B1401E009020688068C0430006F6D5002038BD6C00002000366E012DE9F8432A
S32508003EE01E46914688460446089DFEF7A5F8401B351AFEF7A1F8074625480068C0F3CB3022
S32508003F00684338E0701C37D0FEF796F8C01BA84203D215B1009860B32CE02068416821F061
S32508003F20E00141606068B0F5827F0BD1A068B0F5004F02D0B0F5806F04D12068016821F06E
S32508003F4040010160A06AB0F5005F09D12068016821F4005101602068016841F40051016039
S32508003F60012084F85100002084F850000320BDE8F8830025401E00902068816838EA01006F
S32508003F8004D000214945BDD10020F0E70121F9E76C0000207047FEF755B8000030B593B09C
S32508003FA034216846FCF776F914210DA8FCF772F91A480025016841F080510160006800F09B
S32508003FC0805012901648016841F4404101600068022400F440401290012000900004019099
S32508003FE08001CDE9064004200890B420CDE909040B9468460C94FEF70FFAFEF7D1F80DA984
S325080040000F2081E831004FF4A0501090E002119005210DA8FEF7FCF813B030BD4038024045
S32508004020007000400548016841F47001016003494FF00060803908607047000088ED00E0ED
S3250800404010B501213248FDF79DF8324C012120603148FDF797F831496060D4F88420096831
S325080040609FED2F0A00292168A1EB020100EE901AF8EEE00A60EE800AC4ED050AD4F88810C8
S32508004080A0EB010001EE100AB8EEC11A21EE000A08D0F1EE600A84ED060A30EEC00A84EDE8
S325080040A0070A07E0F1EE600A84ED070A30EEC00A84ED060A9FED1B0A1B4804F0E5FD1A487A
S325080040C01A4990ED030A84ED0C0AD0ED060A91ED070A80EE801A84ED0B1AD0ED040A80EE2B
S325080040E0801A9FED130A21EE000A84ED0D0A90ED050A84ED0E0A303405F084F9FCF7ACFD47
S32508004100E06E401CE066BDE810400A48FEF74ABF540B0020800800209C0B00201802002034
S325080041200000A53C17B7D1372C06002018010020DB0FC940040D002010B562482DED0E8BE9
S32508004140FDF70CFA6048FDF709FA6048FDF706FA5E48FDF755F900EE100A5D4CB8EEC00A13
S32508004160DFED5C0AA06060EE200A94ED080A70EE600A9FED599A544800EEC90A84ED080ACD
S32508004180FDF73EF900EE100AB8EE400A9FED538A20EE080ADFED529A4A4860EE298AFDF726
S325080041A02FF938EE681A00EE100AC8EE810AB8EE400A20EE080A20EE290ADFED4A8A38EEC1
S325080041C0401A21EE281A60EEA80AC1EE009A80EEA80A10EE100AFCF7F0F941EC100B00F091
S325080041E0BBFC9FED41AB51EC100B53EC1A2BFCF775F99FED3FBB53EC1B2BFCF756F841ECCC
S32508004200100B9FED3DCB53EC102B51EC1C0BFCF765F99FED3BDB53EC1D2BFCF7E7F89FED2B
S325080042203AEB53EC1E2BFCF740F8FCF7D9F989EEA80A08EE100A10EE100AFCF7BEF941ECAB
S32508004240100B00F089FC53EC1A2B51EC100BFCF745F953EC1B2BFCF728F841EC100B51EC96
S325080042601C0B53EC102BFCF739F953EC1D2BFCF7BDF853EC1E2BFCF718F8FCF7B1F9D4ED52
S32508004280030A00EE100A30EEC81A41EE490AC4ED030AD4ED040A30EEC00A40EE490AC4EDD2
S325080042A0040A1B4C207818B105F006FA00202070FFF78EFABDEC0E8BBDE810401548FEF76E
S325080042C071BE0000540B00209C0B0020E40B0020800800200303883C0AD7233C33335340A1
S325080042E00000803900401C46000000000058AB40000000E0E1796B3F000000000000F03FFF
S325080043000000006066127140000000000000E03F5C0000204C0D0020F0B50268254C264DFF
S32508004320264E274F274B4FF0804CA04209D0604507D0A84205D0B04203D0B84201D09842A8
S3250800434004D122F0700E4A6842EA0E02A0421BD0604519D0A84217D0B04215D0B84213D01C
S32508004360984211D0184DA8420ED0184DA8420BD0174DA84208D0174DA84205D0164DA84287
S3250800438002D0164DA84203D122F44075CA682A434D6922F080022A4302608A68C2620A6811
S325080043A08262A04201D0984201D10969016301214161F0BD00000140000400400008004098
S325080043C0000C00400004014000400140004401400048014000180040001C0040002000409B
S325080043E010B501F01F030121046A99408C430462016A9A401143016210BD10B501F01F0398
S325080044000421046A99408C430462016A9A401143016210BD10B5846842EA032224F47F4447
S325080044200A432243826010BD826822F070020A4342F0070181607047F0B5026A22F001025A
S325080044400262036A42688469124E24F073050C682C4323F002058B682B430D4DA84201D087
S32508004460B04205D123F00807CB683B4323F00403A84201D0B04205D14D6922F44072154320
S325080044808A692A4342608461496841630362F0BD0000014000040140F0B5026A22F0100205
S325080044A00262026A436884690D6824F4E64444EA05248D6822F0200242EA05120F4D104E52
S325080044C0A84201D0B04206D1CF6822F0800242EA071222F04002A84201D0B04207D14D69AB
S325080044E023F4406343EA85038D6943EA850343608461496881630262F0BD00000000014025
S3250800450000040140F0B5026A22F480720262026A4368C46922F4007224F073050C68124E9F
S325080045202C438D6842EA05220E4DA84201D0B04206D1CF6822F4006242EA072222F48062DB
S32508004540A84201D0B04207D14D6923F4405343EA05138D6943EA05134360C4614968C1634B
S325080045600262F0BD000001400004014030B5026A22F480520262046A4268C3690D6823F429
S32508004580E64343EA05238D6824F4005444EA0534084DA84202D0084DA84204D14D6922F4D6
S325080045A0804242EA85124260C36149680164046230BD0000000001400004014010B5036A81
S325080045C0046A24F001040462846924F0F00444EA021423F00A020A438461026210BD10B560
S325080045E0036A23F0100303628369046A23F4704343EA023224F0A00343EA011182610162F4
S3250800460010BD10B5806B0021C185C184FEF7BBFE10BD01680C3151E8002F22F4907241E899
S325080046200023002BF5D10168143151E8002F22F0010241E80023002BF5D1016B012909D180
S3250800464001680C3151E8002F22F0100241E80023002BF5D1202180F83E100021016370479A
S3250800466008B590F83E10222901D0022008BD82684FF480539A4201D1016921B1816A9A42E5
S325080046801BD04AB10AE00268816A5268C2F308020A80816A891C08E0026972B102685268BA
S325080046A002F07F020A70816A491C8162C18D491E0904090CC18503D019E002685268F1E7E7
S325080046C00168CA6822F02002CA600168CA6822F48072CA6001684A6922F001024A612021E9
S325080046E080F83E10016B012903D0FFF714F8002008BD0021016301680C3151E8002F22F0F1
S32508004700100241E80023002BF5D101680A68D20602D50A6849680091818DFEF733FEE6E7FD
S3250800472070B5044600680169E26821F44051114301612169A068E2690843616911430843F3
S325080047402168CA6849F20C639A430243CA6020684169A26921F4407111434161314920689F
S32508004760884202D03049884202D1FDF7FBFD01E0FDF7E8FDE2690023192164253226B2F5A3
S32508004780004F626828D0A0FB0101930F9200FBF737FD0146B0FBF5F06FF01802504301EB34
S325080047A0800006EB0010B0FBF5F000F0F002B1FBF5F002EB0012B1FBF5F06FF018035843C2
S325080047C001EB800006EB0010B0FBF5F000F00F0021681044886070BDA0FB010192185B41FA
S325080047E0FBF70EFD0146B0FBF5F00201B1FBF5F06FF01803584301EB800006EBC000B0FB66
S32508004800F5F000F0F80002EB4002B1FBF5F0584301EB800006EBC000B0FBF5F000F00700BE
S32508004820D6E70000001001400014014081628285C28500210164222280F83E2080F83C1072
S32508004840016921B10168CA6842F48072CA6001684A6942F001024A610068C16841F0200142
S32508004860C160002070472DE9F041984617460E460446069D27E0681C25D02DB1FDF7DCFB46
S32508004880A0EB0800A8421ED920680C3050E8001F21F4D07140E80012002AF5D1206814302F
S325080048A050E8001F21F0010140E80012002AF5D1202084F83D0084F83E00002084F83C00CB
S325080048C00320BDE8F0812068006836EA000004D00020B842CFD00020F3E70120F9E70000F9
S325080048E038B50A4C206840688DF800000121684604F0B6F804F072FB2068C16841F02001DC
S32508004900C1602046FEF740FD38BD0000DC0D002010B5FCF7EBFAF120FCF768FA022130205C
S32508004920FCF76AFA092804D0FCF7BAFA4FF0FF3010BDFCF7B5FA064806490268521C02D042
S325080049406FF0010010BD001D8842F6D3002010BD0000040800140408FEE7000010B5084C55
S3250800496000209FED080A206284ED0A0A9FED060A204604F089F994ED060A84ED0A0A10BD09
S325080049802C0600200000000017B7D1370FB4054B10B503A9044A029801F060FC10BC5DF807
S325080049A014FB0000797B00087000002003B401984100009850EAC12018BF04204A0D18BFE1
S325080049C040F0010040F2FF72B2EB515F08BF40F00200012808BF052002B0704741000802E6
S325080049E018BF04200A0E18BF40F001004FF07F4232EA010108BF40F00200012808BF052062
S32508004A00704720F00040C0F1FF40C00F70470907090E002804DB00F1E02080F800147047A9
S32508004A2000F00F0000F1E02080F8141D7047B4EEE00AF1EE10FA01DCB0EE600A7047B4EE65
S32508004A40E00AF1EE10FA01D3B0EE600A7047000010B52DED040B86B09DED060B10EE100A0B
S32508004A6010EE901A8DED000B002818BF0120084320F00040C0F17F6000F1E040C00F21D1DE
S32508004A809DED080B10EE101A10EE900A8DED000B002918BF0121084320F00040C0F17F60D9
S32508004AA000F1E040C00F0DD129490798B1EB400F04BF0698002842D00998400004BF08984F
S32508004AC000283CD09DED080B53EC102B9DED060B51EC100BFBF7E3FECDE902019DED020B67
S32508004AE040F2FF7110EE900A8DED000B31EA105021D00798039900F0004001F00041884216
S32508004B0019D09DED080B8DED040B9DED020B8DED000B10EE900A059961F31E0005909DED95
S32508004B20041B9DED020B51EC110B53EC102BFBF760FCCDE902019DED020B0AB010BD012098
S32508004B4001F0C4FA0AB0BDE8104001F0C1B900000000E0FF0000000070B5D94B00242DED18
S32508004B60020B2DED108BDDE91010984205DA20F000429A4201D809D141B19DED100BBDECA5
S32508004B80108B02B0BDE8704001F08EB9B0F5801F26DA11430BD0002813DA012001F096FA03
S32508004BA0BDEC108B02B0BDE8704001F091B9022001F08CFA01F060F951EC100B81F0004174
S32508004BC09EE06FF035049FEDC00B53EC102B9DED100B51EC100BFBF70FFCCDE910010846D1
S32508004BE004EB2051C0F31304B948A1F2FF31204400F4801080F07F6282F04052224301EB2B
S32508004C0020559FEDB50B119253EC102B9DED100B51EC100BFBF7EAFB41EC180BA01CC0F315
S32508004C2013009FEDAFDB9FEDB0EBB14E7E4403286CD296ED000B51EC180B53EC102BFBF792
S32508004C409BFE1DD1002D01BF96ED000BBDEC108B02B070BD2846FBF765FE41EC180B53ECCF
S32508004C601D2BFBF7C9FB41EC190B53EC1E2B51EC180BFBF7C1FB53EC192BFBF716FB3FE09C
S32508004C809FED9D0B51EC180B53EC102BFBF7B4FB9FED9B1B53EC112BFBF7ABFB41EC190BB1
S32508004CA053EC182B51EC180BFBF7A6FB53EC192BFBF7A2FB41EC190B002D04BF53EC192B9B
S32508004CC051EC180B1AD02846FBF72CFE41EC1A0B53EC1D2BFBF790FB53EC192BFBF789FBA3
S32508004CE053EC182BFBF782FB41EC180B53EC1E2B51EC1A0BFBF780FB53EC182BFBF776FB29
S32508004D00BDEC108B02B041EC100B70BD9FED7E0B51EC180B53EC102BFBF7C7FA41EC100B30
S32508004D2051EC180B53EC102BFBF7D8FB41EC190B2846FBF7F7FD41EC1B0B53EC192B51EC0E
S32508004D40190BFBF759FB41EC1A0B714853EC1A2B261851EC1A0BFBF74FFB41EC1F0B6D4864
S32508004D60C4F1510404F5D724B0EE4F0AF0EE6F0A0321784401F001F853EC1F2B51EC100B2E
S32508004D80FBF73AFB41EC1C0B6348B0EE4F0AF0EE6F0A0421784400F0F0FF53EC1A2B51EC10
S32508004DA0100BFBF729FB344353EC1C2BFBF77DFA41EC1C0B002C4CDD9FED510B51EC180B5D
S32508004DC053EC102BFBF718FB53EC182BFBF714FB41EC1A0B55B353EC1D2B51EC1B0BFBF78D
S32508004DE00BFB41EC1D0B53EC1C2B51EC1A0BFBF75CFA53EC192BFBF7FFFA53EC1D2BFBF733
S32508004E0054FA53EC1A2BFBF7F4FA53EC182BFBF7EDFA41EC180B53EC1E2B51EC1B0BFBF74A
S32508004E20EBFA53EC182BFBF7E1FA69E753EC1C2B51EC1A0BFBF739FA53EC192BFBF7DCFA88
S32508004E4053EC1A2BFBF7D5FA53EC182BFBF7D1FA56E735B353EC1D2B51EC1B0BFBF7CCFAF9
S32508004E6041EC1A0B53EC1C2B51EC180BFBF7BEFA53EC192BFBF7C0FA53EC1A2BFBF7B6FAED
S32508004E8053EC182BFBF7B2FA41EC180B53EC1E2B51EC1B0BFBF7B0FA53EC182BFBF7A6FAF9
S32508004EA02EE753EC1C2B51EC180BFBF79FFA53EC192BFBF7A1FA53EC182BFBF79AFA1FE740
S32508004EC00000F07F000000000000000000005043645F090000000000000000000000F03FC7
S32508004EE0763C7935EF39EA3D0000E0FE422EE63F085A000000000000555555555555D53F0E
S32508004F00000000000000E03F000000000000004086EBF9FF02580000F85700000000000012
S32508004F202DE9F04D2DED040B2DED0E8B96B0DDE92550279CDDF890A025F0004624F0004834
S32508004F40BAF1000F14BF0121002101EB4502FC4953184A1093422AD3002814BF0123002322
S32508004F6003EB44030B44F7498B4220D358EA00019FEDF59B76D0DFF8D8B35D4503D1BAF177
S32508004F80000F05D188E0BAF1000F08BF002100D0012101EB450111F5001F08D8002814BFF0
S32508004FA00121002101EB440111F5001F0BD99DED261B9DED240B16B0BDEC0E8B04B0BDE881
S32508004FC0F04D00F07BBF0027002DBCBFE149884521DAE1498845A8BF02271CDAC3451ADC20
S32508004FE0DE4901EB2851142908DDC1F1340220FA02F101FA02F282420DD108E058B9C1F1C4
S32508005000140228FA02F101FA02F2424503D101F00101C1F1020756EA0A0124D1002C22DAF7
S32508005020002D18BF022F01D0012F0AD0022001F04DF816B0BDEC0E8B04B0BDE8F04D00F06C
S325080050401BBF022001F042F800F016FF51EC100B81F0004141EC100B16B0BDEC0E8B04B008
S32508005060BDE8F08D18E09FEDBEAB9FEDBF8B002871D1B848804522D105F1804010F58010D0
S3250800508008BFBAF1000F07D0B3450ADC002CA8BF9DED260BE0DA0DE0B0EE490AF0EE690A95
S325080050A0DAE7002C06DA9DED260B51EC100B81F000416FE0AE48784490ED000BCCE7D845F7
S325080050C04DD1002C48DA2EB186423AD1BAF1000F42D126E0BAF1000F13D0022000F0F6FF2D
S325080050E000F006FF8DED020B9DED240B8DED000B10EE900A039961F31E0003909DED020B18
S32508005100AAE78DED02AB9DED240B1AEE901A10EE900A8DED000B61F31E0003909DED020BA5
S325080051209AE78DED028B9DED240B18EE901A10EE900A8DED000B61F31E0003909DED020BB7
S325080051408AE709DA9DED240B51EC190B53EC102BFBF7C4F91EE020E09DED240B7CE78642C8
S325080051601BDAB4F1804F0DD0A4F10050B0F1FF5013D1002D11DB9DED240B51EC100B04F004
S3250800518001FA07E09DED240B53EC102B51EC100B00F0C2BC41EC100B5EE79DED240B51ECA3
S325080051A0100B02F057FCBAF1000FCDE90E0142D19FED710B46B3A6F1E040B0F17F600CD0DB
S325080051C05E4538D1002D00DAA7B3022F0CBF01204FF0FF30FBF7A6FBDCE7002D01DD002C9C
S325080051E00DDA002D01DD002C1FDB002D16DA002C14DB012F08BF9FED620B3FF42DAFB0EEB4
S325080052004A0AF0EE6A0A27E7022F18BF002D0CD0012F0AD1002DFFF61FAF06E0002DB8BF36
S32508005220002C08DA012F3FF417AFB0EE480AF0EE680A11E71BE0012000EBE57050EA070153
S3250800524015D0791EB0EE498AF0EE698A084308BF9FED4D8B4E480025804570DD4D494E4813
S32508005260884514DDB0420DDB002C19DB2FE0012000F02CFF16B0BDEC0E8B04B0BDE8F04D7F
S3250800528000F026BEB34502DC002C09DC1FE0864202DA002C1BDA03E05E452BDD002C16DDD4
S325080052A0022000F013FF00F023FE8DED020B53EC1A2B51EC180BFBF79FF8CDE90001039964
S325080052C0019861F31E0003909DED020BC4E6022000F0FCFE00F01CFE10EE901A18EE900A83
S325080052E08DED020B8DED008B61F31E0003909DED020BB1E69DED0E0B53EC192B51EC100B63
S32508005300FBF774F89FED260BCDE9080153EC102B9DED080B51EC100BFBF76EF89FED221B15
S3250800532053EC112BFBF765F89DED081B53EC112BFBF762F89FED1E1B53EC112B3CE08CE059
S32508005340FFFF1F00FFFF0F00000000000000F03F0000F03F0000F07F0000404301FCFFFFCA
S32508005360000000000000F07F00000000000000007E5500000000000000000000000000805D
S32508005380000000000000F0FF000000000000F0BF0000E0410000F043FFFFEF3F00000000E1
S325080053A0000000000000D03F555555555555D53F000000000000E03FFBF71BF89DED080BFD
S325080053C041EC1A0B53EC102B51EC100BFBF714F853EC1A2BFBF710F841EC1A0B9FEDFE0B38
S325080053E053EC102B9DED080B51EC100BFBF704F841EC1B0B9FEDFA0B51EC1A0B53EC102B82
S32508005400FAF7FAFF41EC1A0B9FEDF70B53EC102B9DED080B51EC100BFAF7EEFF53EC1A2BE3
S32508005420FAF7E4FF41EC1A0B51EC1B0B53EC1A2BFAF73BFF0690CDE906519DED060B53ECA9
S325080054401B2B51EC100BFAF7D1FF53EC1A2BFAF7D0FF41EC100B00F0A1B90020B6F5801F9F
S325080054600EDA9FEDE30B53EC102B9DED0E0B51EC100BFAF7C1FFCDE90E016FF034000E46EA
S3250800548000EB2650A0F2FF37C6F31300DA4940F07F6646F040568842D8BF002408DDD7497B
S325080054A08142C8BF012403DC0024A6F580167F1CD348784400EBC4000F9690ED00CB9DEDA3
S325080054C00E0B53EC1C2B51EC100BFAF78FFF9DED0E0B41EC1B0B53EC1C2B51EC100BFAF783
S325080054E0E4FE41EC100B51EC190B53EC102BFAF7F5FF41EC1D0B51EC1B0B53EC1D2BFAF784
S325080055007BFF41EC1A0BBF488DED10AB7844109590ED000B4FF0005040EA660000EB8440BE
S325080055208DED080B00F5002009909DED080B53EC1C2B51EC100BFAF759FF9DED0E1B53EC6C
S32508005540112BFAF756FF41EC100B53EC102B9DED100B51EC100BFAF74FFF9DED080B41ECF3
S325080055601C0B53EC102B9DED100B51EC100BFAF743FF53EC1B2BFAF73CFF53EC1C2BFAF724
S3250800558035FF53EC1D2BFAF737FF41EC1C0B53EC1A2B51EC1A0BFAF72FFF41EC1B0B9A488D
S325080055A00621B0EE4B0AF0EE6B0A784400F0E5FBB0EE401AF0EE601AB0EE41DAF0EE61DAC2
S325080055C053EC1B2B51EC1B0BFAF716FF53EC1D2BFAF712FF9DED100B41EC1B0B53EC1A2BCA
S325080055E051EC100BFAF761FE53EC1C2BFAF704FF53EC1B2BFAF759FE9DED100B41EC1B0BB6
S3250800560053EC102B51EC100BFAF7F6FE41EC1D0B9FED7FEB53EC1E2BFAF747FE53EC1B2B37
S32508005620FAF743FE0890CDE908519DED080B53EC1E2B51EC100BFAF7D9FE53EC1D2BFAF7C6
S32508005640D5FE53EC1B2BFAF7D4FE9DED080B41EC1D0B53EC102B9DED100B51EC100BFAF7C7
S32508005660CBFE41EC1B0B53EC1A2B51EC1D0BFAF7C3FE9DED080B41EC1A0B53EC102B51ECBF
S325080056801C0BFAF7B9FE53EC1A2BFAF70EFE41EC1A0B51EC1B0B53EC1A2BFAF706FE0C90E2
S325080056A0CDE90C519DED0C0B53EC1B2B51EC100BFAF79CFE53EC1A2BFAF79BFE41EC1B0B5F
S325080056C09FED550B53EC102B9DED0C0B51EC100BFAF792FE41EC1A0B9FED510B51EC1B0B3F
S325080056E053EC102BFAF788FE41EC1B0B9FED4E0B53EC102B9DED0C0B51EC100BFAF77CFE95
S3250800570053EC1B2BFAF7D1FD41EC100B4848784400EBC40090ED001B51EC100B53EC112B89
S32508005720FAF7C3FD41EC1B0B3846FBF7FBF8CDE9080153EC1B2B51EC1A0BFAF7B6FD41EC7D
S32508005740100B3C48784400EBC40090ED00CB51EC100B53EC1C2BFAF7A8FD9DED081B53EC89
S32508005760112BFAF7A2FD0690CDE906519DED080B53EC102B9DED060B51EC100BFAF736FE7D
S3250800578053EC1C2BFAF732FE53EC1A2BFAF72EFE53EC1B2BFAF72DFE41EC100B9DED261BFF
S325080057A053EC102B8DED001B00959DED260B51EC100BFAF721FE9DED000B41EC1A0B53ECEE
S325080057C0102B9DED260B51EC100BFAF70FFE9DED061B53EC112B2FE0000000604715F73F48
S325080057E0FE822B654715F73F44DF5DF80BAE543E00000000000040438E9803007AB60B004F
S32508005800FA5000002851000032500000000000000000000000000840000000E009C7EE3F10
S32508005820FD033ADC09C7EE3FF5015B14E02F3EBEBE4E0000784E0000FAF7DEFD53EC1A2BB5
S32508005840FAF733FD9DED060B41EC1A0B53EC102B9DED000B51EC100BFAF7CEFDCDE90C0146
S325080058609DED0C0B51EC1A0B53EC102BFAF71DFDCDE902010C46AA498C422FDB611A0843F6
S3250800588018D19DED0C0B53EC102B9DED020B51EC100BFAF7ABFD41EC1B0B9FEDA30B51ECA4
S325080058A01A0B53EC102BFAF700FD53EC1B2BFBF77BF82DD2022000F009FC00F019FB10EE4B
S325080058C0901A18EE900A8DED020B8DED008B61F31E0003909DED020BFFF7BEBB944A24F0E7
S325080058E00041914214D39349214408437FF4EFAC9DED0C0B53EC102B9DED020B51EC100BFB
S32508005900FAF774FD53EC1A2BFBF74EF87FF6DFAC24F000408849894A002601EB205182421C
S325080059202BDA481C4FF4801121FA00F02044844AC0F30A517A44A1F2FF3192ED000B814AFB
S325080059408DED080BCA4020EA0202C0F3130040F48010C1F1140120FA01F60992002CB8BFF4
S3250800596076429DED080B53EC102B9DED0C0B51EC100BFAF73BFDCDE90C019DED0C0B51EC87
S325080059801A0B53EC102BFAF790FC9FED6F0B0890CDE9085153EC102B9DED080B51EC100BC1
S325080059A0FAF72AFD41EC1B0B9FED690B53EC102B9DED080B51EC100BFAF71EFD9DED0C0B52
S325080059C041EC1C0B53EC102B9DED080B51EC100BFAF70CFD53EC1A2BFAF70BFD9FED5E1B7A
S325080059E053EC112BFAF708FD53EC1C2BFAF75DFC41EC1A0B51EC1B0B53EC1A2BFAF755FCDD
S32508005A00CDE902019DED020B53EC1B2B51EC100BFAF7ECFC53EC1A2BFAF7EBFC9DED020B7F
S32508005A2041EC1A0B53EC102B51EC100BFAF7E4FCCDE908014A489DED080B0521784400F0A3
S32508005A409CF99DED081B51EC100B53EC112BFAF7D3FC9DED021B53EC112BFAF7CAFCCDE9D4
S32508005A6006019DED020B53EC1A2B51EC100BFAF7C3FC53EC1A2BFAF718FC9FED3B0B41EC66
S32508005A801A0B53EC102B9DED060B51EC100BFAF7ADFC9DED060B41EC1B0B53EC102B9DEDDA
S32508005AA0020B51EC100BFAF7A7FC53EC1B2BFAF715FD53EC1A2BFAF799FC9DED021B53EC67
S32508005AC0112BFAF793FC53EC192BFAF792FCCDE9020101EB065001150029C8BF039015DCB5
S32508005AE09DED020B324651EC100BFAF770FEFEF75DFF042808BF00F00BFA32469DED020B8A
S32508005B0051EC100BFAF763FECDE902019DED020B51EC180B53EC102BFAF76EFCFFF73ABB5D
S32508005B200000904000000000FE822B654715973C00CC904000346F3F01FCFFFF0000E03FB0
S32508005B40004D0000FFFF0F0000000000432EE63F396CA80C615C20BEEF39FAFE422EE63F9E
S32508005B60D04B000000000000000000000000004000B510EE101A2DED028B81B0524A6846BD
S32508005B80B2EB410F2ED94FF0E640B0EB410F94BF00204FF0FF3000900098B0EE408A00281A
S32508005BA06ADB10F0010F4BD068EE080A9FED471A9FED470A00EE810A9FED461A10F0020FBF
S32508005BC000EE801AB7EE000A00EE810A02BF01B0BDEC028B00BD00BF01B0B1EE400ABDECA0
S32508005BE0028B00BD3C4B21F00042934241D911F0004FDFED3A0A20EE201ADFED390A19BFF5
S32508005C0031EE601A71EE200A31EE201A71EE600ABDEEE01A11EE100A9FED321A00F00300A9
S32508005C2000EEC10A9FED301A009000EEC10A9FED2F1A00EEC10A9FED2E1A00EEC10AABE7D1
S32508005C4028EE080A9FED2B1ADFED2B0A10F0020F40EE410A9FED291A00EE201A61EE000A62
S32508005C60B0EE480A08EE200AB6D101B0BDEC028B00BD00F071F98FE718EE100A4000B0F10A
S32508005C807F4F0DD218EE100AFEF7A8FE042808BF00F05AF9B0EE480A01B0BDEC028B00BDC4
S32508005CA009D1012000F012FA01B0BDEC028B5DF804EB00F041B901B0B0EE480ABDEC028BF3
S32508005CC05DF804EB00F034B9B61F927EB93AB2BACA9F2A3DDDFFFFBE490E494683F9223F25
S32508005CE00000004B0000C93F00A0FD390020A2331A61342C336D4C39DA82083CA0AA2ABEA6
S32508005D0000B52DED048BB0EE409AF0EE609A83B051EC190BFAF772FD41EC180B18EE100A63
S32508005D2018EE901A8DED008B002818BF0120084320F00040C0F17F6000F1E040C00F14D091
S32508005D4019EE101A19EE900A8DED009B002918BF0121084320F00040C0F17F6000F1E040F0
S32508005D60C00F04BF012000F0B1F9B0EE480A03B0F0EE680ABDEC048B00BD70B504462DED57
S32508005D80028B4D1E00EBC500B0EE408AF0EE608A90ED000B35F0060017D053EC182B51ECC4
S32508005DA0100BFAF729FB41EC100B6D1E04EBC50090ED001B51EC100B53EC112BFAF775FA53
S32508005DC041EC100B35F00600E7D1022D36D0042D1CD0062D1CBFBDEC028B70BD53EC182B45
S32508005DE051EC100BFAF708FB94ED0A1B53EC112BFAF75BFA53EC182BFAF7FEFA94ED081BD3
S32508005E0053EC112BFAF751FA41EC100B53EC182B51EC100BFAF7F0FA94ED061B53EC112BA3
S32508005E20FAF743FA53EC182BFAF7E6FA94ED040B53EC102BFAF739FA41EC100B53EC182BDB
S32508005E4051EC100BFAF7D8FA94ED021B53EC112BFAF72BFA53EC182BFAF7CEFA94ED001B13
S32508005E6053EC112BFAF721FABDEC028B41EC100B70BD0000000000009FED070B10B553EC40
S32508005E80102B9FED070B51EC100BFAF727FB41EC100B10BD0000000000000000000000009B
S32508005EA0000000000000F03F10B553EC102B51EC100BFAF7FAF941EC100B10BD10B553EC11
S32508005EC0112B51EC100BFAF7F0F941EC100B10BD9FED050B10B553EC102B51EC100BFAF70D
S32508005EE0FDFA41EC100B10BD00000000000000009FED050B10B553EC102B51EC100BFAF764
S32508005F007BFA41EC100B10BD00000000000000709FED050B10B553EC102B51EC100BFAF755
S32508005F206BFA41EC100B10BD000000000000001030EE000A70470000DFED020A80EEA00AFA
S32508005F4070470000000000009FED020A20EE000A70470000000000102DE9F0014FF07F42FE
S32508005F60B2EB410F9FBF4FF0FF310160BDE8F00170474FF0004242EA0123C1F3C752783A5B
S32508005F80551112F01F0C434CCCF120067C44C1F3C752A2F178024FEA621204EB820254F8E8
S32508005FA0254008BFD2E9015612D0556804FA0CF425FA06F73C43976805FA0CF527FA06F83F
S32508005FC0D26807FA0CFCF24045EA08054CEA0206A4FB034CA5FB0352A6FB03631D449D429A
S32508005FE034BF012600261319334416B1934202D903E0934201D2012200E00022624402F1F0
S32508006000200C9206DC0C42EA443200EE102A5B03DFED210AF8EEC01A00EE103A4FEA9C1CBE
S3250800602011F0004FB8EE400AC0F800C020EE201A00EE105ADFED190AB8EE400A20EE200AE3
S3250800604071EE810A70EE800A10EE902A02F500626FF30B0200EE902A70EEE11A31EEC11AE5
S32508006060DFED101A30EE411A9FED0D0A20EE800A01EE210A9FED0C1A00EE810A04BFBDE8BB
S32508006080F0017047CCF180510160BDE8F001B1EE400A7047B0460000000000360000802C4D
S325080060A022AAFD29DB0FC92F0000C92F02E008C8121F08C1002AFAD170477047002001E0F6
S325080060C001C1121F002AFBD17047000001490860704700007C0000202DE9FF5F82B0002146
S325080060E0DDE90430020DDDF840B0034318D044F61050A2F2FF3242431514119801281FD0C8
S32508006100A5EB0B00401C5FEA000A4FF000064E4FDFF83891B046504615D5CAF1000413E07D
S32508006120119801244AA3012801D16FEA0B010298119AC0E90031C0E9024206B0BDE8F09F40
S32508006140CBF10000DFE704460021404A491842EB0450CDE9001012E0E00707D032463B4669
S3250800616040464946FAF748F98046894632463B4610461946FAF740F906460F466410002C1C
S32508006180EAD1DDE90401DDE90023BAF1000F06DAFAF732F942464B46FAF72EF905E0FAF7C5
S325080061A09DF942464B46FAF799F904460E460022284BFAF7F9FB03D84FF0FF30014607E010
S325080061C00022254B20463146FAF76FF8FAF7BBFB102409E0002C0ADB0A220023FAF710F8CD
S325080061E0039B30321A55641E50EA0102F2D1641C039AC4F111031444119A012A03D0012296
S3250800620008430DD10AE0084304D000204FF0110B119072E7A3EB0B056D1E0DE05B4504DD32
S325080062204FF0000205F1010504E003DA4FF00002A5F10105002AECD002981199C0E902316F
S32508006240C0E9004579E70000000014400000F03F300000000000F0430000E03F2DE9FF4F79
S3250800626095B09A46884606460025EEE1252877D100242746F94A0121039400E0044316F886
S32508006280013F203B01FA03F01042F7D130782A2811D06FF02F033078A0F13002092A16D855
S325080062A0039A44F0020402EB820203EB42021044761C0390EFE758F8042B0392002A03DAEC
S325080062C0504244F40054039044F00204761C30782E2816D116F8010F44F004042A280DD0C5
S325080062E06FF02F023078A0F13003092B09D807EB870302EB4303C718761CF3E758F8047BB6
S32508006300761C30786C280FD006DC4C2817D068280DD06A2814D104E0742810D07A280FD1BF
S325080063200DE044F400140AE044F4801401E044F440147278824202D104F58014761C761CC1
S32508006340307866280BD013DC582877D009DC002875D04528F6D04628F4D047281AD193E1E3
S3250800636018E0632835D0642879D0652812D18BE1702873D008DC6728F1D069286FD06E2861
S325080063800DD06F2806D1ACE073282CD0752874D0782853D05246179990476D1C54E1C4F349
S325080063A00250022809D003280DD0D8F8001004280DD00D6008F1040846E1D8F80010EA170F
S325080063C0C1E90052F6E7D8F800100D80F2E70D70F0E718F8041B8DF8001000208DF80100D2
S325080063E0EB46012003E058F804BB4FF0FF3061074FF0000102D40DE009F101018946B942AC
S325080064000FDA8145F8DB1BF809100029F4D108E009F1010189468142FADB1BF80910002932
S32508006420F6D103985346A0EB090721463846179A00F080FA284400EB090507E044E008E15F
S325080064400DE01BF8010B524617999047B9F10109F7D2534621463846179AF2E039E00A2141
S32508006460C4F302524FF0000B0091022A06D058F8040BC117032A09D00AE023E008F10700FC
S3250800648020F00702F2E80201904605E000B2C117042A01D140B2C117002906DA0A4600216F
S325080064A0404261EB02012D2202E0220504D52B228DF80420012203E0E20701D02022F7E7F6
S325080064C0914657E00A2100E010214FF0000B00910BE010214FF0000B44F004040827009127
S325080064E003E008204FF0000B0090C4F30252022A05D058F8040B0021032A08D008E008F137
S32508006500070020F00702F2E80201904603E080B2042A00D1C0B24FF0000922072AD53278FA
S32508006520702A07D0DDF800C08CF0100C5CEA0B0C05D00EE040228DF80420012208E050EA3F
S32508006540010306D030238DF804308DF8052002229146009B83F0080353EA0B030AD150EA29
S32508006560010201D1620705D530228DF804204FF001097F1E3278582A04D039A20C920CAAE5
S3250800658002920BE03BA2F9E75B46009AF9F738FE0C9B9B5C029A521E0292137050EA010252
S325080065A0F2D1029804A9081A00F1200B600702D524F4803400E001275F4502DDA7EB0B0053
S325080065C000E0002000EB0B01009003984944401A0390E00306D453462146179A039800F018
S325080065E0A9F90544002706E001A85246C05D179990476D1C7F1C4F45F6DBE0030CD55346CA
S325080066002146179A039800F095F9054404E030205246179990476D1C0099481E009000295E
S32508006620F5DC08E00298029952460078491C0291179990476D1CBBF10001ABF1010BF1DC24
S325080066405BE100F065F90544761C307800287FF40DAE19B02846BDE8F08F0000092801003C
S3250800666030313233343536373839616263646566000000003031323334353637383941421A
S325080066804344454600000000600700D4062708F1070020F00700F0E80223804603F0004C59
S325080066A05FEA0C0001D097A009E0200501D596A005E0E00701D095A001E0AFF24C00139012
S325080066C0307823F0004365280CD006DC452809D046281DD047287FD13BE0662818D06728E3
S325080066E07AD136E00021112F01DB112000E0781CCDE9000104A90CA8FFF7EEFCDDE90D017D
S325080067000C9A4FF0000B07F10109109200914EE04FF000400097CDE9011004A90CA8FFF7E4
S32508006720DBFCDDE90D020C9B0F994FF0000B91461093009211B9791C00EB0109B7EB0900FB
S3250800674003D4C0F1FF3B07F10109A9EB0700019042E0012F00DA01270021112F01DD112077
S3250800676000E03846CDE9000104A90CA8FFF7B4FCDDE90D010C9A00914FF0000BB9461092F9
S3250800678021070FD4009A4A4503DA914601E0A9F10109B9F1010F05DD109AA9F10101515CEF
S325080067A03029F4D0B84202DA10F1040F03DA0121CDE9011010E0002803DC8344A9EB0001AB
S325080067C002E0411C494500DD8946A0EB0B00401C01904FF000400290200705D40198484578
S325080067E002DB4FF0FF30019000208DF84B0002980DF14B07B0F1004F25D002200C902B20E7
S325080068000D90029800280CDA404202902D200D9007E00A210298F9F7FFFE3031029007F89C
S32508006820011D0C99481E0C900029F2DC02980028EFD1791E0D980870307800F0200040F070
S32508006840450007F8020D11A8C01BC01D02901398007800B1012000EB0901019801EBE07114
S32508006860029801440398401A401E0390E00306D453462146179A039800F05CF80544139804
S32508006880007818B15246179990476D1CE00323D553462146179A039800F04CF805441BE062
S325080068A0BBF1000F07DB0098584504DD1098179910F80B0001E017993020524690470198C3
S325080068C00BF1010B401E05F10105019004D12E205246179990476D1CB9F10001A9F101099D
S325080068E0DEDC05E017F8010B5246179990476D1C0299481E02900029F4DC53462146179AEB
S3250800690003989EE62D0000002B000000200000002DE9F041044600251E461746880404D4F7
S3250800692005E039462020B0476D1C641EF9D52846BDE8F0812DE9F041044600251E46904661
S32508006940C80301D5302700E02027880404D505E041463846B0476D1C641EF9D52846BDE8D8
S32508006960F081000070B514462DED048B0D460646F0EE418AB0EE609AF0EE409AFAF7EAFA03
S32508006980F0EE401AB0EE690AB0EE618AFAF7EAFA68EE090A9FED141A9FED142A40EE680AB5
S325080069A060EE011A68EE022A28EE011AC6ED000AF6EE000A48EE601A40EE602A00EE601A32
S325080069C061EE891A42EEE81AC5ED001A60EE021A48EE601A61EE891A41EE681AC4ED001A31
S325080069E0BDEC048B70BD0000D7B35D3FD7B35DBF2DE9F04F06462DED0E8BADF50D7D0C4686
S32508006A00F6A0FDF7C3FFDFEDFEAA4FF46067384601F06AFB8146384601F066FB0546B9F13E
S32508006A20000F7CD0002D7AD04FF4007001F05CFB5FEA000A73D039464846F9F72BFC394642
S32508006A402846F9F727FC4FF400715046F9F722FC384601F049FB8046384601F045FB83465E
S32508006A60B8F1000F5BD0BBF1000F58D039464046F9F710FC39465846F9F70CFC4FF4007178
S32508006A8001A8F9F707FC06F130004FF4007251460090F9F7E6FB384601F026FB8590384655
S32508006AA001F022FB84908598002838D08498002835D039468598F9F7EDFB39468498F9F711
S32508006AC0E9FBDFEDD09AF0EE698A9FEDCFCACDED819AF6EE00BACDED89BA81AA83A982A8A7
S32508006AE0B0EE691AF0EE4C0AB0EE680AFFF73AFF89AA8AA98BA8DDED811A9DED831ADDED05
S32508006B00820AB7EE000A02F075FD0027B7EE008ABE480068C16A490800EE101A00E06AE343
S32508006B20DDED8B0AB8EE400A78EE600A20EE200ABCEEC00A10EE101AC163B54800680028A3
S32508006B40B2480168CA6A4FEA520200EE102A1FD0F8EE400A9DED8A0A38EE400A20EE800A96
S32508006B60BCEEC00A10EE102A8A630068C16ADDED890A490800EE101A78EE600AB8EE400A55
S32508006B8020EE200ABCEEC00A10EE101A41631EE0DDED890AB8EE400A78EE600A20EE200A1C
S32508006BA0BCEEC00A10EE102A8A630168C86ADDED8A0A400800EE100A78EE600AB8EE400A25
S32508006BC020EE200ABCEEC00A10EE100A48636420FBF724F949F640407F1C874298DB9FED83
S32508006BE08DAA3046B0EE4A0A02F04EF88A48FAF7E7FA8A48FAF7E4FA01218748FAF7C2FACD
S32508006C00206001218548FAF7BDFA6060D4F884202168891A00EE101AF8EEC00A9FED800A15
S32508006C2060EE800AC4ED050AD4F88810401A01EE100A04F14401081FB8EEC11A21EE001ADC
S32508006C40B1EE600A84ED061A70EE411AC4ED071A94ED0C0A00F0D4FC606CF9F7AEFC41EC17
S32508006C60100B9FED70EBB0EE4E1AF0EE6E1AFEF757F9B0EE40DAF0EE60DA206CF9F79DFC6E
S32508006C8041EC100BB0EE4E1AF0EE6E1AFEF748F953EC1D2B51EC100BF9F707FB41EC100BE3
S32508006CA0FFF72EF851EC100BF9F79AFC0BEE100A0024B1EE0C9A002778EEAA8A81AA83A938
S32508006CC082A8B0EE691AF0EE4C0AB0EE680AFFF749FE89AA8AA98BA8DDED811A9DED831AB5
S32508006CE0DDED820AB7EE000A02F084FC47480068C16ADDED8B0A490800EE101A78EE600A55
S32508006D00B8EE400A20EE200ABCEEC00A10EE101AC1633F48006828B33C490A68D06ADDEDB8
S32508006D208A0A400800EE100A78EE600AB8EE400A20EE200ABCEEC00A10EE100A9063096879
S32508006D40C86ADDED890A400800EE100A78EE600AB8EE400A20EE200ABCEEC00A10EE100AC2
S32508006D60486324E029480168CA6ADDED890A520800EE102A78EE600AB8EE400A20EE200A71
S32508006D80BCEEC00A10EE102A8A630068C16ADDED8A0A490800EE101A78EE600AB8EE400A32
S32508006DA020EE200ABCEEC00A10EE101A41636420FBF734F8B0EE4A0A304601F065FF7F1C53
S32508006DC0282FFFF679AFB0EE4A0A304601F05CFF164896ED060AD0ED010A29E05374617221
S32508006DE074696E672063616C6962726174696F6E2070726F6365647572650A0D000000002B
S32508006E007CD9A03A000000009A99193E040D00201802002017B7D137540B00209C0B002024
S32508006E200000A53C00000000000000401801002030EE200AC8EE890A09EB840030EEC00AF9
S32508006E4080ED000A8598F16940F82410641CB4F5607FFFF630AF00245FF0000778EEEA8A9A
S32508006E6081AA83A982A8B0EE691AF0EE4C0AB0EE680AFFF777FD89AA8AA98BA8DDED811AB6
S32508006E809DED831ADDED820AB7EE000A02F0B2FBDC480168CA6ADDED8B0A520800EE102A77
S32508006EA078EE600AB8EE400A20EE200ABCEEC00A10EE102ACA63D449096821B30168CA6AF4
S32508006EC0DDED8A0A520800EE102A78EE600AB8EE400A20EE200ABCEEC00A10EE102A8A6333
S32508006EE00068C16ADDED890A490800EE101A78EE600AB8EE400A20EE200ABCEEC00A10EEC1
S32508006F00101A416323E00268D16ADDED890A490800EE101A78EE600AB8EE400A20EE200A2F
S32508006F20BCEEC00A10EE101A91630168C86ADDED8A0A400800EE100A78EE600AB8EE400AAA
S32508006F4020EE200ABCEEC00A10EE100A48636420FAF764FFB0EE4A0A304601F095FE7F1C55
S32508006F60282FFFF67BAFB0EE4A0A304601F08CFEA64896ED060A4FF46077D0ED010A05EB57
S32508006F80840030EE200AC8EE890A30EEC00A80ED000A8498F16940F82410641CBC42FFF61A
S32508006FA05BAFB0EE698A00209FED990A09EB8001D1ED000AA5EB800101F54061401C91ED1A
S32508006FC07F1AB84230EE811AC1EE000A30EE888AECDB28EE090A10EE100AF9F7EEFA41EC61
S32508006FE0100B9FED8C1BFDF733FD51EC100BF9F7F7FA08EE100A8548F0EE698A80ED008A33
S325080070005FF0000009EB800191ED000AA5EB800101F54061D1ED7F0A08EB8001401C30EE39
S32508007020200AB0F5607F20EE2B0A81ED000AE9DB00249FED7AAA00210BEB84060819403807
S3250800704002D500F5607004E0B0F5607F01DBA0F5607008EB800096ED000AD0ED000A491CB1
S32508007060802900EE8A0A86ED000AE7DB802C27DA08EB8400D6ED000A90ED000A30EE600A98
S3250800708020EE090AFEF774FD20EE0B0A01A800EB8407A1B287ED000A30F824207B880220B7
S325080070A0F9F76EFD002086908790889097ED000A03238DED860A86AA0121102002F01AFABC
S325080070C0D6ED000A9FED561A641CB4F5607F80EE810A70EE288AAEDB859801688498D0F8D5
S325080070E0FC0D084400EBD070471000269FED4DAA9FED4D9A06EBE7147F2C00DD803CC6EBAE
S32508007100C6010BEB8100A1B290ED000A30EE680A20EE0A0AC0EE090ABDEEE00A10EE100A29
S325080071204AF82400030C82B20320F9F729FD5AF82400012300EE100A86AA1946B8EEC00ABE
S3250800714011208DED860A02F0D5F90A20FAF75CFE761C802ECEDB4FF400742246514600987A
S32508007160F9F77FF82848224651461830F9F779F81020B0EE491AF0EE690AB0EE480A00F020
S32508007180BDFC81B200231A460420F9F7F9FC0A20FAF73AFE00231A4619460520F9F7F0FC33
S325080071A000231A460121062002F0A4F91F48016900910FC801F0E7FB10B91C4801F0DCFB66
S325080071C01A4801F07DFB194801F076FB584600F0E1FC404600F0DEFC484600F0DBFC284695
S325080071E000F0D8FC504600F0D5FC859800F0D2FC849800F0CFFC0DF50D7DBDEC0E8BBDE841
S32508007200F08F0000040D002018020020180100200000E04400000060FB2119400000003C08
S325080072200000604400008046DB0FC940180600202DE9F041F9F77BFE00240C4E0C4F2546B1
S32508007240306AB84203DD6D1CEDB2142D06D80220FAF7DAFD641CE4B2FA2CF1D3054900200D
S32508007260C860BDE8F04104A0FDF790BB800800200000A0410000002043616C696272617454
S32508007280696F6E20626567696E696E670A0D000010B50B490B4800F05DFF09490948FFF7CF
S325080072A0A7FBC820FAF7B0FDF9F74AFE0648002181600121C160BDE8104004A0FDF766BB1F
S325080072C0800800202C060020000000200A0D2043616C6962726174696F6E20636F6D706CAC
S325080072E06574652E2020507265737320276573632720746F2072657475726E20746F206DCB
S32508007300656E750A0D00000000B587B001210691134900220B7853B1012B02D0022B03D058
S3250800732005E00223069302E0042306930A700B785B1C0B70016806ABC1F3036104910188BB
S325080073400292C1F30A011031009103928DF81420021D69460348FAF77FF907B0012000BD95
S325080073605D0000202C0C002004E000BF11F8013B1844C0B2521ED2B2F8D2704710B50446F0
S325080073802DED088B04F1440190ED0C0A1430D0EC030A081F00F034F9D4ED120A94ED110A9B
S325080073A030EEC01ADFED7D1A41EE610AC4ED120AD4ED080A9FED7A1A60EE810A9FED791A12
S325080073C060EE810A9FED781A784860EE818AC4ED098AD0ED030AC4ED0A0AD4ED230A94ED4D
S325080073E0101A94ED1BBA70EEC1AAD4ED240A30EEC09A94ED1F0AF0EE680AF0EE409A0BEE24
S325080074002A0AFDF71CFBB1EE688AF0EE480AFDF70EFB84ED130AB0EE40AA94ED1C0A6BEE4B
S32508007420000AB0EE690A00EEAA0AF0EE680AFDF706FBF0EE480AFDF7FAFA68EEA80A84EDAB
S325080074401F0A4AEE4A0AB0EE600AF9F735FCB0EE408A94ED200AD4ED1B0AB0EE401A00EE61
S32508007460890A84ED140AF0EE409A94ED1C0AD4ED098A60EE800AB0EE410A00EE890AF0EE09
S32508007480680AFDF7DCFAF1EE680AFDF7D0FA84ED200A94ED130A60EE000A49EEA90AB0EE7A
S325080074A0600AF9F709FC84ED2F0A94ED140AF0EE480AFDF7C4FAF1EE480AFDF7B8FA84EDEC
S325080074C0140A04F1500194ED090A081F00F0C0FB04F16802111F94ED141AD4ED130A94ED37
S325080074E00C0A081FFFF73EFA04F16000021FD0EC030A111F94ED090A0C3802F07BF82C48F3
S325080075002C49B7EE000A02680968002A2A48CA6A94ED151A00EE902A30EE411AF8EE600A6D
S3250800752060EE810AFCEEE00A10EE902AC263CA6A00EE902AF8EE600A12D094ED161A30EED6
S32508007540411A60EE810AFCEEE00A10EE902A8263C96A94ED171A00EE901AF8EE600A11E0BA
S3250800756094ED171A30EE411A60EE810AFCEEE00A10EE902A8263C96A94ED161A00EE901A0C
S32508007580F8EE600A30EE410A20EE800ABCEEC00A10EE101A4163BDEC088B10BDCDCC4C3D21
S325080075A03333933F6666663F3ACD133F1801002018020020040D00200000014030B50346A8
S325080075C000200246064C07E09D5C521C85EA106554F8255085EA00208A42F5D330BD0000E0
S325080075E048A10008027862F31F61427862F317418278C07862F30F2160F3070108467047BF
S3250800760070B50C462DED068B0546F0EE618AB0EE419AF0EE609AB0EE40AAF9F79BFCB0EE28
S32508007620402AB0EE4A0AB0EE428AF9F79BFCDFED170AF6EE002ADFED161A20EE201A68EE5A
S32508007640200A08EE621A40EE620A21EE093A20EE211A08EE293A08EE621A01EE283A9FEDA3
S325080076600D1A23EE012A85ED002A28EE212A60EE691A00EE622A42EE491A40EEE81A21EE7F
S32508007680810A84ED000ABDEC068B70BDD7B35D3FD7B35DBFABAA2A3F10B5F9F751FC0A20B9
S325080076A0FAF7BCFB002240210348FAF7BFFC03490020C86010BD00000004024000000020D3
S325080076C07FB543A0FDF762F90A20FAF7A7FB48A14BA0CDE900014BA34BA24EA14FA0FDF741
S325080076E055F90A20FAF79AFB544CA068F8F765FFCDE9020152A0009053A354A25AA15BA066
S32508007700FDF744F90A20FAF789FBE069F8F755FFCDE902015DA000905DA35EA260A161A0B7
S32508007720FDF734F90A20FAF779FB664D66A058A3696866A2CDE9000166A167A0FDF726F926
S325080077400A20FAF76BFBA9685FA0CDE9000150A369A26DA160A0FDF719F90A20FAF75EFB4D
S32508007760E068F8F72AFFCDE9020168A0009069A369A26EA13DA0FDF709F90A20FAF74EFBED
S32508007780A069F8F71AFFCDE9020169A0009061A369A26FA135A0FDF7F9F80A20FAF73EFB4B
S325080077A0E9686CA0CDE9000139A36CA273A174A0FDF7ECF80A20FAF731FB7848FDF7E6F8E4
S325080077C00A20FAF72BFB76490020C8607FBD00000A0D0A0D20436F6E66696775726174694E
S325080077E06F6E204F7074696F6E73200A0D0A0A0063757272656E742076616C756500000007
S325080078006D6178006D696E00706172616D65746572000000707265666978000020252D34DB
S325080078207320252D33317320252D357320252D367320252D32730A0D0A0D000018010020CB
S3250800784032303030000000003130300043757272656E742042616E64776964746820287275
S3250800786061642F73290000006200000020252D347320252D33317320252D357320252D36E4
S325080078807320252E31660A0D000000002D000000300000004765617220526174696F00004B
S325080078A06700000020252D347320252D33317320252D357320252D367320252E33660A0D99
S325080078C000000000180200203132370043414E20494400006900000020252D347320252D53
S325080078E033317320252D357320252D367320252D35690A0D0000000043414E204D617374C0
S3250800790065722049440000006D00000034302E3000000000302E300043757272656E742015
S325080079204C696D6974202841290000006C00000033332E300000000046572043757272659A
S325080079406E74204C696D6974202841290000000066000000313030303030000043414E20ED
S3250800796054696D656F757420286379636C6573292830203D206E6F6E6529000074000000FC
S3250800798020252D347320252D33317320252D357320252D36732025640A0D000060A6000874
S325080079A00000002010B5F9F7C2FA0D4801F0DCFC0120FAF729FA0A489FED0A0A012280ED53
S325080079C0230A80ED240A40210748FAF72FFB07490020C860BDE8104005A0FCF7D7BF00004B
S325080079E0800800200000000000040240000000200A0D20456E746572696E67204D6F746F39
S32508007A0072204D6F6465200A0D00000010B5F9F76DFAF120F9F7EAF902212820F9F7ECF9CA
S32508007A20092804D0F9F73CFA4FF0FF3010BDF9F737FA064806490268521C02D06FF001000A
S32508007A4010BD001D8842F6D3002010BD000002080000040882B0CDE9000121F000400190CD
S32508007A609DED000B02B051EC100B7047034850F8220000EB830090ED000A70471C00002005
S32508007A80024850F8220050F8230070471C00002010B50446F9F704FA0020207010BD00004C
S32508007AA0072900D90721044A816052F82110416000210170704700001C00002010B50446A8
S32508007AC0F9F714FAF120F9F791F90549A06851F820000221F9F790F90120207010BD000036
S32508007AE03C00002001EB830010EE101AF9F7E0B9009A01EB83001146F9F7DAB9012131EED8
S32508007B00601A814070EE600A491E00EE101AB8EEC00A20EE800AC0EE010ABDEEE00A10EE81
S32508007B20100A7047B4EEE00AF1EE10FA07DDB4EEC10AF1EE10FA01DCB0EE410A7047F4EE58
S32508007B40C10AF1EE10FAF7DDB0EE600A7047B4EEE00AF1EE10FA07D2B4EEC10AF1EE10FA2C
S32508007B6001D3B0EE410A7047F4EEC10AF1EE10FAF7D2B0EE600A704738B504468DF80000A9
S32508007B800223012269460248FBF7C6FD204638BDDC0D002010B5002821D0114B0022001F02
S32508007BA0196803E0814203D80A4649680029F9D152B11368841A9C4204D1006818441060BE
S32508007BC0104602E0506000E0186039B102680B1A934203D10B681A4402604968416010BDE3
S32508007BE0740000209FED140A144980ED1C0ADFED140A91ED020ADFED141A20EE200ADFEDD7
S32508007C00110A80ED1B0A91ED020A20EE200AF0EE000A20EE201AB7EE000AF0EE400A41EEB1
S32508007C20610A80EE201A30EE410A80ED1E0A9FED070A80ED1D0A70479B551F3D18010020B8
S32508007C40C7BC8E3A17B7D137DB0F49405FEF7E3B00B5F0EE401A90ED000A0A46034660EE20
S32508007C60000A91ED000A40EE000AB0EE600AF9F723F8B4EEE10AF1EE10FA0FDDD3ED000AED
S32508007C8060EEA10A80EE801A83ED001AD2ED000A60EEA10A80EE801A82ED001A00BD00003B
S32508007CA02DED028B82B0FAF7D5F9FCF777F9FBF7D3FEFCF74BF8FBF76BFFFBF7A9FEFBF7DB
S32508007CC043FFFBF7D7FDFBF723FEFBF76FFEFCF71BF8FBF7E7FFFBF713FF0621B94800F022
S32508007CE017FEB848016900910FC800F019FEB64C206820F00040C0F1FF409FEDB48A0028CC
S32508007D0001D584ED008A606820F00040C0F1FF40002801D584ED018AA068FCF772FEDFED4B
S32508007D20AC8AAC4E50B994ED020A10EE100AB04204D0B5EEC00AF1EE10FA01D1C4ED028A2C
S32508007D40E068FCF75EFE50B994ED030A10EE100AB04204D0B5EEC00AF1EE10FA03D1B3EE3E
S32508007D600C0A84ED030AA069FCF74BFE10B9A069B04203D1B2EE040A84ED060A964D4FF033
S32508007D800109686800EE100AB8EEC00A10EE101A21F00041C1F1FF41002901D4401C01D1EB
S32508007DA0C5F80490A868002200EE100AB8EEC00A10EE101A21F00041C1F1FF41002901D450
S32508007DC0401C00D1AA60E86800EE100AB8EEC00A10EE101A21F00041C1F1FF41002901D42C
S32508007DE0401C00D1EA60E069FCF70BFE10B9E069B04203D1B7EE000A84ED070A206AFCF733
S32508007E0000FE10B9206AB04201D184ED088A606AFCF7F7FD10B9606AB04203D19FED6F0A2D
S32508007E2084ED090AA06AFCF7ECFD10B9A06AB04201D1C4ED088AE06AFCF7E3FD10B9E06AC0
S32508007E40B04203D19FED660A84ED0B0A5D4894ED010A1430072180ED0A0A94ED000AA0463D
S32508007E6080ED0B0A4162642101F074F85A494FF40072183101F22C40F8F7F3F95948FFF77B
S32508007E80B1FE5948F9F79CF95848F9F799F90026544C37469FED568ADFED568ADFF858A1B2
S32508007EA05648F9F75BFB5548F9F7AAFA00EE100AA060B8EEC00A60EE080A94ED080A70EED6
S32508007EC0600A00EEE80A10EE100A84ED080A504503DD7F1CFFB2142F06D80120F9F782FF3B
S32508007EE0761CF6B2FA2EDBD34548FAF799FF00214348FBF7E1F900214148FAF789FE04218F
S32508007F003F48FBF7D9F904213D48FAF781FE08213B48FBF7D1F908213948FAF779FEF9F784
S32508007F2006F80120F9F75EFF2E498831081F01F0B1FCF9F705F82B4801F016FA0120F9F760
S32508007F4051FF30A0FCF722FD33A0FCF71FFD37A0FCF71CFDD4E921123CA0FCF717FD4446BF
S32508007F60D8F80000F8F729FB41EC100B41A053EC102BFCF70BFD6068F8F71FFB41EC100B59
S32508007F8048A053EC102BFCF701FD4EA06968FCF7FDFCF8F7D3FD4F48F9F796FE4E48FAF774
S32508007FA03FFF01224D494E48FBF7A0FB4D49C1F8009000F05DFEFBF753FF00BFFBF73CFC42
S32508007FC0FCE700001806002018010020000000000000C842000080BF180200200000204254
S32508007FE00000F04280080020540B00209C0B00200303883C0AD7233C0000A041E40B002059
S32508008000040D00200A0D205953432043312D4A3630200A0D000000000A0D20446562756735
S3250800802020496E666F3A0A0D00000000204669726D776172652056657273696F6E3A205622
S32508008040342E3120313231310A0D00002041444331204F66667365743A2025642020202080
S3250800806041444332204F66667365743A2025640A0D00000020506F736974696F6E2053652A
S325080080806E736F7220456C656374726963616C204F66667365743A202020252E34660A0DD3
S325080080A000000000204F7574707574205A65726F20506F736974696F6E3A2020252E346665
S325080080C00A0D00002043414E2049443A202025640A0D00002C0C00204C0D00205F00002072
S325080080E0DC0D00200C000020F0B50B30154D20F007010024144A0FE003688B420BD38B428F
S3250800810005D95E1A43184768C3E9006700E04368136002C004E0021D10680028ECD1204658
S32508008120002802D1286808B10020F0BD064A07481060074A121A22F00702C0E9002401208B
S325080081402860D7E77800002074000020240E0020208E00202DE9F04100232DED088B0C4616
S32508008160064688B01A4619461846F8F709FD9FED8F8A9FED8FAA8DED008AB0EE489AB6EEC9
S32508008180000A8DED030A6A4602A901A8B0EE491AF0EE4A0AB0EE480AFEF7E4FB03AA05A9EA
S325080081A004A8DDED001A9DED021ADDED010AB7EE000A01F01FFA7F4D002744F62068F7EE53
S325080081C0008A2868C16ADDED040A490800EE101A78EEE00AB8EE400A20EE200ABCEEC00A1F
S325080081E010EE101AC1632868C16ADDED050A490800EE101A78EEE00AB8EE400A20EE200AB0
S32508008200BCEEC00A10EE101A81632868C16ADDED030A490800EE101A78EEE00AB8EE400A95
S3250800822020EE200ABCEEC00A10EE101A41636420F9F7F4FD7F1C4745C3DBDFED5FAA304643
S32508008240B0EE6A0A00F020FD0120F9F7DDFDD4F884102068401A00EE100AF8EEC00A9FED80
S32508008260570A60EE800AC4ED050AD4F888106068401A01EE100A04F14401081FB8EEC11A86
S3250800828021EE001AB1EE600A84ED061A70EE411AC4ED071A94ED0C0AFFF7B2F9484C9FED2A
S325080082A049BA6A4602A901A8B0EE491AF0EE4A0AB0EE480AFEF756FB03AA05A904A8DDED6F
S325080082C0001A9DED021ADDED010AB7EE000A01F091F96420F9F7A2FD2868C16ADDED040A2B
S325080082E0490800EE101A78EEE00AB8EE400A20EE200ABCEEC00A10EE101AC1632868C16A14
S32508008300DDED050A490800EE101A78EEE00AB8EE400A20EE200ABCEEC00A10EE101A816315
S325080083202868C16ADDED030A490800EE101A78EEE00AB8EE400A20EE200ABCEEC00A10EE4A
S32508008340101A4163B0EE6A0A304600F09DFC96ED060AB5EEC08AF1EE10FA01D1F0EE409A3D
S3250800836038EE0B8A18EE100AA0429ADB30EE690AB5EEC00AF1EE10FA01DD012000E00020D7
S325080083800123069006AA1946092001F0B3F80E4906980023086081B21A460120F8F7F0FB33
S325080083A008B0BDEC088BBDE8F0810000000000009A99193E040D002017B7D1370000A53C33
S325080083C0DB0F49416F12833A180200202DE9F04180462DED068BB0EE41AAF0EE60AA82B048
S325080083E09FED328ADFED328AB0EE429AF0EE619A1420B0EE481AF0EE680AFFF77FFB07460B
S325080084001420B0EE481AF0EE680AB0EE6A0AFFF775FB06461020B0EE481AF0EE680AB0EEE8
S325080084204A0AFFF76BFB9FED238A05460720B0EE481AFBEE040AB0EE690AFFF75FFB044631
S325080084400720B0EE481AFBEE040AB0EE490AFFF755FB0099184A67F313010091DDF80110D9
S3250800846066F31F31CDF80110ADF8055053789DF8071063F300018DF8071083B160F347013C
S325080084808DF80710002050700099C8F800100199C8F8041002B0BDEC068BBDE8F08164F322
S325080084A047018DF807100120EDE7000000002042000020C2000048435D0000202DE9F04F34
S325080084C0DFF8B4A304462DED028B81B00068DAF8042000F01F018A4201D0002942D1C0F344
S325080084E045130026DFF894E3E549E64F9FEDE61A9FEDE60ADFEDE68ADFEDE60AE64A0125E9
S32508008500DFF898934FF0080B4FF00208192B29D2DFE803F0280D11202D4C698DA5AEB5C416
S32508008520D1DEF6F4F3F2F1F0EFEEEDECEB00000E18D1166006E0000E14D10888002873D1EB
S32508008540C2F80080CEF8005008E100BF9DF8000020712AE1000E05D10888E8BB1560CEF892
S325080085600050E67001B0BDEC028BBDE8F08F5D46BBEB106FF6D1CA49201D01F033F9C84830
S32508008580D7ED070A90ED120A20EE200ADFEDC50A90ED032AD0ED041A20EE201AD0ED0D0AEB
S325080085A090ED0B0A201DFFF711FFFEE0000ED9D1ADF800609DF800002071E5702046FEF767
S325080085C0A3FE6420F9F72AFCBFF34F8FB6480168B64A01F4E06100E026E011430160BFF3D8
S325080085E04F8F00BFFDE7000EBCD11068A8B1106802280DD018E0A94800F062F9A74800F0EE
S325080086005BF93869009097E80F0000F089F9A5E0A7480069B0F17C5F06DAFCF79FF9F8F714
S32508008620CBFC87ED010A83E0ADF800508EE7B8EB106F97D1A088B0EE418A40BA1021F0EEF5
S32508008640480AF0EE408A01F0B8F887ED070A1020B0EE481AF0EE680AFFF750FACBE0B5EBE1
S32508008660106F87D12179CAF80410F8F767FA5FE0B5EB106F9BD12179CAF80C106EE0B8EB22
S32508008680106F94D1A08840BA00EE100A8448B8EEC00A87ED020AFFF7A5FA5FE0B8EB106F0C
S325080086A085D1A088102140BAF0EE680A01F085F887ED030A52E0B8EB106F95D1A0881021B1
S325080086C040BAF0EE680A01F078F887ED080A45E0B8EB106F88D1A088102140BAF0EE680A18
S325080086E001F06BF887ED090A38E08FE080E067E05DE045E03AE034E029E017E00BE0FFE702
S32508008700B8EB106F95D1A088102140BA01F055F887ED0A0A22E0B8EB106F8AD1A0881021D2
S3250800872040BA01F04AF887ED0B0A17E0000E98D1D9F81000009099E80F004F4600F023F965
S3250800874000287FF458AF554800F016F953E7000E87D108880E80574801880680ADF800605C
S32508008760F4E6000E86D1F8F733FB06E0BBEB106F87D1010E201DF8F7E3FAADF80000E5E6A4
S32508008780BBEB106F8CD104F10800FEF72BFF0646201DFEF727FF3146F8F7A6FA2071010AE7
S325080087A06171010CA171000EE071E5705BE0000E90D101B0BDEC028BBDE8F04FF8F7ACBA3C
S325080087C0000E87D12920ADF800009DF8000060719DF80100207140F2BB40ADF800009DF843
S325080087E00000E0719DF80100A0710420E0703AE0000E87D10888ADF800009DF800006071E4
S325080088009DF80100207184F803802CE0000E84D1D7ED071AB0EE408A1020F0EE480AB0EE6A
S32508008820610AFFF76BF9010A217160719AF80410A1719AF80C00E07197ED020AB0EE681AA0
S32508008840F0EE480ABDEEC00A10EE100A010A2172607297ED030A1020FFF750F9010AA172BF
S32508008860E07284F803B001B02046BDEC028BBDE8F04FFEF749BD0000180200200C000020D7
S32508008880020000201801002000004842000000000000204200004843080000201806002092
S325080088A080080020802B993D0CED00E00400FA052C0600200400002000210174FFF7E8B803
S325080088C0F8B5114E05460024234656F82400009095E80700FFF70CF9641CFF2CF4DD0B4E50
S325080088E04FF4A077BC420CDA06EB8400A0F58060234690ED000A95E80700FFF7F3F8641C6D
S32508008900F0E700202874F8BD180200201801002070B50D460446FFF7C3F8E56070BD0000A9
S325080089202DE9F047124D074688469146002423464A4641463846FFF7A3F845F82400641CF7
S32508008940FF2CF4DD0B4D4FF4A076B4420DDA23464A4641463846FFF789F805EB8400A0F501
S325080089608060641C80ED000AEFE7BDE8F0870000180200201801002010B50446FFF79EF812
S325080089800120207410BD0098C0B2704770B50D460446C16917A0FBF7F9FF18A0D4F8301233
S325080089A0FBF7F4FFA068F7F708FE41EC100B19A053EC102BFBF7EAFFA069F7F7FEFD41EC53
S325080089C0100B19A053EC102BFBF7E0FFE068F7F7F4FD41EC100B19A053EC102BFBF7D6FF01
S325080089E01BA0216AFBF7D2FFA8B2BDE87040F9F70BBA00005261773A202564002020204C43
S32508008A00696E656172697A656420436F756E743A2025640020202053696E676C65205475D6
S32508008A20726E3A20256600002020204D756C74697475726E3A2025660000000020202045A5
S32508008A406C656374726963616C3A2025660000002020205475726E733A202025640D0A00DA
S32508008A602DE9F041DFF84C80054640460C46B8F80610C38800680A19D8F800701844802AF9
S32508008A800AD9C1F180018EB232462946F7F7E9FBA21BA919384601E022462946F7F7E1FB3A
S32508008AA098F80610214401F07F01A8F80610BDE8F08100008C0000202DE9F34F81B06A4D74
S32508008AC0002000904FF0FF0AEB88AA882889802100F03CFC84B2092C6ED36889A94698BB92
S32508008AE080230020B9F80470DFF880B1E51ED9F800602CE03A18B2FBF3FC114603FB1C12C7
S32508008B0016F802C04A1CB2FBF3F803FB1822B25C4CEA022C8A1CB2FBF3F803FB1822B25C4B
S32508008B204FEA0248CA1CB2FBF3F103FB1121715C48EA01614CEA010CDC4506D13844B0FB3A
S32508008B40F3F103FB110006E017E0401C80B2A842D0DB4FF0FF3001B2002913DB0122A9F818
S32508008B600A208AB2A9F80420B9F80630B9F80800802100F0EBFB09281EDBB9F808004D462F
S32508008B8058B11CE0E41E3819C21700EB526222F07F02801AA9F804000EE028792968421DA6
S32508008BA0801D02F07F0200F07F008A5C085C42EA00202881A04202D95046BDE8FE8F82B230
S32508008BC0A8881118491E8029296801440CDDC0F18000C2B20098FEF7C7FB297A2A791144D0
S32508008BE08139CAB2296802E0521ED2B20098FEF7BBFBAB882A892E689C18611ECF1701EB06
S32508008C00576727F07F07C91B715C814227D1802C0DD9C3F1800084B2F11822460198F7F78B
S32508008C2020FB28892968021B0198204401E0F1180198F7F716FB02982989018028792A682D
S32508008C4000F1090101F07F0112F801A0297A084400F07F00A880002028816881ACE75B1CAD
S32508008C6003F07F00F6E700008C000020FF318A2304480021016141611830A0F10C0108604F
S32508008C80002070478000002070B504462DED048B82B04FF6FF70A24E4FF400452060002237
S32508008CA029463046F9F7C2F9642000900123221D21469C48F9F732FE9A4800BF90F85110AA
S32508008CC00229FBD0012229463046F9F7AFF9A0880123C0F30D00C10904EB8101E0610A6BF3
S32508008CE003EBE011CD1701EB556525F07F05491B04EB810120F07F05096B451B891A4D43F4
S32508008D0002EBE5110844C4F83002D4F83412C4F83402421A0021B2F5005F01DD491E03E079
S32508008D2012F5005F00DA0121256A2944216294F8501219B90021216284F8503294ED8E2AA9
S32508008D40D4ED8F0ADFED781A00EEA12A84ED8E2ABDEEC20A10EE101A411A00EE101AB8EEB3
S32508008D60C00A9FED721A4FF08C4301E030EE410A10EE101A9942F9DC4FF0464310EE101AE3
S32508008D80994202D930EE010AF8E7D4ED902A4FF08D4362EEA12A02EE802A84ED8E2A03E0BC
S32508008DA032EE412A84ED8E2A12EE101A9942F7DC04E000BF32EE012A84ED8E2AB5EEC02A75
S32508008DC0F1EE10FAF6D394ED911A21EE211A41EE000AC4ED8F0AF5EEC00AF1EE10FA02DD65
S32508008DE0B0EE600A01E0B1EE600A94ED932A9FED501AB4EEC20AF1EE10FA06D284ED8F1AF6
S32508008E00B6EE000A84ED920A1DE0B7EE002A002A17DC02DA84ED922A15E094ED920A00EE97
S32508008E20A10A10EE101A84ED920AB1F17E5F01DD84ED922A94ED920AB5EEC00AF1EE10FA47
S32508008E4001D284ED921A00EE100AD4ED920A9FED398AB8EEC00A70EE208A00EE100ADFED14
S32508008E60360AB8EEC00A20EE080A20EE200A84ED020A94ED081AB8EEC11A01EE080A94EDB9
S32508008E800A1A30EE410A84ED060A94ED040AD4ED8F1AB0EE401A01EEE01ADFED280A01EEEF
S32508008EA0600A84ED040AE06AF7F787FB94ED090A41EC190BB8EEC00A20EE280A10EE100A54
S32508008EC0F7F77BFB41EC100B9FED1D1BFBF7C0FD9FED1D1B51EC100B53EC112BF7F78CFA5A
S32508008EE053EC192BF7F7E1F9F7F77AFB00EE100A84ED030AB5EEC00AF1EE10FA03D230EEE7
S32508008F00080A84ED030A10EE100A1149884203DD30EE480A84ED030A02B0BDEC048B70BD92
S32508008F2000000240AC0C002017B7D1370000804600000000DB0FC94000008038ABAAAA3E85
S32508008F40000000000000D04000000060FB21393FDB0FC9402DE9F84F0F46044600254FF4A8
S32508008F600046DFF864804FF6FF7A4FF0640BDFF85C9019E0002231464046C4F800A0F9F74F
S32508008F8055F80123221D21461048CDF800B0F9F7C5FC484690F851100229FBD00122314627
S32508008FA04046F9F743F86D1CBD42E3DB9FED080A84ED900A9FED070A84ED910A9FED060ABE
S32508008FC084ED930ABDE8F88F00000240AC0C002000007A450024744A000048422DE9F043BB
S32508008FE000272DED028BA7B021A9ADF8847001A8FFF762FDC84DC94EC94C4FF0FF391628E7
S3250800900074D00CDCC749C84AA0F110004FF0010406286CD2DFE800F0126CDEE6F3FCDFF8E4
S325080090200C8320287ED006DC17287CD018287BD019285CD14DE12128FBD161E19DF80E006F
S325080090409DF811109DF8175040EA01629DF810009DF80F10000440EA012002439DF812002F
S325080090609DF815109DF81B6040EA01639DF814009DF81310000440EA012003439DF81600E9
S325080090809DF819109DF81F7040EA01609DF8181000EE102A090441EA052108439DF81A1008
S325080090A09DF81D5000EE903A41EA05619DF81C5001EE100A2D0445EA062529439DF81E5053
S325080090C09DF8216001EE901A45EA06659DF82060360446EA0726354302EE105A00F044FA8D
S325080090E093480178002900D10470CFE097E010E19DF80E009DF811109DF80F2040EA0160E1
S325080091009DF810109DF81330090441EA022108439DF812109DF8152041EA02619DF8142036
S32508009120120402E0DFE09BE0B6E042EA032211439DF816209DF819309DF8174042EA03638D
S325080091409DF818209DF81B70120442EA042213439DF81A209DF81D4000EE901A42EA04626B
S325080091609DF81C409DF81FC0240444EA072422439DF81E409DF82170FDEEE00A44EA07640F
S325080091809DF82070E8613F0447EA0C273C43C6ED010A00EE103A08EE902A08EE104ADFED6B
S325080091A0650AFBF74CFCDFED640AFBF740FC85ED020ABDEEE80A86ED030ADFED600AB0EE21
S325080091C0480AFBF73CFCDFED5E0AFBF730FC85ED030A5BE0022008601460002301211A4656
S325080091E0084607E00F601460FAF73AFE00231A460121072000F07EF948E009E0FFE70023D3
S325080092001A460121122000F075F9F8F7B7FF3DE00C601460002301211A460520EAE7FBF7FF
S325080092209DFBF7F7C9FE85ED010A2069009094E80F00FFF7A8FB10B93948FFF79DFB3848C1
S32508009240FFF73EFB3648FFF737FB2069009094E80F00FFF765FB002301211A460820C9E7B4
S325080092602069009094E80F00FFF78DFB10B92C48FFF782FB2A48FFF723FB2948FFF71CFB0A
S325080092802069009094E80F00FFF74AFB002027B0BDEC028BBDE8F08395ED070A05238DED67
S325080092A0220A96ED010A012122AAB8EEC00A03208DED230A95ED020A8DED240A96ED030AF8
S325080092C0B8EEC00A8DED250A95ED030A8DED260A90E714221B4922A8F6F7C3FF052301215A
S325080092E022AA132086E7B8F80000A8F8007016480188078000231A460121202000F0FAF8FF
S32508009300B8F80000012300906A461946212000F0F1F84846BBE7000018010020180200200F
S3250800932018060020080000200C000020020000205C0000200000FA440000C8420000204245
S325080093400000000048A500080400002010B504469A4201D8981A01E0881A184480B2844299
S3250800936000D9002010BD000024490A68D36A00EE103AF8EE400AB6EE000A60EE800AFCEE25
S32508009380E00A10EE903AD3630A68D36A00EE903AF8EE600A60EE800AFCEEE00A10EE903AAC
S325080093A053630968CA6A00EE902AF8EE600A20EE800ABCEEC00A10EE102A8A639FED100A75
S325080093C080ED2A0A80ED2B0A80ED2E0A80ED2C0A80ED2D0A80ED230A80ED240A80ED100A94
S325080093E080ED110A80ED120A80ED200A80ED1F0A80ED140A80ED130A70470000040D002024
S3250800940000000000334810B58168062954D2DFE801F0030A1453545BC06800284CD0BDE8D4
S325080094201040FEF739B9C06818B1BDE81040FDF7FFBEBDE81040FDF72BBFC06818B1BDE8E7
S325080094401040FEF7AFBA244CDFED240A254894ED280AC068B8EEC00A20EE200ADFED200A00
S3250800946060EE200A00EE100AB8EEC00AF4EEC00AF1EE10FA13DD002811DD16489FED1A0A45
S32508009480801C84ED230A84ED240A84ED2C0A84ED2D0A84ED2E0A018841F0200101800E483B
S325080094A000F04EF994ED0C0A10490B483034FDF765FF206F401C206710BDC0680028FBD00E
S325080094C0BDE81040FEF7FCB8BDE8104001210848FFF75CBA000000208008002017B7D137CF
S325080094E000007A441802002000000000440B00202C060020F8B5154600228DF800209A0636
S32508009500140E164A144B136004F10B03C2F80530117150720A2211490020FDF725FF8DF870
S32508009520000022462946FDF71FFF0D4E8DF8000033460A2209490B48FAF7EEF83346224652
S3250800954029460848FAF7E8F83346012269460548FAF7E2F8F8BD0000FF318A2380000020D8
S32508009560FFFF0F00DC0D0020054880ED2A0AC0ED2B0A80ED2E1AC0ED2C1A80ED2D2A7047D4
S325080095808008002000B52DED048B83B041EC190BF7F734F941EC180B18EE100A18EE901AF8
S325080095A08DED008B002818BF0120084320F00040C0F17F6000F1E040C00F14D019EE101A58
S325080095C019EE900A8DED009B002918BF0121084320F00040C0F17F6000F1E040C00F04BFD7
S325080095E00120FCF773FD51EC180B03B0BDEC048B00BD000070B514462DED088BF0EE619ACC
S32508009600B0EE41AAF0EE60AAB0EE408A0D460646B0EE691AF0EE4A0AB0EE6A0AFEF797FAD9
S32508009620F0EE408AB0EE691AF0EE4A0AB0EE6A0AFEF778FA38EE800AF6EE008A20EE289ABA
S325080096407AEEC90ADFED1AAA80EE880AF0EE6A0A30EE280AFBF7EBF99FED16BAF0EE4B0A2A
S32508009660FBF7EDF97AEE490A86ED000A80EE880AF0EE6A0A30EE280AFBF7D9F9F0EE4B0A33
S32508009680FBF7DDF985ED000A39EEC90AC0EE080A30EEA80AF0EE6A0AFBF7C9F9F0EE4B0AB5
S325080096A0FBF7CDF984ED000ABDEC088B70BD0000CDCC4C3D3333733F1C4810B5006886B0FF
S325080096C01B4C02281ED194ED0B0ADFED1A0A8DED030A94ED0D0A1848032320EE200A03AAEC
S325080096E001218DED040A94ED120AD0ED070A022020EE200ADFED110A20EE200A8DED050A45
S32508009700FFF7F8FE94ED080A03238DED000A94ED030A6A468DED010A94ED040A01218DED24
S32508009720020A0420FFF7E6FE06B010BD0800002080080020DB0FC94018010020802B993D11
S3250800974090ED2A0A90ED0B1AD0ED0D1A144930EE410A90ED2C1ADFED110A20EE010A90EDBE
S325080097602B1A31EE611AD0ED2D1A01EE810A90ED2E1AD1ED071A00F1900130EE011A81EEB0
S32508009780210A9FED081AC0EE011AC0ED241AC0ED230A90ED0A0A8C30FEF75ABA00000000FE
S325080097A018010020802B993D03B59DF8000048709DF80100087002200CBD01EE100A70EE7C
S325080097C0C00A0120B8EEC11A8840401E21EE201A00EE900AF8EEE01AC1EE210A30EE800AB6
S325080097E07047000010B50C462DED048B82B0016800919FED238ADFED238A40680190BDF818
S3250800980000001021F0EE480AB0EE680AFFF7D5FF84ED2A0ABDF802000E21C0F30D00F0EED6
S32508009820480AB0EE680AFFF7C8FF84ED2B0A9FED179ABDF803000A218009DFED130AB0EE25
S32508009840490AFFF7BAFF84ED2C0A9DF805000821DFED0F0AB0EE490AFFF7AFFF84ED2D0A6C
S32508009860BDF806001021F0EE480AB0EE680AFFF7A4FF84ED2E0A02B0BDEC048B10BD0000B5
S3250800988000002042000020C200C07F440000000000004C422DE9F0478046284889460026ED
S325080098A0016835464FF48067CA6A00EE102AF8EE400AB6EE000A60EE800AFCEEE00A10EEA8
S325080098C0902A4A630168CA6A00EE902AF8EE600A60EE800AFCEEE00A10EE902A8A630068C5
S325080098E0C16A00EE901AF8EE600A20EE800ABCEEC00A10EE101AC16300241148F7F760FC28
S325080099001048F7F75DFC0120F8F76CFA01210C48F7F738FC064401210A48F7F733FC641C31
S325080099200544BC42E9DB96FBF7F1C8F8001095FBF7F1C9F80010BDE8F0870000040D00202F
S32508009940540B00209C0B0020000000002975493CDF6EC93C6F0E173D3160493D8FA97B3D66
S3250800996038F4963D6B0EB03D4721C93D5E2EE23DEC2FFB3D7F130A3E698C163E76FD223E12
S32508009980A5662F3E97CA3B3E4A29483E807D543EDAC9603E560E6D3EF54A793E3CBD823EE0
S325080099A00FD1883EA4DF8E3EFBE8943EC4EB9A3EFFE7A03EFCDEA63E6CCFAC3E4EB9B23ECA
S325080099C0A29CB83E1878BE3EB24BC43EBD18CA3EECDDCF3EED99D53E614FDB3E59FAE03E34
S325080099E0C39EE63EB038EC3E71C9F13E5452F73EBBD0FC3E5322013FB2D7033FD387063F9A
S32508009A00B532093F5AD80B3FC0780E3F4013113F82A8133FDF37163F55C1183FE5441B3F8E
S32508009A208FC21D3F543A203F8AAB223FDB16253F9E7B273FD3D9293F7B312C3FED812E3F0E
S32508009A4079CC303FD00F333FF14B353F8481373FE2AF393F0AD73B3FFDF63D3F130F403F54
S32508009A609B20423F9E29443F132C463F0326483FBD184A3F9B034C3FF3E54D3F16C14F3F8E
S32508009A80B493513F745E533F5721553F0EDB563F8F8D583FE3365A3FB2D75B3FA4705D3FBB
S32508009AA069005F3F5188603F0C07623F9A7C633FA3E9643F274E663F7EA9673F50FC683FA4
S32508009AC04E456A3FC6856B3F12BD6C3F31EB6D3F23106F3F412B703FD93D713F9D46723FAF
S32508009AE03546733F9F3C743F3529753F9E0C763F32E6763F9AB6773F2C7D783FEB39793F1D
S32508009B007CED793F39977A3F22377B3F36CD7B3F75597C3F87DC7C3F1D557D3F87C47D3FE1
S32508009B2074297E3F34857E3F77D67E3F8E1E7F3F295C7F3FEF8F7F3F88BA7F3FA5DA7F3F17
S32508009B40EDF07F3F61FD7F3F0000803F23F87F3F19E77F3F92CB7F3F37A67F3FAF777F3F50
S32508009B60AB3E7F3FD2FB7E3F25AF7E3FA3587E3F4DF87D3F228E7D3F221A7D3F4E9C7C3F53
S32508009B80A5147C3F27837B3FD5E77A3F57437A3F0395793FDBDC783FDF1A783FB54F773FEF
S32508009BA0B77A763FE59B753FE5B3743FB9C2733FB9C7723F8BC3713F31B6703F029F6F3FF1
S32508009BC0A67E6E3F1D556D3F68226C3F86E66A3F1FA2693FE353683F22FD663F349D653FBF
S32508009BE01A34643F22C3623F5648613FACC55F3FD6395E3F7AA55C3F9A085B3F3563593FC1
S32508009C004AB5573F82FF553F8E40543F637A523FB4AB503F80D44E3F6FF54C3F280F4B3F3E
S32508009C205C20493FB329473FD42B453F1826433F7E18413FB0033F3FABE73C3F72C43A3F6A
S32508009C405B99383FB667363FDC2E343FCCEE313F2FA82F3F5C5A2D3FFB052B3F0DAB283F62
S32508009C609049263F2EE2233F9773213F19FF1E3FB6841C3FC5031A3F957D173FD8F0143F0E
S32508009C80DD5E123FFCC60F3F35290D3F2F860A3FECDD073F6A30053FAA7D023F598BFF3EFC
S32508009CA03012FA3E8A8EF43E0803EF3E096DE93EDDCDE33E8525DE3E4F75D83E3CBDD23E89
S32508009CC0FCFBCC3EDF32C73E3563C13E5D8ABB3E47ACB53E05C5AF3E84D8A93E75E5A33ECD
S32508009CE089EA9D3E60EA973EF7E4913E02D98B3ECEC7853EB7627F3EF52D733EB7EE663E51
S32508009D00FDA45A3E65534E3EF0F9413E3D9B353E0E32293EA0C31C3EF44F103E0AD7033EEE
S32508009D20C4B1EE3DB9A5D53DA298BC3D1B82A33D49658A3D6685623DD637303DF7C7FB3CE7
S32508009D40C615973C5374C93B5374C9BBC61597BCF7C7FBBCD63730BD668562BD49658ABD95
S32508009D601B82A3BDA298BCBDB9A5D5BDC4B1EEBD0AD703BEF44F10BEA0C31CBE0E3229BEFE
S32508009D803D9B35BEF0F941BE65534EBEFDA45ABEB7EE66BEF52D73BEB7627FBECEC785BE3B
S32508009DA002D98BBEF7E491BE60EA97BE89EA9DBE75E5A3BE84D8A9BE05C5AFBE47ACB5BEBF
S32508009DC05D8ABBBE3563C1BEDF32C7BEFCFBCCBE3CBDD2BE4F75D8BE8525DEBEDDCDE3BE73
S32508009DE0096DE9BE0803EFBE8A8EF4BE3012FABE598BFFBEAA7D02BF6A3005BFECDD07BF46
S32508009E002F860ABF35290DBFFCC60FBFDD5E12BFD8F014BF957D17BFC5031ABFB6841CBFB7
S32508009E2019FF1EBF977321BF2EE223BF904926BF0DAB28BFFB052BBF5C5A2DBF2FA82FBF95
S32508009E40CCEE31BFDC2E34BFB66736BF5B9938BF72C43ABFABE73CBFB0033FBF7E1841BF4D
S32508009E60182643BFD42B45BFB32947BF5C2049BF280F4BBF6FF54CBF80D44EBFB4AB50BFAC
S32508009E80637A52BF8E4054BF82FF55BF4AB557BF356359BF9A085BBF7AA55CBFD6395EBF69
S32508009EA0ACC55FBF564861BF22C362BF1A3464BF349D65BF22FD66BFE35368BF1FA269BF51
S32508009EC086E66ABF68226CBF1D556DBFA67E6EBF029F6FBF31B670BF8BC371BFB9C772BF27
S32508009EE0B9C273BFE5B374BFE59B75BFB77A76BFB54F77BFDF1A78BFDBDC78BF039579BF9A
S32508009F0057437ABFD5E77ABF27837BBFA5147CBF4E9C7CBF221A7DBF228E7DBF4DF87DBF89
S32508009F20A3587EBF25AF7EBFD2FB7EBFAB3E7FBFAF777FBF37A67FBF92CB7FBF19E77FBF41
S32508009F4023F87FBF000080BF61FD7FBFEDF07FBFA5DA7FBF88BA7FBFEF8F7FBF295C7FBFE8
S32508009F608E1E7FBF77D67EBF34857EBF74297EBF87C47DBF1D557DBF87DC7CBF75597CBFB3
S32508009F8036CD7BBF22377BBF39977ABF7CED79BFEB3979BF2C7D78BF9AB677BF32E676BF2A
S32508009FA09E0C76BF352975BF9F3C74BF354673BF9D4672BFD93D71BF412B70BF23106FBF11
S32508009FC031EB6DBF12BD6CBFC6856BBF4E456ABF50FC68BF7EA967BF274E66BFA3E964BFF7
S32508009FE09A7C63BF0C0762BF518860BF69005FBFA4705DBFB2D75BBFE3365ABF8F8D58BF30
S3250800A0000EDB56BF572155BF745E53BFB49351BF16C14FBFF3E54DBF9B034CBFBD184ABF1D
S3250800A020032648BF132C46BF9E2944BF9B2042BF130F40BFFDF63DBF0AD73BBFE2AF39BFA4
S3250800A040848137BFF14B35BFD00F33BF79CC30BFED812EBF7B312CBFD3D929BF9E7B27BF3D
S3250800A060DB1625BF8AAB22BF543A20BF8FC21DBFE5441BBF55C118BFDF3716BF82A813BF76
S3250800A080401311BFC0780EBF5AD80BBFB53209BFD38706BFB2D703BF532201BFBBD0FCBEFB
S3250800A0A05452F7BE71C9F1BEB038ECBEC39EE6BE59FAE0BE614FDBBEED99D5BEECDDCFBE0E
S3250800A0C0BD18CABEB24BC4BE1878BEBEA29CB8BE4EB9B2BE6CCFACBEFCDEA6BEFFE7A0BE38
S3250800A0E0C4EB9ABEFBE894BEA4DF8EBE0FD188BE3CBD82BEF54A79BE560E6DBEDAC960BE22
S3250800A100807D54BE4A2948BE97CA3BBEA5662FBE76FD22BE698C16BE7F130ABEEC2FFBBD0E
S3250800A1205E2EE2BD4721C9BD6B0EB0BD38F496BD8FA97BBD316049BD6F0E17BDDF6EC9BC69
S3250800A140297549BC0000000000000000B71DC1046E3B8209D926430DDC7604136B6BC51717
S3250800A160B24D861A0550471EB8ED08260FF0C922D6D68A2F61CB4B2B649B0C35D386CD311D
S3250800A1800AA08E3CBDBD4F3870DB114CC7C6D0481EE09345A9FD5241ACAD155F1BB0D45B19
S3250800A1A0C2969756758B5652C836196A7F2BD86EA60D9B6311105A6714401D79A35DDC7D5D
S3250800A1C07A7B9F70CD665E74E0B6239857ABE29C8E8DA191399060953CC0278B8BDDE68F01
S3250800A1E052FBA582E5E66486585B2BBEEF46EABA3660A9B7817D68B3842D2FAD3330EEA91D
S3250800A200EA16ADA45D0B6CA0906D32D42770F3D0FE56B0DD494B71D94C1B36C7FB06F7C330
S3250800A2202220B4CE953D75CA28803AF29F9DFBF646BBB8FBF1A679FFF4F63EE143EBFFE55C
S3250800A2409ACDBCE82DD07DEC77708634C06D4730194B043DAE56C539AB0682271C1B43239C
S3250800A260C53D002E7220C12ACF9D8E1278804F16A1A60C1B16BBCD1F13EB8A01A4F64B051C
S3250800A2807DD00808CACDC90C07AB9778B0B6567C69901571DE8DD475DBDD936B6CC0526F18
S3250800A2A0B5E6116202FBD066BF469F5E085B5E5AD17D1D576660DC5363309B4DD42D5A495C
S3250800A2C00D0B1944BA16D84097C6A5AC20DB64A8F9FD27A54EE0E6A14BB0A1BFFCAD60BBC8
S3250800A2E0258B23B69296E2B22F2BAD8A98366C8E41102F83F60DEE87F35DA9994440689D1C
S3250800A3009D662B902A7BEA94E71DB4E0500075E4892636E93E3BF7ED3B6BB0F38C7671F72F
S3250800A320555032FAE24DF3FE5FF0BCC6E8ED7DC231CB3ECF86D6FFCB8386B8D5349B79D15B
S3250800A340EDBD3ADC5AA0FBD8EEE00C6959FDCD6D80DB8E6037C64F643296087A858BC97EF5
S3250800A3605CAD8A73EBB04B77560D044FE110C54B383686468F2B47428A7B005C3D66C1581B
S3250800A380E4408255535D43519E3B1D252926DC21F0009F2C471D5E28424D1936F550D83237
S3250800A3A02C769B3F9B6B5A3B26D6150391CBD40748ED970AFFF0560EFAA011104DBDD0145B
S3250800A3C0949B93192386521D0E562FF1B94BEEF5606DADF8D7706CFCD2202BE2653DEAE67F
S3250800A3E0BC1BA9EB0B0668EFB6BB27D701A6E6D3D880A5DE6F9D64DA6ACD23C4DDD0E2C01B
S3250800A40004F6A1CDB3EB60C97E8D3EBDC990FFB910B6BCB4A7AB7DB0A2FB3AAE15E6FBAA0E
S3250800A420CCC0B8A77BDD79A3C660369B717DF79FA85BB4921F4675961A163288AD0BF38C5A
S3250800A440742DB081C330718599908A5D2E8D4B59F7AB085440B6C95045E68E4EF2FB4F4A2A
S3250800A4602BDD0C479CC0CD43217D827B9660437F4F460072F85BC176FD0B86684A16476C1A
S3250800A48093300461242DC565E94B9B115E565A1587701918306DD81C353D9F0282205E0636
S3250800A4A05B061D0BEC1BDC0F51A69337E6BB52333F9D113E8880D03A8DD097243ACD56205A
S3250800A4C0E3EB152D54F6D4297926A9C5CE3B68C1171D2BCCA000EAC8A550ADD6124D6CD246
S3250800A4E0CB6B2FDF7C76EEDBC1CBA1E376D660E7AFF023EA18EDE2EE1DBDA5F0AAA064F41A
S3250800A500738627F9C49BE6FD09FDB889BEE0798D67C63A80D0DBFB84D58BBC9A62967D9E0D
S3250800A520BBB03E930CADFF97B110B0AF060D71ABDF2B32A66836F3A26D66B4BCDA7B75B859
S3250800A540035D36B5B440F7B100002442006097440000000000000000000000000000000065
S3250800A56000000000010203040607080900000000010203040000000004FA97999999D93F23
S3250800A580AF788E1DC571CC3F9FC678D0099AC33F935555555555E53F599322942449D23FC8
S3250800A5A0DE03CB966446C73F44523EDF12F1C23F000000000000F03F000000000000F83F7E
S3250800A5C000000000000000000000004003B8E23F000000000000000006D0CF43EBFD4C3EF7
S3250800A5E0033333333333E33FFFAB6FDBB66DDB3F4D268F515555D53F01411DA96074D13FFB
S3250800A60065DBC9934A86CD3FEF4E454A287ECA3F3E5555555555C53F93BDBE166CC166BFD8
S3250800A6202CDE25AF6A56113FF16BD2C541BDBBBED0A4BE726937663E0000000000000000CC
S3250800A640000000006E83F9A22915444ED15727FCC0DD34F5999562DB4190433CAB6351FE67
S3250800A6600A0D20546F206368616E676520612076616C75652C20747970652027707265668C
S3250800A6806978272776616C75652727454E544552270A0D20692E652E20276231303030277B
S3250800A6A027454E544552270A0D0A0D00CCA600080000002080000000AC6000084CA7000869
S3250800A6C080000020A0CD0000BC60000800000000000000000000000000000000000000003B
S3250800A6E0000000000000000000000008004000080080000800C00008000001080000020899
S3250800A700000004080000060800000000080000001000000018000000200000003000000091
S3250800A7203000000038000000000000000100000010000000000000000024F400000000007A
S3110800A740000000000000000000000000FF
S325080600007060002065020608F30C0608C10C0608F10C06085B040608AD0D0608000000003F
S32508060020000000000000000000000000F70C06085D04060800000000F50C0608F90C06080A
S325080600407F0206087F0206087F0206087F0206087F0206087F0206087F0206087F02060814
S325080600607F0206087F0206087F0206087F0206087F0206087F0206087F0206087F020608F4
S325080600807F0206087F0206087F0206087F0206087F0206087F0206087F0206087F020608D4
S325080600A07F0206087F0206087F0206087F0206087F0206087F0206087F0206087F020608B4
S325080600C07F0206087F0206087F0206087F0206087F0206087F0206087F0206087F02060894
S325080600E07F0206087F0206087F0206087F0206087F0206087F0206087F0206087F02060874
S325080601007F0206087F0206087F0206087F0206087F0206087F0206087F0206087F02060853
S325080601207F0206087F0206087F0206087F0206087F02060800000000000000007F02060851
S325080601407F0206087F0206087F0206087F0206087F0206087F0206087F0206087F02060813
S325080601607F0206087F0206087F0206087F0206087F0206087F0206087F0206080000000082
S32508060180000000007F02060800000000000000007F02060800000000000000007F0206089E
S325080601A00000000000000000000000007F0206087F0206087F0206087F0206087F02060860
S325080601C07F02060800F002F800F03CF80AA090E8000C82448344AAF10107DA4501D100F02F
S325080601E031F8AFF2090EBAE80F0013F0010F18BFFB1A43F001031847E00C0000000D0000CB
S32508060200103A24BF78C878C1FAD8520724BF30C830C144BF04680C60704700000023002454
S3250806022000250026103A28BF78C1FBD8520728BF30C148BF0B6070471FB500F03FFE1FBDEB
S3250806024010B510BD00F0CFF81146FFF7F5FF00F0BFFD00F0EDF803B4FFF7F2FF03BC00F032
S32508060260F5F800000948804709480047FEE7FEE7FEE7FEE7FEE7FEE7FEE7FEE7FEE7FEE7DB
S3250806028004480549054A064B704700009D0D0608C50106087000002070600020702000209D
S325080602A07020002053EA020C00F069802DE9F04B4FF00006002B1FBFB3FA83F503FA05F49C
S325080602C024FA05F65E4012BF1643B2FA82F502FA05F4C5F120051EBF22FA05FC44EA0C04FE
S325080602E0203556EA044C4FEA144418BF641C4FF000084FF00009904271EB030C39D300291C
S3250806030019BFB1FA81F701FA07F6B0FA80F700FA07F6C7F120071EBF20FA07FC46EA0C06A3
S325080603202037B6FBF4FCA7EB0507103F07F01F0BCBF120060CFA0BFB2CFA06F644BFB34697
S325080603400026202FA4BF5E464FF0000B5BEA060C08BF4FF0010B19EB0B09ABFB027C48EBEB
S325080603600608C01B06FB02CC0BFB03CC71EB0C01C1E70B46024641464846BDE8F08B13B535
S325080603804FF000004FF00001AFF30080BDE81C4070474FF0000200B5134694469646203992
S325080603A022BFA0E80C50A0E80C50B1F12001BFF4F7AF090728BFA0E80C5048BF0CC05DF861
S325080603C004EB890028BF40F8042B08BF704748BF20F8022B11F0804F18BF00F8012B7047F7
S325080603E0704770477047754600F02CF8AE4605006946534620F00700854618B020B5FFF73F
S325080604003FFFBDE820404FF000064FF000074FF000084FF0000B21F00701AC46ACE8C00901
S32508060420ACE8C009ACE8C009ACE8C0098D46704710B50446AFF300802046BDE81040FFF785
S325080604400ABF0000004870471000002001491820ABBEFEE7260002007047FEE77047000045
S3250806046001490860704700000C3C024070B50646002529B1012927D0022928D04FF44075C9
S3250806048000F080F809281ED1124C206820F440702060206828432060206820F0F800206013
S325080604A0206846F0020108432060206840F48030206000F067F8216821F0020121602168BA
S325080604C021F0F801216070BD4FF48075D8E74FF40075D5E7103C02400D4909200A68D20391
S325080604E001D5012070470A68D20601D5062070470A68D20501D5022070470A6812F0E00FE2
S3250806050001D00720704709688907FBD5082070470C3C02400248016841F0004101607047A1
S32508060520103C024070B50D46064600F02BF8092813D10A4C206820F440702060206840F44F
S3250806054000702060206840F001002060356000F019F8216821F00101216070BD103C0240F0
S3250806056005480068002805DA034804490C3801600349016070470000103C024023016745AC
S32508060580AB89EFCD08B509208DF80000FFF7A4FF8DF800009DF800000128F7D09DF80000B4
S325080605A008BD000001488068704700000000002002488168027811448160704700000020A0
S325080605C00B4810B5016841F400710160016841F480610160016841F480710160032000F09C
S325080605E061F80F2000F006F800F024F8002010BD003C024070B50D4D04464FF47A71287863
S32508060600B1FBF0F00A490968B1FBF0F000F044FB48B9102C07D200222146501E00F022F8A4
S3250806062000206C6070BD012070BD0000000000200C0000200A4808B5016841F48041016024
S32508060640006800F4804000900548001F016841F080510160006800F08050009008BD000025
S3250806066044380240F0B40E4B1B680C46C3F30223C3F10705042D00D90425191D072901D2CF
S32508060680002300E0DB1E012606FA05F1491E214099409E40761E16403143F0BC00F087BB72
S325080606A00CED00E0064900F0070208684FF6FF03184040EA0220034A1043086070470000EB
S325080606C00CED00E00000FA052DE9F8431748016841F0805101600068154F00F080500126FF
S325080606E000903E64FFF75EFF05464FF47A78114C05E000BFFFF756FF401B40450DD8606808
S32508060700C003F7D57E64FFF74DFF0546464607E0FFF748FF401BB04202D90320BDE8F883AC
S3250806072060688003F4D50020F8E700004038024000000E42007000402DE9F0470E46050032
S3250806074065D0DFF81481D8F80000F7B200F00F00B04207D288F80070D8F8000000F00F00E2
S32508060760B04254D128683D4C810712D5400703D5206840F4E05020602878000703D5206834
S3250806078040F4604020602068A96820F0F000084320602878C0072DD0304968680839012876
S325080607A012D0022813D0032811D00968890700292DDA216821F0030101432160FFF7F2FEB0
S325080607C0814641F2883A0EE009688903EFE709688901ECE7FFF7E6FEA0EB0901514502D9DA
S325080607E00320BDE8F0872068696800F00C00B0EB810FEFD1D8F80010404601F00F01B1420C
S3250806080007D90770006800F00F00B04201D00120E7E72878400705D52068E96820F4E05076
S32508060820084320602878000706D52068296920F4604040EAC100206000F018F82168084A43
S32508060840C1F30311515CC8400649086006480068FFF7D0FE0020C4E7003C0240083802400B
S32508060860C60E06080C00002004000020224810B5006810F00C02214815D04110042A11D0DF
S325080608801D4C241F082A0FD00C2A0CD12268236802F03F025B0221D52068C0F38810A0FB6B
S325080608A0010120E0084610BD2268236802F03F025B0205D52068C0F38810A0FB010104E034
S325080608C02168C1F38811A1FB00010023FFF7EAFC2168C1F30141491C49000AE02168C1F33E
S325080608E08811A1FB00010023FFF7DCFC2168C1F30271B0FBF1F010BD083802400024F4001A
S325080609002DE9F84F04007DD0DFF878B32078ABF10407C007A7F1040550D0DBF800105846CB
S32508060920C1F3810101290FD00168C1F38101022902D13968490207D40068C0F38100032839
S3250806094009D13868400206D52868800336D560680028D8D032E06068B0F5803F10D0B0F573
S32508060960A02F286810D020F480302860286820F4802028606068A0B1FFF714FE06460CE0B3
S32508060980286840F48030F4E740F480202860F7E7FFF708FE801B642876D828688003F7D56A
S325080609A00CE0FFF7FFFD064605E000BFFFF7FAFD801B6428F0D828688003F7D42078DFF82C
S325080609C0C89280074FF0000A44D5DBF80010584611F00C0F0FD00168C1F38101022902D1A7
S325080609E03968490207D50068C0F3810003280AD13868400207D42868800715D5E06801284A
S32508060A0000D111E03AE1E068B0B10120C9F80000FFF7C8FD064604E0FFF7C4FD801B0228F3
S32508060A20BAD828688007F7D52868216920F0F80040EAC10028600DE0C9F800A0FFF7B2FDA5
S32508060A40064604E0FFF7AEFD801B02281CD828688007F7D42078000727D5DFF828828B4827
S32508060A60616908F16C0881B101210160FFF79AFD064604E0FFF796FD801B022804D8D8F8BF
S32508060A8000008007F6D510E089E0C0F800A0FFF789FD064605E000BFFFF784FD801B022897
S32508060AA07DD8D8F800008007F6D42078400769D574484FF0000838300068C0000BD4714864
S32508060AC03830016841F08051016000684FF0010800F0805000906E4E3068C00511D4306838
S32508060AE040F480703060FFF75DFD009006E000BFFFF758FD0099401A022850D83068C005BC
S32508060B00F6D5604EA068683601280FD00528306810D020F001003060306820F00400306018
S32508060B20A068B8B1FFF73EFD00900FE0306840F00100F4E740F004003060F7E7FFF732FD15
S32508060B400099411A41F28830814264D830688007F4D50EE0FFF726FD009007E0FFF722FD28
S32508060B600099411A41F28830814254D830688007F4D4B8F1000F05D042483830016821F0B3
S32508060B8080510160A069A8B3DBF80010C1F38101022947D00228C9F860A005D000E03AE096
S32508060BA0FFF700FD044639E0FFF7FCFC064604E0FFF7F8FC801B02282DD828688001F7D41D
S32508060BC0F4E907010843E168324A490802EB0141A26841EA82110843217C40EA0160217DB3
S32508060BE040EA017038600120C9F86000FFF7DAFC044606E044E000BFFFF7D4FC001B022882
S32508060C0009D828688001F7D53AE000BFFFF7CAFC001B022802D90320BDE8F88F28688001ED
S32508060C20F4D42DE00128F7D03868E26900F48001914223D1226A00F03F0191421ED147F6F9
S32508060C40C071626A0140B1EB821F17D1A26A4FF0FF3300F4403103EB5202B1EB024F0DD12E
S32508060C6094F82C2000F07061B1EB026F06D194F8301000F0E040B0EB017F01D00120CBE748
S32508060C800020C9E70838024000004742800E4742007000400000FFFF10B5401EB0F1807FDD
S32508060CA001D3012010BD4FF0E02460610F21601700F07DF80020A06107202061002010BD98
S32508060CC0FEE70000094808B5016841F080010160016801F080010091016841F00101016028
S32508060CE0006800F00100009008BD000030380240FEE7FEE770477047FFF75ABC30B593B01C
S32508060D0034216846FFF745FB14210DA8FFF741FB20480025016841F080510160006800F0B9
S32508060D20805012901C48016841F4404101600068022400F44040129001200090000401905F
S32508060D408001CDE9064004200890B420CDE909040B9468460C94FFF7D3FD08B172B6FEE736
S32508060D60FFF7B2FC08B172B6FEE70DA90F2081E831004FF4A05010904FF4805011900521C9
S32508060D800DA8FFF7D9FC002801D072B6FEE713B030BD0000403802400070004002480168EC
S32508060DA041F470010160704788ED00E0FEE70907090E002804DB00F1E02080F800147047C5
S32508060DC000F00F0000F1E02080F8141D70470000FFF7F6FBFFF792FFFFF774FF0D490C482E
S32508060DE00860002400F01AF818B1641C052CF9DBFEE7BFF34F8F0748001D0168064A01F474
S32508060E00E06111430160BFF34F8F00BFFDE700000000060808ED00E00400FA052DE9F04762
S32508060E20FFF79EFBF120FFF71BFB00244FF0FF38E0000221FFF71AFB092821D1641C052C76
S32508060E40F6DBFFF767FB1C4D4FF000606FF001090168491C29D1001DA842F9D38A465746DC
S32508060E60FFF77EFB4FF400465FF0000407EB840055F8241000F10060FFF754FB092804D081
S32508060E80FFF748FB4046BDE8F087641CB442EDD3FFF740FB00200BE007EB800101F100612B
S32508060EA055F8202009688A4201D04846EBE7401CB042F1D35046E6E7000002084FF04070B5
S32508060EC0E1EE100A7047000000000000000001020304060708090000F80E06080000002002
S32508060EE01000000000020608080F060810000020606000001C02060801000000100000006C
S30D08060F00000000000024F400BD
S9030000FC
