:020000040800F2
:1000000050500120ED010008EF560008B74F0008DE
:10001000ED560008A5100008916C000800000000D3
:100020000000000000000000000000001D59000852
:10003000D910000800000000F1560008515B0008CC
:10004000070200080702000807020008070200086C
:10005000070200080702000807020008070200085C
:10006000070200080702000807020008070200084C
:10007000070200080702000807020008070200083C
:10008000070200080702000807020008070200082C
:1000900007020008E1100008070200080702000834
:1000A00007020008CD5B00080702000807020008ED
:1000B000695C000807020008070200080702000840
:1000C00007020008070200080702000807020008EC
:1000D00007020008856C00080702000807020008F4
:1000E00007020008070200080702000807020008CC
:1000F00007020008070200080702000807020008BC
:1001000007020008070200080702000807020008AB
:10011000070200080702000807020008070200089B
:10012000070200080702000807020008070200088B
:10013000070200080702000807020008070200087B
:10014000070200080702000807020008070200086B
:10015000070200080702000807020008070200085B
:10016000070200080702000807020008070200084B
:10017000070200080702000807020008070200083B
:10018000070200080702000807020008070200082B
:10019000070200080000000007020008070200082C
:1001A000070200080702000807020008070200080B
:1001B00007020008070200080702000807020008FB
:1001C00007020008070200080702000807020008EB
:1001D0000702000807020008DFF80CD000F096FCC8
:1001E00000480047A1A3000850500120064880475E
:1001F00006480047FEE7FEE7FEE7FEE7FEE7FEE70C
:10020000FEE7FEE7FEE7FEE7BD5B0008D901000858
:100210002DE9F05F0546002092469B46884606463B
:10022000814640241BE0284641464746224600F0CE
:10023000BBF953465A46C01A914110D3114618468D
:10024000224600F0A2F92D1A67EB01084F4622461C
:100250000120002100F099F917EB00094E41201E02
:10026000A4F10104DFDC484631462A464346BDE896
:10027000F09F40EA01039B0703D009E008C9121F61
:1002800008C0042AFAD203E011F8013B00F8013B50
:10029000521EF9D27047D2B201E000F8012B491E7C
:1002A000FBD270470022F6E710B513460A46044613
:1002B0001946FFF7F0FF204610BD70B5064606F060
:1002C0005BFD046805460A220021304600F0DCF997
:1002D0002C6070BD2DE9FE4F804681EA0300C00FFF
:1002E0000C46009021F0004123F00045B8EB0200DD
:1002F000A94105D24046214690461C460B4602467F
:1003000023F00040104347D0270DC7F30A00C3F382
:100310000A510290401A019040286BDAC3F313008F
:1003200040F4801B0098924620B10023D2EB030AD0
:1003300063EB0B0B01985946C0F14002504600F0A8
:1003400024F906460D4650465946019A00F03CF9FC
:1003500010EB08006141002487EA115284EAE77338
:100360001A4340D0009A62B3019A012A4FEA075219
:1003700015DC001B61EB02014FF0004202EA07525C
:10038000CDE90042001C41F5801132462B4600F0B9
:10039000F9F903B0BDE8F08F40462146F9E7001BAC
:1003A00061EB0201001C41F5801300185B4120182D
:1003B000A2F5001747EB030140EAD570B6196D416D
:1003C00011E06D084FEA360645EAC0754FEA07525C
:1003D000001B61EB0201001C41F5801149084FEA46
:1003E00030000019514132462B4603B0BDE8F04FB2
:1003F00000F0B9B90098012240000023D0EB0202BE
:1004000063EBE073009821464FEAE074B8EB00001C
:1004100061EB0401E9E783F000435BE781F0004111
:1004200058E72DE9F04D81EA030404F0004B21F078
:10043000004514464FF0000A23F0004150EA05023F
:1004400020D054EA01021DD0C5F30A570246C5F375
:100450001303C1F31300C1F30A5640F4801543F4AB
:100460008013A7EB0608101BD64608F2FD3873EB85
:10047000050002D308F1010801E092185B41B8F1D0
:10048000000F03DA00200146BDE8F08D00204FF494
:100490008011064684460EE0171B73EB050705D353
:1004A000121B63EB050306434CEA010C49084FEAB3
:1004B000300092185B4150EA0107EDD152EA030087
:1004C00012D082EA040083EA0501084305D0101B1C
:1004D000AB4106D20122002306E000224FF0004388
:1004E00002E06FF0010253101AEB06004CEB0851CA
:1004F00010EB0A0041EB0B01BDE8F04D00F033B901
:1005000000F0004230F000400AD0C10D01F56071EA
:10051000C0F3160042EA0151C20840071143704778
:1005200000200146704701F0004330B421F0004143
:1005300050EA010206D00A0DA2F56072C1F3130160
:10054000002A02DC30BC00207047440F44EAC1049A
:10055000C100E01830BC00EBC25000F0CDB830B59F
:100560000B46014600202022012409E021FA02F571
:100570009D4205D303FA02F5491B04FA02F528440B
:10058000151EA2F10102F1DC30BD202A04DB203A65
:1005900000FA02F1002070479140C2F1200320FAD6
:1005A00003F3194390407047202A04DB203A21FAD4
:1005B00002F00021704721FA02F3D040C2F120027C
:1005C0009140084319467047202A06DBCB17203A92
:1005D00041FA02F043EAE07306E041FA02F3D04048
:1005E000C2F1200291400843194670470FB400231E
:1005F00000B589B00CA900910B996FF00042CB6057
:100600001E4B06931E4B07930423CDE901321D4A6E
:10061000089202466B46002000F02CFB09B05DF802
:1006200014FB70B586B006464FF0FF300091CDE95F
:100630000101002015460C4604903246694604A884
:10064000FFF7D4FF02460498211825B108B10846E7
:1006500000E020462860049800280DD0002A02DD22
:100660000098884208D0081B0094CDE90104324666
:10067000694604A8FFF7BAFF06B070BDAD0E0008CA
:10068000CB0E0008390B00082DE9F04791460F46C4
:1006900080460446002614F8015B2DB100F048FAAC
:1006A0000068405DC007F6D12B2D02D02D2D18D04B
:1006B000641E4A463946204600F018FC27B13968C6
:1006C000A14201D1C7F8008071054FF002040BD59B
:1006D0004042002803DD06F04FFB0460A007BDE8A0
:1006E000F08746F48066E4E70028F8DA06F044FB79
:1006F00004606FF00040F2E70029A8BF7047401C7B
:10070000490008BF20F00100704710B4B0FA80FC27
:1007100000FA0CF050EA010404BF10BC704749B164
:10072000CCF1200421FA04F411FA0CF118BF0121D4
:1007300021430843A3EB0C01CB1D4FEA00614FEAB4
:10074000102042BF002010BC704700EBC350104483
:100750000029A4BF10BC7047401C490008BF20F00E
:10076000010010BC704710B5141E73F1000408DAC4
:10077000401C41F1000192185B411A4301D120F065
:10078000010010BD2DE9F04D92469B4611B1B1FA22
:1007900081F202E0B0FA80F220329046FFF7F5FED7
:1007A00004460F4640EA0A0041EA0B0153465A4606
:1007B000084313D0114653EA010019D0C8F1400292
:1007C0005046FFF7F1FE05460E4650465946424652
:1007D000FFF7DBFE084305D0012004E02046394640
:1007E000BDE8F08D0020054346EAE0762C43374310
:1007F0000A986305E40AA0EB08000022FD0A44EA17
:1008000047540A3002D500200146E9E701051019D6
:100810006941DDE9084500196941BDE8F04DA2E7ED
:100820002DE9FE4F81EA030404F0004421F0004169
:1008300000944FF0000B23F0004350EA01045ED017
:1008400052EA03045BD0C3F30A54C1F30A552C44A3
:10085000A4F2F3340194A0FB0254C1F3130141F458
:100860008011C3F3130343F4801301FB024400FB24
:10087000034E840A970A44EA815447EA8357A4FB4B
:10088000076802958D0A05FB07854FEA932C04FB48
:100890000C542705029D4FEA065847EA1637B5EB78
:1008A00008056EEB070C870E920E47EA811742EAA5
:1008B0008312A7FB0201B6EB0B0164EB00042B0DC6
:1008C00043EA0C335E1844EB1C50DA465146E7FB12
:1008D0000201C5F313044FEA0B3343EA14534FEA02
:1008E0000432019C43EA0603A4F10C040294009C28
:1008F000CDE900B4FFF746FF03B0BDE8F08F00205C
:100900000146F9E770B521F0004303430CD0C1F371
:100910000A550024D5EB040564EB0403D617AD1A81
:10092000B34102DB0020014670BD201841EB0251AB
:1009300070BD2DE9F04D00231A461B1A8A4103DBD6
:1009400000200146BDE8F08DC1F30A52C1F3130146
:1009500041F480154FF0000BD10702D100186D4112
:10096000521E0027044640F2FF11384601EB620A8E
:100970003E468046024600204FF48011FFF714FEE9
:10098000C2197141BB1846EB0100B4EB030C75EBC7
:10099000000C04D3E41A65EB000517460E46241933
:1009A00008F101006D4180463428E3DDF91946EB7A
:1009B0000600091BA84103D24FF0FF32134601E0A5
:1009C000002213461BEB070046EB0A51BDE8F04D31
:1009D000FFF7C9BE2DE9FE4FC3F30A5701F00045EA
:1009E0000024C1F30A56C3F31303C1F3130143F404
:1009F000801312EB020AA64641F48011009543EBE6
:100A0000030CA7F1010B16E0B0EB0A0061EB0C013F
:100A1000071E71F1000707DA4FF00008D0EB08005D
:100A200085F0004568EB0101171A73EB0107EBD362
:100A3000761E001849415E45F6DA50EA010209D0F7
:100A4000CDE900E5002213460296FFF79BFE03B0B6
:100A5000BDE8F08F20460099F9E70EB5C10F80EA96
:100A6000E0700844CA07002140F233438DE80E00CD
:100A70000A460B46FFF786FE03B000BDC1F30A52DB
:100A8000C1F3130140F2FF3341F480119A4202DABC
:100A900000200146704740F233439A42A2F23342AB
:100AA00002DC5242FFF780BDFFF76FBD30B5041E78
:100AB00071F1000404DB4FF00044404264EB01019B
:100AC000141E73F1000405DB1C464FF00043524234
:100AD00063EB04038B4208BF824230BD30B5041E75
:100AE00071F1000404DB4FF00044404264EB01016B
:100AF000141E73F1000405DB1C464FF00043524204
:100B000063EB0403994208BF904230BD064C074D89
:100B100006E0E06840F0010394E8070098471034CD
:100B2000AC42F6D3FFF75CFBFCC000081CC1000818
:100B300000487047ACC0000810B50446FFF7F8FF46
:100B40000068005D00F0010010BD00002DE9FF4FBE
:100B5000087883B09946FF2805D0491C2D2804D079
:100B60000024002008E000200BE00124F9E700EB5E
:100B7000800003EB4000491C0B78FF2BF7D104B138
:100B8000404200230293147819461D462D2C01D0B3
:100B90002B2C04D1521C2D2C13D000240294AA46D5
:100BA0001478FF2C0FD00A25A3FB057801FB0581E3
:100BB0004FF0000C03FB0C11521CE3194AEB01012E
:100BC000EEE70124EAE7814453EA010002D019F577
:100BD000C87F06DA03980021C0E9001107B0BDE81C
:100BE000F08F0025AE4E2F46DFF8B882184600F091
:100BF000DAF9CDE90001B9F1000002DAC9F1000427
:100C000000E004460023A74A1AEB030B42EB045A08
:100C100012E0E00707D02A46334638464146FFF740
:100C2000FFFD074688462A46334610461946FFF719
:100C3000F7FD05460E466410002CEAD1DDE90001FF
:100C4000B9F1000F5A46534606DAFFF7EAFB3A4677
:100C50004346FFF7E6FB05E0FFF7E2FD3A46434671
:100C6000FFF7DEFD029A0AB181F00041039AC2E962
:100C70000001B3E72DE9FF4F1F468DB0D7E90146CC
:100C80004FF0FF382E2045464FF000090B90B96910
:100C90006D1C0E988847396A824688470028F6D12D
:100CA000BAF1FF3F0AD024F4D064002E11DDBAF16E
:100CB0002B0F08D0BAF12D0F0BD102E0404611B036
:100CC0008DE744F48064B9696D1C0E9888478246AC
:100CD000761E6946600501D52D2000E02B208DF899
:100CE000000001F1010B0DF1200809E0B9696D1C4C
:100CF0000E98884782460F9844F40074761E05606B
:100D0000002E02DDBAF1300FF0D00B998A453ED1AA
:100D100044F0800406E00F99681CA9F1010944F42D
:100D200000740860B9696D1C761E0E98884782466B
:100D30003028F0D02BE00B998A4505D1200603D44A
:100D400044F08004761E18E0504607F051FC08B3CA
:100D50000DF11301761E44F400748B4508D2AAF1FC
:100D600030000BF8010B200607D5A9F1010003E0C4
:100D7000200602D409F101008146A00502D50F9991
:100D8000681C0860B9696D1C0E9888478246002E61
:100D9000D1DC53E0002E51DDBAF1650F02D0BAF17B
:100DA000450F4BD1A00549D5B9696D1C24F4407499
:100DB000761E0E9888478246002E0CDD2B2804D024
:100DC000BAF12D0F07D144F48074B9696D1C0E98E7
:100DD00088478246761EE00501D52D2100E02B21B3
:100DE00008F8011BCDF82C8021E00DF12901761EB9
:100DF00044F4007488450CD2AAF1300010F0FF00D2
:100E000088F8000002D10B99884509D908F101083A
:100E100006E0E00501D5244801E042F20F7081466A
:100E2000B9696D1C0E98884782460F980560002EA0
:100E300004DD504607F0DCFB0028D6D1F9690E9896
:100E40008847FF208BF8000088F8000000200690FB
:100E500007904B466A4608A906A8FFF777FEA0054B
:100E600002D46FF001002AE714F0240F0AD0E00743
:100E700014D1DDE906123868031D3B600068C0E943
:100E800000120BE0DDE90601FFF74DFB0146E0072C
:100E900004D13868021D3A600068016028460EE7F8
:100EA000000014400000F03FF1D8FFFF426842B15B
:100EB000016811F8013B23B1521EC0E90012184627
:100EC00070470121C160881E704742685AB1C368EB
:100ED000016843B983688B4205D0491E521CC0E9A2
:100EE0000012002070474FF0FF3070472DE9F05F8F
:100EF00082460078002715468B460AF10104B94660
:100F0000302801D09DB113E014F8010B0127782897
:100F100003D0582801D045B10AE00DB1102D07D1FA
:100F20000027102514F8010B02E0082500E00A252F
:100F30000026B0460EE005FB080005FB06F1012780
:100F400001EB10461FFA80F8B6F5803F00D3B94692
:100F500014F8010B294600F018F80028EBDABBF171
:100F6000000F05D00FB1641E00E05446CBF80040DE
:100F7000B9F1000F06D005F0FFFE02210160C81E86
:100F8000BDE8F09F48EA0640FAE73A2800D2303838
:100F900020F02002412A01D3A2F13700884201D378
:100FA0004FF0FF3070470EB540F2334202920022FC
:100FB000CDE900221346FFF7E5FB03B000BD0000BA
:100FC00070B5044600688168C1F3400504F002F87A
:100FD00048B345BB2068816801F00D01012914D197
:100FE0008168124A1140891C8160216803200860D1
:100FF00001F0B0FF054612E001F0ACFF401B0228F3
:101000000DD920688068C00709D0E06D40F010005D
:10101000E065206E40F001002066012070BD206870
:101020008068C007E8D1002070BD0000C0FFFF7FCE
:1010300070B50446006803F0CDFF70BB206881687E
:10104000174A11421AD18168D6433140491C816048
:1010500001F080FF05461BE003F0BCFF20B92068CB
:1010600081683140491C816001F074FF401B0228F7
:101070000ED920680068C043C00709D0E06D40F079
:101080001000E065206E40F001002066012070BD78
:1010900020680168C943C907DED1002070BD000087
:1010A0003F000080FEE7000010EE100A084901EB47
:1010B000600100EE901A0749A1EB600001EE100AF2
:1010C00040EE010AB6EE000A20EE800A70470000EA
:1010D00000F8BC1FDF59375F704772B6FEE70000AB
:1010E0002DE9F04F91B0834801F03DFB824C402147
:1010F000631C04F10C027F4801F0BEFADFF8FCB17A
:101100007F489BED0E2ADBED0F1A9BED121ADBEDEB
:101110000B0A9BED090A09F007FE794A7548521C33
:1011200002F10B0101F038FA60788146FF2833D0D4
:101130004FF0000CA778FF2F31D00020E6780CEAA2
:10114000000CFF2E2DD0002025790CEA000CFF2D7D
:1011500029D0002063790CEA000CFF2B25D0002059
:10116000A2790CEA000CFF2A21D00020E1790CEAD8
:10117000000CFF291DD000200CEA000C207AFC286E
:1011800019D04FF00008DFF87CA11CEA080F4FF0DF
:10119000010E13D0022143E04FF0010CCAE70120F9
:1011A000CCE70120D0E70120D4E70120D8E70120D7
:1011B000DCE70120E0E74FF00108E4E7FF2D37D03E
:1011C0004FF0000CFF2B36D04FF000081CFB08FC42
:1011D000B9F1FF0F32D000240CEA040CFF2F2FD0FE
:1011E0000024FF2E2ED04FF0000804EA08040CEA79
:1011F000040C414CFF2A28D04FF000080CEA080CE0
:10120000FF2925D04FF000080CEA080CFD2822D059
:101210004FF000081CEA080F4FF000081ED04146AE
:10122000CAF800103849C1F800E011B0BDE8F08FED
:101230004FF0010CC6E74FF00108C7E70124CBE7E8
:101240000124CEE74FF00108CFE74FF00108D5E7C2
:101250004FF00108D8E74FF00108DBE7FF2D24D05D
:101260000025FF2B23D0002315FB03F5B9F1FF0F59
:101270001FD000231D40FF2F1DD00023FF2E1CD0A8
:10128000002633401D40FF2A19D000221540FF29B7
:1012900017D000210D40FE2815D00020054214D0A3
:1012A00011B0BDE8F04F05F0FDBC0125D9E70123E1
:1012B000DAE70123DEE70123E0E70126E1E7012287
:1012C000E4E70121E6E70120E8E7DAF80000022878
:1012D000ABD109495D463C2210316846CDF83CB09F
:1012E000FEF7C7FF94E80F0009F0FCFFC5F8A880DF
:1012F0009BE70000B00D0020640B00206008002078
:10130000340B00200800002010000020F0B5D1E9C7
:1013100001650C692C430D68BEB145F080452C4336
:10132000D1E90665354391F820704E69406D46EA73
:1013300007663543CE6803EBC303354300EBC303B5
:101340000020E3E802450A4C0AE044EA8544E7E766
:101350001618155CD6F80160001D45EA062520C365
:10136000CD6804EB15452D788542F1D8F0BD00001D
:10137000ECBE0008144A107F1449012801D003284C
:101380000FD10B6823F400730B600B6843F4006308
:101390000B600B6823F400630B600B6843F400736D
:1013A0000B60022801D003280BD1086840F480505C
:1013B0000860086820F480500860086840F4806085
:1013C0000860002010777047440000200020024091
:1013D0000C490A6A520210D5C20703D04A6942F08A
:1013E00004024A61800703D5486940F4004048611F
:1013F000486940F4803048617047486948F2040207
:101400001043F4E7002002400E4A136A5B0201D544
:10141000C90703D0516921F4006102E0516941F428
:10142000006151615169C0B221F47E7141EAC0008E
:101430005061506940F002005061506940F48030C2
:101440005061704700200240054910B54C6944F0D6
:1014500001044C610260BFF36F8F436010BD000058
:1014600000200240094B10B55C69402244F48024FE
:101470005C61EFF3108372B610C9521E10C012F0F7
:10148000FF02F9D183F3108810BD00000020024054
:1014900070B5064601F05EFD0446124D06E001F00F
:1014A00059FD001BB04201D9032070BD2869C0035B
:1014B000F5D428694CF2FA3108400CD00A494A6840
:1014C00002434A60010F01D0A969A961010100D05E
:1014D0002861012070BD2869C00701D00120286162
:1014E000002070BD0020024044000020DFED020A11
:1014F00030EEC00A00F002B8DB0FC93FDFED0F0A83
:1015000001E030EE200AB5EEC00AF1EE10FAF8D391
:101510000B4910EE100A884202DB30EE600AF8E751
:10152000DFED080A084920EE200ABDEEC00A10EEE1
:10153000100A01EB800090ED000A7047DB0FC940F4
:10154000DB0FC94083F9A242ECB60008014880686D
:101550007047000078000020014890ED880A70472D
:1015600078000020014890EDB80A7047780000200C
:10157000014890ED8A0A704778000020034890EDFA
:101580008A0AD0ED8B0A30EE200A704778000020DE
:10159000014890EDB70A7047780000200148406884
:1015A000704700007800002000EE100ADFED220AEC
:1015B0009FED221AB8EE400A10B520EE200A20EE68
:1015C000010A9FED1F1A70EEC00A60EE811AC1EE8B
:1015D000800A80EE810A10EE100AFEF791FF41ECBE
:1015E000100B05F07DFC9FED171B51EC100B53EC1D
:1015F000112BFEF716FF9FED151B53EC112BFEF779
:1016000069FE41EC100B53EC102B9FED120B51ECCB
:10161000100BFEF706FF9FED111B53EC112BFEF78D
:10162000FAFE9FED101B53EC112BFEF753FEFEF755
:101630007AFF00EE100A10BD3333534000008039AA
:1016400000401C46000000000058AB40000000E0D5
:10165000E1796B3F000000000000F03F00000060F7
:1016600066127140000000000000E03F00EE100A2A
:10167000DFED220A9FED221AB8EE400A10B520EEE7
:10168000200A20EE010A30EEC01AC0EE010A9FEDDA
:101690001D1A60EE810A80EE810A10EE100AFEF734
:1016A0002FFF41EC100B05F01BFC9FED171B51ECBD
:1016B000100B53EC112BFEF7B4FE9FED151B53ECF2
:1016C000112BFEF707FE41EC100B53EC102B9FED96
:1016D000120B51EC100BFEF7A4FE9FED111B53EC07
:1016E000112BFEF798FE9FED101B53EC112BFEF70C
:1016F000F1FDFEF718FF00EE100A10BD3333534022
:101700000000803900401C46000000000058AB403B
:10171000000000E0E1796B3F000000000000F03FB6
:101720000000006066127140000000000000E03F11
:10173000F8B500250446009590F858000E4601289B
:101740000BD0012084F858002046FFF739FC020036
:10175000E06D04D040F010002AE00220F8BD20F433
:10176000885040F00200E06520688168134B194002
:1017700006F08043194341F000418160104B20681E
:101780000EE00099491C0091994209D3E06D20F0C8
:10179000020040F01000E06584F858500120F8BDC8
:1017A0008168C90FEDD1E06D20F0020040F001002A
:1017B000E06584F858501046F8BD0000C0FFFF3FB8
:1017C00002DE04002DE9F84F4FF000090446CDF881
:1017D00000900D4694F85820DFF8F88361694F4671
:1017E0004846012A0AD00126FB4A84F8586041B1D4
:1017F000296A012905D0A36EEBB129E00220BDE8DA
:10180000F88F6868092838D1A96A4FF4785041B137
:101810002B6801F07C0100EA53400843E96A084361
:1018200002E0296800EA51402168CB6C1340034371
:10183000CB64606621E0C4E91971A96A286A31B1F4
:1018400001F07C01401E0843E96A084300E0401EA5
:101850002968C1F38463297901F01F018B40A16ECF
:101860000343491EA166606E40EA0300606604D12E
:101870002168CB6C13400343CB64206803F0A6FBC4
:1018800058B995F8250098B12068C16895F82620C8
:1018900021F4401141EA4251C160206803F0A6FBE7
:1018A0008246206803F092FB5AEA00010DD0FAE06C
:1018B00095F8260095F82410400540EA015120686B
:1018C000C26822F440121143E6E7A86A30B1E86A20
:1018D00020B195F8250001285DD003E095F825009A
:1018E000012804D02068C16821F0007103E020685D
:1018F000C16841F00071C16095F83000012851D0F5
:101900002068016921F002010161AA682968206844
:10191000B2F1004F37D003F06DFB2068416921F030
:101920000041416120686969C268C2F3C102520086
:1019300091402A69042A43D000EB82002B68026E92
:10194000DFF898C203F0F84302EA0C020B431A4393
:1019500042F00041016622682869A96902EB800013
:10196000026E22F080720A430266297F226828698B
:10197000012922D0002102EB8000026E22F00072C9
:101980000A4302668FE0002203F034FB20684169BD
:1019900041F00041C5E7E06D40F02000E0654FF008
:1019A0000109A9E7D5E90D1001432068026922F475
:1019B000FF7242F002021143A6E74FF00071DAE72E
:1019C000002103F0F9FA400320684FF0000171D0C4
:1019D00003F0F2FA90FAA0F0B0FA80F1286842031E
:1019E0006DD090FAA0F0B0FA80F0814204D10022CC
:1019F0001146206803F00DFB0121206803F0DCFA9A
:101A0000400320684FF001015CD003F0D5FA90FA52
:101A1000A0F0B0FA80F12868420358D090FAA0F004
:101A2000B0FA80F0814204D100220121206803F045
:101A3000F0FA0221206803F0BFFA400320684FF05B
:101A4000020147D003F0B8FA90FAA0F0B0FA80F1A2
:101A50002868420343D090FAA0F0B0FA80F08142A7
:101A600004D100220221206803F0D3FA0321206868
:101A700003F0A2FA400320684FF0030132D003F0D4
:101A80009BFA90FAA0F0B0FA80F1286842032ED0B9
:101A900090FAA0F0B0FA80F0814204D10022032134
:101AA000206803F0B6FA206803F098FA10B3ACE0AF
:101AB00000E004E003F080FAC0F384618EE7C0F335
:101AC000846092E703F078FAC0F38461A3E7C0F37F
:101AD0008460A7E703F070FAC0F38461B8E7C0F34D
:101AE0008460BCE703F068FAC0F38461CDE7C0F31B
:101AF0008460D1E72068EA682968424550F8B02F31
:101B0000C1F3120101D10A4300E08A430260E86890
:101B100040457AD1286841031AD090FAA0F1B1FA71
:101B200081F1491C01F01F0109294FEA403130D8E9
:101B3000002910D090FAA0F1B1FA81F101F1010170
:101B400001F01F0106FA01F608D1C0F3846109E033
:101B5000C0F38461E5E7C0F38461EFE790FAA0F198
:101B6000B1FA81F101F1010101F01F0146EA816141
:101B700002D1C0F3846003E090FAA0F0B0FA80F0E4
:101B800000F1010000F01F0000EB400041EA0051AD
:101B900037E000290DD090FAA0F1B1FA81F101F1FE
:101BA000010101F01F0106FA01F605D1C0F38461BD
:101BB00006E0C0F38461F2E790FAA0F1B1FA81F196
:101BC00001F1010101F01F0146EA816108D1C0F372
:101BD000846009E000007F400040100400F0FF0333
:101BE00090FAA0F0B0FA80F000F1010000F01F00C0
:101BF000394A00EB400002EB005041EA000141F09D
:101C00000071AA68206803F0F5F934482A68024296
:101C10005ED020684FF0A04C314B324E324D6045C3
:101C200001D0A84201D1194600E031468968DFF8A9
:101C3000BC8001F0E071424503D0DFF8B48042453A
:101C400020D15FEA01281DD4604505D0294A904281
:101C50003ED1A84200D0334641F40000996821F0FB
:101C6000E07101439960244824490068B0FBF1F019
:101C7000801C00EB4000800000E0401E0090002827
:101C8000FBD125E0DFF8788042450FD15FEAC1182B
:101C90000CD4A84202D11B4A904219D0604502D010
:101CA000A84200D0334641F080700CE0DFF8588045
:101CB00042450DD14A020BD4A84209D0604500D05C
:101CC000334641F48000996821F0E0710143996046
:101CD00084F85870484692E5000020FE0000088015
:101CE000000300500007005000010050000021C315
:101CF0001000C0900006005064000020400D03005A
:101D0000000052C700050050000084CB0068A1F518
:101D100080710F390ED0B1F5837F08D0B1F5037F04
:101D200002D0D0F880007047D0F88C007047D0F80F
:101D300088007047D0F88400704700002DE9F0411A
:101D4000044600684FF0A0463E4FB04201D0B84272
:101D500001D13D4900E03D49896801F01F0503F0CC
:101D600035F908BB2068C168C06C01F0004110F46F
:101D7000C07F00D191B194F85800012814D00120FF
:101D800084F858002046FFF753F901004FF0000295
:101D90000CD084F858200846BDE8F081E06D40F092
:101DA0002000E0650120F7E70220F5E7E06DC005BF
:101DB00004D5206E20F00800206600E02266E06D69
:101DC00042F20103984340F48050E0652068204BC4
:101DD000DFF880C0B84201D1B64604E0984201D194
:101DE000E64600E08646864500D02DB9D4F85CE092
:101DF0002EF4801EC4F85CE04FF0600EC0F800E0E6
:101E000084F858202068B84204D0984201D1664630
:101E100000E00646864209D045B1062D06D0072DC2
:101E200004D0E06D40F48010E065B4E7C26812F0C1
:101E3000007FB0D18268084B1A4042F008028260ED
:101E4000A9E7000000010050000300500007005007
:101E50000005005000040050C0FFFF7F2DE9F04F47
:101E6000044690F858009BB00D464FF0000B012837
:101E700012D0012084F8580000271797189720687F
:101E80004FF0A048DFF80C91DFF80CA1434E40451D
:101E900006D13046009608E002201BB0BDE8F08F66
:101EA00048450AD15046CDF800A003F09FF80090B5
:101EB000206803F09BF840B109E0E06D40F020009D
:101EC000E06584F858700120E7E7009848B1E06DBC
:101ED00040F02000E0654FF0010B84F85870584640
:101EE000DBE72068C446604501D0B04201D12C48F0
:101EF00000E02C4829682C4B0029816840F61F72AD
:101F000021F4604128D094F8388041EA4831D5F86E
:101F1000048041EA080181602168614501D0B14235
:101F200005D1DCF80810B368C1F3000109E0D9F865
:101F30000810DAF80860C1F30001C6F300069B68D8
:101F40003143C3F300031943C7D1AB682968194370
:101F50008368934319431BE081602168614501D088
:101F6000B14205D1DCF80810B368C1F3000109E003
:101F7000D9F80810DAF80850C1F30001C5F30005DC
:101F80009B682943C3F300031943A6D18168914399
:101F90008160A2E7000400500005005000010050DD
:101FA000000300500007005000060050F8B54FF045
:101FB000000504002E46009502D0E06D10B107E048
:101FC0000120F8BD204600F00DF9266684F858601F
:101FD00020688168C1F3407119B18168754A114068
:101FE000816020688168C1F3007189B98168724A93
:101FF000114041F080518160704871490068B0FB28
:10200000F1F04000801C00E0401E00900028FBD151
:1020100020688168C1F3007141B9E16D41F01001A0
:10202000E165216E41F001012166012502F0DAFF30
:10203000E16DC90600D430B1E06D40F01000E065FC
:1020400001252846F8BDE06D20F4807040F00200C4
:10205000E065206802F0BEFF40BB20684FF0A0435F
:10206000584A984201D0904204D199689668C1F3C9
:1020700000010AE054498968544EC1F30001B66872
:10208000C6F300063143524EB668C6F3000631432C
:102090000CD1984201D0904201D14E4800E04E4808
:1020A0006168826822F47C120A438260E168E06B16
:1020B000627F0843A16841EA4231084394F8241042
:1020C00040EA0140012904D1218D444A02EB4141FB
:1020D0000843E16A29B101F47871226B014342EAB5
:1020E00001002168CA683E4B1A400243CA6020685A
:1020F0000169626B21F0406111430161206802F0C7
:1021000071FF0646206802F05DFF06432ED1207F56
:1021100094F83810800340EA41012068C26844F214
:1021200002039A430A43C2602069002820680169BB
:102130000AD041F480310161206850F8C01F226943
:102140006FF30D01114307E021F480310161206834
:1021500050F8C01F6FF30D01016094F84000012892
:102160000CD02068016921F001010161606901283A
:102170002068016B21F00F0110D012E0D4E911109A
:102180000143D4E91302104301432068026940F27D
:10219000FC739A43114341F00101E6E7226A521EA3
:1021A00011430163E06D20F0020040F00100E065A2
:1021B00047E70000C0FFFF5FC0FFFF7F6400002013
:1021C000400D0300000100500004005000050050C5
:1021D0000006005000030050000700500000FEFF02
:1021E0000740F0FF2DE9F0439BB00446142115A8E9
:1021F000FEF758F854216846FEF754F84FF40041B2
:10220000206800268A03524D0327524C4FF0904914
:10221000B0F1A04F12D0504B4FF00208984246D177
:1022200068461192009100F097FF08B1FEF755FF44
:102230002868401C286001281FD026E068461192BB
:10224000009100F089FF08B1FEF747FF2868401CA5
:102250002860012807D1E06C40F40050E064E06C95
:1022600000F400501A90E06C40F00100E064E06C73
:1022700000F001001A90042064E0E06C40F400508B
:10228000E064E06C00F400501A90E06C40F0010053
:10229000E064E06CCDF8548000F001001A9015A9BC
:1022A00048462AE000F070FD1BB0BDE8F0832B4BE0
:1022B0009901CA03984223D168461292009100F016
:1022C0004BFF08B1FEF709FF6868401C68600128F1
:1022D00007D1E06C40F48040E064E06C00F48040A2
:1022E0001A90E06C40F00200E064E06CCDF854809D
:1022F00000F002001A901A4815A9CDE91676D1E728
:10230000184B9842D0D168461292009100F024FFF9
:1023100008B1FEF7E2FE6868401C6860012807D13A
:10232000E06C40F48040E064E06C00F480401A907F
:10233000E06C40F00100E064E06C00F001001A90F5
:102340004FF440701796CDE9150715A94846A9E73F
:102350002C0000200010024000010050000400503A
:10236000000400480006005010B590F82520002118
:102370000123022A03D00421C163012122E0026863
:10238000146824F00E041460826C146824F48074C1
:1023900014600268146824F00104146090F844206A
:1023A000046C02F01F0203FA02F26260D0E9132407
:1023B0005460426D32B1146824F480741460D0E922
:1023C0001624546080F82530002280F82420084626
:1023D00010BD70B590F82510002401222346022973
:1023E00007D00421C16380F8252080F8243001241F
:1023F00029E001680D6825F00E050D6001680D6883
:1024000025F001050D60816C0D6825F480750D6067
:1024100090F84410154601F01F018A40016C4A6093
:10242000D0E913124A60416D31B10A6822F480721A
:102430000A60D0E916124A6080F8255080F82430EE
:10244000816B01B18847204670BD000070B504461D
:1024500000F080FD0546601C02D00448406804443A
:1024600000F078FD401BA042FAD370BD3800002078
:1024700000EB4001C1EBC0104FF6FF7101EAC00054
:10248000AFF3008070B54FF6FA710A4D081A84B2A6
:1024900028684462284601F0DBFE4FF6F97128688F
:1024A00001E0426A94B28C42FBD3BDE8704001481F
:1024B00001F054BF740F002030B590F85C30012B50
:1024C00007D0022B05D0016E41F002010166012008
:1024D00030BD0468A36D4D0701D0DD071DD011F09C
:1024E000380F01D09D0718D511F4E07F01D05D07AA
:1024F00013D511F4F05F01D01D070ED511F4604F14
:1025000001D0DD0609D511F4403F01D09D0604D568
:1025100011F47C0F05D05D0603D4E56D45F001058F
:10252000E5654C0701D0DC071DD111F0380F01D053
:102530009C0718D411F4E07F01D05C0713D411F488
:10254000F05F01D01C070ED411F4604F01D0DC06FF
:1025500009D411F4403F01D09C0604D411F47C0F3F
:1025600006D05B0604D50368DC6D44F00204DC652C
:102570000B0604D5036853F8DC4F14431C60CB05ED
:1025800004D5036853F8E04F14431C600068426DA3
:102590000A434265002030BD70B5044690F85C00E7
:1025A000022803D0206E40F0080007E02068D0F831
:1025B000C4309B0205D5206E40F4007020660120D7
:1025C00070BDD0F8C400C0F301452B462046FEF78D
:1025D0009DFE21680120A840C1F8CC00A065002024
:1025E00070BD10B590F85C20012A07D0022A05D0F2
:1025F000016E41F002010166012010BD0A687AB146
:102600000B7B0A690C7A42EA43734A69406C496859
:1026100042EA847200EBC100C0E90032002010BD24
:102620000B7A4A690C8A42EA83720B7B006CDB06E8
:10263000496843EA04431A4340F82120EEE730B5E5
:1026400090F85C50039C012D05D0016E41F004010F
:102650000166012030BD0901006841EA820141EABA
:10266000430150F8802F214322F03F0211430160C3
:10267000002030BD70477047F0B590F85C40022CE8
:1026800003D0016E41F008014CE0046840293CD0C1
:10269000D4F898502D0742D0D4F89840C4F30126BE
:1026A000C46C06EBC60504EBC5052C6814F0804429
:1026B00054602C6839D024F0604414602C68284F92
:1026C00004F00054946010CD04F00044146135F817
:1026D000044BA4B2D46155F8044C04F47024D460C3
:1026E00055F8044C04F48014546155F8044C04F477
:1026F0000014946155F8044CC4F30664146255F850
:10270000044CE40F5462002417E0D4F890502D07D5
:1027100005D0D4F89040C4F30126846CC1E7016E63
:1027200041F4807101660120F0BDC4F38A44C4E71E
:1027300015F804C003F804C0641CD2F80CC007EB01
:102740001C4C9CF800C0A445F2D80068402903D076
:10275000C0F89C600020F0BDC0F89460FAE700006B
:10276000ECBE000870472DE9F04704460068016D93
:10277000466D01F4E0510E40016D476D01F0070117
:102780000F40016D426D01F0380102EA0108016D50
:10279000456D01F471010D40016D426D01F4602140
:1027A00002EA0109016D490607D5416D490604D5C4
:1027B000402101652046FFF7D5FF2068016DC9055E
:1027C0000DD5416DC9050AD5D0F8D820D0F8E01054
:1027D00011404FF480720265204600F0E1F92EB1FD
:1027E000206806653146204600F0DCF92FB12068EC
:1027F00007653946204600F0B9F9B8F1000005D068
:10280000216808654146204600F0B1F92068016D55
:10281000890508D5416D890505D54FF4007101651D
:10282000204600F0C0F92068016D09060CD5416D05
:10283000090609D5D0F8D420D0F8DC101140802248
:102840000265204600F0ADF92068016D890408D5C5
:10285000416D890405D54FF400510165204600F013
:102860009EF92068016D090408D5416D090405D55C
:102870004FF400410165204600F090F92068016D99
:10288000490409D5416D490406D54FF480410165DD
:10289000206E40F080002066B9F1000005D021686C
:1028A000086549462046FFF7E6FE25B12068056524
:1028B000206E28432066206E002802D02046FFF7B5
:1028C000D9FEBDE8F08700002DE9F041040006D0F4
:1028D000DFF8F48194F85C00002518B107E00120CE
:1028E000BDE8F08184F85D50204600F0F9F82068DA
:1028F000816921F01001816100F02CFB064603275D
:1029000004E000F027FB801B0A2811D820688069AA
:102910000007F6D42068816941F00101816100F06F
:1029200019FB06460BE000F015FB801B0A2806D9B0
:10293000206E40F00100206684F85C70CFE72068CC
:102940008069C007EFD02068816941F00201816190
:102950002168414502D15D4960680860207C0128FA
:102960002068816937D041F040018161607C012895
:102970002068816932D021F480418161A07C0128E6
:10298000206881692DD041F480518161206881697E
:10299000A26821F44071114381612068816921F0AE
:1029A000A40181612068016921F010010161E068E2
:1029B000012819D010B302281BD02068816941F08A
:1029C000800181612068016941F010010161E068C6
:1029D00003280ED012E021F04001C6E741F4804107
:1029E000CBE721F48051D0E72068816941F00401F0
:1029F00003E02068816941F020018161207EE16966
:102A000040066FF0FF0202EB0121A0F100700843C5
:102A1000216AA38A491E0843110201EB03431843AC
:102A20002368D861A068B0F5407F10D1D4E90A03CB
:102A300002EB0322401E1043226B0B1303EB021226
:102A40001043A28C01EB024108432168C860206852
:102A500050F8C01FE26B114301601E4A21681C48F8
:102A6000914200D11C481D4A914201D100F5D46029
:102A7000206451F8802FA38E22F4F81242EA034218
:102A80000A6000F170016164216851F8802F94F8A8
:102A9000383022F0706242EA03620A6000F1B0014D
:102AA000A164D831E164D831216518316165D8312C
:102AB00000E020C08842FCD3A5652566012084F88B
:102AC0005C0000200CE7000000640040006500404E
:102AD00000A400400068004050A70040006C004087
:102AE00010B59CB00446142115A8FDF7DBFB54215A
:102AF0006846FDF7D7FB1B492068884230D1801417
:102B0000009040030E90684600F026FB08B1FEF7E7
:102B1000E4FA1548816D41F000718165816D01F025
:102B200000711A91C16C41F00101C164C06C15A91A
:102B300000F001001A904FF4C0501590022016903A
:102B400000201790189009201990C00600F01CF979
:102B500003220021152000F067FA152000F056FA34
:102B60001CB010BD00640040001002407047704768
:102B700090F85C10012905D0016E41F00401016656
:102B800001207047022180F85C1001688A6922F0F8
:102B900001028A610021016608467047704770474C
:102BA00070477047704770472DE9F05F044633481F
:102BB0008946017801290CD00125804605704FF423
:102BC0007A7B5846FEF764FC06004FF0000A03D0FB
:102BD0004FE00220BDE8F09F51464046C8F804A0EF
:102BE000274F3A6892050AD53968490505D53968ED
:102BF00021F480613960032109E0057708E03A6833
:102C0000520504D5396821F48061396002210177C9
:102C10002068012807D04FF0FF31C9F8001040F2BA
:102C2000FA3BA5681EE06068FEF7D2FB5846FEF747
:102C30002FFC0646786948F204018843786116E063
:102C400028466168FEF7E0FB4FF47A70FEF720FC3F
:102C50000600786920EA0B00786102D0C9F80050BC
:102C600005E06D1CD4E902010844A842E8D8FEF74B
:102C700081FB88F800A03046ACE70000440000204B
:102C800000200240054901204A6942F000424A61A1
:102C90004969002900DA0020704700000020024046
:102CA000054901204A6942F080424A614969490068
:102CB00000D5002070470000002002400649002097
:102CC0004A69520007D5054ACA60054ACA6049697F
:102CD000490000D501207047002002403B2A190816
:102CE0007F6E5D4C2DE9F05F1B4E05460024307869
:102CF000174699468B46012809D0012030704FF4C1
:102D00007A7A5046FEF7C4FBA04618B120E00220B4
:102D1000BDE8F09FC6F8048025B1012D09D0022D31
:102D200007D00DE03A464B465846FEF78DFB01248E
:102D300006E039465846FEF795FB022D00D16C049B
:102D40005046FEF7A5FB1CB104494A69A2434A61FB
:102D500086F80080DCE700004400002000200240EC
:102D6000064900204A69002A07DA054A8A60054AAE
:102D70008A604969002900DA01207047002002407A
:102D800023016745AB89EFCD2DE9F84FDFF8889136
:102D90000022A9F1040B03274FF00F0C09F1040ADC
:102DA000ABF1040EB1E0012595402B4073D00C79B6
:102DB00004F00304012C01D0022C15D186685400C4
:102DC00007FA04F826EA0806D1F80C8008FA04F895
:102DD00048EA0608C0F808804468AC430D79C5F39A
:102DE00000159540254345600C79E443A40708D0BD
:102DF000C568540007FA04F6B5438E68A6402E4312
:102E0000C6600C7904F00304022C11D1D40800EB45
:102E10008406356A5407E40E0CFA04F825EA08051E
:102E2000D1F8108008FA04F848EA0508C6F82080AE
:102E30000568540007FA04F6B5430E7906F0030658
:102E4000A6402E4306604C6814F4403F5CD0334CDF
:102E5000256E45F001052566246E22F0030504F079
:102E6000010400942E4C05EB0408D8F80850940790
:102E7000260F0CFA06F4A543B0F1904F04D0294C6C
:102E8000A04203D1012417E0002415E0264CA04203
:102E900002D1022410E037E0244CA04201D10324E7
:102EA0000AE0234CA04201D1042405E0214CA042B9
:102EB00001D1052400E00624B4402C43C8F80840A2
:102EC000D9F800404D464E689C43F60200D51C439D
:102ED0002C60DAF8004055464E689C43B60200D597
:102EE0001C432C60DBF800405D464E689C43B603F3
:102EF00000D51C432C60DEF8004075464E689C43AC
:102F0000F60300D51C432C60521C0B6833FA02F404
:102F10007FF449AFBDE8F88F08040140001002407B
:102F2000000001400004004800080048000C004870
:102F30000010004800140048426921EA02030A40D8
:102F400043EA0241816170470AB181617047816241
:102F5000704700000148806870470000380000207A
:102F6000024881684268114481607047380000203F
:102F700010B50024032000F077F8002000F008F8D6
:102F800008B1012401E000F025F8204610BD000042
:102F900070B50E4E05460024706898B14FF47A71F2
:102FA000B1FBF0F00A490968B1FBF0F000F09DFFB9
:102FB00040B9102D06D200222946501E00F034F8E8
:102FC000356000E00124204670BD0000380000207C
:102FD000640000200C4808B5016E41F00101016653
:102FE000016E01F001010091816D41F08051816518
:102FF000806D00F080500090052000F035F8BDE8AD
:10300000084000F0A1B8000000100240002809DBD1
:1030100000F01F02012191404009800000F1E020F2
:10302000C0F8001170470000F0B40E4B1B68C3F3EA
:103030000223C3F10704042C00D904241D1D072D0D
:1030400001D2002300E0DB1E012606FA04F56D1E06
:103050000D409D409E40761E164045EA0601F0BC9C
:1030600003F079BE0CED00E0064A00F0070110689D
:103070004FF6FF03184040EA01200349084310605F
:10308000704700000CED00E00000FA052B492C4BC6
:103090000A6832214A432B4940B1B0F5007F0868E5
:1030A00029D020F4C06040F480602CE00868C0F3B0
:1030B0004120022804D051F8800F20F4807022E0D3
:1030C000D1F8800020F48070C1F88000086820F4F6
:1030D000C06040F400700860B2FBF3F0401C00E0F8
:1030E000401E4A69520501D50028F9D148694005BA
:1030F0000AD503207047C0F34120022806D051F8BA
:10310000800F40F48070086000207047D1F8800084
:1031100040F48070C1F88000086820F4C06040F47A
:1031200000700860B2FBF3F0401C00E0401E4A69EA
:103130005205DBD50028F9D1D8E700006400002053
:1031400040420F00007000400248816841F4804115
:1031500081607047007000402DE9F84F044600265A
:103160000068C14D374600035DD5A86D4FF00009DA
:10317000C00009D4A86D40F08050A865A86D4FF03C
:10318000010900F080500090DFF8E0A2DAF80010AA
:1031900041F48071CAF80010FFF7DCFE804607E0BA
:1031A000FFF7D8FEA0EB0800022801D9032632E081
:1031B000DAF80000C005F3D56EBBD5F8900010F426
:1031C000407014D0216D814211D0D5F89000D5F80F
:1031D000901020F4407041F48031C5F89010D5F87B
:1031E000901021F48031C5F89010C5F89000C00708
:1031F0007ED0FFF7AFFE804641F2883A05E0FFF748
:10320000A9FEA0EB08015145D0D8D5F89000800761
:10321000F5D5002E6CD03746B9F1000F03D0A86D5C
:1032200020F08050A8652078C00707D0D5F8880026
:10323000616820F003000843C5F888002078800703
:1032400007D5D5F88800A16820F00C000843C5F820
:1032500088002078400707D5D5F88800E16820F07D
:1032600030000843C5F888002078000707D5D5F856
:103270008800216920F0C0000843C5F88800207844
:10328000C00607D5D5F88800616920F4407008436E
:10329000C5F888002078800607D5D5F88800A16990
:1032A00020F440600843C5F888002078400607D520
:1032B000D5F88800E16920F440500843C5F888003B
:1032C0002078000607D5D5F88800216A20F4404010
:1032D0000843C5F888002088C00507D5D5F88800C0
:1032E000616A20F440300843C5F88800206800E097
:1032F00024E0800307D5D5F89C00A16A20F00300E4
:103300000843C5F89C002088800507D5D5F88800BB
:10331000E16A20F440200843C5F888002088400571
:1033200019D5D5F88800216B20F440100843C5F862
:103330008800206BB0F5801F09D00CE0D5F8900014
:10334000216D20F440700843C5F8900064E7E868F8
:1033500040F48010E860208800050FD5D5F888007B
:10336000616B20F440000843C5F88800606BB0F53D
:10337000800F03D1E86840F48010E8602088C00422
:103380000FD5D5F88800A16B20F040700843C5F830
:103390008800A06BB0F1807F03D1E86840F4801012
:1033A000E860208881044FF000600ED5D5F88810C1
:1033B000E26B21F040611143C5F88810E16B814256
:1033C00003D1E96841F48011E960218849040ED5F0
:1033D000D5F88810226C21F040611143C5F888109F
:1033E000216C814203D1E86840F48010E8602088B5
:1033F00000040FD5D5F88800616C20F040500843D8
:10340000C5F88800606CB0F1805F03D1E86840F4D3
:103410008030E8602068C0030FD5D5F88800A16C23
:1034200020F040400843C5F88800A06CB0F1804F00
:1034300003D1E86840F48030E860206840030FD58D
:10344000D5F89C00E16C20F440100843C5F89C00BE
:10345000E06CB0F5001F03D1E86840F48010E8602C
:103460003846BDE8F88F00000010024000700040B0
:103470002DE9F0470D4604004FF0000725D0DFF896
:10348000AC91D9F8000000F00F00A8420CD2D9F896
:10349000001021F00F012943C9F80010D9F80000ED
:1034A00000F00F00A84210D12168614EC80741F218
:1034B000883A58D06068DFF87C81032808D0022859
:1034C00030682CD0400500282BDB0120BDE8F087B8
:1034D00030688001F9D5F06800F00302F068C0F3AD
:1034E0000310401C032A18D0534AB2FBF0F0F268D4
:1034F000C2F306225043F268C2F34162521C5200EA
:10350000B0FBF2F0404517D9B06810F0F00F0CD0C6
:10351000880711D5A06840B10EE0484AE5E780036E
:10352000D1E700F0B7F8404506D9B06820F0F000C8
:1035300040F08000B0608027B068616820F0030030
:103540000843B060FFF706FD804605E0FFF702FD87
:10355000A0EB080151453BD8B068616800F00C0051
:10356000B0EB810FF2D12068810714D5400703D555
:10357000B06840F4E060B0602078000705D5B0681E
:1035800020F4605040F4E060B060B068A16820F0C2
:10359000F000084304E0802F03D1B06820F0F00071
:1035A000B060D9F80010484601F00F01A94217D9C0
:1035B0000168C84621F00F0129430160FFF7CAFCEA
:1035C0000746D14606E0FFF7C5FCC11B494501D9B6
:1035D00003207BE7D8F8000000F00F00A842F2D1EA
:1035E0002078400705D5B068E16820F4E060084322
:1035F000B0602078000706D5B068216920F46050DB
:1036000040EAC100B06000F045F8B1680C4AC1F36F
:103610000311515C01F01F01C8400A4908600A48C3
:103620000068BDE8F047FFF7B3BC0000002002408F
:103630000010024000B4C4040024F40040787D016E
:1036400024BF000864000020380000200548064917
:1036500000688968054AC1F30221515C01F01F012D
:10366000C8407047640000200010024034BF0008CA
:103670000548064900688968054AC1F3C221515CC2
:1036800001F01F01C8407047640000200010024094
:1036900034BF0008184A10B59068C0F3810117487C
:1036A00001290BD09168164CC1F38101022906D083
:1036B0009168C1F38101032903D0002010BD204689
:1036C00010BDD16801F00303D168C1F30311491C97
:1036D000032B02D0B0FBF1F001E0B4FBF1F0D168B4
:1036E000C1F306214843D168C1F34161491C490037
:1036F000B0FBF1F010BD0000001002400024F40007
:1037000040787D012DE9F843040078D02078F84D09
:10371000C00745D0A868E96800F00C0001F003017B
:103720000C2802D0082817D001E0032914D06068C3
:10373000B0F5803F17D0B0F5A02F286817D020F43F
:1037400080302860286820F4802028606068D8B124
:10375000FFF700FC064613E02868800320D5606868
:103760000028D2D01CE0286840F48030EDE740F417
:1037700080202860F7E7FFF7EDFB801B64286ED8F8
:1037800028688003F7D50BE0FFF7E4FB064604E06A
:10379000FFF7E0FB801B6428F1D828688003F7D48A
:1037A000207880074BD5A868E96800F00C0001F08C
:1037B00003010C2802D004280DD001E002290AD010
:1037C000E068002828682BD040F480702860FFF75C
:1037D000C1FB064619E02868400502D5E0680028CC
:1037E00093D06868217C20F0FE4040EA0160686068
:1037F000C0480068FFF7CCFB002800D11FE072E151
:10380000FFF7A8FB801B0228B9D828684005F7D528
:103810006868217C20F0FE4040EA016068600EE0AC
:1038200020F480702860FFF795FB064604E0FFF760
:1038300091FB801B0228A2D828684005F7D4207885
:10384000000728D560690028D5F8940012D040F010
:103850000100C5F89400FFF77DFB064605E08FE008
:10386000FFF778FB801B022889D8D5F894008007E1
:10387000F6D510E020F00100C5F89400FFF76AFBD0
:10388000064604E0FFF766FB801B022878D8D5F8CF
:1038900094008007F6D42078400761D5A86D0027F2
:1038A000C00008D4A86D40F08050A865A86D01271D
:1038B00000F08050009090480168C90511D401685B
:1038C000804641F480710160FFF744FB064604E046
:1038D000FFF740FB801B022852D8D8F80000C00533
:1038E000F6D5A068012815D00528D5F8900016D087
:1038F00020F00100C5F89000D5F8900020F00400F9
:10390000C5F89000A06841F28838B8B1FFF722FBF3
:1039100006460EE0D5F8900040F00100F0E740F0D8
:103920000400C5F89000F5E7FFF714FB811B414543
:1039300026D8D5F890008007F6D50CE0FFF70AFBF3
:10394000064604E0FFF706FB811B414518D8D5F871
:1039500090008007F6D41FB1A86D20F08050A865B4
:103960002078800628D5A0690028D5F8980012D0C4
:1039700040F00100C5F89800FFF7ECFA064605E0B4
:1039800075E0FFF7E7FA801B022876D8D5F8980093
:103990008007F6D510E020F00100C5F89800FFF789
:1039A000D9FA064604E0FFF7D5FA801B022864D84E
:1039B000D5F898008007F6D4E069E8B3A968C1F3A8
:1039C0008101032960D00228286820F080702860D7
:1039D0000BD0E86820F00300E860E8684749084039
:1039E000E860FFF7B7FA04464AE0FFF7B3FA064685
:1039F00004E0FFF7AFFA801B02283ED82868800158
:103A0000F7D4F4E908016FF00F0202EB011108434B
:103A1000218A5204490802EB4151A26841EA02217D
:103A20000843217D4FF07E42490802EB4161084383
:103A3000217B40EAC16000E057E0E968304A11406C
:103A40000843E860286840F080702860E86840F02B
:103A50008070E860FFF77EFA044604E0FFF77AFA28
:103A6000001B022809D828688001F7D53DE004E052
:103A7000FFF770FA001B022802D90320BDE8F88383
:103A800028688001F4D430E00128F7D0E868226A81
:103A900000F00301914226D1616A00F0F0020901B1
:103AA000103991421FD1A26A00F4FE41B1EB022FFE
:103AB00019D194F82C2000F07841B1EBC26F12D1EB
:103AC000218E00F4C00249084905A1F50011914278
:103AD00009D194F8341000F0C06049084906A1F1FA
:103AE0000071814201D00120C8E70020C6E7000034
:103AF000001002403800002000700040FFFFEEFE82
:103B00000C809F0170B5040009D0606A002540B1A7
:103B100025616561A56294F85D0040B10CE001206B
:103B200070BD6068B0F5827FF4D0E561F2E784F89B
:103B30005C50204600F05CF8022084F85D002068AC
:103B4000016821F040010160E0684FF4E0629042BA
:103B500001D9002101E04FF48051B0F5706F02D01F
:103B6000904200D0A562A088228900F4827002F4FD
:103B700004421043227C02F002021043227D02F034
:103B800001021043228B02F400721043227F02F0E4
:103B90003802104394F8202002F080021043228D56
:103BA00002F40052104322681060A069042202EA65
:103BB000104094F8242001F4805102F010021043C8
:103BC00094F8342002F008021043A28902F47062D3
:103BD00010430843216848602068C16921F40061EE
:103BE000C1612566012084F85D00002070BD0000E1
:103BF00010B586B0044614216846FCF753FB2168D3
:103C00001F4C00231F480222A14219D1016E41F42A
:103C100080510166016E01F480510591C16C41F043
:103C20000101C164C06C694600F001000590E0200C
:103C30008DE80D000520CDE903204FF090401BE0FA
:103C4000114CA1421AD1816D41F400418165816D11
:103C500001F400410591C16C41F00401C164C06CE4
:103C6000694600F0040005904FF4E0508DE80D0027
:103C70000620CDE903200548FFF786F806B010BD01
:103C80000030014000100240003C004000080048A5
:103C90002DE9F05F044690F85C0001250A9E1F465E
:103CA00092468B464FF0000801280ED0012084F880
:103CB0005C00FFF74FF9814694F85D0061680128C8
:103CC0000CD0B1F5827F07D102E00220BDE8F09F61
:103CD000A16809B9042801D0022004E1BBF1000F5A
:103CE00024D0BAF1000F21D007B394F85D00042866
:103CF00002D0052084F85D0000202066C4F840A0B2
:103D0000A4F84670A4F84470C4F838B0E787A787D1
:103D1000E0642065E0684FF4E061884201D8012F3B
:103D200006D92068426822F4805205E00120DAE0DA
:103D30002068426842F4805242602068026852065D
:103D400003D4026842F040020260E0688842606882
:103D500042D908B1012F37D1A06B21680088C86013
:103D6000A06B801CA063E08F401EE0872CE02068E1
:103D7000816889070DD5E18F59B1012D09D1A16B5A
:103D80000988C160A06B801CA063E08F401EE087A3
:103D9000002520688168C9070ED0B4F8461059B1D3
:103DA000C068216C0880206C801C2064B4F8460038
:103DB000401EA4F846000125FFF7CCF8A0EB09004F
:103DC000B04201D3701C72D1E08F0028CFD1B4F87B
:103DD00046000028CBD173E008B1012F69D1E08FF4
:103DE0000128A06B08D921680088C860A06B801CDE
:103DF000A063E08F801E07E0216800780873A06B45
:103E0000401CA063E08F401EE08752E0206881687C
:103E1000890718D5E18FB1B1012D14D1E18F0129A6
:103E2000A16B07D90988C160A06B801CA063E08FDB
:103E3000801E06E009780173A06B401CA063E08F30
:103E4000401EE087002520688168C90727D0B4F8A4
:103E5000461021B3B4F84610012914D9C068216C6A
:103E60000880206C801C2064B4F84600801EA4F8F2
:103E70004600B4F84600012810D82068416841F493
:103E8000805141600AE0007B216C0870206C401C6E
:103E90002064B4F84600401EA4F846000125FFF750
:103EA00059F8A0EB0900B04202D3701C01D019E010
:103EB000C6B1E08F0028A9D1B4F846000028A5D1EA
:103EC0004A463146204601F03BFC18B120204FF015
:103ED00001082066012084F85D00002084F85C0061
:103EE0004046F3E603208046F4E710B5401EB0F1EB
:103EF000807F01D3012010BD4FF0E02460610F21CD
:103F0000601702F028FF0020A06107202061002038
:103F100010BD704770477047F0B590F83C20012AFB
:103F200058D0012280F83C20CA688B6822F4407285
:103F30001A434B6822F480621A430B6822F4006231
:103F40001A430B6922F480521A434B6922F400523F
:103F50001A430B6B22F480421A430B8B22F470221B
:103F600042EA03431C4F026800261C4C1C4DBA4217
:103F700003D0A24201D0AA4205D1D1F81CC023F03F
:103F8000805343EA0C03BA4203D0A24201D0AA42B2
:103F90001BD1B1F828C023F4700343EA0C53D1F8C5
:103FA00020C023F0807343EA0C03D1F824C023F02F
:103FB000007343EA0C03BA4203D0A24201D0AA42E2
:103FC00003D1C96A23F000530B43536480F83C606B
:103FD0000020F0BD0220F0BD002C01400034014063
:103FE000005001407047704770470000F0B590F8EE
:103FF0003C20012A43D0012580F83C50022280F861
:104000003D2003685A689C681E4E1F4FDFF87CC035
:10401000B34203D0BB4201D0634504D122F4700EF9
:104020004A6842EA0E02DFF868E002EA0E02D1F8BE
:1040300000E04EEA020EC3F804E00268B24212D079
:10404000B2F1804F0FD0134B9A420CD0124B9A42D0
:1040500009D0124B9A4206D0BA4204D0104B9A4271
:1040600001D0624504D1896824F08003194391602E
:1040700080F83D50002180F83C100846F0BD022039
:10408000F0BD0000002C0140003401400050014010
:104090008FFFFFFD0004004000080040000C0040BE
:1040A0000040014010B5044649B104290AD008294E
:1040B0000BD094F8470001280AD0012010BD94F8D5
:1040C0004400F8E794F84500F5E794F84600F2E775
:1040D0000220A9B3042937D0082938D084F8470032
:1040E0000422206801F091FE2068416C41F40041F7
:1040F000416418492068884214D0B0F1804F11D033
:10410000154988420ED0154988420BD0144988427F
:1041100008D01449884205D01349884202D0134977
:10412000884207D18168124A1140062906D0B1F5AC
:10413000803F03D0016841F001010160002010BD03
:10414000FFE784F84400CBE784F84500C8E784F82B
:104150004600C5E7002C0140000400400008004074
:10416000000C00400034014000400140005001407C
:1041700007000100704710B5040003D094F83D001B
:1041800010B107E0012010BD002084F83C0020465B
:1041900000F022F8022084F83D00211D206801F083
:1041A000BDFD012084F8480084F83E0084F83F00FB
:1041B00084F8400084F8410084F8420084F8430009
:1041C00084F8440084F8450084F8460084F84700E9
:1041D00084F83D00002010BD08B50068194A1A494E
:1041E00090420ED1086E40F400600866086E02220C
:1041F00000F40060009000211920FEF715FF19203F
:104200001CE0B0F1804F0BD0104A904207D1886D6E
:1042100040F010008865886D00F01000009008BD27
:10422000886D40F001008865886D002200F0010073
:10423000009001211C20FEF7F7FE1C20BDE808407D
:10424000FEF7E4BE002C01400010024000100040C8
:1042500090F83D10012901D001207047022180F81B
:104260003D1000681249884214D0B0F1804F11D03F
:10427000104988420ED0104988420BD00F4988421D
:1042800008D00F49884205D00E49884202D00E4915
:10429000884207D181680D4A1140062906D0B1F540
:1042A000803F03D0016841F00101016000207047A8
:1042B000002C01400004004000080040000C0040B9
:1042C000003401400040014000500140070001005F
:1042D00090F83D10012901D001207047022180F89B
:1042E0003D100168CA6842F00102CA6000681349C3
:1042F000884214D0B0F1804F11D0114988420ED0BD
:10430000104988420BD01049884208D00F49884292
:1043100005D00F49884202D00E49884207D18168F2
:104320000D4A1140062906D0B1F5803F03D001683F
:1043300041F001010160002070470000002C0140A5
:104340000004004000080040000C00400034014020
:1043500000400140005001400700010001680A6A66
:1043600041F211131A4207D10A6A9B001A4203D183
:104370000A6822F001020A60012180F83D10002045
:10438000704700002DE9F041044690F83C000025FC
:104390000F4601281CD0012684F83C60022084F8D6
:1043A0003D0020688168324A114021F47F418160DC
:1043B0003968B1F5005F2DD017DC402948D00ADC00
:1043C000D9B1102919D0202917D0302948D114E0AB
:1043D0000220BDE8F081502928D060292ED0702914
:1043E0000DD0B1F5805F3BD13BE011F00F0F37D11D
:1043F0000811A0F58030072832D8206825E0D7E9D9
:104400000121FB68206801F00DFD2068816841F002
:10441000770109E0D7E90121FB68206801F002FD7E
:104420002068816841F4804181601AE0FA68796807
:10443000206801F0CBFE5021206806E0FA68796818
:10444000206801F0D4FE6021206801F0F5FC08E04E
:10445000FA687968206801F0B9FE40212068F4E725
:10446000012584F83D60002084F83C002846B0E730
:1044700088FFCEFF704770B50446006801694FF0B1
:104480000005C943890715D4C168C943890711D4F8
:10449000E91E01610120207720688069800720469D
:1044A00002D0FFF7E7FF04E000F03AF9204600F001
:1044B000FCF9257720680169C943490717D4C16809
:1044C000C943490713D46FF004010161022020772A
:1044D0002068806910F4407F204602D0FFF7CAFFB1
:1044E00004E000F01DF9204600F0DFF92577206890
:1044F0000169C943090716D4C168C943090712D421
:104500006FF008010161042020772068C0698007EE
:10451000204602D0FFF7AEFF04E000F001F920468C
:1045200000F0C3F9257720680169C943C90617D48B
:10453000C168C943C90613D46FF010010161082096
:1045400020772068C06910F4407F204602D0FFF732
:1045500091FF04E000F0E4F8204600F0A6F925778A
:1045600020680169C943C90708D1C168C943C9079F
:1045700004D1891E0161204600F028FA20680169F3
:10458000C943090609D4C168C943090605D46FF0B7
:10459000800101612046FFF7BDFC20680169C94325
:1045A000C90509D4C168C943090605D46FF48071EF
:1045B00001612046FFF7ADFC20680169C943490647
:1045C00009D4C168C943490605D46FF040010161AF
:1045D000204600F0FCF920680169C943890609D426
:1045E000C168C943890605D46FF0200101612046E6
:1045F000FFF791FC20680169C943C90209D4C16869
:10460000C943C90205D46FF4801101612046FFF748
:10461000EAFC20680169C943890209D4C168C94319
:10462000890205D46FF4001101612046FFF7DAFC1E
:1046300020680169C943490209D4C168C9434902D4
:1046400005D46FF4800101612046FFF7CDFC20689E
:104650000169C94309020BD4C168C943090207D4DF
:104660006FF4000101612046BDE87040FFF782BD94
:1046700070BD000070B586B0044614216846FBF793
:1046800011FE23492068884240D12248C16C41F084
:104690000401C164C16C01F004010591C16C41F0D9
:1046A0000201C164C06C022500F0020005904FF4C5
:1046B000005000900024CDE901540420CDE90340CE
:1046C000154E69463046FEF75FFB07200090CDE9A6
:1046D000015469463046CDE90345FEF755FB0120FC
:1046E0000090CDE901540620CDE903400B4E694608
:1046F0003046FEF749FB28020090CDE901540C201A
:10470000CDE9034069463046FEF73EFB06B070BD7A
:10471000002C01400010024000080048000400483E
:10472000704770B5044690F83C0000260D460128FD
:104730000BD0012084F83C000C2A4AD007DC82B15F
:10474000042A20D0082A06D131E0022070BD102AA8
:1047500053D0142A63D00126002084F83C00304650
:1047600070BD206801F072FB2068816941F008018A
:1047700081612068816921F004018161206881697B
:104780002A69114311E0206801F0B6FB20688169B5
:1047900041F4006181612068816921F48061816157
:1047A000206881692A6941EA02218161D4E7206891
:1047B00001F0F2FB2068C16941F00801C161206885
:1047C000C16921F00401C1612068C1692A691143EE
:1047D00011E0206801F030FC2068C16941F40061FB
:1047E000C1612068C16921F48061C1612068C1692B
:1047F0002A6941EA0221C161AEE7206801F06CFC40
:104800002068016D41F0080101652068016D21F00B
:10481000040101652068016D2A69114311E02068D7
:1048200001F096FC2068016D41F40061016520688B
:10483000016D21F4806101652068016D2A6941EAFA
:104840000221016588E710B5040003D094F83D000B
:1048500010B107E0012010BD002084F83C00204684
:1048600000F022F8022084F83D00211D206801F0AC
:1048700055FA012084F8480084F83E0084F83F008F
:1048800084F8400084F8410084F8420084F8430032
:1048900084F8440084F8450084F8460084F8470012
:1048A00084F83D00002010BD7047704770B5044685
:1048B00069B104290ED008290FD00C2910D0102975
:1048C00011D094F84300012810D0012070BD94F855
:1048D0003E00F8E794F83F00F5E794F84000F2E76F
:1048E00094F84100EFE794F84200ECE70220E9B3C6
:1048F00004294AD008294BD00C294CD010294DD07E
:1049000084F843000122206801F072FA25492068EA
:10491000254A264B264D88420BD0904209D098421A
:1049200007D0244EB04204D0234EB04201D0A8425A
:1049300003D1466C46F4004646642068884211D094
:10494000B0F1804F0ED01D4988420BD01C498842DF
:1049500008D01C49884205D0904203D0984201D02B
:10496000A84209D18168184A114000E00AE00629EE
:1049700006D0B1F5803F03D0016841F0010101602C
:10498000002070BD84F83E00BCE784F83F00B9E722
:1049900084F84000B6E784F84100B3E784F84200A9
:1049A000B0E70000002C014000340140004001400D
:1049B0000050014000440140004801400004004014
:1049C00000080040000C00400700010070477047DD
:1049D00090F88010012918D0012180F8801024213E
:1049E000C0F8841050F8641B0A680B6823F00103B8
:1049F0000B6022F000510022026050F8643C196004
:104A000020210162027710467047022070477047EC
:104A1000704770B5044690F8800001281DD0012031
:104A200084F880002420C4F88400206805680268A7
:104A300022F0010202602068826822F060620A436C
:104A40008260204601F0E6FB206805602020C4F863
:104A50008400002084F8800070BD022070BD70B515
:104A6000044690F8800001281DD0012084F88000C1
:104A70002420C4F8840020680568026822F001023E
:104A800002602068826822F060420A438260204609
:104A900001F0C0FB206805602020C4F884000020DD
:104AA00084F8800070BD022070BD70477047704769
:104AB0002DE9F04103680446D86919689A6840F600
:104AC0000F0528424FF0000509D186067ED501F07A
:104AD000200602F080573E4378D0216F27E1A94E8F
:104AE000A94F16400F40374370D0C70709D0CF05F4
:104AF00007D501271F62D4F88C3043F00103C4F8B6
:104B00008C3083070AD5D30708D0276802233B627D
:104B1000D4F88C3043F00403C4F88C3043070AD532
:104B2000D30708D0276804233B62D4F88C3043F0C5
:104B30000203C4F88C3003070CD501F02003334383
:104B400008D0266808233362D4F88C3043F0080379
:104B5000C4F88C3003050BD54B0109D526684FF4FA
:104B600000633362D4F88C3043F02003C4F88C30F7
:104B7000D4F88C30002B3AD0800609D501F0200003
:104B800002F08051084303D0216F09B120468847C5
:104B9000D4F88C0021688968490602D410F0280FE7
:104BA00027D0204601F0F6FB2068806840061BD520
:104BB0002068083050E8001F21F0400140E8001252
:104BC000002AF5D1E06F78B1704900E017E0816309
:104BD000E06FFDF7FEFB002809D0E06F816B00E07D
:104BE0002046BDE8F04108472046FFF760FFBDE8DA
:104BF000F0812046FFF75BFFC4F88C50F7E7E76EC3
:104C00002026012F7ED1C7067CD5CF067AD510206D
:104C1000186220688068400642D5E16F08684068E5
:104C20000004000CE3D0B4F85C208242DFD9A4F881
:104C30005E000868006880062BD4206850E8001FDA
:104C400021F4807140E80012002AF6D12068083073
:104C500050E8001F21F0010140E80012002AF5D1C0
:104C60002068083050E8001F21F0400140E80012A1
:104C7000002AF5D1C4F88860E566206850E8001F76
:104C800021F0100140E80012002AF6D1E06FFDF794
:104C90006BFBB4F85C00B4F85E10401A81B22CE0F3
:104CA000B4F85C00B4F85E10401A81B2B4F85E004B
:104CB00000289CD000299AD0206850E8002F22F4C8
:104CC000907240E80023002BF6D12E4BDB43206886
:104CD000083050E8002F1A4040E80027002FF6D196
:104CE000C4F88860E5662567206850E8002F22F048
:104CF000100240E80023002BF6D12046FFF787FE84
:104D000075E7FFE7C70209D5570207D54FF48010B2
:104D100018622046BDE8F041FFF7C8BE03060AD579
:104D200001F0800302F40002134304D0616F0029F4
:104D30007FF456AF5BE7420611D54A060FD52046F1
:104D4000016851E8002F22F0400241E80023002BC7
:104D5000F6D1C0F88460456700F02CF947E70202FD
:104D600006D54A0004D52046BDE8F041FFF79DBEB8
:104D7000C001C5D50029C3DA2046BDE8F041FFF7E0
:104D800047BE0000010000102001000481630008FC
:104D900010B5040003D0D4F8840010B107E001205E
:104DA00010BD002084F88000204600F027F8242061
:104DB000C4F884002068016821F0010101602046E8
:104DC00001F026FD0128EBD0A06A10B1204601F0C9
:104DD00043FA2068416821F490414160206881686D
:104DE00021F02A0181602068016841F00101016021
:104DF0002046BDE8104001F093BA000010B59CB009
:104E00000446142115A8FBF74DFA54216846FBF718
:104E100049FA1A49206888422ED101200024CDE9A0
:104E200000046846FEF798F908B1FCF756F91448F3
:104E3000016E41F480410166016E01F480411A91D6
:104E4000C16C41F00401C164C06C15A900F00400FC
:104E50001A90302015900220CDE916040720CDE9E4
:104E600018400848FDF790FF022211462520FEF762
:104E7000DBF82520FEF7CAF81CB010BD0038014051
:104E8000001002400008004830B4D0F88830202BD1
:104E900020D1E1B1DAB190F88030012B1AD0012392
:104EA00080F880300023C3660B4C0368A3420BD00C
:104EB0005B681B0208D5036853E8004F44F0806428
:104EC00043E80045002DF6D130BC01F0EDBD0120D6
:104ED00030BC70470220FBE70080004010B5012283
:104EE00003490448FFF7D0FFBDE8104006F05ABA66
:104EF00035000020C00F00202DE9F8430446D0F80B
:104F000084001F4615460E46202851D1DEB1D5B18A
:104F100094F8800001284BD0012084F880004FF0E5
:104F20000008C4F88C802120C4F884001834FEF7EF
:104F300011F8A5878146E58754F8100C183CB0F5A8
:104F4000805F03D004E00120BDE8F883206920B130
:104F50003546002684F8808010E00025FAE780219D
:104F6000204601F02DFEB8B9C5B115F8010B216836
:104F70008862B4F85600401EA4F85600B4F85600F3
:104F80004B464FF0000200970028E8D14FF0400157
:104F9000204601F015FE30B10320D5E736F8020BAC
:104FA000C0F30800E3E72020C4F884000020CBE72A
:104FB0000220C9E77047FEE700EB8100006E00F0B9
:104FC000F84070478068C0F3C00070478068C0F345
:104FD000C00070478068C0F3000070478068C0F36D
:104FE000000070478068C0F3800070478068C0F39D
:104FF00080007047042303EAD15310B51844436975
:10500000C1F3045107248C40A3438A4013434361F6
:1050100010BD00EB8100016E21F0004111430166DB
:105020007047000070B592B000240F9410943C219A
:1050300068461194FBF736F921484FF0A04104254A
:1050400001604FF44031C0E90114C4600461C0E95B
:105050000545047744770126066280F8244080F8ED
:105060003840C46380F84040FCF7A0FF08B1FCF76B
:1050700034F80FA912480F94FCF7F0FE08B1FCF7C2
:105080002CF8104800900920CDE901047F200896F3
:105090000594CDE9030580208DF824408DF8254046
:1050A0000A900B908DF826408DF8304069460448F0
:1050B000FCF788FB002801D0FCF70FF812B070BD98
:1050C000000C00200800900C70B590B03C216846A0
:1050D000FBF7E8F81E481D49002401604FF44031F9
:1050E000C0E90114C46004250461C0E905450477E2
:1050F00044770126066280F8244080F83840C46373
:1051000080F84040FCF752FF08B1FBF7E6FF11487A
:1051100000900920CDE901047F2008960594CDE98F
:10512000030580208DF824408DF825400A900B90CF
:105130008DF826408DF8304069460548FCF742FB63
:10514000002801D0FBF7C9FF10B070BD000100506E
:105150006C0C00200400600870B592B000240F941D
:1051600010943C2168461194FBF79CF82248214991
:10517000042501604902C0E90114C4600461C0E96A
:105180000545047744770126066280F8244080F8BC
:105190003840C46380F84040FCF708FF08B1FBF7D3
:1051A0009CFF0FA914480F94FCF758FE08B1FBF7B9
:1051B00094FF1248009009200190032002907F2064
:1051C00008960594CDE9030588200A908DF82440BF
:1051D00080208DF825400B908DF826408DF83040CA
:1051E00069460548FCF7EEFA002801D0FBF775FF89
:1051F00012B070BD00040050D80C00200200300432
:1052000030B58FB03C216846FBF74CF8254824495F
:10521000002401604FF40021C0E9011404258561D8
:105220000121C460C0E9044104774477016280F839
:10523000244080F83840C46380F84040FCF7B6FE54
:1052400008B1FBF74AFF184800900920019002AA14
:1052500002207F21059482E82300089088200A908C
:105260008DF8244080208DF825400B908DF8264045
:105270008DF8304069460B48FCF7A4FA08B1FBF7FB
:105280002CFF0A48009040F20F1001906946054833
:10529000FCF798FA002801D0FBF71FFF0FB030BDD4
:1052A00000060050440D0020020030040400600895
:1052B00010B5124810490A22016000214160816046
:1052C000C160017441748174426101220C24C0E9FF
:1052D00006240423C0E90832C0E90A24C0E90C32DC
:1052E000C0E90E21FDF7F0FA002803D0BDE8104018
:1052F000FBF7F3BE10BD000000640040B00D0020BD
:105300002DE9F04186B014216846FAF7CBFF334807
:10531000C16C41F00401C164C16C01F0040105914C
:10532000C16C41F02001C164C16C01F02001059104
:10533000C16C41F00101C164C16C01F00101059132
:10534000C16C41F00201C164C06C254E00F0020046
:105350000590002208213046FDF7F6FD4FF09047FA
:10536000002248F210013846FDF7EEFDDFF87480A8
:10537000002270214046FDF7E7FD0820009001253E
:105380000024CDE90154694630460394FDF7FCFC46
:10539000CDE90054694638460294FDF7F5FC10202B
:1053A0000090CDE90154694638460394FDF7ECFCC2
:1053B000E8030226CDE90005CDE9024669463846F4
:1053C000FDF7E2FC7020CDE90005CDE90246694613
:1053D0004046FDF7D9FC06B0BDE8F0810010024060
:1053E0000008004800040048124810B51049016048
:1053F0004FF48271416000214FF47062C0E90212E3
:105400000122C0E90412520282612022C0E9072170
:1054100007224162C0E90A1201634163FEF772FB91
:10542000002803D0BDE81040FBF757BE10BD0000B8
:1054300000300140140E0020124810B510490160E0
:105440004FF48271416000214FF47062C0E9021292
:105450000222026101224261520282611022C0E9ED
:10546000072107224162C0E90A1201634163FEF786
:1054700049FB002803D0BDE81040FBF72EBE10BD4D
:10548000003C0040780E002010B59CB00024199418
:105490001A9417941894149415941C216846169421
:1054A000FAF700FF342107A8FAF7FCFE3B483A4917
:1054B000C0E900142021816040F64C01C0E90314CA
:1054C0000121C0E90514FEF756FE08B1FBF705FE01
:1054D0004FF48050179017A93048FEF753FF08B1DA
:1054E000FBF7FBFD2D48FFF7AEF908B1FBF7F5FD23
:1054F0007020CDE9140414A928481694FEF776FD0F
:1055000008B1FBF7EAFD6020CDE900040420029415
:10551000CDE9034005940022694620480694FFF730
:1055200000F908B1FBF7D9FD042269461B48FFF7D3
:10553000F8F808B1FBF7D1FD082269461748049432
:10554000FFF7EFF808B1FBF7C8FD40F64B000190FC
:105550000C2269461148FFF7E4F808B1FBF7BDFDDE
:105560000794089409944FF400500A94CDE90B4035
:105570000D9400030E94CDE90F401194129407A9E5
:1055800006481394FEF7C8FC08B1FBF7A6FD0348D4
:10559000FFF770F81CB010BD002C0140DC0E00209D
:1055A00010B58EB000240794089409940A940B94C3
:1055B0000C941C2168460D94FAF774FE1E484FF0B7
:1055C000804101603121C0E9011440F64751C0E932
:1055D00003148461FEF7CFFD08B1FBF77EFD4FF4A5
:1055E0008050079007A91448FEF7CCFE08B1FBF7DE
:1055F00074FD1148FFF727F908B1FBF76EFD702025
:105600000B900BA90D940C48FEF7F0FC08B1FBF7CA
:1056100064FD6020009040F64650CDE901040C2264
:10562000694605480494FFF77CF8002801D0FBF791
:1056300054FD0EB010BD0000280F00203EB5002420
:105640000F48009401940D4902940160A921C0E91A
:1056500001144FF6FF71C16080218161FEF78BFD5F
:1056600008B1FBF73AFD0094694605480294FEF73D
:10567000BDFC002801D0FBF730FD3EBD001000400E
:10568000740F0020184810B5164901604FF46121CD
:105690004160002181600C22C160C0E90412816177
:1056A000C161016241628162FFF772FB08B1FBF7E1
:1056B00014FD00210C48FFF7D2F908B1FBF70DFDEE
:1056C00000210948FFF7A5F908B1FBF706FD0648D8
:1056D000FFF77EF9002803D0BDE81040FBF7FDBCC2
:1056E00010BD000000380140C00F0020FEE7FEE7BB
:1056F0007047000070B500252DED028BB0EE408A9A
:105700005161906082ED898A1446D5600122D103EF
:105710004FF09040FDF718FC4FF4034020839FEDBD
:10572000070A84ED8B8A84ED8C0A84ED8D0A84ED62
:105730008E0A6560BDEC028B70BD000000000000A9
:10574000F8B515460E460B460092044600224FF46B
:10575000C05100F019F888B9334600228021204654
:10576000009500F07FF848B9334600224FF4C0613D
:105770002046009500F008F8002804D0206E40F084
:10578000200020660320F8BD2DE9FC5F4FF0000BE0
:10579000984616460F4604460C9D8DF804B0FDF75A
:1057A000D9FB411BA8EB0105FDF7D4FB824620681D
:1057B00000F10C092A480068C0EBC00000EB800033
:1057C000000D684343E0B7F5C06F06D12EB999F8D4
:1057D00000008DF804009DF80400B8F1FF3F37D0B9
:1057E000FDF7B8FBA0EB0A00A84203D215B1009860
:1057F00058B32BE02068416821F0E0014160606807
:10580000B0F5827F0BD1A068B0F5004F02D0B0F5A3
:10581000806F04D12068016821F040010160A06A16
:10582000B0F5005F09D12068016821F400510160E2
:105830002068016841F400510160012084F85D0096
:1058400084F85CB00320BDE8FC9F0025401E00905A
:10585000206880683840B042B5D10020F3E70000EE
:10586000640000202DE9F8431E4691468846044610
:10587000089DFDF76FFB401B351AFDF76BFB0746D4
:1058800025480068C0F3CB30684338E0701C37D03F
:10589000FDF760FBC01BA84203D215B1009860B3AE
:1058A0002CE02068416821F0E00141606068B0F5BB
:1058B000827F0BD1A068B0F5004F02D0B0F5806FA9
:1058C00004D12068016821F040010160A06AB0F5B0
:1058D000005F09D12068016821F40051016020684F
:1058E000016841F400510160012084F85D0000204E
:1058F00084F85C000320BDE8F8830025401E00907A
:105900002068816838EA010004D000204845BDD1F4
:105910000020F0E70120F9E7640000207047000054
:1059200070B504462DED028B84B0008BADF80400F9
:105930004FF400454FF09046B0EE408A00222946D1
:105940003046FDF701FB0A2000900323734A01A9AA
:105950007348FEF79DF9724890F85D100229FBD05C
:10596000012229463046FDF7EFFA6C484FF47C726D
:10597000418802EA91110278007901EB8221C0F39B
:1059800003100844C11204EB81016060CA6901215F
:1059900001EBE021CB1701EB536323F07F03C91A1E
:1059A00004EB8101C30AC969DB02C31A891A4B439C
:1059B00002EBE32101442269A0688B1A00EBD0724C
:1059C000B3EB620F02DDE268521E07E0424202EBD7
:1059D000D272B3EB620F02DAE268521CE26000EEB0
:1059E000101A216194ED8C1AB8EEC00A84ED8D1A5C
:1059F000DFED4C1A60EE210A00EE100AB8EEC02A64
:105A000080EE820A84ED8C0AE268424300EE902A1E
:105A1000B8EEE02A00EE901AF8EEE00A72EE200AE4
:105A200020EEA12A00EE900AF8EEE02AC2EE220A49
:105A3000C4ED870A94ED8B2A70EEC20AC4ED8A0A7F
:105A400000EE900A6269F8EEE00A4A4392FBF0F138
:105A500081EEA02A00FB112000EE900AF8EEE02A69
:105A6000D4ED890A42EE220AF5EEC00AF1EE10FAF0
:105A700002D270EEA10A06E010EE900A2A4988428E
:105A800001DD70EEE10A30EE411AC4ED880A11EE34
:105A9000100A10F17F5F02D931EE210A06E011EE03
:105AA000100A2249884204DD31EE610AC0EE081A6C
:105AB00001E0C1EE081A28210120F0EE610A0A1A5D
:105AC00004EB8202401C92ED8E0A884282ED8F0A1E
:105AD00070EE200AF3DB00EE101AC4ED8F1AB8EE58
:105AE000C01A80EE810A9FED121A84EDB70AD4ED38
:105AF000050AF8EEE00A20EE200A84EDB80AD4ED9B
:105B0000B90A60EE810A9FED0B1A40EE010AC4ED5E
:105B1000B90A04B0BDEC028B70BD00001C0000206F
:105B2000780E0020DB0FC940DB0FC9400000404069
:105B3000A4707D3F0AD7233C014880ED890A704755
:105B400078000020014880ED8B0A70477800002023
:105B5000FDF706BA10B594B038216846FAF7A2FBF3
:105B600014210EA8FAF79EFB0020FDF78FFA012002
:105B700000900004032405210190CDE90841022092
:105B80004421CDE90A1007900C900D906846FDF76E
:105B9000B9FD08B172B6FEE70F20CDE90E04002072
:105BA00010901190129004210EA8FDF761FC0028BE
:105BB00001D072B6FEE714B010BD000002480168C3
:105BC00041F470010160704788ED00E070B51E4D32
:105BD00001222DED028B20212846FDF7B5F9092180
:105BE0001A48FCF793F81A4C092160601948FCF731
:105BF0008DF8206018489FED190AFFF791FEFBF71A
:105C0000ABFC84ED0A0AFBF7B3FC9FED158A20EE8E
:105C1000080A84ED090AFBF7BBFC20EE080A84EDB4
:105C20000B0AFBF79FFC84ED0C0A05F095F90D4873
:105C3000FEF721FCBDEC028B2846BDE87040012236
:105C40002021FDF781B90000000400486C0C002001
:105C500060080020000C00207800002017B7D13722
:105C6000ABAAAA3DDC0E002070B509212DED028BF8
:105C70002248FCF74BF8224D288040F20F111F48B4
:105C8000FCF744F8688009211E48FCF73FF81E4CD9
:105C900000EE100A9FED1D8AA060B8EEC00AD4ED98
:105CA000060ADFED1B8A9FED1B1A60EE880A20EEC4
:105CB000280A40EE010AC4ED060A2888FBF774FCA6
:105CC00020EE280AD4ED0F0A00EE880A84ED0F0AB0
:105CD0006888FBF7CBFC20EE280AD4ED0E0A20469C
:105CE00000EE880A84ED0E0A04F0A6F9BDEC028BE2
:105CF0000948BDE87040FEF7BEBB0000440D00201F
:105D000022000020D80C0020600800203333733FAD
:105D1000CDCC4C3D9999F83C280F00202DE9F04F4F
:105D200002682A4D2A4E2B4FDFF8ACC02B4B2C4C6F
:105D30004FF0804BA8420BD0584509D0B04207D055
:105D4000B84205D0604503D0984201D0A04204D1AA
:105D500022F070084A6842EA0802DFF88880DFF81B
:105D60008890DFF888A0A84211D058450FD0B042E3
:105D70000DD0B8420BD0604509D0984207D04045BD
:105D800005D0484503D0504501D0A04203D122F4AC
:105D90004076CA6832434E6922F080023243026084
:105DA0008A68C2620A688262A84209D0984207D013
:105DB000404505D0484503D0504501D0A04201D10F
:105DC0000969016301214161BDE8F08F002C0140A8
:105DD0000004004000080040000C00400034014076
:105DE0000050014000400140004401400048014093
:105DF00010B501F01F010123046A8B409C4304622B
:105E0000036A8A401343036210BD10B501F01F01FD
:105E10000423046A8B409C430462036A8A40134350
:105E2000036210BD10B5846842EA032224F47F4463
:105E30000A432243826010BD8268034B1A400A4322
:105E400042F00701816070478FFFCFFF2DE9F047D7
:105E5000026A22F001020262056A426883691F4CED
:105E600025F0020523400C6823F003031C438B68D4
:105E70001C4E2B431A4D1C4FDFF870C0DFF870909A
:105E8000DFF870A0A84209D0B04207D0B84205D0D0
:105E9000604503D0484501D0504506D123F008089D
:105EA000CB6843EA080323F00403A84209D0B042B8
:105EB00007D0B84205D0604503D0484501D05045D1
:105EC00005D14D6922F4407215438A692A43426024
:105ED0008461496841630362BDE8F0878FFFFEFF7C
:105EE000002C0140003401400040014000440140CA
:105EF0000048014000500140F0B5026A22F0100253
:105F00000262056A426883691C4C1E4E23400C687D
:105F100023F4407343EA042425F020038D681A4FCC
:105F200043EA0513164DA84203D0B04201D0B8424F
:105F300007D1D1F80CC023F0800343EA0C1323F0FF
:105F40004003A8420CD0B0420AD0104DA84207D05E
:105F50000F4DA84204D00F4DA84201D0B84207D13E
:105F60004D6922F4406242EA85028D6942EA850267
:105F700042608461496881630362F0BDFF8FFFFE68
:105F8000002C01400034014000500140004001401D
:105F90000044014000480140F0B5026A22F48072DA
:105FA0000262056A4268C3691C4C1E4E23400C689D
:105FB00023F003031C4325F400738D681A4F43EA52
:105FC0000523174DA84203D0B04201D0B84207D1F3
:105FD000D1F80CC023F4006343EA0C2323F480635C
:105FE000A8420CD0B0420AD0104DA84207D0104DA4
:105FF000A84204D00F4DA84201D0B84207D14D6944
:1060000022F4405242EA05128D6942EA05124260CA
:10601000C4614968C1630362F0BD00008FFFFEFFE9
:10602000002C01400034014000500140004001407C
:106030000044014000480140F0B5026A22F4805259
:106040000262056A4268C3691C4C1E4E23400C68FC
:1060500023F4407343EA042425F400538D681A4F57
:1060600043EA0533164DA84203D0B04201D0B842EE
:1060700007D1D1F80CC023F4004343EA0C3323F4D6
:106080008043A8420CD0B0420AD0104DA84207D09D
:106090000F4DA84204D00F4DA84201D0B84207D1FD
:1060A0004D6922F4404242EA85128D6942EA851226
:1060B0004260C461496801640362F0BDFF8FFFFE66
:1060C000002C0140003401400050014000400140DC
:1060D000004401400048014030B5026A22F4803299
:1060E0000262056A4268036D124C23400C681C432F
:1060F00025F400330D8943EA05430F4DA8420ED025
:106100000E4DA8420BD00E4DA84208D00D4DA8420E
:1061100005D00D4DA84202D00C4DA84204D14D69C6
:1061200022F4803242EA05224260046549688164B3
:10613000036230BD8FFFFEFF002C014000340140A0
:10614000004001400044014000480140005001402F
:1061500030B5026A22F480120262046A4268036D5A
:10616000134D24F400142B400D6843EA05230D89D8
:1061700044EA05540F4DA8420ED00F4DA8420BD053
:106180000E4DA84208D00E4DA84205D00D4DA84294
:1061900002D00D4DA84204D14D6922F4802242EA7A
:1061A0008522426003654968C164046230BD000015
:1061B000FF8FFFFE002C01400034014000400140F1
:1061C00000440140004801400050014010B5046AFD
:1061D000036A23F001030362836923F0F00343EAB7
:1061E000021324F00A020A438361026210BD10B553
:1061F000036A23F0100303628469036A24F4704481
:1062000044EA023223F0A00343EA011182610162F1
:1062100010BD000030B5416EB9B102689168926856
:10622000C1F342610B4C520FA35CDD0004F1080383
:106230009A5CB5FBF2F2A0F86A20625C595CD2006D
:10624000B2FBF1F1A0F8681030BD0121A0F86A108E
:10625000F8E7000014BF000890F82810C90706D01E
:1062600001684A68C36A22F400321A434A6090F80F
:106270002810890706D501684A68036B22F480322A
:106280001A434A6090F82810490706D501684A6801
:10629000436B22F480221A434A6090F828100907C1
:1062A00006D501684A68836B22F400421A434A60AB
:1062B00090F82810C90606D501688A68C36B22F4D5
:1062C00080521A438A6090F82810890606D5016822
:1062D0008A68036C22F400521A438A6090F82810EE
:1062E000490611D501684A68436C22F480121A43AA
:1062F0004A60416CB1F5801F06D101684A68836C21
:1063000022F4C0021A434A6090F82810090606D504
:1063100001684A68C06C22F4002202434A60704758
:10632000F8B500250446C0F88C50FCF713FE07466C
:10633000206800686FF07E46000708D53B460022C3
:106340004FF400112046009600F03AFC60B9206836
:10635000006840070AD53B4600224FF480012046E2
:10636000009600F02DFC08B10320F8BD2020C4F8F1
:106370008400C4F8880044F86C5F00202575F8BDDF
:1063800010B5806A0021A0F85E10A0F85610FEF744
:106390008EFB10BD10B5016851E8002F22F49072F9
:1063A00041E80023002BF6D10E4B0168083151E87B
:1063B000002F1A4041E80024002CF6D1C16E0129BB
:1063C00008D1016851E8002F22F0100241E80023B3
:1063D000002BF6D12021C0F888100021C16601678A
:1063E00010BD0000FEFFFFEF10B5B0F86020D0F840
:1063F00088300168222B04D0886940F00800886149
:1064000010BD496A836D11401980816D891C8165B9
:10641000B0F85E10491EA0F85E10B0F85E100029BA
:10642000EED1016851E8002F22F4907241E8002378
:10643000002BF6D10168083151E8002F22F001024B
:1064400041E80023002BF5D12021C0F8881000215D
:106450000167C26E012A02D0FEF740FD10BDC16681
:10646000016851E8002F22F0100241E80023002BC0
:10647000F6D10168CA69D243D20601D410220A6259
:10648000B0F85C10FEF7C3FA10BD00002DE9F0472C
:106490000446B0F860900068C56907688668D4F85B
:1064A0008810222905D0816941F008018161BDE889
:1064B000F087B4F868804FF0000A61E02068406A15
:1064C000A16D00EA09000880A06D801CA065B4F8E9
:1064D0005E00401EA4F85E002068C56969072DD0E3
:1064E000E90709D0F90507D501210162D4F88C002C
:1064F00040F00100C4F88C00A8070AD5F00708D0C6
:10650000216802200862D4F88C0040F00400C4F82E
:106510008C0068070AD5F00708D0216804200862BB
:10652000D4F88C0040F00200C4F88C00D4F88C0041
:1065300020B12046FEF7BBFAC4F88CA0B4F85E0088
:10654000F0B9206850E8001F21F4807140E8001283
:10655000002AF6D1274A2068083050E8001F114071
:1065600040E80013002BF6D12020C4F88800C4F8BE
:1065700070A0E16E5046012925D02046FEF7AEFC02
:10658000B8F1000F01D0A80698D4B4F85E00002836
:106590008DD0B4F86810814289D92068083050E85D
:1065A000001F21F0805140E80012002AF5D1124866
:1065B0002067206850E8001F41F0200140E80012E9
:1065C000002AF6D173E7E066206850E8001F21F04A
:1065D000100140E80012002AF6D12068C169C943C1
:1065E000C90601D410210162B4F85C102046FEF700
:1065F0000EFAC5E7FEFFFFEFE963000810B5B0F83B
:106600006020D0F888300168222B04D0886940F0DF
:106610000800886110BD496A1140826D1170816D5A
:10662000491C8165B0F85E10491EA0F85E10B0F8F4
:106630005E100029EED1016851E8002F22F490721B
:1066400041E80023002BF6D10168083151E8002F02
:1066500022F0010241E80023002BF5D12021C0F8EF
:10666000881000210167C26E012A02D0FEF736FCB5
:1066700010BDC166016851E8002F22F0100241E808
:106680000023002BF6D10168CA69D243D20601D497
:1066900010220A62B0F85C10FEF7B9F910BD0000D4
:1066A0002DE9F0470446B0F860900068C5690768B6
:1066B0008668D4F88810222905D0816941F0080144
:1066C0008161BDE8F087B4F868804FF0000A61E0AE
:1066D0002068406AA16D00EA09000870A06D401CA6
:1066E000A065B4F85E00401EA4F85E002068C5698D
:1066F00069072DD0E90709D0F90507D50121016205
:10670000D4F88C0040F00100C4F88C00A8070AD52A
:10671000F00708D0216802200862D4F88C0040F00D
:106720000400C4F88C0068070AD5F00708D0216877
:1067300004200862D4F88C0040F00200C4F88C00F9
:10674000D4F88C0020B12046FEF7B1F9C4F88CA033
:10675000B4F85E00F0B9206850E8001F21F48071A1
:1067600040E80012002AF6D1274A2068083050E895
:10677000001F114040E80013002BF6D12020C4F880
:106780008800C4F870A0E16E5046012925D020464B
:10679000FEF7A4FBB8F1000F01D0A80698D4B4F816
:1067A0005E0000288DD0B4F86810814289D9206835
:1067B000083050E8001F21F0805140E80012002A04
:1067C000F5D112482067206850E8001F41F02001F1
:1067D00040E80012002AF6D173E7E066206850E82E
:1067E000001F21F0100140E80012002AF6D12068B5
:1067F000C169C943C90601D410210162B4F85C1013
:106800002046FEF704F9C5E7FEFFFFEFFD6500082F
:106810002DE9F041044600682269A168E669114348
:106820006269002532431143934B0268934E324014
:106830000A43026020684168E26821F44051114334
:1068400041602168A069994201D0226A10438A6898
:106850008B4E324002438A602068C16A626A21F02E
:106860000F011143C1628749226887488A420DD1CE
:10687000D0F8880010F0030006D0012867D0022865
:1068800054D0032851D164E001204FE07F498A426F
:106890000BD1D0F8880010F00C0047D0042845D068
:1068A000082852D00C2840D153E079498A420BD1B4
:1068B000D0F8880010F0300038D0102847D02028B9
:1068C00043D0302831D144E072498A420BD1D0F80C
:1068D000880010F0C00029D0402838D0802834D05B
:1068E000C02822D135E06C498A420ED1D0F8880008
:1068F00010F440701AD0B0F5807F28D0B0F5007F3A
:1069000023D0B0F5407F10D123E09A420DD1D0F8CA
:10691000880010F4406009D0B0F5806F17D0B0F552
:10692000006F12D0B0F5406F13D010205B495C4E61
:1069300000274FF4004C9A423BD160B1022813D09B
:1069400004280BD0082872D10DE00220EEE70420C5
:10695000ECE70820EAE7FCF779FE01E0FCF79AFE95
:10696000010001D17CE06146606A36F8102066685B
:10697000B1FBF2F006EB4603834270D8B0EB063F62
:106980006DD8002308461946F9F742FC090241EA8E
:106990001061020270081018794132460023F9F79D
:1069A00037FC404AA0F54071914258D82168C86030
:1069B00056E0E2694FF6EF7862452CD109284ED2B5
:1069C000DFE800F00508114D0D4D4D4D1000FCF7AE
:1069D0003DFE01E0FCF74CFE010004D140E0FCF775
:1069E00059FEF9E76146606A36F81000B1FBF0F035
:1069F0004100606801EB5001B1FBF0F0A0F1100123
:106A000041452CD84FF6F0710140C0F342000143DC
:106A10002068C16024E0092821D2DFE800F00509E0
:106A200012200E2020201100FCF710FE02E016E0DC
:106A3000FCF71EFE010004D112E0FCF72BFEF9E783
:106A40006146606A36F81000B1FBF0F1606801EB56
:106A50005001B1FBF0F0A0F1100141450AD9012528
:106A60000120A4F86A0024F8680F2846A760E760B0
:106A7000BDE8F08180B299E700800040F369FFCF64
:106A8000FFF4FF11003801400010024000440040B4
:106A900000480040004C0040005000400024F4003A
:106AA000FCBE0008FFFC0F0070B58165A0F85C20FB
:106AB000A0F85E200024046781684FF48055FF230E
:106AC000A94204D10169F9B940F2FF1122E07F2601
:106AD000C1B1B1F1805F1AD0A0F86040C0F88C401D
:106AE0002221C0F888100168083151E8003F43F0C6
:106AF000010341E80036002EF5D1416EB1F1005F8F
:106B00000ED032E0016941B9A0F86030E6E70169D2
:106B100019B13F21A0F86010E0E7A0F86060DDE760
:106B2000B0F86810914220D88168A94201D101696A
:106B3000C9B11F49016780F88040016941B101680E
:106B400051E8002F42F4807241E80023002BF6D177
:106B50000168083151E8002F42F0805241E80023DB
:106B6000002BF5D121E01349E4E78168A94201D166
:106B7000016979B11049016780F88040016959B114
:106B8000016851E8002F42F4907241E80023002B85
:106B9000F6D10AE00949EEE7016851E8002F42F01A
:106BA000200241E80023002BF6D1002070BD000038
:106BB000A16600088D640008FD650008E96300080F
:106BC0002DE9F0471F4690460E4604464FF0000A56
:106BD0004FF02009089D49E0681C47D0FCF7BAF93E
:106BE000C01BA8422AD84DB32068016849073DD58B
:106BF000C069C043000539D421684FF400600862C1
:106C0000206850E8001F21F4D07140E80012002AEB
:106C1000F6D12068083050E8001F21F0010140E85B
:106C20000012002AF5D144F8849FC4F80490C4F8F7
:106C3000089004F804AC0320BDE8F087206850E811
:106C4000001F21F4D07140E80012002AF6D120681C
:106C5000083050E8001F21F0010140E80012002A2E
:106C6000F5D144F8849FC4F80490E2E72068C06935
:106C700036EA000004D000204045ADD00020DBE71C
:106C80000120F9E70148FDF713BF0000C00F002005
:106C9000FEE70000014602484FF40072F9F7E9BA36
:106CA0009400002010B5084C00209FED080AE06019
:106CB00084ED8B0A20469FED060AFEF731FEFAF7B7
:106CC00057FC84ED8B0A10BD780000200000000006
:106CD0006F1283390FB4054B10B503A9044A02980B
:106CE00001F08EFC10BC5DF814FB0000D1A100087F
:106CF0006800002003B401984100009850EAC120C8
:106D000018BF04204A0D18BF40F0010040F2FF7286
:106D1000B2EB515F08BF40F00200012808BF052018
:106D200002B070474100080218BF04200A0E18BFC5
:106D300040F001004FF07F4232EA010108BF40F00D
:106D40000200012808BF0520704720F00040C0F174
:106D5000FF40C00F70470907090E002804DB00F14F
:106D6000E02080F80014704700F00F0000F1E020F0
:106D700080F8141D70470000004870477400002020
:106D800030B583B0044601F055FB9FED090B054675
:106D90008DED000B002221466846F9F742FC28469B
:106DA00001F05EFB9DED000B03B030BD0000000064
:106DB0000000000000000000B4EEE00AF1EE10FA5E
:106DC00001DCB0EE600A7047B4EEE00AF1EE10FAB2
:106DD00001D3B0EE600A704710B52DED040B86B0FC
:106DE0009DED060B10EE100A10EE901A8DED000BC3
:106DF000002818BF0120084320F00040C0F17F6048
:106E000000F1E040C00F21D19DED080B10EE101AEB
:106E100010EE900A8DED000B002918BF01210843E8
:106E200020F00040C0F17F6000F1E040C00F0DD1C4
:106E300029490798B1EB400F04BF0698002842D0BB
:106E40000998400004BF089800283CD09DED080B2D
:106E500053EC102B9DED060B51EC100BF9F7BAFD1E
:106E6000CDE902019DED020B40F2FF7110EE900A98
:106E70008DED000B31EA105021D00798039900F0F6
:106E8000004001F00041884219D09DED080B8DEDC6
:106E9000040B9DED020B8DED000B10EE900A059991
:106EA00061F31E0005909DED041B9DED020B51EC5E
:106EB000110B53EC102BF9F7B1FACDE902019DED5E
:106EC000020B0AB010BD012001F0CAFA0AB0BDE8F9
:106ED000104001F0C1B900000000E0FF0000000018
:106EE00070B5D94B00242DED020B2DED108BDDE993
:106EF0001010984205DA20F000429A4201D809D1D8
:106F000041B19DED100BBDEC108B02B0BDE870409F
:106F100001F08EB9B0F5801F26DA11430BD000289E
:106F200013DA012001F09CFABDEC108B02B0BDE831
:106F3000704001F091B9022001F092FA01F060F97D
:106F400051EC100B81F000419EE06FF035049FED95
:106F5000C00B53EC102B9DED100B51EC100BF9F7FF
:106F60005FFCCDE91001084604EB2051C0F3130487
:106F7000B948A1F2FF31204400F4801080F07F6214
:106F800082F04052224301EB20559FEDB50B119248
:106F900053EC102B9DED100B51EC100BF9F73BFA55
:106FA00041EC180BA01CC0F313009FEDAFDB9FED6D
:106FB000B0EBB14E7E4403286CD296ED000B51EC41
:106FC000180B53EC102BF9F771FD1DD1002D01BFEB
:106FD00096ED000BBDEC108B02B070BD2846F9F7A2
:106FE0003CFD41EC180B53EC1D2BF9F719FC41EC5F
:106FF000190B53EC1E2B51EC180BF9F711FC53EC49
:10700000192BF9F767F93FE09FED9D0B51EC180B39
:1070100053EC102BF9F704FC9FED9B1B53EC112B49
:10702000F9F7FCF941EC190B53EC182B51EC180B48
:10703000F9F7F6FB53EC192BF9F7F2FB41EC190BBE
:10704000002D04BF53EC192B51EC180B1AD0284615
:10705000F9F703FD41EC1A0B53EC1D2BF9F7E0FB9C
:1070600053EC192BF9F7DAF953EC182BF9F7D3F99C
:1070700041EC180B53EC1E2B51EC1A0BF9F7D0FB1B
:1070800053EC182BF9F7C7F9BDEC108B02B041ECAB
:10709000100B70BD9FED7E0B51EC180B53EC102BB9
:1070A000F9F718F941EC100B51EC180B53EC102BBD
:1070B000F9F7B7F941EC190B2846F9F7CEFC41EC8A
:1070C0001B0B53EC192B51EC190BF9F7A9FB41ECF5
:1070D0001A0B714853EC1A2B261851EC1A0BF9F7BE
:1070E0009FFB41EC1F0B6D48C4F1510404F5D724FC
:1070F000B0EE4F0AF0EE6F0A0321784401F001F878
:1071000053EC1F2B51EC100BF9F78AFB41EC1C0BD5
:107110006348B0EE4F0AF0EE6F0A0421784400F0A5
:10712000F0FF53EC1A2B51EC100BF9F779FB3443B9
:1071300053EC1C2BF9F7CEF841EC1C0B002C4CDD6A
:107140009FED510B51EC180B53EC102BF9F768FB2A
:1071500053EC182BF9F764FB41EC1A0B55B353ECC5
:107160001D2B51EC1B0BF9F75BFB41EC1D0B53EC9A
:107170001C2B51EC1A0BF9F7ADF853EC192BF9F75E
:107180004FFB53EC1D2BF9F7A5F853EC1A2BF9F72D
:1071900045F953EC182BF9F73EF941EC180B53EC79
:1071A0001E2B51EC1B0BF9F73BFB53EC182BF9F79B
:1071B00032F969E753EC1C2B51EC1A0BF9F78AF8FA
:1071C00053EC192BF9F72CFB53EC1A2BF9F726F992
:1071D00053EC182BF9F722F956E735B353EC1D2B76
:1071E00051EC1B0BF9F71CFB41EC1A0B53EC1C2B5D
:1071F00051EC180BF9F70FF953EC192BF9F710FBB9
:1072000053EC1A2BF9F707F953EC182BF9F703F99C
:1072100041EC180B53EC1E2B51EC1B0BF9F700FB48
:1072200053EC182BF9F7F7F82EE753EC1C2B51EC25
:10723000180BF9F7F0F853EC192BF9F7F1FA53ECB6
:10724000182BF9F7EBF81FE70000F07F00000000B3
:107250000000000000005043645F090000000000CF
:10726000000000000000F03F763C7935EF39EA3D40
:107270000000E0FE422EE63F485000000000000003
:10728000555555555555D53F000000000000E03FCD
:10729000000000000000004086EBF9FF424E0000B5
:1072A000384E0000000000002DE9F04D2DED040BDC
:1072B0002DED0E8B96B0DDE92550279CDDF890A0D2
:1072C00025F0004624F00048BAF1000F14BF012158
:1072D000002101EB4502FC4953184A1093422AD37E
:1072E000002814BF0123002303EB44030B44F74998
:1072F0008B4220D358EA00019FEDF59B76D0DFF852
:10730000D8B35D4503D1BAF1000F05D188E0BAF1D9
:10731000000F08BF002100D0012101EB450111F54C
:10732000001F08D8002814BF0121002101EB4401EF
:1073300011F5001F0BD99DED261B9DED240B16B0FA
:10734000BDEC0E8B04B0BDE8F04D00F07BBF002714
:10735000002DBCBFE149884521DAE1498845A8BF35
:1073600002271CDAC3451ADCDE4901EB2851142937
:1073700008DDC1F1340220FA02F101FA02F2824280
:107380000DD108E058B9C1F1140228FA02F101FA4E
:1073900002F2424503D101F00101C1F1020756EAB0
:1073A0000A0124D1002C22DA002D18BF022F01D0AF
:1073B000012F0AD0022001F053F816B0BDEC0E8B5D
:1073C00004B0BDE8F04D00F01BBF022001F048F80A
:1073D00000F016FF51EC100B81F0004141EC100B56
:1073E00016B0BDEC0E8B04B0BDE8F08D18E09FED3B
:1073F000BEAB9FEDBF8B002871D1B848804522D12C
:1074000005F1804010F5801008BFBAF1000F07D0D9
:10741000B3450ADC002CA8BF9DED260BE0DA0DE099
:10742000B0EE490AF0EE690ADAE7002C06DA9DEDC3
:10743000260B51EC100B81F000416FE0AE48784410
:1074400090ED000BCCE7D8454DD1002C48DA2EB199
:1074500086423AD1BAF1000F42D126E0BAF1000FCC
:1074600013D0022000F0FCFF00F006FF8DED020BB0
:107470009DED240B8DED000B10EE900A039961F346
:107480001E0003909DED020BAAE78DED02AB9DED72
:10749000240B1AEE901A10EE900A8DED000B61F39A
:1074A0001E0003909DED020B9AE78DED028B9DED82
:1074B000240B18EE901A10EE900A8DED000B61F37C
:1074C0001E0003909DED020B8AE709DA9DED240B67
:1074D00051EC190B53EC102BF8F7A3FF1EE020E042
:1074E0009DED240B7CE786421BDAB4F1804F0DD072
:1074F000A4F10050B0F1FF5013D1002D11DB9DED30
:10750000240B51EC100B03F00BFE07E09DED240B58
:1075100053EC102B51EC100B00F0C2BC41EC100BE3
:107520005EE79DED240B51EC100B02F007FEBAF163
:10753000000FCDE90E0142D19FED710B46B3A6F1CC
:10754000E040B0F17F600CD05E4538D1002D00DA0C
:10755000A7B3022F0CBF01204FF0FF30F9F77DFADF
:10756000DCE7002D01DD002C0DDA002D01DD002C03
:107570001FDB002D16DA002C14DB012F08BF9FED56
:10758000620B3FF42DAFB0EE4A0AF0EE6A0A27E72D
:10759000022F18BF002D0CD0012F0AD1002DFFF6AD
:1075A0001FAF06E0002DB8BF002C08DA012F3FF412
:1075B00017AFB0EE480AF0EE680A11E71BE00120B1
:1075C00000EBE57050EA070115D0791EB0EE498A4C
:1075D000F0EE698A084308BF9FED4D8B4E480025A9
:1075E000804570DD4D494E48884514DDB0420DDBC5
:1075F000002C19DB2FE0012000F032FF16B0BDECAB
:107600000E8B04B0BDE8F04D00F026BEB34502DCA1
:10761000002C09DC1FE0864202DA002C1BDA03E0B2
:107620005E452BDD002C16DD022000F019FF00F076
:1076300023FE8DED020B53EC1A2B51EC180BF9F7CE
:10764000EFF8CDE900010399019861F31E00039062
:107650009DED020BC4E6022000F002FF00F01CFECC
:1076600010EE901A18EE900A8DED020B8DED008B46
:1076700061F31E0003909DED020BB1E69DED0E0B34
:1076800053EC192B51EC100BF8F7C5FE9FED260BB0
:10769000CDE9080153EC102B9DED080B51EC100BBC
:1076A000F9F7BEF89FED221B53EC112BF8F7B6FE4D
:1076B0009DED081B53EC112BF9F7B2F89FED1E1B43
:1076C00053EC112B3CE08CE0FFFF1F00FFFF0F008D
:1076D000000000000000F03F0000F03F0000F07FDD
:1076E0000000404301FCFFFF000000000000F07FAD
:1076F0000000000000000000BE4B00000000000081
:107700000000000000000080000000000000F0FF0A
:10771000000000000000F0BF0000E0410000F04366
:10772000FFFFEF3F00000000000000000000D03F1E
:10773000555555555555D53F000000000000E03F18
:10774000F8F76CFE9DED080B41EC1A0B53EC102B77
:1077500051EC100BF9F764F853EC1A2BF9F760F8B9
:1077600041EC1A0B9FEDFE0B53EC102B9DED080B1B
:1077700051EC100BF9F754F841EC1B0B9FEDFA0B91
:1077800051EC1A0B53EC102BF9F74AF841EC1A0B99
:107790009FEDF70B53EC102B9DED080B51EC100BEC
:1077A000F9F73EF853EC1A2BF8F735FE41EC1A0BBB
:1077B00051EC1B0B53EC1A2BF8F78CFD0690CDE91E
:1077C00006519DED060B53EC1B2B51EC100BF8F7FB
:1077D00022FE53EC1A2BF8F721FE41EC100B00F0BF
:1077E000A1B90020B6F5801F0EDA9FEDE30B53EC34
:1077F000102B9DED0E0B51EC100BF9F711F8CDE9A4
:107800000E016FF034000E4600EB2650A0F2FF3759
:10781000C6F31300DA4940F07F6646F040568842CE
:10782000D8BF002408DDD7498142C8BF012403DC4A
:107830000024A6F580167F1CD348784400EBC400D2
:107840000F9690ED00CB9DED0E0B53EC1C2B51ECE5
:10785000100BF8F7E0FD9DED0E0B41EC1B0B53EC0C
:107860001C2B51EC100BF8F735FD41EC100B51ECD3
:10787000190B53EC102BF8F7D4FD41EC1D0B51EC18
:107880001B0B53EC1D2BF8F7CBFF41EC1A0BBF4839
:107890008DED10AB7844109590ED000B4FF000503B
:1078A00040EA660000EB84408DED080B00F50020F7
:1078B00009909DED080B53EC1C2B51EC100BF8F7C5
:1078C000AAFD9DED0E1B53EC112BF8F7A7FD41EC23
:1078D000100B53EC102B9DED100B51EC100BF8F727
:1078E0009FFF9DED080B41EC1C0B53EC102B9DED05
:1078F000100B51EC100BF8F793FF53EC1B2BF8F720
:107900008DFD53EC1C2BF8F786FD53EC1D2BF8F77F
:1079100087FF41EC1C0B53EC1A2B51EC1A0BF8F7B8
:107920007FFF41EC1B0B9A480621B0EE4B0AF0EEAC
:107930006B0A784400F0E5FBB0EE401AF0EE601AF6
:10794000B0EE41DAF0EE61DA53EC1B2B51EC1B0B7D
:10795000F8F766FF53EC1D2BF8F762FF9DED100B57
:1079600041EC1B0B53EC1A2B51EC100BF8F7B2FC4B
:1079700053EC1C2BF8F754FF53EC1B2BF8F7AAFC25
:107980009DED100B41EC1B0B53EC102B51EC100B2D
:10799000F8F746FF41EC1D0B9FED7FEB53EC1E2BE0
:1079A000F8F798FC53EC1B2BF8F794FC0890CDE902
:1079B00008519DED080B53EC1E2B51EC100BF8F702
:1079C0002AFD53EC1D2BF8F726FD53EC1B2BF8F783
:1079D00025FD9DED080B41EC1D0B53EC102B9DED8F
:1079E000100B51EC100BF8F71BFF41EC1B0B53EC89
:1079F0001A2B51EC1D0BF8F713FF9DED080B41EC12
:107A00001A0B53EC102B51EC1C0BF8F709FF53EC3D
:107A10001A2BF8F75FFC41EC1A0B51EC1B0B53ECE3
:107A20001A2BF8F757FC0C90CDE90C519DED0C0B7F
:107A300053EC1B2B51EC100BF8F7EDFC53EC1A2B0D
:107A4000F8F7ECFC41EC1B0B9FED550B53EC102BA6
:107A50009DED0C0B51EC100BF8F7E2FE41EC1A0B0C
:107A60009FED510B51EC1B0B53EC102BF8F7D8FE8C
:107A700041EC1B0B9FED4E0B53EC102B9DED0C0BB3
:107A800051EC100BF8F7CCFE53EC1B2BF8F722FC53
:107A900041EC100B4848784400EBC40090ED001B0B
:107AA00051EC100B53EC112BF8F714FC41EC1B0BB1
:107AB0003846F8F7D2FFCDE9080153EC1B2B51EC07
:107AC0001A0BF8F707FC41EC100B3C48784400EB2C
:107AD000C40090ED00CB51EC100B53EC1C2BF8F7CD
:107AE000F9FB9DED081B53EC112BF8F7F3FB069007
:107AF000CDE906519DED080B53EC102B9DED060BC7
:107B000051EC100BF8F787FC53EC1C2BF8F783FCB7
:107B100053EC1A2BF8F77FFC53EC1B2BF8F77EFC89
:107B200041EC100B9DED261B53EC102B8DED001B33
:107B300000959DED260B51EC100BF8F771FE9DEDB5
:107B4000000B41EC1A0B53EC102B9DED260B51EC66
:107B5000100BF8F760FC9DED061B53EC112B2FE08A
:107B6000000000604715F73FFE822B654715F73F81
:107B700044DF5DF80BAE543E0000000000004043BF
:107B80008E9803007AB60B003A4700006847000061
:107B900072460000000000000000000000000840E5
:107BA000000000E009C7EE3FFD033ADC09C7EE3FE5
:107BB000F5015B14E02F3EBEFE440000B844000017
:107BC000F8F72EFE53EC1A2BF8F784FB9DED060B0D
:107BD00041EC1A0B53EC102B9DED000B51EC100BEC
:107BE000F8F71EFECDE90C019DED0C0B51EC1A0BC4
:107BF00053EC102BF8F76EFBCDE902010C46AA49B5
:107C00008C422FDB611A084318D19DED0C0B53EC0D
:107C1000102B9DED020B51EC100BF8F7FCFB41EC27
:107C20001B0B9FEDA30B51EC1A0B53EC102BF8F729
:107C300051FB53EC1B2BF8F751FF2DD2022000F023
:107C40000FFC00F019FB10EE901A18EE900A8DED63
:107C5000020B8DED008B61F31E0003909DED020B76
:107C6000FFF7BEBB944A24F00041914214D39349DC
:107C7000214408437FF4EFAC9DED0C0B53EC102B2B
:107C80009DED020B51EC100BF8F7C5FB53EC1A2BD2
:107C9000F8F724FF7FF6DFAC24F000408849894ADA
:107CA000002601EB205182422BDA481C4FF4801150
:107CB00021FA00F02044844AC0F30A517A44A1F228
:107CC000FF3192ED000B814A8DED080BCA4020EA8E
:107CD0000202C0F3130040F48010C1F1140120FA35
:107CE00001F60992002CB8BF76429DED080B53ECCB
:107CF000102B9DED0C0B51EC100BF8F78CFBCDE924
:107D00000C019DED0C0B51EC1A0B53EC102BF8F7FA
:107D1000E1FA9FED6F0B0890CDE9085153EC102B61
:107D20009DED080B51EC100BF8F77AFD41EC1B0BA5
:107D30009FED690B53EC102B9DED080B51EC100BD4
:107D4000F8F76EFD9DED0C0B41EC1C0B53EC102B6A
:107D50009DED080B51EC100BF8F75DFB53EC1A2B63
:107D6000F8F75CFB9FED5E1B53EC112BF8F758FD09
:107D700053EC1C2BF8F7AEFA41EC1A0B51EC1B0B31
:107D800053EC1A2BF8F7A6FACDE902019DED020B90
:107D900053EC1B2B51EC100BF8F73DFB53EC1A2B5B
:107DA000F8F73CFB9DED020B41EC1A0B53EC102B4A
:107DB00051EC100BF8F734FDCDE908014A489DED70
:107DC000080B0521784400F09CF99DED081B51EC4F
:107DD000100B53EC112BF8F723FD9DED021B53EC18
:107DE000112BF8F71BFBCDE906019DED020B53ECBF
:107DF0001A2B51EC100BF8F713FD53EC1A2BF8F774
:107E000069FA9FED3B0B41EC1A0B53EC102B9DEDE7
:107E1000060B51EC100BF8F7FEFA9DED060B41EC4A
:107E20001B0B53EC102B9DED020B51EC100BF8F7D4
:107E3000F7FC53EC1B2BF8F7F4FA53EC1A2BF8F77A
:107E4000EAFA9DED021B53EC112BF8F7E4FA53EC20
:107E5000192BF8F7E3FACDE9020101EB0650011501
:107E60000029C8BF039015DC9DED020B324651EC92
:107E7000100BF8F747FDFEF73DFF042808BF00F0A0
:107E80000BFA32469DED020B51EC100BF8F73AFD60
:107E9000CDE902019DED020B51EC180B53EC102BB8
:107EA000F8F7BEFCFFF73ABB00009040000000006E
:107EB000FE822B654715973C00CC904000346F3F05
:107EC00001FCFFFF0000E03F40430000FFFF0F0008
:107ED00000000000432EE63F396CA80C615C20BE18
:107EE000EF39FAFE422EE63F10420000000000008B
:107EF000000000000000004000B510EE101A2DED4B
:107F0000028B81B0524A6846B2EB410F2ED94FF036
:107F1000E640B0EB410F94BF00204FF0FF300090DF
:107F20000098B0EE408A00286ADB10F0010F4BD0B9
:107F300068EE080A9FED471A9FED470A00EE810A96
:107F40009FED461A10F0020F00EE801AB7EE000AFD
:107F500000EE810A02BF01B0BDEC028B00BD00BF84
:107F600001B0B1EE400ABDEC028B00BD3C4B21F0EC
:107F70000042934241D911F0004FDFED3A0A20EE62
:107F8000201ADFED390A19BF31EE601A71EE200AAE
:107F900031EE201A71EE600ABDEEE01A11EE100A01
:107FA0009FED321A00F0030000EEC10A9FED301A77
:107FB000009000EEC10A9FED2F1A00EEC10A9FED5E
:107FC0002E1A00EEC10AABE728EE080A9FED2B1A25
:107FD000DFED2B0A10F0020F40EE410A9FED291A47
:107FE00000EE201A61EE000AB0EE480A08EE200A00
:107FF000B6D101B0BDEC028B00BD00F071F98FE786
:1080000018EE100A4000B0F17F4F0DD218EE100AA2
:10801000FEF788FE042808BF00F05AF9B0EE480ABF
:1080200001B0BDEC028B00BD09D1012000F018FAAF
:1080300001B0BDEC028B5DF804EB00F041B901B07A
:10804000B0EE480ABDEC028B5DF804EB00F034B9E9
:10805000B61F927EB93AB2BACA9F2A3DDDFFFFBE73
:10806000490E494683F9223F0000004B0000C93FFA
:1080700000A0FD390020A2331A61342C336D4C3935
:10808000DA82083CA0AA2ABE00B52DED048BB0EE22
:10809000409AF0EE609A83B051EC190BF8F749FC66
:1080A00041EC180B18EE100A18EE901A8DED008BAB
:1080B000002818BF0120084320F00040C0F17F6075
:1080C00000F1E040C00F14D019EE101A19EE900A1A
:1080D0008DED009B002918BF0121084320F00040CE
:1080E000C0F17F6000F1E040C00F04BF012000F04C
:1080F000B7F9B0EE480A03B0F0EE680ABDEC048BA5
:1081000000BD70B504462DED028B4D1E00EBC50081
:10811000B0EE408AF0EE608A90ED000B35F006007C
:1081200017D053EC182B51EC100BF8F779FB41ECFE
:10813000100B6D1E04EBC50090ED001B51EC100BF5
:1081400053EC112BF8F7C6F841EC100B35F0060094
:10815000E7D1022D36D0042D1CD0062D1CBFBDEC5E
:10816000028B70BD53EC182B51EC100BF8F758FB39
:1081700094ED0A1B53EC112BF8F7ACF853EC182BC9
:10818000F8F74EFB94ED081B53EC112BF8F7A2F80F
:1081900041EC100B53EC182B51EC100BF8F740FB93
:1081A00094ED061B53EC112BF8F794F853EC182BB5
:1081B000F8F736FB94ED040B53EC102BF8F78AF824
:1081C00041EC100B53EC182B51EC100BF8F728FB7B
:1081D00094ED021B53EC112BF8F77CF853EC182BA1
:1081E000F8F71EFB94ED001B53EC112BF8F772F817
:1081F000BDEC028B41EC100B70BD000000000000D4
:108200009FED070B10B553EC102B9FED070B51ECB6
:10821000100BF8F706F941EC100B10BD0000000040
:108220000000000000000000000000000000F03F1F
:1082300010B553EC102B51EC100BF8F74BF841EC48
:10824000100B10BD10B553EC112B51EC100BF8F7BF
:1082500041F841EC100B10BD9FED050B10B553EC30
:10826000102B51EC100BF8F7DCF841EC100B10BDA3
:1082700000000000000000009FED050B10B553EC5E
:10828000102B51EC100BF8F7CBFA41EC100B10BD92
:1082900000000000000000709FED050B10B553ECCE
:1082A000102B51EC100BF8F7BBFA41EC100B10BD82
:1082B000000000000000001030EE000A70470000CF
:1082C000DFED020A80EEA00A704700000000000007
:1082D0009FED020A20EE000A704700000000001027
:1082E0002DE9F0014FF07F42B2EB410F9FBF4FF0FD
:1082F000FF310160BDE8F00170474FF0004242EAF3
:108300000123C1F3C752783A551112F01F0C434CA8
:10831000CCF120067C44C1F3C752A2F178024FEAA7
:10832000621204EB820254F8254008BFD2E90156DC
:1083300012D0556804FA0CF425FA06F73C43976806
:1083400005FA0CF527FA06F8D26807FA0CFCF24099
:1083500045EA08054CEA0206A4FB034CA5FB0352C0
:10836000A6FB03631D449D4234BF0126002613195A
:10837000334416B1934202D903E0934201D2012261
:1083800000E00022624402F1200C9206DC0C42EA7A
:10839000443200EE102A5B03DFED210AF8EEC01A2A
:1083A00000EE103A4FEA9C1C11F0004FB8EE400A64
:1083B000C0F800C020EE201A00EE105ADFED190AB6
:1083C000B8EE400A20EE200A71EE810A70EE800AB3
:1083D00010EE902A02F500626FF30B0200EE902A75
:1083E00070EEE11A31EEC11ADFED101A30EE411ACB
:1083F0009FED0D0A20EE800A01EE210A9FED0C1A76
:1084000000EE810A04BFBDE8F0017047CCF1805155
:108410000160BDE8F001B1EE400A7047F03C000099
:10842000000000360000802C22AAFD29DB0FC92F96
:108430000000C92F01480068704700007400002048
:1084400002E008C8121F08C1002AFAD1704770471D
:10845000002001E001C1121F002AFBD1704700007B
:108460000149086070470000740000202DE9FF5F9B
:1084700082B00021DDE90430020DDDF840B0034395
:1084800018D044F61050A2F2FF324243151411984E
:1084900001281FD0A5EB0B00401C5FEA000A4FF03B
:1084A00000064E4FDFF83891B046504615D5CAF158
:1084B000000413E0119801244AA3012801D16FEAB6
:1084C0000B010298119AC0E90031C0E9024206B0DE
:1084D000BDE8F09FCBF10000DFE704460021404AF1
:1084E000491842EB0450CDE9001012E0E00707D034
:1084F00032463B4640464946F8F792F9804689465F
:1085000032463B4610461946F8F78AF906460F46AA
:108510006410002CEAD1DDE90401DDE90023BAF1A1
:10852000000F06DAF8F77CF942464B46F8F778F97F
:1085300005E0F7F776FF42464B46F7F772FF044631
:108540000E460022284BF8F7C9FA03D84FF0FF3047
:10855000014607E00022254B20463146F7F7BAFED8
:10856000F8F78CFA102409E0002C0ADB0A22002319
:10857000F7F74EFE039B30321A55641E50EA010293
:10858000F2D1641C039AC4F111031444119A012A14
:1085900003D0012208430DD10AE0084304D0002093
:1085A0004FF0110B119072E7A3EB0B056D1E0DE060
:1085B0005B4504DD4FF0000205F1010504E003DA3C
:1085C0004FF00002A5F10105002AECD002981199A4
:1085D000C0E90231C0E9004579E70000000014401D
:1085E0000000F03F300000000000F0430000E03FDA
:1085F00030380A2801D2012070470020704700005F
:108600002DE9FF4F95B09B468946064600250FE2AF
:10861000252877D100242746F84A0121059400E057
:10862000044316F8013F203B01FA03F01042F7D152
:1086300030782A2811D06FF02F033078A0F1300263
:10864000092A16D8059A44F0020402EB820203EBD1
:1086500042021044761C0590EFE759F8042B05926E
:10866000002A03DA504244F40054059044F0020416
:10867000761C30782E2816D116F8010F44F0040429
:108680002A280DD06FF02F023078A0F13003092B8B
:1086900009D807EB870302EB4303C718761CF3E7FF
:1086A00059F8047B761C30786C280FD006DC4C28F7
:1086B00017D068280DD06A2814D104E0742810D08F
:1086C0007A280FD10DE044F400140AE044F4801439
:1086D00001E044F440147278824202D104F580141F
:1086E000761C761C307866280BD013DC582877D09F
:1086F00009DC002875D04528F6D04628F4D0472854
:108700001AD19DE118E0632835D0642879D0652816
:1087100012D195E1702873D008DC6728F1D0692860
:108720006FD06E280DD06F2806D1B5E073282CD0FD
:10873000752875D0782874D05A46179990476D1CC3
:1087400075E1C4F30250022809D003280DD0D9F8EE
:10875000001004280DD00D6009F1040967E1D9F873
:108760000010EA17C1E90052F6E7D9F800100D80B1
:10877000F2E70D70F0E719F8041B8DF800100020E7
:108780008DF80100EA46012003E059F804AB4FF0F0
:10879000FF3061074FF0000102D40DE008F1010144
:1087A0008846B9420FDA8045F8DB1AF8081000292C
:1087B000F4D108E008F1010188468142FADB1AF899
:1087C00008100029F6D105985B46A0EB0807214662
:1087D0003846179A00F094FA284400EB080507E0A1
:1087E0004DE029E10DE01AF8010B5A461799904720
:1087F000B8F10108F7D25B4621463846179A13E1D3
:1088000042E00A220092C4F302524FF0000A022A08
:1088100008D059F804CB032A4FEAEC710AD00DE0D6
:1088200029E02AE009F1070121F00702F2E802C17C
:10883000914609E00FFA8CFC4FEAEC71042A03D14F
:108840004FFA8CFC4FEAEC71002907DA0A46002146
:10885000DCF1000C61EB02012D2202E0220504D5BF
:108860002B228DF80420012203E0E20701D0202210
:10887000F7E7904659E00A2102E010220DE01021AE
:108880004FF0000A00910BE010224FF0000A44F074
:1088900004040827009203E008224FF0000A009227
:1088A000C4F30252022A05D059F804CB0021032A4E
:1088B00008D009E009F1070121F00702F2E802C13E
:1088C000914605E01FFA8CFC042A01D10CF0FF0C44
:1088D0004FF00008220728D5702806D0009B83F0AF
:1088E000100353EA0A0305D00EE040228DF804205D
:1088F000012208E05CEA010206D030228DF8042053
:108900008DF8050002229046009B83F0080353EA8D
:108910000A030AD15CEA010201D1620705D53022BF
:108920008DF804204FF001087F1E582804D034A091
:1089300003900EA802900DE036A0F9E7534660467A
:10894000009AF7F765FC84460398825C0298401E03
:10895000029002705CEA0100F0D1029806A9081AA0
:1089600000F1200A600702D524F4803400E00127DA
:10897000574502DDA7EB0A0000E0002000EB0A01EA
:10898000009005984144401A0590E00306D45B46E8
:108990002146179A059800F0B3F90544002706E030
:1089A00001A85A46C05D179990476D1C7F1C47452A
:1089B000F6DBE0030CD55B462146179A059800F0DC
:1089C0009FF9054404E030205A46179990476D1CE2
:1089D0000099481E00900029F5DC08E002980299F1
:1089E0005A460078491C0291179990476D1CBAF1BC
:1089F0000001AAF1010AF1DC65E10000092801008B
:108A00003031323334353637383961626364656604
:108A100000000000303132333435363738394142C6
:108A2000434445460000000000F058F90544761C18
:108A3000307800287FF4ECAD19B02846BDE8F08FFF
:108A4000620700D4062709F1070222F0070CFCE8B0
:108A50000223E14603F000485FEA080C02D00FF25F
:108A6000702C0DE05FEA045C02D50FF2682C07E081
:108A70005FEAC47C02D00FF2602C01E0AFF2700C10
:108A80004FF0FF3823F00043CDF850C065280CD0DC
:108A900006DC452809D046281DD047283DD13DE0B9
:108AA000662818D067287ED138E00021112F01DB1D
:108AB000112000E0781CCDE9000106A90EA8FFF7FF
:108AC000D5FCDDE90F010E9A03910021009207F118
:108AD000010A04914DE04FF000400097CDE90110EC
:108AE00006A90EA8FFF7C2FCDDE90F0203920E9B58
:108AF00011990022DDF80CA00093049211B9791CA1
:108B000000EB010AB7EB0A0004D4C0F1FF3007F113
:108B1000010A0490AAEB0700019044E0012F00DA5B
:108B200001270021112F01DD112000E03846CDE999
:108B3000000106A90EA8FFF799FCDDE90F010E9AC6
:108B40000391002104910092BA4621070CD40399A5
:108B5000514500DA8A46BAF1010F05DD009AAAF103
:108B60000101515C302908D0B84202DA10F1040F3B
:108B700006DA0121CDE9011015E0AAF10101E9E7CA
:108B8000002805DC049901440491AAEB000102E0ED
:108B9000411C514500DD8A460499401A401C019051
:108BA0004FF000400290200704D40198504501DBAB
:108BB000CDF8048000208DF84F0002980DF14F078A
:108BC000B0F1004F25D02B200E9002984FF00208F4
:108BD00000280CDA404202902D200E9007E00A2176
:108BE0000298F7F7BCFC3031029007F8011DB8F18C
:108BF0000001A8F10108F2DC02980028EFD1791EEB
:108C00000E980870307800F0200040F0450007F81A
:108C1000020D12A8C01B00F107081498007800B1DB
:108C2000012000EB0A01019801EBE0710598414435
:108C3000401A401E0590E00306D45B462146179A71
:108C4000059800F05DF805441498007818B15A466C
:108C5000179990476D1CE00324D55B462146179A6F
:108C6000059800F04DF805441CE00498002807DB47
:108C7000DDE90301884203DD0098405C179901E0BB
:108C8000179930205A469047049805F10105401C79
:108C900004900198401E019004D12E205A46179945
:108CA00090476D1CBAF10001AAF1010ADDDC05E074
:108CB00017F8010B5A46179990476D1CB8F100013F
:108CC000A8F10108F4DC5B462146179A0598ABE64B
:108CD0002D0000002B000000200000002DE9F041D5
:108CE000044600251E461746880404D405E039468C
:108CF0002020B0476D1C641EF9D52846BDE8F081E0
:108D00002DE9F041044600251E469046C80301D5D2
:108D1000302700E02027880404D505E04146384686
:108D2000B0476D1C641EF9D52846BDE8F0810000EF
:108D300070B515462DED048B0C460646F0EE418AC3
:108D4000B0EE609AF0EE409AF8F7D0FBB0EE408AB1
:108D5000B0EE690AF8F7D2FB68EE090A9FED141A23
:108D600040EE680A60EE011A28EE011AC6ED000A0C
:108D7000F6EE000A48EE601A00EE601A21EE892A2B
:108D8000DFED0C1A68EE212A60EE211A40EE602A0F
:108D900048EE601A02EEE82A61EE891A41EE681A7E
:108DA00084ED002AC5ED001ABDEC048B70BD0000F7
:108DB000D7B35D3FD7B35DBF2DE9F34F2DED0C8BDE
:108DC000ADF50D7D0C46F7A0FDF784FF9FEDFE9AF3
:108DD0004FF46067384601F055FD8246384601F091
:108DE00051FD0646BAF1000F7ED0002E7CD04FF424
:108DF0000075284601F046FD8590002874D039465C
:108E00005046F7F74FFA39463046F7F74BFAA8467F
:108E100029468598F7F746FA384601F033FD0546AE
:108E2000384601F02FFD8346002D5DD0BBF1000FC9
:108E30005AD039462846F7F735FA39465846F7F7F3
:108E400031FA414603A8F7F72DFA8598FDF722FF7E
:108E5000384601F017FD8B90384601F013FD8A90DB
:108E60008B98002840D08A9800283DD039468B98AE
:108E7000F7F718FA39468A98F7F714FA9FEDD3CA2C
:108E8000B0EE4C8A9FEDD2DA8DED86CAF6EE00CABE
:108E9000CDED83CA86AA88A987A8B0EE4C1AF0EE59
:108EA0004D0AB0EE480AFFF743FF83AA84A989A8B8
:108EB000DDED861A9DED881ADDED870AB7EE000A12
:108EC00002F066F9DFF80C93DFF80C830027F7EE69
:108ED000008AD8F80000C16ADDED890A490800EE71
:108EE000101AB8EE400A00E03CE378EEE00A20EE0B
:108EF000200ABCEEC00A10EE101A4163D9F8000037
:108F00000028D8F80000C26A4FEA520200EE102A88
:108F1000B8EE400A15D0DDED840A78EEE00A20EEC6
:108F2000200ABCEEC00A10EE102A8263D8F80000B6
:108F3000C16ADDED830A490800EE101AB8EE400A56
:108F400014E0DDED830A78EEE00A20EE200ABCEEA4
:108F5000C00A10EE102A8263D8F80000C16ADDED65
:108F6000840A490800EE101AB8EE400A78EEE00ACA
:108F700020EE200ABCEEC00A10EE101AC163642075
:108F8000F9F780FA49F640407F1C8742A1DBDFED0C
:108F900093DA9998B0EE6D0AFCF7C2FCD4F8901001
:108FA0006068401A00EE100AF8EEC00A9FED8C0AC5
:108FB00060EE800AC4ED030AD4F88C102068401AD1
:108FC00001EE100A04F14401081FB8EEC11A21EEA7
:108FD000001AB1EE600A84ED041A70EE411AC4ED75
:108FE000051A94ED0A0A00F0DBFC606CF7F788FACA
:108FF00041EC100B9FED7BBBB0EE4B1AF0EE6B1A01
:10900000FEF752F9B0EE40AAF0EE60AA206CF7F736
:1090100077FA41EC100BB0EE4B1AF0EE6B1AFEF73C
:1090200043F953EC1A2B51EC100BF7F753F941ECC1
:10903000100BFFF729F851EC100BF7F774FA0AEE52
:10904000100A6AA0FDF746FE0024C146F1EE0C9A14
:10905000002738EE098A86AA88A987A8B0EE4C1A9C
:10906000F0EE4D0AB0EE480AFFF762FE83AA84A92B
:1090700089A8DDED861A9DED881ADDED870AB7EE29
:10908000000A02F085F8D9F80000C16ADDED890A0E
:10909000490800EE101A78EEE00AB8EE400A20EE19
:1090A000200ABCEEC00A10EE101A4163494800685D
:1090B0000028D9F80000C26A4FEA520200EE102AD6
:1090C000B8EE400A19D0DDED840A78EEE00A20EE11
:1090D000200ABCEEC00A10EE102A8263D9F8000004
:1090E000C16ADDED830A490800EE101A78EEE00A45
:1090F000B8EE400A20EE200A18E0DDED830A78EE93
:10910000E00A20EE200ABCEEC00A10EE102A8263AC
:10911000D9F80000C16A490800EE101AF8EE400ABA
:109120009DED840A38EEC00A20EE800ABCEEC00A2B
:1091300010EE101AC1636420F9F7A4F9B0EE6D0ABD
:109140009998FCF7EDFB7F1C282F82DBB0EE6D0AAF
:109150009998FCF7E5FBF8F711FA88EE29BAF0EEDA
:1091600040AA0AEB84003BEE6A0A80ED000AF8F799
:1091700015FA8B9941F8240000901AEE900AF7F73F
:10918000BFF9074688461BEE100AF7F7B9F941EC1C
:10919000100B00980097CDE9018053EC102B21466D
:1091A0003CE000005374617274696E672063616C07
:1091B0006962726174696F6E2070726F6365647545
:1091C00072650A0D000000007CD9A03A0000000082
:1091D000CDCCCC3D60040020DC0E002017B7D13789
:1091E000FFFFA4BC00000000000000402043757297
:1091F00072656E7420416E676C65203A20526F7400
:109200006F7220416E676C65203A2052617720456D
:109210006E636F646572200A0D0A0D00D4A0FDF71D
:1092200059FD641CB4F5607FFFF612AF0024DFF82F
:109230005C93DFF85C83002738EE498A86AA88A908
:1092400087A8B0EE4C1AF0EE4D0AB0EE480AFFF7D0
:109250006FFD83AA84A989A8DDED861A9DED881A81
:10926000DDED870AB7EE000A01F092FFD8F80000A2
:10927000C26ADDED890A520800EE102A78EEE00A93
:10928000B8EE400A20EE200ABCEEC00A10EE102A0A
:109290004263D9F800000028D8F80000C26A4FEAFB
:1092A000520200EE102AB8EE400A15D0DDED840A15
:1092B00078EEE00A20EE200ABCEEC00A10EE102A7A
:1092C0008263D8F80000C16ADDED830A490800EE28
:1092D000101AB8EE400A14E0DDED830A78EEE00AD9
:1092E00020EE200ABCEEC00A10EE102A8263D8F8E5
:1092F0000000C16ADDED840A490800EE101AB8EEDC
:10930000400A78EEE00A20EE200ABCEEC00A10EE19
:10931000101AC1636420F9F7B5F8B0EE6D0A999898
:10932000FCF7FEFA7F1C282F86DBB0EE6D0A9998B9
:10933000FCF7F6FAF8F722F988EE29BAF0EE40AA1F
:1093400006EB84003BEE6A0A80ED000AF8F726F986
:109350008A99814641F824001AEE900AF7F7D0F86E
:10936000074688461BEE100AF7F7CAF841EC100BC7
:109370008DE8800353EC102B21467DA0FDF7AAFC5D
:109380004FF46077641CBC42FFF651AFB0EE4C8ADC
:1093900000209FED800A0AEB8001D1ED000AA6EBC8
:1093A000800101F54061401C91ED7F1AB84230EE1A
:1093B000811AC1EE000A30EE888AECDB28EE290A19
:1093C00010EE100AF7F79CF841EC100B9FED721BA2
:1093D000FDF702FD51EC100BF7F7A5F808EE900A27
:1093E000B0EE680AFCF7A8FB6D48C0ED008A0020CB
:1093F0000AEB8001B84691ED000AA6EB800101F569
:109400004061D1ED7F0A05EB8001401C30EE200A5F
:10941000404520EE2C0A81ED000AE9DB00249FED97
:10942000618A00210BEB84070819403802D500F54A
:10943000607003E0404501DBA0F5607005EB800043
:1094400097ED000AD0ED000A491C802900EE880A39
:1094500087ED000AE8DB802C12DA05EB8400D7EDFB
:10946000000A90ED000A30EE600A20EE290AFEF7AD
:1094700043FD20EE0A0A03A800EB840080ED000AF9
:10948000D7ED000A9FED481A641C444580EE810A1E
:1094900030EE0CCAC5DB8B9801688A98D0F8FC0DB9
:1094A000084400EBD0704FEA600840A0FDF712FCC2
:1094B0004AA0FDF70FFC00279FED558A07EBE82433
:1094C0007F2C00DD803CF8F741F800EE100AC7EB76
:1094D000C7010BEB8100B8EEC00AD0ED000A8598F9
:1094E000224670EECC0A394620EE200AC0EE080A69
:1094F000BDEEE00A10EE103A40F8243045A0FDF72A
:10950000E9FB0120F8F7B4FF7F1C802FD6DB85989C
:10951000FDF7C0FB1D48802214308599F6F7A9FE9F
:1095200018EE900AF6F7ECFF41EC100B3EA053EC5E
:10953000102BFDF7CFFB01F069FD584600F056FEF9
:10954000284600F053FE504600F050FE304600F032
:109550004DFE859800F04AFE8B9800F047FE8A98F1
:1095600000F044FE0DF50D7DBDEC0C8BBDE8FC8FCD
:10957000256409252E346609202020252E3466090D
:109580002020202025640D0A000000006004002037
:10959000DC0E00200000E04400000060FB211940C8
:1095A000600300200000003C000060440A0D2045DC
:1095B0006E636F646572206E6F6E2D6C696E65618F
:1095C0007269747920636F6D70656E736174696F11
:1095D0006E207461626C650D0A0000002053616D9D
:1095E000706C65204E756D626572203A204C6F6F0D
:1095F0006B757020496E646578203A204C6F6F6BF4
:1096000075702056616C75650A0D0A0D000000002A
:10961000DB0FC94025640920202025640920202073
:109620002564200D0A0000000A0D456E636F646515
:109630007220456C656374726963616C204F666665
:109640007365742028726164292025660D0A000064
:109650007CB5164C2068A188ADF80410019900F083
:10966000FCF9134D012220212846F9F76DFC114920
:10967000114801F03DF90F490F48FFF79DFB00220B
:1096800020212846F9F760FCC820F8F7F1FE0BA06E
:10969000FDF720FB2068A188ADF80410019900F0C7
:1096A000CDF91549002008617CBD0000260000208E
:1096B0000004004860080020780000200A0D2043C4
:1096C000616C6962726174696F6E20636F6D706C3A
:1096D0006574652E2020507265737320276573634F
:1096E0002720746F2072657475726E20746F206D00
:1096F000656E750A0D0000000000002038B50C49A9
:1097000001244A684264496881640021C0E90E145A
:109710000464416300F134010648F8F762FF022255
:109720000023114603480094F8F789FF38BD000074
:1097300060040020B00D002000214FF400220162DF
:10974000C0E9062141620161C162816241617047E5
:1097500070B504462DED048BB0EE409AD0F8A4000D
:10976000854D401CC4F8A400DFED840A6168D4F87C
:1097700090002268091AD4F88C0000EE101A101A12
:1097800001EE100AB8EEC00A2B68B8EEC11A20EE3E
:10979000200A61EE200A84ED030A43B1B1EE400ACB
:1097A000C4ED040A30EE600A84ED050A07E0B1EE6C
:1097B000400AC4ED050A30EE600A84ED040A04F1A3
:1097C0000C0094ED0A0A04F14401D0EC030A343091
:1097D00000F0E6F894ED120ADFED690A60EE201A57
:1097E00094ED110A9FED671A674840EE011AC4ED27
:1097F000121AD4ED131A61EEA01AD4ED100A40EE3D
:10980000811AC4ED131A94ED251A71EE608AD4ED15
:10981000260A30EEC08A94ED210A30EE280A84ED43
:10982000210A94ED220A30EE080A84ED220A90ED16
:10983000020ADFED560A20EE200ADFED550A60EE3F
:10984000200A9FED541A04F18801081F81EE200AB6
:1098500000F046FD94ED1E0AD4ED210A04F15401F6
:10986000081F20EE200AD4ED1C0A00EEA80A84EDA1
:10987000140A94ED1F0AD4ED220A20EE200AD4ED3A
:109880001D0A00EE880A84ED150A94ED060A00F020
:1098900027FD04F16C02111F94ED151AD4ED140A82
:1098A00094ED0A0A081FFFF743FA04F16400021F4F
:1098B000D0EC030A111F94ED060A0C3801F068FC85
:1098C0003548364B2D68191F00680A1F002DC56AE0
:1098D000B7EE000A00EE905AF8EE600A12D094ED4E
:1098E000181A30EE411A60EE810AFCEEE00A10EE22
:1098F000905A1D60C36A94ED171A00EE903AF8EE84
:10990000600A11E094ED171A30EE411A60EE810AF8
:10991000FCEEE00A10EE905A1D60C36A94ED181A2E
:1099200000EE903AF8EE600A30EE411A60EE810ADD
:10993000FCEEE00A10EE903A0B60C06A94ED161A45
:1099400000EE900A30EE410AF8EE600A20EE800A3E
:10995000BCEEC00A10EE100A106084ED0A9AD4F82A
:10996000A40049F64041884202DD0020C4F8A4006A
:10997000BDEC048B70BD000060040020FFFFA4BCA0
:109980003333733FCDCC4C3D60030020C7BC8E3ACF
:109990009B551F3D00003442DC0E00203C2C014052
:1099A00070B50D462DED068B0446F0EE618AB0EEE3
:1099B000419AF0EE609AB0EE40AAF7F797FDB0EE4C
:1099C000408AB0EE4A0AF7F799FDDFED172AB6EEA6
:1099D000002ADFED161A60EE220A48EE420A20EE57
:1099E000891A60EE210A68EE211A08EE291A48EE5B
:1099F000420A40EE421A00EEA81ADFED0D0A21EEEF
:109A0000201A84ED001A20EE691A01EEC91A68EED8
:109A1000221A40EE421A01EEE81A21EE200A85EDE4
:109A2000000ABDEC068B70BDD7B35D3FD7B35DBFF9
:109A3000ABAA2A3F1C23062200F0B8B870B5044632
:109A40000D46022200F018F840F004032946204693
:109A5000BDE87040022200F0A9B870B504460D467A
:109A6000022200F009F820F0040329462046BDE850
:109A70007040022200F09AB807B54FF4004040EA67
:109A8000C22081B2684600F001F80EBDF8B5018031
:109A900005464FF09046002210213046F9F754FA5F
:109AA000642000900123AA1C29460748FAF7F0F821
:109AB000054B93F85D40022CFBD00122102130466B
:109AC000F9F742FA6888F8BD140E00202DE9FF412D
:109AD0000DF12808920298E8F01042EA432242EA87
:109AE000042242EA8512DDE90F1042EA461242EAF8
:109AF000071242EACC0242EA8101014388B240F4F3
:109B000040516846FFF7C2FFBDE8FF812DE9FF41E4
:109B10000DF12808520298E8F01042EA032242EAC6
:109B2000C41242EA4512DDE90F1042EA061242EA87
:109B3000C70242EA8C0242EA4101014388B240F482
:109B400080516846FFF7A2FFBDE8FF811FB51102F3
:109B5000069841EA0311014388B240F4C0516846B7
:109B6000FFF794FF1FBD1FB59202DDE9061042EA20
:109B7000032242EA0111014388B240F400516846D1
:109B8000FFF784FF1FBD1FB59202DDE9074006996C
:109B900042EA032242EA811141EA0411014388B2F8
:109BA00040F420516846FFF771FF1FBD1FB543EA1F
:109BB000C22081B26846FFF769FF1FBD1CB520496E
:109BC00008688988ADF804100199FFF737FF1DA0D8
:109BD000FDF780F81DA0FDF77DF80A20F8F752FC8C
:109BE0001EA0FDF777F80A20F8F74CFC20A0FDF73F
:109BF00071F80A20F8F746FC24A0FDF76BF80A205C
:109C0000F8F740FC25A0FDF765F80A20F8F73AFCC4
:109C100028A0FDF75FF80A20F8F734FC2CA0FDF728
:109C200059F80A20F8F72EFC2F490020086102B0ED
:109C30000246BDE8104010212C48F9F785B9000014
:109C4000260000200A0D0A0D0A0D000020436F6D4A
:109C50006D616E64733A0A0D00000000206D202DC6
:109C6000204D6F746F72204D6F64650A0D00000007
:109C70002063202D2043616C696272617465204508
:109C80006E636F6465720A0D000000002073202D62
:109C90002053657475700A0D000000002065202DAA
:109CA00020446973706C617920456E636F646572DE
:109CB0000A0D0000207A202D20536574205A657209
:109CC0006F20506F736974696F6E0A0D0000000099
:109CD00020657363202D204578697420746F204DB2
:109CE000656E750A0D0000000000002000040048A9
:109CF0007FB53BA0FCF7EEFF0A20F8F7C3FB40A1BD
:109D000043A0CDE9000143A343A246A147A0FCF72D
:109D1000E1FF0A20F8F7B6FB4C4CA068F6F7F0FB21
:109D2000CDE902014AA000904BA34CA251A152A040
:109D3000FCF7D0FF0A20F8F7A5FB574D57A058A312
:109D4000696858A2CDE9000158A159A0FCF7C2FFEB
:109D50000A20F8F797FBA96850A0CDE9000150A3AD
:109D60005BA25FA152A0FCF7B5FF0A20F8F78AFBBF
:109D7000E068F6F7C5FBCDE902015AA000905BA3AD
:109D80005BA260A13CA0FCF7A5FF0A20F8F77AFBD4
:109D9000A069F6F7B5FBCDE902015BA0009053A3E3
:109DA0005BA261A134A0FCF795FF0A20F8F76AFBDB
:109DB000E9685EA0CDE9000139A35EA265A166A0B5
:109DC000FCF788FF0A20F8F75DFB6A48FCF782FF82
:109DD0000A20F8F757FB6849002008617FBD0000A2
:109DE0000A0D0A0D20436F6E6669677572617469AA
:109DF0006F6E204F7074696F6E73200A0D0A0A002F
:109E000063757272656E742076616C756500000012
:109E10006D6178006D696E00706172616D65746569
:109E200072000000707265666978000020252D348C
:109E30007320252D33317320252D357320252D36A4
:109E40007320252D32730A0D0A0D000060030020D7
:109E50003230303000000000313030004375727213
:109E6000656E742042616E64776964746820284866
:109E70007A2900006200000020252D347320252D52
:109E800033317320252D357320252D367320252E53
:109E900031660A0D000000006004002031323700F6
:109EA0003000000043414E2049440000690000009A
:109EB00020252D347320252D33317320252D357326
:109EC00020252D367320252D35690A0D0000000050
:109ED00043414E204D617374657220494400000077
:109EE0006D00000034302E3000000000302E3000B5
:109EF00043757272656E74204C696D6974202841D7
:109F0000290000006C00000033332E3000000000F8
:109F100046572043757272656E74204C696D697482
:109F20002028412900000000660000003130303058
:109F30003030000043414E2054696D656F757420C8
:109F4000286379636C6573292830203D206E6F6E1D
:109F5000652900007400000020252D347320252D74
:109F600033317320252D357320252D36732025643C
:109F70000A0D0000B0C00008000000207CB51249A6
:109F800008688988ADF804100199FFF766FD0F4C49
:109F900000252046C4F8B05000F09AFF0120F8F7E1
:109FA00067FA9FED0B0A012284ED250A84ED260A4B
:109FB00010210848F8F7C8FF07480561BDE87C4054
:109FC00006A0FCF787BE00002600002060080020E5
:109FD0000000000000040048000000200A0D204599
:109FE0006E746572696E67204D6F746F72204D6F6D
:109FF0006465200A0D00000000B585B000200090C7
:10A00000022001907B2002900520039004A968465D
:10A01000F8F7CAFD02A0FCF75DFE049805B000BD8C
:10A020004C656176696E6720657261736520666C48
:10A030006173682E000000007CB50446806B2849DF
:10A04000884205DDD4F8D00040F00100C4F8D0000B
:10A050002449E06B8842D4F8D00003DD40F00200D0
:10A06000C4F8D000204D002830D020490868009066
:10A070008988ADF804100199FFF7E0FC94F8D0004E
:10A080001B4E800714D0E868642803D110213046A5
:10A09000F8F752FF94F8D000800702D515A0FCF71E
:10A0A00019FE94F8D000C00702D019A0FCF712FEE8
:10A0B00094F8D000400709D5E868C82803D12021CA
:10A0C0003046F8F739FF19A0FCF704FEE868B0F550
:10A0D0007A6F01DB0020E860401CE8607CBD000076
:10A0E0000000C8420000F0420000002026000020CE
:10A0F00000040048445256206F7665722D74656DD9
:10A10000706572617475726521210D0A000000008E
:10A110004D4F544F52206F7665722D74656D70658A
:10A1200072617475726521210D0A00006F76657287
:10A1300063757272656E7421210D0A0082B0CDE9DB
:10A14000000121F0004001909DED000B02B051ECA8
:10A15000100B7047012131EE601A814070EE600AE9
:10A16000491E00EE101AB8EEC00A20EE800AC0EEBA
:10A17000010ABDEEE00A10EE100A7047B4EEE00AE4
:10A18000F1EE10FA07DDB4EEC10AF1EE10FA01DCCF
:10A19000B0EE410A7047F4EEC10AF1EE10FAF7DDB5
:10A1A000B0EE600A7047B4EEE00AF1EE10FA07D2A2
:10A1B000B4EEC10AF1EE10FA01D3B0EE410A7047D5
:10A1C000F4EEC10AF1EE10FAF7D2B0EE600A704771
:10A1D00038B504468DF80000022301226946024882
:10A1E000FAF78AFE204638BDC00F002010B50028BF
:10A1F00021D0114B0022001F196803E0814203D8CF
:10A200000A4649680029F9D152B11368841A9C4260
:10A2100004D1006818441060104602E0506000E06D
:10A22000186039B102680B1A934203D10B681A44C3
:10A2300002604968416010BD6C0000201C499FED20
:10A240001D0ADFED1F1AD1ED020A20EE801ADFEDA4
:10A250001A0A21EE201A80ED1E1A91ED021A21EE43
:10A26000001A61EE200AC0ED1F0AD1ED020A60EE6D
:10A27000800AC0ED1C0AD1ED020A20EE800ADFED53
:10A280000F0A80ED1D0A91ED020A20EE200AF0EE81
:10A29000000A20EE201AB7EE000AF0EE400A41EE66
:10A2A000610A80EE201A30EE410A80ED200A7047E4
:10A2B00060030020C7BC8E3A9B551F3D17B7D137AE
:10A2C000DB0F494000B5B0EE401A90ED000AFCF7F4
:10A2D0007BFDF0EE410AFCF76FFD80ED000A00BD4A
:10A2E00000B5F0EE401A90ED000A0A46034660EE13
:10A2F000000A91ED000A40EE000AB0EE600AF6F79F
:10A30000D3FEB4EEE10AF1EE10FA0FDDD3ED000A50
:10A3100060EEA10A80EE801A83ED001AD2ED000AE9
:10A3200060EEA10A80EE801A82ED001A00BD0000E6
:10A3300010B5174C174B002004EB8001D1E9002128
:10A3400000EE901A03EB800100EE102A801C81ECD5
:10A35000020A4028F0DB104B104A002003EB80017A
:10A36000D1ED000A91ED010AF8EEE00AB8EEC00A5C
:10A37000FDEEE00ABDEEC00A10EE901A42F8201081
:10A3800002EB8001801C81ED010AFF28E6DD10BD93
:10A3900000D807086003002000D9070860040020E7
:10A3A0002DED028BADF50A7DF8F7E2FDFBF7D2FB50
:10A3B000FAF7A6FFFAF736FEFBF716F8FBF73CF8BC
:10A3C000FBF762F8FBF75EF9FBF738F9FAF7C4FE22
:10A3D000FAF77AFEFBF7E4F8FAF712FFFAF768FFEC
:10A3E0000024DFF87CA3DF4A07219FEDDF8A4FF4CA
:10A3F0008020CAF8AC40B0EE480AFBF77BF9012098
:10A40000F8F740F87F21D948F7F792F97F21D8482B
:10A41000F7F78EF97F21D748F7F78AF97F21D648D9
:10A42000F7F786F9D148F7F789FCD148F7F786FCAA
:10A43000D048F7F783FCD048F7F780FC0120F8F705
:10A4400005F8CE48F9F744FFCD48F9F741FFCD4D67
:10A45000002208212846F8F777FD0120F7F7F6FFDC
:10A46000012210214FF09040F8F76EFD01220821E3
:10A470002846F8F769FD0120F7F7E8FFC24D286884
:10A480000090A988ADF804100199FFF7D3FA0120D4
:10A49000F7F7DCFF0126CDE90346CDE90546009438
:10A4A0000194029428688790A988ADF82012334659
:10A4B00000228899FFF72AFB0120F7F7C7FF4FF02A
:10A4C0000209CDE900490327039604960294CDE9D9
:10A4D000056728688790A988ADF82012012300221B
:10A4E0008899FFF7F3FA0120F7F7B0FF0AF190011E
:10A4F000081F01F09FF84FF00408CDF8008028688D
:10A500000190A988ADF80810434603220299FFF78D
:10A510001DFB0120F7F79AFFCDF80080CDF80480ED
:10A5200028680290A988ADF80C1001231A460399F7
:10A53000FFF719FB0120F7F789FF0120F7F786FFE6
:10A5400003940494CDE90547CDE9004902942868B5
:10A550008790A988ADF82012012300228899FFF77F
:10A56000B5FA0120F7F772FF0F200096CDE90170D0
:10A5700028680390A988ADF81010032300220499DD
:10A58000FFF701FB0120F7F761FF28680090A98819
:10A59000ADF804100199FFF751FA0120F7F756FFC3
:10A5A000504600F095FC0120F7F750FF002173485A
:10A5B000FAF77CF904217148FAF778F908216F4815
:10A5C000FAF774F900216D48F9F76CFD04216B4826
:10A5D000F9F768FD08216948F9F764FDFFF7A8FE5F
:10A5E000AAF5A0652868FCF7B0FB08B185ED008AE4
:10A5F0006868FCF7AAFB08B185ED018AA868FCF73A
:10A60000A4FB624F50B9D5ED020A10EE900AB84291
:10A6100004D0F5EEC00AF1EE10FA03D19FED5C0A0A
:10A6200085ED020AE868FCF790FB50B9D5ED030A06
:10A6300010EE900AB84204D0F5EEC00AF1EE10FA1E
:10A6400003D19FED540A85ED030AA869FCF77DFB51
:10A6500010B9A869B84201D185ED068A4E4F97ED31
:10A66000010AB8EEC00A10EE100AFCF76EFB10B932
:10A670007868401C00D17E6097ED020AB8EEC00AEF
:10A6800010EE100AFCF761FB10B9B868401C00D14D
:10A69000BC6097ED030AB8EEC00A10EE100AFCF792
:10A6A00054FB10B9F868401C00D1FC6095ED000A1D
:10A6B000FBF742FA95ED010AFBF744FA4FF40071FB
:10A6C00007A8F5F7EFFD34498022143107A8F5F704
:10A6D000D0FD07A8FCF7DEFA2148FFF7AFFD0A20FE
:10A6E000F7F7B4FE2DA0FCF7F5FA33A0FCF7F2FA69
:10A6F00036A137A0FCF7EEFADAE923123AA0FCF70C
:10A70000E9FA2868F5F7FCFE41EC100B40A053EC89
:10A71000102BFCF7DFFA6868F5F7F2FE41EC100B3E
:10A7200047A053EC102BFCF7D5FA4DA07968FCF745
:10A73000D1FA4F48FEF7E2FF4D483038FEF7FCFFF4
:10A740004C48F8F715FA002201214A48F7F7B4FE01
:10A7500049480660012249494948FAF795FBFEE756
:10A76000600800207800002000000000000C00209D
:10A770006C0C0020D80C0020440D0020DC0E0020C2
:10A78000280F00200008004826000020000080BF9D
:10A7900000007A4400002042600400200A0D205985
:10A7A00053432036302D37322D43414E2D447269AC
:10A7B0007665200A0D0000000A0D20446562756769
:10A7C00020496E666F3A0A0D00000000312E3000FD
:10A7D000204669726D776172652056657273696F84
:10A7E0006E3A2025730A0D002041444331204F6604
:10A7F000667365743A20256420202020414443324A
:10A80000204F66667365743A2025640A0D000000C7
:10A8100020506F736974696F6E2053656E736F7229
:10A8200020456C656374726963616C204F66667362
:10A8300065743A202020252E34660A0D00000000A1
:10A84000204F7574707574205A65726F20506F7345
:10A850006974696F6E3A2020252E34660A0D000057
:10A860002043414E2049443A202025640A0D00002F
:10A87000640B0020B00D00201000002035000020E7
:10A88000C00F0020F0B50B30154D20F0070100245B
:10A89000144A0FE003688B420BD38B4205D95E1A32
:10A8A00043184768C3E9006700E04368136002C0CB
:10A8B00004E0021D10680028ECD12046002802D1D7
:10A8C000286808B10020F0BD064A07481060074A12
:10A8D000121A22F00702C0E9002401202860D7E7FD
:10A8E000700000206C000020541000205010012047
:10A8F0002DE9F04F2DED0A8B83468BB00C46CCA092
:10A90000FCF7E8F99FEDD28A9FEDD2BA8DED048A6B
:10A91000F0EE489AB6EE000A8DED070A002504AA6B
:10A9200005A906A8B0EE691AF0EE4B0AB0EE480A87
:10A93000FEF7FEF907AA09A908A8DDED041A9DEDA6
:10A94000051ADDED060AB7EE000A00F021FCC24F41
:10A95000002644F62068F7EE008A3868BA46C26AD4
:10A96000DDED080A520800EE102A78EEE00AB8EE93
:10A97000400A20EE200ABCEEC00A10EE102A426304
:10A980003868C26ADDED090A520800EE102A78EE36
:10A99000E00AB8EE400A20EE200ABCEEC00A10EE33
:10A9A000102A8263DAF80000C16ADDED070A49085F
:10A9B00000EE101A78EEE00AB8EE400A20EE200A07
:10A9C000BCEEC00A10EE101AC1636420F7F75AFDFE
:10A9D000761C4645C1DB5846DFEDA0BAB0EE6B0AE7
:10A9E000FAF79EFF0120F7F743FDD4F89010606856
:10A9F000401A00EE100AF8EEC00A9FED990A60EEC8
:10AA0000800AC4ED030A2168D4F88C00081A01EE0C
:10AA1000100A04F14401081FB8EEC11A21EE001A11
:10AA2000B1EE600A84ED041A70EE411AC4ED051A05
:10AA300094ED0A0AFEF7B4FF606CF5F761FD41EC96
:10AA4000100B9FED88CBB0EE4C1AF0EE6C1AFCF7B1
:10AA50002BFCB0EE40AAF0EE60AA206CF5F750FD9A
:10AA600041EC100BB0EE4C1AF0EE6C1AFCF71CFC2B
:10AA700053EC1A2B51EC100BF5F72CFC41EC100B9E
:10AA8000FDF702FB51EC100BF5F74DFD064677A0E4
:10AA9000FCF720F93046F5F733FD80468946606CB7
:10AAA000F5F72EFD06460F46206CF5F729FD8DE8DB
:10AAB000C00341EC100B70A053EC102BFCF70AF90B
:10AAC000724C80E004AA05A906A8B0EE691AF0EE5F
:10AAD0004B0AB0EE480AFEF72BF907AA09A908A805
:10AAE000DDED041A9DED051ADDED060AB7EE000A4C
:10AAF00000F04EFB6420F7F7C5FCDAF80000C26AEC
:10AB0000DDED080A520800EE102A78EEE00AB8EEF1
:10AB1000400A20EE200ABCEEC00A10EE102A426362
:10AB2000DAF80000C26ADDED090A520800EE102AC8
:10AB300078EEE00AB8EE400A20EE200ABCEEC00A29
:10AB400010EE102A8263DAF80000C16ADDED070A10
:10AB5000490800EE101A78EEE00AB8EE400A20EE3E
:10AB6000200ABCEEC00A10EE101AC1635846B0EEBF
:10AB70006B0AFAF7D5FEF6F701FDB5EEC08AF1EEE5
:10AB800010FA01D1B0EE409AC82D17DD002510EE65
:10AB9000100AF5F7B5FCF1EE0C0A064688EE200A1D
:10ABA0000F4610EE100AF5F7ABFC41EC100B38A085
:10ABB00053EC102BCDE90067FCF78CF89FED380AB9
:10ABC0006D1C38EE008A18EE100AA042FFF67AAF2C
:10ABD000F6F7D4FC70EE490AF5EEC00AF1EE10FA71
:10ABE00001DD012600E0002610EE100AF5F788FCD2
:10ABF00004460D4619EE100AF5F782FC41EC100BE5
:10AC000028A053EC102BCDE90045FCF763F8314642
:10AC10002EA0FCF75FF80EB131A000E035A0FCF7E4
:10AC200059F8404806600BB0BDEC0A8BBDE8F08FC8
:10AC30000A0D20436865636B696E672070686173F5
:10AC400065206F72646572696E670A0D000000000E
:10AC500000000000CDCCCC3DDC0E002017B7D13772
:10AC6000FFFFA4BC00000000000000400A0D437577
:10AC70007272656E740A0D00256609202020202559
:10AC8000660920202025660D0A000000DB0F4941DF
:10AC9000252E346609202020252E34660D0A00005A
:10ACA0006F12833A54686574612053746172743A08
:10ACB00020202025662020202054686574612045CE
:10ACC0006E643A202025660A0D0000004469726512
:10ACD0006374696F6E3A202025640A0D000000003D
:10ACE00050686173696E6720636F72726563740A7E
:10ACF0000D00000050686173696E6720696E636FB4
:10AD000072726563742E20205377617070696E676C
:10AD100020706861736573205620616E6420570A45
:10AD20000D000000600400202DE9F04104462DEDE7
:10AD3000068BB0EE41AAF0EE60AA82B09FED3C8A8D
:10AD4000DFED3C8AB0EE429AF0EE619A1420B0EE4C
:10AD5000481AF0EE680AFFF7FDF9074614209FED48
:10AD6000361ADFED360AB0EE6A0AFFF7F3F98046CD
:10AD70001020B0EE481AF0EE680AB0EE4A0AFFF76B
:10AD8000E9F99FED2F8A06460720B0EE481AFBEE40
:10AD9000040AB0EE690AFFF7DDF905460720B0EEB8
:10ADA000481AFBEE040AB0EE490AFFF7D3F902464F
:10ADB0000098002367F313000090BDF802109DF87F
:10ADC000040041EA004168F31711ADF80210080CC5
:10ADD0008DF80400BDF8050066F30F00ADF805001E
:10ADE00018499DF80760087860F300068DF8076041
:10ADF00000289DF8070013D062F347008DF8070084
:10AE00000B70114840681030E0600098C4F80100F1
:10AE10000198C4F8050002B0BDEC068BBDE8F081D6
:10AE200065F347008DF8070001200870E9E700008E
:10AE30000000C8420000C8C200803B4400803BC400
:10AE4000000048433400002060040020FEB5F6F7FF
:10AE5000A5FB0646F6F780FB10EE100AF5F750FB4F
:10AE60000D460446F6F784FB10EE100AF5F748FB92
:10AE700041EC100B8DE8700053EC102B03A0FBF796
:10AE800029FFBDE8FE400120F7F7F2BA204D6563C7
:10AE900068616E6963616C20416E676C653A202061
:10AEA000256620202020456C656374726963616C9F
:10AEB00020416E676C653A202025662020202052B4
:10AEC00061773A202025640A0D000000FFF780B961
:10AED0001F4A1168CB6A00EE103AF8EE400AB6EE4F
:10AEE000000A60EE800AFCEEE00A10EE903ACB63B6
:10AEF0001168CB6A00EE903AF8EE600A60EE800AC4
:10AF0000FCEEE00A10EE903A4B631168CA6A00EE5C
:10AF1000902AF8EE600A20EE800ABCEEC00A10EE1D
:10AF2000102A8A639FED0B0A80ED250A80ED260A20
:10AF300080ED100A80ED110A80ED120A80ED220AE0
:10AF400080ED210A80ED150A80ED140A704700009B
:10AF5000DC0E00200000000070B5274DA868062810
:10AF60003DD2DFE800F0030A113C3D442869002887
:10AF700035D0BDE87040FEF721BE286900282ED0EC
:10AF8000BDE87040FEF764BB286918B1FEF7F6FF14
:10AF9000002023E0194C1A48D4F8A810C068814258
:10AFA0000DDD00280BDD9FED170A84ED250A84EDE9
:10AFB000260A84ED2F0A84ED300A84ED310A0F4809
:10AFC00000F048F994ED0A0A0F490C482C34FEF7BA
:10AFD000BFFBE06F401CE0676868401C686070BDA4
:10AFE00028690028FBD0BDE87040FEF781BEBDE8AF
:10AFF0007040FFF72BBF0000000000206008002019
:10B000006004002000000000B00B002070B5F7F7CE
:10B01000A7FE08B1012070BDF7F750FE08B102206D
:10B0200070BDFEF7E9FF401C01D0032070BD204930
:10B030004CF2FA3008614FF47A70F6F729FA08B149
:10B04000052070BD1B4D1C4E002405EB840006EB53
:10B050008401D0E900230020F7F744FE28B12146FF
:10B0600016A0FBF737FE062070BDA41C402CECDBBD
:10B070001B4D1C4E002405EB840006EB8401D0E937
:10B0800000230020F7F72EFE28B1214616A0FBF77B
:10B0900021FE072070BDA41CFF2CECDDF7F7F2FDAC
:10B0A000F7F7FEFD19A0FBF715FE002070BD0000AC
:10B0B000002002406003002000D807085361766535
:10B0C000546F466C617368206661696C20777269A1
:10B0D00074696E6720666C6F6174202325640000BC
:10B0E0006004002000D9070853617665546F466CF0
:10B0F000617368206661696C2077726974696E6734
:10B1000020696E7420232564000000005361766579
:10B11000546F466C61736820416C6C204F6B0A0061
:10B1200000B52DED048B83B041EC190BF5F701FC54
:10B1300041EC180B18EE100A18EE901A8DED008BEA
:10B14000002818BF0120084320F00040C0F17F60B4
:10B1500000F1E040C00F14D019EE101A19EE900A59
:10B160008DED009B002918BF0121084320F000400D
:10B17000C0F17F6000F1E040C00F04BF0120FDF787
:10B180006FF951EC180B03B0BDEC048B00BD00004F
:10B1900070B516462DED088BF0EE61AAF0EE419ADF
:10B1A000B0EE60AAF0EE408A0D460446B0EE6A1A90
:10B1B000F0EE690AB0EE4A0AFEF7F5FFB0EE408AFB
:10B1C000B0EE6A1AF0EE690AB0EE4A0AFEF7D6FF50
:10B1D00038EE000AB6EE009A20EE098A7AEE480AA6
:10B1E0009FED1AAA80EEA80AF0EE4A0A30EE090A8C
:10B1F000FBF7E2FD9FED16BAF0EE4B0AFBF7E4FD1C
:10B2000079EEC80A84ED000A80EEA80AF0EE4A0A38
:10B2100030EE090AFBF7D0FDF0EE4B0AFBF7D4FD48
:10B2200085ED000A3AEEC80AC0EE280A30EE890A17
:10B23000F0EE4A0AFBF7C0FDF0EE4B0AFBF7C4FD47
:10B2400086ED000ABDEC088B70BD0000CDCC4C3DF6
:10B250003333733F90ED2D0A90ED091AD0ED0B1AA0
:10B26000DFED130A30EE410A90ED2F1A124920EE5D
:10B27000010A90ED2E1A31EE611AD0ED301A01EE6E
:10B28000810A90ED311AF2EE081A30EE011A81EEC1
:10B29000210A9FED081A20EE010A80ED260AC0ED72
:10B2A000250AD1ED030A9830B1EE600AFFF70AB81B
:10B2B000000000008FC255416003002001EE100A1B
:10B2C00070EEC00A0120B8EEC11A8840401E21EE7F
:10B2D000201A00EE900AF8EEE01AC1EE210A30EED4
:10B2E000800A70470FB4102110B52DED048B82B089
:10B2F0009FED258ADDF821000090DFED248ADDF83E
:10B30000250001901B9CBDF80000F0EE480AB0EE4D
:10B31000680AFFF7D3FF84ED2D0ABDF802000E2165
:10B32000C0F30D00DFED1A0A9FED1A0AFFF7C6FF02
:10B3300084ED2E0A9FED199ABDF803000A218009B9
:10B34000DFED150AB0EE490AFFF7B8FF84ED2F0ACA
:10B350009DF805000821DFED120AB0EE490AFFF75B
:10B36000ADFF84ED300ABDF806001021F0EE480A6A
:10B37000B0EE680AFFF7A2FF84ED310A02B0BDEC1F
:10B38000048B10BC5DF814FB0000C8420000C8C26A
:10B3900000803B4400803BC400007A440000000071
:10B3A000000048422DE9F0478148824F01242DEDED
:10B3B000028B00260078A7F114081B280CD1C8F8CE
:10B3C0000860C8F8104088F8016088F80060002123
:10B3D0007E54491C0829FBDBD8F808109FED768ABB
:10B3E000764DB1B1D8F80810042951D0D8F808101A
:10B3F00005296ED0D8F80810022906D1642804D196
:10B400006F4880ED268A80ED258ABDEC028BBDE871
:10B41000F0876D2833D005DC63282DD06528F4D162
:10B42000052032E073282FD07A28EED1B0EE480AFA
:10B43000FAF788FB63489FED640AFAF771FA142063
:10B44000F7F720F8F6F794F885ED010AFFF7DEFD2F
:10B45000FEF76EFF95ED010AFAF774FB6868F5F7E1
:10B460004FF8BDEC028B41EC100BBDE8F04753ECFC
:10B47000102B56A0FBF72EBCC8F8084001E00220B4
:10B4800003E0C8F81040C0E70420C8F80800F8E757
:10B490000D280FD098F8011000297AD0394401F80E
:10B4A000010C5449FFF712FD98F80100401C88F880
:10B4B0000100AAE7C14698F80010DFF83C816C292A
:10B4C0003FD007DC62291CD066294ED0692905D1FE
:10B4D0002BE068E06D292ED074295BD047A0FBF7E4
:10B4E000F9FBFFF793FDFEF723FFC9F8104089F839
:10B4F000016089F8006000203E54401C0828FBDBF6
:10B5000083E72C48FBF73CFC51EC100BF5F70BF8EC
:10B5100000EE100ADFED430AFBF756FCDFED420AAE
:10B52000FBF74AFC85ED020ADBE72248F4F7C5FE8B
:10B53000C8F80400D5E71F48F4F7BFFEC8F80800B4
:10B54000CFE71C48FBF71CFC51EC100BF4F7EBFFAA
:10B5500000EE100ADFED350AFBF736FCF0EE480A84
:10B56000FBF72AFC85ED030ABBE71248FBF708FC52
:10B5700051EC100BF4F7D7FF00EE100ADFED2C0AA8
:10B58000FBF722FCF0EE480AFBF716FC85ED060AF5
:10B59000A7E705E00748F4F790FEC8F80C00A0E71D
:10B5A00088F800007DE71B28AAD1C8F8086068E782
:10B5B000350000201400002000000000600300207F
:10B5C000600800207800002017B7D1370A0D20202E
:10B5D0005361766564206E6577207A65726F20709E
:10B5E0006F736974696F6E3A2020252E34660A0DD8
:10B5F0000A0D000068000020600400200A0D2027CA
:10B60000256327204E6F7420612076616C69642069
:10B61000636F6D6D616E64207072656669780A0D86
:10B620000A0D00000000FA440000C8420000204259
:10B63000000004422DE9F04700262DED028B8A46DA
:10B64000DFF89C80814635464FF480673446B6EE7D
:10B65000008AD8F80000C26A00EE102AB8EE400A4C
:10B6600020EE080ABCEEC00A10EE102A4263D8F899
:10B670000000C26A00EE102AB8EE400A20EE080A66
:10B68000BCEEC00A10EE102A8263D8F80000C16A2E
:10B6900000EE101AB8EE400A20EE080ABCEEC00A0E
:10B6A00010EE101AC1630120F6F7ECFE09210D48D7
:10B6B000F6F72CFB054409210B48F6F727FB641C21
:10B6C0000644BC42C5DB96FBF7F1C9F8001095FBB8
:10B6D000F7F1CAF80010BDEC028BBDE8F08700005E
:10B6E000DC0E00206C0C0020000C0020000000008C
:10B6F0002975493CDF6EC93C6F0E173D3160493DED
:10B700008FA97B3D38F4963D6B0EB03D4721C93D76
:10B710005E2EE23DEC2FFB3D7F130A3E698C163E08
:10B7200076FD223EA5662F3E97CA3B3E4A29483EFB
:10B73000807D543EDAC9603E560E6D3EF54A793E34
:10B740003CBD823E0FD1883EA4DF8E3EFBE8943E96
:10B75000C4EB9A3EFFE7A03EFCDEA63E6CCFAC3EBB
:10B760004EB9B23EA29CB83E1878BE3EB24BC43E23
:10B77000BD18CA3EECDDCF3EED99D53E614FDB3EB4
:10B7800059FAE03EC39EE63EB038EC3E71C9F13E48
:10B790005452F73EBBD0FC3E5322013FB2D7033F89
:10B7A000D387063FB532093F5AD80B3FC0780E3FCA
:10B7B0004013113F82A8133FDF37163F55C1183F92
:10B7C000E5441B3F8FC21D3F543A203F8AAB223FC6
:10B7D000DB16253F9E7B273FD3D9293F7B312C3F6A
:10B7E000ED812E3F79CC303FD00F333FF14B353FC9
:10B7F0008481373FE2AF393F0AD73B3FFDF63D3FFB
:10B80000130F403F9B20423F9E29443F132C463F4D
:10B810000326483FBD184A3F9B034C3FF3E54D3F8D
:10B8200016C14F3FB493513F745E533F5721553F6C
:10B830000EDB563F8F8D583FE3365A3FB2D75B3F02
:10B84000A4705D3F69005F3F5188603F0C07623F15
:10B850009A7C633FA3E9643F274E663F7EA9673F1A
:10B8600050FC683F4E456A3FC6856B3F12BD6C3F3A
:10B8700031EB6D3F23106F3F412B703FD93D713F3E
:10B880009D46723F3546733F9F3C743F3529753F57
:10B890009E0C763F32E6763F9AB6773F2C7D783F16
:10B8A000EB39793F7CED793F39977A3F22377B3FFF
:10B8B00036CD7B3F75597C3F87DC7C3F1D557D3FF6
:10B8C00087C47D3F74297E3F34857E3F77D67E3F97
:10B8D0008E1E7F3F295C7F3FEF8F7F3F88BA7F3F7F
:10B8E000A5DA7F3FEDF07F3F61FD7F3F0000803FA5
:10B8F00023F87F3F19E77F3F92CB7F3F37A67F3FFB
:10B90000AF777F3FAB3E7F3FD2FB7E3F25AF7E3F91
:10B91000A3587E3F4DF87D3F228E7D3F221A7D3F0A
:10B920004E9C7C3FA5147C3F27837B3FD5E77A3F25
:10B9300057437A3F0395793FDBDC783FDF1A783F46
:10B94000B54F773FB77A763FE59B753FE5B3743FD8
:10B95000B9C2733FB9C7723F8BC3713F31B6703FF5
:10B96000029F6F3FA67E6E3F1D556D3F68226C3F64
:10B9700086E66A3F1FA2693FE353683F22FD663FA8
:10B98000349D653F1A34643F22C3623F5648613F8D
:10B99000ACC55F3FD6395E3F7AA55C3F9A085B3FF6
:10B9A0003563593F4AB5573F82FF553F8E40543F5C
:10B9B000637A523FB4AB503F80D44E3F6FF54C3F5B
:10B9C000280F4B3F5C20493FB329473FD42B453FCD
:10B9D0001826433F7E18413FB0033F3FABE73C3F53
:10B9E00072C43A3F5B99383FB667363FDC2E343F2E
:10B9F000CCEE313F2FA82F3F5C5A2D3FFB052B3F4C
:10BA00000DAB283F9049263F2EE2233F9773213FFD
:10BA100019FF1E3FB6841C3FC5031A3F957D173F93
:10BA2000D8F0143FDD5E123FFCC60F3F35290D3FB5
:10BA30002F860A3FECDD073F6A30053FAA7D023FB3
:10BA4000598BFF3E3012FA3E8A8EF43E0803EF3ED9
:10BA5000096DE93EDDCDE33E8525DE3E4F75D83EDE
:10BA60003CBDD23EFCFBCC3EDF32C73E3563C13E1F
:10BA70005D8ABB3E47ACB53E05C5AF3E84D8A93E06
:10BA800075E5A33E89EA9D3E60EA973EF7E4913E64
:10BA900002D98B3ECEC7853EB7627F3EF52D733E01
:10BAA000B7EE663EFDA45A3E65534E3EF0F9413E68
:10BAB0003D9B353E0E32293EA0C31C3EF44F103E46
:10BAC0000AD7033EC4B1EE3DB9A5D53DA298BC3D11
:10BAD0001B82A33D49658A3D6685623DD637303D70
:10BAE000F7C7FB3CC615973C5374C93B5374C9BB9D
:10BAF000C61597BCF7C7FBBCD63730BD668562BD9F
:10BB000049658ABD1B82A3BDA298BCBDB9A5D5BDA0
:10BB1000C4B1EEBD0AD703BEF44F10BEA0C31CBE15
:10BB20000E3229BE3D9B35BEF0F941BE65534EBE77
:10BB3000FDA45ABEB7EE66BEF52D73BEB7627FBEDA
:10BB4000CEC785BE02D98BBEF7E491BE60EA97BE30
:10BB500089EA9DBE75E5A3BE84D8A9BE05C5AFBE62
:10BB600047ACB5BE5D8ABBBE3563C1BEDF32C7BE62
:10BB7000FCFBCCBE3CBDD2BE4F75D8BE8525DEBE1B
:10BB8000DDCDE3BE096DE9BE0803EFBE8A8EF4BECB
:10BB90003012FABE598BFFBEAA7D02BF6A3005BFC4
:10BBA000ECDD07BF2F860ABF35290DBFFCC60FBFCE
:10BBB000DD5E12BFD8F014BF957D17BFC5031ABF55
:10BBC000B6841CBF19FF1EBF977321BF2EE223BF8F
:10BBD000904926BF0DAB28BFFB052BBF5C5A2DBF7C
:10BBE0002FA82FBFCCEE31BFDC2E34BFB66736BFD7
:10BBF0005B9938BF72C43ABFABE73CBFB0033FBFED
:10BC00007E1841BF182643BFD42B45BFB32947BF79
:10BC10005C2049BF280F4BBF6FF54CBF80D44EBF8F
:10BC2000B4AB50BF637A52BF8E4054BF82FF55BF42
:10BC30004AB557BF356359BF9A085BBF7AA55CBF49
:10BC4000D6395EBFACC55FBF564861BF22C362BF75
:10BC50001A3464BF349D65BF22FD66BFE35368BFDD
:10BC60001FA269BF86E66ABF68226CBF1D556DBF03
:10BC7000A67E6EBF029F6FBF31B670BF8BC371BF10
:10BC8000B9C772BFB9C273BFE5B374BFE59B75BFD7
:10BC9000B77A76BFB54F77BFDF1A78BFDBDC78BFE6
:10BCA000039579BF57437ABFD5E77ABF27837BBF18
:10BCB000A5147CBF4E9C7CBF221A7DBF228E7DBF07
:10BCC0004DF87DBFA3587EBF25AF7EBFD2FB7EBFA0
:10BCD000AB3E7FBFAF777FBF37A67FBF92CB7FBF23
:10BCE00019E77FBF23F87FBF000080BF61FD7FBFE2
:10BCF000EDF07FBFA5DA7FBF88BA7FBFEF8F7FBF30
:10BD0000295C7FBF8E1E7FBF77D67EBF34857EBF06
:10BD100074297EBF87C47DBF1D557DBF87DC7CBF76
:10BD200075597CBF36CD7BBF22377BBF39977ABF31
:10BD30007CED79BFEB3979BF2C7D78BF9AB677BFA0
:10BD400032E676BF9E0C76BF352975BF9F3C74BF27
:10BD5000354673BF9D4672BFD93D71BF412B70BF41
:10BD600023106FBF31EB6DBF12BD6CBFC6856BBFBB
:10BD70004E456ABF50FC68BF7EA967BF274E66BFAD
:10BD8000A3E964BF9A7C63BF0C0762BF518860BFA0
:10BD900069005FBFA4705DBFB2D75BBFE3365ABF17
:10BDA0008F8D58BF0EDB56BF572155BF745E53BFF2
:10BDB000B49351BF16C14FBFF3E54DBF9B034CBFBA
:10BDC000BD184ABF032648BF132C46BF9E2944BF57
:10BDD0009B2042BF130F40BFFDF63DBF0AD73BBFBC
:10BDE000E2AF39BF848137BFF14B35BFD00F33BFCE
:10BDF00079CC30BFED812EBF7B312CBFD3D929BF89
:10BE00009E7B27BFDB1625BF8AAB22BF543A20BFDB
:10BE10008FC21DBFE5441BBF55C118BFDF3716BF1A
:10BE200082A813BF401311BFC0780EBF5AD80BBFF2
:10BE3000B53209BFD38706BFB2D703BF532201BFB4
:10BE4000BBD0FCBE5452F7BE71C9F1BEB038ECBED7
:10BE5000C39EE6BE59FAE0BE614FDBBEED99D5BE8A
:10BE6000ECDDCFBEBD18CABEB24BC4BE1878BEBE94
:10BE7000A29CB8BE4EB9B2BE6CCFACBEFCDEA6BEB4
:10BE8000FFE7A0BEC4EB9ABEFBE894BEA4DF8EBE63
:10BE90000FD188BE3CBD82BEF54A79BE560E6DBE3E
:10BEA000DAC960BE807D54BE4A2948BE97CA3BBEEF
:10BEB000A5662FBE76FD22BE698C16BE7F130ABE14
:10BEC000EC2FFBBD5E2EE2BD4721C9BD6B0EB0BDA0
:10BED00038F496BD8FA97BBD316049BD6F0E17BD8B
:10BEE000DF6EC9BC297549BC0000000000010203D7
:10BEF00004050607080C1014182030400100020049
:10BF00000400060008000A000C0010002000400099
:10BF10008000000101010103070100000804020480
:10BF200008010101000000000000000001020304FC
:10BF300006070809000000000102030400000000D9
:10BF400004FA97999999D93FAF788E1DC571CC3F66
:10BF50009FC678D0099AC33F935555555555E53F2F
:10BF6000599322942449D23FDE03CB966446C73FBF
:10BF700044523EDF12F1C23F000000000000F03FDB
:10BF8000000000000000F83F00000000000000007A
:10BF90000000004003B8E23F000000000000000085
:10BFA00006D0CF43EBFD4C3E033333333333E33F13
:10BFB000FFAB6FDBB66DDB3F4D268F515555D53F3F
:10BFC00001411DA96074D13F65DBC9934A86CD3F0D
:10BFD000EF4E454A287ECA3F3E5555555555C53FFB
:10BFE00093BDBE166CC166BF2CDE25AF6A56113FED
:10BFF000F16BD2C541BDBBBED0A4BE726937663EEF
:10C000000000000000000000000000006E83F9A2A4
:10C010002915444ED15727FCC0DD34F5999562DBD4
:10C020004190433CAB6351FE0040404040404040A3
:10C0300040404141414141404040404040404040FB
:10C04000404040404040404040050202020202029F
:10C0500002020202020202020220202020202020EE
:10C060002020200202020202020290909090909002
:10C0700010101010101010101010101010101010C0
:10C080001010101002020202020288888888888834
:10C090000808080808080808080808080808080820
:10C0A00008080808020202024000000029C0000837
:10C0B0000A0D20546F206368616E676520612076E9
:10C0C000616C75652C2074797065202770726566C7
:10C0D0006978272776616C75652727454E54455248
:10C0E000270A0D20692E652E202762313030302737
:10C0F00027454E544552270A0D0A0D001CC1000861
:10C1000000000020780000004084000894C100086E
:10C1100078000020D84F0100508400080000000083
:10C12000000000000000000000000000000000000F
:10C1300000000000000000000000000000000000FF
:10C1400000000000000000000000000000000000EF
:10C1500000000000100000000100000000000000CE
:10C1600000000000000000000000000000000000CF
:10C1700001000000000000000000000000000000BE
:10C180000024F40000000000000000000000000097
:04C1900000000000AB
:04000005080001D915
:00000001FF
