S3250800000020CE0020DD0100086F3D0008BB3700086D3D0008250B00082D49000800000000C8
S325080000200000000000000000000000007D3F0008E90D000800000000453E00087F3F00089F
S32508000040F7010008F7010008F7010008F7010008F7010008F7010008F7010008F701000892
S32508000060F7010008F7010008F7010008F7010008F7010008F7010008F7010008F701000872
S32508000080F7010008F7010008F7010008F7010008290B0008F7010008F7010008F701000816
S325080000A0F701000829400008F7010008F701000811410008F7010008F7010008F701000867
S325080000C0F7010008F7010008F7010008F7010008F7010008F7010008B5480008F70100080D
S325080000E0F7010008F7010008F7010008F7010008F7010008F7010008F7010008F7010008F2
S32508000100F7010008F7010008F7010008F7010008F7010008F7010008F7010008F7010008D1
S32508000120F7010008F7010008F7010008F7010008F70100080000000000000000F7010008B1
S32508000140F7010008F7010008F7010008F7010008F7010008F7010008F7010008F701000891
S32508000160F7010008F7010008F7010008F7010008F7010008F7010008F70100080000000071
S3250800018000000000F70100080000000000000000F70100080000000000000000F701000851
S325080001A0000000000000000000000000F7010008F7010008F7010008F7010008F701000831
S325080001C0F7010008DFF810D000F006FC00480047197D0008AFF3008020CE002006488047F6
S325080001E006480047FEE7FEE7FEE7FEE7FEE7FEE7FEE7FEE7FEE7FEE70D400008C501000847
S325080002002DE9F05F0546002092469B4688460646814640241BE0284641464746224600F02D
S3250800022020FA53465A46C01A914110D311461846224600F007FA2D1A67EB01084F46224621
S325080002400120002100F0FEF917EB00094E41201EA4F10104DFDC484631462A464346BDE897
S32508000260F09F40EA01039B0703D009E008C9121F08C0042AFAD203E011F8013B00F8013B35
S32508000280521EF9D27047D2B201E000F8012B491EFBD270470022F6E710B513460A46044633
S325080002A01946FFF7F0FF204610BD2DE9FE4F804681EA0300C00F0C46009021F0004123F00C
S325080002C00045B8EB0200A94105D24046214690461C460B46024623F00040104347D0270DB6
S325080002E0C7F30A00C3F30A510290401A019040286BDAC3F3130040F4801B0098924620B118
S325080003000023D2EB030A63EB0B0B01985946C0F14002504600F096F906460D46504659466A
S32508000320019A00F0AEF910EB08006141002487EA115284EAE7731A4340D0009A62B3019A61
S32508000340012A4FEA075215DC001B61EB02014FF0004202EA0752CDE90042001C41F58011D6
S3250800036032462B4600F0E5F903B0BDE8F08F40462146F9E7001B61EB0201001C41F58013C5
S3250800038000185B412018A2F5001747EB030140EAD570B6196D4111E06D084FEA360645EA89
S325080003A0C0754FEA0752001B61EB0201001C41F5801149084FEA30000019514132462B46CD
S325080003C003B0BDE8F04F00F0A5B90098012240000023D0EB020263EBE073009821464FEA74
S325080003E0E074B8EB000061EB0401E9E783F000435BE781F0004158E72DE9FE4F81EA030419
S3250800040004F0004421F0004100944FF0000B23F0004350EA01045ED052EA03045BD0C3F37F
S325080004200A54C1F30A552C44A4F2F3340194A0FB0254C1F3130141F48011C3F3130343F4F9
S32508000440801301FB024400FB034E840A970A44EA815447EA8357A4FB076802958D0A05FBF4
S3250800046007854FEA932C04FB0C542705029D4FEA065847EA1637B5EB08056EEB070C870EFD
S32508000480920E47EA811742EA8312A7FB0201B6EB0B0164EB00042B0D43EA0C335E1844EB36
S325080004A01C50DA465146E7FB0201C5F313044FEA0B3343EA14534FEA0432019C43EA06030A
S325080004C0A4F10C040294009CCDE900B400F031F903B0BDE8F08F00200146F9E72DE9F04D42
S325080004E081EA030404F0004B21F0004514464FF0000A23F0004150EA050220D054EA01027E
S325080005001DD0C5F30A570246C5F31303C1F31300C1F30A5640F4801543F48013A7EB0608A3
S32508000520101BD64608F2FD3873EB050002D308F1010801E092185B41B8F1000F03DA002021
S325080005400146BDE8F08D00204FF48011064684460EE0171B73EB050705D3121B63EB050335
S3250800056006434CEA010C49084FEA300092185B4150EA0107EDD152EA030012D082EA040050
S3250800058083EA0501084305D0101BAB4106D20122002306E000224FF0004302E06FF00102B7
S325080005A053101AEB06004CEB085110EB0A0041EB0B01BDE8F04D00F0ADB800F0004230F069
S325080005C000400AD0C10D01F56071C0F3160042EA0151C208400711437047002001467047DD
S325080005E001F0004330B421F0004150EA010206D00A0DA2F56072C1F31301002A02DC30BC34
S3250800060000207047440F44EAC104C100E01830BC00EBC25000F047B830B50B460146002081
S325080006202022012409E021FA02F59D4205D303FA02F5491B04FA02F52844151EA2F1010211
S32508000640F1DC30BD202A04DB203A00FA02F1002070479140C2F1200320FA03F319439040A8
S325080006607047202A04DB203A21FA02F00021704721FA02F3D040C2F12002914008431946DD
S325080006807047202A06DBCB17203A41FA02F043EAE07306E041FA02F3D040C2F120029140B5
S325080006A00843194670470029A8BF7047401C490008BF20F00100704710B4B0FA80FC00FA6C
S325080006C00CF050EA010404BF10BC704749B1CCF1200421FA04F411FA0CF118BF0121214338
S325080006E00843A3EB0C01CB1D4FEA00614FEA102042BF002010BC704700EBC35010440029FC
S32508000700A4BF10BC7047401C490008BF20F0010010BC704710B5141E73F1000408DA401C48
S3250800072041F1000192185B411A4301D120F0010010BD2DE9F04D92469B4611B1B1FA81F239
S3250800074002E0B0FA80F220329046FFF77BFF04460F4640EA0A0041EA0B0153465A46084367
S3250800076013D0114653EA010019D0C8F140025046FFF777FF05460E46504659464246FFF7BB
S3250800078061FF084305D0012004E020463946BDE8F08D0020054346EAE0762C4337430A9846
S325080007A06305E40AA0EB08000022FD0A44EA47540A3002D500200146E9E70105101969412F
S325080007C0DDE9084500196941BDE8F04DA2E770B521F0004303430CD0C1F30A550024D5EB38
S325080007E0040564EB0403D617AD1AB34102DB0020014670BD201841EB025170BD2DE9F04D3C
S3250800080000231A461B1A8A4103DB00200146BDE8F08DC1F30A52C1F3130141F480154FF0FF
S32508000820000BD10702D100186D41521E0027044640F2FF11384601EB620A3E4680460246A3
S3250800084000204FF48011FFF70CFFC2197141BB1846EB0100B4EB030C75EB000C04D3E41A14
S3250800086065EB000517460E46241908F101006D4180463428E3DDF91946EB0600091BA84147
S3250800088003D24FF0FF32134601E0002213461BEB070046EB0A51BDE8F04DFFF73BBF2DE9CF
S325080008A0FE4FC3F30A5701F000450024C1F30A56C3F31303C1F3130143F4801312EB020AF1
S325080008C0A64641F48011009543EB030CA7F1010B16E0B0EB0A0061EB0C01071E71F1000760
S325080008E007DA4FF00008D0EB080085F0004568EB0101171A73EB0107EBD3761E0018494165
S325080009005E45F6DA50EA010209D0CDE900E5002213460296FFF70DFF03B0BDE8F08F204653
S325080009200099F9E70EB5C10F80EAE0700844CA07002140F233438DE80E000A460B46FFF7E3
S32508000940F8FE03B000BDC1F30A52C1F3130140F2FF3341F480119A4202DA0020014670474B
S3250800096040F233439A42A2F2334202DC5242FFF778BEFFF767BE000030B5041E71F10004B6
S3250800098004DB4FF00044404264EB0101141E73F1000405DB1C464FF00043524263EB0403CD
S325080009A08B4208BF824230BD30B5041E71F1000404DB4FF00044404264EB0101141E73F1AC
S325080009C0000405DB1C464FF00043524263EB0403994208BF904230BD064C074D06E0E06823
S325080009E040F0010394E8070098471034AC42F6D3FFF7ECFB94A60008B4A60008464910B583
S32508000A004A6822F440324A604A6843681A434A6001684A6822F480724A6001684A6803692C
S32508000A2042EA03224A6001684A6822F040724A6001684A6883681A434A6001688A6822F4A6
S32508000A4000628A6001688A68C3681A438A60816A6FF07062D14201688A6822F070628A6017
S32508000A6001688A680CD0836A1A438A6001688A6822F040528A6001688A68C36A1A4301E04E
S32508000A8022F040528A6001688A6822F002028A6001688A68037E42EA43028A6090F8201070
S32508000AA0002901684A680FD042F400624A6001684A6822F460424A6001684A68174C436A1B
S32508000AC004EB43331A4301E022F400624A600168CA6A22F47002CA620168CA6A838B104CEB
S32508000AE004EB03531A43CA6201688A6822F400728A6001688A6890F8303042EA43228A608F
S32508000B0001688A6822F480628A6001688A68406942EA8020886010BD0023014000E0FFFFC3
S32508000B200000F0FFFEE7000010B5034800F009FFBDE8104000F090B82C0C002000B58BB056
S32508000B4000200D4A01210590CDE90601526804905201CDE900204FF4F072CDE902200E207A
S32508000B60CDE908106946054800F0F0FD002801D000F03BF90BB000BD180200202C0C002099
S32508000B80FEB5344C170A02F0FF0C64681A0A44F47875009C082665F3170400940C0A0025D5
S32508000BA0C9B2DBB2062853D2DFE800F00306122636460195029546E001958DF80450012075
S32508000BC08DF805008DF8064002958DF807103AE0019502958DF8045002208DF808708DF8BB
S32508000BE005008DF809C08DF806408DF80A208DF807108DF80B3026E001958DF80450032026
S32508000C0002958DF805008DF806408DF808708DF807108DF809C016E001958DF8045004206A
S32508000C2002958DF805008DF806408DF808208DF807108DF8093006E001958DF80450052039
S32508000C4002958DF805008DF80360684606F01EFBFEBD00001802002000B58BB002AB04AA80
S32508000C600021094800F0F9FD00280AD108988DF807000499019861F31700019001A807F00D
S32508000C801DFC0BB000BD00002C0C00200EB5094980B2496841F43872009962F317010091EF
S32508000CA004218DF8031001A908F074FD684606F0EDFA0EBD1802002010EE100A084901EB71
S32508000CC0600100EE901A0749A1EB600001EE100A40EE010AB6EE000A20EE800A7047000092
S32508000CE000F8BC1FDF59375F10B50C4608490968884205D10146074806F022FCA04201D06F
S32508000D00012010BD03F0EEFD0028FAD0022010BD18000020000002080020421E810001F1E3
S32508000D20E021C1F88021C1F88022401C0828F5DB0249086880F308884868004700000608D0
S32508000D402DE9F0478846204905460E6806EB0802B2F5003F35D88A46444600F0C7F8A7089A
S32508000D600024DFF868900FE006EB840101EB090055F8241000F09CF8092804D000F090F896
S32508000D804FF0FF3015E0641CBC42EDD300F088F800204A460AE006EB800155F820308958AA
S32508000DA08B4202D06FF0010003E0401CB842F2D30020DAF8003003EB0801CAF80010BDE898
S32508000DC0F0870120FBE70000180000200000020810B506F057FE08B1012010BD0149002028
S32508000DE0086010BD180000207047704701490860704700000C3C024070B50646002529B1A7
S32508000E00012927D0022928D04FF4407500F080F809281ED1124C206820F44070206020684E
S32508000E2028432060206820F0F8002060206846F0020108432060206840F48030206000F041
S32508000E4067F8216821F002012160216821F0F801216070BD4FF48075D8E74FF40075D5E75B
S32508000E60103C02400D4909200A68D20301D5012070470A68D20601D5062070470A68D2051C
S32508000E8001D5022070470A6812F0E00F01D00720704709688907FBD5082070470C3C024049
S32508000EA00248016841F0004101607047103C024070B50D46064600F02BF8092813D10A4C17
S32508000EC0206820F440702060206840F400702060206840F001002060356000F019F8216834
S32508000EE021F00101216070BD103C024005480068002805DA034804490C38016003490160EF
S32508000F0070470000103C024023016745AB89EFCD08B509208DF80000FFF7A4FF8DF8000035
S32508000F209DF800000128F7D09DF8000008BD10B5EFF3108472B602F02FFF84F3108810BD65
S32508000F4000B5EFF3108372B602F012FF83F3108800BD0000DFED020A30EEC00A00F002B8F9
S32508000F60DB0FC93FDFED0F0A01E030EE200AB5EEC00AF1EE10FAF8D30B4910EE100A88420C
S32508000F8002DB30EE600AF8E7DFED080A084920EE200ABDEEC00A10EE100A01EB800090ED22
S32508000FA0000A7047DB0FC940DB0FC94083F9A24234990008014890ED0A0A70472C06002064
S32508000FC070B590F83C206A4C012A19D0012280F83C200A6807250368092A13D9DE680A3A87
S32508000FE002EB42029540AE43DE600A788B680A3A02EB420293400268D5682B43D36010E0B9
S32508001000022070BD1E6902EB42029540AE431E610A788B6802EB42029340026815692B43A7
S3250800102013610268936B23F4401393630268936B0D8A504E06EB05552B4393630A790B7C10
S32508001040D21AD21C02EB82021F2393400268956B9D4395630A790B7CD21A0B88D21C02EB7C
S3250800106082029BB293400268956B2B4393638A69A2420268936823F47023936002689368B2
S325080010800CD08C69234393600268936823F44013936002689368CC69234301E023F440130B
S325080010A093604A7D002A0268536802D043F4806301E023F4806353600A7D002A02685368C9
S325080010C002D043F4805301E023F4805353604A68012A16D0022A1FD0032A026827D0136ABF
S325080010E06FF30B0313620268136ACC6823431362224B0468204A9C4227D10C68122C20D04C
S3250800110023E0026853696FF30B03536102685369CC6823435361EBE7026893696FF30B0358
S32508001120936102689369CC6823439361E0E7D3696FF30B03D3610268D369CC682343D3619E
S32508001140D6E7546844F48004546004689C420AD10968A1F18053123B01D0112903D15168B8
S3250800116041F400015160002180F83C10084670BD01000F000000F0FF002301400020014056
S3250800118008B5002200920368521F1A60012911D002290CD0032906D0042901D0009808BD0B
S325080011A00068806C01E00068406C009008BD0068006CFAE70068C06BF7E7000018B500226E
S325080011C0009290F83C10012907D0012180F83C1001688B68DB0702D011E0022018BD8B68C9
S325080011E043F001038B602649264B0968B1FBF3F101EB410100E0491E00910029FBD101687A
S325080012008B68DB0732D0036C42F20104A34343F480530364036CDB0500D4426480F83C204D
S325080012206FF004020A60184949680068C906816801F440110FD0B9B100214268134B42F3B2
S325080012408022521C984219D1C1B1BAB1816841F48001816012E029B10021426842F38022E1
S32508001260521CF1E70121F8E70121E6E7016C41F010010164416C41F001014164002018BD9C
S325080012806C00002040420F00002301400020014078B50024009490F83C20012A19D001225E
S325080012A080F83C200A6807250368092A13D9DE680A3A02EB42029540AE43DE600A788B68F0
S325080012C00A3A02EB420293400268D5682B43D36010E0022078BD1E6902EB42029540AE43AB
S325080012E01E610A788B6802EB42029340026815692B4313614A681F25072A13D203685E6BDE
S32508001300521E02EB82029540AE435E630A8893B20A79521E02EB820293400268556B2B43B1
S32508001320536327E003680D2A12D21E6BD21F02EB82029540AE431E630A8893B20A79D21FDF
S3250800134002EB820293400268156B2B43136311E0DE6A0D3A02EB82029540AE43DE620A88E4
S3250800136093B20A790D3A02EB820293400268D56A2B43D3621B4B0568194A9D420AD10D685B
S32508001380122D07D1556825F400055560556845F48005556005689D421DD1134D0B68AB426E
S325080013A001D0112B17D1536823F480035360536843F4000353600968A9420CD10B490C4A97
S325080013C00968B1FBF2F101EB8101490000E0491E00910029FBD180F83C40002078BD000032
S325080013E00023014000200140120000106C00002040420F000068C06C704770B504004FF028
S32508001400000603D0206C002510B107E0012070BD204600F01DF8656484F83C50206CC006B0
S3250800142010D4206C20F4885040F0020020642046FFF7E4FA6564206C20F0020040F00100BA
S32508001440206400E0012684F83C50304670BD0000F0B587B0044614216846FEF71BFF3648B2
S32508001460DFF8D0C021680025334B143801270324324A334E614518D1196841F48071196084
S32508001480196801F480710591016841F004010160016801F004010591016841F0020101604E
S325080014A0006800F0020005901CE0DFF898C0614528D1196841F400711960196801F40071DE
S325080014C00591016841F004010160016801F004010591016841F0020101600068022700F0F4
S325080014E002000590009769461046CDE9014500F0B9FC694630460097CDE9014500F0B2FCB4
S3250800150007B0F0BD104A9142FAD1196841F480611960196801F480610591016841F00101C8
S3250800152001600068009700F00100059069460748E2E7000000200140443802400008024087
S325080015400004024000210140002201400000024018B50022009290F83C10012907D00121B8
S3250800156080F83C1001688B68DB0702D011E0022018BD8B6843F001038B602E492E4B09682B
S32508001580B1FBF3F101EB410100E0491E00910029FBD101688B68DB0742D0036C40F201645C
S325080015A0A34343F4807303644B685B0505D5036C23F4005343F480530364036CDB0404D548
S325080015C0436C23F00603436400E0426480F83C201A4A6FF022030B6051680068CA0618498C
S325080015E006D0884224D1816811F0405F13D01FE08842F8D0134A904203D1D1F80423D20680
S32508001600F1D0114A904213D1D1F8041301F01F011029E8D30CE0816841F08041816007E076
S32508001620016C41F010010164416C41F001014164002018BD6C00002040420F00002301408D
S3250800164000200140002101400022014090F82020012A07D0022A05D0416A41F48021416267
S3250800166001207047006842690A43426100207047F0B590F820500468A468012D05D0022D63
S3250800168003D0416A41F480215DE014F0406F01D1E50055D5C4F30164022C03D9416A41F411
S325080016A0000150E00125A5401D608B684FF4C0759BB1CE6833434E6843EAC603066805EBF6
S325080016C00417F3514FF4C273076803EB04130E69FE50097D012905D009E00E88CB6843EA88
S325080016E04653EBE70168CE5846F48076CE501179D379567941EA036193791B0443EA0623DF
S3250800170019434FF4C676036806EB041699511178D37841EA0361937852781B0443EA0222D8
S3250800172011434FF4C473026803EB0413D150006805EB0411425842F0010242500020F0BDA2
S32508001740416A41F4001141620120F0BD10B590F82020012A07D0022A05D0416A41F4802108
S325080017604162012010BD3B48D0F8002242F00102C0F80022D0F8002222F47C52C0F80022A6
S32508001780D0F800224B6A42EA0322C0F800220A7D02F01F0301229A40D0F81C329343C0F835
S325080017A01C32CB69B3B9D0F80C329343C0F80C328C894B6864F31F434C6900EBC404C4F8B6
S325080017C040320C890B6864F31F434C6900EBC404C4F84432CB69012B16D1D0F80C3213438B
S325080017E0C0F80C320C884B6864F31F434C6900EBC404C4F840320C89CB6864F31F434C6919
S3250800180000EBC404C4F844328B69002BD0F804320ED01343C0F804320B69002BD0F81432E9
S3250800182008D01343C0F81432096A012904D008E09343EFE79343F5E7D0F81C121143C0F8B5
S325080018401C12D0F8001221F00101C0F80012002010BD000000640040704730B590F8204080
S32508001860012C05D0022C03D0416A41F480215DE00468002955D02469A40754D04FF4D874F4
S32508001880056804EB01142D5915F00405956005682D594ED0ED08556005682C5904F0020499
S325080018A0D4604FF4DA74056804EB01142D5905F00F05156105682D59C5F3072595610568A5
S325080018C02C59240C54614FF4DC72046802EB0112A4581C700468A458240A5C700468A45841
S325080018E0240C9C700468A258120EDA704FF4DE72046802EB0112A4581C710468A458240AB0
S325080019005C710468A458240C9C710468A258120EDA71006881B1016941F02001016100209E
S3250800192030BDE468A8E7416A41F400114162012030BD6D0D1560AFE7C16841F02001C1600E
S32508001940EDE72DE9F05F0546006800244669D0F804908768D0F80CB0D0F810A0D0F8188013
S32508001960F10748D0F90714D001218160B80703D5284600F0E0F90CE0780702D54FF40064AB
S3250800198007E0380702D54FF4805402E0284600F0D1F9F80516D529684FF480708860B805CA
S325080019A003D5284600F0C9F90CE0780502D544F4005407E0380502D544F4804402E028460E
S325080019C000F0BAF9F80316D529684FF480308860B80303D5284600F0B2F90CE0780302D52A
S325080019E044F4004407E0380302D544F4803402E0284600F0A3F9300707D55FEACB6004D53C
S32508001A002968102044F40074C86070074FF0080707D55FEA0B7004D52868C760284600F0D0
S32508001A2059F9B00706D52868C068800702D0284600F051F9700607D55FEACA6004D52968CC
S32508001A40102044F480640861B00607D55FEA0A7004D528680761284600F03EF9F00606D537
S32508001A6028680069800702D0284600F036F9B00308D55FEAC96005D52968102048602846C6
S32508001A8000F02CF9F00307D55FEA097004D528684760284600F054F9300446D55FEA497086
S32508001AA040D5F00504D55FEAC87001D044F00104B00504D55FEA887001D544F00204700556
S32508001AC004D55FEA487001D544F00404300529D518F0700F26D008F07000402815D006DCC5
S32508001AE0102809D020280AD0302816D10AE050280ED0602811D10EE044F008040DE044F06D
S32508001B0010040AE044F0200407E044F0400404E044F0800401E044F480742868816921F0CE
S32508001B2070018161296804204860002C05D0686A204368622846FFF78FFEBDE8F09F70B59D
S32508001B40040003D094F8200010B104E0012070BD204600F081F82068016841F001010160AD
S32508001B6000F066FA0546052604E000F061FA401B0A2811D820684068C007F6D0206801683E
S32508001B8021F00201016000F053FA05460BE000F04FFA401B0A2806D9606A40F400306062BA
S32508001BA084F82060D2E7206840688007EFD4207E0128206801683DD021F080010160607E52
S32508001BC001282068016838D021F040010160A07E01282068016833D021F020010160E07EF6
S32508001BE00128206801682ED041F010010160207F01282068016829D021F008010160607F10
S32508001C0001282068016824D021F004010160D4E902010843D4E90412114308436168491E84
S32508001C2008432168C86100206062012084F82000002070BD41F08001C0E741F04001C5E736
S32508001C4041F02001CAE721F01001CFE741F00801D4E741F00401D9E710B586B00446142136
S32508001C606846FEF717FB18492068884229D117480021026842F000720260006800F000703C
S32508001C80059012481038026842F002020260006800F0020005904FF4407000900220CDE9B3
S32508001CA0010103200390092004906946084800F0D9F801221146142000F02AFA142000F0FB
S32508001CC019FA06B010BD00000064004040380240000402407047704770477047704770B504
S32508001CE0044690F82000012804D0606A40F40020606217E0022084F820002068016821F050
S32508001D000101016000F094F905460DE000F090F9401B0A2808D9606A40F4003060620520A1
S32508001D2084F82000012070BD20684068C007EDD1606270BD704770477047704770477047BD
S32508001D4070472DE9F0410446876D00F071F9054694F835000026022806D08020606584F8CC
S32508001D6034600120BDE8F0812068016821F0160101602068416921F080014161206C08B95D
S32508001D80A06C20B12068016821F0080101602068016821F0010101600CE000F049F9401B0E
S32508001DA0052807D920206065032084F8350084F83460D7E720680068C007EED194F85C10F3
S32508001DC03F208840B860012084F8350084F834600020C7E790F83510022903D080214165F4
S32508001DE001207047052180F835100068016821F0010101600020704770B5044600F018F98E
S32508001E000546601C02D004480078044400F010F9401BA042FAD370BD6000002000EB400133
S32508001E20C1EBC0104FF6FF7101EAC000AFF3008070B54FF6FA710A4D081A84B228684462DC
S32508001E40284600F0A5FF4FF6F971286801E0426A94B28C42FBD3BDE87040014801F014B869
S32508001E60940D00202DE9F84FDFF890910022A9F1040B03274FF00F0C09F1040AABF1040E39
S32508001E8001250B6895402B40AB426ED10C7904F00304012C01D0022C15D18668540007FA5A
S32508001EA004F826EA0806D1F80C8008FA04F848EA0608C0F808804468AC430D79C5F3001539
S32508001EC09540254345600C79E443A40708D0C568540007FA04F6B5438E68A6402E43C660FC
S32508001EE00C7904F00304022C11D1D40800EB8406356A5407E40E0CFA04F825EA0805D1F820
S32508001F00108008FA04F848EA0508C6F820800568540007FA04F6B5430E7906F00306A64068
S32508001F202E4306604C6814F4403F61D0344C256845F480452560246822F0030504F480445E
S32508001F400094304C05EB0408D8F808589407260F0CFA06F4A5432C4CA04201D100241FE030
S32508001F602A4CA04202D101241AE041E0284CA04201D1022414E0274CA04201D103240FE069
S32508001F80254CA04201D104240AE0244CA04201D1052405E0224CA04201D1062400E0072473
S32508001FA0B4402C43C8F80848D9F800404D464E689C43F60200D51C432C60DAF80040554602
S32508001FC04E689C43B60200D51C432C60DBF800405D464E689C43B60300D51C432C60DEF84C
S32508001FE0004075464E689C43F60300D51C432C60521C102AFFF444AFBDE8F88F083C01404B
S325080020004438024000300140000002400004024000080240000C02400010024000140240BB
S32508002020001802400AB1816170470904FBE70000014880687047000060000020024881685A
S325080020400278114481607047600000200B4810B5016841F400710160016841F48061016023
S32508002060016841F480710160032000F071F8002000F006F800F024F8002010BD003C024061
S3250800208070B50D4D04464FF47A712878B1FBF0F00A490968B1FBF0F000F021FD48B9102C74
S325080020A007D200222146501E00F032F800206C6070BD012070BD0000600000206C000020B5
S325080020C00B4882B0016841F480410160006800F4804000900648001F016841F080510160C8
S325080020E0006800F080500090052002B000F030B844380240002809DB00F01F02012191409D
S325080021004009800000F1E020C0F8001170470000F0B40E4B1B68C3F30223C3F10704042C2D
S3250800212000D904241D1D072D01D2002300E0DB1E012606FA04F56D1E0D409D409E40761E0C
S32508002140164045EA0601F0BC02F04BBC0CED00E0064A00F0070110684FF6FF03184040EADE
S325080021600120034908431060704700000CED00E00000FA05BFF34F8F05480168054A01F410
S32508002180E06111430160BFF34F8F00BFFDE700000CED00E00400FA052DE9F8431748016813
S325080021A041F0805101600068DFF8548000F0805001270090C8F84070FFF73AFF04464FF4F7
S325080021C07A75104E04E0FFF733FF001BA8420DD87068C003F7D5C8F84470FFF729FF04466B
S325080021E007E0FFF725FF001BA84202D90320BDE8F88370688003F4D50020F8E740380240D0
S3250800220000000E42007000402DE9F0470D46040065D0DFF81491D9F80000EFB200F00F00EA
S32508002220A84207D289F80070D9F8000000F00F00A84254D120683D4E810712D5400703D55C
S32508002240306840F4E05030602078000703D5306840F4604030603068A16820F0F000084385
S3250800226030602078C0072DD0304960680839012812D0022813D0032811D009688907002994
S325080022802DDA316821F0030101433160FFF7D0FE804641F2883A0EE009688903EFE70968F5
S325080022A08901ECE7FFF7C4FEA0EB0801514502D90320BDE8F0873068616800F00C00B0EBBF
S325080022C0810FEFD1D9F80010484601F00F01A94207D90770006800F00F00A84201D00120AB
S325080022E0E7E72078400705D53068E16820F4E050084330602078000706D53068216920F499
S32508002300604040EAC100306000F038F83168084AC1F30311515CC84006490860064800689F
S32508002320FFF7AEFE0020C4E7003C02400838024048A500086C000020640000200448054983
S3250800234000680968044AC1F38221515CC84070476C0000200838024058A5000804480549D8
S3250800236000680968044AC1F34231515CC84070476C0000200838024058A50008224810B553
S32508002380006810F00C01214815D04310042911D01D4C241F08290FD00C290CD1216801F0C3
S325080023A03F022168490221D52068C0F38810A0FB030120E0184610BD216801F03F02216823
S325080023C0490205D52068C0F38810A0FB030104E02168C1F38811A1FB00010023FDF710FFDB
S325080023E02168C1F30141491C49000AE02168C1F38811A1FB00010023FDF702FF2168C1F3F0
S325080024000271B0FBF1F010BD083802400024F4002DE9F84F040078D02078DB4EC007A6F180
S3250800242004054ED0301D0168C1F3810101290FD00168C1F38101022902D13168490207D416
S325080024400068C0F38100032809D13068400206D52868800335D560680028DCD031E0606886
S32508002460B0F5803F10D0B0F5A02F286810D020F480302860286820F4802028606068A0B1F5
S32508002480FFF7D6FD07460CE0286840F48030F4E740F480202860F7E7FFF7CAFDC01B64287F
S325080024A075D828688003F7D50BE0FFF7C1FD074604E0FFF7BDFDC01B6428F1D8286880031F
S325080024C0F7D42078DFF8C4A280074FF0000B44D5AD48001D016811F00C0F0FD00168C1F3D1
S325080024E08101022902D13168490207D50068C0F3810003280AD13068400207D42868800720
S3250800250015D5E068012800D111E038E1E068B0B10120CAF80000FFF78BFD074604E0FFF746
S3250800252087FDC01B0228BBD828688007F7D52868216920F0F80040EAC10028600DE0CAF84A
S3250800254000B0FFF775FD074604E0FFF771FDC01B02281CD828688007F7D42078000726D54B
S32508002560DFF824828A48616908F1700881B101210160FFF75DFD074604E0FFF759FDC01B66
S32508002580022804D8D8F800008007F6D50FE089E0C0F800B0FFF74CFD074604E0FFF748FD9A
S325080025A0C01B02287ED8D8F800008007F6D42078400769D574484FF000093C300068C000DC
S325080025C00BD471483C30016841F08051016000684FF0010900F0805000906E480168C9052F
S325080025E011D40168804641F480710160FFF720FD074604E0FFF71CFDC01B022852D8D8F8E0
S325080026000000C005F6D5604FA0686C3701280FD00528386810D020F001003860386820F0B4
S3250800262004003860A068B8B1FFF702FD80460FE0386840F00100F4E740F004003860F7E77F
S32508002640FFF7F6FCA0EB080141F28830814263D838688007F4D50EE0FFF7EAFC804607E0A0
S32508002660FFF7E6FCA0EB080141F28830814253D838688007F4D4B9F1000F05D042483C3094
S32508002680016821F080510160A069B0B33E49091D0968C1F38101022945D00228CAF860B084
S325080026A005D000E038E0FFF7C3FC044637E0FFF7BFFC074604E0FFF7BBFCC01B02282BD892
S325080026C028688001F7D4F4E907010843E168324A490802EB0141A26841EA82110843217CEB
S325080026E040EA0160217D40EA017030600120CAF86000FFF79DFC044605E042E0FFF798FCCB
S32508002700001B022808D828688001F7D539E0FFF78FFC001B022802D90320BDE8F88F286810
S325080027208001F4D42DE00128F7D03068E26900F48001914223D1226A00F03F0191421ED1A8
S3250800274047F6C071626A0140B1EB821F17D1A26A4FF0FF3300F4403103EB5202B1EB024FBA
S325080027600DD194F82C2000F07061B1EB026F06D194F8301000F0E040B0EB017F01D0012007
S32508002780CBE70020C9E700000438024000004742800E4742007000400000FFFF70B50400B4
S325080027A009D0606A002540B125616561A56294F8510040B10CE0012070BD6068B0F5827F89
S325080027C0F4D0E561F2E784F85050204600F044F8022084F851002068016821F040010160C7
S325080027E0A088218900F4827001F404410843A18901F400610843217C01F002010843217D49
S3250800280001F001010843218B01F400710843217F01F03801084394F8201001F08001084381
S32508002820218D01F40051084321680860A069042101EA104094F8241001F01001084321685B
S3250800284048602068C16921F40061C1616565012084F85100002070BD30B587B004461421D8
S325080028606846FDF717FD224D20680024214902220323A8421AD11F481430056845F48055CA
S325080028800560006800F480500590086840F0010008600868694600F001000590E0208DE8E1
S325080028A015000520CDE9033013481DE0134DA8421CD110481030056845F400450560006808
S325080028C000F400400590086840F0040008600868694600F0040005904FF4E0508DE8150070
S325080028E00620CDE903300648FFF7BCFA07B030BD003001403038024000000240003C004044
S32508002900000802402DE9F84F044690F8500001250A9E1F4692468B464FF0000801280ED0B6
S32508002920012084F85000FFF783FB814694F85100616801280CD0B1F5827F07D102E0022033
S32508002940BDE8F88FA16809B9042801D00220B6E0BBF1000F27D0BAF1000F24D01FB394F8FF
S325080029605100042802D0052084F8510000206065C4F838A0E787A787C4F830B0E786A786BD
S325080029802064606420680168490603D4016841F040010160E068B0F5006F606805D0E8B3FA
S325080029A0012F43D079E0012089E008B1012F34D1206B21680088C860206B801C2063E08E19
S325080029C0401EE08629E02068816889070DD5E18E59B1012D09D1216B0988C160206B801C53
S325080029E02063E08E401EE086002520688168C9070BD0E18F49B1C068A16B0880A06B801C06
S32508002A00A063E08F401EE0870125FFF711FBA0EB0900B04201D3701C50D100E006E0E08E0E
S32508002A200028D0D1E08F0028CDD13CE0206B216800780873206B401C2063E08E401EE086CB
S32508002A402BE02068816889070DD5E18E59B1012D09D1216B09780173206B401C2063E08EA0
S32508002A60401EE086002520688168C9070BD0E18F49B1C068A16B0870A06B401CA063E08F54
S32508002A80401EE0870125FFF7D3FAA0EB0900B04202D3701C01D011E086B1E08E0028D0D163
S32508002AA0E08F0028CDD14A463146204601F0DEF938B120204FF00108606508E00320804697
S32508002AC005E0A06818B92068C16880680090012084F85100002084F85000404630E710B5C5
S32508002AE0401EB0F1807F01D3012010BD4FF0E02460610F21601701F074FF0020A0610720B1
S32508002B002061002010BD7047704710B590F83C20012A22D0012280F83C20CA688C6822F4D2
S32508002B20407222434C6822F4806222430C6822F4006222430C6922F4805222434C6922F481
S32508002B4000522243C969002322F480420A4301684A6480F83C30002010BD022010BD00005F
S32508002B6070B590F83C20012A32D0012580F83C50022280F83D2002685368946823F0700644
S32508002B800B6833435360134B02689A4214D0B2F1804F11D0104B9A420ED0104B9A420BD089
S32508002BA00F4B9A4208D00F4B9A4205D00E4B9A4202D00E4B9A4204D1496824F08003194339
S32508002BC0916080F83D50002180F83C10084670BD022070BD00000140000400400008004075
S32508002BE0000C004000040140004001400018004010B5044649B104290AD008290BD094F8B5
S32508002C00450001280AD0012010BD94F84200F8E794F84300F5E794F84400F2E7022091B309
S32508002C20042934D0082935D084F845000422206801F0CFFB2068416C41F400414164174945
S32508002C402068884214D0B0F1804F11D0144988420ED0144988420BD01349884208D013497E
S32508002C60884205D01249884202D01249884204D1816801F00701062903D0016841F0010136
S32508002C800160002010BDFFE784F84200CEE784F84300CBE784F84400C8E70000000001405E
S32508002CA00004004000080040000C004000040140004001400018004010B5040003D094F8E8
S32508002CC03D0010B107E0012010BD002084F83C00204600F01FF8022084F83D00211D20682D
S32508002CE001F006FB012084F8460084F83E0084F83F0084F8400084F8410084F8420084F8C9
S32508002D00430084F8440084F8450084F83D00002010BD000008B500681A4988420FD11A48A7
S32508002D20016841F0010101600068012200F00100009000211920FFF7EBF919201EE01249B6
S32508002D40091FB0F1804F0BD0104A904207D1086840F010000860086800F01000009008BD11
S32508002D60086840F0010008600868022200F00100009001211C20FFF7CBF91C20BDE80840E6
S32508002D80FFF7B8B900000140443802400010004090F83D10012901D001207047022180F82C
S32508002DA03D1000681149884214D0B0F1804F11D00F4988420ED00F4988420BD00E498842D9
S32508002DC008D00E49884205D00D49884202D00D49884204D1816801F00701062903D00168E3
S32508002DE041F001010160002070470000000001400004004000080040000C004000040140FC
S32508002E00004001400018004090F83D10012901D001207047022180F83D100168CA6842F06E
S32508002E200102CA6000681149884214D0B0F1804F11D00F4988420ED00E4988420BD00E4943
S32508002E40884208D00D49884205D00D49884202D00C49884204D1816801F00701062903D003
S32508002E60016841F00101016000207047000001400004004000080040000C00400004014012
S32508002E80004001400018004001680A6A41F211131A4207D10A6A9B101A4203D10A6822F010
S32508002EA001020A60012180F83D100020704770B5044690F83C000025012817D0012684F8CE
S32508002EC03C60022084F83D002068826822F0770222F47F4282600868502838D00DDC202896
S32508002EE04FD005DC90B3102811D14AE0022070BD302846D040280AD13BE060282FD0702803
S32508002F000DD0B0F5805F03D0B0F5005F12D0012584F83D60002084F83C00284670BDCB68A4
S32508002F20D1E90121206801F061FA2068816841F0770109E0CB68D1E90121206801F056FAF8
S32508002F402068816841F480418160E1E719E0CA684968206801F01EFB5021206806E0CA68D4
S32508002F604968206801F027FB6021206801F048FACEE7CA684968206801F00CFB40212068BA
S32508002F80F4E7226801461046F0E7704770B50446006801694FF00005C943890715D4C16860
S32508002FA0C943890711D4E91E016101202077206880698007204602D0FFF7E7FF04E000F081
S32508002FC0D9F8204600F06BF9257720680169C943490717D4C168C943490713D46FF00401B3
S32508002FE00161022020772068806910F4407F204602D0FFF7CAFF04E000F0BCF8204600F09F
S325080030004EF9257720680169C943090716D4C168C943090712D46FF0080101610420207717
S325080030202068C0698007204602D0FFF7AEFF04E000F0A0F8204600F032F9257720680169F4
S32508003040C943C90617D4C168C943C90613D46FF010010161082020772068C06910F4407FAC
S32508003060204602D0FFF791FF04E000F083F8204600F015F9257720680169C943C90708D18E
S32508003080C168C943C90704D1891E0161204600F06FF920680169C943090609D4C168C94362
S325080030A0090605D46FF0800101612046FFF72BFD20680169C943490609D4C168C9434906A6
S325080030C005D46FF040010161204600F052F920680169C94389060BD4C168C943890607D45B
S325080030E06FF0200101612046BDE87040FFF70CBD70BD000070B586B0044614216846FDF7BD
S32508003100C9F81849206888422AD117480024016841F002010160016801F002010591016855
S3250800312041F0010101600068022600F0010005904FF460400090CDE90164012569460B4821
S32508003140CDE90345FEF78EFE4FF4E060CDE900060320CDE90240694604950548FEF782FE7E
S3250800316006B070BD00000140303802400004024000000240704770B5044690F83C000026DB
S325080031800D4601280FD0012084F83C006AB1042A1DD0082A2FD00C2A3FD00126002084F87E
S325080031A03C00304670BD022070BD206801F030F92068816941F0080181612068816921F020
S325080031C004018161206881692A69114311E0206801F04EF92068816941F40061816120687E
S325080031E0816921F480618161206881692A6941EA02218161D2E7206801F070F92068C1697D
S3250800320041F00801C1612068C16921F00401C1612068C1692A69114311E0206801F092F9CC
S325080032202068C16941F40061C1612068C16921F48061C1612068C1692A6941EA0221C16197
S32508003240ACE710B5040003D094F83D0010B107E0012010BD002084F83C00204600F01EF88E
S32508003260022084F83D00211D206801F041F8012084F8460084F83E0084F83F0084F8400061
S3250800328084F8410084F8420084F8430084F8440084F8450084F83D00002010BD7047704751
S325080032A010B5044649B104290AD008290BD094F8410001280AD0012010BD94F83E00F8E77D
S325080032C094F83F00F5E794F84000F2E70220B1B3042938D0082939D084F841000122206837
S325080032E001F06AF81B4920681B4A884201D0904203D1436C43F4004343642068884213D0D6
S32508003300B0F1804F10D0154988420DD0144988420AD01449884207D0904205D0124988427F
S3250800332002D01249884204D1816801F00701062903D0016841F001010160002010BDFFE7FF
S3250800334084F83E00CAE784F83F00C7E784F84000C4E700000000014000040140000400405A
S3250800336000080040000C004000400140001800407047704770477047F8B501680446086826
S32508003380CA684B6910F00F0F4FF0000559D003F0010602F49077374365D0C10705D0D10595
S325080033A003D5216C41F001012164410705D5D90703D0216C41F002012164810705D5D90785
S325080033C003D0216C41F004012164010707D502F02001314303D0216C41F008012164216CAD
S325080033E000293AD0800604D5900602D5204601F023F920684069216CC0F38010090700D468
S3250800340060B3204601F0F1F820684069400621D52068143050E8001F21F0400140E800122F
S32508003420002AF5D1A06BA8B16C490165A06BFEF7D1FC002811D0A06B016D01B0BDE8F0403A
S32508003440084783060FD593060DD52046BDE8F84001F0F2B82046FFF78EFFF8BD2046FFF74F
S325080034608AFF2564F8BD266B2023012E79D1C60677D5D60675D50868486800904869400645
S3250800348040D5A16B086840680004000CEAD0A28D8242E7D9E085C869B0F5807F2DD02068A9
S325080034A00C3050E8001F21F4807140E80012002AF5D12068143050E8001F21F0010140E8DD
S325080034C00012002AF5D12068143050E8001F21F0400140E80012002AF5D184F83E302563CB
S325080034E020680C3050E8001F21F0100140E80012002AF5D1A06BFEF724FCA08DE18D401A42
S3250800350081B229E0A08DE18D401A81B2E08D0028A8D00029A6D020680C3050E8002F22F44C
S32508003520907240E80026002EF5D12068143050E8002F22F0010240E80026002EF5D184F833
S325080035403E30256320680C3050E8002F22F0100240E80023002BF5D12046FFF70BFFF8BDC1
S32508003560FFE705062BD5150629D594F83D002128F5D1A068B0F5805F01D12069B0B1206A89
S32508003580411C2162216800784860E08C401E0004000CE084E3D12068C16821F08001C1603E
S325080035A02068C16841F04001C160D8E7206A0088C0F308004860206A801C2062E5E74006CB
S325080035C0CDD55006CBD5CA68204622F04002CA6084F83D3000F0F0F8C1E70000DB4500089E
S325080035E070B5040004D094F83D00002510B106E0012070BD84F83C50204600F023F8242020
S3250800360084F83D002068C16821F40051C160204601F072F82068016921F490410161206828
S32508003620416921F02A0141612068C16841F40051C1602564202084F83D0084F83E00002040
S3250800364070BD000010B586B0044614216846FCF721FE1E492068884235D11D480021026846
S3250800366042F400320260006800F40030059018481038026842F001020260006800F001004F
S3250800368005900C2000900220CDE9010103900720049069460F48FEF7E5FB01221146262008
S325080036A0FEF736FD2620FEF725FD0B480068C16841F02001C160022200212620FEF728FD7B
S325080036C02620FEF717FD06B010BD0000004400404038024000000240DC0D002090F83E308B
S325080036E0202B0ED159B152B190F83C30012B08D0012380F83C300023036301F083B80120AF
S3250800370070470220704770472DE9F843044690F83D001F4615460E4620284BD1C6B1BDB197
S3250800372094F83C00012845D0012084F83C004FF00008C4F84080212084F83D00FEF778FC76
S32508003740A5848146E584A068B0F5805F03D004E00120BDE8F883206920B13546002684F807
S325080037603C800EE00025FAE78021204601F067F8A0B9ADB115F8010B21684860E08C401E69
S32508003780E084E08C4B464FF0000200970028EBD14FF04001204601F052F830B10320D8E71A
S325080037A036F8020BC0F30800E6E7202084F83D000020CEE70220CCE77047FEE713488068B6
S325080037C0002821D0124A1149124B106A891C984203DD0B8843F001030B800F4B984203DA70
S325080037E0088840F0020008800C4BD068984203DD088840F0080008801069094A904203DD5A
S32508003800088840F01000088070470000000000208008002000001842000040410000C842DE
S325080038200000F042F8B50D4E3088B41E2188884212D02088A51E28B1FDF782FB0020A86084
S325080038400120E860208830806888ADF800000098BDE8F840FDF71ABAF8BD000004000020EE
S3250800386070B58CB00024089409940A94202168460B94FCF70FFD1F481D494FF4803601602A
S32508003880C0E901640461047680F820401A49C0E90A140125C561C46080F830404561FDF739
S325080038A0ACFD08B1FDF7A1FA0820CDE9080508A90A941048FDF7ECFC08B1FDF796FA0A2034
S325080038C0CDE900054FF480100294CDE906608DF8154004958DF81440694606480394FDF7C6
S325080038E06FFB002801D0FDF780FA0CB070BD000000200140540B00200100000F70B58CB0AF
S325080039000024089409940A94202168460B94FCF7C1FC1F481D494FF480360160C0E901642B
S325080039200461047680F820401A49C0E90A140125C561C46080F830404561FDF75EFD08B192
S32508003940FDF753FA0920CDE9080508A90A941048FDF79EFC08B1FDF748FA0B20CDE9000522
S325080039604FF480100294CDE906608DF8154004958DF81440694606480394FDF721FB00289C
S3250800398001D0FDF732FA0CB070BD0000002101409C0B00200100000F7FB5002415480094BD
S325080039A0019402941249039401604FF48031C0E901140461047680F820400F49C0E90A14F3
S325080039C00125C561C46080F830404561FDF715FD08B1FDF70AFACDE9004569460548029497
S325080039E0FDF756FC002801D0FDF7FFF97FBD000000220140E40B00200100000F104810B5B3
S32508003A000E4901600521416000214FF4A0228160C0E903124FF480124261017641768176B7
S32508003A200122C27601774177FEF789F8002803D0BDE81040FDF7D9B910BD00000064004090
S32508003A402C0C00202DE9F04186B014216846FCF721FC23480025016841F08001016001681B
S32508003A6001F080010591016841F004010160016801F004010591016841F0010101600168D5
S32508003A8001F001010591016841F0020101600068144E00F0020048F2100405900022214669
S32508003AA03046FEF7BFFADFF84080002240214046FEF7B8FA0127CDE900470224CDE9025436
S32508003AC069463046FEF7CEF94020CDE9000769464046CDE90245FEF7C5F906B0BDE8F08129
S32508003AE0303802400000024000040240104810B50E4901604FF48271416000214FF4006214
S32508003B00C0E9021292100161C0E905120822C0E90721416281620A21C162FEF73FFE0028ED
S32508003B2003D0BDE81040FDF760B910BD00300140540C0020104810B50E4901604FF48271D9
S32508003B40416000214FF40062C0E902120122C0E904125202C0E906210162416281620A2119
S32508003B60C162FEF71BFE002803D0BDE81040FDF73CB910BD003C0040AC0C002030B595B0E2
S32508003B8000240F9410941194129413941C2168461494FCF77FFB202107A8FCF77BFB3A48DF
S32508003BA03849C0E900142021816040F60F61C0E903140121416180218161FFF77DF808B1C6
S32508003BC0FDF713F94FF480500F900FA92E48FFF76EF908B1FDF709F92B48FFF732FB08B19C
S32508003BE0FDF703F97025CDE9135413A92648FEF7B7FF08B1FDF7F9F8602000904FF4E1600E
S32508003C00CDE901040420CDE903400594002269461D480694FFF7AFFA08B1FDF7E6F8042205
S32508003C2069461948FFF7A7FA08B1FDF7DEF8082269461548FFF79FFA08B1FDF7D6F840F6D6
S32508003C400D60CDE900500C2269460F48FFF793FA08B1FDF7CAF807945A200894CDE909400D
S32508003C604FF40050CDE90B4007A907480E94FEF74CFF08B1FDF7B9F80348FFF73BFA15B028
S32508003C8030BD000000000140040D002010B586B000241648009401940294039404944FF00D
S32508003CA08041059401605921C0E9011440F2E731C0E903148461FEF7FFFF08B1FDF795F8E7
S32508003CC04FF48050009069460848FFF7F0F808B1FDF78BF8049404A904480594FEF740FFC8
S32508003CE0002801D0FDF781F806B010BD4C0D00201CB500240E4800940C49019401605921B0
S32508003D00C0E901144FF6FF718461C160FEF7D4FF08B1FDF76AF80094694605480194FEF72B
S32508003D201FFF002801D0FDF760F81CBD00100040940D00200C4810B50A4901604FF47A316D
S32508003D404160002181600C22C160C0E904128161C161FFF745FC002803D0BDE81040FDF785
S32508003D6044B810BD00440040DC0D0020FEE7704708490868426C22F40042426408686FF007
S32508003D800102026108680169C943C907FBD1026170470000040D0020294A10B51068C16A07
S32508003DA000EE101AF8EE400AB6EE000A60EE800AFCEEE00A10EE901A41631068C16A00EE76
S32508003DC0901AF8EE600A60EE800AFCEEE00A10EE901A81631068C16A00EE901AF8EE600A18
S32508003DE020EE800ABCEEC00A10EE101AC16310686FF00103036110680169C943C907FBD194
S32508003E0003611068416C41F40041416400210C48FFF746FA00210A48FEF7EAFE0421084880
S32508003E20FFF73EFA04210648FEF7E2FE08210448FFF736FABDE8104008210148FEF7D8BE71
S32508003E40040D00207047000007489FED060A80ED2A0A80ED2B0A80ED2E0A80ED2C0A80ED89
S32508003E602D0A7047000000008008002038B504461248134D4FF47A730068B0FBF5F05843EA
S32508003E8000906068B0F5827F0DD10B46009200228021204600F016F870B1606D40F02000F0
S32508003EA06065032038BD009830B1401E009020688068C0430006F6D5002038BD6C000020CB
S32508003EC000366E012DE9F8431E46914688460446089DFEF7ADF8401B351AFEF7A9F80746BF
S32508003EE025480068C0F3CB30684338E0701C37D0FEF79EF8C01BA84203D215B1009860B345
S32508003F002CE02068416821F0E00141606068B0F5827F0BD1A068B0F5004F02D0B0F5806F17
S32508003F2004D12068016821F040010160A06AB0F5005F09D12068016821F4005101602068D2
S32508003F40016841F400510160012084F85100002084F850000320BDE8F8830025401E0090D3
S32508003F602068816838EA010004D000204845BDD10020F0E70120F9E76C0000207047FEF760
S32508003F805DB8000030B593B034216846FCF782F914210DA8FCF77EF91A480025016841F0F0
S32508003FA080510160006800F0805012901648016841F4404101600068022400F44040129075
S32508003FC001200090000401908001CDE9064004200890B420CDE909040B9468460C94FEF7DB
S32508003FE017FAFEF7D9F80DA90F2081E831004FF4A0501090E002119005210DA8FEF704F93A
S3250800400013B030BD40380240007000400548016841F47001016003494FF0006080390860AF
S325080040207047000088ED00E010B501212F48FDF7A7F82F4C012120602E48FDF7A1F82E49DE
S325080040406060D4F884200968DFED2C0A00292168A1EB020100EE101AB8EEC00A20EE200AAE
S3250800406084ED050AD4F88810A0EB010001EE100AB8EEC11A61EE200A08D0B1EE400AC4ED4D
S32508004080060A30EE600A84ED070A07E0B1EE400AC4ED070A30EE600A84ED060A9FED180AAF
S325080040A0184804F0FBFD1748174990ED030A84ED0C0AD0ED060A91ED070A80EE801A84ED01
S325080040C00B1AD0ED040A80EE801A84ED0D1A90ED050A84ED0E0A303405F08AF9E06E401CA7
S325080040E0E066BDE810400948FEF750BF540B0020800800209C0B0020180200200000A53C19
S32508004100ACC527382C06002018010020040D002010B562482DED0E8BFDF71AFA6048FDF73F
S3250800412017FA6048FDF714FA5E48FDF763F900EE100A5D4CB8EEC00ADFED5C0AA06060EE1F
S32508004140200A94ED080A70EE600ADFED59DA544800EEED0A84ED080AFDF74CF900EE100A88
S32508004160B8EE400ADFED538A20EE280A9FED529A4A4820EE098AFDF73DF938EEC81A00EE8D
S32508004180100AC8EE010AB8EE400A20EE280A20EE090A9FED4ADA38EEC01A21EE0D1A60EEB1
S325080041A08D0A81EE00EA80EE8D0A10EE100AFCF704FA41EC100B00F0B7FC9FED418B51EC73
S325080041C0100B53EC182BFCF789F99FED3F9B53EC192BFCF76AF841EC100B9FED3DAB53EC86
S325080041E0102B51EC1A0BFCF779F99FED3BBB53EC1B2BFCF7FBF89FED3ACB53EC1C2BFCF7B8
S3250800420054F8FCF7EDF98EEE0D0A0EEE900A10EE100AFCF7D2F941EC100B00F085FC53EC74
S32508004220182B51EC100BFCF759F953EC192BFCF73CF841EC100B51EC1A0B53EC102BFCF7CF
S325080042404DF953EC1B2BFCF7D1F853EC1C2BFCF72CF8FCF7C5F994ED030A00EE900A30EE47
S325080042606E1A01EE6D0A84ED030A94ED040A70EE600A00EEED0A84ED040A1B4C207818B141
S3250800428005F00AFA00202070FFF798FABDEC0E8BBDE810401548FEF779BE0000540B0020A0
S325080042A09C0B0020E40B0020800800200303883C0AD7233C333353400000803900401C4614
S325080042C0000000000058AB40000000E0E1796B3F000000000000F03F0000006066127140F1
S325080042E0000000000000E03F5C0000204C0D0020F0B50268254D264E264FDFF89CC0274B8D
S325080043004FF0804EA84209D0704507D0B04205D0B84203D0604501D0984203D122F07004F5
S325080043204A682243A8421BD0704519D0B04217D0B84215D0604513D0984211D0184CA042A4
S325080043400ED0184CA0420BD0174CA04208D0174CA04205D0164CA04202D0164CA04203D1EB
S3250800436022F44074CA6822434C6922F08002224302608A68C2620A688262A84201D09842BD
S3250800438001D10969016301214161F0BD000001400004004000080040000C00400004014098
S325080043A000400140004401400048014000180040001C00400020004010B501F01F01012352
S325080043C0046A8B409C430462036A8A401343036210BD10B501F01F010423046A8B409C437D
S325080043E00462036A8A401343036210BD10B5846842EA032224F47F440A432243826010BD4C
S32508004400826822F070020A4342F0070181607047F0B5026A22F001020262026A4368846973
S32508004420114E24F073050C68104F2C4322F002058A682A43B04201D0B84205D122F0080517
S32508004440CA682A4322F00402B04201D0B84205D14D6923F440731D438B692B43436084613A
S32508004460496841630262F0BD0000014000040140F0B5026A22F010020262026A43688469A5
S325080044800D6824F4E64444EA05248D6822F0200242EA05120F4D104EA84201D0B04206D156
S325080044A0CF6822F0800242EA071222F04002A84201D0B04207D14D6923F4406343EA8503E0
S325080044C08D6943EA850343608461496881630262F0BD00000000014000040140F0B5026A5E
S325080044E022F480720262026A4368C46922F4007224F073050C68124E2C438D6842EA05225F
S325080045000E4DA84201D0B04206D1CF6822F4006242EA072222F48062A84201D0B04207D12D
S325080045204D6923F4405343EA05138D6943EA05134360C4614968C1630262F0BD000001409E
S325080045400004014030B5026A22F480520262036A4268C4690D6824F4E64444EA05248D6824
S3250800456023F4005343EA0533084DA84202D0084DA84204D14D6922F4804242EA8512426046
S32508004580C46149680164036230BD0000000001400004014010B5046A036A23F001030362DE
S325080045A0836923F0F00343EA021324F00A020A438361026210BD10B5036A23F0100303627A
S325080045C08469036A24F4704444EA023223F0A00343EA01118261016210BD10B5806B00216C
S325080045E0C185C184FEF7C7FE10BD01680C3151E8002F22F4907241E80023002BF5D10168CF
S32508004600143151E8002F22F0010241E80023002BF5D1016B012909D101680C3151E8002F0F
S3250800462022F0100241E80023002BF5D1202180F83E1000210163704708B590F83E102229EA
S3250800464001D0022008BD81684FF48053994201D1026922B1826A99421BD049B10AE00268AA
S32508004660816A5268C2F308020A80816A891C08E0016971B10168496801F07F011170816A43
S32508004680491C8162C18D491E0904090CC18503D019E001684968F1E70168CA6822F020021A
S325080046A0CA600168CA6822F48072CA6001684A6922F001024A61202180F83E10016B01297C
S325080046C003D0FFF720F8002008BD0021016301680C3151E8002F22F0100241E80023002BD8
S325080046E0F5D101680A68D20602D50A6849680091818DFEF73FFEE6E770B50446006801695A
S32508004700E26821F4405111430161A1682069E26901436069104301432068C26849F20C6308
S325080047209A430A43C26020684169A26921F440711143416131492068884202D03049884245
S3250800474002D1FDF70BFE01E0FDF7F8FDE2690023192164253226B2F5004F626828D0A0FBD5
S325080047600101930F9200FBF74BFD0146B0FBF5F06FF01802504301EB800006EB0010B0FBC0
S32508004780F5F000F0F002B1FBF5F002EB0012B1FBF5F06FF01803584301EB800006EB0010A1
S325080047A0B0FBF5F000F00F0021681044886070BDA0FB010192185B41FBF722FD0146B0FB84
S325080047C0F5F00201B1FBF5F06FF01803584301EB800006EBC000B0FBF5F000F0F80002EBBB
S325080047E04002B1FBF5F0584301EB800006EBC000B0FBF5F000F00700D6E70000001001408B
S325080048000014014081628285C28500210164222280F83E2080F83C10016921B10168CA68C9
S3250800482042F48072CA6001684A6942F001024A610068C16841F02001C160002070472DE92B
S32508004840F0411E46174688460446069D26E0681C24D025B1FDF7ECFB801BA8421ED920686A
S325080048600C3050E8001F21F4D07140E80012002AF5D12068143050E8001F21F0010140E8B9
S325080048800012002AF5D1202084F83D0084F83E00002084F83C000320BDE8F0812068016853
S325080048A038EA010004D00020B842D0D00020F3E70120F9E738B50A4C206840688DF8000046
S325080048C00121684604F0D6F804F090FB2068C16841F02001C1602046FEF74EFD38BD0000FA
S325080048E0DC0D002010B5FCF701FBF120FCF77EFA02213020FCF780FA092804D0FCF7D0FACF
S325080049004FF0FF3010BDFCF7CBFA064806490268521C02D06FF0010010BD001D8842F6D372
S32508004920002010BD0000040800140408FEE7000010B5084C00209FED080A206284ED0A0A8D
S325080049409FED060A204604F0A9F994ED060A84ED0A0A10BD2C06002000000000ACC52738AC
S325080049600FB4054B10B503A9044A029801F05EFC10BC5DF814FB0000F17B0008700000203E
S3250800498003B401984100009850EAC12018BF04204A0D18BF40F0010040F2FF72B2EB515F7B
S325080049A008BF40F00200012808BF052002B070474100080218BF04200A0E18BF40F001000C
S325080049C04FF07F4232EA010108BF40F00200012808BF0520704720F00040C0F1FF40C00FD7
S325080049E070470907090E002804DB00F1E02080F80014704700F00F0000F1E02080F8141DF7
S32508004A007047B4EEE00AF1EE10FA01DCB0EE600A7047B4EEE00AF1EE10FA01D3B0EE600A6F
S32508004A207047000010B52DED040B86B09DED060B10EE100A10EE901A8DED000B002818BFAE
S32508004A400120084320F00040C0F17F6000F1E040C00F21D19DED080B10EE101A10EE900ACD
S32508004A608DED000B002918BF0121084320F00040C0F17F6000F1E040C00F0DD12949079887
S32508004A80B1EB400F04BF0698002842D00998400004BF089800283CD09DED080B53EC102BF3
S32508004AA09DED060B51EC100BFBF7F9FECDE902019DED020B40F2FF7110EE900A8DED000BFD
S32508004AC031EA105021D00798039900F0004001F00041884219D09DED080B8DED040B9DED5C
S32508004AE0020B8DED000B10EE900A059961F31E0005909DED041B9DED020B51EC110B53EC01
S32508004B00102BFBF776FCCDE902019DED020B0AB010BD012001F0C2FA0AB0BDE8104001F0A3
S32508004B20BFB900000000E0FF70B5D94B00242DED020B2DED108BDDE91010984205DA20F018
S32508004B4000429A4201D809D141B19DED100BBDEC108B02B0BDE8704001F08EB9B0F5801F18
S32508004B6026DA11430BD0002813DA012001F096FABDEC108B02B0BDE8704001F091B9022099
S32508004B8001F08CFA01F060F951EC100B81F000419EE06FF035049FEDC00B53EC102B9DEDCB
S32508004BA0100B51EC100BFBF727FCCDE91001084604EB2051C0F31304B948A1F2FF312044F8
S32508004BC000F4801080F07F6282F04052224301EB20559FEDB50B119253EC102B9DED100B1A
S32508004BE051EC100BFBF702FC41EC180BA01CC0F313009FEDAFDB9FEDB0EBB14E7E44032864
S32508004C006CD296ED000B51EC180B53EC102BFBF7B3FE1DD1002D01BF96ED000BBDEC108B90
S32508004C2002B070BD2846FBF77DFE41EC180B53EC1D2BFBF7E1FB41EC190B53EC1E2B51ECF1
S32508004C40180BFBF7D9FB53EC192BFBF72EFB3FE09FED9D0B51EC180B53EC102BFBF7CCFBD9
S32508004C609FED9B1B53EC112BFBF7C3FB41EC190B53EC182B51EC180BFBF7BEFB53EC192B58
S32508004C80FBF7BAFB41EC190B002D04BF53EC192B51EC180B1AD02846FBF744FE41EC1A0B5D
S32508004CA053EC1D2BFBF7A8FB53EC192BFBF7A1FB53EC182BFBF79AFB41EC180B53EC1E2BD8
S32508004CC051EC1A0BFBF798FB53EC182BFBF78EFBBDEC108B02B041EC100B70BD9FED7E0B62
S32508004CE051EC180B53EC102BFBF7DFFA41EC100B51EC180B53EC102BFBF7F0FB41EC190BB1
S32508004D002846FBF70FFE41EC1B0B53EC192B51EC190BFBF771FB41EC1A0B714853EC1A2BF4
S32508004D20261851EC1A0BFBF767FB41EC1F0B6D48C4F1510404F5D724B0EE4F0AF0EE6F0A19
S32508004D400321784401F001F853EC1F2B51EC100BFBF752FB41EC1C0B6348B0EE4F0AF0EE87
S32508004D606F0A0421784400F0F0FF53EC1A2B51EC100BFBF741FB344353EC1C2BFBF795FA64
S32508004D8041EC1C0B002C4CDD9FED510B51EC180B53EC102BFBF730FB53EC182BFBF72CFBE2
S32508004DA041EC1A0B55B353EC1D2B51EC1B0BFBF723FB41EC1D0B53EC1C2B51EC1A0BFBF762
S32508004DC074FA53EC192BFBF717FB53EC1D2BFBF76CFA53EC1A2BFBF70CFB53EC182BFBF700
S32508004DE005FB41EC180B53EC1E2B51EC1B0BFBF703FB53EC182BFBF7F9FA69E753EC1C2B3D
S32508004E0051EC1A0BFBF751FA53EC192BFBF7F4FA53EC1A2BFBF7EDFA53EC182BFBF7E9FACE
S32508004E2056E735B353EC1D2B51EC1B0BFBF7E4FA41EC1A0B53EC1C2B51EC180BFBF7D6FA8B
S32508004E4053EC192BFBF7D8FA53EC1A2BFBF7CEFA53EC182BFBF7CAFA41EC180B53EC1E2BAF
S32508004E6051EC1B0BFBF7C8FA53EC182BFBF7BEFA2EE753EC1C2B51EC180BFBF7B7FA53EC04
S32508004E80192BFBF7B9FA53EC182BFBF7B2FA1FE70000F07F000000000000000000005043F3
S32508004EA0645F090000000000000000000000F03F763C7935EF39EA3D0000E0FE422EE63FC7
S32508004EC0205A000000000000555555555555D53F000000000000E03F0000000000000040D9
S32508004EE086EBF9FF1A58000010580000000000002DE9F04D2DED040B2DED0E8B96B0DDE926
S32508004F002550279CDDF890A025F0004624F00048BAF1000F14BF0121002101EB4502FC4947
S32508004F2053184A1093422AD3002814BF0123002303EB44030B44F7498B4220D358EA0001C3
S32508004F409FEDF59B76D0DFF8D8B35D4503D1BAF1000F05D188E0BAF1000F08BF002100D09F
S32508004F60012101EB450111F5001F08D8002814BF0121002101EB440111F5001F0BD99DEDC8
S32508004F80261B9DED240B16B0BDEC0E8B04B0BDE8F04D00F07BBF0027002DBCBFE14988457B
S32508004FA021DAE1498845A8BF02271CDAC3451ADCDE4901EB2851142908DDC1F1340220FABD
S32508004FC002F101FA02F282420DD108E058B9C1F1140228FA02F101FA02F2424503D101F02E
S32508004FE00101C1F1020756EA0A0124D1002C22DA002D18BF022F01D0012F0AD0022001F05B
S325080050004DF816B0BDEC0E8B04B0BDE8F04D00F01BBF022001F042F800F016FF51EC100B2B
S3250800502081F0004141EC100B16B0BDEC0E8B04B0BDE8F08D18E09FEDBEAB9FEDBF8B00289F
S3250800504071D1B848804522D105F1804010F5801008BFBAF1000F07D0B3450ADC002CA8BF34
S325080050609DED260BE0DA0DE0B0EE490AF0EE690ADAE7002C06DA9DED260B51EC100B81F02D
S3250800508000416FE0AE48784490ED000BCCE7D8454DD1002C48DA2EB186423AD1BAF1000F90
S325080050A042D126E0BAF1000F13D0022000F0F6FF00F006FF8DED020B9DED240B8DED000B6B
S325080050C010EE900A039961F31E0003909DED020BAAE78DED02AB9DED240B1AEE901A10EED1
S325080050E0900A8DED000B61F31E0003909DED020B9AE78DED028B9DED240B18EE901A10EEF8
S32508005100900A8DED000B61F31E0003909DED020B8AE709DA9DED240B51EC190B53EC102BDE
S32508005120FBF7DCF91EE020E09DED240B7CE786421BDAB4F1804F0DD0A4F10050B0F1FF509D
S3250800514013D1002D11DB9DED240B51EC100B04F009FA07E09DED240B53EC102B51EC100BCA
S3250800516000F0C2BC41EC100B5EE79DED240B51EC100B02F0ABFCBAF1000FCDE90E0142D1EA
S325080051809FED710B46B3A6F1E040B0F17F600CD05E4538D1002D00DAA7B3022F0CBF0120C3
S325080051A04FF0FF30FBF7BEFBDCE7002D01DD002C0DDA002D01DD002C1FDB002D16DA002C6D
S325080051C014DB012F08BF9FED620B3FF42DAFB0EE4A0AF0EE6A0A27E7022F18BF002D0CD070
S325080051E0012F0AD1002DFFF61FAF06E0002DB8BF002C08DA012F3FF417AFB0EE480AF0EE17
S32508005200680A11E71BE0012000EBE57050EA070115D0791EB0EE498AF0EE698A084308BFA8
S325080052209FED4D8B4E480025804570DD4D494E48884514DDB0420DDB002C19DB2FE001201B
S3250800524000F02CFF16B0BDEC0E8B04B0BDE8F04D00F026BEB34502DC002C09DC1FE0864205
S3250800526002DA002C1BDA03E05E452BDD002C16DD022000F013FF00F023FE8DED020B53EC7B
S325080052801A2B51EC180BFBF7B7F8CDE900010399019861F31E0003909DED020BC4E6022066
S325080052A000F0FCFE00F01CFE10EE901A18EE900A8DED020B8DED008B61F31E0003909DED89
S325080052C0020BB1E69DED0E0B53EC192B51EC100BFBF78CF89FED260BCDE9080153EC102B32
S325080052E09DED080B51EC100BFBF786F89FED221B53EC112BFBF77DF89DED081B53EC112B68
S32508005300FBF77AF89FED1E1B53EC112B3CE08CE0FFFF1F00FFFF0F00000000000000F03FFA
S325080053200000F03F0000F07F0000404301FCFFFF000000000000F07F0000000000000000D4
S3250800534096550000000000000000000000000080000000000000F0FF000000000000F0BF36
S325080053600000E0410000F043FFFFEF3F00000000000000000000D03F555555555555D53F7E
S32508005380000000000000E03FFBF733F89DED080B41EC1A0B53EC102B51EC100BFBF72CF8EC
S325080053A053EC1A2BFBF728F841EC1A0B9FEDFE0B53EC102B9DED080B51EC100BFBF71CF8ED
S325080053C041EC1B0B9FEDFA0B51EC1A0B53EC102BFBF712F841EC1A0B9FEDF70B53EC102BA9
S325080053E09DED080B51EC100BFBF706F853EC1A2BFAF7FCFF41EC1A0B51EC1B0B53EC1A2B11
S32508005400FAF753FF0690CDE906519DED060B53EC1B2B51EC100BFAF7E9FF53EC1A2BFAF7D2
S32508005420E8FF41EC100B00F0A1B90020B6F5801F0EDA9FEDE30B53EC102B9DED0E0B51ECBF
S32508005440100BFAF7D9FFCDE90E016FF034000E4600EB2650A0F2FF37C6F31300DA4940F066
S325080054607F6646F040568842D8BF002408DDD7498142C8BF012403DC0024A6F580167F1CA5
S32508005480D348784400EBC4000F9690ED00CB9DED0E0B53EC1C2B51EC100BFAF7A7FF9DEDE9
S325080054A00E0B41EC1B0B53EC1C2B51EC100BFAF7FCFE41EC100B51EC190B53EC102BFBF794
S325080054C00DF841EC1D0B51EC1B0B53EC1D2BFAF793FF41EC1A0BBF488DED10AB7844109508
S325080054E090ED000B4FF0005040EA660000EB84408DED080B00F5002009909DED080B53EC31
S325080055001C2B51EC100BFAF771FF9DED0E1B53EC112BFAF76EFF41EC100B53EC102B9DEDA5
S32508005520100B51EC100BFAF767FF9DED080B41EC1C0B53EC102B9DED100B51EC100BFAF73A
S325080055405BFF53EC1B2BFAF754FF53EC1C2BFAF74DFF53EC1D2BFAF74FFF41EC1C0B53ECFE
S325080055601A2B51EC1A0BFAF747FF41EC1B0B9A480621B0EE4B0AF0EE6B0A784400F0E5FB11
S32508005580B0EE401AF0EE601AB0EE41DAF0EE61DA53EC1B2B51EC1B0BFAF72EFF53EC1D2B4E
S325080055A0FAF72AFF9DED100B41EC1B0B53EC1A2B51EC100BFAF779FE53EC1C2BFAF71CFFF5
S325080055C053EC1B2BFAF771FE9DED100B41EC1B0B53EC102B51EC100BFAF70EFF41EC1D0BBB
S325080055E09FED7FEB53EC1E2BFAF75FFE53EC1B2BFAF75BFE0890CDE908519DED080B53EC7F
S325080056001E2B51EC100BFAF7F1FE53EC1D2BFAF7EDFE53EC1B2BFAF7ECFE9DED080B41EC6E
S325080056201D0B53EC102B9DED100B51EC100BFAF7E3FE41EC1B0B53EC1A2B51EC1D0BFAF7BE
S32508005640DBFE9DED080B41EC1A0B53EC102B51EC1C0BFAF7D1FE53EC1A2BFAF726FE41EC10
S325080056601A0B51EC1B0B53EC1A2BFAF71EFE0C90CDE90C519DED0C0B53EC1B2B51EC100BD6
S32508005680FAF7B4FE53EC1A2BFAF7B3FE41EC1B0B9FED550B53EC102B9DED0C0B51EC100B81
S325080056A0FAF7AAFE41EC1A0B9FED510B51EC1B0B53EC102BFAF7A0FE41EC1B0B9FED4E0B65
S325080056C053EC102B9DED0C0B51EC100BFAF794FE53EC1B2BFAF7E9FD41EC100B48487844D6
S325080056E000EBC40090ED001B51EC100B53EC112BFAF7DBFD41EC1B0B3846FBF713F9CDE934
S32508005700080153EC1B2B51EC1A0BFAF7CEFD41EC100B3C48784400EBC40090ED00CB51EC13
S32508005720100B53EC1C2BFAF7C0FD9DED081B53EC112BFAF7BAFD0690CDE906519DED080BFC
S3250800574053EC102B9DED060B51EC100BFAF74EFE53EC1C2BFAF74AFE53EC1A2BFAF746FE19
S3250800576053EC1B2BFAF745FE41EC100B9DED261B53EC102B8DED001B00959DED260B51ECB3
S32508005780100BFAF739FE9DED000B41EC1A0B53EC102B9DED260B51EC100BFAF727FE9DEDA4
S325080057A0061B53EC112B2FE0000000604715F73FFE822B654715F73F44DF5DF80BAE543ED9
S325080057C000000000000040438E9803007AB60B0012510000405100004A5000000000000046
S325080057E00000000000000840000000E009C7EE3FFD033ADC09C7EE3FF5015B14E02F3EBEF3
S32508005800D64E0000904E0000FAF7F6FD53EC1A2BFAF74BFD9DED060B41EC1A0B53EC102B70
S325080058209DED000B51EC100BFAF7E6FDCDE90C019DED0C0B51EC1A0B53EC102BFAF735FD36
S32508005840CDE902010C46AA498C422FDB611A084318D19DED0C0B53EC102B9DED020B51ECC6
S32508005860100BFAF7C3FD41EC1B0B9FEDA30B51EC1A0B53EC102BFAF718FD53EC1B2BFBF768
S3250800588093F82DD2022000F009FC00F019FB10EE901A18EE900A8DED020B8DED008B61F32D
S325080058A01E0003909DED020BFFF7BEBB944A24F00041914214D39349214408437FF4EFAC9C
S325080058C09DED0C0B53EC102B9DED020B51EC100BFAF78CFD53EC1A2BFBF766F87FF6DFAC62
S325080058E024F000408849894A002601EB205182422BDA481C4FF4801121FA00F02044844AE1
S32508005900C0F30A517A44A1F2FF3192ED000B814A8DED080BCA4020EA0202C0F3130040F4F6
S325080059208010C1F1140120FA01F60992002CB8BF76429DED080B53EC102B9DED0C0B51EC06
S32508005940100BFAF753FDCDE90C019DED0C0B51EC1A0B53EC102BFAF7A8FC9FED6F0B08906A
S32508005960CDE9085153EC102B9DED080B51EC100BFAF742FD41EC1B0B9FED690B53EC102B9E
S325080059809DED080B51EC100BFAF736FD9DED0C0B41EC1C0B53EC102B9DED080B51EC100B7C
S325080059A0FAF724FD53EC1A2BFAF723FD9FED5E1B53EC112BFAF720FD53EC1C2BFAF775FCBC
S325080059C041EC1A0B51EC1B0B53EC1A2BFAF76DFCCDE902019DED020B53EC1B2B51EC100BF9
S325080059E0FAF704FD53EC1A2BFAF703FD9DED020B41EC1A0B53EC102B51EC100BFAF7FCFC8E
S32508005A00CDE908014A489DED080B0521784400F09CF99DED081B51EC100B53EC112BFAF7B2
S32508005A20EBFC9DED021B53EC112BFAF7E2FCCDE906019DED020B53EC1A2B51EC100BFAF75F
S32508005A40DBFC53EC1A2BFAF730FC9FED3B0B41EC1A0B53EC102B9DED060B51EC100BFAF73E
S32508005A60C5FC9DED060B41EC1B0B53EC102B9DED020B51EC100BFAF7BFFC53EC1B2BFAF7DE
S32508005A802DFD53EC1A2BFAF7B1FC9DED021B53EC112BFAF7ABFC53EC192BFAF7AAFCCDE922
S32508005AA0020101EB065001150029C8BF039015DC9DED020B324651EC100BFAF788FEFEF776
S32508005AC05FFF042808BF00F00BFA32469DED020B51EC100BFAF77BFECDE902019DED020B51
S32508005AE051EC180B53EC102BFAF786FCFFF73ABB0000904000000000FE822B654715973C51
S32508005B0000CC904000346F3F01FCFFFF0000E03F184D0000FFFF0F0000000000432EE63FD7
S32508005B20396CA80C615C20BEEF39FAFE422EE63FE84B00000000000000000000000000403B
S32508005B4000B510EE101A2DED028B81B0524A6846B2EB410F2ED94FF0E640B0EB410F94BFA1
S32508005B6000204FF0FF3000900098B0EE408A00286ADB10F0010F4BD068EE080A9FED471A0C
S32508005B809FED470A00EE810A9FED461A10F0020F00EE801AB7EE000A00EE810A02BF01B082
S32508005BA0BDEC028B00BD00BF01B0B1EE400ABDEC028B00BD3C4B21F00042934241D911F0CE
S32508005BC0004FDFED3A0A20EE201ADFED390A19BF31EE601A71EE200A31EE201A71EE600AE5
S32508005BE0BDEEE01A11EE100A9FED321A00F0030000EEC10A9FED301A009000EEC10A9FEDAA
S32508005C002F1A00EEC10A9FED2E1A00EEC10AABE728EE080A9FED2B1ADFED2B0A10F0020F4A
S32508005C2040EE410A9FED291A00EE201A61EE000AB0EE480A08EE200AB6D101B0BDEC028B0F
S32508005C4000BD00F071F98FE718EE100A4000B0F17F4F0DD218EE100AFEF7AAFE042808BF4B
S32508005C6000F05AF9B0EE480A01B0BDEC028B00BD09D1012000F012FA01B0BDEC028B5DF80C
S32508005C8004EB00F041B901B0B0EE480ABDEC028B5DF804EB00F034B9B61F927EB93AB2BAE1
S32508005CA0CA9F2A3DDDFFFFBE490E494683F9223F0000004B0000C93F00A0FD390020A2338C
S32508005CC01A61342C336D4C39DA82083CA0AA2ABE00B52DED048BB0EE409AF0EE609A83B003
S32508005CE051EC190BFAF78AFD41EC180B18EE100A18EE901A8DED008B002818BF012008432D
S32508005D0020F00040C0F17F6000F1E040C00F14D019EE101A19EE900A8DED009B002918BFEA
S32508005D200121084320F00040C0F17F6000F1E040C00F04BF012000F0B1F9B0EE480A03B007
S32508005D40F0EE680ABDEC048B00BD70B504462DED028B4D1E00EBC500B0EE408AF0EE608A8F
S32508005D6090ED000B35F0060017D053EC182B51EC100BFAF741FB41EC100B6D1E04EBC500ED
S32508005D8090ED001B51EC100B53EC112BFAF78DFA41EC100B35F00600E7D1022D36D0042D81
S32508005DA01CD0062D1CBFBDEC028B70BD53EC182B51EC100BFAF720FB94ED0A1B53EC112B71
S32508005DC0FAF773FA53EC182BFAF716FB94ED081B53EC112BFAF769FA41EC100B53EC182B96
S32508005DE051EC100BFAF708FB94ED061B53EC112BFAF75BFA53EC182BFAF7FEFA94ED040BEB
S32508005E0053EC102BFAF751FA41EC100B53EC182B51EC100BFAF7F0FA94ED021B53EC112BA8
S32508005E20FAF743FA53EC182BFAF7E6FA94ED001B53EC112BFAF739FABDEC028B41EC100B1A
S32508005E4070BD0000000000009FED070B10B553EC102B9FED070B51EC100BFAF73FFB41ECDC
S32508005E60100B10BD000000000000000000000000000000000000F03F10B553EC102B51EC81
S32508005E80100BFAF712FA41EC100B10BD10B553EC112B51EC100BFAF708FA41EC100B10BD27
S32508005EA09FED050B10B553EC102B51EC100BFAF715FB41EC100B10BD00000000000000008B
S32508005EC09FED050B10B553EC102B51EC100BFAF793FA41EC100B10BD00000000000000707E
S32508005EE09FED050B10B553EC102B51EC100BFAF783FA41EC100B10BD0000000000000010CE
S32508005F0030EE000A70470000DFED020A80EEA00A70470000000000009FED020A20EE000A3D
S32508005F2070470000000000102DE9F0014FF07F42B2EB410F9FBF4FF0FF310160BDE8F001D4
S32508005F4070474FF0004242EA0123C1F3C752783A551112F01F0C434CCCF120067C44C1F3B3
S32508005F60C752A2F178024FEA621204EB820254F8254008BFD2E9015612D0556804FA0CF4A6
S32508005F8025FA06F73C43976805FA0CF527FA06F8D26807FA0CFCF24045EA08054CEA02064B
S32508005FA0A4FB034CA5FB0352A6FB03631D449D4234BF012600261319334416B1934202D94F
S32508005FC003E0934201D2012200E00022624402F1200C9206DC0C42EA443200EE102A5B0396
S32508005FE0DFED210AF8EEC01A00EE103A4FEA9C1C11F0004FB8EE400AC0F800C020EE201AB3
S3250800600000EE105ADFED190AB8EE400A20EE200A71EE810A70EE800A10EE902A02F5006220
S325080060206FF30B0200EE902A70EEE11A31EEC11ADFED101A30EE411A9FED0D0A20EE800A3E
S3250800604001EE210A9FED0C1A00EE810A04BFBDE8F0017047CCF180510160BDE8F001B1EEB9
S32508006060400A7047C8460000000000360000802C22AAFD29DB0FC92F0000C92F02E008C8A3
S32508006080121F08C1002AFAD170477047002001E001C1121F002AFBD1704700000149086042
S325080060A0704700007C0000202DE9FF5F82B00021DDE90430020DDDF840B0034318D044F682
S325080060C01050A2F2FF3242431514119801281FD0A5EB0B00401C5FEA000A4FF000064E4FF2
S325080060E0DFF83891B046504615D5CAF1000413E0119801244AA3012801D16FEA0B01029815
S32508006100119AC0E90031C0E9024206B0BDE8F09FCBF10000DFE704460021404A491842EB10
S325080061200450CDE9001012E0E00707D032463B4640464946FAF760F98046894632463B46A1
S3250800614010461946FAF758F906460F466410002CEAD1DDE90401DDE90023BAF1000F06DAF0
S32508006160FAF74AF942464B46FAF746F905E0FAF7B5F942464B46FAF7B1F904460E4600229C
S32508006180284BFAF711FC03D84FF0FF30014607E00022254B20463146FAF787F8FAF7D3FB6B
S325080061A0102409E0002C0ADB0A220023FAF728F8039B30321A55641E50EA0102F2D1641CD2
S325080061C0039AC4F111031444119A012A03D0012208430DD10AE0084304D000204FF0110B7A
S325080061E0119072E7A3EB0B056D1E0DE05B4504DD4FF0000205F1010504E003DA4FF00002C1
S32508006200A5F10105002AECD002981199C0E90231C0E9004579E70000000014400000F03FFD
S32508006220300000000000F0430000E03F2DE9FF4F95B09A46884606460025EEE1252877D1A2
S3250800624000242746F94A0121039400E0044316F8013F203B01FA03F01042F7D130782A28D1
S3250800626011D06FF02F033078A0F13002092A16D8039A44F0020402EB820203EB4202104444
S32508006280761C0390EFE758F8042B0392002A03DA504244F40054039044F00204761C3078B5
S325080062A02E2816D116F8010F44F004042A280DD06FF02F023078A0F13003092B09D807EB07
S325080062C0870302EB4303C718761CF3E758F8047B761C30786C280FD006DC4C2817D068285F
S325080062E00DD06A2814D104E0742810D07A280FD10DE044F400140AE044F4801401E044F452
S3250800630040147278824202D104F58014761C761C307866280BD013DC582877D009DC002815
S3250800632075D04528F6D04628F4D047281AD193E118E0632835D0642879D0652812D18BE19E
S32508006340702873D008DC6728F1D069286FD06E280DD06F2806D1ACE073282CD0752874D06B
S32508006360782853D05246179990476D1C54E1C4F30250022809D003280DD0D8F8001004284F
S325080063800DD00D6008F1040846E1D8F80010EA17C1E90052F6E7D8F800100D80F2E70D70FC
S325080063A0F0E718F8041B8DF8001000208DF80100EB46012003E058F804BB4FF0FF30610774
S325080063C04FF0000102D40DE009F101018946B9420FDA8145F8DB1BF809100029F4D108E062
S325080063E009F1010189468142FADB1BF809100029F6D103985346A0EB090721463846179AAB
S3250800640000F080FA284400EB090507E044E008E10DE01BF8010B524617999047B9F10109CC
S32508006420F7D2534621463846179AF2E039E00A21C4F302524FF0000B0091022A06D058F808
S32508006440040BC117032A09D00AE023E008F1070020F00702F2E80201904605E000B2C11719
S32508006460042A01D140B2C117002906DA0A460021404261EB02012D2202E0220504D52B227B
S325080064808DF80420012203E0E20701D02022F7E7914657E00A2100E010214FF0000B009140
S325080064A00BE010214FF0000B44F004040827009103E008204FF0000B0090C4F30252022A50
S325080064C005D058F8040B0021032A08D008E008F1070020F00702F2E80201904603E080B28B
S325080064E0042A00D1C0B24FF0000922072AD53278702A07D0DDF800C08CF0100C5CEA0B0C08
S3250800650005D00EE040228DF80420012208E050EA010306D030238DF804308DF805200222A6
S325080065209146009B83F0080353EA0B030AD150EA010201D1620705D530228DF804204FF0AB
S3250800654001097F1E3278582A04D039A20C920CAA02920BE03BA2F9E75B46009AF9F750FEA2
S325080065600C9B9B5C029A521E0292137050EA0102F2D1029804A9081A00F1200B600702D589
S3250800658024F4803400E001275F4502DDA7EB0B0000E0002000EB0B01009003984944401AF0
S325080065A00390E00306D453462146179A039800F0A9F90544002706E001A85246C05D17993B
S325080065C090476D1C7F1C4F45F6DBE0030CD553462146179A039800F095F9054404E0302042
S325080065E05246179990476D1C0099481E00900029F5DC08E00298029952460078491C029137
S32508006600179990476D1CBBF10001ABF1010BF1DC5BE100F065F90544761C307800287FF492
S325080066200DAE19B02846BDE8F08F00000928010030313233343536373839616263646566A2
S32508006640000000003031323334353637383941424344454600000000600700D4062708F129
S32508006660070020F00700F0E80223804603F0004C5FEA0C0001D097A009E0200501D596A075
S3250800668005E0E00701D095A001E0AFF24C001390307823F0004365280CD006DC452809D01A
S325080066A046281DD047287FD13BE0662818D067287AD136E00021112F01DB112000E0781C4F
S325080066C0CDE9000104A90CA8FFF7EEFCDDE90D010C9A4FF0000B07F10109109200914EE08D
S325080066E04FF000400097CDE9011004A90CA8FFF7DBFCDDE90D020C9B0F994FF0000B91463C
S325080067001093009211B9791C00EB0109B7EB090003D4C0F1FF3B07F10109A9EB0700019047
S3250800672042E0012F00DA01270021112F01DD112000E03846CDE9000104A90CA8FFF7B4FC6B
S32508006740DDE90D010C9A00914FF0000BB946109221070FD4009A4A4503DA914601E0A9F1D2
S325080067600109B9F1010F05DD109AA9F10101515C3029F4D0B84202DA10F1040F03DA01216C
S32508006780CDE9011010E0002803DC8344A9EB000102E0411C494500DD8946A0EB0B00401C66
S325080067A001904FF000400290200705D40198484502DB4FF0FF30019000208DF84B0002989D
S325080067C00DF14B07B0F1004F25D002200C902B200D90029800280CDA404202902D200D902A
S325080067E007E00A210298F9F717FF3031029007F8011D0C99481E0C900029F2DC0298002869
S32508006800EFD1791E0D980870307800F0200040F0450007F8020D11A8C01BC01D029013980D
S32508006820007800B1012000EB0901019801EBE071029801440398401A401E0390E00306D4B3
S3250800684053462146179A039800F05CF805441398007818B15246179990476D1CE00323D5E2
S3250800686053462146179A039800F04CF805441BE0BBF1000F07DB0098584504DD109817993B
S3250800688010F80B0001E0179930205246904701980BF1010B401E05F10105019004D12E20D8
S325080068A05246179990476D1CB9F10001A9F10109DEDC05E017F8010B5246179990476D1C71
S325080068C00299481E02900029F4DC53462146179A03989EE62D0000002B00000020000000D6
S325080068E02DE9F041044600251E461746880404D405E039462020B0476D1C641EF9D52846CD
S32508006900BDE8F0812DE9F041044600251E469046C80301D5302700E02027880404D505E0FA
S3250800692041463846B0476D1C641EF9D52846BDE8F081000070B515462DED048B0C46064629
S32508006940F0EE418AB0EE609AF0EE409AFAF702FBB0EE408AB0EE690AFAF704FB68EE090A70
S325080069609FED141A40EE680A60EE011A28EE011AC6ED000AF6EE000A48EE601A00EE601A52
S3250800698021EE892ADFED0C1A68EE212A60EE211A40EE602A48EE601A02EEE82A61EE891AAF
S325080069A041EE681A84ED002AC5ED001ABDEC048B70BD0000D7B35D3FD7B35DBF2DE9F04F2B
S325080069C005462DED0C8BADF50D7D0C46F6A0FDF7C7FF9FEDFE9A4FF46067384601F082FBC5
S325080069E08246384601F07EFB8046BAF1000F7DD0B8F1000F7AD04FF40076304601F072FB7D
S32508006A005FEA000B72D039465046F9F743FC39464046F9F73FFC31465846F9F73BFC3846A4
S32508006A2001F060FB0646384601F05CFB8990002E5CD000285AD039463046F9F72BFC39469A
S32508006A408998F9F727FC4FF40079494601A8F9F721FC05F130004A4659460090F9F701FC21
S32508006A60384601F03FFB8B90384601F03BFB8A908B9800283AD08A98002837D039468B983D
S32508006A80F9F708FC39468A98F9F704FC9FEDD0BAB0EE4B8A9FEDCFDA8DED83BAF6EE00BA50
S32508006AA0CDED81BA83AA85A984A8B0EE4B1AF0EE4D0AB0EE480AFFF73DFF81AA82A98CA868
S32508006AC0DDED831A9DED851ADDED840AB7EE000A02F080FDDFF800930027F7EE008AD9F8D1
S32508006AE00000C16A490800EE101A00E047E3DDED8C0AB8EE400A78EEE00A20EE200ABCEE68
S32508006B00C00A10EE101AC163B44800680028D9F80000C26A4FEA520200EE102AB8EE400A23
S32508006B2015D0DDED820A78EEE00A20EE200ABCEEC00A10EE102A8263D9F80000C16ADDED2D
S32508006B40810A490800EE101AB8EE400A14E0DDED810A78EEE00A20EE200ABCEEC00A10EE00
S32508006B60102A8263D9F80000C16ADDED820A490800EE101AB8EE400A78EEE00A20EE200AB5
S32508006B80BCEEC00A10EE101A41636420FBF750F949F640407F1C8742A1DBDFED91DA2846A4
S32508006BA0B0EE6D0A02F07AF88E48FAF707FB8E48FAF704FB01218B48FAF7E2FA206001215B
S32508006BC08948FAF7DDFA6060D4F884202168891A00EE101AF8EEC00A9FED840A60EE800AF8
S32508006BE0C4ED050AD4F88810401A01EE100A04F14401081FB8EEC11A21EE001AB1EE600AEC
S32508006C0084ED061A70EE411AC4ED071A94ED0C0A00F0B8FC606CF9F7D0FC41EC100B9FEDB3
S32508006C2074CBB0EE4C1AF0EE6C1AFEF761F9B0EE40AAF0EE60AA206CF9F7BFFC41EC100B61
S32508006C40B0EE4C1AF0EE6C1AFEF752F953EC1A2B51EC100BF9F729FB41EC100BFFF738F820
S32508006C6051EC100BF9F7BCFC09EE900A0024B1EE0CAA002738EE098A83AA85A984A8B0EEF7
S32508006C804B1AF0EE4D0AB0EE480AFFF753FE81AA82A98CA8DDED831A9DED851ADDED840AA3
S32508006CA0B7EE000A02F096FCD9F80000C16A490800EE101AF8EE400A9DED8C0A38EEC00AEE
S32508006CC020EE800ABCEEC00A10EE101AC163434800680028D9F80000C26A4FEA520200EEBB
S32508006CE0102AB8EE400A15D0DDED820A78EEE00A20EE200ABCEEC00A10EE102A8263D9F837
S32508006D000000C16ADDED810A490800EE101AB8EE400A14E0DDED810A78EEE00A20EE200ABB
S32508006D20BCEEC00A10EE102A8263D9F80000C16ADDED820A490800EE101AB8EE400A78EEA3
S32508006D40E00A20EE200ABCEEC00A10EE101A41636420FBF76DF8B0EE6D0A284601F09EFFD7
S32508006D607F1C282F86DBB0EE6D0A284601F096FF214895ED060AD0ED010A0AEB840030EE4F
S32508006D80200AC8EE0A0A30EEC00A80ED000A8B98E96940F82410641CB4F5607FFFF669AF9C
S32508006DA0002700242AE000005374617274696E672063616C6962726174696F6E2070726F0B
S32508006DC06365647572650A0D000000007CD9A03A000000009A99193E040D002018020020F2
S32508006DE0ACC52738540B00209C0B00200000A53C00000000000000401801002038EE498A1C
S32508006E0083AA85A984A8B0EE4B1AF0EE4D0AB0EE480AFFF78FFD81AA82A98CA8DDED831A42
S32508006E209DED851ADDED840AB7EE000A02F0D2FBD9F80000C26ADDED8C0A520800EE102A76
S32508006E4078EEE00AB8EE400A20EE200ABCEEC00A10EE102AC263CD4800680028D9F8000065
S32508006E60C26A4FEA520200EE102AB8EE400A15D0DDED820A78EEE00A20EE200ABCEEC00AFC
S32508006E8010EE102A8263D9F80000C16ADDED810A490800EE101AB8EE400A14E0DDED810AD4
S32508006EA078EEE00A20EE200ABCEEC00A10EE102A8263D9F80000C16ADDED820A490800EE1A
S32508006EC0101AB8EE400A78EEE00A20EE200ABCEEC00A10EE101A41636420FAF7A9FFB0EE07
S32508006EE06D0A284601F0DAFE641C282CFFF65AAFB0EE6D0A284601F0D1FEA54895ED060A42
S32508006F004FF46074D0ED010A08EB870030EE200AC8EE0A0A30EEC00A80ED000A8A98E96925
S32508006F2040F827107F1CA742FFF63BAFF0EE4B8A00209FED980A0AEB8001D1ED000AA8EB9F
S32508006F40800101F54061401C91ED7F1AA04230EE811AC1EE000A70EEA88AECDB28EE8A0A43
S32508006F6010EE100AF9F729FB41EC100B9FED8A1BFDF758FD51EC100BF9F732FB0AEE900A0E
S32508006F808348B0EE4B8AC0ED00AA00200AEB8001A14691ED000AA8EB800101F54061D1EDE0
S32508006FA07F0A06EB8001401C30EE200A484520EE2B0A81ED000AE9DB00249FED799A899834
S32508006FC0002100EB84050819403802D500F5607003E0484501DBA0F5607006EB800095ED35
S32508006FE0000A90ED001A491C802901EE090A85ED000AE8DB802C27DA06EB8400D5ED000AA5
S3250800700090ED000A30EE600A20EE0A0AFEF798FD20EE290A01A800EB8407A1B287ED000A76
S3250800702030F824207B880220F9F7AAFD002086908790889097ED000A03238DED860A86AAC7
S325080070400121102002F046FAD5ED000A9FED551A641C4C4580EE810A30EE088AAFDB8B9870
S3250800706001688A98D0F8FC0D084400EBD070471000259FED4D9ADFED4D8A05EBE7147F2C07
S3250800708000DD803C8998C5EBC50100EB8100A1B290ED000A30EE480A20EE090AC0EE280AFB
S325080070A0BDEEE00A10EE100A4BF82400030C82B20320F9F765FD5BF82400012300EE100A53
S325080070C086AA1946B8EEC00A11208DED860A02F001FA0A20FAF7A2FE6D1C802DCDDB4FF49F
S325080070E00074224659460098F9F7BBF82748224659461830F9F7B5F81020B0EE681AF0EE43
S325080071004B0AB0EE6A0A00F035FD81B200231A460420F9F735FD0A20FAF780FE00231A46C0
S3250800712019460520F9F72CFD00231A460121062002F0D0F91E48016900910FC801F02DFCCC
S3250800714010B91B4801F022FC194801F0C3FB184801F0BCFB899800F059FD304600F056FDAE
S32508007160504600F053FD404600F050FD584600F04DFD8B9800F04AFD8A9800F047FD0DF5DE
S325080071800D7DBDEC0C8BBDE8F08F000018020020180100200000E04400000060FB21194087
S325080071A00000003C0000604400008046DB0FC940180600202DE9F041F9F7B9FE00240C4E7E
S325080071C00C4F2546306AB84203DD6D1CEDB2142D06D80220FAF722FE641CE4B2FA2CF1D3ED
S325080071E005490020C860BDE8F04104A0FDF7B8BB800800200000A0410000002043616C69E8
S3250800720062726174696F6E20626567696E696E670A0D000010B50B490B4800F099FF0949B1
S325080072200948FFF7CBFBC820FAF7F8FDF9F788FE0648002181600121C160BDE8104004A0C3
S32508007240FDF78EBB800800202C060020000000200A0D2043616C6962726174696F6E2063A7
S325080072606F6D706C6574652E2020507265737320276573632720746F2072657475726E2003
S32508007280746F206D656E750A0D00000000B587B0144A012106911178002351B1012902D064
S325080072A0022903D005E00221069102E00421069113701178491C11700168021DC1F30361F3
S325080072C0049101880293C1F30A011031009103938DF8143006AB69460348FAF7C9F907B0E8
S325080072E0012000BD5D0000202C0C002003E011F8013B1844C0B2521ED2B2F8D27047000062
S3250800730010B504462DED088B04F1440190ED0C0A1430D0EC030A081F00F034F994ED120AE8
S32508007320D4ED110A30EE601ADFED7D1A01EE610A84ED120A94ED080A9FED7A1A20EE010AB5
S325080073409FED791A20EE010A9FED781A784860EE018AC4ED098A90ED030A84ED0A0A94ED5C
S32508007360230A94ED101A94ED1BAA70EE419A94ED240A30EE609A94ED1F0AF0EE680AB0EE49
S3250800738040BA0AEE290AFDF744FBF1EE680AF0EE60AAFDF736FB84ED130AB0EE408A94EDB2
S325080073A01C0A6AEE000AB0EE4B0A00EEA90AF0EE680AFDF72EFBF0EE6A0AFDF722FB68EE7D
S325080073C0A80A84ED1F0A48EE480AB0EE600AF9F773FCF0EE408A94ED200A94ED1B1AF0EE7D
S325080073E0401A01EE090A84ED140AB0EE408A94ED1C0A21EE000A40EE091A94ED099AF0EE19
S32508007400490AB0EE610AFDF704FBF1EE490AFDF7F8FA84ED200A94ED130A60EE000A48EE30
S32508007420080AB0EE600AF9F747FC84ED2F0A94ED140AF0EE680AFDF7ECFAF1EE680AFDF739
S32508007440E0FA84ED140A04F1500194ED090A081F00F03AFC04F16802111F94ED141AD4ED8F
S32508007460130A94ED0C0A081FFFF764FA04F16000021FD0EC030A111F94ED090A0C3802F096
S32508007480A9F82C482D49B7EE000A02682A48002A0068C26A94ED151A00EE902A30EE411A39
S325080074A0F8EE600A60EE810AFCEEE00A10EE902ACA63C26A00EE902AF8EE600A12D094ED55
S325080074C0161A30EE411A60EE810AFCEEE00A10EE902A8A63C06A94ED171A00EE900AF8EE59
S325080074E0600A11E094ED171A30EE411A60EE810AFCEEE00A10EE902A8A63C06A94ED161ACB
S3250800750000EE900AF8EE600A30EE410A20EE800ABCEEC00A10EE100A4863BDEC088B10BD44
S32508007520CDCC4C3D3333933FD7A3703F3ACD133F1801002018020020040D0020000001407C
S3250800754030B5034600200246064C07E09D5C521C85EA106554F8255085EA00208A42F5D31F
S3250800756030BD000034A10008027862F31F61427862F317418278C07862F30F2160F307016B
S325080075800846704770B50D462DED068B0446F0EE618AB0EE419AF0EE609AB0EE40AAF9F7D9
S325080075A0D9FCB0EE408AB0EE4A0AF9F7DBFCDFED172AB6EE002ADFED161A60EE220A48EE40
S325080075C0420A20EE891A60EE210A68EE211A08EE291A48EE420A40EE421A00EEA81ADFEDD5
S325080075E00D0A21EE201A84ED001A20EE691A01EEC91A68EE221A40EE421A01EEE81A21EE13
S32508007600200A85ED000ABDEC068B70BDD7B35D3FD7B35DBFABAA2A3F10B5F9F791FC1BA0C8
S32508007620FDF79EF91BA0FDF79BF90A20FAF700FC1CA0FDF795F90A20FAF7FAFB1EA0FDF757
S325080076408FF90A20FAF7F4FB22A0FDF789F90A20FAF7EEFB23A0FDF783F90A20FAF7E8FB1D
S3250800766026A0FDF77DF90A20FAF7E2FB2AA0FDF777F90A20FAF7DCFB002240212C48FAF7CC
S32508007680D1FC2C490020C86010BD00000A0D0A0D0A0D000020436F6D6D616E64733A0A0D9D
S325080076A000000000206D202D204D6F746F72204D6F64650A0D0000002063202D2043616CF5
S325080076C069627261746520456E636F6465720A0D000000002073202D2053657475700A0D06
S325080076E0000000002065202D20446973706C617920456E636F6465720A0D0000207A202DD6
S3250800770020536574205A65726F20506F736974696F6E0A0D0000000020657363202D2045B6
S3250800772078697420746F204D656E750A0D00000000040240000000207FB543A0FDF710F99D
S325080077400A20FAF775FB48A14BA0CDE900014BA34BA24EA14FA0FDF703F90A20FAF768FBDE
S32508007760544CA068F8F729FFCDE9020152A0009053A354A25AA15BA0FDF7F2F80A20FAF726
S3250800778057FBE069F8F719FFCDE902015DA000905DA35EA260A161A0FDF7E2F80A20FAF708
S325080077A047FB664D66A058A3696866A2CDE9000166A167A0FDF7D4F80A20FAF739FBA96807
S325080077C05FA0CDE9000150A369A26DA160A0FDF7C7F80A20FAF72CFBE068F8F7EEFECDE90B
S325080077E0020168A0009069A369A26EA13DA0FDF7B7F80A20FAF71CFBA069F8F7DEFECDE97E
S32508007800020169A0009061A369A26FA135A0FDF7A7F80A20FAF70CFBE9686CA0CDE9000101
S3250800782039A36CA273A174A0FDF79AF80A20FAF7FFFA7848FDF794F80A20FAF7F9FA764981
S325080078400020C8607FBD00000A0D0A0D20436F6E66696775726174696F6E204F7074696FC5
S325080078606E73200A0D0A0A0063757272656E742076616C75650000006D6178006D696E0004
S32508007880706172616D65746572000000707265666978000020252D347320252D3331732009
S325080078A0252D357320252D367320252D32730A0D0A0D000018010020323030300000000065
S325080078C03130300043757272656E742042616E64776964746820287261642F732900000027
S325080078E06200000020252D347320252D33317320252D357320252D367320252E31660A0D60
S32508007900000000002D000000300000004765617220526174696F00006700000020252D3451
S325080079207320252D33317320252D357320252D367320252E33660A0D0000000018020020EB
S325080079403132370043414E20494400006900000020252D347320252D33317320252D35731B
S3250800796020252D367320252D35690A0D0000000043414E204D6173746572204944000000AC
S325080079806D00000034302E3000000000302E300043757272656E74204C696D697420284191
S325080079A0290000006C00000033332E300000000046572043757272656E74204C696D6974A1
S325080079C0202841290000000066000000313030303030000043414E2054696D656F75742067
S325080079E0286379636C6573292830203D206E6F6E652900007400000020252D347320252DF8
S32508007A0033317320252D357320252D36732025640A0D000048A600080000002010B5F9F7C1
S32508007A2086FA0D4801F096FC0120FAF7F7F90A489FED0A0A012280ED230A80ED240A402133
S32508007A400748FAF7EFFA07490020C860BDE8104005A0FCF785BF00008008002000000000DE
S32508007A6000040240000000200A0D20456E746572696E67204D6F746F72204D6F6465200A1F
S32508007A800D00000010B5F9F731FAF120F9F7AEF902212820F9F7B0F9092804D0F9F700FA50
S32508007AA04FF0FF3010BDF9F7FBF9064806490268521C02D06FF0010010BD001D8842F6D375
S32508007AC0002010BD000002080000040882B0CDE9000121F0004001909DED000B02B051EC46
S32508007AE0100B7047034850F8220000EB830090ED000A70471C000020024850F8220050F80D
S32508007B00230070471C00002010B50446F9F7C8F90021217010BD0000072900D90721044A83
S32508007B20816052F82110416000210170704700001C00002010B50446F9F7D8F9F120F9F7E4
S32508007B4055F90549A06851F820000221F9F754F90120207010BD00003C00002001EB830061
S32508007B6010EE101AF9F7A4B9009A01EB83001146F9F79EB9012131EE601A814070EE600A97
S32508007B80491E00EE101AB8EEC00A20EE800AC0EE010ABDEEE00A10EE100A7047B4EEE00AA7
S32508007BA0F1EE10FA07DDB4EEC10AF1EE10FA01DCB0EE410A7047F4EEC10AF1EE10FAF7DDAD
S32508007BC0B0EE600A7047B4EEE00AF1EE10FA07D2B4EEC10AF1EE10FA01D3B0EE410A7047C0
S32508007BE0F4EEC10AF1EE10FAF7D2B0EE600A704738B504468DF8000002230122694602485C
S32508007C00FBF782FD204638BDDC0D002010B5002821D0114B0022001F196803E0814203D804
S32508007C200A4649680029F9D152B11368841A9C4204D1006818441060104602E0506000E077
S32508007C40186039B102680B1A934203D10B681A4402604968416010BD740000209FED140AEC
S32508007C60144980ED1C0ADFED140A91ED020ADFED141A20EE200ADFED110A80ED1B0A91ED69
S32508007C80020A20EE200AF0EE000A20EE201AB7EE000AF0EE400A41EE610A80EE201A30EE2B
S32508007CA0410A80ED1E0A9FED070A80ED1D0A70479B551F3D18010020C7BC8E3AACC527384E
S32508007CC0DB0F49405FEF7E3B00B5F0EE401A90ED000A0A46034660EE000A91ED000A40EE01
S32508007CE0000AB0EE600AF8F7E7FFB4EEE10AF1EE10FA0FDDD3ED000A60EEA10A80EE801A62
S32508007D0083ED001AD2ED000A60EEA10A80EE801A82ED001A00BD00002DED028B82B0FAF7F1
S32508007D2095F9FCF72FF9FBF78DFEFCF703F8FBF725FFFBF763FEFBF7FDFEFBF791FDFBF759
S32508007D40DDFDFBF729FEFBF7D3FFFBF79FFFFBF7CDFE06219D4800F0E5FD9C480169009154
S32508007D600FC800F0E7FD9A4D2868FCF734FE9FED998A08B185ED008A6868FCF72CFE08B1A4
S32508007D8085ED018AA868FCF726FEDFED938A934C50B995ED020A10EE100AA04204D0B5EEE1
S32508007DA0C00AF1EE10FA01D1C5ED028AE868FCF712FE50B995ED030A10EE100AA04204D039
S32508007DC0B5EEC00AF1EE10FA03D1B3EE0A0A85ED030AA869FCF7FFFD10B9A869A04203D1A7
S32508007DE0B2EE040A85ED060A7D4E96ED010AB8EEC00A10EE100AFCF7EEFD4FF0010810B975
S32508007E007068401C01D1C6F8048096ED020AB8EEC00A10EE100AFCF7DEFD002710B9B0681F
S32508007E20401C00D1B76096ED030AB8EEC00A10EE100AFCF7D0FD10B9F068401C00D1F76073
S32508007E40E869FCF7C8FD10B9E869A04203D1B7EE000A85ED070A286AFCF7BDFD10B9286A6F
S32508007E60A04201D185ED088A686AFCF7B4FD10B9686AA04203D19FED5B0A85ED090AA86AED
S32508007E80FCF7A9FD10B9A86AA04201D1C5ED088AE86AFCF7A0FD10B9E86AA04203D19FED29
S32508007EA0520A85ED0B0A494895ED010A1430072180ED0A0A95ED000A80ED0B0A4162642190
S32508007EC001F050F846494FF40072183101F22C40F8F7C7F94548FFF7C1FE4548F9F76EF99A
S32508007EE04448F9F76BF94448F9F732FB4348FAF78BFF00214148FBF7D3F900213F48FAF7E4
S32508007F0077FE04213D48FBF7CBF904213B48FAF76FFE08213948FBF7C3F908213748FAF787
S32508007F2067FEF9F704F80120F9F766FF2F498831081F01F0A5FCF9F703F82C4801F00AFA2E
S32508007F400120F9F759FF2EA0FCF70AFD31A0FCF707FD35A0FCF704FD2448D0E921123AA01F
S32508007F60FCF7FEFC2868F8F728FB41EC100B40A053EC102BFCF7F4FC6868F8F71EFB41ECDA
S32508007F80100B47A053EC102BFCF7EAFC4CA07168FCF7E6FCF8F7D2FD4D48F9F7A0FE0221E0
S32508007FA04B48F9F753FB4B48FAF72EFF01224A494A48FBF793FB4A49C1F8008000F062FE4D
S32508007FC0FBF742FFFBF72EFCFCE700001806002018010020000000000000C842000080BFA1
S32508007FE018020020000020420000F04280080020540B00209C0B0020E40B0020040D002077
S325080080000A0D205953432043312D4A3630200A0D000000000A0D20446562756720496E6629
S325080080206F3A0A0D00000000204669726D776172652056657273696F6E3A2056342E3120AC
S32508008040313231310A0D00002041444331204F66667365743A202564202020204144433239
S32508008060204F66667365743A2025640A0D00000020506F736974696F6E2053656E736F7262
S3250800808020456C656374726963616C204F66667365743A202020252E34660A0D0000000095
S325080080A0204F7574707574205A65726F20506F736974696F6E3A2020252E34660A0D00004E
S325080080C02043414E2049443A202025640A0D00002C0C00204C0D00205F000020DC0D002080
S325080080E00C000020F0B50B30154D20F007010024144A0FE003688B420BD38B4205D95E1A42
S3250800810043184768C3E9006700E04368136002C004E0021D10680028ECD12046002802D1B3
S32508008120286808B10020F0BD064A07481060074A121A22F00702C0E9002401202860D7E740
S325080081407800002074000020240E0020208E00202DE9F04100232DED068B0C46074688B0D9
S325080081601A4619461846F8F70BFD9FED908ADFED909A8DED008AB0EE489AB6EE000A8DED95
S32508008180030A6A4601A902A8B0EE491AF0EE690AB0EE480AFEF7CEFB03AA05A904A8DDEDEF
S325080081A0001A9DED011ADDED020AB7EE000A01F011FA804E002544F62068F7EE008A3068B5
S325080081C0C16ADDED040A490800EE101A78EEE00AB8EE400A20EE200ABCEEC00A10EE101A11
S325080081E0C1633068C16ADDED050A490800EE101A78EEE00AB8EE400A20EE200ABCEEC00A5C
S3250800820010EE101A81633068C16ADDED030A490800EE101A78EEE00AB8EE400A20EE200AC9
S32508008220BCEEC00A10EE101A41636420F9F700FE6D1C4545C3DBDFED60AA3846B0EE6A0A67
S3250800824000F02CFD0120F9F7E9FDD4F884102068401A00EE100AF8EEC00A9FED580A60EECA
S32508008260800AC4ED050AD4F888106068401A01EE100A04F14401081FB8EEC11A21EE001A0C
S32508008280B1EE600A84ED061A70EE411AC4ED071A94ED0C0AFFF776F9494C62E06A4601A97E
S325080082A002A8B0EE491AF0EE690AB0EE480AFEF741FB03AA05A904A8DDED001A9DED011A03
S325080082C0DDED020AB7EE000A01F084F96420F9F7AFFD3068C16ADDED040A490800EE101A79
S325080082E078EEE00AB8EE400A20EE200ABCEEC00A10EE101AC1633068C16ADDED050A49084B
S3250800830000EE101A78EEE00AB8EE400A20EE200ABCEEC00A10EE101A81633068C16ADDEDB2
S32508008320030A490800EE101A78EEE00AB8EE400A20EE200ABCEEC00A10EE101A4163B0EE63
S325080083406A0A384600F0AAFC97ED060AB5EEC08AF1EE10FA01D1B0EE40AA9FED1A0A38EEED
S32508008360008A18EE100AA04298DB97ED060A30EE4A0AB5EEC00AF1EE10FA01DD012000E0B5
S3250800838000200123069006AA1946092001F0A2F80D4906980023086081B21A460120F8F710
S325080083A0EFFB08B0BDEC068BBDE8F081000000009A99193E040D0020ACC527380000A53C51
S325080083C0DB0F49416F12833A180200202DE9F04180462DED068BB0EE41AAF0EE60AA82B048
S325080083E09FED328ADFED328AB0EE429AF0EE619A1420B0EE481AF0EE680AFFF7BBFB0746CF
S325080084001420B0EE481AF0EE680AB0EE6A0AFFF7B1FB06461020B0EE481AF0EE680AB0EEAC
S325080084204A0AFFF7A7FB9FED238A05460720B0EE481AFBEE040AB0EE690AFFF79BFB0446B9
S325080084400720B0EE481AFBEE040AB0EE490AFFF791FB0346009867F313000090DDF80100C9
S3250800846066F31F30CDF801001348ADF805509DF80710427862F300018DF8071082B163F34A
S3250800848047018DF80710002141700099C8F800100199C8F8041002B0BDEC068BBDE8F0813F
S325080084A064F347018DF807100121EDE700002042000020C2000048435D0000202DE9F04FDC
S325080084C004462DED028B81B00020DFF8BCA300902068DAF8042000F01F018A4201D0002932
S325080084E044D1C0F345130026DFF8A0E3E849E94F9FEDE91A9FEDE90A9FEDE98ADFEDE90A99
S32508008500E94A0125DFF8A4934FF0080B4FF00208192B6ED2DFE803F06D0D11212F526E85ED
S325080085209DBCC3D2DFF8F6F5F4F3F2F1F0EFEEEDEC00000E1AD1166008E0000E16D1088831
S3250800854010B1ADF800501BE1C2F80080CEF80050ADF8006014E1E5708DE1000E06D10888D9
S325080085600028EED11560CEF80050E67001B0BDEC028BBDE8F08F5D46BBEB106FF6D1CC4976
S32508008580201D01F025F9CA48D7ED070A90ED120A20EE200ADFEDC70A90ED032AD0ED041AA7
S325080085A020EE201A90ED0D0ADFEDC30A60EE200A90ED0B0A201DFFF709FFCCE7000ED5D18C
S325080085C0ADF800609DF800002071E5702046FEF75DFE6420F9F72CFCBFF34F8FB7480168C3
S325080085E0B74A01F4E06111430160BFF34F8F00BFFDE73CE1000EB9D1106838B11068022896
S325080086009FD1B0480069B0F17C5F9ADAFCF790F9F8F7D0FC87ED010A23E0A44800F0B6F947
S3250800862029E0B8EB106FA1D1A088B0EE418A40BA1021F0EE480AF0EE408A01F0B4F887EDEA
S32508008640070A1020B0EE481AF0EE680AFFF792FAD4E0B5EB106F89D12179CAF80410F8F76D
S325080086606DFAD9F81000009099E80F004F4600F094F90028D1D08D4800F02CF98B4800F0FC
S3250800868025F93869009097E80F0000F053F95FE7B5EB106F93D12179CAF80C1058E7B8EB90
S325080086A0106F8CD1A08840BA00EE100A8048B8EEC00A87ED020AFFF7D1FA49E7B8EB106FDB
S325080086C099D1A088102140BAF0EE480A01F06BF887ED030A3CE7B8EB106F8CD1A0881021CF
S325080086E040BAF0EE480A01F05EF887ED080A2FE78FE080E067E05DE046E038E032E029E0B3
S3250800870025E019E00DE0FFE7B8EB106F8BD1A088102140BAF0EE480A01F045F887ED090AC4
S3250800872016E7B8EB106F96D1A088102140BA01F03AF887ED0A0A0BE7B8EB106F8BD1A0880F
S32508008740102140BA01F02FF887ED0B0A00E7000E87D00BE7000EFCD108880E805A480188DD
S325080087600680F5E6000EF4D1F8F732FB06E0BBEB106FEED1010E201DF8F7E2FAADF8000015
S325080087809DF800002071E6E6BBEB106FE1D104F10800FEF7E9FE0646201DFEF7E5FE314651
S325080087A0F8F7A2FA2071010A6171010CA171000EE071D0E6000ECCD101B0BDEC028BBDE847
S325080087C0F04FF8F7A9BA000EC3D12920ADF800009DF8000060719DF80100207140F2BB40B0
S325080087E0ADF800009DF80000E0719DF80100A0710420E0703FE0000EABD10888ADF80000E7
S325080088009DF8000060719DF80100207184F8038031E0000E9DD1D7ED071AF0EE408A102074
S32508008820F0EE680AB0EE610AFFF7A4F9010A217160719AF80410A1719AF80C00E07197EDA5
S32508008840020AB0EE481AF0EE680ABDEEC00A10EE100A010A2172607297ED030A1020FFF7FA
S3250800886089F9010AA172E07284F803B003E0009800283FF46EAF01B02046BDEC028BBDE8E4
S32508008880F04FFEF703BD0000180200200C000020020000201801002000004842000000008B
S325080088A00000204200004843080000201806002080080020802B993DDB0FC9400CED00E062
S325080088C00400FA052C0600200400002000210174FFF71AB9F8B5114E05460024234656F880
S325080088E02400009095E80700FFF73EF9641CFF2CF4DD0B4E4FF4A077BC420CDA06EB84007D
S32508008900A0F58060234690ED000A95E80700FFF725F9641CF0E700202874F8BD180200204A
S325080089201801002070B50C460546FFF7F5F8EC6070BD00002DE9F047124D07468846914634
S32508008940002423464A4641463846FFF7D5F845F82400641CFF2CF4DD0B4D4FF4A076B442A0
S325080089600DDA23464A4641463846FFF7BBF805EB8400A0F58060641C80ED000AEFE7BDE800
S32508008980F0870000180200201801002010B50446FFF7D0F80121217410BD0098C0B27047CD
S325080089A070B50D460446C16917A0FBF7D9FF18A0D4F83012FBF7D4FFA068F7F7FEFD41EC93
S325080089C0100B19A053EC102BFBF7CAFFA069F7F7F4FD41EC100B19A053EC102BFBF7C0FF6C
S325080089E0E068F7F7EAFD41EC100B19A053EC102BFBF7B6FF1BA0216AFBF7B2FFA8B2BDE842
S32508008A007040F9F70BBA00005261773A202564002020204C696E656172697A656420436F9D
S32508008A20756E743A2025640020202053696E676C65205475726E3A20256600002020204DD1
S32508008A40756C74697475726E3A20256600000000202020456C656374726963616C3A2025C5
S32508008A60660000002020205475726E733A202025640D0A002DE9F041DFF84C800646404630
S32508008A800C46B8F80610C38800680A19D8F800701844802A0AD9C1F180018DB22A46314658
S32508008AA0F7F7DFFB621B7119384601E022463146F7F7D7FB98F80610214401F07F01A8F8BF
S32508008AC00610BDE8F08100008C0000202DE9F34F81B06A4D002000904FF0FF0AEB88AA88D3
S32508008AE02889802100F028FC84B2092C6ED36889A94690BBB9F8046080210020B346DFF885
S32508008B0080E1E71ED9F800202AE03318B3FBF1F501FB153512F805C05D1CB5FBF1F801FBE4
S32508008B201855555D4CEA052C9D1CB5FBF1F801FB1855DB1CB3FBF1F801FB1833555DD35C30
S32508008B402D0445EA03634CEA030CF44506D13044B0FBF1F201FB120006E017E0401C80B271
S32508008B60B842D2DB4FF0FF3000B2002813DB0122A9F80A2082B2A9F80420B9F80630B9F88B
S32508008B800800802100F0D8FB09281FDBB9F808004D4660B11DE0E41E0BEB0400C21700EB16
S32508008BA0526222F07F02801AA9F804000EE028792968421D801D02F07F0200F07F008A5C3D
S32508008BC0085C42EA00202881A04202D95046BDE8FE8F82B2A8881118491E80292968014436
S32508008BE00CDDC0F18000C2B20098FEF77FFB297A2A7911448139CAB2296802E0521ED2B29A
S32508008C000098FEF773FBA9882A892E688C18631EDF1703EB576727F07F07DB1B9B5D8342BA
S32508008C2027D1802C0DD9C1F1800084B2314422460198F7F716FB28892968021B0198204463
S32508008C4001E031440198F7F70CFB0298298901802879296800F1090202F07F0211F802A009
S32508008C60297A084400F07F00A880002028816881ACE7491C01F07F00F6E700008C000020BD
S32508008C80FF318A2304480021016141611830A0F10C010860002070478000002070B5044644
S32508008CA02DED048B82B04FF6FF70A14E4FF400452060002229463046F9F7B4F96420009068
S32508008CC00123221D21469B48F9F71CFE994890F851100229FBD0012229463046F9F7A2F97C
S32508008CE0A0880123C0F30D00C10904EB8101E0610A6B03EBE011CD1701EB556525F07F0567
S32508008D00491B04EB810120F07F05096B451B891A4D4302EBE5110844C4F83002D4F83412A6
S32508008D20C4F83402421A0021B2F5005F01DD491E03E012F5005F00DA0121256A29442162A7
S32508008D4094F8501219B90021216284F85032D4ED8E0A94ED8F1A9FED782A41EE020AC4ED06
S32508008D608E0ABDEEE00A10EE101A411A00EE101AB8EEC00ADFED711A4FF08C4301E030EE49
S32508008D80610A10EE101A9942F9DC4FF0464310EE101A994202D930EE210AF8E7D4ED902A39
S32508008DA04FF08D4362EE822A42EE800AC4ED8E0A03E070EEE10AC4ED8E0A10EE901A99429F
S32508008DC0F7DC03E070EEA10AC4ED8E0AF5EEC00AF1EE10FAF6D3D4ED910A60EE820A00EEFA
S32508008DE0801A84ED8F1AB5EEC01AF1EE10FA02DDB0EE410A01E0B1EE410AD4ED931ADFED7E
S32508008E00500AB4EEE10AF1EE10FA06D2C4ED8F0AB6EE000A84ED920A1DE0F7EE001A002A71
S32508008E2017DC02DAC4ED921A15E094ED920A01EE020A10EE101A84ED920AB1F17E5F01DD59
S32508008E40C4ED921A94ED920AB5EEC00AF1EE10FA01D2C4ED920A00EE100AD4ED920A9FED23
S32508008E60399AB8EEC00A70EE209A00EE100ADFED360AB8EEC00A20EE090A20EE200A84ED3B
S32508008E80020A94ED081AB8EEC11A01EE090A94ED0A1A30EE410A84ED060A94ED040AD4EDB3
S32508008EA08F1AB0EE401A01EEE01ADFED280A01EE600A84ED040AE06AF7F77FFB94ED090AFE
S32508008EC041EC180BB8EEC00A20EE290A10EE100AF7F773FB41EC100B9FED1D1BFBF7A2FD72
S32508008EE09FED1D1B51EC100B53EC112BF7F784FA53EC182BF7F7D9F9F7F772FB00EE100ABC
S32508008F0084ED030AB5EEC00AF1EE10FA03D230EE090A84ED030A10EE100A1149884203DDCF
S32508008F2030EE490A84ED030A02B0BDEC048B70BD00000240AC0C0020ACC52738000080466D
S32508008F4000000000DB0FC94000008038ABAAAA3E000000000000D04000000060FB21393F17
S32508008F60DB0FC9402DE9F84F0E46044600254FF40047DFF864804FF6FF7A4FF0640BDFF848
S32508008F805C9019E0002239464046C4F800A0F9F749F80123221D21461048CDF800B0F9F7A3
S32508008FA0B1FC484690F851100229FBD0012239464046F9F737F86D1CB542E3DB9FED080A66
S32508008FC084ED900A9FED070A84ED910A9FED060A84ED930ABDE8F88F00000240AC0C0020DF
S32508008FE000007A450024744A0000A042F0B500262DED028BA7B026A9ADF8986001A8FFF70C
S3250800900065FD0146771EBF4DBF48C04C162970D00CDCBF4ABF4BA1F110014FF00104062955
S3250800902068D2DFE801F00E68DAE2EDF719297CD004DC17297AD018295CD12EE12029FBD190
S3250800904052E19DF80E009DF811109DF80F2040EA01609DF810109DF81B60090441EA022107
S3250800906008439DF812209DF815109DF81F7042EA01659DF814109DF81320090441EA022184
S325080090800D439DF816109DF8192000EE100A41EA02639DF818109DF81720090441EA02216D
S325080090A00B439DF81A109DF81D2000EE905A41EA02629DF81C1001EE103A090441EA062103
S325080090C00A439DF81E109DF8216001EE902A41EA06619DF82060360446EA0726314302EE11
S325080090E0101A00F031FA8C480178002900D10470CEE096E004E19DF80E109DF8112041EAB5
S3250800910002649DF810109DF80F20090441EA02210C439DF812109DF8152041EA02639DF812
S3250800912014109DF81320090401E0D3E09AE041EA02210B439DF816109DF819209DF81B70D5
S3250800914041EA02669DF818109DF81720090441EA02210E439DF81A109DF81D209DF81FC034
S3250800916041EA02629DF81C1000EE903A090441EA07210A439DF81E109DF82170FDEEE00A6E
S3250800918041EA07619DF82070EC613F0447EA0C273943C0ED010A00EE106A08EE902A08EED3
S325080091A0101A0446DFED5D0AFBF733FCDFED5C0AFBF727FC85ED020ABDEEE80A84ED030AF9
S325080091C0DFED580AB0EE480AFBF723FCDFED560AFBF717FC85ED030A5AE0022010601C605A
S325080091E0002301211A46084607E016601C60FAF72BFE00231A460121072000F06BF947E034
S3250800920000231A460121122000F064F9F8F7B2FF3EE0FFE714601C60002301211A460520BE
S32508009220EBE7FBF785FBF7F7C5FE85ED010A2069009094E80F00FFF7B0FB10B93348FFF72F
S32508009240A5FB3248FFF746FB3048FFF73FFB2069009094E80F00FFF76DFB002301211A4660
S325080092600820CAE72069009094E80F00FFF795FB10B92648FFF78AFB2448FFF72BFB234838
S32508009280FFF724FB2069009094E80F00FFF752FB002027B0BDEC028BF0BD95ED070A05232F
S325080092A08DED210A90ED010A012121AAB8EEC00A8DED220A95ED020A8DED230A90ED030AB1
S325080092C00320B8EEC00A8DED240A95ED030A8DED250A92E71422154921A8F6F7C2FF052361
S325080092E0012121AA132088E711480188068011480188068000231A460121202000F0EAF84A
S325080093003846C6E7180100201802002018060020080000200C0000205C0000200000FA4455
S325080093200000C842000020420000000034A50008020000200400002010B504469A4201D8C8
S32508009340981A01E0881A184480B2844200D9002010BD0000244A1168CB6A00EE103AF8EE76
S32508009360400AB6EE000A60EE800AFCEEE00A10EE903ACB631168CB6A00EE903AF8EE600A8F
S3250800938060EE800AFCEEE00A10EE903A4B631168CA6A00EE902AF8EE600A20EE800ABCEEB6
S325080093A0C00A10EE102A8A639FED100A80ED2A0A80ED2B0A80ED2E0A80ED2C0A80ED2D0ADB
S325080093C080ED230A80ED240A80ED100A80ED110A80ED120A80ED200A80ED1F0A80ED140AFA
S325080093E080ED130A70470000040D002000000000314810B58168062950D2DFE801F0030AB0
S32508009400144F5057C068002848D0BDE81040FEF703B9C06818B1BDE81040FDF7CBBEBDE81E
S325080094201040FDF7F7BEC06818B1BDE81040FEF7F5BA224C2348DFED220A94ED280AC068EF
S32508009440B8EEC00A60EE200A00EE100AB8EEC00AF4EEC00AF1EE10FA13DD002811DD1648A5
S325080094609FED190A801C84ED230A84ED240A84ED2C0A84ED2D0A84ED2E0A018841F0200183
S3250800948001800E4800F04CF994ED0C0A0F490B483034FDF735FF206F401C206710BDC0687D
S325080094A00028FBD0BDE81040FEF746B9BDE8104001210748FFF774BA000000208008002070
S325080094C0ACC527381802002000000000440B00202C060020F8B50E46002115468DF80010A1
S325080094E09906164A0C0E1449116004F10B01C2F80510167150720A2210490020FDF7F6FED1
S325080095008DF8000022462946FDF7F0FE0C4E8DF8000033460A2209490A48FAF7F5F8334680
S32508009520224629460748FAF7EFF83346012269460448FAF7E9F8F8BDFF318A238000002084
S32508009540FFFF0F00DC0D0020054880ED2A0AC0ED2B0A80ED2E1AC0ED2C1A80ED2D2A7047F4
S325080095608008002000B52DED048B83B041EC190BF7F744F941EC180B18EE100A18EE901A08
S325080095808DED008B002818BF0120084320F00040C0F17F6000F1E040C00F14D019EE101A78
S325080095A019EE900A8DED009B002918BF0121084320F00040C0F17F6000F1E040C00F04BFF7
S325080095C00120FCF76BFD51EC180B03B0BDEC048B00BD000070B516462DED088BF0EE61AAE2
S325080095E0F0EE419AB0EE60AAF0EE408A0D460446B0EE6A1AF0EE690AB0EE4A0AFEF7E3FA80
S32508009600B0EE408AB0EE6A1AF0EE690AB0EE4A0AFEF7C4FA38EE000AB6EE009A20EE098AAD
S325080096207AEE480A9FED1AAA80EEA80AF0EE4A0A30EE090AFBF7E5F99FED16BAF0EE4B0A30
S32508009640FBF7E7F979EEC80A84ED000A80EEA80AF0EE4A0A30EE090AFBF7D3F9F0EE4B0A02
S32508009660FBF7D7F985ED000A3AEEC80AC0EE280A30EE890AF0EE4A0AFBF7C3F9F0EE4B0A00
S32508009680FBF7C7F986ED000ABDEC088B70BD000000000000D7A3703F1C4810B5006886B034
S325080096A01B4C02281ED194ED0B0ADFED1A0A8DED030A94ED0D0A1848032320EE200A03AA0C
S325080096C001218DED040A94ED120AD0ED070A022020EE200ADFED110A20EE200A8DED050A65
S325080096E0FFF7F8FE94ED080A03238DED000A94ED030A6A468DED010A94ED040A01218DED45
S32508009700020A0420FFF7E6FE06B010BD0800002080080020DB0FC94018010020802B993D31
S3250800972090ED2B1ADFED181A1849DFED160A81EE210A90ED0D1AD0ED0B1A30EE410A90ED08
S325080097402D1A20EE010A90ED2A1A31EE611AD0ED2C1A01EE810A90ED2E1AD1ED071A00F12E
S32508009760900130EE011A81EE210A9FED091AC0EE011AC0ED241AC0ED230A90ED0A0A8C30ED
S32508009780FEF7A2BA00000000DB0FC94018010020802B993D03B59DF8000048709DF8010022
S325080097A0087002200CBD01EE100A70EEC00A0120B8EEC11A8840401E21EE201A00EE900A6E
S325080097C0F8EEE01AC1EE210A30EE800A7047000010B50C462DED048B82B0016800919FEDEA
S325080097E0238ADFED238A40680190BDF800001021F0EE480AB0EE680AFFF7D5FF84ED2A0A67
S32508009800BDF802000E21C0F30D00F0EE480AB0EE680AFFF7C8FF84ED2B0A9FED179ABDF8FF
S3250800982003000A218009DFED130AB0EE490AFFF7BAFF84ED2C0A9DF805000821DFED0F0A8B
S32508009840B0EE490AFFF7AFFF84ED2D0ABDF806001021F0EE480AB0EE680AFFF7A4FF84ED87
S325080098602E0A02B0BDEC048B10BD000000002042000020C200C07F440000000000004C4296
S325080098802DE9F0478946284980460026086835464FF48067C26A00EE102AF8EE400AB6EE04
S325080098A0000A60EE800AFCEEE00A10EE902A42630868C26A00EE902AF8EE600A60EE800A1B
S325080098C0FCEEE00A10EE902A82630868C16A00EE901AF8EE600A20EE800ABCEEC00A10EE7C
S325080098E0101AC16300241148F7F768FC1048F7F765FC0120F8F780FA01210C48F7F740FC6C
S32508009900064401210A48F7F73BFC641C0544BC42E9DB96FBF7F1C8F8001095FBF7F1C9F849
S325080099200010BDE8F0870000040D0020540B00209C0B0020000000002975493CDF6EC93C01
S325080099406F0E173D3160493D8FA97B3D38F4963D6B0EB03D4721C93D5E2EE23DEC2FFB3D50
S325080099607F130A3E698C163E76FD223EA5662F3E97CA3B3E4A29483E807D543EDAC9603EC8
S32508009980560E6D3EF54A793E3CBD823E0FD1883EA4DF8E3EFBE8943EC4EB9A3EFFE7A03E06
S325080099A0FCDEA63E6CCFAC3E4EB9B23EA29CB83E1878BE3EB24BC43EBD18CA3EECDDCF3E4D
S325080099C0ED99D53E614FDB3E59FAE03EC39EE63EB038EC3E71C9F13E5452F73EBBD0FC3E06
S325080099E05322013FB2D7033FD387063FB532093F5AD80B3FC0780E3F4013113F82A8133FEB
S32508009A00DF37163F55C1183FE5441B3F8FC21D3F543A203F8AAB223FDB16253F9E7B273FD9
S32508009A20D3D9293F7B312C3FED812E3F79CC303FD00F333FF14B353F8481373FE2AF393FD9
S32508009A400AD73B3FFDF63D3F130F403F9B20423F9E29443F132C463F0326483FBD184A3F35
S32508009A609B034C3FF3E54D3F16C14F3FB493513F745E533F5721553F0EDB563F8F8D583F6E
S32508009A80E3365A3FB2D75B3FA4705D3F69005F3F5188603F0C07623F9A7C633FA3E9643F19
S32508009AA0274E663F7EA9673F50FC683F4E456A3FC6856B3F12BD6C3F31EB6D3F23106F3F6A
S32508009AC0412B703FD93D713F9D46723F3546733F9F3C743F3529753F9E0C763F32E6763F0A
S32508009AE09AB6773F2C7D783FEB39793F7CED793F39977A3F22377B3F36CD7B3F75597C3F13
S32508009B0087DC7C3F1D557D3F87C47D3F74297E3F34857E3F77D67E3F8E1E7F3F295C7F3F5D
S32508009B20EF8F7F3F88BA7F3FA5DA7F3FEDF07F3F61FD7F3F0000803F23F87F3F19E77F3F91
S32508009B4092CB7F3F37A67F3FAF777F3FAB3E7F3FD2FB7E3F25AF7E3FA3587E3F4DF87D3FE2
S32508009B60228E7D3F221A7D3F4E9C7C3FA5147C3F27837B3FD5E77A3F57437A3F0395793FDE
S32508009B80DBDC783FDF1A783FB54F773FB77A763FE59B753FE5B3743FB9C2733FB9C7723F1C
S32508009BA08BC3713F31B6703F029F6F3FA67E6E3F1D556D3F68226C3F86E66A3F1FA2693F12
S32508009BC0E353683F22FD663F349D653F1A34643F22C3623F5648613FACC55F3FD6395E3FF1
S32508009BE07AA55C3F9A085B3F3563593F4AB5573F82FF553F8E40543F637A523FB4AB503FCA
S32508009C0080D44E3F6FF54C3F280F4B3F5C20493FB329473FD42B453F1826433F7E18413FE6
S32508009C20B0033F3FABE73C3F72C43A3F5B99383FB667363FDC2E343FCCEE313F2FA82F3F40
S32508009C405C5A2D3FFB052B3F0DAB283F9049263F2EE2233F9773213F19FF1E3FB6841C3F27
S32508009C60C5031A3F957D173FD8F0143FDD5E123FFCC60F3F35290D3F2F860A3FECDD073FDF
S32508009C806A30053FAA7D023F598BFF3E3012FA3E8A8EF43E0803EF3E096DE93EDDCDE33EEB
S32508009CA08525DE3E4F75D83E3CBDD23EFCFBCC3EDF32C73E3563C13E5D8ABB3E47ACB53E79
S32508009CC005C5AF3E84D8A93E75E5A33E89EA9D3E60EA973EF7E4913E02D98B3ECEC7853E2E
S32508009CE0B7627F3EF52D733EB7EE663EFDA45A3E65534E3EF0F9413E3D9B353E0E32293E8D
S32508009D00A0C31C3EF44F103E0AD7033EC4B1EE3DB9A5D53DA298BC3D1B82A33D49658A3D90
S32508009D206685623DD637303DF7C7FB3CC615973C5374C93B5374C9BBC61597BCF7C7FBBCB5
S32508009D40D63730BD668562BD49658ABD1B82A3BDA298BCBDB9A5D5BDC4B1EEBD0AD703BE9A
S32508009D60F44F10BEA0C31CBE0E3229BE3D9B35BEF0F941BE65534EBEFDA45ABEB7EE66BE67
S32508009D80F52D73BEB7627FBECEC785BE02D98BBEF7E491BE60EA97BE89EA9DBE75E5A3BEBE
S32508009DA084D8A9BE05C5AFBE47ACB5BE5D8ABBBE3563C1BEDF32C7BEFCFBCCBE3CBDD2BE1E
S32508009DC04F75D8BE8525DEBEDDCDE3BE096DE9BE0803EFBE8A8EF4BE3012FABE598BFFBE50
S32508009DE0AA7D02BF6A3005BFECDD07BF2F860ABF35290DBFFCC60FBFDD5E12BFD8F014BFA1
S32508009E00957D17BFC5031ABFB6841CBF19FF1EBF977321BF2EE223BF904926BF0DAB28BF68
S32508009E20FB052BBF5C5A2DBF2FA82FBFCCEE31BFDC2E34BFB66736BF5B9938BF72C43ABFF0
S32508009E40ABE73CBFB0033FBF7E1841BF182643BFD42B45BFB32947BF5C2049BF280F4BBF36
S32508009E606FF54CBF80D44EBFB4AB50BF637A52BF8E4054BF82FF55BF4AB557BF356359BF6D
S32508009E809A085BBF7AA55CBFD6395EBFACC55FBF564861BF22C362BF1A3464BF349D65BFD9
S32508009EA022FD66BFE35368BF1FA269BF86E66ABF68226CBF1D556DBFA67E6EBF029F6FBF02
S32508009EC031B670BF8BC371BFB9C772BFB9C273BFE5B374BFE59B75BFB77A76BFB54F77BF63
S32508009EE0DF1A78BFDBDC78BF039579BF57437ABFD5E77ABF27837BBFA5147CBF4E9C7CBFA1
S32508009F00221A7DBF228E7DBF4DF87DBFA3587EBF25AF7EBFD2FB7EBFAB3E7FBFAF777FBF70
S32508009F2037A67FBF92CB7FBF19E77FBF23F87FBF000080BF61FD7FBFEDF07FBFA5DA7FBF13
S32508009F4088BA7FBFEF8F7FBF295C7FBF8E1E7FBF77D67EBF34857EBF74297EBF87C47DBF29
S32508009F601D557DBF87DC7CBF75597CBF36CD7BBF22377BBF39977ABF7CED79BFEB3979BFA8
S32508009F802C7D78BF9AB677BF32E676BF9E0C76BF352975BF9F3C74BF354673BF9D4672BFC0
S32508009FA0D93D71BF412B70BF23106FBF31EB6DBF12BD6CBFC6856BBF4E456ABF50FC68BF6B
S32508009FC07EA967BF274E66BFA3E964BF9A7C63BF0C0762BF518860BF69005FBFA4705DBFC2
S32508009FE0B2D75BBFE3365ABF8F8D58BF0EDB56BF572155BF745E53BFB49351BF16C14FBFA1
S3250800A000F3E54DBF9B034CBFBD184ABF032648BF132C46BF9E2944BF9B2042BF130F40BFAC
S3250800A020FDF63DBF0AD73BBFE2AF39BF848137BFF14B35BFD00F33BF79CC30BFED812EBF34
S3250800A0407B312CBFD3D929BF9E7B27BFDB1625BF8AAB22BF543A20BF8FC21DBFE5441BBF40
S3250800A06055C118BFDF3716BF82A813BF401311BFC0780EBF5AD80BBFB53209BFD38706BF0C
S3250800A080B2D703BF532201BFBBD0FCBE5452F7BE71C9F1BEB038ECBEC39EE6BE59FAE0BE21
S3250800A0A0614FDBBEED99D5BEECDDCFBEBD18CABEB24BC4BE1878BEBEA29CB8BE4EB9B2BEC7
S3250800A0C06CCFACBEFCDEA6BEFFE7A0BEC4EB9ABEFBE894BEA4DF8EBE0FD188BE3CBD82BEE1
S3250800A0E0F54A79BE560E6DBEDAC960BE807D54BE4A2948BE97CA3BBEA5662FBE76FD22BE5F
S3250800A100698C16BE7F130ABEEC2FFBBD5E2EE2BD4721C9BD6B0EB0BD38F496BD8FA97BBD4D
S3250800A120316049BD6F0E17BDDF6EC9BC297549BC0000000000000000B71DC1046E3B8209E7
S3250800A140D926430DDC7604136B6BC517B24D861A0550471EB8ED08260FF0C922D6D68A2F0C
S3250800A16061CB4B2B649B0C35D386CD310AA08E3CBDBD4F3870DB114CC7C6D0481EE0934500
S3250800A180A9FD5241ACAD155F1BB0D45BC2969756758B5652C836196A7F2BD86EA60D9B63A2
S3250800A1A011105A6714401D79A35DDC7D7A7B9F70CD665E74E0B6239857ABE29C8E8DA19145
S3250800A1C0399060953CC0278B8BDDE68F52FBA582E5E66486585B2BBEEF46EABA3660A9B794
S3250800A1E0817D68B3842D2FAD3330EEA9EA16ADA45D0B6CA0906D32D42770F3D0FE56B0DDAE
S3250800A200494B71D94C1B36C7FB06F7C32220B4CE953D75CA28803AF29F9DFBF646BBB8FBA9
S3250800A220F1A679FFF4F63EE143EBFFE59ACDBCE82DD07DEC77708634C06D4730194B043D8B
S3250800A240AE56C539AB0682271C1B4323C53D002E7220C12ACF9D8E1278804F16A1A60C1B73
S3250800A26016BBCD1F13EB8A01A4F64B057DD00808CACDC90C07AB9778B0B6567C699015715F
S3250800A280DE8DD475DBDD936B6CC0526FB5E6116202FBD066BF469F5E085B5E5AD17D1D5739
S3250800A2A06660DC5363309B4DD42D5A490D0B1944BA16D84097C6A5AC20DB64A8F9FD27A5A8
S3250800A2C04EE0E6A14BB0A1BFFCAD60BB258B23B69296E2B22F2BAD8A98366C8E41102F83FB
S3250800A2E0F60DEE87F35DA9994440689D9D662B902A7BEA94E71DB4E0500075E4892636E9CD
S3250800A3003E3BF7ED3B6BB0F38C7671F7555032FAE24DF3FE5FF0BCC6E8ED7DC231CB3ECF40
S3250800A32086D6FFCB8386B8D5349B79D1EDBD3ADC5AA0FBD8EEE00C6959FDCD6D80DB8E6091
S3250800A34037C64F643296087A858BC97E5CAD8A73EBB04B77560D044FE110C54B383686464A
S3250800A3608F2B47428A7B005C3D66C158E4408255535D43519E3B1D252926DC21F0009F2C0E
S3250800A380471D5E28424D1936F550D8322C769B3F9B6B5A3B26D6150391CBD40748ED970A60
S3250800A3A0FFF0560EFAA011104DBDD014949B93192386521D0E562FF1B94BEEF5606DADF8C3
S3250800A3C0D7706CFCD2202BE2653DEAE6BC1BA9EB0B0668EFB6BB27D701A6E6D3D880A5DED2
S3250800A3E06F9D64DA6ACD23C4DDD0E2C004F6A1CDB3EB60C97E8D3EBDC990FFB910B6BCB41C
S3250800A400A7AB7DB0A2FB3AAE15E6FBAACCC0B8A77BDD79A3C660369B717DF79FA85BB49267
S3250800A4201F4675961A163288AD0BF38C742DB081C330718599908A5D2E8D4B59F7AB085455
S3250800A44040B6C95045E68E4EF2FB4F4A2BDD0C479CC0CD43217D827B9660437F4F46007231
S3250800A460F85BC176FD0B86684A16476C93300461242DC565E94B9B115E565A15877019186D
S3250800A480306DD81C353D9F0282205E065B061D0BEC1BDC0F51A69337E6BB52333F9D113E77
S3250800A4A08880D03A8DD097243ACD5620E3EB152D54F6D4297926A9C5CE3B68C1171D2BCC26
S3250800A4C0A000EAC8A550ADD6124D6CD2CB6B2FDF7C76EEDBC1CBA1E376D660E7AFF023EAB9
S3250800A4E018EDE2EE1DBDA5F0AAA064F4738627F9C49BE6FD09FDB889BEE0798D67C63A803B
S3250800A500D0DBFB84D58BBC9A62967D9EBBB03E930CADFF97B110B0AF060D71ABDF2B32A67E
S3250800A5206836F3A26D66B4BCDA7B75B8035D36B5B440F7B10000244200609744000000008D
S3250800A5400000000000000000000000000000000001020304060708090000000001020304BB
S3250800A56004FA97999999D93FAF788E1DC571CC3F9FC678D0099AC33F935555555555E53F90
S3250800A580599322942449D23FDE03CB966446C73F44523EDF12F1C23F000000000000F03FB5
S3250800A5A0000000000000F83F00000000000000000000004003B8E23F00000000000000003A
S3250800A5C006D0CF43EBFD4C3E033333333333E33FFFAB6FDBB66DDB3F4D268F515555D53FAD
S3250800A5E001411DA96074D13F65DBC9934A86CD3FEF4E454A287ECA3F3E5555555555C53F83
S3250800A60093BDBE166CC166BF2CDE25AF6A56113FF16BD2C541BDBBBED0A4BE726937663E76
S3250800A6200000000000000000000000006E83F9A22915444ED15727FCC0DD34F5999562DB34
S3250800A6404190433CAB6351FE0A0D20546F206368616E676520612076616C75652C207479C8
S3250800A66070652027707265666978272776616C75652727454E544552270A0D20692E652E63
S3250800A680202762313030302727454E544552270A0D0A0D00B4A6000800000020800000001F
S3250800A6A07C60000834A7000880000020A0CD00008C600008000000000000000000000000C4
S3250800A6C00000000000000000000000000000000000000008004000080080000800C00008CC
S3250800A6E00000010800000208000004080000060800000000080000001000000018000000EF
S3250800A700200000003000000030000000380000000000000001000000100000000000000062
S3190800A7200024F40000000000000000000000000000000000FF
S325080600007060002065020608F30C0608C10C0608F10C06085B040608AD0D0608000000003F
S32508060020000000000000000000000000F70C06085D04060800000000F50C0608F90C06080A
S325080600407F0206087F0206087F0206087F0206087F0206087F0206087F0206087F02060814
S325080600607F0206087F0206087F0206087F0206087F0206087F0206087F0206087F020608F4
S325080600807F0206087F0206087F0206087F0206087F0206087F0206087F0206087F020608D4
S325080600A07F0206087F0206087F0206087F0206087F0206087F0206087F0206087F020608B4
S325080600C07F0206087F0206087F0206087F0206087F0206087F0206087F0206087F02060894
S325080600E07F0206087F0206087F0206087F0206087F0206087F0206087F0206087F02060874
S325080601007F0206087F0206087F0206087F0206087F0206087F0206087F0206087F02060853
S325080601207F0206087F0206087F0206087F0206087F02060800000000000000007F02060851
S325080601407F0206087F0206087F0206087F0206087F0206087F0206087F0206087F02060813
S325080601607F0206087F0206087F0206087F0206087F0206087F0206087F0206080000000082
S32508060180000000007F02060800000000000000007F02060800000000000000007F0206089E
S325080601A00000000000000000000000007F0206087F0206087F0206087F0206087F02060860
S325080601C07F02060800F002F800F03CF80AA090E8000C82448344AAF10107DA4501D100F02F
S325080601E031F8AFF2090EBAE80F0013F0010F18BFFB1A43F001031847E00C0000000D0000CB
S32508060200103A24BF78C878C1FAD8520724BF30C830C144BF04680C60704700000023002454
S3250806022000250026103A28BF78C1FBD8520728BF30C148BF0B6070471FB500F03FFE1FBDEB
S3250806024010B510BD00F0CFF81146FFF7F5FF00F0BFFD00F0EDF803B4FFF7F2FF03BC00F032
S32508060260F5F800000948804709480047FEE7FEE7FEE7FEE7FEE7FEE7FEE7FEE7FEE7FEE7DB
S3250806028004480549054A064B704700009D0D0608C50106087000002070600020702000209D
S325080602A07020002053EA020C00F069802DE9F04B4FF00006002B1FBFB3FA83F503FA05F49C
S325080602C024FA05F65E4012BF1643B2FA82F502FA05F4C5F120051EBF22FA05FC44EA0C04FE
S325080602E0203556EA044C4FEA144418BF641C4FF000084FF00009904271EB030C39D300291C
S3250806030019BFB1FA81F701FA07F6B0FA80F700FA07F6C7F120071EBF20FA07FC46EA0C06A3
S325080603202037B6FBF4FCA7EB0507103F07F01F0BCBF120060CFA0BFB2CFA06F644BFB34697
S325080603400026202FA4BF5E464FF0000B5BEA060C08BF4FF0010B19EB0B09ABFB027C48EBEB
S325080603600608C01B06FB02CC0BFB03CC71EB0C01C1E70B46024641464846BDE8F08B13B535
S325080603804FF000004FF00001AFF30080BDE81C4070474FF0000200B5134694469646203992
S325080603A022BFA0E80C50A0E80C50B1F12001BFF4F7AF090728BFA0E80C5048BF0CC05DF861
S325080603C004EB890028BF40F8042B08BF704748BF20F8022B11F0804F18BF00F8012B7047F7
S325080603E0704770477047754600F02CF8AE4605006946534620F00700854618B020B5FFF73F
S325080604003FFFBDE820404FF000064FF000074FF000084FF0000B21F00701AC46ACE8C00901
S32508060420ACE8C009ACE8C009ACE8C0098D46704710B50446AFF300802046BDE81040FFF785
S325080604400ABF0000004870471000002001491820ABBEFEE7260002007047FEE77047000045
S3250806046001490860704700000C3C024070B50646002529B1012927D0022928D04FF44075C9
S3250806048000F080F809281ED1124C206820F440702060206828432060206820F0F800206013
S325080604A0206846F0020108432060206840F48030206000F067F8216821F0020121602168BA
S325080604C021F0F801216070BD4FF48075D8E74FF40075D5E7103C02400D4909200A68D20391
S325080604E001D5012070470A68D20601D5062070470A68D20501D5022070470A6812F0E00FE2
S3250806050001D00720704709688907FBD5082070470C3C02400248016841F0004101607047A1
S32508060520103C024070B50D46064600F02BF8092813D10A4C206820F440702060206840F44F
S3250806054000702060206840F001002060356000F019F8216821F00101216070BD103C0240F0
S3250806056005480068002805DA034804490C3801600349016070470000103C024023016745AC
S32508060580AB89EFCD08B509208DF80000FFF7A4FF8DF800009DF800000128F7D09DF80000B4
S325080605A008BD000001488068704700000000002002488168027811448160704700000020A0
S325080605C00B4810B5016841F400710160016841F480610160016841F480710160032000F09C
S325080605E061F80F2000F006F800F024F8002010BD003C024070B50D4D04464FF47A71287863
S32508060600B1FBF0F00A490968B1FBF0F000F044FB48B9102C07D200222146501E00F022F8A4
S3250806062000206C6070BD012070BD0000000000200C0000200A4808B5016841F48041016024
S32508060640006800F4804000900548001F016841F080510160006800F08050009008BD000025
S3250806066044380240F0B40E4B1B680C46C3F30223C3F10705042D00D90425191D072901D2CF
S32508060680002300E0DB1E012606FA05F1491E214099409E40761E16403143F0BC00F087BB72
S325080606A00CED00E0064900F0070208684FF6FF03184040EA0220034A1043086070470000EB
S325080606C00CED00E00000FA052DE9F8431748016841F0805101600068154F00F080500126FF
S325080606E000903E64FFF75EFF05464FF47A78114C05E000BFFFF756FF401B40450DD8606808
S32508060700C003F7D57E64FFF74DFF0546464607E0FFF748FF401BB04202D90320BDE8F883AC
S3250806072060688003F4D50020F8E700004038024000000E42007000402DE9F0470E46050032
S3250806074065D0DFF81481D8F80000F7B200F00F00B04207D288F80070D8F8000000F00F00E2
S32508060760B04254D128683D4C810712D5400703D5206840F4E05020602878000703D5206834
S3250806078040F4604020602068A96820F0F000084320602878C0072DD0304968680839012876
S325080607A012D0022813D0032811D00968890700292DDA216821F0030101432160FFF7F2FEB0
S325080607C0814641F2883A0EE009688903EFE709688901ECE7FFF7E6FEA0EB0901514502D9DA
S325080607E00320BDE8F0872068696800F00C00B0EB810FEFD1D8F80010404601F00F01B1420C
S3250806080007D90770006800F00F00B04201D00120E7E72878400705D52068E96820F4E05076
S32508060820084320602878000706D52068296920F4604040EAC100206000F018F82168084A43
S32508060840C1F30311515CC8400649086006480068FFF7D0FE0020C4E7003C0240083802400B
S32508060860C60E06080C00002004000020224810B5006810F00C02214815D04110042A11D0DF
S325080608801D4C241F082A0FD00C2A0CD12268236802F03F025B0221D52068C0F38810A0FB6B
S325080608A0010120E0084610BD2268236802F03F025B0205D52068C0F38810A0FB010104E034
S325080608C02168C1F38811A1FB00010023FFF7EAFC2168C1F30141491C49000AE02168C1F33E
S325080608E08811A1FB00010023FFF7DCFC2168C1F30271B0FBF1F010BD083802400024F4001A
S325080609002DE9F84F04007DD0DFF878B32078ABF10407C007A7F1040550D0DBF800105846CB
S32508060920C1F3810101290FD00168C1F38101022902D13968490207D40068C0F38100032839
S3250806094009D13868400206D52868800336D560680028D8D032E06068B0F5803F10D0B0F573
S32508060960A02F286810D020F480302860286820F4802028606068A0B1FFF714FE06460CE0B3
S32508060980286840F48030F4E740F480202860F7E7FFF708FE801B642876D828688003F7D56A
S325080609A00CE0FFF7FFFD064605E000BFFFF7FAFD801B6428F0D828688003F7D42078DFF82C
S325080609C0C89280074FF0000A44D5DBF80010584611F00C0F0FD00168C1F38101022902D1A7
S325080609E03968490207D50068C0F3810003280AD13868400207D42868800715D5E06801284A
S32508060A0000D111E03AE1E068B0B10120C9F80000FFF7C8FD064604E0FFF7C4FD801B0228F3
S32508060A20BAD828688007F7D52868216920F0F80040EAC10028600DE0C9F800A0FFF7B2FDA5
S32508060A40064604E0FFF7AEFD801B02281CD828688007F7D42078000727D5DFF828828B4827
S32508060A60616908F16C0881B101210160FFF79AFD064604E0FFF796FD801B022804D8D8F8BF
S32508060A8000008007F6D510E089E0C0F800A0FFF789FD064605E000BFFFF784FD801B022897
S32508060AA07DD8D8F800008007F6D42078400769D574484FF0000838300068C0000BD4714864
S32508060AC03830016841F08051016000684FF0010800F0805000906E4E3068C00511D4306838
S32508060AE040F480703060FFF75DFD009006E000BFFFF758FD0099401A022850D83068C005BC
S32508060B00F6D5604EA068683601280FD00528306810D020F001003060306820F00400306018
S32508060B20A068B8B1FFF73EFD00900FE0306840F00100F4E740F004003060F7E7FFF732FD15
S32508060B400099411A41F28830814264D830688007F4D50EE0FFF726FD009007E0FFF722FD28
S32508060B600099411A41F28830814254D830688007F4D4B8F1000F05D042483830016821F0B3
S32508060B8080510160A069A8B3DBF80010C1F38101022947D00228C9F860A005D000E03AE096
S32508060BA0FFF700FD044639E0FFF7FCFC064604E0FFF7F8FC801B02282DD828688001F7D41D
S32508060BC0F4E907010843E168324A490802EB0141A26841EA82110843217C40EA0160217DB3
S32508060BE040EA017038600120C9F86000FFF7DAFC044606E044E000BFFFF7D4FC001B022882
S32508060C0009D828688001F7D53AE000BFFFF7CAFC001B022802D90320BDE8F88F28688001ED
S32508060C20F4D42DE00128F7D03868E26900F48001914223D1226A00F03F0191421ED147F6F9
S32508060C40C071626A0140B1EB821F17D1A26A4FF0FF3300F4403103EB5202B1EB024F0DD12E
S32508060C6094F82C2000F07061B1EB026F06D194F8301000F0E040B0EB017F01D00120CBE748
S32508060C800020C9E70838024000004742800E4742007000400000FFFF10B5401EB0F1807FDD
S32508060CA001D3012010BD4FF0E02460610F21601700F07DF80020A06107202061002010BD98
S32508060CC0FEE70000094808B5016841F080010160016801F080010091016841F00101016028
S32508060CE0006800F00100009008BD000030380240FEE7FEE770477047FFF75ABC30B593B01C
S32508060D0034216846FFF745FB14210DA8FFF741FB20480025016841F080510160006800F0B9
S32508060D20805012901C48016841F4404101600068022400F44040129001200090000401905F
S32508060D408001CDE9064004200890B420CDE909040B9468460C94FFF7D3FD08B172B6FEE736
S32508060D60FFF7B2FC08B172B6FEE70DA90F2081E831004FF4A05010904FF4805011900521C9
S32508060D800DA8FFF7D9FC002801D072B6FEE713B030BD0000403802400070004002480168EC
S32508060DA041F470010160704788ED00E0FEE70907090E002804DB00F1E02080F800147047C5
S32508060DC000F00F0000F1E02080F8141D70470000FFF7F6FBFFF792FFFFF774FF0D490C482E
S32508060DE00860002400F01AF818B1641C052CF9DBFEE7BFF34F8F0748001D0168064A01F474
S32508060E00E06111430160BFF34F8F00BFFDE700000000060808ED00E00400FA052DE9F04762
S32508060E20FFF79EFBF120FFF71BFB00244FF0FF38E0000221FFF71AFB092821D1641C052C76
S32508060E40F6DBFFF767FB1C4D4FF000606FF001090168491C29D1001DA842F9D38A465746DC
S32508060E60FFF77EFB4FF400465FF0000407EB840055F8241000F10060FFF754FB092804D081
S32508060E80FFF748FB4046BDE8F087641CB442EDD3FFF740FB00200BE007EB800101F100612B
S32508060EA055F8202009688A4201D04846EBE7401CB042F1D35046E6E7000002084FF04070B5
S32508060EC0E1EE100A7047000000000000000001020304060708090000F80E06080000002002
S32508060EE01000000000020608080F060810000020606000001C02060801000000100000006C
S30D08060F00000000000024F400BD
S9030000FC
