:020000040800F2
:100000000000022019030008210300082303000850
:10001000250300082703000829030008000000004A
:100020000000000000000000000000002B0300089A
:100030002D030008000000002F0300083103000812
:1000400033030008330300083303000833030008B8
:1000500033030008330300083303000833030008A8
:100060003303000833030008330300083303000898
:100070003303000833030008330300083303000888
:1000800033030008330300083303000895370008E2
:100090007D37000833030008893700083303000860
:1000A00033030008495B00083303000833030008EA
:1000B0003303000833030008330300083303000848
:1000C0003303000833030008330300083303000838
:1000D0003303000833030008330300083303000828
:1000E0003303000833030008330300083303000818
:1000F0003303000833030008330300083303000808
:1001000033030008330300083303000833030008F7
:1001100033030008330300083303000833030008E7
:1001200033030008330300083303000833030008D7
:10013000330300080000000000000000B937000889
:10014000A137000833030008AD3700083303000867
:1001500033030008330300083303000833030008A7
:100160003303000833030008330300083303000897
:1001700033030008330300083303000800000000C5
:100180000000000033030008000000000000000031
:1001900033030008000000000000000033030008E3
:1001A0000000000000000000000000003303000811
:1001B0003303000833030008330300083303000847
:1001C0003303000800F002F800F098F80AA090E865
:1001D000000C82448344AAF10107DA4501D100F002
:1001E0008DF8AFF2090EBAE80F0013F0010F18BF37
:1001F000FB1A43F00103184760F4000080F400008C
:10020000103A24BF78C878C1FAD8520724BF30C842
:1002100030C144BF04680C60704700000023002414
:1002200000250026103A28BF78C1FBD8520728BF06
:1002300030C148BF0B6070476E2900F0918570296E
:1002400000F0E18166290DF0FD8765290DF0FA8740
:1002500067290DF0F78761290DF0F68703681B0AFF
:1002600028BF41F08001692900F05281642900F023
:100270004F81752900F04C816F2901F0A080782909
:1002800000F0AD81E92901F03B80E42901F03880DC
:10029000F52901F03580EF2901F09D80F82900F063
:1002A000AC810368DB0928BF41F08001632900F0BD
:1002B000AA87732900F0AF87E32901F06787F32944
:1002C00001F06C87002070471FB50DF0F8FE9DE827
:1002D000030000F099FC01F025FD0400002000213E
:1002E0000DF020F8401C6060002000210DF004F8A3
:1002F000E06001F049FC00F047FC1FBD0AF020FB64
:10030000114603B40AF054FB03BCFFF7DDFF03F012
:1003100023FA0BF04FF900000648804706480047D3
:10032000FEE7FEE7FEE7FEE7FEE7FEE7FEE7FEE7A5
:10033000FEE7FEE7F55A0008C501000800487047CF
:10034000A015002070B5064600F042FC056806F1D5
:100350000B0020F00704B4429CBF002070BD2B4668
:100360006A68BAB11068A04210D304F1080188424B
:100370003CBF5068586007D351681019416011683C
:10038000091B016058601460101D70BD134652684F
:10039000002AE7D12146284600F022FC0028DED1C1
:1003A00070BD70B50446051F00F012FC0068002CFB
:1003B00014BF446870BD002C18BFAC423CBF20463F
:1003C0006468F8D301680A18AA4218BF456003D1CF
:1003D0002A6805461144016028684119A1421CBFE2
:1003E0006C6070BD6168696021680844286070BDF8
:1003F000B2F120030AD5C2F1200320FA02F001FA7B
:1004000003F321FA02F140EA0300704721FA03F0F6
:100410004FF00001704700007CB51D4616460C00E9
:10042000009001D02044401E074B7B442A46694679
:100430000190304600F0BDFE05461CB10020694623
:1004400000F0CAFE28467CBDB50D00000B460146F3
:10045000184600F0E5BE00000FB4044910B503AA29
:10046000029800F0DDFE10BC5DF814FBF8150020CA
:1004700070B5044685690068C10601D5302600E0E4
:100480002026C00707D070BDD4E90121304690472F
:10049000206A401C20626D1EF6D570BD70B5044602
:1004A00085690078C00707D170BDD4E901212020FB
:1004B0009047206A401C20626D1EF6D570BD70B555
:1004C0000C460546012A05D02878800600D5EA6941
:1004D000002302E0012305E05B1C934202D2E05CB2
:1004E0000028F9D1A869E618C01AA861286A18443A
:1004F00028622846FFF7BCFF04E0D5E9012114F883
:10050000010B9047B442F8D32846FFF7C7FF70BDF0
:100510002DE9F0410646002410687529314616A5DC
:1005200010D000F0B2FB002802DA404213A507E029
:1005300031688A0701D512A502E0490704D511A543
:10054000012401E000F0AAFB00210A2206F12407A1
:1005500009E0B0FBF2FCB0FBF2F302FB1C00303010
:1005600078541846491C0028F3D123462A463046C1
:10057000BDE8F04100F09BBB000000002D00000032
:100580002B00000020000000F0B40D460188090592
:1005900002D5214C7C4402E01F4C7C440E340021E7
:1005A00000F1240608E002F00F071209E75D42EAB5
:1005B00003721B097754491C52EA0307F3D10278EE
:1005C0000023120704D5702D06D009B1022311347F
:1005D0002246F0BC00F06BBB01231034F8E770B585
:1005E00004460D462146106800F058FB0246294695
:1005F0002046BDE870400023C6E7D21D22F0070365
:10060000D3E90023C0E70368126843F020030360C6
:100610000823C3610023B7E7A4EB00002DE9F05FD6
:10062000894604464FF0000ADFF874B1FB44C0F875
:1006300020A02046E1688847002874D0252806D0ED
:10064000D4E901219047206A401C2062F1E700268E
:100650005F462046E16888472028054607DB312DA4
:1006600005D2781910F8200C08B10643F1E7B0075D
:1006700001D526F00406C4F81CA00027C4F818A071
:100680002A2D09D028460AF07EF938B304EB8708F2
:10069000303DC8F8185019E059F8041B204604EB07
:1006A00087029161E1688847012F054618D1E0690A
:1006B000002820DA26F020061DE0D8F8180000EB0C
:1006C000800005EB40003038C8F818002046E1688B
:1006D000884705460AF057F90028EED1012F0AD0C5
:1006E0002E2D08D12046E16888477F1C0546022F41
:1006F00046F02006C4DBA069002803DA404246F039
:100700000106A061F00701D026F010066C2D0BD079
:10071000682D09D04C2D39D06A2D35D0742D35D0A7
:100720007A2D33D016E038E0E1682F46204688471E
:10073000B842054609D16C2F26D04FF48060E1689D
:10074000064320468847054604E06C2F1AD04FF434
:10075000807006430DB3A5F14100192802D8203559
:1007600046F400664A462946204626604E46FFF774
:1007700063FD80B101280BD0F61D26F0070000F1C3
:10078000080956E74020E4E78020D8E70020D6E7B4
:1007900006F104094DE7284652E7206ABDE8F09FBC
:1007A00034EB000070B50646FFF7C8FD0468054647
:1007B00030460A22002100F08BFE2C6070BD000044
:1007C00070B50446C068810713D0800601D5A56ABC
:1007D00004E0A169606808442169451A204601F0D7
:1007E0008FF9002206462946204601F0B5F830462A
:1007F00070BD002070BD70B510B1BDE87040DFE77E
:100800000025074C6E1E07E02046FFF7D9FF00B118
:100810003546206D20F00104002CF5D1284670BD2E
:10082000A41500202DE9F0410C4607461646104657
:1008300000F078F82078611C61280AD0722802D074
:1008400077283CD102E00125002405E0022504249C
:1008500002E0082448F2020511F8010B2B2806D00B
:10086000622809D011F8010C74280AD00BE045F079
:10087000030544F00204EFE745F0040544F00104E9
:10088000EAE744F01004384621460AF001F9411C19
:1008900015D00021316171604FF40071F560F16194
:1008A0007061200704D530460222002101F054F87F
:1008B000306D40F0010030653046BDE8F081002029
:1008C000FBE72DE9F0410D460646104C206DC107AF
:1008D00004D0410804D020F00104F7E722460EE0DE
:1008E0005420FFF72FFD07000ED0206D47F00101C7
:1008F000084354212065384600F0DEF83A46294680
:100900003046BDE8F0418DE70020D6E7A415002071
:1009100011B14FF4807201E04FF480624FF4007324
:1009200001F096B82DE9F04704464FF000094FF06A
:10093000FF37C568D4E90486A80707D0204601F030
:10094000DFF830460AF03AF8002802DA3846BDE807
:10095000F087280502D54046FFF723FD4C212046AD
:1009600000F0AAF8206D20F0010020654846EEE76F
:1009700010B5431C02E010F8011B71B18107FAD1D8
:100980004FF0013202C88C1A8C4314EAC211F9D01C
:10099000C01A0A0603D0C01E10BDC01A10BD0A043A
:1009A00001D0801E10BD0902FCD0401E10BD40EADF
:1009B000010370B59B072ED14FF00136042A2AD3CC
:1009C00008C810C99D1B9D43121F15EAC61517D0F4
:1009D000D8B2E1B2401A50EA056110D198B2A1B282
:1009E000401A50EA05410AD123F07F4024F07F41AC
:1009F000401A50EA052102D1180EA0EB146070BD18
:100A0000A342DBD018BA21BA884201D9012070BDB7
:100A10004FF0FF3070BD0AB9002070BD10F8013BE7
:100A200011F8014B63B1A3420AD1521E08D010F84D
:100A3000013B11F8014B1BB1A34201D1521EEDD174
:100A4000181B70BD10B5203AC0F00B80B1E81850EB
:100A5000203AA0E81850B1E81850A0E81850BFF4A8
:100A6000F5AF5FEA027C24BFB1E81850A0E8185047
:100A700044BF18C918C0BDE810405FEA827C24BF9B
:100A800051F8043B40F8043B08BF7047D20728BF29
:100A900031F8023B48BF11F8012B28BF20F8023B78
:100AA00048BF00F8012B704702F0FF0343EA03221E
:100AB00042EA024201F00DB94FF0000200B51346C0
:100AC00094469646203922BFA0E80C50A0E80C506E
:100AD000B1F12001BFF4F7AF090728BFA0E80C501F
:100AE00048BF0CC05DF804EB890028BF40F8042B18
:100AF00008BF704748BF20F8022B11F0804F18BF85
:100B000000F8012B704700004FF0013C50F8042B17
:100B100051F8043B9A4221D1A2EB0C03934313EA10
:100B2000CC1317D150F8042B51F8043B9A4215D13D
:100B3000A2EB0C03934313EACC130BD150F8042B14
:100B400051F8043B9A4209D1A2EB0C03934313EAF8
:100B5000CC13DBD04FF00000704700BFD01A01BAB1
:100B6000B1FA81F101F0180122FA01F0CB40C1F194
:100B70002001DBB2C0B2C01A2CFA01F3D11A9143A2
:100B800011EAC311E6D1704770B5064C7C44064D9E
:100B90007D4403E0206820448047241DAC42F9D105
:100BA00070BD000024EC000028EC00002DE9F041AD
:100BB00017460E46054633B107FB0354E41B204697
:100BC000B047A542FAD1A5F10800BDE8F0810000C8
:100BD00000487047A0160020704770477047704764
:100BE00038B504460A460020694601F0BCFE0028DC
:100BF00008BF38BD02460099204601F097F8012051
:100C000038BD012001F084BEF8B501F0A1FE054613
:100C100000200C46102000BF0646A819A0420DD99E
:100C200032466946002001F09EFE070008BF01F031
:100C30006FFE0098A04218BF0546C419FFF7C8FF11
:100C400005600746F01D20F007004619284600F011
:100C50000AF8B44208BFF8BDA21B31463868BDE8A7
:100C6000F84001F063B800210160C0E9011070474D
:100C70001020704710B5FFF761FB006810BD10B57C
:100C80000446FFF75BFB046010BD09684A0501D507
:100C900040B27047C905FCD500B2704709684A05E3
:100CA00001D5C0B27047C905FCD580B270472DE9A7
:100CB000F0470D4699469246044600F12408016823
:100CC000880604D5E06921F01001216000E00120D0
:100CD000A84201DD471B00E00027A1697A1902EB59
:100CE0000900081AA0612078C00602D42046FFF748
:100CF000BFFB002608E0D4E901211AF8060090475E
:100D0000206A401C761C20624E45F4DB2078C00629
:100D10000AD52046FFF7ACFB06E0D4E901213020DC
:100D20009047206A401C2062381EA7F10107F4DCBE
:100D300007E0D4E9012118F805009047206A401C1B
:100D40002062281EA5F10105F3DC2046FFF7A6FB73
:100D50002078000602D50220BDE8F0870120FBE7DD
:100D600011680268006A530501D508700AE0D305CE
:100D700001D5088006E0130603D5C217C1E90002B9
:100D800000E008600120704770472DE9FF4F0C46D6
:100D90001E464FF0FF378BB0D2E90001DDF86080CE
:100DA0000A908A46C1F30A5505B93D460021084616
:100DB0004FF00000BAF1000F00F4400005DA00EB3C
:100DC00080004FF4400101EA50004FEA9059B9F118
:100DD000010F00DDB9460A9850EA4A000ED044F6E9
:100DE0001050A5F2FF3545432F14B8F1000F1ED067
:100DF0007542291E1EDDC9F100021CE0B8F1010F89
:100E00004FF0000001D0302103E0F24305E021540F
:100E1000401CB042FBDB30460022002121540B99DC
:100E2000C1F80880C1E900200FB0BDE8F08FBD1BFC
:100E30006D1CDEE74A4600DA694206A801F08CFC28
:100E400006AB93E8070003AB83E8070050460A9916
:100E500002F04DF88DE80700A0F500501F38009013
:100E60000398002D0ADD42F21F014A460844002380
:100E700003A90390684602F0F9FA09E0A0F50050D2
:100E80004A461F38002303A90390684602F018FB66
:100E90008DE807000004000C03D04FF0FF3041083C
:100EA00000E01046B8F1000F03D000220092154672
:100EB0001EE0751E05D400F053FF303262556D1EE2
:100EC000F9D5B3460122084302D000227F1C04E07A
:100ED0002078302801D100227F1E002A099784D073
:100EE0001DE0112D07DA00F03BFF303262556D1C1A
:100EF00050EA0102F5D1084302D00098C8B10EE0D3
:100F00000021681E05E0235C625C63542254401E8D
:100F1000491C8142F7DBAB46A81B401E099000200C
:100F200004F80B000B98099AC0F80880C0E9002B60
:100F30007AE711264FF0000857E72DE9F04F884671
:100F40000446D21D22F0070191B0D1E90001CDE99C
:100F50000A0108F07DFD02460B98C00F01D02D203C
:100F600007E02068810701D52B2002E0202101EA5B
:100F7000C000032A099001D0072A05DB0346414639
:100F8000204601F0B9F80BE12078800601D5E06930
:100F900000E00620B8F1650F814606D0B8F1660F73
:100FA00018D0B8F1670F70D131E00020B9F1110FFE
:100FB000009001DB112301E009F101030AAA01A954
:100FC0000CA8FFF7E2FEDDE90C70002609F101052F
:100FD000834647E001204B4600904FF000470AAAA5
:100FE00001A90CA8FFF7D1FEDDE90DB00C995D4613
:100FF000002610B909F101000D18B9EB050003D462
:10100000C0F1FF3609F10105A5EB09002BE0B9F1AC
:10101000010F01DA4FF001090020B9F1110F009022
:10102000484601DD112300E003460AAA01A90CA8E5
:10103000FFF7ABFEDDE90C704D46002683462078B5
:1010400000070AD4AB4500DA5D4601A8012D04DD96
:10105000411911F8011C302907D04F4502DA17F168
:10106000040F04DA012082460FE06D1EEEE7002F28
:1010700002DCED1B3E4403E0781CA84200DD7D1C31
:10108000B81B00F1010A4FF000472078000703D495
:10109000AA4501DB4FF0FF3A0021B7F1004F0DF1F7
:1010A00043088DF8431024D002202B23002F01DAAF
:1010B0007F422D230A21021EA0F1010000DC5FB156
:1010C00097FBF1FC97FBF1F201FB1C7C17460CF13E
:1010D000300C08F801CDEEE7A8F10100037021887B
:1010E000090501D5452100E06521A0F1010800F8BE
:1010F000011C09980FA9A1EB0807FF1D00B10120F1
:10110000411901EBEA70A1693844081A401EA06138
:101110002078C00602D42046FFF7AAF9099828B122
:10112000D4E901219047206A401C20622078C00643
:1011300022D52046FFF79CF91EE0002E04DBB345C4
:1011400002DD01A8805D00E03020D4E90121904754
:10115000206A401C2062761CAAF101005FEA000AA6
:101160000AD100F0DFFDC0680168405CD4E90121CC
:101170009047206A401C2062281EA5F10105DCDC96
:1011800007E0D4E9012118F8010B9047206A401CC0
:101190002062381EA7F10107F3DC2046FFF77EF935
:1011A000032011B041E6000001694A1C0261087881
:1011B000704700B58FB0CDE9013100210591054997
:1011C0007944CDE9031011466846FFF727FA0FB0BE
:1011D00000BD0000E5FFFFFF0A6802F8010B0A608E
:1011E0007047D1E900239A4202D2531C0B60107061
:1011F000704710B5436913B1AFF3008001E0FFF70A
:101200005EF9012010BD127800F124010A7000225D
:101210004A700122EDE711684FF0FF32E9E7000064
:10122000074B70B50D467B44FFF7C3FF04462846C5
:1012300000F086F910B14FF0FF3070BD204670BD50
:10124000C3A300002DE9FF5F15468A460446DFF878
:10125000AC80F8440027D8E900103E46CDE90010E4
:1012600010E03AF816106A4602A801F025FB411C6E
:1012700007D02178890603D5E269391891420DD843
:101280000744761C2078800602D5E069B84205DD67
:10129000AE42E6DB3AF816000028E2D1A069C01B96
:1012A000A0612046FFF7E4F8D8E90010CDE900106E
:1012B000002017E03AF818106A4602A801F0FCFA7C
:1012C000B0F1FF3F81460BD000250DF1080B05E082
:1012D000D4E901211BF8050090476D1C4D45F7D35B
:1012E00008F10100B0428046E4DB206A3844206205
:1012F0002046FFF7D3F8BDE8FF9F000062E0000042
:101300002DE9F0418046D21D22F007020025D2E9E6
:101310000002F52915A614D0011E72F1000106DAAB
:101320000023D0EB030063EB020211A608E0D8F81B
:1013300000108B0701D50FA602E0490701D50EA6C4
:1013400001251146002408F1240704E000F008FDFF
:1013500030323A55641C50EA0102F7D12B4632462E
:1013600021464046BDE8F041FFF7A1BC0000000067
:101370002D0000002B0000002000000030B40021F0
:1013800000F1240408E002F00705D208303542EAF3
:101390004372DB086554491C52EA0305F3D1046823
:1013A000002310A2250707D5A40600D421B1C469E3
:1013B00001230DA2641EC46130BCFFF778BC10B5D8
:1013C000044621461068FFF769FC02462046BDE846
:1013D00010400023D2E7D21D22F00701D1E90023FB
:1013E000CCE700000000000030000000426842B17D
:1013F000016811F8013B23B1521EC0E900121846E2
:1014000070470121C160881E704742685AB1C368A5
:10141000016843B983688B4205D0491E521CC0E95C
:101420000012002070474FF0FF3070470FB40023C8
:1014300000B589B00CA900910B99CB60214B7B447E
:101440000693214B7B44079304236FF00042CDE9C0
:1014500001321E4A7A446B460892024600200CF084
:1014600055FF09B05DF814FB70B506464FF0FF302C
:1014700015460C46324686B00091CDE90101694619
:101480000020049004A8FFF7D1FF02460498211819
:1014900025B108B1084600E02046286004980028DD
:1014A0000DD0002A02DD0098884208D03246081B81
:1014B00069460094CDE9010404A8FFF7B7FF06B020
:1014C00070BD0000ABFFFFFFC3FFFFFF93090000EB
:1014D0002DE9F04791460F4680460446002614F851
:1014E000015B2DB100F016FC0068405DC007F6D12D
:1014F0002B2D02D02D2D18D0641E4A463946204689
:1015000001F0DAF827B13968A14201D1C7F80080AB
:101510004FF0020471050BD54042002803DDFEF7B1
:101520000DFF0460A007BDE8F08746F48066E4E79D
:101530000028F8DAFEF702FF04606FF00040F2E7DF
:10154000007B00F08000704770B50D4601461446E0
:10155000D36850692A4609F037FB002807DA411C96
:1015600007D0E16820F0004041F48041E160281A92
:1015700070BD204600F090FA4FF0FF3070BDC1689A
:101580000022026021F4805141F0400111F4C06F4B
:10159000C16001D08260704702694168891AC269DE
:1015A000891A816070472DE9F0470446C06840F40D
:1015B0008000E060010312D520F40020E060810685
:1015C00006D4E26A61688A4200D80A46511A21604C
:1015D00040F40010E06094F82500BDE8F08720F4A6
:1015E0000010E060800602D5204600F0ACFAE0680A
:1015F00042F281014FF0FF390140012903D020461A
:1016000000F04AFAB6E02168002600290ADAC94348
:1016100040F480502160C4E902606068411C616050
:101620000078DAE744F2400108420CD020F4A040F0
:1016300040F040002660E06021696068401AE1697E
:10164000401AA06096E0216991B9C00310D4E06906
:10165000FEF778FE2061B0B1E06840F4006010F45D
:10166000407FE06002D140F48070E06020696060FB
:10167000E068D4F814A0C1061AD5C0030ED52046E0
:1016800000F03EFA14E004F1240020610120E06142
:10169000E06820F4407040F48060E6E7216960680B
:1016A000401AA1690144504609F0BEFA0028A6DBA1
:1016B000E068C0032AD56168E06A884200D808461D
:1016C0002169451AE069471B1BD02046D4F81880D1
:1016D00000F016FA08EB05015046C4F8188009F02E
:1016E000A3FA00288BDBE06840F40030E0600002E1
:1016F00002D5A0692844A061E1692069C91B451889
:101700000DE0204600F0FCF9E769F5E7256961681E
:10171000D4E90607491BE56208446560A061E068FA
:1017200020F0100010F4C06FE06002D0204601F0FD
:10173000A7F8E06840F48050C4E90260000205D5D3
:101740002069E06260606FF0010046E7224639469A
:101750002846FFF7F9FE411C0CD02918E16258B168
:10176000401E2060681C6060E06840F40030E0606B
:10177000287832E7484630E765602046FFF7FFFEED
:10178000F8E72DE9F04705460C46C86820F420101C
:1017900040F48000C860800602D5084600F0D3F906
:1017A000E06841F282014FF0FF390140022903D085
:1017B000204600F071F9B5E000F42041B1F5004F8A
:1017C0000FD1C00306D56168E06A884200D8084698
:1017D000606006E02069E0626060606909F012F90B
:1017E000A061A0680022EEB200280DDAE1688B0546
:1017F0000AD4C043A06041F490302260E060606889
:10180000411C61600670A5E0E0689046226040F4EB
:101810000050E060206968BB606909F019F9012790
:1018200004F12405A0B1A08910F4407F08D0E0693C
:10183000FEF788FD206118B1E06840F4006016E012
:10184000E7612561E06820F4407040F480600EE0BC
:10185000E069FEF777FD00282061F1D0E06840F4F0
:10186000006010F4407FE06002D140F48070E060DE
:1018700020696060E06825696FF0010AC1051FD525
:101880006168E06A884200D80846411B04D02246BD
:10189000284600F00BF9F0BBE068010203D5E562D1
:1018A000C4E9015854E0691CE1626160E16940F4F7
:1018B0008030491EC4E9021030462E70BDE8F08722
:1018C000010202D500F480320AE06068411C6160C8
:1018D0000670E0680A2E40F48030E06006D00022F6
:1018E000E16A6068814203D90B4602E00122F7E712
:1018F0000346A7895B1B7F0503D4E7699F4200DD90
:10190000E2B1814200D80146E5620F1AC4E90158EC
:10191000002B09DD00E005E022461946284600F0CC
:10192000C5F808B14846C9E747B1A069E5626560F6
:10193000C01BA061E06840F01000E060E0680002B9
:1019400008D56168A069E562491B08446560A0612B
:101950005046B3E73046B1E72DE9F041044616465C
:101960000D464769007B80072ED0384609F070F895
:1019700050BB3EB3012E02D0022E25D104E02046FA
:1019800000F05CFF05441DE0384609F03BF8E168D3
:10199000002841F01001E16005DA204600F07CF8F3
:1019A0000120BDE8F081C9030BD56268E16A91426C
:1019B00000D81146A26911442269891A814200DDCA
:1019C00008460544002D01DA0220EAE7E16A606872
:1019D000E268814206D29103E06203D522F400312D
:1019E00041F01002A6690027AE4213DCE16A814291
:1019F00001D90B4600E0034603EB060C2369ACEB70
:101A0000030CAC4506DD814201D98C4600E08446DA
:101A10009C4505D1A760276042F02000A5620DE03B
:101A2000AD1BE669AE1B8142A66000D90846C01A0C
:101A3000281A20605819606022F0200003490840ED
:101A4000E060002084F84870ABE70000BFCFD7FF0C
:101A500070B5C468A50713D0650211D4B2F5807FB4
:101A600009D0B2F5007F06D0B2F5806F08D101230E
:101A700000F1240106E05D1E6FF07F46B54201D300
:101A8000012070BD0161C361416024F470611143A4
:101A9000C160002070BD0000C16821F4001141F058
:101AA0008001C16000218160016070472DE9F0472D
:101AB000814614460E464FF0FF383248D5685769C4
:101AC000054209D03846A16909F0AEF8002811DBBB
:101AD0002C48C0430540E5602B463246494638460F
:101AE00009F0C8F8A16920F00042B21A1144002898
:101AF000A16103D02046FFF7CFFF4046BDE8F08745
:101B000070B504460569C06A6168884200D8084615
:101B1000E16821F42011E160C90312D5A84208D080
:101B20002246411B2846FFF7C1FF10B14FF0FF309E
:101B300070BD0020E562C4E90150E06820F4803007
:101B4000E060002070BD10B50446C06820F02000A1
:101B5000E060A16AA06988420DD02046FFF7D0FF5F
:101B6000E06820F4405040F01000E060A06AA061FE
:101B70002069E062606044F24001E0688843E06010
:101B800010BD00001000020010B542485421FEF7BD
:101B900093FF41485421FEF78FFF40485421FEF740
:101BA0008BFF3F493B483C4A3F4B08603D490A6038
:101BB0003A491960531C0365481C106501200865EB
:101BC0003B48344A39A17844FEF72CFE20B9384806
:101BD00078440A3800F095FE37482F4A35A17844FA
:101BE000FEF720FE20B9344878440A3800F089FE18
:101BF00032482A4A2FA17844FEF714FE20B92F4814
:101C000078440A3800F07DFE40232248DC000021A1
:101C10002246FFF71DFF20B125487844543800F0D4
:101C200070FE1D48224640230021FFF711FF20B11E
:101C300021487844543800F064FE184822461023A6
:101C40000021FFF705FF002806D01C487844BDE8B6
:101C50001040563800F055BE10BD104870B5006DEC
:101C600020F001040B48FEF75DFE0B48FEF75AFE1C
:101C70000A48FEF757FE09E0206D20F001052046D6
:101C8000FEF750FE2046FEF78CFB2C46002CF3D1CD
:101C900070BD0000A4150020F81500204C1600208F
:101CA00080020020840200208802002072000000D0
:101CB00036D000007700000025D0000015D00000CD
:101CC00010B500F02DFEBDE8104000F015BE4FF03D
:101CD00000020429C0F0128010F0030C3EF4EEAEB6
:101CE000CCF1040CBCF1020F18BF00F8012BA8BF07
:101CF00020F8022BA1EB0C01FEF7E0BE5FEAC17CED
:101D000024BF00F8012B00F8012B48BF00F8012B7D
:101D10007047000010B500F005F8001D10BD00BFB1
:101D200005B6000000487047A4160020034640682E
:101D30008C46002818BF88423CBF03464068F8D351
:101D400018681844884207D00CF1030020F00700FF
:101D5000001D411A521A0146081D0A60FEF721BBF8
:101D600030B5B0F10A024FEA900E71F100034EEA6D
:101D7000817EB0EB0E0061EB91014FEA101E4EEA3E
:101D8000017E10EB0E0041EB11114FEA102E4EEACE
:101D9000016E10EB0E0041EB11214FEA104E4EEA9E
:101DA000014E10EB0E0041EB1141401841F10001D2
:101DB0004FEAD00040EA41704FEAD10110EB8005B4
:101DC0004FEA810444EA907444EB01046D1944EB3A
:101DD0000404521BA3414FF0000348BF0A3200D550
:101DE00030BD401C41F1000130BD10B50446FFF785
:101DF00091FF0068005D00F0010010BD2DE9F04F7B
:101E000004460D46D21D22F0070089B0D0E90097A4
:101E10004846394607F01CFE0246F80F01D02D2334
:101E200007E02068810701D52B2302E0202101EA89
:101E3000C0038DF820300BB1012000E00020032A00
:101E4000824601D0072A04DB2946204600F054F9D7
:101E50003FE12078800601D40D2500E0E569C7F355
:101E60000A560D2D49DA00214FEA175B08464FF05C
:101E70000000002F00F4400007DA00EB80004FF470
:101E8000400100EBD07001EA60008115012901DDFD
:101E90004FF0FF3100224FEA850CBCF1180F06D33A
:101EA0001346ACF118004FF08052C24003E04FF4EB
:101EB000801323FA0CF30CF10C0CBCF1200F04D3AB
:101EC000ACF1200C09FA0CF001E007FA0CF0002943
:101ED0004FF0004801DD18B90FE00ED140450CD39A
:101EE00019EB02095F4121B9404502D19F4329EA1C
:101EF0000209BBEB175F00D0761C2088000502D5D5
:101F00007B48784402E07A487844193808AA30239C
:101F100002F80A30037C0AF10101002E0AF1020ADC
:101F200053546A4602DC4FF0300101E04FF03101BA
:101F30004FF001088DF8001002D0A6F2FF3603E042
:101F400059EA470100D06B4E002D02DC21780907C9
:101F500004D54FF002082E218DF80110C44600214F
:101F60000BE0C7F303433F01C35C491C6D1E02F83D
:101F70000830052908F1010801DA002DF1DC002103
:101F80000CE000EB1973491C1B786D1E082902F840
:101F900008304FEA091908F1010801DA002DF0DCD8
:101FA00021688B0602D516E0A8F10108E04505DDA1
:101FB00002EB080313F8013C302BF5D0B8F1000F09
:101FC00009DD02EB080313F8013C2E2B03D10907AE
:101FD00001D4A8F10108002D05DD3E2102F808100A
:101FE0006D1E08F10108407C002E02F8080008F17F
:101FF000010804DA2D20764202F8080002E02B20C6
:1020000002F808000A214FF47A70864208F10108AC
:102010000BDB96FBF0F3303302F8083096FBF0F35D
:1020200008F1010800FB136601E0642E0CDB64205C
:1020300096FBF0F3303302F8083096FBF0F308F12A
:10204000010800FB136601E00A2E06DB96FBF1F0A7
:10205000303002F8080008F1010896FBF1F001FBAE
:102060001060303002F80800A16908F1010808EB9F
:10207000050202EB0A00081AA0612078C00602D40B
:102080002046FEF7F5F9216A08AE01EB0A0020624E
:1020900004E0D4E9012116F8010B9047BAF1010AD6
:1020A000F7D22078C00602D52046FEF7E1F96E4649
:1020B00009E016F8010B3E280FD0D4E90121904722
:1020C000206A401C2062B8F10108F2D22046FEF7D7
:1020D000E5F909B00320BDE8F08F206A28442062AA
:1020E00003E0D4E90121302090476D1EEBD3F8E7DF
:1020F000EDD3000002FCFFFF2DE9F0411F4604462E
:1021000003260168072A01F4006004DB08B116A564
:1021100005E016A503E008B115A500E015A521F01E
:1021200010002060A069C01EA0610FB1401EA06118
:102130002046FEF79DF94FB1D4E90121384690477A
:10214000206A401C2062C01C206206E0206AFAE778
:10215000D4E9012115F8010B9047761EF8D22046EC
:10216000FEF79CF9BDE8F0814E414E006E616E00B5
:10217000494E4600696E660010B5436913B1AFF36E
:10218000008001E0FFF75EF8012010BD128800F129
:10219000240182840022C2840122EDE711684FF0FD
:1021A000FF32E9E73A2800D2303820F02002412AF5
:1021B00001D3A2F13700884201D34FF0FF307047BE
:1021C0002DE9FF4F06468BB00878FF2806D0491C42
:1021D0002D2805D000244FF0000908E000200CE075
:1021E0000124F8E709EB8903491C00EB430908784F
:1021F000FF28F7D114B1C9F10000814610780025FD
:102200002C46AA4629462D2801D02B2804D1521C41
:102210002D2813D0002082468B461078FF280FD03F
:102220004FF0000C0A21521CA5FB017804FB018130
:1022300005FB0C11C5194BEB0104EEE70120EAE7A1
:10224000002108464FF00000BAF1000F02D000EB69
:1022500080004008C0F38157012F01DD4FF0FF37A8
:102260000E9955EA040009EB01080BD04FF0020962
:1022700018F5FA7F16DA4FEACA70002F706008DD91
:10228000012007E04FEACA70C6E900B00FB0BDE810
:10229000F08F00203060FEF751F8C0F80090182150
:1022A000084616E0B8F5FA7F18DD002F02DAF74885
:1022B000784401E0F6487844D0E90010C6E90010FF
:1022C00040EACA707060FEF739F8C0F80090142137
:1022D00008460FB0BDE8F04F0BF075BF002108466F
:1022E0004FF00000B8F10001099002DAC7F10002D6
:1022F00000E03A4601DAC8F1000106A800F02CFA25
:1023000006AB93E8070003AB83E8070044F23E0006
:102310005BEA04010090584604D144F21E012C46A9
:102320005D460091210C0904014306D10099240463
:1023300044EA15442D041039009104F07F41014313
:1023400006D10099240244EA15642D02083900914F
:1023500004F07041014306D10099240144EA157448
:102360002D01091F009104F04041014306D100995D
:10237000A40044EA9574AD00891E009104F0004168
:10238000084304D100986D196441401E00904FF03D
:1023900001033A466846B8F1000FCDE9014503A9AB
:1023A00002DD01F0A2F801E001F075F8BAF1000FCA
:1023B00004460D4601D084F00044002108464FF049
:1023C0000000099940F2FF77484010F00C0F07D148
:1023D00024F00040284303D0C4F30A50B84212D17D
:1023E000FDF7ACFFC0F80090C4F30A50B8420AD120
:1023F000A8487844D0E90010C6E9001004F0004174
:102400000843706042E7C6E900543FE72DE9FF4FFB
:102410001F464FF0000A4FF0FF38454691B0D7E90C
:102420000146CDF83CA0FFF77DFCC0680168405C28
:102430001090B96912986D1C8847396A814688479F
:102440000028F6D1B9F1FF3F0AD0002E24F4D06461
:1024500011DDB9F12B0F08D0B9F12D0F0BD102E02E
:10246000404615B013E744F48064B96912986D1CB6
:102470008847761E8146600504A901D52D2000E01D
:102480002B20002E01F1010B0DF130088DF810000A
:102490003FDDB9F1690F08D0B9F1490F05D0B9F1A5
:1024A0006E0F02D0B9F14E0F1CD13B4601A800952A
:1024B00080E85002DDE912126FF002000BF02AFFF3
:1024C000C11CCED10EE0B96912986D1C88478146B7
:1024D0001398761E44F4007405600F98401C002E7B
:1024E0000F9016DDB9F1300FEDD0B9F1780F02D0B1
:1024F000B9F1580F0DD10F9801280AD13B46CDE90B
:102500000054DDE91212001F02960BF001FFC11CFE
:10251000A7D1109989453ED144F0800406E0139973
:10252000681CAAF1010A44F400740860B9696D1CC2
:102530001298761E884730288146F0D02BE01099FB
:10254000894505D1200603D4761E44F0800418E0A6
:10255000484608F018FA08B3761E0DF123018B45A2
:1025600044F4007408D2A9F130000BF8010B2006E6
:1025700007D5AAF1010003E0200602D40AF1010008
:102580008246A00502D51399681C0860B9691298A3
:102590006D1C88478146002ED1DC53E0002E51DDB2
:1025A000B9F1650F02D0B9F1450F4BD1A00549D55E
:1025B000B9696D1C1298761E24F440748847002E69
:1025C00081460CDD2B2804D0B9F12D0F07D144F43E
:1025D0008074B96912986D1C8847761E8146E005A3
:1025E00001D52D2100E02B2108F8011BCDF800803A
:1025F00021E0761E0DF13901884544F400740CD2B7
:10260000A9F1300010F0FF0088F8000002D1009915
:10261000884509D908F1010806E0E00501D51E4802
:1026200001E042F20F708246B96912986D1C88472A
:10263000814613980560002E04DD484608F0A3F992
:102640000028D6D1F96912988847FF2053468BF8A5
:10265000000088F8000000200A900B9004AA0CA942
:102660000AA8FFF7ADFDA00502D46FF00100F8E65F
:1026700014F0240F12D0E0071CD13868DDE90A12EB
:10268000031D3B600068C0E9001213E0CCD30000DA
:10269000BED3000082D20000F1D8FFFF0AA968462D
:1026A00008F012F8E00705D13868009A011D39607A
:1026B000006802602846D4E62DE9F05F82461546A0
:1026C0008B4600270AF10104B9460078302801D072
:1026D0009DB113E014F8010B0127782803D0582886
:1026E00001D045B10AE00DB1102D07D1002714F833
:1026F000010B102502E0082500E00A250026B0465F
:102700000EE005FB080005FB06F101271FFA80F823
:1027100001EB1046B6F5803F00D3B94614F8010B23
:102720002946FFF73FFD0028EBDABBF1000F05D08B
:102730000FB1641E00E05446CBF80040B9F1000F21
:1027400006D0FDF7FBFD02210160C81EBDE8F09F29
:1027500048EA0640FAE700002DE9F04781461646B0
:102760008AB0354878440DC88DE80D003248784469
:10277000801C03AC0DC884E80D0041F69B30084472
:10278000372190FBF1F290FBF1F5A5F1800501FBFB
:1027900012041B3C02D56442012000E00020DFF857
:1027A00098A080460027FA44AAF1BE0A0EE0E0078E
:1027B0000AD03246684607EB470101230AEB810144
:1027C00000F07EFE8DE8070064107F1C002CEED127
:1027D000194F7F44AE3F19E0E80715D007EB04100E
:1027E0000DF1180A90E80E008AE80E00C068F04269
:1027F00001D1981908903246012306A903A800F0D8
:102800005FFE03AB83E807006D10641C002DE3D16D
:102810004FF0010332466946B8F1000F03A802D019
:1028200000F024FE01E000F04BFEC9E90001C9F808
:1028300008200AB0BDE8F0871CCC000010B50146A6
:10284000C268900703D0900607D5886A0AE0FDF7B2
:1028500075FD01210160881E10BD8B694868184410
:102860000B69C01A91F848301BB191F84910401A11
:1028700010BD1103FCD50028FADD401E10BD00007C
:1028800070B5054640F202260A4C0FE094F850005D
:10289000C00708D0AC4206D0E06836EA000002D19A
:1028A0002046FDF78DFF206D20F00104002CEDD1B6
:1028B00070BD0000A415002070B516460C460546F4
:1028C000FFF728FA036893F80101012806D0FF2CCE
:1028D0000FD8185D68B101202C7070BDD3F80701C6
:1028E0003246214603F2071303442846BDE87040F0
:1028F00018474FF0FF3070BD002801D000F050B8ED
:10290000704710B500F06CF8BDE81040FFF7F4BF59
:1029100010B500F07FF8BDE81040FFF7EDBF0000F4
:1029200010B5002102A000F041F8012010BD000008
:102930005349475056464E3A205075726520766985
:10294000727475616C20666E2063616C6C656400E6
:10295000124B694600F580528A421A6001D811462E
:1029600070471960704730B50C4D6B46A3F5805326
:102970002C6822449A420FD89B1A02F5805003EB30
:10298000D37302EB6303984200D91846C01D20F0B0
:1029900007020C60101B2A6030BD00008C02002072
:1029A00001491820ABBEFEE72600020070B50546BF
:1029B0000C460A2000E06D1C00F054F835B1287870
:1029C0000028F8D102E0641C00F04CF814B1207823
:1029D0000028F8D1BDE870400A2000F043B800009C
:1029E00010B5014602A0FFF7E1FF012010BD000075
:1029F00053494752545245443A20526564697265BE
:102A000063743A2063616E2774206F70656E3A209C
:102A10000000000010B5012805D0002103A0FFF739
:102A2000C5FF012010BD09A1F8E700005349475236
:102A3000544D454D3A204F7574206F66206865618E
:102A400070206D656D6F7279000000003A20486556
:102A50006170206D656D6F727920636F7272757031
:102A60007465640008B569468DF800000320ABBEAC
:102A700008BD70472DE9FF4F1F464FF03C0987B056
:102A80004FF00042DDE9141001F10108DDF858A013
:102A900002EA405003900020059083460546044614
:102AA0000490B969461E08988847AAF1010A029065
:102AB000BAF1000F3BDD02982E2815D01021FFF748
:102AC00071FB00282EDB4FF0010B0599014317D055
:102AD000B9F1000F0BDB4A46C11700F0F5F90543C9
:102AE0000C43A9F1040905E0012004900BE008B1B2
:102AF00045F0010501200590049820B9361D02E03B
:102B0000049800B1361FB969089808F10108884790
:102B1000BBF1000FAAF1010A0290C9D00999C1F8CE
:102B20000080C5E70298702808D0502806D0F969BF
:102B300008988847BBF1000F14D04FE000200290A6
:102B40000120BBF1000F049009D0B969089808F181
:102B500001088847AAF10109B9F1000F07DCF969FA
:102B6000089888476FF001000BB0BDE8F08F2B2864
:102B700004D02D280CD14FF0FF300490B96908988B
:102B800008F101088847A9F10109B9F1000FE6DD54
:102B9000411CE4D00A21FFF705FB0028DFDB029986
:102BA00008F1010801EB810100EB41000290B969D5
:102BB000089888470A21FFF7F5FA099AA9F101094F
:102BC000B9F1000FC2F8008001DD0028E7DAF969E9
:102BD000089888470499029800FB016655EA0400AA
:102BE00004D004F04041090002D006E0039898E0C8
:102BF000A40044EA9574AD00B61E04F0004108003C
:102C000002D16D196441761E159810F0240F03D07F
:102C10004FF00B095C4803E04FF028096FF07D008E
:102C20008246564507DAAAEB06018944B9F1410FFD
:102C300001DD4FF0410901200021A9F1010200F05E
:102C400043F9024628400B462140084301D00121A8
:102C500000E00021501E029143F1FF312840214045
:102C6000084301D0012000E000200299834651EA88
:102C70000B014FD0002108464FF00000039900F4EB
:102C8000400039B100EB80004FF4400100EBD07000
:102C900001EA60008015012802DD4FF0FF3000E0FE
:102CA00013D0401C36D0029860B3BBF1000F0CD19A
:102CB0004A460120002100F007F92840214008433E
:102CC00001D0012000E00020E0B101204A460021AF
:102CD00000F0FAF8034640190A4661412D1A8C416A
:102CE00011D3B9F1400F09DD159810F0240F02D06F
:102CF000AAF1340603E0AAF1170600E0761C0025CD
:102D00004FF0004406E05B1E42F1FF3220EA03056B
:102D100021EA0204CAF10100B04206DA1B49039815
:102D200008430190002000900EE0039AC4F3D321E1
:102D3000E80A0A43164940EA44500A433146CDE9BD
:102D40000002684607F0F2FD159810F0240F0BD032
:102D50001598C00715D13868DDE90012031D3B60E6
:102D60000068C0E900120CE002A8694607F0ACFC5C
:102D70001598C00705D13868029A011D39600068AE
:102D800002604046F0E6000002FCFFFF0000F07F1A
:102D90000000F03F2DE9FF4F92461D4685B04FF0F1
:102DA0000041DDE9124BDDE914727F1E01EA4B5050
:102DB000414940F0FF4940EA0108002122F020008B
:102DC0004928049102D04E2828D04CE03BA001268F
:102DD00007C88DE80700A9690698641C88477F1E0C
:102DE000014606D41DF8060018B121F020018142E9
:102DF0000BD0E96906988847032E34D0082E32D0CC
:102E00006FF0010009B0BDE8F08F761C032E01D0F1
:102E1000082EE0D1601CCAF80000DCE7A96906981A
:102E2000641C88477F1E2AD420F02000412826D128
:102E3000A9690698641C88477F1E20D420F02000D2
:102E40004E281CD1A9690698641C88477F1E48F447
:102E5000002849F48009CAF8004001D4282806D087
:102E6000E969069888475FEACB7012D022E0A96929
:102E70000698641C88477F1E01D4002803DAE9699C
:102E800006988847BCE72928F1D1641CCAF800409D
:102E9000E9E71BF0240F07D028680499031D2B6075
:102EA0000068C0E9001805E02868021D2A60006873
:102EB000C0F800902046A5E70000F07F494E464943
:102EC0004E49545900000000B2F120030AD5C2F166
:102ED000200301FA02F120FA03F300FA02F041EABA
:102EE0000301704700FA03F14FF0000070475FEAFA
:102EF000400C08BF91F0000F4FEA8C234FEAC1222B
:102F000043EA51514FEA1C5018BF00F5F0404FEA18
:102F1000300018BF41F000415FEA6C5C00F029808E
:102F2000BCF1FF3F08BF40F080407047130C06BF64
:102F300012044FF0100C4FF0000C130E04BF1202DD
:102F40000CF1080C130F04BF12010CF1040C930FC9
:102F500004BF92000CF1020CD30F04BF52000CF11D
:102F6000010C11464FF00002A0F11F00A0EB0C0075
:102F7000704711F0004F08BF704731F000413FF437
:102F8000D5AF0B0C06BF09044FF0100C4FF0000C2E
:102F90000B0E04BF09020CF1080C0B0F04BF090152
:102FA0000CF1040C8B0F04BF89000CF1020CCB0F49
:102FB00004BF49000CF1010CCCF12003A0EB0C0084
:102FC00022FA03F302FA0CF241EA030100F10100D4
:102FD000704720F07F4C80EA030023F07F47ACEB82
:102FE000070303F57C5300F0004003F1FF032DE9D4
:102FF00080494FEA154B09B44FEA144325EA0B4EBA
:1030000024EA03480FF2042606EB132749083E780A
:103010005FEA320203FB0667C7F5000707FB06F607
:103020004FEA54374FEAD64606F1020607FB066C14
:10303000CCF1005C4FEA1C472CEA074C07FB06F476
:103040000CFB06F504EB15464FEA961634BF00203C
:103050004FF000404FEAD13706FB07FC4FEA1C4C0B
:103060000CFB0BF7D21B03FB0CF761EB07010CFB0E
:103070000EF7B0EB074072EB17420CFB08F734BFBA
:10308000A2EB0742B2EB074261EB17414FEA0C4457
:103090004FEA910706FB07FC4FEA1C4C0CFB0BF7B1
:1030A000B0EBC74072EB573203FB0CF734BFA2EB17
:1030B000C742B2EBC74261EB57310CFB0EF7B0EBE6
:1030C000C70072EB57720CFB08F734BFA2EBC702C4
:1030D000B2EBC70261EB5771039F4FEA816141EA8E
:1030E000921104EBCC044FEAD1374FEA826206FB1F
:1030F00007FC42EA90124FEA80604FEA1C4C0CFB3E
:103100000BF7D21B03FB0CF761EB07010CFB0EF76F
:10311000B0EB074072EB17420CFB08F734BFA2EB91
:103120000742B2EB074261EB17414FEA8C554FEA79
:10313000910704EB9C2406FB07FC4FEA1C4C0CFB9C
:103140000BF7B0EBC74072EB573203FB0CF734BF01
:10315000A2EBC742B2EBC74261EB57310CFB0EF753
:10316000B0EBC70072EB57720CFB08F734BFA2EB51
:10317000C702B2EBC70261EB577115EB4C254FEA62
:10318000816141EA92114FEA82624FEAD13742EA05
:10319000901206FB07FC44F100044FEA80604FEAFE
:1031A0001C4C0CFB0BF7D21B03FB0CF761EB07016C
:1031B0000CFB0EF7B0EB074072EB17420CFB08F765
:1031C00034BFA2EB0742B2EB074261EB174115EBAC
:1031D0001C154FEA813141EA92414FEA823242EABC
:1031E00090424FEA80304FEA0C7644F1000448EAFE
:1031F00003434EEA0B484FF0000EB2EB080C71EBA4
:10320000030724BF624639464EEB0E0E4FF0000B0B
:103210000018524149414BEB0B0BB2EB080C71EB20
:1032200003077BF1000B24BF624639464EEB0E0EBE
:103230004FF0000B0018524149414BEB0B0BB2EB26
:10324000080C71EB03077BF1000B24BF6246394683
:103250004EEB0E0E51EA020718BF46F0010616EBC0
:103260000E7655F1000254F1000103D5BDE8890145
:10327000BDE80088BDE88901BDE80048B6195241A3
:1032800041EB0101A3F10103704780807F7E7D7CCB
:103290007B7A7978777676757473727171706F6EE8
:1032A0006E6D6C6C6B6A6A69686867666665646493
:1032B000636362616160605F5F5E5E5D5D5C5C5B1D
:1032C0005B5A5A595958585757565655555554548C
:1032D000535352525251515050504F4F4F4E4E4DEA
:1032E0004D4D4C4C4C4B4B4B4A4A4A494949484836
:1032F0004847474747464646454545444444444376
:1033000043434342424242414141000046EA0646AD
:10331000A3F570534FEA164646EA42564FEAD222C8
:1033200042EA415210B54FEAD121A3F1010300F066
:103330002FF820F0004000F1020C00F0004701EBF4
:1033400000501146BCF5006F40EA070000D210BDE6
:10335000BAF1000F0AD01CB503B44FF004004FF0CF
:1033600004014FF000000FBCBDE810404FF0000119
:10337000BBF1010FB9BF04484FF0FF3103480021F2
:1033800040EA070010BD00BFFFFFEF7F0000F07FA5
:10339000002B9C4630D477002BD01CB54FEA370762
:1033A00003B44FF010004FF01001BAF1000F06D037
:1033B000BCF1000FDCBF40F0080040F008014FF006
:1033C00000000FBCBDE810400BF1010BBBF1010F79
:1033D00008BF5FEA170722BF12F1010211F10101D4
:1033E0004FF0004143F1000300F0004043EA0000C9
:1033F0007047F9D35708D0E746EA064613F1400F65
:103400004FEA16461FDD13F1200FDFBF16430A46B1
:10341000002120335B42BED0C3F1200746EA0646B6
:1034200002FA07F74FEA164646EA0706C3F12007F5
:1034300022FA03F201FA07F721FA03F14FF0000331
:1034400042EA0702A7E746EA020646EA06464FEACC
:10345000164646EA0106BCBF46EA0646360C4FF061
:1034600000034FF000024FF0000194E72DE9804C7B
:103470009A46934670B491E8380007C831EA400C88
:1034800048BF34EA430C03D5FFF7A3FDFFF780FFE5
:10349000F0BCBDE8008C2DE9804C9A46934670B490
:1034A00091E8380007C831EA400C48BF34EA430CC1
:1034B00003D5FFF78EFDFFF729FFF0BCBDE8008CB8
:1034C0002DE9804C9A46934670B491E8380007C8BD
:1034D00010F0804F08BF13F0804F03D100F01AF8AE
:1034E000FFF756FFF0BCBDE8008C2DE9804C9A46F2
:1034F000934670B491E8380007C810F0804F08BFB9
:1035000013F0804F03D100F005F8FFF7FFFEF0BC89
:10351000BDE8008C20F07F4780EA030023F07F4C59
:1035200007EB0C03A3F57C5300F00040A3F1FE036E
:1035300092F0000F00F0B38095F0000F00F077805C
:103540002DE901494FEA11404FEA144621EA0048AB
:1035500000FB06FC24EA064708FB06F607FB08F812
:1035600000FB07F718EB06484CEB164C4FEA124BE2
:1035700018EB07484FEA15464CEB174022EA0B4E72
:103580000BFB06FC25EA06470EFB06F607FB0EFEC4
:103590000BFB07F71EEB064E4CEB164C4FF00006EC
:1035A0001EEB074E4CEB174B18EB0B0840F10000DD
:1035B00018EB0E0B58EB000840F100008F1A4FF08B
:1035C00000013CBFC943661B14BFB5EB040C0021CE
:1035D0003CBFC943F61B4FEA17444EEA8E0E27EA5A
:1035E00004454FEA1C4704FB07622CEA074C05FB25
:1035F00007F70CFB05F604FB0CFC16EB074642EB49
:10360000174216EB0C4642EB1C421BEB060658EB2E
:103610000202414146EA9E0601D5BDE80189B6197C
:10362000524141EB0101A3F10103BDE801894FEAD9
:1036300014454FEA114724EA054621EA074C05FBE9
:1036400007F406FB07F70CFB06F105FB0CFC11EB7E
:10365000074144EB17444FEA124711EB0C4144EB8E
:103660001C4422EA074C05FB07F206FB07F70CFB9C
:1036700006F605FB0CFC16EB074642EB174216EB71
:103680000C4642EB1C456A1854F1000148BF7047D4
:10369000B619524141EB0101A3F10103704795F0C6
:1036A000000F37D04FEA11424FEA144721EA024691
:1036B00024EA074C02FB07F106FB07F70CFB06F4B4
:1036C00002FB0CFC14EB074441EB17414FEA154792
:1036D00014EB0C4441EB1C4125EA074C02FB07F5B7
:1036E00006FB07F70CFB06F602FB0CFC16EB074685
:1036F00045EB174516EB0C4645EB1C42121951F1F0
:10370000000148BF7047B619524141EB0101A3F1D6
:10371000010370474FEA14454FEA114724EA054672
:1037200021EA074C05FB07F106FB07F70CFB06F245
:103730004FF0000605FB0CFC12EB074241EB174172
:1037400012EB0C4251EB1C4148BF7047921841EB01
:103750000101A3F10103704710B508F0FDFABDE8BF
:10376000104008F099B810B5002109F06FFE10BDA7
:1037700010B5002109F06AFE10BD000000210148CB
:1037800007F01EBC006400400021014807F018BC8F
:10379000006400400021014807F012BC00640040B2
:1037A0000121014807F00CBC0068004001210148DC
:1037B00007F006BC006800400121014807F000BC8A
:1037C0000068004001490860704700000C3C02405E
:1037D00070B506460025002905D0012927D0022909
:1037E00028D04FF4407500F081F809281ED1134C01
:1037F000206820F440702060206828432060206802
:1038000020F0F8002060206846F0020108432060A4
:10381000206840F48030206000F068F8216821F0D2
:1038200002012160216821F0F801216070BD4FF490
:103830008075D8E74FF40075D5E70000103C0240D2
:1038400009200D490A68D20301D5012070470A6892
:10385000D20601D5062070470A68D20501D502209C
:1038600070470A6812F0E00F01D00720704709681E
:103870008907FBD5082070470C3C024002480168CC
:1038800041F0004101607047103C024070B50546B0
:103890000E4600F02BF8092813D10A4C206820F4BA
:1038A00040702060206840F400702060206840F084
:1038B000010020602E6000F019F8216821F001015C
:1038C000216070BD103C024005480068002805DA00
:1038D000034804490C380160034901607047000047
:1038E000103C024023016745AB89EFCD08B50920A4
:1038F0000090FFF7A5FF009002E0FFF7A1FF009006
:103900009DF800000128F8D09DF8000008BD0000D7
:1039100010B5087D012282403A4800F50070036826
:1039200043F001030360036823F47C5303600368DE
:103930004C6A43EA04230360C3699343C361A0F55F
:103940000070CB69002B16D1D0F80C329343C0F82D
:103950000C328C894B6864F31F434C6900EBC40440
:10396000C4F840320C890B6864F31F434C6900EBC8
:10397000C404C4F84432CB69012B16D1D0F80C3200
:103980001343C0F80C320C884B6864F31F434C6936
:1039900000EBC404C4F840320C89CB6864F31F43C5
:1039A0004C6900EBC404C4F844328B693BB1D0F8D5
:1039B00004321343C0F804320B6933B10AE0D0F883
:1039C00004329343C0F80432F6E7D0F8143293433C
:1039D000C0F814320B69012B04D1D0F81432134310
:1039E000C0F81432096A012904D1D0F81C1211431D
:1039F000C0F81C12D0F8001221F00101C0F800122A
:103A0000002010BD006400402DE9F041044600266E
:103A1000002C04D094F83C00002718B107E00120E6
:103A2000BDE8F08184F83D70204600F0AFF8022038
:103A300084F83C002068016821F0020101602068E0
:103A4000016841F00101016000F0B4F805464FF053
:103A500003080AE000F0AEF8401B0A2805D984F8F4
:103A60003C8084F83D700320DAE720684068C00796
:103A7000F0D020684168C9077BD0A169012940D0F6
:103A8000016821F080010160E06901283ED02068D2
:103A9000016821F040010160206A01283CD02068C3
:103AA000016821F020010160606A01283AD0206895
:103AB000016821F010010160A06A012838D0206857
:103AC000016821F008010160E06A012836D0206811
:103AD000016821F004010160D4E902010843D4E93E
:103AE0000412114308436168491E08432168C861F4
:103AF0002068016821F00101016000F05BF80546D3
:103B00002EE0016841F080010160BDE72068016896
:103B100041F040010160BFE72068016841F02001E9
:103B20000160C1E72068016841F010010160C3E74E
:103B30002068016841F008010160C5E7206801685C
:103B400041F004010160C7E700F034F8401B0A2887
:103B500006D984F83C8084F83D70032060E708E0D3
:103B600020684068C007EFD120684068C00700D1D6
:103B70000126012E04D0042084F83C0001204FE7E8
:103B80002764012084F83C00002049E7704790F842
:103B90003510022903D0802141650120704705219D
:103BA00080F835100068016821F0010101600020F3
:103BB000704700000148006870470000780200204C
:103BC00002480168491C016070470000780200202B
:103BD00010B50A48016841F400710160016841F4C0
:103BE00080610160016841F4807101600F2000F084
:103BF00007F800F06DF8002010BD0000003C024006
:103C000010B588B002A903A800F034FC00F056FCFF
:103C10000290002226490B6843F008030B600968F4
:103C200001F008010191224920390B6843F0080393
:103C30000B600B6823F008030B601F4C1D492160CB
:103C4000511EE1601D49069B63B34000B0FBF1F0DB
:103C500080B2401E60602261A2606261164801F07D
:103C60006DF9174817490968C1F8080116494FF45A
:103C7000802008600021104801F07EF904210E48E0
:103C800001F07AF92068426A10490A60096801F572
:103C90007A7181632068C16841F00401C16008B095
:103CA000002010BDB0FBF1F080B2401E6060D2E792
:103CB00040380240000C00406415002040420F00D4
:103CC00035D1000808ED00E004E100E040020020EA
:103CD000704700002DE9F8431E48016841F080510B
:103CE0000160006800F0805000900127380490FACD
:103CF000A0F0DFF86480B0FA80F048F82070FFF799
:103D000059FF05464FF47A76144C07E0FFF752FF4F
:103D1000401BB04202D90320BDE8F8836068C003AD
:103D2000F4D54FF4003090FAA0F0B0FA80F048F8E3
:103D30002070FFF73FFF054606E0FFF73BFF401B03
:103D4000B04201D90320E7E760688003F5D5002081
:103D5000E2E700004038024000000E4200700040E0
:103D60002DE9FF5F0446002700252078FE4EC0079E
:103D700008D03068A16B20F0C06008433060A06BB1
:103D800000B901272078800708D53068E16B20F062
:103D9000C05008433060E06B00B90127207840072D
:103DA0000CD53068216B20F4401008433060206B44
:103DB000B0F5801F00D1012700B901252078000748
:103DC0000CD53068616B20F4400008433060606BB4
:103DD000B0F5800F00D1012700B9012520788006B9
:103DE00069D54FF0000AE0484C38016841F0805135
:103DF0000160006800F080500090DFF87093D9F8FF
:103E0000000040F48070C9F80000FFF7D3FE804640
:103E100009E0FFF7CFFEA0EB0800022803D903203A
:103E200004B0BDE8F09FD9F80000C005F1D5DFF877
:103E30003893A9F11C09D9F8000000F4407030B3A0
:103E4000B4F8401001F44071814220D0D9F800004C
:103E500020F44070C64901220A60C1F800A0C9F8E8
:103E60000000D9F80000C00711D0FFF7A3FE80467C
:103E700041F2883A07E0FFF79DFEA0EB08005045AD
:103E800001D90320CCE7D9F800008007F3D5206CD6
:103E9000B549C0F301228439032A34D0086820F4DC
:103EA000F8100860D9F80000B4F84010C1F30B0115
:103EB0000843C9F800002078C00603D5AD4994F83E
:103EC0005800086020780106AB4805D50168E26C0F
:103ED00021F44001114301602178490605D50168AC
:103EE000A26C21F08061114301602188C90513D5BE
:103EF0000168626D21F0006111430160616DB1F1F3
:103F0000006F08D008E00A689C4B22F4F8121840B1
:103F100002430A60C6E701252188890505D50168A5
:103F2000626C21F0805111430160218849050AD556
:103F30000168226D21F0005111430160206DB0F144
:103F4000005F00D101273846DFF81CB24FF440373C
:103F50004FF0706847F6C0794FF0FF3AABF18C0B29
:103F6000012803D02068B0F5006F7DD1844900207E
:103F70008866FFF71FFE039007E0FFF71BFE03991B
:103F8000401A022801D903204AE7DBF800000001AB
:103F9000F3D422687B48D3074FF0E04101D0A36BF4
:103FA0001BB192073AD5E26BC2BB026897FAA7F33E
:103FB00002F44032B3FA83F3DA40521C4FEA420E65
:103FC000026898FAA8F302F07062B3FA83F3DA4059
:103FD0000292D4E9013299FAA9FCBCFA8CFC02FAEB
:103FE0000CF213430AEB5E0C97FAA7F2B2FA82F2D4
:103FF0000CFA02FC98FAA8FE029ABEFA8EFE02FAA9
:104000000EF24CEA020C43EA0C0391FAA1FC62693D
:10401000BCFA8CFC02FA0CF21343036022685307CB
:1040200003D5236BB3F5801F05D0120745D5626B0E
:10403000B2F5800F41D1026897FAA7F302F440323B
:10404000B3FA83F3DA40521C4FEA420E026802F0E0
:10405000E04391FAA1F2B2FA82F2D340019399FAC5
:10406000A9FCBCFA8CFC00E0B8E0D4E9012303FA17
:104070000CF31A430AEB5E0397FAA7FCBCFA8CFC1C
:1040800003FA0CF398FAA8FED4F810C0BEFA8EFE1C
:104090000CFA0EFC43EA0C031A4391FAA1FC019BB3
:1040A000BCFA8CFC03FA0CF31A4302603268A36A70
:1040B00022F01F025B1E1A4332602288520541D54E
:1040C000226DB2F1005F3DD1026897FAA7F302F4C6
:1040D0004032B3FA83F3DA40521C5300026802F014
:1040E000E04C91FAA1F2B2FA82F22CFA02FCCDF87D
:1040F00004C0D4E9012C99FAA9FEBEFA8EFE0CFA8E
:104100000EFC42EA0C02D4F80CC097FAA7FE0AEBA8
:104110005C0CBEFA8EFE0CFA0EFC98FAA8FEBEFAF3
:104120008EFE03FA0EF34CEA030C42EA0C0291FAFB
:10413000A1F3DDF804C0B3FA83F30CFA03FC42EAFE
:104140000C0202602288120535D5D4E9012399FAC0
:10415000A9FCBCFA8CFC03FA0CF31A43E36897FA47
:10416000A7FC0AEB53030FE08C38024000700040BC
:10417000400E4742E011474294380240FFFCFF0FD7
:104180000000474284380240BCFA8CFC03FA0CF36E
:1041900098FAA8FED4F810C0BEFA8EFE0CFA0EFCF7
:1041A00043EA0C031A4391FAA1F16369B1FA81F170
:1041B0008B401A4302604C4901208866FFF7FAFCE5
:1041C000039007E0FFF7F6FC0399401A022801D993
:1041D000032025E6DBF800000001F3D5012D74D1A2
:1041E000414900200867FFF7E5FC054606E0FFF7B8
:1041F000E1FC401B022801D9032011E6DBF8000096
:10420000C0438000F3D520683849420701D5226BAE
:104210001AB100072BD5606B48BB086897FAA7F264
:1042200000F44030B2FA82F2D040401C4000D4E9A1
:10423000062399FAA9F5B5FA85F5AB401A4397FA22
:10424000A7F30AEB5000B3FA83F3984098FAA8F565
:10425000636AB5FA85F5AB40184302430A603068DB
:1042600020F4F852E06A401E42EA002030602088C4
:10427000C00523D5606DB0F1006F1FD1086898FAB2
:10428000A8F200F07060B2FA82F2D040D4E90623BE
:1042900099FAA9F5B5FA85F5AB401A43236A97FA5E
:1042A000A7F40AEB5303B4FA84F4A34098FAA8F4F1
:1042B000B4FA84F4A04003431A430A600A49012077
:1042C0000867FFF777FC044607E00BE0FFF772FC96
:1042D000001B022801D90320A2E5DBF80000C0433F
:1042E0008000F3D400209BE500004742883802405C
:1042F0002DE9F04704460E46DFF86891D9F8000032
:1043000006F0FF0800F00F00B0420AD289F80080E2
:10431000D9F8000000F00F00B04202D00120BDE843
:10432000F0872078504F800705D53868A16820F0C5
:10433000F000084338602078C0075BD04A496068C5
:104340000839012808D002280BD0032809D00968B1
:1043500089070BD40120E2E70968890306D401200C
:10436000DDE70968890101D40120D8E7396821F027
:10437000030101433960FFF71DFC0546606841F207
:10438000883A01280BD0022816D0032821D02DE02E
:10439000FFF710FC401B504501D90320BFE73868E8
:1043A000C0F381000128F3D124E0FFF703FC401B98
:1043B000504501D90320B2E73868C0F381000228D4
:1043C000F3D117E0FFF7F6FB401B504501D903205E
:1043D000A5E73868C0F381000328F3D10AE0FFF7AE
:1043E000E9FB401B504501D9032098E7386810F0DD
:1043F0000C0FF4D1D9F8000000F00F00B04209D939
:1044000089F80080D9F8000000F00F00B04201D018
:10441000012084E72078400705D53868E16820F45A
:10442000E050084338602078000706D538682169D5
:1044300020F4604040EAC100386000F06BF8396851
:10444000F02292FAA2F201F0F001B2FA82F2D14027
:10445000064A515CC840064908600F20FFF7D0FBB0
:1044600000205CE7003C02400838024024F10008CC
:104470007C0200200F2202600B4A136803F0030342
:104480004360136803F0F0038360136803F4E053A0
:10449000C360126802F46042D208026103480068F7
:1044A00000F00F000860704708380240003C0240EE
:1044B00001480068704700007C02002000B5FFF74B
:1044C000F7FF074909684FF4E05292FAA2F201F4AB
:1044D000E051B2FA82F2D140024A515CC84000BDBC
:1044E0000838024034F1000800B5FFF7E1FF074942
:1044F00009684FF4604292FAA2F201F46041B2FA04
:1045000082F2D140024A515CC84000BD08380240E6
:1045100034F1000830B53248006810F00C01314821
:104520001CD04410042918D02D4B47F6C0721B1F15
:10453000082914D00C2911D1196801F03F011D6818
:104540006D0236D5B4FBF1F01968114092FAA2F26F
:10455000B2FA82F2D140484335E0204630BD1968B6
:1045600001F03F011D686D020AD5B4FBF1F0196836
:10457000114092FAA2F2B2FA82F2D140484309E025
:10458000B0FBF1F01968114092FAA2F2B2FA82F28D
:10459000D140484319684FF4403292FAA2F201F434
:1045A0004031B2FA82F2D140491C4900B0FBF1F02F
:1045B00030BDB0FBF1F01968114092FAA2F2B2FAE4
:1045C00082F2D140484319684FF0E04292FAA2F2D9
:1045D00001F0E041B2FA82F2D140B0FBF1F030BD1F
:1045E000083802400024F4002DE9F84F0446DFF8B3
:1045F000A8832078A8F10407C007A7F104055BD0C1
:10460000D8F80000C0F38100012811D0D8F80000CC
:10461000C0F38100022802D13868400208D4D8F8DB
:104620000000C0F3810003280AD13868400207D592
:104630002868800340D5606878BB0120BDE8F88F0A
:104640006068B0F5803F10D0B0F5A02F12D0286878
:1046500020F480302860286820F48020286060687A
:10466000E0B1FFF7A7FA064614E0286840F480306E
:104670002860F4E7286840F480202860286840F427
:1046800080302860EBE7FFF795FA801B642801D99A
:104690000320D3E728688003F5D50DE0FFF78AFAF9
:1046A000064606E0FFF786FA801B642801D903203E
:1046B000C4E728688003F5D42078DFF8E09280070B
:1046C0004FF0000A5BD5D8F800004FF0F80B10F05F
:1046D0000C0F11D0D8F80000C0F38100022802D1DD
:1046E0003868400208D5D8F80000C0F381000328DC
:1046F00016D13868400213D42868800704D5E068D2
:10470000012801D0012099E728689BFAABF22169C2
:10471000B2FA82F220F0F8009140084328602EE0BF
:10472000E068E0B10120C9F80000FFF743FA06464F
:1047300006E0FFF73FFA801B022801D903207DE73E
:1047400028688007F5D528689BFAABF22169B2FA90
:1047500082F220F0F8009140084328600FE0C9F889
:1047600000A0FFF727FA064606E0FFF723FA801BB2
:10477000022801D9032061E728688007F5D4207852
:10478000000729D5DFF810B2854861690BF16C0B81
:1047900089B101210160FFF70DFA064606E0FFF737
:1047A00009FA801B022801D9032047E7DBF8000043
:1047B0008007F4D510E0C0F800A0FFF7FBF906462B
:1047C00006E0FFF7F7F9801B022801D9032035E73F
:1047D000DBF800008007F4D4207840076ED56E48DF
:1047E0003830016841F080510160006800F080506D
:1047F0000090DFF8B0B1DBF8000040F48070CBF837
:104800000000FFF7D7F9064606E0FFF7D3F9801B53
:10481000022801D9032011E7DBF80000C005F4D518
:10482000DFF874B1A0680BF1680B012813D00528DC
:1048300018D0DBF8000020F00100CBF80000DBF816
:10484000000020F00400CBF80000A06828B3FFF7B8
:10485000B1F906461CE0DBF8000040F00100CBF89F
:104860000000F2E7DBF8000040F00400CBF80000A5
:10487000DBF8000040F00100CBF80000E5E7FFF7AF
:1048800099F9811B41F28830814201D90320D5E694
:10489000DBF800008007F2D510E0FFF78BF9064641
:1048A00008E0FFF787F9811B41F28830814201D986
:1048B0000320C3E6DBF800008007F2D4A069E8B368
:1048C000D8F80010C1F38101022963D0022805D075
:1048D000C9F860A0FFF76EF9044656E0C9F860A079
:1048E000FFF768F9064606E0FFF764F9801B022827
:1048F00001D90320A2E628688001F5D4D4E9070194
:10490000084347F6C07292FAA2F2616AB2FA82F2E2
:104910009140A26A4FF0FF3303EB52024FF4403351
:1049200093FAA3F3B3FA83F39A4011434FF0706202
:1049300092FAA2F20843B2FA82F200E028E0E16AB9
:10494000914008434FF0E04292FAA2F2216BB2FA92
:1049500082F29140084338600120C9F86000FFF7F7
:1049600029F9044606E0FFF725F9001B022801D9C2
:10497000032063E628688001F5D509E0FFF71AF9FE
:10498000001B022801D9032058E628688001F5D4CD
:10499000002053E6012051E608380240000047425B
:1049A000800E4742007000407047000038B5044652
:1049B0002068426881684B0609D4CB0707D05306AC
:1049C00005D5216C01B02046BDE8304008478B0773
:1049D00007D5130605D5616C01B02046BDE830400F
:1049E000084711F4B07F4CD093064AD54B060AD540
:1049F00094F85130032B41D0636D43F00403636599
:104A0000C368836800938B0609D5636D43F0010387
:104A1000636583680093036823F040030360C8055F
:104A200006D5606D40F008006065206880680090E1
:104A3000606D002825D02068416821F0E0014160C8
:104A4000012084F8510002F0020002F00101084345
:104A500018D02068416821F0030141600B4DE06CE3
:104A600018B10565E06CFFF792F8A06C002808D03B
:104A70000565A06CBDE83840FFF789B8C16880685B
:104A8000009038BD2046FFF78FFF38BD455600081F
:104A900070B50446002C06D04FF4005694F851002F
:104AA000002510B106E0012070BD84F8505020466A
:104AB00000F036F8022084F851002068016821F0E7
:104AC00040010160D4E901010843D4E90312114314
:104AD000084361690843218B01F400710843E169CF
:104AE0000843216A0843A16A084321680860A06955
:104AF000042101EA1040616A084321684860A06A05
:104B0000B04202D12168E06A08612068C16921F4DD
:104B10000061C1616565012084F85100002070BD0D
:104B200070470000F0B4002385680426002D03D1EF
:104B30004468B4F5827F0DD090F85040012C10D01D
:104B4000012480F8504090F851700024012F0BD0C0
:104B5000022342E080F85160F0BC13460A4600F0A0
:104B600019B90220F0BC704779B172B180F8516078
:104B7000446581638287C28704638486C4864464F3
:104B8000C16821B11749016403E0012325E01649FA
:104B90000164B5F5004F04D101680A6822F480422F
:104BA0000A60816AB1F5005F0AD101680A684DF6B2
:104BB000FF752A400A6001680A6842F400520A60E0
:104BC00001684A6842F060024A6001680A68520659
:104BD00003D40A6842F040020A6080F85040184648
:104BE000C0E7000055560008BD56000870472DE983
:104BF000F84F04460D4693461E46002794F8500091
:104C000001280DD04FF0010A84F850A0FEF7D2FF22
:104C1000804694F85100B946012804D00227B3E039
:104C20000220BDE8F88FDDB1BBF1000F18D00320E2
:104C300084F85100C4F854902563A4F834B0A4F863
:104C400036B0C4F83890A4F83C90A4F83E90C4F86C
:104C50004490C4F84090A068B0F5004F02D006E040
:104C6000012791E02068016841F480410160A06A59
:104C70004FF4005B58450AD1206801684DF6FF7279
:104C8000114001602068016841F400510160206812
:104C90000168490603D4016841F040010160E06801
:104CA000B0F5006F05D0606850B3E08E012827D0C2
:104CB00044E0606810B1E08E01281DD1216835F80C
:104CC000020BC860E08E401EE08615E02068816817
:104CD000890706D535F8021BC160E08E401EE086CC
:104CE0000AE03EB1701C07D0FEF764FFA0EB08009D
:104CF000B04201D3032747E0E08E0028E6D120E050
:104D0000216815F8010B0873E08E401EE08615E05F
:104D100020688168890706D515F8011B0173E08EAC
:104D2000401EE0860AE03EB1701C07D0FEF742FF4D
:104D3000A0EB0800B04201D3032725E0E08E002855
:104D4000E6D142463146204600F065FD08B1032712
:104D50001AE042463146204600F08FFB18B1012789
:104D60002020606510E0A06818B92068C1688068DC
:104D70000090A06A584504D12068016841F4805130
:104D80000160606D00B1012784F851A084F8509053
:104D9000384646E7F0B5002490F85050012D0CD06D
:104DA000012580F8505090F8515046680027012D99
:104DB0000BD0B6F5827F06D101E00220F0BD8668F7
:104DC0000EB9042D01D002243AE031B12AB123B149
:104DD00090F85150012D02D004E0012430E0052567
:104DE00080F85150476501638386C3868263838759
:104DF000C387C16821B1144901641449416403E0C7
:104E00001349016413494164816AB1F5005F0AD115
:104E100001680A684DF6FF731A400A6001680A6863
:104E200042F400520A6001684A6842F0E0024A60B7
:104E300001680A68520603D40A6842F040020A6018
:104E400080F850702046F0BD1D530008E55300085F
:104E50007D5300083154000830B5002390F85040CD
:104E6000012C0BD0012480F85040002441B13AB10C
:104E700090F85150012D05D002233CE0022030BDB6
:104E8000012338E0032580F8515044650163828690
:104E9000C28684638487C4870464C16811B11B49D6
:104EA000416401E01A4941648168B1F5004F04D1C1
:104EB00001680A6842F480420A60816AB1F5005FC5
:104EC0000AD101680A684DF6FF752A400A60016838
:104ED0000A6842F400520A60816881B101684A6838
:104EE00042F0A0024A6001680A68520603D40A68C8
:104EF00042F040020A6080F85040184630BD016818
:104F00004A6842F080024A60EDE700001B57000843
:104F1000575700087047704710B5044604222068B0
:104F200000F023FF2068416C41F400414164206897
:104F3000016841F001010160002010BD10B5044678
:104F4000002C03D094F8390010B107E0012010BD07
:104F5000002084F83800204600F00CF8022084F885
:104F60003900211D206800F093FE012084F83900EB
:104F7000002010BD7047000010B5044601222068D3
:104F800000F0E8FE08482168814202D007488142CB
:104F900003D1486C40F4004048642068016841F047
:104FA00001010160002010BD00000140000401402B
:104FB00070B504460D4694F8380001280DD001263E
:104FC00084F83860022084F8390042B1042A1AD0EB
:104FD000082A2DD00C2A53D13EE0022070BD29466C
:104FE000206800F0CDFE2068816941F008018161F0
:104FF0002068816921F004018161206881692A6942
:10500000114381613CE02946206800F0E9FE2068F8
:10501000816941F4006181612068816921F48061C6
:105020008161206881692A6941EA0221816127E062
:105030002946206800F00AFF2068C16941F0080194
:10504000C1612068C16921F00401C1612068C169A2
:105050002A691143C16113E02946206800F02AFF44
:105060002068C16941F40061C1612068C16921F40F
:105070008061C1612068C1692A6941EA0221C16178
:10508000383466700020207070BD10B50446002CC6
:1050900003D094F8390010B107E0012010BD0020C2
:1050A00084F83800204600F00CF8022084F839001B
:1050B000211D206800F0ECFD012084F8390000205B
:1050C00010BD704710B504460122206800F042FE72
:1050D00008482168814202D00748814203D1486CC8
:1050E00040F4004048642068016841F0010101601B
:1050F000002010BD000001400004014008B5006818
:105100000168C943C90706D00168C943890705D4A6
:105110004068009008BD4068009008BD0168C94320
:10512000490702D44068009008BD0168C9430907D7
:10513000FAD44068009008BD70B504462268106833
:10514000D168526900F00F03002B08D1850606D5FF
:105150008D0604D52046BDE8704000F0F8BE002B57
:105160005ED002F0010301F490752B4358D0C307C1
:1051700005D0CB0503D5E36B43F00103E36343079D
:1051800005D5D30703D0E36B43F00203E363830742
:1051900005D5D30703D0E36B43F00403E3630307B0
:1051A00005D5D20703D0E26B42F00802E263E26B5E
:1051B000002A2AD0800604D5880602D5204600F0B1
:1051C000C6FE20684069C0F38010E16B090700D477
:1051D00000B3204600F0A0FE20684169490615D5BD
:1051E000416921F040014161606B58B11549016589
:1051F000606BFEF7CCFC002807D0606B016DBDE84A
:10520000704008472046FFF779FF70BD2046FFF742
:1052100075FF70BD2046FFF771FF0020E06370BD91
:10522000020606D50A0604D52046BDE8704001F006
:1052300061B84006F3D54806F1D52046BDE8704078
:1052400000F078BE095F000870B50446002C04D059
:1052500094F83900002510B106E0012070BD84F8F3
:105260003850204600F022F8242084F839002068C5
:10527000C16821F40051C160204600F0B1FE2068F1
:10528000016921F4904101612068416921F02A01FE
:1052900041612068C16841F40051C160E56320208C
:1052A00084F8390084F83A00002070BD70477047D8
:1052B00000680168C943490602D46FF040010160EB
:1052C000704730B5036891FAA1F4B4FA84F465002C
:1052D0000324AC4091FAA1F1B1FA81F14900A34352
:1052E0008A401343036030BD43688B4351430B43F3
:1052F0004360704730B5C36891FAA1F4B4FA84F4FE
:1053000065000324AC4091FAA1F1B1FA81F14900A2
:10531000A3438A401343C36030BD00000168C968DD
:10532000826B1180816B891C8163C18F491EC1878B
:10533000C18F00290FD1816AB1F5005F09D00168E2
:105340004A6822F040024A60C18E002903D100F071
:10535000A7B80149016470475D53000882B000217D
:1053600001910168CA680192BDF804204A6822F0E0
:1053700040024A6002B000F093B8000001680B7B65
:10538000816B4A1C82630B70C18F491EC187C18F1C
:1053900000290FD1816AB1F5005F09D001684A6820
:1053A00022F060024A60C18E002903D100F078B873
:1053B0000149016470470000BD53000882B000211C
:1053C000019101680A7B01929DF804204A6822F04D
:1053D00060024A60C18E002902D102B000F060B8BC
:1053E00002B07047016B02680988D160016B891CAB
:1053F0000163C18E491EC186C18E002917D1816A01
:10540000B1F5005F09D001684A6822F080024A6065
:10541000C18F00290BD100F043B801680A6842F43B
:1054200080520A600068416821F080014160704745
:10543000016B4A1C0263026809781173C18E491E10
:10544000C186C18E002917D1816AB1F5005F09D0EC
:1054500001684A6822F080024A60C18F00290BD19E
:1054600000F01EB801680A6842F480520A600068C1
:10547000416821F080014160704738B504460B4611
:10548000009200228021204600F082F928B1606D50
:1054900040F020006065032038BD002038BD0000CA
:1054A0001CB504462C4845F6C0510068B0FBF1F02D
:1054B000642148430190FEF77DFB02462068416865
:1054C00021F0200141600198411E019104D2606DDC
:1054D00040F02000606503E0206880688007F2D516
:1054E00064212046FFF7C9FF18B1606D40F020002D
:1054F0006065A06818B92068C1688068009020685D
:105500008168C943CA064FF001010CD484F85110D8
:10551000616D41F0020161654FF6EF7181602046D7
:10552000FFF742FA1CBD606D28B184F85110204687
:10553000FFF73AFA1CBD94F85100042805D084F80E
:1055400051102046FFF7E7FC1CBD84F8511020469F
:10555000FFF74CFB1CBD00007C02002008B5016871
:105560004A6822F060024A604168B1F5827F0BD13F
:105570008168B1F5004F02D0B1F5806F04D10168A8
:105580000A6822F040020A60816819B90168CA6895
:1055900089680091012180F8511001688A68D2431E
:1055A000D20609D4426D42F0020242654FF6EF7214
:1055B0008A60FFF7F9F908BD416D11B1FFF7F4F901
:1055C00008BDFFF713FB08BD1CB504461C4845F693
:1055D000C0510068B0FBF1F0642148430190FEF730
:1055E000E9FA024621680198431E019304D2606DD6
:1055F00040F02000606502E088688007F3D54868C5
:1056000020F0A000486064212046FFF736FF18B163
:10561000606D40F020006065A06818B92068C1681E
:1056200080680090012084F85100606D18B1204618
:10563000FFF7BAF91CBD2046FFF76CFC1CBD00004B
:105640007C02002010B5806B0021C187C186FFF766
:10565000ABF910BD0168C968826B1180816B891C30
:105660008163C18F491EC187C18F4FF40053012947
:1056700007D1816A994204D101680A6842F48052D4
:105680000A60C18F002904D1816A994202D102497E
:1056900001647047FFF762BF9D56000882B0002189
:1056A00001910168CA680192BDF804204A6822F09D
:1056B00060024A6002B0FFF751BF000001680B7B37
:1056C000816B4A1C82630B70C18F491EC187C18FD9
:1056D0004FF40053012907D1816A994204D101682E
:1056E0000A6842F480520A60C18F002904D1816A9D
:1056F000994202D1024901647047FFF72FBF0000B1
:105700000557000882B0002101910168097B0191D1
:105710009DF8041002B0FFF721BF016B02680988F1
:10572000D160016B891C0163C18E491EC186C18E87
:1057300000290FD1816AB1F5005F04D101680A68C0
:1057400042F480520A6001684A6822F080024A608E
:10575000FFF73ABF7047016B4A1C02630268097881
:105760001173C18E491EC186C18E00290FD1816A75
:10577000B1F5005F04D101680A6842F480520A6002
:1057800001684A6822F080024A60FFF71DBF704737
:105790002DE9F04104460F4690461D46069E33E033
:1057A000681C31D025B1FEF705FA801BA8422BD327
:1057B0002068416821F0E00141606068B0F5827FB7
:1057C0000BD1A068B0F5004F02D0B0F5806F04D1C6
:1057D0002068016821F040010160A06AB0F5005F17
:1057E0000AD1206801684DF6FF72114001602068FF
:1057F000016841F4005101600120503460700020C4
:1058000020700320BDE8F081206880683840404562
:10581000C6D10020F6E770B504460D46164632E0C4
:10582000681C30D025B1FEF7C5F9801BA8422AD3E9
:105830002068416821F0E00141606068B0F5827F36
:105840000BD1A068B0F5004F02D0B0F5806F04D145
:105850002068016821F040010160A06AB0F5005F96
:105860000AD1206801684DF6FF721140016020687E
:10587000016841F400510160012050346070002043
:105880002070032070BD206880688007C8D5002084
:1058900070BD10B5002000F005F8002800D1FEE72B
:1058A00010BD000070B5AAB000262B490A6842F06E
:1058B00080520A60096801F08051009127490A6806
:1058C00042F440420A60096801F44041009101211C
:1058D0001D91002816D04FF4A0201E90022423947E
:1058E00060052490082525954FF4B47026902794E0
:1058F0000720289029941DA8FEF776FE30B10020DD
:105900002AB070BD4FF480301E90E7E7FEF7E2F951
:1059100008B10020F4E707954FF4C070089009958E
:105920004FF480700190C004169001A8FEF718FA99
:105930000F20189019941A964FF4A0501B904FF412
:1059400080501C90052118A8FEF7D2FC08B1002059
:10595000D6E70120D4E70000403802400070004044
:1059600038B5014600242F48082955D2DFE801F058
:10597000040E18222C36404A2B4C016841F00101DC
:105980000160006800F00100009048E0274C0168C9
:1059900041F002010160006800F0020000903EE06A
:1059A000234C016841F004010160006800F004002C
:1059B000009034E01F4C016841F00801016000686C
:1059C00000F0080000902AE01B4C016841F0100133
:1059D0000160006800F01000009020E0174C0168A2
:1059E00041F020010160006800F02000009016E006
:1059F000134C016841F040010160006800F0400074
:105A000000900CE00F4C016841F0800101600068DB
:105A100000F08000009002E00BA005F0B7FD2046EA
:105A200038BD00003038024000000240000402404F
:105A300000080240000C0240001002400014024026
:105A400000180240001C024050696E6D61702065B4
:105A500072726F723A2077726F6E6720706F727415
:105A6000206E756D6265722E0000000070B51D4ECF
:105A7000306800F00C001C4B1C4900280ED05D1053
:105A800004280DD008280DD00B603068184AC0F3E8
:105A90000310105C0A68C2400A6070BD0B60F4E736
:105AA0000D60F2E70F4A121F1068C0F380541068AF
:105AB00000F03F0034B1B5FBF0F01368C3F3881376
:105AC000584305E0B3FBF0F01368C3F38813584361
:105AD0001268C2F30142521C5200B0FBF2F008609F
:105AE000D3E70000083802400024F4007C020020C4
:105AF00024F100081048016841F4700101600F486A
:105B0000016841F0010101600C4A00210832116076
:105B100002680B4B1A400260031D0A4A1A600268B1
:105B200022F48022026005480C30016002495806C8
:105B3000803908607047000088ED00E000380240BE
:105B4000FFFFF6FE103000242DE9F041454E30698C
:105B50004FF00007C00747D0434DA86840F0804091
:105B6000A8609FED420A424802F000FED5F84C01C1
:105B7000404C6060E86C2060D5F84C02A0603C4866
:105B800002F0DDFD84ED080A394802F0DEFD84ED07
:105B9000070A374802F0DCFD84ED090A344802F0B8
:105BA000D1FD84ED0A0A94ED060ADFED330A9FED7C
:105BB000331A20EE200AD4ED020AF8EEE00A60EE75
:105BC000810A9FED2F1A00EE810A84ED060A2D4D01
:105BD000A868062843D2DFE800F003080D423B40E6
:105BE000E86808B101F038F939E0E86878B302F004
:105BF00033FB34E0E86818B101F09AFC6F602EE0E6
:105C00002148D4F89810C06881420DDD00280BDDD2
:105C10009FED1E0A84ED210A84ED220A84ED2B0AF1
:105C200084ED2C0A84ED2D0A124801F0CBF8114ABC
:105C30002034143A94ED000A02F537710D4802F051
:105C40005FFBA06F401CA0676868401C686006E0AE
:105C5000E86820B101F028FB01E001F03DF8376170
:105C6000BDE8F081000001400020014017B7D137A6
:105C7000800D0020B00700203333733FCDCC4C3D66
:105C80000C514F3C0802002090030020000000004F
:105C90002DE9F0410268244D244E254FDFF894C0D1
:105CA000254B4FF08048A84209D0404507D0B0426C
:105CB00005D0B84203D0604501D0984203D122F00C
:105CC00070044A682243A8421BD0404519D0B04214
:105CD00017D0B84215D0604513D0984211D0174C58
:105CE000A0420ED0164CA0420BD0164CA04208D0B9
:105CF000154CA04205D0154CA04202D0144CA04235
:105D000003D122F44074CA68224302608A68C262E6
:105D10000A688262A84201D0984201D109690163F0
:105D200001214161BDE8F081000001400004004014
:105D300000080040000C0040000401400040014009
:105D4000004401400048014000180040001C004091
:105D50000020004010B501238B40046A9C4304627C
:105D6000036A8A401343036210BD10B504238B40BD
:105D7000046A9C430462036A8A401343036210BDB1
:105D800030B5026A22F001020262026A4368846945
:105D900024F0700424F003050C682C4322F0020563
:105DA0008A682A430C4DA84202D00C4DA8420DD15E
:105DB00022F00802CD68154325F0040223F4807315
:105DC00023F400734D691D438B692B434360846149
:105DD00049684163026230BD000001400004014097
:105DE00030B5026A22F010020262036A42688469D6
:105DF00024F4E04424F440740D6844EA052423F0BC
:105E000020038D6843EA05130E4DA84202D00E4DC3
:105E1000A84210D123F08003CD6843EA051323F094
:105E2000400322F4806222F400624D6942EA850256
:105E30008D6942EA85024260846149688163036238
:105E400030BD0000000001400004014030B5026A8E
:105E500022F480720262026A4368C46924F070040A
:105E600024F003050C682C4322F400728D6842EA8A
:105E700005220E4DA84202D00D4DA84210D122F4A9
:105E80000062CD6842EA052222F4806223F4805346
:105E900023F400534D6943EA05138D6943EA051362
:105EA0004360C4614968C163026230BD00000140C3
:105EB0000004014030B5026A22F480520262046A92
:105EC0004268C36923F4E04323F440730D6843EA56
:105ED000052324F400548D6844EA0534084DA84293
:105EE00002D0084DA84204D122F480424D6942EA12
:105EF00085124260C36149680164046230BD0000DC
:105F0000000001400004014010B5806B0021C185F4
:105F1000C184FFF7F3F810BD0168CA6822F49072DB
:105F2000CA6001684A6922F001024A61202180F8B2
:105F30003A10704710B50168CA6822F04002CA6082
:105F4000202180F83910FFF7B3F9002010BD10B5FB
:105F500090F83A10222901D0022010BD8168B1F5D5
:105F6000805F11D0016919B30168496801F07F03AE
:105F7000816A4A1C82620B70C18D491E0904090C9A
:105F8000C1851CD0002010BD816A02693AB1026847
:105F90005268D2B20A80816A491C8162ECE70268C9
:105FA0005268C2F308020A80816A891C8162E3E7B1
:105FB00001684A68816A4B1C83620A70DCE70168E9
:105FC000CA6822F49072CA6001684A6922F001022C
:105FD0004A61202180F83A10FFF769F9002010BDCE
:105FE0002DE9F04104462068016921F44052E1683E
:105FF000114301612068C26849F20C618A43236938
:10600000A168E569194363692B4319431143C160D2
:106010002068416921F44071A2690A434261E06944
:10602000B24AB34964253226B0F5004F59D02068F2
:10603000884201D090427DD1FEF756FA00EBC001B4
:1060400001EB001061688900B0FBF1F7FEF74CFA34
:1060500000EBC00101EB001061688900B0FBF1F0BA
:10606000B0FBF5F06FF01801484307EB800006EB3A
:106070000010B0FBF5F000F0F007FEF735FA00EB8A
:10608000C00101EB001061688900B0FBF1F0B0FBCA
:10609000F5F007EB0017FEF727FA00EBC00101EB64
:1060A000001061688900B0FBF1F8FEF71DFA00EB03
:1060B000C00101EB001061688900B0FBF1F0B0FB9A
:1060C000F5F06FF01801484308EB800006EB001074
:1060D000B0FBF5F0216800F00F0038448860BDE89F
:1060E000F0812068884201D0904256D1FEF7FCF939
:1060F00000EBC00101EB001061684900B0FBF1F05A
:10610000B0FBF5F00701FEF7EFF900EBC00101EB82
:10611000001061684900B0FBF1F8FEF7E5F900EB0B
:10612000C00101EB001061684900B0FBF1F0B0FB69
:10613000F5F000E086E06FF01801484308EB8000BE
:1061400006EBC000B0FBF5F000F0F80007EB4007ED
:10615000FEF7CAF900EBC00101EB001061684900CD
:10616000B0FBF1F8FEF7C0F900EBC00101EB001045
:1061700061684900B0FBF1F0B0FBF5F06FF0180179
:10618000484308EB800006EBC000B0FBF5F0216847
:1061900000F0070038448860A1E7FEF78FF900EBB4
:1061A000C00101EB001061684900B0FBF1F0B0FBE9
:1061B000F5F00701FEF782F900EBC00101EB0010DA
:1061C00061684900B0FBF1F8FEF778F900EBC00117
:1061D00001EB001061684900B0FBF1F0B0FBF5F095
:1061E0006FF01801484308EB800006EBC000B0FBDD
:1061F000F5F000F0F80007EB4007FEF75FF900EB61
:10620000C00101EB001061684900B0FBF1F8FEF736
:1062100055F900EBC00101EB001061684900B0FBCB
:10622000F1F0B0FBF5F06FF01801484308EB800087
:1062300006EBC000B0FBF5F0216800F00700384421
:1062400088604CE7FEF73AF900EBC00101EB001063
:1062500061688900B0FBF1F7FEF730F900EBC0018F
:1062600001EB001061688900B0FBF1F0B0FBF5F0C4
:106270006FF01801484307EB800006EB0010B0FBFD
:10628000F5F000F0F007FEF719F900EBC00101EBA3
:10629000001061688900B0FBF1F0B0FBF5F007EB8E
:1062A0000017FEF70BF900EBC00101EB001061686D
:1062B0008900B0FBF1F8FEF701F900EBC00101EB3A
:1062C000001061688900B0FBF1F0B0FBF5F06FF0F1
:1062D0001801484308EB800006EB0010B0FBF5F016
:1062E000216800F00F0038448860F8E6001401408F
:1062F0000010014090F83910212901D00220704788
:106300008168B1F5805F0CD0016A4A1C02620268A4
:1063100009785160C18C491E0904090CC18410D050
:1063200019E0016A02680988C1F308015160016936
:1063300019B1016A491C0162ECE7016A891C01621A
:10634000E8E70168CA6822F08002CA600068C16894
:1063500041F04001C160002070472A291ED2DFE8C9
:1063600001F01517191B1D1515151517191B1D1DE6
:106370001D1517191D1715171517191B191D1D1593
:1063800017191D1D1D1D1D1D1517191B34307047B4
:10639000383070473C3070474030704700207047BD
:1063A00070B504462DED028B0D46B0EE408A94ED9B
:1063B000000A60EE000A95ED000A40EE000AB0EE19
:1063C000600A04F01BF9B4EEC80AF1EE10FA0FDD12
:1063D000D4ED000A60EE880A80EE801A84ED001A7F
:1063E000D5ED000A60EE880A80EE801A85ED001A6D
:1063F000BDEC028B70BD00002DE9F04104462DED8F
:10640000068B82B0B0EE60AAF0EE41AAB0EE619ABF
:10641000F0EE429A9FED328ADFED328A1420B0EE20
:10642000481AF0EE680A00F019FB074614209FEDA9
:106430002E1ADFED2E0AB0EE4A0A00F00FFB80465E
:106440001020B0EE481AF0EE680AB0EE6A0A00F0CA
:1064500005FB06469FED268A0720FBEE040AB0EEF8
:10646000481AB0EE490A00F0F9FA05460720B0EEE6
:10647000481AFBEE040AB0EE690A00F0EFFA034690
:10648000009867F313000090DDF8010068F31F30F7
:10649000CDF80100ADF80560164A9DF80710107898
:1064A00060F300018DF8071098B163F347018DF890
:1064B0000710002010701048406840F01000206065
:1064C000DDE90001C4E9010102B0BDEC068BBDE8C5
:1064D000F08165F347018DF8071001201070EAE79D
:1064E0000000C8420000C8C200803B4400803BC49A
:1064F00000004843C4010020900300201FB52DED8B
:10650000048B82B00C9CDDE90701CDE900019FED11
:10651000228ADFED228ABDF800001021F0EE480A41
:10652000B0EE680A00F020FC84ED290ABDF80200F4
:106530000E21C0F30D00DFED1A0A9FED1A0A00F0DC
:1065400013FC84ED2A0A9FED199ABDF803000A2175
:106550008009DFED150AB0EE490A00F005FC84ED74
:106560002B0A9DF805000821F3EE040AB0EE490A53
:1065700000F0FAFB84ED2C0ABDF806001021F0EEC5
:10658000480AB0EE680A00F0EFFB84ED2D0A02B075
:10659000BDEC048B1FBD00000000C8420000C8C253
:1065A00000803B4400803BC4000096430000000094
:1065B00010B50446204601F0D9F901F081F91C20FC
:1065C00003F02CFA10B1252102F040FA606010BDF2
:1065D00010B50848006800280BD1032202210648A4
:1065E00006F028F8BDE810404FF41651024806F0B6
:1065F0000BB810BD64020020B4140020024A52F807
:10660000200050F821007047C80100202DE9F04F0C
:106610002DED088B8BB081469246B6A0F9F71CFF92
:106620009FEDBC8ADFEDBCAAB0EE48AA8DED088ACA
:10663000B6EE000A8DED050A002408AA09A90AA8E9
:10664000B0EE4A1AF0EE6A0AB0EE480A01F002F81B
:1066500005AA06A907A8DDED081A9DED091ADDEDCA
:106660000A0AB7EE000A01F089F8002544F6206610
:10667000F7EE008A9FEDA99ADFF8A4B29DED070A14
:1066800038EEC00A20EE090ABCEEC00A10EE100A6D
:10669000CBF83C009DED060A38EEC00A20EE090A50
:1066A000BCEEC00A10EE100ACBF838009DED050ACA
:1066B00038EEC00A20EE090ABCEEC00A10EE100A3D
:1066C000CBF83400642006F006FE6D1CB542D5DB25
:1066D000D9F800009FED93BA0168B0EE4B0A484626
:1066E00088474FF47A7006F0F6FDDAF88010DAF891
:1066F0000400401A00EE100AF8EEC00A9FED8A0A64
:1067000020EE801A8AED041ADAF87C10DAF800001C
:10671000401A00EE900AF8EEE00A60EE801ACAED28
:10672000051AB1EE410A70EE610ACAED030A0AF1D8
:1067300034019AED080A081F00F0D2FF9AED0C0A06
:10674000022003F037F9F0EE40BA9AED0D0A02206C
:1067500003F030F93BEE800A03F032F9F0EE40BA74
:1067600072A0F9F779FE1BEE900A07F037FC054698
:106770000E46DAF8340007F031FC07468846DAF8AE
:10678000300007F02BFC41EC100BCDE90078CDE98F
:10679000025653EC102B68A0F9F75EFE6B4F70E0C9
:1067A00008AA09A90AA8B0EE4A1AF0EE6A0AB0EEE1
:1067B000480A00F04FFF05AA06A907A8DDED081A50
:1067C0009DED091ADDED0A0AB7EE000A00F0D6FFCA
:1067D000642006F080FD9DED070A38EEC00A20EE29
:1067E000090ABCEEC00A10EE100ACBF83C009DED81
:1067F000060A38EEC00A20EE090ABCEEC00A10EE06
:10680000100ACBF838009DED050A38EEC00A20EEDC
:10681000090ABCEEC00A10EE100ACBF83400D9F811
:106820000000B0EE4B0A016848468847D9F80000DE
:10683000816848468847B5EEC08AF1EE10FA01D16A
:10684000F0EE409AC82C17DD002410EE100A07F075
:10685000C5FBF1EE0C0A054688EE200A0E4610EE46
:10686000100A07F0BBFB41EC120BCDE9005653ECCC
:10687000122B37A0F9F7F0FD641C9FED390A38EEB2
:10688000008A18EE100AB8428ADBD9F80000816845
:106890004846884770EE690AF5EEC00AF1EE10FA34
:1068A00001DD012600E0002610EE100A07F096FB3D
:1068B00004460D4619EE900A07F090FB41EC100BD0
:1068C00028A053EC102BCDE90045F9F7C5FD314662
:1068D0002EA0F9F7C1FD1EB131A0F9F7BDFD02E010
:1068E00034A0F9F7B9FD3F4806600BB0BDEC088B4A
:1068F000BDE8F08F0A0D20436865636B696E672001
:106900007068617365206F72646572696E670A0DE5
:1069100000000000000000009A99193E00A08C447D
:106920000000014017B7D1370000A53C0A0D4375A0
:106930007272656E740A0D002566092020202025DC
:10694000660920202025660D0A000000DB0F494162
:10695000252E346609202020252E34660D0A0000DD
:106960006F12833A54686574612053746172743A8B
:106970002020202566202020205468657461204551
:106980006E643A202025660A0D0000004469726595
:106990006374696F6E3A202025640A0D00000000C0
:1069A00050686173696E6720636F72726563740A01
:1069B0000D00000050686173696E6720696E636F37
:1069C00072726563742E20205377617070696E67F0
:1069D00020706861736573205620616E6420570AC9
:1069E0000D000000900300202DE9F35F83462DED9C
:1069F000028B002500264FF48068002440F2654990
:106A0000DFF84CA0134F9FED148A13E0CAF83C90B6
:106A1000CAF83890CAF83490B86840F08040B8603E
:106A2000B0EE480A06F046FCD7F84C010644F86C74
:106A30000544641C4445E9DB95FBF8F0CBF8000005
:106A400096FBF8F103980160BDEC028BBDE8FC9F5A
:106A500000000140002001406F12833A31EE601ABD
:106A60000121814070EE600A491E00EE101AB8EE56
:106A7000C00A20EE800AC0EE010ABDEEE00A10EE68
:106A8000100A70472DE9F84F8F490022A1F1E40068
:106A900002F0D7F9DFF83082A8F6BC01D8F8000080
:106AA000496888427DD1A8F29C440021C4F898101E
:106AB00098F80410FF2941D04FF0000998F80520FC
:106AC000FF2A3ED0002309EA030998F80630FF2B7D
:106AD00039D0002509EA050998F80750FF2D34D070
:106AE000002609EA060998F80860FF2E2FD0002733
:106AF00009EA070998F80970FF2F2AD04FF0000C17
:106B000009EA0C0998F80AC0BCF1FF0F24D04FF035
:106B1000000A98F80B8009EA0A09B8F1FC0F1ED0A8
:106B20004FF0000A19EA0A0FDFF8A0A11AD00220DC
:106B3000CAF808000120CAF80C00ABE04FF00109C8
:106B4000BCE70123BFE70125C4E70126C9E7012708
:106B5000CEE74FF0010CD3E74FF0010AD9E74FF031
:106B6000010ADFE7FF2D3CD04FF00009FF2E3BD09C
:106B70004FF0000B09FB0BF9FF2938D04FF0000B49
:106B800009EA0B09FF2A35D04FF0000BFF2B34D058
:106B90004FF0000E0BEA0E0B09EA0B09FF2F2FD066
:106BA00000E08FE04FF0000B09EA0B09BCF1FF0F8A
:106BB00029D04FF0000B09EA0B09B8F1FD0F25D0E1
:106BC0004FF0000B19EA0B0F23D00020CAF8080081
:106BD0000120CAF80C003E480021406801F02CFF5B
:106BE00058E04FF00109C1E74FF0010BC2E74FF049
:106BF000010BC5E74FF0010BC8E74FF0010EC9E7E5
:106C00004FF0010BD0E74FF0010BD4E74FF0010B31
:106C1000D8E7FF2D23D00025FF2E22D00026754374
:106C2000FF2920D000210D40FF2A1ED00021FF2B7C
:106C30001DD0002211400D40FF2F1AD000210D4021
:106C4000BCF1FF0F17D000210D40B8F1FE0F14D09A
:106C500000210D4213D01F4801F04EFD1AE001251E
:106C6000DAE70126DBE70121DDE70121DFE7012289
:106C7000E0E70121E3E70121E6E70121E9E7DAF8AE
:106C80000810022906D1104900943C3940310EC940
:106C9000FFF734FC0C4894EDB12AD4EDB01A94ED12
:106CA0000E1AD4ED090A94ED070A1030FFF7A4FB81
:106CB00005483C38816D4C3000910EC8A0F58070BD
:106CC00002F0D3F8BDE8F88F4C0C00200802002039
:106CD0009C070020800D0020FEB5114801F02CFD1E
:106CE00006460F4801F02BFD10EE100A07F076F96A
:106CF00004460D460A4801F028FD10EE100A07F080
:106D00006DF941EC100B8DE8700053EC102B05A0D1
:106D1000F9F7A2FBBDE8FE409FED120A06F0CABAE1
:106D2000800D0020204D656368616E6963616C2091
:106D3000416E676C653A2020256620202020456C36
:106D4000656374726963616C20416E676C653A209B
:106D5000202566202020205261773A202025640AD1
:106D60000D0000006F12833A70EEC00A01EE100AA7
:106D700001208840B8EEC11A401E21EE201A00EE14
:106D8000900AF8EEE01AC1EE210A30EE800A704750
:106D9000034A52F8200000EB810090ED000A704792
:106DA000C80100209FED040B80ED000B9FED040A4D
:106DB00080ED040A70470000000000000000394028
:106DC000CDCCCC3D9FED204A204990ED070AD0ED77
:106DD000291A496890ED2B2AD0ED092A90ED2A1A3C
:106DE00090ED2C3AD0ED2D0A042912DBDFED183A94
:106DF000C0EE234A31EEE40AC2EEA31A20EE020AE4
:106E000031EE611A03EE010A70EE200A80EEA30A49
:106E100011E0F2EE083AC0EE234A31EEE40AC2EE87
:106E2000A31A20EE020A31EE611A03EE010A70EE97
:106E3000200A80EEA30ADFED070A20EE200A80ED8B
:106E4000220A80ED214A70470000000090030020D4
:106E500048E192417B14624110B51D4C002120682D
:106E600001F0EAFD1BA0F9F7F7FA1CA0F9F7F4FA14
:106E70000A2006F030FA1DA0F9F7EEFA0A2006F013
:106E80002AFA1FA0F9F7E8FA0A2006F024FA23A04C
:106E9000F9F7E2FA0A2006F01EFA24A0F9F7DCFA64
:106EA0000A2006F018FA27A0F9F7D6FA0A2006F009
:106EB00012FA2BA0F9F7D0FA0A2006F00CFA2E49A4
:106EC0000020C8600021606801F0B6FD10BD000020
:106ED0009C0700200A0D0A0D0A0D000020436F6D6B
:106EE0006D616E64733A0A0D00000000206D202D64
:106EF000204D6F746F72204D6F64650A0D000000A5
:106F00002063202D2043616C6962726174652045A5
:106F10006E636F6465720A0D000000002073202DFF
:106F20002053657475700A0D000000002065202D47
:106F300020446973706C617920456E636F6465727B
:106F40000A0D0000207A202D20536574205A6572A6
:106F50006F20506F736974696F6E0A0D0000000036
:106F600020657363202D204578697420746F204D4F
:106F7000656E750A0D000000080200202DE9F05F23
:106F80002DED028B0026A94DA94F05F5807805F659
:106F9000BC0A0124A7F110099FEDA68A37E15046EB
:106FA00002F0F6F900F0FF0BBBF11B0F11D1C9F88D
:106FB0000860C9F80C4089F8016089F800609E48B3
:106FC0000021406801F038FD00203E54401C082894
:106FD000FBDBD9F8080060B1D9F80800042868D0B4
:106FE000D9F80800052878D0D9F808000228D5D1AA
:106FF00004E1BBF16D0F13D006DCBBF1630F0AD0C7
:10700000BBF1650FCAD111E0BBF1730F14D0BBF116
:107010007A0FC3D116E0C9F80840C9F80C40F6E071
:107020000220C9F80800C9F80C40F0E00520C9F8B2
:107030000800C9F80C40EAE00420C9F80800C9F8C3
:107040000C40E4E0B0EE480A7C4801F072FB9FED92
:107050007C0A7A4801F08AFB142006F03CF9774854
:1070600001F073FB85ED010A73480C3801F032FB27
:1070700018B971480C3801F0F7FA6F480C3801F074
:1070800001FB6D480C3801F0F7FA6B480C3801F041
:10709000C5FA95ED010A694801F04BFB686806F0F6
:1070A0009DFF41EC100B67A053EC102BF9F7D4F9BE
:1070B000ADE0BBF10D0F11D099F8010000286FD0A1
:1070C000384400F801BC5946504602F075F999F869
:1070D0000100401C89F8010099E087E099F8001050
:1070E0006C2934D006DC622911D0662944D0692984
:1070F00004D120E06D2924D0742952D05BA0F9F787
:10710000ABF94D480C3801F0E5FAA0B353E048481C
:1071100002F09EFD51EC100B06F014FA00EE100A7E
:10712000DFED5C0A00F094FBDFED5B0A00F088FB0A
:1071300085ED020AE5E73E48F9F734FBC8F804009C
:10714000DFE73B48F9F72EFBC8F80800D9E73848D5
:1071500002F07EFD51EC100B06F0F4F900EE100A7F
:10716000DFED4E0A00F074FBF0EE480A00F068FB19
:1071700085ED030AC5E71AE02D4802F069FD51ECE0
:10718000100B06F0DFF900EE100ADFED450A00F003
:107190005FFBF0EE480A00F053FB85ED060AB0E70E
:1071A00021E02348F9F7FEFAC8F80C00A9E72248C5
:1071B0000C3801F059FA20480C3801F063FA1E48E7
:1071C0000C3801F059FA1C480C3801F027FAC9F8BC
:1071D0000C4089F8016089F8006000203E54401C92
:1071E0000828FBDB13E089F800B06CE7BBF11B0F4C
:1071F0000DD1C9F80860C9F80C4008E0BBF1640F74
:1072000005D10D48143080ED228A80ED218A254871
:1072100001F0F4FC08B1012000E0002000287FF418
:10722000BEAEBDEC028BBDE8F09F000090020020D6
:1072300018020020000000009C070020800D0020A4
:1072400017B7D1370A0D20205361766564206E652B
:1072500077207A65726F20706F736974696F6E3A08
:107260002020252E34660A0D0A0D00000A0D202765
:10727000256327204E6F7420612076616C6964203D
:10728000636F6D6D616E64207072656669780A0D5A
:107290000A0D00000000FA440000C842000020422D
:1072A00000000442900A00207FB53BA0F9F7D4F813
:1072B0000A2006F010F840A043A1CDE9001043A336
:1072C00043A246A147A0F9F7C7F80A2006F003F841
:1072D0004C4CA06806F082FECDE902014AA0009065
:1072E0004BA34CA251A152A0F9F7B6F80A2005F021
:1072F000F2FF04F5807556A1686856A3CDE9001029
:1073000055A257A157A0F9F7A7F80A2005F0E3FF07
:10731000A8684FA1CDE900104EA35AA25DA151A0CB
:10732000F9F79AF80A2005F0D6FFE06806F056FE55
:10733000CDE9020158A0009059A35AA25EA13CA039
:10734000F9F78AF80A2005F0C6FFA06906F046FEA4
:10735000CDE9020159A0009051A35AA25FA134A027
:10736000F9F77AF80A2005F0B6FFE8685CA1CDE9E4
:10737000001038A35CA264A164A0F9F76DF80A209C
:1073800005F0A9FF6848F9F767F80A2005F0A3FFA0
:1073900066490020C8607FBD0A0D0A0D20436F6E4C
:1073A00066696775726174696F6E204F7074696F7A
:1073B0006E73200A0D0A0A0063757272656E74207E
:1073C00076616C75650000006D6178006D696E0016
:1073D000706172616D65746572000000707265663F
:1073E0006978000020252D347320252D333173203A
:1073F000252D357320252D367320252D32730A0D4A
:107400000A0D0000900200203230303000000000F1
:107410003130300043757272656E742042616E6463
:1074200077696474682028487A29000062000000A7
:1074300020252D347320252D33317320252D3573D0
:1074400020252D367320252E31660A0D0000000000
:10745000313237003000000043414E2049440000E3
:107460006900000020252D347320252D3331732031
:10747000252D357320252D367320252D35690A0DD0
:107480000000000043414E204D6173746572204935
:10749000440000006D00000034302E300000000079
:1074A000302E300043757272656E74204C696D69C0
:1074B00074202841290000006C00000033332E3076
:1074C0000000000046572043757272656E74204CB0
:1074D000696D6974202841290000000066000000E1
:1074E000313030303030000043414E2054696D65FA
:1074F0006F757420286379636C6573292830203D8B
:10750000206E6F6E652900007400000020252D3468
:107510007320252D33317320252D357320252D36ED
:10752000732025640A0D00000CF6000808020020F4
:1075300070B5114E0121306801F07EFA06F1140495
:107540000025C4F8A050204601F00CF89FED0B0A6E
:1075500005F0B0FE9FED0A0A84ED210A84ED220AAF
:107560000121706801F068FA0648C560BDE8704006
:1075700005A0F8F771BF00009C0700206F12833A46
:1075800000000000080200200A0D20456E7465729C
:10759000696E67204D6F746F72204D6F6465200AAD
:1075A0000D0000000907090E002804DB00F1E020AF
:1075B00080F80014704700F00F0000F1E02080F820
:1075C000141D704770B504460D46F8F7B7FE6242C9
:1075D0000260034A002042F82500401E70BD0000F2
:1075E000741100209FED160A80ED1A0A80ED1B0A27
:1075F00014499FED150AD1ED020A60EE800AC0ED34
:10760000180AD1ED020A20EE800A80ED190A91EDE8
:10761000020ADFED0E0ADFED0E1A20EE200AF0EE70
:10762000000A20EE201AB7EE000AF0EE400A41EE02
:10763000610A80EE201A30EE410A80ED1C0A704784
:1076400077BE1F3D900200206F12833A17B7D137E3
:10765000DB0F494070B504462DED048BF0EE409AE7
:10766000F0EE608AB0EE419A0D461646B0EE690A19
:1076700002F070F9B0EE408AB0EE690A02F072F9D9
:1076800068EE280A40EE490AC4ED000A9FED121A7E
:10769000F6EE000A60EE011A48EE601A61EEA82AC2
:1076A000DFED0E1A28EE212A00EE602A42EE492A6A
:1076B000C5ED002A60EE211A28EE011A48EE601A84
:1076C00000EE601A61EEA81A41EE491AC6ED001AE2
:1076D000BDEC048B70BD0000D7B35D3FD7B35DBF79
:1076E00070B505462DED068BB0EE40AAF0EE608A2F
:1076F000B0EE419AF0EE619A0C46B0EE4A0A02F002
:1077000029F9B0EE408AB0EE4A0A02F02BF9DFED1B
:10771000182AB6EE002ADFED171A60EE220A48EEAC
:10772000420A20EE891A60EE210A08EE281A48EE75
:10773000420A00EEA91ADFED100A21EE201A85EDAB
:10774000001A68EE211AB1EE401A21EE281A40EE16
:10775000421A01EEC91A68EE221A40EE421A01EEF0
:10776000E91A21EE200A84ED000ABDEC068B70BDFB
:10777000D7B35D3FD7B35DBFABAA2A3F70B5044610
:107780002DED088BF0EE408AB0EE60AAF0EE419A43
:10779000B0EE61BA0D461646B0EE4B1AF0EE690A2D
:1077A000B0EE4A0A00F074F8B0EE408AB0EE4B1A20
:1077B000F0EE690AB0EE4A0A00F052F838EE000A1C
:1077C000B6EE009A20EE098A7AEE480A9FED1AAAD0
:1077D00080EEA80AF0EE4A0A30EE090A00F030F80E
:1077E000DFED16AAF0EE6A0A00F032F884ED000A26
:1077F00079EEC80A80EEA80AF0EE4A0A30EE090ACD
:1078000000F01EF8F0EE6A0A00F022F885ED000A9A
:107810003BEE480AC0EE280A30EE890AF0EE4A0A2A
:1078200000F00EF8F0EE6A0A00F012F886ED000A99
:10783000BDEC088B70BD0000CDCC4C3DD7A3703F94
:10784000B4EEE00AF1EE10FA01DCB0EE600A704727
:10785000B4EEE00AF1EE10FA01D3B0EE600A704720
:10786000B4EEE00AF1EE10FA07DDB4EEC10AF1EE73
:1078700010FA01DCB0EE410A7047F4EEC10AF1EEF5
:1078800010FA02DDB0EE600A7047B0EE410A7047B0
:10789000B4EEE00AF1EE10FA07D2B4EEC10AF1EE4E
:1078A00010FA01D3B0EE410A7047F4EEC10AF1EECE
:1078B00010FA02D2B0EE600A7047B0EE410A70478B
:1078C0002648016841F480610160016841F400715B
:1078D0000160016841F4807101602048143801683A
:1078E00041F004010160016841F0010101601C48A0
:1078F0001621C0F80413816841F0010181600A215A
:107900004163D0F8081141F00101C0F808110B21C2
:10791000C0F83411D0F8081241F00101C0F8081283
:107920000021C0F834120F490A6842F00F020A60C1
:107930000D490A6842F003020A60C16841F0010182
:10794000C160D0F80C1141F00801C0F80C11D0F85A
:10795000101241F00101C0F8101270474438024083
:1079600000200140000802400000024070B50446BB
:107970003148016841F0040101602F48103001686E
:1079800041F001010160001D016841F00101016049
:107990002A48016841F4806101601C2002F03EF831
:1079A00010B10B2101F052F82060482002F036F8A7
:1079B0004FF0FF3518B12A460A2101F09FFFA06061
:1079C000482002F02BF818B12A46092101F096FF51
:1079D000E060482002F022F818B12A46082101F0A0
:1079E0008DFF2061164A4FF000700021106015488D
:1079F000C26842F00102C26040220260026842F0A6
:107A000002020260026842F080020260026B42F0F1
:107A100001020263426942F001024261816240F662
:107A2000CA01C162016A61F008010162016841F0A6
:107A30000101016070BD00003038024000080240C2
:107A400000E100E0000001402DE9FF4F2DED0C8B1F
:107A5000ADF50F7D04461546F6A0F8F7FDFCDFED09
:107A6000FE9A4FF46067384601F0BEFFB0F1000A9D
:107A700004D039465046F9F71FF801E04FF0000AEC
:107A8000384601F0B1FFB0F1000B04D0394658463A
:107A9000F9F712F801E04FF0000B4FF40079484677
:107AA00001F0A2FF061E04D049463046F9F704F85B
:107AB00000E000268D96384601F096FFB0F10008F0
:107AC00004D039464046F8F7F7FF01E04FF00008D0
:107AD000384601F089FF061E04D039463046F8F7D3
:107AE000EBFF00E000268A964FF400710AA8F8F731
:107AF000E3FF20688D99826A20469047384601F05E
:107B000073FF061E04D039463046F8F7D5FF00E073
:107B100000268C96384601F067FF061E04D03946D1
:107B20003046F8F7C9FF00E000268B96DFEDCBCAA0
:107B3000B0EE6C8ADFEDCADACDED07CAB6EE00DA38
:107B40008DED04DA07AA08A909A8B0EE6C1AF0EEC8
:107B50006D0AB0EE480AFFF77DFD04AA05A906A844
:107B6000DDED071A9DED081ADDED090AB7EE000AF2
:107B7000FFF704FE0027BB4EF7EE008A9FEDBA9A8E
:107B8000DFF8E8929DED060A38EEC00A20EE090AF9
:107B9000BCEEC00A10EE100AC9F83C003068C0B153
:107BA0009DED050A38EEC00A20EE090ABCEEC00AB7
:107BB00010EE100AC9F838009DED040A38EEC00A2C
:107BC00020EE090ABCEEC00A10EE100AC9F8340013
:107BD00017E09DED050A38EEC00A20EE090ABCEE5A
:107BE000C00A10EE100AC9F834009DED040A38EE00
:107BF000C00A20EE090ABCEEC00A10EE100AC9F84D
:107C00003800642005F067FB7F1C49F6404087423E
:107C1000B8DB20689FED96CA0168B0EE4C0A20469A
:107C20008847D5F880106868401A00EE100AF8EE10
:107C3000C00A9FED900A20EE801A85ED041AE96FC4
:107C40002868401A00EE900AF8EEE00A60EE801A0A
:107C5000C5ED051AB1EE410A70EE610AC5ED030AE1
:107C600005F1340195ED080A081FFFF739FD95ED80
:107C70000C0A022001F09EFEB0EE40AA95ED0D0A1E
:107C8000022001F097FE3AEE000A01F099FEF0EEB4
:107C900040BA79A0F8F7E0FB0025B1EE0CBA002657
:107CA00038EE298A07AA08A909A8B0EE6C1AF0EEE6
:107CB0006D0AB0EE480AFFF7CDFC04AA05A906A894
:107CC000DDED071A9DED081ADDED090AB7EE000A91
:107CD000FFF754FD9DED060A38EEC00A20EE090AB2
:107CE000BCEEC00A10EE100AC9F83C005D480068FE
:107CF000C0B19DED050A38EEC00A20EE090ABCEEBF
:107D0000C00A10EE100AC9F838009DED040A38EEDA
:107D1000C00A20EE090ABCEEC00A10EE100AC9F82B
:107D2000340017E09DED050A38EEC00A20EE090A7E
:107D3000BCEEC00A10EE100AC9F834009DED040A2A
:107D400038EEC00A20EE090ABCEEC00A10EE100A96
:107D5000C9F83800642005F0BEFA2068B0EE4C0A7D
:107D6000016820468847761C282E99DB2068B0EEF3
:107D70004C0A016820468847206881682046884769
:107D8000B0EE40AAC8EE0BAA0AEB85003AEECA0A8A
:107D900080ED000A2068C169204688478C9941F827
:107DA00025008E901AEE100A06F018F906460F46C6
:107DB0001AEE900A06F012F941EC110B8E9802901F
:107DC00053EC112BCDE9006737A0F8F745FB6D1C8C
:107DD000B5F5607FFFF663AF00270025DFF88490DC
:107DE000224E38EE698A07AA08A909A8B0EE6C1AD3
:107DF000F0EE6D0AB0EE480AFFF72CFC04AA05A9C4
:107E000006A8DDED071A9DED081ADDED090AB7EEAB
:107E1000000AFFF7B3FC9DED060A38EEC00A20EE1B
:107E2000090ABCEEC00A10EE100AF063D9F800008F
:107E300046E000005374617274696E672063616C80
:107E40006962726174696F6E2070726F63656475C8
:107E500072650A0D000000007CD9A03A0000000005
:107E60009A99193E9003002000A08C440000014024
:107E700017B7D1370000A53C2043757272656E7448
:107E800020416E676C65203A20526F746F722041FA
:107E90006E676C65203A2052617720456E636F648F
:107EA0006572200A0D0A0D00252E34660920202057
:107EB000252E3466092020202025640D0A000000AC
:107EC000B0B19DED050A38EEC00A20EE090ABCEEFD
:107ED000C00A10EE100AB0639DED040A38EEC00A25
:107EE00020EE090ABCEEC00A10EE100A706315E01D
:107EF0009DED050A38EEC00A20EE090ABCEEC00A64
:107F000010EE100A70639DED040A38EEC00A20EEF0
:107F1000090ABCEEC00A10EE100AB063642005F036
:107F2000DAF92068B0EE4C0A0168204688476D1CDB
:107F3000282DFFF656AF2068B0EE4C0A01682046A7
:107F400088472068816820468847B0EE40AAC8EE7E
:107F50000BAA0BEB87003AEECA0A80ED000A2068F4
:107F6000C169204688478B99814641F827001AEE5F
:107F7000100A06F033F805460E461AEE900A06F08F
:107F80002DF841EC100B53EC102BAFF2E4008DE810
:107F90006002F8F761FA7F1C4FF46076B742FFF693
:107FA0001CAFB0EE6C0A0020DFED7C0A0AEB80010A
:107FB00091ED001AA0F27F31ABEB8101D1ED001AF7
:107FC00071EE211A81EEA01A31EE000A401CB04277
:107FD000ECDB20EE0B0ADFED728AF0EE680A01F0AE
:107FE00053FEB0EE409A2068B0EE490A016A20467E
:107FF00088476C4880ED009A00200AEB800191EDE3
:10800000000AA0F27F31ABEB8101D1ED000A08EB51
:10801000800130EE200A20EE0D0A81ED000A401C9E
:10802000B042EADB00259FED608A00218A9800EBD0
:10803000850748194038002802DA00F5607003E02F
:10804000B04201DBA0F5607008EB800097ED000AFC
:1080500090ED001A01EE080A87ED000A491C8029FC
:10806000E7DB802D12DA08EB8500D7ED000A90EDF2
:10807000000A30EE600A20EE0B0A02F0F7F920EE5B
:108080002B0A0AA800EB850080ED000AD7ED000A54
:108090009FED461A80EE810A70EE2CCA6D1CB54227
:1080A000C3DB8C9801688B98D0F8FC0D084400EB7A
:1080B000D07047103EA0F8F7CFF949A0F8F7CCF9F7
:1080C00000269FED548A06EBE7157F2D00DD803DED
:1080D0002068416A2046884700EE100A8A98C6EB5D
:1080E000C60100EB8100B8EEC00AD0ED000A8D9801
:1080F00070EEEC0A20EE200AC0EE280ABDEEE00A7F
:1081000010EE103A40F825302A46314642A0F8F7E2
:10811000A3F9B0EE480A05F0CDF8761C802ED2DB2C
:1081200020688D99826A204690474FF400723F483C
:108130008D99F8F787FC19EE100A05F04FFF41EC16
:10814000100B3BA053EC102BF8F786F99E9800F02B
:10815000C1FA10B99E9800F087FA9E9800F092FA42
:108160009E9800F089FA8A9801F038FC404601F0A8
:1081700035FC504601F032FC584601F02FFC8D983A
:1081800001F02CFC8C9801F029FC8B9801F026FC66
:108190000DF50F7DBDEC0C8BBDE8FF8F0000E044BA
:1081A000DB0FC940900200200000003C000060444A
:1081B0000A0D20456E636F646572206E6F6E2D6CC4
:1081C000696E65617269747920636F6D70656E7335
:1081D0006174696F6E207461626C650D0A00000045
:1081E0002053616D706C65204E756D626572203A2A
:1081F000204C6F6F6B757020496E646578203A2053
:108200004C6F6F6B75702056616C75650A0D0A0DA9
:10821000000000006F12833A2564092020202564A5
:10822000092020202564200D0A000000A40300205E
:108230000A0D456E636F64657220456C65637472E8
:108240006963616C204F666673657420287261648F
:10825000292025660D0A000010B5174C0121206861
:1082600000F0EAFB0121606800F0E6FBA4F10C03DA
:10827000214603F1200201F2E450FEF7C7F9A4F110
:108280000C03214603F1200201F2E450FFF7DCFB6E
:108290000021606800F0D0FB9FED080A05F00AF8A5
:1082A00007A0F8F7D9F80021206800F0C5FB1349B2
:1082B0000020C86010BD00009C070020CDCC4C3EC3
:1082C0000A0D2043616C6962726174696F6E20638C
:1082D0006F6D706C6574652E20205072657373200D
:1082E000276573632720746F2072657475726E2022
:1082F000746F206D656E750A0D0000000802002085
:1083000070B504462DED068BB0EE40AAD4F894006B
:10831000401CC4F89400884E9FED880AD4F8801061
:108320006068E26F401A21683368891A002B10D008
:1083300000EE900AF8EEE00A60EE800AC4ED040A4E
:1083400000EE901AF8EEE00A20EE800A84ED050AAD
:108350000FE000EE901AF8EEE00A60EE800AC4ED3D
:10836000040A00EE900AF8EEE00A20EE800A84ED9E
:10837000050A94ED041AD4ED051AB1EE410A70EE27
:10838000610AC4ED030A04F1340194ED080A081FE0
:10839000FFF7A6F994ED0E0ADFED690A60EE200AF8
:1083A00094ED0D0A9FED671A40EE010AC4ED0E0A26
:1083B000D4ED210A94ED0C1A30EEC18AD4ED220AD4
:1083C00070EEC08A94ED1D0A30EE080A84ED1D0A95
:1083D00094ED1E0A30EE280A84ED1E0A5A4D95EDE2
:1083E000020ADFED5A9A20EE290A9FED599A60EEB3
:1083F000090A9FED581A04F17801081F81EE200A3E
:10840000FDF7CEFF95ED020A94ED1D1A20EE290A24
:1084100060EE090A60EE810A40EE080AC4ED100A17
:1084200095ED020A94ED1E1A20EE290A60EE090A63
:1084300060EE810A40EE280AC4ED110A94ED060AA6
:10844000DFED450A04F14401081F20EE200AFDF784
:10845000A7FF04F15C02111F94ED111AD4ED100A6C
:1084600094ED080A081FFFF7F5F804F15002111FF8
:10847000D4ED171A94ED161AD4ED150A94ED060AE8
:10848000081FFFF77BF99FED350A35483168F7EE95
:10849000000A09B394ED121A30EEC11A21EE001A47
:1084A000BCEEC11A11EE101AC16394ED131A30EE2E
:1084B000C11A21EE001ABCEEC11A11EE101A816326
:1084C00094ED141A70EEC10A20EE800ABCEEC00AC8
:1084D00010EE101A416320E094ED121A30EEC11A2A
:1084E00021EE001ABCEEC11A11EE101AC16394ED10
:1084F000131A30EEC11A21EE001ABCEEC11A11EEA9
:10850000101A416394ED141A70EEC10A20EE800A2D
:10851000BCEEC00A10EE101A816384ED08AAD4F8EC
:10852000940049F64041884202DD0020C4F89400DE
:10853000BDEC068B70BD0000900300200000A53C40
:108540003333733FCDCC4C3D900200206F12833A01
:1085500077BE1F3D6666E6419A99993F00A00C459B
:10856000000001400D4940F23222CA634A638A6327
:108570009FED0B0A80ED210A80ED220A80ED0C0AA6
:1085800080ED0D0A80ED0E0A80ED1E0A80ED1D0AB9
:1085900080ED110A80ED100A7047000000000140D4
:1085A0000000000010B50446FBF78EF9F120FBF740
:1085B00009F90549606851F820000221FBF708F924
:1085C0000120207210BD0000E801002010B5044613
:1085D000FBF754F90021217210BD82B08DED010A24
:1085E000006800EB8100019902B0FBF74FB982B03F
:1085F0000192006800EB8100019902B0FBF746B9D7
:10860000072900DD07214160034A52F8211001606B
:108610000021017270470000C80100202DE9F041DF
:10862000054600240E4E21466868FDF7E7FF46F830
:108630002400641CFF2CF6DD0A4E4FF4A0770AE0FC
:1086400021466868FEF7A4FBA4F5807006EB800065
:1086500080ED000A641CBC42F2DBBDE8F081000042
:10866000900300209002002010B504462068FFF718
:1086700099FF0120207210BD002101720068FFF7F0
:10868000A5BF00002DE9F041054600240F4E21460C
:10869000286856F82420FFF7AAFF641CFF2CF6DD9B
:1086A0000B4E4FF4A0770AE0A4F5807006EB800033
:1086B000214690ED000A2868FFF78FFF641CBC423A
:1086C000F2DB00202872BDE8F0810000900300205A
:1086D00090020020007A704770B504460D460C20C9
:1086E00001F09CF910B12946FFF78AFF2060656010
:1086F00000202072204670BD10B504460020C4F84A
:10870000D8009FED080A84ED050A20689FED060A4F
:10871000016820468847206841682046884784EDE4
:10872000050A10BD000000006F12833980ED030AB6
:10873000704780ED050A7047D0F8D000704790ED83
:10874000020A704790ED320A704790ED040A7047B4
:1087500090ED310A704790ED040AD0ED050A30EE35
:10876000200A7047D0F8D4007047000070B5044666
:108770002DED028BB0EE408A764D686920F4004002
:108780006861D0346069E169026812689047C0F39B
:108790000D002060686940F40040686154F8D00919
:1087A000C11104EB8101D1F8F020012101EBE011AE
:1087B000CB1701EB536323F07F03C91A04EB81014C
:1087C000D1F8F01020F07F03C31A891A4B4302EB53
:1087D000E3110144D4F8DC20D4F8D4008A1A00EB69
:1087E000D073B2EB630F05DDD4F8D820521EC4F865
:1087F000D8200AE0434203EBD373B2EB630F04DAF1
:10880000D4F8D820521CC4F8D8206434A16714EDE1
:10881000131A04ED121A00EE101AB8EEC00ADFEDBA
:108820004E1A60EE210A00EE100AB8EEC02A80EE61
:10883000820A04ED130A626F424300EE902AB8EEFA
:10884000E02A00EE901AF8EEE00A72EE200A20EE1E
:10885000A12A00EE900AF8EEE02AC2EE220A44EDC8
:10886000180A14ED142A70EEC20A44ED150A00EE3F
:10887000900AE26FF8EEE00A4A4392FBF0F181EED3
:10888000A02A00FB112000EE900AF8EEE02A54ED39
:10889000160A643C42EE220AF5EEC00AF1EE10FA26
:1088A00002D270EEA10A06E010EE900A2B4988422F
:1088B00001DD70EEE10AC4ED020A30EE411A11EE5C
:1088C000100A10F17F5F04D931EE210AC0EE081AB8
:1088D0000BE011EE100A2249884204DD31EE610AF4
:1088E000C0EE081A01E0C1EE081A2821F0EE610A74
:1088F00001200CE00A1A531E04EB830304EB8202EE
:1089000093ED090A82ED090A70EE200A401C8842A4
:10891000F0DBC4ED091A00EE101AB8EEC01A80EEB2
:10892000810A84ED310AD4ED380AF8EEE00A20EE2F
:10893000200A84ED320AD4ED330A9FED0A1A60EE64
:10894000810A9FED091A40EE010AC4ED330ABDEC1D
:10895000028B70BD00000240DB0FC940DB0FC94035
:1089600000004040A4707D3F0AD7233C4FF40072C2
:10897000F030F8F767B80000F0B504462DED028B33
:1089800081B0B0EE408A24482060C4F8D410C4F806
:10899000E02084ED038A0026C4F8D860DC2001F0D2
:1089A0003DF830B1711E00912A232B222C2100F0BA
:1089B00063FCC4F8E4000122102100F0FFFB17491A
:1089C000D4F8E40000F03AFC1C2001F027F848B18C
:1089D00005460F271C21F8F76FF83946284602F0A4
:1089E00089FE00E000257034A567A9682868086042
:1089F0004FF6FF70E06704ED178A9FED090A04ED5A
:108A0000160A04ED150A04ED140A2666703C01B03E
:108A10002046BDEC028BF0BDA4F3000840787D0138
:108A2000000000000021016041608160C1600822F7
:108A300002738173417370470268002902D0806815
:108A400002607047C06811040160704770B5044649
:108A50000D461C212046F8F72FF82946204602F043
:108A600049FE204670BD70B50546012228680021E8
:108A70000369284698470446002C01DA204670BD59
:108A8000286802220021036928469847064628687C
:108A900000222146036928469847304670BD0020D1
:108AA00070474C3003F0B4BD10B50C4621464C3035
:108AB00003F0D4FF204610BD10B500EB0110983034
:108AC000044604F038FD00280DD0E06828B940F2D3
:108AD0000E220549054803F0A3F8E0680168204626
:108AE000BDE81040084710BDEFF50008EAF50008A2
:108AF0002DE9F041054605F14C0003F0CBFE06469A
:108B000006F47C57002405F13C00804604F00CFD7F
:108B100028B127B101243946404604F0EDFC06F0A7
:108B2000FC0605F12C00054604F0FEFC28B126B138
:108B300001243146284604F0DFFC002C03D0BDE8B8
:108B4000F04104F01DB8BDE8F08170B504460D4653
:108B50002068026820469047294604F14C0003F043
:108B600053FDC4F8B850206841682046BDE8704005
:108B7000084770472DE9FF41054688461746286893
:108B800001682846884702F079FC404604F0D3FC8F
:108B900005EB071405F14C06983478B1204604F033
:108BA000CAFC08B903F0BCFF2046414604F068FC4B
:108BB00001223946304603F0EBFE15E0204604F072
:108BC000BAFC08B103F0DCFF0021684604F03EFC6B
:108BD0000146204604F054FC684604F047FC00229D
:108BE0003946304603F0D4FE02F098FC286841680C
:108BF00004B02846BDE8F0410847704770B5044608
:108C0000206801682046884704F14C0003F03AFFD1
:108C100005462068416820468847284670BD000008
:108C20002DE9FF4104460E4617469846304820601D
:108C3000201D3049CA688968CDE902120021029AD4
:108C40004260039A82602C4AC26048F207020261C5
:108C500081614461011DC16128490162BFF36F8FC9
:108C6000BFF34F8F002084F8280084F829000021EA
:108C700004F12C0004F0ACFB2C3800213C3004F053
:108C8000A7FBA0F13C044C211030F7F715FF02239D
:108C900010221B4904F1980000F049FFA0F198054B
:108CA000C5F8B88000240021684604F0CFFB0146D7
:108CB00005EB0410983004F0E3FB684604F0D6FBA3
:108CC000641C022CEFD305F14C003A4631460446B1
:108CD00003F0B0FC2046D5F8B81003F095FC2A4606
:108CE0000849204603F0CAFD04B02846BDE8F081DB
:108CF00028F40008F4F0000801A090E8A5D40008CA
:108D000071370008B98A00087FB505461148286008
:108D100000240021684604F099FB0146E2B228468F
:108D2000FFF728FF684604F0A1FB641C022CF0DB6F
:108D300002231022084905F19800F7F737FF05F1E3
:108D40003C0004F063FB3C382C3004F05FFB2C3813
:108D500004B070BD28F400086DD4000870B5064654
:108D600001C93060086870604868B0608868F06069
:108D7000C868306108690C467061351D143106F110
:108D8000180004F04DFB94F8240085F824003046C8
:108D900070BD7CB504463A208DF80000CDF8014046
:108DA0006846F7F78EFD05463DB12068C16920464B
:108DB000884710B1284600F023F828467CBD10B53E
:108DC0000021143004F004FB143810BD10B5044623
:108DD000094804F0BDFA0021084A002352F8210096
:108DE000A04201D142F82130491C1029F6D3024893
:108DF00004F0AEFA10BD00005802002074110020EB
:108E00000021F7F785BD000010B500EB01105030D0
:108E1000044604F090FB00280DD0E06828B940F229
:108E20000E220549054802F0FBFEE0680168204675
:108E3000BDE81040084710BDEFF50008EAF500084E
:108E4000704770B504460D46164620688368204674
:108E5000984732462946201D02F0CCF90546206885
:108E6000C16820468847284670BD0FB47CB50446CB
:108E70002068816820468847002001900A98009069
:108E800007A9201D0EC902F063FA05462068C168D3
:108E90002046884728467CBC5DF814FB2DE9FF413D
:108EA00005460F4616462868816828468847384692
:108EB00004F041FB05EB0614503478B1204604F071
:108EC0003AFB08B903F02CFE2046394604F0D8FAE4
:108ED00001223146281D02F01FF915E0204604F05A
:108EE0002AFB08B103F04CFE0021684604F0AEFAFC
:108EF0000146204604F0C4FA684604F0B7FA00229E
:108F00003146281D02F008F92868C16804B02846D7
:108F1000BDE8F04108472DE9F8430446DDF820900C
:108F20000E4617469846206885682046A84743465F
:108F30003A463146201DCDF8009001F0D1FE05469D
:108F40002068C168204688472846BDE8F8837047F6
:108F50002DE9FF4104460E46174698461748206003
:108F60004C21201DF7F7A8FD09231022144904F114
:108F7000500000F0DCFDA0F15005002400216846FF
:108F800004F064FA014605EB0410503004F078FA5E
:108F9000684604F06BFA641C092CEFD343463A464A
:108FA0003146281D01F06CFF2A460649281D02F0B3
:108FB000A9F804B02846BDE8F081000040F400089C
:108FC00067370008098E00087FB5054610482860FD
:108FD00000240021684604F039FA0146E2B228462E
:108FE000FFF75CFF684604F041FA641C092CF0DBD3
:108FF000281D02F079F8281D01F0A4FE0923102293
:10900000044905F15000F7F7D1FD04B0284670BDC2
:1090100040F400086DD400082DE9F04F85B00446F7
:10902000DDE910BADDE90E890D4616461F4603F04C
:1090300077FD204600F0ECF8594604F1B80004F042
:10904000EFF90F4803C8CDE903010398C4F898006D
:109050000498C4F89C0004F194000C3040F0010026
:1090600094F8C8103B46CDE903A102903246CDE901
:1090700000892946201D03F097FF05B0BDE8F08F59
:1090800004F100087FB5D1E9035291F8244001F1C1
:109090001403CDE90054CDE902320EC9FFF7BCFF3D
:1090A0007FBD00002DE9F0410546281D03F0F6FEC6
:1090B0000446D5F8C40008B1012000E00020A8B1A2
:1090C00014F00E0F12D003F05BFD05F1B80604F0AA
:1090D0000E07F06828B940F24D420949094802F0EC
:1090E0009FFDF068394602683046904706480442C2
:1090F00004D02846BDE8F04100F008B8BDE8F08192
:10910000CDF50008C8F500080E000040F0B58BB0A2
:10911000684604F033F9194C6F46002502F0AEF9A9
:1091200002F0ACF9A06DE16D884202D194F86000C4
:1091300020B1002602F0F2F916B112E00126F9E79B
:10914000E16D481CE0652C2001FB00413846FFF72B
:1091500005FEE06D00F00100E065002084F860008D
:10916000012502F0DBF925B100986946091DFFF7DA
:1091700089FF684604F00FF90BB0F0BD0015002020
:1091800010B5024804F0E4F810BD000070020020A1
:1091900070B504460D4620688268204690472046F8
:1091A00000F036F82946201D03F05AFF05462068D6
:1091B000C16820468847284670BD000070B5044647
:1091C0000E46154620688368204698473146C4F805
:1091D000CC602A46C4F8D05008480068A04204D1A8
:1091E0000023201D03F0F6FC02E0204600F010F8FA
:1091F0002068C1682046BDE8704008476C02002026
:1092000010B5024804F0A4F810BD00007002002060
:1092100070B50446084D2868A0420BD0D4E933123B
:109220000023201D03F0D6FC201DD4F8D41003F039
:10923000FFFC2C6070BD00006C02002070B504467D
:109240000D4620688268204690472946C4F8D450CD
:1092500008480068A04203D1201D03F0E9FC02E0A9
:109260002046FFF7D5FF2068C1682046BDE8704062
:10927000084700006C0200202DE9FC470546DDF898
:1092800028900E4617469846204828609021281DB1
:10929000F7F712FC05F194041D48C1688068CDE918
:1092A00000010020009961600199A1601949E16005
:1092B00048F207012161A0616561201DE061164847
:1092C0002062BFF36F8FBFF34F8F002105F1B8000D
:1092D00004F07EF8A0F1B804002004F8C80F0821BB
:1092E0006160A0600D48E060FF202074C83C4346E8
:1092F0003A463146201DCDF8009003F0E7FC2046A9
:10930000FFF786FF2046BDE8FC87000058F4000800
:1093100004F1000801A090E8CFD4000840420F00FB
:1093200010B5034940F8B81B04F070F8B83810BD08
:1093300058F400087047FFF7B4BBFFF7B5BB7047A0
:1093400010B51C46029BFFF76BFC2146BC3000F0B9
:10935000A3F8044940F8BC1C7C3141605C3940F8FA
:10936000BC1910BD78F4000810B5084901607C31C3
:10937000C0F8C0105C39C0F8BC10BC3000F0C0F8B8
:10938000BDE81040BC38FFF7BFBC000078F400080F
:1093900070B504462068C16C204688476069F7F7BD
:1093A0002AFA606900F091F905462068016D2046AF
:1093B0008847284670BD704770B504460D46206842
:1093C000C16C204688476069F7F715FA284661693D
:1093D00002F00CF905462068016D204688472846B2
:1093E00070BD2DE9F04105460F463C46A618286899
:1093F000C16C2846884707E02868826C2846904759
:10940000411C03D004F8010BB442F5D12868016D6A
:1094100028468847E01BBDE8F08100207047002007
:109420007047002070472DE9F04105460F463C4645
:10943000A6182868C16C2846884707E0286814F8F1
:10944000011B426C28469047401C01D0B442F5D124
:109450002868016D28468847E01BBDE8F0810020A0
:1094600070470FB470B504462068C16C2046884729
:1094700006AD6069F7F7BFF92A4660690599F6F706
:10948000E5FF05462068016D20468847284670BCE8
:109490005DF814FB7047000010B50E4A04C00022AE
:1094A00000F068F8041F0C4820605C306060002009
:1094B00060610AA1204600F033F8606110B1FFF747
:1094C0009FFC05E0F6F73AFF016805A002F05EF8A0
:1094D000204610BDDCF3000804F50008772B0000DF
:1094E00053747265616D206F626A206661696C7584
:1094F00072652C206572726E6F3D25640D0A000046
:1095000010B50446054820605C3060606069F7F77C
:1095100009FA204600F074F810BD000004F50008B8
:10952000FFF737BC007B704770B506460D46104804
:1095300003F00EFF0E48001F046811E0A06870B130
:109540002A463146F7F733FA48B9A068F7F710FA18
:10955000A84204D1064803F0FBFE204670BD6468B3
:10956000002CEBD1024803F0F3FE002070BD000098
:109570003802002070B504460D460B4820600026D6
:109580006660A5602273094803F0E2FE2DB107482A
:10959000001F01686160046000E06660034803F03A
:1095A000D7FE204670BD000070F50008380200208C
:1095B00010B5044610482060104803F0C9FEA068AA
:1095C00068B10E49091F0868A04203D160680860AD
:1095D00005E008464168A142FBD161684160074847
:1095E00003F0B6FE2046FFF79DFF10B9201FFFF7DE
:1095F000EDFB204610BD000070F500083802002089
:1096000010B5001DFFF7D4FF001F10BD10B50446B4
:10961000204600F008F820B16068002800D0001F44
:1096200010BD002010BD10B54068002805D0FFF720
:1096300079FF012803D0002010BD002010BD0120BB
:1096400010BD10B50446204600F00FF820B1606848
:10965000002800D0001F10BD002010BD4068002869
:1096600001D0012070470020704710B540680028E5
:1096700004D0FFF757FF18B1002010BD002010BD27
:10968000012010BD0068704710B50446002020601E
:10969000606008782F280DD1487858B14B1C2360A2
:1096A0000021226810782F2806D040B1491C521C96
:1096B0002260F6E7204610BD2068401C2060184656
:1096C000FFF732FF6060204610BD01F083BF00004D
:1096D00010B504461046216060600121FFF7ACF927
:1096E0000A2003F0F8FD012210212068FFF766FD33
:1096F00002492068FFF7A2FD204610BD20A1070007
:1097000010B50446042000F089F96064B4F904102F
:109710002068FCF722FE616C08602068016841F057
:10972000800101601020E06110BD000010B504460A
:109730002DED048B084604F0E4F941EC180B1A48AF
:10974000006804F0DEF953EC182B03F0E9FF41EC5C
:10975000100B84ED0A0B9FED151B51EC100B53EC15
:10976000112B03F0DDFF41EC180B84ED0C8B9FED0A
:10977000119B51EC180B53EC192B03F015FF04F05F
:1097800063F9E0639FED0D0B51EC180B53EC102BBC
:1097900004F006FA53EC192B03F006FF04F054F919
:1097A000A063BDEC048B10BD7C0200200000000013
:1097B00080842E41000000000000E03F0000000017
:1097C00000408F400068491EC1627047024608464B
:1097D0001168002807D04FF48032904200D910461B
:1097E000421E8A627047886A401C704770B5044602
:1097F0001046E56919462A46F6F7FAFD411C20464F
:10980000FFF7E4FF054629462046FFF78FFF28466D
:1098100070BD406C00680160704710B504462DEDC6
:10982000028BB0EE408AF0EE608A84ED088B204611
:1098300000F04AF804F065F953EC182B04F0B0F985
:1098400004F032F90146BDEC028B2046BDE8104021
:10985000FFF7DFBF10B504462DED028BB0EE408A56
:10986000F0EE608A94F8400000280ED0134800689B
:1098700004F047F953EC182B04F092F904F0A6FC1D
:1098800002460B462046FFF7B1FF94ED0A0B51EC60
:10989000180B53EC102B04F083F99FED091B53ECCC
:1098A000112B03F081FE04F0FFF80146BDEC028BA2
:1098B0002046BDE81040FFF785BF00007C02002075
:1098C000000000000000E03F0068C06A401C7047D4
:1098D00070B50446481C0CD0002084F84000204697
:1098E000FFF774FF054629462046FFF71FFF28466D
:1098F00070BD012084F840000021F0E72DE9F0411F
:1099000004460D4617460026267601F0B7FD294687
:10991000204602F0F1FB01F001FE66642046FFF7ED
:10992000EFFE39462046FFF7D3FF9FED060B20469A
:10993000FFF790FF9FED050B2046FFF76EFF2046D7
:10994000BDE8F0817B14AE47E17A943F000000004F
:1099500000000000DFED020A30EEC00A00F002B89D
:10996000DB0FC93FDFED0F0A01E030EE200AB5EE54
:10997000C00AF1EE10FAF8D30B4901E030EE600AAC
:1099800010EE100A8842F9DA0949DFED080A20EEE4
:10999000200ABDEEC00A10EE100A01EB800090ED27
:1099A000000A7047DB0FC940DB0FC94083F9A242B0
:1099B00048E3000800EE900AF8EEE00A00F024BA4E
:1099C00000F01CBEBC38FFF7B5BCBC38FFF7B3BC19
:1099D000BC38FFF7B2BCBC38FFF7B1BC002801D0DF
:1099E000F6F7DFBC7047000010B5F6F7ABFC044695
:1099F00014B902A001F0CAFD204610BD4F70657277
:109A000061746F72206E65775B5D206F7574206F77
:109A100066206D656D6F72790D0A000010B5F6F75E
:109A200091FC044614B902A001F0B0FD204610BD1F
:109A30004F70657261746F72206E6577206F7574F8
:109A4000206F66206D656D6F72790D0A0000000051
:109A500003B401984100009850EAC12018BF0420C7
:109A60004A0D18BF40F0010040F2FF72B2EB515FA7
:109A700008BF40F00200012808BF052002B070476F
:109A80004100080218BF04200A0E18BF40F0010070
:109A90004FF07F4232EA010108BF40F00200012886
:109AA00008BF0520704720F00040C0F1FF40C00F04
:109AB0007047002809DB00F01F0201219140400996
:109AC000800000F1E020C0F88012704700280DDB14
:109AD00000F01F02012191404009800000F1E020C8
:109AE000C0F88011BFF34F8FBFF36F8F704700280E
:109AF0000DDB00F01F02012191404009800000F1C0
:109B0000E020C0F88011BFF34F8FBFF36F8F704715
:109B1000002809DB00F01F0201219140400980006C
:109B200000F1E020C0F800117047012070472DE9D6
:109B3000F0411C4617460E00804607D0054602E05D
:109B40002846B0473D442046641EF9D24046BDE851
:109B5000F0810020F8F7B4B830B52DED048B81B05A
:109B6000B0EE408AF0EE608A6A4651EC180B01F0C4
:109B70004BFD00989FED329B7E300090002821DC49
:109B800053EC192B51EC180B03F022FF1AD00021D3
:109B900040F608004FF00000044651EC180B03F0AB
:109BA000D1FC08EE100A40F6080004EA00014FF06C
:109BB0000000B5EEC08AF1EE10FA04BF0220F7F7FC
:109BC0005EF82DE00098FF2830DB002108464FF0BA
:109BD000000000F4400553EC192B51EC180B04F075
:109BE000DDF88CBF002401240220F7F748F89FED30
:109BF000168A4DB1002C0CBF4FF400004FF48000CA
:109C0000A84218BF9FED118A042108464FF00000BA
:109C1000002C01BFB1EE480A01B0BDEC048B30BD91
:109C2000B0EE480A01B0BDEC048B30BD51EC180B0E
:109C300003F088FC01B000EE100ABDEC048B30BDCF
:109C400000000000000000000000807FFFFF7F7F19
:109C500030B583B00446F7F70DF89FED090B0546C4
:109C60008DED000B002221466846F7F7FDFB2846E4
:109C7000F7F705F89DED000B03B030BD00000000C4
:109C8000000000000000000010B52DED028BF0EE8A
:109C9000408A18EE900AB0EE608A20F00040C0F1D1
:109CA000FF40C00F07D118EE100A20F00040C0F1AD
:109CB000FF40C00F2BD018EE101A18EE900A04F0D7
:109CC00003FA00EE100A10EE100A6FEAD05010F0FE
:109CD000FF0F04BFBDEC028B10BD18EE900A00F020
:109CE000004110EE100A00F00040814204BFBDECBC
:109CF000028B10BD18EE101A10EE100ABDEC028B8C
:109D000061F31E0000EE900A30EE600A10BD18EEFE
:109D1000900A4FF07F41B1EB400F1CBF18EE100AC4
:109D20005FEA4000C7D10120F6F7A9FFBDEC028B26
:109D3000BDE8104000F0B0BC30B540F2FF742DED2E
:109D4000048BF0EE608A18EE901A85B0B0EE408A6F
:109D50009FED2B9B05468DED008B34EA115147D0CA
:109D600053EC192B51EC180B03F032FE40D02A466D
:109D700051EC180B04F09CFA41EC180B18EE900A09
:109D80008DED008B34EA10501CD053EC192B51ECA4
:109D9000180B03F01DFE2BD10220F6F770FF00F028
:109DA0005BFC10EE901A18EE900A8DED020B8DED13
:109DB000008B61F31E0003909DED020B05B0BDEC1E
:109DC000048B30BD0220F6F75AFF00F035FC10EE90
:109DD000901A18EE900A8DED020B8DED008B61F359
:109DE0001E0003909DED020B05B0BDEC048B30BD51
:109DF00005B0B0EE480AF0EE680ABDEC048B30BD49
:109E0000000000000000000010B510EE100A2DED5B
:109E1000068BB7EE001A10EE901AB0EE418A0022BF
:109E2000A0F5000CDFEDFE9A4FF00073BCF1FE4F81
:109E30004FF07F4403EB410C80F0B481BCF1804FC4
:109E4000C0F02082F74901449FEDF73AB1F5005F79
:109E500040F2D48200F58021CB0C03F00F0101EE1B
:109E6000901AC3F307137F3BA0EBC350B8EEE12A6F
:109E700000EE100A1A44DFEDED2AF0EE411A42EE30
:109E8000221AF0EE613A70EE232A30EE632A12EEC7
:109E9000900A00F500606FF30B0001EE900A73EE7C
:109EA000E13A33EE804AC1EE223A22EE230A10EE66
:109EB000100A00F500606FF30B0000EE100A00EED0
:109EC000612A00EE442A62EE232A70EE221A21EE65
:109ED000A12ADFEDD73A02EE233A23EE023A20EE32
:109EE000012A22EE811A03EE211A32EE010A10EE47
:109EF000100A00F500606FF30B0000EE100A72EE1E
:109F0000401A31EE812A9FEDCB1A60EE011A9FEDC7
:109F1000CA1A20EE011A9FEDC90A02EE001A31EEAC
:109F2000810A10EE100A00F500606FF30B0000EEDE
:109F3000100AC34871EEC01A31EE812A784400EB52
:109F4000C10090ED003AD0ED011A100101EE100AA7
:109F5000F8EEC12A32EE211A31EE001A31EE031A60
:109F600031EE221A11EE100A00F500606FF30B00BB
:109F700009EE100A39EE621A31EE431A31EE400A48
:109F800030EE610A32EE40AA10EE900A002100F590
:109F900000606FF30B0008EE900A084670EEE8AA26
:109FA0004FF0000029EE280A00F00C01F0EEC00A84
:109FB00010EE900AB0F18B4F0DDD10EE900AB4EB6D
:109FC000400F08D310EE100A4FF08B4262F31E00D0
:109FD00008EE900A13E069EE2A0A38EEAA1A4AEE51
:109FE000010A30EE201A11EE100A00F500606FF33E
:109FF0000B0008EE900A30EE680A70EE209A0C20F2
:10A000004FF0000038EEA90AB5EEC00AF1EE10FAE2
:10A0100034BFFEEE000AF6EE000A30EE800ABDEE16
:10A02000C00A10EE100A011100EE101AF8EEC00A74
:10A0300000EE100AB8EEC00A38EEC00A30EE290A67
:10A04000DFED801A9FED801A00EE211ADFED7F1AF6
:10A050007F4900F00F0040EE011A21EE800A79449A
:10A0600001EB800191ED001A7A49794401EB8001FE
:10A07000D1ED001A784901EE801A794401EB800095
:10A08000764990ED000A31EE001AB0EEE00A10EECB
:10A09000100A884215DA10EE100AB4EB400F10D304
:10A0A0009FED6F0A30EE800ADFED6E0A20EE200A87
:10A0B00068EE010ABDEC068BBCEEC00A20EE200A59
:10A0C00010BD10EE100A6849884243DA10EE100AFB
:10A0D000B4EB400F3ED3BDEEE00A68EE010A10EE8D
:10A0E000100A00EBD0725110C90501F17E5100EE4B
:10A0F000101AA0EB6200C00560EE200A00F17E504D
:10A1000000EE100A60EE808A18EE900AB4EB400F61
:10A110000FD10220F6F7B3FD00F0C6FA10EE101AC8
:10A1200018EE100ABDEC068B61F31E0000EE100A5B
:10A1300010BD18EE900A400011D018EE900AFFF7FB
:10A140009FFC042808BF00F0B7FAB0EE680ABDEC27
:10A15000068B10BDF5EEC00AF1EE10FA0FD2022008
:10A16000F6F78DFD00F0A8FA10EE101A18EE100A9E
:10A17000BDEC068B61F31E0000EE100A10BD02203C
:10A18000F6F77DFD00F090FA10EE101AB0EE480AD6
:10A1900010EE100ABDEC068B61F31E0000EE100AF3
:10A1A00010BD00BFBCF1804F6CD300BF00F1FF4376
:10A1B000B3F1FE4F24D200BFB0EEC00A10EE100A79
:10A1C000C1F3C7537F2B0DDB972BBFF63BAEC3F11B
:10A1D00096034FF0010C0CFA03F3A3F1010C1CEAF7
:10A1E000010F08D00120F6F74AFDBDEC068BBDE853
:10A1F000104000F051BA0B4218BFBFEE008A21E6B2
:10A2000043001CBF4FF08073B3EB400F34D96FF0A5
:10A210001A02DFED161A20EE210A10EE100A27E0CE
:10A2200000000000001080C0ABAAAA3E0000803DE4
:10A230007EE24C3E00B03842D49AB8BB3BAA3842CA
:10A2400038520000FC596337C9FF753A1872313D26
:10A25000D65100000A5200007A5100000000FC4272
:10A260000000FE420000004B000040430000004D93
:10A2700010F0004FA0D1E5E5A0F50003B3F1FE4FCB
:10A2800021D2DFE503EB4103B3F1007F11D3F5EEFB
:10A29000C00AF1EE10FA05D1430018BFB4EB400F2D
:10A2A00076D883E701F0004141F0FC5100EE901AAE
:10A2B0007CE7B3F1807F06D210EE903AA3F500035D
:10A2C00000EE903A72E720F000426FF0FF4C604CD5
:10A2D00002EB0C03A34210D321F000439C44A4459D
:10A2E0000BD3B0F17E5F18BF5FEA410C50D0B2F1E2
:10A2F000FF4F98BFB3F1FF4F05D9BDEC068BBDE80A
:10A30000104000F0C6B9B0F1FF4F0FD0C1F3C752F3
:10A310007F2A09DB972A11DAC2F19602012303FA98
:10A3200002F2531E0B4205D0002208E011F0004F4C
:10A3300055D128E00A4218BF012200D1022210F5AF
:10A34000000F13D028B3B0F1004F26D010F1814F89
:10A350004FD04FF0FE42B2EB400F94BF01200020DF
:10A36000012202EBE171884239D10CE011F0004F7B
:10A3700002D0012A38D032E0012A02BF9FED350A0F
:10A38000BDEC068B10BD9FED340ABDEC068B10BDF5
:10A390002FE011F0004F0CD121E0B1F1FF4F1ED0A2
:10A3A00011F5000F05D011F0004F15D00AB1012AA8
:10A3B00008D00220F6F763FCBDEC068BBDE8104028
:10A3C00000F05AB90220F6F75AFC00F055F9BDEC3E
:10A3D000068BB1EE400A10BD0AB1012A04D0B0EEDE
:10A3E000690ABDEC068B10BDBDEC068B9FED1B0A08
:10A3F00010BDBDEC068BB7EE000A10BD30EE410A71
:10A40000B5EE001A9FED172A00EE413AB6EE001A9B
:10A4100060EE001A00EE431A61EEC11A9FED101AA9
:10A4200020EE011A20EE020A9FED0F2A01EE820AA9
:10A4300071EE001A11EE900A00F500606FF30B0048
:10A4400009EE100A31EE491A31EE00AA9CE500002F
:10A45000FFFF3F00000080FF0000807F00000080C1
:10A4600000B0B841D49A38BB3BAAB84100B510EE51
:10A47000101A2DED028B81B0524A6846B2EB410FA3
:10A480002ED94FF0E640B0EB410F94BF00204FF0C3
:10A49000FF3000900098B0EE408A00286ADB10F090
:10A4A000010F4BD068EE080A9FED471A9FED470A4F
:10A4B00000EE810A9FED461A10F0020F00EE801A9E
:10A4C000B7EE000A00EE810A02BF01B0BDEC028BBC
:10A4D00000BD00BF01B0B1EE400ABDEC028B00BD73
:10A4E0003C4B21F00042934241D911F0004FDFED87
:10A4F0003A0A20EE201ADFED390A19BF31EE601A50
:10A5000071EE200A31EE201A71EE600ABDEEE01AFB
:10A5100011EE100A9FED321A00F0030000EEC10A9E
:10A520009FED301A009000EEC10A9FED2F1A00EE49
:10A53000C10A9FED2E1A00EEC10AABE728EE080A09
:10A540009FED2B1ADFED2B0A10F0020F40EE410AAF
:10A550009FED291A00EE201A61EE000AB0EE480ABB
:10A5600008EE200AB6D101B0BDEC028B00BD00F0B0
:10A57000B5F88FE718EE100A4000B0F17F4F0DD20A
:10A5800018EE100AFFF77CFA042808BF00F094F8D0
:10A59000B0EE480A01B0BDEC028B00BD09D101202C
:10A5A000F6F76DFB01B0BDEC028B5DF804EB00F03B
:10A5B00073B801B0B0EE480ABDEC028B5DF804EB55
:10A5C00000F064B8B61F927EB93AB2BACA9F2A3D6B
:10A5D000DDFFFFBE490E494683F9223F0000004BD4
:10A5E0000000C93F00A0FD390020A2331A61342CBD
:10A5F000336D4C39DA82083CA0AA2ABE10B52DED85
:10A60000028BB1EEC08A18EE100A20F00040C0F1B3
:10A61000FF40C00F0AD010EE100A20F00040C0F139
:10A62000FF40C00F04BF0120F6F729FBB0EE480A37
:10A63000BDEC028B10BD00009FED050B10B553EC77
:10A64000102B51EC100B03F0ABFA41EC100B10BDCA
:10A6500000000000000000709FED050B10B553ECEA
:10A66000102B51EC100B03F09BFA41EC100B10BDBA
:10A670000000000000000010DFED030AB7EE001A32
:10A6800081EE200A704700000000000030EE000A52
:10A69000704730EE200A7047DFED020A80EEA00A14
:10A6A00070470000000000009FED020A20EE000A43
:10A6B00070470000000000709FED020A20EE000AC3
:10A6C000704700000000001010B5044691ED000B2B
:10A6D000FFF742FA84ED000A10BD00002DE9F001F9
:10A6E0004FF07F42B2EB410F9FBF4FF0FF3101604F
:10A6F000BDE8F00170474FF0004242EA0123C1F388
:10A70000C752783A551112F01F0C434CCCF1200679
:10A710007C44C1F3C752A2F178024FEA621204EB03
:10A72000820254F8254008BFD2E9015612D055687C
:10A7300004FA0CF425FA06F73C43976805FA0CF581
:10A7400027FA06F8D26807FA0CFCF24045EA080539
:10A750004CEA0206A4FB034CA5FB0352A6FB0363D1
:10A760001D449D4234BF012600261319334416B1FF
:10A77000934202D903E0934201D2012200E0002279
:10A78000624402F1200C9206DC0C42EA443200EEF4
:10A79000102A5B03DFED210AF8EEC01A00EE103A32
:10A7A0004FEA9C1C11F0004FB8EE400AC0F800C000
:10A7B00020EE201A00EE105ADFED190AB8EE400A1A
:10A7C00020EE200A71EE810A70EE800A10EE902AC7
:10A7D00002F500626FF30B0200EE902A70EEE11AB0
:10A7E00031EEC11ADFED101A30EE411A9FED0D0A5D
:10A7F00020EE800A01EE210A9FED0C1A00EE810A7C
:10A8000004BFBDE8F0017047CCF180510160BDE8A4
:10A81000F001B1EE400A7047AC4B0000000000367A
:10A820000000802C22AAFD29DB0FC92F0000C92FB0
:10A8300010B5084802232C220749FFF778F90021B8
:10A840008165C16580F86010BDE81040034A044985
:10A85000FFF76BB9001500207DD300080000000849
:10A86000A5D3000808B506212548FDF735FF4FF4AC
:10A87000165000900023032202212248FEF760FDBB
:10A88000214A2249FFF751F91E48214B192218216C
:10A89000D830FEF75DFB1C4A1E49FFF746F91E48FB
:10A8A000FEF7C0F81C481030FEF7BCF84FF0FF3040
:10A8B000009019480523062207212030FEF7DCFC12
:10A8C000114A1649FFF731F913480121FC30FEF710
:10A8D000BDF80B211248FEF7B9F8114A11481C3A8D
:10A8E000A2F1DC01FEF7F4FE0D480722BDE80840A6
:10A8F0009FED0D0A4FF480411C30FEF73DB800007B
:10A9000090070020900A00200000000869930008CA
:10A9100040420F00C98F00084C0C00202193000812
:10A92000640D0020200200200000000010B5044645
:10A9300090ED000B0846FFF7FFF984ED000B10BD0A
:10A940001FB500F027F88DE80F0004B010BD2DE909
:10A95000F04107460C4615461E462146384600F093
:10A96000A9FE641C0DD03146384600F009FF0121D4
:10A97000384600F093FE29463846BDE8F04100F025
:10A98000C0BEBDE8F08130380A2801D201207047EE
:10A99000002070470FB505486946C01D20F007002C
:10A9A000009002919DE80F0004B000BDB816002091
:10A9B00010B501F05FF901F0D0F910BD70B50328B2
:10A9C00001DA002070BD0E4AC11E52F8210000239A
:10A9D00042F821305D1E58B1016849698847044634
:10A9E000002C0BDAF5F7AAFC61420160284670BD25
:10A9F000F5F7A4FC09210160284670BD002070BD58
:10AA00007411002070B54FF0FF35032805DAF5F713
:10AA100095FC05210160284670BD0C49C01E51F807
:10AA2000200058B10168896A88470446002C0BDA77
:10AA3000F5F784FC61420160284670BDF5F77EFCA5
:10AA400009210160284670BD204670BD74110020A8
:10AA500010B5032801DA012010BD0C49C01E51F8C1
:10AA6000200058B10168C96988470446002C0BDAF8
:10AA7000F5F764FC61420160002010BDF5F75EFC53
:10AA800009210160002010BD204610BD7411002076
:10AA90002DE9FE4305460E4648492846F6F734F8A8
:10AAA00020B346492846C91DF6F72EF810B343498E
:10AAB00028460F31F6F728F800B3414802F048FC69
:10AAC0000024404F57F8240010B1641C102CF9D317
:10AAD0004FF0FF38102C15D3F5F730FC182101602A
:10AAE000374802F035FC4046BDE8FE83FBF770FDB9
:10AAF0000020F9E7FBF76CFD0120F5E7FBF768FDA7
:10AB00000220F1E747F824802D4802F021FC0020C4
:10AB1000029028783A2812D029466846FEF7B4FDFC
:10AB20006846FEF79BFD6FF0010560B16846FEF7D1
:10AB30009CFD68B16846FEF784FD029038E0D5F8C8
:10AB40000100029034E021462846FCF73BFDCBE7AC
:10AB50006846FEF75BFD18B1B10706D502250DE08A
:10AB600021462846FCF72EFDBEE7710701D50125D9
:10AB700004E0310701D5092500E0002516F00C0F8F
:10AB800001D045F40075710701D545F4806506468E
:10AB90006846FEF777FD024630682B4602A9D0F8DA
:10ABA00008C03046E04718B12146FCF70BFD9BE793
:10ABB000029847F82400E01C96E7000000EC00082B
:10ABC000580200207411002070B50C461546032869
:10ABD0000ADA1248006808B9FBF7FAFC104801F0DD
:10ABE00017FD2070012410E00E49C01E51F820000E
:10ABF00068B101682A468B68214698470446002CB4
:10AC000003DAF5F79BFB61420160281B70BDF5F785
:10AC100095FB092101604FF0FF3070BD64020020F8
:10AC2000B41400207411002070B50022551E0328B2
:10AC300005DAF5F783FB1D210160284670BD0C4B3A
:10AC4000C01E53F8200058B103681B69984704469A
:10AC5000002C0BDAF5F772FB61420160284670BDEB
:10AC6000F5F76CFB09210160284670BD204670BDD8
:10AC70007411002070B50E46154603280FDA1548EA
:10AC8000006808B9FBF7A4FC002404E0315D124819
:10AC900001F0E4FE641CAC42F8D32C4610E00F49EE
:10ACA000C01E51F8200068B101682A46CB683146C1
:10ACB00098470446002C03DAF5F740FB6142016037
:10ACC000281B70BDF5F73AFB092101604FF0FF30FA
:10ACD00070BD000064020020B41400207411002034
:10ACE00070B58AB006460E9C0020002B01D0012BC7
:10ACF00025D10594002006900125079513B1012B5D
:10AD000007D012E049010091019051010291039096
:10AD10000BE04B0B0093C906090E091D0191510B65
:10AD20000291D106090E091D03910490089504F1C2
:10AD30000E00099069463046F8F7EAFD20460AB051
:10AD400070BD00000068124A104B11492032984231
:10AD50000BD10B6843F000730B600B6823F000739A
:10AD60000B60136823F0007313600A4B98420BD1F9
:10AD7000086840F080600860086820F08060086023
:10AD8000106820F080601060704700000064004090
:10AD900020380240006800402DE9F04104460D468D
:10ADA000F9F78CFB0122294600F09AFA074624683D
:10ADB0000125002F39DD206840F001002060F8F700
:10ADC000F9FE064606E0F8F7F5FE801B022801D9D9
:10ADD000002502E06068C007F5D015B3E0691549A9
:10ADE0000840E061E0693843E061206820F001003C
:10ADF0002060F8F7DFFE064606E0F8F7DBFE801B72
:10AE0000022801D9002502E06068C007F5D16DB9BC
:10AE1000A06982B2A0692B46010C07A000F0B6FB26
:10AE200004E010A000F0B2FB00E000252846BDE8D9
:10AE3000F081000000FC80FC63616E2045535220CD
:10AE4000203078253034782E25303478202B20742B
:10AE5000696D656F757420737461747573202564F2
:10AE60000000000063616E20696E69742072657174
:10AE7000756573742074696D656F75740A000000E0
:10AE80002DE9F84F0446884692469946394940468E
:10AE900001F0EAF805463849504601F0E5F8014668
:10AEA000284601F0C7F80546681C04D1362233A1B4
:10AEB0003CA000F0B5FE3F4F3F480026BD4209D1FF
:10AEC000016841F000710160006800F000700090BE
:10AED000666414E039498D4249D1016841F000713E
:10AEE0000160016801F000710091016841F080612A
:10AEF0000160006800F080600090012060641D49DE
:10AF0000404601F0D3F81C49504601F0CFF8B8F1A3
:10AF1000FF3F03D00121404600F0E4FFBAF1FF3FBC
:10AF200003D00121504600F0DDFF2560A661E661F7
:10AF300026626662A662E662A660E6604FF4A02022
:10AF400020614FF4E000606102206060C4F8489026
:10AF5000204600F093F9BD4201D1002000E00E2010
:10AF6000002300901A4619462046FFF7B9FEBDE8B7
:10AF7000F88F0000D4EF000810F000086D626564DF
:10AF80002D6465762F746172676574732F54415216
:10AF90004745545F53544D2F63616E5F6170692E56
:10AFA0006300000028696E742963616E20213D20D2
:10AFB0004E430000006400404038024000680040FA
:10AFC0002DE9F04192B00C46019001984069424D44
:10AFD000C043C007A5F1040627D1019881683F4806
:10AFE000884370D0002001998A683D4991436CD014
:10AFF0000021019A93683B4A9A4368D0002210B11D
:10B00000019F0123BB6019B1019F4FF48073BB60A6
:10B010001AB1019F4FF48033BB600843104304D042
:10B02000326855F82400012190470198C06800F06B
:10B03000030101984069C0F3400029B120B1326892
:10B0400055F824000021904701988069C0F3400121
:10B0500001984069C0F3402201984069C0F3C030B4
:10B0600031B12AB120B1326855F82400052190474A
:10B0700001988069C0F3800701984069C0F3802877
:10B0800001984069C0F3C03047B1B8F1000F05D056
:10B0900020B1326855F82400072190470198406993
:10B0A000C0F3C030002F14D0B8F1000F11D0002829
:10B0B0000FD055F82400326812B00221BDE8F041EB
:10B0C000104700E001E001208DE7012191E7012216
:10B0D00095E712B0BDE8F0812C02002003000004C7
:10B0E000000300080000031001684A6948F2136376
:10B0F0009A434A61406C024A002142F8201070478E
:10B100002C020020034B1960406C191D41F82020CF
:10B11000704700002802002070B504682C4EF3131D
:10B1200098114500B4421AD108294FD2DFE801F046
:10B1300004080C4E4E0F4E130223142025492BE019
:10B1400001231320244927E01620244924E0034644
:10B150001620224920E02B46162020491CE0204ED4
:10B16000B44233D1082931D2DFE801F004080C30B1
:10B17000300F3013022340201A490DE001233F20F5
:10B18000194909E04220194906E0034642201749BF
:10B1900002E02B46422015491AB162691A436261E6
:10B1A00002E062699A436261114A126800F1100379
:10B1B00042F82310002809DB00F01F020121914012
:10B1C0004009800000F1E020C0F8001170BD0000CF
:10B1D000006400407D370008953700088937000873
:10B1E00000680040A1370008B9370008AD370008F3
:10B1F00008ED00E010B50368D868800732D003EB93
:10B200000210D0F8B041C4F380044C7364B3D0F89A
:10B21000B041E4080C6000F5D8700468C4F3400441
:10B220008C73446804F00F040C7384680C71846898
:10B23000240A4C718468240C8C718468240ECC71AF
:10B24000C4680C72C468240A4C72C468240C8C72E2
:10B25000C068000EC87262B1186940F02000186121
:10B26000012010BD002010BDD0F8B041640D0C606D
:10B27000D1E7D86840F02000D860F1E710B5044667
:10B280002046F8F7C1FB10B107A000F07FF9204677
:10B29000A16CFFF781FD012804D0BDE8104008A093
:10B2A00000F074B910BD000043616E6E6F742069C8
:10B2B0006E697469616C697A652043414E000000D3
:10B2C00043616E206672657175656E637920636F88
:10B2D000756C64206E6F74206265207365740A005B
:10B2E00070B50025B0FBF1F01821B0FBF1F189B287
:10B2F0000CE0491C89B216234E1CDC1C74438442AA
:10B3000001D1012502E05B1E002BF6DC15B9B1EB83
:10B31000900FEED3BDB10D4C4FF4E00504EBC3002C
:10B3200034F8333080884FF4702405EA005004EA82
:10B33000034318434FF0407303EA02621043C1F322
:10B340000901084370BD4FF0FF3070BD48EB0008A5
:10B350000FB400688168490101D5002108E08168C7
:10B36000090101D5012103E08168C9004AD5022104
:10B3700000EB0110D0F8801101F00101C0F880113C
:10B380009DF811209DF81210DAB3D0F88021042323
:10B390000A43019943EAC1010A43C0F8802100F53C
:10B3A000C070416821F00F01416041689DF8102094
:10B3B00002F00F02114341609DF808109DF80B2028
:10B3C0009DF8093041EA02619DF80A20120442EA20
:10B3D0000322114381609DF80C109DF80F209DF809
:10B3E0000D3041EA02619DF80E20120442EA032268
:10B3F0001143C160016841F001010160012004B006
:10B40000704701E00020FAE7D0F880210A43019953
:10B4100042EA4151C0F88011C1E710B503460C461D
:10B420009A4201D2012300E0002321461046002B5E
:10B4300002D0001C41F1010110BDEFF3108040F378
:10B440000000401C704770B505460C4600F016F829
:10B450002888001B84B22C8000F060F8204670BD64
:10B4600070B505460C4600F009F82888204484B2DF
:10B470002C8000F053F8204670BD000070B5FFF737
:10B48000DCFF80F0010472B60B4D686800B92C70C7
:10B490006868401C04D1432208A111A000F0C0FB41
:10B4A000686828B124B9472204A117A000F0B8FBAE
:10B4B0006868401C686070BD440200206D6265646D
:10B4C0002D6465762F706C6174666F726D2F6D627E
:10B4D00065645F637269746963616C2E6300000068
:10B4E000696E746572727570745F656E61626C65A9
:10B4F0005F636F756E746572203C2055494E5433FE
:10B50000325F4D4158000000696E7465727275704B
:10B5100074735F64697361626C65640010B50C4C90
:10B520006068002813D0FFF788FF80F0010020B981
:10B53000582208A110A000F073FB6068401E6060F4
:10B540006068002803D12078002800D162B610BDC1
:10B55000440200206D6265642D6465762F706C6115
:10B5600074666F726D2F6D6265645F637269746972
:10B5700063616C2E63000000696E74657272757091
:10B5800074735F64697361626C6564000FB410B5B5
:10B5900007480178002908D10121017003A9029808
:10B5A00000F0B2FB012000F005F810BC5DF814FBC0
:10B5B0004C02002004460548F5F71DF90448F5F74C
:10B5C0001AF90CB100F068FBFEE70000F815002046
:10B5D0004C1600200168002901DCF5F7E4BF491E84
:10B5E000016041684A1C4260087870478A68002AF6
:10B5F00001DCF6F7C6B8521E8A604A68C0B2531C16
:10B600004B6010707047000010B582B01446CDE951
:10B6100000010023009A2360194B21F0004098425A
:10B620002ADA024328D0B0F5801FA8BF226810DABA
:10B630009FED150B53EC102B9DED000B51EC100BF7
:10B6400002F0AEFACDE900016FF0350221F00040C2
:10B6500022600F4B6FF31E5103EB2050104420600B
:10B6600041F0FF5040F0005001909DED000B00BFF5
:10B6700002B051EC100B10BD9DED000BF8E700007F
:10B680000000F07F000000000000000000005043B8
:10B6900002FCFFFF0048704730EC000802460B0038
:10B6A000D2E9050102D00122F9F70BBE0022F9F719
:10B6B00008BE000070B504460D462582681C16D0F1
:10B6C000C5F30310FAF74CF90646284600F01EF8B9
:10B6D00020606661207C064900F00F0051F82000D0
:10B6E000A06106F1100060600830A060E06070BDED
:10B6F0004CF000080022AFF3008013460022FFF751
:10B7000026B9B0F9100000F0EDBB000010B50446FA
:10B71000601C04D1742206A10FA000F081FA002160
:10B72000204600F025FB04F00F010120884010BDE9
:10B730006D6265642D6465762F74617267657473DC
:10B740002F5441524745545F53544D2F6770696FD2
:10B750005F6170692E63000070696E20213D2028B2
:10B7600050696E4E616D65294E43000002680029E4
:10B7700002D0806802607047C068110401607047A1
:10B780000268002902D0806802607047C068110416
:10B790000160704710B504462068016821F040013F
:10B7A00001602046F9F774F910B106A0FFF7EEFE2C
:10B7B000A068002804D12068016841F040010160C0
:10B7C00010BD000043616E6E6F7420696E6974690C
:10B7D000616C697A652053504900000010B501463C
:10B7E000174A486802EB80100A6802608A68426063
:10B7F000CA6882600A69C2604A6902610A6A826133
:10B800000022C261C2848284C2858285B1F91A2075
:10B81000521C0ED0B1F91810491C0DD00C214161F9
:10B82000F9F712FD00280AD0BDE8104005A0FFF787
:10B83000ADBE08214161F3E704214161F0E710BD8D
:10B840003412002043616E6E6F7420696E697469F2
:10B85000616C697A6520554152540A0010B504465E
:10B860006068007C002816D1206800688047616805
:10B870000020086061684860606800228260C260E1
:10B88000616801200874204601F0CAFC2046BDE82A
:10B89000104000F07FBE10BD2DED028BADF5067D92
:10B8A0009FED9B0A9B4F87ED060A4FF00008C7F8F3
:10B8B0009C80A7F11400FAF77BFEDFED978AB0EECB
:10B8C000680A01F0F7FCA7F1140401212068FDF7D4
:10B8D000B3F8642001F0FFFC04F19401081FFBF7AA
:10B8E00083F800212068FDF7A7F8B0EE680A01F0A0
:10B8F000E1FC3846FCF736FE04F53770FBF752FAE8
:10B900008648016881F002010160A4F10C00FCF797
:10B9100085FEB0EE680A01F0CDFC02211920FBF78C
:10B9200041FE03211420FBF73DFEA4F20C44CDF8A8
:10B9300000800023072204F5FB606168FDF7EBFA45
:10B94000606804F6CC0110300860082008731039D4
:10B950000873734982A801F079FD0146002204F5BD
:10B96000FB60FDF79BFA82A801F080FDA4F58075CD
:10B970002868FEF798F89FED6B8A08B185ED008A7C
:10B980006868FEF790F808B185ED018AA868FEF7AF
:10B990008AF8654E50B9D5ED020A10EE900AB04211
:10B9A00004D0F5EEC00AF1EE10FA03D19FED5F0A64
:10B9B00085ED020AE868FEF776F850B9D5ED030A7E
:10B9C00010EE900AB04204D0F5EEC00AF1EE10FA83
:10B9D00003D19FED570A85ED030AA869FEF763F8C6
:10B9E00010B9A869B04201D185ED068A94ED010A2B
:10B9F000F8EEC00A10EE900AFEF755F8012610B9CD
:10BA00006068401C00D1666094ED020AB8EEC00A7E
:10BA100010EE100AFEF747F810B9A068401C01D1DB
:10BA2000C4F8088094ED030AF8EEC00A10EE900AFC
:10BA3000FEF739F810B9E068401C01D1C4F80C8059
:10BA400095ED000A3B48FCF771FE95ED010A394877
:10BA5000FCF76FFE4FF40078414602A8F5F72CF88A
:10BA60004246354902A8F4F7EDFF02A93148FCF738
:10BA70007DFF2848FBF7B6FD4FF461212F48FDF705
:10BA800064F89FED2F8AB0EE480A01F013FC2B48B2
:10BA90002CA1BC30FDF7E5FCB0EE480A01F00AFC31
:10BAA0002FA0F4F7D9FC33A133A0F4F7D5FCD7E9E4
:10BAB0001F1237A0F4F7D0FC286802F08FFA41EC8F
:10BAC000110B3DA053EC112BF4F7C6FC686802F093
:10BAD00085FA41EC110B44A053EC112BF4F7BCFC9C
:10BAE00049A06168F4F7B8FC4B4982A801F0AEFCAC
:10BAF000014600221148FDF73DF882A801F0B6FC8E
:10BB00004648C660B0EE680A01F0D4FBFAE70000D0
:10BB10006666E641B0070020CDCCCC3D0000014078
:10BB2000856A000800000000000080BF00007A4421
:10BB300000002042800D0020A4030020900A002075
:10BB40000AD7233C0A0D0A0D20486F6262794B69BF
:10BB50006E6720436865657461680A0D0A0D000010
:10BB60000A0D20446562756720496E666F3A0A0DBA
:10BB700000000000312E3900204669726D77617235
:10BB8000652056657273696F6E3A2025730A0D0041
:10BB90002041444331204F66667365743A20256422
:10BBA0002020202041444332204F66667365743A5A
:10BBB0002025640A0D00000020506F736974696FBE
:10BBC0006E2053656E736F7220456C656374726985
:10BBD00063616C204F66667365743A202020252EC1
:10BBE00034660A0D00000000204F757470757420D3
:10BBF0005A65726F20506F736974696F6E3A2020B6
:10BC0000252E34660A0D00002043414E2049443A57
:10BC1000202025640A0D00007D6F00080802002026
:10BC200070B505460E461446FFF728FC23463246FB
:10BC3000294603A000F05EF8BDE8704000F02CB883
:10BC40006D626564206173736572746174696F6E8F
:10BC5000206661696C65643A2025732C2066696CE6
:10BC6000653A2025732C206C696E65202564200AB6
:10BC70000000000030B5074D2A68AC0621460020C0
:10BC800052F8203041F82030401C7128F8DB2C603D
:10BC900030BD000008ED00E088B0FFF7EFFB0521A4
:10BCA00001A8FFF727FD0024012101A8FFF75EFD91
:10BCB000962001F00BFB002101A8FFF757FD96200D
:10BCC00001F004FB641C042CEEDB00244FF4C87567
:10BCD000012101A8FFF74AFD284601F0F7FA0021EB
:10BCE00001A8FFF743FD284601F0F0FA641C042C7C
:10BCF000EEDBD8E70FB410B503A9029800F004F802
:10BD000010BC5DF814FB000073B5A0B00446FFF74B
:10BD1000B5FB224680216846219BF4F77DFB054652
:10BD2000002D11DD0A48006820B9032202210948CC
:10BD300000F080FC00246E4604E0315D054800F010
:10BD40008DFE641CAC42F8DBFFF7E8FB22B070BD4F
:10BD500064020020B4140020704710B5F9F786FE85
:10BD6000F7F736FFF9F795FDBDE81040F9F77EBE0D
:10BD70002DE9F05F04460F46601C04D13E2248A125
:10BD800051A0FFF74DFF07F00706C7F30329C4F3DF
:10BD90000310DFF848B104F00F0A5BF82A80002591
:10BDA000F9F7DEFD04460221A26898FAA8F0B0FA7D
:10BDB00080F0430003209840824398FAA8F0B0FA3C
:10BDC00080F0400081400A43A26056B1012E1ED08F
:10BDD000022E1ED0032E4AD0672231A140A0FFF7C9
:10BDE0001FFF206898FAA8F1B1FA81F14A000321F7
:10BDF0009140884398FAA8F1B1FA81F149008D4049
:10BE000028432060012E34D0022E32D03FE001259D
:10BE1000E7E702255BF82A000F21BAF1070F13D9D3
:10BE2000626A000A90FAA0F3B3FA83F39B00994088
:10BE300090FAA0F08A43B0FA80F0800009FA00F985
:10BE400042EA09026262CCE7226A90FAA0F3B3FAEE
:10BE500083F39B00994090FAA0F08A43B0FA80F0F7
:10BE6000800009FA00F942EA09022262B9E70325D3
:10BE7000B7E7F810C00705D0012241462046F9F780
:10BE800033FA04E0002241462046F9F72DFAC7F3C1
:10BE9000011241462046BDE8F05F01F00CB90000F8
:10BEA0006D6265642D6465762F7461726765747365
:10BEB0002F5441524745545F53544D2F70696E6D56
:10BEC00061702E630000000070696E20213D202803
:10BED00050696E4E616D65294E4300004CF00008BC
:10BEE0003000000070B505460C46681C04D188225D
:10BEF00023A12DA0FFF794FEC5F303102F4A05F0F0
:10BF00000F0152F82150F9F72BFD064629463068FB
:10BF1000494301EB41021040B0FBF1F1012901D08E
:10BF200002290AD1042C17D0032C15D0052C13D0CC
:10BF3000002229463046F9F7D7F9032C12D0012CFC
:10BF400010D0052C15D0022C13D029463046BDE860
:10BF50007040002201F0AFB8012229463046F9F7BF
:10BF6000C3F9EAE729463046BDE87040012201F0F6
:10BF7000A2B829463046BDE87040022201F09BB8C5
:10BF80006D6265642D6465762F7461726765747384
:10BF90002F5441524745545F53544D2F70696E6D75
:10BFA00061702E630000000070696E20213D202822
:10BFB00050696E4E616D65294E4300004CF00008DB
:10BFC00004E0824201D1886870470C31B1F9002049
:10BFD000531CF6D1581E704704E0824201D14868D4
:10BFE00070470C31B1F90020531CF6D1581E704730
:10BFF00010B54FF0FF33421C05D0FFF7E1FF0446B8
:10C00000601C02D004E0184610BD02A0FFF7BEFA83
:10C01000204610BD70696E6D6170206E6F74206671
:10C020006F756E6420666F722066756E6374696FDB
:10C030006E00000010B5884208D0421C07D0491C91
:10C0400004D004A0FFF7A2FA4FF0FF3010BD08465D
:10C0500010BD000070696E6D6170206D69732D6D8B
:10C06000617463680000000010B54FF0FF33421C9C
:10C0700005D0FFF7B1FF0446601C02D004E018466B
:10C0800010BD02A0FFF782FA204610BD70696E6DE8
:10C090006170206E6F7420666F756E6420666F72BB
:10C0A000207065726970686572616C0010B5044635
:10C0B000601C16D00CE0A24209D189682046FFF727
:10C0C00057FE2046BDE810400021FFF70BBF0C31A2
:10C0D000B1F90020501CEED1BDE8104001A0FFF7DF
:10C0E00055BA10BD636F756C64206E6F74207069F3
:10C0F0006E6F757400000000F8B504460E46614985
:10C100003046FFF7B1FF2060401C04D12E225EA113
:10C1100068A0FFF785FD5B493046FFF769FF0546DC
:10C12000681C04D1322258A168A0FFF779FDC5F33D
:10C1300004302075C5F3404060756B4920686B4A38
:10C140000025884207D1106840F001001060106897
:10C1500000F00100009065482168001FB1F1804F98
:10C1600007D1016841F001010160016801F001019E
:10C1700000915F4B2168994207D1016841F00201AB
:10C180000160016801F0020100915A4B2168994257
:10C1900007D1016841F004010160016801F0040168
:10C1A0000091554B2168994207D1016841F008017F
:10C1B0000160016801F008010091504B216899422B
:10C1C00007D1116841F002011160116801F002010C
:10C1D00000914B4B2168994207D1116841F480319D
:10C1E0001160116801F480310091464B2168994239
:10C1F00007D1116841F400311160116801F4003178
:10C200000091414B2168994207D1116841F4802186
:10C210001160116801F4802100913C4A216891422B
:10C2200007D1016841F040010160016801F040015F
:10C230000091374A2168914207D1016841F080019D
:10C240000160016801F080010091324A2168914249
:10C2500007D1016841F480710160006800F48070CA
:10C26000009008493046FFF721FFA680E560256170
:10C270000120A0602046BDE8F84044F6206100F0AF
:10C280004BB8000038EC00086D6265642D6465767B
:10C290002F746172676574732F5441524745545F20
:10C2A00053544D2F70776D6F75745F6170692E6395
:10C2B000000000006F626A2D3E70776D20213D20E6
:10C2C0002850574D4E616D65294E430066756E636B
:10C2D00074696F6E20213D202875696E7433325F5A
:10C2E00074294E4300000000000001404438024021
:10C2F0000004004000080040000C00400004014021
:10C300000040014000440140004801400018004046
:10C31000001C0040002000402DE9F04304462DEDB4
:10C32000028B87B00F464E4E206830604FF00008F9
:10C33000CDF80480204600F0B1F8B0EE408A002528
:10C340003068016A41F21112114207D1016A92105C
:10C35000114203D1016821F00101016001A902A885
:10C36000F8F788F8DFF8FC90206801E06D1CEDB26A
:10C3700059F835108142F9D159F8350010B93AA071
:10C38000FFF704F909EBC500007990B1F8F7ACF8B4
:10C39000019006990120A060394B79B101984000C5
:10C3A000B0FBF3F0401E70607D1EF5604FF48032EC
:10C3B00034E0F8F783F801900599EBE70198B0FBBA
:10C3C000F3F0401E7060EFE7A0684000A060D1B1BC
:10C3D000DDF804C04FEA4C0CBCFBF3FC0CFB00FC8A
:10C3E000ACF1010CC6F804C0A068B5FBF0F0F06039
:10C3F0004FF6FF7C604511D2706890420ED321A0A9
:10C40000FFF7C4F810E0DDF804C0BCFBF3FC0CFB44
:10C4100000FCACF1010CC6F804C0E5E7F0689042FE
:10C42000D2D270689042CFD2C6F81080C6F8088089
:10C430000B48F8F72AFE10B112A0FFF7A7F8E76043
:10C44000B0EE480A204600F043F83068016841F039
:10C450000101016007B0BDEC028BBDE8F083000074
:10C46000D01100208CF00008556E6B6E6F776E2037
:10C4700050574D20696E7374616E63650000000053
:10C4800040420F0043616E6E6F7420696E6974697B
:10C49000616C697A652050574D0A00009FED0B0AC8
:10C4A000C168002909D090ED040AF8EE400A00EEB8
:10C4B000101AB8EE401A80EE810A10EE100AB0F1A0
:10C4C0007E5F01DDB7EE000A70470000000000004B
:10C4D00030B587B004460025264920680860B5EECF
:10C4E000C00AF1EE10FA02D29FED230A06E010EE28
:10C4F000100AB0F17E5F01DDB7EE000AD4ED030A49
:10C50000F8EE600A20EE800ABCEEC00A84ED040A50
:10C5100060200090A1682069B0FBF1F0019000203C
:10C5200002900490059003900690207D012806D08B
:10C53000022815D0032815D004280FD10C252A462F
:10C5400069460C48F8F734FD10B10CA0FFF71EF84F
:10C55000607D48B129460748F8F7DEFC07B030BDDA
:10C560000425ECE70825EAE729460248F8F7AAFD82
:10C57000F4E70000D01100200000000043616E6E5F
:10C580006F7420696E697469616C697A65205057AF
:10C590004D0A00002DE9F0410646304600F040FE0D
:10C5A0004FF0E04775686B68ABB1D5E902010CCB81
:10C5B000841A71EB030404D330684069BDE8F0418C
:10C5C0000047141A63EB01034FF0E040201A73F1A7
:10C5D000000000D22746D5E90205C41945F100053F
:10C5E0003068016920468847304600F019FE7168BE
:10C5F000D1E90201001BA94104D330684069BDE8BC
:10C60000F0410047BDE8F0818160FFF7E7B8000026
:10C6100070B504460649606801EB8015204600F0BD
:10C6200031FA0028FAD028684068C0F3080070BDCD
:10C63000341200202DE9F84304460D46164672498F
:10C640002846FFF711FD074670493046FFF70CFDFD
:10C6500001463846FFF7EEFC2060401C04D13E2224
:10C660006BA17AA0FFF7DCFA7F4A2068DFF8FCC1F3
:10C67000811A7E4B00270CF1200C4FF001089042EC
:10C6800069D009DC7A49401823D0B0F5806F36D0E4
:10C69000B0F5006F1CD148E07448744A001D243284
:10C6A000B1F5404F03D0B1F5444F7CD169E001684A
:10C6B00041F010010160016821F010010160106873
:10C6C00040F010001060106800F0100000906760EB
:10C6D00069E0186840F400301860186820F40030F1
:10C6E0001860DCF8000040F40030CCF80000DCF802
:10C6F000000000F400300090C4F8048053E0186893
:10C7000040F480201860186820F480201860DCF85D
:10C71000000040F48020CCF80000DCF8000000F4B9
:10C7200080200090022161603DE0186840F4002004
:10C730001860186820F400201860DCF8000040F44D
:10C740000020CCF80000DCF8000000F4002000908D
:10C750000321616027E0186840F4801018601868B1
:10C7600020F480101860DCF8000040F48010CCF851
:10C770000000DCF8000000F48010009004216160EB
:10C7800011E0016841F020010160016821F0200101
:10C790000160106840F020001060106800F0200078
:10C7A00000900521616018492846FFF77FFC174972
:10C7B0003046FFF77BFC681C03D001212846FFF7B9
:10C7C00091FB701C03D001213046FFF78BFB4FF427
:10C7D0001651A160E7602761676127622583668340
:10C7E0002046FEF7FBFF224920684942884209D1D2
:10C7F0002048C0F800802146BDE8F8434C221E487E
:10C80000F4F720B9BDE8F88394ED000800EE0008C5
:10C810006D6265642D6465762F74617267657473EB
:10C820002F5441524745545F53544D2F5441524762
:10C8300045545F53544D333246342F7365726961EA
:10C840006C5F6465766963652E6300006F626A5F82
:10C85000732D3E7561727420213D2028554152543C
:10C860004E616D65294E4300005000402038024063
:10C8700000BCFFBF64020020B4140020034B5960C9
:10C880004068034941F820207047000064020020FE
:10C890000C120020F8B505463C49686801EB80168B
:10C8A00000200090AF6B002430680168C94349063E
:10C8B00008D4C168490605D5E9694A0702D501F0DF
:10C8C000040100910168C943C90708D14169C9073A
:10C8D00005D0A98B009A01F4006111430091016811
:10C8E000C943890708D44169C90705D0A98B009AB3
:10C8F00001F48061114300910168C943090708D41C
:10C900004069C00705D0A88B009900F40070084367
:10C9100000903046F8F710FC0098000505D4009808
:10C92000400502D40098800501D50098F8BDB08D6F
:10C9300010B1F18D411A2964F08D50B9D5E90F017C
:10C94000401E814205D3A88B009900F480700843F3
:10C950000090A88B800416D5AFB1286C11E03A5D29
:10C9600095F848108A420AD12C64A88B009900F4EB
:10C97000005008430090284600F098F803E0641C3B
:10C98000E4B2A042EBD80098F8BD000034120020B9
:10C99000F0B406462948736800EB83150020002494
:10C9A000062B15D2DFE803F00306090C0F12252031
:10C9B000234C0DE02620234C0AE02720224C07E0E0
:10C9C0003420224C04E03520214C01E04720214C4A
:10C9D00073681A4E06EB83131B6892B161B1D96874
:10C9E00041F08001D9601C49096800F1100241F84A
:10C9F0002240F0BCFDF78CB8D96841F02001D96025
:10CA0000F1E7002269B1D96821F08001D960296875
:10CA1000C968890600D40122002A0CD0F0BCFDF7B9
:10CA200055B8D96821F02001D9602968C96809067C
:10CA3000F2D40122F0E7F0BC70470000341200206D
:10CA400095D100089BD10008A1D10008A7D100080A
:10CA5000ADD10008B3D1000808ED00E070B5044680
:10CA60000E460749606801EB8015204600F04AF841
:10CA70000028FAD02968C6F30800486070BD00009D
:10CA80003412002008B54068074901EB80100068A7
:10CA90000168090702D50168416800910068C04338
:10CAA00040F34010401C08BD3412002008B5406817
:10CAB000134901EB80100168CA6822F02002CA60A5
:10CAC0000168CA6822F48072CA6001684A6922F06B
:10CAD00001024A6102686FF0200111600168496833
:10CAE00000910021C18590F83A10232903D020211C
:10CAF00080F83A1008BD212180F83A1008BD0000E6
:10CB0000341200204068054901EB8010006800687D
:10CB1000C04340F3C010401C704700003412002096
:10CB200010B5FEF7ABFC09480088A0F57F41FF393E
:10CB300004D1FEF7F3FC06A0FEF728FD012103480F
:10CB4000FEF78EFCBDE81040FEF7E8BC6002002056
:10CB50004465657020736C656570206C6F636B2035
:10CB6000776F756C64206F766572666C6F772028BE
:10CB70003E2055534852545F4D4158290000000053
:10CB800010B5FEF77BFC0848008820B9FEF7C6FC0C
:10CB900006A0FEF7FBFC01210348FEF754FCBDE8AC
:10CBA0001040FEF7BBBC00006002002044656570C9
:10CBB00020736C656570206C6F636B20776F756C8C
:10CBC0006420756E646572666C6F7720283C203037
:10CBD0002900000030B4102912D00021C1600021CA
:10CBE0008AB10124012A11D00225022A11D005613F
:10CBF00044618169B1F5007F11D06BB100210DE076
:10CC00004FF40061EAE701614161F2E701614461CB
:10CC1000EFE705614161ECE74FF4802181610BB1E1
:10CC2000002101E04FF48271416030BCFEF7B2BDDB
:10CC30002DE9F04106460F4600240725304600F056
:10CC400019F800EBD070421004E002EBD2704210F1
:10CC5000641CE4B2BA4201DDAC42F6D3044830F8B9
:10CC60001410F1613046BDE8F041FEF793BD0000BD
:10CC700014F1000810B50024C06D0C49411811D002
:10CC8000B1F5806F0ED0B1F5784F07D0B1F57C4F7C
:10CC900004D007A0FEF77AFC204610BDF7F724FC6D
:10CCA0000446F9E7F7F70AFC0446F5E700C8FFBFBA
:10CCB000434C4B3A2053504920696E7374616E6344
:10CCC00065206E6F74207365740000002DE9FC5FB1
:10CCD00004460C9E0F461546984655493846FFF7C0
:10CCE000C3F9834653492846FFF7BEF981465249A6
:10CCF0004046FFF7B9F9019050493046FFF7B4F9C3
:10CD0000824649465846FFF795F9814651460198B3
:10CD1000FFF790F901464846FFF78CF9E065401CA3
:10CD200004D16A2246A151A0FEF77AFF564AE16D6E
:10CD300056484FF0000991420AD1016841F48051F0
:10CD40000160016801F480510091232284F8582089
:10CD50004E494F4BE26D091F9A420AD10A6842F4CC
:10CD600080420A600A6802F480420092242384F818
:10CD70005830484BE26D9A420AD10A6842F40042A8
:10CD80000A60096801F400410091332284F85820B8
:10CD9000414AE16D91420AD1016841F400510160BC
:10CDA000006800F400500090542184F85810204985
:10CDB0003846FFF77BF91F492846FFF777F91E49E8
:10CDC0004046FFF773F9A4F86050A4F86270A4F825
:10CDD0006480A4F86660701C04D018493046FFF7E0
:10CDE00065F902E04FF40071A161E16D21604FF43B
:10CDF000827161603821E1616D1C02D0C4F8089035
:10CE000002E04FF40041A160C4F81490C4F81090FF
:10CE1000C4F828900721E162C4F80C90C4F820906F
:10CE2000C4F824902046BDE8FC5FFEF7B3BC0000C8
:10CE30006CEE0008D8EE000820EF000880EF000834
:10CE40006D6265642D6465762F74617267657473B5
:10CE50002F5441524745545F53544D2F73746D5FA7
:10CE60007370695F6170692E630000007370696F91
:10CE7000626A2D3E73706920213D20285350494E2F
:10CE8000616D65294E430000003001404438024086
:10CE900000380040003C00400034014070B50446BA
:10CEA00000252046F7F782FD94F85100012811D1A2
:10CEB000606D28B10A4D400704D5094D083501E0E1
:10CEC000074DAD1C94F95800FCF711FE94F9580079
:10CED000FCF7EFFDA06E40F08040284070BD0000E0
:10CEE000020000402DE9F0470F46089E9246994601
:10CEF00080464046D8F80C10B1F5006F05D00021EF
:10CF000080F86C7019B1740802E00121F8E734462A
:10CF100090F958502846FCF7EAFD2846FCF7C9FD71
:10CF20001020002D04DB05F1E02181F8000405E06C
:10CF300005F00F0101F1E02181F8140D0DDB05F082
:10CF40001F014FF0010000FA01F04FEA55114FEABE
:10CF5000810101F1E021C1F800014FF00000012F33
:10CF600010D0022F14D0032F05D0002600B10026C8
:10CF70003046BDE8F087A3B24A4651464046F7F72F
:10CF800009FFF3E7A2B251464046F7F765FFEDE728
:10CF90004FF6FF7231464846F3F786FDA2B2494686
:10CFA0004046F7F7BFFDE1E72DE9F84FDDE90CC892
:10CFB0000A9C002902D00AB1012500E0002513B126
:10CFC0000CB1012600E00026C768B7F5006F0CD051
:10CFD000002755EA06092FD0016742674FF0000984
:10CFE000C0F878901FB1102702E00127F1E7082769
:10CFF00080F87C70C0F88030C0F88440C0F8889019
:10D0000080F88C70C0F8688090F95870DFF84C8018
:10D01000D8F80080103748F827C035420ED0A24219
:10D0200000D3224602D04267C0F8842000920A460C
:10D030004FF00301FFF756FFBDE8F88F35B10092BE
:10D040000A4600230121FFF74DFFF5E7002EF3D03C
:10D05000002202210094FFF745FFEDE708ED00E014
:10D0600013B58168B1F5004F0ED0C16D8A68C2F367
:10D070004002002AFAD0C4684FF40063019A9C422F
:10D0800008D192B2CA6007E00A23012201A9F7F78A
:10D09000AEFD1CBDD2B2CA60C16D8A68C2F3000287
:10D0A000002AFAD0C068984202D1C86880B21CBD7C
:10D0B000C868C0B21CBD012A04D0022A05D00022D3
:10D0C000F8F718B90122F8F715B90222F8F712B9E2
:10D0D00070B504462068C068804760684068A0B1A9
:10D0E000204600F09DF86168D1E90123C868D2E9C3
:10D0F00000565B1BB04108D3D06848606068016887
:10D100000029EAD090688847E7E72046BDE87040EC
:10D11000FFF740BA10B500F001F810BD10B5044695
:10D120002046FEF79BFB204600F07AF86168D1E9C3
:10D13000020110BD70B5154D28680169C943890702
:10D1400008D4C168C943890704D46FF002010161A2
:10D1500000F094F828680169C943490715D4C168EB
:10D16000C943490711D46FF0040101612868446A7A
:10D17000074E3068201AB0F57A7F06D3F6F720FD07
:10D18000296804F57A708863346070BD64150020E6
:10D1900040020020002000F00FB8012000F00CB881
:10D1A000022000F009B8032000F006B8042000F0C7
:10D1B00003B80520AFF30080F8B50546164800EB2C
:10D1C0008514A0F1280656F82520002A23D02068CF
:10D1D0000168124FC943090606D4C068000603D58A
:10D1E00010467A680121904720680168C943890682
:10D1F00007D4C068800604D57A6856F82500002157
:10D20000904720680168C943090704D44169C907E8
:10D2100001D040680090F8BD341200206402002064
:10D2200010B5044620684068804761680246D1E92D
:10D230000201FEF7F2F86268C2E9020110BD0000C7
:10D2400002496FF002000968086170476415002008
:10D2500003480068C16821F00201C1607047000006
:10D260006415002003480068416941F002014161F2
:10D270007047000064150020704700000148FFF768
:10D2800027BF000030EC000801480068704700002C
:10D29000240C0040064A1168CB6823F00203CB60DF
:10D2A000116848631068C16841F00201C1607047AD
:10D2B00064150020DFED040A20EE200ABDEEC00A4E
:10D2C00010EE100A00F007B8002474494FF47A7188
:10D2D0004843AFF3008070B50546FEF7DBF906461C
:10D2E0003046FFF717FF04463046FFF713FF001BD9
:10D2F000A842F9D370BD000010B500290AD0087803
:10D30000002807D005487844F3F7FEFB002801D039
:10D31000002010BD0248784410BD000082230000A8
:10D320007A23000010B500290AD00878002807D019
:10D3300005487844F3F7E8FB002801D0002010BD31
:10D340000248784410BD0000722300006A230000E8
:10D3500010B504462068002801D1201D20602168F6
:10D36000201D814204D05B2202490348FEF758FC8D
:10D37000206810BD8CF5000878F5000810B504464B
:10D38000002020602821201DF3F796FB201DFBF7CD
:10D3900016FD001F10BD10B5183000F037F8183812
:10D3A00010BD000010B5044602232C22024920467D
:10D3B000F3F7FCFB204610BD97D30008026808462F
:10D3C00010477047002801D00968016070470000CD
:10D3D0000022002905D04260826001600349C160DB
:10D3E0007047026042608260C2607047B0F500081A
:10D3F00070B505460C46E268002A03D05268214603
:10D4000028469047E068E860284670BD10B504469D
:10D41000E168002902D0896820468847204610BD6F
:10D4200070B504460D46AC4206D02046FFF7EEFF2D
:10D4300020462946FFF7DCFF204670BD0068004704
:10D440007047002801D00968016070470022002958
:10D4500005D04260826001600349C160704702608C
:10D4600042608260C2607047BCF5000810B5044697
:10D47000E168002902D0896820468847204610BD0F
:10D4800070B505460C46A5420AD02846FFF7EEFFC8
:10D49000E16819B14A68214628469047E168E96089
:10D4A000284670BD30B400280FD0136823B95468E3
:10D4B000E5070AD0002C08D0526800EB6200D207C2
:10D4C00001D00268D35830BC184730BC704730B424
:10D4D00000280FD0136823B95468E5070AD0002C40
:10D4E00008D0526800EB6200D20701D00268D3581E
:10D4F00030BC184730BC704770B504460D46E06834
:10D50000002805D140F24D4205490648FEF788FB48
:10D51000E068294602682046BDE8704010470000D8
:10D52000CDF50008C8F50008C068002801D001202A
:10D53000704700207047C068002801D00120704764
:10D540000020704721F00042A2F16052B2F5801F26
:10D5500001F0004328BFD2F17F6C0BD95FEA001CB9
:10D5600043EAC20242EB507018BF704728BF20F058
:10D5700001007047B2F5801FBCBF184670474FEAE4
:10D58000410C1CF5001F02D2084600F017BE70B512
:10D5900000F0B0FB00000089FFF7F6BF4FF000403D
:10D5A000A0F580007047000010B591EA030F48BF56
:10D5B00083F0004300F13084841A71EB030C05D230
:10D5C000121943EB0C03001B61EB0C01DFF824E1A3
:10D5D0004FEA1154A4EB135C1EEA430F18BF9EEAF6
:10D5E000445F73D023EA0E03DCF1200E21EA0451DC
:10D5F00043F4801332D322FA0CFE10EB0E0023FA10
:10D600000CFE41EB0E01CCF1200E03FA0EFE10EBE6
:10D610000E0051F10001B1F5801FCCF1200E32D285
:10D6200001EB045112FA0EF2BDE8104058BF7047EA
:10D63000401C38BF5FEA420218BF7047002814BF81
:10D6400020F0010041F100014FEA410313F5001FF2
:10D6500038BF7047A1F1C04100F09ABB012A43EBEB
:10D660000302ACF1200CDCF11F0E32BF4FF0000EB4
:10D6700023FA0CF310EB030041EB0451B4EB115F00
:10D68000D0D0A1EB045101F5801149085FEA3000C8
:10D6900001EB04510ED350F1000038BF12FA0EFE18
:10D6A00008D1BDE81040C9E7401C38BF5FEA42021C
:10D6B000CAD1C3E7BDE810404FEA410313F5001F8C
:10D6C00038BF7047A1F1C04100F062BB9EEA445FE1
:10D6D00008D011EA5E0FBDE8104004BF01F0004120
:10D6E00000207047BDE8104070B500F003FB00BF9C
:10D6F00064FBBE3E0000E0FF02494FF0000000F076
:10D70000A5BD00BF0000F87F491058BFC1F14041DE
:10D710005B1058BFC3F140438B42EFF3008070476A
:10D720002DE9C04130B4DFF8A0C23CEA111418BFA3
:10D730003CEA131400F0EC8081EA03051CEA1114A2
:10D7400044EAD57418BF1CEA131500F0C780A4EB97
:10D7500005044FF0004545EAC12145EAC32341EAEB
:10D76000505143EA525304F17F74994204F5003456
:10D770004FEAC0204FEAC22208BF904200F09C80CE
:10D780004FEA13650FF24016765D4FEA134506FB2C
:10D7900005F7C7F1807706FB07F74FEAD737A7FBF6
:10D7A00003687642C8F58038A7FB06CE38BFA8F1DB
:10D7B000010807FB08E64FF0000EA6FB028CE6FB13
:10D7C00003CEDCF1000CCEF1004E38BFAEF1010EFD
:10D7D000A6FB0C584FF000074FF00005E6FB0E8744
:10D7E000A1FB08C6A0FB07CE16EB0E0645F100050F
:10D7F000E1FB076515F1E04E7EBFA4F580345FEADA
:10D8000046066D4116F1800745F100054FEA1727DE
:10D810004FEA066647EA0567A6F1DE46B6F1805F85
:10D820004FEA15251FD9384624F0010C05EBC471C9
:10D83000BCF1FE6F01EB0C1102D8F0BCBDE8008119
:10D8400024425CBF01F5801E9EEAC47F02D4F0BC76
:10D85000BDE80081244238D4F0BCA1F1C041BDE84C
:10D86000004100F095BA4FEAD22242EA43524FEA11
:10D87000D323A7FB02864FEAD02040EA415007FBA2
:10D8800003661EEA0E0F4FEAD12105FB026658BF60
:10D89000A6EB0056B6EB00564FEA520E4EEAC37E98
:10D8A00018EB0E0E56EB530EBDD518EB02085E4179
:10D8B0007F1C55F10005B6E74FF480154FF00007C7
:10D8C0004FF000064FF00008ADE7F0BC4FF000004D
:10D8D00001F1C04101F00041BDE8008111EA0C1FD7
:10D8E0000CEA131500D00CE013EA0C1F00F02580A1
:10D8F0004FF00000F0BC81EA030101F00041BDE8F7
:10D900000081F0BCBDE8004181EA030100F040BAAB
:10D91000F0BCBDE8004170B500F0ECF9097EFC3EBA
:10D9200000F007B881EA03014FF0000001F0004168
:10D93000704781EA030100F02BBAF0BCBDE800415A
:10D940004FF0000021497047FFFDFBF9F7F5F4F2B5
:10D95000F0EEEDEBE9E8E6E4E3E1E0DEDDDBDAD88A
:10D96000D7D5D4D3D1D0CFCDCCCBCAC8C7C6C5C4E8
:10D97000C2C1C0BFBEBDBCBBBAB9B8B7B6B5B4B3FF
:10D98000B2B1B0AFAEADACABAAA9A8A8A7A6A5A4EA
:10D99000A3A3A2A1A09F9F9E9D9C9C9B9A999998AE
:10D9A0009797969595949393929191908F8F8E8E51
:10D9B0008D8C8C8B8B8A89898888878786858584DE
:10D9C00084838382828181800000FF070000F87FCA
:10D9D00051EA030C17D41CF5801F58BFBCF5801FFB
:10D9E00000F10680994218BF704708BF9042704707
:10D9F00007D711F5801F58BF13F5801F19D499421E
:10DA00007047894270471CF5801F08D5BCF5801F00
:10DA1000F7D58B4218BF704708BF824270474FF45A
:10DA2000001C1CEB410F38BF1CEB430F01D28B4293
:10DA3000704770B500F05EF9922449004FF0005134
:10DA40004FF08053FFF760BE4FEA41034FEA535354
:10DA5000A3F58063D3F11E03C8BFD3F1210C0CDD05
:10DA60004FF0004242EAC12242EA505232FA03FC2D
:10DA70008CEAE17CACEBE1707047102BC4BF002056
:10DA8000704703F5787CBCF1FF3F04D06FF0004293
:10DA900082EA2100704770B500F02CF94992248089
:10DAA00000207047F2E700004FEA1153A3F58063AE
:10DAB000D3F11E03A8BFD3F1200C08DB4FF00042C6
:10DAC00042EAC12252EA505232FA03F07047094248
:10DAD0000BD4102BC4BF0020704703F5787CBCF139
:10DAE000FF3F05D04FF0FF3070474FF00000704708
:10DAF00070B500F0FFF800BF499224800020704705
:10DB0000F0E7B0FA80F310FA03F10AD0C3F11D0375
:10DB100003F580634FEA41504FEA035202EBD121F3
:10DB200070474FF00000704751EA030C17D41CF502
:10DB3000801F58BFBCF5801F00F10680994218BFB6
:10DB4000704708BF9042704707D711F5801F58BF34
:10DB500013F5801F19D499427047894270471CF50C
:10DB6000801F08D5BCF5801FF7D58B4218BF7047C2
:10DB700008BF824270474FF4001C1CEB410F38BFB6
:10DB80001CEB430F01D28B42704770B500F0B2F826
:10DB9000922449004FF000514FF08053FFF7B4BD7D
:10DBA000DFF848C170B51CEA111E1EBF1CEA131530
:10DBB0009EEA0C0F95EA0C0F00F06F8081EA0304D7
:10DBC00023EA4C134EEAD47E21EA4C1141F4801131
:10DBD00043F48013AE44A1FB024CA0FB0365AEF1FD
:10DBE0007F7E361955EB0C05A1FB034C4CF100036D
:10DBF000A0FB021C16EB0C06654153F10003094221
:10DC000018BF46F0010613F4007F0BD14FEA033131
:10DC10004FEA0530340341EA155140EA16506FF0DF
:10DC200003020AE04FEAC3214FEAC520F40241EAA9
:10DC3000555140EA56506FF0020202EB2E4201EBC2
:10DC4000025585EACE710AD05FEA440C18BF24F071
:10DC5000004450F1000041F1000120EAD47040F28C
:10DC6000FE7C624500D270BDA84214BF4FF08044D4
:10DC70004FF04044002E08BF0024BEF1806FA8BFC3
:10DC8000A1F1C041BDE8704080F282804FF00000F9
:10DC900001F1C04101F0004170479EEA0C0F0CEA0F
:10DCA000131518BF95EA0C0F06D04FF0000081EA5B
:10DCB000030E0EF0004170BD00F01CF88900013E1B
:10DCC00000F007B800F009B84FEA430C5FEA5C5C6B
:10DCD00008D081EA030100F05BB84FEA410C5FEA2B
:10DCE0005C5CF6D14FF00000014970470000FF076F
:10DCF0000000F87F0EF1020E2EF0030E5EF8046BAA
:10DD0000364205D4012A43EB030515F5001F12D84E
:10DD1000012841EB010C1CF5001F0CD80ED14FEA75
:10DD2000D17C15F5001F0CEB4C0C0CF1020C08BF5C
:10DD30004CEBD37C04E04FF0080C01E04FEAD37CBD
:10DD40000CEB4C0526FA05F606F00706B6F1040CB6
:10DD500006D20EEB860CBDE870404CF0010C60471B
:10DD6000DFE80CF0090B02024FF000414FF0000019
:10DD7000A1F5002170BD19461046012851EB0104A0
:10DD800018BFD4F5001484BF002001F0004170BD1D
:10DD90000808A0F500114FEA3101704753EA010C61
:10DDA00017D41CF5801F58BFBCF5801F00F10680FA
:10DDB0008B4218BF704708BF8242704707D713F5E0
:10DDC000801F58BF11F5801F19D48B4270479B42AA
:10DDD00070471CF5801F08D5BCF5801FF7D5994208
:10DDE00018BF704708BF904270474FF4001C1CEBEF
:10DDF000430F38BF1CEB410F01D2994270470FB45B
:10DE00000CBC03BCFFF7C1BE10B591EA030F48BFBD
:10DE100083F000433FF5D0AB841A71EB030C07D2BB
:10DE200012198CF0004C43EB0C03001B61EB0C014E
:10DE3000DFF8A4E14FEA1154A4EB135C1EEA430F90
:10DE400018BF9EEA445F00F0B08023EA6E0352429E
:10DE500021EA0451C3EB6E0338BF5B1EDCF1200ED8
:10DE600025D322FA0CFE10EB0E0043FA0CFE41EB18
:10DE70000E01CCF1200E03FA0EFE10EB0E0051F154
:10DE80000001CCF1200E29D412FA0EF201EB04515C
:10DE9000BDE8104058BF7047401C1CBFB2F1004F96
:10DEA000704700280CBF491C20F00100704712EB9E
:10DEB000020E43EB030218BF4FF0010E4EEA42027E
:10DEC000ACF1200CDCF11E0E54D943FA0CFE10EB21
:10DED0000E0051F1FF31CCF11E0ED5D50EF1010E21
:10DEE00012FA0EFE404141EB010101EB445C5FEA96
:10DEF0005C5C10D910EBDE7001EB045138BFBEF151
:10DF0000004FBDE8104018BF704700280CBF491CE7
:10DF100020F00100704730D24FEAD42C11F50011E7
:10DF200024F400641BD0B1FA81F20B3AA41AA41EA7
:10DF3000D2F12003914030FA03F31943904001EBF2
:10DF4000CC71002C01EB0451BDE81040A8BF704714
:10DF500001F1C0414FF0000001F000417047B0FAFC
:10DF600080F310FA03F100D110BDE41A173C480504
:10DF7000C90AE4E701EB045110BD491001EB04515B
:10DF8000BDE810404FEA300002E04FF0000170475A
:10DF90004A0008BF0042F8D0B2F5001F28BF704702
:10DFA00001F000414FF0000070479EEA445F07D047
:10DFB00011EA5E0FBDE8104004BF00210020704749
:10DFC000BDE8104070B5FFF795FE00BF40DFF63E9C
:10DFD00083F00041104670470000E0FF43004FEA25
:10DFE000D30C4FEA3C0C43401FBF40070CF160517B
:10DFF00013F0FE4F70471CF0006F03D100200CF0AF
:10E00000004170470CF0004343EA507010B540EAFD
:10E01000CC0000F00EF800BF000000924FEA0001B3
:10E02000FFF7B6BE4FF000414FF00000A1F5002110
:10E0300070470EF1020E2EF0030E5EF8044B2442E0
:10E0400004D44FEA4102B2F17F4F11D84FEA4003A6
:10E05000B3F17F4F0CD80ED14FEAD07CB2F17F4F95
:10E060000CEB4C0C0CF1020C08BF4CEBD17C04E027
:10E070004FF0080C01E04FEAD17C0CEB4C0324FA82
:10E0800003F404F00704B4F1040C06D20EEB840C84
:10E09000BDE810404CF0010C6047DFE80CF00708C9
:10E0A00002024FF00040A0F5800010BD084642007B
:10E0B00018BFD2F1807288BF00F0004010BD4FF051
:10E0C0004070E1EE100A70474FF07F4C3CEA41038C
:10E0D00018BF3CEA400200F062804FF47F0C10F061
:10E0E000004F0CEAD11318BF43F005031CEAD0120D
:10E0F00018BF13EA0C0F00F057804FF0004C4CEAA9
:10E1000000204CEA0121A3F580339A4210DDB0F1E2
:10E11000004F23F0020306D3401A43F00203BCBFB2
:10E12000404283F001034FEA4000A2F58032ECE761
:10E130004FEA224CBCEB234F08DB884206D31CD0AD
:10E14000A0EB4100C0F1000083F0010340001DD2AC
:10E1500017D40DD0B0FA80FC0CF1010C00FA0CF0D1
:10E16000A2EB0C42D2F1000C12DB4FEAC3707047F5
:10E170004FEA437000F00040704713F0020FE5D003
:10E18000DEE7B2F580324FEA4000EBDD002AE9DD40
:10E190004FEAC21242EA502040EAC370704710B5FD
:10E1A000FFF747FFEDFFFF3E1CEAD11F02D000F052
:10E1B00000407047004870470000C07FFF2141EADF
:10E1C000D050C00570474FF0000070474FEAC123A0
:10E1D0000A1543EA50534FEAC02C18BF43F00043DE
:10E1E0001BD4A2F24E02D2F57C72C0F22080502ADB
:10E1F000A8BF502223FA02F12CFA02F060B4D2F147
:10E20000200284BF03FA02F52843C2F100029CBF3A
:10E2100023FA02F5284360BC704701F1804212F5F1
:10E22000801F04DA4FF000004FF00001704770B516
:10E23000FFF760FD49922480002001E06FEAE17061
:10E2400001467047F2F779BEF3F7D8BD0CF00F0323
:10E25000092B08BF082000F05F800A2B0BD0082B89
:10E2600018BF704708BF1CF0400F0AD04FF00000E5
:10E270004FF0000170471CF0400F18BF4FF00040F6
:10E2800070471CF0100F08D020F0704300F07F4260
:10E2900042EAD3014FEA4370704700F0604021F03A
:10E2A0007F4242EA000201F07F4040EA727070470C
:10E2B0004FF0FF0C4CF4E06C1CEA11531CBF9CEABD
:10E2C000030C9445C2BFDA4201EB02517047002BA8
:10E2D0000DD0BCF1000F0FD0002A01F00041A4BF07
:10E2E00041F0E04141F07F614FF00000704701F0E4
:10E2F00000414FF00000704750EA01334FF09B0C93
:10E3000018BF4CF0806C7FF4F7A97047F4F77EB823
:10E31000F4F7B0BBF4F73EBD1CF4801F11D01CF421
:10E32000E02F03D06FEACC31490070474FF04050E6
:10E33000EFF3008222F0704242EA000282F300888A
:10E3400070474FF000007047000000002975493CFD
:10E35000DF6EC93C6F0E173D3160493D8FA97B3D93
:10E3600038F4963D6B0EB03D4721C93D5E2EE23D2F
:10E37000EC2FFB3D7F130A3E698C163E76FD223E54
:10E38000A5662F3E97CA3B3E4A29483E807D543EB3
:10E39000DAC9603E560E6D3EF54A793E3CBD823E7E
:10E3A0000FD1883EA4DF8E3EFBE8943EC4EB9A3E3C
:10E3B000FFE7A03EFCDEA63E6CCFAC3E4EB9B23EBF
:10E3C000A29CB83E1878BE3EB24BC43EBD18CA3EB1
:10E3D000ECDDCF3EED99D53E614FDB3E59FAE03E94
:10E3E000C39EE63EB038EC3E71C9F13E5452F73E52
:10E3F000BBD0FC3E5322013FB2D7033FD387063F39
:10E40000B532093F5AD80B3FC0780E3F4013113F39
:10E4100082A8133FDF37163F55C1183FE5441B3F25
:10E420008FC21D3F543A203F8AAB223FDB16253F67
:10E430009E7B273FD3D9293F7B312C3FED812E3F57
:10E4400079CC303FD00F333FF14B353F8481373F9C
:10E45000E2AF393F0AD73B3FFDF63D3F130F403F48
:10E460009B20423F9E29443F132C463F0326483FB2
:10E47000BD184A3F9B034C3FF3E54D3F16C14F3F4C
:10E48000B493513F745E533F5721553F0EDB563FC7
:10E490008F8D583FE3365A3FB2D75B3FA4705D3F44
:10E4A00069005F3F5188603F0C07623F9A7C633F81
:10E4B000A3E9643F274E663F7EA9673F50FC683F53
:10E4C0004E456A3FC6856B3F12BD6C3F31EB6D3FD9
:10E4D00023106F3F412B703FD93D713F9D46723FE6
:10E4E0003546733F9F3C743F3529753F9E0C763F00
:10E4F00032E6763F9AB6773F2C7D783FEB39793F0D
:10E500007CED793F39977A3F22377B3F36CD7B3F91
:10E5100075597C3F87DC7C3F1D557D3F87C47D3F1F
:10E5200074297E3F34857E3F77D67E3F8E1E7F3FA7
:10E53000295C7F3FEF8F7F3F88BA7F3FA5DA7F3F1F
:10E54000EDF07F3F61FD7F3F0000803F23F87F3F7C
:10E5500019E77F3F92CB7F3F37A67F3FAF777F3F63
:10E56000AB3E7F3FD2FB7E3F25AF7E3FA3587E3F31
:10E570004DF87D3F228E7D3F221A7D3F4E9C7C3F91
:10E58000A5147C3F27837B3FD5E77A3F57437A3FEB
:10E590000395793FDBDC783FDF1A783FB54F773F53
:10E5A000B77A763FE59B753FE5B3743FB9C2733FD9
:10E5B000B9C7723F8BC3713F31B6703F029F6F3F47
:10E5C000A67E6E3F1D556D3F68226C3F86E66A3F12
:10E5D0001FA2693FE353683F22FD663F349D653FBC
:10E5E0001A34643F22C3623F5648613FACC55F3F67
:10E5F000D6395E3F7AA55C3F9A085B3F3563593F49
:10E600004AB5573F82FF553F8E40543F637A523F91
:10E61000B4AB503F80D44E3F6FF54C3F280F4B3F7B
:10E620005C20493FB329473FD42B453F1826433F41
:10E630007E18413FB0033F3FABE73C3F72C43A3FD7
:10E640005B99383FB667363FDC2E343FCCEE313F26
:10E650002FA82F3F5C5A2D3FFB052B3F0DAB283FCA
:10E660009049263F2EE2233F9773213F19FF1E3F1B
:10E67000B6841C3FC5031A3F957D173FD8F0143F61
:10E68000DD5E123FFCC60F3F35290D3F2F860A3F46
:10E69000ECDD073F6A30053FAA7D023F598BFF3E04
:10E6A0003012FA3E8A8EF43E0803EF3E096DE93ED1
:10E6B000DDCDE33E8525DE3E4F75D83E3CBDD23EE6
:10E6C000FCFBCC3EDF32C73E3563C13E5D8ABB3EBC
:10E6D00047ACB53E05C5AF3E84D8A93E75E5A33E1F
:10E6E00089EA9D3E60EA973EF7E4913E02D98B3E6F
:10E6F000CEC7853EB7627F3EF52D733EB7EE663ED0
:10E70000FDA45A3E65534E3EF0F9413E3D9B353ED9
:10E710000E32293EA0C31C3EF44F103E0AD7033EE2
:10E72000C4B1EE3DB9A5D53DA298BC3D1B82A33D29
:10E7300049658A3D6685623DD637303DF7C7FB3C6B
:10E74000C615973C5374C93B5374C9BBC61597BCD7
:10E75000F7C7FBBCD63730BD668562BD49658ABD4B
:10E760001B82A3BDA298BCBDB9A5D5BDC4B1EEBDE9
:10E770000AD703BEF44F10BEA0C31CBE0E3229BE82
:10E780003D9B35BEF0F941BE65534EBEFDA45ABE59
:10E79000B7EE66BEF52D73BEB7627FBECEC785BE2F
:10E7A00002D98BBEF7E491BE60EA97BE89EA9DBEAE
:10E7B00075E5A3BE84D8A9BE05C5AFBE47ACB5BE3E
:10E7C0005D8ABBBE3563C1BEDF32C7BEFCFBCCBEBB
:10E7D0003CBDD2BE4F75D8BE8525DEBEDDCDE3BEC5
:10E7E000096DE9BE0803EFBE8A8EF4BE3012FABE90
:10E7F000598BFFBEAA7D02BF6A3005BFECDD07BFA3
:10E800002F860ABF35290DBFFCC60FBFDD5E12BFC4
:10E81000D8F014BF957D17BFC5031ABFB6841CBFBF
:10E8200019FF1EBF977321BF2EE223BF904926BF59
:10E830000DAB28BFFB052BBF5C5A2DBF2FA82FBFE8
:10E84000CCEE31BFDC2E34BFB66736BF5B9938BF24
:10E8500072C43ABFABE73CBFB0033FBF7E1841BFB5
:10E86000182643BFD42B45BFB32947BF5C2049BFFF
:10E87000280F4BBF6FF54CBF80D44EBFB4AB50BF19
:10E88000637A52BF8E4054BF82FF55BF4AB557BF0F
:10E89000356359BF9A085BBF7AA55CBFD6395EBFA6
:10E8A000ACC55FBF564861BF22C362BF1A3464BFA4
:10E8B000349D65BF22FD66BFE35368BF1FA269BFD9
:10E8C00086E66ABF68226CBF1D556DBFA67E6EBF0F
:10E8D000029F6FBF31B670BF8BC371BFB9C772BF24
:10E8E000B9C273BFE5B374BFE59B75BFB77A76BF96
:10E8F000B54F77BFDF1A78BFDBDC78BF039579BFF0
:10E9000057437ABFD5E77ABF27837BBFA5147CBF67
:10E910004E9C7CBF221A7DBF228E7DBF4DF87DBFED
:10E92000A3587EBF25AF7EBFD2FB7EBFAB3E7FBF6D
:10E93000AF777FBF37A67FBF92CB7FBF19E77FBF7F
:10E9400023F87FBF000080BF61FD7FBFEDF07FBF78
:10E95000A5DA7FBF88BA7FBFEF8F7FBF295C7FBFFB
:10E960008E1E7FBF77D67EBF34857EBF74297EBF63
:10E9700087C47DBF1D557DBF87DC7CBF75597CBFBB
:10E9800036CD7BBF22377BBF39977ABF7CED79BF0D
:10E99000EB3979BF2C7D78BF9AB677BF32E676BF68
:10E9A0009E0C76BF352975BF9F3C74BF354673BF3B
:10E9B0009D4672BFD93D71BF412B70BF23106FBF01
:10E9C00031EB6DBF12BD6CBFC6856BBF4E456ABFD4
:10E9D00050FC68BF7EA967BF274E66BFA3E964BF2E
:10E9E0009A7C63BF0C0762BF518860BF69005FBF3C
:10E9F000A4705DBFB2D75BBFE3365ABF8F8D58BFDF
:10EA00000EDB56BF572155BF745E53BFB49351BF41
:10EA100016C14FBFF3E54DBF9B034CBFBD184ABFA6
:10EA2000032648BF132C46BF9E2944BF9B2042BFEC
:10EA3000130F40BFFDF63DBF0AD73BBFE2AF39BF62
:10EA4000848137BFF14B35BFD00F33BF79CC30BF96
:10EA5000ED812EBF7B312CBFD3D929BF9E7B27BF31
:10EA6000DB1625BF8AAB22BF543A20BF8FC21DBF21
:10EA7000E5441BBF55C118BFDF3716BF82A813BFBF
:10EA8000401311BFC0780EBF5AD80BBFB53209BFB3
:10EA9000D38706BFB2D703BF532201BFBBD0FCBE92
:10EAA0005452F7BE71C9F1BEB038ECBEC39EE6BE8B
:10EAB00059FAE0BE614FDBBEED99D5BEECDDCFBEAD
:10EAC000BD18CABEB24BC4BE1878BEBEA29CB8BEAA
:10EAD0004EB9B2BE6CCFACBEFCDEA6BEFFE7A0BE98
:10EAE000C4EB9ABEFBE894BEA4DF8EBE0FD188BEF5
:10EAF0003CBD82BEF54A79BE560E6DBEDAC960BE17
:10EB0000807D54BE4A2948BE97CA3BBEA5662FBE2B
:10EB100076FD22BE698C16BE7F130ABEEC2FFBBDAC
:10EB20005E2EE2BD4721C9BD6B0EB0BD38F496BD67
:10EB30008FA97BBD316049BD6F0E17BDDF6EC9BCAB
:10EB4000297549BC00000000000000000000000022
:10EB500001000000000000000200000000000000B2
:10EB6000030000000000000003000000010000009E
:10EB7000040000000100000005000000010000008A
:10EB80000600000001000000060000000200000076
:10EB90000700000002000000080000000200000062
:10EBA000090000000200000009000000030000004E
:10EBB0000A000000030000000B000000030000003A
:10EBC0000C000000030000000D0000000300000026
:10EBD0000D000000040000000E0000000400000012
:10EBE0000F000000040000000F00000005000000FE
:10EBF0000F000000060000000F00000007000000EA
:10EC00002F737464696E002F7374646F7574002FB2
:10EC1000737464657272000079D2000889D20008AA
:10EC200051D2000841D2000895D2000865D20008F0
:10EC300018EC0008B811002000000000000000409F
:10EC4000121100000100000000000040122100002D
:10EC50000500000000000040121100000600000046
:10EC600000040040121200000700000000000140F4
:10EC70001211020008000000000001401211000003
:10EC80000900000000000140122100000A000000FD
:10EC900000000140123100000B00000000000140A4
:10ECA000124100000F00000000000040121100009F
:10ECB00010000000000001401221020011000000BD
:10ECC000000001401231020012000000000000406C
:10ECD000124100001300000000000040122100005B
:10ECE0001400000000040040121200001500000093
:10ECF000000400401222000016000000000800403E
:10ED0000121200001700000000080040122200004C
:10ED10001800000000080040123200001900000036
:10ED200000080040124200001A00000000000040ED
:10ED3000123100001D00000000000140121102000D
:10ED40001E00000000000140122102001F00000010
:10ED500000000140123102002600000000040040C3
:10ED600012120000270000000004004012220000E0
:10ED700028000000000400401232000029000000BA
:10ED80000004004012420000FFFF0000FFFFFFFFF1
:10ED90000000000000000000004C004012080000CD
:10EDA00002000000004400401207000009000000BB
:10EDB0000010014012070000160000000010014082
:10EDC000120700001A00000000480040120700006F
:10EDD0002600000000140140120800002A00000074
:10EDE00000480040120700002C00000000500040C6
:10EDF00012080000FFFF0000FFFFFFFF00000000FF
:10EE000001000000004C0040120800000300000058
:10EE100000440040120700000A00000000100140FA
:10EE20001207000017000000001001401207000048
:10EE300025000000004800401207000027000000E5
:10EE400000140140120800002B00000000480040A0
:10EE500012070000320000000050004012080000BD
:10EE6000FFFF0000FFFFFFFF0000000007000000A1
:10EE7000003001401205000010000000003C00407E
:10EE80001207000012000000003C004012070000C2
:10EE900015000000003C0040120600001F000000AA
:10EEA0000038004012050000230000000038004038
:10EEB0001205000021000000003800401207000089
:10EEC0002C000000003C004012060000FFFF000084
:10EED000FFFFFFFF000000000600000000300140BF
:10EEE0001205000014000000003C00401206000063
:10EEF0001E00000000380040120500002200000043
:10EF000000380040120500002B000000003C0040CB
:10EF100012060000FFFF0000FFFFFFFF00000000DF
:10EF2000050000000030014012050000090000004B
:10EF3000003800401205000013000000003C0040B3
:10EF4000120600001A000000003800401205000000
:10EF50001D000000003800401205000027000000DE
:10EF600000380040120500002A000000003C00406C
:10EF700012060000FFFF0000FFFFFFFF000000007F
:10EF80000400000000300140020500000400000001
:10EF9000003C0040020600000F000000003001406D
:10EFA000020500000F000000003C004002060000C7
:10EFB0001900000000380040020500001C0000009D
:10EFC0000038004002050000FFFF0000FFFFFFFFC8
:10EFD000000000001800000000640040020900006A
:10EFE0001C0000000068004002090000150000003D
:10EFF00000680040020900000B00000000640040AF
:10F0000002090000FFFF0000FFFFFFFF00000000FB
:10F010001900000000640040020900001D0000000B
:10F02000006800400209000016000000006800406F
:10F03000020900000C00000000640040020900000A
:10F04000FFFF0000FFFFFFFF0000000001000000C5
:10F050000200000004000000080000001000000092
:10F0600020000000400000008000000000010000BF
:10F070000002000000040000000800000010000072
:10F080000020000000400000008000000000004060
:10F0900000000000000400400000000000080040E4
:10F0A00000000000000C00400000000000180040BC
:10F0B00000000000001C0040000000000020004094
:10F0C00000000000000001400100000000040140B9
:10F0D0000100000000400140010000000044014028
:10F0E0000100000000480140010000000000000095
:10F0F00002000000F18A000800000000000000008B
:10F1000000000000A59000080000000000000000C2
:10F110000000000000000800100018002000280077
:10F12000300038000000000000000000010203046D
:10F1300006070809000000000102030430313233E1
:10F14000343536373839414243444546403058001B
:10F15000303132333435363738396162636465664D
:10F1600040307800040000080000000000000002A9
:10F17000000100001000000000000000000000007E
:10F180000000B33FB2BE7D3A00002E40DFCF5138C1
:10F1900000007E40BF51FABA00E0A44019DAC3BAB9
:10F1A00000E0C840C2ED8AB90040EB40CD1F2CBA48
:10F1B000001006412AFFFABA00C01541DFCFD1374F
:10F1C00000D024419A97703A0050334189478E36D7
:10F1D00000404141E75B9D3800B04E41C00A98B9FC
:10F1E00000A05B41558F943A00306841DA92C0BA72
:10F1F0000040744162B3C63A0000803F00A0853FE2
:10F2000000908B3F00C0913F0030983F00F09E3F40
:10F2100000F0A53F0050AD3F0000B53F0000BD3FEE
:10F220000060C53F0020CE3F0040D73F00C0E03F18
:10F2300000C0EA3F0020F53F000000007D36AC39F9
:10F240007D3C3839EBDCF438320A7E39124C2639F1
:10F250009B6AED39A4EE83397F661E39F6398A3907
:10F260002B426539A48211395B991F39C3EECD3920
:10F27000DDE7C637A5A22F390000803FC3AA853F2E
:10F28000C2958B3FD3C3913FF037983F32F59E3FF5
:10F29000D7FEA53F3F58AD3FF304B53FA408BD3F9F
:10F2A0002A67C53F8C24CE3FFD44D73FDFCCE03FEB
:10F2B000C7C0EA3F7D25F53F0000000000000000C8
:10F2C000000000006E83F9A22915444ED15727FC97
:10F2D000C0DD34F5999562DB4190433CAB6351FE50
:10F2E00030313233343536373839616263646566BC
:10F2F0007870003031323334353637383941424353
:10F30000444546585000000002400000000000A0A4
:10F310000000000005400000000000C800000000E0
:10F320000C4000000000409C00000000194000005C
:10F330000020BCBE0000000034400000BFC91B8E8E
:10F3400000000004B5400000504BCFD06607E2CF6C
:10F35000010000006C4100003E8251AADFEEA7349C
:10F3600001000000D9420000DCB5A0E23A301F974E
:10F37000FFFFFFFFB4450000FD25A0C8E9A3C14F72
:10F38000FFFFFFFFFF3F00000000008000000000C3
:10F39000FF3F0000000000800000000000000000AF
:10F3A000000000006D8700084B87000857870008A1
:10F3B0003F8700085187000845870008F986000844
:10F3C000398700082D870008658700086D890008C7
:10F3D000338700080000000000000000000000006B
:10F3E00000000000539B0008539B0008539B00083B
:10F3F000539B0008000000009F8A000800000000E6
:10F4000000000000678A0008000000000000000003
:10F4100000000000000000000000000000000000EC
:10F420000000000000000000738B0008FB8B000848
:10F43000098D00080000000000000000000000002E
:10F44000C98F000800000000418E00084F8F00089F
:10F450000000000000000000919100080000000082
:10F46000819100080192000821930008000000002B
:10F470000000000000000000359300083F930008E2
:10F480006993000800000000379300083B930008D0
:10F4900044FFFFFF0000000000000000000000002B
:10F4A000E3930008279400081B94000823940008A5
:10F4B000000000005F940008000000000000000051
:10F4C0001F94000800000000000000000000000081
:10F4D000000000000000000000000000D1990008BA
:10F4E000CB990008C5990008D799000840FFFFFF95
:10F4F000000000000000000000000000000000000C
:10F50000000000000195000800000000E3930008DF
:10F51000279400081B9400082394000800000000B2
:10F520005F94000800000000000000001F94000825
:10F5300000000000000000000000000000000000CB
:10F540000000000000000000539B0008539B0008CF
:10F55000B793000895940008FCFFFFFF000000002F
:10F56000000000000000000000000000000000009B
:10F57000B1950008000000005F707472203D3D20CE
:10F580002854202A29265F64617461006D626564D5
:10F590002D6465765C706C6174666F726D2F536953
:10F5A0006E676C65746F6E5074722E680000000098
:10F5B000BDD30008C5D30008C3D300083DD400085C
:10F5C00043D4000841D400085F6F7073006D62651A
:10F5D000642D6465765C706C6174666F726D2F4328
:10F5E000616C6C6261636B2E68005F6F7073006D9D
:10F5F0006265642D6465765C706C6174666F726DB3
:10F600002F43616C6C6261636B2E68000A0D20549D
:10F610006F206368616E676520612076616C756537
:10F620002C207479706520277072656669782727A9
:10F6300076616C75652727454E544552270A0D2083
:10F64000692E652E202762313030302727454E54F1
:10F650004552270A0D0A0D00BCF70008C40100201E
:10F66000CC0000000002000888F80008900200208A
:10F67000281400001C020008000000000000F07FB9
:10F68000FFFFFFFFFFFFEF7F1C00000043000000B3
:10F69000F8FFFFFF0C0000000E0000000F0000004C
:10F6A0002E0000001001000043000000F8FFFFFFE3
:10F6B0000040404040404040404041414141414085
:10F6C000404040404040404040404040404040403A
:10F6D00040050202020202020202020202020202C9
:10F6E00002202020202020202020200202020202CE
:10F6F0000202909090909090101010101010101026
:10F700001010101010101010101010100202020231
:10F710000202888888888888080808080808080875
:10F720000808080808080808080808080202020271
:10F730004000000000000000000000000000000089
:10F7400000000000000000000000000000000000B9
:10F7500000000000000000000000000000000000A9
:10F760000000000000000000000000000000000099
:10F770000000000000000000000000000000000089
:10F780000000000000000000000000000000000079
:10F790000000000000000000000000000000000069
:10F7A0000000000000000000000000000000000059
:10F7B00000000000B1B0FFFF79B0FFFF00000000C3
:10F7C00000000008004000080080000800C0000899
:10F7D00000000108000002080000040800000608FC
:10F7E00000000000080000001000000018000000E9
:10F7F0002000000030000000300000003800000051
:10F8000000000000000000000000000000000000F8
:10F8100000000000000000000000000000000000E8
:10F8200000000000000000000000000000000000D8
:10F8300000000000000000000000000000000000C8
:10F8400000000000000000000000000000000000B8
:10F8500000000000000000000000000000000000A8
:10F860000000000000000000000000000000000098
:10F87000000000000024F400000000000000000070
:08F88000000000000000000080
:04000005080001C529
:00000001FF
