:020000040800F2
:10000000E0CE0020DD010008BF420008813D00086D
:10001000BD420008D9100008594F00080000000038
:100020000000000000000000000000002144000863
:100030009914000800000000C14200085D46000855
:10004000F7010008F7010008F7010008F7010008B0
:10005000F7010008F7010008F7010008F7010008A0
:10006000F7010008F7010008F7010008F701000890
:10007000F7010008F7010008F7010008F701000880
:10008000F7010008F7010008F7010008F701000870
:10009000DD100008F7010008F7010008F70100086B
:1000A000F701000805470008F7010008F7010008FC
:1000B0008D470008F7010008F7010008F701000864
:1000C000F7010008F7010008F7010008F701000830
:1000D000F7010008F70100084D4F0008F70100087C
:1000E000F7010008F7010008F7010008F701000810
:1000F000F7010008F7010008F7010008F701000800
:10010000F7010008F7010008F7010008F7010008EF
:10011000F7010008F7010008F7010008F7010008DF
:10012000F7010008F7010008F7010008F7010008CF
:10013000F70100080000000000000000F7010008BF
:10014000F7010008F7010008F7010008F7010008AF
:10015000F7010008F7010008F7010008F70100089F
:10016000F7010008F7010008F7010008F70100088F
:10017000F7010008F7010008F7010008000000007F
:1001800000000000F701000800000000000000006F
:10019000F70100080000000000000000F70100085F
:1001A000000000000000000000000000F70100084F
:1001B000F7010008F7010008F7010008F70100083F
:1001C000F7010008DFF810D000F098FC0048004765
:1001D00061840008AFF30080E0CE0020064880472D
:1001E00006480047FEE7FEE7FEE7FEE7FEE7FEE71C
:1001F000FEE7FEE7FEE7FEE7E9460008C501000866
:100200002DE9F05F0546002092469B46884606464B
:10021000814640241BE0284641464746224600F0DE
:100220002DFA53465A46C01A914110D3114618462A
:10023000224600F014FA2D1A67EB01084F462246B9
:100240000120002100F00BFA17EB00094E41201E9F
:10025000A4F10104DFDC484631462A464346BDE8A6
:10026000F09F40EA01039B0703D009E008C9121F71
:1002700008C0042AFAD203E011F8013B00F8013B60
:10028000521EF9D27047D2B201E000F8012B491E8C
:10029000FBD270470022F6E710B513460A46044623
:1002A0001946FFF7F0FF204610BD70B5064604F072
:1002B000B3FE046805460A220021304600F04EFADB
:1002C0002C6070BD2DE9FE4F804681EA0300C00F0F
:1002D0000C46009021F0004123F00045B8EB0200ED
:1002E000A94105D24046214690461C460B4602468F
:1002F00023F00040104347D0270DC7F30A00C3F393
:100300000A510290401A019040286BDAC3F313009F
:1003100040F4801B0098924620B10023D2EB030AE0
:1003200063EB0B0B01985946C0F14002504600F0B8
:1003300096F906460D4650465946019A00F0AEF928
:1003400010EB08006141002487EA115284EAE77348
:100350001A4340D0009A62B3019A012A4FEA075229
:1003600015DC001B61EB02014FF0004202EA07526C
:10037000CDE90042001C41F5801132462B4600F0C9
:100380006BFA03B0BDE8F08F40462146F9E7001B49
:1003900061EB0201001C41F5801300185B4120183D
:1003A000A2F5001747EB030140EAD570B6196D417D
:1003B00011E06D084FEA360645EAC0754FEA07526C
:1003C000001B61EB0201001C41F5801149084FEA56
:1003D00030000019514132462B4603B0BDE8F04FC2
:1003E00000F02BBA0098012240000023D0EB02025B
:1003F00063EBE073009821464FEAE074B8EB00002D
:1004000061EB0401E9E783F000435BE781F0004121
:1004100058E72DE9FE4F81EA030404F0004421F07F
:10042000004100944FF0000B23F0004350EA010418
:100430005ED052EA03045BD0C3F30A54C1F30A55F9
:100440002C44A4F2F3340194A0FB0254C1F3130131
:1004500041F48011C3F3130343F4801301FB0244FE
:1004600000FB034E840A970A44EA815447EA835703
:10047000A4FB076802958D0A05FB07854FEA932CBC
:1004800004FB0C542705029D4FEA065847EA16372D
:10049000B5EB08056EEB070C870E920E47EA811745
:1004A00042EA8312A7FB0201B6EB0B0164EB0004E6
:1004B0002B0D43EA0C335E1844EB1C50DA465146D0
:1004C000E7FB0201C5F313044FEA0B3343EA14536D
:1004D0004FEA0432019C43EA0603A4F10C0402949F
:1004E000009CCDE900B400F0B7F903B0BDE8F08F8F
:1004F00000200146F9E72DE9F04D81EA030404F0FC
:10050000004B21F0004514464FF0000A23F0004153
:1005100050EA050220D054EA01021DD0C5F30A5763
:100520000246C5F31303C1F31300C1F30A5640F4A6
:10053000801543F48013A7EB0608101BD64608F27B
:10054000FD3873EB050002D308F1010801E09218B1
:100550005B41B8F1000F03DA00200146BDE8F08DE1
:1005600000204FF48011064684460EE0171B73EB03
:10057000050705D3121B63EB050306434CEA010C88
:1005800049084FEA300092185B4150EA0107EDD16B
:1005900052EA030012D082EA040083EA050108430C
:1005A00005D0101BAB4106D20122002306E0002239
:1005B0004FF0004302E06FF0010253101AEB060007
:1005C0004CEB085110EB0A0041EB0B01BDE8F04D7C
:1005D00000F033B900F0004230F000400AD0C10D05
:1005E00001F56071C0F3160042EA0151C2084007EC
:1005F0001143704700200146704701F0004330B4BA
:1006000021F0004150EA010206D00A0DA2F5607205
:10061000C1F31301002A02DC30BC00207047440FF4
:1006200044EAC104C100E01830BC00EBC25000F045
:10063000CDB830B50B46014600202022012409E048
:1006400021FA02F59D4205D303FA02F5491B04FA8B
:1006500002F52844151EA2F10102F1DC30BD202A6A
:1006600004DB203A00FA02F1002070479140C2F109
:10067000200320FA03F3194390407047202A04DB3B
:10068000203A21FA02F00021704721FA02F3D0400B
:10069000C2F120029140084319467047202A06DB28
:1006A000CB17203A41FA02F043EAE07306E041FA40
:1006B00002F3D040C2F1200291400843194670472E
:1006C0000FB4002300B589B00CA900910B996FF00D
:1006D0000042CB601E4B06931E4B07930423CDE9CB
:1006E00001321D4A089202466B46002000F0BAFA19
:1006F00009B05DF814FB70B586B006464FF0FF30C8
:100700000091CDE90101002015460C4604903246C7
:10071000694604A8FFF7D4FF02460498211825B1C2
:1007200008B1084600E020462860049800280DD053
:10073000002A02DD0098884208D0081B0094CDE909
:1007400001043246694604A8FFF7BAFF06B070BD3F
:100750009D0E0008BB0E0008290B00082DE9F0478C
:1007600091460F4680460446002614F8015B2DB1E1
:1007700000F0D6F90068405DC007F6D12B2D02D0FD
:100780002D2D18D0641E4A463946204600F0A6FB9F
:1007900027B13968A14201D1C7F8008071054FF037
:1007A00002040BD54042002803DD04F035FC046050
:1007B000A007BDE8F08746F48066E4E70028F8DA91
:1007C00004F02AFC04606FF00040F2E70029A8BFA3
:1007D0007047401C490008BF20F00100704710B46A
:1007E000B0FA80FC00FA0CF050EA010404BF10BC1F
:1007F000704749B1CCF1200421FA04F411FA0CF14C
:1008000018BF012121430843A3EB0C01CB1D4FEA84
:1008100000614FEA102042BF002010BC704700EB7F
:10082000C35010440029A4BF10BC7047401C4900AD
:1008300008BF20F0010010BC704710B5141E73F102
:10084000000408DA401C41F1000192185B411A4390
:1008500001D120F0010010BD2DE9F04D92469B46DC
:1008600011B1B1FA81F202E0B0FA80F22032904682
:10087000FFF7F5FE04460F4640EA0A0041EA0B0185
:1008800053465A46084313D0114653EA010019D083
:10089000C8F140025046FFF7F1FE05460E465046AD
:1008A00059464246FFF7DBFE084305D0012004E02D
:1008B00020463946BDE8F08D0020054346EAE07643
:1008C0002C4337430A986305E40AA0EB0800002292
:1008D000FD0A44EA47540A3002D500200146E9E700
:1008E000010510196941DDE9084500196941BDE8B4
:1008F000F04DA2E770B521F0004303430CD0C1F3E3
:100900000A550024D5EB040564EB0403D617AD1A91
:10091000B34102DB0020014670BD201841EB0251BB
:1009200070BD2DE9F04D00231A461B1A8A4103DBE6
:1009300000200146BDE8F08DC1F30A52C1F3130156
:1009400041F480154FF0000BD10702D100186D4122
:10095000521E0027044640F2FF11384601EB620A9E
:100960003E468046024600204FF48011FFF786FE87
:10097000C2197141BB1846EB0100B4EB030C75EBD7
:10098000000C04D3E41A65EB000517460E46241943
:1009900008F101006D4180463428E3DDF91946EB8A
:1009A0000600091BA84103D24FF0FF32134601E0B5
:1009B000002213461BEB070046EB0A51BDE8F04D41
:1009C000FFF73BBF2DE9FE4FC3F30A5701F0004587
:1009D0000024C1F30A56C3F31303C1F3130143F414
:1009E000801312EB020AA64641F48011009543EBF6
:1009F000030CA7F1010B16E0B0EB0A0061EB0C0150
:100A0000071E71F1000707DA4FF00008D0EB08006D
:100A100085F0004568EB0101171A73EB0107EBD372
:100A2000761E001849415E45F6DA50EA010209D007
:100A3000CDE900E5002213460296FFF70DFF03B053
:100A4000BDE8F08F20460099F9E70EB5C10F80EAA6
:100A5000E0700844CA07002140F233438DE80E00DD
:100A60000A460B46FFF7F8FE03B000BDC1F30A5279
:100A7000C1F3130140F2FF3341F480119A4202DACC
:100A800000200146704740F233439A42A2F23342BB
:100A900002DC5242FFF7F2BDFFF7E1BD30B5041EA4
:100AA00071F1000404DB4FF00044404264EB0101AB
:100AB000141E73F1000405DB1C464FF00043524244
:100AC00063EB04038B4208BF824230BD30B5041E85
:100AD00071F1000404DB4FF00044404264EB01017B
:100AE000141E73F1000405DB1C464FF00043524214
:100AF00063EB0403994208BF904230BD064C074D9A
:100B000006E0E06840F0010394E8070098471034DD
:100B1000AC42F6D3FFF75AFBD4A10008F4A10008B9
:100B20000048704784A1000810B50446FFF7F8FF9D
:100B30000068005D00F0010010BD00002DE9FF4FCE
:100B4000087883B09946FF2805D0491C2D2804D089
:100B50000024002008E000200BE00124F9E700EB6E
:100B6000800003EB4000491C0B78FF2BF7D104B148
:100B7000404200230293147819461D462D2C01D0C3
:100B80002B2C04D1521C2D2C13D000240294AA46E5
:100B90001478FF2C0FD00A25A3FB057801FB0581F3
:100BA0004FF0000C03FB0C11521CE3194AEB01013E
:100BB000EEE70124EAE7814453EA010002D019F587
:100BC000C87F06DA03980021C0E9001107B0BDE82C
:100BD000F08F0025AE4E2F46DFF8B882184600F0A1
:100BE000DAF9CDE90001B9F1000002DAC9F1000437
:100BF00000E004460023A74A1AEB030B42EB045A19
:100C000012E0E00707D02A46334638464146FFF750
:100C100000FC074688462A46334610461946FFF729
:100C2000F8FB05460E466410002CEAD1DDE9000110
:100C3000B9F1000F5A46534606DAFFF75CFC3A4614
:100C40004346FFF758FC05E0FFF7E3FB3A4643460F
:100C5000FFF7DFFB029A0AB181F00041039AC2E973
:100C60000001B3E72DE9FF4F1F468DB0D7E90146DC
:100C70004FF0FF382E2045464FF000090B90B96920
:100C80006D1C0E988847396A824688470028F6D13D
:100C9000BAF1FF3F0AD024F4D064002E11DDBAF17E
:100CA0002B0F08D0BAF12D0F0BD102E0404611B046
:100CB0008DE744F48064B9696D1C0E9888478246BC
:100CC000761E6946600501D52D2000E02B208DF8A9
:100CD000000001F1010B0DF1200809E0B9696D1C5C
:100CE0000E98884782460F9844F40074761E05607B
:100CF000002E02DDBAF1300FF0D00B998A453ED1BB
:100D000044F0800406E00F99681CA9F1010944F43D
:100D100000740860B9696D1C761E0E98884782467B
:100D20003028F0D02BE00B998A4505D1200603D45A
:100D300044F08004761E18E0504605F023FC08B30A
:100D40000DF11301761E44F400748B4508D2AAF10C
:100D500030000BF8010B200607D5A9F1010003E0D4
:100D6000200602D409F101008146A00502D50F99A1
:100D7000681C0860B9696D1C0E9888478246002E71
:100D8000D1DC53E0002E51DDBAF1650F02D0BAF18B
:100D9000450F4BD1A00549D5B9696D1C24F44074A9
:100DA000761E0E9888478246002E0CDD2B2804D034
:100DB000BAF12D0F07D144F48074B9696D1C0E98F7
:100DC00088478246761EE00501D52D2100E02B21C3
:100DD00008F8011BCDF82C8021E00DF12901761EC9
:100DE00044F4007488450CD2AAF1300010F0FF00E2
:100DF00088F8000002D10B99884509D908F101084B
:100E000006E0E00501D5244801E042F20F7081467A
:100E1000B9696D1C0E98884782460F980560002EB0
:100E200004DD504605F0AEFB0028D6D1F9690E98D6
:100E30008847FF208BF8000088F80000002006900B
:100E400007904B466A4608A906A8FFF777FEA0055B
:100E500002D46FF001002AE714F0240F0AD0E00753
:100E600014D1DDE906123868031D3B600068C0E953
:100E700000120BE0DDE90601FFF7BFFB0146E007CA
:100E800004D13868021D3A600068016028460EE708
:100E9000000014400000F03FF1D8FFFF426842B16B
:100EA000016811F8013B23B1521EC0E90012184637
:100EB00070470121C160881E704742685AB1C368FB
:100EC000016843B983688B4205D0491E521CC0E9B2
:100ED0000012002070474FF0FF3070472DE9F05F9F
:100EE00082460078002715468B460AF10104B94670
:100EF000302801D09DB113E014F8010B01277828A8
:100F000003D0582801D045B10AE00DB1102D07D10A
:100F10000027102514F8010B02E0082500E00A253F
:100F20000026B0460EE005FB080005FB06F1012790
:100F300001EB10461FFA80F8B6F5803F00D3B946A2
:100F400014F8010B294600F018F80028EBDABBF181
:100F5000000F05D00FB1641E00E05446CBF80040EE
:100F6000B9F1000F06D004F057F802210160C81E45
:100F7000BDE8F09F48EA0640FAE73A2800D2303848
:100F800020F02002412A01D3A2F13700884201D388
:100F90004FF0FF3070470EB540F23342029200220C
:100FA000CDE900221346FFF757FC03B000BD000057
:100FB000464910B54A6822F440324A604A6843689C
:100FC0001A434A6001684A6822F480724A600168E4
:100FD0004A68036942EA03224A6001684A6822F0CB
:100FE00040724A6001684A6883681A434A6001682F
:100FF0008A6822F400628A6001688A68C3681A43BA
:101000008A60816A6FF07062D14201688A6822F05A
:1010100070628A6001688A680CD0836A1A438A60A9
:1010200001688A6822F040528A6001688A68C36A4F
:101030001A4301E022F040528A6001688A6822F077
:1010400002028A6001688A68037E42EA43028A607B
:1010500090F82010002901684A680FD042F400621D
:101060004A6001684A6822F460424A6001684A683E
:10107000174C436A04EB43331A4301E022F4006245
:101080004A600168CA6A22F47002CA620168CA6AC8
:10109000838B104C04EB03531A43CA6201688A68BD
:1010A00022F400728A6001688A6890F8303042EA5F
:1010B00043228A6001688A6822F480628A6001683B
:1010C0008A68406942EA8020886010BD00230140A0
:1010D00000E0FFFF0000F0FFFEE700002DE9F04F09
:1010E00093B0D84800F0A5FFD7484FF0010ACDF8DB
:1010F00044A0D0ED120A9FEDD51AD54980EE810AA1
:10110000D1ED090AD349098820EE201AD0ED082A2A
:1011100090ED032AD0ED041AD0ED0D0A90ED0B0AE4
:10112000CD4807F0E5FDC74800F06DFF0028FAD074
:10113000C44800688168490102D5CDF844A009E09F
:101140008168090101D5022003E08068C00001D553
:1011500004201190C04A11AB521C02F10B01B94896
:1011600000F0E8FDBD4841788946FF292ED00024D3
:101170008778FF2F2CD000210C40C178FF2929D07F
:10118000002206791440FF2E26D0002290F805C0D8
:101190001440BCF1FF0F21D0002285791440FF2DAF
:1011A0001ED00022C3791440FF2B1BD00022144014
:1011B000027AFB2A18D04FF0000800BF14EA080F8B
:1011C00015D006F031FC13B0BDE8F08F0124CFE755
:1011D0000121D1E70122D4E70122D7E70122DCE790
:1011E0000122DFE70122E2E74FF00108E6E7B9F16B
:1011F000FF0F38D00024FF2F37D04FF0000800BF7A
:1012000004EA0804FF2933D04FF0000804EA080478
:10121000FF2E30D04FF0000804EA0804BCF1FF0FA5
:101220002CD04FF0000800BF04EA0804FF2D28D09E
:101230004FF0000804EA0804FF2B25D04FF0000807
:1012400004EA0804FC2A22D04FF00008DFF810B2AC
:10125000DFF810E214EA080F1CD07E48008800284E
:10126000B1D1022076E00124C5E74FF00108C7E7BD
:101270004FF00108CAE74FF00108CDE74FF0010831
:10128000D2E74FF00108D5E74FF00108D8E74FF05B
:101290000108DBE7B9F1FF0F61D00024FF2F60D018
:1012A0004FF0000804EA0804FF295DD04FF0000861
:1012B00004EA0804FF2E5AD04FF0000804EA08049C
:1012C000BCF1FF0F56D04FF0000800BF04EA08043D
:1012D000FF2D52D04FF0000804EA0804FF2B4FD036
:1012E0004FF0000804EA0804FC2A4CD04FF0000834
:1012F00014EA080FB5D1FF2E48D00024BCF1FF0F2F
:1013000046D04FF0000800BF14FB08F8B9F1FF0FFA
:1013100041D0002408EA0408FF2F3ED00024FF2912
:101320003DD00020044008EA04084C4CFF2D38D082
:101330005FF0000008EA0008FF2B34D05FF00000E7
:1013400008EA0008FD2A30D05FF0000018EA000F1C
:101350002DD00020CBF80000CEF800A033E7012408
:101360009CE74FF001089DE74FF00108A0E74FF020
:101370000108A3E74FF00108A8E74FF00108ABE729
:101380004FF00108AEE74FF00108B1E70124B5E7DF
:101390004FF00108B8E70124BCE70124BFE70120B2
:1013A000C0E70120C6E70120CAE70120CEE7FF2EF3
:1013B00023D00020BCF1FF0F21D0002610FB06F047
:1013C000B9F1FF0F1DD000263040FF2F1BD00026A3
:1013D000FF291AD000210E403040FF2D17D00021E8
:1013E0000840FF2B15D000210840FE2A13D0002111
:1013F000084212D003F0BAFDE5E60120DAE7012643
:10140000DCE70126E0E70126E2E70121E3E701212D
:10141000E6E70121E8E70121EAE7DBF8000002281E
:101420009CD10E49084D4022103168461095FEF7B8
:1014300018FF94E80F0007F075FF0020C5F8A8001A
:10144000C1E60000400D0020D00800208FC25541A9
:10145000BC03002042000020A40B0020C80B002089
:101460004C0000205000002010EE100A084901EB4B
:10147000600100EE901A0749A1EB600001EE100A2E
:1014800040EE010AB6EE000A20EE800A7047000026
:1014900000F8BC1FDF59375F70477047014908608B
:1014A000704700000C3C024070B50646002529B18B
:1014B000012927D0022928D04FF4407500F080F888
:1014C00009281ED1124C206820F44070206020684A
:1014D00028432060206820F0F8002060206846F053
:1014E000020108432060206840F48030206000F052
:1014F00067F8216821F002012160216821F0F801DC
:10150000216070BD4FF48075D8E74FF40075D5E7C2
:10151000103C02400D4909200A68D20301D5012080
:1015200070470A68D20601D5062070470A68D205BE
:1015300001D5022070470A6812F0E00F01D00720A1
:10154000704709688907FBD5082070470C3C0240AA
:101550000248016841F0004101607047103C0240C0
:1015600070B50D46064600F02BF8092813D10A4C39
:10157000206820F440702060206840F400702060F3
:10158000206840F001002060356000F019F8216803
:1015900021F00101216070BD103C02400548006847
:1015A000002805DA034804490C380160034901604A
:1015B00070470000103C024023016745AB89EFCD26
:1015C00008B509208DF80000FFF7A4FF8DF8000092
:1015D0009DF800000128F7D09DF8000008BD00002C
:1015E000DFED020A30EEC00A00F002B8DB0FC93F9F
:1015F000DFED100A02E000BF30EE200AB5EEC00AAF
:10160000F1EE10FAF8D30C4910EE100A884202DB12
:1016100030EE600AF8E7DFED090A094920EE200AFA
:10162000BDEEC00A10EE100A01EB800090ED000A3A
:1016300070470000DB0FC940DB0FC94083F9A242AD
:10164000209800080148406870470000880000208A
:10165000014890ED870A704788000020014890ED0E
:10166000CB0A704788000020014890ED890A704736
:1016700088000020034890ED890AD0ED8A0A30EEF8
:10168000200A704788000020014890EDCA0A704780
:101690008800002001480068704700008800002092
:1016A00070B590F83C206A4D012A19D0012280F8CB
:1016B0003C200A6807230468092A13D9E6680A3A15
:1016C00002EB420293409E43E6600A788B680A3A36
:1016D00002EB420293400268D4682343D36010E0D7
:1016E000022070BD266902EB420293409E432661B0
:1016F0000B788A6803EB43039A4003681C69224312
:101700001A610268936B23F4401393630268936B2E
:101710000C8A504E06EB0454234393630A790B7CE6
:10172000D21AD21C02EB82021F2393400268946BF0
:101730009C4394630A790B7CD21AD21C02EB82037D
:101740000A8892B29A4003689C6B22439A638A6922
:10175000AA420268936823F4702393600268936836
:101760000CD08C69234393600268936823F4401380
:10177000936002689368CC69234301E023F440132B
:1017800093604A7D002A0268536802D043F4806364
:1017900001E023F4806353600A7D002A02685368E5
:1017A00002D043F4805301E023F4805353604A682D
:1017B000012A16D0022A1FD0032A026827D0136AF2
:1017C0006FF30B0313620268136ACC68234313623E
:1017D000224B0468204A9C4227D10C68122C20D04E
:1017E00023E0026853696FF30B0353610268536986
:1017F000CC6823435361EBE7026893696FF30B03F3
:10180000936102689369CC6823439361E0E7D369ED
:101810006FF30B03D3610268D369CC682343D361B0
:10182000D6E7546844F48004546004689C420AD1AA
:101830000968A1F18053123B01D0112903D15168ED
:1018400041F400015160002180F83C10084670BD51
:1018500001000F000000F0FF0023014000200140C4
:1018600008B5002200920368521F1A60012911D0A6
:1018700002290CD0032906D0042901D0009808BD04
:101880000068806C01E00068406C009008BD006852
:10189000006CFAE70068C06BF7E7000018B500219C
:1018A000009190F83C20012A07D0012280F83C20CA
:1018B00002689368DB0702D011E0022018BD93682C
:1018C00043F001039360284A284B1268B2FBF3F2FD
:1018D00002EB420200E0521E0092002AFBD1026895
:1018E0009368DB0735D0036C42F20104A34343F451
:1018F00080530364036CDB0500D4416480F83C1022
:101900006FF0040111601A4949680068C9068168CE
:1019100001F440110FD0D1B100224168154B41F3C1
:101920008021491C98421CD1DAB1D1B1816841F4BF
:101930008001816015E041B10021426842F38022BC
:10194000521C71B1002AF1D10BE00121F5E701220F
:10195000E3E7016C41F010010164416C41F00101C9
:101960004164002018BD00007400002040420F00B8
:10197000002301400020014078B50024009490F835
:101980003C20012A19D0012280F83C200A68072354
:101990000568092A13D9EE680A3A02EB420293401D
:1019A0009E43EE600B788A680A3B03EB43039A4040
:1019B0000368DD682A43DA6010E0022078BD2E69F2
:1019C00002EB420293409E432E610B788A6803EB40
:1019D00043039A4003681D692A431A614A681F231A
:1019E000072A13D205686E6B521E02EB82029340E7
:1019F0009E436E630A8893B20A79521E02EB8202FA
:101A000093400268556B2B43536327E005680D2A0A
:101A100012D22E6BD21F02EB820293409E432E63A2
:101A20000B790A88DB1F92B203EB83039A400368A9
:101A30001D6B2A431A6311E0EE6A0D3A02EB820233
:101A400093409E43EE620B790A880D3B92B203EB02
:101A500083039A400368DD6A2A43DA621B4B0568F8
:101A6000194A9D420AD10D68122D07D1556825F4F7
:101A700000055560556845F48005556005689D4230
:101A80001DD1134D0B68AB4201D0112B17D15368F8
:101A900023F480035360536843F4000353600968E0
:101AA000A9420CD10B490C4A0968B1FBF2F101EBD8
:101AB0008101490000E0491E00910029FBD180F816
:101AC0003C40002078BD0000002301400020014080
:101AD000120000107400002040420F000068C06C2B
:101AE000704770B504004FF0000503D0206C00264D
:101AF00010B107E0012070BD204600F01DF86664BB
:101B000084F83C60206CC00610D4206C20F488500F
:101B100040F0020020642046FFF74AFA6664206C19
:101B200020F0020040F00100206400E0012584F86C
:101B30003C60284670BD0000F0B587B00446142113
:101B40006846FEF7A7FB3649DFF8D0C023680025BA
:101B50003348143901270324324A334E634518D1E0
:101B6000036843F480730360006800F4807005909C
:101B7000086840F004000860086800F00400059060
:101B8000086840F002000860086800F00200059054
:101B90001CE0DFF898C0634528D1036843F4007364
:101BA0000360006800F400700590086840F00400CD
:101BB0000860086800F004000590086840F0020022
:101BC00008600868022700F0020005900097694647
:101BD0001046CDE9014500F0BFFC6946304600974C
:101BE000CDE9014500F0B8FC07B0F0BD104A9342C2
:101BF000FAD1026842F480620260006800F48060FA
:101C00000590086840F0010008600868009700F03F
:101C10000100059069460748E2E700000020014006
:101C20004438024000080240000402400021014004
:101C3000002201400000024018B50021009190F8F8
:101C40003C20012A07D0012280F83C2002689368DA
:101C5000DB0702D011E0022018BD936843F00103B6
:101C600093602E4A2E4B1268B2FBF3F202EB420253
:101C700000E0521E0092002AFBD102689368DB0745
:101C800042D0036C40F20164A34343F480730364C5
:101C900053685B0505D5036C23F4005343F480536C
:101CA0000364036CDB0404D5436C23F00603436434
:101CB00000E0416480F83C101A496FF02203136081
:101CC00049680068CA06184906D0884224D181684C
:101CD00011F0405F13D01FE08842F8D0134A9042C1
:101CE00003D1D1F80423D206F1D0114A904213D186
:101CF000D1F8041301F01F011029E8D30CE081682A
:101D000041F08041816007E0016C41F01001016405
:101D1000416C41F001014164002018BD74000020B5
:101D200040420F00002301400020014000210140FB
:101D300000220140F0B590F820500468A468012DFD
:101D400005D0022D03D0416A41F480215DE014F0FA
:101D5000406F01D1E50055D5C4F30164022C03D9CD
:101D6000416A41F4000150E00125A5401D608D68E5
:101D70004FF4C0739DB1CE6835434E6845EAC60541
:101D8000066803EB0417F5514FF4C275076805EBBD
:101D900004150E697E51097D012905D009E00E88E0
:101DA000CD6845EA4655EBE701684E5946F4807622
:101DB0004E511179D579567941EA056195792D040D
:101DC00045EA062529434FF4C676056806EB041656
:101DD000A9511178D57841EA0561957852782D049A
:101DE00045EA022211434FF4C475026805EB04155D
:101DF0005151006803EB0411425842F00102425075
:101E00000020F0BD416A41F4001141620120F0BDA3
:101E100010B590F82020012A07D0022A05D0416A87
:101E200041F480214162012010BD3B48D0F80022DE
:101E300042F00102C0F80022D0F8002222F47C52C5
:101E4000C0F80022D0F800224B6A42EA0322C0F810
:101E500000220A7D02F01F0301229A40D0F81C32B2
:101E60009343C0F81C32CB69B3B9D0F80C3293431A
:101E7000C0F80C328C894B6864F31F434C6900EB4B
:101E8000C404C4F840320C890B6864F31F434C69E6
:101E900000EBC404C4F84432CB69012B16D1D0F84E
:101EA0000C321343C0F80C320C884B6864F31F43A8
:101EB0004C6900EBC404C4F840320C89CB6864F36D
:101EC0001F434C6900EBC404C4F844328B69002BF7
:101ED000D0F804320ED01343C0F804320B69002B43
:101EE000D0F8143208D01343C0F81432096A01291B
:101EF00004D008E09343EFE79343F5E7D0F81C12D2
:101F00001143C0F81C12D0F8001221F00101C0F8F2
:101F10000012002010BD000000640040704730B582
:101F200090F82040012C05D0022C03D0416A41F4E6
:101F300080215DE00468002955D02469A40754D0AD
:101F40004FF4D874056804EB01142D5915F00405FD
:101F5000956005682D594ED0ED08556005682C59DF
:101F600004F00204D4604FF4DA74056804EB011441
:101F70002D5905F00F05156105682D59C5F3072585
:101F8000956105682C59240C54614FF4DC72046887
:101F900002EB0112A4581C700468A458240A5C7057
:101FA0000468A458240C9C700468A258120EDA70BD
:101FB0004FF4DE72046802EB0112A4581C7104682D
:101FC000A458240A5C710468A458240C9C71046809
:101FD000A258120EDA71006881B1016941F0200146
:101FE0000161002030BDE468A8E7416A41F40011B6
:101FF0004162012030BD6D0D1560AFE7C16841F051
:102000002001C160EDE70246002092F8201001296E
:1020100001D002290CD111688A68520100D5012033
:102020008A68120100D5401C8968C90000D5401C8F
:1020300070472DE9F05F0546006800244669D0F836
:1020400004908768D0F80CB0D0F810A0D0F81880B1
:10205000F10748D0F90714D001218160B80703D5F2
:10206000284600F0E2F90CE0780702D54FF400644E
:1020700007E0380702D54FF4805402E0284600F00C
:10208000D3F9F80516D529684FF480708860B80533
:1020900003D5284600F0CBF90CE0780502D544F4CE
:1020A000005407E0380502D544F4804402E0284695
:1020B00000F0BCF9F80316D529684FF48030886029
:1020C000B80303D5284600F0B4F90CE0780302D534
:1020D00044F4004407E0380302D544F4803402E0BD
:1020E000284600F0A5F9300707D55FEACB6004D594
:1020F0002968102044F40074C86070074FF0080786
:1021000007D55FEA0B7004D52868C760284600F041
:1021100059F9B00706D52868C068800702D028465C
:1021200000F051F9700607D55FEACA6004D5296846
:10213000102044F480640861B00607D55FEA0A7095
:1021400004D528680761284600F03EF9F00606D558
:1021500028680069800702D0284600F036F9B003ED
:1021600008D55FEAC96005D529681020486028466F
:1021700000F02CF9F00307D55FEA097004D5286850
:102180004760284600F056F9300446D55FEA4970AA
:1021900040D5F00504D55FEAC87001D044F00104D1
:1021A000B00504D55FEA887001D544F002047005DB
:1021B00004D55FEA487001D544F00404300529D500
:1021C00018F0700F26D008F07000402815D006DCFB
:1021D000102809D020280AD0302816D10AE050282B
:1021E0000ED0602811D10EE044F008040DE044F058
:1021F00010040AE044F0200407E044F0400404E046
:1022000044F0800401E044F480742868816921F07E
:1022100070018161296804204860002C05D0686A3B
:10222000204368622846FFF779FEBDE8F09F70B54D
:10223000040003D094F8200010B104E0012070BD28
:10224000204600F081F82068016841F0010101603A
:1022500000F076FA0546052604E000F071FA401B0E
:102260000A2811D820684068C007F6D020680168A5
:1022700021F00201016000F063FA05460BE000F076
:102280005FFA401B0A2806D9606A40F40030606299
:1022900084F82060D2E7206840688007EFD4207E71
:1022A0000128206801683DD021F080010160607E36
:1022B00001282068016838D021F040010160A07E2B
:1022C00001282068016833D021F020010160E07E00
:1022D0000128206801682ED041F010010160207FA4
:1022E00001282068016829D021F008010160607F81
:1022F00001282068016824D021F004010160D4E99C
:1023000002010843D4E90412114308436168491EDD
:1023100008432168C86100206062012084F8200021
:10232000002070BD41F08001C0E741F04001C5E7E9
:1023300041F02001CAE721F01001CFE741F0080188
:10234000D4E741F00401D9E710B586B00446142162
:102350006846FDF79FFF18492068884229D1174831
:102360000021026842F000720260006800F0007014
:10237000059012481038026842F0020202600068BC
:1023800000F0020005904FF4407000900220CDE96B
:10239000010103200390092004906946084800F0D9
:1023A000DBF800220121142000F03AFA142000F09A
:1023B00029FA06B010BD0000006400404038024019
:1023C0000004024070477047704770477047000034
:1023D00070B5044690F82000012804D0606A40F4EB
:1023E0000020606218E0022084F820002068016864
:1023F00021F00101016000F0A3F905460EE000BFE5
:1024000000F09EF9401B0A2808D9606A40F40030A9
:102410006062052084F82000012070BD20684068BB
:10242000C007EDD1606270BD70477047704770475C
:102430007047704770472DE9F0410446876D00F002
:102440007FF9064694F835000025022806D0802042
:10245000606584F834500120BDE8F081206801688F
:1024600021F0160101602068416921F0800141617D
:10247000206C08B9A06C20B12068016821F0080127
:1024800001602068016821F0010101600CE000F0AA
:1024900057F9801B052807D920206065032084F8A0
:1024A000350084F83450D7E720680068C007EED1C3
:1024B00094F85C103F208840B860012084F8350013
:1024C00084F834500020C7E790F83510022903D073
:1024D0008021416501207047052180F83510006892
:1024E000016821F0010101600020704770B50446C9
:1024F00000F026F90546601C02D004480078044428
:1025000000F01EF9401BA042FAD370BD6800002005
:1025100000EB4001C1EBC0104FF6FF7101EAC000B3
:10252000AFF3008070B54FF6FA710A4D081A84B205
:1025300028684462284600F027FF4FF6F9712868A2
:1025400001E0426A94B28C42FBD3BDE8704001487E
:1025500000F096BF500E00202DE9F84FDFF8ACA137
:102560000022012403254FF00F090AF1040BAAF100
:10257000040E00BF0B6804FA02F63340B3426ED17A
:102580000F7907F00307012F01D0022F16D18768BA
:102590004FEA420805FA08FC27EA0C07D1F80CC0FC
:1025A0000CFA08FC4CEA070CC0F808C04768B743AF
:1025B0000E79C6F3001696403E4346600E79F64308
:1025C000B6070AD0C6684FEA420C05FA0CF7BE43BC
:1025D0008F6807FA0CF73743C7600E7906F00306D9
:1025E000022E10D1D60800EB8608D8F820605707D5
:1025F0004FEAD76C09FA0CF7BE430F6907FA0CF7DC
:102600003743C8F8207006684FEA420C05FA0CF709
:10261000BE430F7907F0030707FA0CF7374307604B
:102620004E6816F4403F6BD0394E376847F4804708
:102630003760366822F0030706F480460096354E70
:1026400007EB060CDCF8086897074FEA177809FAD9
:1026500008F7BE43304FB84202D100271FE04FE0D9
:102660002E4FB84201D1012719E02D4FB84201D1B8
:10267000022714E02B4FB84201D103270FE02A4F65
:10268000B84201D104270AE0284FB84201D10527FA
:1026900005E0274FB84201D1062700E0072707FAD7
:1026A00008F73743CCF80878DAF800605746D1F8D5
:1026B00004C09E435FEACC2C00D51E433E60DBF88D
:1026C00000605F46D1F804C09E435FEA8C2C00D5C1
:1026D0001E433E60DEF800607746D1F804C09E439A
:1026E0005FEA8C3C00D51E433E60084F083F3E68C1
:1026F000D1F804C09E435FEACC3C00D51E433E6047
:10270000521C102AFFF436AFBDE8F88F083C014098
:102710004438024000300140000002400004024002
:1027200000080240000C0240001002400014024069
:10273000001802400AB1816170470904FBE70000FC
:1027400001488068704700006800002002488168E6
:102750000278114481607047680000200B4810B572
:10276000016841F400710160016841F48061016019
:10277000016841F480710160032000F071F80020CD
:1027800000F006F800F024F8002010BD003C0240E4
:1027900070B50D4D04464FF47A712878B1FBF0F016
:1027A0000A490968B1FBF0F000F0F9FC48B9102CB7
:1027B00007D200222146501E00F032F800206C6043
:1027C00070BD012070BD0000680000207400002072
:1027D0000B4882B0016841F480410160006800F458
:1027E000804000900648001F016841F08051016060
:1027F000006800F080500090052002B000F030B872
:1028000044380240002809DB00F01F0201219140FA
:102810004009800000F1E020C0F80011704700007E
:10282000F0B40E4B1B680C46C3F30223C3F107053B
:10283000042D00D90425191D072901D2002300E029
:10284000DB1E012606FA05F1491E214099409E40F3
:10285000761E16403143F0BC02F0CEBB0CED00E01A
:10286000064900F0070208684FF6FF03184040EAE7
:102870000220034A10430860704700000CED00E09E
:102880000000FA052DE9F8431748016841F080512E
:1028900001600068154F00F08050012600903E64F2
:1028A000FFF74EFF05464FF47A78114C05E000BF64
:1028B000FFF746FF401B40450DD86068C003F7D5C1
:1028C0007E64FFF73DFF0546464607E0FFF738FF09
:1028D000401BB04202D90320BDE8F8836068800342
:1028E000F4D50020F8E700004038024000000E4216
:1028F000007000402DE9F0470E46050065D0DFF876
:102900001481D8F80000F7B200F00F00B04207D2EF
:1029100088F80070D8F8000000F00F00B04254D1E1
:1029200028683D4C810712D5400703D5206840F444
:10293000E05020602878000703D5206840F460400C
:1029400020602068A96820F0F00008432060287803
:10295000C0072DD0304968680839012812D00228F4
:1029600013D0032811D00968890700292DDA2168BE
:1029700021F0030101432160FFF7E2FE814641F2AD
:10298000883A0EE009688903EFE709688901ECE7F6
:10299000FFF7D6FEA0EB0901514502D90320BDE89F
:1029A000F0872068696800F00C00B0EB810FEFD170
:1029B000D8F80010404601F00F01B14207D9077066
:1029C000006800F00F00B04201D00120E7E728784E
:1029D000400705D52068E96820F4E05008432060EE
:1029E0002878000706D52068296920F4604040EA6D
:1029F000C100206000F038F82168084AC1F30311D3
:102A0000515CC8400649086006480068FFF7C0FEF0
:102A10000020C4E7003C02400838024020A0000823
:102A2000740000206C000020044805490068096813
:102A3000044AC1F38221515CC840704774000020F1
:102A40000838024030A000080448054900680968B9
:102A5000044AC1F34231515CC84070477400002001
:102A60000838024030A00008224810B5006810F075
:102A70000C02214815D04110042A11D01D4C241FEE
:102A8000082A0FD00C2A0CD12268236802F03F02DA
:102A90005B0221D52068C0F38810A0FB010120E073
:102AA000084610BD2268236802F03F025B0205D58C
:102AB0002068C0F38810A0FB010104E02168C1F385
:102AC0008811A1FB00010023FDF79AFB2168C1F3E7
:102AD0000141491C49000AE02168C1F38811A1FBAA
:102AE00000010023FDF78CFB2168C1F30271B0FBEC
:102AF000F1F010BD083802400024F4002DE9F84F31
:102B000004007DD0DFF878B32078ABF10407C0076C
:102B1000A7F1040550D0DBF800105846C1F381013D
:102B200001290FD00168C1F38101022902D139685E
:102B3000490207D40068C0F38100032809D138682E
:102B4000400206D52868800336D560680028D8D0B2
:102B500032E06068B0F5803F10D0B0F5A02F286853
:102B600010D020F480302860286820F4802028606D
:102B70006068A0B1FFF7E4FD06460CE0286840F469
:102B80008030F4E740F480202860F7E7FFF7D8FDB5
:102B9000801B642876D828688003F7D50CE0FFF7FF
:102BA000CFFD064605E000BFFFF7CAFD801B642885
:102BB000F0D828688003F7D42078DFF8C89280071F
:102BC0004FF0000A44D5DBF80010584611F00C0F06
:102BD0000FD00168C1F38101022902D1396849028D
:102BE00007D50068C0F3810003280AD13868400285
:102BF00007D42868800715D5E068012800D111E0C6
:102C00003AE1E068B0B10120C9F80000FFF798FD93
:102C1000064604E0FFF794FD801B0228BAD8286816
:102C20008007F7D52868216920F0F80040EAC10044
:102C300028600DE0C9F800A0FFF782FD064604E019
:102C4000FFF77EFD801B02281CD828688007F7D478
:102C50002078000727D5DFF828828B48616908F1C2
:102C60006C0881B101210160FFF76AFD064604E0AE
:102C7000FFF766FD801B022804D8D8F80000800703
:102C8000F6D510E089E0C0F800A0FFF759FD064630
:102C900005E000BFFFF754FD801B02287DD8D8F85F
:102CA00000008007F6D42078400769D574484FF0BB
:102CB000000838300068C0000BD471483830016813
:102CC00041F08051016000684FF0010800F0805031
:102CD00000906E4E3068C00511D4306840F48070AA
:102CE0003060FFF72DFD009006E000BFFFF728FDE4
:102CF0000099401A022850D83068C005F6D5604EB9
:102D0000A068683601280FD00528306810D020F060
:102D100001003060306820F004003060A068B8B175
:102D2000FFF70EFD00900FE0306840F00100F4E77F
:102D300040F004003060F7E7FFF702FD0099411A08
:102D400041F28830814264D830688007F4D50EE0C3
:102D5000FFF7F6FC009007E0FFF7F2FC0099411A3C
:102D600041F28830814254D830688007F4D4B8F1F9
:102D7000000F05D042483830016821F080510160D1
:102D8000A069A8B3DBF80010C1F38101022947D084
:102D90000228C9F860A005D000E03AE0FFF7D0FCB7
:102DA000044639E0FFF7CCFC064604E0FFF7C8FC18
:102DB000801B02282DD828688001F7D4F4E9070188
:102DC0000843E168324A490802EB0141A26841EA3E
:102DD00082110843217C40EA0160217D40EA0170B4
:102DE00038600120C9F86000FFF7AAFC044606E03D
:102DF00044E000BFFFF7A4FC001B022809D82868A4
:102E00008001F7D53AE000BFFFF79AFC001B0228CB
:102E100002D90320BDE8F88F28688001F4D42DE0A2
:102E20000128F7D03868E26900F48001914223D18B
:102E3000226A00F03F0191421ED147F6C071626ADA
:102E40000140B1EB821F17D1A26A4FF0FF3300F4AB
:102E5000403103EB5202B1EB024F0DD194F82C201C
:102E600000F07061B1EB026F06D194F8301000F001
:102E7000E040B0EB017F01D00120CBE70020C9E7A3
:102E80000838024000004742800E47420070004070
:102E90000000FFFF70B5040009D0606A002540B152
:102EA00025616561A56294F8510040B10CE00120F4
:102EB00070BD6068B0F5827FF4D0E561F2E784F818
:102EC0005050204600F044F8022084F85100206859
:102ED000016821F040010160A088218900F482701E
:102EE00001F404410843A18901F400610843217CF5
:102EF00001F002010843217D01F001010843218B0B
:102F000001F400710843217F01F03801084394F86F
:102F1000201001F080010843218D01F40051084385
:102F200021680860A069042101EA104094F8241087
:102F300001F010010843216848602068C16921F44C
:102F40000061C1616565012084F85100002070BDF9
:102F500010B586B0044614216846FDF79BF9144964
:102F60002068884221D113480021026842F40042BF
:102F70000260006800F4004005900E4810380268B6
:102F800042F004020260006800F0040005904FF473
:102F9000E05000900220CDE90101032003900620BB
:102FA000049069460448FFF7D7FA06B010BD000048
:102FB000003C004040380240000802402DE9F84F34
:102FC000044690F8500000270A9E1D4692468B4604
:102FD0004FF0010901280ED0012084F85000FFF7BE
:102FE000AFFB804694F85100616801280CD0B1F520
:102FF000827F07D102E00220BDE8F88FA16809B9FD
:10300000042801D00227C2E0BBF1000F27D0BAF19B
:10301000000F24D01DB394F85100042802D00520DD
:1030200084F8510000206065C4F838A0E587A587C2
:10303000C4F830B0E586A586206460642068016825
:10304000490603D4016841F040010160E068B0F531
:10305000006F606805D0E8B3012D46D07FE00127FE
:1030600095E008B1012D39D1206B21680088C86036
:10307000206B801C2063E08E401EE0862EE02068DE
:10308000816889070FD5E18E69B1B9F1010F0AD1C5
:10309000216B0988C160206B801C2063E08E401E7C
:1030A000E0864FF0000920688168C9070CD0E18FE5
:1030B00051B1C068A16B0880A06B801CA063E08F39
:1030C000401EE0874FF00109FFF73AFBA0EB080034
:1030D000B04200E009E001D3701C50D1E08E00281E
:1030E000CDD1E08F0028CAD13FE0206B2168007865
:1030F0000873206B401C2063E08E401EE0862EE0AB
:103100002068816889070FD5E18E69B1B9F1010F97
:103110000AD1216B09780173206B401C2063E08E7B
:10312000401EE0864FF0000920688168C9070CD076
:10313000E18F51B1C068A16B0870A06B401CA06307
:10314000E08F401EE0874FF00109FFF7F9FAA0EB8E
:103150000800B04202D3701C01D010E07EB1E08EB6
:103160000028CDD1E08F0028CAD142463146204602
:1031700001F0CEF828B101272020606507E0032781
:1031800005E0A06818B92068C16880680090012037
:1031900084F85100002084F8500038462CE710B520
:1031A000401EB0F1807F01D3012010BD4FF0E0241C
:1031B00060610F21601701F01FFF0020A061072050
:1031C0002061002010BD7047704710B590F83C207A
:1031D000012A22D0012280F83C20CA688C6822F49F
:1031E000407222434C6822F4806222430C6822F42D
:1031F000006222430C6922F4805222434C6922F47B
:1032000000522243C969002322F480420A43016824
:103210004A6480F83C30002010BD022010BD000040
:1032200070B590F83C20012A32D0012480F83C404F
:10323000022280F83D2003685A689D6822F07006DB
:103240000A6832435A60134B02689A4214D0B2F1B2
:10325000804F11D0104B9A420ED0104B9A420BD097
:103260000F4B9A4208D00F4B9A4205D00E4B9A4210
:1032700002D00E4B9A4204D1496825F080031943CD
:10328000916080F83D40002180F83C10084670BDF8
:10329000022070BD00000140000400400008004012
:1032A000000C0040000401400040014000180040B4
:1032B00010B5040003D094F83D0010B107E00120E0
:1032C00010BD002084F83C00204600F01FF80220CA
:1032D00084F83D00211D206801F060FB012084F886
:1032E000460084F83E0084F83F0084F8400084F8EB
:1032F000410084F8420084F8430084F8440084F8D4
:10330000450084F83D00002010BD000008B50168AC
:103310001A4881420FD11A48016841F00101016049
:103320000068002200F00100009011461920FFF70C
:1033300077FA19201EE01248001FB1F1804F0BD020
:10334000104A914207D1016841F010010160006804
:1033500000F01000009008BD016841F0010101601B
:103360000068012200F00100009011461C20FFF7C8
:1033700057FA1C20BDE80840FFF744BA000001409E
:10338000443802400010004090F83D10012901D05F
:1033900001207047022180F83D10006811498842E1
:1033A00014D0B0F1804F11D00F4988420ED00F4990
:1033B00088420BD00E49884208D00E49884205D079
:1033C0000D49884202D00D49884204D1816801F03C
:1033D0000701062903D0016841F0010101600020C6
:1033E0007047000000000140000400400008004059
:1033F000000C004000040140004001400018004063
:1034000090F83D10012901D001207047022180F879
:103410003D100168CA6842F00102CA6000681149A3
:10342000884214D0B0F1804F11D00F4988420ED09D
:103430000E4988420BD00E49884208D00D49884277
:1034400005D00D49884202D00C49884204D18168D8
:1034500001F00701062903D0016841F00101016074
:1034600000207047000001400004004000080040B8
:10347000000C0040000401400040014000180040E2
:1034800001680A6A41F211131A4207D10A6A9B10B5
:103490001A4203D10A6822F001020A60012180F871
:1034A0003D100020704770B5044690F83C000025A0
:1034B000012817D0012684F83C60022084F83D00E2
:1034C0002068826822F0770222F47F4282600868D6
:1034D000502838D00DDC20284FD005DC90B31028C0
:1034E00011D14AE0022070BD302846D040280AD1D0
:1034F0003BE060282FD070280DD0B0F5805F03D05E
:10350000B0F5005F12D0012584F83D60002084F8FA
:103510003C00284670BDCB68D1E90121206801F04C
:10352000AEFA2068816841F0770109E0CB68D1E903
:103530000121206801F0A3FA2068816841F48041EC
:103540008160E1E719E0CA684968206801F06CFB16
:103550005021206806E0CA684968206801F075FBC0
:103560006021206801F095FACEE7CA6849682068B2
:1035700001F05AFB40212068F4E72268014610461A
:10358000F0E7704770B50446006801694FF0000528
:10359000C943890715D4C168C943890711D4E91EF5
:1035A000016101202077206880698007204602D0D1
:1035B000FFF7E7FF04E000F0C5F8204600F057F9F8
:1035C000257720680169C943490717D4C168C943F1
:1035D000490713D46FF004010161022020772068AD
:1035E000806910F4407F204602D0FFF7CAFF04E054
:1035F00000F0A8F8204600F03AF925772068016924
:10360000C943090716D4C168C943090712D46FF02A
:1036100008010161042020772068C06980072046E6
:1036200002D0FFF7AEFF04E000F08CF8204600F077
:103630001EF9257720680169C943C90617D4C168F6
:10364000C943C90613D46FF0100101610820207727
:103650002068C06910F4407F204602D0FFF791FF38
:1036600004E000F06FF8204600F001F925772068AB
:103670000169C943C90708D1C168C943C90704D151
:10368000891E0161204600F057F920680169C9438D
:10369000090609D4C168C943090605D46FF0800141
:1036A00001612046FFF78FFD20680169C943490683
:1036B00009D4C168C943490605D46FF040010161CE
:1036C000204600F03AF920680169C94389060BD405
:1036D000C168C943890607D46FF020010161204603
:1036E000BDE87040FFF770BD70BD000010B586B03A
:1036F000044614216846FCF7CDFD0F492068884236
:1037000017D10E480021026842F0010202600068F1
:1037100000F0010005904FF4E06000900220CDE938
:103720000101032003900120049069460448FEF73C
:1037300013FF06B010BD0000000001403038024009
:1037400000000240704770B5044690F83C00002627
:103750000D4601280FD0012084F83C006AB1042AEC
:103760001DD0082A2FD00C2A3FD00126002084F833
:103770003C00304670BD022070BD206801F092F917
:103780002068816941F0080181612068816921F028
:1037900004018161206881692A69114311E0206870
:1037A00001F0B0F92068816941F40061816120680D
:1037B000816921F480618161206881692A6941EA17
:1037C00002218161D2E7206801F0D2F92068C16945
:1037D00041F00801C1612068C16921F00401C161A3
:1037E0002068C1692A69114311E0206801F0F4F9E9
:1037F0002068C16941F40061C1612068C16921F498
:103800008061C1612068C1692A6941EA0221C16100
:10381000ACE710B5040003D094F83D0010B107E008
:10382000012010BD002084F83C00204600F01EF866
:10383000022084F83D00211D206801F0AFF801202E
:1038400084F8460084F83E0084F83F0084F8400085
:1038500084F8410084F8420084F8430084F844006E
:1038600084F8450084F83D00002010BD7047704783
:1038700010B50446022249B104290ED0082913D0FC
:1038800094F84100012816D0012010BD94F83E00A4
:103890000128F9D184F83E200FE094F83F00012878
:1038A000F2D184F83F2008E094F840000128EBD1E1
:1038B00084F8402001E084F841200122206801F0D2
:1038C000D1F816492068164A884201D0904203D1A7
:1038D000436C43F4004343642068884213D0B0F142
:1038E000804F10D00F4988420DD00F4988420AD02E
:1038F0000E49884207D0904205D00D49884202D037
:103900000C49884204D1816801F00701062903D0DF
:10391000016841F001010160002010BD000001407C
:10392000000401400004004000080040000C00407A
:1039300000400140001800407047704770477047D2
:10394000F8B5016804460868CA684B6910F00F0FA3
:103950004FF0000559D003F0010602F49077374389
:1039600065D0C10705D0D10503D5216C41F0010117
:103970002164410705D5D90703D0216C41F002012C
:103980002164810705D5D90703D0216C41F00401DA
:103990002164010707D502F02001314303D0216CD7
:1039A00041F008012164216C00293AD0800604D539
:1039B000900602D5204601F089F920684069216C03
:1039C000C0F38010090700D460B3204601F057F916
:1039D00020684069400621D52068143050E8001F57
:1039E00021F0400140E80012002AF5D1A06BA8B1F7
:1039F0006C490165A06BFEF767FD002811D0A06B34
:103A0000016D01B0BDE8F040084783060FD593066D
:103A10000DD52046BDE8F84001F058B92046FFF723
:103A20008EFFF8BD2046FFF78AFF2564F8BD266BA0
:103A30002023012E79D1C60677D5D60675D508681C
:103A4000486800904869400640D5A16B0868406806
:103A50000004000CEAD0A28D8242E7D9E085C86953
:103A6000B0F5807F2DD020680C3050E8001F21F485
:103A7000807140E80012002AF5D12068143050E827
:103A8000001F21F0010140E80012002AF5D1206852
:103A9000143050E8001F21F0400140E80012002AD5
:103AA000F5D184F83E30256320680C3050E8001FC3
:103AB00021F0100140E80012002AF5D1A06BFEF7BA
:103AC000BAFCA08DE18D401A81B229E0A08DE18D74
:103AD000401A81B2E08D0028A8D00029A6D0206825
:103AE0000C3050E8002F22F4907240E80026002E9F
:103AF000F5D12068143050E8002F22F0010240E890
:103B00000026002EF5D184F83E30256320680C3065
:103B100050E8002F22F0100240E80023002BF5D1DE
:103B20002046FFF70BFFF8BDFFE705062BD515066E
:103B300029D594F83D002128F5D1A068B0F5805F23
:103B400001D12069B0B1206A411C2162216800784E
:103B50004860E08C401E0004000CE084E3D1206843
:103B6000C16821F08001C1602068C16841F0400156
:103B7000C160D8E7206A0088C0F308004860206A66
:103B8000801C2062E5E74006CDD55006CBD5CA683B
:103B9000204622F04002CA6084F83D3000F0EFF881
:103BA000C1E700006F4C000870B5040004D094F821
:103BB0003D00002510B106E0012070BD84F83C50A6
:103BC000204600F023F8242084F83D002068C168D6
:103BD00021F40051C160204601F0D8F82068016945
:103BE00021F4904101612068416921F02A0141617D
:103BF0002068C16841F40051C1602564202084F828
:103C00003D0084F83E00002070BD000010B586B075
:103C1000044614216846FCF73DFB1749206888429A
:103C200028D116480021026842F400320260006880
:103C300000F40030059011481038026842F001028B
:103C40000260006800F0010005900C200090022046
:103C5000CDE901010320039007200490694608483C
:103C6000FEF77AFC002202212620FEF7D9FD26204D
:103C7000FEF7C8FD06B010BD0044004040380240C9
:103C80000000024090F83E30202B0ED159B152B1C5
:103C900090F83C30012B08D0012380F83C30002301
:103CA000036301F0F9B8012070470220704700005B
:103CB00010B5012203490448FFF7E4FFBDE81040B6
:103CC00005F08EBB65000020980E00202DE9F8431A
:103CD000044690F83D001F4616460D4620284CD15C
:103CE000C5B1BEB194F83C00012846D0012084F84B
:103CF0003C004FF00008C4F84080212084F83D00CB
:103D0000FEF71EFDA6848146E684A068B0F5805FBC
:103D100003D004E00120BDE8F883206928B12E46D5
:103D20005FF0000584F83C800EE00026FAE7802171
:103D3000204601F0CEF8A0B9AEB116F8010B21680B
:103D40004860E08C401EE084E08C4B464FF000025F
:103D500000970028EBD14FF04001204601F0B9F860
:103D600030B10320D7E735F8020BC0F30800E6E7CF
:103D7000202084F83D000020CDE70220CBE77047EB
:103D8000FEE700000948C06800280ED0084807492F
:103D9000084BC268891C9A4201DD03220A8000692F
:103DA000054A904201DD0420088070474000002051
:103DB000D00800200000C8420000F04208490A88EC
:103DC000881E03889A4209D00288012A04D9012357
:103DD000821E13610023D3600088088070470000B2
:103DE0004400002070B58CB00024089409940A9413
:103DF000202168460B94FCF74DFA1F481D494FF4EB
:103E000080360160C0E901640461047680F82040D6
:103E10001A49C0E90A140125C561C46080F8304020
:103E20004561FDF75EFE08B1FDF737FB0820CDE9DF
:103E3000080508A90A941048FDF79EFD08B1FDF792
:103E40002CFB0A20CDE900054FF480100294CDE947
:103E500006608DF8154004958DF8144069460648B3
:103E60000394FDF71DFC002801D0FDF716FB0CB0F4
:103E700070BD000000200140680C00200100000F10
:103E800070B58CB00024089409940A9420216846E7
:103E90000B94FCF7FFF91F481D494FF48036016071
:103EA000C0E901640461047680F820401A49C0E941
:103EB0000A140125C561C46080F830404561FDF7F2
:103EC00010FE08B1FDF7E9FA0920CDE9080508A9B7
:103ED0000A941048FDF750FD08B1FDF7DEFA0B20FB
:103EE000CDE900054FF480100294CDE906608DF80D
:103EF000154004958DF81440694606480394FDF773
:103F0000CFFB002801D0FDF7C8FA0CB070BD00004F
:103F100000210140B00C00200100000F7FB50024FB
:103F200015480094019402941249039401604FF4DF
:103F30008031C0E901140461047680F820400F4903
:103F4000C0E90A140125C561C46080F830404561AC
:103F5000FDF7C7FD08B1FDF7A0FACDE900456946B8
:103F600005480294FDF708FD002801D0FDF795FAF9
:103F70007FBD000000220140F80C00200100000F6E
:103F8000104810B50E4901600521416000214FF431
:103F9000A0228160C0E903124FF4801242610176D1
:103FA000417681760122C27601774177FEF73FF9AB
:103FB000002803D0BDE81040FDF76FBA10BD000027
:103FC00000640040400D00202DE9F04387B014212B
:103FD0006846FCF75FF92A480024016841F0800137
:103FE0000160016801F080010591016841F0040160
:103FF0000160016801F004010591016841F00101CF
:104000000160016801F001010591016841F00201C0
:1040100001600068DFF86C8000F00200059000226B
:1040200020214046FEF786FBDFF85C904FF40847FE
:10403000002239464846FEF77DFBE020009001A9AA
:104040000220032581E83100052004906946484696
:10405000FEF782FA20200126CDE900066946404697
:10406000CDE90245FEF778FACDE900766946484683
:10407000CDE90245FEF770FA07B0BDE8F083000015
:10408000303802400008024000000240104810B5DD
:104090000E4901604FF48271416000214FF40062CB
:1040A000C0E902120122C0E904125202C0E906214D
:1040B0000162416281620A21C162FEF7EBFE0028C3
:1040C00003D0BDE81040FDF7E8B910BD003C00404A
:1040D000680D002030B595B000240F941094119411
:1040E000129413941C2168461494FCF7D3F82021F1
:1040F00007A8FCF7CFF838483649202580E8320079
:1041000040F6CA01C0E903140121416180218161A7
:10411000FFF7CEF808B1FDF7C0F94FF480500F90CB
:104120000FA92D48FFF7BFF908B1FDF7B6F92A48E6
:10413000FFF76FFB08B1FDF7B0F9CDE9135413A9F0
:104140002548FFF76DF808B1FDF7A7F96020CDE924
:1041500000040220CDE902040420CDE90404002279
:1041600069461D480694FFF7EEFA08B1FDF795F988
:10417000042269461848FFF7E6FA08B1FDF78DF901
:10418000082269461448FFF7DEFA08B1FDF785F901
:1041900040F6C80001900C22694604940E48FFF7CF
:1041A000D2FA08B1FDF779F90794089409944FF40D
:1041B00000500A94CDE90B4007A907480E94FFF779
:1041C00004F808B1FDF769F90348FFF78FFA15B055
:1041D00030BD000000000140C00D002010B586B0C9
:1041E00000241648009401940294039404944FF020
:1041F0008041059401605921C0E9011440F2E73182
:10420000C0E903148461FFF753F808B1FDF745F9DD
:104210004FF48050009069460848FFF744F908B110
:10422000FDF73BF9049404A904480594FEF7F8FF50
:10423000002801D0FDF731F906B010BD080E0020AE
:104240001CB500240E4800940C49019401605921CA
:10425000C0E901144FF6FF718461C160FFF728F8CF
:1042600008B1FDF71AF90094694605480194FEF774
:10427000D7FF002801D0FDF710F91CBD0010004049
:10428000500E00200C4810B50A4901604FF461211E
:104290004160002181600C22C160C0E9041281618B
:1042A000C161FFF781FC002803D0BDE81040FDF795
:1042B000F4B810BD00440040980E0020FEE770479F
:1042C0007047000070B500252DED028BB0EE408ADE
:1042D0001161506082ED888A144695600122D103F5
:1042E0000948FEF727FA4FF6FF7060619FED070A55
:1042F00084ED8A8A84ED8B0A84ED8C0A84ED8D0A24
:104300002560BDEC028B70BD000002400000000083
:1043100038B504461248134B0068B0FBF3F04FF475
:104320007A73584300906068B0F5827F0DD10B46D8
:10433000009200228021204600F016F870B1606DD6
:1043400040F020006065032038BD009830B1401E69
:10435000009020688068C0430006F6D5002038BD74
:104360007400002000366E012DE9F8431E46914688
:1043700088460446089DFEF7E3F9401B351AFEF710
:10438000DFF9074625480068C0F3CB30684338E0C2
:10439000701C37D0FEF7D4F9C01BA84203D215B168
:1043A000009860B32CE02068416821F0E001416092
:1043B0006068B0F5827F0BD1A068B0F5004F02D0E5
:1043C000B0F5806F04D12068016821F040010160E0
:1043D000A06AB0F5005F09D12068016821F400519E
:1043E00001602068016841F400510160012084F8F7
:1043F0005100002084F850000320BDE8F883002518
:10440000401E00902068816838EA010004D0002135
:104410004945BDD10020F0E70121F9E774000020F3
:1044200070470000F0B52DED028B83B00446808A02
:10443000774FADF804004FF40046B0EE408A0022FA
:1044400031463846FEF776F90220009001230DF13F
:10445000060201A96F48FEF7B1FD0546012231466B
:104460003846FEF767F9BDF80600C0F30D0020607E
:104470001DB1294668A000F091FD2068C11104EB30
:1044800081018A69012101EBE011CB1701EB536334
:1044900023F07F03C91A04EB810120F07F038969AF
:1044A000C31A891A4B4302EBE3110144E2686068C6
:1044B0008A1A00EBD073B2EB630F02DDA268521EC2
:1044C00007E0434203EBD373B2EB630F02DAA26857
:1044D000521CA26000EE901AE16094ED8B0AF8EE97
:1044E000E00A84ED8C0A9FED521A20EE812A00EE3C
:1044F000900AF8EEE00AC2EE201AC4ED8B1AA26808
:10450000424300EE902AB8EEE02A00EE901AF8EE50
:10451000E00A72EE200A20EE812A00EE900AF8EE00
:10452000E02AC2EE220AC4ED860A94ED8A2A70EED1
:10453000C20AC4ED890A00EE900A2269F8EEE00A88
:104540004A4392FBF0F181EE202A00FB112000EE9D
:10455000900AF8EEE02AD4ED880A42EE220AF5EE3F
:10456000C00AF1EE10FA02D270EE810A06E010EEF7
:10457000900A3049884201DD70EEC10A71EEC01A1E
:10458000C4ED870A11EE900A10F17F5F02D931EE77
:10459000810A06E011EE900A2749884204DD31EED7
:1045A000C10AC0EE080A01E0C1EE880A3C210120E0
:1045B000B0EE600A0A1A04EB8202401C92ED8D1ADA
:1045C000884282ED8E1A31EE000AF3DBC4ED8E0ACA
:1045D00000EE901AB8EEE01AC0EE010A9FED171A2D
:1045E000C4EDCA0A94ED040AB8EEC00A20EE800AAF
:1045F00084EDCB0AD4EDCC0A60EE810A9FED101A4F
:1046000040EE010AC4EDCC0A03B0BDEC028BF0BD54
:1046100000000240680D0020656E636F64657220C3
:10462000726564206572726F72202564200A0D0025
:10463000DB0FC940DB0FC94000004040A4707D3F44
:104640000AD7233C014880ED880A70478800002083
:10465000014880ED8A0A704788000020FEF776B88E
:1046600030B593B034216846FBF714FE14210DA831
:10467000FBF710FE1A480025016841F080510160E7
:10468000006800F0805012901648016841F44041E3
:1046900001600068022400F4404012900120009064
:1046A000000401908001CDE9064004200890B42068
:1046B000CDE909040B9468460C94FEF71FFAFEF747
:1046C000E1F80DA90F2081E831004FF4A0501090BF
:1046D000E002119005210DA8FEF70CF913B030BDD2
:1046E00040380240007000400548016841F4700104
:1046F000016003494FF00060803908607047000096
:1047000088ED00E070B51C482DED028B02F00CFB2B
:104710001A489FED1B0AFFF785FEFCF799FF164C20
:10472000184DB7EE008A84ED0C0A95ED090A303475
:10473000C8EE008AFCF798FF28EE800A04ED010A13
:1047400095ED090AC8EE008AFCF79EFF28EE800A64
:1047500084ED010AFCF782FF84ED020A04F082FC7A
:1047600002F0D0FF606F401C60670748BDEC028B11
:10477000BDE87040FEF706BFD0080020880000208A
:1047800017B7D137BC030020C00D002010B56C480E
:104790002DED108B82B0FDF74FFA6A48FDF74CFA09
:1047A0006948FDF749FA6848FDF798F9674C00EE4B
:1047B000100AA060D4ED080ADFED658AB8EEC00AE1
:1047C00060EEA80A9FED631A20EE010A9FED621ABF
:1047D0005C4840EE010AC4ED080AFDF77FF900EEDF
:1047E000100AB8EE400A9FED5D9A20EE090ADFED4F
:1047F0005C9A534820EE298AFDF770F939EE481A81
:1048000000EE100AC8EE010AB8EE400A20EE090ACE
:1048100020EE290A9FED538A20EE881A79EE400A8D
:1048200060EE881AC1EE800A81EE080ACDED000A1A
:1048300010EE100AFBF7CEFE41EC100B00F0A0FCCE
:104840009FED49AB51EC100B53EC1A2BFBF753FEC9
:104850009FED47BB53EC1B2BFBF734FD41EC100BDA
:1048600053EC102B9FED44CB51EC1C0BFBF743FE9C
:104870009FED43DB53EC1D2BFBF7C5FD9FED42EB9A
:1048800053EC1E2BFBF71EFD9FED41FB53EC1F2B42
:10489000FBF7BFFD94ED030A41EC190B20EE280A4B
:1048A00010EE100AFBF796FE53EC192BFBF70AFDEE
:1048B000FBF7A3FEE060DDED000A80EE880A10EE53
:1048C000100AFBF787FE41EC100B00F059FC53EC8B
:1048D0001A2B51EC100BFBF70EFE53EC1B2BFBF7C6
:1048E000F1FC41EC100B51EC1C0B53EC102BFBF7C3
:1048F00002FE53EC1D2BFBF786FD53EC1E2BFBF742
:10490000E1FC53EC1F2BFBF784FD94ED040A41EC12
:10491000190B20EE280A10EE100AFBF75BFE53EC91
:10492000192BFBF7CFFCFBF768FE2061FFF72AFA93
:1049300002B01948BDEC108BBDE81040FEF722BE56
:10494000680C0020B00C0020F80C0020D0080020DB
:104950003333733FCDCC4C3D0C514F3C333353403C
:104960000000803900401C46000000000058AB40A9
:10497000000000E0E1796B3F000000000000F03F24
:104980000000006066127140000000000000E03F7F
:10499000000000A09999A93F080E0020F0B5026818
:1049A000254C264D264E274F274B4FF0804CA042DA
:1049B00009D0604507D0A84205D0B04203D0B84224
:1049C00001D0984204D122F0700E4A6842EA0E02E9
:1049D000A0421BD0604519D0A84217D0B04215D0D4
:1049E000B84213D0984211D0184DA8420ED0184D9D
:1049F000A8420BD0174DA84208D0174DA84205D0A9
:104A0000164DA84202D0164DA84203D122F440759B
:104A1000CA682A434D6922F080022A4302608A68EC
:104A2000C2620A688262A04201D0984201D109693B
:104A3000016301214161F0BD00000140000400401C
:104A400000080040000C004000040140004001400C
:104A5000004401400048014000180040001C004094
:104A60000020004010B501F01F030121046A9940A5
:104A70008C430462016A9A401143016210BD10B573
:104A8000846842EA032224F47F440A43224382607A
:104A900010BD826822F070020A4342F00701816073
:104AA00070470000F0B5026A22F001020262036A58
:104AB00042688469124E24F073050C682C4323F07D
:104AC00002058B682B430D4DA84201D0B04205D1A1
:104AD00023F00807CB683B4323F00403A84201D02E
:104AE000B04205D14D6922F4407215438A692A43C8
:104AF00042608461496841630362F0BD0000014087
:104B000000040140F0B5026A22F010020262026A5B
:104B1000436884690D6824F4E64444EA05248D68FA
:104B200022F0200242EA05120F4D104EA84201D099
:104B3000B04206D1CF6822F0800242EA071222F08A
:104B40004002A84201D0B04207D14D6923F440632E
:104B500043EA85038D6943EA8503436084614968BC
:104B600081630262F0BD00000000014000040140CA
:104B7000F0B5026A22F480720262026A4368C46974
:104B800022F4007224F073050C68124E2C438D68D9
:104B900042EA05220E4DA84201D0B04206D1CF68AC
:104BA00022F4006242EA072222F48062A84201D085
:104BB000B04207D14D6923F4405343EA05138D6990
:104BC00043EA05134360C4614968C1630262F0BDF2
:104BD000000001400004014030B5026A22F4805216
:104BE0000262046A4268C3690D6823F4E64343EA3B
:104BF00005238D6824F4005444EA0534084DA84286
:104C000002D0084DA84204D14D6922F4804242EA04
:104C100085124260C36149680164046230BD0000CE
:104C2000000001400004014010B5036A046A24F04A
:104C300001040462846924F0F00444EA021423F0BD
:104C40000A020A438461026210BD10B5036A23F0B0
:104C5000100303628369046A23F4704343EA023257
:104C600024F0A00343EA01118261016210BD10B576
:104C7000806B0021C185C184FEF761FE10BD016813
:104C80000C3151E8002F22F4907241E80023002BF0
:104C9000F5D10168143151E8002F22F0010241E8FA
:104CA0000023002BF5D1016B012909D101680C31DA
:104CB00051E8002F22F0100241E80023002BF5D12B
:104CC000202180F83E1000210163704708B590F85C
:104CD0003E10222901D0022008BD82684FF4805383
:104CE0009A4201D1016921B1816A9A421BD04AB12D
:104CF0000AE00268816A5268C2F308020A80816A87
:104D0000891C08E0026972B10268526802F07F02F1
:104D10000A70816A491C8162C18D491E0904090C0F
:104D2000C18503D019E002685268F1E70168CA68DA
:104D300022F02002CA600168CA6822F48072CA6048
:104D400001684A6922F001024A61202180F83E1080
:104D5000016B012903D0FEF7ABFF002008BD002145
:104D6000016301680C3151E8002F22F0100241E884
:104D70000023002BF5D101680A68D20602D50A6823
:104D800049680091818DFEF7D9FDE6E770B50446CC
:104D900000680169E26821F4405111430161216911
:104DA000A068E26908436169114308432168CA6841
:104DB00049F20C639A430243CA6020684169A269C0
:104DC00021F440711143416131492068884202D089
:104DD0003049884202D1FDF737FE01E0FDF724FE9D
:104DE000E2690023192164253226B2F5004F62687A
:104DF00028D0A0FB0101930F9200FBF701FA0146B6
:104E0000B0FBF5F06FF01802504301EB800006EBA9
:104E10000010B0FBF5F000F0F002B1FBF5F002EB92
:104E20000012B1FBF5F06FF01803584301EB80005E
:104E300006EB0010B0FBF5F000F00F002168104405
:104E4000886070BDA0FB010192185B41FBF7D8F9A7
:104E50000146B0FBF5F00201B1FBF5F06FF018036D
:104E6000584301EB800006EBC000B0FBF5F000F00A
:104E7000F80002EB4002B1FBF5F0584301EB800073
:104E800006EBC000B0FBF5F000F00700D6E700002D
:104E9000001001400014014081628285C28500211A
:104EA0000164222280F83E2080F83C10016921B183
:104EB0000168CA6842F48072CA6001684A6942F0B7
:104EC00001024A610068C16841F02001C160002010
:104ED00070472DE9F041984617460E460446069D58
:104EE00027E0681C25D02DB1FDF72AFCA0EB0800B7
:104EF000A8421ED920680C3050E8001F21F4D07160
:104F000040E80012002AF5D12068143050E8001F54
:104F100021F0010140E80012002AF5D1202084F898
:104F20003D0084F83E00002084F83C000320BDE8EA
:104F3000F0812068006836EA000004D00020B84202
:104F4000CFD00020F3E70120F9E700000148FEF789
:104F5000F7BC0000980E0020FEE700000146024862
:104F60004FF40072FBF77DB9A000002010B5084C8B
:104F700000209FED080AA06084ED8A0A20469FED7C
:104F8000060AFFF74FFA94ED890A84ED8A0A10BDEC
:104F900088000020000000006F1283390FB4054B19
:104FA00010B503A9044A029801F0F4FA10BC5DF8A8
:104FB00014FB0000018300087800002003B401986E
:104FC0004100009850EAC12018BF04204A0D18BFC4
:104FD00040F0010040F2FF72B2EB515F08BF40F0B9
:104FE0000200012808BF052002B0704720F00040F1
:104FF000C0F1FF40C00F70470907090E002804DB0D
:1050000000F1E02080F80014704700F00F0000F17C
:10501000E02080F8141D704700487047840000208D
:1050200030B583B0044601F0CFF99FED090B05467A
:105030008DED000B002221466846FBF75CFB2846FD
:1050400001F0D8F99DED000B03B030BD0000000069
:105050000000000000000000B4EEE00AF1EE10FADB
:1050600001DCB0EE600A7047B4EEE00AF1EE10FA2F
:1050700001D3B0EE600A704710B52DED040B86B079
:105080009DED060B10EE100A10EE901A8DED000B40
:10509000002818BF0120084320F00040C0F17F60C5
:1050A00000F1E040C00F21D19DED080B10EE101A69
:1050B00010EE900A8DED000B002918BF0121084366
:1050C00020F00040C0F17F6000F1E040C00F0DD142
:1050D00029490798B1EB400F04BF0698002842D039
:1050E0000998400004BF089800283CD09DED080BAB
:1050F00053EC102B9DED060B51EC100BFBF762FCF3
:10510000CDE902019DED020B40F2FF7110EE900A15
:105110008DED000B31EA105021D00798039900F073
:10512000004001F00041884219D09DED080B8DED43
:10513000040B9DED020B8DED000B10EE900A05990E
:1051400061F31E0005909DED041B9DED020B51ECDB
:10515000110B53EC102BFBF759F9CDE902019DED32
:10516000020B0AB010BD012001F044F90AB0BDE8FD
:10517000104001F0F9B800000000E0FF000000005E
:1051800070B5D94B00242DED020B2DED108BDDE910
:105190001010984205DA20F000429A4201D809D155
:1051A00041B19DED100BBDEC108B02B0BDE870401D
:1051B00001F0C6B8B0F5801F26DA11430BD00028E5
:1051C00013DA012001F016F9BDEC108B02B0BDE836
:1051D000704001F0C9B8022001F00CF901F098F814
:1051E00051EC100B81F000419EE06FF035049FED13
:1051F000C00B53EC102B9DED100B51EC100BFBF77B
:1052000008F9CDE91001084604EB2051C0F313045E
:10521000B948A1F2FF31204400F4801080F07F6291
:1052200082F04052224301EB20559FEDB50B1192C5
:1052300053EC102B9DED100B51EC100BFBF7E3F82A
:1052400041EC180BA01CC0F313009FEDAFDB9FEDEA
:10525000B0EBB14E7E4403286CD296ED000B51ECBE
:10526000180B53EC102BFBF719FC1DD1002D01BFBF
:1052700096ED000BBDEC108B02B070BD2846FBF71D
:10528000E4FB41EC180B53EC1D2BFBF7C2F841EC8F
:10529000190B53EC1E2B51EC180BFBF7BAF853EC1F
:1052A000192BFBF70FF83FE09FED9D0B51EC180B0E
:1052B00053EC102BFBF7ADF89FED9B1B53EC112B20
:1052C000FBF7A4F841EC190B53EC182B51EC180B1D
:1052D000FBF79FF853EC192BFBF79BF841EC190BEC
:1052E000002D04BF53EC192B51EC180B1AD0284693
:1052F000FBF7ABFB41EC1A0B53EC1D2BFBF789F8CA
:1053000053EC192BFBF782F853EC182BFBF77BF8C7
:1053100041EC180B53EC1E2B51EC1A0BFBF779F8F0
:1053200053EC182BFBF76FF8BDEC108B02B041EC7F
:10533000100B70BD9FED7E0B51EC180B53EC102B36
:10534000FAF7C0FF41EC100B51EC180B53EC102B8B
:10535000FBF7D1F841EC190B2846FBF776FB41EC43
:105360001B0B53EC192B51EC190BFBF752F841ECCA
:105370001A0B714853EC1A2B261851EC1A0BFBF739
:1053800048F841EC1F0B6D48C4F1510404F5D724D3
:10539000B0EE4F0AF0EE6F0A0321784400F039FFB7
:1053A00053EC1F2B51EC100BFBF733F841EC1C0BAB
:1053B0006348B0EE4F0AF0EE6F0A0421784400F023
:1053C00028FF53EC1A2B51EC100BFBF722F8344357
:1053D00053EC1C2BFAF776FF41EC1C0B002C4CDD38
:1053E0009FED510B51EC180B53EC102BFBF711F800
:1053F00053EC182BFBF70DF841EC1A0B55B353EC9B
:105400001D2B51EC1B0BFBF704F841EC1D0B53EC6F
:105410001C2B51EC1A0BFAF755FF53EC192BFAF72A
:10542000F8FF53EC1D2BFAF74DFF53EC1A2BFAF74C
:10543000EDFF53EC182BFAF7E6FF41EC180B53EC99
:105440001E2B51EC1B0BFAF7E4FF53EC182BFAF769
:10545000DAFF69E753EC1C2B51EC1A0BFAF732FF19
:1054600053EC192BFAF7D5FF53EC1A2BFAF7CEFFB2
:1054700053EC182BFAF7CAFF56E735B353EC1D2B44
:1054800051EC1B0BFAF7C5FF41EC1A0B53EC1C2B2C
:1054900051EC180BFAF7B7FF53EC192BFAF7B9FFD9
:1054A00053EC1A2BFAF7AFFF53EC182BFAF7ABFFBC
:1054B00041EC180B53EC1E2B51EC1B0BFAF7A9FF18
:1054C00053EC182BFAF79FFF2EE753EC1C2B51ECF3
:1054D000180BFAF798FF53EC192BFAF79AFF53ECD5
:1054E000182BFAF793FF1FE70000F07F0000000081
:1054F0000000000000005043645F0900000000004D
:10550000000000000000F03F763C7935EF39EA3DBD
:105510000000E0FE422EE63FA04E0000000000002A
:10552000555555555555D53F000000000000E03F4A
:10553000000000000000004086EBF9FF9A4C0000DC
:10554000904C0000000000002DE9F04D2DED040B03
:105550002DED0E8B96B0DDE92550279CDDF890A04F
:1055600025F0004624F00048BAF1000F14BF0121D5
:10557000002101EB4502FC4953184A1093422AD3FB
:10558000002814BF0123002303EB44030B44F74915
:105590008B4220D358EA00019FEDF59B76D0DFF8CF
:1055A000D8B35D4503D1BAF1000F05D188E0BAF157
:1055B000000F08BF002100D0012101EB450111F5CA
:1055C000001F08D8002814BF0121002101EB44016D
:1055D00011F5001F0BD99DED261B9DED240B16B078
:1055E000BDEC0E8B04B0BDE8F04D00F0B3BE00275B
:1055F000002DBCBFE149884521DAE1498845A8BFB3
:1056000002271CDAC3451ADCDE4901EB28511429B4
:1056100008DDC1F1340220FA02F101FA02F28242FD
:105620000DD108E058B9C1F1140228FA02F101FACB
:1056300002F2424503D101F00101C1F1020756EA2D
:105640000A0124D1002C22DA002D18BF022F01D02C
:10565000012F0AD0022000F0CDFE16B0BDEC0E8B5B
:1056600004B0BDE8F04D00F053BE022000F0C2FED1
:1056700000F04EFE51EC100B81F0004141EC100B9C
:1056800016B0BDEC0E8B04B0BDE8F08D18E09FEDB8
:10569000BEAB9FEDBF8B002871D1B848804522D1A9
:1056A00005F1804010F5801008BFBAF1000F07D057
:1056B000B3450ADC002CA8BF9DED260BE0DA0DE017
:1056C000B0EE490AF0EE690ADAE7002C06DA9DED41
:1056D000260B51EC100B81F000416FE0AE4878448E
:1056E00090ED000BCCE7D8454DD1002C48DA2EB117
:1056F00086423AD1BAF1000F42D126E0BAF1000F4A
:1057000013D0022000F076FE00F03EFE8DED020B7D
:105710009DED240B8DED000B10EE900A039961F3C3
:105720001E0003909DED020BAAE78DED02AB9DEDEF
:10573000240B1AEE901A10EE900A8DED000B61F317
:105740001E0003909DED020B9AE78DED028B9DEDFF
:10575000240B18EE901A10EE900A8DED000B61F3F9
:105760001E0003909DED020B8AE709DA9DED240BE4
:1057700051EC190B53EC102BFAF7BDFE1EE020E0A4
:105780009DED240B7CE786421BDAB4F1804F0DD0EF
:10579000A4F10050B0F1FF5013D1002D11DB9DEDAD
:1057A000240B51EC100B03F0DBFC07E09DED240B08
:1057B00053EC102B51EC100B00F0C2BC41EC100B61
:1057C0005EE79DED240B51EC100B02F007FDBAF1E2
:1057D000000FCDE90E0142D19FED710B46B3A6F14A
:1057E000E040B0F17F600CD05E4538D1002D00DA8A
:1057F000A7B3022F0CBF01204FF0FF30FBF725F9B4
:10580000DCE7002D01DD002C0DDA002D01DD002C80
:105810001FDB002D16DA002C14DB012F08BF9FEDD3
:10582000620B3FF42DAFB0EE4A0AF0EE6A0A27E7AA
:10583000022F18BF002D0CD0012F0AD1002DFFF62A
:105840001FAF06E0002DB8BF002C08DA012F3FF48F
:1058500017AFB0EE480AF0EE680A11E71BE001202E
:1058600000EBE57050EA070115D0791EB0EE498AC9
:10587000F0EE698A084308BF9FED4D8B4E48002526
:10588000804570DD4D494E48884514DDB0420DDB42
:10589000002C19DB2FE0012000F0ACFD16B0BDECB0
:1058A0000E8B04B0BDE8F04D00F05EBDB34502DCE8
:1058B000002C09DC1FE0864202DA002C1BDA03E030
:1058C0005E452BDD002C16DD022000F093FD00F07C
:1058D0005BFD8DED020B53EC1A2B51EC180BFAF714
:1058E00098FDCDE900010399019861F31E00039032
:1058F0009DED020BC4E6022000F07CFD00F054FD9B
:1059000010EE901A18EE900A8DED020B8DED008BC3
:1059100061F31E0003909DED020BB1E69DED0E0BB1
:1059200053EC192B51EC100BFAF76DFD9FED260B84
:10593000CDE9080153EC102B9DED080B51EC100B39
:10594000FAF767FD9FED221B53EC112BFAF75EFD72
:105950009DED081B53EC112BFAF75BFD9FED1E1B11
:1059600053EC112B3CE08CE0FFFF1F00FFFF0F000A
:10597000000000000000F03F0000F03F0000F07F5A
:105980000000404301FCFFFF000000000000F07F2A
:105990000000000000000000164A000000000000A7
:1059A0000000000000000080000000000000F0FF88
:1059B000000000000000F0BF0000E0410000F043E4
:1059C000FFFFEF3F00000000000000000000D03F9C
:1059D000555555555555D53F000000000000E03F96
:1059E000FAF714FD9DED080B41EC1A0B53EC102B4C
:1059F00051EC100BFAF70DFD53EC1A2BFAF709FDD9
:105A000041EC1A0B9FEDFE0B53EC102B9DED080B98
:105A100051EC100BFAF7FDFC41EC1B0B9FEDFA0B60
:105A200051EC1A0B53EC102BFAF7F3FC41EC1A0B68
:105A30009FEDF70B53EC102B9DED080B51EC100B69
:105A4000FAF7E7FC53EC1A2BFAF7DDFC41EC1A0BE2
:105A500051EC1B0B53EC1A2BFAF734FC0690CDE9F2
:105A600006519DED060B53EC1B2B51EC100BFAF776
:105A7000CAFC53EC1A2BFAF7C9FC41EC100B00F0EE
:105A8000A1B90020B6F5801F0EDA9FEDE30B53ECB1
:105A9000102B9DED0E0B51EC100BFAF7BAFCCDE973
:105AA0000E016FF034000E4600EB2650A0F2FF37D7
:105AB000C6F31300DA4940F07F6646F0405688424C
:105AC000D8BF002408DDD7498142C8BF012403DCC8
:105AD0000024A6F580167F1CD348784400EBC40050
:105AE0000F9690ED00CB9DED0E0B53EC1C2B51EC63
:105AF000100BFAF788FC9DED0E0B41EC1B0B53ECE1
:105B00001C2B51EC100BFAF7DDFB41EC100B51ECA8
:105B1000190B53EC102BFAF7EEFC41EC1D0B51EC7A
:105B20001B0B53EC1D2BFAF774FC41EC1A0BBF480E
:105B30008DED10AB7844109590ED000B4FF00050B8
:105B400040EA660000EB84408DED080B00F5002074
:105B500009909DED080B53EC1C2B51EC100BFAF740
:105B600052FC9DED0E1B53EC112BFAF74FFC41EC50
:105B7000100B53EC102B9DED100B51EC100BFAF7A2
:105B800048FC9DED080B41EC1C0B53EC102B9DEDDC
:105B9000100B51EC100BFAF73CFC53EC1B2BFAF7F3
:105BA00035FC53EC1C2BFAF72EFC53EC1D2BFAF7AB
:105BB00030FC41EC1C0B53EC1A2B51EC1A0BFAF78E
:105BC00028FC41EC1B0B9A480621B0EE4B0AF0EE84
:105BD0006B0A784400F01DFBB0EE401AF0EE601A3C
:105BE000B0EE41DAF0EE61DA53EC1B2B51EC1B0BFB
:105BF000FAF70FFC53EC1D2BFAF70BFC9DED100B85
:105C000041EC1B0B53EC1A2B51EC100BFAF75AFB1F
:105C100053EC1C2BFAF7FDFB53EC1B2BFAF752FB52
:105C20009DED100B41EC1B0B53EC102B51EC100BAA
:105C3000FAF7EFFB41EC1D0B9FED7FEB53EC1E2BB6
:105C4000FAF740FB53EC1B2BFAF73CFB0890CDE92D
:105C500008519DED080B53EC1E2B51EC100BFAF77D
:105C6000D2FB53EC1D2BFAF7CEFB53EC1B2BFAF7B0
:105C7000CDFB9DED080B41EC1D0B53EC102B9DED66
:105C8000100B51EC100BFAF7C4FB41EC1B0B53EC5F
:105C90001A2B51EC1D0BFAF7BCFB9DED080B41ECE8
:105CA0001A0B53EC102B51EC1C0BFAF7B2FB53EC14
:105CB0001A2BFAF707FB41EC1A0B51EC1B0B53ECB8
:105CC0001A2BFAF7FFFA0C90CDE90C519DED0C0B55
:105CD00053EC1B2B51EC100BFAF795FB53EC1A2BE2
:105CE000FAF794FB41EC1B0B9FED550B53EC102B7B
:105CF0009DED0C0B51EC100BFAF78BFB41EC1A0BE2
:105D00009FED510B51EC1B0B53EC102BFAF781FB61
:105D100041EC1B0B9FED4E0B53EC102B9DED0C0B30
:105D200051EC100BFAF775FB53EC1B2BFAF7CAFA80
:105D300041EC100B4848784400EBC40090ED001B88
:105D400051EC100B53EC112BFAF7BCFA41EC1B0B86
:105D50003846FAF77AFECDE9080153EC1B2B51ECDB
:105D60001A0BFAF7AFFA41EC100B3C48784400EB01
:105D7000C40090ED00CB51EC100B53EC1C2BFAF748
:105D8000A1FA9DED081B53EC112BFAF79BFA069034
:105D9000CDE906519DED080B53EC102B9DED060B44
:105DA00051EC100BFAF72FFB53EC1C2BFAF72BFBE3
:105DB00053EC1A2BFAF727FB53EC1B2BFAF726FBB5
:105DC00041EC100B9DED261B53EC102B8DED001BB1
:105DD00000959DED260B51EC100BFAF71AFB9DED8B
:105DE000000B41EC1A0B53EC102B9DED260B51ECE4
:105DF000100BFAF708FB9DED061B53EC112B2FE05F
:105E0000000000604715F73FFE822B654715F73FFE
:105E100044DF5DF80BAE543E00000000000040433C
:105E20008E9803007AB60B0092450000C045000032
:105E3000CA4400000000000000000000000008400C
:105E4000000000E009C7EE3FFD033ADC09C7EE3F62
:105E5000F5015B14E02F3EBE5643000010430000E6
:105E6000FAF7D7FA53EC1A2BFAF72CFA9DED060B3A
:105E700041EC1A0B53EC102B9DED000B51EC100B69
:105E8000FAF7C7FACDE90C019DED0C0B51EC1A0B9A
:105E900053EC102BFAF716FACDE902010C46AA4989
:105EA0008C422FDB611A084318D19DED0C0B53EC8B
:105EB000102B9DED020B51EC100BFAF7A4FA41ECFC
:105EC0001B0B9FEDA30B51EC1A0B53EC102BFAF7A5
:105ED000F9F953EC1B2BFAF7F9FD2DD2022000F053
:105EE00089FA00F051FA10EE901A18EE900A8DED32
:105EF000020B8DED008B61F31E0003909DED020BF4
:105F0000FFF7BEBB944A24F00041914214D3934959
:105F1000214408437FF4EFAC9DED0C0B53EC102BA8
:105F20009DED020B51EC100BFAF76DFA53EC1A2BA6
:105F3000FAF7CCFD7FF6DFAC24F000408849894AAF
:105F4000002601EB205182422BDA481C4FF48011CD
:105F500021FA00F02044844AC0F30A517A44A1F2A5
:105F6000FF3192ED000B814A8DED080BCA4020EA0B
:105F70000202C0F3130040F48010C1F1140120FAB2
:105F800001F60992002CB8BF76429DED080B53EC48
:105F9000102B9DED0C0B51EC100BFAF734FACDE9F8
:105FA0000C019DED0C0B51EC1A0B53EC102BFAF776
:105FB00089F99FED6F0B0890CDE9085153EC102B38
:105FC0009DED080B51EC100BFAF723FA41EC1B0B7B
:105FD0009FED690B53EC102B9DED080B51EC100B52
:105FE000FAF717FA9DED0C0B41EC1C0B53EC102B40
:105FF0009DED080B51EC100BFAF705FA53EC1A2B38
:10600000FAF704FA9FED5E1B53EC112BFAF701FA35
:1060100053EC1C2BFAF756F941EC1A0B51EC1B0B05
:1060200053EC1A2BFAF74EF9CDE902019DED020B64
:1060300053EC1B2B51EC100BFAF7E5F953EC1A2B30
:10604000FAF7E4F99DED020B41EC1A0B53EC102B1F
:1060500051EC100BFAF7DDF9CDE908014A489DED46
:10606000080B0521784400F0D4F89DED081B51EC95
:10607000100B53EC112BFAF7CCF99DED021B53ECEE
:10608000112BFAF7C3F9CDE906019DED020B53EC94
:106090001A2B51EC100BFAF7BCF953EC1A2BFAF748
:1060A00011F99FED3B0B41EC1A0B53EC102B9DEDBE
:1060B000060B51EC100BFAF7A6F99DED060B41EC1F
:1060C0001B0B53EC102B9DED020B51EC100BFAF750
:1060D000A0F953EC1B2BFAF70EFA53EC1A2BFAF734
:1060E00092F99DED021B53EC112BFAF78CF953EC4E
:1060F000192BFAF78BF9CDE9020101EB06500115D6
:106100000029C8BF039015DC9DED020B324651EC0F
:10611000100BFAF7EFFBFEF751FF042808BF00F061
:1061200043F932469DED020B51EC100BFAF7E2FBFE
:10613000CDE902019DED020B51EC180B53EC102B35
:10614000FAF767F9FFF73ABB000090400000000043
:10615000FE822B654715973C00CC904000346F3F82
:1061600001FCFFFF0000E03F98410000FFFF0F002F
:1061700000000000432EE63F396CA80C615C20BE95
:10618000EF39FAFE422EE63F6840000000000000B2
:10619000000000000000004000B52DED048BB0EEC3
:1061A000409AF0EE609A83B051EC190BFAF7B9FB04
:1061B00041EC180B18EE100A18EE901A8DED008BBA
:1061C000002818BF0120084320F00040C0F17F6084
:1061D00000F1E040C00F14D019EE101A19EE900A29
:1061E0008DED009B002918BF0121084320F00040DD
:1061F000C0F17F6000F1E040C00F04BF012000F05B
:10620000F9F8B0EE480A03B0F0EE680ABDEC048B72
:1062100000BD70B504462DED028B4D1E00EBC50090
:10622000B0EE408AF0EE608A90ED000B35F006008B
:1062300017D053EC182B51EC100BFAF7EAF841EC9D
:10624000100B6D1E04EBC50090ED001B51EC100B04
:1062500053EC112BFAF736F841EC100B35F0060031
:10626000E7D1022D36D0042D1CD0062D1CBFBDEC6D
:10627000028B70BD53EC182B51EC100BFAF7C9F8D8
:1062800094ED0A1B53EC112BFAF71CF853EC182B66
:10629000FAF7BFF894ED081B53EC112BFAF712F83C
:1062A00041EC100B53EC182B51EC100BFAF7B1F832
:1062B00094ED061B53EC112BFAF704F853EC182B52
:1062C000FAF7A7F894ED040B53EC102BF9F7FAFF4B
:1062D00041EC100B53EC182B51EC100BFAF799F81A
:1062E00094ED021B53EC112BF9F7ECFF53EC182B38
:1062F000FAF78FF894ED001B53EC112BF9F7E2FF3E
:10630000BDEC028B41EC100B70BD000000000000E2
:106310009FED070B10B553EC102B9FED070B51ECC5
:10632000100BFAF7E8F841EC100B10BD000000006C
:106330000000000000000000000000000000F03F2E
:1063400010B553EC102B51EC100BF9F7BBFF41ECDF
:10635000100B10BD10B553EC112B51EC100BF9F7CD
:10636000B1FF41EC100B10BD9FED050B10B553ECC8
:10637000102B51EC100BFAF7BEF841EC100B10BDCE
:1063800000000000000000009FED050B10B553EC6D
:10639000102B51EC100BFAF73CF841EC100B10BD30
:1063A00000000000000000709FED050B10B553ECDD
:1063B000102B51EC100BFAF72CF841EC100B10BD20
:1063C0000000000000000010014800687047000055
:1063D0008400002002E008C8121F08C1002AFAD178
:1063E00070477047002001E001C1121F002AFBD155
:1063F00070470000014908607047000084000020D9
:106400002DE9FF5F82B00021DDE90430020DDDF8E7
:1064100040B0034318D044F61050A2F2FF3242437A
:106420001514119801281FD0A5EB0B00401C5FEA42
:10643000000A4FF000064E4FDFF83891B046504644
:1064400015D5CAF1000413E0119801244AA30128CC
:1064500001D16FEA0B010298119AC0E90031C0E93D
:10646000024206B0BDE8F09FCBF10000DFE7044632
:106470000021404A491842EB0450CDE9001012E0D7
:10648000E00707D032463B4640464946F9F7C1FF90
:106490008046894632463B4610461946F9F7B9FF11
:1064A00006460F466410002CEAD1DDE90401DDE95F
:1064B0000023BAF1000F06DAF9F7ABFF42464B466C
:1064C000F9F7A7FF05E0FAF716F842464B46FAF748
:1064D00012F804460E460022284BFAF7F7FA03D8C2
:1064E0004FF0FF30014607E00022254B20463146A1
:1064F000F9F7E8FEFAF7BAFA102409E0002C0ADBF3
:106500000A220023F9F77CFE039B30321A55641EE1
:1065100050EA0102F2D1641C039AC4F1110314443D
:10652000119A012A03D0012208430DD10AE0084341
:1065300004D000204FF0110B119072E7A3EB0B0574
:106540006D1E0DE05B4504DD4FF0000205F1010515
:1065500004E003DA4FF00002A5F10105002AECD0B7
:1065600002981199C0E90231C0E9004579E70000BD
:10657000000014400000F03F300000000000F04335
:106580000000E03F30380A2801D201207047002087
:10659000704700002DE9FF4F95B09A4688460646A1
:1065A0000025EEE1252877D100242746F94A01216C
:1065B000039400E0044316F8013F203B01FA03F086
:1065C0001042F7D130782A2811D06FF02F0330789D
:1065D000A0F13002092A16D8039A44F0020402EB13
:1065E000820203EB42021044761C0390EFE758F856
:1065F000042B0392002A03DA504244F4005403901F
:1066000044F00204761C30782E2816D116F8010FBB
:1066100044F004042A280DD06FF02F023078A0F146
:106620003003092B09D807EB870302EB4303C71894
:10663000761CF3E758F8047B761C30786C280FD072
:1066400006DC4C2817D068280DD06A2814D104E045
:10665000742810D07A280FD10DE044F400140AE019
:1066600044F4801401E044F440147278824202D170
:1066700004F58014761C761C307866280BD013DC69
:10668000582877D009DC002875D04528F6D0462850
:10669000F4D047281AD193E118E0632835D0642854
:1066A00079D0652812D18BE1702873D008DC672877
:1066B000F1D069286FD06E280DD06F2806D1ACE0DC
:1066C00073282CD0752874D0782853D05246179947
:1066D00090476D1C54E1C4F30250022809D00328EE
:1066E0000DD0D8F8001004280DD00D6008F1040872
:1066F00046E1D8F80010EA17C1E90052F6E7D8F8E9
:1067000000100D80F2E70D70F0E718F8041B8DF80B
:10671000001000208DF80100EB46012003E058F83E
:1067200004BB4FF0FF3061074FF0000102D40DE0D1
:1067300009F101018946B9420FDA8145F8DB1BF8FE
:1067400009100029F4D108E009F1010189468142CC
:10675000FADB1BF809100029F6D103985346A0EB89
:10676000090721463846179A00F080FA284400EBC2
:10677000090507E044E008E10DE01BF8010B524673
:1067800017999047B9F10109F7D253462146384687
:10679000179AF2E039E00A21C4F302524FF0000BDD
:1067A0000091022A06D058F8040BC117032A09D019
:1067B0000AE023E008F1070020F00702F2E80201F6
:1067C000904605E000B2C117042A01D140B2C117BA
:1067D000002906DA0A460021404261EB02012D221F
:1067E00002E0220504D52B228DF80420012203E0CB
:1067F000E20701D02022F7E7914657E00A2100E0A6
:1068000010214FF0000B00910BE010214FF0000B16
:1068100044F004040827009103E008204FF0000B27
:106820000090C4F30252022A05D058F8040B00214C
:10683000032A08D008E008F1070020F00702F2E878
:106840000201904603E080B2042A00D1C0B24FF0AA
:10685000000922072AD53278702A07D0DDF800C057
:106860008CF0100C5CEA0B0C05D00EE040228DF889
:106870000420012208E050EA010306D030238DF8FD
:1068800004308DF8052002229146009B83F0080316
:1068900053EA0B030AD150EA010201D1620705D580
:1068A00030228DF804204FF001097F1E3278582ADB
:1068B00004D039A20C920CAA02920BE03BA2F9E799
:1068C0005B46009AF9F79CFC0C9B9B5C029A521E5B
:1068D0000292137050EA0102F2D1029804A9081A38
:1068E00000F1200B600702D524F4803400E001277A
:1068F0005F4502DDA7EB0B0000E0002000EB0B0181
:10690000009003984944401A0390E00306D453468C
:106910002146179A039800F0A9F90544002706E0DC
:1069200001A85246C05D179990476D1C7F1C4F45CA
:10693000F6DBE0030CD553462146179A039800F086
:1069400095F9054404E030205246179990476D1C94
:106950000099481E00900029F5DC08E00298029991
:1069600052460078491C0291179990476D1CBBF163
:106970000001ABF1010BF1DC5BE100F065F90544CE
:10698000761C307800287FF40DAE19B02846BDE89B
:10699000F08F0000092801003031323334353637AA
:1069A000383961626364656600000000303132335B
:1069B00034353637383941424344454600000000FB
:1069C000600700D4062708F1070020F00700F0E870
:1069D0000223804603F0004C5FEA0C0001D097A030
:1069E00009E0200501D596A005E0E00701D095A0BB
:1069F00001E0AFF24C001390307823F0004365289B
:106A00000CD006DC452809D046281DD047287FD168
:106A10003BE0662818D067287AD136E00021112F94
:106A200001DB112000E0781CCDE9000104A90CA8CD
:106A3000FFF7E6FCDDE90D010C9A4FF0000B07F1C2
:106A40000109109200914EE04FF000400097CDE90F
:106A5000011004A90CA8FFF7D3FCDDE90D020C9B83
:106A60000F994FF0000B91461093009211B9791CC9
:106A700000EB0109B7EB090003D4C0F1FF3B07F1BC
:106A80000109A9EB0700019042E0012F00DA01277C
:106A90000021112F01DD112000E03846CDE9000171
:106AA00004A90CA8FFF7ACFCDDE90D010C9A0091DC
:106AB0004FF0000BB946109221070FD4009A4A45B7
:106AC00003DA914601E0A9F10109B9F1010F05DDF1
:106AD000109AA9F10101515C3029F4D0B84202DAD0
:106AE00010F1040F03DA0121CDE9011010E00028B4
:106AF00003DC8344A9EB000102E0411C494500DDB1
:106B00008946A0EB0B00401C01904FF00040029022
:106B1000200705D40198484502DB4FF0FF30019073
:106B200000208DF84B0002980DF14B07B0F1004F9B
:106B300025D002200C902B200D90029800280CDA12
:106B4000404202902D200D9007E00A210298F9F7AB
:106B500070FD3031029007F8011D0C99481E0C9011
:106B60000029F2DC02980028EFD1791E0D980870F8
:106B7000307800F0200040F0450007F8020D11A821
:106B8000C01BC01D02901398007800B1012000EBDB
:106B90000901019801EBE071029801440398401A41
:106BA000401E0390E00306D453462146179A0398EB
:106BB00000F05CF805441398007818B15246179914
:106BC00090476D1CE00323D553462146179A03983E
:106BD00000F04CF805441BE0BBF1000F07DB009808
:106BE000584504DD1098179910F80B0001E017992B
:106BF00030205246904701980BF1010B401E05F1E1
:106C00000105019004D12E205246179990476D1C22
:106C1000B9F10001A9F10109DEDC05E017F8010B6B
:106C20005246179990476D1C0299481E0290002900
:106C3000F4DC53462146179A03989EE62D00000087
:106C40002B000000200000002DE9F0410446002543
:106C50001E461746880404D405E039462020B04774
:106C60006D1C641EF9D52846BDE8F0812DE9F04180
:106C7000044600251E469046C80301D5302700E093
:106C80002027880404D505E041463846B0476D1CEE
:106C9000641EF9D52846BDE8F081000070B51446A1
:106CA0002DED048B0D460646F0EE418AB0EE609A5B
:106CB000F0EE409AFAF794FCF0EE401AB0EE690A52
:106CC000B0EE618AFAF794FC68EE090A9FED141A97
:106CD0009FED142A40EE680A60EE011A68EE022A5F
:106CE00028EE011AC6ED000AF6EE000A48EE601A18
:106CF00040EE602A00EE601A61EE891A42EEE81A50
:106D0000C5ED001A60EE021A48EE601A61EE891AAB
:106D100041EE681AC4ED001ABDEC048B70BD000092
:106D2000D7B35D3FD7B35DBF10B5044601211F48FF
:106D3000FAF796FD606001211D48FAF791FD1D49A3
:106D400020609FED1D0A096871B1D4F89020616838
:106D5000891A00EE901AF8EEE00A60EE800AC4ED9F
:106D6000060AD4F88C100DE0D4F88C10401A00EE0E
:106D7000900AF8EEE00A60EE800AC4ED060AD4F844
:106D800090106068401A00EE900AF8EEE00A20EEDB
:106D9000800A84ED070A94ED060AD4ED070AB1EEE5
:106DA000400A30EE600A84ED050A10BDB00C0020E8
:106DB000680C0020BC0400200000A53C2DE9F34F26
:106DC0002DED0E8BADF5177D0C46F7A0FEF7E6F81E
:106DD0009FEDFEBA4FF46066304601F035FD804607
:106DE000304601F031FD0546B8F1000F7DD0002D91
:106DF0007BD04FF40077384601F026FD8E900028B6
:106E000073D031464046F9F745FA31462846F9F73E
:106E100041FA39468E98F9F73DFA304601F014FDF3
:106E20008246304601F010FD8146BAF1000F5CD079
:106E3000B9F1000F59D031465046F9F72BFA3146D7
:106E40004846F9F727FA394603A8F9F723FA8E9846
:106E5000FEF784F8304601F0F7FC8790304601F0E9
:106E6000F3FC8B90879800283FD08B9800283CD06B
:106E700031468798F9F70EFA31468B98F9F70AFAF6
:106E80009FEDD39AF0EE498ADFEDD2BA8DED8C9A60
:106E9000F6EE00AACDED92AA8CAA86A98DA8B0EE36
:106EA000491AF0EE6B0AB0EE680AFFF7F7FE92AAF5
:106EB00093A994A8DDED8C1A9DED861ADDED8D0A5F
:106EC000B7EE000A02F084F9DFF80CB3002649F6A9
:106ED0004047B7EE008A00BFDBF80000C16A4908EE
:106EE00000EE101AB8EE400A00E03BE3DDED940A34
:106EF00078EE600A20EE200ABCEEC00A10EE101AEE
:106F0000C163B648DBF800100068CA6A4FEA520253
:106F100000EE102AB8EE400AA8B1DDED930A78EE33
:106F2000600A20EE200ABCEEC00A10EE102A8A6326
:106F3000DBF80000C16ADDED920A490800EE101A84
:106F4000B8EE400A14E0DDED920A78EE600A20EE19
:106F5000200ABCEEC00A10EE102A8A63DBF800009B
:106F6000C16ADDED930A490800EE101AB8EE400A36
:106F700078EE600A20EE200ABCEEC00A10EE101A6D
:106F800041636420FBF7CEFA761CBE42A4DB9FED82
:106F900094EAA598B0EE4E0AFDF744FAD4F89010A2
:106FA0006068401A00EE100AF8EEC00A9FED8D0AE4
:106FB00020EE801A84ED061AD4F88C102068401A4E
:106FC00000EE900A04F14401081FF8EEE00A60EEBA
:106FD000801AB1EE410AC4ED071A70EE610AC4EDE1
:106FE000050A94ED0C0A00F025FE606CF9F7F2FA40
:106FF00041EC100B9FED7CDBB0EE4D1AF0EE6D1AFC
:10700000FEF7A2FAB0EE40CAF0EE60CA206CF9F7C3
:10701000E1FA41EC100BB0EE4D1AF0EE6D1AFEF7EE
:1070200093FAB0EE401AF0EE601A53EC1C2B51ECC0
:10703000110BF9F747F941EC100BFFF7ADF86CA015
:10704000FDF7ACFF0024F1EE0C9A00265F46B0EE8F
:107050004ECA00BF78EE8B8A8CAA86A98DA8B0EEA6
:10706000491AF0EE6B0AB0EE680AFFF717FE92AA13
:1070700093A994A8DDED8C1A9DED861ADDED8D0A9D
:10708000B7EE000A02F0A4F83868BB46C16ADDED2D
:10709000940A490800EE101A78EE600AB8EE400A29
:1070A00020EE200ABCEEC00A10EE101AC1634B4855
:1070B00039680068CA6A4FEA520200EE102AB8EE38
:1070C000400AC8B1DDED930A78EE600A20EE200A8E
:1070D000BCEEC00A10EE102A8A63DBF80000C16A19
:1070E000DDED920A490800EE101A78EE600AB8EE5B
:1070F000400A20EE200A18E0DDED920A78EE600AE0
:1071000020EE200ABCEEC00A10EE102A8A63DBF8DB
:107110000000C16A490800EE101AF8EE400A9DED21
:10712000930A38EE400A20EE800ABCEEC00A10EE48
:10713000101A41636420FBF7F5F9B0EE4C0AA598EC
:10714000FDF770F9761C282E84DBB0EE4C0AA5986A
:10715000FDF768F9FAF78EFAC8EEA9CAB0EE40AAB0
:1071600008EB84003CEECA0A80ED000AFAF792FAB6
:10717000879941F8240002901AEE100AF9F72AFACA
:1071800006460F461CEE900AF9F724FA41EC100B64
:10719000214653EC102B22A0CDE90067FDF7FEFE3F
:1071A000641CB4F5607F49E05374617274696E6762
:1071B0002063616C6962726174696F6E2070726FB6
:1071C0006365647572650A0D000000007CD9A03A01
:1071D000000000009A99193EC00D0020BC04002058
:1071E00017B7D1370000A53C0000000000000040A8
:1071F0002043757272656E7420416E676C65203A2B
:1072000020526F746F7220416E676C65203A205275
:10721000617720456E636F646572200A0D0A0D0068
:10722000256409252E346609202020252E34660980
:107230002020202025640D0A00000000FFF605AF85
:107240000024F0EE4CCADFF828B3CA4E002700BF76
:1072500078EECB8A8CAA86A98DA8B0EE491AF0EEFA
:107260006B0AB0EE680AFFF719FD92AA93A994A8D9
:10727000DDED8C1A9DED861ADDED8D0AB7EE000A64
:1072800001F0A6FF3068C16ADDED940A490800EEFE
:10729000101A78EE600AB8EE400A20EE200ABCEE22
:1072A000C00A10EE101AC163DBF800000028306835
:1072B000C16A4FEA510100EE101AB8EE400A14D02C
:1072C000DDED930A78EE600A20EE200ABCEEC00ADB
:1072D00010EE101A81633068C16ADDED920A490828
:1072E00000EE101AB8EE400A13E0DDED920A78EED7
:1072F000600A20EE200ABCEEC00A10EE101A81636C
:107300003068C16ADDED930A490800EE101AB8EE44
:10731000400A78EE600A20EE200ABCEEC00A10EEA9
:10732000101A41636420FBF7FDF8B0EE6C0AA598D3
:10733000FDF778F87F1C282F8ADBB0EE6C0AA59841
:10734000FDF770F8FAF796F988EEA9AAB0EE40CAF0
:1073500005EB84003AEE4C0A80ED000AFAF79AF940
:107360008B99834641F824001CEE100AF9F732F994
:1073700006460F461AEE100AF9F72CF941EC100BED
:10738000214653EC102BAFF268108DE8C008FDF7D2
:1073900005FE4FF46076641CB442FFF654AFB0EEC5
:1073A000498A00209FED740A08EB8001D1ED000AA4
:1073B000A5EB800101F54061401C91ED7F1AB042C0
:1073C00030EE811AC1EE000A30EE888AECDB28EE3E
:1073D000290A10EE100AF9F7FDF841EC100B9FEDA9
:1073E000671BFDF749FE51EC100BF9F706F908EEA3
:1073F000900AB0EE680AFDF725F96248C0ED008AF0
:107400005FF0000008EB800191ED000AA5EB800120
:1074100001F54061D1ED7F0A0AEB8001401C30EE9E
:10742000200AB04220EE2A0A81ED000AEADB0021A0
:107430009FED550A002209EB81035018403802D510
:1074400000F5607003E0B04201DBA0F560700AEB6C
:10745000800093ED001AD0ED000A521C802A00EE45
:10746000801A83ED001AE8DBDFED481A491CB142AF
:10747000C1EE210A30EE899ADCDB879801688B988F
:10748000D0F8FC0D084400EBD070471040A0FDF789
:1074900085FD4BA0FDF782FD00249FED568A00BFBD
:1074A00004EBE7167F2E00DD803EFAF7CBF800EE06
:1074B000100AC4EBC40109EB8100B8EEC00AD0ED9C
:1074C000000A8E98324670EEC90A214620EE200A44
:1074D000C0EE080ABDEEE00A10EE103A40F8263081
:1074E00045A0FDF75BFD0120FBF712F8641C802C22
:1074F000D6DB8E98FDF732FD1D48802214308E9920
:10750000F8F7AFFE18EE900AF9F764F841EC100BAB
:107510003EA053EC102BFDF741FD46480169009158
:107520000FC801F0E2FC10B9424801F0D7FC414815
:1075300001F078FC3F4801F071FC484600F0EEFE97
:10754000504600F0EBFE404600F0E8FE284600F012
:10755000E5FE8E9800F0E2FE879800F0DFFE8B9843
:1075600000F0DCFE0DF5177DBDEC0E8BBDE8FC8F49
:10757000BC040020C00D00200000E04400000060BA
:10758000FB211940BC0300200000003C00006044C7
:107590000A0D20456E636F646572206E6F6E2D6CF0
:1075A000696E65617269747920636F6D70656E7361
:1075B0006174696F6E207461626C650D0A00000071
:1075C0002053616D706C65204E756D626572203A56
:1075D000204C6F6F6B757020496E646578203A207F
:1075E0004C6F6F6B75702056616C75650A0D0A0DD6
:1075F00000000000DB0FC94025640920202025641D
:10760000092020202564200D0A0000000A0D456E87
:10761000636F64657220456C656374726963616C45
:10762000204F666673657420287261642920256680
:107630000D0A0000BC08002070B501220E4DD402D6
:1076400021462846FBF776F80C490D4801F032F93F
:107650000A490B48FFF7B2FBC820FAF759FF09A007
:10766000FDF79CFC002221462846FBF763F81449ED
:107670000020086170BD000000000240D00800201A
:10768000880000200A0D2043616C69627261746990
:107690006F6E20636F6D706C6574652E2020507264
:1076A00065737320276573632720746F2072657478
:1076B00075726E20746F206D656E750A0D00000086
:1076C00040000020094A0021816352685201C0E94C
:1076D0000A21E022C0E90C21016401214164816496
:1076E00000F128010248FAF793BB0000BC04002017
:1076F000400D00200821C16100214161816180F8B5
:10770000201070472DE9F04FBD4C93B0631C04F17D
:107710000C020021BB48FAF702FC00286FD1BA48DE
:107720004FF0010ACDF844A090ED120A9FEDB71A70
:10773000B749C0EE010A91ED090AB649098820EE61
:10774000801AD0ED082A90ED032AD0ED041AD0ED6E
:107750000D0A90ED0B0AB04801F0CAFAAF48017863
:1077600021B1012905D0022906D009E0CDF844A0B5
:1077700006E00221119103E0042111910021017022
:107780000178A54A491C0170521C11AB02F10B0192
:107790009C48FAF7CFFA60788146FF2832D0002063
:1077A000A178FF2930D00022E6781040FF2E2DD09E
:1077B000002294F804C01040BCF1FF0F28D0002232
:1077C00067791040FF2F25D00022A5791040FF2DAA
:1077D00022D00022E3791040FF2B1FD0002210405E
:1077E000227AFB2A1CD04FF0000800BF10EA080FD5
:1077F00019D088480088012801D900F015F913B084
:10780000BDE8F08F0120CBE70122CDE70122D0E7D0
:107810000122D5E70122D8E70122DBE70122DEE7DA
:107820004FF00108E2E7B9F1FF0F38D00020FF293F
:1078300037D04FF0000800BF00EA0800FF2E33D019
:107840004FF0000800EA0800BCF1FF0F2FD04FF006
:10785000000800BF00EA0800FF2F2BD04FF00008FF
:1078600000EA0800FF2D28D04FF0000800EA0800C9
:10787000FF2B25D04FF0000800EA0800FC2A22D098
:107880004FF00008DFF898B1DFF898E110EA080F30
:107890001CD0604800880028B1D102204AE00120B5
:1078A000C5E74FF00108C7E74FF00108CAE74FF0FE
:1078B0000108CFE74FF00108D2E74FF00108D5E704
:1078C0004FF00108D8E74FF00108DBE7BCF1FF0FEC
:1078D00035D00020FF2F34D04FF0000810FB08F007
:1078E000B9F1FF0F30D04FF0000800BF00EA0800E8
:1078F000FF292CD04FF00008FF2E2BD05FF00004A2
:1079000008EA04083E4C00EA0800FF2D24D04FF09E
:10791000000800BF00EA0800FF2B20D04FF000084D
:1079200000EA0800FD2A1DD04FF0000810EA080FF9
:107930001BD00020CBF80000CEF800A05FE70120AC
:10794000C8E74FF00108C9E74FF00108CEE74FF054
:107950000108D1E70124D3E74FF00108DAE74FF03F
:107960000108DDE74FF00108E0E7BCF1FF0F22D08E
:107970000020FF2F21D0002710FB07F0B9F1FF0FE7
:107980001DD000273840FF291BD00021FF2E1AD020
:10799000002631400840FF2D17D000210840FF2B62
:1079A00015D000210840FE2A13D00021084212D031
:1079B000FDF7DCFA23E70120DBE70127DCE70127FD
:1079C000E0E70121E2E70126E3E70121E6E7012103
:1079D000E8E70121EAE7DBF800000228AED1084918
:1079E000094D4022103168461095F8F73AFC94E8AA
:1079F0000F0001F097FC0020C5F8A800FFE600008A
:107A0000C80B0020400D0020D00800208FC2554137
:107A1000BC03002042000020A40B002066000020D0
:107A20004C00002050000020034800210180008805
:107A300002490880704700004200002044000020F6
:107A400070B504462DED068BB0EE40AA04F144015A
:107A5000D0F8A400401CC4F8A40004F1140094ED74
:107A60000C0AD0EC030A2C3000F0E4F894ED120A72
:107A7000DFED660A60EE200A94ED110A9FED641AAC
:107A8000644D40EE010AC4ED120AD4ED250A94EDCE
:107A9000101A30EEC18AD4ED260A70EEC08A94ED39
:107AA000210A30EE080A84ED210A94ED220A30EE14
:107AB000280A84ED220A95ED020ADFED579A20EE9E
:107AC000290A9FED569A60EE090A9FED551A04F1B6
:107AD0008801081F81EE200A00F09AFC95ED020A49
:107AE00094ED211A60EE290A20EE890A20EE010A9F
:107AF00000EE880A84ED140A95ED020A94ED221A2C
:107B000060EE290A20EE890A20EE010A00EEA80A9A
:107B100084ED150A94ED080ADFED420A04F15401E0
:107B2000081F20EE200A00F073FC04F16C02111F04
:107B300094ED151AD4ED140A94ED0C0A081FFFF702
:107B4000ADF804F16400021FD0EC030A111F94ED9C
:107B5000080A0C3801F03CFB33483449F7EE000AC0
:107B600002680968002A3248CA6A94ED161A00EEC3
:107B7000102A30EEC11AB8EE400A20EE010ABCEE1F
:107B8000C00A10EE102AC263CA6A00EE102AB8EECC
:107B9000400A12D094ED171A30EEC11A20EE010AF5
:107BA000BCEEC00A10EE102A8263C96A94ED181A5E
:107BB00000EE101AB8EE400A11E094ED181A30EEFB
:107BC000C11A20EE010ABCEEC00A10EE102A826330
:107BD000C96A94ED171A00EE101AB8EE400A70EE5A
:107BE000C10A20EE200ABCEEC00A10EE101A416352
:107BF00084ED0CAAD4F8A40049F64041884202DD85
:107C00000020C4F8A400BDEC068B70BD3333733F75
:107C1000CDCC4C3DBC030020E02D903A77BE1F3DFB
:107C20006666E6419A99993FBC040020C00D002089
:107C30000000014070B50C462DED068B0546F0EEB8
:107C4000618AB0EE419AF0EE609AB0EE40AAF9F780
:107C5000C7FCB0EE402AB0EE4A0AB0EE428AF9F70D
:107C6000C7FCDFED170AF6EE002ADFED161A20EE4C
:107C7000201A68EE200A08EE621A40EE620A21EE2F
:107C8000093A20EE211A08EE293A08EE621A01EEAE
:107C9000283A9FED0D1A23EE012A85ED002A28EEE1
:107CA000212A60EE691A00EE622A42EE491A40EE7D
:107CB000E81A21EE810A84ED000ABDEC068B70BD46
:107CC000D7B35D3FD7B35DBFABAA2A3F10B5002243
:107CD0004FF400611F48FAF72DFD1FA0FDF75EF974
:107CE0001FA0FDF75BF90A20FAF71CFC20A0FDF7A6
:107CF00055F90A20FAF716FC22A0FDF74FF90A20E1
:107D0000FAF710FC26A0FDF749F90A20FAF70AFC59
:107D100027A0FDF743F90A20FAF704FC2AA0FDF793
:107D20003DF90A20FAF7FEFB2EA0FDF737F90A20ED
:107D3000FAF7F8FB3148002404612246202130483C
:107D4000FAF7F8FC2D48801C0188012900D1048035
:107D500010BD0000000002400A0D0A0D0A0D0000CF
:107D600020436F6D6D616E64733A0A0D0000000070
:107D7000206D202D204D6F746F72204D6F64650A49
:107D80000D0000002063202D2043616C6962726148
:107D9000746520456E636F6465720A0D0000000013
:107DA0002073202D2053657475700A0D00000000AB
:107DB0002065202D20446973706C617920456E63C5
:107DC0006F6465720A0D0000207A202D20536574BF
:107DD000205A65726F20506F736974696F6E0A0D57
:107DE0000000000020657363202D20457869742011
:107DF000746F204D656E750A0D0000004000002074
:107E0000000802407FB553A0FDF7C8F80A20FAF732
:107E100089FB58A15BA0CDE900015BA35BA25EA139
:107E20005FA0FDF7BBF80A20FAF77CFB644CA06862
:107E3000F8F7D0FBCDE9020162A0009063A364A231
:107E400069A16AA0FDF7AAF80A20FAF76BFB6F4D4B
:107E50006FA070A3696870A2CDE9000170A171A044
:107E6000FDF79CF80A20FAF75DFBA96868A0CDE948
:107E7000000168A373A277A16AA0FDF78FF80A201A
:107E8000FAF750FBE068F8F7A5FBCDE9020172A014
:107E9000009073A373A278A154A0FDF77FF80A2085
:107EA000FAF740FBA069F8F795FBCDE9020173A052
:107EB00000906BA373A279A14CA0FDF76FF80A2084
:107EC000FAF730FB606AF8F785FBCDE9020174A090
:107ED000009050A373A276A176A0FDF75FF80A2068
:107EE000FAF720FBE9687BA0CDE9000149A37BA25A
:107EF00082A183A0FDF752F80A20FAF713FB206A4B
:107F0000F8F768FBCDE9020184A0009041A384A2A8
:107F100089A136A0FDF742F80A20FAF703FBE069D1
:107F2000F8F758FBCDE902017CA0009039A383A2A9
:107F300088A12EA0FDF732F80A20FAF7F3FA864856
:107F4000FDF72CF80A20FAF7EDFA844900200861C1
:107F50007FBD00000A0D0A0D20436F6E66696775CC
:107F6000726174696F6E204F7074696F6E73200A4E
:107F70000D0A0A0063757272656E742076616C7505
:107F8000650000006D6178006D696E00706172615E
:107F90006D65746572000000707265666978000036
:107FA00020252D347320252D33317320252D357355
:107FB00020252D367320252D32730A0D0A0D000061
:107FC000BC0300203230303000000000313030007F
:107FD00043757272656E742042616E647769647471
:107FE000682028487A2900006200000020252D34EE
:107FF0007320252D33317320252D357320252D3603
:108000007320252E31660A0D00000000BC040020FC
:10801000313237003000000043414E204944000017
:108020006900000020252D347320252D3331732065
:10803000252D357320252D367320252D35690A0D04
:108040000000000043414E204D6173746572204969
:10805000440000006D00000034302E3000000000AD
:10806000302E300043757272656E74204C696D69F4
:1080700074202841290000006C00000033332E30AA
:108080000000000046572043757272656E74204CE4
:10809000696D697420284129000000006600000015
:1080A000333600004765617220526174696F0000C9
:1080B0006700000020252D347320252D33317320D7
:1080C000252D357320252D367320252E33660A0D78
:1080D00000000000313030303030000043414E208D
:1080E00054696D656F757420286379636C657329B5
:1080F0002830203D206E6F6E65290000740000005E
:1081000020252D347320252D33317320252D3573F3
:1081100020252D36732025640A0D00003438000018
:1081200050726F74656374206F76657220766F6C21
:1081300074616765000000006F00000050726F748A
:1081400065637420756E657220766F6C7461676507
:10815000000000007500000088A100084000002019
:1081600070B50122D1021148FAF7E4FA1049012052
:108170000880104C00252046C4F8B05000F02EFFB7
:108180000320FAF7C5F99FED0C0A012284ED250AB8
:1081900084ED260A20210948FAF7CCFA0448801E0B
:1081A0000561BDE8704006A0FCF7F8BE0000024083
:1081B00042000020D008002000000000000802401B
:1081C0000A0D20456E746572696E67204D6F746F7D
:1081D00072204D6F6465200A0D00000082B0CDE969
:1081E000000121F0004001909DED000B02B051EC28
:1081F000100B7047034850F8220000EB830090ED0D
:10820000000A704700000020024850F8220050F891
:10821000230070470000002010B50446F9F798F9D4
:108220000020207010BD0000072900D90721044A52
:10823000816052F8211041600021017070470000F8
:108240000000002010B50446F9F7A8F9F120F9F76D
:1082500025F90549A06851F820000221F9F724F911
:108260000120207010BD00002000002001EB8300E1
:1082700010EE101AF9F774B9009A01EB8300114659
:10828000F9F76EB9012131EE601A814070EE600A93
:10829000491E00EE101AB8EEC00A20EE800AC0EEA9
:1082A000010ABDEEE00A10EE100A7047B4EEE00AD3
:1082B000F1EE10FA07DDB4EEC10AF1EE10FA01DCBE
:1082C000B0EE410A7047F4EEC10AF1EE10FAF7DDA4
:1082D000B0EE600A7047B4EEE00AF1EE10FA07D291
:1082E000B4EEC10AF1EE10FA01D3B0EE410A7047C4
:1082F000F4EEC10AF1EE10FAF7D2B0EE600A704760
:1083000038B504468DF80000022301226946024870
:10831000FBF7DCFC204638BD980E002010B5002885
:1083200021D0114B0022001F196803E0814203D8BD
:108330000A4649680029F9D152B11368841A9C424F
:1083400004D1006818441060104602E0506000E05C
:10835000186039B102680B1A934203D10B681A44B2
:1083600002604968416010BD7C0000201C499FEDFF
:108370001D0ADFED1F1AD1ED020A20EE801ADFED93
:108380001A0A21EE201A80ED1E1A91ED021A21EE32
:10839000001A61EE200AC0ED1F0AD1ED020A60EE5C
:1083A000800AC0ED1C0AD1ED020A20EE800ADFED42
:1083B0000F0A80ED1D0A91ED020A20EE200AF0EE70
:1083C000000A20EE201AB7EE000AF0EE400A41EE55
:1083D000610A80EE201A30EE410A80ED200A7047D3
:1083E000BC030020E02D903A77BE1F3D17B7D13770
:1083F000DB0F494000B5B0EE401A90ED000AFCF7E3
:1084000033FEF0EE410AFCF727FE80ED000A00BDC6
:1084100000B5F0EE401A90ED000A0A46034660EE01
:10842000000A91ED000A40EE000AB0EE600AF9F78A
:108430001BF8B4EEE10AF1EE10FA0FDDD3ED000AFD
:1084400060EEA10A80EE801A83ED001AD2ED000AD8
:1084500060EEA10A80EE801A82ED001A00BD0000D5
:108460002DED028BADF5027DFAF778F9FCF7F8F8FF
:10847000FBF7AAFDFBF706FFFBF72CFEFBF780FDE1
:10848000FBF704FEFBF7AEFCFBF7FAFCFBF746FD3F
:10849000FBF7D6FEFBF7A2FEA54A07219FEDA58AB2
:1084A0004FF48040B0EE480AFBF70CFF0621A248CB
:1084B00000F0E0FCA048016900910FC800F0E2FC68
:1084C0009E4C206820F00040C0F1FF40002801D5FC
:1084D00084ED008A606820F00040C0F1FF40002871
:1084E00001D584ED018AA068FCF780FD944D50B958
:1084F00094ED020A10EE100AA84204D0B5EEC00AAC
:10850000F1EE10FA03D19FED8F0A84ED020A606A42
:10851000FCF76CFD30B994ED090AB5EEC00AF1EE36
:1085200010FA03D1B7EE000A84ED090AE068FCF7FF
:108530005DFD50B994ED030A10EE100AA84204D074
:10854000B5EEC00AF1EE10FA03D19FED7F0A84ED7B
:10855000030AA069FCF74AFD10B9A069A84201D13D
:1085600084ED068A794E0127706800EE100AB8EE95
:10857000C00A10EE101A21F00041C1F1FF4100299C
:1085800001D4401C00D17760B068002200EE100AD0
:10859000B8EEC00A10EE101A21F00041C1F1FF41FF
:1085A000002901D4401C00D1B260F06800EE100A2E
:1085B000B8EEC00A10EE101A21F00041C1F1FF41DF
:1085C000002901D4401C00D1F260E069FCF70EFDE7
:1085D00010B9E069A84201D184ED078A206AFCF74E
:1085E00005FD10B9206AA84203D19FED590A84ED18
:1085F000080A94ED000AFCF725F894ED010AFCF74F
:1086000027F8642000F0B4FC4FF4007101A8F7F7DC
:1086100041FE4E498022143101A8F7F722FE01A83D
:10862000FCF79CFC44481430FFF7A0FE4948F9F7DA
:1086300035F94948F9F732F94848F9F7FDFA484859
:10864000FAF7DEFE0122DFF81C81D50229464046FA
:10865000FAF770F80120F9F749FF3749A431081FEC
:1086600001F084F8002229464046FAF763F83248C0
:10867000143000F0B3FC0120F9F738FF002138482E
:10868000FBF7F6F804213648FBF7F2F808213448E6
:10869000FBF7EEF80120F9F729FF33A0FCF77EFC89
:1086A00035A0FCF77BFC39A139A0FCF777FC224808
:1086B0001430D0E923123CA0FCF770FC2068F7F7D7
:1086C00089FF41EC100B42A053EC102BFCF766FC29
:1086D0006068F7F77FFF41EC100B49A053EC102BBB
:1086E000FCF75CFC4EA07168FCF758FC5048FEF7A4
:1086F000E9FF4F482438FEF7FDFF4E48F9F768FEC2
:10870000002211461920FAF78BF801221146142095
:10871000FAF786F84848FAF773FE012247494848B5
:10872000FBF7B0FA47480760FBF748FBFCE700009F
:108730008800002000000000BC080020BC030020CE
:10874000000080BF0000C84200002042BC0400209E
:1087500000001042680C0020B00C0020F80C002033
:10876000C00D0020000002400A0D20595343204C48
:1087700069746533200A0D000A0D2044656275672F
:1087800020496E666F3A0A0D00000000312E30005D
:10879000204669726D776172652056657273696FE4
:1087A0006E3A2025730A0D002041444331204F6664
:1087B000667365743A2025642020202041444332AA
:1087C000204F66667365743A2025640A0D00000028
:1087D00020506F736974696F6E2053656E736F728A
:1087E00020456C656374726963616C204F666673C3
:1087F00065743A202020252E34660A0D0000000002
:10880000204F7574707574205A65726F20506F73A5
:108810006974696F6E3A2020252E34660A0D0000B7
:108820002043414E2049443A202025640A0D00008F
:10883000C80B0020400D0020080E0020650000201D
:10884000980E002050000020F0B50B30154D20F0A0
:1088500007010024144A0FE003688B420BD38B42BC
:1088600005D95E1A43184768C3E9006700E043680A
:10887000136002C004E0021D10680028ECD12046FD
:10888000002802D1286808B10020F0BD064A074838
:108890001060074A121A22F00702C0E900240120E2
:1088A0002860D7E7800000207C000020E40E002034
:1088B000E08E00202DE9F04F2DED0A8B83468BB022
:1088C0000C46CDA0FCF76AFB9FEDD31AB0EE418AAF
:1088D0009FEDD2BA8DED041AB6EE000A8DED070AAF
:1088E000F0EE419A002504AA06A905A8F0EE4B0A6D
:1088F000B0EE480AFEF7D2F907AA09A908A8DDEDEB
:10890000041A9DED061ADDED050AB7EE000A00F027
:108910005FFCC34F002644F62068F7EE008A3968F2
:10892000BA46CA6ADDED080A520800EE102A78EE4F
:10893000E00AB8EE400A20EE200ABCEEC00A10EEB3
:10894000102ACA633968CA6ADDED090A520800EEC6
:10895000102A78EEE00AB8EE400A20EE200ABCEEBB
:10896000C00A10EE102A8A63DAF80000C16ADDED51
:10897000070A490800EE101A78EEE00AB8EE400A3D
:1089800020EE200ABCEEC00A10EE101A41636420EB
:10899000F9F7C8FD761C4645C1DB5846DFEDA1BAA4
:1089A000B0EE6B0AFBF73EFD0120F9F7B1FDD4F8FC
:1089B00090106068401A00EE100AF8EEC00A9FEDB1
:1089C0009A0A20EE801A84ED061A2168D4F88C00E9
:1089D000081A00EE900A04F14401081FF8EEE00ABC
:1089E00060EE801AB1EE410AC4ED071A70EE610A1A
:1089F000C4ED050A94ED0C0AFFF71CF9606CF7F75B
:108A0000E9FD41EC100B9FED89CBB0EE4C1AF0EE76
:108A10006C1AFCF799FDB0EE40AAF0EE60AA206C4B
:108A2000F7F7D8FD41EC100BB0EE4C1AF0EE6C1AD3
:108A3000FCF78AFDB0EE401AF0EE601A53EC1A2BE8
:108A400051EC110BF7F73EFC41EC100BFDF7A4FBCA
:108A500051EC100BF7F7D1FD064676A0FCF79EFA15
:108A60003046F7F7B7FD80468946606CF7F7B2FDF0
:108A700006460F46206CF7F7ADFD8DE8C00341ECCC
:108A8000100B6FA053EC102BFCF788FADFF8C481B1
:108A900054469FED71AA04AA06A905A8B0EE691A6A
:108AA000F0EE4B0AB0EE480AFEF7F8F807AA09A95B
:108AB00008A8DDED041A9DED061ADDED050AB7EEF6
:108AC000000A00F085FB6420F9F72CFD2068C16ADC
:108AD000DDED080A490800EE101A78EEE00AB8EE5B
:108AE000400A20EE200ABCEEC00A10EE101AC16344
:108AF0002068C16ADDED090A490800EE101A78EE17
:108B0000E00AB8EE400A20EE200ABCEEC00A10EEE1
:108B1000101A81632068C16ADDED070A490800EE7A
:108B2000101A78EEE00AB8EE400A20EE200ABCEEF9
:108B3000C00A10EE101A41635846B0EE6B0AFBF7FC
:108B400071FCF8F797FDB5EEC08AF1EE10FA01D18D
:108B5000B0EE409AC82D17DD002510EE100AF7F789
:108B600039FDF1EE0C0A064688EE200A0F4610EE9B
:108B7000100AF7F72FFD41EC100B38A053EC102B27
:108B8000CDE90067FCF70AFA38EE0A8A6D1C18EE88
:108B9000100A4045FFF67FAFF8F76CFD70EE490A0A
:108BA000F5EEC00AF1EE10FA01DD012400E0002428
:108BB00010EE100AF7F70EFD05460E4619EE100AE4
:108BC000F7F708FD41EC100BCDE9005653EC102BE4
:108BD00026A0FCF7E3F921462EA0FCF7DFF90CB143
:108BE00031A000E035A0FCF7D9F9404804600BB093
:108BF000BDEC0A8BBDE8F08F0A0D20436865636BFE
:108C0000696E67207068617365206F726465726950
:108C10006E670A0D00000000000000009A99193EDE
:108C2000C00D002017B7D1370000A53C00000000A0
:108C3000000000400A0D43757272656E740A0D00E3
:108C40002566092020202025660920202025660D84
:108C50000A000000DB0F49416F12833A252E34666B
:108C600009202020252E34660D0A00005468657402
:108C7000612053746172743A2020202566202020E0
:108C800020546865746120456E643A202025660A88
:108C90000D000000446972656374696F6E3A2020AC
:108CA00025640A0D0000000050686173696E67203A
:108CB000636F72726563740A0D000000506861731F
:108CC000696E6720696E636F72726563742E20200F
:108CD0005377617070696E67207068617365732087
:108CE0005620616E6420570A0D000000BC0400206D
:108CF0002DE9F04707462DED068BB0EE418AB0EE28
:108D000060AA8846F0EE628AB0EE429AF0EE619A6E
:108D10000E20B2EE041AFAEE040AFFF7B3FA064682
:108D200010209FED361ADFED360AB0EE4A0AFFF743
:108D3000A9FA814610209FED331ADFED330AB0EE19
:108D4000480AFFF79FFA9FED318A82460720B0EE6E
:108D5000481AFBEE040AB0EE690AFFF793FA0546DB
:108D60000720B0EE481AFBEE040AB0EE490AFFF7FE
:108D700089FA044607209FED261AF3EE060AB0EEA4
:108D8000680AFFF77FFA01462248028866F30D025F
:108D90000280036869F39D330360D0F802306AF300
:108DA0009D33C0F80230C28861F38C12C280C27950
:108DB000411E68F34712C2710A784379002A62F3B0
:108DC0008613437130F8052F13D064F3CD1202805F
:108DD00000200870104840681030F86051F8010F0A
:108DE000C7F801004868C7F80500BDEC068BBDE870
:108DF000F08765F3CD1202800120EAE70000C84346
:108E00000000C8C300002042000020C20000484308
:108E100033330B425D000020BC04002000210174AC
:108E2000FFF7FAB9F8B5114E05460024234656F867
:108E30002400009095E80700FFF71EFA641CFF2C41
:108E4000F4DD0B4E4FF4A077BC420CDA06EB840045
:108E5000A0F58060234690ED000A95E80700FFF733
:108E600005FA641CF0E700202874F8BDBC0400205B
:108E7000BC03002070B50D460446FFF7D5F9E56048
:108E800070BD00002DE9F047124D07468846914617
:108E9000002423464A4641463846FFF7B5F945F8CF
:108EA0002400641CFF2CF4DD0B4D4FF4A076B4427B
:108EB0000DDA23464A4641463846FFF79BF905EB53
:108EC0008400A0F58060641C80ED000AEFE7BDE837
:108ED000F0870000BC040020BC03002010B504464D
:108EE000FFF7B0F90120207410BD0098C0B27047A0
:108EF000FEB5F8F7CFFB0646F8F7AAFB10EE100A0E
:108F0000F7F768FB0D460446F8F7AEFB10EE100AC3
:108F1000F7F760FB41EC100B8DE8700053EC102B61
:108F200003A0FCF73BF8BDE8FE400120F9F7F0BADA
:108F3000204D656368616E6963616C20416E676C8A
:108F4000653A2020256620202020456C65637472D8
:108F50006963616C20416E676C653A20202566204C
:108F60002020205261773A202025640A0D0000005D
:108F70002DE9FE4F074600244FF40045144E0DF135
:108F800004084FF6FF7A4FF0640BDFF848901BE0BF
:108F9000ADF804A0002229463046F9F7CBFB0123A7
:108FA00008F1020201A90B48CDF800B0FAF706F863
:108FB0004FEA090090F851100229FBD001222946FE
:108FC0003046F9F7B7FB641CBC42E1DBBDE8FE8F1D
:108FD00000000240680D0020FFF792B91F490A689F
:108FE000D36A00EE103AF8EE400AB6EE000A60EEE0
:108FF000800AFCEEE00A10EE903AD3630A68D36A66
:1090000000EE903AF8EE600A60EE800AFCEEE00AAC
:1090100010EE903A53630968CA6A00EE902AF8EE9F
:10902000600A20EE800ABCEEC00A10EE102A8A63A5
:109030009FED0B0A80ED250A80ED260A80ED100ACF
:1090400080ED110A80ED120A80ED220A80ED210ADE
:1090500080ED150A80ED140A70470000C00D002055
:109060000000000010B5374CE068062818D2DFE891
:1090700000F0030A11175E652069002810D0BDE8D2
:109080001040FEF723BE2069002809D0BDE810403B
:10909000FEF7D2BA206920B1FFF762F80020A06085
:1090A00010BD294C29489FED2A0AD4F8A810C068A1
:1090B00081420BDD002809DD84ED250A84ED260AB6
:1090C00084ED2F0A84ED300A84ED310AD4ED050ACF
:1090D00094ED061A204960EEA00A41EE010A94EDD3
:1090E000071A41EE010A9FED1B1A60EE810A10EE8D
:1090F000900A88420DDD84ED250A84ED260A114987
:1091000084ED2F0A022084ED300A891C84ED310A97
:1091100008800D4800F0BEF894ED0C0A0F490A488B
:109120003034FEF78DFCA06F401CA06710BD206995
:109130000028FBD0BDE81040FEF764BEBDE810403B
:10914000FFF7D6BE40000020D0080020BC0400205D
:1091500000000000ABAA2A3F0000A244180C002027
:1091600000B52DED048B83B041EC190BF7F7D9FB5B
:1091700041EC180B18EE100A18EE901A8DED008BCA
:10918000002818BF0120084320F00040C0F17F6094
:1091900000F1E040C00F14D019EE101A19EE900A39
:1091A0008DED009B002918BF0121084320F00040ED
:1091B000C0F17F6000F1E040C00F04BF0120FDF767
:1091C00019F951EC180B03B0BDEC048B00BD000085
:1091D00070B514462DED088BF0EE619AB0EE41AA01
:1091E000F0EE60AAB0EE408A0D460646B0EE691A6F
:1091F000F0EE4A0AB0EE6A0AFFF76DF8F0EE408A28
:10920000B0EE691AF0EE4A0AB0EE6A0AFFF74EF8BD
:1092100038EE800AF6EE008A20EE289A7AEEC90A25
:10922000DFED1AAA80EE880AF0EE6A0A30EE280A0C
:10923000FBF712FF9FED16BAF0EE4B0AFBF714FF97
:109240007AEE490A86ED000A80EE880AF0EE6A0A94
:1092500030EE280AFBF700FFF0EE4B0AFBF704FFA5
:1092600085ED000A39EEC90AC0EE080A30EEA80AF8
:10927000F0EE6A0AFBF7F0FEF0EE4B0AFBF7F4FEA5
:1092800084ED000ABDEC088B70BD0000CDCC4C3DD8
:109290003333733F90ED2D0A90ED0B1AD0ED0D1A7C
:1092A000144930EE410A90ED2F1ADFED110A20EE3D
:1092B000010A90ED2E1A31EE611AD0ED301A01EE4E
:1092C000810A90ED311AD1ED091A30EE011A81EEC2
:1092D000210A9FED091A20EE010A80ED260AC0ED51
:1092E000250AD1ED030A9830B1EE600AFFF782B883
:1092F00000000000BC0300208FC2554101EE100A9F
:1093000070EEC00A0120B8EEC11A8840401E21EE5E
:10931000201A00EE900AF8EEE01AC1EE210A30EEB3
:10932000800A70470FB40E2110B5F2EE040A2DED3D
:10933000028B82B0BAEE040ADDF8190000901A9C84
:10934000DDF81D000190BDF80000C0F30D00FFF72F
:10935000D5FF84ED2D0A00981021C0F38F30DFED8A
:10936000190A9FED190AFFF7C9FF84ED2E0A9FED38
:10937000188ABDF803000A218009DFED140AB0EE57
:10938000480AFFF7BBFF84ED2F0A9DF8050008216E
:10939000DFED100AB0EE480AFFF7B0FF84ED300AA7
:1093A000BDF806001021DFED0C0A9FED0C0AFFF757
:1093B000A5FF84ED310A02B0BDEC028B10BC5DF854
:1093C00014FB00000000C8430000C8C30000FA43BB
:1093D000000000000000484200002042000020C2BF
:1093E0002DE9F047BD48BE4F01262DED028B00242C
:1093F000007882B0A7F114081B280CD1C8F80C40E3
:10940000C8F8106088F8014088F8004000217C54BA
:10941000491C0829FBDBD8F80C109FEDB28AB24D2D
:10942000DFF8C8A2B9B1D8F80C10042968D0D8F870
:109430000C10052976D0D8F80C10022906D1642822
:1094400004D1AB4880ED268A80ED258A02B0BDECC0
:10945000028BBDE8F0876D2827D005DC632821D07A
:109460006528F3D1052026E0732823D07A28EDD192
:10947000B0EE480AFBF7ECF89E489FED9F0AFAF71A
:10948000D1FF1420F9F74EF8F8F7EEF885ED010A50
:10949000DAF8100000909AE80F005446FFF725FD17
:1094A00060B10EE0C8F80C6001E0022003E0C8F8EB
:1094B0001060CBE70420C8F80C00F8E78B48FFF7F2
:1094C0000DFD8A48FFF7AEFC8848FFF7A7FC20692E
:1094D000009094E80F00FFF7D5FC95ED010AFBF72B
:1094E000B7F86868F7F776F802B041EC100BBDECFE
:1094F000028B53EC102BBDE8F04780A0FBF74EBD6C
:109500000D2810D098F80110002969D0394401F8CD
:10951000010C8449FFF760FD98F80100401C88F8B1
:10952000010093E7D4E0C14698F80010DFF8F88115
:109530006C2940D008DC62291DD0662951D06729EA
:1095400063D069290AD12AE06D292ED0DFED778A10
:109550006F2977D074296FD075296CD074A0FBF770
:109560001DFDDAF8100000909AE80F005546FFF74D
:10957000BCFCA0B391E05A48FBF752FD51EC100B34
:10958000F7F73BF800EE100ADFED730AFBF76CFD0E
:10959000DFED720AFBF760FD85ED020AE1E7504856
:1095A000F6F783FEC8F80400DBE74D48F6F77DFECA
:1095B000C8F80800D5E74A48FBF732FD51EC100B1C
:1095C000F7F71BF800EE100ADFED650AFBF74CFD1C
:1095D000F0EE480AFBF740FD85ED030AC1E759E0CC
:1095E00073E03F48FBF71CFD51EC100BF7F705F853
:1095F00000EE100ADFED5B0AFBF736FDF0EE480ADD
:10960000FBF72AFD85ED060AABE73548FBF708FDB9
:1096100051EC100BF6F7F1FF00EE100ADFED520AE5
:10962000FBF722FDF0EE480AFBF716FD85ED090A6F
:1096300097E707E000E019E02948F6F736FEC8F89A
:109640000C008EE72648FBF7EBFC51EC100BF6F70D
:10965000D4FF00EE100AF0EE680AFBF705FDF0EE0D
:10966000480AFBF7F9FC85ED080A7AE71C48FBF786
:10967000D7FC51EC100BF6F7C0FF00EE100AF0EE2D
:10968000680AFBF7F1FCF0EE480AFBF7E5FC85ED14
:10969000070A66E71548FFF721FC1448FFF7C2FBED
:1096A0001248FFF7BBFB2869009095E80F00FFF711
:1096B000E9FBC9F8106089F8014089F800400020F2
:1096C0003C54401C0828FBDBC0E688F8000020E77B
:1096D0001B28F9D1C8F80C40E9E60000650000201D
:1096E0005400002000000000BC030020BC08002043
:1096F000D00800208800002017B7D1370A0D20209D
:109700005361766564206E6577207A65726F20708C
:109710006F736974696F6E3A2020252E34660A0DC6
:109720000A0D000078000020BC0400200000404228
:109730000A0D2027256327204E6F74206120766153
:109740006C696420636F6D6D616E64207072656614
:1097500069780A0D0A0D00000000FA440000C842B2
:109760000000204200000442000010422DE9F047B2
:109770008046284889460026016835464FF48067B0
:10978000CA6A00EE102AF8EE400AB6EE000A60EE51
:10979000800AFCEEE00A10EE902A4A630168CA6A69
:1097A00000EE902AF8EE600A60EE800AFCEEE00A15
:1097B00010EE902A8A630068C16A00EE901AF8EEF3
:1097C000600A20EE800ABCEEC00A10EE101AC163D7
:1097D00000241148F8F762F81048F8F75FF8012004
:1097E000F8F784FE01210D48F8F73AF80544012105
:1097F0000948F8F735F8641C0644BC42E9DB96FBDF
:10980000F7F1C8F8001095FBF7F1C9F80010BDE8B2
:10981000F0870000C00D0020680C0020B00C002074
:10982000000000002975493CDF6EC93C6F0E173DF2
:109830003160493D8FA97B3D38F4963D6B0EB03DBC
:109840004721C93D5E2EE23DEC2FFB3D7F130A3ED2
:10985000698C163E76FD223EA5662F3E97CA3B3E9A
:109860004A29483E807D543EDAC9603E560E6D3E20
:10987000F54A793E3CBD823E0FD1883EA4DF8E3E44
:10988000FBE8943EC4EB9A3EFFE7A03EFCDEA63E1A
:109890006CCFAC3E4EB9B23EA29CB83E1878BE3EEC
:1098A000B24BC43EBD18CA3EECDDCF3EED99D53E6D
:1098B000614FDB3E59FAE03EC39EE63EB038EC3ED7
:1098C00071C9F13E5452F73EBBD0FC3E5322013FDA
:1098D000B2D7033FD387063FB532093F5AD80B3F73
:1098E000C0780E3F4013113F82A8133FDF37163F69
:1098F00055C1183FE5441B3F8FC21D3F543A203FDE
:109900008AAB223FDB16253F9E7B273FD3D9293FD9
:109910007B312C3FED812E3F79CC303FD00F333F50
:10992000F14B353F8481373FE2AF393F0AD73B3FA8
:10993000FDF63D3F130F403F9B20423F9E29443F91
:10994000132C463F0326483FBD184A3F9B034C3F1C
:10995000F3E54D3F16C14F3FB493513F745E533F03
:109960005721553F0EDB563F8F8D583FE3365A3F08
:10997000B2D75B3FA4705D3F69005F3F5188603F95
:109980000C07623F9A7C633FA3E9643F274E663F22
:109990007EA9673F50FC683F4E456A3FC6856B3FD6
:1099A00012BD6C3F31EB6D3F23106F3F412B703F79
:1099B000D93D713F9D46723F3546733F9F3C743F92
:1099C0003529753F9E0C763F32E6763F9AB6773F53
:1099D0002C7D783FEB39793F7CED793F39977A3FA1
:1099E00022377B3F36CD7B3F75597C3F87DC7C3F00
:1099F0001D557D3F87C47D3F74297E3F34857E3F62
:109A000077D67E3F8E1E7F3F295C7F3FEF8F7F3F63
:109A100088BA7F3FA5DA7F3FEDF07F3F61FD7F3F52
:109A20000000803F23F87F3F19E77F3F92CB7F3FC5
:109A300037A67F3FAF777F3FAB3E7F3FD2FB7E3F76
:109A400025AF7E3FA3587E3F4DF87D3F228E7D3F60
:109A5000221A7D3F4E9C7C3FA5147C3F27837B3F91
:109A6000D5E77A3F57437A3F0395793FDBDC783F70
:109A7000DF1A783FB54F773FB77A763FE59B753F62
:109A8000E5B3743FB9C2733FB9C7723F8BC3713F2F
:109A900031B6703F029F6F3FA67E6E3F1D556D3FF2
:109AA00068226C3F86E66A3F1FA2693FE353683F26
:109AB00022FD663F349D653F1A34643F22C3623FF6
:109AC0005648613FACC55F3FD6395E3F7AA55C3FE3
:109AD0009A085B3F3563593F4AB5573F82FF553F70
:109AE0008E40543F637A523FB4AB503F80D44E3FD8
:109AF0006FF54C3F280F4B3F5C20493FB329473F50
:109B0000D42B453F1826433F7E18413FB0033F3FCB
:109B1000ABE73C3F72C43A3F5B99383FB667363F8C
:109B2000DC2E343FCCEE313F2FA82F3F5C5A2D3F27
:109B3000FB052B3F0DAB283F9049263F2EE2233FEC
:109B40009773213F19FF1E3FB6841C3FC5031A3F80
:109B5000957D173FD8F0143FDD5E123FFCC60F3FE6
:109B600035290D3F2F860A3FECDD073F6A30053F60
:109B7000AA7D023F598BFF3E3012FA3E8A8EF43E98
:109B80000803EF3E096DE93EDDCDE33E8525DE3E6F
:109B90004F75D83E3CBDD23EFCFBCC3EDF32C73ECB
:109BA0003563C13E5D8ABB3E47ACB53E05C5AF3EA1
:109BB00084D8A93E75E5A33E89EA9D3E60EA973EBA
:109BC000F7E4913E02D98B3ECEC7853EB7627F3E19
:109BD000F52D733EB7EE663EFDA45A3E65534E3EEC
:109BE000F0F9413E3D9B353E0E32293EA0C31C3E5E
:109BF000F44F103E0AD7033EC4B1EE3DB9A5D53DA2
:109C0000A298BC3D1B82A33D49658A3D6685623DA5
:109C1000D637303DF7C7FB3CC615973C5374C93B5C
:109C20005374C9BBC61597BCF7C7FBBCD63730BD4C
:109C3000668562BD49658ABD1B82A3BDA298BCBD75
:109C4000B9A5D5BDC4B1EEBD0AD703BEF44F10BE51
:109C5000A0C31CBE0E3229BE3D9B35BEF0F941BEED
:109C600065534EBEFDA45ABEB7EE66BEF52D73BE5B
:109C7000B7627FBECEC785BE02D98BBEF7E491BE68
:109C800060EA97BE89EA9DBE75E5A3BE84D8A9BEE9
:109C900005C5AFBE47ACB5BE5D8ABBBE3563C1BEB0
:109CA000DF32C7BEFCFBCCBE3CBDD2BE4F75D8BEBA
:109CB0008525DEBEDDCDE3BE096DE9BE0803EFBE3E
:109CC0008A8EF4BE3012FABE598BFFBEAA7D02BF47
:109CD0006A3005BFECDD07BF2F860ABF35290DBFEF
:109CE000FCC60FBFDD5E12BFD8F014BF957D17BF55
:109CF000C5031ABFB6841CBF19FF1EBF977321BFCF
:109D00002EE223BF904926BF0DAB28BFFB052BBF1A
:109D10005C5A2DBF2FA82FBFCCEE31BFDC2E34BF35
:109D2000B66736BF5B9938BF72C43ABFABE73CBF7A
:109D3000B0033FBF7E1841BF182643BFD42B45BF99
:109D4000B32947BF5C2049BF280F4BBF6FF54CBFFD
:109D500080D44EBFB4AB50BF637A52BF8E4054BF65
:109D600082FF55BF4AB557BF356359BF9A085BBFDD
:109D70007AA55CBFD6395EBFACC55FBF564861BF30
:109D800022C362BF1A3464BF349D65BF22FD66BF23
:109D9000E35368BF1FA269BF86E66ABF68226CBF33
:109DA0001D556DBFA67E6EBF029F6FBF31B670BFDF
:109DB0008BC371BFB9C772BFB9C273BFE5B374BFFC
:109DC000E59B75BFB77A76BFB54F77BFDF1A78BF0F
:109DD000DBDC78BF039579BF57437ABFD5E77ABFFD
:109DE00027837BBFA5147CBF4E9C7CBF221A7DBFFE
:109DF000228E7DBF4DF87DBFA3587EBF25AF7EBFAD
:109E0000D2FB7EBFAB3E7FBFAF777FBF37A67FBFA2
:109E100092CB7FBF19E77FBF23F87FBF000080BFD1
:109E200061FD7FBFEDF07FBFA5DA7FBF88BA7FBF3E
:109E3000EF8F7FBF295C7FBF8E1E7FBF77D67EBF2F
:109E400034857EBF74297EBF87C47DBF1D557DBF0D
:109E500087DC7CBF75597CBF36CD7BBF22377BBF8B
:109E600039977ABF7CED79BFEB3979BF2C7D78BF0C
:109E70009AB677BF32E676BF9E0C76BF352975BF9E
:109E80009F3C74BF354673BF9D4672BFD93D71BFBD
:109E9000412B70BF23106FBF31EB6DBF12BD6CBF84
:109EA000C6856BBF4E456ABF50FC68BF7EA967BFC1
:109EB000274E66BFA3E964BF9A7C63BF0C0762BFED
:109EC000518860BF69005FBFA4705DBFB2D75BBF40
:109ED000E3365ABF8F8D58BF0EDB56BF572155BF93
:109EE000745E53BFB49351BF16C14FBFF3E54DBF6E
:109EF0009B034CBFBD184ABF032648BF132C46BF67
:109F00009E2944BF9B2042BF130F40BFFDF63DBFBB
:109F10000AD73BBFE2AF39BF848137BFF14B35BFB2
:109F2000D00F33BF79CC30BFED812EBF7B312CBF3A
:109F3000D3D929BF9E7B27BFDB1625BF8AAB22BFA3
:109F4000543A20BF8FC21DBFE5441BBF55C118BF87
:109F5000DF3716BF82A813BF401311BFC0780EBFF2
:109F60005AD80BBFB53209BFD38706BFB2D703BFDC
:109F7000532201BFBBD0FCBE5452F7BE71C9F1BE23
:109F8000B038ECBEC39EE6BE59FAE0BE614FDBBE00
:109F9000ED99D5BEECDDCFBEBD18CABEB24BC4BE76
:109FA0001878BEBEA29CB8BE4EB9B2BE6CCFACBED5
:109FB000FCDEA6BEFFE7A0BEC4EB9ABEFBE894BEE3
:109FC000A4DF8EBE0FD188BE3CBD82BEF54A79BEED
:109FD000560E6DBEDAC960BE807D54BE4A2948BEA9
:109FE00097CA3BBEA5662FBE76FD22BE698C16BE03
:109FF0007F130ABEEC2FFBBD5E2EE2BD4721C9BD1B
:10A000006B0EB0BD38F496BD8FA97BBD316049BDE4
:10A010006F0E17BDDF6EC9BC297549BC000000007A
:10A020000000000000000000010203040607080908
:10A03000000000000102030404FA97999999D93F9E
:10A04000AF788E1DC571CC3F9FC678D0099AC33FAB
:10A05000935555555555E53F599322942449D23F80
:10A06000DE03CB966446C73F44523EDF12F1C23F47
:10A07000000000000000F03F000000000000F83F7A
:10A0800000000000000000000000004003B8E23FB4
:10A09000000000000000000006D0CF43EBFD4C3E66
:10A0A000033333333333E33FFFAB6FDBB66DDB3F5B
:10A0B0004D268F515555D53F01411DA96074D13FA3
:10A0C00065DBC9934A86CD3FEF4E454A287ECA3F9D
:10A0D0003E5555555555C53F93BDBE166CC166BF1F
:10A0E0002CDE25AF6A56113FF16BD2C541BDBBBE18
:10A0F000D0A4BE726937663E000000000000000078
:10A10000004040404040404040404141414141408A
:10A11000404040404040404040404040404040403F
:10A1200040050202020202020202020202020202CE
:10A1300002202020202020202020200202020202D3
:10A14000020290909090909010101010101010102B
:10A150001010101010101010101010100202020237
:10A16000020288888888888808080808080808087B
:10A170000808080808080808080808080202020277
:10A180004000000001A100080A0D20546F20636800
:10A19000616E676520612076616C75652C2074792D
:10A1A00070652027707265666978272776616C75FF
:10A1B000652727454E544552270A0D20692E652EE6
:10A1C000202762313030302727454E544552270A28
:10A1D0000D0A0D00F4A10008000000208800000016
:10A1E000D46300087CA200088800002058CE00003C
:10A1F000E463000800000008004000080080000838
:10A2000000C0000800000108000002080000040867
:10A210000000060800000000080000001000000018
:10A220001800000020000000300000003000000096
:10A2300038000000000000000000000000000000E6
:10A24000000000000000000000000000000000000E
:10A2500000000000000000000000000001000000FD
:10A2600010000000000000000024F40000000000C6
:0CA27000000000000000000000000000E2
:04000005080001C529
:00000001FF
