:020000040800F2
:100000000000022019030008210300082303000850
:10001000250300082703000829030008000000004A
:100020000000000000000000000000002B0300089A
:100030002D030008000000002F0300083103000812
:1000400033030008330300083303000833030008B8
:1000500033030008330300083303000833030008A8
:100060003303000833030008330300083303000898
:100070003303000833030008330300083303000888
:1000800033030008330300083303000895370008E2
:100090007D37000833030008893700083303000860
:1000A00033030008B959000833030008330300087C
:1000B0003303000833030008330300083303000848
:1000C0003303000833030008330300083303000838
:1000D0003303000833030008330300083303000828
:1000E0003303000833030008330300083303000818
:1000F0003303000833030008330300083303000808
:1001000033030008330300083303000833030008F7
:1001100033030008330300083303000833030008E7
:1001200033030008330300083303000833030008D7
:10013000330300080000000000000000B937000889
:10014000A137000833030008AD3700083303000867
:1001500033030008330300083303000833030008A7
:100160003303000833030008330300083303000897
:1001700033030008330300083303000800000000C5
:100180000000000033030008000000000000000031
:1001900033030008000000000000000033030008E3
:1001A0000000000000000000000000003303000811
:1001B0003303000833030008330300083303000847
:1001C0003303000800F002F800F098F80AA090E865
:1001D000000C82448344AAF10107DA4501D100F002
:1001E0008DF8AFF2090EBAE80F0013F0010F18BF37
:1001F000FB1A43F00103184790EE0000B0EE000038
:10020000103A24BF78C878C1FAD8520724BF30C842
:1002100030C144BF04680C60704700000023002414
:1002200000250026103A28BF78C1FBD8520728BF06
:1002300030C148BF0B6070476E2900F0918570296E
:1002400000F0E18166290DF0158565290DF0128514
:1002500067290DF00F8561290DF00E8503681B0AD3
:1002600028BF41F08001692900F05281642900F023
:100270004F81752900F04C816F2901F0A080782909
:1002800000F0AD81E92901F03B80E42901F03880DC
:10029000F52901F03580EF2901F09D80F82900F063
:1002A000AC810368DB0928BF41F08001632900F0BD
:1002B000AA87732900F0AF87E32901F06787F32944
:1002C00001F06C87002070471FB50DF010FC9DE811
:1002D000030000F099FC01F025FD0400002000213E
:1002E0000CF046FD401C6060002000210CF02AFD4F
:1002F000E06001F049FC00F047FC1FBD0AF0F8F88F
:10030000114603B40AF022F903BCFFF7DDFF03F046
:1003100023FA0AF0D7FE0000064880470648004747
:10032000FEE7FEE7FEE7FEE7FEE7FEE7FEE7FEE7A5
:10033000FEE7FEE765590008C50100080048704760
:10034000F015002070B5064600F042FC056806F185
:100350000B0020F00704B4429CBF002070BD2B4668
:100360006A68BAB11068A04210D304F1080188424B
:100370003CBF5068586007D351681019416011683C
:10038000091B016058601460101D70BD134652684F
:10039000002AE7D12146284600F022FC0028DED1C1
:1003A00070BD70B50446051F00F012FC0068002CFB
:1003B00014BF446870BD002C18BFAC423CBF20463F
:1003C0006468F8D301680A18AA4218BF456003D1CF
:1003D0002A6805461144016028684119A1421CBFE2
:1003E0006C6070BD6168696021680844286070BDF8
:1003F000B2F120030AD5C2F1200320FA02F001FA7B
:1004000003F321FA02F140EA0300704721FA03F0F6
:100410004FF00001704700007CB51D4616460C00E9
:10042000009001D02044401E074B7B442A46694679
:100430000190304600F0BDFE05461CB10020694623
:1004400000F0CAFE28467CBDB50D00000B460146F3
:10045000184600F0E5BE00000FB4044910B503AA29
:10046000029800F0DDFE10BC5DF814FB4816002079
:1004700070B5044685690068C10601D5302600E0E4
:100480002026C00707D070BDD4E90121304690472F
:10049000206A401C20626D1EF6D570BD70B5044602
:1004A00085690078C00707D170BDD4E901212020FB
:1004B0009047206A401C20626D1EF6D570BD70B555
:1004C0000C460546012A05D02878800600D5EA6941
:1004D000002302E0012305E05B1C934202D2E05CB2
:1004E0000028F9D1A869E618C01AA861286A18443A
:1004F00028622846FFF7BCFF04E0D5E9012114F883
:10050000010B9047B442F8D32846FFF7C7FF70BDF0
:100510002DE9F0410646002410687529314616A5DC
:1005200010D000F0B2FB002802DA404213A507E029
:1005300031688A0701D512A502E0490704D511A543
:10054000012401E000F0AAFB00210A2206F12407A1
:1005500009E0B0FBF2FCB0FBF2F302FB1C00303010
:1005600078541846491C0028F3D123462A463046C1
:10057000BDE8F04100F09BBB000000002D00000032
:100580002B00000020000000F0B40D460188090592
:1005900002D5214C7C4402E01F4C7C440E340021E7
:1005A00000F1240608E002F00F071209E75D42EAB5
:1005B00003721B097754491C52EA0307F3D10278EE
:1005C0000023120704D5702D06D009B1022311347F
:1005D0002246F0BC00F06BBB01231034F8E770B585
:1005E00004460D462146106800F058FB0246294695
:1005F0002046BDE870400023C6E7D21D22F0070365
:10060000D3E90023C0E70368126843F020030360C6
:100610000823C3610023B7E7D4E500002DE9F05FAC
:10062000894604464FF0000ADFF874B1FB44C0F875
:1006300020A02046E1688847002874D0252806D0ED
:10064000D4E901219047206A401C2062F1E700268E
:100650005F462046E16888472028054607DB312DA4
:1006600005D2781910F8200C08B10643F1E7B0075D
:1006700001D526F00406C4F81CA00027C4F818A071
:100680002A2D09D0284609F051FF38B304EB87081A
:10069000303DC8F8185019E059F8041B204604EB07
:1006A00087029161E1688847012F054618D1E0690A
:1006B000002820DA26F020061DE0D8F8180000EB0C
:1006C000800005EB40003038C8F818002046E1688B
:1006D0008847054609F02AFF0028EED1012F0AD0ED
:1006E0002E2D08D12046E16888477F1C0546022F41
:1006F00046F02006C4DBA069002803DA404246F039
:100700000106A061F00701D026F010066C2D0BD079
:10071000682D09D04C2D39D06A2D35D0742D35D0A7
:100720007A2D33D016E038E0E1682F46204688471E
:10073000B842054609D16C2F26D04FF48060E1689D
:10074000064320468847054604E06C2F1AD04FF434
:10075000807006430DB3A5F14100192802D8203559
:1007600046F400664A462946204626604E46FFF774
:1007700063FD80B101280BD0F61D26F0070000F1C3
:10078000080956E74020E4E78020D8E70020D6E7B4
:1007900006F104094DE7284652E7206ABDE8F09FBC
:1007A00064E5000070B50646FFF7C8FD046805461D
:1007B00030460A22002100F08BFE2C6070BD000044
:1007C00070B50446C068810713D0800601D5A56ABC
:1007D00004E0A169606808442169451A204601F0D7
:1007E0008FF9002206462946204601F0B5F830462A
:1007F00070BD002070BD70B510B1BDE87040DFE77E
:100800000025074C6E1E07E02046FFF7D9FF00B118
:100810003546206D20F00104002CF5D1284670BD2E
:10082000F41500202DE9F0410C4607461646104607
:1008300000F078F82078611C61280AD0722802D074
:1008400077283CD102E00125002405E0022504249C
:1008500002E0082448F2020511F8010B2B2806D00B
:10086000622809D011F8010C74280AD00BE045F079
:10087000030544F00204EFE745F0040544F00104E9
:10088000EAE744F010043846214609F0C1FE411C55
:1008900015D00021316171604FF40071F560F16194
:1008A0007061200704D530460222002101F054F87F
:1008B000306D40F0010030653046BDE8F081002029
:1008C000FBE72DE9F0410D460646104C206DC107AF
:1008D00004D0410804D020F00104F7E722460EE0DE
:1008E0005420FFF72FFD07000ED0206D47F00101C7
:1008F000084354212065384600F0DEF83A46294680
:100900003046BDE8F0418DE70020D6E7F415002021
:1009100011B14FF4807201E04FF480624FF4007324
:1009200001F096B82DE9F04704464FF000094FF06A
:10093000FF37C568D4E90486A80707D0204601F030
:10094000DFF8304609F008FE002802DA3846BDE834
:10095000F087280502D54046FFF723FD4C212046AD
:1009600000F0AAF8206D20F0010020654846EEE76F
:1009700010B5431C02E010F8011B71B18107FAD1D8
:100980004FF0013202C88C1A8C4314EAC211F9D01C
:10099000C01A0A0603D0C01E10BDC01A10BD0A043A
:1009A00001D0801E10BD0902FCD0401E10BD40EADF
:1009B000010370B59B072ED14FF00136042A2AD3CC
:1009C00008C810C99D1B9D43121F15EAC61517D0F4
:1009D000D8B2E1B2401A50EA056110D198B2A1B282
:1009E000401A50EA05410AD123F07F4024F07F41AC
:1009F000401A50EA052102D1180EA0EB146070BD18
:100A0000A342DBD018BA21BA884201D9012070BDB7
:100A10004FF0FF3070BD0AB9002070BD10F8013BE7
:100A200011F8014B63B1A3420AD1521E08D010F84D
:100A3000013B11F8014B1BB1A34201D1521EEDD174
:100A4000181B70BD10B5203AC0F00B80B1E81850EB
:100A5000203AA0E81850B1E81850A0E81850BFF4A8
:100A6000F5AF5FEA027C24BFB1E81850A0E8185047
:100A700044BF18C918C0BDE810405FEA827C24BF9B
:100A800051F8043B40F8043B08BF7047D20728BF29
:100A900031F8023B48BF11F8012B28BF20F8023B78
:100AA00048BF00F8012B704702F0FF0343EA03221E
:100AB00042EA024201F00DB94FF0000200B51346C0
:100AC00094469646203922BFA0E80C50A0E80C506E
:100AD000B1F12001BFF4F7AF090728BFA0E80C501F
:100AE00048BF0CC05DF804EB890028BF40F8042B18
:100AF00008BF704748BF20F8022B11F0804F18BF85
:100B000000F8012B704700004FF0013C50F8042B17
:100B100051F8043B9A4221D1A2EB0C03934313EA10
:100B2000CC1317D150F8042B51F8043B9A4215D13D
:100B3000A2EB0C03934313EACC130BD150F8042B14
:100B400051F8043B9A4209D1A2EB0C03934313EAF8
:100B5000CC13DBD04FF00000704700BFD01A01BAB1
:100B6000B1FA81F101F0180122FA01F0CB40C1F194
:100B70002001DBB2C0B2C01A2CFA01F3D11A9143A2
:100B800011EAC311E6D1704770B5064C7C44064D9E
:100B90007D4403E0206820448047241DAC42F9D105
:100BA00070BD000054E6000058E600002DE9F04159
:100BB00017460E46054633B107FB0354E41B204697
:100BC000B047A542FAD1A5F10800BDE8F0810000C8
:100BD00000487047F0160020704770477047704714
:100BE00038B504460A460020694601F0BCFE0028DC
:100BF00008BF38BD02460099204601F097F8012051
:100C000038BD012001F084BEF8B501F0A1FE054613
:100C100000200C46102000BF0646A819A0420DD99E
:100C200032466946002001F09EFE070008BF01F031
:100C30006FFE0098A04218BF0546C419FFF7C8FF11
:100C400005600746F01D20F007004619284600F011
:100C50000AF8B44208BFF8BDA21B31463868BDE8A7
:100C6000F84001F063B800210160C0E9011070474D
:100C70001020704710B5FFF761FB006810BD10B57C
:100C80000446FFF75BFB046010BD09684A0501D507
:100C900040B27047C905FCD500B2704709684A05E3
:100CA00001D5C0B27047C905FCD580B270472DE9A7
:100CB000F0470D4699469246044600F12408016823
:100CC000880604D5E06921F01001216000E00120D0
:100CD000A84201DD471B00E00027A1697A1902EB59
:100CE0000900081AA0612078C00602D42046FFF748
:100CF000BFFB002608E0D4E901211AF8060090475E
:100D0000206A401C761C20624E45F4DB2078C00629
:100D10000AD52046FFF7ACFB06E0D4E901213020DC
:100D20009047206A401C2062381EA7F10107F4DCBE
:100D300007E0D4E9012118F805009047206A401C1B
:100D40002062281EA5F10105F3DC2046FFF7A6FB73
:100D50002078000602D50220BDE8F0870120FBE7DD
:100D600011680268006A530501D508700AE0D305CE
:100D700001D5088006E0130603D5C217C1E90002B9
:100D800000E008600120704770472DE9FF4F0C46D6
:100D90001E464FF0FF378BB0D2E90001DDF86080CE
:100DA0000A908A46C1F30A5505B93D460021084616
:100DB0004FF00000BAF1000F00F4400005DA00EB3C
:100DC00080004FF4400101EA50004FEA9059B9F118
:100DD000010F00DDB9460A9850EA4A000ED044F6E9
:100DE0001050A5F2FF3545432F14B8F1000F1ED067
:100DF0007542291E1EDDC9F100021CE0B8F1010F89
:100E00004FF0000001D0302103E0F24305E021540F
:100E1000401CB042FBDB30460022002121540B99DC
:100E2000C1F80880C1E900200FB0BDE8F08FBD1BFC
:100E30006D1CDEE74A4600DA694206A801F08CFC28
:100E400006AB93E8070003AB83E8070050460A9916
:100E500002F04DF88DE80700A0F500501F38009013
:100E60000398002D0ADD42F21F014A460844002380
:100E700003A90390684602F0F9FA09E0A0F50050D2
:100E80004A461F38002303A90390684602F018FB66
:100E90008DE807000004000C03D04FF0FF3041083C
:100EA00000E01046B8F1000F03D000220092154672
:100EB0001EE0751E05D400F053FF303262556D1EE2
:100EC000F9D5B3460122084302D000227F1C04E07A
:100ED0002078302801D100227F1E002A099784D073
:100EE0001DE0112D07DA00F03BFF303262556D1C1A
:100EF00050EA0102F5D1084302D00098C8B10EE0D3
:100F00000021681E05E0235C625C63542254401E8D
:100F1000491C8142F7DBAB46A81B401E099000200C
:100F200004F80B000B98099AC0F80880C0E9002B60
:100F30007AE711264FF0000857E72DE9F04F884671
:100F40000446D21D22F0070191B0D1E90001CDE99C
:100F50000A0108F055FB02460B98C00F01D02D2066
:100F600007E02068810701D52B2002E0202101EA5B
:100F7000C000032A099001D0072A05DB0346414639
:100F8000204601F0B9F80BE12078800601D5E06930
:100F900000E00620B8F1650F814606D0B8F1660F73
:100FA00018D0B8F1670F70D131E00020B9F1110FFE
:100FB000009001DB112301E009F101030AAA01A954
:100FC0000CA8FFF7E2FEDDE90C70002609F101052F
:100FD000834647E001204B4600904FF000470AAAA5
:100FE00001A90CA8FFF7D1FEDDE90DB00C995D4613
:100FF000002610B909F101000D18B9EB050003D462
:10100000C0F1FF3609F10105A5EB09002BE0B9F1AC
:10101000010F01DA4FF001090020B9F1110F009022
:10102000484601DD112300E003460AAA01A90CA8E5
:10103000FFF7ABFEDDE90C704D46002683462078B5
:1010400000070AD4AB4500DA5D4601A8012D04DD96
:10105000411911F8011C302907D04F4502DA17F168
:10106000040F04DA012082460FE06D1EEEE7002F28
:1010700002DCED1B3E4403E0781CA84200DD7D1C31
:10108000B81B00F1010A4FF000472078000703D495
:10109000AA4501DB4FF0FF3A0021B7F1004F0DF1F7
:1010A00043088DF8431024D002202B23002F01DAAF
:1010B0007F422D230A21021EA0F1010000DC5FB156
:1010C00097FBF1FC97FBF1F201FB1C7C17460CF13E
:1010D000300C08F801CDEEE7A8F10100037021887B
:1010E000090501D5452100E06521A0F1010800F8BE
:1010F000011C09980FA9A1EB0807FF1D00B10120F1
:10110000411901EBEA70A1693844081A401EA06138
:101110002078C00602D42046FFF7AAF9099828B122
:10112000D4E901219047206A401C20622078C00643
:1011300022D52046FFF79CF91EE0002E04DBB345C4
:1011400002DD01A8805D00E03020D4E90121904754
:10115000206A401C2062761CAAF101005FEA000AA6
:101160000AD100F0DFFDC0680168405CD4E90121CC
:101170009047206A401C2062281EA5F10105DCDC96
:1011800007E0D4E9012118F8010B9047206A401CC0
:101190002062381EA7F10107F3DC2046FFF77EF935
:1011A000032011B041E6000001694A1C0261087881
:1011B000704700B58FB0CDE9013100210591054997
:1011C0007944CDE9031011466846FFF727FA0FB0BE
:1011D00000BD0000E5FFFFFF0A6802F8010B0A608E
:1011E0007047D1E900239A4202D2531C0B60107061
:1011F000704710B5436913B1AFF3008001E0FFF70A
:101200005EF9012010BD127800F124010A7000225D
:101210004A700122EDE711684FF0FF32E9E7000064
:10122000074B70B50D467B44FFF7C3FF04462846C5
:1012300000F086F910B14FF0FF3070BD204670BD50
:10124000D39E00002DE9FF5F15468A460446DFF86D
:10125000AC80F8440027D8E900103E46CDE90010E4
:1012600010E03AF816106A4602A801F025FB411C6E
:1012700007D02178890603D5E269391891420DD843
:101280000744761C2078800602D5E069B84205DD67
:10129000AE42E6DB3AF816000028E2D1A069C01B96
:1012A000A0612046FFF7E4F8D8E90010CDE900106E
:1012B000002017E03AF818106A4602A801F0FCFA7C
:1012C000B0F1FF3F81460BD000250DF1080B05E082
:1012D000D4E901211BF8050090476D1C4D45F7D35B
:1012E00008F10100B0428046E4DB206A3844206205
:1012F0002046FFF7D3F8BDE8FF9F000092DA000018
:101300002DE9F0418046D21D22F007020025D2E9E6
:101310000002F52915A614D0011E72F1000106DAAB
:101320000023D0EB030063EB020211A608E0D8F81B
:1013300000108B0701D50FA602E0490701D50EA6C4
:1013400001251146002408F1240704E000F008FDFF
:1013500030323A55641C50EA0102F7D12B4632462E
:1013600021464046BDE8F041FFF7A1BC0000000067
:101370002D0000002B0000002000000030B40021F0
:1013800000F1240408E002F00705D208303542EAF3
:101390004372DB086554491C52EA0305F3D1046823
:1013A000002310A2250707D5A40600D421B1C469E3
:1013B00001230DA2641EC46130BCFFF778BC10B5D8
:1013C000044621461068FFF769FC02462046BDE846
:1013D00010400023D2E7D21D22F00701D1E90023FB
:1013E000CCE700000000000030000000426842B17D
:1013F000016811F8013B23B1521EC0E900121846E2
:1014000070470121C160881E704742685AB1C368A5
:10141000016843B983688B4205D0491E521CC0E95C
:101420000012002070474FF0FF3070470FB40023C8
:1014300000B589B00CA900910B99CB60214B7B447E
:101440000693214B7B44079304236FF00042CDE9C0
:1014500001321E4A7A446B460892024600200CF084
:101460006DFC09B05DF814FB70B506464FF0FF3017
:1014700015460C46324686B00091CDE90101694619
:101480000020049004A8FFF7D1FF02460498211819
:1014900025B108B1084600E02046286004980028DD
:1014A0000DD0002A02DD0098884208D03246081B81
:1014B00069460094CDE9010404A8FFF7B7FF06B020
:1014C00070BD0000ABFFFFFFC3FFFFFF93090000EB
:1014D0002DE9F04791460F4680460446002614F851
:1014E000015B2DB100F016FC0068405DC007F6D12D
:1014F0002B2D02D02D2D18D0641E4A463946204689
:1015000001F0DAF827B13968A14201D1C7F80080AB
:101510004FF0020471050BD54042002803DDFEF7B1
:101520000DFF0460A007BDE8F08746F48066E4E79D
:101530000028F8DAFEF702FF04606FF00040F2E7DF
:10154000007B00F08000704770B50D4601461446E0
:10155000D36850692A4609F0EFF8002807DA411CE1
:1015600007D0E16820F0004041F48041E160281A92
:1015700070BD204600F090FA4FF0FF3070BDC1689A
:101580000022026021F4805141F0400111F4C06F4B
:10159000C16001D08260704702694168891AC269DE
:1015A000891A816070472DE9F0470446C06840F40D
:1015B0008000E060010312D520F40020E060810685
:1015C00006D4E26A61688A4200D80A46511A21604C
:1015D00040F40010E06094F82500BDE8F08720F4A6
:1015E0000010E060800602D5204600F0ACFAE0680A
:1015F00042F281014FF0FF390140012903D020461A
:1016000000F04AFAB6E02168002600290ADAC94348
:1016100040F480502160C4E902606068411C616050
:101620000078DAE744F2400108420CD020F4A040F0
:1016300040F040002660E06021696068401AE1697E
:10164000401AA06096E0216991B9C00310D4E06906
:10165000FEF778FE2061B0B1E06840F4006010F45D
:10166000407FE06002D140F48070E06020696060FB
:10167000E068D4F814A0C1061AD5C0030ED52046E0
:1016800000F03EFA14E004F1240020610120E06142
:10169000E06820F4407040F48060E6E7216960680B
:1016A000401AA1690144504609F076F80028A6DBEB
:1016B000E068C0032AD56168E06A884200D808461D
:1016C0002169451AE069471B1BD02046D4F81880D1
:1016D00000F016FA08EB05015046C4F8188009F02E
:1016E0005BF800288BDBE06840F40030E06000022B
:1016F00002D5A0692844A061E1692069C91B451889
:101700000DE0204600F0FCF9E769F5E7256961681E
:10171000D4E90607491BE56208446560A061E068FA
:1017200020F0100010F4C06FE06002D0204601F0FD
:10173000A7F8E06840F48050C4E90260000205D5D3
:101740002069E06260606FF0010046E7224639469A
:101750002846FFF7F9FE411C0CD02918E16258B168
:10176000401E2060681C6060E06840F40030E0606B
:10177000287832E7484630E765602046FFF7FFFEED
:10178000F8E72DE9F04705460C46C86820F420101C
:1017900040F48000C860800602D5084600F0D3F906
:1017A000E06841F282014FF0FF390140022903D085
:1017B000204600F071F9B5E000F42041B1F5004F8A
:1017C0000FD1C00306D56168E06A884200D8084698
:1017D000606006E02069E0626060606908F0DCFE3D
:1017E000A061A0680022EEB200280DDAE1688B0546
:1017F0000AD4C043A06041F490302260E060606889
:10180000411C61600670A5E0E0689046226040F4EB
:101810000050E060206968BB606908F0DDFE0127C8
:1018200004F12405A0B1A08910F4407F08D0E0693C
:10183000FEF788FD206118B1E06840F4006016E012
:10184000E7612561E06820F4407040F480600EE0BC
:10185000E069FEF777FD00282061F1D0E06840F4F0
:10186000006010F4407FE06002D140F48070E060DE
:1018700020696060E06825696FF0010AC1051FD525
:101880006168E06A884200D80846411B04D02246BD
:10189000284600F00BF9F0BBE068010203D5E562D1
:1018A000C4E9015854E0691CE1626160E16940F4F7
:1018B0008030491EC4E9021030462E70BDE8F08722
:1018C000010202D500F480320AE06068411C6160C8
:1018D0000670E0680A2E40F48030E06006D00022F6
:1018E000E16A6068814203D90B4602E00122F7E712
:1018F0000346A7895B1B7F0503D4E7699F4200DD90
:10190000E2B1814200D80146E5620F1AC4E90158EC
:10191000002B09DD00E005E022461946284600F0CC
:10192000C5F808B14846C9E747B1A069E5626560F6
:10193000C01BA061E06840F01000E060E0680002B9
:1019400008D56168A069E562491B08446560A0612B
:101950005046B3E73046B1E72DE9F041044616465C
:101960000D464769007B80072ED0384608F034FECC
:1019700050BB3EB3012E02D0022E25D104E02046FA
:1019800000F05CFF05441DE0384608F005FEE16804
:10199000002841F01001E16005DA204600F07CF8F3
:1019A0000120BDE8F081C9030BD56268E16A91426C
:1019B00000D81146A26911442269891A814200DDCA
:1019C00008460544002D01DA0220EAE7E16A606872
:1019D000E268814206D29103E06203D522F400312D
:1019E00041F01002A6690027AE4213DCE16A814291
:1019F00001D90B4600E0034603EB060C2369ACEB70
:101A0000030CAC4506DD814201D98C4600E08446DA
:101A10009C4505D1A760276042F02000A5620DE03B
:101A2000AD1BE669AE1B8142A66000D90846C01A0C
:101A3000281A20605819606022F0200003490840ED
:101A4000E060002084F84870ABE70000BFCFD7FF0C
:101A500070B5C468A50713D0650211D4B2F5807FB4
:101A600009D0B2F5007F06D0B2F5806F08D101230E
:101A700000F1240106E05D1E6FF07F46B54201D300
:101A8000012070BD0161C361416024F470611143A4
:101A9000C160002070BD0000C16821F4001141F058
:101AA0008001C16000218160016070472DE9F0472D
:101AB000814614460E464FF0FF383248D5685769C4
:101AC000054209D03846A16908F066FE002811DBFE
:101AD0002C48C0430540E5602B463246494638460F
:101AE00008F07AFEA16920F00042B21A11440028E1
:101AF000A16103D02046FFF7CFFF4046BDE8F08745
:101B000070B504460569C06A6168884200D8084615
:101B1000E16821F42011E160C90312D5A84208D080
:101B20002246411B2846FFF7C1FF10B14FF0FF309E
:101B300070BD0020E562C4E90150E06820F4803007
:101B4000E060002070BD10B50446C06820F02000A1
:101B5000E060A16AA06988420DD02046FFF7D0FF5F
:101B6000E06820F4405040F01000E060A06AA061FE
:101B70002069E062606044F24001E0688843E06010
:101B800010BD00001000020010B542485421FEF7BD
:101B900093FF41485421FEF78FFF40485421FEF740
:101BA0008BFF3F493B483C4A3F4B08603D490A6038
:101BB0003A491960531C0365481C106501200865EB
:101BC0003B48344A39A17844FEF72CFE20B9384806
:101BD00078440A3800F095FE37482F4A35A17844FA
:101BE000FEF720FE20B9344878440A3800F089FE18
:101BF00032482A4A2FA17844FEF714FE20B92F4814
:101C000078440A3800F07DFE40232248DC000021A1
:101C10002246FFF71DFF20B125487844543800F0D4
:101C200070FE1D48224640230021FFF711FF20B11E
:101C300021487844543800F064FE184822461023A6
:101C40000021FFF705FF002806D01C487844BDE8B6
:101C50001040563800F055BE10BD104870B5006DEC
:101C600020F001040B48FEF75DFE0B48FEF75AFE1C
:101C70000A48FEF757FE09E0206D20F001052046D6
:101C8000FEF750FE2046FEF78CFB2C46002CF3D1CD
:101C900070BD0000F4150020481600209C1600209E
:101CA00080020020840200208802002072000000D0
:101CB00066CA00007700000055CA000045CA00004F
:101CC00010B500F02DFEBDE8104000F015BE4FF03D
:101CD00000020429C0F0128010F0030C3EF4EEAEB6
:101CE000CCF1040CBCF1020F18BF00F8012BA8BF07
:101CF00020F8022BA1EB0C01FEF7E0BE5FEAC17CED
:101D000024BF00F8012B00F8012B48BF00F8012B7D
:101D10007047000010B500F005F8001D10BD00BFB1
:101D200051B0000000487047F41600200346406898
:101D30008C46002818BF88423CBF03464068F8D351
:101D400018681844884207D00CF1030020F00700FF
:101D5000001D411A521A0146081D0A60FEF721BBF8
:101D600030B5B0F10A024FEA900E71F100034EEA6D
:101D7000817EB0EB0E0061EB91014FEA101E4EEA3E
:101D8000017E10EB0E0041EB11114FEA102E4EEACE
:101D9000016E10EB0E0041EB11214FEA104E4EEA9E
:101DA000014E10EB0E0041EB1141401841F10001D2
:101DB0004FEAD00040EA41704FEAD10110EB8005B4
:101DC0004FEA810444EA907444EB01046D1944EB3A
:101DD0000404521BA3414FF0000348BF0A3200D550
:101DE00030BD401C41F1000130BD10B50446FFF785
:101DF00091FF0068005D00F0010010BD2DE9F04F7B
:101E000004460D46D21D22F0070089B0D0E90097A4
:101E10004846394607F0F4FB0246F80F01D02D235F
:101E200007E02068810701D52B2302E0202101EA89
:101E3000C0038DF820300BB1012000E00020032A00
:101E4000824601D0072A04DB2946204600F054F9D7
:101E50003FE12078800601D40D2500E0E569C7F355
:101E60000A560D2D49DA00214FEA175B08464FF05C
:101E70000000002F00F4400007DA00EB80004FF470
:101E8000400100EBD07001EA60008115012901DDFD
:101E90004FF0FF3100224FEA850CBCF1180F06D33A
:101EA0001346ACF118004FF08052C24003E04FF4EB
:101EB000801323FA0CF30CF10C0CBCF1200F04D3AB
:101EC000ACF1200C09FA0CF001E007FA0CF0002943
:101ED0004FF0004801DD18B90FE00ED140450CD39A
:101EE00019EB02095F4121B9404502D19F4329EA1C
:101EF0000209BBEB175F00D0761C2088000502D5D5
:101F00007B48784402E07A487844193808AA30239C
:101F100002F80A30037C0AF10101002E0AF1020ADC
:101F200053546A4602DC4FF0300101E04FF03101BA
:101F30004FF001088DF8001002D0A6F2FF3603E042
:101F400059EA470100D06B4E002D02DC21780907C9
:101F500004D54FF002082E218DF80110C44600214F
:101F60000BE0C7F303433F01C35C491C6D1E02F83D
:101F70000830052908F1010801DA002DF1DC002103
:101F80000CE000EB1973491C1B786D1E082902F840
:101F900008304FEA091908F1010801DA002DF0DCD8
:101FA00021688B0602D516E0A8F10108E04505DDA1
:101FB00002EB080313F8013C302BF5D0B8F1000F09
:101FC00009DD02EB080313F8013C2E2B03D10907AE
:101FD00001D4A8F10108002D05DD3E2102F808100A
:101FE0006D1E08F10108407C002E02F8080008F17F
:101FF000010804DA2D20764202F8080002E02B20C6
:1020000002F808000A214FF47A70864208F10108AC
:102010000BDB96FBF0F3303302F8083096FBF0F35D
:1020200008F1010800FB136601E0642E0CDB64205C
:1020300096FBF0F3303302F8083096FBF0F308F12A
:10204000010800FB136601E00A2E06DB96FBF1F0A7
:10205000303002F8080008F1010896FBF1F001FBAE
:102060001060303002F80800A16908F1010808EB9F
:10207000050202EB0A00081AA0612078C00602D40B
:102080002046FEF7F5F9216A08AE01EB0A0020624E
:1020900004E0D4E9012116F8010B9047BAF1010AD6
:1020A000F7D22078C00602D52046FEF7E1F96E4649
:1020B00009E016F8010B3E280FD0D4E90121904722
:1020C000206A401C2062B8F10108F2D22046FEF7D7
:1020D000E5F909B00320BDE8F08F206A28442062AA
:1020E00003E0D4E90121302090476D1EEBD3F8E7DF
:1020F0001DCE000002FCFFFF2DE9F0411F46044603
:1021000003260168072A01F4006004DB08B116A564
:1021100005E016A503E008B115A500E015A521F01E
:1021200010002060A069C01EA0610FB1401EA06118
:102130002046FEF79DF94FB1D4E90121384690477A
:10214000206A401C2062C01C206206E0206AFAE778
:10215000D4E9012115F8010B9047761EF8D22046EC
:10216000FEF79CF9BDE8F0814E414E006E616E00B5
:10217000494E4600696E660010B5436913B1AFF36E
:10218000008001E0FFF75EF8012010BD128800F129
:10219000240182840022C2840122EDE711684FF0FD
:1021A000FF32E9E73A2800D2303820F02002412AF5
:1021B00001D3A2F13700884201D34FF0FF307047BE
:1021C0002DE9FF4F06468BB00878FF2806D0491C42
:1021D0002D2805D000244FF0000908E000200CE075
:1021E0000124F8E709EB8903491C00EB430908784F
:1021F000FF28F7D114B1C9F10000814610780025FD
:102200002C46AA4629462D2801D02B2804D1521C41
:102210002D2813D0002082468B461078FF280FD03F
:102220004FF0000C0A21521CA5FB017804FB018130
:1022300005FB0C11C5194BEB0104EEE70120EAE7A1
:10224000002108464FF00000BAF1000F02D000EB69
:1022500080004008C0F38157012F01DD4FF0FF37A8
:102260000E9955EA040009EB01080BD04FF0020962
:1022700018F5FA7F16DA4FEACA70002F706008DD91
:10228000012007E04FEACA70C6E900B00FB0BDE810
:10229000F08F00203060FEF751F8C0F80090182150
:1022A000084616E0B8F5FA7F18DD002F02DAF74885
:1022B000784401E0F6487844D0E90010C6E90010FF
:1022C00040EACA707060FEF739F8C0F80090142137
:1022D00008460FB0BDE8F04F0BF08DBC002108465A
:1022E0004FF00000B8F10001099002DAC7F10002D6
:1022F00000E03A4601DAC8F1000106A800F02CFA25
:1023000006AB93E8070003AB83E8070044F23E0006
:102310005BEA04010090584604D144F21E012C46A9
:102320005D460091210C0904014306D10099240463
:1023300044EA15442D041039009104F07F41014313
:1023400006D10099240244EA15642D02083900914F
:1023500004F07041014306D10099240144EA157448
:102360002D01091F009104F04041014306D100995D
:10237000A40044EA9574AD00891E009104F0004168
:10238000084304D100986D196441401E00904FF03D
:1023900001033A466846B8F1000FCDE9014503A9AB
:1023A00002DD01F0A2F801E001F075F8BAF1000FCA
:1023B00004460D4601D084F00044002108464FF049
:1023C0000000099940F2FF77484010F00C0F07D148
:1023D00024F00040284303D0C4F30A50B84212D17D
:1023E000FDF7ACFFC0F80090C4F30A50B8420AD120
:1023F000A8487844D0E90010C6E9001004F0004174
:102400000843706042E7C6E900543FE72DE9FF4FFB
:102410001F464FF0000A4FF0FF38454691B0D7E90C
:102420000146CDF83CA0FFF77DFCC0680168405C28
:102430001090B96912986D1C8847396A814688479F
:102440000028F6D1B9F1FF3F0AD0002E24F4D06461
:1024500011DDB9F12B0F08D0B9F12D0F0BD102E02E
:10246000404615B013E744F48064B96912986D1CB6
:102470008847761E8146600504A901D52D2000E01D
:102480002B20002E01F1010B0DF130088DF810000A
:102490003FDDB9F1690F08D0B9F1490F05D0B9F1A5
:1024A0006E0F02D0B9F14E0F1CD13B4601A800952A
:1024B00080E85002DDE912126FF002000BF042FCDE
:1024C000C11CCED10EE0B96912986D1C88478146B7
:1024D0001398761E44F4007405600F98401C002E7B
:1024E0000F9016DDB9F1300FEDD0B9F1780F02D0B1
:1024F000B9F1580F0DD10F9801280AD13B46CDE90B
:102500000054DDE91212001F02960BF019FCC11CE9
:10251000A7D1109989453ED144F0800406E0139973
:10252000681CAAF1010A44F400740860B9696D1CC2
:102530001298761E884730288146F0D02BE01099FB
:10254000894505D1200603D4761E44F0800418E0A6
:10255000484607F0EBFF08B3761E0DF123018B45CB
:1025600044F4007408D2A9F130000BF8010B2006E6
:1025700007D5AAF1010003E0200602D40AF1010008
:102580008246A00502D51399681C0860B9691298A3
:102590006D1C88478146002ED1DC53E0002E51DDB2
:1025A000B9F1650F02D0B9F1450F4BD1A00549D55E
:1025B000B9696D1C1298761E24F440748847002E69
:1025C00081460CDD2B2804D0B9F12D0F07D144F43E
:1025D0008074B96912986D1C8847761E8146E005A3
:1025E00001D52D2100E02B2108F8011BCDF800803A
:1025F00021E0761E0DF13901884544F400740CD2B7
:10260000A9F1300010F0FF0088F8000002D1009915
:10261000884509D908F1010806E0E00501D51E4802
:1026200001E042F20F708246B96912986D1C88472A
:10263000814613980560002E04DD484607F076FFBA
:102640000028D6D1F96912988847FF2053468BF8A5
:10265000000088F8000000200A900B9004AA0CA942
:102660000AA8FFF7ADFDA00502D46FF00100F8E65F
:1026700014F0240F12D0E0071CD13868DDE90A12EB
:10268000031D3B600068C0E9001213E0FCCD0000B0
:10269000EECD0000B2CC0000F1D8FFFF0AA96846D9
:1026A00007F0EAFDE00705D13868009A011D39609E
:1026B000006802602846D4E62DE9F05F82461546A0
:1026C0008B4600270AF10104B9460078302801D072
:1026D0009DB113E014F8010B0127782803D0582886
:1026E00001D045B10AE00DB1102D07D1002714F833
:1026F000010B102502E0082500E00A250026B0465F
:102700000EE005FB080005FB06F101271FFA80F823
:1027100001EB1046B6F5803F00D3B94614F8010B23
:102720002946FFF73FFD0028EBDABBF1000F05D08B
:102730000FB1641E00E05446CBF80040B9F1000F21
:1027400006D0FDF7FBFD02210160C81EBDE8F09F29
:1027500048EA0640FAE700002DE9F04781461646B0
:102760008AB0354878440DC88DE80D003248784469
:10277000801C03AC0DC884E80D0041F69B30084472
:10278000372190FBF1F290FBF1F5A5F1800501FBFB
:1027900012041B3C02D56442012000E00020DFF857
:1027A00098A080460027FA44AAF1BE0A0EE0E0078E
:1027B0000AD03246684607EB470101230AEB810144
:1027C00000F07EFE8DE8070064107F1C002CEED127
:1027D000194F7F44AE3F19E0E80715D007EB04100E
:1027E0000DF1180A90E80E008AE80E00C068F04269
:1027F00001D1981908903246012306A903A800F0D8
:102800005FFE03AB83E807006D10641C002DE3D16D
:102810004FF0010332466946B8F1000F03A802D019
:1028200000F024FE01E000F04BFEC9E90001C9F808
:1028300008200AB0BDE8F0874CC6000010B501467C
:10284000C268900703D0900607D5886A0AE0FDF7B2
:1028500075FD01210160881E10BD8B694868184410
:102860000B69C01A91F848301BB191F84910401A11
:1028700010BD1103FCD50028FADD401E10BD00007C
:1028800070B5054640F202260A4C0FE094F850005D
:10289000C00708D0AC4206D0E06836EA000002D19A
:1028A0002046FDF78DFF206D20F00104002CEDD1B6
:1028B00070BD0000F415002070B516460C460546A4
:1028C000FFF728FA036893F80101012806D0FF2CCE
:1028D0000FD8185D68B101202C7070BDD3F80701C6
:1028E0003246214603F2071303442846BDE87040F0
:1028F00018474FF0FF3070BD002801D000F050B8ED
:10290000704710B500F06CF8BDE81040FFF7F4BF59
:1029100010B500F07FF8BDE81040FFF7EDBF0000F4
:1029200010B5002102A000F041F8012010BD000008
:102930005349475056464E3A205075726520766985
:10294000727475616C20666E2063616C6C656400E6
:10295000124B694600F580528A421A6001D811462E
:1029600070471960704730B50C4D6B46A3F5805326
:102970002C6822449A420FD89B1A02F5805003EB30
:10298000D37302EB6303984200D91846C01D20F0B0
:1029900007020C60101B2A6030BD00008C02002072
:1029A00001491820ABBEFEE72600020070B50546BF
:1029B0000C460A2000E06D1C00F054F835B1287870
:1029C0000028F8D102E0641C00F04CF814B1207823
:1029D0000028F8D1BDE870400A2000F043B800009C
:1029E00010B5014602A0FFF7E1FF012010BD000075
:1029F00053494752545245443A20526564697265BE
:102A000063743A2063616E2774206F70656E3A209C
:102A10000000000010B5012805D0002103A0FFF739
:102A2000C5FF012010BD09A1F8E700005349475236
:102A3000544D454D3A204F7574206F66206865618E
:102A400070206D656D6F7279000000003A20486556
:102A50006170206D656D6F727920636F7272757031
:102A60007465640008B569468DF800000320ABBEAC
:102A700008BD70472DE9FF4F1F464FF03C0987B056
:102A80004FF00042DDE9141001F10108DDF858A013
:102A900002EA405003900020059083460546044614
:102AA0000490B969461E08988847AAF1010A029065
:102AB000BAF1000F3BDD02982E2815D01021FFF748
:102AC00071FB00282EDB4FF0010B0599014317D055
:102AD000B9F1000F0BDB4A46C11700F0F5F90543C9
:102AE0000C43A9F1040905E0012004900BE008B1B2
:102AF00045F0010501200590049820B9361D02E03B
:102B0000049800B1361FB969089808F10108884790
:102B1000BBF1000FAAF1010A0290C9D00999C1F8CE
:102B20000080C5E70298702808D0502806D0F969BF
:102B300008988847BBF1000F14D04FE000200290A6
:102B40000120BBF1000F049009D0B969089808F181
:102B500001088847AAF10109B9F1000F07DCF969FA
:102B6000089888476FF001000BB0BDE8F08F2B2864
:102B700004D02D280CD14FF0FF300490B96908988B
:102B800008F101088847A9F10109B9F1000FE6DD54
:102B9000411CE4D00A21FFF705FB0028DFDB029986
:102BA00008F1010801EB810100EB41000290B969D5
:102BB000089888470A21FFF7F5FA099AA9F101094F
:102BC000B9F1000FC2F8008001DD0028E7DAF969E9
:102BD000089888470499029800FB016655EA0400AA
:102BE00004D004F04041090002D006E0039898E0C8
:102BF000A40044EA9574AD00B61E04F0004108003C
:102C000002D16D196441761E159810F0240F03D07F
:102C10004FF00B095C4803E04FF028096FF07D008E
:102C20008246564507DAAAEB06018944B9F1410FFD
:102C300001DD4FF0410901200021A9F1010200F05E
:102C400043F9024628400B462140084301D00121A8
:102C500000E00021501E029143F1FF312840214045
:102C6000084301D0012000E000200299834651EA88
:102C70000B014FD0002108464FF00000039900F4EB
:102C8000400039B100EB80004FF4400100EBD07000
:102C900001EA60008015012802DD4FF0FF3000E0FE
:102CA00013D0401C36D0029860B3BBF1000F0CD19A
:102CB0004A460120002100F007F92840214008433E
:102CC00001D0012000E00020E0B101204A460021AF
:102CD00000F0FAF8034640190A4661412D1A8C416A
:102CE00011D3B9F1400F09DD159810F0240F02D06F
:102CF000AAF1340603E0AAF1170600E0761C0025CD
:102D00004FF0004406E05B1E42F1FF3220EA03056B
:102D100021EA0204CAF10100B04206DA1B49039815
:102D200008430190002000900EE0039AC4F3D321E1
:102D3000E80A0A43164940EA44500A433146CDE9BD
:102D40000002684607F0CAFB159810F0240F0BD05C
:102D50001598C00715D13868DDE90012031D3B60E6
:102D60000068C0E900120CE002A8694607F084FA86
:102D70001598C00705D13868029A011D39600068AE
:102D800002604046F0E6000002FCFFFF0000F07F1A
:102D90000000F03F2DE9FF4F92461D4685B04FF0F1
:102DA0000041DDE9124BDDE914727F1E01EA4B5050
:102DB000414940F0FF4940EA0108002122F020008B
:102DC0004928049102D04E2828D04CE03BA001268F
:102DD00007C88DE80700A9690698641C88477F1E0C
:102DE000014606D41DF8060018B121F020018142E9
:102DF0000BD0E96906988847032E34D0082E32D0CC
:102E00006FF0010009B0BDE8F08F761C032E01D0F1
:102E1000082EE0D1601CCAF80000DCE7A96906981A
:102E2000641C88477F1E2AD420F02000412826D128
:102E3000A9690698641C88477F1E20D420F02000D2
:102E40004E281CD1A9690698641C88477F1E48F447
:102E5000002849F48009CAF8004001D4282806D087
:102E6000E969069888475FEACB7012D022E0A96929
:102E70000698641C88477F1E01D4002803DAE9699C
:102E800006988847BCE72928F1D1641CCAF800409D
:102E9000E9E71BF0240F07D028680499031D2B6075
:102EA0000068C0E9001805E02868021D2A60006873
:102EB000C0F800902046A5E70000F07F494E464943
:102EC0004E49545900000000B2F120030AD5C2F166
:102ED000200301FA02F120FA03F300FA02F041EABA
:102EE0000301704700FA03F14FF0000070475FEAFA
:102EF000400C08BF91F0000F4FEA8C234FEAC1222B
:102F000043EA51514FEA1C5018BF00F5F0404FEA18
:102F1000300018BF41F000415FEA6C5C00F029808E
:102F2000BCF1FF3F08BF40F080407047130C06BF64
:102F300012044FF0100C4FF0000C130E04BF1202DD
:102F40000CF1080C130F04BF12010CF1040C930FC9
:102F500004BF92000CF1020CD30F04BF52000CF11D
:102F6000010C11464FF00002A0F11F00A0EB0C0075
:102F7000704711F0004F08BF704731F000413FF437
:102F8000D5AF0B0C06BF09044FF0100C4FF0000C2E
:102F90000B0E04BF09020CF1080C0B0F04BF090152
:102FA0000CF1040C8B0F04BF89000CF1020CCB0F49
:102FB00004BF49000CF1010CCCF12003A0EB0C0084
:102FC00022FA03F302FA0CF241EA030100F10100D4
:102FD000704720F07F4C80EA030023F07F47ACEB82
:102FE000070303F57C5300F0004003F1FF032DE9D4
:102FF00080494FEA154B09B44FEA144325EA0B4EBA
:1030000024EA03480FF2042606EB132749083E780A
:103010005FEA320203FB0667C7F5000707FB06F607
:103020004FEA54374FEAD64606F1020607FB066C14
:10303000CCF1005C4FEA1C472CEA074C07FB06F476
:103040000CFB06F504EB15464FEA961634BF00203C
:103050004FF000404FEAD13706FB07FC4FEA1C4C0B
:103060000CFB0BF7D21B03FB0CF761EB07010CFB0E
:103070000EF7B0EB074072EB17420CFB08F734BFBA
:10308000A2EB0742B2EB074261EB17414FEA0C4457
:103090004FEA910706FB07FC4FEA1C4C0CFB0BF7B1
:1030A000B0EBC74072EB573203FB0CF734BFA2EB17
:1030B000C742B2EBC74261EB57310CFB0EF7B0EBE6
:1030C000C70072EB57720CFB08F734BFA2EBC702C4
:1030D000B2EBC70261EB5771039F4FEA816141EA8E
:1030E000921104EBCC044FEAD1374FEA826206FB1F
:1030F00007FC42EA90124FEA80604FEA1C4C0CFB3E
:103100000BF7D21B03FB0CF761EB07010CFB0EF76F
:10311000B0EB074072EB17420CFB08F734BFA2EB91
:103120000742B2EB074261EB17414FEA8C554FEA79
:10313000910704EB9C2406FB07FC4FEA1C4C0CFB9C
:103140000BF7B0EBC74072EB573203FB0CF734BF01
:10315000A2EBC742B2EBC74261EB57310CFB0EF753
:10316000B0EBC70072EB57720CFB08F734BFA2EB51
:10317000C702B2EBC70261EB577115EB4C254FEA62
:10318000816141EA92114FEA82624FEAD13742EA05
:10319000901206FB07FC44F100044FEA80604FEAFE
:1031A0001C4C0CFB0BF7D21B03FB0CF761EB07016C
:1031B0000CFB0EF7B0EB074072EB17420CFB08F765
:1031C00034BFA2EB0742B2EB074261EB174115EBAC
:1031D0001C154FEA813141EA92414FEA823242EABC
:1031E00090424FEA80304FEA0C7644F1000448EAFE
:1031F00003434EEA0B484FF0000EB2EB080C71EBA4
:10320000030724BF624639464EEB0E0E4FF0000B0B
:103210000018524149414BEB0B0BB2EB080C71EB20
:1032200003077BF1000B24BF624639464EEB0E0EBE
:103230004FF0000B0018524149414BEB0B0BB2EB26
:10324000080C71EB03077BF1000B24BF6246394683
:103250004EEB0E0E51EA020718BF46F0010616EBC0
:103260000E7655F1000254F1000103D5BDE8890145
:10327000BDE80088BDE88901BDE80048B6195241A3
:1032800041EB0101A3F10103704780807F7E7D7CCB
:103290007B7A7978777676757473727171706F6EE8
:1032A0006E6D6C6C6B6A6A69686867666665646493
:1032B000636362616160605F5F5E5E5D5D5C5C5B1D
:1032C0005B5A5A595958585757565655555554548C
:1032D000535352525251515050504F4F4F4E4E4DEA
:1032E0004D4D4C4C4C4B4B4B4A4A4A494949484836
:1032F0004847474747464646454545444444444376
:1033000043434342424242414141000046EA0646AD
:10331000A3F570534FEA164646EA42564FEAD222C8
:1033200042EA415210B54FEAD121A3F1010300F066
:103330002FF820F0004000F1020C00F0004701EBF4
:1033400000501146BCF5006F40EA070000D210BDE6
:10335000BAF1000F0AD01CB503B44FF004004FF0CF
:1033600004014FF000000FBCBDE810404FF0000119
:10337000BBF1010FB9BF04484FF0FF3103480021F2
:1033800040EA070010BD00BFFFFFEF7F0000F07FA5
:10339000002B9C4630D477002BD01CB54FEA370762
:1033A00003B44FF010004FF01001BAF1000F06D037
:1033B000BCF1000FDCBF40F0080040F008014FF006
:1033C00000000FBCBDE810400BF1010BBBF1010F79
:1033D00008BF5FEA170722BF12F1010211F10101D4
:1033E0004FF0004143F1000300F0004043EA0000C9
:1033F0007047F9D35708D0E746EA064613F1400F65
:103400004FEA16461FDD13F1200FDFBF16430A46B1
:10341000002120335B42BED0C3F1200746EA0646B6
:1034200002FA07F74FEA164646EA0706C3F12007F5
:1034300022FA03F201FA07F721FA03F14FF0000331
:1034400042EA0702A7E746EA020646EA06464FEACC
:10345000164646EA0106BCBF46EA0646360C4FF061
:1034600000034FF000024FF0000194E72DE9804C7B
:103470009A46934670B491E8380007C831EA400C88
:1034800048BF34EA430C03D5FFF7A3FDFFF780FFE5
:10349000F0BCBDE8008C2DE9804C9A46934670B490
:1034A00091E8380007C831EA400C48BF34EA430CC1
:1034B00003D5FFF78EFDFFF729FFF0BCBDE8008CB8
:1034C0002DE9804C9A46934670B491E8380007C8BD
:1034D00010F0804F08BF13F0804F03D100F01AF8AE
:1034E000FFF756FFF0BCBDE8008C2DE9804C9A46F2
:1034F000934670B491E8380007C810F0804F08BFB9
:1035000013F0804F03D100F005F8FFF7FFFEF0BC89
:10351000BDE8008C20F07F4780EA030023F07F4C59
:1035200007EB0C03A3F57C5300F00040A3F1FE036E
:1035300092F0000F00F0B38095F0000F00F077805C
:103540002DE901494FEA11404FEA144621EA0048AB
:1035500000FB06FC24EA064708FB06F607FB08F812
:1035600000FB07F718EB06484CEB164C4FEA124BE2
:1035700018EB07484FEA15464CEB174022EA0B4E72
:103580000BFB06FC25EA06470EFB06F607FB0EFEC4
:103590000BFB07F71EEB064E4CEB164C4FF00006EC
:1035A0001EEB074E4CEB174B18EB0B0840F10000DD
:1035B00018EB0E0B58EB000840F100008F1A4FF08B
:1035C00000013CBFC943661B14BFB5EB040C0021CE
:1035D0003CBFC943F61B4FEA17444EEA8E0E27EA5A
:1035E00004454FEA1C4704FB07622CEA074C05FB25
:1035F00007F70CFB05F604FB0CFC16EB074642EB49
:10360000174216EB0C4642EB1C421BEB060658EB2E
:103610000202414146EA9E0601D5BDE80189B6197C
:10362000524141EB0101A3F10103BDE801894FEAD9
:1036300014454FEA114724EA054621EA074C05FBE9
:1036400007F406FB07F70CFB06F105FB0CFC11EB7E
:10365000074144EB17444FEA124711EB0C4144EB8E
:103660001C4422EA074C05FB07F206FB07F70CFB9C
:1036700006F605FB0CFC16EB074642EB174216EB71
:103680000C4642EB1C456A1854F1000148BF7047D4
:10369000B619524141EB0101A3F10103704795F0C6
:1036A000000F37D04FEA11424FEA144721EA024691
:1036B00024EA074C02FB07F106FB07F70CFB06F4B4
:1036C00002FB0CFC14EB074441EB17414FEA154792
:1036D00014EB0C4441EB1C4125EA074C02FB07F5B7
:1036E00006FB07F70CFB06F602FB0CFC16EB074685
:1036F00045EB174516EB0C4645EB1C42121951F1F0
:10370000000148BF7047B619524141EB0101A3F1D6
:10371000010370474FEA14454FEA114724EA054672
:1037200021EA074C05FB07F106FB07F70CFB06F245
:103730004FF0000605FB0CFC12EB074241EB174172
:1037400012EB0C4251EB1C4148BF7047921841EB01
:103750000101A3F10103704710B508F079F8BDE845
:10376000104007F01DBE10B5002109F08FFB10BD01
:1037700010B5002109F08AFB10BD000000210148AE
:1037800007F0FCB9006400400021014807F0F6B9D9
:10379000006400400021014807F0F0B900640040D7
:1037A0000121014807F0EAB9006800400121014801
:1037B00007F0E4B9006800400121014807F0DEB9D4
:1037C0000068004001490860704700000C3C02405E
:1037D00070B50646002529B1012927D0022928D035
:1037E0004FF4407500F080F809281ED1124C206873
:1037F00020F440702060206828432060206820F07A
:10380000F8002060206846F002010843206020682C
:1038100040F48030206000F067F8216821F0020158
:103820002160216821F0F801216070BD4FF480759E
:10383000D8E74FF40075D5E7103C02400D49092048
:103840000A68D20301D5012070470A68D20601D563
:10385000062070470A68D20501D5022070470A6821
:1038600012F0E00F01D00720704709688907FBD5E7
:10387000082070470C3C02400248016841F00041BA
:1038800001607047103C024070B50D46064600F0DE
:103890002BF8092813D10A4C206820F440702060CE
:1038A000206840F400702060206840F00100206033
:1038B000356000F019F8216821F00101216070BD28
:1038C000103C024005480068002805DA0348044916
:1038D0000C3801600349016070470000103C024051
:1038E00023016745AB89EFCD08B509208DF80000AD
:1038F000FFF7A4FF8DF800009DF800000128F7D025
:103900009DF8000008BD000010B5087D012282402E
:103910003A48D0F8003243F00103C0F80032D0F842
:10392000003223F47C53C0F80032D0F800324C6AE5
:1039300043EA0423C0F80032D0F81C329343C0F8A5
:103940001C32CB69B3B9D0F80C329343C0F80C32B7
:103950008C894B6864F31F434C6900EBC404C4F8C2
:1039600040320C890B6864F31F434C6900EBC404BC
:10397000C4F84432CB69012B16D1D0F80C32134372
:10398000C0F80C320C884B6864F31F434C6900EBA1
:10399000C404C4F840320C89CB6864F31F434C69FB
:1039A00000EBC404C4F844328B69002BD0F8043215
:1039B00005D01343C0F804320B6913B106E09343FA
:1039C000F8E7D0F814329343C0F814320B69012B96
:1039D00004D1D0F814321343C0F81432096A012913
:1039E00004D1D0F81C121143C0F81C12D0F80012F8
:1039F00021F00101C0F80012002010BD0064004059
:103A00002DE9F04104004FF0000604D094F83C008A
:103A1000002518B107E00120BDE8F08184F83D5091
:103A2000204600F093F8022084F83C0020680168EA
:103A300021F0020101602068016841F0010101608C
:103A400000F098F807464FF0030804E000F092F801
:103A5000C01B0A2862D820684068C007F6D02068DA
:103A60004168C90767D0A169012901683FD021F0E9
:103A700080010160E0690128206801683AD021F0E6
:103A800040010160206A01282068016835D021F0DA
:103A900020010160606A01282068016830D021F0AF
:103AA00010010160A06A0128206801682BD021F074
:103AB00008010160E06A01282068016826D021F031
:103AC00004010160D4E902010843D4E9041211435E
:103AD00008436168491E08432168C861206801687D
:103AE00021F00101016000F045F807461BE041F0BC
:103AF0008001BEE741F04001C3E741F02001C8E783
:103B000041F01001CDE741F00801D2E741F0040196
:103B1000D7E700F02FF8C01B0A2804D904F83C8F1F
:103B20000320657078E720684068C007F1D12068FD
:103B30004068C00700D02EB12564012084F83C0005
:103B4000002069E7042084F83C0064E7704790F89F
:103B50003510022903D080214165012070470521DD
:103B600080F835100068016821F001010160002033
:103B7000704700000148006870470000780200208C
:103B800002480168491C016070470000780200206B
:103B90000A4810B5016841F400710160016841F400
:103BA00080610160016841F4807101600F2000F0C4
:103BB00007F800F069F8002010BD0000003C02404A
:103BC00010B588B005A9684600F01EFC00F03CFC6A
:103BD0002549059000220B6843F008030B60096833
:103BE00001F008010691204920390B6843F00803D1
:103BF0000B600B6823F008030B601D4C1B49216010
:103C0000511EE1601B49039B03B14000B0FBF1F082
:103C100080B2401E2261C4E901021548626101F0D0
:103C2000EDF8164814490068C0F8081114494FF41B
:103C30008020C1F8000100210D4801F0FBF80421AB
:103C40000B4801F0F7F82068426A0E490A600968DB
:103C500001F57A7181632068C16841F00401C16097
:103C600008B0002010BD000040380240000C0040A9
:103C7000B415002040420F0085CB000808ED00E09D
:103C800004E000E040020020704700002DE9F84306
:103C90001D48016841F0805101600068012700F073
:103CA00080500090380490FAA0F0DFF86080B0FAFD
:103CB00080F048F82070FFF75DFF04464FF47A75F6
:103CC000134E04E0FFF756FF001BA84213D870689C
:103CD000C003F7D54FF4003090FAA0F0B0FA80F0AE
:103CE00048F82070FFF746FF044607E0FFF742FF61
:103CF000001BA84202D90320BDE8F8837068800346
:103D0000F4D50020F8E700004038024000000E42E1
:103D1000007000402DE9F84F044600250078FF4F61
:103D20002E46C00708D03868A16B20F0C060084359
:103D30003860A06B00B901252078800708D5386865
:103D4000E16B20F0C05008433860E06B00B90125FA
:103D5000207840070ED53868216B20F440100843C6
:103D60003860206BB0F5801F01D010B102E0012552
:103D700000E00126207800070ED53868616B20F43A
:103D8000400008433860606BB0F5800F01D010B17F
:103D900002E0012500E001262078800663D5DF4897
:103DA0004FF0000A4C38016841F080510160006812
:103DB000DFF86C9300F080500090D9F8001041F4C7
:103DC0008071C9F80010FFF7D5FE804605E0FFF7C7
:103DD000D1FEA0EB0800022876D8D9F80000C00573
:103DE000F5D5DFF83893A9F11C09D9F8000010F4D3
:103DF000407024D0B4F8401001F4407181421ED0CC
:103E0000D9F80010C74A012321F440711360C2F8A9
:103E100000A0C9F80010D9F80000C0070FD0FFF7C4
:103E2000A9FE804641F2883A05E0FFF7A3FEA0EB29
:103E300008015145D0D8D9F800008007F5D5206C8D
:103E4000B649C0F301228439032A35D0086820F42A
:103E5000F8100860D9F80010B4F84020C2F30B0243
:103E60001143C9F800102078C00604D5AE4994F873
:103E70005800C1F8E00120780106AC4805D501687A
:103E8000E26C21F44001114301602178490605D517
:103E90000168A26C21F08061114301602188C9058D
:103EA00014D50168626D21F0006111430160616DFC
:103EB000B1F1006F09D009E00A689D4B22F4F812B5
:103EC000184002430A60C5E7C8E101262188890538
:103ED00005D50168626C21F0805111430160218891
:103EE0004FF4403949054FF0706A47F6C07B09D559
:103EF0000168226D21F0005111430160206DB0F185
:103F0000005F04D01DB92068B0F5006F7ED18949EB
:103F100000208866FFF72EFE054604E0FFF72AFE24
:103F2000401B022886D87D488C3800680001F5D4F3
:103F300020684FF0E04EC10701D0A16B19B1800796
:103F400036D5E06BA0BB75480838016899FAA9F22C
:103F500001F44031B2FA82F2D140491C4A000168B2
:103F60009AFAAAF301F07061B3FA83F3D940D4E965
:103F700001359BFAABFCBCFA8CFC05FA0CF52B4323
:103F80004FF0FF3505EB520299FAA9F5B5FA85F520
:103F9000AA409AFAAAF5B5FA85F5A9400A4313434F
:103FA0009EFAAEF26169B2FA82F291400B4303606D
:103FB0002068410703D5216BB1F5801F05D00007AC
:103FC00046D5606BB0F5800F42D15448083801687F
:103FD00099FAA9F201F44031B2FA82F2D140491CB7
:103FE0004A0001689EFAAEF301F0E041B3FA83F3B0
:103FF000D940D4E9013C9BFAABF8B8FA88F80CFA3E
:1040000008FC43EA0C034FF0FF3C00E0ACE00CEB93
:10401000520299FAA9FCBCFA8CFC02FA0CF29AFA48
:10402000AAF8D4F810C0B8FA88F80CFA08FC42EAEA
:104030000C0213439EFAAEF2B2FA82F291400B43A5
:1040400003603868A16A20F01F00491E08433860E9
:10405000208840053FD5206DB0F1005F3BD12F484F
:104060000838016899FAA9F201F44031B2FA82F2F3
:10407000D140491C4FEA410801689EFAAEF201F0B6
:10408000E041B2FA82F2D140D4E901239BFAABFCC1
:10409000BCFA8CFC03FA0CF31A43D4F80CC04FF0B2
:1040A000FF3303EB5C0C99FAA9F3B3FA83F30CFA30
:1040B00003FC43469AFAAAF8B8FA88F803FA08F318
:1040C0004CEA030C9EFAAEF3B3FA83F342EA0C0215
:1040D00099400A4302602088000531D5D4E90102E5
:1040E0009BFAABF1B1FA81F18A401043E2684FF0DC
:1040F000FF3101EB520199FAA9F2B2FA82F2914032
:104100009AFAAAF32269B3FA83F39A401143084357
:104110009EFAAEF2B2FA82F261690DE08C3802408A
:1041200000700040400E4742001047429438024061
:10413000FFFCFF0F000047429140084352490860CE
:10414000524901208866FFF715FDDFF83C810546DE
:10415000A8F1840804E0FFF70DFD401B02287DD87C
:10416000D8F800000001F6D5F6B3DFF82081002171
:10417000C8F87010FFF7FEFC434D0646843D04E08E
:10418000FFF7F8FC801B022875D82868C043800020
:10419000F6D520683E49420701D5226B1AB10007C7
:1041A00032D5606B80BB086899FAA9F200F4403000
:1041B000B2FA82F2D040D4E90626401C9BFAABFC4E
:1041C0004000BCFA8CFC06FA0CF632434FF0FF3686
:1041D00006EB500099FAA9F3B3FA83F39AFAAAF618
:1041E0009840B6FA86F600E04CE0636AB3401843A4
:1041F00002430A603868E26A6FF0FF0320F4F85067
:1042000003EB0222104338602088C00525D5606D7D
:10421000B0F1006F21D108689AFAAAF200F070603C
:10422000B2FA82F2D040D4E906239BFAABF7B7FA90
:1042300087F7BB401A43246A4FF0FF3303EB540364
:1042400099FAA9F4B4FA84F4A3409AFAAAF4B4FA55
:1042500084F4A04003431A430A6000E00BE001200D
:10426000C8F87000FFF786FC044607E0FFF782FC01
:10427000001B022802D90320BDE8F88F2868C0433C
:104280008000F3D40020F7E7843802400000474262
:10429000883802402DE9F047DFF85C9104460E466D
:1042A000D9F8000000F00F01F0B28046B14207D209
:1042B00089F80000D9F8000000F00F00B04271D179
:1042C00020784E4F800705D53868A16820F0F000AF
:1042D000084338602078C00756D0484960680839DC
:1042E00001281AD002281BD0032819D00968890791
:1042F000002957DA396821F0030101433960FFF7DB
:1043000039FC0546606841F28831012811D0022845
:104310001CD003288A4625D032E009688903E7E7E4
:1043200009688901E4E7FFF725FC411B514501D9E4
:1043300023E08A463868C0F381000128F3D123E0E6
:10434000FFF718FC411B514501D916E08A46386831
:10435000C0F381000228F3D116E0FFF70BFC411BEC
:1043600051450AD83868C0F381000328F5D10BE025
:10437000FFF700FC411B514502D90320BDE8F0873F
:10438000386810F00C0FF3D1D9F80010484601F04E
:104390000F01B14208D980F80080006800F00F00DA
:1043A000B04201D00120E9E72078400705D5386800
:1043B000E16820F4E050084338602078000706D513
:1043C0003868216920F4604040EAC100386000F09C
:1043D0006BF83968F02292FAA2F201F0F001B2FA19
:1043E00082F2D140064A515CC840064908600F205D
:1043F000FFF7E6FB0020C1E7003C0240083802401E
:1044000054EB00087C0200200F2202600C4A136863
:1044100003F003034360136803F0F0038360136841
:1044200003F4E053C36012684FF4E05303EAD2028E
:1044300002610448006800F00F0008607047000047
:1044400008380240003C02400848094900680968F1
:104450004FF4E05292FAA2F201F4E051B2FA82F281
:10446000D140044A515CC840704700007C020020E3
:104470000838024064EB00080848094900680968E8
:104480004FF4604292FAA2F201F46041B2FA82F271
:10449000D140044A515CC840704700007C020020B3
:1044A0000838024064EB000830B52948006810F075
:1044B0000C01284814D04410042910D0244B47F68E
:1044C000C0721B1F08290CD00C2909D119681D685E
:1044D00001F03F016D0224D5B4FBF1F023E020464A
:1044E00030BD19681D6801F03F016D0202D5B4FBB3
:1044F000F1F001E0B0FBF1F01968114092FAA2F27C
:10450000B2FA82F2D140484319684FF4403292FA2D
:10451000A2F201F44031B2FA82F2D140491C4900C2
:1045200013E0B0FBF1F01968114092FAA2F2B2FA6E
:1045300082F2D140484319684FF0E04292FAA2F269
:1045400001F0E041B2FA82F2D140B0FBF1F030BDAF
:10455000083802400024F4002DE9F84F0446DFF843
:1045600030B30078ABF10406C007A6F104054FD0C4
:10457000DBF800105846C1F3810101290FD0016812
:10458000C1F38101022902D13168490207D40068D0
:10459000C0F38100032809D13068400206D528689D
:1045A000800335D56068002875D031E06068B0F5CB
:1045B000803F10D0B0F5A02F286810D020F48030B4
:1045C0002860286820F4802028606068A0B1FFF788
:1045D000D1FA07460CE0286840F48030F4E740F454
:1045E00080202860F7E7FFF7C5FAC01B642871D860
:1045F00028688003F7D50BE0FFF7BCFA074604E014
:10460000FFF7B8FAC01B6428F1D828688003F7D4F4
:104610002078DFF8809280074FF0000A4AD5DBF857
:104620000010584611F00C0F4FF0F8080FD0016839
:10463000C1F38101022902D13168490207D500681E
:10464000C0F38100032809D13068400206D42868ED
:10465000800714D5E06801281DD110E0E068D8B1CA
:104660000120C9F80000FFF785FA074604E0FFF7CC
:1046700081FAC01B0228BAD828688007F7D52868B5
:1046800098FAA8F22169B2FA82F220F0F80091407B
:10469000084328600EE0F9E0C9F800A0FFF76AFAC5
:1046A000074604E0FFF766FAC01B022812D8286804
:1046B0008007F7D42078000726D5DFF8D481764824
:1046C000616908F16C0881B101210160FFF752FABC
:1046D000074605E082E0FFF74DFAC01B02287DD8AF
:1046E000D8F800008007F6D50EE0C0F800A0FFF76C
:1046F00041FA074604E0FFF73DFAC01B02286DD8D7
:10470000D8F800008007F6D42078400756D56048D6
:104710003830016841F0805101600068DFF87C8129
:1047200000F080500090D8F8001041F48071C8F873
:104730000010FFF71FFA074604E0FFF71BFAC01B43
:1047400002284BD8D8F80000C005F6D5504FA06815
:10475000683701280FD00528386810D020F00100F4
:104760003860386820F004003860A068B8B1FFF7FE
:1047700001FA80460FE0386840F00100F4E740F0AD
:1047800004003860F7E7FFF7F5F9A0EB080141F204
:104790008830814272D838688007F4D50EE0FFF780
:1047A000E9F9804607E0FFF7E5F9A0EB080141F2DF
:1047B0008830814262D838688007F4D4A069E8B3B1
:1047C000DBF80010C1F3810102295FD00228C9F88B
:1047D00060A004D0FFF7CEF9044652E04EE0FFF7A8
:1047E000C9F9074604E0FFF7C5F9C01B022845D800
:1047F00028688001F7D4D4E90710014347F6C07058
:1048000090FAA0F0626AB0FA80F08240A06A4FF09D
:10481000FF3303EB50004FF4403393FAA3F3B3FAA2
:1048200083F39840024311434FF0706292FAA2F270
:10483000E06AB2FA82F29040014300E024E04FF0D7
:10484000E04292FAA2F2206BB2FA82F29040014367
:1048500031600120C9F86000FFF78CF9044604E0DC
:10486000FFF788F9001B022808D828688001F7D5CF
:104870000AE0FFF77FF9001B022802D90320BDE8F8
:10488000F88F28688001F4D40020F8E70120F6E7CB
:104890000838024000004742800E47420070004046
:1048A0007047000038B504460068426881684B06CE
:1048B00005D4CB0703D0530601D5216C04E08B0748
:1048C00007D5130605D5616C01B02046BDE8304020
:1048D000084711F4B07F48D0930646D54B060AD559
:1048E00094F85130032B3DD0636D43F004036365AE
:1048F000C368836800938B0609D5636D43F0010399
:10490000636583680093036823F040030360C80570
:1049100006D5606D40F008006065206880680090F2
:10492000606D002821D02068416821F0E0014160DD
:10493000012084F85100900718D02068416821F0C8
:10494000030141600B4DE06C18B10565E06CFFF7A9
:10495000FEF8A06C002808D00565A06CBDE83840C2
:10496000FFF7F5B8C1688068009038BD2046FFF7B2
:1049700097FF38BDD154000870B5040004D094F8F6
:104980005100002510B106E0012070BD84F85050A0
:10499000204600F037F8022084F8510020680168B2
:1049A00021F040010160D4E901010843D4E9031278
:1049B0001143084361690843218B01F400710843E6
:1049C000E1690843216A0843A16A08432168086035
:1049D000A069042101EA1040616A08432168486027
:1049E000A06AB0F5005F02D12168E06A0861206822
:1049F000C16921F40061C1616565012084F851003D
:104A0000002070BD70470000F0B4002385680426C4
:104A10001DB94468B4F5827F0DD090F85040012C48
:104A200010D0012480F8504090F851700024012FDC
:104A30000BD0022341E080F85160F0BC13460A46D7
:104A400000F00CB90220F0BC704771B16AB180F877
:104A50005160446581638287C28704638486C4860B
:104A60004464C16819B1174902E0012325E01649E1
:104A70000164B5F5004F04D101680A6822F4804250
:104A80000A60816AB1F5005F0AD101680A684DF6D3
:104A9000FF752A400A6001680A6842F400520A6001
:104AA00001684A6842F060024A6001680A6852067A
:104AB00003D40A6842F040020A6080F85040184669
:104AC000C1E70000E15400084D55000870472DE98A
:104AD000F84F044690F8500000271E4691460D46B8
:104AE00001280DD04FF0010B84F850B0FFF742F8C9
:104AF000804694F85100BA46012804D00227A7E066
:104B00000220BDE8F88F002D72D0B9F1000F6FD0F0
:104B1000032084F85100C4F854A02563A4F834900D
:104B2000A4F83690C4F838A0A4F83CA0A4F83EA09D
:104B3000C4F844A0C4F840A0A068B0F5004F04D168
:104B40002068016841F480410160A06A4FF4005977
:104B500048450AD1206801684DF6FF721140016096
:104B60002068016841F4005101602068016849062D
:104B700003D4016841F040010160E068B0F5006FC6
:104B8000606804D020B3E08E012821D03AE010B153
:104B9000E08E012818D1216835F8020BC86006E0C4
:104BA00020688168890706D535F8021BC160E08E50
:104BB000401EE08608E076B3701C05D0FEF7DAFFF1
:104BC000A0EB0800B04226D2E08E0028E8D11CE01D
:104BD000216815F8010B087306E0206881688907D1
:104BE00007D515F8011B0173E08E401EE08609E031
:104BF0002DE086B1701C05D0FEF7BCFFA0EB0800CD
:104C0000B04208D2E08E0028E7D142463146204625
:104C100000F04EFD08B103271AE042463146204617
:104C200000F07BFB18B101272020606510E0A06830
:104C300018B92068C16880680090A06A484504D10E
:104C40002068016841F480510160606D00B1012766
:104C500084F851B084F850A0384652E7F0B590F887
:104C600050500024012D0CD0012580F8505090F8B0
:104C7000515000264768012D0BD0B7F5827F06D131
:104C800001E00220F0BD87680FB9042D01D0022495
:104C900039E031B12AB123B190F85150012D02D041
:104CA00004E001242FE0052580F85150466501639A
:104CB0008386C38682638387C387C16819B1144919
:104CC0000164144902E01449016414494164816A91
:104CD000B1F5005F0AD101680A684DF6FF731A400A
:104CE0000A6001680A6842F400520A6001684A6872
:104CF00042F0E0024A6001680A68520603D40A687A
:104D000042F040020A6080F850602046F0BD00008A
:104D1000B9510008895200081D520008D3520008FA
:104D200030B590F850400023012C0BD0012480F8BE
:104D30005040002441B13AB190F85150012D05D0B6
:104D400002233CE0022030BD012338E0032580F837
:104D50005150446501638286C28684638487C48718
:104D60000464C16809B1194900E0194941648168C6
:104D7000B1F5004F04D101680A6842F480420A602C
:104D8000816AB1F5005F0AD101680A684DF6FF75C6
:104D90002A400A6001680A6842F400520A60816889
:104DA000002901684A680ED042F0A0024A600168FA
:104DB0000A68520603D40A6842F040020A6080F88A
:104DC0005040184630BD42F08002EFE7AF55000872
:104DD000EB5500087047704710B504460068042280
:104DE00000F0F9FE2068416C41F400414164206804
:104DF000016841F001010160002010BD10B5040000
:104E000003D094F8390010B107E0012010BD002054
:104E100084F83800204600F00CF8022084F83900AD
:104E2000211D206800F06CFE012084F8390000206C
:104E300010BD704710B504460068012200F0C0FEA6
:104E400008482168814202D00748814203D1486C5A
:104E500040F4004048642068016841F001010160AD
:104E6000002010BD000001400004014070B5044660
:104E700090F838000D4601280DD0012684F83860DE
:104E8000022084F8390042B1042A18D0082A2AD016
:104E90000C2A4DD139E0022070BD206800F0A6FE3A
:104EA0002068816941F0080181612068816921F0F1
:104EB00004018161206881692A69114311E0206839
:104EC00000F0C0FE2068816941F4006181612068C2
:104ED000816921F480618161206881692A6941EAE0
:104EE0000221816124E0206800F0DEFE2068C169B3
:104EF00041F00801C1612068C16921F00401C1616C
:104F00002068C1692A69114311E0206800F0FCFEA5
:104F10002068C16941F40061C1612068C16921F460
:104F20008061C1612068C1692A6941EA0221C161C9
:104F300084F83960002084F8380070BD10B5040092
:104F400003D094F8390010B107E0012010BD002013
:104F500084F83800204600F00CF8022084F839006C
:104F6000211D206800F0CCFD012084F839000020CC
:104F700010BD704710B504460068012200F020FE05
:104F800008482168814202D00748814203D1486C19
:104F900040F4004048642068016841F0010101606C
:104FA000002010BD000001400004014008B5006869
:104FB0000168C943C9070BD00168C943890707D5F0
:104FC0000168C943490703D50168C943090701D4EA
:104FD0004068009008BD000070B502680446106883
:104FE000D168536910F00F0F50D003F0010501F4A0
:104FF000907635435DD0C20705D0CA0503D5E26B74
:1050000042F00102E263420705D5DA0703D0E26B02
:1050100042F00202E263820705D5DA0703D0E26BB1
:1050200042F00402E263020705D5DA0703D0E26B1F
:1050300042F00802E263E26B002A33D0800604D516
:10504000880602D5204600F09DFE20684069E16B8D
:10505000C0F38010090700D428B3204600F084FE76
:105060002068416949061AD5416921F04001416132
:10507000606BA0B11B490165606BFEF768FD0028FD
:1050800010D0606B016DBDE870400847830610D5F5
:105090008B060ED52046BDE8704000F073BE20465A
:1050A000FFF784FF70BD2046FFF780FF0020E0631C
:1050B00070BD030606D50B0604D52046BDE870403A
:1050C00000F0FCBF4006F3D54806F1D5D168204674
:1050D00021F04001D160202184F8391000F037F828
:1050E00070BD0000595D000870B5040004D094F84C
:1050F0003900002510B106E0012070BD84F8385059
:10510000204600F022F8242084F839002068C16885
:1051100021F40051C160204600F07AFE2068016948
:1051200021F4904101612068416921F02A01416127
:105130002068C16841F40051C160E563202084F813
:10514000390084F83A00002070BD7047704700684D
:105150000168C943490602D46FF0400101607047FD
:1051600030B5036891FAA1F4B4FA84F4650003241D
:10517000AC4091FAA1F1B1FA81F14900A3438A4010
:105180001343036030BD43688B4351430B4343607B
:10519000704730B5C36891FAA1F4B4FA84F465009D
:1051A0000324AC4091FAA1F1B1FA81F14900A34383
:1051B0008A401343C36030BD0168C968826B1180A7
:1051C000816B891C8163C18F491EC187C18F0029F2
:1051D0000FD1816AB1F5005F09D001684A6822F0F9
:1051E00040024A60C18E002903D100F0A7B80149EE
:1051F00001647047F951000882B00021ADF8001039
:105200000168CA68ADF80020BDF800204A6822F0A5
:1052100040024A6002B000F091B8000001680B7BC8
:10522000816B4A1C82630B70C18F491EC187C18F7D
:1052300000290FD1816AB1F5005F09D001684A6881
:1052400022F060024A60C18E002903D100F076B8D6
:1052500001490164704700005D52000882B00021DE
:105260008DF8001001680A7B8DF800209DF8002061
:105270004A6822F060024A60C18E002902D102B061
:1052800000F05CB802B07047016B02680988D16019
:10529000016B891C0163C18E491EC186C18E002924
:1052A00016D1816AB1F5005F016808D04A6822F022
:1052B00080024A60C18F00290AD100F03FB80A6815
:1052C00042F480520A600068416821F08001416028
:1052D0007047016B4A1C0263026809781173C18E22
:1052E000491EC186C18E002916D1816AB1F5005FC1
:1052F000016808D04A6822F080024A60C18F002904
:105300000AD100F01BB80A6842F480520A600068B3
:10531000416821F080014160704738B50B4600922A
:1053200004460022802100F07DF9002804D0606D41
:1053300040F020006065032038BD000038B5044609
:10534000294845F6C0510068B0FBF1F0642148439C
:105350000090FEF70FFC02462068416821F0200112
:1053600041600098411E009104D2606D40F0200021
:10537000606503E0206880688007F2D564212046DC
:10538000FFF7CBFF18B1606D40F020006065A068AA
:1053900018B92068C1688068009020688168C94396
:1053A000CA064FF0010109D484F85110616D41F033
:1053B000020161654FF6EF71816003E0606D28B115
:1053C00084F851102046FFF76BFA38BD94F851006D
:1053D00084F851100428204602D0FFF7FCFC38BDA9
:1053E000FFF774FB38BD00007C02002008B501689F
:1053F0004A6822F060024A604168B1F5827F0BD1B1
:105400008168B1F5004F02D0B1F5806F04D1016819
:105410000A6822F040020A60816819B90168CA6806
:1054200089680091012180F8511001688A68D2438F
:10543000D20607D4426D42F0020242654FF6EF7287
:105440008A6001E0416D11B1FFF72AFA08BDFFF74C
:105450003DFB08BD38B504461C4845F6C051006800
:10546000B0FBF1F0642148430090FEF783FB216814
:1054700002460098431E009304D2606D40F0200065
:10548000606502E088688007F3D5486820F0A000D6
:10549000486064212046FFF740FF18B1606D40F07E
:1054A00020006065A06818B92068C1688068009015
:1054B000012084F85100606D0028204602D0FFF7DB
:1054C000EFF938BDFFF786FC38BD00007C020020F4
:1054D00010B5806B0021C187C186FFF7E1F910BDCF
:1054E0000168C968826B1180816B891C8163C18FDF
:1054F000491EC187C18F4FF40053012907D1816A2A
:10550000994204D101680A6842F480520A60C18F4E
:10551000002904D1816A994202D10249016470478D
:10552000FFF764BF2955000882B00021ADF80010D4
:105530000168CA68ADF80020BDF800204A6822F072
:1055400060024A6002B0FFF751BF000001680B7BA8
:10555000816B4A1C82630B70C18F491EC187C18F4A
:105560004FF40053012907D1816A994204D101689F
:105570000A6842F480520A60C18F002904D1816A0E
:10558000994202D1024901647047FFF72FBF000022
:105590009555000882B000218DF800100168097B44
:1055A0008DF800109DF8001002B0FFF71FBF016BCF
:1055B00002680988D160016B891C0163C18E491E94
:1055C000C186C18E00290FD1816AB1F5005F04D177
:1055D00001680A6842F480520A6001684A6822F051
:1055E00080024A60FFF736BF7047016B4A1C0263B6
:1055F000026809781173C18E491EC186C18E0029C7
:105600000FD1816AB1F5005F04D101680A6842F4E4
:1056100080520A6001684A6822F080024A60FFF7FF
:1056200019BF70472DE9F0411D4616460F46044646
:10563000DDF8188035E0681C33D02DB1FEF79AFAFA
:10564000A0EB0800A8422CD32068416821F0E001BB
:1056500041606068B0F5827F0BD1A068B0F5004F63
:1056600002D0B0F5806F04D12068016821F04001BC
:105670000160A06AB0F5005F0AD1206801684DF6AC
:10568000FF72114001602068016841F4005101601F
:10569000012084F85100002084F850000320BDE868
:1056A000F081206880683840B042C4D10020F6E71D
:1056B00070B516460D46044633E0681C31D025B15E
:1056C000FEF758FA801BA8422BD32068416821F0CE
:1056D000E00141606068B0F5827F0BD1A068B0F551
:1056E000004F02D0B0F5806F04D12068016821F02E
:1056F00040010160A06AB0F5005F0AD1206801682E
:105700004DF6FF72114001602068016841F40051BC
:105710000160012084F85100002084F8500003202B
:1057200070BD206880688007C7D5002070BD10B5A7
:10573000002000F005F8002800D1FEE710BD0000B1
:1057400070B52949AAB000250A6842F080520A6063
:10575000096801F08051299124490A6842F44042C5
:105760000A60096801F44041299101210091A0B12A
:105770004FF4A020022401906005CDE906400826E0
:1057800008964FF4B470CDE909040720CDE90B0465
:105790006846FEF7E1FE10BB02E04FF48030E9E717
:1057A000FEF774FAD8B94FF4C070CDE913604FF426
:1057B00080700D90C004229015960DA8FEF7AAFAED
:1057C00024A90F2081E831004FF4A05027904FF416
:1057D00080502890052124A8FEF75CFD10B1002020
:1057E0002AB070BD0120FBE7403802400070004045
:1057F00038B5014600242B4808294ED2DFE801F0D5
:10580000040D172029323B44274C016841F0010167
:105810000160006800F0010007E0244C016841F0DD
:1058200002010160006800F00200009038E0204CA6
:10583000016841F004010160006800F00400F4E731
:105840001C4C016841F008010160006800F008008C
:10585000EBE7194C016841F010010160006800F0AD
:105860001000E2E7154C016841F02001016000687A
:1058700000F02000D9E7124C016841F040010160BE
:10588000006800F04000D0E70E4C016841F0800154
:105890000160006800F08000C7E70BA005F0FEFB88
:1058A000204638BD3038024000000240000402406B
:1058B00000080240000C02400010024000140240A8
:1058C00000180240001C024050696E6D6170206536
:1058D00072726F723A2077726F6E6720706F727497
:1058E000206E756D6265722E0000000070B5194D56
:1058F0002868194B194910F00C0004D05E100428D8
:1059000003D0082803D00B601BE00E6019E0114A99
:10591000121F1068C0F38054106800F03F0014B1EB
:10592000B6FBF0F001E0B3FBF0F013681268C3F3CC
:1059300088135843C2F30142521C5200B0FBF2F0EC
:1059400008602868064AC0F30310105C0A68C24069
:105950000A6070BD083802400024F4007C02002078
:1059600054EB00081048016841F4700101600F48D1
:10597000016841F0010101600C4A00210832116008
:1059800002680B4B1A400260031D0A4A1A60026843
:1059900022F48022026005480C300160024958065A
:1059A000803908607047000088ED00E00038024050
:1059B000FFFFF6FE103000242DE9F041454E30691E
:1059C0004FF00007C00747D0434DA86840F0804023
:1059D000A8609FED420A424802F0E2FCD5F84C0173
:1059E000404C6060E86C2060D5F84C02A0603C48F8
:1059F00002F0BFFC84ED080A394802F0C0FC84EDD7
:105A0000070A374802F0BEFC84ED090A344802F068
:105A1000B3FC84ED0A0A94ED060ADFED330A9FED2C
:105A2000331A344D20EE200AD4ED020AF8EEE00AD3
:105A300060EE810A9FED2E1A00EE810A84ED060ABF
:105A4000A868062843D2DFE800F003080D423B4077
:105A5000E86808B101F098F839E0E86878B302F036
:105A600039FA34E0E86818B101F0DEFB6F602EE02F
:105A70002148D4F89810C06881420DDD00280BDD64
:105A80009FED1E0A84ED210A84ED220A84ED2B0A83
:105A900084ED2C0A84ED2D0A124801F03BF8114ADE
:105AA00094ED080A143A02F537710E48203402F0DA
:105AB00065FAA06F401CA0676868401C686006E03B
:105AC000E86820B101F06CFA01E000F0ADFF376149
:105AD000BDE8F081000001400020014017B7D13738
:105AE000800D0020B00700203333733FCDCC4C3DF8
:105AF0000C514F3C080200209003002000000000E1
:105B0000F0B50268234D244E244FDFF894C0254B96
:105B10004FF0804EA84209D0704507D0B04205D062
:105B2000B84203D0604501D0984203D122F07004FE
:105B30004A682243A8421BD0704519D0B04217D002
:105B4000B84215D0604513D0984211D0164CA042EF
:105B50000ED0164CA0420BD0154CA04208D0154CCC
:105B6000A04205D0144CA04202D0144CA04203D154
:105B700022F44074CA68224302608A68C2620A68DA
:105B80008262A84201D0984201D1096901630121D2
:105B90004161F0BD000001400004004000080040E9
:105BA000000C00400004014000400140004401405E
:105BB0000048014000180040001C00400020004048
:105BC00010B50123046A8B409C430462036A8A4037
:105BD0001343036210BD10B50423046A8B409C4339
:105BE0000462036A8A401343036210BD30B5026A3F
:105BF00022F001020262056A426883690C6823F0A0
:105C000073031C438B6825F002052B430B4DA84200
:105C100002D00B4DA8420BD123F00805CB6822F42B
:105C200040722B434D6923F0040315438A692A43CC
:105C30004260846149684163036230BD00000140F5
:105C40000004014030B5026A22F010020262036AC9
:105C5000426884690D6824F4E64444EA05248D68AA
:105C600023F0200343EA05130D4DA84202D00D4D49
:105C7000A8420ED1CD6823F0800343EA05134D6995
:105C800022F4406242EA85028D6923F0400342EA31
:105C900085024260846149688163036230BD00000F
:105CA000000001400004014030B5026A22F4807215
:105CB0000262036A4268C46923F4007324F0730526
:105CC0000C682C438D6843EA05230D4DA84202D091
:105CD0000C4DA8420ED1CD6823F4006343EA05239E
:105CE0004D6922F4405242EA05128D6923F4806323
:105CF00042EA05124260C4614968C163036230BD73
:105D0000000001400004014030B5026A22F48052D4
:105D10000262036A4268C4690D6824F4E64444EAF6
:105D200005248D6823F4005343EA0533084DA84247
:105D300002D0084DA84204D14D6922F4804242EAC3
:105D400085124260C46149680164036230BD00008D
:105D5000000001400004014010B5806B0021C185A6
:105D6000C184FFF723F910BD0168CA6822F490725C
:105D7000CA6001684A6922F001024A61202180F864
:105D80003A10704710B590F83A10222901D002203D
:105D900010BD8168B1F5805F11D0016900290168EB
:105DA0001FD0496801F07F03816A4A1C82620B7030
:105DB000C18D491E0904090CC18518D026E002696D
:105DC000816A002A0268526805D0D2B20A80816ACC
:105DD000491C8162ECE7C2F308020A80816A891CCF
:105DE000F7E74A68816A4B1C83620A70E0E7016842
:105DF000CA6822F49072CA6001684A6922F00102FE
:105E00004A61202180F83A10FFF7A0F9002010BD68
:105E10002DE9F04104460068016921F44052E1682F
:105E2000114301612068C16849F20C629143236902
:105E3000A268E5691A4363692B431A430A43C260A7
:105E400020684169A26921F440710A434261E06916
:105E50006425B0F5004F974A974920684FF0320803
:105E60003FD0884201D090427CD1FEF705FB00EB89
:105E7000C00101EB001061688900B0FBF1F6FEF78C
:105E8000FBFA00EBC00101EB001061688900B0FB78
:105E9000F1F0B0FBF5F06FF01801484306EB80011C
:105EA00008EB0110B0FBF5F000F0F006FEF7E4FAA5
:105EB00000EBC00101EB001061688900B0FBF1F05C
:105EC000B0FBF5F006EB0016FEF7D6FA00EBC001CA
:105ED00001EB001061688900B0FBF1F7FEF7CCFA26
:105EE000D2E0884201D090423DD1FEF7C5FA00EBE6
:105EF000C00101EB001061684900B0FBF1F0B0FB9C
:105F0000F5F00601FEF7B8FA00EBC00101EB001056
:105F100061684900B0FBF1F7FEF7AEFA00EBC00193
:105F200001EB001061684900B0FBF1F0B0FBF5F047
:105F30006FF01801484307EB800108EBC100B0FB8C
:105F4000F5F000F0F80006EB4006FEF795FA00EBDE
:105F5000C00101EB001061684900B0FBF1F7FEF7EA
:105F60008BFA3CE055E0FEF76FFA00EBC00101EB65
:105F7000001061684900B0FBF1F0B0FBF5F00601DC
:105F8000FEF762FA00EBC00101EB00106168490006
:105F9000B0FBF1F7FEF758FA00EBC00101EB00107F
:105FA00061684900B0FBF1F0B0FBF5F06FF018014B
:105FB000484307EB800108EBC100B0FBF5F000F0AF
:105FC000F80006EB4006FEF73FFA00EBC00101EBDC
:105FD000001061684900B0FBF1F7FEF735FA00EBFD
:105FE000C00101EB001061684900B0FBF1F0B0FBAB
:105FF000F5F06FF01801484307EB800108EBC10092
:10600000B0FBF5F000F00700216830448860BDE87F
:10601000F081FEF719FA00EBC00101EB0010616896
:106020008900B0FBF1F6FEF70FFA00EBC00101EBBF
:10603000001061688900B0FBF1F0B0FBF5F06FF083
:106040001801484306EB800108EB0110B0FBF5F0A6
:1060500000F0F006FEF7F8F900EBC00101EB0010CC
:1060600061688900B0FBF1F0B0FBF5F006EB0016BB
:10607000FEF7EAF900EBC00101EB0010616889004E
:10608000B0FBF1F7FEF7E0F900EBC00101EB001007
:1060900061688900B0FBF1F0B0FBF5F06FF018011A
:1060A000484307EB800108EB0110B0FBF5F000F06E
:1060B0000F00A9E7001401400010014090F83910CA
:1060C000212901D0022070478168B1F5805F016A03
:1060D0000BD04A1C0262026809785160C18C491ECB
:1060E0000904090CC1840ED017E009880268C1F3C5
:1060F0000801516001690029016A02D0491C01624E
:10610000ECE7891CFBE70168CA6822F08002CA60DC
:106110000068C16841F04001C160002070472A2931
:106120001ED2DFE801F01517191B1D1515151517DF
:10613000191B1D1D1D1517191D1715171517191BCF
:10614000191D1D1517191D1D1D1D1D1D1517191BA9
:1061500034307047383070473C30704740307047BB
:106160000020704770B50C462DED028BB0EE408AD2
:1061700090ED000A054660EE000A91ED000A40EE3F
:10618000000AB0EE600A04F011F8B4EEC80AF1EEAD
:1061900010FA0FDDD5ED000A60EE880A80EE801A55
:1061A00085ED001AD4ED000A60EE880A80EE801AB0
:1061B00084ED001ABDEC028B70BD00002DE9F041AA
:1061C00004462DED048BB0EE418AF0EE609A82B069
:1061D000F0EE428AB0EE619A14209FED301ADFEDA6
:1061E000300A00F001FB074614209FED2E1ADFED68
:1061F0002E0AB0EE690A00F0F7FA804610209FEDF3
:106200002B1ADFED2B0AB0EE480A00F0EDFA9FEDF5
:10621000298A06460720B0EE481AFBEE040AB0EEC3
:10622000490A00F0E1FA05460720B0EE481AFBEEF5
:10623000040AB0EE680A00F0D7FA0346009867F344
:1062400013000090DDF801101B4868F31F31CDF8F2
:106250000110ADF8056002789DF8071062F30001A7
:106260008DF807109AB163F347018DF807100021EC
:1062700001701248406840F010002060DDE9000124
:10628000C4E9010102B0BDEC048BBDE8F08165F307
:1062900047018DF807100121EAE700000000FA43EA
:1062A0000000FAC300803B4400803BC4000016435A
:1062B000000016C300004843C401002090030020E2
:1062C00070B50E462DED028B88B215461021DFED1C
:1062D0001B0A9FED1B0A069C00F0EEFB84ED290AC9
:1062E000300C1021DFED170A9FED170A00F0E4FBD8
:1062F0009FED178A84ED2A0AE8B20821DFED130A20
:10630000B0EE480A00F0D8FB84ED2B0AC5F3072055
:106310000821DFED100AB0EE480A00F0CDFB84ED55
:106320002C0A280C1021DFED0C0A9FED0C0A00F05E
:10633000C3FB84ED2D0ABDEC028B70BD00007A43D7
:1063400000007AC30000C8430000C8C300007A44BC
:10635000000000000000484200001643000016C381
:1063600010B5044601F072F901F01AF91C2003F08F
:106370002DF910B1252102F080F9606010BD0000F8
:10638000084810B5006800280BD1032202210648F6
:1063900005F0AAFEBDE810404FF41651024805F082
:1063A0008DBE10BD6402002004150020024A52F880
:1063B000200050F821007047C80100202DE9F04F5F
:1063C0002DED088B07468BB01546ADA0FAF744F8C3
:1063D0009FEDB38ADFEDB3AA8DED048AB0EE48AA33
:1063E000B6EE000A8DED070A002404AA05A906A846
:1063F000B0EE4A1AF0EE6A0AB0EE480A00F0A6FFC4
:1064000007AA09A908A8DDED041A9DED051ADDED1E
:10641000060AB7EE000A01F027F8002644F62069C4
:10642000F7EE008A9FEDA09A9DED080A9F4838EE8E
:10643000C00A20EE090ABCEEC00A10EE101AC163B1
:106440009DED090A38EEC00A20EE090ABCEEC00A2A
:1064500010EE101A81639DED070A38EEC00A20EE97
:10646000090ABCEEC00A10EE101A4163642006F05F
:106470005AFC761C4E45D7DB38689FED8DBA016813
:10648000B0EE4B0A384688474FF47A7006F04BFC62
:10649000D5F880106868401A00EE100AF8EEC00ABD
:1064A0009FED840A20EE801A85ED041AE96F2868B2
:1064B000401A00EE900A05F13401081FF8EEE00AD8
:1064C00060EE801AB1EE410AC5ED051A70EE610A60
:1064D000C5ED030A95ED080A00F07CFF95ED0C0A66
:1064E000022003F043F8F0EE40BA95ED0D0A0220C9
:1064F00003F03CF83BEE800A03F03EF810EE106A21
:106500006DA0F9F7A9FF304607F080FA82468B4666
:10651000686B07F07BFA80468946286B07F076FAAD
:106520008DE8000F41EC100B66A053EC102BF9F72F
:1065300093FFDFF8A4816CE004AA05A906A8B0EED9
:106540004A1AF0EE6A0AB0EE480A00F0FFFE07AA07
:1065500009A908A8DDED041A9DED051ADDED060A6E
:10656000B7EE000A00F080FF642006F0DCFB9DED32
:10657000080A4E4838EEC00A20EE090ABCEEC00AEE
:1065800010EE101AC1639DED090A38EEC00A20EE24
:10659000090ABCEEC00A10EE101A81639DED070ACD
:1065A00038EEC00A20EE090ABCEEC00A10EE101A3E
:1065B00041633868B0EE4B0A01683846884738684E
:1065C000816838468847B5EEC08AF1EE10FA01D1ED
:1065D000F0EE409AC82C17DD002410EE100A07F0E8
:1065E00015FAF1EE0C0A054688EE200A0E4610EE6A
:1065F000100A07F00BFA41EC120BCDE9005653ECF0
:10660000122B36A0F9F728FF9FED380A641C38EEEC
:10661000008A18EE100A40458EDB386881683846DB
:10662000884770EE690AF5EEC00AF1EE10FA01DD56
:10663000012600E0002610EE100A07F0E7F90446F4
:106640000D4619EE900A07F0E1F941EC100B28A075
:1066500053EC102BCDE90045F9F7FEFE31462EA094
:10666000F9F7FAFE0EB131A000E035A0F9F7F4FE1B
:106670003F4806600BB0BDEC088BBDE8F08F000012
:106680000A0D20436865636B696E672070686173EB
:1066900065206F72646572696E670A0D0000000004
:1066A000000000009A99193E00A08C4400000140AF
:1066B00017B7D1370000A53C0A0D43757272656E9D
:1066C000740A0D0025660920202020256609202057
:1066D0002025660D0A000000DB0F4941252E346697
:1066E00009202020252E34660D0A00006F12833AFF
:1066F00054686574612053746172743A20202025B7
:106700006620202020546865746120456E643A201C
:106710002025660A0D000000446972656374696F84
:106720006E3A202025640A0D000000005068617355
:10673000696E6720636F72726563740A0D000000F2
:1067400050686173696E6720696E636F727265630A
:10675000742E20205377617070696E6720706861B5
:10676000736573205620616E6420570A0D00000087
:10677000900300202DE9F35F00262DED028B834668
:10678000DFF858A0164F9FED178A35464FF4806802
:10679000344640F26549CAF83C90CAF83890CAF8C5
:1067A0003490B86840F08040B860B0EE480A06F017
:1067B000A9FAD7F84C010544F86C641C064444451A
:1067C000E9DB96FBF8F1CBF8001095FBF8F10398A4
:1067D0000160BDEC028BBDE8FC9F000000000140A1
:1067E000002001406F12833A012131EE601A81408E
:1067F00070EE600A491E00EE101AB8EEC00A20EED4
:10680000800AC0EE010ABDEEE00A10EE100A7047E1
:106810002DE9F84F80490022A1F1E40002F017F9B8
:106820007D48A0F6BC02016852688E4691427DD137
:10683000A0F29C4A0021CAF898100479FF2C32D0AB
:10684000002741798946FF292FD0002183790F4005
:10685000FF2B2CD00021C6790F40FF2E29D000211C
:106860000F40017AFF2926D000221740427AFF2AE2
:1068700023D000252F40857AFF2D20D04FF0000C2B
:10688000C07A07EA0C07FC281CD04FF0000CDFF898
:106890008CB117EA0C0F18D00221CBF80810012197
:1068A000CBF80C109EE00127CBE70121CEE70121B8
:1068B000D1E70121D4E70122D7E70125DAE74FF03C
:1068C000010CDDE74FF0010CE1E7FF2E35D000278A
:1068D000FF2934D04FF0000C17FB0CF8FF2C31D0FF
:1068E000002708EA0708B9F1FF0F2DD00027FF2B7A
:1068F0002CD04FF0000C07EA0C0708EA0708FF2A23
:1069000027D0002708EA0708FF2D24D0002708EA2F
:106910000708FD2821D0002718EA070F1FD0002103
:10692000CBF808100121CBF80C1000E072E03C48D5
:106930000021406801F098FE54E00127C8E74FF0BD
:10694000010CC9E70127CCE70127D0E74FF0010C84
:10695000D1E70127D6E70127D9E70127DCE7FF2E9A
:1069600023D00026FF2922D0002116FB01F6FF2CA0
:106970001FD000210E40B9F1FF0F1CD00021FF2BCA
:106980001BD0002319400E40FF2A18D000210E40D2
:10699000FF2D16D000210E40FE2814D00020064204
:1069A00013D0204801F0C2FC1CE00126DAE70121E7
:1069B000DBE70121DEE70121E1E70123E2E7012135
:1069C000E5E70121E7E70120E9E7DBF80800022815
:1069D00008D11148CDF800A0001D90E80E007046C7
:1069E000FFF76EFC0C489AEDB12ADAEDB01A9AED79
:1069F0000E1ADAED090A9AED070A1030FFF7DEFBEE
:106A000005483C38816D4C30009190E80E00F43818
:106A100002F031F8BDE8F88F4C0C0020080200208D
:106A20009C070020800D0020FEB5114801F09EFC5F
:106A300006460F4801F09DFC10EE100A06F0E6FF36
:106A400004460D460A4801F09AFC10EE100A06F0C2
:106A5000DDFF41EC100B8DE8700053EC102B05A00E
:106A6000F9F7FAFCBDE8FE409FED120A06F04AB9BC
:106A7000800D0020204D656368616E6963616C2044
:106A8000416E676C653A2020256620202020456CE9
:106A9000656374726963616C20416E676C653A204E
:106AA000202566202020205261773A202025640A84
:106AB0000D0000006F12833A01EE100A70EEC00A5A
:106AC0000120B8EEC11A8840401E21EE201A00EEC7
:106AD000900AF8EEE01AC1EE210A30EE800A704703
:106AE000034A52F8200000EB810090ED000A704745
:106AF000C80100209FED040B80ED000B9FED040A00
:106B000080ED040A704700000000000000003940DA
:106B1000CDCCCC3D19499FED184A90ED073A496814
:106B2000D0ED292A90ED2B2AD0ED091A90ED2A1AE2
:106B3000D0ED2C0A90ED2D0A042902DBF2EE083A82
:106B400001E0DFED0F3AC3EE234A72EEE42A22EEB3
:106B5000822AC1EEA32A31EE621A00EE812A72EE79
:106B6000000A80EEA30ADFED070A20EE200A80ED7E
:106B7000220A80ED214A70470000000090030020A7
:106B8000000008428FC2554110B51D4C00212068FD
:106B900001F06AFD1BA0F9F75FFC1CA0F9F75CFC93
:106BA0000A2006F0C0F81DA0F9F756FC0A2006F0EE
:106BB000BAF81FA0F9F750FC0A2006F0B4F823A099
:106BC000F9F74AFC0A2006F0AEF824A0F9F744FCD5
:106BD0000A2006F0A8F827A0F9F73EFC0A2006F0E4
:106BE000A2F82BA0F9F738FC0A2006F09CF82E49F1
:106BF0000020C8600021606801F036FD10BD000073
:106C00009C0700200A0D0A0D0A0D000020436F6D3D
:106C10006D616E64733A0A0D00000000206D202D36
:106C2000204D6F746F72204D6F64650A0D00000077
:106C30002063202D2043616C696272617465204578
:106C40006E636F6465720A0D000000002073202DD2
:106C50002053657475700A0D000000002065202D1A
:106C600020446973706C617920456E636F6465724E
:106C70000A0D0000207A202D20536574205A657279
:106C80006F20506F736974696F6E0A0D0000000009
:106C900020657363202D204578697420746F204D22
:106CA000656E750A0D000000080200202DE9F04F06
:106CB0009C4FDFF8749207F6BC002DED028B81B07B
:106CC00007F5807A4FF000080125A9F1100B9FED20
:106CD000978A009014E14646CBF80880CBF80C5018
:106CE00093488BF801808BF800804068002101F008
:106CF000BBFC002049460E54401C0828FBDBDBF897
:106D000008005E4648B1B068042854D0B068052831
:106D100079D0B0680228DDD1EAE06D2C0CD004DC1B
:106D2000632C07D0652CD5D10AE0732C0AD07A2CBD
:106D3000D0D109E0B56001E00220D7E0F560DFE0E6
:106D40000520D3E00420D1E0B0EE480A794801F0F4
:106D50000AFB9FED790A774801F022FB142005F029
:106D6000E2FF744801F00BFB714887ED010A0C3813
:106D700001F0CAFA18B96E480C3801F08FFA6C4865
:106D80000C3801F099FA6A480C3801F08FFA68481B
:106D90000C3801F05DFA97ED010A664801F0E3FA5C
:106DA000786806F033FE41EC100B64A053EC102B16
:106DB000F9F752FBA4E00D2C0DD07078002872D0AA
:106DC000484400F8014C2146009802F0E9F8707838
:106DD000401C707094E031786C2935D006DC622953
:106DE00012D0662945D0692904D121E06D2925D02A
:106DF000742952D05BA0F9F72FFB4D480C3801F0F5
:106E000083FAA8B354E06EE0474802F0F9FC51EC75
:106E1000100B06F0AFF800EE100ADFED5C0A00F090
:106E20008DFBDFED5B0A00F081FB87ED020AE4E7F2
:106E30003D48F9F7B7FCCAF80400DEE73A48F9F72D
:106E4000B1FCCAF80800D8E7374802F0D9FC51EC89
:106E5000100B06F08FF800EE100ADFED4E0A00F07E
:106E60006DFBF0EE480A00F061FB87ED030AC4E712
:106E70001AE02D4802F0C4FC51EC100B06F07AF831
:106E800000EE100ADFED440A00F058FBF0EE480A6D
:106E900000F04CFB87ED060AAFE72348F9F782FCC8
:106EA000CAF80C00A9E71CE021480C3801F0F6F9FB
:106EB0001F480C3801F000FA1D480C3801F0F6F9B3
:106EC0001B480C3801F0C4F9F56086F80180414692
:106ED00086F8008000204A461154401C0828FBDB3D
:106EE0000EE034706FE71B2C0AD14046B06025E7F6
:106EF000642C05D10E48143080ED228A80ED218A61
:106F0000264801F088FC002807D0009802F034F8E9
:106F1000C4B21B2C7FF4F3AEDDE601B0BDEC028BF6
:106F2000BDE8F08F90020020180200200000000051
:106F30009C070020800D002017B7D1370A0D2020B4
:106F40005361766564206E6577207A65726F207074
:106F50006F736974696F6E3A2020252E34660A0DAE
:106F60000A0D00000A0D2027256327204E6F74208C
:106F7000612076616C696420636F6D6D616E642061
:106F80007072656669780A0D0A0D00000000FA4407
:106F90000000C8420000204200000442900A002085
:106FA0007FB53BA0F9F758FA0A2005F0BCFE40A1D6
:106FB00043A0CDE9000143A343A246A147A0F9F7AE
:106FC0004BFA0A2005F0AFFE4C4CA06806F01EFDFF
:106FD000CDE902014AA000904BA34CA251A152A0BE
:106FE000F9F73AFA0A2005F09EFE04F5807556A0DE
:106FF000696856A3CDE9000155A257A157A0F9F73A
:107000002BFA0A2005F08FFEA9684FA0CDE90001F8
:107010004EA35AA25DA151A0F9F71EFA0A2005F06D
:1070200082FEE06806F0F2FCCDE9020158A0009073
:1070300059A35AA25EA13CA0F9F70EFA0A2005F066
:1070400072FEA06906F0E2FCCDE9020159A00090B1
:1070500051A35AA25FA134A0F9F7FEF90A2005F066
:1070600062FEE9685CA0CDE9000138A35CA264A1DE
:1070700064A0F9F7F1F90A2005F055FE6848F9F720
:10708000EBF90A2005F04FFE66490020C8607FBD7D
:107090000A0D0A0D20436F6E666967757261746927
:1070A0006F6E204F7074696F6E73200A0D0A0A00AC
:1070B00063757272656E742076616C756500000090
:1070C0006D6178006D696E00706172616D657465E7
:1070D00072000000707265666978000020252D340A
:1070E0007320252D33317320252D357320252D3622
:1070F0007320252D32730A0D0A0D00009002002026
:107100003230303000000000313030004375727290
:10711000656E742042616E647769647468202848E3
:107120007A2900006200000020252D347320252DCF
:1071300033317320252D357320252D367320252ED0
:1071400031660A0D000000003132370030000000C7
:1071500043414E20494400006900000020252D34A1
:107160007320252D33317320252D357320252D36A1
:107170007320252D35690A0D0000000043414E2083
:107180004D61737465722049440000006D00000079
:1071900034302E3000000000302E30004375727203
:1071A000656E74204C696D697420284129000000C7
:1071B0006C00000033332E3000000000465720439F
:1071C000757272656E74204C696D6974202841294E
:1071D0000000000066000000313030303030000028
:1071E00043414E2054696D656F757420286379633F
:1071F0006C6573292830203D206E6F6E6529000074
:107200007400000020252D347320252D3331732088
:10721000252D357320252D36732025640A0D000099
:107220003CF000080802002070B5114D01212868CB
:1072300001F01AFA05F1140400262046C4F8A060F3
:1072400000F0B0FF9FED0B0A05F05CFD9FED0A0A10
:10725000012184ED210A84ED220A686801F004FA14
:107260000648C660BDE8704005A0F9F7F5B8000013
:107270009C0700206F12833A0000000008020020E3
:107280000A0D20456E746572696E67204D6F746FCC
:1072900072204D6F6465200A0D0000000907090E79
:1072A000002804DB00F1E02080F80014704700F0B3
:1072B0000F0000F1E02080F8141D704770B50D46F6
:1072C0000446F9F73BF8614201600349002041F8A8
:1072D0002500401E70BD0000C41100209FED160A5D
:1072E000164980ED1A0A80ED1B0AD1ED020A9FEDC6
:1072F000140ADFED151A60EE800AC0ED180AD1ED10
:10730000020A20EE800ADFED0F0A80ED190A91EDE6
:10731000020A20EE200AF0EE000A20EE201AB7EE54
:10732000000AF0EE400A41EE610A80EE201A30EECB
:10733000410A80ED1C0A704777BE1F3D9002002075
:10734000E02D903A17B7D137DB0F494070B515469D
:107350002DED048B0C460646F0EE418AB0EE609AA5
:10736000F0EE409A02F0D2F8B0EE408AB0EE690A30
:1073700002F0D4F868EE090A9FED141A40EE680A8C
:1073800060EE011A28EE011AC6ED000AF6EE000AB8
:1073900048EE601A00EE601A21EE892ADFED0C1A21
:1073A00068EE212A60EE211A40EE602A48EE601A4B
:1073B00002EEE82A61EE891A41EE681A84ED002A8D
:1073C000C5ED001ABDEC048B70BD0000D7B35D3F66
:1073D000D7B35DBF70B50D462DED068B0446F0EEBC
:1073E000618AB0EE419AF0EE609AB0EE40AA02F0E7
:1073F0008DF8B0EE408AB0EE4A0A02F08FF8DFED69
:10740000172AB6EE002ADFED161A60EE220A48EEC1
:10741000420A20EE891A60EE210A68EE211A08EE6F
:10742000291A48EE420A40EE421A00EEA81ADFED91
:107430000D0A21EE201A84ED001A20EE691A01EEE1
:10744000C91A68EE221A40EE421A01EEE81A21EE3D
:10745000200A85ED000ABDEC068B70BDD7B35D3FF9
:10746000D7B35DBFABAA2A3F70B516462DED088B8A
:10747000F0EE61AAF0EE419AB0EE60AAF0EE408A1A
:107480000D460446B0EE6A1AF0EE690AB0EE4A0AFA
:1074900000F071F8B0EE408AB0EE6A1AF0EE690AB8
:1074A000B0EE4A0A00F052F838EE000AB6EE009A42
:1074B00020EE098A7AEE480A9FED1AAA80EEA80A01
:1074C000F0EE4A0A30EE090A00F030F89FED16BAE5
:1074D000F0EE4B0A00F032F879EEC80A84ED000AAB
:1074E00080EEA80AF0EE4A0A30EE090A00F01EF813
:1074F000F0EE4B0A00F022F885ED000A3AEEC80AD9
:10750000C0EE280A30EE890AF0EE4A0A00F00EF8C2
:10751000F0EE4B0A00F012F886ED000ABDEC088B85
:1075200070BD0000CDCC4C3DD7A3703FB4EEE00A57
:10753000F1EE10FA01DCB0EE600A7047B4EEE00A3A
:10754000F1EE10FA01D3B0EE600A7047B4EEE00A33
:10755000F1EE10FA07DDB4EEC10AF1EE10FA01DC2B
:10756000B0EE410A7047F4EEC10AF1EE10FAF7DD11
:10757000B0EE600A7047B4EEE00AF1EE10FA07D2FE
:10758000B4EEC10AF1EE10FA01D3B0EE410A704731
:10759000F4EEC10AF1EE10FAF7D2B0EE600A7047CD
:1075A0002648016841F480610160016841F400717E
:1075B0000160016841F4807101602048143801685D
:1075C00041F004010160016841F0010101601C48C3
:1075D0001621C0F80413816841F0010181600A217D
:1075E0004163D0F8081141F00101C0F808110B21E6
:1075F000C0F83411D0F8081241F00101C0F80812A7
:107600000021C0F834120F490A6842F00F020A60E4
:107610000D490A6842F003020A60C16841F00101A5
:10762000C160D0F80C1141F00801C0F80C11D0F87D
:10763000101241F00101C0F81012704744380240A6
:1076400000200140000802400000024070B50446DE
:107650003248016841F0040101603048103001688F
:1076600041F001010160001D016841F0010101606C
:107670002B48016841F4806101601C2001F0A6FFE5
:1076800010B10B2100F0F9FF2060482001F09EFFAF
:107690004FF0FF3518B12A460A2101F00BFFA06018
:1076A000482001F093FF18B12A46092101F002FF9A
:1076B000E060482001F08AFF18B12A46082101F055
:1076C000F9FE20614FF0E0224FF000700021C2F877
:1076D00000011448C26842F00102C2604022026008
:1076E000026842F002020260026842F08002026018
:1076F000026B42F001020263426942F00102426100
:10770000816240F6CA01C162016A61F0080101624A
:10771000016841F00101016070BD00003038024095
:1077200000080240000001402DE9FF4F2DED0C8BB9
:107730000446ADF50F7D1546F6A0F8F78DFEDFED9A
:10774000FE9A4FF46067384601F026FF060002D02B
:107750003946F9F7B1F938468A9601F01DFF06005F
:1077600002D03946F9F7A8F94FF40079B3464846F4
:1077700001F012FF060002D04946F9F79DF98996FB
:107780003E46384601F008FF070002D03146F9F7BF
:1077900093F9B046304601F0FFFE060002D04146A4
:1077A000F9F78AF94FF4007103A88B96F9F784F979
:1077B00020688999826A20469047404601F0ECFE95
:1077C000060002D04146F9F777F940468D9601F060
:1077D000E3FE060002D04146F9F76EF9DFEDD7CAA5
:1077E000B0EE6C8ADFEDD6DA8C96CDED85CAB6EEBA
:1077F00000DA8DED83DA85AA87A986A8B0EE6C1A27
:10780000F0EE6D0AB0EE480AFFF7A0FD83AA84A946
:1078100088A8DDED851A9DED871ADDED860AB7EEA5
:10782000000AFFF721FEDFF81C93002649F6404AC4
:10783000F7EE008A9FEDC49ADFF810839DED880A69
:1078400038EEC00A20EE090ABCEEC00A10EE100A9B
:10785000C8F83C009DED840AD9F8000038EEC00A53
:107860000028404620EE090ABCEEC00A10EE101AAD
:107870000CD081639DED830A38EEC00A20EE090A20
:10788000BCEEC00A10EE101A41630BE041639DED9F
:10789000830A38EEC00A20EE090ABCEEC00A10EED8
:1078A000101A8163642005F03EFA761C5645C5DB4C
:1078B00020689FEDA7CA0168B0EE4C0A20468847B1
:1078C000D5F880106868401A00EE100AF8EEC00A79
:1078D0009FEDA00A20EE801A85ED041AE96F286852
:1078E000401A00EE900A05F13401081FF8EEE00A94
:1078F00060EE801AB1EE410AC5ED051A70EE610A1C
:10790000C5ED030A95ED080AFFF764FD95ED0C0A35
:10791000022001F02BFEB0EE40AA95ED0D0A0220E8
:1079200001F024FE3AEE000A01F026FEF0EE40BA25
:1079300089A0F8F791FD0025C246B1EE0CBA0026E9
:1079400038EE298A85AA87A986A8B0EE6C1AF0EECF
:107950006D0AB0EE480AFFF7F9FC83AA84A988A84B
:10796000DDED851A9DED871ADDED860AB7EE000A7A
:10797000FFF77AFD9DED880A38EEC00A20EE090A6D
:10798000BCEEC00A10EE100ACAF83C009DED840A55
:107990006C4838EEC00A0068002820EE090A5046FC
:1079A000BCEEC00A10EE101A0CD081639DED830A64
:1079B00038EEC00A20EE090ABCEEC00A10EE101A1A
:1079C00041630BE041639DED830A38EEC00A20EE6F
:1079D000090ABCEEC00A10EE101A8163642005F09B
:1079E000A2F92068B0EE4C0A016820468847761C50
:1079F000282EA5DB2068B0EE4C0A01682046884797
:107A00002068816820468847C8EE0BAAB0EE40AADD
:107A10008A9800EB85003AEECA0A80ED000A2068D9
:107A2000C169204688478D99814641F825001AEEA4
:107A3000100A05F0EBFF064688461AEE900A05F09C
:107A4000E5FF41EC110B8DE8400353EC112B4EA0E8
:107A5000F8F702FD6D1CB5F5607FFFF670AF0025ED
:107A6000DFF8E0900026D04638EE698A85AA87A91B
:107A700086A8B0EE6C1AF0EE6D0AB0EE480AFFF779
:107A800065FC83AA84A988A8DDED851A9DED871A77
:107A9000DDED860AB7EE000AFFF7E6FC9DED880AE9
:107AA000404638EEC00A20EE090ABCEEC00A10EECD
:107AB000101AC8F83C109DED840AD9F8001038EE71
:107AC000C00A002920EE090ABCEEC00A10EE101A06
:107AD0000CD081639DED830A38EEC00A20EE090ABE
:107AE000BCEEC00A10EE101A41630BE041639DED3D
:107AF000830A38EEC00A20EE090ABCEEC00A10EE76
:107B0000101A8163642005F00EF92068B0EE4C0A6B
:107B1000016845E05374617274696E672063616C3B
:107B20006962726174696F6E2070726F63656475EB
:107B300072650A0D000000007CD9A03A0000000028
:107B40009A99193E9003002000A08C440000014047
:107B500017B7D1370000A53C2043757272656E746B
:107B600020416E676C65203A20526F746F7220411D
:107B70006E676C65203A2052617720456E636F64B2
:107B80006572200A0D0A0D00252E3466092020207A
:107B9000252E3466092020202025640D0A000000CF
:107BA00020468847761C282EFFF65EAF2068B0EE90
:107BB0004C0A01682046884720688168204688472B
:107BC000C8EE0BAAB0EE40AA0BEB85003AEECA0A4B
:107BD00080ED000A2068C169204688478C9981465B
:107BE00041F825001AEE100A05F010FF06468846F7
:107BF0001AEE900A05F00AFF41EC100B53EC102B23
:107C0000AFF27C008DE84003F8F726FC4FF4607675
:107C10006D1CB542FFF624AFB0EE6C0A0020DFED1C
:107C20007E0A8A9901EB800191ED001AABEB80018D
:107C300001F54061401CD1ED7F1AB04271EE211A6E
:107C400081EEA01A31EE000AEBDB20EE0B0ADFED2D
:107C5000738AF0EE680A01F0EFFD2068B0EE409AFA
:107C6000016A204688476E48B0EE490A80ED000A56
:107C700000208A99B04601EB800191ED000AABEB40
:107C8000800101F54061D1ED7F0A07EB8001401CC6
:107C900030EE200A404520EE0D0A81ED000AE8DBB7
:107CA00000259FED608A8B98002100EB850648191E
:107CB000403802D500F5607003E0404501DBA0F5D7
:107CC000607007EB800096ED000A90ED001A491CE9
:107CD000802901EE080A86ED000AE8DB802D12DA21
:107CE00007EB8500D6ED000A90ED000A30EE600A41
:107CF00020EE0B0A02F092F920EE2B0A03A800EB0B
:107D0000850080ED000AD6ED000A9FED471A6D1C34
:107D1000454580EE810A70EE2CCAC4DB8D9801685F
:107D20008C98D0F8FC0D084400EBD0704FEA600846
:107D30003EA0F8F791FB49A0F8F78EFB00269FEDD7
:107D4000548A06EBE8157F2D00DD803D2068416AEE
:107D50002046884700EE100A8B98C6EBC60100EB60
:107D60008100B8EEC00AD0ED000A89982A4670EE6C
:107D7000EC0A314620EE200AC0EE280ABDEEE00AE9
:107D800010EE103A40F8253042A0F8F765FBB0EE4F
:107D9000480A04F0B7FF761C802ED2DB2068899950
:107DA000826A204690474FF400723F488999F8F75D
:107DB00049FE19EE100A05F029FE41EC100B3BA01C
:107DC00053EC102BF8F748FB9E9800F09DFA10B981
:107DD0009E9800F063FA9E9800F06EFA9E9800F06C
:107DE00065FA8B9801F0D2FB384601F0CFFB8A98F8
:107DF00001F0CCFB584601F0C9FB899801F0C6FBA5
:107E00008D9801F0C3FB8C9801F0C0FB0DF50F7D40
:107E1000BDEC0C8BBDE8FF8F0000E044DB0FC940D8
:107E2000900200200000003C000060440A0D204544
:107E30006E636F646572206E6F6E2D6C696E656126
:107E40007269747920636F6D70656E736174696FA8
:107E50006E207461626C650D0A0000002053616D34
:107E6000706C65204E756D626572203A204C6F6FA4
:107E70006B757020496E646578203A204C6F6F6B8B
:107E800075702056616C75650A0D0A0D00000000C2
:107E90006F12833A256409202020256409202020C0
:107EA0002564200D0A000000A40300200A0D456E81
:107EB000636F64657220456C656374726963616C9D
:107EC000204F6666736574202872616429202566D8
:107ED0000D0A000010B5174C0121206800F0C4FB0A
:107EE0000121606800F0C0FBA4F10C03214603F1FE
:107EF000200201F2E450FEF761FAA4F10C032146DE
:107F000003F1200201F2E450FFF70EFC002160684B
:107F100000F0AAFB9FED080A04F0F4FE07A0F8F7B2
:107F20009BFA0021206800F09FFB13490020C860E5
:107F300010BD00009C070020CDCC4C3E0A0D204314
:107F4000616C6962726174696F6E20636F6D706CD1
:107F50006574652E202050726573732027657363E6
:107F60002720746F2072657475726E20746F206D97
:107F7000656E750A0D0000000802002070B5044609
:107F80002DED068BB0EE40AAD0F894007A4D401C3F
:107F9000C4F894009FED790AD4F8801060682268D4
:107FA000411AE06F2B68101A53B100EE901AF8EEE8
:107FB000E00A60EE800AC4ED040A00EE900A09E0CF
:107FC00000EE900AF8EEE00A60EE800AC4ED040AC2
:107FD00000EE901A04F13401081FF8EEE00A20EEDA
:107FE000800A84ED050A94ED041AD4ED051AB1EE69
:107FF000410A70EE610AC4ED030A94ED080AFFF726
:10800000E9F9D4ED0E0A9FED5E0A60EE800A94ED68
:108010000D0A9FED5C1A5C4E40EE010AC4ED0E0A9B
:10802000D4ED210A94ED0C1A70EEC18AD4ED220A27
:1080300030EEC08A94ED1D0A30EE280A84ED1D0A48
:1080400094ED1E0A30EE080A84ED1E0A96ED020A2F
:10805000DFED4E9A20EE290A9FED4D9A60EE090A57
:108060009FED4C1A04F17801081F81EE200AFEF7FB
:1080700079F896ED020A94ED1D1A04F1440120EE00
:10808000290A081F60EE090A60EE810A40EE280AFC
:10809000C4ED100A96ED020A94ED1E1A20EE290A8C
:1080A00060EE090A60EE810A40EE080AC4ED110A8A
:1080B00094ED060ADFED380A20EE200AFEF752F8AA
:1080C00004F15C02111F94ED111AD4ED100A94ED25
:1080D000080A081FFFF73AF904F15400021FD0EC18
:1080E000030A111F94ED060A0C38FFF7BDF994ED51
:1080F000121AB7EE000ADFED290A30EE411A29689C
:108100002748002921EE201ABCEEC11A11EE101AE0
:10811000C16394ED131A30EE411A21EE201ABCEE21
:10812000C11A11EE101A0CD0816394ED141A30EEBE
:10813000410A20EE200ABCEEC00A10EE101A41637C
:108140000BE0416394ED141A30EE410A20EE200A50
:10815000BCEEC00A10EE101A816384ED08AAD4F8B0
:10816000940049F64041884202DD0020C4F89400A2
:10817000BDEC068B70BD0000900300200000A53C04
:108180003333733FCDCC4C3D90020020E02D903A2C
:1081900077BE1F3D6666E6419A99993F00A00C455F
:1081A000000001400D4940F23222CA634A638A63EB
:1081B0009FED0B0A80ED210A80ED220A80ED0C0A6A
:1081C00080ED0D0A80ED0E0A80ED1E0A80ED1D0A7D
:1081D00080ED110A80ED100A704700000000014098
:1081E0000000000010B50446FBF76CFBF120FBF724
:1081F000E9FA0549606851F820000221FBF7E8FA26
:108200000120207210BD0000E801002010B50446D6
:10821000FBF732FB0021217210BD006800EB8100EA
:1082200010EE101AFBF730BB006800EB810011461E
:10823000FBF72ABB072900DD0721044A416052F8F9
:10824000211001600021017270470000C801002068
:108250002DE9F0410F4E0546002421466868FEF7DF
:10826000A5F846F82400641CFF2CF6DD0A4E4FF4F6
:10827000A077BC420BDA21466868FEF731FC06EBBA
:108280008400A0F58060641C80ED000AF1E7BDE881
:10829000F0810000900300209002002010B50446F9
:1082A0000068FFF79FFF0120207210BD00210172BE
:1082B0000068FFF7ABBF00002DE9F041104E054606
:1082C0000024214656F824202868FFF7ADFF641CDF
:1082D000FF2CF6DD0B4E4FF4A077BC420BDA06EB19
:1082E0008400A0F58060214690ED000A2868FFF721
:1082F00094FF641CF1E700202872BDE8F0810000C3
:108300009003002090020020007A704770B5044668
:108310000D460C2001F05AF910B12946FFF78AFFEB
:10832000C4E9000500202072204670BD10B5044647
:1083300000209FED090AC4F8280184ED050A206891
:108340009FED060A0168204688472068416820465C
:10835000884784ED050A10BD000000006F128339C4
:1083600080ED030A704780ED050A7047D0F82001C0
:10837000704790ED020A704790ED460A704790ED05
:10838000040A704790ED450A704790ED040AD0ED5D
:10839000050A30EE200A7047D0F82401704700002B
:1083A00070B5774D04462DED028BB0EE408A6869BA
:1083B00020F400406861D4F83401D4F83C1102681C
:1083C00012689047C0F30D00C4F82001686940F4BA
:1083D00000406861D4F82001C11104EB8101D1F89B
:1083E0004021012101EBE011CB1701EB536323F096
:1083F0007F03C91A04EB810120F07F03D1F84011FB
:10840000C31A891A4B4302EBE3110144D4F82C211F
:10841000D4F824018A1A00EBD073B2EB630F03DDAA
:10842000D4F82821521E08E0434203EBD373B2EB89
:10843000630F04DAD4F82821521CC4F8282100EE76
:10844000101AC4F82C1194ED061AB8EEC00A84ED87
:10845000071ADFED4C1A60EE210A00EE100AB8EEA2
:10846000C02A80EE820A84ED060AD4F8282142430D
:1084700000EE902AB8EEE02A00EE901AF8EEE00A3C
:1084800072EE200A20EEA12A00EE900AF8EEE02A11
:10849000C2EE220AC4ED010A94ED052A70EEC20A6A
:1084A000C4ED040A00EE900AD4F83021F8EEE00A98
:1084B0004A4392FBF0F181EEA02A00FB112000EE6E
:1084C000900AF8EEE02AD4ED030A42EE220AF5EE15
:1084D000C00AF1EE10FA02D270EEA10A06E010EE28
:1084E000900A2949884201DD70EEE10A30EE411A16
:1084F000C4ED020A11EE100A10F17F5F02D931EECD
:10850000210A06E011EE100A2049884204DD31EE0E
:10851000610AC0EE081A01E0C1EE081A3C210120F0
:10852000F0EE610A0A1A04EB8202401C92ED080A7E
:10853000884282ED090A70EE200AF3DB00EE101A81
:10854000C4ED091AB8EEC01A80EE810A9FED101A28
:1085500084ED450AD4ED4C0AF8EEE00A20EE200A3C
:1085600084ED460AD4ED470A60EE810A9FED091AB0
:1085700040EE010AC4ED470ABDEC028B70BD00005D
:1085800000000240DB0FC940DB0FC9400000404043
:10859000A4707D3F0AD7233C4FF4007200F5A07011
:1085A000F8F750BAF0B504462DED028B81B0C4F84F
:1085B00030212548C4F824112060B0EE408A84EDB3
:1085C000038A0026DC20C4F8286100F0FFFF30B1E8
:1085D000711E00912A232B222C2100F047FC01223E
:1085E0001021C4F8340100F0E5FB1849D4F8340137
:1085F00000F01EFC1C2000F0E9FF48B105460F27E3
:108600001C21F8F759FA3946284602F0F9FD00E036
:108610000025C4F83851A968286808604FF6FF7033
:10862000C4F83C019FED0A0A84ED058A84ED060A30
:1086300084ED070A84ED080AC4F8206101B02046E1
:10864000BDEC028BF0BD0000D4ED000840787D0148
:108650000000000000210160416081600822C160CB
:108660000273817341737047026811B180680260C0
:108670007047C06811040160704770B50C4605462C
:108680001C21F8F719FA2146284602F0B9FD2846C0
:1086900070BD70B5054600680122002103692846B7
:1086A000984704000DD42868022200210369284657
:1086B00098470646286800222146036928469847BD
:1086C000304670BD002070474C3003F0FBBC10B545
:1086D0000C464C3003F006FF204610BD10B500EBF1
:1086E00001109830044604F040FC00280DD0E068EA
:1086F00028B940F20E220549054803F00DF8E0685C
:1087000001682046BDE81040084710BD1FF0000872
:108710001AF000082DE9F04104464C3003F008FE41
:10872000064600F47C5704F13C000025804604F026
:1087300017FC28B127B101253946404604F0FAFB61
:1087400004F12C0006F0FC06044604F009FC28B1F4
:1087500026B13146204604F0EDFB01E0002D03D0A8
:10876000BDE8F04103F04EBFBDE8F08170B50446AE
:1087700000680D46026820469047294604F14C00E7
:1087800003F09CFCC4F8B850206841682046BDE85E
:108790007040084770472DE9FF410546006888464C
:1087A000174601682846884702F0F0FB404604F06F
:1087B000DCFB05EB07149834002805F14C06204635
:1087C0000AD004F0D2FB08B903F0ECFE2046414683
:1087D00004F074FB012210E004F0C7FB08B103F0C1
:1087E00011FF0021684604F051FB0146204604F0C9
:1087F00065FB684604F05AFB00223946304603F018
:1088000013FE02F013FC2868416804B02846BDE856
:10881000F0410847704770B504460068016820467B
:10882000884704F14C0003F071FE0546206841685A
:1088300020468847284670BD2DE9FF4115460E4663
:1088400002462E482E4910601C46D1E90237101D01
:1088500000219360D7602B4B136148F207035361EB
:10886000D1619261011D116227495162BFF36F8F7F
:10887000BFF34F8F002082F8280082F829000146BC
:1088800002F12C0004F0CAFA0021103004F0C6FAFC
:10889000A0F13C074C211030F8F70EF9022310220A
:1088A0001A4907F1980000F01AFF0462A0F1980736
:1088B00000240021684604F0E9FA014607EB0410A1
:1088C000983004F0FBFA684604F0F0FA641C022CBD
:1088D000EFD307F14C002A463146044603F004FC6E
:1088E0002046D7F8B81003F0E9FB3A46084920467D
:1088F00003F012FD04B03846BDE8F08158EE0008E0
:1089000024EB000801A090E8DFCE000871370008D2
:10891000DD8600087FB50546114800242860002147
:10892000684604F0B3FA0146E2B22846FFF733FF87
:10893000684604F0BBFA641C022CF0DB0223102210
:10894000084905F19800F8F731F905F13C0004F009
:1089500080FA103804F07DFA04B02C3870BD0000A5
:1089600058EE0008ADCE000870B5064601C930606B
:10897000086870604868B0608868F060C8683061F6
:1089800008690C467061351D143106F1180004F0B9
:1089900068FA94F8240085F82400304670BD7CB550
:1089A00005463A208DF80000CDF801506846F7F7EB
:1089B00088FF040007D02868C1692846884710B19D
:1089C000204600F023F820467CBD10B5002114306D
:1089D00004F024FA143810BD10B50446094804F018
:1089E000DDF90021084A084652F82130A34201D19E
:1089F00042F82100491C1029F6D3024804F0CEF9B0
:108A000010BD000058020020C41100200021F7F71B
:108A10007FBF000010B500EB01105030044604F099
:108A2000A4FA00280DD0E06828B940F20E220549CA
:108A3000054802F071FEE06801682046BDE810407C
:108A4000084710BD1FF000081AF00008704770B505
:108A50000446006815460E468368204698472A4615
:108A60003146201D02F096F905462068C16820466F
:108A70008847284670BD2DE9FC41044600680D4634
:108A8000164681689846089F204688470020CDE911
:108A90000070434632462946201D02F0F3F9054690
:108AA0002068C168204688472846BDE8FC812DE93A
:108AB000FF41054600680F461646816828468847EC
:108AC000384604F052FA05EB0614503400282046CC
:108AD0000AD004F04AFA08B903F064FD204639468A
:108AE00004F0ECF9012210E004F03FFA08B103F0C1
:108AF00089FD0021684604F0C9F90146204604F0CA
:108B0000DDF9684604F0D2F900223146281D02F052
:108B1000DFF82868C16804B02846BDE8F04108477E
:108B20002DE9F8430446006888461E4681681746CA
:108B3000089D2046884733463A464146201D009509
:108B400001F07EFE05462068C16820468847284619
:108B5000BDE8F883704700002DE9FF41044619483D
:108B6000884620601E4617464C21201DF7F7A4FFBB
:108B700009231022144904F1500000F0B0FDA0F1C7
:108B8000500500240021684604F080F9014605EBF9
:108B90000410503004F092F9684604F087F9641C20
:108BA000092CEFD333463A464146281D01F044FFD5
:108BB0002A460649281D02F081F804B02846BDE87F
:108BC000F081000070EE000867370008158A000881
:108BD0007FB505461048002428600021684604F04F
:108BE00055F90146E2B22846FFF761FF684604F0F6
:108BF0005DF9641C092CF0DB281D02F051F8281DDA
:108C000001F04EFE09231022044905F15000F7F748
:108C1000CDFF04B0284670BD70EE0008ADCE000850
:108C20002DE9F04F85B004460EA8994690E8E00182
:108C300092468B4603F0B6FC204600F0E3F8394636
:108C400004F1B80004F00DF90D48D0E90010C4F8A3
:108C50009810C4F89C0094F8C8100095CDE90381E1
:108C600004F1A00040F00100CDE901604B465246FE
:108C70005946201D03F0CCFE05B0BDE8F08F000082
:108C800034EB00087FB5D1E9032501F1140491F814
:108C900024308DE83C000EC9FFF7C2FF7FBD000005
:108CA0002DE9F0410546001D03F030FE0446D5F8DD
:108CB000C400A8B114F00E0F12D003F0A3FC05F10C
:108CC000B80604F00E07F06828B940F24D42094991
:108CD000094802F021FDF0683946026830469047A5
:108CE0000648044204D02846BDE8F04100F008B828
:108CF000BDE8F081FDEF0008F8EF00080E0000402D
:108D0000F0B58BB0684604F05FF81A4C6D4600264B
:108D100002F03CF902F03AF9A06DE16D884202D10F
:108D200094F8600020B1002702F080F917B115E037
:108D30000127F9E7E26D02EB420000EBC200521C92
:108D400004EB8001E2652846FFF70EFEE06D00F0BF
:108D50000100E065002084F86000012602F066F959
:108D60001EB101A90098FFF78DFF684604F039F89D
:108D70000BB0F0BD5015002010B5024804F00EF8FD
:108D800010BD00007002002070B5044600680D465A
:108D9000826820469047204600F034F82946201D7E
:108DA00003F08EFE05462068C168204688472846A5
:108DB00070BD000070B50446006815460E46826816
:108DC000204690470A48C4E93365006831462A4680
:108DD000A04204D10023201D03F03EFC02E0204607
:108DE00000F010F82068C1682046BDE870400847D0
:108DF0006C02002010B5024803F0D0FF10BD000047
:108E00007002002070B5094D04462868A0420BD0BE
:108E1000D4E933120023201D03F01EFC201DD4F8DA
:108E2000D41003F047FC2C6070BD00006C020020E1
:108E300070B5044600680D468268204690470A488F
:108E4000C4F8D45029460068A04203D1201D03F085
:108E500031FC02E02046FFF7D5FF2068C1682046BC
:108E6000BDE87040084700006C0200202DE9F8437F
:108E700005462048089E894628601F469046902156
:108E8000281DF7F719FE1C4805F19404D0E90212D9
:108E900000206160A2601949E16048F20701216188
:108EA000A0616561201DE06115482062BFF36F8FEE
:108EB000BFF34F8F0024214605F1B80003F0AEFF49
:108EC000A0F1B80504740820C5E933040D48C5F8BD
:108ED000D400FF2085F8D8003B4642464946281D6D
:108EE000009603F033FC2846FFF78CFF2846BDE8C8
:108EF000F883000088EE000834EB000801A090E839
:108F000009CF000840420F0010B5034940F8B81BD4
:108F100003F09FFFB83810BD88EE00087047FFF7D8
:108F2000D3BBFFF7D4BB704710B51C46029BFFF7BD
:108F300083FC2146BC3000F0A3F8054940F8BC1D75
:108F40007C31C0F8C0105C39C0F8BC1010BD000006
:108F5000A8EE000810B5074940F8C01B7C3140F866
:108F600004195C39016000F0BFF8BDE81040BC385E
:108F7000FFF7D0BCA8EE000870B504460068C16CCD
:108F8000204688476069F7F736FC606900F081F990
:108F900005462068016D20468847284670BD704709
:108FA00070B5044600680D46C16C2046884760696C
:108FB000F7F721FC2846616902F0A0F80546206811
:108FC000016D20468847284670BD2DE9F0410546D1
:108FD00000680F460C468E18C16C2846884707E08B
:108FE0002868816C28468847411C03D004F8010B8F
:108FF000B442F5D12868016D28468847E01BBDE8DA
:10900000F0810020704700207047002070472DE954
:10901000F041054600680F460C468E18C16C284684
:10902000884707E0286814F8011B426C28469047DF
:10903000401C01D0B442F5D12868016D284688470C
:10904000E01BBDE8F081002070470FB470B5044606
:109050000068C16C2046884706AD6069F7F7CBFB16
:109060002A4660690599F7F7F1F905462068016D10
:1090700020468847284670BC5DF814FB7047000006
:1090800010B50E4A04C0002200F068F8041F0C4816
:1090900020605C306060002060610AA1204600F022
:1090A00033F8606110B1FFF7B1FC05E0F7F746F95E
:1090B000016805A001F0F2FF204610BD0CEE00088B
:1090C00034EF0008772B000053747265616D206FD8
:1090D000626A206661696C7572652C206572726EB9
:1090E0006F3D25640D0A000010B504460548206058
:1090F0005C3060606069F7F715FC204600F072F89C
:1091000010BD000034EF0008FFF749BC007B70473A
:1091100070B506460D46104803F040FE0E48001F8D
:10912000046811E0A06870B12A463146F7F73FFCA9
:1091300048B9A068F7F71CFCA84204D1064803F020
:109140002DFE204670BD6468002CEBD1024803F070
:1091500025FE002070BD00003802002070B50446D6
:109160000B480026A160C4E900060D462273094899
:1091700003F014FE2DB10748001F01686160046010
:1091800000E06660034803F009FE204670BD000061
:10919000A0EF00083802002010B504460F482060F8
:1091A0000F4803F0FBFDA06868B10D49091F08686E
:1091B000A04203D16068086005E008464168A1420A
:1091C000FBD161684160064803F0E8FD207B10B9DF
:1091D000201FFFF701FC204610BD0000A0EF000893
:1091E0003802002010B5001DFFF7D6FF001F10BD8C
:1091F00010B5044600F007F8002803D06068002886
:1092000000D0001F10BD10B54068002804D0FFF743
:109210007DFF012800D0002010BD10B5044600F0ED
:109220000CF8002803D06068002800D0001F10BD93
:109230004068002800D00120704710B54068002821
:1092400003D0FFF763FF08B1002010BD012010BD5F
:109250000068704710B50446002020606060087800
:109260002F280DD1487858B14B1C00211A46236095
:1092700010782F2806D038B1521C491C2260F7E71D
:10928000204610BD501C20601846FFF741FF60606B
:10929000F6E701F027BF000010B504461046C4E908
:1092A00000120121FFF7E0F90A2003F03CFD012242
:1092B00010212068FFF77EFD02492068FFF7B8FD06
:1092C000204610BD20A1070010B50446042000F080
:1092D0007DF96064B4F904102068FCF720FF616C2C
:1092E00008602068016841F0800101601020E061A1
:1092F00010BD000010B504462DED048B084604F0A7
:1093000018F941EC180B1848006804F012F953ECF6
:10931000182B03F01DFF41EC100B9FED141B84ED87
:109320000A0B53EC112B03F013FF41EC180B9FEDCC
:10933000119B84ED0C8B53EC192B03F04DFE04F0C4
:109340009BF89FED0E0BE06353EC102B51EC180BC8
:1093500004F03EF953EC192B03F03EFE04F08CF8B8
:10936000A063BDEC048B10BD7C0200200000000057
:1093700080842E41000000000000E03F000000005B
:1093800000408F400068491EC1627047006841B1CB
:109390004FF48032914200D911464A1E826208463B
:1093A0007047806A401C704770B50446C569104616
:1093B00019462A46F7F71CF8411C2046FFF7E6FF3E
:1093C000054601462046FFF795FF284670BD406CD4
:1093D00000680160704710B504462DED028BB0EEB9
:1093E000408AF0EE608A80ED088B00F049F804F0C6
:1093F000A0F853EC182B04F0EBF804F06DF80146DC
:10940000BDEC028B2046BDE81040FFF7E0BF000036
:1094100010B504462DED028BB0EE408A90F8400066
:10942000F0EE608A70B11348006804F082F853ECE3
:10943000182B04F0CDF804F0E1FB02460B46204661
:10944000FFF7B2FF94ED0A0B51EC180B53EC102B05
:1094500004F0BEF89FED081B53EC112B03F0BCFD8C
:1094600004F03AF80146BDEC028B2046BDE81040FE
:10947000FFF788BF7C020020000000000000E03FF2
:109480000068C06A401C704770B50446481C0CD088
:10949000002084F840002046FFF778FF054601468B
:1094A0002046FFF727FF284670BD012084F84000C2
:1094B0000021F0E72DE9F041002617460D4604464D
:1094C000067601F063FD2946204602F089FB01F093
:1094D000ADFD20466664FFF7F7FE39462046FFF7EC
:1094E000D3FF9FED060B2046FFF792FF9FED050B84
:1094F0002046FFF770FF2046BDE8F0817B14AE47A1
:10950000E17A943F0000000000000000DFED020A55
:1095100030EEC00A00F002B8DB0FC93FDFED0F0AE2
:1095200001E030EE200AB5EEC00AF1EE10FAF8D3F1
:109530000B4910EE100A884202DB30EE600AF8E7B1
:10954000DFED080A084920EE200ABDEEC00A10EE41
:10955000100A01EB800090ED000A7047DB0FC94054
:10956000DB0FC94083F9A24278DD000800EE900AC3
:10957000F8EEE00A00F020BA00F018BE7047BC38E0
:10958000FFF7CDBCBC38FFF7CCBC7047002801D03A
:10959000F6F707BF7047000010B5F6F7D3FE0400DA
:1095A00002D102A001F07AFD204610BD4F70657215
:1095B00061746F72206E65775B5D206F7574206FCC
:1095C00066206D656D6F72790D0A000010B5F6F7B3
:1095D000B9FE040002D102A001F060FD204610BDDA
:1095E0004F70657261746F72206E6577206F75744D
:1095F000206F66206D656D6F72790D0A00000000A6
:1096000003B401984100009850EAC12018BF04201B
:109610004A0D18BF40F0010040F2FF72B2EB515FFB
:1096200008BF40F00200012808BF052002B07047C3
:109630004100080218BF04200A0E18BF40F00100C4
:109640004FF07F4232EA010108BF40F002000128DA
:1096500008BF0520704720F00040C0F1FF40C00F58
:109660007047002809DB00F01F02012191404009EA
:10967000800000F1E020C0F88012704700280DDB68
:1096800000F01F02012191404009800000F1E0201C
:10969000C0F88011BFF34F8FBFF36F8F7047002862
:1096A0000DDB00F01F02012191404009800000F114
:1096B000E020C0F88011BFF34F8FBFF36F8F70476A
:1096C000002809DB00F01F020121914040098000C1
:1096D00000F1E020C0F800117047012070472DE92B
:1096E000F0411C4617460E00804607D0054602E0B2
:1096F0002846B0473D442046641EF9D24046BDE8A6
:10970000F0810020F8F7DCBA30B52DED048B81B084
:10971000B0EE408AF0EE608A6A4651EC180B01F018
:10972000FBFC00989FED329B7E300090002821DCEE
:1097300053EC192B51EC180B03F062FE1AD00021E8
:1097400040F608004FF00000044651EC180B03F0FF
:1097500011FC08EE100A40F6080004EA00014FF080
:109760000000B5EEC08AF1EE10FA04BF0220F7F750
:1097700086FA2DE00098FF2830DB002108464FF0E4
:10978000000000F4400553EC192B51EC180B04F0C9
:109790001DF88CBF002401240220F7F770FA9FED1A
:1097A000168A4DB1002C0CBF4FF400004FF480001E
:1097B000A84218BF9FED118A042108464FF000000F
:1097C000002C01BFB1EE480A01B0BDEC048B30BDE6
:1097D000B0EE480A01B0BDEC048B30BD51EC180B63
:1097E00003F0C8FB01B000EE100ABDEC048B30BDE5
:1097F00000000000000000000000807FFFFF7F7F6E
:1098000030B583B00446F7F735FA9FED090B0546EE
:109810008DED000B002221466846F7F725FE28460D
:10982000F7F72DFA9DED000B03B030BD00000000EE
:10983000000000000000000010B52DED028BF0EEDE
:10984000408A18EE900AB0EE608A20F00040C0F125
:10985000FF40C00F07D118EE100A20F00040C0F101
:10986000FF40C00F2BD018EE101A18EE900A04F02B
:1098700043F900EE100A10EE100A6FEAD05010F013
:10988000FF0F04BFBDEC028B10BD18EE900A00F074
:10989000004110EE100A00F00040814204BFBDEC10
:1098A000028B10BD18EE101A10EE100ABDEC028BE0
:1098B00061F31E0000EE900A30EE600A10BD18EE53
:1098C000900A4FF07F41B1EB400F1CBF18EE100A19
:1098D0005FEA4000C7D10120F7F7D1F9BDEC028B58
:1098E000BDE8104000F0B0BC30B540F2FF742DED83
:1098F000048BF0EE608A18EE901A85B0B0EE408AC4
:109900009FED2B9B05468DED008B34EA115147D01E
:1099100053EC192B51EC180B03F072FD40D02A4682
:1099200051EC180B04F0DCF941EC180B18EE900A1E
:109930008DED008B34EA10501CD053EC192B51ECF8
:10994000180B03F05DFD2BD10220F7F798F900F01A
:109950005BFC10EE901A18EE900A8DED020B8DED67
:10996000008B61F31E0003909DED020B05B0BDEC72
:10997000048B30BD0220F7F782F900F035FC10EEC1
:10998000901A18EE900A8DED020B8DED008B61F3AD
:109990001E0003909DED020B05B0BDEC048B30BDA5
:1099A00005B0B0EE480AF0EE680ABDEC048B30BD9D
:1099B000000000000000000010B510EE100A2DEDB0
:1099C000068BB7EE001A10EE901AB0EE418A002214
:1099D000A0F5000CDFEDFE9A4FF00073BCF1FE4FD6
:1099E0004FF07F4403EB410C80F0B481BCF1804F19
:1099F000C0F02082F74901449FEDF73AB1F5005FCE
:109A000040F2D48200F58021CB0C03F00F0101EE6F
:109A1000901AC3F307137F3BA0EBC350B8EEE12AC3
:109A200000EE100A1A44DFEDED2AF0EE411A42EE84
:109A3000221AF0EE613A70EE232A30EE632A12EE1B
:109A4000900A00F500606FF30B0001EE900A73EED0
:109A5000E13A33EE804AC1EE223A22EE230A10EEBA
:109A6000100A00F500606FF30B0000EE100A00EE24
:109A7000612A00EE442A62EE232A70EE221A21EEB9
:109A8000A12ADFEDD73A02EE233A23EE023A20EE86
:109A9000012A22EE811A03EE211A32EE010A10EE9B
:109AA000100A00F500606FF30B0000EE100A72EE72
:109AB000401A31EE812A9FEDCB1A60EE011A9FED1C
:109AC000CA1A20EE011A9FEDC90A02EE001A31EE01
:109AD000810A10EE100A00F500606FF30B0000EE33
:109AE000100AC34871EEC01A31EE812A784400EBA7
:109AF000C10090ED003AD0ED011A100101EE100AFC
:109B0000F8EEC12A32EE211A31EE001A31EE031AB4
:109B100031EE221A11EE100A00F500606FF30B000F
:109B200009EE100A39EE621A31EE431A31EE400A9C
:109B300030EE610A32EE40AA10EE900A002100F5E4
:109B400000606FF30B0008EE900A084670EEE8AA7A
:109B50004FF0000029EE280A00F00C01F0EEC00AD8
:109B600010EE900AB0F18B4F0DDD10EE900AB4EBC1
:109B7000400F08D310EE100A4FF08B4262F31E0024
:109B800008EE900A13E069EE2A0A38EEAA1A4AEEA5
:109B9000010A30EE201A11EE100A00F500606FF392
:109BA0000B0008EE900A30EE680A70EE209A0C2046
:109BB0004FF0000038EEA90AB5EEC00AF1EE10FA37
:109BC00034BFFEEE000AF6EE000A30EE800ABDEE6B
:109BD000C00A10EE100A011100EE101AF8EEC00AC9
:109BE00000EE100AB8EEC00A38EEC00A30EE290ABC
:109BF000DFED801A9FED801A00EE211ADFED7F1A4B
:109C00007F4900F00F0040EE011A21EE800A7944EE
:109C100001EB800191ED001A7A49794401EB800152
:109C2000D1ED001A784901EE801A794401EB8000E9
:109C3000764990ED000A31EE001AB0EEE00A10EE1F
:109C4000100A884215DA10EE100AB4EB400F10D358
:109C50009FED6F0A30EE800ADFED6E0A20EE200ADB
:109C600068EE010ABDEC068BBCEEC00A20EE200AAD
:109C700010BD10EE100A6849884243DA10EE100A4F
:109C8000B4EB400F3ED3BDEEE00A68EE010A10EEE1
:109C9000100A00EBD0725110C90501F17E5100EE9F
:109CA000101AA0EB6200C00560EE200A00F17E50A1
:109CB00000EE100A60EE808A18EE900AB4EB400FB6
:109CC0000FD10220F6F7DBFF00F0C6FA10EE101AF3
:109CD00018EE100ABDEC068B61F31E0000EE100AB0
:109CE00010BD18EE900A400011D018EE900AFFF750
:109CF0009FFC042808BF00F0B7FAB0EE680ABDEC7C
:109D0000068B10BDF5EEC00AF1EE10FA0FD202205C
:109D1000F6F7B5FF00F0A8FA10EE101A18EE100AC8
:109D2000BDEC068B61F31E0000EE100A10BD022090
:109D3000F6F7A5FF00F090FA10EE101AB0EE480A00
:109D400010EE100ABDEC068B61F31E0000EE100A47
:109D500010BD00BFBCF1804F6CD300BF00F1FF43CA
:109D6000B3F1FE4F24D200BFB0EEC00A10EE100ACD
:109D7000C1F3C7537F2B0DDB972BBFF63BAEC3F16F
:109D800096034FF0010C0CFA03F3A3F1010C1CEA4B
:109D9000010F08D00120F6F772FFBDEC068BBDE87D
:109DA000104000F051BA0B4218BFBFEE008A21E606
:109DB00043001CBF4FF08073B3EB400F34D96FF0FA
:109DC0001A02DFED161A20EE210A10EE100A27E023
:109DD00000000000001080C0ABAAAA3E0000803D39
:109DE0007EE24C3E00B03842D49AB8BB3BAA38421F
:109DF000B8500000FC596337C9FF753A1872313DFD
:109E0000565000008A500000FA4F00000000FC424B
:109E10000000FE420000004B000040430000004DE7
:109E200010F0004FA0D1E5E5A0F50003B3F1FE4F1F
:109E300021D2DFE503EB4103B3F1007F11D3F5EE4F
:109E4000C00AF1EE10FA05D1430018BFB4EB400F81
:109E500076D883E701F0004141F0FC5100EE901A02
:109E60007CE7B3F1807F06D210EE903AA3F50003B1
:109E700000EE903A72E720F000426FF0FF4C604C29
:109E800002EB0C03A34210D321F000439C44A445F1
:109E90000BD3B0F17E5F18BF5FEA410C50D0B2F136
:109EA000FF4F98BFB3F1FF4F05D9BDEC068BBDE85E
:109EB000104000F0C6B9B0F1FF4F0FD0C1F3C75248
:109EC0007F2A09DB972A11DAC2F19602012303FAED
:109ED00002F2531E0B4205D0002208E011F0004FA1
:109EE00055D128E00A4218BF012200D1022210F504
:109EF000000F13D028B3B0F1004F26D010F1814FDE
:109F00004FD04FF0FE42B2EB400F94BF0120002033
:109F1000012202EBE171884239D10CE011F0004FCF
:109F200002D0012A38D032E0012A02BF9FED350A63
:109F3000BDEC068B10BD9FED340ABDEC068B10BD49
:109F40002FE011F0004F0CD121E0B1F1FF4F1ED0F6
:109F500011F5000F05D011F0004F15D00AB1012AFC
:109F600008D00220F6F78BFEBDEC068BBDE8104052
:109F700000F05AB90220F6F782FE00F055F9BDEC68
:109F8000068BB1EE400A10BD0AB1012A04D0B0EE32
:109F9000690ABDEC068B10BDBDEC068B9FED1B0A5C
:109FA00010BDBDEC068BB7EE000A10BD30EE410AC5
:109FB000B5EE001A9FED172A00EE413AB6EE001AF0
:109FC00060EE001A00EE431A61EEC11A9FED101AFE
:109FD00020EE011A20EE020A9FED0F2A01EE820AFE
:109FE00071EE001A11EE900A00F500606FF30B009D
:109FF00009EE100A31EE491A31EE00AA9CE5000084
:10A00000FFFF3F00000080FF0000807F0000008015
:10A0100000B0B841D49A38BB3BAAB84100B510EEA5
:10A02000101A2DED028B81B0524A6846B2EB410FF7
:10A030002ED94FF0E640B0EB410F94BF00204FF017
:10A04000FF3000900098B0EE408A00286ADB10F0E4
:10A05000010F4BD068EE080A9FED471A9FED470AA3
:10A0600000EE810A9FED461A10F0020F00EE801AF2
:10A07000B7EE000A00EE810A02BF01B0BDEC028B10
:10A0800000BD00BF01B0B1EE400ABDEC028B00BDC7
:10A090003C4B21F00042934241D911F0004FDFEDDB
:10A0A0003A0A20EE201ADFED390A19BF31EE601AA4
:10A0B00071EE200A31EE201A71EE600ABDEEE01A50
:10A0C00011EE100A9FED321A00F0030000EEC10AF3
:10A0D0009FED301A009000EEC10A9FED2F1A00EE9E
:10A0E000C10A9FED2E1A00EEC10AABE728EE080A5E
:10A0F0009FED2B1ADFED2B0A10F0020F40EE410A04
:10A100009FED291A00EE201A61EE000AB0EE480A0F
:10A1100008EE200AB6D101B0BDEC028B00BD00F004
:10A12000B5F88FE718EE100A4000B0F17F4F0DD25E
:10A1300018EE100AFFF77CFA042808BF00F094F824
:10A14000B0EE480A01B0BDEC028B00BD09D1012080
:10A15000F6F795FD01B0BDEC028B5DF804EB00F065
:10A1600073B801B0B0EE480ABDEC028B5DF804EBA9
:10A1700000F064B8B61F927EB93AB2BACA9F2A3DBF
:10A18000DDFFFFBE490E494683F9223F0000004B28
:10A190000000C93F00A0FD390020A2331A61342C11
:10A1A000336D4C39DA82083CA0AA2ABE10B52DEDD9
:10A1B000028BB1EEC08A18EE100A20F00040C0F108
:10A1C000FF40C00F0AD010EE100A20F00040C0F18E
:10A1D000FF40C00F04BF0120F6F751FDB0EE480A62
:10A1E000BDEC028B10BD00009FED050B10B553ECCC
:10A1F000102B51EC100B03F0EBF941EC100B10BDE0
:10A2000000000000000000709FED050B10B553EC3E
:10A21000102B51EC100B03F0DBF941EC100B10BDCF
:10A220000000000000000010DFED030AB7EE001A86
:10A2300081EE200A704700000000000030EE000AA6
:10A24000704730EE200A7047DFED020A80EEA00A68
:10A2500070470000000000009FED020A20EE000A97
:10A2600070470000000000709FED020A20EE000A17
:10A27000704700000000001010B5044691ED000B7F
:10A28000FFF742FA84ED000A10BD00002DE9F0014D
:10A290004FF07F42B2EB410F9FBF4FF0FF310160A3
:10A2A000BDE8F00170474FF0004242EA0123C1F3DC
:10A2B000C752783A551112F01F0C434CCCF12006CE
:10A2C0007C44C1F3C752A2F178024FEA621204EB58
:10A2D000820254F8254008BFD2E9015612D05568D1
:10A2E00004FA0CF425FA06F73C43976805FA0CF5D6
:10A2F00027FA06F8D26807FA0CFCF24045EA08058E
:10A300004CEA0206A4FB034CA5FB0352A6FB036325
:10A310001D449D4234BF012600261319334416B153
:10A32000934202D903E0934201D2012200E00022CD
:10A33000624402F1200C9206DC0C42EA443200EE48
:10A34000102A5B03DFED210AF8EEC01A00EE103A86
:10A350004FEA9C1C11F0004FB8EE400AC0F800C054
:10A3600020EE201A00EE105ADFED190AB8EE400A6E
:10A3700020EE200A71EE810A70EE800A10EE902A1B
:10A3800002F500626FF30B0200EE902A70EEE11A04
:10A3900031EEC11ADFED101A30EE411A9FED0D0AB1
:10A3A00020EE800A01EE210A9FED0C1A00EE810AD0
:10A3B00004BFBDE8F0017047CCF180510160BDE8F9
:10A3C000F001B1EE400A70472C4A00000000003650
:10A3D0000000802C22AAFD29DB0FC92F0000C92F05
:10A3E00010B5084802232C220749FFF778F900210D
:10A3F0008165C16580F86010BDE81040034A0449DA
:10A40000FFF76BB950150020C9CD00080000000807
:10A41000F1CD000808B506212548FDF777FF4FF478
:10A42000165000900023032202212248FEF77CFDF3
:10A43000214A2249FFF751F91E48214B19221821C0
:10A44000D830FEF789FB1C4A1E49FFF746F91E4823
:10A45000FEF700F91C481030FEF7FCF84FF0FF3013
:10A46000009019480523062207212030FEF7FEFC44
:10A47000114A1649FFF731F913480121FC30FEF764
:10A48000FCF80B211248FEF7F8F8114A11481C3A63
:10A49000A2F1DC01FEF700FF0D480722BDE80840ED
:10A4A0009FED0D0A4FF480411C30FEF77BB8000091
:10A4B00090070020900A002000000008558F000837
:10A4C00040420F00D18B00084C0C0020098F00087F
:10A4D000640D0020200200200000000010B504469A
:10A4E00090ED000B0846FFF7FFF984ED000B10BD5F
:10A4F00010B500F023F810BD2DE9F0411D461646B9
:10A500000C46074600F05CFE641C0DD02946384618
:10A5100000F0BBFE0121384600F048FE31463846C7
:10A52000BDE8F04100F073BEBDE8F08130380A2884
:10A5300001D20120704700207047000002486A469F
:10A5400020F00700704700000F17002010B501F041
:10A550000DF901F07EF910BD70B5032817DB0D4928
:10A56000002201EB8001551E51F80C0D0A6050B11C
:10A57000016849698847040009D5F5F7DFFE6142A3
:10A580000160284670BDF5F7D9FE0921F8E70020E3
:10A5900070BD0000C411002070B54FF0FF350328D6
:10A5A00003DAF5F7CBFE05210DE00A4901EB800047
:10A5B00050F80C0C50B10168896A8847040004D532
:10A5C000F5F7BCFE61420160284670BDF5F7B6FEA6
:10A5D0000921F8E7C411002010B5032801DA012091
:10A5E00010BD0A4901EB800050F80C0C50B1016815
:10A5F000C96988470400F3D5F5F7A0FE6142016000
:10A60000002010BDF5F79AFE0921F8E7C4110020DB
:10A61000FEB50F4605464549F6F776FAC0B14349FF
:10A620002846C91DF6F770FAB0B1404928460F31E7
:10A63000F6F76AFAA0B13E4802F0B0FB00243D48AC
:10A64000661E50F8241079B1641C102CF9D30DE06B
:10A65000FBF796FE0020FEBDFBF792FE0120FEBD3B
:10A66000FBF78EFE0220FEBD102C08D3F5F766FE28
:10A67000182101602E4802F091FB3046FEBD3146A4
:10A68000064640F824102A4802F088FB0020029079
:10A6900028783A2813D029466846FEF7DBFD68463D
:10A6A000FEF7C6FD6FF0010560B16846FEF7C5FD17
:10A6B0000028684609D0FEF7B0FD029031E0D5F8D9
:10A6C0000100FAE72146284627E0FEF791FD002821
:10A6D000F8D0B90701D5022508E0790701D5012591
:10A6E00004E0390701D5092500E0002517F00C0F1B
:10A6F00001D045F40075790701D545F4806507461A
:10A700006846FEF7A5FD024638682B4602A9D0F838
:10A7100008C03846E04718B12146FCF7CFFDFEBD22
:10A72000029846F82400E01CFEBD000030E6000858
:10A7300058020020C411002070B515460C460328AD
:10A740000ADA1248006808B9FBF71AFE104801F04F
:10A75000B9FC207001240FE00E4901EB800050F895
:10A760000C0C58B101688B6821469847040003D54A
:10A77000F5F7E4FD61420160281B70BDF5F7DEFDD1
:10A78000092101604FF0FF3070BD0000640200201D
:10A7900004150020C411002070B50022551E0328A6
:10A7A00003DAF5F7CBFD1D210DE00A4B03EB80002A
:10A7B00050F80C0C50B103681B699847040004D58D
:10A7C000F5F7BCFD61420160284670BDF5F7B6FDA6
:10A7D0000921F8E7C411002070B515460E4603287C
:10A7E0000FDA1448006808B9FBF7CAFD002404E03A
:10A7F000315D114801F076FE641CAC42F8D32C4662
:10A800000FE00E4901EB800050F80C0C58B10168C4
:10A81000CB6831469847040003D5F5F78FFD6142B8
:10A820000160281B70BDF5F789FD092101604FF01B
:10A83000FF3070BD6402002004150020C411002008
:10A8400070B58AB005460E9C00200BB1012B25D1B6
:10A85000002001260796CDE9054013B1012B07D052
:10A8600012E04901CDE900105101CDE902100BE0E1
:10A870004B0BC906090E091DCDE90031510B0291A0
:10A88000D106090E091D0391049004F10E00CDE9D3
:10A89000086069462846F9F737F820460AB070BDC7
:10A8A000124A0068104B1149203298420BD10B68B4
:10A8B00043F000730B600B6823F000730B601368A8
:10A8C00023F0007313600A4B98420BD1086840F0E4
:10A8D00080600860086820F080600860106820F0E0
:10A8E0008060106070470000006400402038024023
:10A8F000006800402DE9F0410F460446F9F7A4FD39
:10A90000B0FBF7F2012600251820B2FBF0F081B26F
:10A9100023E0491C89B216204F1CC31C7B43934281
:10A9200003D0401E0028F8DCBDB12F4A4FF4E005EB
:10A9300002EBC00332F830009B884FF4702205EA26
:10A94000035502EA004005434FF0407000EA0660FC
:10A950000543C1F30900054304E0B1EB920FD8D3DE
:10A960004FF0FF3524680126002D39DD206840F0C6
:10A9700001002060F9F7FEF8074606E0F9F7FAF85B
:10A98000C01B022801D9002626E06068C007F5D068
:10A9900016B3E06915490840E061E0692843E061C9
:10A9A000206820F001002060F9F7E4F8054606E091
:10A9B000F9F7E0F8401B022801D9002603E060689F
:10A9C000C007F5D16EB9A06982B2A0693346010C07
:10A9D00007A000F063FB04E010A000F05FFB00E0C4
:10A9E00000263046BDE8F08178E5000800FC80FCD8
:10A9F00063616E2045535220203078253034782E04
:10AA000025303478202B2074696D656F7574207340
:10AA100074617475732025640000000063616E200A
:10AA2000696E697420726571756573742074696DDF
:10AA3000656F75740A0000002DE9F84F89460446D9
:10AA40009A4690463A49484601F082F80546394907
:10AA5000404601F07DF80146284601F05FF80546C2
:10AA6000401C0ED0344F35480026BD4210D101683D
:10AA700041F000710160006800F0007000906664B1
:10AA80001BE0BDE8F84F36222DA137A000F044BEF0
:10AA900039498D4249D1016841F000710160016876
:10AAA00001F000710091016841F08061016000686F
:10AAB00000F080600090012060641D49484601F06C
:10AAC00069F81C49404601F065F8B9F1FF3F03D031
:10AAD0000121484600F082FFB8F1FF3F03D0012179
:10AAE000404600F07BFFA661E66126626662A662D0
:10AAF000E6624FF4A020A660C4E903604FF4E000D2
:10AB000060610220C4F848A0C4E90050204600F06B
:10AB100089F9BD4201D1002000E00E200023009001
:10AB20001A4619462046FFF78BFEBDE8F88F000055
:10AB300004EA000840EA000800640040403802408F
:10AB40006D6265642D6465762F74617267657473D8
:10AB50002F5441524745545F53544D2F63616E5FEC
:10AB60006170692E6300000028696E742963616E4C
:10AB700020213D204E430000006800402DE9F041B7
:10AB800092B00C4600904069414DC043C007A5F10A
:10AB9000040627D1009881683E4888436ED0002083
:10ABA00000998A683C4991436AD00021009A9368D1
:10ABB0003A4A9A4366D0002210B1009F0123BB603D
:10ABC00019B1009F4FF48073BB601AB1009F4FF41E
:10ABD0008033BB600843104304D0326855F824002A
:10ABE000012190470098C068009910F0030F49694F
:10ABF000C1F3400105D021B1326855F8240000218D
:10AC00009047009880690099C0F340004969009A14
:10AC1000C1F340215269C2F3C03230B129B122B12F
:10AC2000326855F824000521904700988069C0F3E8
:10AC3000800700984069C0F3802800984069C0F3FD
:10AC4000C03047B1B8F1000F05D020B1326855F8D7
:10AC500024000721904700984069002FC0F3C030BE
:10AC600012D0B8F1000F0FD000280DD055F82400F5
:10AC7000326812B00221BDE8F041104701208FE791
:10AC8000012193E7012297E712B0BDE8F0810000AF
:10AC90002C02002003000004000300080000031041
:10ACA00001684A6948F213639A434A61406C024A58
:10ACB000002142F8201070472C020020034B19603D
:10ACC000406C191D41F82020704700002802002028
:10ACD00070B5274E0468F31398114500B44215D19E
:10ACE000082944D2DFE801F004080F43430C430E67
:10ACF000022314201F491EE0012313201E491AE0DD
:10AD0000034600E02B4616201C4914E01C4EB442BA
:10AD10002DD108292BD2DFE801F004080C2A2A13D0
:10AD20002A1502234020174905E001233F20164938
:10AD300001E016494220002A626905D01A4304E066
:10AD40000346F6E72B46F4E79A436261104A12681D
:10AD5000002802EB8002116409DB00F01F020121D0
:10AD600091404009800000F1E020C0F8001170BD62
:10AD7000006400407D3700089537000889370008D7
:10AD800000680040A1370008B9370008AD37000857
:10AD900008ED00E010B50368D86880073AD003EBEF
:10ADA0000210D0F8B041C4F380044C73002CD0F8EA
:10ADB000B04130D0E4080C60D0F8B041C4F3400496
:10ADC0008C73D0F8B44104F00F040C73D0F8B84180
:10ADD0000C71D0F8B841240A4C71D0F8B841240C59
:10ADE0008C71D0F8B841240ECC71D0F8BC410C72F3
:10ADF000D0F8BC41240A4C72D0F8BC41240C8C72AF
:10AE0000D0F8BC01000EC8723AB1186940F02000B9
:10AE10001861012010BD640DCDE7D86840F0200016
:10AE2000D860F6E710B50446F8F7EAFD10B107A0C0
:10AE300000F034F92046A16CFFF75CFD012804D036
:10AE4000BDE8104007A000F029B910BD43616E6E47
:10AE50006F7420696E697469616C697A6520434119
:10AE60004E00000043616E206672657175656E6309
:10AE70007920636F756C64206E6F74206265207337
:10AE800065740A000FB400688168490101D500218A
:10AE900008E08168090101D5012103E08168C9004A
:10AEA00041D5022100EB0110D0F8801101F0010121
:10AEB000C0F880119DF811209DF81210002AD0F8DA
:10AEC000802142EA010201992FD0042343EAC10103
:10AED0000A43C0F88021D0F8841121F00F01C0F896
:10AEE0008411D0F884119DF8102002F00F02114354
:10AEF000C0F884119DF80810DDF8092041EA02210C
:10AF0000C0F888119DF80C10DDF80D2041EA0221EF
:10AF1000C0F88C11D0F8801141F00101C0F8801107
:10AF2000012004B070470020FBE742EA4151C0F81D
:10AF30008011D0E7824201D2012300E000231046B5
:10AF4000002B02D0001C41F101017047EFF310808B
:10AF500040F30000401C704770B50C46054600F0F9
:10AF600015F82888001B84B22C8000F05FF820467A
:10AF700070BD70B50C46054600F008F828882044DE
:10AF800084B22C8000F052F8204670BD70B5FFF7F7
:10AF9000DDFF80F0010472B60B4D686800B92C70BB
:10AFA0006868401C04D1432208A111A000F0B4FB42
:10AFB000686828B124B9472204A117A000F0ACFBAF
:10AFC0006868401C686070BD440200206D62656462
:10AFD0002D6465762F706C6174666F726D2F6D6273
:10AFE00065645F637269746963616C2E630000005D
:10AFF000696E746572727570745F656E61626C659E
:10B000005F636F756E746572203C2055494E5433F2
:10B01000325F4D4158000000696E74657272757040
:10B0200074735F64697361626C65640010B50C4C85
:10B030006068002813D0FFF789FF90F0010F04D15A
:10B04000582208A110A000F067FB6068401E6060F5
:10B050006068002803D12078002800D162B610BDB6
:10B06000440200206D6265642D6465762F706C610A
:10B0700074666F726D2F6D6265645F637269746967
:10B0800063616C2E63000000696E74657272757086
:10B0900074735F64697361626C6564000FB408481F
:10B0A00010B50178002908D10121017003A9029887
:10B0B00000F0A6FB012000F005F810BC5DF814FBC1
:10B0C0004C02002004460548F5F795FB0448F5F7C7
:10B0D00092FB0CB100F05CFBFEE70000481600207C
:10B0E0009C1600200168002901DCF6F75CBA491EB5
:10B0F000016041684A1C4260087870478A68002AEB
:10B1000001DCF6F73EBB521E8A604A68C0B2531C8F
:10B110004B6010707047000010B582B01446CDE946
:10B1200000010023009A2360194B21F0004098424F
:10B130002ADA024328D0B0F5801FA8BF226810DAAF
:10B140009FED150B53EC102B9DED000B51EC100BEC
:10B1500002F03EFACDE900016FF0350221F0004027
:10B1600022600F4B6FF31E5103EB20501044206000
:10B1700041F0FF5040F0005001909DED000B00BFEA
:10B1800002B051EC100B10BD9DED000BF8E7000074
:10B190000000F07F000000000000000000005043AD
:10B1A00002FCFFFF0048704760E6000802460B0003
:10B1B000D2E9050102D00122F9F7D2BF0022FBE754
:10B1C00070B5044601820E46481C16D0C6F3031023
:10B1D000FAF70EFB0546304600F01EF86561206068
:10B1E000207C064900F00F0051F82000A06105F115
:10B1F000100060600830A060E06070BD7CEA00086C
:10B200000022AFF3008013460022FFF775B9B0F9B2
:10B21000100000F0E3BB000010B50446401C04D150
:10B22000742206A10FA000F077FA0021204600F05A
:10B230001BFB04F00F010120884010BD6D626564A6
:10B240002D6465762F746172676574732F54415253
:10B250004745545F53544D2F6770696F5F61706944
:10B260002E63000070696E20213D202850696E4ECB
:10B27000616D65294E430000026811B1806802606B
:10B280007047C068110401607047026811B180689E
:10B2900002607047C06811040160704710B5044631
:10B2A0000068016821F0400101602046F9F764FB65
:10B2B00010B106A0FFF7F2FEA068002804D12068B4
:10B2C000016841F04001016010BD000043616E6EF5
:10B2D0006F7420696E697469616C697A6520535076
:10B2E0004900000010B501464068164A02EB801084
:10B2F0000A6802608A684260CA6882600A69C2603D
:10B300004A6902610A6A82610022C261C28482843F
:10B31000C2858285B1F91A20521C0ED0B1F91810DD
:10B32000491C0CD00C214161F9F7DEFE002808D041
:10B33000BDE8104004A0FFF7B1BE0821F3E70421E7
:10B34000F1E710BD8412002043616E6E6F742069B6
:10B350006E697469616C697A6520554152540A00BE
:10B3600010B504464068007C002817D120680068AA
:10B3700080476168002002460860616848600146B5
:10B380006068C0E90212616801200874204601F07B
:10B390006FFC2046BDE8104000F05CBE10BD000010
:10B3A0002DED028BDFF864829FED970AADF5067DE7
:10B3B00088ED060A0026A8F11400C8F89C60FAF788
:10B3C000CFFF9FED938AB0EE480A01F09BFCA8F1F5
:10B3D000140401212068FDF747F9642001F0A3FC63
:10B3E00004F19401081FFBF7C5F900212068FDF75F
:10B3F0003BF9B0EE480A01F085FC4046FCF7D2FE6E
:10B4000004F53770FBF776FB8248016881F0020192
:10B410000160A4F10C00FCF71BFFB0EE480A01F03C
:10B4200071FC02211920FBF739FF03211420FBF7DF
:10B4300035FFA4F20C4500960023072204F5737033
:10B440006968FDF76DFB686804F598611030086065
:10B4500008200873103908736F4981A801F016FDA0
:10B460000146002204F57370FDF721FB81A801F06D
:10B470001DFDA4F20C542068FEF7EDF89FED678ADD
:10B4800008B184ED008A6068FEF7E5F808B184ED44
:10B49000018AA068FEF7DFF8614F50B994ED020A07
:10B4A00010EE100AB84204D0B5EEC00AF1EE10FA60
:10B4B00003D19FED5C0A84ED020AE068FEF7CBF849
:10B4C00050B994ED030A10EE100AB84204D0B5EE5C
:10B4D000C00AF1EE10FA03D19FED530A84ED030A7E
:10B4E000A069FEF7B8F810B9A069B84201D184ED9F
:10B4F000068A95ED010AB8EEC00A10EE100AFEF7B2
:10B50000AAF8012710B96868401C00D16F6095ED5A
:10B51000020AB8EEC00A10EE100AFEF79CF810B945
:10B52000A868401C00D1AE6095ED030AB8EEC00AD1
:10B5300010EE100AFEF78FF810B9E868401C00D131
:10B54000EE6094ED000A3948FCF70AFF94ED010A19
:10B550003648FCF708FF4FF40076314601A8F5F7AE
:10B56000ABFA3246324901A8F5F76CFA01A92F4827
:10B57000FDF712F82548FBF7B1FE4FF461212D4885
:10B58000FDF7F4F89FED2C8AB0EE480A01F0BAFB03
:10B5900028482AA1BC30FDF758FDB0EE480A01F05A
:10B5A000B1FB2DA0F4F758FF30A131A0F4F754FF00
:10B5B000D8E91F1234A0F4F74FFF206802F026FAF2
:10B5C00041EC100B3AA053EC102BF4F745FF6068E8
:10B5D00002F01CFA41EC100B41A053EC102BF4F7D5
:10B5E0003BFF47A06968F4F737FF494981A801F09C
:10B5F0004DFC014600220F48FDF7CDF881A801F06F
:10B6000055FC4448C760FEE76666E641B007002087
:10B61000CDCCCC3D000001401168000800000000C6
:10B62000000080BF00007A4400002042800D00200E
:10B63000A4030020900A00200AD7233C0A0D0A0D1B
:10B6400020486F6262794B696E6720436865657454
:10B6500061680A0D0A0D00000A0D204465627567D5
:10B6600020496E666F3A0A0D00000000312E390045
:10B67000204669726D776172652056657273696FD5
:10B680006E3A2025730A0D002041444331204F6655
:10B69000667365743A20256420202020414443329B
:10B6A000204F66667365743A2025640A0D00000019
:10B6B00020506F736974696F6E2053656E736F727B
:10B6C00020456C656374726963616C204F666673B4
:10B6D00065743A202020252E34660A0D00000000F3
:10B6E000204F7574707574205A65726F20506F7397
:10B6F0006974696F6E3A2020252E34660A0D0000A9
:10B700002043414E2049443A202025640A0D000080
:10B71000AD6C00080802002070B514460D460646C0
:10B72000FFF734FC23462A46314603A000F05EF8BA
:10B73000BDE8704000F02CB86D62656420617373E1
:10B740006572746174696F6E206661696C65643AD4
:10B750002025732C2066696C653A2025732C206C9B
:10B76000696E65202564200A0000000030B5074C92
:10B770002268A3061946002052F8205041F82050B4
:10B78000401C7128F8DB236030BD000008ED00E0AC
:10B7900088B0FFF7FBFB05216846FFF731FD4FF44A
:10B7A000C875002401216846FFF766FD962001F068
:10B7B000B5FA00216846FFF75FFD962001F0AEFA6A
:10B7C000641C042CEEDB002401216846FFF754FDC5
:10B7D000284601F0A3FA00216846FFF74DFD2846F0
:10B7E00001F09CFA641C042CEEDBDAE70FB410B510
:10B7F00003A9029800F004F810BC5DF814FB0000E7
:10B8000070B5A0B00C460546FFF7C0FB23462A469C
:10B8100080216846F4F700FE051E11DD0A48006825
:10B8200020B903220221094800F05EFC00246E4684
:10B8300004E0315D054800F055FE641CAC42F8DBC5
:10B84000FFF7F4FB20B070BD640200200415002057
:10B85000704710B5FAF74AF8F8F79AF9F9F767FF61
:10B86000BDE81040FAF742B82DE9F05F04460F46F4
:10B87000401C04D13E2248A151A0FFF74DFFDFF844
:10B8800054B104F00F0907F00706C7F3032AC4F305
:10B8900003105BF829800025F9F7AAFF83680446A6
:10B8A000022298FAA8F0B0FA80F04FEA400C032088
:10B8B00000FA0CF0834398FAA8F0B0FA80F0400048
:10B8C00082401343A36056B1012E1ED0022E1ED01B
:10B8D000032E4CD0672230A13FA0FFF71DFF216847
:10B8E00098FAA8F2B2FA82F2530003229A4098FA28
:10B8F000A8F0B0FA80F040009143854029432160D0
:10B90000012E36D0022E34D03DE00125E7E7022596
:10B910005BF829100F23B9F1070F14D9626A090ADD
:10B9200091FAA1FCBCFA8CFC4FEA8C0C03FA0CF3E4
:10B9300091FAA1F1B1FA81F189009A430AFA01F072
:10B9400002436262CBE7226A91FAA1FCBCFA8CFC4A
:10B950004FEA8C0C03FA0CF391FAA1F1B1FA81F1E0
:10B9600089009A430AFA01F002432262B7E70325ED
:10B97000B5E7F810C00701D0012200E000224146DF
:10B980002046F9F700FCC7F3011241462046BDE806
:10B99000F05F01F0BEB800006D6265642D646576ED
:10B9A0002F746172676574732F5441524745545F19
:10B9B00053544D2F70696E6D61702E63000000004E
:10B9C00070696E20213D202850696E4E616D652999
:10B9D0004E4300007CEA0008300000002DE9F041F1
:10B9E00005460C46401C04D188221FA128A0FFF761
:10B9F00093FE2C4A05F00F01C5F3031052F82160A5
:10BA0000F9F7F6FE0746006806FB06F505EB45016B
:10BA10000840B0FBF5F0012801D0022810D1042C19
:10BA200009D0032C07D0052C05D00022314638461A
:10BA3000F9F7A9FB06E0012231463846F9F7A3FBE6
:10BA4000032C0CD0012C0AD0052C0AD0022C08D0D3
:10BA5000002231463846BDE8F04101F05AB80122D3
:10BA6000F7E70222F5E700006D6265642D646576F4
:10BA70002F746172676574732F5441524745545F48
:10BA800053544D2F70696E6D61702E63000000007D
:10BA900070696E20213D202850696E4E616D6529C8
:10BAA0004E4300007CEA000804E0824201D188682D
:10BAB00070470C31B1F90020531CF6D1581E704765
:10BAC00004E0824201D1486870470C31B1F900208E
:10BAD000531CF6D1581E704710B54FF0FF33421C6F
:10BAE00005D0FFF7E1FF0446401C02D004E01846F1
:10BAF00010BD02A0FFF7D2FA204610BD70696E6D2E
:10BB00006170206E6F7420666F756E6420666F7250
:10BB10002066756E6374696F6E00000010B5884210
:10BB200008D0421C07D0491C04D004A0FFF7B6FA85
:10BB30004FF0FF3010BD084610BD000070696E6DFB
:10BB40006170206D69732D6D617463680000000081
:10BB500010B54FF0FF33421C05D0FFF7B1FF04468C
:10BB6000401C02D004E0184610BD02A0FFF796FA70
:10BB7000204610BD70696E6D6170206E6F74206616
:10BB80006F756E6420666F7220706572697068658B
:10BB900072616C0010B50446401C16D00CE0A24245
:10BBA00009D189682046FFF75FFE2046BDE81040B6
:10BBB0000021FFF713BF0C31B1F90020501CEED16A
:10BBC000BDE8104001A0FFF769BA10BD636F756C46
:10BBD00064206E6F742070696E6F757400000000D1
:10BBE000F8B50E46044661493046FFF7B1FF2060C4
:10BBF000401C04D12E225EA168A0FFF78DFD5B4999
:10BC00003046FFF769FF0546401C04D1322258A197
:10BC100068A0FFF781FDC5F304302075C5F34040EF
:10BC200060756B4A20686B490025904207D108680F
:10BC300040F001000860086800F0010000906548CD
:10BC40002268001FB2F1804F07D1026842F0010262
:10BC50000260026802F0010200925F4B22689A4281
:10BC600007D1026842F002020260026802F002029A
:10BC700000925A4B22689A4207D1026842F00402AD
:10BC80000260026802F004020092554B22689A4258
:10BC900007D1026842F008020260026802F008025E
:10BCA0000092504B22689A4207D10A6842F0020281
:10BCB0000A600A6802F0020200924B4B22689A4224
:10BCC00007D10A6842F480320A600A6802F48032BE
:10BCD0000092464B22689A4207D10A6842F4003229
:10BCE0000A600A6802F400320092414B22689A42CC
:10BCF00007D10A6842F480220A60096801F48021B1
:10BD000000913C4A2168914207D1016841F040010D
:10BD10000160016801F040010091374A21689142B9
:10BD200007D1016841F080010160016801F08001E4
:10BD30000091324A2168914207D1016841F4807133
:10BD40000160006800F48070009008493046FFF7F9
:10BD500021FFA680E56001202561A0602046BDE8A6
:10BD6000F84044F6206100F04BB8000068E6000897
:10BD70006D6265642D6465762F7461726765747396
:10BD80002F5441524745545F53544D2F70776D6F78
:10BD900075745F6170692E63000000006F626A2D28
:10BDA0003E70776D20213D202850574D4E616D65C6
:10BDB000294E430066756E6374696F6E20213D20C5
:10BDC0002875696E7433325F74294E430000000099
:10BDD00000000140443802400004004000080040D8
:10BDE000000C0040000401400040014000440140BC
:10BDF0000048014000180040001C004000200040A6
:10BE00002DE9F04F484D04462DED028B87B00068B8
:10BE100028604FF0000A89462046CDF800A000F0C7
:10BE2000A1F82868B0EE408A0026016A41F211129A
:10BE3000114207D1016A9210114203D1016821F029
:10BE400001010160694601A8F8F7DEFA374F206862
:10BE500001E0761CF6B257F836108142F9D111B9DB
:10BE600033A0FFF71BF907EBC6000079C0B1F8F764
:10BE700003FB009005990120A060DFF8CCC000987A
:10BE800001B14000B0FBFCF0A9F10103401EEB60E2
:10BE90006860009F4FF6FF7B7E004FF4803220E009
:10BEA000F8F7D2FA00900499E5E7A0684000A06096
:10BEB000A1B1B6FBFCF808FB00F8A8F10108C5F831
:10BEC0000480A068B3FBF0F0E860584509D26868C8
:10BED000904206D31DA0FFF7E1F808E0B7FBFCF89D
:10BEE000E9E7E8689042E0D268689042DDD2C5F8A0
:10BEF00010A00D48C5F808A0F9F720F810B113A05C
:10BF0000FFF7CCF8B0EE480A2046C4F80C9000F0D9
:10BF100041F82868016841F00101016007B0BDECFB
:10BF2000028BBDE8F08F000020120020BCEA000860
:10BF3000556E6B6E6F776E2050574D20696E73741F
:10BF4000616E63650000000040420F0043616E6E49
:10BF50006F7420696E697469616C697A65205057E5
:10BF60004D0A00009FED0A0AC16849B190ED040A2C
:10BF7000F8EE400A00EE101AB8EE401A80EE810A80
:10BF800010EE100AB0F17E5F01DDB7EE000A7047D7
:10BF90000000000030B5B5EEC00A00252549044672
:10BFA000F1EE10FA87B00068086002D29FED220A15
:10BFB00006E010EE100AB0F17E5F01DDB7EE000A78
:10BFC000D4ED030A6020F8EE600A20EE800ABCEE91
:10BFD000C00A84ED040A0090A1682069B0FBF1F06A
:10BFE0000190002002900490059003900690207D1F
:10BFF000012806D0022816D0032816D0042810D114
:10C000000C252A4669460B48F8F730FF10B10BA003
:10C01000FFF744F8607D29460028064807D0F8F766
:10C02000DBFE07B030BD0425EBE70825E9E7F8F7AC
:10C03000A1FFF6E7201200200000000043616E6EB1
:10C040006F7420696E697469616C697A65205057F4
:10C050004D0A00002DE9F041044600F009FE666833
:10C060004FF0E040716881B1D6E90232D1E9005168
:10C070005F1B72EB01071AD2EB1A61EB0201024659
:10C080009A1A71F1000100D21846D6E90226151855
:10C09000206846F10006016928468847204600F0DE
:10C0A000E7FD6068D0E90210491BB04104D3206865
:10C0B0004069BDE8F0410047BDE8F0818160FFF7CD
:10C0C00011B9000070B504464068064901EB8015BF
:10C0D000204600F01BFA0028FAD028684068C0F318
:10C0E000080070BD841200202DE9F8430E46044676
:10C0F00015466C493046FFF72BFD07466A4928462E
:10C10000FFF726FD01463846FFF708FD2060401C7A
:10C1100004D13E2265A174A0FFF7FEFADFF8E4C166
:10C120002068794B784A20330027A0EB0C014FF0B0
:10C13000010860457DD009DC7449401823D0B0F572
:10C14000806F33D0B0F5006F54D141E06E486E4A35
:10C15000001D2432B1F5404F03D0B1F5444F49D111
:10C160008BE0016841F010010160016821F01001CD
:10C170000160106840F010001060106800F01000BE
:10C180000090676036E0106840F40030106010687E
:10C1900020F400301060186840F40030186018680F
:10C1A00000F400300090C4F8048023E0106840F4EC
:10C1B00080201060106820F480201060186840F41F
:10C1C000802018601868022100F48020009010E0A0
:10C1D000106840F400201060106820F40020106007
:10C1E000186840F4002018601868032100F400204B
:10C1F000009061602B493046FFF7CCFC2A49284665
:10C20000FFF7C8FC701C03D001213046FFF7E6FBA6
:10C21000681C03D001212846FFF7E0FB4FF41651BC
:10C22000C4E9021727616761276226832046658378
:10C2300000E010E0FFF756F8344920684942884290
:10C240002DD133494C223348C1F800802146BDE846
:10C25000F843F4F7F7BB106840F4801010601068E2
:10C2600020F480101060186840F48010186018687E
:10C27000042100F480100090BBE7016841F0200128
:10C280000160016821F020010160106840F0200089
:10C2900010601068052100F020000090A9E7BDE8BB
:10C2A000F8830000C4E7000830E800086D626564A8
:10C2B0002D6465762F746172676574732F544152D3
:10C2C0004745545F53544D2F5441524745545F5393
:10C2D000544D333246342F73657269616C5F646507
:10C2E000766963652E6300006F626A5F732D3E7529
:10C2F00061727420213D2028554152544E616D6574
:10C30000294E4300005000402038024000BCFFBFCF
:10C310006402002004150020034B59604068034963
:10C3200041F8202070470000640200205C120020C9
:10C33000F8B5054640683B4901EB801600200090A7
:10C3400004463068AF6B0168C943490608D4C16828
:10C35000490605D5E9694A0702D501F004010091B3
:10C360000168C943C90708D14169C90705D0A98B2C
:10C37000009A01F40061114300910168C9438907E3
:10C3800008D44169C90705D0A98B009A01F48061DE
:10C39000114300910168C943090708D44069C007E7
:10C3A00005D0A88B009900F4007008430090304637
:10C3B000F8F712FE0098000531D4009840052ED4FD
:10C3C000009880052BD4B08D10B1F18D411A2964ED
:10C3D000F08D50B9D5E90F01401E814205D3A88BDD
:10C3E000009900F4807008430090A88B800416D553
:10C3F000AFB1286C11E03A5D95F848108A420AD135
:10C400002C64A88B009900F4005008430090284643
:10C4100000F090F803E0641CE4B2A042EBD800986E
:10C42000F8BD000084120020F0B406464368254899
:10C4300000EB831500200446062B15D2DFE803F03D
:10C440000306090C0F1225201F4C0DE026201F4C5F
:10C450000AE027201E4C07E034201E4C04E0352063
:10C460001D4C01E01D4C47207368164E06EB8313EC
:10C470001B6882B10029D9680AD041F08001D960D7
:10C480001749096801EB80010C64F0BCFDF718B98D
:10C4900041F02001F3E70029D9680AD021F080019A
:10C4A000D9602968C9688906002909DBF0BCFDF755
:10C4B000E5B821F02001D9602968C9680906F3E7C9
:10C4C000F0BC704784120020E5CB0008EBCB0008DD
:10C4D000F1CB0008F7CB0008FDCB000803CC000827
:10C4E00008ED00E070B50E4604464068064901EBD1
:10C4F0008015204600F048F80028FAD02968C6F3D5
:10C500000800486070BD00008412002008B5406833
:10C51000074901EB801000680168090702D501682E
:10C52000416800910068C04340F34010401C08BDC2
:10C530008412002008B54068124901EB80100168A0
:10C54000CA6822F02002CA600168CA6822F48072B8
:10C55000CA6001684A6922F001024A6102686FF00C
:10C56000200111600168496800910021C18590F89F
:10C570003A10232903D0202180F83A1008BD212148
:10C58000FAE70000841200204068054901EB8010A2
:10C5900000680068C04340F3C010401C70470000B2
:10C5A0008412002010B5FEF7F1FC09480088A0F5C0
:10C5B0007F41FF3904D1FEF739FD06A0FEF76EFD7D
:10C5C00001210348FEF7D5FCBDE81040FEF72EBD63
:10C5D000600200204465657020736C656570206C96
:10C5E0006F636B20776F756C64206F766572666C15
:10C5F0006F7720283E2055534852545F4D415829AB
:10C600000000000010B5FEF7C1FC0848008820B902
:10C61000FEF70CFD06A0FEF741FD01210348FEF7E1
:10C620009BFCBDE81040FEF701BD00006002002049
:10C630004465657020736C656570206C6F636B205A
:10C64000776F756C6420756E646572666C6F7720A9
:10C65000283C20302900000030B4102912D00021DD
:10C66000C16000218AB10125012A11D00224022AC9
:10C6700011D0C0E904458169B1F5007F11D06BB1DB
:10C6800000210DE04FF40061EAE701614161F2E74A
:10C69000C0E90415EFE7C0E90441ECE74FF480215D
:10C6A00081610BB1002101E04FF48271416030BC27
:10C6B000FEF7F4BD2DE9F0410F460646002407259C
:10C6C00000F018F800EBD070401004E000EBD070E0
:10C6D0004010641CE4B2B84201DDAC42F6D3044819
:10C6E00030F814103046F161BDE8F041FEF7D6BDD8
:10C6F00044EB000810B5C06D0C490024411810D05F
:10C70000B1F5806F0DD0B1F5784F07D0B1F57C4F02
:10C7100004D007A0FEF7C2FC204610BDF7F7ACFE20
:10C7200001E0F7F791FE0446F6E7000000C8FFBFFE
:10C73000434C4B3A2053504920696E7374616E63C9
:10C7400065206E6F74207365740000002DE9F84F4A
:10C75000894604469A461546514948460A9EFFF7BF
:10C76000F7F900904F492846FFF7F2F907464E497E
:10C770005046FFF7EDF983464C493046FFF7E8F99C
:10C78000804639460098FFF7C9F9074641465846A2
:10C79000FFF7C4F901463846FFF7C0F9E065401CD1
:10C7A00004D16A2242A14DA0FEF7B6FF524AE16DC4
:10C7B0005248002791420AD1016841F4805101603A
:10C7C0000168232201F48051009184F858204B49DC
:10C7D0004B4BE26D091F9A420AD10A6842F480422B
:10C7E0000A600A68242302F48042009284F85830D8
:10C7F000444BE26D9A420AD10A6842F400420A6050
:10C800000968332201F40041009184F858203E4A1F
:10C81000E16D91420AD1016841F400510160006864
:10C82000542100F40050009084F858101C494846E8
:10C83000FFF7B0F91B492846FFF7ACF91A495046F3
:10C84000FFF7A8F9A4F86050A4F86290A4F864A0D7
:10C85000A4F86660701C04D014493046FFF79AF9BA
:10C8600002E04FF40071A161E16D21604FF482712B
:10C87000616038212046E1616D1C01D0A76002E0B3
:10C880004FF40041A160676107212761C4E90A7183
:10C89000E76027626762BDE8F84FFEF7FFBC000063
:10C8A0009CE8000808E9000850E90008B0E9000821
:10C8B0006D6265642D6465762F746172676574734B
:10C8C0002F5441524745545F53544D2F73746D5F3D
:10C8D0007370695F6170692E630000007370696F27
:10C8E000626A2D3E73706920213D20285350494EC5
:10C8F000616D65294E43000000300140443802401C
:10C9000000380040003C00400034014070B504464F
:10C910000025F7F7C7FF94F85100012811D1606D89
:10C9200028B10A4D400704D5084D083501E0074DF0
:10C93000AD1C94F95800FCF7B2FE94F95800FCF7CE
:10C9400090FEA06E40F08040284070BD0200004084
:10C950002DE9F0478846C168089E994692460746E9
:10C96000B1F5006F06D000213B4680F86C8019B10C
:10C97000740802E00121F7E7344693F9585028463D
:10C98000FCF78DFE2846FCF76CFE1020002D04DB22
:10C9900005F1E02181F8000405E005F00F0101F147
:10C9A000E02181F8140D0DDB05F01F014FF00100AF
:10C9B00000FA01F04FEA55114FEA810101F1E0213F
:10C9C000C1F800014046B8F1010F0BD002280FD08A
:10C9D000B8F1030F18D1A3B24A4651463846F8F7CA
:10C9E0003DF910E0A2B251463846F8F799F90AE04D
:10C9F0004FF6FF7231464846F4F756F8A2B2494660
:10CA00003846F8F701F800B100263046BDE8F08757
:10CA10002DE9F84FDDE90C9A0A9C11B10AB1012504
:10CA200000E0002513B10CB1012600E00026C76824
:10CA3000B7F5006F0CD0002755EA060C35D000F191
:10CA400070084FF0000C88E806101FB1102702E0B4
:10CA50000127F1E7082780F87C708030DFF85C80E0
:10CA6000A0E8181000F8247940F810A9D8F8008040
:10CA700010F95879354208EB8707C7F840900BD07A
:10CA8000A24200D3224602D04267C0F8842000921E
:10CA90000A464FF0030106E04DB100920A464FF0FE
:10CAA00000034FF00101FFF753FFBDE8F88F002EA0
:10CAB000FBD0002202210094F5E7000008ED00E021
:10CAC00013B58168B1F5004F0DD0C16D8A68C2F30E
:10CAD0004002002AFAD0C4684FF40063019A9C42D5
:10CAE00007D192B206E00A23012201A9F7F7EFFF6E
:10CAF0001CBDD2B2CA60C16D8A68C2F30002002AAE
:10CB0000FAD0C0689842C86801D180B21CBDC0B2DA
:10CB10001CBD012A02D0022A00D00022F8F739BB3E
:10CB200070B504460068C068804760684068A0B17E
:10CB3000204600F09DF861684A68D1E90230D2E9E8
:10CB400000565B1BB04108D3D0684860606801683C
:10CB50000029EAD090688847E7E72046BDE87040A2
:10CB6000FFF778BA10B500F001F810BD10B5044613
:10CB7000FEF7F6FB204600F07BF86168D1E9020180
:10CB800010BD000070B5154D28680169C9438907BB
:10CB900008D4C168C943890704D46FF00201016158
:10CBA00000F094F828680169C943490715D4C168A1
:10CBB000C943490711D46FF0040101612868446A30
:10CBC000074E3068201AB0F57A7F06D3F6F7D8FF03
:10CBD000296804F57A708863346070BDB41500204C
:10CBE00040020020002000F00FB8012000F00CB837
:10CBF000022000F009B8032000F006B8042000F07D
:10CC000003B80520AFF30080F8B505461648A0F13B
:10CC1000280600EB851456F82500002822D021684C
:10CC20000A68124FD243120605D4C968090602D514
:10CC30007A680121904720680168C943890607D4B2
:10CC4000C068800604D57A6856F825000021904710
:10CC500020680168C943090704D44169C90701D0A4
:10CC600040680090F8BD000084120020640200209B
:10CC700010B5044600684068804702466068D0E905
:10CC800002311846FEF756F96268C2E9020110BD8A
:10CC900002496FF00200096808617047B41500206E
:10CCA00003480068C16821F00201C16070470000BC
:10CCB000B415002003480068416941F00201416158
:10CCC00070470000B4150020704700000148FFF7CE
:10CCD00027BF000060E600080148006870470000B8
:10CCE000240C0040064A1168CB6823F00203CB6095
:10CCF000116848631068C16841F00201C160704763
:10CD0000B4150020DFED040A20EE200ABDEEC00AB3
:10CD100010EE100A00F007B8002474494FF47A713D
:10CD20004843AFF3008070B50546FEF73BFA064670
:10CD3000FFF718FF04463046FFF714FF001BA84218
:10CD4000F9D370BD10B500290AD00878002807D0A3
:10CD500005487844F3F7D8FE002801D0002010BD24
:10CD60000248784410BD0000662300005E230000E6
:10CD700010B500290AD00878002807D00548784463
:10CD8000F3F7C2FE002801D0002010BD024878440D
:10CD900010BD0000562300004E23000010B50446CD
:10CDA000006808B9201D20602168201D814204D040
:10CDB0005B2203490348FEF7AFFC206810BD00006A
:10CDC000BCEF0008A8EF000810B504460020206062
:10CDD0002821201DF3F770FE201DFBF7F6FD001F34
:10CDE00010BD10B5183000F034F8183810BD000030
:10CDF00010B5044602232C220249F3F7D7FE204641
:10CE000010BD0000E3CD00080268084610477047D7
:10CE1000002801D00968016070470000002229B194
:10CE2000C0E900120449C0E9022170470260426073
:10CE30008260C26070470000E0EF000870B5CA6809
:10CE40000C4605460AB152689047E068E8602846FB
:10CE500070BD10B5C168044609B18968884720468D
:10CE600010BD70B50D460446A84205D0FFF7F1FF8E
:10CE700020462946FFF7E2FF204670BD00680047C4
:10CE80007047002801D0096801607047002229B16D
:10CE9000C0E900120449C0E9022170470260426003
:10CEA0008260C26070470000ECEF000810B5C168F6
:10CEB000044609B189688847204610BD70B50C4604
:10CEC0000546A0420AD0FFF7F1FFE16819B14A68B0
:10CED000214628469047E1682846E96070BD30B495
:10CEE00000280FD0136823B95468E5070AD0002C36
:10CEF00008D0526800EB6200D20701D00268D35814
:10CF000030BC184730BC704730B400280FD01368CD
:10CF100023B95468E5070AD0002C08D0526800EB0A
:10CF20006200D20701D00268D35830BC184730BC29
:10CF30007047000070B50446C0680D4628B940F23D
:10CF40004D4205490548FEF7E7FBE06829460268BF
:10CF50002046BDE870401047FDEF0008F8EF0008DC
:10CF6000C068002800D001207047C068002800D0A9
:10CF70000120704721F00042A2F16052B2F5801FFB
:10CF800001F0004328BFD2F17F6C0BD95FEA001C8F
:10CF900043EAC20242EB507018BF704728BF20F02E
:10CFA00001007047B2F5801FBCBF184670474FEABA
:10CFB000410C1CF5001F02D2084600F017BE70B5E8
:10CFC00000F0B0FB00000089FFF7F6BF4FF0004013
:10CFD000A0F580007047000010B591EA030F48BF2C
:10CFE00083F0004300F13084841A71EB030C05D206
:10CFF000121943EB0C03001B61EB0C01DFF824E179
:10D000004FEA1154A4EB135C1EEA430F18BF9EEACB
:10D01000445F73D023EA0E03DCF1200E21EA0451B1
:10D0200043F4801332D322FA0CFE10EB0E0023FAE5
:10D030000CFE41EB0E01CCF1200E03FA0EFE10EBBC
:10D040000E0051F10001B1F5801FCCF1200E32D25B
:10D0500001EB045112FA0EF2BDE8104058BF7047C0
:10D06000401C38BF5FEA420218BF7047002814BF57
:10D0700020F0010041F100014FEA410313F5001FC8
:10D0800038BF7047A1F1C04100F09ABB012A43EBC1
:10D090000302ACF1200CDCF11F0E32BF4FF0000E8A
:10D0A00023FA0CF310EB030041EB0451B4EB115FD6
:10D0B000D0D0A1EB045101F5801149085FEA30009E
:10D0C00001EB04510ED350F1000038BF12FA0EFEEE
:10D0D00008D1BDE81040C9E7401C38BF5FEA4202F2
:10D0E000CAD1C3E7BDE810404FEA410313F5001F62
:10D0F00038BF7047A1F1C04100F062BB9EEA445FB7
:10D1000008D011EA5E0FBDE8104004BF01F00041F5
:10D1100000207047BDE8104070B500F003FB00BF71
:10D1200064FBBE3E0000E0FF02494FF0000000F04B
:10D13000A5BD00BF0000F87F491058BFC1F14041B4
:10D140005B1058BFC3F140438B42EFF30080704740
:10D150002DE9C04130B4DFF8A0C23CEA111418BF79
:10D160003CEA131400F0EC8081EA03051CEA111478
:10D1700044EAD57418BF1CEA131500F0C780A4EB6D
:10D1800005044FF0004545EAC12145EAC32341EAC1
:10D19000505143EA525304F17F74994204F500342C
:10D1A0004FEAC0204FEAC22208BF904200F09C80A4
:10D1B0004FEA13650FF24016765D4FEA134506FB02
:10D1C00005F7C7F1807706FB07F74FEAD737A7FBCC
:10D1D00003687642C8F58038A7FB06CE38BFA8F1B1
:10D1E000010807FB08E64FF0000EA6FB028CE6FBE9
:10D1F00003CEDCF1000CCEF1004E38BFAEF1010ED3
:10D20000A6FB0C584FF000074FF00005E6FB0E8719
:10D21000A1FB08C6A0FB07CE16EB0E0645F10005E4
:10D22000E1FB076515F1E04E7EBFA4F580345FEAAF
:10D2300046066D4116F1800745F100054FEA1727B4
:10D240004FEA066647EA0567A6F1DE46B6F1805F5B
:10D250004FEA15251FD9384624F0010C05EBC4719F
:10D26000BCF1FE6F01EB0C1102D8F0BCBDE80081EF
:10D2700024425CBF01F5801E9EEAC47F02D4F0BC4C
:10D28000BDE80081244238D4F0BCA1F1C041BDE822
:10D29000004100F095BA4FEAD22242EA43524FEAE7
:10D2A000D323A7FB02864FEAD02040EA415007FB78
:10D2B00003661EEA0E0F4FEAD12105FB026658BF36
:10D2C000A6EB0056B6EB00564FEA520E4EEAC37E6E
:10D2D00018EB0E0E56EB530EBDD518EB02085E414F
:10D2E0007F1C55F10005B6E74FF480154FF000079D
:10D2F0004FF000064FF00008ADE7F0BC4FF0000023
:10D3000001F1C04101F00041BDE8008111EA0C1FAC
:10D310000CEA131500D00CE013EA0C1F00F0258076
:10D320004FF00000F0BC81EA030101F00041BDE8CC
:10D330000081F0BCBDE8004181EA030100F040BA81
:10D34000F0BCBDE8004170B500F0ECF9097EFC3E90
:10D3500000F007B881EA03014FF0000001F000413E
:10D36000704781EA030100F02BBAF0BCBDE8004130
:10D370004FF0000021497047FFFDFBF9F7F5F4F28B
:10D38000F0EEEDEBE9E8E6E4E3E1E0DEDDDBDAD860
:10D39000D7D5D4D3D1D0CFCDCCCBCAC8C7C6C5C4BE
:10D3A000C2C1C0BFBEBDBCBBBAB9B8B7B6B5B4B3D5
:10D3B000B2B1B0AFAEADACABAAA9A8A8A7A6A5A4C0
:10D3C000A3A3A2A1A09F9F9E9D9C9C9B9A99999884
:10D3D0009797969595949393929191908F8F8E8E27
:10D3E0008D8C8C8B8B8A89898888878786858584B4
:10D3F00084838382828181800000FF070000F87FA0
:10D4000051EA030C17D41CF5801F58BFBCF5801FD0
:10D4100000F10680994218BF704708BF90427047DC
:10D4200007D711F5801F58BF13F5801F19D49942F3
:10D430007047894270471CF5801F08D5BCF5801FD6
:10D44000F7D58B4218BF704708BF824270474FF430
:10D45000001C1CEB410F38BF1CEB430F01D28B4269
:10D46000704770B500F05EF9922449004FF000510A
:10D470004FF08053FFF760BE4FEA41034FEA53532A
:10D48000A3F58063D3F11E03C8BFD3F1210C0CDDDB
:10D490004FF0004242EAC12242EA505232FA03FC03
:10D4A0008CEAE17CACEBE1707047102BC4BF00202C
:10D4B000704703F5787CBCF1FF3F04D06FF0004269
:10D4C00082EA2100704770B500F02CF9499224805F
:10D4D00000207047F2E700004FEA1153A3F5806384
:10D4E000D3F11E03A8BFD3F1200C08DB4FF000429C
:10D4F00042EAC12252EA505232FA03F0704709421E
:10D500000BD4102BC4BF0020704703F5787CBCF10E
:10D51000FF3F05D04FF0FF3070474FF000007047DD
:10D5200070B500F0FFF800BF4992248000207047DA
:10D53000F0E7B0FA80F310FA03F10AD0C3F11D034B
:10D5400003F580634FEA41504FEA035202EBD121C9
:10D5500070474FF00000704751EA030C17D41CF5D8
:10D56000801F58BFBCF5801F00F10680994218BF8C
:10D57000704708BF9042704707D711F5801F58BF0A
:10D5800013F5801F19D499427047894270471CF5E2
:10D59000801F08D5BCF5801FF7D58B4218BF704798
:10D5A00008BF824270474FF4001C1CEB410F38BF8C
:10D5B0001CEB430F01D28B42704770B500F0B2F8FC
:10D5C000922449004FF000514FF08053FFF7B4BD53
:10D5D000DFF848C170B51CEA111E1EBF1CEA131506
:10D5E0009EEA0C0F95EA0C0F00F06F8081EA0304AD
:10D5F00023EA4C134EEAD47E21EA4C1141F4801107
:10D6000043F48013AE44A1FB024CA0FB0365AEF1D2
:10D610007F7E361955EB0C05A1FB034C4CF1000342
:10D62000A0FB021C16EB0C06654153F100030942F6
:10D6300018BF46F0010613F4007F0BD14FEA033107
:10D640004FEA0530340341EA155140EA16506FF0B5
:10D6500003020AE04FEAC3214FEAC520F40241EA7F
:10D66000555140EA56506FF0020202EB2E4201EB98
:10D67000025585EACE710AD05FEA440C18BF24F047
:10D68000004450F1000041F1000120EAD47040F262
:10D69000FE7C624500D270BDA84214BF4FF08044AA
:10D6A0004FF04044002E08BF0024BEF1806FA8BF99
:10D6B000A1F1C041BDE8704080F282804FF00000CF
:10D6C00001F1C04101F0004170479EEA0C0F0CEAE5
:10D6D000131518BF95EA0C0F06D04FF0000081EA31
:10D6E000030E0EF0004170BD00F01CF88900013EF1
:10D6F00000F007B800F009B84FEA430C5FEA5C5C41
:10D7000008D081EA030100F05BB84FEA410C5FEA00
:10D710005C5CF6D14FF00000014970470000FF0744
:10D720000000F87F0EF1020E2EF0030E5EF8046B7F
:10D73000364205D4012A43EB030515F5001F12D824
:10D74000012841EB010C1CF5001F0CD80ED14FEA4B
:10D75000D17C15F5001F0CEB4C0C0CF1020C08BF32
:10D760004CEBD37C04E04FF0080C01E04FEAD37C93
:10D770000CEB4C0526FA05F606F00706B6F1040C8C
:10D7800006D20EEB860CBDE870404CF0010C6047F1
:10D79000DFE80CF0090B02024FF000414FF00000EF
:10D7A000A1F5002170BD19461046012851EB010476
:10D7B00018BFD4F5001484BF002001F0004170BDF3
:10D7C0000808A0F500114FEA3101704753EA010C37
:10D7D00017D41CF5801F58BFBCF5801F00F10680D0
:10D7E0008B4218BF704708BF8242704707D713F5B6
:10D7F000801F58BF11F5801F19D48B4270479B4280
:10D8000070471CF5801F08D5BCF5801FF7D59942DD
:10D8100018BF704708BF904270474FF4001C1CEBC4
:10D82000430F38BF1CEB410F01D2994270470FB430
:10D830000CBC03BCFFF7C1BE10B591EA030F48BF93
:10D8400083F000433FF5D0AB841A71EB030C07D291
:10D8500012198CF0004C43EB0C03001B61EB0C0124
:10D86000DFF8A4E14FEA1154A4EB135C1EEA430F66
:10D8700018BF9EEA445F00F0B08023EA6E03524274
:10D8800021EA0451C3EB6E0338BF5B1EDCF1200EAE
:10D8900025D322FA0CFE10EB0E0043FA0CFE41EBEE
:10D8A0000E01CCF1200E03FA0EFE10EB0E0051F12A
:10D8B0000001CCF1200E29D412FA0EF201EB045132
:10D8C000BDE8104058BF7047401C1CBFB2F1004F6C
:10D8D000704700280CBF491C20F00100704712EB74
:10D8E000020E43EB030218BF4FF0010E4EEA420254
:10D8F000ACF1200CDCF11E0E54D943FA0CFE10EBF7
:10D900000E0051F1FF31CCF11E0ED5D50EF1010EF6
:10D9100012FA0EFE404141EB010101EB445C5FEA6B
:10D920005C5C10D910EBDE7001EB045138BFBEF126
:10D93000004FBDE8104018BF704700280CBF491CBD
:10D9400020F00100704730D24FEAD42C11F50011BD
:10D9500024F400641BD0B1FA81F20B3AA41AA41E7D
:10D96000D2F12003914030FA03F31943904001EBC8
:10D97000CC71002C01EB0451BDE81040A8BF7047EA
:10D9800001F1C0414FF0000001F000417047B0FAD2
:10D9900080F310FA03F100D110BDE41A173C4805DA
:10D9A000C90AE4E701EB045110BD491001EB045131
:10D9B000BDE810404FEA300002E04FF00001704730
:10D9C0004A0008BF0042F8D0B2F5001F28BF7047D8
:10D9D00001F000414FF0000070479EEA445F07D01D
:10D9E00011EA5E0FBDE8104004BF0021002070471F
:10D9F000BDE8104070B5FFF795FE00BF40DFF63E72
:10DA000083F00041104670470000E0FF43004FEAFA
:10DA1000D30C4FEA3C0C43401FBF40070CF1605150
:10DA200013F0FE4F70471CF0006F03D100200CF084
:10DA3000004170470CF0004343EA507010B540EAD3
:10DA4000CC0000F00EF800BF000000924FEA000189
:10DA5000FFF7B6BE4FF000414FF00000A1F50021E6
:10DA600070470EF1020E2EF0030E5EF8044B2442B6
:10DA700004D44FEA4102B2F17F4F11D84FEA40037C
:10DA8000B3F17F4F0CD80ED14FEAD07CB2F17F4F6B
:10DA90000CEB4C0C0CF1020C08BF4CEBD17C04E0FD
:10DAA0004FF0080C01E04FEAD17C0CEB4C0324FA58
:10DAB00003F404F00704B4F1040C06D20EEB840C5A
:10DAC000BDE810404CF0010C6047DFE80CF007089F
:10DAD00002024FF00040A0F5800010BD0846420051
:10DAE00018BFD2F1807288BF00F0004010BD4FF027
:10DAF0004070E1EE100A70474FF07F4C3CEA410362
:10DB000018BF3CEA400200F062804FF47F0C10F036
:10DB1000004F0CEAD11318BF43F005031CEAD012E2
:10DB200018BF13EA0C0F00F057804FF0004C4CEA7E
:10DB300000204CEA0121A3F580339A4210DDB0F1B8
:10DB4000004F23F0020306D3401A43F00203BCBF88
:10DB5000404283F001034FEA4000A2F58032ECE737
:10DB60004FEA224CBCEB234F08DB884206D31CD083
:10DB7000A0EB4100C0F1000083F0010340001DD282
:10DB800017D40DD0B0FA80FC0CF1010C00FA0CF0A7
:10DB9000A2EB0C42D2F1000C12DB4FEAC3707047CB
:10DBA0004FEA437000F00040704713F0020FE5D0D9
:10DBB000DEE7B2F580324FEA4000EBDD002AE9DD16
:10DBC0004FEAC21242EA502040EAC370704710B5D3
:10DBD000FFF747FFEDFFFF3E1CEAD11F02D000F028
:10DBE00000407047004870470000C07FFF2141EAB5
:10DBF000D050C00570474FF0000070474FEAC12376
:10DC00000A1543EA50534FEAC02C18BF43F00043B3
:10DC10001BD4A2F24E02D2F57C72C0F22080502AB0
:10DC2000A8BF502223FA02F12CFA02F060B4D2F11C
:10DC3000200284BF03FA02F52843C2F100029CBF10
:10DC400023FA02F5284360BC704701F1804212F5C7
:10DC5000801F04DA4FF000004FF00001704770B5EC
:10DC6000FFF760FD49922480002001E06FEAE17037
:10DC700001467047F3F761B9F4F7C0B80CF00F0331
:10DC8000092B08BF082000F05F800A2B0BD0082B5F
:10DC900018BF704708BF1CF0400F0AD04FF00000BB
:10DCA0004FF0000170471CF0400F18BF4FF00040CC
:10DCB00070471CF0100F08D020F0704300F07F4236
:10DCC00042EAD3014FEA4370704700F0604021F010
:10DCD0007F4242EA000201F07F4040EA72707047E2
:10DCE0004FF0FF0C4CF4E06C1CEA11531CBF9CEA93
:10DCF000030C9445C2BFDA4201EB02517047002B7E
:10DD00000DD0BCF1000F0FD0002A01F00041A4BFDC
:10DD100041F0E04141F07F614FF00000704701F0B9
:10DD200000414FF00000704750EA01334FF09B0C68
:10DD300018BF4CF0806C7FF4F7A97047F4F766BB0E
:10DD4000F4F798BEF5F726B81CF4801F11D01CF428
:10DD5000E02F03D06FEACC31490070474FF04050BC
:10DD6000EFF3008222F0704242EA000282F3008860
:10DD700070474FF000007047000000002975493CD3
:10DD8000DF6EC93C6F0E173D3160493D8FA97B3D69
:10DD900038F4963D6B0EB03D4721C93D5E2EE23D05
:10DDA000EC2FFB3D7F130A3E698C163E76FD223E2A
:10DDB000A5662F3E97CA3B3E4A29483E807D543E89
:10DDC000DAC9603E560E6D3EF54A793E3CBD823E54
:10DDD0000FD1883EA4DF8E3EFBE8943EC4EB9A3E12
:10DDE000FFE7A03EFCDEA63E6CCFAC3E4EB9B23E95
:10DDF000A29CB83E1878BE3EB24BC43EBD18CA3E87
:10DE0000ECDDCF3EED99D53E614FDB3E59FAE03E69
:10DE1000C39EE63EB038EC3E71C9F13E5452F73E27
:10DE2000BBD0FC3E5322013FB2D7033FD387063F0E
:10DE3000B532093F5AD80B3FC0780E3F4013113F0F
:10DE400082A8133FDF37163F55C1183FE5441B3FFB
:10DE50008FC21D3F543A203F8AAB223FDB16253F3D
:10DE60009E7B273FD3D9293F7B312C3FED812E3F2D
:10DE700079CC303FD00F333FF14B353F8481373F72
:10DE8000E2AF393F0AD73B3FFDF63D3F130F403F1E
:10DE90009B20423F9E29443F132C463F0326483F88
:10DEA000BD184A3F9B034C3FF3E54D3F16C14F3F22
:10DEB000B493513F745E533F5721553F0EDB563F9D
:10DEC0008F8D583FE3365A3FB2D75B3FA4705D3F1A
:10DED00069005F3F5188603F0C07623F9A7C633F57
:10DEE000A3E9643F274E663F7EA9673F50FC683F29
:10DEF0004E456A3FC6856B3F12BD6C3F31EB6D3FAF
:10DF000023106F3F412B703FD93D713F9D46723FBB
:10DF10003546733F9F3C743F3529753F9E0C763FD5
:10DF200032E6763F9AB6773F2C7D783FEB39793FE2
:10DF30007CED793F39977A3F22377B3F36CD7B3F67
:10DF400075597C3F87DC7C3F1D557D3F87C47D3FF5
:10DF500074297E3F34857E3F77D67E3F8E1E7F3F7D
:10DF6000295C7F3FEF8F7F3F88BA7F3FA5DA7F3FF5
:10DF7000EDF07F3F61FD7F3F0000803F23F87F3F52
:10DF800019E77F3F92CB7F3F37A67F3FAF777F3F39
:10DF9000AB3E7F3FD2FB7E3F25AF7E3FA3587E3F07
:10DFA0004DF87D3F228E7D3F221A7D3F4E9C7C3F67
:10DFB000A5147C3F27837B3FD5E77A3F57437A3FC1
:10DFC0000395793FDBDC783FDF1A783FB54F773F29
:10DFD000B77A763FE59B753FE5B3743FB9C2733FAF
:10DFE000B9C7723F8BC3713F31B6703F029F6F3F1D
:10DFF000A67E6E3F1D556D3F68226C3F86E66A3FE8
:10E000001FA2693FE353683F22FD663F349D653F91
:10E010001A34643F22C3623F5648613FACC55F3F3C
:10E02000D6395E3F7AA55C3F9A085B3F3563593F1E
:10E030004AB5573F82FF553F8E40543F637A523F67
:10E04000B4AB503F80D44E3F6FF54C3F280F4B3F51
:10E050005C20493FB329473FD42B453F1826433F17
:10E060007E18413FB0033F3FABE73C3F72C43A3FAD
:10E070005B99383FB667363FDC2E343FCCEE313FFC
:10E080002FA82F3F5C5A2D3FFB052B3F0DAB283FA0
:10E090009049263F2EE2233F9773213F19FF1E3FF1
:10E0A000B6841C3FC5031A3F957D173FD8F0143F37
:10E0B000DD5E123FFCC60F3F35290D3F2F860A3F1C
:10E0C000ECDD073F6A30053FAA7D023F598BFF3EDA
:10E0D0003012FA3E8A8EF43E0803EF3E096DE93EA7
:10E0E000DDCDE33E8525DE3E4F75D83E3CBDD23EBC
:10E0F000FCFBCC3EDF32C73E3563C13E5D8ABB3E92
:10E1000047ACB53E05C5AF3E84D8A93E75E5A33EF4
:10E1100089EA9D3E60EA973EF7E4913E02D98B3E44
:10E12000CEC7853EB7627F3EF52D733EB7EE663EA5
:10E13000FDA45A3E65534E3EF0F9413E3D9B353EAF
:10E140000E32293EA0C31C3EF44F103E0AD7033EB8
:10E15000C4B1EE3DB9A5D53DA298BC3D1B82A33DFF
:10E1600049658A3D6685623DD637303DF7C7FB3C41
:10E17000C615973C5374C93B5374C9BBC61597BCAD
:10E18000F7C7FBBCD63730BD668562BD49658ABD21
:10E190001B82A3BDA298BCBDB9A5D5BDC4B1EEBDBF
:10E1A0000AD703BEF44F10BEA0C31CBE0E3229BE58
:10E1B0003D9B35BEF0F941BE65534EBEFDA45ABE2F
:10E1C000B7EE66BEF52D73BEB7627FBECEC785BE05
:10E1D00002D98BBEF7E491BE60EA97BE89EA9DBE84
:10E1E00075E5A3BE84D8A9BE05C5AFBE47ACB5BE14
:10E1F0005D8ABBBE3563C1BEDF32C7BEFCFBCCBE91
:10E200003CBDD2BE4F75D8BE8525DEBEDDCDE3BE9A
:10E21000096DE9BE0803EFBE8A8EF4BE3012FABE65
:10E22000598BFFBEAA7D02BF6A3005BFECDD07BF78
:10E230002F860ABF35290DBFFCC60FBFDD5E12BF9A
:10E24000D8F014BF957D17BFC5031ABFB6841CBF95
:10E2500019FF1EBF977321BF2EE223BF904926BF2F
:10E260000DAB28BFFB052BBF5C5A2DBF2FA82FBFBE
:10E27000CCEE31BFDC2E34BFB66736BF5B9938BFFA
:10E2800072C43ABFABE73CBFB0033FBF7E1841BF8B
:10E29000182643BFD42B45BFB32947BF5C2049BFD5
:10E2A000280F4BBF6FF54CBF80D44EBFB4AB50BFEF
:10E2B000637A52BF8E4054BF82FF55BF4AB557BFE5
:10E2C000356359BF9A085BBF7AA55CBFD6395EBF7C
:10E2D000ACC55FBF564861BF22C362BF1A3464BF7A
:10E2E000349D65BF22FD66BFE35368BF1FA269BFAF
:10E2F00086E66ABF68226CBF1D556DBFA67E6EBFE5
:10E30000029F6FBF31B670BF8BC371BFB9C772BFF9
:10E31000B9C273BFE5B374BFE59B75BFB77A76BF6B
:10E32000B54F77BFDF1A78BFDBDC78BF039579BFC5
:10E3300057437ABFD5E77ABF27837BBFA5147CBF3D
:10E340004E9C7CBF221A7DBF228E7DBF4DF87DBFC3
:10E35000A3587EBF25AF7EBFD2FB7EBFAB3E7FBF43
:10E36000AF777FBF37A67FBF92CB7FBF19E77FBF55
:10E3700023F87FBF000080BF61FD7FBFEDF07FBF4E
:10E38000A5DA7FBF88BA7FBFEF8F7FBF295C7FBFD1
:10E390008E1E7FBF77D67EBF34857EBF74297EBF39
:10E3A00087C47DBF1D557DBF87DC7CBF75597CBF91
:10E3B00036CD7BBF22377BBF39977ABF7CED79BFE3
:10E3C000EB3979BF2C7D78BF9AB677BF32E676BF3E
:10E3D0009E0C76BF352975BF9F3C74BF354673BF11
:10E3E0009D4672BFD93D71BF412B70BF23106FBFD7
:10E3F00031EB6DBF12BD6CBFC6856BBF4E456ABFAA
:10E4000050FC68BF7EA967BF274E66BFA3E964BF03
:10E410009A7C63BF0C0762BF518860BF69005FBF11
:10E42000A4705DBFB2D75BBFE3365ABF8F8D58BFB4
:10E430000EDB56BF572155BF745E53BFB49351BF17
:10E4400016C14FBFF3E54DBF9B034CBFBD184ABF7C
:10E45000032648BF132C46BF9E2944BF9B2042BFC2
:10E46000130F40BFFDF63DBF0AD73BBFE2AF39BF38
:10E47000848137BFF14B35BFD00F33BF79CC30BF6C
:10E48000ED812EBF7B312CBFD3D929BF9E7B27BF07
:10E49000DB1625BF8AAB22BF543A20BF8FC21DBFF7
:10E4A000E5441BBF55C118BFDF3716BF82A813BF95
:10E4B000401311BFC0780EBF5AD80BBFB53209BF89
:10E4C000D38706BFB2D703BF532201BFBBD0FCBE68
:10E4D0005452F7BE71C9F1BEB038ECBEC39EE6BE61
:10E4E00059FAE0BE614FDBBEED99D5BEECDDCFBE83
:10E4F000BD18CABEB24BC4BE1878BEBEA29CB8BE80
:10E500004EB9B2BE6CCFACBEFCDEA6BEFFE7A0BE6D
:10E51000C4EB9ABEFBE894BEA4DF8EBE0FD188BECA
:10E520003CBD82BEF54A79BE560E6DBEDAC960BEEC
:10E53000807D54BE4A2948BE97CA3BBEA5662FBE01
:10E5400076FD22BE698C16BE7F130ABEEC2FFBBD82
:10E550005E2EE2BD4721C9BD6B0EB0BD38F496BD3D
:10E560008FA97BBD316049BD6F0E17BDDF6EC9BC81
:10E57000297549BC000000000000000000000000F8
:10E580000100000000000000020000000000000088
:10E590000300000000000000030000000100000074
:10E5A0000400000001000000050000000100000060
:10E5B000060000000100000006000000020000004C
:10E5C0000700000002000000080000000200000038
:10E5D0000900000002000000090000000300000024
:10E5E0000A000000030000000B0000000300000010
:10E5F0000C000000030000000D00000003000000FC
:10E600000D000000040000000E00000004000000E7
:10E610000F000000040000000F00000005000000D3
:10E620000F000000060000000F00000007000000BF
:10E630002F737464696E002F7374646F7574002F88
:10E640007374646572720000C9CC0008D9CC0008EC
:10E65000A1CC000891CC0008E5CC0008B5CC00089E
:10E6600048E60008081200200000000000000040FA
:10E670001211000001000000000000401221000003
:10E68000050000000000004012110000060000001C
:10E6900000040040121200000700000000000140CA
:10E6A00012110200080000000000014012110000D9
:10E6B0000900000000000140122100000A000000D3
:10E6C00000000140123100000B000000000001407A
:10E6D000124100000F000000000000401211000075
:10E6E0001000000000000140122102001100000093
:10E6F0000000014012310200120000000000004042
:10E700001241000013000000000000401221000030
:10E710001400000000040040121200001500000068
:10E720000004004012220000160000000008004013
:10E730001212000017000000000800401222000022
:10E74000180000000008004012320000190000000C
:10E7500000080040124200001A00000000000040C3
:10E76000123100001D0000000000014012110200E3
:10E770001E00000000000140122102001F000000E6
:10E780000000014012310200260000000004004099
:10E7900012120000270000000004004012220000B6
:10E7A0002800000000040040123200002900000090
:10E7B0000004004012420000FFFF0000FFFFFFFFC7
:10E7C0000000000000000000004C004012080000A3
:10E7D0000200000000440040120700000900000091
:10E7E0000010014012070000160000000010014058
:10E7F000120700001A000000004800401207000045
:10E800002600000000140140120800002A00000049
:10E8100000480040120700002C000000005000409B
:10E8200012080000FFFF0000FFFFFFFF00000000D4
:10E8300001000000004C004012080000030000002E
:10E8400000440040120700000A00000000100140D0
:10E85000120700001700000000100140120700001E
:10E8600025000000004800401207000027000000BB
:10E8700000140140120800002B0000000048004076
:10E880001207000032000000005000401208000093
:10E89000FFFF0000FFFFFFFF000000000700000077
:10E8A000003001401205000010000000003C004054
:10E8B0001207000012000000003C00401207000098
:10E8C00015000000003C0040120600001F00000080
:10E8D000003800401205000023000000003800400E
:10E8E000120500002100000000380040120700005F
:10E8F0002C000000003C004012060000FFFF00005A
:10E90000FFFFFFFF00000000060000000030014094
:10E910001205000014000000003C00401206000038
:10E920001E00000000380040120500002200000018
:10E9300000380040120500002B000000003C0040A1
:10E9400012060000FFFF0000FFFFFFFF00000000B5
:10E950000500000000300140120500000900000021
:10E96000003800401205000013000000003C004089
:10E97000120600001A0000000038004012050000D6
:10E980001D000000003800401205000027000000B4
:10E9900000380040120500002A000000003C004042
:10E9A00012060000FFFF0000FFFFFFFF0000000055
:10E9B00004000000003001400205000004000000D7
:10E9C000003C0040020600000F0000000030014043
:10E9D000020500000F000000003C0040020600009D
:10E9E0001900000000380040020500001C00000073
:10E9F0000038004002050000FFFF0000FFFFFFFF9E
:10EA0000000000001800000000640040020900003F
:10EA10001C00000000680040020900001500000012
:10EA200000680040020900000B0000000064004084
:10EA300002090000FFFF0000FFFFFFFF00000000D1
:10EA40001900000000640040020900001D000000E1
:10EA50000068004002090000160000000068004045
:10EA6000020900000C0000000064004002090000E0
:10EA7000FFFF0000FFFFFFFF00000000010000009B
:10EA80000200000004000000080000001000000068
:10EA90002000000040000000800000000001000095
:10EAA0000002000000040000000800000010000048
:10EAB0000020000000400000008000000000004036
:10EAC00000000000000400400000000000080040BA
:10EAD00000000000000C0040000000000018004092
:10EAE00000000000001C004000000000002000406A
:10EAF000000000000000014001000000000401408F
:10EB000001000000004001400100000000440140FD
:10EB1000010000000048014001000000000000006A
:10EB2000020000001587000800000000000000003F
:10EB300000000000A18C00080000000000000000A0
:10EB4000000000000000080010001800200028004D
:10EB50003000380000000000000000000102030443
:10EB600006070809000000000102030430313233B7
:10EB700034353637383941424344454640305800F1
:10EB80003031323334353637383961626364656623
:10EB9000403078000400000800000000000000027F
:10EBA0000001000010000000000000000000000054
:10EBB0000000B33FB2BE7D3A00002E40DFCF513897
:10EBC00000007E40BF51FABA00E0A44019DAC3BA8F
:10EBD00000E0C840C2ED8AB90040EB40CD1F2CBA1E
:10EBE000001006412AFFFABA00C01541DFCFD13725
:10EBF00000D024419A97703A0050334189478E36AD
:10EC000000404141E75B9D3800B04E41C00A98B9D1
:10EC100000A05B41558F943A00306841DA92C0BA47
:10EC20000040744162B3C63A0000803F00A0853FB7
:10EC300000908B3F00C0913F0030983F00F09E3F16
:10EC400000F0A53F0050AD3F0000B53F0000BD3FC4
:10EC50000060C53F0020CE3F0040D73F00C0E03FEE
:10EC600000C0EA3F0020F53F000000007D36AC39CF
:10EC70007D3C3839EBDCF438320A7E39124C2639C7
:10EC80009B6AED39A4EE83397F661E39F6398A39DD
:10EC90002B426539A48211395B991F39C3EECD39F6
:10ECA000DDE7C637A5A22F390000803FC3AA853F04
:10ECB000C2958B3FD3C3913FF037983F32F59E3FCB
:10ECC000D7FEA53F3F58AD3FF304B53FA408BD3F75
:10ECD0002A67C53F8C24CE3FFD44D73FDFCCE03FC1
:10ECE000C7C0EA3F7D25F53F00000000000000009E
:10ECF000000000006E83F9A22915444ED15727FC6D
:10ED0000C0DD34F5999562DB4190433CAB6351FE25
:10ED10003031323334353637383961626364656691
:10ED20007870003031323334353637383941424328
:10ED3000444546585000000002400000000000A07A
:10ED40000000000005400000000000C800000000B6
:10ED50000C4000000000409C000000001940000032
:10ED60000020BCBE0000000034400000BFC91B8E64
:10ED700000000004B5400000504BCFD06607E2CF42
:10ED8000010000006C4100003E8251AADFEEA73472
:10ED900001000000D9420000DCB5A0E23A301F9724
:10EDA000FFFFFFFFB4450000FD25A0C8E9A3C14F48
:10EDB000FFFFFFFFFF3F0000000000800000000099
:10EDC000FF3F000000000080000000000000000085
:10EDD00000000000A18300087F8300088B830008E7
:10EDE0007383000885830008798300082D83000859
:10EDF0006D830008618300089983000899850008E5
:10EE00006783000800000000000000000000000010
:10EE1000000000000397000803970008039700080C
:10EE20000397000800000000C586000800000000ED
:10EE300000000000938600080000000000000000B1
:10EE400000000000000000000000000000000000C2
:10EE500000000000000000009587000815880008E9
:10EE600015890008000000000000000000000000FC
:10EE7000D18B0008000000004D8A0008558B000867
:10EE80000000000000000000898D00080000000064
:10EE9000798D0008F58D0008098F0008000000003A
:10EEA00000000000000000001D8F0008278F0008F0
:10EEB000558F0008000000001F8F0008238F0008F6
:10EEC00044FFFFFF00000000000000000000000001
:10EED000CB8F00080F900008039000080B900008EB
:10EEE0000000000047900008000000000000000043
:10EEF0000790000800000000000000000000000073
:10EF000000000000000000000000000085950008DF
:10EF10007F9500087D9500088B95000840FFFFFF56
:10EF200000000000000000000000000000000000E1
:10EF300000000000E990000800000000CB8F0008EE
:10EF40000F900008039000080B90000800000000DC
:10EF50004790000800000000000000000790000833
:10EF600000000000000000000000000000000000A1
:10EF7000000000000000000003970008039700084D
:10EF80009F8F00087D900008FCFFFFFF000000003D
:10EF90000000000000000000000000000000000071
:10EFA00099910008000000005F707472203D3D20C0
:10EFB0002854202A29265F64617461006D626564AB
:10EFC0002D6465765C706C6174666F726D2F536929
:10EFD0006E676C65746F6E5074722E68000000006E
:10EFE00009CE000811CE00080FCE00087DCE000823
:10EFF00083CE000881CE00085F6F7073006D62657C
:10F00000642D6465765C706C6174666F726D2F43FD
:10F01000616C6C6261636B2E68005F6F7073006D72
:10F020006265642D6465765C706C6174666F726D88
:10F030002F43616C6C6261636B2E68000A0D205473
:10F040006F206368616E676520612076616C75650D
:10F050002C2074797065202770726566697827277F
:10F0600076616C75652727454E544552270A0D2059
:10F07000692E652E202762313030302727454E54C7
:10F080004552270A0D0A0D00ECF10008C4010020CA
:10F09000CC00000000020008B8F200089002002036
:10F0A000781400001C020008000000000000F07F3F
:10F0B000FFFFFFFFFFFFEF7F1C0000004300000089
:10F0C000F8FFFFFF0C0000000E0000000F00000022
:10F0D0002E0000001001000043000000F8FFFFFFB9
:10F0E000004040404040404040404141414141405B
:10F0F0004040404040404040404040404040404010
:10F10000400502020202020202020202020202029E
:10F1100002202020202020202020200202020202A3
:10F1200002029090909090901010101010101010FB
:10F130001010101010101010101010100202020207
:10F14000020288888888888808080808080808084B
:10F150000808080808080808080808080202020247
:10F16000400000000000000000000000000000005F
:10F17000000000000000000000000000000000008F
:10F18000000000000000000000000000000000007F
:10F19000000000000000000000000000000000006F
:10F1A000000000000000000000000000000000005F
:10F1B000000000000000000000000000000000004F
:10F1C000000000000000000000000000000000003F
:10F1D000000000000000000000000000000000002F
:10F1E0000000000031B2FFFFF9B1FFFF0000000096
:10F1F00000000008004000080080000800C000086F
:10F2000000000108000002080000040800000608D1
:10F2100000000000080000001000000018000000BE
:10F220002000000030000000300000003800000026
:10F2300000000000000000000000000000000000CE
:10F2400000000000000000000000000000000000BE
:10F2500000000000000000000000000000000000AE
:10F26000000000000000000000000000000000009E
:10F27000000000000000000000000000000000008E
:10F28000000000000000000000000000000000007E
:10F29000000000000000000000000000000000006E
:10F2A000000000000024F400000000000000000046
:08F2B000000000000000000056
:04000005080001C529
:00000001FF
