:020000040800F2
:10000000904A0120F101000801000010035100088E
:100010002D58000835110008296D00080000000067
:10002000000000000000000000000000615A00080D
:1000300069110008000000002F580008FD5B00084F
:100040000B0200080B0200080B0200080B0200085C
:100050000B0200080B0200080B0200080B0200084C
:100060000B0200080B0200080B0200080B0200083C
:100070000B0200080B0200080B0200080B0200082C
:100080000B0200080B0200080B0200080B0200081C
:100090000B020008711100080B0200080B02000897
:1000A0000B020008795C00080B0200080B02000834
:1000B000F55C00080B0200080B0200080B020008A8
:1000C0000B0200080B0200080B0200080B020008DC
:1000D0000B0200081D6D00080B0200080B0200084F
:1000E0000B0200080B0200080B0200080B020008BC
:1000F0000B0200080B0200080B0200080B020008AC
:100100000B0200080B0200080B0200080B0200089B
:100110000B0200080B0200080B0200080B0200088B
:100120000B0200080B0200080B0200080B0200087B
:100130000B0200080B0200080B0200080B0200086B
:100140000B0200080B0200080B0200080B0200085B
:100150000B0200080B0200080B0200080B0200084B
:100160000B0200080B0200080B0200080B0200083B
:100170000B0200080B0200080B0200080B0200082B
:100180000B0200080B0200080B0200080B0200081B
:100190000B020008000000000B0200080B02000820
:1001A0000B0200080B0200080B0200080B020008FB
:1001B0000B0200080B0200080B0200080B020008EB
:1001C0000B0200080B0200080B0200080B020008DB
:1001D0000B0200080B020008DFF810D000F0C2FC90
:1001E0000048004705A50008AFF30080904A0120B1
:1001F0000648804706480047FEE7FEE7FEE7FEE7C1
:10020000FEE7FEE7FEE7FEE7FEE7FEE7695C0008C3
:10021000D90100082DE9F05F0546002092469B4673
:1002200088460646814640241BE02846414647460C
:10023000224600F0BBF953465A46C01A914110D3EA
:1002400011461846224600F0A2F92D1A67EB010864
:100250004F4622460120002100F099F917EB0009D2
:100260004E41201EA4F10104DFDC484631462A46F7
:100270004346BDE8F09F40EA01039B0703D009E035
:1002800008C9121F08C0042AFAD203E011F8013B82
:1002900000F8013B521EF9D27047D2B201E000F8DB
:1002A000012B491EFBD270470022F6E710B513461A
:1002B0000A4604461946FFF7F0FF204610BD70B508
:1002C000064606F0A5FD046805460A2200213046D0
:1002D00000F0DCF92C6070BD2DE9FE4F804681EA0C
:1002E0000300C00F0C46009021F0004123F00045B0
:1002F000B8EB0200A94105D24046214690461C4673
:100300000B46024623F00040104347D0270DC7F3A9
:100310000A00C3F30A510290401A019040286BDA98
:10032000C3F3130040F4801B0098924620B10023D1
:10033000D2EB030A63EB0B0B01985946C0F1400264
:10034000504600F024F906460D4650465946019A9B
:1003500000F03CF910EB08006141002487EA1152DB
:1003600084EAE7731A4340D0009A62B3019A012AE3
:100370004FEA075215DC001B61EB02014FF000420F
:1003800002EA0752CDE90042001C41F580113246D5
:100390002B4600F022FA03B0BDE8F08F404621461C
:1003A000F9E7001B61EB0201001C41F58013001806
:1003B0005B412018A2F5001747EB030140EAD57016
:1003C000B6196D4111E06D084FEA360645EAC07571
:1003D0004FEA0752001B61EB0201001C41F580113E
:1003E00049084FEA30000019514132462B4603B00C
:1003F000BDE8F04F00F0E2B9009801224000002370
:10040000D0EB020263EBE073009821464FEAE07400
:10041000B8EB000061EB0401E9E783F000435BE720
:1004200081F0004158E72DE9F04D81EA030404F022
:10043000004B21F0004514464FF0000A23F0004124
:1004400050EA050220D054EA01021DD0C5F30A5734
:100450000246C5F31303C1F31300C1F30A5640F477
:10046000801543F48013A7EB0608101BD64608F24C
:10047000FD3873EB050002D308F1010801E0921882
:100480005B41B8F1000F03DA00200146BDE8F08DB2
:1004900000204FF48011064684460EE0171B73EBD4
:1004A000050705D3121B63EB050306434CEA010C59
:1004B00049084FEA300092185B4150EA0107EDD13C
:1004C00052EA030012D082EA040083EA05010843DD
:1004D00005D0101BAB4106D20122002306E000220A
:1004E0004FF0004302E06FF0010253101AEB0600D8
:1004F0004CEB085110EB0A0041EB0B01BDE8F04D4D
:1005000000F05CB900F0004230F000400AD0C10DAC
:1005100001F56071C0F3160042EA0151C2084007BC
:100520001143704700200146704701F0004330B48A
:1005300021F0004150EA010206D00A0DA2F56072D6
:10054000C1F31301002A02DC30BC00207047440FC5
:1005500044EAC104C100E01830BC00EBC25000F016
:10056000CDB830B50B46014600202022012409E019
:1005700021FA02F59D4205D303FA02F5491B04FA5C
:1005800002F52844151EA2F10102F1DC30BD202A3B
:1005900004DB203A00FA02F1002070479140C2F1DA
:1005A000200320FA03F3194390407047202A04DB0C
:1005B000203A21FA02F00021704721FA02F3D040DC
:1005C000C2F120029140084319467047202A06DBF9
:1005D000CB17203A41FA02F043EAE07306E041FA11
:1005E00002F3D040C2F120029140084319467047FF
:1005F0000FB4002300B589B00CA900910B996FF0DE
:100600000042CB601E4B06931E4B07930423CDE99B
:1006100001321D4A089202466B46002000F056FB4C
:1006200009B05DF814FB70B586B006464FF0FF3098
:100630000091CDE90101002015460C460490324698
:10064000694604A8FFF7D4FF02460498211825B193
:1006500008B1084600E020462860049800280DD024
:10066000002A02DD0098884208D0081B0094CDE9DA
:1006700001043246694604A8FFF7BAFF06B070BD10
:10068000050F0008230F0008910B00082DE9F04723
:1006900091460F4680460446002614F8015B2DB1B2
:1006A00000F072FA0068405DC007F6D12B2D02D031
:1006B0002D2D18D0641E4A463946204600F042FCD3
:1006C00027B13968A14201D1C7F8008071054FF008
:1006D00002040BD54042002803DD06F099FB0460BC
:1006E000A007BDE8F08746F48066E4E70028F8DA62
:1006F00006F08EFB04606FF00040F2E70029A8BF0F
:100700007047401C490008BF20F00100704710B43A
:10071000B0FA80FC00FA0CF050EA010404BF10BCEF
:10072000704749B1CCF1200421FA04F411FA0CF11C
:1007300018BF012121430843A3EB0C01CB1D4FEA55
:1007400000614FEA102042BF002010BC704700EB50
:10075000C35010440029A4BF10BC7047401C49007E
:1007600008BF20F0010010BC7047F0B400F0004258
:1007700021F0004120F00040CE0DC30DC1F3160161
:1007800041F40001C0F316004C42154640F400004D
:10079000761E09E010EB440002D582F00042404290
:1007A0008842F7D840005B1EB342F9DA18B1F0BCBA
:1007B0000021FFF7ACBF2846F0BC704710B5141EEF
:1007C00073F1000408DA401C41F1000192185B410A
:1007D0001A4301D120F0010010BD2DE9F04D9246E1
:1007E0009B4611B1B1FA81F202E0B0FA80F22032F8
:1007F0009046FFF7CCFE04460F4640EA0A0041EA65
:100800000B0153465A46084313D0114653EA0100E0
:1008100019D0C8F140025046FFF7C8FE05460E4603
:10082000504659464246FFF7B2FE084305D0012024
:1008300004E020463946BDE8F08D0020054346EA35
:10084000E0762C4337430A986305E40AA0EB0800DE
:100850000022FD0A44EA47540A3002D5002001462E
:10086000E9E7010510196941DDE908450019694109
:10087000BDE8F04DA2E72DE9FE4F81EA030404F044
:10088000004421F0004100944FF0000B23F000439E
:1008900050EA01045ED052EA03045BD0C3F30A5469
:1008A000C1F30A552C44A4F2F3340194A0FB025482
:1008B000C1F3130141F48011C3F3130343F4801314
:1008C00001FB024400FB034E840A970A44EA815468
:1008D00047EA8357A4FB076802958D0A05FB078545
:1008E0004FEA932C04FB0C542705029D4FEA06584F
:1008F00047EA1637B5EB08056EEB070C870E920E2C
:1009000047EA811742EA8312A7FB0201B6EB0B010B
:1009100064EB00042B0D43EA0C335E1844EB1C50CF
:10092000DA465146E7FB0201C5F313044FEA0B33E5
:1009300043EA14534FEA0432019C43EA0603A4F14C
:100940000C040294009CCDE900B4FFF746FF03B00D
:10095000BDE8F08F00200146F9E770B521F00043B3
:1009600003430CD0C1F30A550024D5EB040564EB16
:100970000403D617AD1AB34102DB0020014670BD57
:10098000201841EB025170BD2DE9F04D00231A46AD
:100990001B1A8A4103DB00200146BDE8F08DC1F33C
:1009A0000A52C1F3130141F480154FF0000BD10737
:1009B00002D100186D41521E0027044640F2FF117B
:1009C000384601EB620A3E468046024600204FF45C
:1009D0008011FFF7EBFDC2197141BB1846EB010016
:1009E000B4EB030C75EB000C04D3E41A65EB0005C3
:1009F00017460E46241908F101006D41804634283F
:100A0000E3DDF91946EB0600091BA84103D24FF0BC
:100A1000FF32134601E0002213461BEB070046EBB2
:100A20000A51BDE8F04DFFF7C9BE2DE9FE4FC3F3F3
:100A30000A5701F000450024C1F30A56C3F313031B
:100A4000C1F3130143F4801312EB020AA64641F4EA
:100A50008011009543EB030CA7F1010B16E0B0EBFE
:100A60000A0061EB0C01071E71F1000707DA4FF075
:100A70000008D0EB080085F0004568EB0101171A6B
:100A800073EB0107EBD3761E001849415E45F6DA99
:100A900050EA010209D0CDE900E500221346029692
:100AA000FFF79BFE03B0BDE8F08F20460099F9E701
:100AB0000EB5C10F80EAE0700844CA07002140F279
:100AC00033438DE80E000A460B46FFF786FE03B05F
:100AD00000BDC1F30A52C1F3130140F2FF3341F4E8
:100AE00080119A4202DA00200146704740F23343F7
:100AF0009A42A2F2334202DC5242FFF757BDFFF79F
:100B000046BD000030B5041E71F1000404DB4FF057
:100B10000044404264EB0101141E73F1000405DB44
:100B20001C464FF00043524263EB04038B4208BF64
:100B3000824230BD30B5041E71F1000404DB4FF079
:100B40000044404264EB0101141E73F1000405DB14
:100B50001C464FF00043524263EB0403994208BF26
:100B6000904230BD064C074D06E0E06840F00103BE
:100B700094E8070098471034AC42F6D3FFF730FBF7
:100B80001CC300085CC3000800487047CCC20008C2
:100B900010B50446FFF7F8FF0068005D00F00100A3
:100BA00010BD00002DE9FF4F087883B09946FF285B
:100BB00005D0491C2D2804D00024002008E0002086
:100BC0000BE00124F9E700EB800003EB4000491C37
:100BD0000B78FF2BF7D104B1404200230293147825
:100BE00019461D462D2C01D02B2C04D1521C2D2C26
:100BF00013D000240294AA461478FF2C0FD00A25A3
:100C0000A3FB057801FB05814FF0000C03FB0C11E1
:100C1000521CE3194AEB0101EEE70124EAE78144A3
:100C200053EA010002D019F5C87F06DA03980021C3
:100C3000C0E9001107B0BDE8F08F0025AE4E2F4689
:100C4000DFF8B882184600F0DAF9CDE90001B9F111
:100C5000000002DAC9F1000400E004460023A74ABC
:100C60001AEB030B42EB045A12E0E00707D02A46C6
:100C7000334638464146FFF7FEFD074688462A467A
:100C8000334610461946FFF7F6FD05460E4664103A
:100C9000002CEAD1DDE90001B9F1000F5A465346B4
:100CA00006DAFFF7C0FB3A464346FFF7BCFB05E018
:100CB000FFF7E1FD3A464346FFF7DDFD029A0AB130
:100CC00081F00041039AC2E90001B3E72DE9FF4F2B
:100CD0001F468DB0D7E901464FF0FF382E2045461C
:100CE0004FF000090B90B9696D1C0E988847396A5E
:100CF000824688470028F6D1BAF1FF3F0AD024F493
:100D0000D064002E11DDBAF12B0F08D0BAF12D0FEF
:100D10000BD102E0404611B08DE744F48064B9691C
:100D20006D1C0E9888478246761E6946600501D57F
:100D30002D2000E02B208DF8000001F1010B0DF1BA
:100D4000200809E0B9696D1C0E98884782460F9803
:100D500044F40074761E0560002E02DDBAF1300FF7
:100D6000F0D00B998A453ED144F0800406E00F99FB
:100D7000681CA9F1010944F400740860B9696D1C8C
:100D8000761E0E98884782463028F0D02BE00B99CB
:100D90008A4505D1200603D444F08004761E18E06D
:100DA000504607F0C9FC08B30DF11301761E44F458
:100DB00000748B4508D2AAF130000BF8010B200615
:100DC00007D5A9F1010003E0200602D409F10100D2
:100DD0008146A00502D50F99681C0860B9696D1C91
:100DE0000E9888478246002ED1DC53E0002E51DD5C
:100DF000BAF1650F02D0BAF1450F4BD1A00549D524
:100E0000B9696D1C24F44074761E0E98884782469A
:100E1000002E0CDD2B2804D0BAF12D0F07D144F49D
:100E20008074B9696D1C0E9888478246761EE0056D
:100E300001D52D2100E02B2108F8011BCDF82C80D5
:100E400021E00DF12901761E44F4007488450CD28E
:100E5000AAF1300010F0FF0088F8000002D10B99D1
:100E6000884509D908F1010806E0E00501D52448C4
:100E700001E042F20F708146B9696D1C0E988847F7
:100E800082460F980560002E04DD504607F054FCA2
:100E90000028D6D1F9690E988847FF208BF800000A
:100EA00088F800000020069007904B466A4608A983
:100EB00006A8FFF777FEA00502D46FF001002AE72D
:100EC00014F0240F0AD0E00714D1DDE906123868C7
:100ED000031D3B600068C0E900120BE0DDE906017C
:100EE000FFF723FB0146E00704D13868021D3A6092
:100EF0000068016028460EE7000014400000F03F43
:100F0000F1D8FFFF426842B1016811F8013B23B1FB
:100F1000521EC0E90012184670470121C160881EA8
:100F2000704742685AB1C368016843B983688B420D
:100F300005D0491E521CC0E90012002070474FF036
:100F4000FF3070472DE9F05F824600780027154694
:100F50008B460AF10104B946302801D09DB113E057
:100F600014F8010B0127782803D0582801D045B187
:100F70000AE00DB1102D07D10027102514F8010B40
:100F800002E0082500E00A250026B0460EE005FB39
:100F9000080005FB06F1012701EB10461FFA80F857
:100FA000B6F5803F00D3B94614F8010B294600F08E
:100FB00018F80028EBDABBF1000F05D00FB1641E62
:100FC00000E05446CBF80040B9F1000F06D005F020
:100FD0001FFF02210160C81EBDE8F09F48EA0640DD
:100FE000FAE73A2800D2303820F02002412A01D313
:100FF000A2F13700884201D34FF0FF3070470EB5A1
:1010000040F2334202920022CDE900221346FFF75C
:10101000E4FB03B000BD30B58C1810F8012B12F0C2
:101020000F0301D110F8013B120906D110F8012B72
:1010300003E010F8015B01F8015B5B1EF9D101E0F0
:1010400001F8013B521EFBD1A142E6D3002030BD86
:1010500070B50446006881688268C1F3400112F0EF
:10106000010F28D039BB816801F00D01012914D18D
:101070008168124A1140891C816021680320086040
:1010800002F018F8054612E002F014F8401B02289E
:101090000DD920688068C00709D0E06D40F01000CD
:1010A000E065206E40F001002066012070BD2068E0
:1010B0008068C007E8D1002070BD0000C0FFFF7F3E
:1010C00070B504460068816811F0010F2DD1816868
:1010D000174A11421AD18168D5432940491C8160C1
:1010E00001F0E8FF06461BE0816811F0010F03D113
:1010F00081682940491C816001F0DCFF801B0228C7
:101100000ED920680068C043C00709D0E06D40F0E8
:101110001000E065206E40F001002066012070BDE7
:1011200020680168C943C907DED1002070BD0000F6
:101130003F000080FEE7000010EE100A084901EBB6
:10114000600100EE901A0749A1EB600001EE100A61
:1011500040EE010AB6EE000A20EE800A7047000059
:1011600000F8BC1FDF59375F704772B6FEE700001A
:101170002DE9F04F91B08C4801F059FB8B4C402188
:10118000631C04F10C02884801F0D8FADFF820B2A1
:1011900088499BED120AD1ED070A20EE200ADFED07
:1011A000860A9BED0E2ADBED0F1A80EE201ADBED8E
:1011B0000B0A9BED090A814809F09CFE7F4A7A4898
:1011C000521C02F10B0101F049FA60788146FF28B8
:1011D00037D04FF0000CA178FF2935D05FF0000028
:1011E0000CEA000CE078FF2830D000220CEA020C58
:1011F0002279FF2A2CD0002367790CEA030CFF2FF9
:1012000028D00023A6790CEA030CFF2E24D000235B
:10121000E5790CEA030CFF2D20D000230CEA030C27
:10122000237AFC2B1CD04FF0000800BFDFF890A100
:101230001CEA080F4FF0010E15D00221CAF8001069
:1012400049E04FF0010CC6E70120C9E70122CDE7D4
:101250000123D1E70123D5E70123D9E70123DDE706
:101260004FF00108E2E7FF2A3BD04FF0000CFF2FC0
:101270003AD04FF0000800BF1CFB08FCB9F1FF0F8B
:1012800035D04FF0000800BF0CEA080CFF2931D020
:101290004FF00008FF2830D05FF0000408EA04088F
:1012A000424C0CEA080CFF2E29D04FF0000800BF7A
:1012B0000CEA080CFF2D25D04FF000080CEA080CB2
:1012C000FD2B22D04FF000081CEA080F4FF0000859
:1012D0001ED0CAF800803B49C1F800E011B0BDE85B
:1012E000F08F4FF0010CC2E74FF00108C4E74FF058
:1012F0000108C9E74FF00108CCE70124CEE74FF021
:101300000108D5E74FF00108D8E74FF00108DBE707
:10131000FF2A24D00022FF2F23D0002712FB07F240
:10132000B9F1FF0F1FD000273A40FF291DD000213F
:10133000FF281CD0002001400A40FF2E19D00020B9
:101340000240FF2D17D000200240FE2B15D00020B8
:10135000024214D011B0BDE8F04F05F0EFBC0122FD
:10136000D9E70127DAE70127DEE70121E0E70120DD
:10137000E1E70120E4E70120E6E70120E8E7DAF809
:1013800000000228AAD109495D463C221031684676
:10139000CDF83CB0FEF76FFF94E80F000AF0B4F808
:1013A000C5F8A8809AE70000F0070020A4050020F7
:1013B00004000010740000208FC255417405002005
:1013C0000800002010000020F0B5D1E901650C698B
:1013D0002C430D68BEB145F080452C43D1E906652C
:1013E000354391F820704E69406D46EA07663543F3
:1013F000CE6803EBC303354300EBC3000023E0E8F2
:1014000002450C4D0FE044EA8544E7E7D418D65C6A
:10141000E77846EA0766A77864783F0447EA042439
:10142000264340C01B1DCC6805EB144424789C4225
:10143000ECD8F0BD10C10008144A117F14480129EE
:1014400001D003290FD1036823F4007303600368FC
:1014500043F400630360036823F4006303600368DC
:1014600043F400730360022901D003290BD1016802
:1014700041F480510160016821F4805101600168EC
:1014800041F4806101600020107770474000002027
:10149000002002400C490A6A520210D5C20703D04C
:1014A0004A6942F004024A61800703D5486940F462
:1014B00000404861486940F480304861704748699D
:1014C00048F204021043F4E7002002400E4A136A77
:1014D0005B0201D5C90703D0516921F4006102E024
:1014E000516941F4006151615169C0B221F47E71CA
:1014F00041EAC0005061506940F0020050615069FB
:1015000040F480305061704700200240054910B51A
:101510004C6944F001044C610260BFF36F8F43607B
:1015200010BD000000200240094A10B55469402354
:1015300044F480245461EFF3108272B610C95B1E2C
:1015400010C013F0FF03F9D182F3108810BD000022
:101550000020024070B5064601F0ACFD0546134C74
:1015600007E000BF01F0A6FD401BB04201D90320F7
:1015700070BD2069C003F5D420694CF2FA310840EF
:101580000CD00B494A6802434A60010F01D0A1699F
:10159000A161010100D02061012070BD2069C00758
:1015A00001D001202061002070BD00000020024019
:1015B00040000020DFED020A30EEC00A00F002B861
:1015C000DB0FC93FDFED100A02E000BF30EE200A5A
:1015D000B5EEC00AF1EE10FAF8D30C4910EE100A7D
:1015E000884202DB30EE600AF8E7DFED090A0949BC
:1015F00020EE200ABDEEC00A10EE100A01EB8000BA
:1016000090ED000A70470000DB0FC940DB0FC940B6
:1016100083F9A24210B900080148406870470000F1
:10162000DC020010014890ED8D0A7047DC020010CA
:10163000034890ED8D0AD0ED890A30EE200A7047FC
:10164000DC0200100148006870470000DC02001056
:1016500000EE100ADFED220A9FED221AB8EE400AD2
:1016600010B520EE200A20EE010A30EEC01ADFEDA0
:101670001E0A61EE201A81EE801A81EE200A10EE19
:10168000100AFEF73FFF41EC100B05F0CDFC9FED7B
:10169000171B51EC100B53EC112BFEF7C4FE9FED02
:1016A000151B53EC112BFEF717FE41EC100B53ECFE
:1016B000102B9FED120B51EC100BFEF7B4FE9FEDBB
:1016C000111B53EC112BFEF7A8FE9FED101B53ECE2
:1016D000112BFEF701FEFEF728FF00EE100A10BDE9
:1016E000333353400000803900401C4600000000A6
:1016F0000058AB40000000E0E1796B3F00000000C3
:101700000000F03F00000060661271400000000021
:101710000000E03F00EE100ADFED220A9FED221AE2
:10172000B8EE400A10B520EE200A20EE010A30EE95
:10173000C01AC0EE010A9FED1D1A60EE810A80EE0C
:10174000810A10EE100AFEF7DDFE41EC100B05F0E9
:101750006BFC9FED171B51EC100B53EC112BFEF79C
:1017600062FE9FED151B53EC112BFEF7B5FD41EC0E
:10177000100B53EC102B9FED120B51EC100BFEF7DE
:1017800052FE9FED111B53EC112BFEF746FE9FED11
:10179000101B53EC112BFEF79FFDFEF7C6FE00EE6B
:1017A000100A10BD333353400000803900401C46FE
:1017B000000000000058AB40000000E0E1796B3F02
:1017C000000000000000F03F000000606612714061
:1017D000000000000000E03FF8B500260446009637
:1017E00090F858000D4601280BD0012084F85800CD
:1017F0002046FFF72DFC0100E06D04D040F0100002
:101800002AE00220F8BD20F4885040F00200E06594
:1018100020688268134B1A4005F080431A4342F057
:1018200000428260104A20680EE0009B5B1C00931F
:10183000934209D3E06D20F0020040F01000E06513
:1018400084F858600120F8BD8368DB0FEDD1E06DAE
:1018500020F0020040F00100E06584F8586008467E
:10186000F8BD0000C0FFFF3F02DE04002DE9F84F85
:101870004FF000090446CDF800900D4694F858202A
:10188000DFF8008461694F464846012A0AD00126E4
:10189000FD4A84F8586041B1296A012905D0A36E38
:1018A000EBB129E00220BDE8F88F6868092838D13B
:1018B000A96A4FF4785041B12B6801F07C0100EA2D
:1018C00053400843E96A084302E0296800EA5140AE
:1018D0002168CB6C13400343CB64606621E0C4E90C
:1018E0001971A96A286A31B101F07C01401E0843D0
:1018F000E96A084300E0401E29682B79C1F384613E
:1019000003F01F0399400143A06E401EA066636E62
:1019100043EA0103636604D12068C16C1140194396
:10192000C164206803F0F8FB58B995F8250098B118
:101930002068C16895F8262021F4401141EA4251FF
:10194000C160206803F0F0FB8246206803F0E4FBEE
:101950005AEA00000DD0FBE095F8260095F8241017
:10196000400540EA01512068C26822F44012114348
:10197000E6E7A86A30B1E86A20B195F825000128A9
:101980005ED003E095F82500012804D02068C168E6
:1019900021F0007103E02068C16841F00071C1606E
:1019A00095F83000012852D02068016921F0020129
:1019B0000161AA6829682068B2F1004F38D003F0AD
:1019C000B7FB2068416921F00041416120686969E5
:1019D000C268C2F3C102520091402A69042A44D06D
:1019E00000EB82002B68026EDFF8A0C203F0F84320
:1019F00002EA0C020B431A4342F0004101662068E0
:101A00002A69A96900EB8200026E22F080720A4303
:101A10000266297F20682A69012923D05FF000012E
:101A200000EB8200026E22F000720A4302668FE031
:101A3000002203F07DFB2068416941F00041C4E7CA
:101A4000E06D40F02000E0654FF00109A8E7D5E91E
:101A50000D1001432068026922F4FF7242F0020275
:101A60001143A5E74FF00071DAE7002103F04AFBCC
:101A7000400320684FF0000172D003F043FB90FA5E
:101A8000A0F0B0FA80F1286842036ED090FAA0F07E
:101A9000B0FA80F0814204D100221146206803F0A0
:101AA00056FB0121206803F02DFB400320684FF016
:101AB00001015DD003F026FB90FAA0F0B0FA80F1AE
:101AC0002868420359D090FAA0F0B0FA80F0814221
:101AD00004D100220121206803F039FB0221206893
:101AE00003F010FB400320684FF0020148D003F0E0
:101AF00009FB90FAA0F0B0FA80F12868420344D0C4
:101B000090FAA0F0B0FA80F0814204D100220221C4
:101B1000206803F01CFB0321206803F0F3FA400364
:101B200020684FF0030133D003F0ECFA90FAA0F0F4
:101B3000B0FA80F1286842032FD090FAA0F0B0FAF2
:101B400080F0814204D100220321206803F0FFFAD3
:101B50002068816811F0010F22D0AFE000E004E0BE
:101B600003F0D0FAC0F384618DE7C0F3846091E79D
:101B700003F0C8FAC0F38461A2E7C0F38460A6E76B
:101B800003F0C0FAC0F38461B7E7C0F38460BBE739
:101B900003F0B8FAC0F38461CCE7C0F38460D0E707
:101BA000EB682968434550F8B03FC1F3120101D1F9
:101BB0000B4300E08B430360E86840457ED1286812
:101BC00041031CD090FAA0F1B1FA81F1491C01F057
:101BD0001F0109294FEA403132D8002912D000BF35
:101BE00090FAA0F1B1FA81F101F1010101F01F01B8
:101BF00006FA01F609D100BFC0F3846109E0C0F321
:101C00008461E3E7C0F38461EEE790FAA0F1B1FAF2
:101C100081F101F1010101F01F0146EA816102D168
:101C2000C0F3846003E090FAA0F0B0FA80F000F115
:101C3000010000F01F0000EB400041EA005139E0D4
:101C400000290ED090FAA0F1B1FA81F101F1010161
:101C500001F01F0106FA01F606D100BFC0F384614E
:101C600006E0C0F38461F1E790FAA0F1B1FA81F1E6
:101C700001F1010101F01F0146EA816109D1C0F3C0
:101C800084600AE000007F400040100400F0FF0381
:101C900014E090FAA0F0B0FA80F000F1010000F03A
:101CA0001F003A4A00EB400002EB005041EA0001FD
:101CB00041F00071AA68206803F03AFA34482B68B2
:101CC00003425ED020684FF0A04C3249324E334D73
:101CD000604501D0A84201D10A4600E03246926830
:101CE000DFF8BC8002F0E072434503D0DFF8B48037
:101CF000434520D15FEA02281DD4604505D02A4B18
:101D000098423ED1A84200D0314642F400008A6891
:101D100022F0E07202438A60244825490068B0FB43
:101D2000F1F0801C00EB4000800000E0401E0090BD
:101D30000028FBD125E0DFF87C8043450FD15FEA26
:101D4000C2180CD4A84202D11B4B984219D060454E
:101D500002D0A84200D0314642F080700CE0DFF89B
:101D60005C8043450DD153020BD4A84209D0604595
:101D700000D0314642F480008A6822F0E0720243CB
:101D80008A6084F8587048468DE50000000020FE07
:101D900000000880000300500007005000010050C0
:101DA000000021C31000C090000600506000002019
:101DB000400D0300000052C700050050000084CB16
:101DC0000068A1F580710F390ED0B1F5837F08D07E
:101DD000B1F5037F02D0D0F880007047D0F88C00B6
:101DE0007047D0F888007047D0F884007047000032
:101DF0002DE9F041044600684FF0A0453E4FA8424F
:101E000001D0B84201D13D4900E03D49896801F067
:101E10001F0603F081F908BB2168C868C96C00F08F
:101E2000004011F4C07F00D190B194F8580001280F
:101E300014D0012084F858002046FFF741F9010032
:101E40004FF000020CD084F858200846BDE8F0811D
:101E5000E06D40F02000E0650120F7E70220F5E7A3
:101E6000E06DC00504D5206E20F00800206600E07B
:101E70002266E06D42F20103984340F48050E06531
:101E80002068204BDFF880C0B84201D1AE4604E0A4
:101E9000984201D1E64600E08646864500D02EB93C
:101EA000D4F85CE02EF4801EC4F85CE04FF0600EC5
:101EB000C0F800E084F858202068B84204D0984266
:101EC00001D1654600E00546854209D046B1062E9F
:101ED00006D0072E04D0E06D40F48010E065B4E732
:101EE000C26812F0007FB0D18268084B1A4042F0FD
:101EF00008028260A9E700000001005000030050C2
:101F0000000700500005005000040050C0FFFF7F94
:101F10002DE9F04F044690F858009BB00F464FF063
:101F2000000B012812D0012084F8580000261796D3
:101F3000189620684FF0A048DFF81C91DFF81CA12C
:101F4000474D404506D12846009508E002201BB0C9
:101F5000BDE8F08F48450AD15046CDF800A003F007
:101F6000E3F80090206803F0DFF840B109E0E06D8D
:101F700040F02000E06584F858600120E7E7009811
:101F800050B1E06D40F02000E0654FF0010B00BF64
:101F900084F858605846DAE720684146884201D004
:101FA000A84201D12F4800E02F48D7F800C02F4B9E
:101FB00040F61F72BCF1000F2DD0D0F808C094F885
:101FC00038802CF4604C4CEA483CD7F804804CEA4A
:101FD000080CC0F808C0D4F800C08C4501D0AC454E
:101FE00004D18968AB6801F0010109E0D9F8081053
:101FF000DAF8085001F0010105F001059B6829435A
:1020000003F001031943C3D1BB68396819438368DE
:10201000934319431DE0876827F46047876027686A
:102020008F4201D0AF4204D18968AB6801F0010151
:1020300009E0D9F80810DAF8085001F0010105F0BC
:1020400001059B68294303F001031943A0D181686E
:10205000914381609CE7000000040050000500509F
:10206000000100500003005000070050000600501F
:10207000F8B54FF0000504002E46009502D0E06D43
:1020800010B107E00120F8BD204600F00DF92666EA
:1020900084F8586020688168C1F3407119B1816883
:1020A000754A1140816020688168C1F3007189B967
:1020B0008168724A114041F08051816070487149D5
:1020C0000068B0FBF1F04000801C00E0401E009072
:1020D0000028FBD120688168C1F3007141B9E16D2E
:1020E00041F01001E165216E41F0010121660125F9
:1020F00003F016F8E16DC90600D430B1E06D40F090
:102100001000E06501252846F8BDE06D20F48070E0
:1021100040F00200E0652068816811F0010F27D1CE
:102120004FF0A043584A984201D0904204D1996898
:10213000966801F001010AE054498968544E01F0A3
:102140000101B66806F001063143524EB66806F04A
:10215000010631430CD1984201D0904201D14E4842
:1021600000E04E486168826822F47C120A43826073
:10217000E168E06B627F0843A16841EA42310843AD
:1021800094F8241040EA0140012904D1218D444AE9
:1021900002EB41410843E16A29B101F47871226BF5
:1021A000014342EA01002168CA683E4B1A400243DB
:1021B000CA6020680169626B21F0406111430161CE
:1021C000206802F0ADFF0646206802F0A1FF304310
:1021D0002ED1207F94F83810800340EA4101206816
:1021E000C26844F202039A430A43C260206900288D
:1021F000206801690AD041F480310161206850F8FB
:10220000C01F22696FF30D01114307E021F48031F3
:102210000161206850F8C01F6FF30D01016094F850
:10222000400001280CD02068016921F00101016102
:10223000606901282068016B21F00F0111D013E0C3
:10224000D4E911010843D4E913121143084321686A
:102250000A6940F2FC739A43104340F001000861A0
:10226000E6E7226A521E11430163E06D20F002008E
:1022700040F00100E06546E7C0FFFF5FC0FFFF7F61
:1022800060000020400D03000001005000040050D9
:1022900000050050000600500003005000070050E9
:1022A0000000FEFF0740F0FF2DE9F0439BB004461D
:1022B000142115A8FDF7F8FF54216846FDF7F4FF37
:1022C0004FF40041206800268A03524D0327524CE8
:1022D0004FF09049B0F1A04F12D0504B4FF0020890
:1022E000984246D168461192009100F0E5FF08B18E
:1022F000FEF73BFF2868401C286001281FD026E01D
:1023000068461192009100F0D7FF08B1FEF72DFF4B
:102310002868401C2860012807D1E06C40F4005078
:10232000E064E06C00F400501A90E06C40F00100B2
:10233000E064E06C00F001001A90042064E0E06CBE
:1023400040F40050E064E06C00F400501A90E06C3F
:1023500040F00100E064E06CCDF8548000F0010032
:102360001A9015A948462AE000F072FD1BB0BDE89E
:10237000F0832B4B9A01D103984223D168460092F7
:10238000129100F099FF08B1FEF7EFFE6868401C5B
:102390006860012807D1E06C40F48040E064E06CA4
:1023A00000F480401A90E06C40F00200E064E06CC1
:1023B000CDF8548000F002001A901A4815A9CDE912
:1023C0001676D1E7184B9842D0D168460092129108
:1023D00000F072FF08B1FEF7C8FE6868401C686034
:1023E000012807D1E06C40F48040E064E06C00F428
:1023F00080401A90E06C40F00100E064E06C00F076
:1024000001001A904FF440701796CDE9150715A9F1
:102410004846A9E7280000200010024000010050B3
:1024200000040050000400480006005010B590F869
:10243000253000210122022B03D00421C163012198
:1024400022E003681C6824F00E041C60836C1C6886
:1024500024F480741C6003681C6824F001041C6070
:1024600090F84430046C03F01F0302FA03F3636036
:10247000D0E913345C60436D33B11C6824F480747C
:102480001C60D0E916345C6080F82520002280F8BA
:102490002420084610BD70B590F8252000240121A5
:1024A0002346022A07D00422C26380F8251080F850
:1024B0002430012429E00268156825F00E05156016
:1024C0000268156825F001051560826C156825F411
:1024D0008075156090F84420056C02F01F0201FA27
:1024E00002F26A60D0E913255560426D32B1156879
:1024F00025F480751560D0E91625556080F8251003
:1025000080F82430816B01B18847204670BD0000FF
:1025100070B5044600F0CEFD0546601C02D00448AC
:102520004068044400F0C6FD401BA042FAD370BDD1
:102530003400002000EB4001C1EBC0104FF6FF71EA
:1025400001EAC000AFF3008070B54FF6FA710A4D92
:10255000081A84B228684462284601F025FF4FF625
:10256000F971286801E0426A94B28C42FBD3BDE85D
:102570007040014801F09EBFB409002030B590F8CA
:102580005C30012B07D0022B05D0016E41F0020117
:102590000166012030BD0468A36D4D0701D0DD0741
:1025A0001DD011F0380F01D09D0718D511F4E07F30
:1025B00001D05D0713D511F4F05F01D01D070ED5D2
:1025C00011F4604F01D0DD0609D511F4403F01D070
:1025D0009D0604D511F47C0F05D05D0603D4E56D8E
:1025E00045F00105E5654C0701D0DC071DD111F070
:1025F000380F01D09C0718D411F4E07F01D05C079C
:1026000013D411F4F05F01D01C070ED411F4604F05
:1026100001D0DC0609D411F4403F01D09C0604D45B
:1026200011F47C0F06D05B0604D50368DC6D44F022
:102630000204DC650B0604D5036853F8DC4F144331
:102640001C60CB0504D5036853F8E04F14431C60AD
:102650000068426D0A434265002030BD70B50446F3
:1026600090F85C00022803D0206E40F0080007E0DC
:102670002068D0F8C4309B0205D5206E40F400706D
:102680002066012070BDD0F8C400C0F301452B4680
:102690002046FEF799FE21680120A840C1F8CC0031
:1026A000A065002070BD10B590F85C20012A07D00D
:1026B000022A05D0016E41F002010166012010BD21
:1026C0000A687AB10B7B0A690C7A42EA43734A6959
:1026D000406C496842EA847200EBC100C0E90032F4
:1026E000002010BD0B7A4A690C8A42EA83720B7B88
:1026F000006CDB06496843EA04431A4340F8212092
:10270000EEE730B590F85C50039C012D05D0016ECA
:1027100041F004010166012030BD0901006841EA71
:10272000820141EA430150F8802F214322F03F0209
:1027300011430160002030BD70477047F0B590F83C
:102740005C40022C03D0016E41F008014DE00468AA
:1027500040293DD0D4F898502D0743D0D4F8984064
:10276000C4F30126D0F84C4006EBC60504EBC504C3
:10277000256815F080455560256839D025F06045FD
:1027800015602568284F05F00055956020CC05F0B0
:102790000045156134F8045BADB2D56154F8045CB2
:1027A00005F47025D56054F8045C05F48015556176
:1027B00054F8045C05F40015956154F8045CC5F305
:1027C0000665156254F8045CED0F5562002518E0AB
:1027D000D4F890502D0705D0D4F89040C4F30126CA
:1027E000846CC1E7016E41F4807101660120F0BD87
:1027F000C5F38A45C4E700BF14F805C003F805C057
:102800006D1CD2F80CC007EB1C4C9CF800C0AC450A
:10281000F2D80068402903D0C0F89C600020F0BDC9
:10282000C0F89460FAE7000010C1000870472DE975
:10283000F04704460068016D466D01F4E0510E401A
:10284000016D476D01F007010F40016D426D01F010
:10285000380102EA0108016D456D01F471010D4076
:10286000016D426D01F4602102EA0109016D490622
:1028700007D5416D490604D5402101652046FFF783
:10288000D5FF2068016DC9050DD5416DC9050AD573
:10289000D0F8D820D0F8E01011404FF480720265D3
:1028A000204600F0E1F92EB1206806653146204649
:1028B00000F0DCF92FB1206807653946204600F0AA
:1028C000B9F9B8F1000005D02168086541462046F5
:1028D00000F0B1F92068016D890508D5416D8905C1
:1028E00005D54FF400710165204600F0C0F920685D
:1028F000016D09060CD5416D090609D5D0F8D42023
:10290000D0F8DC10114080220265204600F0ADF9BD
:102910002068016D890408D5416D890405D54FF4FF
:1029200000510165204600F09EF92068016D090400
:1029300008D5416D090405D54FF4004101652046D5
:1029400000F090F92068016D490409D5416D4904F2
:1029500006D54FF480410165206E40F0800020666E
:10296000B9F1000005D02168086549462046FFF707
:10297000E4FE25B120680565206E28432066206EA0
:10298000002802D02046FFF7D7FEBDE8F087000000
:102990002DE9F041040006D0DFF8F48194F85C00E2
:1029A000002518B107E00120BDE8F08184F85D50F2
:1029B000204600F0F9F82068816921F0100181615A
:1029C00000F078FB0646032705E000BF00F072FB2D
:1029D000801B0A2811D8206880690007F6D4206877
:1029E000816941F00101816100F064FB06460BE062
:1029F00000F060FB801B0A2806D9206E40F0010021
:102A0000206684F85C70CEE720688069C007EFD04C
:102A10002068816941F0020181612168414502D14C
:102A20005C4960680860207C01282068816937D093
:102A300041F040018161607C01282068816932D0C9
:102A400021F480418161A07C0128206881692DD01A
:102A500041F48051816120688169A26821F440714C
:102A6000114381612068816921F0A401816120689E
:102A7000016921F010010161E068012819D010B34B
:102A800002281BD02068816941F0800181612068A3
:102A9000016941F010010161E06803280ED012E0E5
:102AA00021F04001C6E741F48041CBE721F4805199
:102AB000D0E72068816941F0040103E02068816962
:102AC00041F020018161207EE26940066FF0FF0144
:102AD00001EB0222A0F100701043226AA38A521E69
:102AE00010430A0202EB034318432368D861A0682D
:102AF000B0F5407F10D1D4E90A0301EB0321401E59
:102B00000843216B131303EB01110843A18C02EB63
:102B1000014108432168C860206850F8C01FE26B7B
:102B2000114301601D4A21681B48914200D11C4895
:102B30001C4A914201D100F5D460206451F8802FE5
:102B4000A38E22F4F81242EA03420A6000F17001F7
:102B50006164216851F8802F94F8383022F0706257
:102B600042EA03620A6000F1B001A164D831E16475
:102B7000D831216518316165D83100E020C0884224
:102B8000FCD3A5652566012084F85C0000200BE7D6
:102B9000006400400065004000A400400068004060
:102BA00050A70040006C004010B59CB004461421B2
:102BB00015A8FDF779FB54216846FDF775FB1B4905
:102BC0002068884230D18014009040030E906846FF
:102BD00000F072FB08B1FEF7C8FA1548816D41F0AC
:102BE00000718165816D01F000711A91C16C41F035
:102BF0000101C164C06C15A900F001001A904FF4E6
:102C0000C0501590022016900020179018900920AF
:102C10001990C00600F01CF903220021152000F0D5
:102C2000B3FA152000F0A2FA1CB010BD00640040F9
:102C3000001002407047704790F85C10012905D0E1
:102C4000016E41F00401016601207047022180F805
:102C50005C1001688A6922F001028A610021016624
:102C60000846704770477047704770477047704715
:102C70002DE9F05F054633488946017801290CD0DB
:102C80000126804606704FF47A7B5846FEF762FCB8
:102C900007004FF0000A03D04FE00220BDE8F09F8C
:102CA00051464046C8F804A0274C226892050AD530
:102CB0002168490505D5216821F48061216003213F
:102CC00009E0067708E02268520504D5216821F45E
:102CD00080612160022101772868012807D04FF028
:102CE000FF31C9F8001040F2FA3BAE681EE0686898
:102CF000FEF7D0FB5846FEF72DFC0746606948F208
:102D000004018843606116E030466968FEF7DEFB27
:102D10004FF47A70FEF71EFC0700606920EA0B0092
:102D2000606102D0C9F8006005E0761CD5E90201B7
:102D30000844B042E8D8FEF77FFB88F800A0384688
:102D4000ACE70000400000200020024005490120BF
:102D50004A6942F000424A614969002900DA0020CC
:102D60007047000000200240054901204A6942F0F6
:102D700080424A614969490000D50020704700003F
:102D800000200240064900204A69520007D5054A42
:102D9000CA60054ACA604969490000D501207047E8
:102DA000002002403B2A19087F6E5D4C2DE9F04758
:102DB0001B4D04461646287898468A46012809D0B5
:102DC000012028704FF47A794846FEF7C3FB0027AC
:102DD00018B119E00220BDE8F0876F6024B1012C22
:102DE00009D0022C07D00CE0324643465046FEF78D
:102DF0008DFB01240CE031465046FEF795FB022C7A
:102E000004D04846FEF7A6FB2F70E4E74FF4802479
:102E10004846FEF79FFB03494A69A2434A61F3E72C
:102E20004000002000200240064900204A69002A94
:102E300007DA054A8A60054A8A604969002900DA8A
:102E4000012070470020024023016745AB89EFCD88
:102E50002DE9F04FDFF82092002301260324A9F189
:102E6000040B85B00F2709F1040AABF1040EFAE058
:102E700006FA03F52A407CD091F804C00CF0030C4C
:102E8000BCF1010F02D0BCF1020F26D1D0F808C06E
:102E9000CDF800C04FEA430C04FA0CF8CDF810C08E
:102EA000DDF800C02CEA080CCDF800C0D1F80C8089
:102EB000DDF810C008FA0CF8DDF800C048EA0C088C
:102EC000C0F80880D0F804C02CEA050C0D79C5F3D1
:102ED00000159D4045EA0C0545600D79ED43AD07B1
:102EE0000ED0C5684FEA430804FA08FC25EA0C0531
:102EF000D1F808C00CFA08FC4CEA050CC0F80CC06C
:102F00000D7905F00305022D16D1DD0800EB850CC7
:102F1000CDF808C0DCF820805D074FEAD56C07FAD1
:102F20000CF528EA05080D6905FA0CF5DDF808C06E
:102F300045EA0805CCF8205005684FEA430CCDF867
:102F400008C004FA0CFC25EA0C0591F804C00CF04A
:102F50000308DDF808C008FA0CF848EA0508C0F8CC
:102F600000804D6815F4403F7CD0444DD5F860C0DA
:102F700000E077E04CF0010CC5F860C02D6E23F046
:102F8000030C05F0010500953D4D65440295AD68C3
:102F90004FEA837C4FEA1C7807FA08FC25EA0C0507
:102FA000B0F1904F06D0DFF8DCC0604505D14FF09E
:102FB000010C20E04FF0000C1DE0DFF8CCC06045B4
:102FC00002D14FF0020C16E0DFF8C0C0604502D11C
:102FD0004FF0030C0FE0DFF8B8C0604502D14FF0AE
:102FE000040C08E0DFF8ACC0604502D14FF0050CDE
:102FF00001E04FF0060C0CFA08FC4CEA050C029DAF
:10300000C5F808C0D9F80050CC46D1F804809543E3
:103010005FEAC82800D51543CCF80050DAF8005014
:10302000D446D1F8048095435FEA882800D515433B
:10303000CCF80050DBF80050DC46D1F80480954312
:103040005FEA883800D51543CCF80050DEF8005010
:10305000F446D1F8048095435FEAC83800D515439B
:10306000CCF800505B1C0A6832FA03F57FF400AF1D
:1030700005B0BDE8F08F00000804014000100240D8
:10308000000001400004004800080048000C00480F
:103090000010004800140048426921EA02030A4077
:1030A00043EA0241816170470AB1816170478162E0
:1030B000704700000148806870470000340000201D
:1030C00002488168426811448160704734000020E2
:1030D00010B50024032000F077F8002000F008F875
:1030E00008B1012401E000F025F8204610BD0000E1
:1030F00070B50E4E05460024706898B14FF47A7191
:10310000B1FBF0F00A490968B1FBF0F000F09BFF59
:1031100040B9102D06D200222946501E00F034F886
:10312000356000E00124204670BD0000340000201E
:10313000600000200C4808B5016E41F001010166F5
:10314000016E01F001010091816D41F080518165B6
:10315000806D00F080500090052000F035F8BDE84B
:10316000084000F0A1B8000000100240002809DB70
:1031700000F01F02012191404009800000F1E02091
:10318000C0F8001170470000F0B40E4B1B680C46ED
:10319000C3F30223C3F10705042D00D90425191D2B
:1031A000072901D2002300E0DB1E012606FA05F103
:1031B000491E214099409E40761E16403143F0BC86
:1031C00003F015BE0CED00E0064900F007020868A8
:1031D0004FF6FF03184040EA0220034A10430860FC
:1031E000704700000CED00E00000FA052B492C4B65
:1031F0000A6832214A432B4940B1B0F5007F086884
:1032000029D020F4C06040F480602CE00868C0F34E
:103210004120022804D051F8800F20F4807022E071
:10322000D1F8800020F48070C1F88000086820F494
:10323000C06040F400700860B2FBF3F0401C00E096
:10324000401E4A69520501D50028F9D14869400558
:103250000AD503207047C0F34120022806D051F858
:10326000800F40F48070086000207047D1F8800023
:1032700040F48070C1F88000086820F4C06040F419
:1032800000700860B2FBF3F0401C00E0401E4A6989
:103290005205DBD50028F9D1D8E7000060000020F6
:1032A00040420F00007000400248816841F48041B4
:1032B00081607047007000402DE9F84304460068C3
:1032C0000026BB4D00035ED5A86D0027C00008D4C2
:1032D000A86D40F08050A865A86D012700F08050CF
:1032E0000090DFF8D092D9F8001041F48071C9F84D
:1032F0000010FFF7DFFE804606E000BFFFF7DAFEB2
:10330000A0EB080002282BD8D9F80000C005F5D59D
:10331000D5F8900010F4407014D0216D814211D086
:10332000D5F89000D5F8901020F4407041F4803129
:10333000C5F89010D5F8901021F48031C5F89010A0
:10334000C5F89000C00711D0FFF7B4FE804641F2E7
:10335000883907E0FFF7AEFEA0EB0801494501D927
:1033600003260BE0D5F890008007F3D5D5F8900040
:10337000216D20F440700843C5F890001FB1A86D7E
:1033800020F08050A8652078C00707D0D5F88800C5
:10339000616820F003000843C5F8880020788007A2
:1033A00007D5D5F88800A16820F00C000843C5F8BF
:1033B00088002078400707D5D5F88800E16820F01C
:1033C00030000843C5F888002078000707D5D5F8F5
:1033D0008800216920F0C0000843C5F888002078E3
:1033E000C00607D5D5F88800616920F4407008430D
:1033F000C5F888002078800607D5D5F88800A1692F
:1034000020F440600843C5F888002078400607D5BE
:10341000D5F88800E16920F440500843C5F88800D9
:103420002078000607D5D5F88800216A20F44040AE
:103430000843C5F888002088C00507D5D5F888005E
:10344000616A20F440300843C5F888002068800392
:1034500007D5D5F89C00A16A20F003000843C5F801
:103460009C002088800507D5D5F88800E16A20F403
:1034700040200843C5F88800208840050FD5D5F8BE
:103480008800216B20F440100843C5F88800206BA9
:10349000B0F5801F03D1E86840F48010E860208810
:1034A00000050FD5D5F88800616B20F44000084373
:1034B000C5F88800606BB0F5800F03D1E86840F470
:1034C0008010E8602088C0040FD5D5F88800A16B73
:1034D00020F040700843C5F88800A06BB0F1807FF1
:1034E00003D1E86840F48010E86020884FF0006164
:1034F00080040ED5D5F88800E26B20F040601043C0
:10350000C5F88800E06B884203D1E86840F4801079
:10351000E860208840040ED5D5F88800226C20F0A1
:1035200040601043C5F88800206C884203D1E868E9
:1035300040F48010E860208800040FD5D5F888009A
:10354000616C20F040500843C5F88800606CB0F111
:10355000805F03D1E86840F48030E8602068C003F1
:103560000FD5D5F88800A16C20F040400843C5F87D
:103570008800A06CB0F1804F03D1E86840F480303F
:10358000E860206840030FD5D5F89C00E16C20F47A
:1035900040100843C5F89C00E06CB0F5001F03D153
:1035A000E86840F48010E8603046BDE8F883000029
:1035B00000100240007000402DE9F0470E46050063
:1035C0004FF0000725D0DFF8AC81D8F8000000F0FC
:1035D0000F00B0420CD2D8F8001021F00F01314397
:1035E000C8F80010D8F8000000F00F00B04210D169
:1035F0002968614CC80741F2883A5AD06868DFF8F8
:103600007C91032808D0022820682DD0400500288E
:103610002CDB0120BDE8F08720688001F9D5E06847
:1036200000F00302E068C0F30310401C032A19D025
:10363000534A00BFB2FBF0F0E268C2F306225043E7
:10364000E268C2F34162521C5200B0FBF2F04845FE
:1036500017D9A06810F0F00F0CD0880711D5A86812
:1036600040B10EE0474AE5E78003D0E700F0B6F846
:10367000484506D9A06820F0F00040F08000A06026
:103680008027A068696820F003000843A060FFF766
:1036900011FD814606E000BFFFF70CFDA0EB09011C
:1036A00051453AD8A068696800F00C00B0EB810F72
:1036B000F2D12868810714D5400703D5A06840F4EB
:1036C000E060A0602878000705D5A06820F460506D
:1036D00040F4E060A060A068A96820F0F000084312
:1036E00004E0802F03D1A06820F0F000A060D8F89B
:1036F0000010404601F00F01B14216D9016821F0D7
:103700000F0131430160FFF7D5FC074607E000BF1A
:10371000FFF7D0FCC11B514501D903207AE7D8F847
:10372000000000F00F00B042F2D12878400705D524
:10373000A068E96820F4E0600843A06028780007EA
:1037400006D5A068296920F4605040EAC100A06055
:1037500000F044F8A1680C4AC1F30311515C01F078
:103760001F01C8400949086009480068BDE8F047E2
:10377000FFF7BEBC002002400010024000B4C404A9
:103780000024F40040787D0148C10008600000205A
:10379000340000200548064900688968054AC1F3DD
:1037A0000221515C01F01F01C840704760000020F9
:1037B0000010024058C100080548064900688968A1
:1037C000054AC1F3C221515C01F01F01C840704796
:1037D000600000200010024058C10008184910B5D0
:1037E0008868C0F381021748012A0BD08A68164BFB
:1037F000C2F38102022A06D08A68C2F38102032A38
:1038000003D0002010BD184610BDCA6802F00304A2
:10381000CA68C2F30312521C032C02D0B0FBF2F0B0
:1038200001E0B3FBF2F0CA68C968C2F30622504354
:10383000C1F34161491C4900B0FBF1F010BD00002B
:10384000001002400024F40040787D012DE9F84387
:1038500004007AD02078FA4DC00747D0A868E968FC
:1038600000F00C0001F003010C2802D0082817D04A
:1038700001E0032914D06068B0F5803F17D0B0F59F
:10388000A02F286817D020F480302860286820F402
:10389000802028606068E0B1FFF70CFC064614E069
:1038A0002868800322D560680028D2D01EE02868EE
:1038B00040F48030EDE740F480202860F7E700BF57
:1038C000FFF7F8FB801B642870D828688003F7D5C1
:1038D0000CE0FFF7EFFB064605E000BFFFF7EAFB51
:1038E000801B6428F0D828688003F7D420788007EC
:1038F0004CD5A868E96800F00C0001F003010C2821
:1039000002D004280DD001E002290AD0E068002886
:1039100028682BD040F480702860FFF7CBFB064668
:1039200019E02868400502D5E068002891D0686851
:10393000217C20F0FE4040EA01606860C1480068D8
:10394000FFF7D6FB002800D120E076E1FFF7B2FBBD
:10395000801B0228B8D828684005F7D56868217C04
:1039600020F0FE4040EA016068600FE020F48070C3
:103970002860FFF79FFB064605E000BFFFF79AFBB4
:10398000801B0228A0D828684005F7D420780007BB
:1039900029D560690028D5F8940013D040F00100C3
:1039A000C5F89400FFF786FB064606E090E000BFEE
:1039B000FFF780FB801B022886D8D5F8940080078B
:1039C000F6D510E020F00100C5F89400FFF772FB77
:1039D000064604E0FFF76EFB801B022878D8D5F876
:1039E00094008007F6D42078400761D5A86D0026A2
:1039F000C00008D4A86D40F08050A865A86D0126CD
:103A000000F08050009090480168C90511D4016809
:103A1000804641F480710160FFF74CFB074604E0EB
:103A2000FFF748FBC01B022852D8D8F80000C00599
:103A3000F6D5A068012815D00528D5F8900016D035
:103A400020F00100C5F89000D5F8900020F00400A7
:103A5000C5F89000A06841F28838B8B1FFF72AFB9A
:103A600007460EE0D5F8900040F00100F0E740F086
:103A70000400C5F89000F5E7FFF71CFBC11B4145AA
:103A800026D8D5F890008007F6D50CE0FFF712FB9A
:103A9000074604E0FFF70EFBC11B414518D8D5F8D7
:103AA00090008007F6D41EB1A86D20F08050A86564
:103AB0002078800629D5A0690028D5F8980013D071
:103AC00040F00100C5F89800FFF7F4FA064606E05A
:103AD00077E000BFFFF7EEFA801B022877D8D5F811
:103AE00098008007F6D510E020F00100C5F8980096
:103AF000FFF7E0FA064604E0FFF7DCFA801B022835
:103B000065D8D5F898008007F6D4E069F0B3A968C5
:103B1000C1F38101032961D00228286820F0807058
:103B200028600BD0E86820F00300E860E8684749A7
:103B30000840E860FFF7BEFA04464BE0FFF7BAFA28
:103B4000064604E0FFF7B6FA801B02283FD8286833
:103B50008001F7D4F4E908016FF00F0202EB0111C4
:103B60000843218A5204490802EB4151A26841EA04
:103B700002210843217D4FF07E42490802EB41615A
:103B80000843217B40EAC160E96800E062E0304A16
:103B900011400843E860286840F080702860E868B9
:103BA00040F08070E860FFF785FA044605E000BF4A
:103BB000FFF780FA001B022809D828688001F7D592
:103BC00048E004E0FFF776FA001B022802D9032040
:103BD000BDE8F88328688001F4D43BE00128F7D0E1
:103BE000E868226A00F00301914226D1616A00F080
:103BF000F0020901103991421FD1A26A00F4FE417E
:103C0000B1EB022F19D194F82C2000F07841B1EBE0
:103C1000C26F12D1218E00F4C00249084905A1F5F6
:103C20000011914209D194F8341000F0C0604908A5
:103C30004906A1F1007181420CD00120C8E70000C3
:103C4000001002403400002000700040FFFFEEFE34
:103C50000C809F010020BBE770B5040009D0606AAA
:103C6000002540B125616561A56294F85D0040B111
:103C70000CE0012070BD6068B0F5827FF4D0E56192
:103C8000F2E784F85C50204600F05CF8022084F8EB
:103C90005D002068016821F040010160E1684FF497
:103CA000E062914201D9002001E04FF48050B1F56B
:103CB000706F02D0914200D0A562A188228901F4E0
:103CC000827102F404421143227C02F00202114389
:103CD000227D02F001021143228B02F40072114393
:103CE000227F02F03802114394F8202002F0800273
:103CF0001143228D02F40052114322681160A16920
:103D0000042202EA114194F8242000F4805002F0C9
:103D10001002114394F8342002F008021143A289E2
:103D200002F4706211430143206841602068C16958
:103D300021F40061C1612566012084F85D00002046
:103D400070BD000010B586B0044614216846FCF72B
:103D5000ABFA23681F4C00221F480221A34219D14D
:103D6000036E43F480530366036E03F4805305939C
:103D7000C36C43F00103C364C06C00F00100059004
:103D8000E0208DE807000520CDE9031069464FF0DB
:103D900090401BE0114CA3421AD1836D43F40043C1
:103DA0008365836D03F400430593C36C43F0040300
:103DB000C364C06C00F0040005904FF4E0508DE83F
:103DC00007000620CDE9031069460548FFF740F8D3
:103DD00006B010BD0030014000100240003C004021
:103DE000000800482DE9F05F044690F85C000027C9
:103DF0000A9E1D4692468B464FF0010901280ED0BF
:103E0000012084F85C00FFF755F9804694F85D00C6
:103E1000616801280CD0B1F5827F07D102E0022051
:103E2000BDE8F09FA16809B9042801D0022700E18C
:103E3000BBF1000F24D0BAF1000F21D005B394F8E4
:103E40005D00042802D0052084F85D000020206673
:103E5000C4F840A0A4F84650A4F84450C4F838B0C0
:103E6000E587A587E0642065E0684FF4E06188425B
:103E700001D8012D06D92068426822F4805205E05D
:103E80000127D6E02068426842F4805242602068F0
:103E90000268520603D4026842F040020260E06801
:103EA0008842606845D908B1012D3AD1A06B2168DC
:103EB0000088C860A06B801CA063E08F401EE08774
:103EC0002FE02068816889070FD5E18F69B1B9F1CA
:103ED000010F0AD1A16B0988C160A06B801CA0638F
:103EE000E08F401EE0874FF0000920688168C90715
:103EF0000FD0B4F8461061B1C068216C0880206C06
:103F0000801C2064B4F84600401EA4F846004FF020
:103F10000109FFF7CFF8A0EB0800B04201D3701CF5
:103F200075D1E08F0028CCD1B4F846000028C8D164
:103F300076E008B1012D6CD1E08F0128A06B08D983
:103F400021680088C860A06B801CA063E08F801E81
:103F500007E0216800780873A06B401CA063E08F25
:103F6000401EE08755E02068816889071AD5E18FF7
:103F7000C1B1B9F1010F15D1E18F0129A16B07D9A9
:103F80000988C160A06B801CA063E08F801E06E0E2
:103F900009780173A06B401CA063E08F401EE0878E
:103FA0004FF0000920688168C90728D0B4F846108E
:103FB00029B3B4F84610012914D9C068216C0880CF
:103FC000206C801C2064B4F84600801EA4F84600D3
:103FD000B4F84600012810D82068416841F48051A7
:103FE00041600AE0007B216C0870206C401C20645A
:103FF000B4F84600401EA4F846004FF00109FFF750
:1040000059F8A0EB0800B04202D3701C01D018E0B0
:10401000BEB1E08F0028A6D1B4F846000028A2D196
:1040200042463146204601F02BFC10B101272020EA
:104030002066012084F85D00002084F85C0038468A
:10404000EEE60327F5E710B5401EB0F1807F01D3FF
:10405000012010BD4FF0E02460610F21601702F0D5
:10406000C6FE0020A06107202061002010BD70471F
:1040700070477047F0B590F83C20012A58D00122D3
:1040800080F83C20CA688B6822F440721A434B685F
:1040900022F480621A430B6822F400621A430B690F
:1040A00022F480521A434B6922F400521A430B6BDC
:1040B00022F480421A430B8B22F4702242EA03421C
:1040C0001C4C036800271C4D1C4EA34203D0AB427E
:1040D00001D0B34205D1D1F81CC022F0805242EA8F
:1040E0000C02A34203D0AB4201D0B3421BD1B1F8C2
:1040F00028C022F4700242EA0C52D1F820C022F00B
:10410000807242EA0C02D1F824C022F0007242EA26
:104110000C02A34203D0AB4201D0B34203D1C96A1F
:1041200022F000520A435A6480F83C700020F0BD2F
:104130000220F0BD002C014000340140005001403D
:104140007047704770470000F0B590F83C20012A96
:1041500043D0012580F83C50022280F83D200368BE
:104160005A689C681E4E1F4FDFF87CC0B34203D0D4
:10417000BB4201D0634504D122F4700E4A6842EA82
:104180000E02DFF868E002EA0E02D1F800E04EEA23
:10419000020EC3F804E00268B24212D0B2F1804FBE
:1041A0000FD0134B9A420CD0124B9A4209D0124BAB
:1041B0009A4206D0BA4204D0104B9A4201D06245CE
:1041C00004D1896824F080031943916080F83D5040
:1041D000002180F83C100846F0BD0220F0BD000030
:1041E000002C014000340140005001408FFFFFFDD2
:1041F0000004004000080040000C00400040014066
:1042000010B50446022249B104290ED0082913D062
:1042100094F84700012816D0012010BD94F84400FE
:104220000128F9D184F844200FE094F845000128D2
:10423000F2D184F8452008E094F846000128EBD13B
:1042400084F8462001E084F847200422206801F029
:1042500022FE2068416C41F400414164134920680A
:10426000884214D0B0F1804F11D0114988420ED04D
:10427000104988420BD01049884208D00F49884223
:1042800005D00F49884202D00E49884207D1816883
:104290000D4A1140062906D0B1F5803F03D00168D0
:1042A00041F001010160002010BD0000002C014020
:1042B0000004004000080040000C004000340140B1
:1042C000004001400050014007000100704710B558
:1042D000040003D094F83D0010B107E0012010BDA8
:1042E000002084F83C00204600F022F8022084F8E8
:1042F0003D00211D206801F057FD012084F8480091
:1043000084F83E0084F83F0084F8400084F84100BF
:1043100084F8420084F8430084F8440084F845009F
:1043200084F8460084F8470084F83D00002010BD62
:1043300008B51A4A01681A4891420ED1016E41F43B
:1043400000610166006E022200F40060009000210E
:104350001920FEF719FF19201CE0B1F1804F0BD096
:10436000104A914207D1816D41F010018165806D45
:1043700000F01000009008BD816D41F001018165E1
:10438000806D002200F00100009001211C20FEF74A
:10439000FBFE1C20BDE80840FEF7E8BE002C0140F3
:1043A000001002400010004090F83D10012901D09B
:1043B00001207047022180F83D10006812498842B0
:1043C00014D0B0F1804F11D0104988420ED010495E
:1043D00088420BD00F49884208D00F49884205D047
:1043E0000E49884202D00E49884207D181680D4AA1
:1043F0001140062906D0B1F5803F03D0016841F095
:104400000101016000207047002C014000040040C1
:1044100000080040000C0040003401400040014012
:10442000005001400700010090F83D10012901D023
:1044300001207047022180F83D100168CA6842F0EF
:104440000102CA6000681349884214D0B0F1804F5D
:1044500011D0114988420ED0104988420BD0104922
:10446000884208D00F49884205D00F49884202D0BF
:104470000E49884207D181680D4A1140062906D0AD
:10448000B1F5803F03D0016841F0010101600020D7
:1044900070470000002C014000040040000800406C
:1044A000000C004000340140004001400050014039
:1044B0000700010001680A6A41F211131A4207D18C
:1044C0000A6A9B001A4203D10A6822F001020A60BC
:1044D000012180F83D1000207047000070B50446AF
:1044E00090F83C00002501281CD0012684F83C608F
:1044F000022084F83D0022689068334B184020F475
:104500007F4090600868B0F5005F2ED016DC402830
:1045100049D009DCD0B1102818D0202816D0302876
:1045200049D113E0022070BD50282AD0602830D035
:1045300070280FD0B0F5805F3DD13DE010F00F0F37
:1045400039D10111A1F58031072934D822680146FB
:10455000104625E0CB68D1E90121206801F0A8FCD4
:104560002068816841F0770109E0CB68D1E9012139
:10457000206801F09DFC2068816841F480418160E1
:104580001AE0CA684968206801F066FE5021206878
:1045900006E0CA684968206801F06FFE6021206863
:1045A00001F090FC08E0CA684968206801F054FEF8
:1045B00040212068F4E7012584F83D60002084F85C
:1045C0003C00284670BD000088FFCEFF704770B5E4
:1045D0000446006801694FF00005C943890715D4F6
:1045E000C168C943890711D4E91E01610120207700
:1045F000206880698007204602D0FFF7E7FF04E0CB
:1046000000F03AF9204600F0FCF9257720680169AE
:10461000C943490717D4C168C943490713D46FF088
:1046200004010161022020772068806910F4407F36
:10463000204602D0FFF7CAFF04E000F01DF9204633
:1046400000F0DFF9257720680169C943090716D40E
:10465000C168C943090712D46FF008010161042041
:1046600020772068C0698007204602D0FFF7AEFFA0
:1046700004E000F001F9204600F0C3F92577206836
:104680000169C943C90617D4C168C943C90613D40F
:104690006FF010010161082020772068C06910F4D4
:1046A000407F204602D0FFF791FF04E000F0E4F8DD
:1046B000204600F0A6F9257720680169C943C9079B
:1046C00008D1C168C943C90704D1891E01612046C8
:1046D00000F022FA20680169C943090609D4C168BB
:1046E000C943090605D46FF0800101612046FFF738
:1046F000BFFC20680169C943C90509D4C168C94321
:10470000090605D46FF4807101612046FFF7AFFC04
:1047100020680169C943490609D4C168C9434906EB
:1047200005D46FF040010161204600F0F6F92068E1
:104730000169C943890609D4C168C943890605D4FA
:104740006FF0200101612046FFF793FC20680169AA
:10475000C943C90209D4C168C943C90205D46FF469
:10476000801101612046FFF7ECFC20680169C94314
:10477000890209D4C168C943890205D46FF40011C4
:1047800001612046FFF7DCFC20680169C94349024A
:1047900009D4C168C943490205D46FF4800101619D
:1047A0002046FFF7CFFC20680169C94309020BD4FA
:1047B000C168C943090207D46FF4000101612046B2
:1047C000BDE87040FFF782BD70BD000070B586B0D7
:1047D000044614216846FBF767FD23492068884298
:1047E00040D12248C16C41F00401C164C16C01F0A8
:1047F00004010591C16C41F00201C164C06C022545
:1048000000F0020005904FF4005000900024CDE924
:1048100001540420CDE90340154E69463046FEF7A9
:1048200017FB07200090CDE9015469463046CDE9D9
:104830000345FEF70DFB01200090CDE90154062051
:10484000CDE903400B4E69463046FEF701FB2802D6
:104850000090CDE901540C20CDE903406946304673
:10486000FEF7F6FA06B070BD002C014000100240C1
:104870000008004800040048704770B5044690F8EE
:104880003C0000260D4601280BD0012084F83C0096
:104890000C2A4AD007DC82B1042A20D0082A06D18B
:1048A00031E0022070BD102A53D0142A63D00126B3
:1048B000002084F83C00304670BD206801F00CFBFD
:1048C0002068816941F0080181612068816921F0D7
:1048D00004018161206881692A69114311E020681F
:1048E00001F050FB2068816941F40061816120681A
:1048F000816921F480618161206881692A6941EAC6
:1049000002218161D4E7206801F08CFB2068C16935
:1049100041F00801C1612068C16921F00401C16151
:104920002068C1692A69114311E0206801F0CAFBBF
:104930002068C16941F40061C1612068C16921F446
:104940008061C1612068C1692A6941EA0221C161AF
:10495000AEE7206801F006FC2068016D41F0080117
:1049600001652068016D21F0040101652068016D79
:104970002A69114311E0206801F030FC2068016DC4
:1049800041F4006101652068016D21F480610165D9
:104990002068016D2A6941EA0221016588E710B5A6
:1049A000040003D094F83D0010B107E0012010BDD1
:1049B000002084F83C00204600F022F8022084F811
:1049C0003D00211D206801F0EFF9012084F8480026
:1049D00084F83E0084F83F0084F8400084F84100E9
:1049E00084F8420084F8430084F8440084F84500C9
:1049F00084F8460084F8470084F83D00002010BD8C
:104A00007047704770B50446022269B1042912D07C
:104A1000082917D00C291CD0102921D094F8430064
:104A2000012824D0012070BD94F83E000128F9D15E
:104A300084F83E201DE094F83F000128F2D184F86C
:104A40003F2016E094F840000128EBD184F8402084
:104A50000FE094F841000128E4D184F8412008E0F7
:104A600094F842000128DDD184F8422001E084F866
:104A700043200122206801F001FA1D4920681D4AE7
:104A80001D4B1E4D88420BD0904209D0984207D052
:104A90001B4EB04204D01B4EB04201D0A84203D1FD
:104AA000466C46F4004646642068884211D0B0F156
:104AB000804F0ED0144988420BD01449884208D048
:104AC0001349884205D0904203D0984201D0A842B1
:104AD00007D181680F4A1140062906D0B1F5803F01
:104AE00003D0016841F001010160002070BD0000A9
:104AF000002C0140003401400040014000500140C2
:104B0000004401400048014000040040000800400B
:104B1000000C0040070001007047704790F88010BB
:104B2000012918D0012180F880102421C0F88410B8
:104B300050F8641B0A680B6823F001030B6022F035
:104B400000510022026050F8643C1960202101628B
:104B5000027710467047022070477047704770B563
:104B6000044690F8800001281DD0012084F88000C0
:104B70002420C4F8840020680568026822F001023D
:104B800002602068826822F060620A4382602046E8
:104B900001F086FB206805602020C4F88400002016
:104BA00084F8800070BD022070BD70B5044690F896
:104BB000800001281DD0012084F880002420C4F842
:104BC000840020680568026822F001020260206803
:104BD000826822F060420A438260204601F060FB56
:104BE000206805602020C4F88400002084F880003C
:104BF00070BD022070BD7047704770472DE9F041CD
:104C000003680446D86919689A6840F60F05284277
:104C10004FF0000509D186067ED501F0200602F08E
:104C200080573E4378D0216F27E1A94EA94F164007
:104C30000F40374370D0C70709D0CF0507D50127EC
:104C40001F62D4F88C3043F00103C4F88C30830722
:104C50000AD5D30708D0276802233B62D4F88C30EA
:104C600043F00403C4F88C3043070AD5D30708D0B7
:104C7000276804233B62D4F88C3043F00203C4F865
:104C80008C3003070CD501F02003334308D026688D
:104C900008233362D4F88C3043F00803C4F88C3016
:104CA00003050BD54B0109D526684FF40063336229
:104CB000D4F88C3043F02003C4F88C30D4F88C3016
:104CC000002B3AD0800609D501F0200002F0805177
:104CD000084303D0216F09B120468847D4F88C00DF
:104CE00021688968490602D410F0280F27D0204691
:104CF00001F096FB2068806840061BD520680830CC
:104D000050E8001F21F0400140E80012002AF5D1D0
:104D1000E06F78B1704900E017E08163E06FFDF764
:104D2000BAFB002809D0E06F816B00E02046BDE8A7
:104D3000F04108472046FFF760FFBDE8F0812046BC
:104D4000FFF75BFFC4F88C50F7E7E76E2026012FD2
:104D50007ED1C7067CD5CF067AD510201862206890
:104D60008068400642D5E16F086840680004000C86
:104D7000E3D0B4F85C208242DFD9A4F85E00086872
:104D8000006880062BD4206850E8001F21F4807151
:104D900040E80012002AF6D12068083050E8001FD1
:104DA00021F0010140E80012002AF5D12068083006
:104DB00050E8001F21F0400140E80012002AF5D120
:104DC000C4F88860E566216851E8000F20F0100003
:104DD00041E80002002AF6D1E06FFDF727FBB4F8A6
:104DE0005C00B4F85E10401A81B22CE0B4F85C00AC
:104DF000B4F85E10401A81B2B4F85E0000289CD06E
:104E000000299AD0226852E8000F20F4907042E8FE
:104E10000003002BF6D12E4BDB432068083050E80E
:104E2000002F1A4040E80027002FF6D1C4F8886010
:104E3000E5662567226852E8000F20F0100042E87E
:104E40000003002BF6D12046FFF787FE75E7FFE74A
:104E5000C70209D5570207D54FF4801018622046C3
:104E6000BDE8F041FFF7C8BE03060AD501F0800394
:104E700002F40002134304D0616F00297FF456AF9F
:104E80005BE7420611D54A060FD52046016851E876
:104E9000002F22F0400241E80023002BF6D1C0F899
:104EA0008460456700F02CF947E7020206D54A0006
:104EB00004D52046BDE8F041FFF79DBEC001C5D531
:104EC0000029C3DA2046BDE8F041FFF747BE0000E5
:104ED00001000010200100040D64000810B504005A
:104EE00003D0D4F8840010B107E0012010BD0020E9
:104EF00084F88000204600F027F82420C4F88400BD
:104F00002068016821F001010160204601F0CAFC1F
:104F10000128EBD0A06A10B1204601F0E3F9206827
:104F2000416821F4904141602068816821F02A01A4
:104F300081602068016841F0010101602046BDE800
:104F4000104001F033BA000010B59CB004461421A3
:104F500015A8FBF7A9F954216846FBF7A5F91A49EA
:104F6000206888422ED101200024CDE90004684643
:104F7000FEF7A2F908B1FCF7F8F81448016E41F405
:104F800080410166016E01F480411A91C16C41F0CB
:104F90000401C164C06C15A900F004001A9030200F
:104FA00015900220CDE916040720CDE918400848E5
:104FB000FDF74EFF022211462520FEF7E5F82520D9
:104FC000FEF7D4F81CB010BD0038014000100240BC
:104FD0000008004830B4D0F88830202B20D1E1B14F
:104FE000DAB190F88030012B1AD0012380F880309C
:104FF0000023C3660B4C0368A3420BD05B681B0203
:1050000008D5046854E8003F43F0806344E8003565
:10501000002DF6D130BC01F091BD012030BC7047AD
:105020000220FBE70080004010B50122034904483C
:10503000FFF7D0FFBDE8104006F0C2BA31000020F3
:10504000000A00202DE9F8430446D0F884001F46EA
:1050500016460D46202851D1DDB1D6B194F8800016
:1050600001284BD0012084F880004FF00008C4F8DC
:105070008C802120C4F884001834FEF71BF8A68722
:105080008146E68754F8100C183CB0F5805F03D0D9
:1050900004E00120BDE8F883206920B12E460025F8
:1050A00084F8808010E00026FAE78021204601F095
:1050B000D1FDB8B9C6B116F8010B21688862B4F801
:1050C0005600401EA4F85600B4F856004B464FF068
:1050D000000200970028E8D14FF04001204601F07F
:1050E000B9FD30B10320D5E735F8020BC0F3080055
:1050F000E3E72020C4F884000020CBE70220C9E7C2
:105100007047FEE700EB8100006E00F0F84070474A
:105110008068C0F3C00070478068C0F3C00070476B
:105120008068C0F3800070478068C0F380007047DB
:10513000042303EAD15310B518444369C1F3045161
:1051400007248C40A3438A401343436110BD00EB06
:105150008100016E21F0004111430166704700009B
:1051600070B592B000240F9410943C2168461194BD
:10517000FBF79AF821484FF0A041042501604FF455
:105180004031C0E90114C4600461C0E905450477F9
:1051900044770126066280F8244080F83840C463D2
:1051A00080F84040FCF764FF08B1FBF7DEFF0FA971
:1051B00012480F94FCF7ACFE08B1FBF7D6FF10487D
:1051C00000900920CDE901047F2008960594CDE9DF
:1051D000030580208DF824408DF825400A900B901F
:1051E0008DF826408DF8304069460448FCF73EFBB8
:1051F000002801D0FBF7B9FF12B070BD40060020B7
:105200000800900C70B590B03C216846FBF74CF854
:105210001E481D49002401604FF44031C0E90114CB
:10522000C46004250461C0E905450477447701267C
:10523000066280F8244080F83840C46380F840401B
:10524000FCF716FF08B1FBF790FF1148009009200A
:10525000CDE901047F2008960594CDE9030580205F
:105260008DF824408DF825400A900B908DF826404B
:105270008DF8304069460548FCF7F8FA002801D05F
:10528000FBF773FF10B070BD00010050AC060020AA
:105290000400600870B592B000240F9410943C2173
:1052A00068461194FBF700F8224821490425016063
:1052B0004902C0E90114C4600461C0E905450477EE
:1052C00044770126066280F8244080F83840C463A1
:1052D00080F84040FCF7CCFE08B1FBF746FF0FA971
:1052E00014480F94FCF714FE08B1FBF73EFF124878
:1052F000009009200190032002907F2008960594D9
:10530000CDE9030588200A908DF8244080208DF88F
:1053100025400B908DF826408DF8304069460548B1
:10532000FCF7A4FA002801D0FBF71FFF12B070BDF4
:1053300000040050180700200200300430B58FB080
:105340003C216846FAF7B0FF254824490024016053
:105350004FF40021C0E90114042585610121C460D6
:10536000C0E9044104774477016280F8244080F862
:105370003840C46380F84040FCF77AFE08B1FBF780
:10538000F4FE184800900920019002AA02207F2113
:10539000059482E82300089088200A908DF8244024
:1053A00080208DF825400B908DF826408DF83040F8
:1053B00069460B48FCF75AFA08B1FBF7D6FE0A48D3
:1053C000009040F20F10019069460548FCF74EFA34
:1053D000002801D0FBF7C9FE0FB030BD0006005019
:1053E000840700200200300404006008124810B551
:1053F000104901600021416081600122C160027496
:10540000417481740A23C0E905320C230424C3616A
:10541000C0E9084200F1280C8CE81C004263C0E996
:105420000E21FDF7B5FA002803D0BDE81040FBF7C8
:105430009CBE10BD00640040F00700202DE9F04143
:1054400086B014216846FAF72FFF3448C16C41F04A
:105450000401C164C16C01F004010591C16C41F00B
:105460002001C164C16C01F020010591C16C41F0C3
:105470000101C164C16C01F001010591C16C41F0F1
:105480000201C164C06C264E00F0020005900022AB
:1054900008213046FDF708FE4FF09047002248F201
:1054A00010013846FDF700FEDFF8788000227021F9
:1054B0004046FDF7F9FD0820009001250024CDE9C4
:1054C0000154694630460394FDF7C2FCCDE900540F
:1054D000694638460294FDF7BBFC10200090CDE9E8
:1054E0000154694638460394FDF7B2FCE803CDE960
:1054F00000050320CDE9024069463846FDF7A8FCC7
:105500007020CDE900050220CDE902406946404601
:10551000FDF79EFC06B0BDE8F081000000100240DF
:105520000008004800040048124810B51049016006
:105530004FF48271416000214FF47062C0E90212A1
:105540000122C0E90412520282612022C0E907212F
:1055500007224162C0E90A1201634163FEF77CFB46
:10556000002803D0BDE81040FBF7FFBD10BD0000D0
:105570000030014054080020124810B51049016065
:105580004FF48271416000214FF47062C0E9021251
:105590000222026101224261520282611022C0E9AC
:1055A000072107224162C0E90A1201634163FEF745
:1055B00053FB002803D0BDE81040FBF7D6BD10BD5B
:1055C000003C0040B808002010B59CB0002419949D
:1055D0001A9417941894149415941C2168461694E0
:1055E000FAF762FE342107A8FAF75EFE3B483A4913
:1055F000C0E900142021816040F64C01C0E9031489
:105600000121C0E90514FEF762FE08B1FBF7ADFD0C
:105610004FF48050179017A93048FEF75FFF08B18C
:10562000FBF7A3FD2D48FFF7BAF908B1FBF79DFD85
:105630007020CDE9140414A928481694FEF784FDBF
:1056400008B1FBF792FD6020CDE90004042002942C
:10565000CDE9034005940022694620480694FFF7EF
:105660000CF908B1FBF781FD042269461B48FFF7DE
:1056700004F908B1FBF779FD08226946174804943C
:10568000FFF7FBF808B1FBF770FD40F6480001900A
:105690000C2269461148FFF7F0F808B1FBF765FDE9
:1056A0000794089409944FF400500A94CDE90B40F4
:1056B0000D9400030E94CDE90F401194129407A9A4
:1056C00006481394FEF7D6FC08B1FBF74EFD0348DD
:1056D000FFF77CF81CB010BD002C01401C09002015
:1056E00010B58EB000240794089409940A940B9482
:1056F0000C941C2168460D94FAF7D6FD1E484FF015
:10570000804101603121C0E9011440F64751C0E9F0
:1057100003148461FEF7DBFD08B1FBF726FD4FF4AF
:105720008050079007A91448FEF7D8FE08B1FBF790
:105730001CFD1148FFF733F908B1FBF716FD702087
:105740000B900BA90D940C48FEF7FEFC08B1FBF77B
:105750000CFD6020009040F64650CDE901040C227B
:10576000694605480494FFF788F8002801D0FBF744
:10577000FCFC0EB010BD0000680900203EB50024FE
:105780000F48009401940D4902940160A921C0E9D9
:1057900001144FF6FF71C16080218161FEF797FD12
:1057A00008B1FBF7E2FC0094694605480294FEF755
:1057B000CBFC002801D0FBF7D8FC3EBD0010004018
:1057C000B4090020184810B5164901604FF4612152
:1057D0004160002181600C22C160C0E90412816136
:1057E000C161016241628162FFF778FB08B1FBF79A
:1057F000BCFC00210C48FFF7D8F908B1FBF7B5FC59
:1058000000210948FFF7ABF908B1FBF7AEFC0648E9
:10581000FFF784F9002803D0BDE81040FBF7A5BCD2
:1058200010BD000000380140000A0020FEE770476C
:1058300070B500252DED028BB0EE408A11615060ED
:1058400082ED878A144695600122D1034FF0904083
:10585000FDF72AFC4FF40340A0829FED080A84ED77
:10586000898A84ED8A0A256004F50D70BDEC028BEF
:105870005021BDE87040FAF717BD0000000000009D
:10588000F8B515460E460B460092044600224FF42A
:10589000C05100F019F888B9334600228021204613
:1058A000009500F081F848B9334600224FF4C061FA
:1058B0002046009500F008F8002804D0206E40F043
:1058C000200020660320F8BD2DE9FE4F4FF0000AAE
:1058D000984617460E4604460C9D8DF804A0FDF729
:1058E000E9FB411BA8EB0105FDF7E4FB81462068BD
:1058F0004FF4C06B0C3002902A480068C0EBC00027
:1059000000EB8000000D6843009043E05E4506D147
:105910002FB9029800788DF804009DF80400B8F1C2
:10592000FF3F37D0FDF7C6FBA0EB0900A84203D22A
:1059300015B1009858B32BE02068416821F0E001D0
:1059400041606068B0F5827F0BD1A068B0F5004F70
:1059500002D0B0F5806F04D12068016821F04001C9
:105960000160A06AB0F5005F09D12068016821F4E8
:10597000005101602068016841F40051016001207C
:1059800084F85D0084F85CA00320BDE8FE8F00254C
:10599000401E0090206880683040B842B6D1002098
:1059A000F3E70000600000202DE9F8431E46914611
:1059B00088460446089DFDF77DFB401B351AFDF720
:1059C00079FB074625480068C0F3CB30684338E0D0
:1059D000701C37D0FDF76EFBC01BA84203D215B177
:1059E000009860B32CE02068416821F0E00141603C
:1059F0006068B0F5827F0BD1A068B0F5004F02D08F
:105A0000B0F5806F04D12068016821F04001016089
:105A1000A06AB0F5005F09D12068016821F4005147
:105A200001602068016841F400510160012084F8A0
:105A30005D00002084F85C000320BDE8F8830025A9
:105A4000401E00902068816838EA010004D00021DF
:105A50004945BDD10020F0E70121F9E760000020B1
:105A600070470000F0B504462DED028B85B04FF471
:105A70000340ADF80C00B0EE408A132004EB800127
:105A8000401E91ED8C0A002881ED8D0AF6DC4FF462
:105A900000464FF09047002231463846FDF704FBA0
:105AA0000125032301AA03A94B480095FEF79AF9A3
:105AB000012231463846FDF7F7FABDF806004FF4EB
:105AC0007C7101EA9010BDF80410C9B200EB81208E
:105AD000BDF80810C1F303110844C11204EB8101A1
:105AE00020608A6905EBE021CB1701EB536323F0BB
:105AF0007F03C91A04EB8101C30A8969DB02C31A57
:105B0000891A4B4302EBE3210144E26860688A1A78
:105B100000EBD073B2EB630F02DDA268521E07E008
:105B2000434203EBD373B2EB630F02DAA268521C59
:105B3000A26000EE101A9FED291AE160B8EEC00ACB
:105B400060EE011A00EE100AB8EEC00AC1EE800A3B
:105B5000C4ED8A0A94ED020AB8EEC00A40EE010ACA
:105B600094ED890A30EEC00A00EE900A84ED8D0AA9
:105B7000F8EEE00A22694A43C1EE201A92FBF0F1E6
:105B800000FB112000EE900AB8EEE02AD4ED870A5F
:105B900041EE820AF5EEC00AF1EE10FA02D270EE82
:105BA000810A06E010EE900A0D49884201DD70EE90
:105BB000C10AC4ED860AD4EDA00A30EE600AF3EE05
:105BC000030A68EE200A80EE201A84ED8B1A05B0D5
:105BD000BDEC028BF0BD0000B8080020DB0FC9400F
:105BE000DB0FC940014880ED870A7047DC020010D6
:105BF000014880ED890A7047DC020010FDF760BAA9
:105C000010B594B038216846FAF74EFB14210EA85F
:105C1000FAF74AFB0020FDF7E9FA012000900004A2
:105C2000032405210190CDE9084102204421CDE95A
:105C30000A1007900C900D906846FDF707FE08B11A
:105C400072B6FEE70F20CDE90E04002010901190EF
:105C5000129004210EA8FDF7AFFC002801D072B607
:105C6000FEE714B010BD00000248016841F4700165
:105C70000160704788ED00E010B509211648FCF777
:105C80009FF8164C092160601548FCF799F82060D0
:105C900014489FED150AFFF7E5FE12481349F7EE89
:105CA000000A90ED860A84ED0A0A91ED071A80EE4B
:105CB000810AD0ED8D0A60EE200AC4ED090AD0ED0C
:105CC0008B0A20EE200A84ED0B0A05F025FABDE8C8
:105CD00010400748FEF77BBCAC0600200400001013
:105CE00040060020DC02001017B7D13774000020F6
:105CF0001C09002070B509212DED028B2248FCF70C
:105D00005FF8224D288040F20F111F48FCF758F829
:105D1000688009211E48FCF753F81E4C00EE100A5B
:105D20009FED1D8AA060B8EEC00AD4ED060ADFED33
:105D30001B8A9FED1B1A60EE880A20EE280A40EEAF
:105D4000010AC4ED060A2888FBF782FC20EE280A27
:105D5000D4ED0F0A00EE880A84ED0F0A6888FBF77D
:105D6000D9FC20EE280AD4ED0E0A204600EE880A5F
:105D700084ED0E0A04F014FABDEC028B0948BDE86C
:105D80007040FEF724BC0000840700201C000020A7
:105D900018070020040000103333733FCDCC4C3D76
:105DA0009999F83C680900202DE9F04F02682A4BC8
:105DB0002A4E2B4FDFF8ACC02B4C2C4D4FF0804BB4
:105DC00098420BD0584509D0B04207D0B84205D010
:105DD000604503D0A04201D0A84204D122F070084F
:105DE0004A6842EA0802DFF88880DFF88890DFF826
:105DF00088A0984211D058450FD0B0420DD0B8427B
:105E00000BD0604509D0A04207D0404505D0484599
:105E100003D0504501D0A84203D122F44076CA688D
:105E200032434E6922F08002324302608A68C262C5
:105E30000A688262984209D0A04207D0404505D046
:105E4000484503D0504501D0A84201D109690163FA
:105E500001214161BDE8F08F002C014000040040A9
:105E600000080040000C0040003401400050014098
:105E700000400140004401400048014010B501F0DD
:105E80001F030121046A99408C430462016A9A400D
:105E90001143016210BD10B501F01F030421046A13
:105EA00099408C430462016A9A401143016210BD1B
:105EB00010B5846842EA032224F47F440A43224353
:105EC000826010BD8268034B1A400A4342F007010A
:105ED000816070478FFFCFFF2DE9F047026A22F003
:105EE00001020262056A436882691F4C25F00205BF
:105EF00022400C6822F0030214438A681C4E2A4395
:105F00001A4D1C4FDFF870C0DFF87090DFF870A0FA
:105F1000A84209D0B04207D0B84205D0604503D0AE
:105F2000484501D0504506D122F00808CA6842EA27
:105F3000080222F00402A84209D0B04207D0B842B9
:105F400005D0604503D0484501D0504505D14D6985
:105F500023F440731D438B692B434360846149687C
:105F600041630262BDE8F0878FFFFEFF002C014015
:105F7000003401400040014000440140004801401D
:105F800000500140F0B5026A22F010020262056A78
:105F9000426883691C4C1E4E23400C6823F44073F6
:105FA00043EA042425F020038D681A4F43EA0513C1
:105FB000164DA84203D0B04201D0B84207D1D1F863
:105FC0000CC023F0800343EA0C1323F04003A842E3
:105FD0000CD0B0420AD0104DA84207D00F4DA842B5
:105FE00004D00F4DA84201D0B84207D14D6922F428
:105FF000406242EA85028D6942EA8502426084611C
:10600000496881630362F0BDFF8FFFFE002C0140F1
:106010000034014000500140004001400044014074
:1060200000480140F0B5026A22F480720262056AFB
:106030004268C3691C4C1E4E23400C6823F00303C6
:106040001C4325F400738D681A4F43EA0523174D4E
:10605000A84203D0B04201D0B84207D1D1F80CC059
:1060600023F4006343EA0C2323F48063A8420CD09A
:10607000B0420AD0104DA84207D0104DA84204D01B
:106080000F4DA84201D0B84207D14D6922F44052C9
:1060900042EA05128D6942EA05124260C46149680C
:1060A000C1630362F0BD00008FFFFEFF002C0140C2
:1060B00000340140005001400040014000440140D4
:1060C00000480140F0B5026A22F480520262056A7B
:1060D0004268C3691C4C1E4E23400C6823F4407375
:1060E00043EA042425F400538D681A4F43EA05332C
:1060F000164DA84203D0B04201D0B84207D1D1F822
:106100000CC023F4004343EA0C3323F48043A84239
:106110000CD0B0420AD0104DA84207D00F4DA84273
:1061200004D00F4DA84201D0B84207D14D6922F4E6
:10613000404242EA85128D6942EA85124260C4619A
:10614000496801640362F0BDFF8FFFFE002C01402F
:106150000034014000500140004001400044014033
:106160000048014030B5026A22F480320262046ABB
:106170004268036D124D2B400D681D4324F400331B
:106180000C8943EA04430F4CA0420ED00E4CA042AF
:106190000BD00E4CA04208D00D4CA04205D00D4CA7
:1061A000A04202D00C4CA04204D14C6922F48032AF
:1061B00042EA04224260056549688164036230BD99
:1061C0008FFFFEFF002C01400034014000400140E1
:1061D00000440140004801400050014030B5026ACF
:1061E00022F480120262046A4268036D134D24F4A3
:1061F00000142B400D6843EA05230D8944EA055439
:106200000F4DA8420ED00F4DA8420BD00E4DA84204
:1062100008D00E4DA84205D00D4DA84202D00D4D1C
:10622000A84204D14D6922F4802242EA85224260CC
:1062300003654968C164046230BD0000FF8FFFFE42
:10624000002C014000340140004001400044014066
:10625000004801400050014010B5036A046A24F070
:1062600001040462846924F0F00444EA021423F077
:106270000A020A438461026210BD10B5036A23F06A
:10628000100303628369046A23F4704343EA023211
:1062900024F0A00343EA01118261016210BD0000F5
:1062A00030B5416EB9B1026891689268C1F342613C
:1062B0000B4B520F9C5CE50003F10804A25CB5FB9C
:1062C000F2F2A0F86A205A5C615CD200B2FBF1F1F4
:1062D000A0F8681030BD0121A0F86A10F8E70000AE
:1062E00038C1000890F82810C90706D001684A682C
:1062F000C36A22F400321A434A6090F828108907D2
:1063000006D501684A68036B22F480321A434A605A
:1063100090F82810490706D501684A68436B22F4B3
:1063200080221A434A6090F82810090706D50168B0
:106330004A68836B22F400421A434A6090F828109E
:10634000C90606D501688A68C36B22F480521A43D5
:106350008A6090F82810890606D501688A68036C5F
:1063600022F400521A438A6090F82810490611D589
:1063700001684A68436C22F480121A434A60416CF7
:10638000B1F5801F06D101684A68836C22F4C0020F
:106390001A434A6090F82810090606D501684A6831
:1063A000C06C22F4002202434A607047F8B5002610
:1063B0000446C0F88C60FCF77DFE05462068006846
:1063C0006FF07E47000708D52B4600224FF40011DE
:1063D0002046009700F03EFC60B920680068400746
:1063E0000AD52B4600224FF480012046009700F08A
:1063F00031FC08B10320F8BD2020C4F88400C4F8A3
:10640000880044F86C6F00202675F8BD10B5806ACE
:106410000021A0F85E10A0F85610FEF7EEFB10BDAC
:1064200010B5026852E8001F21F4907142E8001391
:10643000002BF6D10E4B0268083252E8001F1940BB
:1064400042E80014002CF6D1C16E012908D1016880
:1064500051E8002F22F0100241E80023002BF6D172
:106460002021C0F888100021C166016710BD00001E
:10647000FEFFFFEF10B5B0F86020D0F8883001685B
:10648000222B04D0886940F00800886110BD496A59
:10649000836D11401980816D891C8165B0F85E1093
:1064A000491EA0F85E10B0F85E100029EED1026817
:1064B00052E8001F21F4907142E80013002BF6D13E
:1064C0000168083151E8002F22F0010241E8002361
:1064D000002BF5D12021C0F8881000210167C26E81
:1064E000012A02D0FEF7A0FD10BDC166026852E885
:1064F000001F21F0100142E80013002BF6D10168C3
:10650000CA69D243D20601D410220A62B0F85C10E4
:10651000FEF723FB10BD00002DE9F0470446B0F85C
:1065200060600068C569D0F800A0D0F80880D4F891
:106530008810222905D0816941F008018161BDE8F8
:10654000F087B4F868704FF0000963E02068406A93
:10655000A16D30400880A06D801CA065B4F85E007D
:10656000401EA4F85E002068C569690730D0E907BD
:106570000AD05FEACA5107D501210162D4F88C0024
:1065800040F00100C4F88C00A8070BD55FEAC87082
:1065900008D0216802200862D4F88C0040F0040082
:1065A000C4F88C0068070BD55FEAC87008D0216872
:1065B00004200862D4F88C0040F00200C4F88C007B
:1065C000D4F88C0020B12046FEF717FBC4F88C905D
:1065D000B4F85E00F0B9216851E8000F20F4807033
:1065E00041E80002002AF6D1264A2068083050E827
:1065F000001F114040E80013002BF6D12020C4F802
:106600008800C4F87090E16E4846012923D02046E6
:10661000FEF70AFD0FB1A80698D4B4F85E00002872
:106620008DD0B4F86810814289D92068083050E8CC
:10663000001F21F0805140E80012002AF5D11248D5
:106640002067206850E8001F41F0200140E8001258
:10665000002AF6D173E7E066216851E8000F20F0C8
:10666000100041E80002002AF6D12068C169C94340
:10667000C90601D410210162B4F85C102046FEF76F
:106680006CFAC7E7FEFFFFEF7564000810B5B0F8BD
:106690006020D0F888300168222B04D0886940F04F
:1066A0000800886110BD496A1140826D1170816DCA
:1066B000491C8165B0F85E10491EA0F85E10B0F864
:1066C0005E100029EED1026852E8001F21F490719B
:1066D00042E80013002BF6D10168083151E8002F81
:1066E00022F0010241E80023002BF5D12021C0F85F
:1066F000881000210167C26E012A02D0FEF794FCC7
:1067000010BDC166026852E8001F21F0100142E886
:106710000013002BF6D10168CA69D243D20601D416
:1067200010220A62B0F85C10FEF717FA10BD0000E4
:106730002DE9F0470446B0F860600068C569D0F8FC
:1067400000A0D0F80880D4F88810222905D08169EB
:1067500041F008018161BDE8F087B4F868704FF03E
:10676000000963E02068406AA16D30400870A06DA8
:10677000401CA065B4F85E00401EA4F85E002068CE
:10678000C569690730D0E9070AD05FEACA5107D561
:1067900001210162D4F88C0040F00100C4F88C00A3
:1067A000A8070BD55FEAC87008D0216802200862EC
:1067B000D4F88C0040F00400C4F88C0068070BD5B6
:1067C0005FEAC87008D0216804200862D4F88C0001
:1067D00040F00200C4F88C00D4F88C0020B12046B0
:1067E000FEF70BFAC4F88C90B4F85E00F0B921689B
:1067F00051E8000F20F4807041E80002002AF6D131
:10680000264A2068083050E8001F114040E8001375
:10681000002BF6D12020C4F88800C4F87090E16EF7
:106820004846012923D02046FEF7FEFB0FB1A806FB
:1068300098D4B4F85E0000288DD0B4F86810814276
:1068400089D92068083050E8001F21F0805140E8C5
:106850000012002AF5D112482067216851E8000F84
:1068600040F0200041E80002002AF6D173E7E0661C
:10687000216851E8000F20F0100041E80002002AD2
:10688000F6D12068C169C943C90601D4102101624B
:10689000B4F85C102046FEF760F9C7E7FEFFFFEF93
:1068A0008D6600082DE9F041044601688068226980
:1068B000E3691043626900251A431043DFF84CC2B4
:1068C0000A68934B1A4002430A6020684168E268F4
:1068D00021F44051114341602168A069614501D014
:1068E000226A10438A688B4B1A4002438A602068F0
:1068F000C16A626A21F00F011143C16286492368AF
:1069000086488B420DD1D0F8880010F0030006D0E5
:10691000012867D0022854D0032851D164E0012017
:106920004FE07F498B420BD1D0F8880010F00C006B
:1069300047D0042845D0082852D00C2840D153E035
:1069400078498B420BD1D0F8880010F0300038D055
:10695000102847D0202843D0302831D144E0724954
:106960008B420BD1D0F8880010F0C00029D040280D
:1069700038D0802834D0C02822D135E06B498B42F2
:106980000ED1D0F8880010F440701AD0B0F5807F96
:1069900028D0B0F5007F23D0B0F5407F10D123E0A0
:1069A00063450DD1D0F8880010F4406009D0B0F5EF
:1069B000806F17D0B0F5006F12D0B0F5406F13D0D4
:1069C00010205B4A5B4F00264FF40041634539D1EC
:1069D00060B102280DD004280DD0082831D10EE076
:1069E0000220EEE70420ECE70820EAE7FCF7D2FEFD
:1069F00003E0114603E0FCF7F1FE01007BD0606A82
:106A000037F810206768B1FBF2F007EB47038342C9
:106A100069D8B0EB073F66D8002308461946F9F756
:106A2000F9FB090241EA106102027808101871416D
:106A30003A460023F9F7EEFB3F4AA0F54071914238
:106A400057D950E0E3694FF6EF788B422BD10928F4
:106A500049D2DFE800F005080D48254848480E00F7
:106A6000FCF798FE01E0FCF7A7FE010001D142E02F
:106A70001146606A37F81000B1FBF0F04100606821
:106A800001EB5001B1FBF0F1A1F1100040452AD813
:106A90004FF6F07201EA0200C1F34201084328E018
:106AA000FCF79CFEE1E709281DD2DFE800F00508AD
:106AB0000D1C1E1C1C1C0E00FCF76CFE01E0FCF7FC
:106AC0007BFE010001D116E01146606A37F8100024
:106AD000B1FBF0F1606801EB5001B1FBF0F0A0F107
:106AE0001001414504D9012505E0FCF777FEE8E7F0
:106AF00080B22168C8600120A4F86A0024F8680FF9
:106B00002846A660E660BDE8F081000000800040F5
:106B1000F369FFCFFFF4FF1100380140001002407D
:106B20000044004000480040004C0040005000403D
:106B30000024F40020C10008FFFC0F0070B581653F
:106B4000A0F85C20A0F85E200021016783684FF464
:106B50008055FF24AB4204D10369FBB940F2FF1317
:106B600022E07F26C3B1B3F1805F1AD0A0F8601095
:106B7000C0F88C102223C0F888300368083353E82B
:106B8000004F44F0010443E80046002EF5D1436E67
:106B9000B3F1005F0ED032E0036943B9A0F8604062
:106BA000E6E703691BB13F23A0F86030E0E7A0F8F7
:106BB0006060DDE7B0F86830934220D88268AA426E
:106BC00001D10269CAB11F4A026780F880100169C9
:106BD00041B1026852E8001F41F4807142E800139D
:106BE000002BF6D10168083151E8002F42F08052A5
:106BF00041E80023002BF5D121E0134AE4E7826845
:106C0000AA4201D102697AB1104A026780F8801065
:106C1000016959B1026852E8001F41F4907142E8DD
:106C20000013002BF6D10AE0094AEEE7026852E8A9
:106C3000001F41F0200142E80013002BF6D1002094
:106C400070BD000031670008196500088D660008F6
:106C5000756400082DE9F0479A4617460E4604462B
:106C60004FF000094FF02008089D4AE0681C48D00A
:106C7000FCF720FAA0EB0A00A8422AD84DB32068FE
:106C8000016849073DD5C069C043000539D4216872
:106C90004FF400600862206850E8001F21F4D071B2
:106CA00040E80012002AF6D12068083050E8001FA2
:106CB00021F0010140E80012002AF5D144F8848F48
:106CC000C4F80480C4F8088004F8049C0320BDE8DC
:106CD000F087216851E8000F20F4D07041E80002ED
:106CE000002AF6D12068083050E8001F21F0010189
:106CF00040E80012002AF5D144F8848FC4F80480DB
:106D0000E2E72068C06936EA000004D00020B842FB
:106D1000ACD00020DBE70120F9E700000148FDF7D7
:106D20006DBF0000000A0020FEE700000146024897
:106D30004FF40072F9F79FBAF402001010B5084C36
:106D400000209FED080AA06084ED890A20469FED8F
:106D5000060AFEF787FE94ED8D0A84ED890A10BDC0
:106D6000DC020010000000006F1283390FB4054BE5
:106D700010B503A9044A029801F0E6FC10BC5DF8C6
:106D800014FB000039A300086400002003B401983C
:106D90004100009850EAC12018BF04204A0D18BFD6
:106DA00040F0010040F2FF72B2EB515F08BF40F0CB
:106DB0000200012808BF052002B070474100080208
:106DC00018BF04200A0E18BF40F001004FF07F42A8
:106DD00032EA010108BF40F00200012808BF052087
:106DE000704720F00040C0F1FF40C00F7047090716
:106DF000090E002804DB00F1E02080F80014704741
:106E000000F00F0000F1E02080F8141D7047000032
:106E1000004870477000002030B583B0044601F090
:106E2000ADFB9FED090B05468DED000B00222146C1
:106E30006846F9F7F8FB284601F0B6FB9DED000B1C
:106E400003B030BD000000000000000000000000A2
:106E5000B4EEE00AF1EE10FA01DCB0EE600A704721
:106E6000B4EEE00AF1EE10FA01D3B0EE600A70471A
:106E700010B52DED040B86B09DED060B10EE100A3B
:106E800010EE901A8DED000B002818BF012008436A
:106E900020F00040C0F17F6000F1E040C00F21D140
:106EA0009DED080B10EE101A10EE900A8DED000B00
:106EB000002918BF0121084320F00040C0F17F6085
:106EC00000F1E040C00F0DD129490798B1EB400F08
:106ED00004BF0698002842D00998400004BF0898D3
:106EE00000283CD09DED080B53EC102B9DED060BBC
:106EF00051EC100BF9F799FDCDE902019DED020B64
:106F000040F2FF7110EE900A8DED000B31EA105047
:106F100021D00798039900F0004001F00041884219
:106F200019D09DED080B8DED040B9DED020B8DED41
:106F3000000B10EE900A059961F31E0005909DED7F
:106F4000041B9DED020B51EC110B53EC102BF9F7C8
:106F500067FACDE902019DED020B0AB010BD0120D8
:106F600001F022FB0AB0BDE8104001F019BA0000A0
:106F70000000E0FF10B52DED028BF0EE408A18EE18
:106F8000900AB0EE608A20F00040C0F1FF40C00FD0
:106F900007D118EE100A20F00040C0F1FF40C00FEA
:106FA0002BD018EE101A18EE900AF9F7DEFB00EE5F
:106FB000100A10EE100A6FEAD05010F0FF0F04BF55
:106FC000BDEC028B10BD18EE900A00F0004110EEEF
:106FD000100A00F00040814204BFBDEC028B10BDDE
:106FE00018EE101A10EE100ABDEC028B61F31E00B1
:106FF00000EE900A30EE600A10BD18EE900A4FF0D5
:107000007F41B1EB400F1CBF18EE100A5FEA400051
:10701000C7D1012001F0C8FABDEC028BBDE81040D9
:1070200001F0F2B90000000070B5D94B00242DED3D
:10703000020B2DED108BDDE91010984205DA20F0DF
:1070400000429A4201D809D141B19DED100BBDEC2F
:10705000108B02B0BDE8704001F08EB9B0F5801F12
:1070600026DA11430BD0002813DA012001F09CFA34
:10707000BDEC108B02B0BDE8704001F091B9022068
:1070800001F092FA01F060F951EC100B81F000412F
:107090009EE06FF035049FEDC00B53EC102B9DED7F
:1070A000100B51EC100BF9F7E6FBCDE91001084687
:1070B00004EB2051C0F31304B948A1F2FF3120447E
:1070C00000F4801080F07F6282F04052224301EB96
:1070D00020559FEDB50B119253EC102B9DED100B2D
:1070E00051EC100BF9F799F941EC180BA01CC0F307
:1070F00013009FEDAFDB9FEDB0EBB14E7E44032854
:107100006CD296ED000B51EC180B53EC102BF9F7E9
:10711000F9FC1DD1002D01BF96ED000BBDEC108BCD
:1071200002B070BD2846F9F7C3FC41EC180B53ECD4
:107130001D2BF9F7A0FB41EC190B53EC1E2B51EC66
:10714000180BF9F798FB53EC192BF9F7C5F83FE04A
:107150009FED9D0B51EC180B53EC102BF9F78BFBAB
:107160009FED9B1B53EC112BF9F75AF941EC190BCE
:1071700053EC182B51EC180BF9F77DFB53EC192B42
:10718000F9F779FB41EC190B002D04BF53EC192BD7
:1071900051EC180B1AD02846F9F78AFC41EC1A0B6F
:1071A00053EC1D2BF9F767FB53EC192BF9F738F962
:1071B00053EC182BF9F731F941EC180B53EC1E2B5B
:1071C00051EC1A0BF9F757FB53EC182BF9F725F98B
:1071D000BDEC108B02B041EC100B70BD9FED7E0B2F
:1071E00051EC180B53EC102BF9F776F841EC100B1F
:1071F00051EC180B53EC102BF9F715F941EC190B66
:107200002846F9F755FC41EC1B0B53EC192B51ECBC
:10721000190BF9F730FB41EC1A0B714853EC1A2BA0
:10722000261851EC1A0BF9F726FB41EC1F0B6D48A1
:10723000C4F1510404F5D724B0EE4F0AF0EE6F0A02
:107240000321784401F001F853EC1F2B51EC100B93
:10725000F9F711FB41EC1C0B6348B0EE4F0AF0EE5E
:107260006F0A0421784400F0F0FF53EC1A2B51EC24
:10727000100BF9F700FB344353EC1C2BF9F72CF8F7
:1072800041EC1C0B002C4CDD9FED510B51EC180B0D
:1072900053EC102BF9F7EFFA53EC182BF9F7EBFA44
:1072A00041EC1A0B55B353EC1D2B51EC1B0BF9F7AA
:1072B000E2FA41EC1D0B53EC1C2B51EC1A0BF9F7C5
:1072C0000BF853EC192BF9F7D6FA53EC1D2BF9F701
:1072D00003F853EC1A2BF9F7A3F853EC182BF9F732
:1072E0009CF841EC180B53EC1E2B51EC1B0BF9F7DF
:1072F000C2FA53EC182BF9F790F869E753EC1C2B02
:1073000051EC1A0BF8F7E8FF53EC192BF9F7B3FA25
:1073100053EC1A2BF9F784F853EC182BF9F780F893
:1073200056E735B353EC1D2B51EC1B0BF9F7A3FAC1
:1073300041EC1A0B53EC1C2B51EC180BF9F76DF8C0
:1073400053EC192BF9F797FA53EC1A2BF9F765F868
:1073500053EC182BF9F761F841EC180B53EC1E2B8A
:1073600051EC1B0BF9F787FA53EC182BF9F755F88A
:107370002EE753EC1C2B51EC180BF9F74EF853EC9D
:10738000192BF9F778FA53EC182BF9F749F81FE79E
:107390000000F07F000000000000000000005043EB
:1073A000645F090000000000000000000000F03FE2
:1073B000763C7935EF39EA3D0000E0FE422EE63FAB
:1073C0002051000000000000555555555555D53F3A
:1073D000000000000000E03F00000000000000404E
:1073E00086EBF9FF1A4F0000104F0000000000006C
:1073F0002DE9F04D2DED040B2DED0E8B96B0DDE952
:107400002550279CDDF890A025F0004624F0004888
:10741000BAF1000F14BF0121002101EB4502FC4924
:1074200053184A1093422AD3002814BF0123002383
:1074300003EB44030B44F7498B4220D358EA000185
:107440009FEDF59B76D0DFF8D8B35D4503D1BAF157
:10745000000F05D188E0BAF1000F08BF002100D06D
:10746000012101EB450111F5001F08D8002814BFC8
:107470000121002101EB440111F5001F0BD99DED05
:10748000261B9DED240B16B0BDEC0E8B04B0BDE8A1
:10749000F04D00F07BBF0027002DBCBFE1498845BF
:1074A00021DAE1498845A8BF02271CDAC3451ADC66
:1074B000DE4901EB2851142908DDC1F1340220FA1C
:1074C00002F101FA02F282420DD108E058B9C1F18D
:1074D000140228FA02F101FA02F2424503D101F046
:1074E0000101C1F1020756EA0A0124D1002C22DA77
:1074F000002D18BF022F01D0012F0AD0022001F069
:1075000053F816B0BDEC0E8B04B0BDE8F04D00F0A2
:107510001BBF022001F048F800F016FF51EC100BE1
:1075200081F0004141EC100B16B0BDEC0E8B04B0A5
:10753000BDE8F08D18E09FEDBEAB9FEDBF8B00283E
:1075400071D1B848804522D105F1804010F58010F6
:1075500008BFBAF1000F07D0B3450ADC002CA8BF62
:107560009DED260BE0DA0DE0B0EE490AF0EE690A77
:10757000DAE7002C06DA9DED260B51EC100B81F0BA
:1075800000416FE0AE48784490ED000BCCE7D84561
:107590004DD1002C48DA2EB186423AD1BAF1000F13
:1075A00042D126E0BAF1000F13D0022000F0FCFF18
:1075B00000F006FF8DED020B9DED240B8DED000B11
:1075C00010EE900A039961F31E0003909DED020BEB
:1075D000AAE78DED02AB9DED240B1AEE901A10EE8A
:1075E000900A8DED000B61F31E0003909DED020BE0
:1075F0009AE78DED028B9DED240B18EE901A10EE9C
:10760000900A8DED000B61F31E0003909DED020BBF
:107610008AE709DA9DED240B51EC190B53EC102B82
:10762000F8F701FF1EE020E09DED240B7CE7864289
:107630001BDAB4F1804F0DD0A4F10050B0F1FF502F
:1076400013D1002D11DB9DED240B51EC100B03F039
:107650006BFE07E09DED240B53EC102B51EC100B4F
:1076600000F0C2BC41EC100B5EE79DED240B51EC29
:10767000100B02F017FEBAF1000FCDE90E0142D156
:107680009FED710B46B3A6F1E040B0F17F600CD0E6
:107690005E4538D1002D00DAA7B3022F0CBF0120C0
:1076A0004FF0FF30F9F704FADCE7002D01DD002C84
:1076B0000DDA002D01DD002C1FDB002D16DA002C69
:1076C00014DB012F08BF9FED620B3FF42DAFB0EE2E
:1076D0004A0AF0EE6A0A27E7022F18BF002D0CD0E5
:1076E000012F0AD1002DFFF61FAF06E0002DB8BF15
:1076F000002C08DA012F3FF417AFB0EE480AF0EE85
:10770000680A11E71BE0012000EBE57050EA070171
:1077100015D0791EB0EE498AF0EE698A084308BF99
:107720009FED4D8B4E480025804570DD4D494E48FC
:10773000884514DDB0420DDB002C19DB2FE0012061
:1077400000F032FF16B0BDEC0E8B04B0BDE8F04D7A
:1077500000F026BEB34502DC002C09DC1FE08642A7
:1077600002DA002C1BDA03E05E452BDD002C16DD6F
:10777000022000F019FF00F023FE8DED020B53EC08
:107780001A2B51EC180BF9F776F8CDE900010399A3
:10779000019861F31E0003909DED020BC4E60220E8
:1077A00000F002FF00F01CFE10EE901A18EE900A96
:1077B0008DED020B8DED008B61F31E0003909DEDAE
:1077C000020BB1E69DED0E0B53EC192B51EC100B97
:1077D000F8F723FE9FED260BCDE9080153EC102BA3
:1077E0009DED080B51EC100BF9F745F89FED221BAE
:1077F00053EC112BF8F714FE9DED081B53EC112BE5
:10780000F9F739F89FED1E1B53EC112B3CE08CE08F
:10781000FFFF1F00FFFF0F00000000000000F03F0F
:107820000000F03F0000F07F0000404301FCFFFF3C
:10783000000000000000F07F0000000000000000D9
:10784000964C0000000000000000000000000080D6
:10785000000000000000F0FF000000000000F0BF8A
:107860000000E0410000F043FFFFEF3F0000000098
:10787000000000000000D03F555555555555D53FE7
:10788000000000000000E03FF8F7CAFD9DED080B86
:1078900041EC1A0B53EC102B51EC100BF8F7EBFFEB
:1078A00053EC1A2BF8F7E7FF41EC1A0B9FEDFE0B98
:1078B00053EC102B9DED080B51EC100BF8F7DBFF90
:1078C00041EC1B0B9FEDFA0B51EC1A0B53EC102BF8
:1078D000F8F7D1FF41EC1A0B9FEDF70B53EC102B8F
:1078E0009DED080B51EC100BF8F7C5FF53EC1A2B6C
:1078F000F8F793FD41EC1A0B51EC1B0B53EC1A2BD0
:10790000F8F7EAFC0690CDE906519DED060B53EC25
:107910001B2B51EC100BF8F780FD53EC1A2BF8F7EA
:107920007FFD41EC100B00F0A1B90020B6F5801FDF
:107930000EDA9FEDE30B53EC102B9DED0E0B51EC8B
:10794000100BF8F798FFCDE90E016FF034000E46EA
:1079500000EB2650A0F2FF37C6F31300DA4940F0DF
:107960007F6646F040568842D8BF002408DDD749DC
:107970008142C8BF012403DC0024A6F580167F1CC9
:10798000D348784400EBC4000F9690ED00CB9DEDFA
:107990000E0B53EC1C2B51EC100BF8F73EFD9DED3C
:1079A0000E0B41EC1B0B53EC1C2B51EC100BF8F79E
:1079B00093FC41EC100B51EC190B53EC102BF8F726
:1079C00032FD41EC1D0B51EC1B0B53EC1D2BF8F75A
:1079D00052FF41EC1A0BBF488DED10AB7844109567
:1079E00090ED000B4FF0005040EA660000EB844041
:1079F0008DED080B00F5002009909DED080B53EC70
:107A00001C2B51EC100BF8F708FD9DED0E1B53ECF1
:107A1000112BF8F705FD41EC100B53EC102B9DEDED
:107A2000100B51EC100BF8F726FF9DED080B41EC05
:107A30001C0B53EC102B9DED100B51EC100BF8F7B9
:107A40001AFF53EC1B2BF8F7EBFC53EC1C2BF8F74D
:107A5000E4FC53EC1D2BF8F70EFF41EC1C0B53EC30
:107A60001A2B51EC1A0BF8F706FF41EC1B0B9A4846
:107A70000621B0EE4B0AF0EE6B0A784400F0E5FB0D
:107A8000B0EE401AF0EE601AB0EE41DAF0EE61DAD4
:107A900053EC1B2B51EC1B0BF8F7EDFE53EC1D2B9D
:107AA000F8F7E9FE9DED100B41EC1B0B53EC1A2B84
:107AB00051EC100BF8F710FC53EC1C2BF8F7DBFE25
:107AC00053EC1B2BF8F708FC9DED100B41EC1B0B46
:107AD00053EC102B51EC100BF8F7CDFE41EC1D0BC5
:107AE0009FED7FEB53EC1E2BF8F7F6FB53EC1B2BB3
:107AF000F8F7F2FB0890CDE908519DED080B53EC27
:107B00001E2B51EC100BF8F788FC53EC1D2BF8F7EB
:107B100084FC53EC1B2BF8F783FC9DED080B41EC28
:107B20001D0B53EC102B9DED100B51EC100BF8F7C7
:107B3000A2FE41EC1B0B53EC1A2B51EC1D0BF8F77A
:107B40009AFE9DED080B41EC1A0B53EC102B51ECF7
:107B50001C0BF8F790FE53EC1A2BF8F7BDFB41EC29
:107B60001A0B51EC1B0B53EC1A2BF8F7B5FB0C90CE
:107B7000CDE90C519DED0C0B53EC1B2B51EC100B74
:107B8000F8F74BFC53EC1A2BF8F74AFC41EC1B0BB3
:107B90009FED550B53EC102B9DED0C0B51EC100B86
:107BA000F8F769FE41EC1A0B9FED510B51EC1B0BE2
:107BB00053EC102BF8F75FFE41EC1B0B9FED4E0BC7
:107BC00053EC102B9DED0C0B51EC100BF8F753FE02
:107BD00053EC1B2BF8F780FB41EC100B4848784422
:107BE00000EBC40090ED001B51EC100B53EC112B7B
:107BF000F8F772FB41EC1B0B3846F8F759FFCDE95B
:107C0000080153EC1B2B51EC1A0BF8F765FB41EC08
:107C1000100B3C48784400EBC40090ED00CB51ECD5
:107C2000100B53EC1C2BF8F757FB9DED081B53EC86
:107C3000112BF8F751FB0690CDE906519DED080B8D
:107C400053EC102B9DED060B51EC100BF8F7E5FBF8
:107C500053EC1C2BF8F7E1FB53EC1A2BF8F7DDFB88
:107C600053EC1B2BF8F7DCFB41EC100B9DED261BB6
:107C700053EC102B8DED001B00959DED260B51EC68
:107C8000100BF8F7F8FD9DED000B41EC1A0B53ECCF
:107C9000102B9DED260B51EC100BF8F7BEFB9DED64
:107CA000061B53EC112B2FE0000000604715F73F37
:107CB000FE822B654715F73F44DF5DF80BAE543E5F
:107CC00000000000000040438E9803007AB60B00CD
:107CD00012480000404800004A4700000000000031
:107CE0000000000000000840000000E009C7EE3F6F
:107CF000FD033ADC09C7EE3FF5015B14E02F3EBE01
:107D0000D645000090450000F8F7B5FD53EC1A2B5E
:107D1000F8F7E2FA9DED060B41EC1A0B53EC102B31
:107D20009DED000B51EC100BF8F7A5FDCDE90C0112
:107D30009DED0C0B51EC1A0B53EC102BF8F7CCFA11
:107D4000CDE902010C46AA498C422FDB611A084397
:107D500018D19DED0C0B53EC102B9DED020B51EC4B
:107D6000100BF8F75AFB41EC1B0B9FEDA30B51ECEA
:107D70001A0B53EC102BF8F7AFFA53EC1B2BF8F758
:107D8000D9FE2DD2022000F00FFC00F019FB10EEFE
:107D9000901A18EE900A8DED020B8DED008B61F3B9
:107DA0001E0003909DED020BFFF7BEBB944A24F02A
:107DB0000041914214D39349214408437FF4EFAC2E
:107DC0009DED0C0B53EC102B9DED020B51EC100BA9
:107DD000F8F723FB53EC1A2BF8F7ACFE7FF6DFAC79
:107DE00024F000408849894A002601EB2051824254
:107DF0002BDA481C4FF4801121FA00F02044844A09
:107E0000C0F30A517A44A1F2FF3192ED000B814A8E
:107E10008DED080BCA4020EA0202C0F3130040F4C3
:107E20008010C1F1140120FA01F60992002CB8BFAC
:107E300076429DED080B53EC102B9DED0C0B51EC95
:107E4000100BF8F7EAFACDE90C019DED0C0B51ECA3
:107E50001A0B53EC102BF8F73FFA9FED6F0B0890BD
:107E6000CDE9085153EC102B9DED080B51EC100B94
:107E7000F8F701FD41EC1B0B9FED690B53EC102B48
:107E80009DED080B51EC100BF8F7F5FC9DED0C0B7C
:107E900041EC1C0B53EC102B9DED080B51EC100B1F
:107EA000F8F7BBFA53EC1A2BF8F7BAFA9FED5E1B02
:107EB00053EC112BF8F7DFFC53EC1C2BF8F70CFA02
:107EC00041EC1A0B51EC1B0B53EC1A2BF8F704FA8C
:107ED000CDE902019DED020B53EC1B2B51EC100B75
:107EE000F8F79BFA53EC1A2BF8F79AFA9DED020B70
:107EF00041EC1A0B53EC102B51EC100BF8F7BBFCB8
:107F0000CDE908014A489DED080B0521784400F0B1
:107F10009CF99DED081B51EC100B53EC112BF8F75D
:107F2000AAFC9DED021B53EC112BF8F779FACDE971
:107F300006019DED020B53EC1A2B51EC100BF8F7D8
:107F40009AFC53EC1A2BF8F7C7F99FED3B0B41EC69
:107F50001A0B53EC102B9DED060B51EC100BF8F7A0
:107F60005CFA9DED060B41EC1B0B53EC102B9DEDC9
:107F7000020B51EC100BF8F77EFC53EC1B2BF8F7BF
:107F800052FA53EC1A2BF8F748FA9DED021B53EC0A
:107F9000112BF8F742FA53EC192BF8F741FACDE917
:107FA000020101EB065001150029C8BF039015DC42
:107FB0009DED020B324651EC100BF8F7CEFCFEF7AC
:107FC000E5FE042808BF00F00BFA32469DED020BD7
:107FD00051EC100BF8F7C1FCCDE902019DED020B4D
:107FE00051EC180B53EC102BF8F745FCFFF73ABB9C
:107FF0000000904000000000FE822B654715973C72
:1080000000CC904000346F3F01FCFFFF0000E03FD8
:1080100018440000FFFF0F0000000000432EE63F61
:10802000396CA80C615C20BEEF39FAFE422EE63FA7
:10803000E8420000000000000000000000000040D6
:1080400000B510EE101A2DED028B81B0524A684631
:10805000B2EB410F2ED94FF0E640B0EB410F94BF89
:1080600000204FF0FF3000900098B0EE408A0028CA
:108070006ADB10F0010F4BD068EE080A9FED471A3B
:108080009FED470A00EE810A9FED461A10F0020F9D
:1080900000EE801AB7EE000A00EE810A02BF01B0BE
:1080A000BDEC028B00BD00BF01B0B1EE400ABDECDB
:1080B000028B00BD3C4B21F00042934241D911F0AC
:1080C000004FDFED3A0A20EE201ADFED390A19BF22
:1080D00031EE601A71EE200A31EE201A71EE600A5C
:1080E000BDEEE01A11EE100A9FED321A00F0030007
:1080F00000EEC10A9FED301A009000EEC10A9FED1C
:108100002F1A00EEC10A9FED2E1A00EEC10AABE74E
:1081100028EE080A9FED2B1ADFED2B0A10F0020F54
:1081200040EE410A9FED291A00EE201A61EE000A86
:10813000B0EE480A08EE200AB6D101B0BDEC028BC1
:1081400000BD00F071F98FE718EE100A4000B0F1A1
:108150007F4F0DD218EE100AFEF730FE042808BF3C
:1081600000F05AF9B0EE480A01B0BDEC028B00BD38
:1081700009D1012000F018FA01B0BDEC028B5DF8C6
:1081800004EB00F041B901B0B0EE480ABDEC028B3F
:108190005DF804EB00F034B9B61F927EB93AB2BA7A
:1081A000CA9F2A3DDDFFFFBE490E494683F9223FA3
:1081B0000000004B0000C93F00A0FD390020A233A1
:1081C0001A61342C336D4C39DA82083CA0AA2ABEDD
:1081D00000B52DED048BB0EE409AF0EE609A83B0BE
:1081E00051EC190BF8F7D0FB41EC180B18EE100A04
:1081F00018EE901A8DED008B002818BF012008435F
:1082000020F00040C0F17F6000F1E040C00F14D0CA
:1082100019EE101A19EE900A8DED009B002918BF77
:108220000121084320F00040C0F17F6000F1E040F0
:10823000C00F04BF012000F0B7F9B0EE480A03B048
:10824000F0EE680ABDEC048B00BD70B504462DED60
:10825000028B4D1E00EBC500B0EE408AF0EE608A46
:1082600090ED000B35F0060017D053EC182B51ECB5
:10827000100BF8F700FB41EC100B6D1E04EBC50072
:1082800090ED001B51EC100B53EC112BF8F724F878
:1082900041EC100B35F00600E7D1022D36D0042D4D
:1082A0001CD0062D1CBFBDEC028B70BD53EC182BEF
:1082B00051EC100BF8F7DFFA94ED0A1B53EC112B7D
:1082C000F8F70AF853EC182BF8F7D5FA94ED081BD9
:1082D00053EC112BF8F700F841EC100B53EC182B72
:1082E00051EC100BF8F7C7FA94ED061B53EC112B69
:1082F000F7F7F2FF53EC182BF8F7BDFA94ED040BE7
:1083000053EC102BF7F7E8FF41EC100B53EC182B54
:1083100051EC100BF8F7AFFA94ED021B53EC112B54
:10832000F7F7DAFF53EC182BF8F7A5FA94ED001BDA
:1083300053EC112BF7F7D0FFBDEC028B41EC100B87
:1083400070BD0000000000009FED070B10B553EC5E
:10835000102B9FED070B51EC100BF8F764F841EC74
:10836000100B10BD00000000000000000000000025
:10837000000000000000F03F10B553EC102B51EC52
:10838000100BF7F7A9FF41EC100B10BD10B553EC23
:10839000112B51EC100BF7F79FFF41EC100B10BDA8
:1083A0009FED050B10B553EC102B51EC100BF8F7AB
:1083B0003AF841EC100B10BD000000000000000076
:1083C0009FED050B10B553EC102B51EC100BF8F78B
:1083D00052FA41EC100B10BD0000000000000070CC
:1083E0009FED050B10B553EC102B51EC100BF8F76B
:1083F00042FA41EC100B10BD00000000000000101C
:1084000030EE000A70470000DFED020A80EEA00A9D
:1084100070470000000000009FED020A20EE000AF5
:1084200070470000000000102DE9F0014FF07F427E
:10843000B2EB410F9FBF4FF0FF310160BDE8F0018B
:1084400070474FF0004242EA0123C1F3C752783A25
:10845000551112F01F0C434CCCF120067C44C1F3A3
:10846000C752A2F178024FEA621204EB820254F87A
:10847000254008BFD2E9015612D0556804FA0CF421
:1084800025FA06F73C43976805FA0CF527FA06F833
:10849000D26807FA0CFCF24045EA08054CEA0206ED
:1084A000A4FB034CA5FB0352A6FB03631D449D42A2
:1084B00034BF012600261319334416B1934202D962
:1084C00003E0934201D2012200E00022624402F163
:1084D000200C9206DC0C42EA443200EE102A5B03C8
:1084E000DFED210AF8EEC01A00EE103A4FEA9C1CAC
:1084F00011F0004FB8EE400AC0F800C020EE201A7C
:1085000000EE105ADFED190AB8EE400A20EE200AFC
:1085100071EE810A70EE800A10EE902A02F5006278
:108520006FF30B0200EE902A70EEE11A31EEC11AE1
:10853000DFED101A30EE411A9FED0D0A20EE800A91
:1085400001EE210A9FED0C1A00EE810A04BFBDE87E
:10855000F0017047CCF180510160BDE8F001B1EE4F
:10856000400A7047C83D0000000000360000802C23
:1085700022AAFD29DB0FC92F0000C92F014800687E
:10858000704700007000002002E008C8121F08C1F8
:10859000002AFAD170477047002001E001C1121F84
:1085A000002AFBD1704700000149086070470000B5
:1085B000700000202DE9FF5F82B00021DDE904306A
:1085C000020DDDF840B0034318D044F61050A2F27B
:1085D000FF3242431514119801281FD0A5EB0B0060
:1085E000401C5FEA000A4FF000064E4FDFF838915A
:1085F000B046504615D5CAF1000413E01198012485
:108600004AA3012801D16FEA0B010298119AC0E92F
:108610000031C0E9024206B0BDE8F09FCBF1000096
:10862000DFE704460021404A491842EB0450CDE9F7
:10863000001012E0E00707D032463B46404649466C
:10864000F8F719F98046894632463B4610461946E6
:10865000F8F711F906460F466410002CEAD1DDE95F
:108660000401DDE90023BAF1000F06DAF8F703F997
:1086700042464B46F8F7FFF805E0F7F7D4FE4246CE
:108680004B46F7F7D0FE04460E460022284BF8F77B
:1086900051FA03D84FF0FF30014607E00022254B86
:1086A00020463146F7F718FEF8F713FA102409E0D0
:1086B000002C0ADB0A220023F7F7ACFD039B3032C3
:1086C0001A55641E50EA0102F2D1641C039AC4F1E7
:1086D00011031444119A012A03D0012208430DD139
:1086E0000AE0084304D000204FF0110B119072E70C
:1086F000A3EB0B056D1E0DE05B4504DD4FF00002A2
:1087000005F1010504E003DA4FF00002A5F10105CF
:10871000002AECD002981199C0E90231C0E9004565
:1087200079E70000000014400000F03F3000000036
:108730000000F0430000E03F30380A2801D2012059
:1087400070470020704700002DE9FF4F95B09A4612
:10875000884606460025EEE1252877D100242746E5
:10876000F94A0121039400E0044316F8013F203B3D
:1087700001FA03F01042F7D130782A2811D06FF0B7
:108780002F033078A0F13002092A16D8039A44F05A
:10879000020402EB820203EB42021044761C0390B7
:1087A000EFE758F8042B0392002A03DA504244F40E
:1087B0000054039044F00204761C30782E2816D121
:1087C00016F8010F44F004042A280DD06FF02F0290
:1087D0003078A0F13003092B09D807EB870302EBAF
:1087E0004303C718761CF3E758F8047B761C3078EF
:1087F0006C280FD006DC4C2817D068280DD06A28CA
:1088000014D104E0742810D07A280FD10DE044F47C
:1088100000140AE044F4801401E044F44014727837
:10882000824202D104F58014761C761C30786628CA
:108830000BD013DC582877D009DC002875D04528E8
:10884000F6D04628F4D047281AD193E118E06328DF
:1088500035D0642879D0652812D18BE1702873D087
:1088600008DC6728F1D069286FD06E280DD06F28FA
:1088700006D1ACE073282CD0752874D0782853D05A
:108880005246179990476D1C54E1C4F302500228D8
:1088900009D003280DD0D8F8001004280DD00D60A1
:1088A00008F1040846E1D8F80010EA17C1E90052BF
:1088B000F6E7D8F800100D80F2E70D70F0E718F831
:1088C000041B8DF8001000208DF80100EB460120FC
:1088D00003E058F804BB4FF0FF3061074FF0000190
:1088E00002D40DE009F101018946B9420FDA814550
:1088F000F8DB1BF809100029F4D108E009F10101A7
:1089000089468142FADB1BF809100029F6D1039849
:108910005346A0EB090721463846179A00F080FA23
:10892000284400EB090507E044E008E10DE01BF8EE
:10893000010B524617999047B9F10109F7D25346F6
:1089400021463846179AF2E039E00A21C4F3025270
:108950004FF0000B0091022A06D058F8040BC11703
:10896000032A09D00AE023E008F1070020F00702FB
:10897000F2E80201904605E000B2C117042A01D1D5
:1089800040B2C117002906DA0A460021404261EBD5
:1089900002012D2202E0220504D52B228DF80420AD
:1089A000012203E0E20701D02022F7E7914657E0D9
:1089B0000A2100E010214FF0000B00910BE0102184
:1089C0004FF0000B44F004040827009103E0082056
:1089D0004FF0000B0090C4F30252022A05D058F861
:1089E000040B0021032A08D008E008F1070020F05A
:1089F0000702F2E80201904603E080B2042A00D1A7
:108A0000C0B24FF0000922072AD53278702A07D069
:108A1000DDF800C08CF0100C5CEA0B0C05D00EE009
:108A200040228DF80420012208E050EA010306D01C
:108A300030238DF804308DF8052002229146009BEA
:108A400083F0080353EA0B030AD150EA010201D173
:108A5000620705D530228DF804204FF001097F1EF2
:108A60003278582A04D039A20C920CAA02920BE058
:108A70003BA2F9E75B46009AF7F7CCFB0C9B9B5CAB
:108A8000029A521E0292137050EA0102F2D1029829
:108A900004A9081A00F1200B600702D524F48034E1
:108AA00000E001275F4502DDA7EB0B0000E000209E
:108AB00000EB0B01009003984944401A0390E00337
:108AC00006D453462146179A039800F0A9F90544A5
:108AD000002706E001A85246C05D179990476D1C1B
:108AE0007F1C4F45F6DBE0030CD553462146179A11
:108AF000039800F095F9054404E030205246179998
:108B000090476D1C0099481E00900029F5DC08E094
:108B10000298029952460078491C02911799904791
:108B20006D1CBBF10001ABF1010BF1DC5BE100F06E
:108B300065F90544761C307800287FF40DAE19B035
:108B40002846BDE8F08F000009280100303132339B
:108B50003435363738396162636465660000000079
:108B60003031323334353637383941424344454663
:108B700000000000600700D4062708F1070020F07D
:108B80000700F0E80223804603F0004C5FEA0C0087
:108B900001D097A009E0200501D596A005E0E007E7
:108BA00001D095A001E0AFF24C001390307823F093
:108BB000004365280CD006DC452809D046281DD086
:108BC00047287FD13BE0662818D067287AD136E065
:108BD0000021112F01DB112000E0781CCDE90001FC
:108BE00004A90CA8FFF7E6FCDDE90D010C9A4FF093
:108BF000000B07F10109109200914EE04FF0004088
:108C00000097CDE9011004A90CA8FFF7D3FCDDE91A
:108C10000D020C9B0F994FF0000B914610930092A0
:108C200011B9791C00EB0109B7EB090003D4C0F1BD
:108C3000FF3B07F10109A9EB0700019042E0012F7A
:108C400000DA01270021112F01DD112000E0384654
:108C5000CDE9000104A90CA8FFF7ACFCDDE90D018A
:108C60000C9A00914FF0000BB946109221070FD4D7
:108C7000009A4A4503DA914601E0A9F10109B9F1E8
:108C8000010F05DD109AA9F10101515C3029F4D0E2
:108C9000B84202DA10F1040F03DA0121CDE9011024
:108CA00010E0002803DC8344A9EB000102E0411C32
:108CB000494500DD8946A0EB0B00401C01904FF0B8
:108CC00000400290200705D40198484502DB4FF090
:108CD000FF30019000208DF84B0002980DF14B07FA
:108CE000B0F1004F25D002200C902B200D9002985F
:108CF00000280CDA404202902D200D9007E00A2156
:108D00000298F7F72EFC3031029007F8011D0C99FC
:108D1000481E0C900029F2DC02980028EFD1791E41
:108D20000D980870307800F0200040F0450007F8FA
:108D3000020D11A8C01BC01D02901398007800B14D
:108D4000012000EB0901019801EBE0710298014458
:108D50000398401A401E0390E00306D45346214670
:108D6000179A039800F05CF805441398007818B13E
:108D70005246179990476D1CE00323D55346214670
:108D8000179A039800F04CF805441BE0BBF1000F64
:108D900007DB0098584504DD1098179910F80B0070
:108DA00001E0179930205246904701980BF1010BD2
:108DB000401E05F10105019004D12E20524617995D
:108DC00090476D1CB9F10001A9F10109DEDC05E055
:108DD00017F8010B5246179990476D1C0299481ECF
:108DE00002900029F4DC53462146179A03989EE628
:108DF0002D0000002B000000200000002DE9F041B4
:108E0000044600251E461746880404D405E039466A
:108E10002020B0476D1C641EF9D52846BDE8F081BE
:108E20002DE9F041044600251E469046C80301D5B1
:108E3000302700E02027880404D505E04146384665
:108E4000B0476D1C641EF9D52846BDE8F0810000CE
:108E500070B514462DED048B0D460646F0EE418AA2
:108E6000B0EE609AF0EE409AF8F7A4FBF0EE401AEC
:108E7000B0EE690AB0EE618AF8F7A4FB68EE090A61
:108E80009FED141A9FED142A40EE680A60EE011A55
:108E900068EE022A28EE011AC6ED000AF6EE000A74
:108EA00048EE601A40EE602A00EE601A61EE891A00
:108EB00042EEE81AC5ED001A60EE021A48EE601A9A
:108EC00061EE891A41EE681AC4ED001ABDEC048BFC
:108ED00070BD0000D7B35D3FD7B35DBF2DE9F34F41
:108EE0002DED0C8BADF50D7D0C46F6A0FDF73EFF8C
:108EF000DFEDFDAA4FF46066304601F0A7FD814624
:108F0000304601F0A3FD0546B9F1000F7DD0002DDC
:108F10007BD04FF40077384601F098FD8990002807
:108F200073D031464846F7F7BFF931462846F7F780
:108F3000BBF939468998F7F7B7F9304601F086FD55
:108F40008046304601F082FD8246B8F1000F5CD0C9
:108F5000BAF1000F59D031464046F7F7A5F931462E
:108F60005046F7F7A1F9394603A8F7F79DF9899814
:108F7000FDF7DCFE304601F069FD8B90304601F0D4
:108F800065FD8A908B9800283FD08A9800283CD0B5
:108F900031468B98F7F788F931468A98F7F784F9C4
:108FA0009FEDD29AF0EE498ADFEDD1BA8DED839A2A
:108FB000B6EE00BA8DED86BA83AA85A984A8B0EE74
:108FC000491AF0EE6B0AB0EE680AFFF741FF86AA75
:108FD00087A988A8DDED831A9DED851ADDED840A49
:108FE000B7EE000A02F0D8F9DFF808B3002649F618
:108FF0004047B7EE008A00BFDBF80000C16A4908AD
:1090000000EE101AB8EE400A00E039E3DDED880A00
:1090100078EE600A20EE200ABCEEC00A10EE101AAC
:109020004163B548DBF800100068CA6A4FEA520293
:1090300000EE102AB8B1F8EE400A9DED870A38EE2E
:10904000400A20EE800ABCEEC00A10EE102A8A63A5
:10905000DBF80000C16ADDED860A490800EE101A4F
:10906000B8EE400A16E0DDED860AB8EE400A78EE6A
:10907000600A20EE200ABCEEC00A10EE102A8A63B5
:10908000DBF80000C16ADDED870A490800EE101A1E
:10909000B8EE400A78EE600A20EE200ABCEEC00A64
:1090A00010EE101AC1636420F9F74EFA761CBE4226
:1090B000A2DB9FED92AA9998B0EE4A0AFCF7D2FC87
:1090C000D4F890106068401A00EE100AF8EEC00A5A
:1090D0009FED8B0A60EE800AC4ED030AD4F88C1071
:1090E0002068401A01EE100A04F14401081FB8EE8E
:1090F000C11A21EE001AB1EE600A84ED041A70EE76
:10910000411AC4ED051A94ED0A0A00F0CFFC606C18
:10911000F7F7F8F941EC100B9FED7ADBB0EE4D1A42
:10912000F0EE6D1AFEF764F9B0EE40CAF0EE60CAD8
:10913000206CF7F7E7F941EC100BB0EE4D1AF0EEAA
:109140006D1AFEF755F9B0EE401AF0EE601A53ECC6
:109150001C2B51EC110BF7F7BFF841EC100BFFF78C
:1091600037F851EC100BF7F7E0F90CEE900A67A016
:10917000FDF7FCFD0024F1EE0C9A00264FEA0B07E8
:1091800078EEAA8A83AA85A984A8B0EE491AF0EEDF
:109190006B0AB0EE680AFFF75BFE86AA87A988A86B
:1091A000DDED831A9DED851ADDED840AB7EE000A28
:1091B00002F0F2F83868BB46C16ADDED880A49085A
:1091C00000EE101A78EE600AB8EE400A20EE200A8F
:1091D000BCEEC00A10EE101A4163474839680068B7
:1091E000CA6A4FEA520200EE102AB8EE400AA8B14D
:1091F000DDED870A78EE600A20EE200ABCEEC00A98
:1092000010EE102A8A63DBF80000C16ADDED860AE1
:10921000490800EE101AB8EE400A14E0DDED860AA7
:1092200078EE600A20EE200ABCEEC00A10EE102A8A
:109230008A63DBF80000C16ADDED870A490800EEA9
:10924000101AB8EE400A78EE600A20EE200ABCEE52
:10925000C00A10EE101AC1636420F9F775F9B0EE78
:109260004A0A9998FCF7FEFB761C282E88DBB0EEA4
:109270004A0A9998FCF7F6FBF8F7DAF988EEA9CADA
:10928000B0EE40DA09EB84003CEE4D0A80ED000AB6
:10929000F8F7D8F98B9941F8240000901DEE100AD8
:1092A000F7F730F906460F461CEE100AF7F72AF9D1
:1092B00041EC100B00980096CDE9017053EC102B97
:1092C00021463BE05374617274696E672063616C80
:1092D0006962726174696F6E2070726F6365647524
:1092E00072650A0D000000007CD9A03A0000000061
:1092F000CDCCCC3D1C0900207401002017B7D1371C
:10930000FFFFA4BC00000000000000402043757275
:1093100072656E7420416E676C65203A20526F74DE
:109320006F7220416E676C65203A2052617720454C
:109330006E636F646572200A0D0A0D00D3A0FDF7FD
:1093400015FD641CB4F5607FFFF617AF0024B0EE86
:109350004ADADFF854B3D54E002700BF78EEEA8A28
:1093600083AA85A984A8B0EE491AF0EE6B0AB0EE84
:10937000680AFFF76DFD86AA87A988A8DDED831A24
:109380009DED851ADDED840AB7EE000A02F004F8BF
:109390003068C16ADDED880A490800EE101A78EEDF
:1093A000600AB8EE400A20EE200ABCEEC00A10EEB9
:1093B000101A4163DBF8000000283068C16A4FEAE8
:1093C000510100EE101AB8EE400A14D0DDED870A04
:1093D00078EE600A20EE200ABCEEC00A10EE101AE9
:1093E00081633068C16ADDED860A490800EE101A13
:1093F000B8EE400A13E0DDED860A78EE600A20EE52
:10940000200ABCEEC00A10EE101A81633068C16AEF
:10941000DDED870A490800EE101AB8EE400A78EE32
:10942000600A20EE200ABCEEC00A10EE101AC163DA
:109430006420F9F789F8B0EE4D0A9998FCF712FB11
:109440007F1C282F8ADBB0EE4D0A9998FCF70AFBA7
:10945000F8F7EEF888EEA9CAB0EE40AA05EB840052
:109460003CEE4A0A80ED000AF8F7ECF88A99834648
:1094700041F824001AEE100AF7F744F806460F46A2
:109480001CEE100AF7F73EF841EC100B8DE8C0080F
:1094900053EC102B21467DA0FDF768FC4FF460765D
:1094A000641CB442FFF655AFB0EE490A0020DFED70
:1094B000800A00BF09EB800191ED001AA5EB800145
:1094C00001F54061401CD1ED7F1AB04271EE211AC6
:1094D00081EEA01A31EE000AECDB20EE290A10EE34
:1094E000100AF7F70FF841EC100B9FED721BFDF718
:1094F000BFFC51EC100BF7F718F808EE100AB0EEAD
:10950000480AFCF76FFB6D4880ED008A5FF00000B1
:1095100009EB800191ED000AA5EB800101F54061A6
:10952000D1ED7F0A08EB8001401C30EE200AB042EA
:1095300020EE0B0A81ED000AEADB0024DFED608AF1
:1095400000210AEB84070819403802D500F5607045
:1095500003E0B04201DBA0F5607008EB800097EDFE
:10956000000AD0ED000A491C802900EEA80A87ED08
:10957000000AE8DB802C12DA08EB8400D7ED000A41
:1095800090ED000A30EE600A20EE290AFEF758FD41
:1095900020EE2C0A03A800EB840080ED000AD7ED32
:1095A000000A9FED481A641CB44280EE810A30EE36
:1095B000099AC5DB8B9801688A98D0F8FC0D08449D
:1095C00000EBD070471040A0FDF7D0FB4AA0FDF79C
:1095D000CDFB0024DFED558A04EBE7267F2E00DD6E
:1095E000803EF8F719F800EE100AC4EBC4010AEB4C
:1095F0008100B8EEC00AD0ED000A8998324670EEBC
:10960000C90A214620EE200AC0EE280ABDEEE00A73
:1096100010EE103A40F8263045A0FDF7A7FB0120D8
:10962000F8F788FF641C802CD6DB8998FDF77EFB59
:109630001D48802214308999F6F71DFE18EE100A95
:10964000F6F760FF41EC100B3EA053EC102BFDF73A
:109650008DFB01F0B9FD504600F07CFE404600F065
:1096600079FE484600F076FE284600F073FE8998A1
:1096700000F070FE8B9800F06DFE8A9800F06AFE94
:109680000DF50D7DBDEC0C8BBDE8FC8F2564092527
:109690002E346609202020252E3466092020202023
:1096A00025640D0A00000000740100201C09002040
:1096B0000000E04400000060FB211940740000201D
:1096C0000000003C000060440A0D20456E636F649A
:1096D0006572206E6F6E2D6C696E6561726974794A
:1096E00020636F6D70656E736174696F6E20746155
:1096F000626C650D0A0000002053616D706C65207E
:109700004E756D626572203A204C6F6F6B757020DC
:10971000496E646578203A204C6F6F6B75702056E7
:10972000616C75650A0D0A0D00000000DB0FC94071
:109730002564092020202564092020202564200D8F
:109740000A0000000A0D456E636F64657220456C67
:10975000656374726963616C204F6666736574201B
:1097600028726164292025660D0A00007CB5164C1C
:109770002068A188ADF80410019900F0F6F9134DA6
:10978000012220212846F9F78FFC1149114801F0E8
:1097900093F90F490F48FFF7A1FB0022202128462B
:1097A000F9F782FCC820F8F7C5FE0BA0FDF7DEFA3A
:1097B0002068A188ADF80410019900F0C7F9154997
:1097C000002008617CBD000020000020000400484B
:1097D00004000010DC0200100A0D2043616C696275
:1097E000726174696F6E20636F6D706C6574652E45
:1097F0002020507265737320276573632720746F70
:109800002072657475726E20746F206D656E750AB6
:109810000D0000000000002038B50C4901244A6802
:109820004264496881640021C0E90E140464416304
:1098300000F134010648F8F736FF022200231146F2
:1098400003480094F8F75DFF38BD00007401002064
:10985000F007002000214FF400220162C0E9062138
:1098600041620161C16281624161704770B5844D9E
:1098700004469FED840A4168D0F890002268091AD6
:10988000D4F88C0000EE901A101A01EE100AF8EECF
:10989000E00A2B68B8EEC11A60EE800A21EE000AD9
:1098A000C4ED030A43B1F1EE600A84ED040A30EE20
:1098B000C00A84ED050A07E0F1EE600A84ED050AAE
:1098C00030EEC00A84ED040A04F10C0094ED0A0A9B
:1098D00004F14401D0EC030A343000F0E7F894EDD1
:1098E000120ADFED690A60EE200A94ED110A9FED7D
:1098F000671A674840EE010AC4ED120AD0ED030A68
:10990000C4ED080AD4ED250A94ED101A70EEC11AC0
:10991000D4ED260A30EEC01A94ED210A30EE212A49
:1099200084ED212A94ED220A70EE010AC4ED220A88
:1099300094ED340AB4EEC02AF1EE10FA01DD84EDA4
:10994000210AF4EEC00AF1EE10FA01DD84ED220ADC
:10995000D4ED210AB1EE400AF4EEC00AF1EE10FA9D
:1099600001D284ED210AD4ED220AF4EEC00AF1EE10
:1099700010FA01D284ED220A94ED1E0AD4ED210AD8
:1099800004F15401081F20EE200AD4ED1C0A00EE59
:10999000A10A84ED140A94ED1F0AD4ED220A20EEE8
:1099A000200AD4ED1D0A00EE810A84ED150A94ED1B
:1099B000060A00F049FD04F16C02111F94ED151A1E
:1099C000D4ED140A94ED0A0A081FFFF741FA04F1D6
:1099D0006400021FD0EC030A111F94ED060A0C3834
:1099E00001F0DAFC2B482C492D680A1F0068131F70
:1099F000002DC56AB7EE000A00EE905AF8EE600A34
:109A000012D094ED181A30EE411A60EE810AFCEE85
:109A1000E00A10EE905A0D60C16A94ED171A00EE3C
:109A2000901AF8EE600A11E094ED171A30EE411A20
:109A300060EE810AFCEEE00A10EE905A0D60C16AF9
:109A400094ED181A00EE901AF8EE600A30EE411A02
:109A500060EE810AFCEEE00A10EE901A1160C06A16
:109A600094ED161A00EE900A30EE410AF8EE600A04
:109A700020EE800ABCEEC00A10EE100A186070BD1D
:109A800074010020FFFFA4BC3333733FCDCC4C3DA9
:109A9000740000201C0900203C2C0140DFED020A6C
:109AA00030EEC00A01F01ABCDB0FC93F70B50C469E
:109AB0002DED068B0546F0EE618AB0EE419AF0EE90
:109AC000609AB0EE40AAFFF7E9FFB0EE402AB0EE90
:109AD0004A0AB0EE428A01F001FCDFED170AF6EE09
:109AE000002ADFED161A20EE201A68EE200A08EE92
:109AF000621A40EE620A21EE093A20EE211A08EEBF
:109B0000293A08EE621A01EE283A9FED0D1A23EE6B
:109B1000012A85ED002A28EE212A60EE691A00EE5E
:109B2000622A42EE491A40EEE81A21EE810A84EDDB
:109B3000000ABDEC068B70BDD7B35D3FD7B35DBFE8
:109B4000ABAA2A3F1C23062200F0BAB870B504461F
:109B50000D46022200F018F840F004032946204682
:109B6000BDE87040022200F0ABB870B504460D4667
:109B7000022200F009F820F0040329462046BDE83F
:109B80007040022200F09CB807B54FF4004040EA54
:109B9000C22081B2684600F001F80EBD38B50180E0
:109BA00004464FF09045002210212846F9F77CFA30
:109BB000642000900123A21C21460848FAF712F9FC
:109BC000064800BF90F85D100229FBD00122102149
:109BD0002846F9F769FA608838BD0000540800206B
:109BE0002DE9FF410DF12808920298E8F01042EAB1
:109BF000432242EA042242EA8512DDE90F1042EADA
:109C0000461242EA071242EACC0242EA81010143CB
:109C100088B240F440516846FFF7C0FFBDE8FF81BD
:109C20002DE9FF410DF12808520298E8F01042EAB0
:109C3000032242EAC41242EA4512DDE90F1042EA69
:109C4000061242EAC70242EA8C0242EA410101439B
:109C500088B240F480516846FFF7A0FFBDE8FF815D
:109C60001FB51102069841EA0311014388B240F47E
:109C7000C0516846FFF792FF1FBD1FB59202DDE994
:109C8000061042EA032242EA0111014388B240F47D
:109C900000516846FFF782FF1FBD1FB59202DDE944
:109CA0000710069C42EA032242EA841242EA0111AA
:109CB000014388B240F420516846FFF76FFF1FBD93
:109CC0001FB543EAC22081B26846FFF767FF1FBD98
:109CD0001CB5204908688988ADF804100199FFF780
:109CE00035FF1DA0FDF742F81DA0FDF73FF80A2043
:109CF000F8F72AFC1EA0FDF739F80A20F8F724FC33
:109D000020A0FDF733F80A20F8F71EFC24A0FDF789
:109D10002DF80A20F8F718FC25A0FDF727F80A20EF
:109D2000F8F712FC28A0FDF721F80A20F8F70CFC40
:109D30002CA0FDF71BF80A20F8F706FC2F4900209D
:109D4000086102B00246BDE8104010212C48F9F726
:109D5000ABB90000200000200A0D0A0D0A0D00001A
:109D600020436F6D6D616E64733A0A0D0000000050
:109D7000206D202D204D6F746F72204D6F64650A29
:109D80000D0000002063202D2043616C6962726128
:109D9000746520456E636F6465720A0D00000000F3
:109DA0002073202D2053657475700A0D000000008B
:109DB0002065202D20446973706C617920456E63A5
:109DC0006F6465720A0D0000207A202D205365749F
:109DD000205A65726F20506F736974696F6E0A0D37
:109DE0000000000020657363202D204578697420F1
:109DF000746F204D656E750A0D0000000000002094
:109E0000000400487FB543A0FCF7B0FF0A20F8F734
:109E10009BFB48A14BA0CDE900014BA34BA24EA157
:109E20004FA0FCF7A3FF0A20F8F78EFB544CA06864
:109E3000F6F768FBCDE9020152A0009053A354A2AB
:109E400059A15AA0FCF792FF0A20F8F77DFBE069C0
:109E5000F6F758FBCDE902015CA000905CA35DA27F
:109E60005FA160A0FCF782FF0A20F8F76DFB654D4B
:109E700065A057A3696865A2CDE9000165A166A048
:109E8000FCF774FF0A20F8F75FFBA9685EA0CDE934
:109E900000014FA368A26CA15FA0FCF767FF0A2036
:109EA000F8F752FBE068F6F72DFBCDE9020167A059
:109EB000009068A368A26DA13CA0FCF757FF0A20A0
:109EC000F8F742FBA069F6F71DFBCDE9020168A097
:109ED000009060A368A26EA134A0FCF747FF0A209F
:109EE000F8F732FBE9686BA0CDE9000138A36BA25B
:109EF00072A173A0FCF73AFF0A20F8F725FB774818
:109F0000FCF734FF0A20F8F71FFB754900200861B1
:109F10007FBD00000A0D0A0D20436F6E66696775EC
:109F2000726174696F6E204F7074696F6E73200A6E
:109F30000D0A0A0063757272656E742076616C7525
:109F4000650000006D6178006D696E00706172617E
:109F50006D65746572000000707265666978000056
:109F600020252D347320252D33317320252D357375
:109F700020252D367320252D32730A0D0A0D000081
:109F800074000020323030300000000031303000EA
:109F900043757272656E742042616E647769647491
:109FA000682028487A2900006200000020252D340E
:109FB0007320252D33317320252D357320252D3623
:109FC0007320252E31660A0D000000002D000000D0
:109FD000300000004765617220526174696F0000B3
:109FE0006700000020252D347320252D3331732088
:109FF000252D357320252D367320252E33660A0D29
:10A0000000000000740100203132370043414E202F
:10A01000494400006900000020252D347320252DBF
:10A0200033317320252D357320252D367320252DB2
:10A0300035690A0D0000000043414E204D617374E4
:10A0400065722049440000006D00000037302E305A
:10A0500000000000302E300043757272656E74206F
:10A060004C696D6974202841290000006C000000D3
:10A0700033332E300000000046572043757272655E
:10A080006E74204C696D697420284129000000001D
:10A0900066000000313030303030000043414E2047
:10A0A00054696D656F757420286379636C657329D5
:10A0B0002830203D206E6F6E65290000740000007E
:10A0C00020252D347320252D33317320252D357314
:10A0D00020252D36732025640A0D0000D0C200080B
:10A0E000000000207CB5124908688988ADF804108A
:10A0F0000199FFF73AFD0F4C00252046C4F8B050F7
:10A1000000F0C6FF0120F8F715FA9FED0B0A0122B7
:10A1100084ED250A84ED260A10210848F8F7C4FFCB
:10A1200007480561BDE87C4006A0FCF71FBE0000A3
:10A13000200000200400001000000000000400487F
:10A14000000000200A0D20456E746572696E67205C
:10A150004D6F746F72204D6F6465200A0D00000012
:10A1600000B585B000200190022002907B20039072
:10A1700005200490694601A8F8F77AFD02A0FCF7D3
:10A18000F5FD009805B000BD4C656176696E6720ED
:10A19000657261736520666C6173682E0000000053
:10A1A0007CB50446806B2849884205DDD4F8D4008C
:10A1B00040F00100C4F8D4002449E06B8842D4F890
:10A1C000D40003DD40F00200C4F8D400204D002884
:10A1D00030D02049086800908988ADF804100199B2
:10A1E000FFF7B4FC94F8D4001B4E800714D0E86845
:10A1F000642803D110213046F8F74EFF94F8D400BC
:10A20000800702D515A0FCF7B1FD94F8D400C00773
:10A2100002D019A0FCF7AAFD94F8D400400709D594
:10A22000E868C82803D120213046F8F735FF19A087
:10A23000FCF79CFDE868B0F57A6F01DB0020E86070
:10A24000401CE8607CBD00000000C8420000F042F5
:10A250000000002020000020000400484452562046
:10A260006F7665722D74656D706572617475726557
:10A2700021210D0A000000004D4F544F52206F76EF
:10A2800065722D74656D70657261747572652121DA
:10A290000D0A00006F76657263757272656E7421C7
:10A2A000210D0A0082B0CDE9000121F000400190AB
:10A2B0009DED000B02B051EC100B7047012131EE07
:10A2C000601A814070EE600A491E00EE101AB8EE66
:10A2D000C00A20EE800AC0EE010ABDEEE00A10EED0
:10A2E000100A7047B4EEE00AF1EE10FA07DDB4EEA2
:10A2F000C10AF1EE10FA01DCB0EE410A7047F4EE4B
:10A30000C10AF1EE10FAF7DDB0EE600A7047B4EE64
:10A31000E00AF1EE10FA07D2B4EEC10AF1EE10FA3B
:10A3200001D3B0EE410A7047F4EEC10AF1EE10FA23
:10A33000F7D2B0EE600A704738B504468DF80000D9
:10A340000223012269460248FAF77CFE204638BD06
:10A35000000A002010B5002821D0114B0022001F58
:10A36000196803E0814203D80A4649680029F9D1F7
:10A3700052B11368841A9C4204D1006818441060DA
:10A38000104602E0506000E0186039B102680B1A14
:10A39000934203D10B681A4402604968416010BDC2
:10A3A0006800002022499FED230ADFED261AD1ED37
:10A3B000020A20EE801ADFED200A21EE201A80ED3D
:10A3C0001E1A91ED021A21EE001A21EE201A80EDDC
:10A3D0001F1A91ED021A21EE001A80ED1C1A91ED60
:10A3E000021A21EE001A80ED1D1A91ED021A21EEDB
:10A3F000000A20EE200ADFED110A80EE801ADFED60
:10A40000100A80ED341A91ED020A20EE200AF0EED7
:10A41000000A20EE201AB7EE000AF0EE400A41EEE4
:10A42000610A80EE201A30EE410A80ED200A704762
:10A4300074000020C7BC8E3A9B551F3D000034427B
:10A4400017B7D137DB0F494000B5F0EE401A90ED59
:10A45000000A0A46034660EE000A91ED000A40EE4B
:10A46000000AB0EE600AF6F767FEB4EEE10AF1EE1C
:10A4700010FA0FDDD3ED000A60EEA10A80EE801A1B
:10A4800083ED001AD2ED000A60EEA10A80EE801A78
:10A4900082ED001A00BD000010B5164C164B0022CC
:10A4A00004EB8201D1E9000100EE100A03EB820007
:10A4B00000EE901A921C80EC020A402AF0DB0F4B4F
:10A4C0000F49002003EB800292EC020AB8EEC00AAA
:10A4D000F8EEE00ABDEEC00A10EE102ABDEEE00A6A
:10A4E00041F8202001EB8002801C82ED010AFF2848
:10A4F000E8DD10BD00D807087400002000D9070867
:10A50000740100202DED028BADF50A7DF8F7E0FD1A
:10A51000FBF776FBFAF792FFFAF722FEFBF704F857
:10A52000FBF72AF8FBF750F8FBF74CF9FBF726F995
:10A53000FAF7B0FEFAF766FEFBF7D2F8FAF7FEFE7E
:10A54000FAF754FFF548016841F480710160016831
:10A5500041F400710160016841F4806101600024F0
:10A56000DFF8BCA3EF4A07219FEDEF8A4FF480206C
:10A57000CAF8AC40B0EE480AFBF75AF90120F7F7E9
:10A58000E3FF7F21E948F7F727F97F21E848F7F74C
:10A5900023F97F21E748F7F71FF97F21E648F7F70E
:10A5A0001BF9E248F7F724FCE148F7F721FCE14802
:10A5B000F7F71EFCE048F7F71BFC0120F7F7A8FFB0
:10A5C000DE48F9F731FFDE48F9F72EFFDD4D0022B6
:10A5D00008212846F8F768FD0120F7F799FF0122C6
:10A5E00010214FF09040F8F75FFD01220821284626
:10A5F000F8F75AFD0120F7F78BFFD34E3068009033
:10A60000B188ADF804100199FFF79CFA0120F7F723
:10A610007FFF0125CDE90345CDE90545009401946F
:10A62000029430688790B188ADF820122B46002242
:10A630008899FFF7F5FA0120F7F76AFF4FF0020952
:10A64000CDE900490327039504950294CDE9055708
:10A6500030688790B188ADF82012012300228899D4
:10A66000FFF7BEFA0120F7F753FF0AF19001081F28
:10A6700001F0F2F84FF00408CDF800803068019046
:10A68000B188ADF80810434603220299FFF7E8FAB3
:10A690000120F7F73DFFCDF80080CDF80480306849
:10A6A0000290B188ADF80C1001231A460399FFF708
:10A6B000E4FA0120F7F72CFF0120F7F729FF0394B4
:10A6C0000494CDE90547CDE90049029430688790AC
:10A6D000B188ADF82012012300228899FFF780FA93
:10A6E0000120F7F715FF0F200095CDE901703068C4
:10A6F0000390B188ADF81010032300220499FFF7EE
:10A70000CCFA0120F7F704FF30680090B188ADF86B
:10A7100004100199FFF71AFA0120F7F7F9FE5046E5
:10A7200000F0B6FC0120F7F7F3FE00218348FAF7AA
:10A7300069F904218148FAF765F908217F48FAF799
:10A7400061F900217D48F9F75BFD04217B48F9F7A9
:10A7500057FD08217948F9F753FDFFF79DFE7B4E21
:10A76000306820F00040C0F1FF40002801D586EDA0
:10A77000008A706820F00040C0F1FF40002801D539
:10A7800086ED018AB068FCF72CFB714F50B996ED4D
:10A79000020A10EE100AB84204D0B5EEC00AF1EE7B
:10A7A00010FA03D19FED6B0A86ED020AF068FCF700
:10A7B00018FB50B996ED030A10EE100AB84204D007
:10A7C000B5EEC00AF1EE10FA03D19FED630A86EDF3
:10A7D000030AB069FCF705FB10B9B069B84203D1B0
:10A7E000B2EE040A86ED060A5C4F786800EE100AA5
:10A7F000B8EEC00A10EE101A21F00041C1F1FF417D
:10A80000002901D4401C00D17D60B86800EE100A18
:10A81000B8EEC00A10EE101A21F00041C1F1FF415C
:10A82000002901D4401C00D1BC60F86800EE100A79
:10A83000B8EEC00A10EE101A21F00041C1F1FF413C
:10A84000002901D4401C00D1FC60F069FCF7C9FA72
:10A8500030B996ED070AB5EEC00AF1EE10FA03D151
:10A860009FED3F0A86ED070A96ED000AFBF7BAF95D
:10A8700096ED010AFBF7BCF94FF4007107A8F5F754
:10A8800013FD36498022143107A8F5F7F4FC07A818
:10A89000FCF74CFA2248FFF785FD0A20F7F738FE4F
:10A8A00030A0FCF763FA36A0FCF760FA39A13AA0B1
:10A8B000FCF75CFADAE923123DA0FCF757FA30689E
:10A8C000F5F720FE41EC100B43A053EC102BFCF7E6
:10A8D0004DFA7068F5F716FE41EC100B4AA053ECE8
:10A8E000102BFCF743FA50A07968FCF73FFA524866
:10A8F000FEF792FF50483038FEF7ACFF4F48F8F7AC
:10A900009BF9002201214D48F7F738FE4C480560BD
:10A9100001224C494C48FAF75DFBFEE7002002405B
:10A9200004000010DC0200100000000040060020BF
:10A93000AC06002018070020840700201C09002016
:10A940006809002000080048200000207400002052
:10A95000000080BF0000C84200008C42740100204B
:10A96000000010420A0D205953432036302D373253
:10A970002D43414E2D4472697665200A0D0000007A
:10A980000A0D20446562756720496E666F3A0A0DAC
:10A9900000000000312E3000204669726D77617230
:10A9A000652056657273696F6E3A2025730A0D0033
:10A9B0002041444331204F66667365743A20256414
:10A9C0002020202041444332204F66667365743A4C
:10A9D0002025640A0D00000020506F736974696FB0
:10A9E0006E2053656E736F7220456C656374726977
:10A9F00063616C204F66667365743A202020252EB3
:10AA000034660A0D00000000204F757470757420C4
:10AA10005A65726F20506F736974696F6E3A2020A7
:10AA2000252E34660A0D00002043414E2049443A49
:10AA3000202025640A0D0000A4050020F007002056
:10AA40001000002031000020000A0020F0B50B307B
:10AA5000154D20F007010024144A0FE003688B42D3
:10AA60000BD38B4205D95E1A43184768C3E90067C8
:10AA700000E04368136002C004E0021D1068002873
:10AA8000ECD12046002802D1286808B10020F0BD92
:10AA9000064A07481060074A121A22F00702C0E966
:10AAA000002401202860D7E76C0000206800002007
:10AAB000940A0020900A01202DE9F04F2DED0A8B19
:10AAC00083468BB00C46CDA0FCF750F99FEDD31A0E
:10AAD000B0EE418A9FEDD2BA8DED041AB6EE000AAF
:10AAE0008DED070AF0EE419A002504AA06A905A8F3
:10AAF000F0EE4B0AB0EE480AFEF7AAF907AA09A938
:10AB000008A8DDED041A9DED061ADDED050AB7EE85
:10AB1000000A00F041FCC34F002644F62068F7EE1F
:10AB2000008A3968BA46CA6ADDED080A520800EEA2
:10AB3000102A78EEE00AB8EE400A20EE200ABCEEB9
:10AB4000C00A10EE102A4A633968CA6ADDED090AA4
:10AB5000520800EE102A78EEE00AB8EE400A20EE25
:10AB6000200ABCEEC00A10EE102A8A63DAF8000050
:10AB7000C16ADDED070A490800EE101A78EEE00A16
:10AB8000B8EE400A20EE200ABCEEC00A10EE101A01
:10AB9000C1636420F7F7D8FC761C4645C1DB5846F4
:10ABA000DFEDA1BAB0EE6B0AFAF75CFF0120F7F710
:10ABB000C1FCD4F890106068401A00EE100AF8EE5C
:10ABC000C00A9FED9A0A60EE800AC4ED030A21686C
:10ABD000D4F88C00081A01EE100A04F14401081F91
:10ABE000B8EEC11A21EE001AB1EE600A84ED041A23
:10ABF00070EE411AC4ED051A94ED0A0AFEF756FFED
:10AC0000606CF5F77FFC41EC100B9FED89CBB0EE4B
:10AC10004C1AF0EE6C1AFCF7EBFBB0EE40AAF0EE2B
:10AC200060AA206CF5F76EFC41EC100BB0EE4C1AEC
:10AC3000F0EE6C1AFCF7DCFBB0EE401AF0EE601A96
:10AC400053EC1A2B51EC110BF5F746FB41EC100BB2
:10AC5000FDF7BEFA51EC100BF5F767FC064676A03F
:10AC6000FCF784F83046F5F74DFC80468946606C69
:10AC7000F5F748FC06460F46206CF5F743FC8DE8D7
:10AC8000C00341EC100B6FA053EC102BFCF76EF8D7
:10AC9000DFF8C48154469FED71AA04AA06A905A84D
:10ACA000B0EE691AF0EE4B0AB0EE480AFEF7D0F8A3
:10ACB00007AA09A908A8DDED041A9DED061ADDED25
:10ACC000050AB7EE000A00F067FB6420F7F73CFCCA
:10ACD0002068C16ADDED080A490800EE101A78EE16
:10ACE000E00AB8EE400A20EE200ABCEEC00A10EEE0
:10ACF000101A41632068C16ADDED090A490800EEB7
:10AD0000101A78EEE00AB8EE400A20EE200ABCEEF7
:10AD1000C00A10EE101A81632068C16ADDED070ACF
:10AD2000490800EE101A78EEE00AB8EE400A20EE6C
:10AD3000200ABCEEC00A10EE101AC1635846B0EEED
:10AD40006B0AFAF78FFEF6F773FCB5EEC08AF1EEE8
:10AD500010FA01D1B0EE409AC82D17DD002510EE93
:10AD6000100AF5F7CFFBF1EE0C0A064688EE200A32
:10AD70000F4610EE100AF5F7C5FB41EC100B38A09A
:10AD800053EC102BCDE90067FBF7F0FF38EE0A8A91
:10AD90006D1C18EE100A4045FFF67FAFF6F748FC31
:10ADA00070EE490AF5EEC00AF1EE10FA01DD012459
:10ADB00000E0002410EE100AF5F7A4FB05460E464D
:10ADC00019EE100AF5F79EFB41EC100BCDE9005689
:10ADD00053EC102B26A0FBF7C9FF21462EA0FBF752
:10ADE000C5FF0CB131A000E035A0FBF7BFFF404824
:10ADF00004600BB0BDEC0A8BBDE8F08F0A0D204358
:10AE00006865636B696E67207068617365206F7237
:10AE1000646572696E670A0D0000000000000000A2
:10AE2000CDCCCC3D1C09002017B7D137FFFFA4BC07
:10AE300000000000000000400A0D43757272656E4C
:10AE4000740A0D002566092020202025660920208F
:10AE50002025660D0A000000DB0F49416F12833A7E
:10AE6000252E346609202020252E34660D0A000088
:10AE700054686574612053746172743A20202025EF
:10AE80006620202020546865746120456E643A2055
:10AE90002025660A0D000000446972656374696FBD
:10AEA0006E3A202025640A0D00000000506861738E
:10AEB000696E6720636F72726563740A0D0000002B
:10AEC00050686173696E6720696E636F7272656343
:10AED000742E20205377617070696E6720706861EE
:10AEE000736573205620616E6420570A0D000000C0
:10AEF000740100202DE9F04106462DED048BB0EEE3
:10AF0000418AF0EE609A82B0F0EE428AB0EE619A29
:10AF10001420B2EE041AFAEE040AFFF7CFF907463E
:10AF200014209FED341ADFED340AB0EE690AFFF702
:10AF3000C5F9804610209FED311ADFED310AB0EEE1
:10AF4000480AFFF7BBF99FED2F8A05460720B0EEB0
:10AF5000481AFBEE040AB0EE490AFFF7AFF90446BF
:10AF60000720B0EE481AFBEE040AB0EE680AFFF7BD
:10AF7000A5F90099002267F313010091BDF8023092
:10AF80009DF8047043EA074368F31713ADF80230E5
:10AF9000190C8DF80410BDF8051065F30F01ADF81C
:10AFA000051019499DF807500B7863F300058DF8DB
:10AFB0000750ABB19DF8073060F347038DF80730B9
:10AFC0000A70124840681030F0600098C6F801001E
:10AFD0000198C6F8050002B0BDEC048BBDE8F08115
:10AFE0009DF8070064F347008DF807000120087002
:10AFF000E7E7000000002042000020C20000C84235
:10B000000000C8C200004843300000207401002046
:10B01000FEB50D4CD4F81802F5F774FA05460E4645
:10B02000D4F83402F5F76EFA41EC100B2068009565
:10B03000CDE9016053EC102B04A0FBF797FEBDE8AF
:10B04000FE400120F7F776BADC020010204D656360
:10B0500068616E6963616C20416E676C653A20209F
:10B06000256620202020456C656374726963616CDD
:10B0700020416E676C653A202025662020202052F2
:10B0800061773A202025640A0D000000FFF754B9CB
:10B090001F490A68D36A00EE103AF8EE400AB6EE8D
:10B0A000000A60EE800AFCEEE00A10EE903AD363EC
:10B0B0000A68D36A00EE903AF8EE600A60EE800A01
:10B0C000FCEEE00A10EE903A53630968CA6A00EE9B
:10B0D000902AF8EE600A20EE800ABCEEC00A10EE5C
:10B0E000102A8A639FED0B0A80ED250A80ED260A5F
:10B0F00080ED100A80ED110A80ED120A80ED220A1F
:10B1000080ED210A80ED150A80ED140A70470000D9
:10B110001C0900200000000010B5264CA06806287D
:10B1200018D2DFE800F0030A11173B42206900281B
:10B1300010D0BDE81040FEF7CBBD2069002809D033
:10B14000BDE81040FEF712BB206920B1FEF7CAFF30
:10B150000020606010BD184C1848D4F8A810C068D2
:10B1600081420DDD00280BDD9FED150A84ED250AD7
:10B1700084ED260A84ED2F0A84ED300A84ED310A2D
:10B180000D4800F06BF994ED0A0A0E490A482C3478
:10B19000FEF76CFBE06F401CE06710BD20690028E3
:10B1A000FBD0BDE81040FEF72DBEBDE81040FFF714
:10B1B0002FBF0000000000200400001074010020D8
:10B1C00000000000F005002070B5F7F72DFE08B173
:10B1D000012070BDF7F7D6FD08B1022070BDFEF763
:10B1E000BFFF401C01D0032070BD20494CF2FA3053
:10B1F00008614FF47A70F6F7ADF908B1052070BD1B
:10B200001B4D1C4E002400BF05EB840006EB84019F
:10B21000D0E900230020F7F7C9FD28B1214616A088
:10B22000FBF7A4FD062070BDA41C402CECDB1B4DDD
:10B230001B4E002405EB840006EB8401D0E90023BB
:10B240000020F7F7B3FD28B1214616A0FBF78EFDCD
:10B25000072070BDA41CFF2CECDDF7F777FDF7F796
:10B2600083FD19A0FBF782FD002070BD0020024085
:10B270007400002000D8070853617665546F466C4F
:10B28000617368206661696C2077726974696E67A2
:10B2900020666C6F61742023256400007401002017
:10B2A00000D9070853617665546F466C6173682056
:10B2B0006661696C2077726974696E6720696E7463
:10B2C000202325640000000053617665546F466CAE
:10B2D00061736820416C6C204F6B0A0010B52DED36
:10B2E000028B9FED0E8AF0EE480AFBF743FEB5EEA7
:10B2F000C00AF1EE10FA01D230EE080ADFED080ABA
:10B30000084920EE200ABDEEC00A10EE100A01EB3B
:10B31000800090ED000ABDEC028B10BDDB0FC94030
:10B3200083F9A24210B9000800B52DED048B83B05B
:10B3300041EC190BF5F728FB41EC180B18EE100A3D
:10B3400018EE901A8DED008B002818BF01200843DD
:10B3500020F00040C0F17F6000F1E040C00F14D049
:10B3600019EE101A19EE900A8DED009B002918BFF6
:10B370000121084320F00040C0F17F6000F1E0406F
:10B38000C00F04BF0120FDF70FF951EC180B03B0FB
:10B39000BDEC048B00BD000070B514462DED088B8C
:10B3A000F0EE619AB0EE41AAF0EE60AAB0EE408AEB
:10B3B0000D460646B0EE691AF0EE4A0AB0EE6A0A89
:10B3C000FEF7A5FFF0EE408AB0EE691AF0EE4A0AE9
:10B3D000B0EE6A0AFEF786FF38EE800AF6EE008AC3
:10B3E00020EE289A7AEEC90ADFED1AAA80EE880AC2
:10B3F000F0EE6A0A30EE280AFBF72AFD9FED16BA36
:10B40000F0EE4B0AFBF72CFD7AEE490A86ED000AB6
:10B4100080EE880AF0EE6A0A30EE280AFBF718FD83
:10B42000F0EE4B0AFBF71CFD85ED000A39EEC90A68
:10B43000C0EE080A30EEA80AF0EE6A0AFBF708FD33
:10B44000F0EE4B0AFBF70CFD84ED000ABDEC088B17
:10B4500070BD000000000000D7A3703F90ED2D0AE2
:10B46000D0ED090A90ED0B1A1A4930EE600AD0EDC2
:10B470002F0A20EE200AD0ED2E0A70EEC10A90EDC0
:10B48000301A01EE200AD0ED310A91ED071A70EE64
:10B49000200A80EE810ADFED100A60EE200A9FED9F
:10B4A0000F0AC0ED260A80ED250A90ED080AF4EE99
:10B4B000C00AF1EE10FA01DD80ED260AD0ED260A71
:10B4C000B1EE400AF4EEC00AF1EE10FA01D280EDBE
:10B4D000260A7047740000208FC25541000000000A
:10B4E00001EE100A70EEC00A0120B8EEC11A8840C1
:10B4F000401E21EE201A00EE900AF8EEE01AC1EE8E
:10B50000210A30EE800A70470FB4102110B5F2EE18
:10B51000040A2DED028B82B0BAEE040A199CDDF804
:10B5200019000090DDF81D000190BDF80000FFF744
:10B53000D7FF84ED2D0ABDF802000E21C0F30D00E7
:10B54000DFED180A9FED180AFFF7CAFF84ED2E0AF7
:10B550009FED178ABDF803000A218009DFED130A69
:10B56000B0EE480AFFF7BCFF84ED2F0A9DF80500F6
:10B570000821DFED100AB0EE480AFFF7B1FF84EDB5
:10B58000300ABDF806001021DFED0B0A9FED0B0A13
:10B59000FFF7A6FF84ED310A02B0BDEC028B10BCB0
:10B5A0005DF814FB00002042000020C200007A4435
:10B5B00000000000000048420000C8420000C8C26D
:10B5C0002DE9F0478248DFF80C8201262DED028B31
:10B5D00000250078A8F114041B2809D1A560266174
:10B5E00065702570002142465554491C0829FBDB33
:10B5F000A1689FED798A794F99B1A16804294CD04F
:10B60000A16805296CD0A168022906D1642804D15B
:10B61000734880ED268A80ED258ABDEC028BBDE85B
:10B62000F0876D2832D005DC63282DD06528F4D151
:10B63000052030E073282DD07A28EED1B0EE480AEC
:10B64000FAF7D6FA67489FED680AFAF70BFA142062
:10B65000F6F77AFFF5F7E6FF87ED010AFFF7B4FD8D
:10B66000FEF71AFF97ED010AFAF7C2FA7868F4F7C5
:10B6700049FFBDEC028B41EC100BBDE8F04753ECE9
:10B68000102B5AA0FBF772BBA66001E0022002E07B
:10B690002661C2E70420A060FAE70D280CD061788B
:10B6A000002978D0414401F8010C5A49FFF7EEFC1B
:10B6B0006078401C6070B0E7A1462178564C69293B
:10B6C00037D006DC622920D0662950D0672906D100
:10B6D00067E06C2937D06D2930D074295CD000E048
:10B6E00071E04EA0FBF742FBFFF76EFDFEF7D4FEC4
:10B6F000C9F8106089F8015089F8005000204146CF
:10B700000D54401C0828FBDB87E73248FBF784FB1D
:10B7100051EC100BF4F709FF00EE100ADFED490AB7
:10B72000FBF79EFBDFED480AFBF792FB87ED020A71
:10B73000DAE72848F4F7C3FD6060D5E72548F4F759
:10B74000BEFDA060D0E72348FBF766FB51EC100B71
:10B75000F4F7EBFE00EE100ADFED3C0AFBF780FB8E
:10B76000F0EE480AFBF774FB87ED030ABCE71948C3
:10B77000FBF752FB51EC100BF4F7D7FE00EE100A6A
:10B78000DFED330AFBF76CFBF0EE480AFBF760FBDA
:10B7900087ED060AA8E714E00E48F4F790FDE06094
:10B7A000A2E70C48FBF738FB51EC100BF4F7BDFE99
:10B7B00000EE100ADFED270AFBF74AFB87ED070AC8
:10B7C00092E7207071E71B289ED1A56060E700001A
:10B7D0003100002014000020000000007400002050
:10B7E00004000010DC02001017B7D1370A0D20202A
:10B7F0005361766564206E6577207A65726F20707C
:10B800006F736974696F6E3A2020252E34660A0DB5
:10B810000A0D000064000020740100200A0D20279A
:10B82000256327204E6F7420612076616C69642047
:10B83000636F6D6D616E64207072656669780A0D64
:10B840000A0D00000000FA440000C84200008C42CB
:10B85000000004426F12833A2DE9F04700262DEDD7
:10B86000028B8A46DFF89C80814635464FF480671C
:10B870003446B6EE008A00BFD8F80010CA6A00EE5F
:10B88000102AB8EE400A20EE080ABCEEC00A10EEFC
:10B89000102A4A63D8F80010CA6A00EE102AB8EEDF
:10B8A000400A20EE080ABCEEC00A10EE102A8A6395
:10B8B000D8F80000C16A00EE101AB8EE400A20EE77
:10B8C000080ABCEEC00A10EE101AC1630120F6F798
:10B8D0003BFE09210C48F6F773FA054409210B4891
:10B8E000F6F76EFA641C0644BC42C5DB96FBF7F122
:10B8F000C9F8001095FBF7F1CAF80010BDEC028BF7
:10B90000BDE8F0871C090020AC060020400600209E
:10B91000000000002975493CDF6EC93C6F0E173DE1
:10B920003160493D8FA97B3D38F4963D6B0EB03DAB
:10B930004721C93D5E2EE23DEC2FFB3D7F130A3EC1
:10B94000698C163E76FD223EA5662F3E97CA3B3E89
:10B950004A29483E807D543EDAC9603E560E6D3E0F
:10B96000F54A793E3CBD823E0FD1883EA4DF8E3E33
:10B97000FBE8943EC4EB9A3EFFE7A03EFCDEA63E09
:10B980006CCFAC3E4EB9B23EA29CB83E1878BE3EDB
:10B99000B24BC43EBD18CA3EECDDCF3EED99D53E5C
:10B9A000614FDB3E59FAE03EC39EE63EB038EC3EC6
:10B9B00071C9F13E5452F73EBBD0FC3E5322013FC9
:10B9C000B2D7033FD387063FB532093F5AD80B3F62
:10B9D000C0780E3F4013113F82A8133FDF37163F58
:10B9E00055C1183FE5441B3F8FC21D3F543A203FCD
:10B9F0008AAB223FDB16253F9E7B273FD3D9293FC9
:10BA00007B312C3FED812E3F79CC303FD00F333F3F
:10BA1000F14B353F8481373FE2AF393F0AD73B3F97
:10BA2000FDF63D3F130F403F9B20423F9E29443F80
:10BA3000132C463F0326483FBD184A3F9B034C3F0B
:10BA4000F3E54D3F16C14F3FB493513F745E533FF2
:10BA50005721553F0EDB563F8F8D583FE3365A3FF7
:10BA6000B2D75B3FA4705D3F69005F3F5188603F84
:10BA70000C07623F9A7C633FA3E9643F274E663F11
:10BA80007EA9673F50FC683F4E456A3FC6856B3FC5
:10BA900012BD6C3F31EB6D3F23106F3F412B703F68
:10BAA000D93D713F9D46723F3546733F9F3C743F81
:10BAB0003529753F9E0C763F32E6763F9AB6773F42
:10BAC0002C7D783FEB39793F7CED793F39977A3F90
:10BAD00022377B3F36CD7B3F75597C3F87DC7C3FEF
:10BAE0001D557D3F87C47D3F74297E3F34857E3F51
:10BAF00077D67E3F8E1E7F3F295C7F3FEF8F7F3F53
:10BB000088BA7F3FA5DA7F3FEDF07F3F61FD7F3F41
:10BB10000000803F23F87F3F19E77F3F92CB7F3FB4
:10BB200037A67F3FAF777F3FAB3E7F3FD2FB7E3F65
:10BB300025AF7E3FA3587E3F4DF87D3F228E7D3F4F
:10BB4000221A7D3F4E9C7C3FA5147C3F27837B3F80
:10BB5000D5E77A3F57437A3F0395793FDBDC783F5F
:10BB6000DF1A783FB54F773FB77A763FE59B753F51
:10BB7000E5B3743FB9C2733FB9C7723F8BC3713F1E
:10BB800031B6703F029F6F3FA67E6E3F1D556D3FE1
:10BB900068226C3F86E66A3F1FA2693FE353683F15
:10BBA00022FD663F349D653F1A34643F22C3623FE5
:10BBB0005648613FACC55F3FD6395E3F7AA55C3FD2
:10BBC0009A085B3F3563593F4AB5573F82FF553F5F
:10BBD0008E40543F637A523FB4AB503F80D44E3FC7
:10BBE0006FF54C3F280F4B3F5C20493FB329473F3F
:10BBF000D42B453F1826433F7E18413FB0033F3FBB
:10BC0000ABE73C3F72C43A3F5B99383FB667363F7B
:10BC1000DC2E343FCCEE313F2FA82F3F5C5A2D3F16
:10BC2000FB052B3F0DAB283F9049263F2EE2233FDB
:10BC30009773213F19FF1E3FB6841C3FC5031A3F6F
:10BC4000957D173FD8F0143FDD5E123FFCC60F3FD5
:10BC500035290D3F2F860A3FECDD073F6A30053F4F
:10BC6000AA7D023F598BFF3E3012FA3E8A8EF43E87
:10BC70000803EF3E096DE93EDDCDE33E8525DE3E5E
:10BC80004F75D83E3CBDD23EFCFBCC3EDF32C73EBA
:10BC90003563C13E5D8ABB3E47ACB53E05C5AF3E90
:10BCA00084D8A93E75E5A33E89EA9D3E60EA973EA9
:10BCB000F7E4913E02D98B3ECEC7853EB7627F3E08
:10BCC000F52D733EB7EE663EFDA45A3E65534E3EDB
:10BCD000F0F9413E3D9B353E0E32293EA0C31C3E4D
:10BCE000F44F103E0AD7033EC4B1EE3DB9A5D53D91
:10BCF000A298BC3D1B82A33D49658A3D6685623D95
:10BD0000D637303DF7C7FB3CC615973C5374C93B4B
:10BD10005374C9BBC61597BCF7C7FBBCD63730BD3B
:10BD2000668562BD49658ABD1B82A3BDA298BCBD64
:10BD3000B9A5D5BDC4B1EEBD0AD703BEF44F10BE40
:10BD4000A0C31CBE0E3229BE3D9B35BEF0F941BEDC
:10BD500065534EBEFDA45ABEB7EE66BEF52D73BE4A
:10BD6000B7627FBECEC785BE02D98BBEF7E491BE57
:10BD700060EA97BE89EA9DBE75E5A3BE84D8A9BED8
:10BD800005C5AFBE47ACB5BE5D8ABBBE3563C1BE9F
:10BD9000DF32C7BEFCFBCCBE3CBDD2BE4F75D8BEA9
:10BDA0008525DEBEDDCDE3BE096DE9BE0803EFBE2D
:10BDB0008A8EF4BE3012FABE598BFFBEAA7D02BF36
:10BDC0006A3005BFECDD07BF2F860ABF35290DBFDE
:10BDD000FCC60FBFDD5E12BFD8F014BF957D17BF44
:10BDE000C5031ABFB6841CBF19FF1EBF977321BFBE
:10BDF0002EE223BF904926BF0DAB28BFFB052BBF0A
:10BE00005C5A2DBF2FA82FBFCCEE31BFDC2E34BF24
:10BE1000B66736BF5B9938BF72C43ABFABE73CBF69
:10BE2000B0033FBF7E1841BF182643BFD42B45BF88
:10BE3000B32947BF5C2049BF280F4BBF6FF54CBFEC
:10BE400080D44EBFB4AB50BF637A52BF8E4054BF54
:10BE500082FF55BF4AB557BF356359BF9A085BBFCC
:10BE60007AA55CBFD6395EBFACC55FBF564861BF1F
:10BE700022C362BF1A3464BF349D65BF22FD66BF12
:10BE8000E35368BF1FA269BF86E66ABF68226CBF22
:10BE90001D556DBFA67E6EBF029F6FBF31B670BFCE
:10BEA0008BC371BFB9C772BFB9C273BFE5B374BFEB
:10BEB000E59B75BFB77A76BFB54F77BFDF1A78BFFE
:10BEC000DBDC78BF039579BF57437ABFD5E77ABFEC
:10BED00027837BBFA5147CBF4E9C7CBF221A7DBFED
:10BEE000228E7DBF4DF87DBFA3587EBF25AF7EBF9C
:10BEF000D2FB7EBFAB3E7FBFAF777FBF37A67FBF92
:10BF000092CB7FBF19E77FBF23F87FBF000080BFC0
:10BF100061FD7FBFEDF07FBFA5DA7FBF88BA7FBF2D
:10BF2000EF8F7FBF295C7FBF8E1E7FBF77D67EBF1E
:10BF300034857EBF74297EBF87C47DBF1D557DBFFC
:10BF400087DC7CBF75597CBF36CD7BBF22377BBF7A
:10BF500039977ABF7CED79BFEB3979BF2C7D78BFFB
:10BF60009AB677BF32E676BF9E0C76BF352975BF8D
:10BF70009F3C74BF354673BF9D4672BFD93D71BFAC
:10BF8000412B70BF23106FBF31EB6DBF12BD6CBF73
:10BF9000C6856BBF4E456ABF50FC68BF7EA967BFB0
:10BFA000274E66BFA3E964BF9A7C63BF0C0762BFDC
:10BFB000518860BF69005FBFA4705DBFB2D75BBF2F
:10BFC000E3365ABF8F8D58BF0EDB56BF572155BF82
:10BFD000745E53BFB49351BF16C14FBFF3E54DBF5D
:10BFE0009B034CBFBD184ABF032648BF132C46BF56
:10BFF0009E2944BF9B2042BF130F40BFFDF63DBFAB
:10C000000AD73BBFE2AF39BF848137BFF14B35BFA1
:10C01000D00F33BF79CC30BFED812EBF7B312CBF29
:10C02000D3D929BF9E7B27BFDB1625BF8AAB22BF92
:10C03000543A20BF8FC21DBFE5441BBF55C118BF76
:10C04000DF3716BF82A813BF401311BFC0780EBFE1
:10C050005AD80BBFB53209BFD38706BFB2D703BFCB
:10C06000532201BFBBD0FCBE5452F7BE71C9F1BE12
:10C07000B038ECBEC39EE6BE59FAE0BE614FDBBEEF
:10C08000ED99D5BEECDDCFBEBD18CABEB24BC4BE65
:10C090001878BEBEA29CB8BE4EB9B2BE6CCFACBEC4
:10C0A000FCDEA6BEFFE7A0BEC4EB9ABEFBE894BED2
:10C0B000A4DF8EBE0FD188BE3CBD82BEF54A79BEDC
:10C0C000560E6DBEDAC960BE807D54BE4A2948BE98
:10C0D00097CA3BBEA5662FBE76FD22BE698C16BEF2
:10C0E0007F130ABEEC2FFBBD5E2EE2BD4721C9BD0A
:10C0F0006B0EB0BD38F496BD8FA97BBD316049BDD4
:10C100006F0E17BDDF6EC9BC297549BC0000000069
:10C110000001020304050607080C10141820304023
:10C12000010002000400060008000A000C001000D4
:10C130002000400080000001010101030701000010
:10C1400008040204080101010000000000000000D2
:10C1500001020304060708090000000001020304AD
:10C1600004FA97999999D93FAF788E1DC571CC3F44
:10C170009FC678D0099AC33F935555555555E53F0D
:10C18000599322942449D23FDE03CB966446C73F9D
:10C1900044523EDF12F1C23F000000000000F03FB9
:10C1A000000000000000F83F000000000000000058
:10C1B0000000004003B8E23F000000000000000063
:10C1C00006D0CF43EBFD4C3E033333333333E33FF1
:10C1D000FFAB6FDBB66DDB3F4D268F515555D53F1D
:10C1E00001411DA96074D13F65DBC9934A86CD3FEB
:10C1F000EF4E454A287ECA3F3E5555555555C53FD9
:10C2000093BDBE166CC166BF2CDE25AF6A56113FCA
:10C21000F16BD2C541BDBBBED0A4BE726937663ECC
:10C220000000000000000000000000006E83F9A282
:10C230002915444ED15727FCC0DD34F5999562DBB2
:10C240004190433CAB6351FE004040404040404081
:10C2500040404141414141404040404040404040D9
:10C26000404040404040404040050202020202027D
:10C2700002020202020202020220202020202020CC
:10C2800020202002020202020202909090909090E0
:10C29000101010101010101010101010101010109E
:10C2A0001010101002020202020288888888888812
:10C2B00008080808080808080808080808080808FE
:10C2C00008080808020202024000000049C20008F3
:10C2D0000A0D20546F206368616E676520612076C7
:10C2E000616C75652C2074797065202770726566A5
:10C2F0006978272776616C75652727454E54455226
:10C30000270A0D20692E652E202762313030302714
:10C3100027454E544552270A0D0A0D005CC30008FC
:10C32000000000207400000088850008D0C30008C9
:10C33000000000100400000088850008D4C3000835
:10C34000040000105C05000016100008D0C30008AF
:10C35000740000201C4A01009885000800000000BD
:10C3600000000000000000000000000000000000CD
:10C3700000000000000000000000000000000000BD
:10C3800000000000000000000000000000000000AD
:10C39000100000000100000000000000000000008C
:10C3A000000000000000000000000000010000008C
:10C3B0000000000000000000000000000024F40065
:10C3C000000000000000000000000000000000006D
:10C3D000FEE7000001FF01FF01FF01FF01FF016710
:04000005080001D915
:00000001FF
