:020000040800F2
:10000000D8CE0020D9010008EF400008113C0008BC
:10001000ED400008D5100008694D00080000000000
:100020000000000000000000000000005142000835
:100030003D13000800000000F14000088D44000856
:10004000F3010008F3010008F3010008F3010008C0
:10005000F3010008F3010008F3010008F3010008B0
:10006000F3010008F3010008F3010008F3010008A0
:10007000F3010008F3010008F3010008F301000890
:10008000F3010008F3010008F3010008F301000880
:10009000D9100008F3010008F3010008F30100087B
:1000A000F301000835450008F3010008F3010008DA
:1000B00095450008F3010008F3010008F30100086A
:1000C000F3010008F3010008F3010008F301000840
:1000D000F3010008F30100085D4D0008F30100087A
:1000E000F3010008F3010008F3010008F301000820
:1000F000F3010008F3010008F3010008F301000810
:10010000F3010008F3010008F3010008F3010008FF
:10011000F3010008F3010008F3010008F3010008EF
:10012000F3010008F3010008F3010008F3010008DF
:10013000F30100080000000000000000F3010008C7
:10014000F3010008F3010008F3010008F3010008BF
:10015000F3010008F3010008F3010008F3010008AF
:10016000F3010008F3010008F3010008F30100089F
:10017000F3010008F3010008F3010008000000008B
:1001800000000000F3010008000000000000000073
:10019000F30100080000000000000000F301000867
:1001A000000000000000000000000000F301000853
:1001B000F3010008F3010008F3010008F30100084F
:1001C000F3010008DFF80CD000F096FC004800476F
:1001D00079840008D8CE00200648804706480047AA
:1001E000FEE7FEE7FEE7FEE7FEE7FEE7FEE7FEE7E7
:1001F000FEE7FEE719450008C50100082DE9F05F9C
:100200000546002092469B46884606468146402485
:100210001BE0284641464746224600F02DFA534649
:100220005A46C01A914110D311461846224600F092
:1002300014FA2D1A67EB01084F46224601200021CF
:1002400000F00BFA17EB00094E41201EA4F1010447
:10025000DFDC484631462A464346BDE8F09F40EA87
:1002600001039B0703D009E008C9121F08C0042A34
:10027000FAD203E011F8013B00F8013B521EF9D21B
:100280007047D2B201E000F8012B491EFBD2704743
:100290000022F6E710B513460A4604461946FFF752
:1002A000F0FF204610BD70B5064604F0D1FD04688D
:1002B00005460A220021304600F04EFA2C6070BD3F
:1002C0002DE9FE4F804681EA0300C00F0C460090E6
:1002D00021F0004123F00045B8EB0200A94105D20E
:1002E0004046214690461C460B46024623F00040FD
:1002F000104347D0270DC7F30A00C3F30A510290F9
:10030000401A019040286BDAC3F3130040F4801BBD
:100310000098924620B10023D2EB030A63EB0B0B4B
:1003200001985946C0F14002504600F096F9064641
:100330000D4650465946019A00F0AEF910EB080000
:100340006141002487EA115284EAE7731A4340D0DE
:10035000009A62B3019A012A4FEA075215DC001B8A
:1003600061EB02014FF0004202EA0752CDE9004280
:10037000001C41F5801132462B4600F06BFA03B0A9
:10038000BDE8F08F40462146F9E7001B61EB020112
:10039000001C41F5801300185B412018A2F50017DE
:1003A00047EB030140EAD570B6196D4111E06D08C5
:1003B0004FEA360645EAC0754FEA0752001B61EB6B
:1003C0000201001C41F5801149084FEA3000001974
:1003D000514132462B4603B0BDE8F04F00F02BBA36
:1003E0000098012240000023D0EB020263EBE0738F
:1003F000009821464FEAE074B8EB000061EB04017D
:10040000E9E783F000435BE781F0004158E72DE91D
:10041000FE4F81EA030404F0004421F000410094FF
:100420004FF0000B23F0004350EA01045ED052EA83
:1004300003045BD0C3F30A54C1F30A552C44A4F25D
:10044000F3340194A0FB0254C1F3130141F4801171
:10045000C3F3130343F4801301FB024400FB034E78
:10046000840A970A44EA815447EA8357A4FB076841
:1004700002958D0A05FB07854FEA932C04FB0C546B
:100480002705029D4FEA065847EA1637B5EB0805DF
:100490006EEB070C870E920E47EA811742EA831231
:1004A000A7FB0201B6EB0B0164EB00042B0D43EA42
:1004B0000C335E1844EB1C50DA465146E7FB020150
:1004C000C5F313044FEA0B3343EA14534FEA0432E3
:1004D000019C43EA0603A4F10C040294009CCDE9BC
:1004E00000B400F0B7F903B0BDE8F08F002001467A
:1004F000F9E72DE9F04D81EA030404F0004B21F007
:10050000004514464FF0000A23F0004150EA05026E
:1005100020D054EA01021DD0C5F30A570246C5F3A4
:100520001303C1F31300C1F30A5640F4801543F4DA
:100530008013A7EB0608101BD64608F2FD3873EBB4
:10054000050002D308F1010801E092185B41B8F1FF
:10055000000F03DA00200146BDE8F08D00204FF4C3
:100560008011064684460EE0171B73EB050705D382
:10057000121B63EB050306434CEA010C49084FEAE2
:10058000300092185B4150EA0107EDD152EA0300B6
:1005900012D082EA040083EA0501084305D0101B4B
:1005A000AB4106D20122002306E000224FF00043B7
:1005B00002E06FF0010253101AEB06004CEB0851F9
:1005C00010EB0A0041EB0B01BDE8F04D00F033B930
:1005D00000F0004230F000400AD0C10D01F560711A
:1005E000C0F3160042EA0151C208400711437047A8
:1005F00000200146704701F0004330B421F0004173
:1006000050EA010206D00A0DA2F56072C1F313018F
:10061000002A02DC30BC00207047440F44EAC104C9
:10062000C100E01830BC00EBC25000F0CDB830B5CE
:100630000B46014600202022012409E021FA02F5A0
:100640009D4205D303FA02F5491B04FA02F528443A
:10065000151EA2F10102F1DC30BD202A04DB203A94
:1006600000FA02F1002070479140C2F1200320FA05
:1006700003F3194390407047202A04DB203A21FA03
:1006800002F00021704721FA02F3D040C2F12002AB
:100690009140084319467047202A06DBCB17203AC1
:1006A00041FA02F043EAE07306E041FA02F3D04077
:1006B000C2F1200291400843194670470FB400234D
:1006C00000B589B00CA900910B996FF00042CB6086
:1006D0001E4B06931E4B07930423CDE901321D4A9E
:1006E000089202466B46002000F0BAFA09B05DF8A5
:1006F00014FB70B586B006464FF0FF300091CDE98F
:100700000101002015460C4604903246694604A8B3
:10071000FFF7D4FF02460498211825B108B1084616
:1007200000E020462860049800280DD0002A02DD51
:100730000098884208D0081B0094CDE90104324695
:10074000694604A8FFF7BAFF06B070BD990E00080D
:10075000B70E0008250B00082DE9F04791460F461B
:1007600080460446002614F8015B2DB100F0D6F94E
:100770000068405DC007F6D12B2D02D02D2D18D07A
:10078000641E4A463946204600F0A6FB27B1396868
:10079000A14201D1C7F8008071054FF002040BD5CA
:1007A0004042002803DD04F053FB0460A007BDE8CD
:1007B000F08746F48066E4E70028F8DA04F048FBA6
:1007C00004606FF00040F2E70029A8BF7047401CAA
:1007D000490008BF20F00100704710B4B0FA80FC57
:1007E00000FA0CF050EA010404BF10BC704749B194
:1007F000CCF1200421FA04F411FA0CF118BF012104
:1008000021430843A3EB0C01CB1D4FEA00614FEAE3
:10081000102042BF002010BC704700EBC3501044B2
:100820000029A4BF10BC7047401C490008BF20F03D
:10083000010010BC704710B5141E73F1000408DAF3
:10084000401C41F1000192185B411A4301D120F094
:10085000010010BD2DE9F04D92469B4611B1B1FA51
:1008600081F202E0B0FA80F220329046FFF7F5FE06
:1008700004460F4640EA0A0041EA0B0153465A4635
:10088000084313D0114653EA010019D0C8F14002C1
:100890005046FFF7F1FE05460E4650465946424681
:1008A000FFF7DBFE084305D0012004E0204639466F
:1008B000BDE8F08D0020054346EAE0762C4337433F
:1008C0000A986305E40AA0EB08000022FD0A44EA46
:1008D00047540A3002D500200146E9E70105101906
:1008E0006941DDE9084500196941BDE8F04DA2E71D
:1008F00070B521F0004303430CD0C1F30A55002426
:10090000D5EB040564EB0403D617AD1AB34102DB43
:100910000020014670BD201841EB025170BD2DE949
:10092000F04D00231A461B1A8A4103DB00200146C2
:10093000BDE8F08DC1F30A52C1F3130141F48015F3
:100940004FF0000BD10702D100186D41521E002755
:10095000044640F2FF11384601EB620A3E468046EB
:10096000024600204FF48011FFF786FEC219714144
:10097000BB1846EB0100B4EB030C75EB000C04D381
:10098000E41A65EB000517460E46241908F101002C
:100990006D4180463428E3DDF91946EB0600091B5A
:1009A000A84103D24FF0FF32134601E00022134664
:1009B0001BEB070046EB0A51BDE8F04DFFF73BBFCC
:1009C0002DE9FE4FC3F30A5701F000450024C1F39F
:1009D0000A56C3F31303C1F3130143F4801312EB5C
:1009E000020AA64641F48011009543EB030CA7F1DF
:1009F000010B16E0B0EB0A0061EB0C01071E71F170
:100A0000000707DA4FF00008D0EB080085F000453A
:100A100068EB0101171A73EB0107EBD3761E001880
:100A200049415E45F6DA50EA010209D0CDE900E518
:100A3000002213460296FFF70DFF03B0BDE8F08FCA
:100A400020460099F9E70EB5C10F80EAE07008442E
:100A5000CA07002140F233438DE80E000A460B46D8
:100A6000FFF7F8FE03B000BDC1F30A52C1F3130152
:100A700040F2FF3341F480119A4202DA002001462D
:100A8000704740F233439A42A2F2334202DC5242B0
:100A9000FFF7F2BDFFF7E1BD30B5041E71F10004B0
:100AA00004DB4FF00044404264EB0101141E73F17B
:100AB000000405DB1C464FF00043524263EB040385
:100AC0008B4208BF824230BD30B5041E71F1000474
:100AD00004DB4FF00044404264EB0101141E73F14B
:100AE000000405DB1C464FF00043524263EB040355
:100AF000994208BF904230BD064C074D06E0E068C1
:100B000040F0010394E8070098471034AC42F6D354
:100B1000FFF75CFBF4A0000814A100080048704730
:100B2000A4A0000810B50446FFF7F8FF0068005DB8
:100B300000F0010010BD00002DE9FF4F087883B0E0
:100B40009946FF2805D0491C2D2804D000240020F8
:100B500008E000200BE00124F9E700EB800003EB44
:100B60004000491C0B78FF2BF7D104B14042002311
:100B70000293147819461D462D2C01D02B2C04D13C
:100B8000521C2D2C13D000240294AA461478FF2C5A
:100B90000FD00A25A3FB057801FB05814FF0000C5F
:100BA00003FB0C11521CE3194AEB0101EEE701248F
:100BB000EAE7814453EA010002D019F5C87F06DA5A
:100BC00003980021C0E9001107B0BDE8F08F0025AF
:100BD000AE4E2F46DFF8B882184600F0DAF9CDE9BC
:100BE0000001B9F1000002DAC9F1000400E0044696
:100BF0000023A74A1AEB030B42EB045A12E0E0076A
:100C000007D02A46334638464146FFF700FC0746E0
:100C100088462A46334610461946FFF7F8FB054634
:100C20000E466410002CEAD1DDE90001B9F1000F95
:100C30005A46534606DAFFF75CFC3A464346FFF74E
:100C400058FC05E0FFF7E3FB3A464346FFF7DFFBBE
:100C5000029A0AB181F00041039AC2E90001B3E7A8
:100C60002DE9FF4F1F468DB0D7E901464FF0FF3801
:100C70002E2045464FF000090B90B9696D1C0E9867
:100C80008847396A824688470028F6D1BAF1FF3F83
:100C90000AD024F4D064002E11DDBAF12B0F08D055
:100CA000BAF12D0F0BD102E0404611B08DE744F4AC
:100CB0008064B9696D1C0E9888478246761E694625
:100CC000600501D52D2000E02B208DF8000001F1FA
:100CD000010B0DF1200809E0B9696D1C0E988847D9
:100CE00082460F9844F40074761E0560002E02DDE3
:100CF000BAF1300FF0D00B998A453ED144F0800410
:100D000006E00F99681CA9F1010944F40074086019
:100D1000B9696D1C761E0E98884782463028F0D03F
:100D20002BE00B998A4505D1200603D444F08004BA
:100D3000761E18E0504605F0C7FC08B30DF113010C
:100D4000761E44F400748B4508D2AAF130000BF8EB
:100D5000010B200607D5A9F1010003E0200602D40B
:100D600009F101008146A00502D50F99681C0860B1
:100D7000B9696D1C0E9888478246002ED1DC53E07D
:100D8000002E51DDBAF1650F02D0BAF1450F4BD1FB
:100D9000A00549D5B9696D1C24F44074761E0E98DF
:100DA00088478246002E0CDD2B2804D0BAF12D0F87
:100DB00007D144F48074B9696D1C0E988847824647
:100DC000761EE00501D52D2100E02B2108F8011B3E
:100DD000CDF82C8021E00DF12901761E44F4007439
:100DE00088450CD2AAF1300010F0FF0088F800000E
:100DF00002D10B99884509D908F1010806E0E00500
:100E000001D5244801E042F20F708146B9696D1C9A
:100E10000E98884782460F980560002E04DD5046E4
:100E200005F052FC0028D6D1F9690E988847FF20BA
:100E30008BF8000088F800000020069007904B46D1
:100E40006A4608A906A8FFF777FEA00502D46FF04E
:100E500001002AE714F0240F0AD0E00714D1DDE9DD
:100E600006123868031D3B600068C0E900120BE001
:100E7000DDE90601FFF7BFFB0146E00704D1386852
:100E8000021D3A600068016028460EE70000144029
:100E90000000F03FF1D8FFFF426842B1016811F84D
:100EA000013B23B1521EC0E90012184670470121D0
:100EB000C160881E704742685AB1C368016843B96F
:100EC00083688B4205D0491E521CC0E900120020E5
:100ED00070474FF0FF3070472DE9F05F8246007891
:100EE000002715468B460AF10104B946302801D087
:100EF0009DB113E014F8010B0127782803D058287E
:100F000001D045B10AE00DB1102D07D10027102501
:100F100014F8010B02E0082500E00A250026B0467F
:100F20000EE005FB080005FB06F1012701EB10466A
:100F30001FFA80F8B6F5803F00D3B94614F8010BCC
:100F4000294600F018F80028EBDABBF1000F05D0B5
:100F50000FB1641E00E05446CBF80040B9F1000F19
:100F600006D003F075FF02210160C81EBDE8F09FA6
:100F700048EA0640FAE73A2800D2303820F020024A
:100F8000412A01D3A2F13700884201D34FF0FF304C
:100F900070470EB540F2334202920022CDE90022A2
:100FA0001346FFF757FC03B000BD0000464910B5DB
:100FB0004A6822F440324A604A6843681A434A60E9
:100FC00001684A6822F480724A6001684A680369CD
:100FD00042EA03224A6001684A6822F040724A608D
:100FE00001684A6883681A434A6001688A6822F483
:100FF00000628A6001688A68C3681A438A60816AED
:101000006FF07062D14201688A6822F070628A6073
:1010100001688A680CD0836A1A438A6001688A680A
:1010200022F040528A6001688A68C36A1A4301E06C
:1010300022F040528A6001688A6822F002028A60C7
:1010400001688A68037E42EA43028A6090F82010B1
:10105000002901684A680FD042F400624A600168C2
:101060004A6822F460424A6001684A68174C436A41
:1010700004EB43331A4301E022F400624A60016842
:10108000CA6A22F47002CA620168CA6A838B104C71
:1010900004EB03531A43CA6201688A6822F400729F
:1010A0008A6001688A6890F8303042EA43228A6098
:1010B00001688A6822F480628A6001688A684069EF
:1010C00042EA8020886010BD0023014000E0FFFF5D
:1010D0000000F0FFFEE700002DE9F04F93B08548D7
:1010E00000F0EFFE84484FF0010ACDF844A090EDE7
:1010F000032AD0ED041A90ED121AD0ED0D0A90EDEE
:101100000B0A7E4807F0D8FD7A4800F0C4FE00289C
:10111000FAD0784800688168490102D5CDF844A02A
:1011200009E08168090101D5022003E08068C00060
:1011300001D504201190714A11AB521C02F10B0130
:101140006C4800F049FD6E4841788946FF292ED051
:1011500000248378FF2B2CD000210C40C178FF297C
:1011600029D0002290F804C01440BCF1FF0F24D015
:10117000002245791440FF2D21D0002214408279AD
:10118000FF2A1ED000263440C679FF2E1BD0002730
:101190003C40077AFC2F18D04FF00008DFF864B10C
:1011A000DFF864E114EA080F12D002203EE00124C7
:1011B000CFE70121D1E70122D4E70122D9E70122BB
:1011C000DCE70126DFE70127E2E74FF00108E5E76A
:1011D000BCF1FF0F31D00024FF2D30D04FF00008BC
:1011E00014FB08F8B9F1FF0F2CD0002408EA04081A
:1011F000FF2B29D00024FF2928D00020044008EA32
:1012000004083F4CFF2A23D05FF0000008EA0008E2
:10121000FF2E1FD05FF0000008EA0008FD2F1BD052
:101220005FF0000018EA000F18D00020CBF8000093
:10123000CEF800A013B0BDE8F08F0124CCE74FF04A
:101240000108CDE70124D1E70124D4E70120D5E747
:101250000120DBE70120DFE70120E3E7BCF1FF0F1E
:1012600023D00020FF2D22D05FF0000510FB05F0F9
:10127000B9F1FF0F1DD000252840FF2B1BD0002304
:10128000FF291AD000210B401840FF2A17D0002157
:101290000840FF2E15D000210840FE2F13D000215A
:1012A000084212D003F06AFDC4E70120DAE7012505
:1012B000DCE70125E0E70123E2E70121E3E7012183
:1012C000E6E70121E8E70121EAE7DBF80000022870
:1012D000B0D10B49084D4022103168461095FEF7F9
:1012E000BEFF94E80F0007F0E5FF0020C5F8A80056
:1012F000A0E70000380D0020C80800209C0B00204B
:10130000C00B0020480000204C00002010EE100A06
:10131000084901EB600100EE901A0749A1EB60005B
:1013200001EE100A40EE010AB6EE000A20EE800A35
:101330007047000000F8BC1FDF59375F70477047E7
:1013400001490860704700000C3C024070B5064639
:10135000002529B1012927D0022928D04FF4407552
:1013600000F080F809281ED1124C206820F440704B
:101370002060206828432060206820F0F80020606A
:10138000206846F0020108432060206840F4803065
:10139000206000F067F8216821F0020121602168D7
:1013A00021F0F801216070BD4FF48075D8E74FF44B
:1013B0000075D5E7103C02400D4909200A68D203A8
:1013C00001D5012070470A68D20601D50620704772
:1013D0000A68D20501D5022070470A6812F0E00FB2
:1013E00001D00720704709688907FBD5082070479E
:1013F0000C3C02400248016841F000410160704726
:10140000103C024070B50D46064600F02BF8092846
:1014100013D10A4C206820F440702060206840F40A
:1014200000702060206840F001002060356000F00E
:1014300019F8216821F00101216070BD103C0240C3
:1014400005480068002805DA034804490C380160A3
:101450000349016070470000103C024023016745CA
:10146000AB89EFCD08B509208DF80000FFF7A4FF88
:101470008DF800009DF800000128F7D09DF80000CD
:1014800008BD0000DFED020A30EEC00A00F002B82D
:10149000DB0FC93FDFED100A02E000BF30EE200A8B
:1014A000B5EEC00AF1EE10FAF8D30C4910EE100AAE
:1014B000884202DB30EE600AF8E7DFED090A0949ED
:1014C00020EE200ABDEEC00A10EE100A01EB8000EB
:1014D00090ED000A70470000DB0FC940DB0FC940E8
:1014E00083F9A2421C970008014840687047000039
:1014F00080000020014890ED870A7047800000209E
:10150000014890EDCB0A704780000020014890ED23
:10151000890A704780000020034890ED890AD0EDC9
:101520008A0A30EE200A704780000020014890EDC2
:10153000CA0A704780000020014800687047000018
:101540008000002070B590F83C206A4D012A19D027
:10155000012280F83C200A6807230468092A13D96D
:10156000E6680A3A02EB420293409E43E6600A783C
:101570008B680A3A02EB420293400268D468234324
:10158000D36010E0022070BD266902EB4202934056
:101590009E4326610B788A6803EB43039A400368F5
:1015A0001C6922431A610268936B23F4401393630E
:1015B0000268936B0C8A504E06EB045423439363EA
:1015C0000A790B7CD21AD21C02EB82021F239340B1
:1015D0000268946B9C4394630A790B7CD21AD21CE8
:1015E00002EB82030A8892B29A4003689C6B224302
:1015F0009A638A69AA420268936823F4702393600D
:10160000026893680CD08C692343936002689368E6
:1016100023F44013936002689368CC69234301E08C
:1016200023F4401393604A7D002A0268536802D075
:1016300043F4806301E023F4806353600A7D002A51
:101640000268536802D043F4805301E023F48053CE
:1016500053604A68012A16D0022A1FD0032A026862
:1016600027D0136A6FF30B0313620268136ACC6806
:1016700023431362224B0468204A9C4227D10C6802
:10168000122C20D023E0026853696FF30B035361DF
:1016900002685369CC6823435361EBE7026893699E
:1016A0006FF30B03936102689369CC6823439361E2
:1016B000E0E7D3696FF30B03D3610268D369CC68A9
:1016C0002343D361D6E7546844F48004546004682B
:1016D0009C420AD10968A1F18053123B01D0112923
:1016E00003D1516841F400015160002180F83C10A1
:1016F000084670BD01000F000000F0FF002301400C
:101700000020014008B5002200920368521F1A60B1
:10171000012911D002290CD0032906D0042901D0B7
:10172000009808BD0068806C01E00068406C009083
:1017300008BD0068006CFAE70068C06BF7E70000BE
:1017400018B50021009190F83C20012A07D0012211
:1017500080F83C2002689368DB0702D011E0022089
:1017600018BD936843F001039360284A284B126820
:10177000B2FBF3F202EB420200E0521E0092002A9A
:10178000FBD102689368DB0735D0036C42F2010499
:10179000A34343F480530364036CDB0500D441642A
:1017A00080F83C106FF0040111601A494968006824
:1017B000C906816801F440110FD0D1B100224168FF
:1017C000154B41F38021491C98421CD1DAB1D1B1AB
:1017D000816841F48001816015E041B100214268D7
:1017E00042F38022521C71B1002AF1D10BE0012199
:1017F000F5E70122E3E7016C41F010010164416C5F
:1018000041F001014164002018BD00006C0000207F
:1018100040420F00002301400020014078B5002421
:10182000009490F83C20012A19D0012280F83C2035
:101830000A6807230568092A13D9EE680A3A02EBF9
:10184000420293409E43EE600B788A680A3B03EBAA
:1018500043039A400368DD682A43DA6010E00220FF
:1018600078BD2E6902EB420293409E432E610B78B5
:101870008A6803EB43039A4003681D692A431A618F
:101880004A681F23072A13D205686E6B521E02EBAB
:10189000820293409E436E630A8893B20A79521E75
:1018A00002EB820293400268556B2B43536327E09F
:1018B00005680D2A12D22E6BD21F02EB82029340D2
:1018C0009E432E630B790A88DB1F92B203EB8303DE
:1018D0009A4003681D6B2A431A6311E0EE6A0D3AC1
:1018E00002EB820293409E43EE620B790A880D3B25
:1018F00092B203EB83039A400368DD6A2A43DA62FB
:101900001B4B0568194A9D420AD10D68122D07D15B
:10191000556825F400055560556845F48005556007
:1019200005689D421DD1134D0B68AB4201D0112BB0
:1019300017D1536823F480035360536843F40003C2
:1019400053600968A9420CD10B490C4A0968B1FBE4
:10195000F2F101EB8101490000E0491E00910029EC
:10196000FBD180F83C40002078BD000000230140FE
:1019700000200140120000106C00002040420F00C7
:101980000068C06C704770B504004FF0000503D0CC
:10199000206C002610B107E0012070BD204600F049
:1019A0001DF8666484F83C60206CC00610D4206C7E
:1019B00020F4885040F0020020642046FFF7F6FA39
:1019C0006664206C20F0020040F00100206400E01A
:1019D000012584F83C60284670BD0000F0B587B052
:1019E000044614216846FEF753FC3649DFF8D0C0A0
:1019F000236800253348143901270324324A334E23
:101A0000634518D1036843F480730360006800F4F1
:101A100080700590086840F004000860086800F0D5
:101A200004000590086840F002000860086800F0B3
:101A3000020005901CE0DFF898C0634528D10368D8
:101A400043F400730360006800F4007005900868B8
:101A500040F004000860086800F004000590086881
:101A600040F0020008600868022700F002000590BC
:101A7000009769461046CDE9014500F0B5FC69467E
:101A800030460097CDE9014500F0AEFC07B0F0BD4F
:101A9000104A9342FAD1026842F480620260006800
:101AA00000F480600590086840F001000860086854
:101AB000009700F00100059069460748E2E7000042
:101AC0000020014044380240000802400004024067
:101AD00000210140002201400000024018B5002111
:101AE000009190F83C20012A07D0012280F83C2088
:101AF00002689368DB0702D011E0022018BD9368EA
:101B000043F0010393602E4A2E4B1268B2FBF3F2AE
:101B100002EB420200E0521E0092002AFBD1026852
:101B20009368DB0742D0036C40F20164A34343F4A3
:101B30008073036453685B0505D5036C23F400537D
:101B400043F480530364036CDB0404D5436C23F03B
:101B50000603436400E0416480F83C101A496FF0CA
:101B60002203136049680068CA06184906D08842F3
:101B700024D1816811F0405F13D01FE08842F8D073
:101B8000134A904203D1D1F80423D206F1D0114A6E
:101B9000904213D1D1F8041301F01F011029E8D3AA
:101BA0000CE0816841F08041816007E0016C41F008
:101BB00010010164416C41F001014164002018BD35
:101BC0006C00002040420F00002301400020014033
:101BD0000021014000220140F0B590F82050046837
:101BE000A468012D05D0022D03D0416A41F4802163
:101BF00053E014F0406F01D1E5004BD5C4F301640C
:101C0000022C03D9416A41F4000146E00125A540B8
:101C10001D608D684FF4C0739DB1CE6835434E682A
:101C200045EAC605066803EB0417F5514FF4C27583
:101C3000076805EB04150E697E51097D012905D061
:101C400009E00E88CD6845EA4655EBE701684E5934
:101C500046F480764E511179D2F805504FF4C6768D
:101C600041EA0525016806EB04168D511178D2F87A
:101C700001204FF4C47541EA0221026805EB041506
:101C80005151006803EB0411425842F001024250E6
:101C90000020F0BD416A41F4001141620120F0BD15
:101CA00010B590F82020012A07D0022A05D0416AF9
:101CB00041F480214162012010BD3B48D0F8002250
:101CC00042F00102C0F80022D0F8002222F47C5237
:101CD000C0F80022D0F800224B6A42EA0322C0F882
:101CE00000220A7D02F01F0301229A40D0F81C3224
:101CF0009343C0F81C32CB69B3B9D0F80C3293438C
:101D0000C0F80C328C894B6864F31F434C6900EBBC
:101D1000C404C4F840320C890B6864F31F434C6957
:101D200000EBC404C4F84432CB69012B16D1D0F8BF
:101D30000C321343C0F80C320C884B6864F31F4319
:101D40004C6900EBC404C4F840320C89CB6864F3DE
:101D50001F434C6900EBC404C4F844328B69002B68
:101D6000D0F804320ED01343C0F804320B69002BB4
:101D7000D0F8143208D01343C0F81432096A01298C
:101D800004D008E09343EFE79343F5E7D0F81C1243
:101D90001143C0F81C12D0F8001221F00101C0F864
:101DA0000012002010BD000000640040704730B5F4
:101DB00090F82040012C05D0022C03D0416A41F458
:101DC00080215DE00468002955D02469A40754D01F
:101DD0004FF4D874056804EB01142D5915F004056F
:101DE000956005682D594ED0ED08556005682C5951
:101DF00004F00204D4604FF4DA74056804EB0114B3
:101E00002D5905F00F05156105682D59C5F30725F6
:101E1000956105682C59240C54614FF4DC720468F8
:101E200002EB0112A4581C700468A458240A5C70C8
:101E30000468A458240C9C700468A258120EDA702E
:101E40004FF4DE72046802EB0112A4581C7104689E
:101E5000A458240A5C710468A458240C9C7104687A
:101E6000A258120EDA71006881B1016941F02001B7
:101E70000161002030BDE468A8E7416A41F4001127
:101E80004162012030BD6D0D1560AFE7C16841F0C2
:101E90002001C160EDE70246002092F820100129E0
:101EA00001D002290CD111688A68520100D50120A5
:101EB0008A68120100D5401C8968C90000D5401C01
:101EC00070472DE9F05F0546006800244669D0F8A8
:101ED00004908768D0F80CB0D0F810A0D0F8188023
:101EE000F10748D0F90714D001218160B80703D564
:101EF000284600F0E2F90CE0780702D54FF40064C0
:101F000007E0380702D54FF4805402E0284600F07D
:101F1000D3F9F80516D529684FF480708860B805A4
:101F200003D5284600F0CBF90CE0780502D544F43F
:101F3000005407E0380502D544F4804402E0284606
:101F400000F0BCF9F80316D529684FF4803088609A
:101F5000B80303D5284600F0B4F90CE0780302D5A5
:101F600044F4004407E0380302D544F4803402E02E
:101F7000284600F0A5F9300707D55FEACB6004D505
:101F80002968102044F40074C86070074FF00807F7
:101F900007D55FEA0B7004D52868C760284600F0B3
:101FA00059F9B00706D52868C068800702D02846CE
:101FB00000F051F9700607D55FEACA6004D52968B8
:101FC000102044F480640861B00607D55FEA0A7007
:101FD00004D528680761284600F03EF9F00606D5CA
:101FE00028680069800702D0284600F036F9B0035F
:101FF00008D55FEAC96005D52968102048602846E1
:1020000000F02CF9F00307D55FEA097004D52868C1
:102010004760284600F056F9300446D55FEA49701B
:1020200040D5F00504D55FEAC87001D044F0010442
:10203000B00504D55FEA887001D544F0020470054C
:1020400004D55FEA487001D544F00404300529D571
:1020500018F0700F26D008F07000402815D006DC6C
:10206000102809D020280AD0302816D10AE050289C
:102070000ED0602811D10EE044F008040DE044F0C9
:1020800010040AE044F0200407E044F0400404E0B7
:1020900044F0800401E044F480742868816921F0F0
:1020A00070018161296804204860002C05D0686AAD
:1020B000204368622846FFF779FEBDE8F09F70B5BF
:1020C000040003D094F8200010B104E0012070BD9A
:1020D000204600F081F82068016841F001010160AC
:1020E00000F076FA0546052604E000F071FA401B80
:1020F0000A2811D820684068C007F6D02068016817
:1021000021F00201016000F063FA05460BE000F0E7
:102110005FFA401B0A2806D9606A40F4003060620A
:1021200084F82060D2E7206840688007EFD4207EE2
:102130000128206801683DD021F080010160607EA7
:1021400001282068016838D021F040010160A07E9C
:1021500001282068016833D021F020010160E07E71
:102160000128206801682ED041F010010160207F15
:1021700001282068016829D021F008010160607FF2
:1021800001282068016824D021F004010160D4E90D
:1021900002010843D4E90412114308436168491E4F
:1021A00008432168C86100206062012084F8200093
:1021B000002070BD41F08001C0E741F04001C5E75B
:1021C00041F02001CAE721F01001CFE741F00801FA
:1021D000D4E741F00401D9E710B586B004461421D4
:1021E0006846FEF755F818492068884229D11748F3
:1021F0000021026842F000720260006800F0007086
:10220000059012481038026842F00202026000682D
:1022100000F0020005904FF4407000900220CDE9DC
:10222000010103200390092004906946084800F04A
:10223000DBF800220121142000F03AFA142000F00B
:1022400029FA06B010BD000000640040403802408A
:1022500000040240704770477047704770470000A5
:1022600070B5044690F82000012804D0606A40F45C
:102270000020606218E0022084F8200020680168D5
:1022800021F00101016000F0A3F905460EE000BF56
:1022900000F09EF9401B0A2808D9606A40F400301B
:1022A0006062052084F82000012070BD206840682D
:1022B000C007EDD1606270BD7047704770477047CE
:1022C0007047704770472DE9F0410446876D00F074
:1022D0007FF9064694F835000025022806D08020B4
:1022E000606584F834500120BDE8F0812068016801
:1022F00021F0160101602068416921F080014161EF
:10230000206C08B9A06C20B12068016821F0080198
:1023100001602068016821F0010101600CE000F01B
:1023200057F9801B052807D920206065032084F811
:10233000350084F83450D7E720680068C007EED134
:1023400094F85C103F208840B860012084F8350084
:1023500084F834500020C7E790F83510022903D0E4
:102360008021416501207047052180F83510006803
:10237000016821F0010101600020704770B504463A
:1023800000F026F90546601C02D004480078044499
:1023900000F01EF9401BA042FAD370BD600000207F
:1023A00000EB4001C1EBC0104FF6FF7101EAC00025
:1023B000AFF3008070B54FF6FA710A4D081A84B277
:1023C00028684462284600F027FF4FF6F971286814
:1023D00001E0426A94B28C42FBD3BDE870400148F0
:1023E00000F096BF480E00202DE9F84FDFF8ACA1B1
:1023F0000022012403254FF00F090AF1040BAAF172
:10240000040E00BF0B6804FA02F63340B3426ED1EB
:102410000F7907F00307012F01D0022F16D187682B
:102420004FEA420805FA08FC27EA0C07D1F80CC06D
:102430000CFA08FC4CEA070CC0F808C04768B74320
:102440000E79C6F3001696403E4346600E79F64379
:10245000B6070AD0C6684FEA420C05FA0CF7BE432D
:102460008F6807FA0CF73743C7600E7906F003064A
:10247000022E10D1D60800EB8608D8F82060570746
:102480004FEAD76C09FA0CF7BE430F6907FA0CF74D
:102490003743C8F8207006684FEA420C05FA0CF77B
:1024A000BE430F7907F0030707FA0CF737430760BD
:1024B0004E6816F4403F6BD0394E376847F480477A
:1024C0003760366822F0030706F480460096354EE2
:1024D00007EB060CDCF8086897074FEA177809FA4B
:1024E00008F7BE43304FB84202D100271FE04FE04B
:1024F0002E4FB84201D1012719E02D4FB84201D12A
:10250000022714E02B4FB84201D103270FE02A4FD6
:10251000B84201D104270AE0284FB84201D105276B
:1025200005E0274FB84201D1062700E0072707FA48
:1025300008F73743CCF80878DAF800605746D1F846
:1025400004C09E435FEACC2C00D51E433E60DBF8FE
:1025500000605F46D1F804C09E435FEA8C2C00D532
:102560001E433E60DEF800607746D1F804C09E430B
:102570005FEA8C3C00D51E433E60084F083F3E6832
:10258000D1F804C09E435FEACC3C00D51E433E60B8
:10259000521C102AFFF436AFBDE8F88F083C01400A
:1025A0004438024000300140000002400004024074
:1025B00000080240000C02400010024000140240DB
:1025C000001802400AB1816170470904FBE700006E
:1025D0000148806870470000600000200248816860
:1025E0000278114481607047600000200B4810B5EC
:1025F000016841F400710160016841F4806101608B
:10260000016841F480710160032000F071F800203E
:1026100000F006F800F024F8002010BD003C024055
:1026200070B50D4D04464FF47A712878B1FBF0F087
:102630000A490968B1FBF0F000F0F9FC48B9102C28
:1026400007D200222146501E00F032F800206C60B4
:1026500070BD012070BD0000600000206C000020F3
:102660000B4882B0016841F480410160006800F4C9
:10267000804000900648001F016841F080510160D1
:10268000006800F080500090052002B000F030B8E3
:1026900044380240002809DB00F01F02012191406C
:1026A0004009800000F1E020C0F8001170470000F0
:1026B000F0B40E4B1B680C46C3F30223C3F10705AD
:1026C000042D00D90425191D072901D2002300E09B
:1026D000DB1E012606FA05F1491E214099409E4065
:1026E000761E16403143F0BC02F0A1BB0CED00E0B9
:1026F000064900F0070208684FF6FF03184040EA59
:102700000220034A10430860704700000CED00E00F
:102710000000FA052DE9F8431748016841F080519F
:1027200001600068154F00F08050012600903E6463
:10273000FFF74EFF05464FF47A78114C05E000BFD5
:10274000FFF746FF401B40450DD86068C003F7D532
:102750007E64FFF73DFF0546464607E0FFF738FF7A
:10276000401BB04202D90320BDE8F88360688003B3
:10277000F4D50020F8E700004038024000000E4287
:10278000007000402DE9F0470E46050065D0DFF8E7
:102790001481D8F80000F7B200F00F00B04207D261
:1027A00088F80070D8F8000000F00F00B04254D153
:1027B00028683D4C810712D5400703D5206840F4B6
:1027C000E05020602878000703D5206840F460407E
:1027D00020602068A96820F0F00008432060287875
:1027E000C0072DD0304968680839012812D0022866
:1027F00013D0032811D00968890700292DDA216830
:1028000021F0030101432160FFF7E2FE814641F21E
:10281000883A0EE009688903EFE709688901ECE767
:10282000FFF7D6FEA0EB0901514502D90320BDE810
:10283000F0872068696800F00C00B0EB810FEFD1E1
:10284000D8F80010404601F00F01B14207D90770D7
:10285000006800F00F00B04201D00120E7E72878BF
:10286000400705D52068E96820F4E050084320605F
:102870002878000706D52068296920F4604040EADE
:10288000C100206000F038F82168084AC1F3031144
:10289000515CC8400649086006480068FFF7C0FE62
:1028A0000020C4E7003C0240083802401C9F00089A
:1028B0006C00002064000020044805490068096895
:1028C000044AC1F38221515CC84070476C0000206B
:1028D000083802402C9F0008044805490068096830
:1028E000044AC1F34231515CC84070476C0000207B
:1028F000083802402C9F0008224810B5006810F0EC
:102900000C02214815D04110042A11D01D4C241F5F
:10291000082A0FD00C2A0CD12268236802F03F024B
:102920005B0221D52068C0F38810A0FB010120E0E4
:10293000084610BD2268236802F03F025B0205D5FD
:102940002068C0F38810A0FB010104E02168C1F3F6
:102950008811A1FB00010023FDF750FC2168C1F3A1
:102960000141491C49000AE02168C1F38811A1FB1B
:1029700000010023FDF742FC2168C1F30271B0FBA6
:10298000F1F010BD083802400024F4002DE9F84FA2
:1029900004007DD0DFF878B32078ABF10407C007DE
:1029A000A7F1040550D0DBF800105846C1F38101AF
:1029B00001290FD00168C1F38101022902D13968D0
:1029C000490207D40068C0F38100032809D13868A0
:1029D000400206D52868800336D560680028D8D024
:1029E00032E06068B0F5803F10D0B0F5A02F2868C5
:1029F00010D020F480302860286820F480202860DF
:102A00006068A0B1FFF7E4FD06460CE0286840F4DA
:102A10008030F4E740F480202860F7E7FFF7D8FD26
:102A2000801B642876D828688003F7D50CE0FFF770
:102A3000CFFD064605E000BFFFF7CAFD801B6428F6
:102A4000F0D828688003F7D42078DFF8C892800790
:102A50004FF0000A44D5DBF80010584611F00C0F77
:102A60000FD00168C1F38101022902D139684902FE
:102A700007D50068C0F3810003280AD138684002F6
:102A800007D42868800715D5E068012800D111E037
:102A90003AE1E068B0B10120C9F80000FFF798FD05
:102AA000064604E0FFF794FD801B0228BAD8286888
:102AB0008007F7D52868216920F0F80040EAC100B6
:102AC00028600DE0C9F800A0FFF782FD064604E08B
:102AD000FFF77EFD801B02281CD828688007F7D4EA
:102AE0002078000727D5DFF828828B48616908F134
:102AF0006C0881B101210160FFF76AFD064604E020
:102B0000FFF766FD801B022804D8D8F80000800774
:102B1000F6D510E089E0C0F800A0FFF759FD0646A1
:102B200005E000BFFFF754FD801B02287DD8D8F8D0
:102B300000008007F6D42078400769D574484FF02C
:102B4000000838300068C0000BD471483830016884
:102B500041F08051016000684FF0010800F08050A2
:102B600000906E4E3068C00511D4306840F480701B
:102B70003060FFF72DFD009006E000BFFFF728FD55
:102B80000099401A022850D83068C005F6D5604E2A
:102B9000A068683601280FD00528306810D020F0D2
:102BA00001003060306820F004003060A068B8B1E7
:102BB000FFF70EFD00900FE0306840F00100F4E7F1
:102BC00040F004003060F7E7FFF702FD0099411A7A
:102BD00041F28830814264D830688007F4D50EE035
:102BE000FFF7F6FC009007E0FFF7F2FC0099411AAE
:102BF00041F28830814254D830688007F4D4B8F16B
:102C0000000F05D042483830016821F08051016042
:102C1000A069A8B3DBF80010C1F38101022947D0F5
:102C20000228C9F860A005D000E03AE0FFF7D0FC28
:102C3000044639E0FFF7CCFC064604E0FFF7C8FC89
:102C4000801B02282DD828688001F7D4F4E90701F9
:102C50000843E168324A490802EB0141A26841EAAF
:102C600082110843217C40EA0160217D40EA017025
:102C700038600120C9F86000FFF7AAFC044606E0AE
:102C800044E000BFFFF7A4FC001B022809D8286815
:102C90008001F7D53AE000BFFFF79AFC001B02283D
:102CA00002D90320BDE8F88F28688001F4D42DE014
:102CB0000128F7D03868E26900F48001914223D1FD
:102CC000226A00F03F0191421ED147F6C071626A4C
:102CD0000140B1EB821F17D1A26A4FF0FF3300F41D
:102CE000403103EB5202B1EB024F0DD194F82C208E
:102CF00000F07061B1EB026F06D194F8301000F073
:102D0000E040B0EB017F01D00120CBE70020C9E714
:102D10000838024000004742800E474200700040E1
:102D20000000FFFF70B5040009D0606A002540B1C3
:102D300025616561A56294F8510040B10CE0012065
:102D400070BD6068B0F5827FF4D0E561F2E784F889
:102D50005050204600F044F8022084F851002068CA
:102D6000016821F040010160A088218900F482708F
:102D700001F404410843A18901F400610843217C66
:102D800001F002010843217D01F001010843218B7C
:102D900001F400710843217F01F03801084394F8E1
:102DA000201001F080010843218D01F400510843F7
:102DB00021680860A069042101EA104094F82410F9
:102DC00001F010010843216848602068C16921F4BE
:102DD0000061C1616565012084F85100002070BD6B
:102DE00010B586B0044614216846FDF751FA14491F
:102DF0002068884221D113480021026842F4004231
:102E00000260006800F4004005900E481038026827
:102E100042F004020260006800F0040005904FF4E4
:102E2000E05000900220CDE901010320039006202C
:102E3000049069460448FFF7D7FA06B010BD0000B9
:102E4000003C004040380240000802402DE9F84FA5
:102E5000044690F8500000270A9E1D4692468B4675
:102E60004FF0010901280ED0012084F85000FFF72F
:102E7000AFFB804694F85100616801280CD0B1F591
:102E8000827F07D102E00220BDE8F88FA16809B96E
:102E9000042801D00227C2E0BBF1000F27D0BAF10D
:102EA000000F24D01DB394F85100042802D005204F
:102EB00084F8510000206065C4F838A0E587A58734
:102EC000C4F830B0E586A586206460642068016897
:102ED000490603D4016841F040010160E068B0F5A3
:102EE000006F606805D0E8B3012D46D07FE0012770
:102EF00095E008B1012D39D1206B21680088C860A8
:102F0000206B801C2063E08E401EE0862EE020684F
:102F1000816889070FD5E18E69B1B9F1010F0AD136
:102F2000216B0988C160206B801C2063E08E401EED
:102F3000E0864FF0000920688168C9070CD0E18F56
:102F400051B1C068A16B0880A06B801CA063E08FAA
:102F5000401EE0874FF00109FFF73AFBA0EB0800A5
:102F6000B04200E009E001D3701C50D1E08E00288F
:102F7000CDD1E08F0028CAD13FE0206B21680078D6
:102F80000873206B401C2063E08E401EE0862EE01C
:102F90002068816889070FD5E18E69B1B9F1010F09
:102FA0000AD1216B09780173206B401C2063E08EED
:102FB000401EE0864FF0000920688168C9070CD0E8
:102FC000E18F51B1C068A16B0870A06B401CA06379
:102FD000E08F401EE0874FF00109FFF7F9FAA0EB00
:102FE0000800B04202D3701C01D010E07EB1E08E28
:102FF0000028CDD1E08F0028CAD142463146204674
:1030000001F09EF828B101272020606507E0032722
:1030100005E0A06818B92068C168806800900120A8
:1030200084F85100002084F8500038462CE710B591
:10303000401EB0F1807F01D3012010BD4FF0E0248D
:1030400060610F21601701F0F2FE0020A0610720EF
:103050002061002010BD7047704710B590F83C20EB
:10306000012A22D0012280F83C20CA688C6822F410
:10307000407222434C6822F4806222430C6822F49E
:10308000006222430C6922F4805222434C6922F4EC
:1030900000522243C969002322F480420A43016896
:1030A0004A6480F83C30002010BD022010BD0000B2
:1030B00070B590F83C20012A32D0012480F83C40C1
:1030C000022280F83D2003685A689D6822F070064D
:1030D0000A6832435A60134B02689A4214D0B2F124
:1030E000804F11D0104B9A420ED0104B9A420BD009
:1030F0000F4B9A4208D00F4B9A4205D00E4B9A4282
:1031000002D00E4B9A4204D1496825F0800319433E
:10311000916080F83D40002180F83C10084670BD69
:10312000022070BD00000140000400400008004083
:10313000000C004000040140004001400018004025
:1031400010B5040003D094F83D0010B107E0012051
:1031500010BD002084F83C00204600F01FF802203B
:1031600084F83D00211D206801F020FB012084F837
:10317000460084F83E0084F83F0084F8400084F85C
:10318000410084F8420084F8430084F8440084F845
:10319000450084F83D00002010BD000008B501681E
:1031A0001A4881420FD11A48016841F001010160BB
:1031B0000068002200F00100009011461920FFF77E
:1031C00077FA19201EE01248001FB1F1804F0BD092
:1031D000104A914207D1016841F010010160006876
:1031E00000F01000009008BD016841F0010101608D
:1031F0000068012200F00100009011461C20FFF73A
:1032000057FA1C20BDE80840FFF744BA000001400F
:10321000443802400010004090F83D10012901D0D0
:1032200001207047022180F83D1000681149884252
:1032300014D0B0F1804F11D00F4988420ED00F4901
:1032400088420BD00E49884208D00E49884205D0EA
:103250000D49884202D00D49884204D1816801F0AD
:103260000701062903D0016841F001010160002037
:1032700070470000000001400004004000080040CA
:10328000000C0040000401400040014000180040D4
:1032900090F83D10012901D001207047022180F8EB
:1032A0003D100168CA6842F00102CA600068114915
:1032B000884214D0B0F1804F11D00F4988420ED00F
:1032C0000E4988420BD00E49884208D00D498842E9
:1032D00005D00D49884202D00C49884204D181684A
:1032E00001F00701062903D0016841F001010160E6
:1032F000002070470000014000040040000800402A
:10330000000C004000040140004001400018004053
:1033100001680A6A41F211131A4207D10A6A9B1026
:103320001A4203D10A6822F001020A60012180F8E2
:103330003D100020704770B5044690F83C00002511
:10334000012817D0012684F83C60022084F83D0053
:103350002068826822F0770222F47F428260086847
:10336000502838D00DDC20284FD005DC90B3102831
:1033700011D14AE0022070BD302846D040280AD141
:103380003BE060282FD070280DD0B0F5805F03D0CF
:10339000B0F5005F12D0012584F83D60002084F86C
:1033A0003C00284670BDCB68D1E90121206801F0BE
:1033B0006EFA2068816841F0770109E0CB68D1E9B5
:1033C0000121206801F063FA2068816841F480419E
:1033D0008160E1E719E0CA684968206801F02CFBC8
:1033E0005021206806E0CA684968206801F035FB72
:1033F0006021206801F055FACEE7CA684968206864
:1034000001F01AFB40212068F4E7226801461046CB
:10341000F0E7704770B50446006801694FF0000599
:10342000C943890715D4C168C943890711D4E91E66
:10343000016101202077206880698007204602D042
:10344000FFF7E7FF04E000F0C5F8204600F057F969
:10345000257720680169C943490717D4C168C94362
:10346000490713D46FF0040101610220207720681E
:10347000806910F4407F204602D0FFF7CAFF04E0C5
:1034800000F0A8F8204600F03AF925772068016995
:10349000C943090716D4C168C943090712D46FF09C
:1034A00008010161042020772068C0698007204658
:1034B00002D0FFF7AEFF04E000F08CF8204600F0E9
:1034C0001EF9257720680169C943C90617D4C16868
:1034D000C943C90613D46FF0100101610820207799
:1034E0002068C06910F4407F204602D0FFF791FFAA
:1034F00004E000F06FF8204600F001F9257720681D
:103500000169C943C90708D1C168C943C90704D1C2
:10351000891E0161204600F057F920680169C943FE
:10352000090609D4C168C943090605D46FF08001B2
:1035300001612046FFF78FFD20680169C9434906F4
:1035400009D4C168C943490605D46FF0400101613F
:10355000204600F03AF920680169C94389060BD476
:10356000C168C943890607D46FF020010161204674
:10357000BDE87040FFF770BD70BD000010B586B0AB
:10358000044614216846FCF783FE0F4920688842F0
:1035900017D10E480021026842F001020260006863
:1035A00000F0010005904FF4E06000900220CDE9AA
:1035B0000101032003900120049069460448FEF7AE
:1035C00013FF06B010BD000000000140303802407B
:1035D00000000240704770B5044690F83C00002699
:1035E0000D4601280FD0012084F83C006AB1042A5E
:1035F0001DD0082A2FD00C2A3FD00126002084F8A5
:103600003C00304670BD022070BD206801F052F9C8
:103610002068816941F0080181612068816921F099
:1036200004018161206881692A69114311E02068E1
:1036300001F070F92068816941F4006181612068BE
:10364000816921F480618161206881692A6941EA88
:1036500002218161D2E7206801F092F92068C169F6
:1036600041F00801C1612068C16921F00401C16114
:103670002068C1692A69114311E0206801F0B4F99A
:103680002068C16941F40061C1612068C16921F409
:103690008061C1612068C1692A6941EA0221C16172
:1036A000ACE710B5040003D094F83D0010B107E07A
:1036B000012010BD002084F83C00204600F01EF8D8
:1036C000022084F83D00211D206801F06FF80120E0
:1036D00084F8460084F83E0084F83F0084F84000F7
:1036E00084F8410084F8420084F8430084F84400E0
:1036F00084F8450084F83D00002010BD70477047F5
:1037000010B50446022249B104290ED0082913D06D
:1037100094F84100012816D0012010BD94F83E0015
:103720000128F9D184F83E200FE094F83F000128E9
:10373000F2D184F83F2008E094F840000128EBD152
:1037400084F8402001E084F841200122206801F043
:1037500091F816492068164A884201D0904203D158
:10376000436C43F4004343642068884213D0B0F1B3
:10377000804F10D00F4988420DD00F4988420AD09F
:103780000E49884207D0904205D00D49884202D0A8
:103790000C49884204D1816801F00701062903D051
:1037A000016841F001010160002010BD00000140EE
:1037B000000401400004004000080040000C0040EC
:1037C0000040014000180040704770477047704744
:1037D000F8B5016804460868CA684B6910F00F0F15
:1037E0004FF0000559D003F0010602F490773743FB
:1037F00065D0C10705D0D10503D5216C41F0010189
:103800002164410705D5D90703D0216C41F002019D
:103810002164810705D5D90703D0216C41F004014B
:103820002164010707D502F02001314303D0216C48
:1038300041F008012164216C00293AD0800604D5AA
:10384000900602D5204601F049F920684069216CB4
:10385000C0F38010090700D460B3204601F017F9C7
:1038600020684069400621D52068143050E8001FC8
:1038700021F0400140E80012002AF5D1A06BA8B168
:103880006C490165A06BFEF767FD002811D0A06BA5
:10389000016D01B0BDE8F040084783060FD59306DF
:1038A0000DD52046BDE8F84001F018B92046FFF7D5
:1038B0008EFFF8BD2046FFF78AFF2564F8BD266B12
:1038C0002023012E79D1C60677D5D60675D508688E
:1038D000486800904869400640D5A16B0868406878
:1038E0000004000CEAD0A28D8242E7D9E085C869C5
:1038F000B0F5807F2DD020680C3050E8001F21F4F7
:10390000807140E80012002AF5D12068143050E898
:10391000001F21F0010140E80012002AF5D12068C3
:10392000143050E8001F21F0400140E80012002A46
:10393000F5D184F83E30256320680C3050E8001F34
:1039400021F0100140E80012002AF5D1A06BFEF72B
:10395000BAFCA08DE18D401A81B229E0A08DE18DE5
:10396000401A81B2E08D0028A8D00029A6D0206896
:103970000C3050E8002F22F4907240E80026002E10
:10398000F5D12068143050E8002F22F0010240E801
:103990000026002EF5D184F83E30256320680C30D7
:1039A00050E8002F22F0100240E80023002BF5D150
:1039B0002046FFF70BFFF8BDFFE705062BD51506E0
:1039C00029D594F83D002128F5D1A068B0F5805F95
:1039D00001D12069B0B1206A411C216221680078C0
:1039E0004860E08C401E0004000CE084E3D12068B5
:1039F000C16821F08001C1602068C16841F04001C8
:103A0000C160D8E7206A0088C0F308004860206AD7
:103A1000801C2062E5E74006CDD55006CBD5CA68AC
:103A2000204622F04002CA6084F83D3000F0EFF8F2
:103A3000C1E700007F4A000870B5040004D094F884
:103A40003D00002510B106E0012070BD84F83C5017
:103A5000204600F023F8242084F83D002068C16847
:103A600021F40051C160204601F098F820680169F6
:103A700021F4904101612068416921F02A014161EE
:103A80002068C16841F40051C1602564202084F899
:103A90003D0084F83E00002070BD000010B586B0E7
:103AA000044614216846FCF7F3FB17492068884256
:103AB00028D116480021026842F4003202600068F2
:103AC00000F40030059011481038026842F00102FD
:103AD0000260006800F0010005900C2000900220B8
:103AE000CDE90101032003900720049069460848AE
:103AF000FEF77AFC002202212620FEF7D9FD2620BF
:103B0000FEF7C8FD06B010BD00440040403802403A
:103B10000000024090F83E30202B0ED159B152B136
:103B200090F83C30012B08D0012380F83C30002372
:103B3000036301F0B9B8012070470220704700000C
:103B400010B5012203490448FFF7E4FFBDE8104027
:103B500005F010BC59000020900E00202DE9F8431C
:103B6000044690F83D001F4616460D4620284CD1CD
:103B7000C5B1BEB194F83C00012846D0012084F8BC
:103B80003C004FF00008C4F84080212084F83D003C
:103B9000FEF71EFDA6848146E684A068B0F5805F2E
:103BA00003D004E00120BDE8F883206928B12E4647
:103BB0005FF0000584F83C800EE00026FAE78021E3
:103BC000204601F08EF8A0B9AEB116F8010B2168BD
:103BD0004860E08C401EE084E08C4B464FF00002D1
:103BE00000970028EBD14FF04001204601F079F812
:103BF00030B10320D7E735F8020BC0F30800E6E741
:103C0000202084F83D000020CDE70220CBE770475C
:103C1000FEE7000070B58CB00024089409940A9463
:103C2000202168460B94FCF733FB1F481D494FF4D5
:103C300080360160C0E901640461047680F82040A8
:103C40001A49C0E90A140125C561C46080F83040F2
:103C50004561FDF798FE08B1FDF771FB0820CDE93D
:103C6000080508A90A941048FDF7D8FD08B1FDF72A
:103C700066FB0A20CDE900054FF480100294CDE9DF
:103C800006608DF8154004958DF814406946064885
:103C90000394FDF757FC002801D0FDF750FB0CB052
:103CA00070BD000000200140600C00200100000FEA
:103CB00070B58CB00024089409940A9420216846B9
:103CC0000B94FCF7E5FA1F481D494FF4803601605C
:103CD000C0E901640461047680F820401A49C0E913
:103CE0000A140125C561C46080F830404561FDF7C4
:103CF0004AFE08B1FDF723FB0920CDE9080508A914
:103D00000A941048FDF78AFD08B1FDF718FB0B2057
:103D1000CDE900054FF480100294CDE906608DF8DE
:103D2000154004958DF81440694606480394FDF744
:103D300009FC002801D0FDF702FB0CB070BD0000AB
:103D400000210140A80C00200100000F7FB50024D5
:103D500015480094019402941249039401604FF4B1
:103D60008031C0E901140461047680F820400F49D5
:103D7000C0E90A140125C561C46080F8304045617E
:103D8000FDF701FE08B1FDF7DAFACDE90045694615
:103D900005480294FDF742FD002801D0FDF7CFFA57
:103DA0007FBD000000220140F00C00200100000F48
:103DB000104810B50E4901600521416000214FF403
:103DC000A0228160C0E903124FF4801242610176A3
:103DD000417681760122C27601774177FEF76FF94D
:103DE000002803D0BDE81040FDF7A9BA10BD0000BF
:103DF00000640040380D00202DE9F04387B0142105
:103E00006846FCF745FA2A480024016841F0800121
:103E10000160016801F080010591016841F0040131
:103E20000160016801F004010591016841F00101A0
:103E30000160016801F001010591016841F0020192
:103E400001600068DFF86C8000F00200059000223D
:103E500020214046FEF7B6FBDFF85C904FF40847A0
:103E6000002239464846FEF7ADFBE020009001A94C
:103E70000220032581E83100052004906946484668
:103E8000FEF7B2FA20200126CDE900066946404639
:103E9000CDE90245FEF7A8FACDE900766946484625
:103EA000CDE90245FEF7A0FA07B0BDE8F0830000B7
:103EB000303802400008024000000240104810B5AF
:103EC0000E4901604FF48271416000214FF400629D
:103ED000C0E902120122C0E904125202C0E906211F
:103EE0000162416281620A21C162FEF71BFF002864
:103EF00003D0BDE81040FDF722BA10BD003C0040E1
:103F0000600D002030B595B000240F9410941194EA
:103F1000129413941C2168461494FCF7B9F92021DB
:103F200007A8FCF7B5F938483649202580E8320063
:103F300040F6CA01C0E90314012141618021816179
:103F4000FFF7FEF808B1FDF7FAF94FF480500F9033
:103F50000FA92D48FFF7EFF908B1FDF7F0F92A484E
:103F6000FFF79FFB08B1FDF7EAF9CDE9135413A958
:103F70002548FFF79DF808B1FDF7E1F96020CDE98C
:103F800000040220CDE902040420CDE9040400224B
:103F900069461D480694FFF71EFB08B1FDF7CFF9EF
:103FA000042269461848FFF716FB08B1FDF7C7F968
:103FB000082269461448FFF70EFB08B1FDF7BFF968
:103FC00040F6C80001900C22694604940E48FFF7A1
:103FD00002FB08B1FDF7B3F90794089409944FF474
:103FE00000500A94CDE90B4007A907480E94FFF74B
:103FF00034F808B1FDF7A3F90348FFF7BFFA15B08D
:1040000030BD000000000140B80D002010B586B0A2
:1040100000241648009401940294039404944FF0F1
:104020008041059401605921C0E9011440F2E73153
:10403000C0E903148461FFF783F808B1FDF77FF945
:104040004FF48050009069460848FFF774F908B1B2
:10405000FDF775F9049404A904480594FFF728F8BE
:10406000002801D0FDF76BF906B010BD000E00204E
:104070001CB500240E4800940C490194016059219C
:10408000C0E901144FF6FF718461C160FFF758F871
:1040900008B1FDF754F90094694605480194FFF70B
:1040A00007F8002801D0FDF74AF91CBD00100040B8
:1040B000480E00200C4810B50A4901604FF46121F8
:1040C0004160002181600C22C160C0E9041281615D
:1040D000C161FFF7B1FC002803D0BDE81040FDF737
:1040E0002EB910BD00440040900E0020FEE770473E
:1040F0007047000070B500252DED028BB0EE408AB0
:104100001161506082ED888A144695600122D103C6
:104110000948FEF757FA4FF6FF7060619FED070AF6
:1041200084ED8A8A84ED8B0A84ED8C0A84ED8D0AF5
:104130002560BDEC028B70BD000002400000000055
:1041400038B504461248134B0068B0FBF3F04FF447
:104150007A73584300906068B0F5827F0DD10B46AA
:10416000009200228021204600F016F870B1606DA8
:1041700040F020006065032038BD009830B1401E3B
:10418000009020688068C0430006F6D5002038BD46
:104190006C00002000366E012DE9F8431E46914662
:1041A00088460446089DFEF713FA401B351AFEF7B1
:1041B0000FFA074625480068C0F3CB30684338E063
:1041C000701C37D0FEF704FAC01BA84203D215B109
:1041D000009860B32CE02068416821F0E001416064
:1041E0006068B0F5827F0BD1A068B0F5004F02D0B7
:1041F000B0F5806F04D12068016821F040010160B2
:10420000A06AB0F5005F09D12068016821F400516F
:1042100001602068016841F400510160012084F8C8
:104220005100002084F850000320BDE8F8830025E9
:10423000401E00902068816838EA010004D0002107
:104240004945BDD10020F0E70121F9E76C000020CD
:1042500070470000F0B52DED028B83B00446808AD4
:10426000774FADF804004FF40046B0EE408A0022CC
:1042700031463846FEF7A6F90220009001230DF1E1
:10428000060201A96F48FEF7E1FD0546012231460D
:104290003846FEF797F9BDF80600C0F30D00206020
:1042A0001DB1294668A000F081FD2068C11104EB12
:1042B00081018A69012101EBE011CB1701EB536306
:1042C00023F07F03C91A04EB810120F07F03896981
:1042D000C31A891A4B4302EBE3110144E268606898
:1042E0008A1A00EBD073B2EB630F02DDA268521E94
:1042F00007E0434203EBD373B2EB630F02DAA26829
:10430000521CA26000EE901AE16094ED8B0AF8EE68
:10431000E00A84ED8C0A9FED521A20EE812A00EE0D
:10432000900AF8EEE00AC2EE201AC4ED8B1AA268D9
:10433000424300EE902AB8EEE02A00EE901AF8EE22
:10434000E00A72EE200A20EE812A00EE900AF8EED2
:10435000E02AC2EE220AC4ED860A94ED8A2A70EEA3
:10436000C20AC4ED890A00EE900A2269F8EEE00A5A
:104370004A4392FBF0F181EE202A00FB112000EE6F
:10438000900AF8EEE02AD4ED880A42EE220AF5EE11
:10439000C00AF1EE10FA02D270EE810A06E010EEC9
:1043A000900A3049884201DD70EEC10A71EEC01AF0
:1043B000C4ED870A11EE900A10F17F5F02D931EE49
:1043C000810A06E011EE900A2749884204DD31EEA9
:1043D000C10AC0EE080A01E0C1EE880A3C210120B2
:1043E000B0EE600A0A1A04EB8202401C92ED8D1AAC
:1043F000884282ED8E1A31EE000AF3DBC4ED8E0A9C
:1044000000EE901AB8EEE01AC0EE010A9FED171AFE
:10441000C4EDCA0A94ED040AB8EEC00A20EE800A80
:1044200084EDCB0AD4EDCC0A60EE810A9FED101A20
:1044300040EE010AC4EDCC0A03B0BDEC028BF0BD26
:1044400000000240600D0020656E636F646572209D
:10445000726564206572726F72202564200A0D00F7
:10446000DB0FC940DB0FC94000004040A4707D3F16
:104470000AD7233C014880ED880A7047800000205D
:10448000014880ED8A0A704780000020FEF7A6B838
:1044900030B593B034216846FBF7FAFE14210DA81D
:1044A000FBF7F6FE1A480025016841F080510160D3
:1044B000006800F0805012901648016841F44041B5
:1044C00001600068022400F4404012900120009036
:1044D000000401908001CDE9064004200890B4203A
:1044E000CDE909040B9468460C94FEF74FFAFEF7E9
:1044F00011F90DA90F2081E831004FF4A050109060
:10450000E002119005210DA8FEF73CF913B030BD73
:1045100040380240007000400548016841F47001D5
:10452000016003494FF00060803908607047000067
:1045300088ED00E010B5134802F0ACFC12489FED86
:10454000130AFFF787FEFCF7D5FF0E4C84ED0C0A2B
:104550003034FCF7DBFF04ED010AFCF7E7FF84EDE4
:10456000010AFCF7CDFF84ED020A04F05BFD03F0C5
:10457000B1F9606F401C6067BDE810400448FEF769
:1045800049BF0000C80800208000002017B7D137BD
:10459000B80D002010B56D492DED108B82B0488804
:1045A000401C48806A48FDF799FA6A48FDF796FA78
:1045B0006948FDF793FA6848FDF7E2F9674C00EEA9
:1045C000100AA060D4ED080ADFED658AB8EEC00AD3
:1045D00060EEA80A9FED631A20EE010A9FED621AB1
:1045E0005C4840EE010AC4ED080AFDF7C9F900EE87
:1045F000100AB8EE400A9FED5D9A20EE090ADFED41
:104600005C9A534820EE298AFDF7BAF939EE481A28
:1046100000EE100AC8EE010AB8EE400A20EE090AC0
:1046200020EE290A9FED538A20EE881A79EE400A7F
:1046300060EE881AC1EE800A81EE080ACDED000A0C
:1046400010EE100AFBF7C4FF41EC100B00F0B4FCB5
:104650009FED49AB51EC100B53EC1A2BFBF749FFC4
:104660009FED47BB53EC1B2BFBF72AFE41EC100BD5
:1046700053EC102B9FED44CB51EC1C0BFBF739FF97
:104680009FED43DB53EC1D2BFBF7BBFE9FED42EB95
:1046900053EC1E2BFBF714FE9FED41FB53EC1F2B3D
:1046A000FBF7B5FE94ED030A41EC190B20EE280A46
:1046B00010EE100AFBF78CFF53EC192BFBF700FEF2
:1046C000FBF799FFE060DDED000A80EE880A10EE4E
:1046D000100AFBF77DFF41EC100B00F06DFC53EC72
:1046E0001A2B51EC100BFBF704FF53EC1B2BFBF7C1
:1046F000E7FD41EC100B51EC1C0B53EC102BFBF7BE
:10470000F8FE53EC1D2BFBF77CFE53EC1E2BFBF746
:10471000D7FD53EC1F2BFBF77AFE94ED040A41EC16
:10472000190B20EE280A10EE100AFBF751FF53EC8C
:10473000192BFBF7C5FDFBF75EFF206102B01A489D
:10474000BDEC108BBDE81040FEF764BE5A0000209F
:10475000600C0020A80C0020F00C0020C8080020ED
:104760003333733FCDCC4C3D0C514F3C333353402E
:104770000000803900401C46000000000058AB409B
:10478000000000E0E1796B3F000000000000F03F16
:104790000000006066127140000000000000E03F71
:1047A000000000A09999A93F000E0020F0B5026812
:1047B000254C264D264E274F274B4FF0804CA042CC
:1047C00009D0604507D0A84205D0B04203D0B84216
:1047D00001D0984204D122F0700E4A6842EA0E02DB
:1047E000A0421BD0604519D0A84217D0B04215D0C6
:1047F000B84213D0984211D0184DA8420ED0184D8F
:10480000A8420BD0174DA84208D0174DA84205D09A
:10481000164DA84202D0164DA84203D122F440758D
:10482000CA682A434D6922F080022A4302608A68DE
:10483000C2620A688262A04201D0984201D109692D
:10484000016301214161F0BD00000140000400400E
:1048500000080040000C00400004014000400140FE
:10486000004401400048014000180040001C004086
:104870000020004010B501F01F030121046A994097
:104880008C430462016A9A401143016210BD10B565
:10489000846842EA032224F47F440A43224382606C
:1048A00010BD826822F070020A4342F00701816065
:1048B00070470000F0B5026A22F001020262036A4A
:1048C00042688469124E24F073050C682C4323F06F
:1048D00002058B682B430D4DA84201D0B04205D193
:1048E00023F00807CB683B4323F00403A84201D020
:1048F000B04205D14D6922F4407215438A692A43BA
:1049000042608461496841630362F0BD0000014078
:1049100000040140F0B5026A22F010020262026A4D
:10492000436884690D6824F4E64444EA05248D68EC
:1049300022F0200242EA05120F4D104EA84201D08B
:10494000B04206D1CF6822F0800242EA071222F07C
:104950004002A84201D0B04207D14D6923F4406320
:1049600043EA85038D6943EA8503436084614968AE
:1049700081630262F0BD00000000014000040140BC
:10498000F0B5026A22F480720262026A4368C46966
:1049900022F4007224F073050C68124E2C438D68CB
:1049A00042EA05220E4DA84201D0B04206D1CF689E
:1049B00022F4006242EA072222F48062A84201D077
:1049C000B04207D14D6923F4405343EA05138D6982
:1049D00043EA05134360C4614968C1630262F0BDE4
:1049E000000001400004014030B5026A22F4805208
:1049F0000262046A4268C3690D6823F4E64343EA2D
:104A000005238D6824F4005444EA0534084DA84277
:104A100002D0084DA84204D14D6922F4804242EAF6
:104A200085124260C36149680164046230BD0000C0
:104A3000000001400004014010B5036A046A24F03C
:104A400001040462846924F0F00444EA021423F0AF
:104A50000A020A438461026210BD10B5036A23F0A2
:104A6000100303628369046A23F4704343EA023249
:104A700024F0A00343EA01118261016210BD10B568
:104A8000806B0021C185C184FEF7A1FE10BD0168C5
:104A90000C3151E8002F22F4907241E80023002BE2
:104AA000F5D10168143151E8002F22F0010241E8EC
:104AB0000023002BF5D1016B012909D101680C31CC
:104AC00051E8002F22F0100241E80023002BF5D11D
:104AD000202180F83E1000210163704708B590F84E
:104AE0003E10222901D0022008BD82684FF4805375
:104AF0009A4201D1016921B1816A9A421BD04AB11F
:104B00000AE00268816A5268C2F308020A80816A78
:104B1000891C08E0026972B10268526802F07F02E3
:104B20000A70816A491C8162C18D491E0904090C01
:104B3000C18503D019E002685268F1E70168CA68CC
:104B400022F02002CA600168CA6822F48072CA603A
:104B500001684A6922F001024A61202180F83E1072
:104B6000016B012903D0FEF7EBFF002008BD0021F7
:104B7000016301680C3151E8002F22F0100241E876
:104B80000023002BF5D101680A68D20602D50A6815
:104B900049680091818DFEF719FEE6E770B504467D
:104BA00000680169E26821F4405111430161216903
:104BB000A068E26908436169114308432168CA6833
:104BC00049F20C639A430243CA6020684169A269B2
:104BD00021F440711143416131492068884202D07B
:104BE0003049884202D1FDF777FE01E0FDF764FE0F
:104BF000E2690023192164253226B2F5004F62686C
:104C000028D0A0FB0101930F9200FBF7F7FA0146B1
:104C1000B0FBF5F06FF01802504301EB800006EB9B
:104C20000010B0FBF5F000F0F002B1FBF5F002EB84
:104C30000012B1FBF5F06FF01803584301EB800050
:104C400006EB0010B0FBF5F000F00F0021681044F7
:104C5000886070BDA0FB010192185B41FBF7CEFAA2
:104C60000146B0FBF5F00201B1FBF5F06FF018035F
:104C7000584301EB800006EBC000B0FBF5F000F0FC
:104C8000F80002EB4002B1FBF5F0584301EB800065
:104C900006EBC000B0FBF5F000F00700D6E700001F
:104CA000001001400014014081628285C28500210C
:104CB0000164222280F83E2080F83C10016921B175
:104CC0000168CA6842F48072CA6001684A6942F0A9
:104CD00001024A610068C16841F02001C160002002
:104CE00070472DE9F041984617460E460446069D4A
:104CF00027E0681C25D02DB1FDF76AFCA0EB080069
:104D0000A8421ED920680C3050E8001F21F4D07151
:104D100040E80012002AF5D12068143050E8001F46
:104D200021F0010140E80012002AF5D1202084F88A
:104D30003D0084F83E00002084F83C000320BDE8DC
:104D4000F0812068006836EA000004D00020B842F4
:104D5000CFD00020F3E70120F9E700000148FEF77B
:104D600037BD0000900E0020FEE70000014602481B
:104D70004FF40072FBF773BA9800002010B5084C8E
:104D800000209FED080AA06084ED8A0A20469FED6E
:104D9000060AFFF75FFA94ED890A84ED8A0A10BDCE
:104DA00080000020000000006F1283390FB4054B13
:104DB00010B503A9044A029801F08EFC10BC5DF8FE
:104DC00014FB0000198300087000002003B4019850
:104DD0004100009850EAC12018BF04204A0D18BFB6
:104DE00040F0010040F2FF72B2EB515F08BF40F0AB
:104DF0000200012808BF052002B0704741000802E8
:104E000018BF04200A0E18BF40F001004FF07F4287
:104E100032EA010108BF40F00200012808BF052066
:104E2000704720F00040C0F1FF40C00F70470907F5
:104E3000090E002804DB00F1E02080F80014704720
:104E400000F00F0000F1E02080F8141D7047000012
:104E5000004870477C00002030B583B0044601F064
:104E600055FB9FED090B05468DED000B00222146F9
:104E70006846FBF73EFC284601F05EFB9DED000B0B
:104E800003B030BD00000000000000000000000082
:104E9000B4EEE00AF1EE10FA01DCB0EE600A704701
:104EA000B4EEE00AF1EE10FA01D3B0EE600A7047FA
:104EB00010B52DED040B86B09DED060B10EE100A1B
:104EC00010EE901A8DED000B002818BF012008434A
:104ED00020F00040C0F17F6000F1E040C00F21D120
:104EE0009DED080B10EE101A10EE900A8DED000BE0
:104EF000002918BF0121084320F00040C0F17F6065
:104F000000F1E040C00F0DD129490798B1EB400FE7
:104F100004BF0698002842D00998400004BF0898B2
:104F200000283CD09DED080B53EC102B9DED060B9B
:104F300051EC100BFBF744FDCDE902019DED020B96
:104F400040F2FF7110EE900A8DED000B31EA105027
:104F500021D00798039900F0004001F000418842F9
:104F600019D09DED080B8DED040B9DED020B8DED21
:104F7000000B10EE900A059961F31E0005909DED5F
:104F8000041B9DED020B51EC110B53EC102BFBF7A6
:104F90003BFACDE902019DED020B0AB010BD0120E4
:104FA00001F0CAFA0AB0BDE8104001F0C1B9000032
:104FB0000000E0FF0000000070B5D94B00242DED8B
:104FC000020B2DED108BDDE91010984205DA20F070
:104FD00000429A4201D809D141B19DED100BBDECC0
:104FE000108B02B0BDE8704001F08EB9B0F5801FA3
:104FF00026DA11430BD0002813DA012001F09CFAC5
:10500000BDEC108B02B0BDE8704001F091B90220F8
:1050100001F092FA01F060F951EC100B81F00041BF
:105020009EE06FF035049FEDC00B53EC102B9DED0F
:10503000100B51EC100BFBF7EAF9CDE91001084613
:1050400004EB2051C0F31304B948A1F2FF3120440E
:1050500000F4801080F07F6282F04052224301EB26
:1050600020559FEDB50B119253EC102B9DED100BBD
:1050700051EC100BFBF7C5F941EC180BA01CC0F369
:1050800013009FEDAFDB9FEDB0EBB14E7E440328E4
:105090006CD296ED000B51EC180B53EC102BFBF778
:1050A000FBFC1DD1002D01BF96ED000BBDEC108B5C
:1050B00002B070BD2846FBF7C6FC41EC180B53EC60
:1050C0001D2BFBF7A4F941EC190B53EC1E2B51ECF3
:1050D000180BFBF79CF953EC192BFBF7F1F83FE0A9
:1050E0009FED9D0B51EC180B53EC102BFBF78FF938
:1050F0009FED9B1B53EC112BFBF786F941EC190B31
:1051000053EC182B51EC180BFBF781F953EC192BCE
:10511000FBF77DF941EC190B002D04BF53EC192B63
:1051200051EC180B1AD02846FBF78DFC41EC1A0BFA
:1051300053EC1D2BFBF76BF953EC192BFBF764F9C0
:1051400053EC182BFBF75DF941EC180B53EC1E2BBD
:1051500051EC1A0BFBF75BF953EC182BFBF751F9E9
:10516000BDEC108B02B041EC100B70BD9FED7E0BBF
:1051700051EC180B53EC102BFBF7A2F841EC100B81
:1051800051EC180B53EC102BFBF7B3F941EC190B56
:105190002846FBF758FC41EC1B0B53EC192B51EC48
:1051A000190BFBF734F941EC1A0B714853EC1A2B2D
:1051B000261851EC1A0BFBF72AF941EC1F0B6D482E
:1051C000C4F1510404F5D724B0EE4F0AF0EE6F0A93
:1051D0000321784401F001F853EC1F2B51EC100B24
:1051E000FBF715F941EC1C0B6348B0EE4F0AF0EEEB
:1051F0006F0A0421784400F0F0FF53EC1A2B51ECB5
:10520000100BFBF704F9344353EC1C2BFBF758F855
:1052100041EC1C0B002C4CDD9FED510B51EC180B9D
:1052200053EC102BFBF7F3F853EC182BFBF7EFF8CC
:1052300041EC1A0B55B353EC1D2B51EC1B0BFBF738
:10524000E6F841EC1D0B53EC1C2B51EC1A0BFBF751
:1052500037F853EC192BFBF7DAF853EC1D2BFBF75F
:105260002FF853EC1A2BFBF7CFF853EC182BFBF766
:10527000C8F841EC180B53EC1E2B51EC1B0BFBF741
:10528000C6F853EC182BFBF7BCF869E753EC1C2B62
:1052900051EC1A0BFBF714F853EC192BFBF7B7F88A
:1052A00053EC1A2BFBF7B0F853EC182BFBF7ACF8C8
:1052B00056E735B353EC1D2B51EC1B0BFBF7A7F84E
:1052C00041EC1A0B53EC1C2B51EC180BFBF799F823
:1052D00053EC192BFBF79BF853EC1A2BFBF791F8C7
:1052E00053EC182BFBF78DF841EC180B53EC1E2BED
:1052F00051EC1B0BFBF78BF853EC182BFBF781F8E9
:105300002EE753EC1C2B51EC180BFBF77AF853ECFF
:10531000192BFBF77CF853EC182BFBF775F81FE7FC
:105320000000F07F0000000000000000000050437B
:10533000645F090000000000000000000000F03F72
:10534000763C7935EF39EA3D0000E0FE422EE63F3B
:10535000684F000000000000555555555555D53F84
:10536000000000000000E03F0000000000000040DE
:1053700086EBF9FF624D0000584D00000000000070
:105380002DE9F04D2DED040B2DED0E8B96B0DDE9E2
:105390002550279CDDF890A025F0004624F0004819
:1053A000BAF1000F14BF0121002101EB4502FC49B5
:1053B00053184A1093422AD3002814BF0123002314
:1053C00003EB44030B44F7498B4220D358EA000116
:1053D0009FEDF59B76D0DFF8D8B35D4503D1BAF1E8
:1053E000000F05D188E0BAF1000F08BF002100D0FE
:1053F000012101EB450111F5001F08D8002814BF59
:105400000121002101EB440111F5001F0BD99DED95
:10541000261B9DED240B16B0BDEC0E8B04B0BDE831
:10542000F04D00F07BBF0027002DBCBFE14988454F
:1054300021DAE1498845A8BF02271CDAC3451ADCF6
:10544000DE4901EB2851142908DDC1F1340220FAAC
:1054500002F101FA02F282420DD108E058B9C1F11D
:10546000140228FA02F101FA02F2424503D101F0D6
:105470000101C1F1020756EA0A0124D1002C22DA07
:10548000002D18BF022F01D0012F0AD0022001F0F9
:1054900053F816B0BDEC0E8B04B0BDE8F04D00F033
:1054A0001BBF022001F048F800F016FF51EC100B72
:1054B00081F0004141EC100B16B0BDEC0E8B04B036
:1054C000BDE8F08D18E09FEDBEAB9FEDBF8B0028CF
:1054D00071D1B848804522D105F1804010F5801087
:1054E00008BFBAF1000F07D0B3450ADC002CA8BFF3
:1054F0009DED260BE0DA0DE0B0EE490AF0EE690A08
:10550000DAE7002C06DA9DED260B51EC100B81F04A
:1055100000416FE0AE48784490ED000BCCE7D845F1
:105520004DD1002C48DA2EB186423AD1BAF1000FA3
:1055300042D126E0BAF1000F13D0022000F0FCFFA8
:1055400000F006FF8DED020B9DED240B8DED000BA1
:1055500010EE900A039961F31E0003909DED020B7B
:10556000AAE78DED02AB9DED240B1AEE901A10EE1A
:10557000900A8DED000B61F31E0003909DED020B70
:105580009AE78DED028B9DED240B18EE901A10EE2C
:10559000900A8DED000B61F31E0003909DED020B50
:1055A0008AE709DA9DED240B51EC190B53EC102B13
:1055B000FAF79FFF1EE020E09DED240B7CE786427A
:1055C0001BDAB4F1804F0DD0A4F10050B0F1FF50C0
:1055D00013D1002D11DB9DED240B51EC100B03F0CA
:1055E0007BFD07E09DED240B53EC102B51EC100BD1
:1055F00000F0C2BC41EC100B5EE79DED240B51ECBA
:10560000100B02F0F7FDBAF1000FCDE90E0142D107
:105610009FED710B46B3A6F1E040B0F17F600CD076
:105620005E4538D1002D00DAA7B3022F0CBF012050
:105630004FF0FF30FBF707FADCE7002D01DD002C0F
:105640000DDA002D01DD002C1FDB002D16DA002CF9
:1056500014DB012F08BF9FED620B3FF42DAFB0EEBE
:105660004A0AF0EE6A0A27E7022F18BF002D0CD075
:10567000012F0AD1002DFFF61FAF06E0002DB8BFA5
:10568000002C08DA012F3FF417AFB0EE480AF0EE15
:10569000680A11E71BE0012000EBE57050EA070102
:1056A00015D0791EB0EE498AF0EE698A084308BF2A
:1056B0009FED4D8B4E480025804570DD4D494E488D
:1056C000884514DDB0420DDB002C19DB2FE00120F2
:1056D00000F032FF16B0BDEC0E8B04B0BDE8F04D0B
:1056E00000F026BEB34502DC002C09DC1FE0864238
:1056F00002DA002C1BDA03E05E452BDD002C16DD00
:10570000022000F019FF00F023FE8DED020B53EC98
:105710001A2B51EC180BFAF77AFECDE90001039928
:10572000019861F31E0003909DED020BC4E6022078
:1057300000F002FF00F01CFE10EE901A18EE900A26
:105740008DED020B8DED008B61F31E0003909DED3E
:10575000020BB1E69DED0E0B53EC192B51EC100B27
:10576000FAF74FFE9FED260BCDE9080153EC102B05
:105770009DED080B51EC100BFAF749FE9FED221B33
:1057800053EC112BFAF740FE9DED081B53EC112B47
:10579000FAF73DFE9FED1E1B53EC112B3CE08CE015
:1057A000FFFF1F00FFFF0F00000000000000F03FA0
:1057B0000000F03F0000F07F0000404301FCFFFFCD
:1057C000000000000000F07F00000000000000006A
:1057D000DE4A000000000000000000000000008021
:1057E000000000000000F0FF000000000000F0BF1B
:1057F0000000E0410000F043FFFFEF3F0000000029
:10580000000000000000D03F555555555555D53F77
:10581000000000000000E03FFAF7F6FD9DED080BE8
:1058200041EC1A0B53EC102B51EC100BFAF7EFFD77
:1058300053EC1A2BFAF7EBFD41EC1A0B9FEDFE0B24
:1058400053EC102B9DED080B51EC100BFAF7DFFD1C
:1058500041EC1B0B9FEDFA0B51EC1A0B53EC102B88
:10586000FAF7D5FD41EC1A0B9FEDF70B53EC102B1B
:105870009DED080B51EC100BFAF7C9FD53EC1A2BF8
:10588000FAF7BFFD41EC1A0B51EC1B0B53EC1A2B32
:10589000FAF716FD0690CDE906519DED060B53EC87
:1058A0001B2B51EC100BFAF7ACFD53EC1A2BFAF74B
:1058B000ABFD41EC100B00F0A1B90020B6F5801F44
:1058C0000EDA9FEDE30B53EC102B9DED0E0B51EC1C
:1058D000100BFAF79CFDCDE90E016FF034000E4677
:1058E00000EB2650A0F2FF37C6F31300DA4940F070
:1058F0007F6646F040568842D8BF002408DDD7496D
:105900008142C8BF012403DC0024A6F580167F1C59
:10591000D348784400EBC4000F9690ED00CB9DED8A
:105920000E0B53EC1C2B51EC100BFAF76AFD9DED9E
:105930000E0B41EC1B0B53EC1C2B51EC100BFAF72C
:10594000BFFC41EC100B51EC190B53EC102BFAF788
:10595000D0FD41EC1D0B51EC1B0B53EC1D2BFAF74A
:1059600056FD41EC1A0BBF488DED10AB78441095F5
:1059700090ED000B4FF0005040EA660000EB8440D1
:105980008DED080B00F5002009909DED080B53EC00
:105990001C2B51EC100BFAF734FD9DED0E1B53EC54
:1059A000112BFAF731FD41EC100B53EC102B9DED50
:1059B000100B51EC100BFAF72AFD9DED080B41EC92
:1059C0001C0B53EC102B9DED100B51EC100BFAF748
:1059D0001EFD53EC1B2BFAF717FD53EC1C2BFAF7AB
:1059E00010FD53EC1D2BFAF712FD41EC1C0B53EC90
:1059F0001A2B51EC1A0BFAF70AFD41EC1B0B9A48D3
:105A00000621B0EE4B0AF0EE6B0A784400F0E5FB9D
:105A1000B0EE401AF0EE601AB0EE41DAF0EE61DA64
:105A200053EC1B2B51EC1B0BFAF7F1FC53EC1D2B29
:105A3000FAF7EDFC9DED100B41EC1B0B53EC1A2B10
:105A400051EC100BFAF73CFC53EC1C2BFAF7DFFC83
:105A500053EC1B2BFAF734FC9DED100B41EC1B0BA8
:105A600053EC102B51EC100BFAF7D1FC41EC1D0B51
:105A70009FED7FEB53EC1E2BFAF722FC53EC1B2B14
:105A8000FAF71EFC0890CDE908519DED080B53EC88
:105A90001E2B51EC100BFAF7B4FC53EC1D2BFAF74C
:105AA000B0FC53EC1B2BFAF7AFFC9DED080B41EC5F
:105AB0001D0B53EC102B9DED100B51EC100BFAF756
:105AC000A6FC41EC1B0B53EC1A2B51EC1D0BFAF707
:105AD0009EFC9DED080B41EC1A0B53EC102B51EC86
:105AE0001C0BFAF794FC53EC1A2BFAF7E9FB41EC88
:105AF0001A0B51EC1B0B53EC1A2BFAF7E1FB0C9031
:105B0000CDE90C519DED0C0B53EC1B2B51EC100B04
:105B1000FAF777FC53EC1A2BFAF776FC41EC1B0BE7
:105B20009FED550B53EC102B9DED0C0B51EC100B16
:105B3000FAF76DFC41EC1A0B9FED510B51EC1B0B6E
:105B400053EC102BFAF763FC41EC1B0B9FED4E0B53
:105B500053EC102B9DED0C0B51EC100BFAF757FC8E
:105B600053EC1B2BFAF7ACFB41EC100B4848784484
:105B700000EBC40090ED001B51EC100B53EC112B0B
:105B8000FAF79EFB41EC1B0B3846FAF75CFFCDE9B8
:105B9000080153EC1B2B51EC1A0BFAF791FB41EC6B
:105BA000100B3C48784400EBC40090ED00CB51EC66
:105BB000100B53EC1C2BFAF783FB9DED081B53ECE9
:105BC000112BFAF77DFB0690CDE906519DED080BF0
:105BD00053EC102B9DED060B51EC100BFAF711FC5A
:105BE00053EC1C2BFAF70DFC53EC1A2BFAF709FCBB
:105BF00053EC1B2BFAF708FC41EC100B9DED261B18
:105C000053EC102B8DED001B00959DED260B51ECF8
:105C1000100BFAF7FCFB9DED000B41EC1A0B53EC5B
:105C2000102B9DED260B51EC100BFAF7EAFB9DEDC6
:105C3000061B53EC112B2FE0000000604715F73FC7
:105C4000FE822B654715F73F44DF5DF80BAE543EEF
:105C500000000000000040438E9803007AB60B005D
:105C60005A460000884600009245000000000000EF
:105C70000000000000000840000000E009C7EE3FFF
:105C8000FD033ADC09C7EE3FF5015B14E02F3EBE91
:105C90001E440000D8430000FAF7B9FB53EC1A2B5E
:105CA000FAF70EFB9DED060B41EC1A0B53EC102B93
:105CB0009DED000B51EC100BFAF7A9FBCDE90C019F
:105CC0009DED0C0B51EC1A0B53EC102BFAF7F8FA74
:105CD000CDE902010C46AA498C422FDB611A084328
:105CE00018D19DED0C0B53EC102B9DED020B51ECDC
:105CF000100BFAF786FB41EC1B0B9FEDA30B51EC4D
:105D00001A0B53EC102BFAF7DBFA53EC1B2BFAF7B8
:105D1000DBFE2DD2022000F00FFC00F019FB10EE8C
:105D2000901A18EE900A8DED020B8DED008B61F349
:105D30001E0003909DED020BFFF7BEBB944A24F0BA
:105D40000041914214D39349214408437FF4EFACBE
:105D50009DED0C0B53EC102B9DED020B51EC100B39
:105D6000FAF74FFB53EC1A2BFAF7AEFE7FF6DFACD7
:105D700024F000408849894A002601EB20518242E4
:105D80002BDA481C4FF4801121FA00F02044844A99
:105D9000C0F30A517A44A1F2FF3192ED000B814A1F
:105DA0008DED080BCA4020EA0202C0F3130040F454
:105DB0008010C1F1140120FA01F60992002CB8BF3D
:105DC00076429DED080B53EC102B9DED0C0B51EC26
:105DD000100BFAF716FBCDE90C019DED0C0B51EC05
:105DE0001A0B53EC102BFAF76BFA9FED6F0B089020
:105DF000CDE9085153EC102B9DED080B51EC100B25
:105E0000FAF705FB41EC1B0B9FED690B53EC102BD4
:105E10009DED080B51EC100BFAF7F9FA9DED0C0B08
:105E200041EC1C0B53EC102B9DED080B51EC100BAF
:105E3000FAF7E7FA53EC1A2BFAF7E6FA9FED5E1B36
:105E400053EC112BFAF7E3FA53EC1C2BFAF738FA60
:105E500041EC1A0B51EC1B0B53EC1A2BFAF730FAEE
:105E6000CDE902019DED020B53EC1B2B51EC100B05
:105E7000FAF7C7FA53EC1A2BFAF7C6FA9DED020BA4
:105E800041EC1A0B53EC102B51EC100BFAF7BFFA44
:105E9000CDE908014A489DED080B0521784400F042
:105EA0009CF99DED081B51EC100B53EC112BFAF7EC
:105EB000AEFA9DED021B53EC112BFAF7A5FACDE9D2
:105EC00006019DED020B53EC1A2B51EC100BFAF767
:105ED0009EFA53EC1A2BFAF7F3F99FED3B0B41ECCA
:105EE0001A0B53EC102B9DED060B51EC100BFAF72F
:105EF00088FA9DED060B41EC1B0B53EC102B9DED2E
:105F0000020B51EC100BFAF782FA53EC1B2BFAF749
:105F1000F0FA53EC1A2BFAF774FA9DED021B53ECCE
:105F2000112BFAF76EFA53EC192BFAF76DFACDE94B
:105F3000020101EB065001150029C8BF039015DCD2
:105F40009DED020B324651EC100BFAF7D1FCFEF737
:105F50003DFF042808BF00F00BFA32469DED020B0E
:105F600051EC100BFAF7C4FCCDE902019DED020BD8
:105F700051EC180B53EC102BFAF749FAFFF73ABB28
:105F80000000904000000000FE822B654715973C02
:105F900000CC904000346F3F01FCFFFF0000E03F69
:105FA00060420000FFFF0F0000000000432EE63FAC
:105FB000396CA80C615C20BEEF39FAFE422EE63F38
:105FC0003041000000000000000000000000004020
:105FD00000B510EE101A2DED028B81B0524A6846C2
:105FE000B2EB410F2ED94FF0E640B0EB410F94BF1A
:105FF00000204FF0FF3000900098B0EE408A00285B
:106000006ADB10F0010F4BD068EE080A9FED471ACB
:106010009FED470A00EE810A9FED461A10F0020F2D
:1060200000EE801AB7EE000A00EE810A02BF01B04E
:10603000BDEC028B00BD00BF01B0B1EE400ABDEC6B
:10604000028B00BD3C4B21F00042934241D911F03C
:10605000004FDFED3A0A20EE201ADFED390A19BFB2
:1060600031EE601A71EE200A31EE201A71EE600AEC
:10607000BDEEE01A11EE100A9FED321A00F0030097
:1060800000EEC10A9FED301A009000EEC10A9FEDAC
:106090002F1A00EEC10A9FED2E1A00EEC10AABE7DF
:1060A00028EE080A9FED2B1ADFED2B0A10F0020FE5
:1060B00040EE410A9FED291A00EE201A61EE000A17
:1060C000B0EE480A08EE200AB6D101B0BDEC028B52
:1060D00000BD00F071F98FE718EE100A4000B0F132
:1060E0007F4F0DD218EE100AFEF788FE042808BF75
:1060F00000F05AF9B0EE480A01B0BDEC028B00BDC9
:1061000009D1012000F018FA01B0BDEC028B5DF856
:1061100004EB00F041B901B0B0EE480ABDEC028BCF
:106120005DF804EB00F034B9B61F927EB93AB2BA0A
:10613000CA9F2A3DDDFFFFBE490E494683F9223F33
:106140000000004B0000C93F00A0FD390020A23331
:106150001A61342C336D4C39DA82083CA0AA2ABE6D
:1061600000B52DED048BB0EE409AF0EE609A83B04E
:1061700051EC190BFAF7D3FB41EC180B18EE100A8F
:1061800018EE901A8DED008B002818BF01200843EF
:1061900020F00040C0F17F6000F1E040C00F14D05B
:1061A00019EE101A19EE900A8DED009B002918BF08
:1061B0000121084320F00040C0F17F6000F1E04081
:1061C000C00F04BF012000F0B7F9B0EE480A03B0D9
:1061D000F0EE680ABDEC048B00BD70B504462DEDF1
:1061E000028B4D1E00EBC500B0EE408AF0EE608AD7
:1061F00090ED000B35F0060017D053EC182B51EC46
:10620000100BFAF704F941EC100B6D1E04EBC500FE
:1062100090ED001B51EC100B53EC112BFAF750F8DA
:1062200041EC100B35F00600E7D1022D36D0042DDD
:106230001CD0062D1CBFBDEC028B70BD53EC182B7F
:1062400051EC100BFAF7E3F894ED0A1B53EC112B09
:10625000FAF736F853EC182BFAF7D9F894ED081B37
:1062600053EC112BFAF72CF841EC100B53EC182BD4
:1062700051EC100BFAF7CBF894ED061B53EC112BF5
:10628000FAF71EF853EC182BFAF7C1F894ED040B4B
:1062900053EC102BFAF714F841EC100B53EC182BBD
:1062A00051EC100BFAF7B3F894ED021B53EC112BE1
:1062B000FAF706F853EC182BFAF7A9F894ED001B3F
:1062C00053EC112BF9F7FCFFBDEC028B41EC100BEA
:1062D00070BD0000000000009FED070B10B553ECEF
:1062E000102B9FED070B51EC100BFAF702F941EC64
:1062F000100B10BD000000000000000000000000B6
:10630000000000000000F03F10B553EC102B51ECE2
:10631000100BF9F7D5FF41EC100B10BD10B553EC85
:10632000112B51EC100BF9F7CBFF41EC100B10BD0A
:106330009FED050B10B553EC102B51EC100BFAF739
:10634000D8F841EC100B10BD000000000000000068
:106350009FED050B10B553EC102B51EC100BFAF719
:1063600056F841EC100B10BD00000000000000705A
:106370009FED050B10B553EC102B51EC100BFAF7F9
:1063800046F841EC100B10BD0000000000000010AA
:1063900030EE000A70470000DFED020A80EEA00A2E
:1063A00070470000000000009FED020A20EE000A86
:1063B00070470000000000102DE9F0014FF07F420F
:1063C000B2EB410F9FBF4FF0FF310160BDE8F0011C
:1063D00070474FF0004242EA0123C1F3C752783AB6
:1063E000551112F01F0C434CCCF120067C44C1F334
:1063F000C752A2F178024FEA621204EB820254F80B
:10640000254008BFD2E9015612D0556804FA0CF4B1
:1064100025FA06F73C43976805FA0CF527FA06F8C3
:10642000D26807FA0CFCF24045EA08054CEA02067D
:10643000A4FB034CA5FB0352A6FB03631D449D4232
:1064400034BF012600261319334416B1934202D9F2
:1064500003E0934201D2012200E00022624402F1F3
:10646000200C9206DC0C42EA443200EE102A5B0358
:10647000DFED210AF8EEC01A00EE103A4FEA9C1C3C
:1064800011F0004FB8EE400AC0F800C020EE201A0C
:1064900000EE105ADFED190AB8EE400A20EE200A8D
:1064A00071EE810A70EE800A10EE902A02F5006209
:1064B0006FF30B0200EE902A70EEE11A31EEC11A72
:1064C000DFED101A30EE411A9FED0D0A20EE800A22
:1064D00001EE210A9FED0C1A00EE810A04BFBDE80F
:1064E000F0017047CCF180510160BDE8F001B1EEE0
:1064F000400A7047103C0000000000360000802C6D
:1065000022AAFD29DB0FC92F0000C92F014800680E
:10651000704700007C00002002E008C8121F08C17C
:10652000002AFAD170477047002001E001C1121F14
:10653000002AFBD170470000014908607047000045
:106540007C0000202DE9FF5F82B00021DDE90430EE
:10655000020DDDF840B0034318D044F61050A2F20B
:10656000FF3242431514119801281FD0A5EB0B00F0
:10657000401C5FEA000A4FF000064E4FDFF83891EA
:10658000B046504615D5CAF1000413E01198012415
:106590004AA3012801D16FEA0B010298119AC0E9C0
:1065A0000031C0E9024206B0BDE8F09FCBF1000027
:1065B000DFE704460021404A491842EB0450CDE988
:1065C000001012E0E00707D032463B4640464946FD
:1065D000F9F71DFF8046894632463B46104619466C
:1065E000F9F715FF06460F466410002CEAD1DDE9E5
:1065F0000401DDE90023BAF1000F06DAF9F707FF1D
:1066000042464B46F9F703FF05E0F9F772FF4246B1
:106610004B46F9F76EFF04460E460022284BFAF768
:1066200053FA03D84FF0FF30014607E00022254B14
:1066300020463146F9F744FEFAF716FA102409E02D
:10664000002C0ADB0A220023F9F7D8FD039B303225
:106650001A55641E50EA0102F2D1641C039AC4F177
:1066600011031444119A012A03D0012208430DD1C9
:106670000AE0084304D000204FF0110B119072E79C
:10668000A3EB0B056D1E0DE05B4504DD4FF0000232
:1066900005F1010504E003DA4FF00002A5F1010560
:1066A000002AECD002981199C0E90231C0E90045F6
:1066B00079E70000000014400000F03F30000000C7
:1066C0000000F0430000E03F30380A2801D20120EA
:1066D00070470020704700002DE9FF4F95B09B46A2
:1066E0008946064600250FE2252877D10024274653
:1066F000F84A0121059400E0044316F8013F203BCD
:1067000001FA03F01042F7D130782A2811D06FF047
:106710002F033078A0F13002092A16D8059A44F0E8
:10672000020402EB820203EB42021044761C059045
:10673000EFE759F8042B0592002A03DA504244F49B
:106740000054059044F00204761C30782E2816D1AF
:1067500016F8010F44F004042A280DD06FF02F0220
:106760003078A0F13003092B09D807EB870302EB3F
:106770004303C718761CF3E759F8047B761C30787E
:106780006C280FD006DC4C2817D068280DD06A285A
:1067900014D104E0742810D07A280FD10DE044F40D
:1067A00000140AE044F4801401E044F440147278C8
:1067B000824202D104F58014761C761C307866285B
:1067C0000BD013DC582877D009DC002875D0452879
:1067D000F6D04628F4D047281AD19DE118E0632866
:1067E00035D0642879D0652812D195E1702873D00E
:1067F00008DC6728F1D069286FD06E280DD06F288B
:1068000006D1B5E073282CD0752875D0782874D0BF
:106810005A46179990476D1C75E1C4F3025002283F
:1068200009D003280DD0D9F8001004280DD00D6030
:1068300009F1040967E1D9F80010EA17C1E900522B
:10684000F6E7D9F800100D80F2E70D70F0E719F8BF
:10685000041B8DF8001000208DF80100EA4601208D
:1068600003E059F804AB4FF0FF3061074FF000012F
:1068700002D40DE008F101018846B9420FDA8045E3
:10688000F8DB1AF808100029F4D108E008F101013A
:1068900088468142FADB1AF808100029F6D10598DB
:1068A0005B46A0EB080721463846179A00F094FA99
:1068B000284400EB080507E04DE029E10DE01AF857
:1068C000010B5A4617999047B8F10108F7D25B4679
:1068D00021463846179A13E142E00A220092C4F397
:1068E00002524FF0000A022A08D059F804CB032ABA
:1068F0004FEAEC710AD00DE029E02AE009F1070126
:1069000021F00702F2E802C1914609E00FFA8CFC7F
:106910004FEAEC71042A03D14FFA8CFC4FEAEC7178
:10692000002907DA0A460021DCF1000C61EB0201C4
:106930002D2202E0220504D52B228DF8042001220D
:1069400003E0E20701D02022F7E7904659E00A2150
:1069500002E010220DE010214FF0000A00910BE040
:1069600010224FF0000A44F004040827009203E0CC
:1069700008224FF0000A0092C4F30252022A05D006
:1069800059F804CB0021032A08D009E009F10701D6
:1069900021F00702F2E802C1914605E01FFA8CFCE3
:1069A000042A01D10CF0FF0C4FF00008220728D573
:1069B000702806D0009B83F0100353EA0A0305D029
:1069C0000EE040228DF80420012208E05CEA01027A
:1069D00006D030228DF804208DF805000222904662
:1069E000009B83F0080353EA0A030AD15CEA010220
:1069F00001D1620705D530228DF804204FF001083F
:106A00007F1E582804D034A003900EA802900DE0F9
:106A100036A0F9E753466046009AF9F7EFFB844643
:106A20000398825C0298401E029002705CEA0100AA
:106A3000F0D1029806A9081A00F1200A600702D5D1
:106A400024F4803400E00127574502DDA7EB0A005B
:106A500000E0002000EB0A01009005984144401A34
:106A60000590E00306D45B462146179A059800F08E
:106A7000B3F90544002706E001A85A46C05D1799FE
:106A800090476D1C7F1C4745F6DBE0030CD55B4649
:106A90002146179A059800F09FF9054404E030203C
:106AA0005A46179990476D1C0099481E009000297E
:106AB000F5DC08E0029802995A460078491C0291D8
:106AC000179990476D1CBAF10001AAF1010AF1DC97
:106AD00065E10000092801003031323334353637A2
:106AE000383961626364656600000000303132331A
:106AF00034353637383941424344454600000000BA
:106B000000F058F90544761C307800287FF4ECAD8D
:106B100019B02846BDE8F08F620700D4062709F1B6
:106B2000070222F0070CFCE80223E14603F00048CC
:106B30005FEA080C02D00FF2702C0DE05FEA045CF3
:106B400002D50FF2682C07E05FEAC47C02D00FF296
:106B5000602C01E0AFF2700C4FF0FF3823F00043DF
:106B6000CDF850C065280CD006DC452809D0462851
:106B70001DD047283DD13DE0662818D067287ED13A
:106B800038E00021112F01DB112000E0781CCDE955
:106B9000000106A90EA8FFF7D5FCDDE90F010E9A4A
:106BA00003910021009207F1010A04914DE04FF09A
:106BB00000400097CDE9011006A90EA8FFF7C2FC1E
:106BC000DDE90F0203920E9B11990022DDF80CA063
:106BD0000093049211B9791C00EB010AB7EB0A008B
:106BE00004D4C0F1FF3007F1010A0490AAEB0700BA
:106BF000019044E0012F00DA01270021112F01DD6F
:106C0000112000E03846CDE9000106A90EA8FFF7E3
:106C100099FCDDE90F010E9A039100210491009285
:106C2000BA4621070CD40399514500DA8A46BAF1D5
:106C3000010F05DD009AAAF10101515C302908D04D
:106C4000B84202DA10F1040F06DA0121CDE9011091
:106C500015E0AAF10101E9E7002805DC04990144E7
:106C60000491AAEB000102E0411C514500DD8A4677
:106C70000499401A401C01904FF0004002902007F8
:106C800004D40198504501DBCDF8048000208DF834
:106C90004F0002980DF14F07B0F1004F25D02B2087
:106CA0000E9002984FF0020800280CDA4042029041
:106CB0002D200E9007E00A210298F9F7B8FC303138
:106CC000029007F8011DB8F10001A8F10108F2DCFB
:106CD00002980028EFD1791E0E980870307800F0E5
:106CE000200040F0450007F8020D12A8C01B00F17B
:106CF00007081498007800B1012000EB0A01019800
:106D000001EBE07105984144401A401E0590E003F4
:106D100006D45B462146179A059800F05DF80544B5
:106D20001498007818B15A46179990476D1CE003E3
:106D300024D55B462146179A059800F04DF8054486
:106D40001CE00498002807DBDDE90301884203DD2D
:106D50000098405C179901E0179930205A469047F7
:106D6000049805F10105401C04900198401E019013
:106D700004D12E205A46179990476D1CBAF1000194
:106D8000AAF1010ADDDC05E017F8010B5A46179954
:106D900090476D1CB8F10001A8F10108F4DC5B46D6
:106DA0002146179A0598ABE62D0000002B00000045
:106DB000200000002DE9F041044600251E4617463C
:106DC000880404D405E039462020B0476D1C641EB9
:106DD000F9D52846BDE8F0812DE9F04104460025AB
:106DE0001E469046C80301D5302700E020278804BE
:106DF00004D505E041463846B0476D1C641EF9D500
:106E00002846BDE8F081000070B514462DED048BD6
:106E10000D460646F0EE418AB0EE609AF0EE409ADA
:106E2000FAF730FBF0EE401AB0EE690AB0EE618A74
:106E3000FAF730FB68EE090A9FED141A9FED142A49
:106E400040EE680A60EE011A68EE022A28EE011A86
:106E5000C6ED000AF6EE000A48EE601A40EE602A1F
:106E600000EE601A61EE891A42EEE81AC5ED001ACA
:106E700060EE021A48EE601A61EE891A41EE681A55
:106E8000C4ED001ABDEC048B70BD0000D7B35D3FAC
:106E9000D7B35DBF10B5044601211F48FAF732FC95
:106EA000606001211D48FAF72DFC1D4920609FED0F
:106EB0001D0A096871B1D4F890206168891A00EE42
:106EC000901AF8EEE00A60EE800AC4ED060AD4F8E3
:106ED0008C100DE0D4F88C10401A00EE900AF8EEF9
:106EE000E00A60EE800AC4ED060AD4F890106068EB
:106EF000401A00EE900AF8EEE00A20EE800A84EDD7
:106F0000070A94ED060AD4ED070AB1EE400A30EE06
:106F1000600A84ED050A10BDA80C0020600C00205A
:106F2000B40400200000A53C2DE9F34F2DED0C8B9F
:106F3000ADF50D7D0C46F7A0FDF738FF9FEDFEAADD
:106F40004FF46066304601F063FC8146304601F044
:106F50005FFC0546B9F1000F7DD0002D7BD04FF4CA
:106F60000077384601F054FC8990002873D03146F0
:106F70004846F9F78DF931462846F9F789F9394637
:106F80008998F9F785F9304601F042FC8046304691
:106F900001F03EFC8246B8F1000F5CD0BAF1000F60
:106FA00059D031464046F9F773F931465046F9F762
:106FB0006FF9394603A8F9F76BF98998FDF7D6FE02
:106FC000304601F025FC8B90304601F021FC8A9080
:106FD0008B9800283FD08A9800283CD031468B9867
:106FE000F9F756F931468A98F9F752F9DFEDD39A55
:106FF000B0EE698A9FEDD2DACDED839AF6EE00AA63
:10700000CDED86AA83AA85A984A8B0EE691AF0EE10
:107010004D0AB0EE480AFFF7F7FE86AA87A988A8AE
:10702000DDED831A9DED851ADDED840AB7EE000AC9
:1070300002F08AF8DFF80CB3002649F64047F7EE75
:10704000008A00BFDBF80000C16A490800EE101A90
:10705000B8EE400A00E05FE3DDED880A78EEE00A72
:1070600020EE200ABCEEC00A10EE101AC163B6482A
:10707000006808B3DBF80010CA6ADDED870A520821
:1070800000EE102A78EEE00AB8EE400A20EE200A60
:10709000BCEEC00A10EE102A8A63DBF80000C16A59
:1070A000DDED860A490800EE101A78EEE00AB8EE27
:1070B000400A20EE200A20E0DBF80000C26ADDED85
:1070C000860A520800EE102A78EEE00AB8EE400A6E
:1070D00020EE200ABCEEC00A10EE102A8263DBF814
:1070E0000000C16A490800EE101AF8EE400A9DED52
:1070F000870A38EEC00A20EE800ABCEEC00A10EE05
:10710000101A41636420FBF755F9761CBE4299DBE7
:10711000DFED8EDA9998B0EE6D0AFDF79BF8D4F8A2
:1071200090106068401A00EE100AF8EEC00A9FED59
:10713000880A20EE801A84ED061AD4F88C10206894
:10714000401A00EE900A04F14401081FF8EEE00A2C
:1071500060EE801AB1EE410AC4ED071A70EE610AC2
:10716000C4ED050A94ED0C0A00F0E2FD606CF9F73D
:107170002FFA41EC100B9FED77CBB0EE4C1AF0EEEE
:107180006C1AFEF7FDF8B0EE40BAF0EE60BA206C73
:10719000F9F71EFA41EC100BB0EE4C1AF0EE6C1A37
:1071A000FEF7EEF8B0EE401AF0EE601A53EC1B2B2F
:1071B00051EC110BF9F784F841EC100BFEF7D0FFFE
:1071C00051EC100BF9F717FA0BEE900A63A0FDF7DC
:1071D000EDFD0024B1EE0C9A00265F46B0EE6DBACC
:1071E00038EE0A8A83AA85A984A8B0EE691AF0EE5F
:1071F0004D0AB0EE480AFFF707FE86AA87A988A8BD
:10720000DDED831A9DED851ADDED840AB7EE000AE7
:1072100001F09AFF3868BB46C16ADDED880A49086B
:1072200000EE101A78EEE00AB8EE400A20EE200ACE
:10723000BCEEC00A10EE101AC1634348006808B3E0
:10724000DBF80010CA6ADDED870A520800EE102A4A
:1072500078EEE00AB8EE400A20EE200ABCEEC00A42
:1072600010EE102A8A63DBF80000C16A490800EEBC
:10727000101AF8EE400A9DED860A38EEC00A20EE9C
:10728000800A20E0DBF80000C26ADDED860A5208C1
:1072900000EE102A78EEE00AB8EE400A20EE200A4E
:1072A000BCEEC00A10EE102A8263DBF80000C16A4F
:1072B000DDED870A490800EE101A78EEE00AB8EE14
:1072C000400A20EE200ABCEEC00A10EE101A4163FC
:1072D0006420FBF76FF8B0EE4B0A9998FCF7BAFF01
:1072E000761C282EFFF67CAFB0EE4B0A9998FCF77F
:1072F000B1FFFAF711F988EE09CAF0EE40CA09EBBE
:1073000084003CEE6C0A80ED000AFAF715F98B99BF
:107310003CE000005374617274696E672063616CB5
:107320006962726174696F6E2070726F63656475F3
:1073300072650A0D000000007CD9A03A0000000030
:107340009A99193EB80D0020B404002017B7D13720
:107350000000A53C000000000000004020437572C2
:1073600072656E7420416E676C65203A20526F74AE
:107370006F7220416E676C65203A2052617720451C
:107380006E636F646572200A0D0A0D0041F82400D7
:1073900000901CEE900AF9F71BF906460F461CEE0A
:1073A000100AF9F715F941EC100B00980096CDE999
:1073B000017053EC102B2146DAA0FDF7F7FC641C9A
:1073C000B4F5607FFFF608AF0024B0EE4BCADFF8DB
:1073D00070B3DC4E002700BF38EE4A8A83AA85A925
:1073E00084A8B0EE691AF0EE4D0AB0EE480AFFF735
:1073F0000BFD86AA87A988A8DDED831A9DED851A65
:10740000DDED840AB7EE000A01F09EFE3068C16A25
:10741000DDED880A490800EE101A78EEE00AB8EEB1
:10742000400A20EE200ABCEEC00A10EE101AC1631A
:10743000DBF8000000283068C16A4FEA510100EE15
:10744000101AB8EE400A14D0DDED870A78EEE00A93
:1074500020EE200ABCEEC00A10EE101A81633068DC
:10746000C16ADDED860A490800EE101AB8EE400A3E
:1074700013E0DDED860A78EEE00A20EE200ABCEE8D
:10748000C00A10EE101A81633068C16ADDED870A08
:10749000490800EE101AB8EE400A78EEE00A20EE35
:1074A000200ABCEEC00A10EE101A41636420FAF7FD
:1074B00081FFB0EE4C0A9998FCF7CCFE7F1C282F78
:1074C0008ADBB0EE4C0A9998FCF7C4FEFAF724F870
:1074D00088EE09BAF0EE40CA05EB84003BEE6C0A78
:1074E00080ED000AFAF728F88A99834641F82400CB
:1074F0001CEE900AF9F76CF806460F461BEE100AD0
:10750000F9F766F841EC100B8DE8C00853EC102B2E
:10751000214684A0FDF74AFC4FF46076641CB44217
:10752000FFF655AFB0EE690A0020DFED870A00BF15
:1075300009EB800191ED001AA5EB800101F5406196
:10754000401CD1ED7F1AB04271EE211A81EEA01AD3
:1075500031EE000AECDB20EE090A10EE100AF9F712
:1075600037F841EC100B9FED791BFDF7A1FC51ECB6
:10757000100BF9F740F808EE100AB0EE480AFCF7D5
:1075800079FF744880ED008A5FF0000009EB80010C
:1075900091ED000AA5EB800101F54061D1ED7F0A74
:1075A00008EB8001401C30EE200AB04220EE2A0A8F
:1075B00081ED000AEADB0024DFED678A00210AEB97
:1075C00084070819403802D500F5607003E0B04226
:1075D00001DBA0F5607008EB800097ED000AD0EDAC
:1075E000000A491C802900EEA80A87ED000AE8DBA2
:1075F000802C12DA08EB8400D7ED000A90ED000A27
:1076000030EE600A20EE090AFEF7E2FC20EE2B0ABB
:1076100003A800EB840080ED000AD7ED000A9FED7F
:107620004F1A641CB44280EE810A70EE299AC5DBC1
:107630008B9801688A98D0F8FC0D084400EBD07054
:10764000471047A0FDF7B2FB51A0FDF7AFFB0024A8
:10765000DFED5C8A04EBE7167F2E00DD803EF9F754
:1076600043FF00EE100AC4EBC4000AEB8000B8EE42
:10767000C00AD0ED000A8998324670EEE90A214628
:1076800020EE200AC0EE280ABDEEE00A10EE103A05
:1076900040F826304CA0FDF789FB0120FAF780FE68
:1076A000641C802CD6DB8998FDF760FB244880227F
:1076B00014308999F8F7D3FD18EE100AF8F788FF0F
:1076C00041EC100B45A053EC102BFDF76FFB4D4820
:1076D000016900910FC801F0E8FB10B9494801F0B9
:1076E000DDFB484801F07EFB464801F077FB504641
:1076F00000F020FE404600F01DFE484600F01AFE55
:10770000284600F017FE899800F014FE8B9800F0D0
:1077100011FE8A9800F00EFE0DF50D7DBDEC0C8B70
:10772000BDE8FC8F256409252E346609202020251C
:107730002E3466092020202025640D0A0000000058
:10774000B4040020B80D00200000E04400000060F8
:10775000FB211940B40300200000003C00006044FD
:107760000A0D20456E636F646572206E6F6E2D6C1E
:10777000696E65617269747920636F6D70656E738F
:107780006174696F6E207461626C650D0A0000009F
:107790002053616D706C65204E756D626572203A84
:1077A000204C6F6F6B757020496E646578203A20AD
:1077B0004C6F6F6B75702056616C75650A0D0A0D04
:1077C00000000000DB0FC94025640920202025644B
:1077D000092020202564200D0A0000000A0D456EB6
:1077E000636F64657220456C656374726963616C74
:1077F000204F6666736574202872616429202566AF
:107800000D0A0000B408002070B501220E4DD4020C
:1078100021462846FAF7D6FE0C490D4801F02EF80D
:107820000A490B48FFF780FBC820FAF7B9FD09A009
:10783000FDF7BCFA002221462846FAF7C3FE144998
:107840000020C86070BD000000000240C808002091
:10785000800000200A0D2043616C696272617469C6
:107860006F6E20636F6D706C6574652E2020507292
:1078700065737320276573632720746F20726574A6
:1078800075726E20746F206D656E750A0D000000B4
:1078900040000020094A0021816352685201C0E97A
:1078A0000A21E022C0E90C210164012141648164C4
:1078B00000F128010248FAF7F3B90000B4040020EF
:1078C000380D00200821C16100214161816180F8EB
:1078D000201070472DE9F04F914C93B0631C04F1D8
:1078E0000C0200218F48FAF762FA00286FD18E4807
:1078F0004FF0010ACDF844A090ED032AD0ED041A10
:1079000090ED121AD0ED0D0A90ED0B0A874801F0A8
:10791000D3F98748017821B1012905D0022906D081
:1079200009E0CDF844A006E00221119103E0042112
:1079300011910021017001787C4A491C0170521C90
:1079400011AB02F10B017748FAF746F960788146EE
:10795000FF2834D00020A578FF2D32D00021E37815
:107960000840FF2B2FD0002127790840FF2F2CD073
:10797000002166790840FF2E2AD00021A279084014
:10798000FF2A27D000210840E179FF2924D04FF0B9
:10799000000C00BF00EA0C0094F808C0BCF1FC0F1A
:1079A0001DD04FF0000800BFDFF888B1DFF888E194
:1079B00010EA080F16D00221CBF800104AE001208F
:1079C000C9E70121CBE70121CEE70121D1E743E05F
:1079D0000121D3E70121D6E74FF0010CDAE74FF0A0
:1079E0000108E1E7FF2F3AD00020FF2E39D04FF0F9
:1079F000000800BF10FB08F0B9F1FF0F34D04FF0C2
:107A0000000800BF00EA0800FF2D30D04FF000084A
:107A1000FF2B2FD05FF0000408EA0408404C00EA76
:107A20000800FF2A28D04FF0000800BF00EA080035
:107A3000FF2924D04FF0000800EA0800BCF1FD0F38
:107A400020D04FF0000800BF10EA080F1DD0002022
:107A5000CBF80000CEF800A013B0BDE8F08F0120F5
:107A6000C3E74FF00108C5E74FF00108CAE74FF040
:107A70000108CDE70124CFE74FF00108D6E74FF02A
:107A80000108D9E74FF00108DEE7FF2F24D00020DE
:107A9000FF2E23D05FF0000610FB06F0B9F1FF0FB8
:107AA0001ED000263040FF2D1CD00025FF2B1BD000
:107AB00000231D402840FF2A18D000221040FF2933
:107AC00016D000210840BCF1FE0F13D0002108425F
:107AD00012D0FDF753F9BFE70120D9E70126DBE714
:107AE0000126DFE70125E1E70123E2E70122E5E7DF
:107AF0000121E7E70121EAE7DBF800000228ABD12A
:107B00000749094D4022103168461095F8F7A7FB48
:107B100094E80F0001F0CEFB0020C5F8A8009BE719
:107B2000C00B0020380D0020C80800209C0B00204E
:107B30005A000020480000204C00002070B5044688
:107B40002DED068BB0EE40AA04F14401D0F8A4005C
:107B5000401CC4F8A40004F1140094ED0C0AD0EC0D
:107B6000030A2C3000F0E4F894ED120ADFED660A07
:107B700060EE200A94ED110A9FED641A644D40EE08
:107B8000010AC4ED120AD4ED250A94ED101A30EE64
:107B9000C18AD4ED260A70EEC08A94ED210A30EE37
:107BA000080A84ED210A94ED220A30EE280A84EDB9
:107BB000220A95ED020ADFED579A20EE290A9FED81
:107BC000569A60EE090A9FED551A04F18801081FC4
:107BD00081EE200A00F028FC95ED020A94ED211AAE
:107BE00060EE290A20EE890A20EE010A00EE880ADA
:107BF00084ED140A95ED020A94ED221A60EE290A2A
:107C000020EE890A20EE010A00EEA80A84ED150A8A
:107C100094ED080ADFED420A04F15401081F20EE3A
:107C2000200A00F001FC04F16C02111F94ED151AFA
:107C3000D4ED140A94ED0C0A081FFFF7E5F804F1DF
:107C40006400021FD0EC030A111F94ED080A0C38DF
:107C500001F07AFA33483449F7EE000A02680968FD
:107C6000002A3248CA6A94ED161A00EE102A30EE45
:107C7000C11AB8EE400A20EE010ABCEEC00A10EEAE
:107C8000102AC263CA6A00EE102AB8EE400A12D067
:107C900094ED171A30EEC11A20EE010ABCEEC00AAC
:107CA00010EE102A8263C96A94ED181A00EE101AB9
:107CB000B8EE400A11E094ED181A30EEC11A20EE29
:107CC000010ABCEEC00A10EE102A8263C96A94ED64
:107CD000171A00EE101AB8EE400A70EEC10A20EE34
:107CE000200ABCEEC00A10EE101A416384ED0CAA03
:107CF000D4F8A40049F64041884202DD0020C4F8CF
:107D0000A400BDEC068B70BD3333733FCDCC4C3D2E
:107D1000B4030020E02D903A77BE1F3D6666E64131
:107D20009A99993FB4040020B80D0020000001404A
:107D300070B50C462DED068B0546F0EE618AB0EE6F
:107D4000419AF0EE609AB0EE40AAF9F79BFBB0EED4
:107D5000402AB0EE4A0AB0EE428AF9F79BFBDFED0B
:107D6000170AF6EE002ADFED161A20EE201A68EE4A
:107D7000200A08EE621A40EE620A21EE093A20EE6D
:107D8000211A08EE293A08EE621A01EE283A9FED10
:107D90000D1A23EE012A85ED002A28EE212A60EE35
:107DA000691A00EE622A42EE491A40EEE81A21EE04
:107DB000810A84ED000ABDEC068B70BDD7B35D3F30
:107DC000D7B35DBFABAA2A3F10B500224FF40061C4
:107DD0001C48FAF7F7FB1CA0FCF7E8FF1CA0FCF717
:107DE000E5FF0A20FAF7E6FA1DA0FCF7DFFF0A20FC
:107DF000FAF7E0FA1FA0FCF7D9FF0A20FAF7DAFA3F
:107E000023A0FCF7D3FF0A20FAF7D4FA24A0FCF74A
:107E1000CDFF0A20FAF7CEFA27A0FCF7C7FF0A2009
:107E2000FAF7C8FA2BA0FCF7C1FF0A20FAF7C2FA4A
:107E30002E490020C8600246BDE8104020212C4891
:107E4000FAF7C0BB000002400A0D0A0D0A0D00003F
:107E500020436F6D6D616E64733A0A0D000000007F
:107E6000206D202D204D6F746F72204D6F64650A58
:107E70000D0000002063202D2043616C6962726157
:107E8000746520456E636F6465720A0D0000000022
:107E90002073202D2053657475700A0D00000000BA
:107EA0002065202D20446973706C617920456E63D4
:107EB0006F6465720A0D0000207A202D20536574CE
:107EC000205A65726F20506F736974696F6E0A0D66
:107ED0000000000020657363202D20457869742020
:107EE000746F204D656E750A0D0000004000002083
:107EF000000802407FB53BA0FCF758FF0A20FAF7C4
:107F000059FA40A143A0CDE9000143A343A246A1F1
:107F100047A0FCF74BFF0A20FAF74CFA4C4CA0683C
:107F2000F8F756FBCDE902014AA000904BA34CA202
:107F300051A152A0FCF73AFF0A20FAF73BFA574D3D
:107F400057A058A3696858A2CDE9000158A159A0CB
:107F5000FCF72CFF0A20FAF72DFAA96850A0CDE90A
:107F6000000150A35BA25FA152A0FCF71FFF0A20F3
:107F7000FAF720FAE068F8F72BFBCDE902015AA0E6
:107F800000905BA35BA260A13CA0FCF70FFF0A205E
:107F9000FAF710FAA069F8F71BFBCDE902015BA024
:107FA000009053A35BA261A134A0FCF7FFFE0A205E
:107FB000FAF700FAE9685EA0CDE9000139A35EA2F4
:107FC00065A166A0FCF7F2FE0A20FAF7F3F96A4809
:107FD000FCF7ECFE0A20FAF7EDF968490020C860CA
:107FE0007FBD00000A0D0A0D20436F6E666967753C
:107FF000726174696F6E204F7074696F6E73200ABE
:108000000D0A0A0063757272656E742076616C7574
:10801000650000006D6178006D696E0070617261CD
:108020006D657465720000007072656669780000A5
:1080300020252D347320252D33317320252D3573C4
:1080400020252D367320252D32730A0D0A0D0000D0
:10805000B4030020323030300000000031303000F6
:1080600043757272656E742042616E6477696474E0
:10807000682028487A2900006200000020252D345D
:108080007320252D33317320252D357320252D3672
:108090007320252E31660A0D00000000B404002074
:1080A000313237003000000043414E204944000087
:1080B0006900000020252D347320252D33317320D5
:1080C000252D357320252D367320252D35690A0D74
:1080D0000000000043414E204D61737465722049D9
:1080E000440000006D00000034302E30000000001D
:1080F000302E300043757272656E74204C696D6964
:1081000074202841290000006C00000033332E3019
:108110000000000046572043757272656E74204C53
:10812000696D697420284129000000006600000084
:10813000313030303030000043414E2054696D659D
:108140006F757420286379636C6573292830203D2E
:10815000206E6F6E652900007400000020252D340C
:108160007320252D33317320252D357320252D3691
:10817000732025640A0D0000A8A00008400000201C
:1081800070B50122D1020F48FAF71CFA0E4C0025F7
:108190002046C4F8B05000F001FF0320FAF700F9C0
:1081A0009FED0A0A012284ED250A84ED260A20218A
:1081B0000748FAF707FA0748C560BDE8704006A00F
:1081C000FCF7F4BD00000240C808002000000000D9
:1081D00000080240400000200A0D20456E746572C0
:1081E000696E67204D6F746F72204D6F6465200A51
:1081F0000D00000082B0CDE9000121F000400190A7
:108200009DED000B02B051EC100B7047034850F885
:10821000220000EB830090ED000A70470000002070
:10822000024850F8220050F8230070470000002058
:1082300010B50446F9F7DEF80020207010BD0000EC
:10824000072900D90721044A816052F821104160B2
:1082500000210170704700000000002010B50446A6
:10826000F9F7EEF8F120F9F76BF80549A06851F835
:1082700020000221F9F76AF80120207010BD0000EB
:108280002000002001EB830010EE101AF9F7BAB8B5
:10829000009A01EB83001146F9F7B4B8012131EEE1
:1082A000601A814070EE600A491E00EE101AB8EEA6
:1082B000C00A20EE800AC0EE010ABDEEE00A10EE10
:1082C000100A7047B4EEE00AF1EE10FA07DDB4EEE2
:1082D000C10AF1EE10FA01DCB0EE410A7047F4EE8B
:1082E000C10AF1EE10FAF7DDB0EE600A7047B4EEA5
:1082F000E00AF1EE10FA07D2B4EEC10AF1EE10FA7C
:1083000001D3B0EE410A7047F4EEC10AF1EE10FA63
:10831000F7D2B0EE600A704738B504468DF8000019
:108320000223012269460248FBF718FC204638BDAB
:10833000900E002010B5002821D0114B0022001F04
:10834000196803E0814203D80A4649680029F9D137
:1083500052B11368841A9C4204D10068184410601A
:10836000104602E0506000E0186039B102680B1A54
:10837000934203D10B681A4402604968416010BD02
:10838000740000201C499FED1D0ADFED1F1AD1ED7E
:10839000020A20EE801ADFED1A0A21EE201A80ED83
:1083A0001E1A91ED021A21EE001A61EE200AC0EDAC
:1083B0001F0AD1ED020A60EE800AC0ED1C0AD1ED61
:1083C000020A20EE800ADFED0F0A80ED1D0A91ED12
:1083D000020A20EE200AF0EE000A20EE201AB7EE84
:1083E000000AF0EE400A41EE610A80EE201A30EEFB
:1083F000410A80ED200A7047B4030020E02D903A36
:1084000077BE1F3D17B7D137DB0F494000B5B0EE3F
:10841000401A90ED000AFCF743FDF0EE410AFCF72C
:1084200037FD80ED000A00BD00B5F0EE401A90ED7A
:10843000000A0A46034660EE000A91ED000A40EE8B
:10844000000AB0EE600AF8F761FFB4EEE10AF1EE5F
:1084500010FA0FDDD3ED000A60EEA10A80EE801A5B
:1084600083ED001AD2ED000A60EEA10A80EE801AB8
:1084700082ED001A00BD00002DED028BADF5027DEE
:10848000FAF7B4F8FCF704F8FBF7B6FCFBF712FEBA
:10849000FBF738FDFBF78CFCFBF710FDFBF7BAFB95
:1084A000FBF706FCFBF752FCFBF7E2FDFBF7AEFD2A
:1084B000924A07219FED928A4FF48040B0EE480A1D
:1084C000FBF718FE06218F4800F0B4FC8D480169C7
:1084D00000910FC800F0B6FC8B4C206820F00040E3
:1084E000C0F1FF40002801D584ED008A606820F0CB
:1084F0000040C0F1FF40002801D584ED018AA0684A
:10850000FCF78FFC814D50B994ED020A10EE100A71
:10851000A84204D0B5EEC00AF1EE10FA03D19FEDE7
:108520007C0A84ED020AE068FCF77BFC50B994ED0C
:10853000030A10EE100AA84204D0B5EEC00AF1EE0C
:1085400010FA03D19FED730A84ED030AA069FCF7CA
:1085500068FC10B9A069A84201D184ED068A6E4D6D
:108560000126686800EE100AB8EEC00A10EE101A74
:1085700021F00041C1F1FF41002901D4401C00D18C
:108580006E60A868002200EE100AB8EEC00A10EE75
:10859000101A21F00041C1F1FF41002901D4401C13
:1085A00000D1AA60E86800EE100AB8EEC00A10EE2A
:1085B000101A21F00041C1F1FF41002901D4401CF3
:1085C00000D1EA6094ED000AFBF754FF94ED010A34
:1085D000FBF756FF642000F0ABFC4FF4007101A8DC
:1085E000F7F756FE4C498022143101A8F7F737FE01
:1085F00001A8FCF7BBFB43481430FFF7C3FE474814
:10860000F9F79EF84648F9F79BF84648F9F766FAF5
:108610004548FAF73DFE0122DFF81081D7023946BE
:108620004046F9F7CFFF0120F9F7A8FE3549A431FC
:10863000081F01F019F8002239464046F9F7C2FF39
:108640003048143000F0AAFC0120F9F797FE002111
:108650003548FBF755F804213348FBF751F808215A
:108660003148FBF74DF80120F9F788FE30A0FCF700
:108670009DFB33A0FCF79AFB36A137A0FCF796FBD5
:1086800020481430D0E9231239A0FCF78FFB206872
:10869000F7F79EFF41EC100B3FA053EC102BFCF7BB
:1086A00085FB6068F7F794FF41EC100B46A053EC94
:1086B000102BFCF77BFB4CA06968FCF777FB4E485E
:1086C000FFF7E8F84C482438FFF7FCF84B48F9F777
:1086D000C7FD002211461920F9F7EAFF01221146D1
:1086E0001420F9F7E5FF4648FAF7D2FD0122454983
:1086F0004548FBF70FFA45480660FEE7800000207A
:1087000000000000B4080020B4030020000080BF77
:108710000000C84200002042B4040020600C002089
:10872000A80C0020F00C0020B80D00200000024032
:108730000A0D20595343204C69746533200A0D00FB
:108740000A0D20446562756720496E666F3A0A0D0E
:1087500000000000312E3000204669726D77617292
:10876000652056657273696F6E3A2025730A0D0095
:108770002041444331204F66667365743A20256476
:108780002020202041444332204F66667365743AAE
:108790002025640A0D00000020506F736974696F12
:1087A0006E2053656E736F7220456C6563747269D9
:1087B00063616C204F66667365743A202020252E15
:1087C00034660A0D00000000204F75747075742027
:1087D0005A65726F20506F736974696F6E3A20200A
:1087E000252E34660A0D00002043414E2049443AAC
:1087F000202025640A0D0000C00B0020380D002049
:10880000000E002059000020900E00204C00002097
:10881000F0B50B30154D20F007010024144A0FE08D
:1088200003688B420BD38B4205D95E1A4318476805
:10883000C3E9006700E04368136002C004E0021D62
:1088400010680028ECD12046002802D1286808B121
:108850000020F0BD064A07481060074A121A22F0AD
:108860000702C0E9002401202860D7E77800002033
:1088700074000020DC0E0020D88E00202DE9F04F7F
:108880002DED0A8B83468BB00C46CDA0FCF78EFAFB
:108890009FEDD31AB0EE418A9FEDD2BA8DED041A46
:1088A000B6EE000A8DED070AF0EE419A002504AA03
:1088B00006A905A8F0EE4B0AB0EE480AFEF7A4FAA6
:1088C00007AA09A908A8DDED041A9DED061ADDED39
:1088D000050AB7EE000A00F037FCC34F002644F645
:1088E0002068F7EE008A3968BA46CA6ADDED080AE0
:1088F000520800EE102A78EEE00AB8EE400A20EEA8
:10890000200ABCEEC00A10EE102ACA633968CA6A8F
:10891000DDED090A520800EE102A78EEE00AB8EE02
:10892000400A20EE200ABCEEC00A10EE102A8A632C
:10893000DAF80000C16ADDED070A490800EE101AF6
:1089400078EEE00AB8EE400A20EE200ABCEEC00A3B
:1089500010EE101A41636420F9F72CFD761C464591
:10896000C1DB5846DFEDA1BAB0EE6B0AFBF772FC33
:108970000120F9F715FDD4F890106068401A00EE58
:10898000100AF8EEC00A9FED9A0A20EE801A84EDD4
:10899000061A2168D4F88C00081A00EE900A04F137
:1089A0004401081FF8EEE00A60EE801AB1EE410AB9
:1089B000C4ED071A70EE610AC4ED050A94ED0C0AC5
:1089C000FFF7B6F9606CF7F703FE41EC100B9FED73
:1089D00089CBB0EE4C1AF0EE6C1AFCF7D1FCB0EE7D
:1089E00040AAF0EE60AA206CF7F7F2FD41EC100B04
:1089F000B0EE4C1AF0EE6C1AFCF7C2FCB0EE401A66
:108A0000F0EE601A53EC1A2B51EC110BF7F758FCEF
:108A100041EC100BFDF7A4FB51EC100BF7F7EBFD4D
:108A2000064676A0FCF7C2F93046F7F7D1FD80463E
:108A30008946606CF7F7CCFD06460F46206CF7F7C9
:108A4000C7FD8DE8C00341EC100B6FA053EC102B59
:108A5000FCF7ACF9DFF8C48154469FED71AA04AA73
:108A600006A905A8B0EE691AF0EE4B0AB0EE480A66
:108A7000FEF7CAF907AA09A908A8DDED041A9DEDB9
:108A8000061ADDED050AB7EE000A00F05DFB642072
:108A9000F9F790FC2068C16ADDED080A490800EE8C
:108AA000101A78EEE00AB8EE400A20EE200ABCEE7A
:108AB000C00A10EE101AC1632068C16ADDED090A10
:108AC000490800EE101A78EEE00AB8EE400A20EEEF
:108AD000200ABCEEC00A10EE101A81632068C16A39
:108AE000DDED070A490800EE101A78EEE00AB8EE4C
:108AF000400A20EE200ABCEEC00A10EE101A4163B4
:108B00005846B0EE6B0AFBF7A5FBF8F705FDB5EE8E
:108B1000C08AF1EE10FA01D1B0EE409AC82D17DDEF
:108B2000002510EE100AF7F753FDF1EE0C0A064689
:108B300088EE200A0F4610EE100AF7F749FD41ECC7
:108B4000100B38A053EC102BCDE90067FCF72EF981
:108B500038EE0A8A6D1C18EE100A4045FFF67FAF0A
:108B6000F8F7DAFC70EE490AF5EEC00AF1EE10FAF9
:108B700001DD012400E0002410EE100AF7F728FDC3
:108B800005460E4619EE100AF7F722FD41EC100BD0
:108B9000CDE9005653EC102B26A0FCF707F921462F
:108BA0002EA0FCF703F90CB131A000E035A0FCF7D2
:108BB000FDF8404804600BB0BDEC0A8BBDE8F08FB7
:108BC0000A0D20436865636B696E67207068617386
:108BD00065206F72646572696E670A0D000000009F
:108BE000000000009A99193EB80D002017B7D13740
:108BF0000000A53C00000000000000400A0D437585
:108C00007272656E740A0D002566092020202025E9
:108C1000660920202025660D0A000000DB0F49416F
:108C20006F12833A252E346609202020252E3466C3
:108C30000D0A000054686574612053746172743ABF
:108C4000202020256620202020546865746120455E
:108C50006E643A202025660A0D00000044697265A2
:108C60006374696F6E3A202025640A0D00000000CD
:108C700050686173696E6720636F72726563740A0E
:108C80000D00000050686173696E6720696E636F44
:108C900072726563742E20205377617070696E67FD
:108CA00020706861736573205620616E6420570AD6
:108CB0000D000000B40400202DE9F04106462DED22
:108CC000068BB0EE41AAF0EE60AA82B09FED3C8A1E
:108CD000DFED3C8AB0EE429AF0EE619A1420B0EEDD
:108CE000481AF0EE680AFFF7D9FA074614209FEDFC
:108CF000361ADFED360AB0EE6A0AFFF7CFFA804681
:108D00001020B0EE481AF0EE680AB0EE4A0AFFF7FB
:108D1000C5FA9FED2F8A05460720B0EE481AFBEEF4
:108D2000040AB0EE690AFFF7B9FA04460720B0EE6C
:108D3000481AFBEE040AB0EE490AFFF7AFFA0099B1
:108D4000002267F313010091BDF802109DF8047032
:108D500041EA074168F31711ADF80210090C8DF8CC
:108D60000410BDF8051065F30F01ADF805101949A1
:108D70009DF807500B7863F300058DF80750ABB1F1
:108D80009DF8073060F347038DF807300A701248EA
:108D900040681030F0600098C6F801000198C6F8ED
:108DA000050002B0BDEC068BBDE8F0819DF8070020
:108DB00064F347008DF8070001200870E7E7000022
:108DC0000000C8420000C8C200803B4400803BC491
:108DD0000000484358000020B40400200021017422
:108DE000FFF726BAF8B5114E05460024234656F87B
:108DF0002400009095E80700FFF74AFA641CFF2C56
:108E0000F4DD0B4E4FF4A077BC420CDA06EB840085
:108E1000A0F58060234690ED000A95E80700FFF773
:108E200031FA641CF0E700202874F8BDB404002077
:108E3000B403002070B50D460446FFF701FAE56063
:108E400070BD00002DE9F047124D07468846914657
:108E5000002423464A4641463846FFF7E1F945F8E3
:108E60002400641CFF2CF4DD0B4D4FF4A076B442BB
:108E70000DDA23464A4641463846FFF7C7F905EB67
:108E80008400A0F58060641C80ED000AEFE7BDE877
:108E9000F0870000B4040020B403002010B504469D
:108EA000FFF7DCF90120207410BD0098C0B27047B4
:108EB000FEB5F8F741FB0646F8F71CFB10EE100A6A
:108EC000F7F786FB0D460446F8F720FB10EE100A74
:108ED000F7F77EFB41EC100B8DE8700053EC102B84
:108EE00003A0FBF763FFBDE8FE400120F9F758BA85
:108EF000204D656368616E6963616C20416E676CCB
:108F0000653A2020256620202020456C6563747218
:108F10006963616C20416E676C653A20202566208C
:108F20002020205261773A202025640A0D0000009D
:108F30002DE9FE4F074600244FF40045144E0DF175
:108F400004084FF6FF7A4FF0640BDFF848901BE0FF
:108F5000ADF804A0002229463046F9F733FB01237F
:108F600008F1020201A90B48CDF800B0F9F76EFF35
:108F70004FEA090090F851100229FBD0012229463E
:108F80003046F9F71FFB641CBC42E1DBBDE8FE8FF5
:108F900000000240600D0020FFF7BEB91F490A68BB
:108FA000D36A00EE103AF8EE400AB6EE000A60EE20
:108FB000800AFCEEE00A10EE903AD3630A68D36AA6
:108FC00000EE903AF8EE600A60EE800AFCEEE00AED
:108FD00010EE903A53630968CA6A00EE902AF8EEE0
:108FE000600A20EE800ABCEEC00A10EE102A8A63E6
:108FF0009FED0B0A80ED250A80ED260A80ED100A10
:1090000080ED110A80ED120A80ED220A80ED210A1E
:1090100080ED150A80ED140A70470000B80D00209D
:109020000000000070B5274DA86806283DD2DFE893
:1090300000F0030A113C3D44E868002835D0BDE843
:109040007040FEF7C1BEE86800282ED0BDE8704031
:10905000FEF7DABBE86818B1FFF792F8002023E0CA
:10906000194C1A48D4F8A810C06881420DDD0028B8
:109070000BDD9FED170A84ED250A84ED260A84EDA9
:109080002F0A84ED300A84ED310A0F4800F0BEF853
:1090900094ED0C0A0F490C483034FEF74FFDA06FD9
:1090A000401CA0676868401C686070BDE8680028C4
:1090B000FBD0BDE87040FEF71DBFBDE87040FFF774
:1090C000F7BE000040000020C8080020B4040020C3
:1090D00000000000100C002000B52DED048B83B0C3
:1090E00041EC190BF7F71BFC41EC180B18EE100ABA
:1090F00018EE901A8DED008B002818BF0120084350
:1091000020F00040C0F17F6000F1E040C00F14D0BB
:1091100019EE101A19EE900A8DED009B002918BF68
:109120000121084320F00040C0F17F6000F1E040E1
:10913000C00F04BF0120FDF7FFF951EC180B03B07D
:10914000BDEC048B00BD000070B514462DED088BFE
:10915000F0EE619AB0EE41AAF0EE60AAB0EE408A5D
:109160000D460646B0EE691AF0EE4A0AB0EE6A0AFB
:10917000FFF7BDF8F0EE408AB0EE691AF0EE4A0A49
:10918000B0EE6A0AFFF79EF838EE800AF6EE008A23
:1091900020EE289A7AEEC90ADFED1AAA80EE880A34
:1091A000F0EE6A0A30EE280AFBF772FE9FED16BA5F
:1091B000F0EE4B0AFBF774FE7AEE490A86ED000AE0
:1091C00080EE880AF0EE6A0A30EE280AFBF760FEAD
:1091D000F0EE4B0AFBF764FE85ED000A39EEC90A92
:1091E000C0EE080A30EEA80AF0EE6A0AFBF750FE5D
:1091F000F0EE4B0AFBF754FE84ED000ABDEC088B41
:1092000070BD0000CDCC4C3D3333733F1C499FED06
:109210001B4AD0ED0B3A4968D0ED2D2A90ED2F2A4C
:10922000D0ED0D1A90ED2E1AD0ED300A90ED310AE6
:10923000042902DB9FED133A01E0B2EE083AC3EED7
:10924000834A72EEE42A22EE822AC1EE832A31EEAC
:10925000621A00EE812A72EE000A80EE830ADFEDC8
:109260000A0A20EE200AF3EE0C0A80ED260A80EDB1
:10927000254ABBEE0C0A9830FFF7C8B80000000082
:10928000B404002048E192418FC2554101EE100A1A
:1092900070EEC00A0120B8EEC11A8840401E21EECF
:1092A000201A00EE900AF8EEE01AC1EE210A30EE24
:1092B000800A70470FB4102110B52DED048B82B0D9
:1092C0009FED258ADDF821000090DFED248ADDF88E
:1092D000250001901C9CBDF80000F0EE480AB0EE9D
:1092E000680AFFF7D3FF84ED2D0ABDF802000E21B6
:1092F000C0F30D00DFED1A0A9FED1A0AFFF7C6FF53
:1093000084ED2E0A9FED199ABDF803000A21800909
:10931000DFED150AB0EE490AFFF7B8FF84ED2F0A1A
:109320009DF805000821DFED120AB0EE490AFFF7AB
:10933000ADFF84ED300ABDF806001021F0EE480ABA
:10934000B0EE680AFFF7A2FF84ED310A02B0BDEC6F
:10935000048B10BC5DF814FB0000C8420000C8C2BA
:1093600000803B4400803BC400007A4400000000C1
:10937000000048422DE9F04799489A4F01252DED0C
:10938000028B0024007882B0A7F110081B280CD1B2
:10939000C8F80840C8F80C5088F8014088F8004028
:1093A00000217C54491C0829FBDBD8F808109FEDEC
:1093B0008E8A8E4EDFF838A2B9B1D8F80810042989
:1093C00068D0D8F80810052976D0D8F808100229F6
:1093D00006D1642804D1874880ED268A80ED258A4D
:1093E00002B0BDEC028BBDE8F0876D2827D005DC0C
:1093F000632821D06528F3D1052026E0732823D0E7
:109400007A28EDD1B0EE480AFBF73AF87A489FED9A
:109410007B0AFAF71FFF1420F8F7CCFFF8F776F86D
:1094200086ED010ADAF8100000909AE80F00544621
:10943000FFF73BFD60B10EE0C8F8085001E00220E4
:1094400003E0C8F80C50CBE70420C8F80800F8E7A0
:109450006748FFF723FD6648FFF7C4FC6448FFF741
:10946000BDFC2069009094E80F00FFF7EBFC96ED3F
:10947000010AFBF705F87068F7F7AAF802B041ECAB
:10948000100BBDEC028B53EC102BBDE8F0475CA039
:10949000FBF78CBC0D2810D098F80110002975D06E
:1094A000394401F8010C6049FFF776FD98F8010096
:1094B000401C88F8010093E78DE0C14698F8001041
:1094C000DFF868816C2938D006DC622915D066295E
:1094D00048D0692904D124E06D2928D0742956D0B8
:1094E00053A0FBF763FCDAF8100000909AE80F0035
:1094F0005646FFF7DAFCA0B352E03A48FBF7ACFC63
:1095000051EC100BF7F777F800EE100ADFED520A76
:10951000FBF7C6FCDFED510AFBF7BAFC86ED020A49
:10952000E1E73048F6F7BFFEC8F80400DBE72D4856
:10953000F6F7B9FEC8F80800D5E72A48FBF78CFC17
:1095400051EC100BF7F757F800EE100ADFED440A64
:10955000FBF7A6FCF0EE480AFBF79AFC86ED030A3F
:10956000C1E71AE01F48FBF777FC51EC100BF7F747
:1095700042F800EE100ADFED3B0AFBF791FCF0EE3B
:10958000480AFBF785FC86ED060AACE720E01548A3
:10959000F6F789FEC8F80C00A5E71548FFF77EFC32
:1095A0001348FFF71FFC1248FFF718FC30690090C2
:1095B00096E80F00FFF746FCC9F80C5089F8014007
:1095C00089F8004000203C54401C0828FBDB07E7DA
:1095D00088F8000067E71B28F9D1C8F8084030E791
:1095E000590000205000002000000000B4030020BB
:1095F000B4080020C80800208000002017B7D13729
:109600000A0D20205361766564206E6577207A65A7
:10961000726F20706F736974696F6E3A2020252E07
:1096200034660A0D0A0D000070000020B40400200A
:109630000A0D2027256327204E6F74206120766154
:109640006C696420636F6D6D616E64207072656615
:1096500069780A0D0A0D00000000FA440000C842B3
:1096600000002042000004422DE9F04780462848CF
:1096700089460026016835464FF48067CA6A00EEC5
:10968000102AF8EE400AB6EE000A60EE800AFCEE00
:10969000E00A10EE902A4A630168CA6A00EE902A36
:1096A000F8EE600A60EE800AFCEEE00A10EE902A06
:1096B0008A630068C16A00EE901AF8EE600A20EE34
:1096C000800ABCEEC00A10EE101AC16300241148D3
:1096D000F8F736F81048F8F733F80120F8F74EFE9F
:1096E00001210D48F8F70EF8054401210948F8F763
:1096F00009F8641C0644BC42E9DB96FBF7F1C8F8A4
:10970000001095FBF7F1C9F80010BDE8F0870000E4
:10971000B80D0020600C0020A80C00200000000004
:109720002975493CDF6EC93C6F0E173D3160493DDC
:109730008FA97B3D38F4963D6B0EB03D4721C93D66
:109740005E2EE23DEC2FFB3D7F130A3E698C163EF8
:1097500076FD223EA5662F3E97CA3B3E4A29483EEB
:10976000807D543EDAC9603E560E6D3EF54A793E24
:109770003CBD823E0FD1883EA4DF8E3EFBE8943E86
:10978000C4EB9A3EFFE7A03EFCDEA63E6CCFAC3EAB
:109790004EB9B23EA29CB83E1878BE3EB24BC43E13
:1097A000BD18CA3EECDDCF3EED99D53E614FDB3EA4
:1097B00059FAE03EC39EE63EB038EC3E71C9F13E38
:1097C0005452F73EBBD0FC3E5322013FB2D7033F79
:1097D000D387063FB532093F5AD80B3FC0780E3FBA
:1097E0004013113F82A8133FDF37163F55C1183F82
:1097F000E5441B3F8FC21D3F543A203F8AAB223FB6
:10980000DB16253F9E7B273FD3D9293F7B312C3F59
:10981000ED812E3F79CC303FD00F333FF14B353FB8
:109820008481373FE2AF393F0AD73B3FFDF63D3FEA
:10983000130F403F9B20423F9E29443F132C463F3D
:109840000326483FBD184A3F9B034C3FF3E54D3F7D
:1098500016C14F3FB493513F745E533F5721553F5C
:109860000EDB563F8F8D583FE3365A3FB2D75B3FF2
:10987000A4705D3F69005F3F5188603F0C07623F05
:109880009A7C633FA3E9643F274E663F7EA9673F0A
:1098900050FC683F4E456A3FC6856B3F12BD6C3F2A
:1098A00031EB6D3F23106F3F412B703FD93D713F2E
:1098B0009D46723F3546733F9F3C743F3529753F47
:1098C0009E0C763F32E6763F9AB6773F2C7D783F06
:1098D000EB39793F7CED793F39977A3F22377B3FEF
:1098E00036CD7B3F75597C3F87DC7C3F1D557D3FE6
:1098F00087C47D3F74297E3F34857E3F77D67E3F87
:109900008E1E7F3F295C7F3FEF8F7F3F88BA7F3F6E
:10991000A5DA7F3FEDF07F3F61FD7F3F0000803F94
:1099200023F87F3F19E77F3F92CB7F3F37A67F3FEA
:10993000AF777F3FAB3E7F3FD2FB7E3F25AF7E3F81
:10994000A3587E3F4DF87D3F228E7D3F221A7D3FFA
:109950004E9C7C3FA5147C3F27837B3FD5E77A3F15
:1099600057437A3F0395793FDBDC783FDF1A783F36
:10997000B54F773FB77A763FE59B753FE5B3743FC8
:10998000B9C2733FB9C7723F8BC3713F31B6703FE5
:10999000029F6F3FA67E6E3F1D556D3F68226C3F54
:1099A00086E66A3F1FA2693FE353683F22FD663F98
:1099B000349D653F1A34643F22C3623F5648613F7D
:1099C000ACC55F3FD6395E3F7AA55C3F9A085B3FE6
:1099D0003563593F4AB5573F82FF553F8E40543F4C
:1099E000637A523FB4AB503F80D44E3F6FF54C3F4B
:1099F000280F4B3F5C20493FB329473FD42B453FBD
:109A00001826433F7E18413FB0033F3FABE73C3F42
:109A100072C43A3F5B99383FB667363FDC2E343F1D
:109A2000CCEE313F2FA82F3F5C5A2D3FFB052B3F3B
:109A30000DAB283F9049263F2EE2233F9773213FED
:109A400019FF1E3FB6841C3FC5031A3F957D173F83
:109A5000D8F0143FDD5E123FFCC60F3F35290D3FA5
:109A60002F860A3FECDD073F6A30053FAA7D023FA3
:109A7000598BFF3E3012FA3E8A8EF43E0803EF3EC9
:109A8000096DE93EDDCDE33E8525DE3E4F75D83ECE
:109A90003CBDD23EFCFBCC3EDF32C73E3563C13E0F
:109AA0005D8ABB3E47ACB53E05C5AF3E84D8A93EF6
:109AB00075E5A33E89EA9D3E60EA973EF7E4913E54
:109AC00002D98B3ECEC7853EB7627F3EF52D733EF1
:109AD000B7EE663EFDA45A3E65534E3EF0F9413E58
:109AE0003D9B353E0E32293EA0C31C3EF44F103E36
:109AF0000AD7033EC4B1EE3DB9A5D53DA298BC3D01
:109B00001B82A33D49658A3D6685623DD637303D5F
:109B1000F7C7FB3CC615973C5374C93B5374C9BB8C
:109B2000C61597BCF7C7FBBCD63730BD668562BD8E
:109B300049658ABD1B82A3BDA298BCBDB9A5D5BD90
:109B4000C4B1EEBD0AD703BEF44F10BEA0C31CBE05
:109B50000E3229BE3D9B35BEF0F941BE65534EBE67
:109B6000FDA45ABEB7EE66BEF52D73BEB7627FBECA
:109B7000CEC785BE02D98BBEF7E491BE60EA97BE20
:109B800089EA9DBE75E5A3BE84D8A9BE05C5AFBE52
:109B900047ACB5BE5D8ABBBE3563C1BEDF32C7BE52
:109BA000FCFBCCBE3CBDD2BE4F75D8BE8525DEBE0B
:109BB000DDCDE3BE096DE9BE0803EFBE8A8EF4BEBB
:109BC0003012FABE598BFFBEAA7D02BF6A3005BFB4
:109BD000ECDD07BF2F860ABF35290DBFFCC60FBFBE
:109BE000DD5E12BFD8F014BF957D17BFC5031ABF45
:109BF000B6841CBF19FF1EBF977321BF2EE223BF7F
:109C0000904926BF0DAB28BFFB052BBF5C5A2DBF6B
:109C10002FA82FBFCCEE31BFDC2E34BFB66736BFC6
:109C20005B9938BF72C43ABFABE73CBFB0033FBFDC
:109C30007E1841BF182643BFD42B45BFB32947BF69
:109C40005C2049BF280F4BBF6FF54CBF80D44EBF7F
:109C5000B4AB50BF637A52BF8E4054BF82FF55BF32
:109C60004AB557BF356359BF9A085BBF7AA55CBF39
:109C7000D6395EBFACC55FBF564861BF22C362BF65
:109C80001A3464BF349D65BF22FD66BFE35368BFCD
:109C90001FA269BF86E66ABF68226CBF1D556DBFF3
:109CA000A67E6EBF029F6FBF31B670BF8BC371BF00
:109CB000B9C772BFB9C273BFE5B374BFE59B75BFC7
:109CC000B77A76BFB54F77BFDF1A78BFDBDC78BFD6
:109CD000039579BF57437ABFD5E77ABF27837BBF08
:109CE000A5147CBF4E9C7CBF221A7DBF228E7DBFF7
:109CF0004DF87DBFA3587EBF25AF7EBFD2FB7EBF90
:109D0000AB3E7FBFAF777FBF37A67FBF92CB7FBF12
:109D100019E77FBF23F87FBF000080BF61FD7FBFD1
:109D2000EDF07FBFA5DA7FBF88BA7FBFEF8F7FBF1F
:109D3000295C7FBF8E1E7FBF77D67EBF34857EBFF6
:109D400074297EBF87C47DBF1D557DBF87DC7CBF66
:109D500075597CBF36CD7BBF22377BBF39977ABF21
:109D60007CED79BFEB3979BF2C7D78BF9AB677BF90
:109D700032E676BF9E0C76BF352975BF9F3C74BF17
:109D8000354673BF9D4672BFD93D71BF412B70BF31
:109D900023106FBF31EB6DBF12BD6CBFC6856BBFAB
:109DA0004E456ABF50FC68BF7EA967BF274E66BF9D
:109DB000A3E964BF9A7C63BF0C0762BF518860BF90
:109DC00069005FBFA4705DBFB2D75BBFE3365ABF07
:109DD0008F8D58BF0EDB56BF572155BF745E53BFE2
:109DE000B49351BF16C14FBFF3E54DBF9B034CBFAA
:109DF000BD184ABF032648BF132C46BF9E2944BF47
:109E00009B2042BF130F40BFFDF63DBF0AD73BBFAB
:109E1000E2AF39BF848137BFF14B35BFD00F33BFBD
:109E200079CC30BFED812EBF7B312CBFD3D929BF78
:109E30009E7B27BFDB1625BF8AAB22BF543A20BFCB
:109E40008FC21DBFE5441BBF55C118BFDF3716BF0A
:109E500082A813BF401311BFC0780EBF5AD80BBFE2
:109E6000B53209BFD38706BFB2D703BF532201BFA4
:109E7000BBD0FCBE5452F7BE71C9F1BEB038ECBEC7
:109E8000C39EE6BE59FAE0BE614FDBBEED99D5BE7A
:109E9000ECDDCFBEBD18CABEB24BC4BE1878BEBE84
:109EA000A29CB8BE4EB9B2BE6CCFACBEFCDEA6BEA4
:109EB000FFE7A0BEC4EB9ABEFBE894BEA4DF8EBE53
:109EC0000FD188BE3CBD82BEF54A79BE560E6DBE2E
:109ED000DAC960BE807D54BE4A2948BE97CA3BBEDF
:109EE000A5662FBE76FD22BE698C16BE7F130ABE04
:109EF000EC2FFBBD5E2EE2BD4721C9BD6B0EB0BD90
:109F000038F496BD8FA97BBD316049BD6F0E17BD7A
:109F1000DF6EC9BC297549BC0000000000000000CC
:109F20000000000001020304060708090000000009
:109F3000010203040000000004FA97999999D93F9F
:109F4000AF788E1DC571CC3F9FC678D0099AC33FAC
:109F5000935555555555E53F599322942449D23F81
:109F6000DE03CB966446C73F44523EDF12F1C23F48
:109F7000000000000000F03F000000000000F83F7B
:109F800000000000000000000000004003B8E23FB5
:109F9000000000000000000006D0CF43EBFD4C3E67
:109FA000033333333333E33FFFAB6FDBB66DDB3F5C
:109FB0004D268F515555D53F01411DA96074D13FA4
:109FC00065DBC9934A86CD3FEF4E454A287ECA3F9E
:109FD0003E5555555555C53F93BDBE166CC166BF20
:109FE0002CDE25AF6A56113FF16BD2C541BDBBBE19
:109FF000D0A4BE726937663E000000000000000079
:10A00000000000006E83F9A22915444ED15727FCA9
:10A01000C0DD34F5999562DB4190433CAB6351FE62
:10A02000004040404040404040404141414141406B
:10A030004040404040404040404040404040404020
:10A0400040050202020202020202020202020202AF
:10A0500002202020202020202020200202020202B4
:10A06000020290909090909010101010101010100C
:10A070001010101010101010101010100202020218
:10A08000020288888888888808080808080808085C
:10A090000808080808080808080808080202020258
:10A0A0004000000021A000080A0D20546F206368C2
:10A0B000616E676520612076616C75652C2074790E
:10A0C00070652027707265666978272776616C75E0
:10A0D000652727454E544552270A0D20692E652EC7
:10A0E000202762313030302727454E544552270A09
:10A0F0000D0A0D0014A100080000002080000000DF
:10A100001865000894A100088000002058CE0000C7
:10A1100028650008000000080040000800800008D2
:10A1200000C0000800000108000002080000040848
:10A1300000000608000000000800000010000000F9
:10A140001800000020000000300000003000000077
:10A1500038000000000000000000000000000000C7
:10A1600000000000000000000000000000000000EF
:10A1700000000000010000001000000000000000CE
:10A180000024F400000000000000000000000000B7
:04A1900000000000CB
:04000005080001C529
:00000001FF
