:020000040800F2
:10000000182E012035100008910E0008930E0008EC
:10001000950E0008970E0008990E000800000000D9
:100020000000000000000000000000009B0E00081F
:100030009D0E0008000000009F0E0008A10E0008A1
:100040004F1000084F1000084F1000084F10000814
:100050004F1000084F100008D55800084F10000836
:100060004F100008E55800084F1000084F10000816
:100070004F1000084F1000082B5A0008035A0008C0
:100080004F1000084F1000084F1000084F100008D4
:100090004F1000084F1000084F1000084F100008C4
:1000A0004F100008CF0300084F1000084F10000841
:1000B0004F100008F55800084F1000084F100008B6
:1000C0004F1000084F1000084F1000084F10000894
:1000D0004F100008FB0700084F1000084F100008E1
:1000E0009B5800084F1000084F1000084F100008E0
:1000F0004F1000084F1000084F1000084F10000864
:100100004F1000084F1000084F1000084F10000853
:100110004F1000084F1000084F1000084F10000843
:100120004F1000084F1000084F1000084F10000833
:100130004F1000084F1000084F1000084F10000823
:100140004F1000084F1000084F1000084F10000813
:100150004F1000084F1000084F1000084F10000803
:100160004F1000084F1000084F1000084F100008F3
:100170004F1000084F1000084F1000084F100008E3
:100180004F1000084F100008DFF80CD00AF0BAF941
:10019000004800478B0A0008182E012010B5BE4CFD
:1001A0002021204601F04CFDBCA00AF03FFCBDA080
:1001B0000AF03CFC0A2003F0D6FBBEA00AF036FC95
:1001C0000A2003F0D0FBC0A00AF030FC0A2003F0A4
:1001D000CAFBC4A00AF02AFC0A2003F0C4FBC5A095
:1001E0000AF024FC0A2003F0BEFBC8A00AF01EFCA3
:1001F0000A2003F0B8FBCCA00AF018FC0A2003F098
:10020000B2FBCF4A0021D1602046BDE81040012159
:1002100001F016BD7FB5CBA00AF008FC0A2003F060
:10022000A2FBD0A0D3A1CDE90010D3A3D3A2D6A125
:10023000D7A00AF0FBFB0A2003F095FBDC4CA0687A
:1002400009F0E1FDCDE90201DAA00090DBA3DCA218
:10025000E1A1E2A00AF0EAFB0A2003F084FB04F526
:100260008075E6A16868E6A3CDE90010E5A2E7A1E4
:10027000E7A00AF0DBFB0A2003F075FBA868DFA10A
:10028000CDE90010DEA3EAA2EDA1E1A00AF0CEFBC9
:100290000A2003F068FBE06809F0B5FDCDE9020132
:1002A000E8A00090E9A3EAA2EEA1CCA00AF0BEFB70
:1002B0000A2003F058FBA06909F0A5FDCDE9020171
:1002C000E9A00090E1A3EAA2EFA1C4A00AF0AEFB6E
:1002D0000A2003F048FBE868ECA1CDE90010C8A3B0
:1002E000ECA2F4A1F4A00AF0A1FB0A2003F03BFB6E
:1002F000F8480AF09BFB0A2003F035FB90490020E8
:10030000C8607FBD70B5644E2021304601F096FC78
:10031000F14C0025C4F8A050204603F0FBFC01205E
:1003200003F04FFB9FEDED0A84ED210A84ED220AD4
:100330000121304601F082FC8148C560BDE8704073
:10034000E7A00AF073BB10B5534C2021204601F002
:1003500075FC0121204601F071FCDF49E74803F0FC
:10036000BDFEDD49E54804F03DF80121204601F0DD
:1003700067FCC82003F025FBE1A00AF057FB202111
:10038000204601F05DFC6E490020C86010BDFEB53E
:1003900004F056FF064604F04DFF10EE100A09F077
:1003A00032FD0D46044604F01FFF10EE100A09F05E
:1003B0002AFD41EC100B8DE8700053EC102BDFA0F0
:1003C0000AF034FBBDE8FE40012003F0FABA2DE943
:1003D000F0412DED028BE94E308A4FF00007C00747
:1003E00049D0E748816841F080418160D0F84C11E4
:1003F000B94C6160C16C2160D0F84C02A060BF486C
:100400009FEDE00A04F0F4FD04F014FF84ED080A07
:1004100004F0EAFE9FEDDC8A20EE080A84ED070A6C
:1004200004F00AFF20EE080A84ED090A04F006FF32
:1004300084ED0A0A94ED060ADFEDD40A20EE200AC4
:10044000D4ED020AF8EEE00A9FEDD11A60EE810ABF
:100450009FEDD01A00EE810A84ED060A384DA86897
:10046000062808D2DFE800F003080D071615E86833
:1004700008B1FFF793FEBBE1E86840B1FFF763FF07
:10048000B6E1E86820B1FFF73DFF6F60B0E1AFE192
:1004900082E1ABE1A5E10000000402400A0D0A0D73
:1004A0000A0D000020436F6D6D616E64733A0A0D92
:1004B00000000000206D202D204D6F746F72204DC4
:1004C0006F64650A0D0000002063202D2043616CDD
:1004D00069627261746520456E636F6465720A0DAE
:1004E000000000002073202D2053657475700A0DE4
:1004F000000000002065202D20446973706C617934
:1005000020456E636F6465720A0D0000207A202D0D
:1005100020536574205A65726F20506F7369746937
:100520006F6E0A0D0000000020657363202D2045CA
:1005300078697420746F204D656E750A0D00000097
:10054000000000200A0D0A0D20436F6E6669677572
:10055000726174696F6E204F7074696F6E73200AD8
:100560000D0A0A0063757272656E742076616C758F
:10057000650000006D6178006D696E0070617261E8
:100580006D657465720000007072656669780000C0
:1005900020252D347320252D33317320252D3573DF
:1005A00020252D367320252D32730A0D0A0D0000EB
:1005B000900A00203230303000000000313030002E
:1005C00043757272656E742042616E6477696474FB
:1005D000682028487A2900006200000020252D3478
:1005E0007320252D33317320252D357320252D368D
:1005F0007320252E31660A0D0000000031323700CD
:100600003000000043414E204944000069000000D2
:1006100020252D347320252D33317320252D35735E
:1006200020252D367320252D35690A0D0000000088
:1006300043414E204D6173746572204944000000AF
:100640006D00000034302E3000000000302E3000ED
:1006500043757272656E74204C696D69742028410F
:10066000290000006C00000033332E300000000031
:1006700046572043757272656E74204C696D6974BB
:100680002028412900000000660000003130303091
:100690003030000043414E2054696D656F75742001
:1006A000286379636C6573292830203D206E6F6E56
:1006B000652900007400000020252D347320252DAD
:1006C00033317320252D357320252D367320256475
:1006D0000A0D000048DB0008900F00200000000019
:1006E0000A0D20456E746572696E67204D6F746FD8
:1006F00072204D6F6465200A0D000000A0120020DA
:100700000A0D2043616C6962726174696F6E2063C7
:100710006F6D706C6574652E202050726573732048
:10072000276573632720746F2072657475726E205D
:10073000746F206D656E750A0D000000204D6563B5
:1007400068616E6963616C20416E676C653A202058
:10075000256620202020456C656374726963616C96
:1007600020416E676C653A202025662020202052AB
:1007700061773A202025640A0D0000000000014046
:100780000020014017B7D137F1F0F03C3333733F0D
:10079000CDCC4C3D3333533CFD48D4F89810C06861
:1007A00081420DDD00280BDD1FED340A84ED210AA6
:1007B00084ED220A84ED2B0A84ED2C0A84ED2D0AA7
:1007C000F44803F051FC2034F34994ED000AF14859
:1007D00003F0EBFAA06F401CA0676868401C6860DB
:1007E00006E0E86820B1FFF715FD01E0FFF7CFFD57
:1007F0003782BDEC028BBDE8F0812DE9F0472DED8D
:10080000028BE6480188890633D58088C4B2E44F5C
:1008100001250026A7F110081B2C10D1C8F808608C
:10082000C8F80C5088F8016088F800600121DD48A4
:1008300001F006FA00217E54491C0829FBDBD8F898
:1008400008001FED5A8ADFF86093B0B1D8F80800AD
:10085000042863D0D8F80800052872D0D8F808001A
:10086000022806D1642C04D1CA4880ED228A80ED8A
:10087000218ABDEC028BBDE8F0876D2C27D009DC06
:10088000632C1FD0652CF4D10520C8F80800C8F8E7
:100890000C50EEE7732C20D07A2CEAD1B0EE480A47
:1008A00004F0D4FCC1481FED490A04F0A1FB142058
:1008B00003F059F804F098FC89ED010A04F0E4FC17
:1008C00088B112E0C8F80850C8F80C50D1E70220EF
:1008D000C8F80800C8F80C50CBE70420C8F8080096
:1008E000C8F80C50C5E704F0CCFC04F0D0FC04F0D0
:1008F00010FD04F0EDFC99ED010A04F0A7FCD9F815
:10090000040009F080FABDEC028B41EC100BBDE84D
:10091000F04753EC102BA6A00AF088B80D2C11D08C
:1009200098F80100002871D0384400F8014CAA4919
:1009300020460BF07BFF98F80100401C88F801006E
:1009400097E77BE098F80010914C6C2930D006DCDA
:1009500062290FD0662940D0692904D11EE06D2993
:1009600021D074294DD09DA00AF060F804F08CFCD1
:1009700090B34EE08A480AF09BF851EC100B09F056
:100980006DFA00EE100ADFED9F0A04F0DAF9DFEDF0
:100990009E0A04F0CEF989ED020AE7E7804809F0E3
:1009A0007EF96060E2E77E4809F079F9A060DDE752
:1009B0007B480AF07DF851EC100B09F04FFA00EE7D
:1009C000100ADFED920A04F0BCF9F0EE480A04F0D8
:1009D000B0F989ED030AC9E719E071480AF068F82F
:1009E00051EC100B09F03AFA00EE100ADFED880A1C
:1009F00004F0A7F9F0EE480A04F09BF989ED060A25
:100A0000B4E7674809F04BF9E060AFE713E004F0A2
:100A100038FC04F03CFC04F07CFC04F059FCC8F801
:100A20000C5088F8016088F8006000203E54401C9B
:100A30000828FBDB1DE788F8004078E71B2CF9D17C
:100A4000C8F80860C8F80C5013E710B5A82002F0E9
:100A500077FFBDE8104002F0C3BD10B502F0E8FE1C
:100A600002F046FE02F063FF02F036FD4FF4612013
:100A700002F0CCFD0A2002F0A4FF66A009F0D6FF28
:100A8000BDE810406EA009F0D1BF2DE9F0412DED79
:100A9000028BADF5007DFFF7D8FFFFF7DEFF0A20E0
:100AA00002F08FFF9FED720A3A4F87ED060A4FF072
:100AB0000008C7F89C80062004F0E0FB3B4A0721B1
:100AC0001FEDFA8A4FF48040B0EE480A04F076FA3F
:100AD0000A2002F076FF334C2021204601F0AEF8C8
:100AE000644A40F63401D163916351630A2002F0F5
:100AF00068FF07F18001081F03F0A5F820212046B8
:100B000001F09EF8384603F005F9234803F01DF97B
:100B10000A2002F056FF584880F8008404F0D8FB01
:100B2000214D286800F03DF908B185ED008A68681C
:100B300000F037F908B185ED018AA86800F031F9B5
:100B40004E4C50B9D5ED020A10EE900AA04204D0E6
:100B5000F5EEC00AF1EE10FA03D19FED490A85EDDA
:100B6000020AE86800F01DF950B9D5ED030A10EE4D
:100B7000900AA04204D0F5EEC00AF1EE10FA03D1BB
:100B80009FED220A85ED030AA86900F00AF979E0D1
:100B9000900B0020900F0020501200200010014008
:100BA0001000002000040240900A0020A012002043
:100BB0000A0D20205361766564206E6577207A6582
:100BC000726F20706F736974696F6E3A2020252EE2
:100BD00034660A0D0A0D00007C0A00200A0D202749
:100BE000256327204E6F7420612076616C69642034
:100BF000636F6D6D616E64207072656669780A0D51
:100C00000A0D00000000FA440000C8420000204223
:100C100000000442205468652073797374656D2068
:100C2000696E697469616C697A6174696F6E206953
:100C30007320636F6D706C657465200A0D00000091
:100C40002054686520686172647761726520696EFE
:100C5000697469616C697A6174696F6E2069732067
:100C6000636F6D706C657465200A0D0A0D000000DD
:100C70006666E6410000014019E000E0000080BF28
:100C800000007A4410B9A869A04201D185ED068A16
:100C9000474C94ED010AB8EEC00A10EE100A00F0BD
:100CA00080F8012610B96068401C00D1666094EDA0
:100CB000020AB8EEC00A10EE100A00F072F810B97D
:100CC000A068401C01D1C4F8088094ED030AB8EE76
:100CD000C00A10EE100A00F064F810B9E068401C79
:100CE00001D1C4F80C8095ED000A04F0ADFA95ED41
:100CF000010A04F0ABFA4FF40071684608F0BDFF3A
:100D00002B4980221431684608F09EFF684604F0A3
:100D1000A1FA284802F0C4FF0A2002F052FE26A0E1
:100D200009F084FE29A12AA009F080FED7E91F124C
:100D30002DA009F07BFE286809F065F841EC100B46
:100D400033A053EC102B09F071FE686809F05BF8D2
:100D500041EC100B3AA053EC102B09F067FE9FED0D
:100D6000400B41A053EC102B09F060FE4448C660D4
:100D700004F038FD05F0E7F908F02EF84149424843
:100D800008F08BFD414C267005F0EAF92078012827
:100D9000FAD008F0BBF904F05CFD00200DF5007DF1
:100DA00027E520F00040C0F1FF40C00F7047000071
:100DB000900B0020900F00200A0D2044656275679B
:100DC00020496E666F3A0A0D00000000312E300097
:100DD000204669726D776172652056657273696F1E
:100DE0006E3A2025730A0D002041444331204F669E
:100DF000667365743A2025642020202041444332E4
:100E0000204F66667365743A2025640A0D00000061
:100E100020506F736974696F6E2053656E736F72C3
:100E200020456C656374726963616C204F666673FC
:100E300065743A202020252E34660A0D000000003B
:100E4000204F7574707574205A65726F20506F73DF
:100E50006974696F6E3A2020252E34660A0D0000F1
:100E6000000000000000414020476561722072616F
:100E700074696F3A2020252E31660A0D0A0D000094
:100E800000000020D6020020D4020020A002002092
:100E90007047FEE7FEE7FEE7FEE7704770477047E2
:100EA000704700000CB50022019200925849086872
:100EB00040F4803008604FF4A043086800F400302C
:100EC00000900198401C0190009810B90198984238
:100ED000F3D10868800302D50120009000E0009261
:100EE0000098012831D14A484030026842F08052CF
:100EF00002604848026842F44042026044480830B8
:100F000002680260026842F400420260026842F431
:100F1000A0520260021F404B13600A6842F08072C8
:100F20000A600A689201FCD53C4A40F205711160E2
:100F3000016821F003010160016841F002010160D4
:100F40000168C1F381010229FAD10CBD10B5344802
:100F5000016841F4700101602D48016841F0010110
:100F600001602B4A00210832116002682D4B1A40A3
:100F70000260031D2C4A1A60026822F4802202607B
:100F800023480C300160FFF78DFF25494FF00060CA
:100F90008039086010BD70B51D4E0836306800F00D
:100FA0000C00224B224900280FD05D1004280ED0DF
:100FB00008280ED00B6030681D4AC0F30310121DC4
:100FC000105C0A68C2400A6070BD0B60F3E70D60F8
:100FD000F1E70F4A121D1068C0F38054106800F04A
:100FE0003F0034B1B5FBF0F01368C3F388135843E6
:100FF00005E0B3FBF0F01368C3F38813584312689D
:10100000C2F30142521C5200B0FBF2F00860D2E77A
:10101000003802400070004008544007003C024085
:1010200088ED00E0FFFFF6FE103000240024F400FD
:10103000180000200648804706480047FEE7FEE704
:10104000FEE7FEE7FEE7FEE7FEE7FEE7FEE7FEE778
:101050004D0F0008890100082B4908432B490860FF
:10106000704730B50F23C27801250178002A1FD0C0
:10107000264A126802F4E062C2F5E062C2F3072277
:10108000C2F10404D3404278A24084781C40144347
:10109000220101F1E02181F80024007800F01F0115
:1010A0008D404009800000F1E020C0F8005130BDC3
:1010B00001F01F0085404809800000F1E020C0F8E1
:1010C000805130BD124A114001431048001F016099
:1010D00070470E4A121D002903D0116801431160A8
:1010E000704711688143116070474FF0E021042878
:1010F00004D0086920F0040008617047086940F0D6
:1011000004000861704700000000FA050CED00E0E3
:1011100080FFFF1F2DE9F043016821F0010101600C
:101120000021016041608160C16001612121416154
:10113000C149C14A10394FF03D08904203D1C1F86E
:101140000880BDE8F083BC4A4FF4746518329042C1
:1011500001D18D60F5E7B84A4FF4741630329042F1
:1011600001D18E60EDE7B44A4FF074674832904287
:1011700001D18F60E5E7B04BB04A6033984201D1AE
:10118000CA60DEE7AC4CAE4B7834A04201D1CB60F4
:10119000D7E7DFF8A4C2AB4C0CF1900C604501D14D
:1011A000CC60CEE7DFF890924FF03D5C09F1A809E2
:1011B000484502D1C1F80CC0C3E7A349DFF88892C3
:1011C0000839484502D1C1F80080BAE7DFF87882D3
:1011D00008F11808404501D10D60B2E79A4D30354D
:1011E000A84201D10E60ACE7974D4835A84201D125
:1011F0000F60A6E7944D94496035091FA84201D1BC
:101200000A609EE7904A7832904201D10B6098E7DD
:101210008D4A9032904201D10C6092E78A4AA832FE
:1012200090428ED1C1F800C08BE730B50368874A81
:101230001340CC680A682243D1E905452C43224378
:10124000CC6922430C6A22434C6A22438C6A2243B3
:101250004C6B22438C6B22431A430260426922F09A
:101260000703D1E90B2422431A4342610A69426011
:101270004A6882608968C16030BD002101604160B8
:101280008160C160016141618161C161016241624E
:101290008162C1620163416381637047002904D0A8
:1012A000016841F0010101607047016821F001010E
:1012B00001607047002904D0016841F400410160D9
:1012C0007047016821F4004101607047002904D093
:1012D000016841F0200101607047016821F02001A0
:1012E0000160704741607047406880B27047002AD3
:1012F00004D0026842F40022026003E0026822F493
:101300000022026001617047002904D0016841F4A5
:10131000802101607047016821F4802101607047DD
:10132000002A01D001617047C1607047014600206A
:101330000968090300D501207047014600200968AB
:10134000C90700D001207047406900F0380070479D
:10135000024600203C4B9A4202D2374A103A01E042
:10136000394A103A8B0001D5526800E01268384BB8
:101370001A400A4200D001207047334A904202D2FC
:101380002D48103801E030481038314A8B0001EA0E
:10139000020101D5C1607047816070470B0609D515
:1013A00022B1436943F08003436103E0436923F0C2
:1013B00080034361802905D001F01E011AB1026843
:1013C0000A430260704702688A430260704730B582
:1013D00000241D4A904202D2174A103A01E01A4AEC
:1013E000103A1C4B194205D01E2303EAD12503688D
:1013F0002B4002E0406900F08003880001D550686E
:1014000000E01068124A1040084201D003B10124E4
:10141000204630BD0C4A904202D20748103801E005
:10142000094810380A4A8B0001EA020101D5C1605F
:101430007047816070470000106002403D0000204E
:10144000400F002000003D20106402403F801CF04F
:101450007D0F7D0F3C0F3C0F354900200860091DB2
:101460000860091D0860091D0860314931481431C0
:101470000860704730B52E4A83790168002B2AD066
:1014800013688B431360111D0B680468A3430B6042
:10149000017911440B68046823430B60244C083421
:1014A0002168036899432160231D19680568A943D1
:1014B00019604179102905D011440A680068024377
:1014C0000A6030BD21680268114321601968006814
:1014D0000143196030BD0079104402688A430260FC
:1014E00030BD0021016001710C2242718171704791
:1014F0000F4910310A6802430A6070470146002014
:101500000B4A143212680A4200D001207047084981
:1015100014310860704701460020054A14321268F1
:101520000A4200D001207047014914310860704719
:10153000003C0140FFFF7F00F84908707047F74901
:10154000002804D0086840F480700860704708687C
:1015500020F4807008607047F049002804D00868C3
:1015600040F4007008607047086820F4007008605C
:101570007047EA49002804D0086840F48060086099
:101580007047086820F4806008607047E34801688D
:1015900041F4006101607047E048016841F4805106
:1015A00001607047DD4810300068002805DADB482C
:1015B000DB49001D0160DB4901607047D7481030EE
:1015C000016841F00041016070470920D3490C31A6
:1015D0000A68D20301D5012070470A68D20601D5F6
:1015E000062070470A68D20501D5022070470A68B4
:1015F00012F0EF0F01D00720704709688907FBD56B
:101600000820704708B509200090FFF7DEFF009022
:1016100002E0FFF7DAFF00909DF800000128F8D003
:101620009DF8000008BD70B506460025002905D0CC
:10163000012928D0022929D04FF44075FFF7E2FF95
:1016400009281FD1B54C1034206820F44070206068
:10165000206828432060206820F0F800206020687F
:1016600046F0020108432060206840F4803020608A
:10167000FFF7C8FF216821F002012160216821F0F5
:10168000F801216070BD4FF48075D7E74FF4007505
:10169000D4E730B504460025FFF7B4FF2CB1012C88
:1016A0001DD0022C1ED04FF44075092816D19B4C3A
:1016B0001034206820F440702060206828432060A7
:1016C000206840F004002060206840F480302060F2
:1016D000FFF798FF216821F00401216030BD4FF42D
:1016E0008075E2E74FF40075DFE730B5044600256A
:1016F000FFF788FF2CB1012C1DD0022C1ED04FF417
:101700004075092816D1854C1034206820F44070AB
:101710002060206828432060206840F0040020609A
:10172000206840F480302060FFF76CFF216821F0D2
:101730000401216030BD4FF48075E2E74FF400757D
:10174000DFE730B504460025FFF75CFF2CB1012C24
:101750001DD0022C1ED04FF44075092816D16F4CB5
:101760001034206820F440702060206828432060F6
:10177000206840F400402060206840F48030206001
:10178000FFF740FF216821F40041216030BD4FF494
:101790008075E2E74FF40075DFE7F0B507461546C0
:1017A0001E46FFF72FFF092815D15C4C1034206826
:1017B00020F440702060206840F440702060206871
:1017C00040F0010020603D607E60FFF71BFF216854
:1017D00021F001012160F0BD70B505460E46FFF70E
:1017E00011FF092814D14D4C1034206820F44070AA
:1017F0002060206840F400702060206840F0010004
:1018000020602E60FFF7FEFE216821F001012160BB
:1018100070BD70B505460E46FFF7F4FE092814D1D9
:101820003E4C1034206820F440702060206840F462
:1018300080702060206840F0010020602E80FFF75B
:10184000E1FE216821F00101216070BD70B50646FE
:101850000D46FFF7D7FE092812D1304C103420680E
:1018600020F44070206020682060206840F0010073
:1018700020603570FFF7C6FE216821F0010121606C
:1018800070BD264814300068C00705D0234826499B
:101890000830016025490160704720481430016814
:1018A00041F001010160704730B504460D46FFF775
:1018B000A9FE092805D1194816301DB10188A14398
:1018C000018030BD01882143018030BD30B5044620
:1018D0000D46FFF797FE092805D110481A301DB1B3
:1018E0000188A143018030BD01882143018030BDC2
:1018F0000A4A1732117801F07F01084310707047CF
:1019000030B504460D46FFF77DFE092805D1034892
:1019100016306DB101882143018030BD003C02408A
:1019200023016745AB89EFCD3B2A19087F6E5D4CDB
:101930000188A1430180F0E730B504460D46FFF76A
:1019400061FE0928E9D13E481DB10188214301808B
:10195000E3E70188A1430180DFE710B50446FFF704
:1019600051FE092802D13648401F047010BD70B5E1
:1019700005460C461646FFF745FE092808D1304AB1
:10198000921F107800F00F00044334432C4314706E
:1019900070BD2B49891F0A7822F010020A700A785C
:1019A00002430A7070472649891F0A7822F00C0208
:1019B0000A700A7802430A7070472148801F017834
:1019C00041F0020101701DE61D48801F0068C0F350
:1019D000471070471A48001F008870471848008851
:1019E00070471748001F00887047154800887047E7
:1019F00000201349491F0978AA2900D00120704707
:101A00000F48801F007800F00C0070470C4A0A3A1B
:101A1000002903D0116801431160704711688143A8
:101A20001160704701460020054A0E3A12680A42CA
:101A300000D00120704702490E390860704700004D
:101A40001A3C024010B58D49884209D1012108464F
:101A500000F0DBFA0021BDE81040012000F0D5BA0B
:101A60008749884209D10121022000F0CEFA0021E5
:101A7000BDE81040022000F0C8BA8249884209D16E
:101A80000121042000F0C1FA0021BDE8104004202B
:101A900000F0BBBA7C49884209D10121082000F03E
:101AA000B4FA0021BDE81040082000F0AEBA774932
:101AB000884209D10121102000F0A7FA0021BDE8D9
:101AC0001040102000F0A1BA7149884209D10121CB
:101AD000202000F09AFA0021BDE81040202000F0FC
:101AE00094BA6C49884209D10121402000F08DFA56
:101AF0000021BDE81040402000F087BA66498842C6
:101B000009D10121802000F080FA0021BDE81040B9
:101B1000802000F07ABA614988420AD184150121F7
:101B2000204600F072FA2046BDE81040002100F087
:101B30006CBA5B4988420AD144150121204600F065
:101B400064FA2046BDE81040002100F05EBA554915
:101B500088420AD104150121204600F056FA204699
:101B6000BDE81040002100F050BA10BD2DE9F04151
:101B7000002201274FF0030C07FA02F50B682B40F7
:101B8000AB422CD1066853000CFA03F4A64306605E
:101B90000E79D0F800809E4046EA080606600E796D
:101BA000012E01D0022E12D18668A64386604E799E
:101BB000D0F808809E4046EA080686604668AE4334
:101BC000466045688E799640B6B235434560C56833
:101BD000A543C560CC799C40C3681C43C460521CBB
:101BE000102AC9D3BDE8F0814FF6FF7101600021D2
:101BF000017141718171C171704708B541F4803242
:101C00000092009AC261C1610099C161C169C06955
:101C1000009008BD0246002012690A4200D001204F
:101C20007047006980B270470246002052690A423C
:101C300000D001207047406980B27047018370472F
:101C400041837047002A01D0018370474183704768
:101C50004161704742694A404261704710B54B0785
:101C6000DB0E9A40C90800EB8100016A0F249C40FA
:101C7000A1430162016A1143016210BD00000240EC
:101C80000004024000080240000C02400010024024
:101C90000014024000180240001C024000200240D4
:101CA0000024024000280240FA48016841F0010186
:101CB0000160F84A0021083211600268F64B1A40B0
:101CC0000260031DF54A1A60F24BF54A84331A602C
:101CD000F24A103A1B1D1A60026822F48022026048
:101CE000EC480C300160181D01607047E949002282
:101CF000891C0A70087070470246002051090129AA
:101D00000CD002290DD0E3497431096802F01F029A
:101D1000012393400B4200D001207047DD49096840
:101D2000F4E7DC4970310968F0E718B5002000904D
:101D30004FF4A0443120FFF7DFFF0099491C0091C8
:101D40000099A14201D00028F4D03120FFF7D4FF40
:101D500008B1012018BD002018BDCE4A116821F03D
:101D6000F80141EAC00010607047CE490860704732
:101D7000C849002270310A700A70012804D0042872
:101D800001D1052008707047012008707047C649CE
:101D90000860704710B5029C41EA82114FF0FF3293
:101DA00002EB530241EA0241014341EA0460B949AE
:101DB000091D086010BDBB4908667047800140EAF4
:101DC0000170B449843108607047B649886670472D
:101DD000800140EA0160AF4940EA02708831086042
:101DE0007047B04908677047AE49C8647047A94B4F
:101DF00008331A6822F0EC620843104318607047F9
:101E0000A44B08331A6822F0784208431043186044
:101E10007047A04A0832116821F0030101431160A4
:101E200070479C480830006800F00C007047994AE1
:101E30000832116821F0F001014311607047954AA2
:101E40000832116821F4E051014311607047914A52
:101E50000832116821F4604141EAC0001060704707
:101E600070B58C4B0833196801F00C018F4C0029B8
:101E70001ED0661004291DD008291DD004601968E1
:101E800001F0F00109098A4A545C0168E1404160AF
:101E90001C6804F4E054A40A145D21FA04F484607C
:101EA0001B6803F460435B0BD25CD140C16070BD22
:101EB0000460E4E70660E2E7764A121D1168C1F3A8
:101EC0008055116801F03F0135B1B6FBF1F114689E
:101ED000C4F38814614305E0B4FBF1F11468C4F362
:101EE000881461431268C2F30142521C5200B1FBD4
:101EF000F2F10160C3E7C0F30121032908D1654B6A
:101F00000833196821F4F8126A4901401143196035
:101F1000604A70321168C0F30B00014311607047D2
:101F200061494439086070475F494039086070472B
:101F3000614908607047574A8C32116821F01F01CF
:101F4000401E014311607047524A8C32116821F4DF
:101F5000F851401E41EA0020106070474D4A8C3213
:101F6000116821F44011014311607047494A8C32D5
:101F7000116821F44001014311607047454A8C32D9
:101F8000116821F440310143116070474B490860EA
:101F90007047404A3032002903D011680143116074
:101FA000704711688143116070473A4A3432002902
:101FB00003D01168014311607047116881431160BB
:101FC0007047344A3832002903D011680143116048
:101FD000704711688143116070472E4A40320029D2
:101FE00003D011680143116070471168814311608B
:101FF0007047284A4432002903D011680143116018
:1020000070471168814311607047224A10320029DD
:1020100003D011680143116070471168814311605A
:1020200070471C4A1432002903D011680143116023
:1020300070471168814311607047164A18320029B1
:1020400003D011680143116070471168814311602A
:102050007047104A2032002903D0116801431160F3
:10206000704711688143116070470A4A2432002981
:1020700003D01168014311607047116881431160FA
:102080007047044A503200291AD011680143116088
:102090007047000000380240FFFFF6EA10300024CD
:1020A0000030002000004742800E47420024F40028
:1020B0002C000020FFFCFF0F5C014742E01147426B
:1020C000116881431160E3E72E4A002903D01168AB
:1020D00001431160DCE7116881431160D8E7294AA8
:1020E000121D002903D0116801431160D0E7116867
:1020F00081431160CCE7234A0C32002903D01168D8
:1021000001431160C4E7116881431160C0E71D4AB3
:102110001032002903D0116801431160B8E711683B
:1021200081431160B4E717491C31012804D00868C5
:1021300020F008000860ABE7086840F0080008607D
:10214000A6E7104A473A002903D0117801431170DD
:102150009EE71178814311709AE70A4820300168A0
:1021600041F08071016093E701460020054A483A3A
:1021700012680A428CD001208AE702494639087069
:1021800086E700005438024010B5E14988420AD180
:10219000841401212046FFF768FF2046BDE8104067
:1021A0000021FFF762BFDB4988420AD104140121F4
:1021B0002046FFF74EFF2046BDE810400021FFF704
:1021C00048BFD54988420AD1C41301212046FFF7F0
:1021D00040FF2046BDE810400021FFF73ABFCF493D
:1021E00088420AD1441401212046FFF73EFF2046D1
:1021F000BDE810400021FFF738BFC94988420AD125
:1022000001210C052046FFF730FF2046BDE81040B5
:102210000021FFF72ABFC34988420AD101214C059A
:102220002046FFF722FF2046BDE810400021FFF7BF
:102230001CBF10BD30B5028802F441530A884C8897
:10224000CD8822438C882C4322430C8922434C891D
:1022500022438C892243CC8922431A430280828BF9
:1022600022F400628283098A018230BDF0B5022225
:1022700000230124858B4FF24006354085830225DB
:102280000584868B8D68022D42D08A8802B1022493
:10229000A54A13681B0203D5136823F400031360D7
:1022A000A14A7C321368C3F388131268C2F3027523
:1022B0009D4F3F1F3A6802F03F023F687F0206D5FC
:1022C0009A4FB7FBF2F25A43B2FBF5F205E0984F92
:1022D000B7FBF2F25A43B2FBF5F2CB88B3F5007FBD
:1022E0002BD06301B2FBF3F202EB82028B68520047
:1022F000B2FBF3F2521D92B20A23B2FBF3F202F0E8
:102300000103D21AC2F34F024FF6FF7404EA03230B
:10231000941EFE2C01D302220023CC881A431443BE
:1023200004840A884B881A438B8889890B431A4393
:10233000324342F400618183F0BD120A02EB820253
:102340008B685200B2FBF3F2521D92B2D4E7002127
:10235000018041808180C180018141818181C18171
:102360000721018270470021018041808180C18066
:102370000222826081817047002904D0018841F0E7
:10238000400101807047018821F0400101807047C1
:10239000002904D0818B41F4806181837047818B57
:1023A00021F4806181837047028822F400620280F8
:1023B00002880A4302807047B1F5804F04D001883B
:1023C00021F4804101807047018841F480410180FF
:1023D0007047A1F57E42FF3A04D0018841F4807134
:1023E00001807047018821F48071018070470029C5
:1023F00004D0818841F0040181807047818821F0F8
:10240000040181807047002904D0818841F01001C7
:1024100081807047818821F010018180704730B53C
:102420000023828B4FF240042240828302220284E6
:10243000848B0A884FF48075B2F5007F00D002B912
:102440002B464A888D8889892A4319430A432243A7
:1024500042F40061818330BD80897047818170477B
:10246000002904D0018841F400510180704701889F
:1024700021F4005101807047018841F480510180AE
:102480007047012901D0008B7047808A7047008A0D
:102490007047002A03D082880A438280704782886E
:1024A0008A4382807047090901238B4099B2002A30
:1024B00003D082880A438280704782888A43828060
:1024C00070470246002012890A4200D0012070475E
:1024D000C9430181704730B50246002001F00F0367
:1024E000012505FA03F4A3B2090905FA01F4A4B21F
:1024F0009188214012891A4202D0002900D001207F
:1025000030BD01F00F0201219140C94301817047A4
:102510000030014000380040003C004000340140E1
:1025200000500140005401400838024000127A0077
:102530000024F40010B501218C032046FFF795FD1F
:102540002046BDE810400021FFF78FBD1349086009
:10255000704713490862704710B58A07120F0F239E
:10256000934021F003040F49214401F608010C684F
:102570009C430C600B68904003430B6010BD0849FE
:10258000DC31086070470849086070470020034943
:1025900020310968C90500D5012070470038014085
:1025A00000002742003001400004274210B5F949DD
:1025B000884209D101210846FFF757FD0021BDE8F7
:1025C00010400120FFF751BDB0F1804F0CD0F2490F
:1025D000884213D101210220FFF73BFD0021BDE815
:1025E00010400220FFF735BD01210846FFF731FDFD
:1025F0000021BDE810400120FFF72BBDE7498842CC
:1026000009D101210420FFF724FD0021BDE810407D
:102610000420FFF71EBDE249884209D101210820AC
:10262000FFF717FD0021BDE810400820FFF711BD9E
:10263000DC49884209D101211020FFF70AFD002161
:10264000BDE810401020FFF704BDD749884209D1EA
:1026500001212020FFF7FDFC0021BDE810402020D3
:10266000FFF7F7BCD149884209D101210220FFF7C9
:10267000FCFC0021BDE810400220FFF7F6BCCC496D
:1026800088420AD101210C042046FFF7EEFC2046C7
:10269000BDE810400021FFF7E8BCC64988420AD1D6
:1026A00001214C042046FFF7E0FC2046BDE8104025
:1026B0000021FFF7DABCC04988420AD101218C040D
:1026C0002046FFF7D2FC2046BDE810400021FFF76E
:1026D000CCBCBA49884209D101214020FFF7B9FC9E
:1026E0000021BDE810404020FFF7B3BCB449884248
:1026F00009D101218020FFF7ACFC0021BDE810408A
:102700008020FFF7A6BCAF4988420AD18415012179
:102710002046FFF79EFC2046BDE810400021FFF751
:1027200098BC10BD30B502889A4CA04DA0420DD087
:10273000A8420BD0B0F1804F08D0974B984205D0FB
:10274000964B984202D0964B984203D122F07003E8
:102750004A881A43934B984206D0934B984203D031
:1027600022F440730A891A4302804A68C2620A88C6
:102770000285A04201D0A84201D1897A01860121B7
:10278000818230BD4FF0FF31416000210180018125
:10279000418081727047018582827047028822F0F1
:1027A00070020A430280704741627047C1627047FD
:1027B000406A7047008D7047002904D0018841F0BD
:1027C000020101807047018821F0020101807047F9
:1027D000002904D0018841F004010180704701887C
:1027E00021F0040101807047002904D0018841F0E4
:1027F000800101807047018821F0800101807047CD
:10280000028822F00802028002880A430280704790
:10281000028822F44072028002880A4302807047D4
:10282000002904D0018841F001010180704701882E
:1028300021F001010180704730B5028C22F00102C5
:102840000284058C8388028B22F0700222F003023E
:102850000C88144325F002028D8915434A882A43C7
:102860004C4DA84202D0514DA8420FD122F008058C
:10287000CA892A4322F004058A882A4323F48073F4
:1028800023F400730D8A1D434B8A2B4383800483FA
:1028900089684163028430BD70B5028C22F0100259
:1028A0000284028C8388048B24F4E04424F4407670
:1028B0000D884FF6FF7404EA0525354322F0200207
:1028C0008E8904EA061616434A8804EA0212324345
:1028D000304EB04202D0354EB04217D122F08002C5
:1028E000CE8904EA0616164326F040068A8804EAD2
:1028F0000212324323F4806323F400630E8A04EA55
:1029000086061E434B8A04EA830333438380058390
:1029100089688163028470BD70B5028C22F4807274
:102920000284028C8388848B24F0700424F00304D6
:102930000D88254322F400728E894FF6FF7404EA55
:10294000062616434A8804EA02223243114EB04258
:1029500002D0164EB04217D122F40066CA8904EAAA
:102960000222324322F480668A8804EA0222324339
:1029700023F4805323F400530E8A04EA06161E4300
:102980004B8A04EA03133343838085838968C163D8
:10299000028470BD000001400004004000080040B7
:1029A000000C0040001000400014004000040140F2
:1029B0000040014000440140004801400018004030
:1029C000001C00400020004070B5028C22F48052B0
:1029D0000284058C8288838B23F4E04323F44076C1
:1029E0000C884FF6FF7303EA0424344325F40055A2
:1029F0008E8903EA06362E434D8803EA05353543B2
:102A0000FE4EB04202D0FE4EB04205D122F48046C6
:102A10000A8A03EA821232438280848389680164CD
:102A20000584B6E700210180418081808160818139
:102A3000C18101824182704730B500F11803012441
:102A40008C40058CA5430584002912D0082910D09C
:102A5000091FC1F34E001844016848F6FF7319407E
:102A6000016001684FF6FF7303EA0222114301601F
:102A700030BD03EB510001684FF68F7319400160C0
:102A800001681143016030BD416370478163704745
:102A9000C163704701647047028B22F070020A43E1
:102AA00002837047028B22F4E0424FF6FF7303EA81
:102AB0000121114301837047828B22F070020A4387
:102AC00082837047828B22F4E0424FF6FF7303EA61
:102AD0000121114381837047028B22F008020A43CF
:102AE00002837047028B22F400624FF6FF7303EA01
:102AF0000121114301837047828B22F008020A43AF
:102B000082837047828B22F400624FF6FF7303EAE0
:102B10000121114381837047028B22F004020A4392
:102B200002837047028B22F480624FF6FF7303EA40
:102B30000121114301837047828B22F004020A4372
:102B400082837047828B22F480624FF6FF7303EA20
:102B50000121114381837047028B22F080020A43D6
:102B600002837047028BC2F30E024FF6FF7303EA33
:102B70000121114301837047828B22F080020A43B6
:102B800082837047828BC2F30E024FF6FF7303EA13
:102B90000121114381837047028C22F002020A4313
:102BA00002847047028C22F008020A4302847047B4
:102BB000028C22F020024FF6FF7303EA0111114349
:102BC00001847047028C22F080024FF6FF7303EA03
:102BD0000111114301847047028C22F400724FF6F8
:102BE000FF7303EA0121114301847047028C22F430
:102BF00000624FF6FF7303EA01211143018470471D
:102C0000028C22F400524FF6FF7303EA01311143A4
:102C10000184704710B501238B40048C9C430484CD
:102C2000038C8A401343038410BD10B504238B40EA
:102C3000048C9C430484038C8A401343038410BD9A
:102C4000828B22F440628283828B4FF6FF7303EA09
:102C500001210A438283704770B5048C24F48054A8
:102C60000484858B068C4FF6FF7404EA013125F449
:102C7000734504EA02222A4304EA0333134326F489
:102C800020420A4342F480518383018481E6828B8F
:102C900022F00C028283828B0A4382837047F0B554
:102CA000048C24F480740484868B058C4FF6FF77A3
:102CB00007EA012426F0F30607EA03111143314322
:102CC00025F42062224342F4807281830284F0BDA5
:102CD000028B22F440620283028B4FF6FF7303EAF9
:102CE00001210A430283704770B5048C24F010045C
:102CF0000484058B068C4FF6FF7404EA011125F459
:102D0000734504EA03332B4304EA02221A4326F0F4
:102D1000A0030B4343F010010283018439E6028BC8
:102D200022F00C020283028B0A430283704770B5C3
:102D3000048C24F001040484058B048C25F0F30535
:102D40004FF6FF7606EA031313432B4324F00A02DF
:102D50000A4342F00101038301841AE670B5064676
:102D60000C4625886188A2882389002D0BD0042D6C
:102D700011D0082D17D03046FFF76EFFE18830469E
:102D8000BDE870405CE73046FFF7D1FFE188304690
:102D9000BDE87040C3E73046FFF7A6FFE188304644
:102DA000BDE8704094E73046FFF779FFE188304690
:102DB000BDE870406BE700210180418001228280E4
:102DC000C180018170472DE9F04107460C4600257E
:102DD00001266188002900D10225A288012A00D19C
:102DE000022620882389B0B13846FFF77DFFE188AD
:102DF0003846FFF76DFF2389324603E000000140AB
:102E00000004014029463846FFF791FFE188384623
:102E1000BDE8F04183E73846FFF789FFE18838468F
:102E2000FFF77DFF2389324629463846FFF75CFFCE
:102E3000E1883846BDE8F0414AE7406B7047806B57
:102E40007047C06B7047006C704710B50A884B889C
:102E5000CC881A438B8823431A430B891A434B8926
:102E600089891A430A43A0F8442010BD002101803B
:102E700041808180C1800181418181817047002929
:102E800005D030F8441F41F400410180704730F80C
:102E9000441FC1F30E0101807047002904D08188CE
:102EA00041F0040181807047818821F00401818014
:102EB0007047002904D0818841F00101818070476A
:102EC000818821F0010181807047002A03D0828926
:102ED0000A438281704782898A4382817047818256
:102EE000704702460020128A0A4200D00120704733
:102EF000C9430182704702460020138A0B40928921
:102F00000A40002B02D0002A00D001207047C9439C
:102F1000018270471143A0F848107047002A03D07F
:102F200082890A438281704782898A4382817047FD
:102F3000002904D0818841F0080181807047818890
:102F400021F0080181807047018921F0070101818A
:102F50007047028922F070020A430281704700B56F
:102F600003461846FFF7F5FF188940F0070018815F
:102F700000BD70B50D4604461146602D0CD00122EF
:102F80002046FFF7D4FE29462046FFF7E2FF2089BE
:102F900040F007002081FCE401222046FFF7A4FE58
:102FA000F1E730B50489E4B24FF6FF7505EA032373
:102FB00013430B432343038130BD10B50446204621
:102FC000FFF7EFFF208920F0070040F0070020F016
:102FD000700040F07000208110BD10B504462046FE
:102FE000FFF7DFFF208940F48040208110BD8288F8
:102FF00022F07002828082880A43828070470289B0
:1030000022F00702028102890A4302817047028985
:1030100022F08002028102890A430281704770B562
:103020000589048B068C25F007050D434FF6FC41FE
:103030000C4040F201110C4326F022064FF6FF71BE
:1030400001EA031111433143058104830184A0E4A3
:10305000002904D0818841F08001818070478188F7
:1030600021F0800181807047A0F850107047000067
:1030700010B5F449884209D101211020FEF7F5FF6F
:103080000021BDE810401020FEF7EFBFEE49884256
:103090000AD101214C042046FEF7DBFF2046BDE8A3
:1030A00010400021FEF7D5BFE84988420AD101212E
:1030B0008C042046FEF7CDFF2046BDE810400021DD
:1030C000FEF7C7BFE24988420AD10121CC0420465D
:1030D000FEF7BFFF2046BDE810400021FEF7B9BF54
:1030E000DC4988420AD101210C052046FEF7B1FFD8
:1030F0002046BDE810400021FEF7ABBFD64988420C
:1031000009D101212020FEF7B0FF0021BDE81040C9
:103110002020FEF7AABFD14988420AD101218C079D
:103120002046FEF796FF2046BDE810400021FEF73E
:1031300090BFCB4988420AD1440501212046FEF7C1
:1031400088FF2046BDE810400021FEF782BF10BD79
:103150007FB504460D46208A20F44051E888084394
:103160002082A08941F20C618843A9882A891143F1
:103170006A8902431143A181A08A20F44071A88981
:103180000843A0826846FEF76BFEAE48844202D038
:10319000B148844201D1039800E00298A189090452
:1031A00008D500EBC00101EB001029684900B0FB15
:1031B000F1F007E000EBC00101EB00102968890085
:1031C000B0FBF1F06422B0FBF2F109010B096FF0E2
:1031D00018056B4300EB8300A3891D044FF03203F5
:1031E00007D503EBC000B0FBF2F000F00700084386
:1031F00006E003EB0010B0FBF2F000F00F00084314
:1032000020817FBD4FF41651016000218180C18073
:1032100001810C2242818181704710B5028A22F41B
:1032200070630A884C8822438C88C9880C432243E7
:103230001A43028210BD0021018041808180C1803B
:103240007047002904D0818941F400518181704781
:10325000818921F4005181817047028B02F47F4201
:103260000283028B0A4302837047002904D08189BC
:1032700041F40041818170478189C1F30E01818150
:103280007047002904D0818A41F40061818270472F
:10329000818A21F4006181827047C1F30801818035
:1032A00070478088C0F308007047028A22F00F023E
:1032B0000282028A0A4302827047002904D081896F
:1032C00041F0020181817047818921F002018181F1
:1032D0007047828922F40062828182890A43828156
:1032E0007047028A22F020020282028A0A43028286
:1032F0007047002904D0018A41F48041018270475F
:10330000018A21F4804101827047818941F00101E5
:1033100081817047002904D0818A41F008018182AF
:103320007047818A21F0080181827047028BD2B2F6
:103330000283028B42EA012101837047002904D0F5
:10334000818A41F0200181827047818A21F0200129
:1033500081827047002904D0818A41F01001818266
:103360007047818A21F0100181827047828A22F0A1
:1033700004028282828A0A4382827047002904D032
:10338000818A41F0020181827047818A21F0020125
:1033900081827047002A03D0828A0A438282704762
:1033A000828A8A438282704710B540F66A13C1F35D
:1033B000421301F01F040121A140012B07D0022B71
:1033C00007D014303AB102680A43026010BD0C30D5
:1033D000F8E71030F6E702688A43026010BD024643
:1033E000002012880A4200D0012070478A05C94394
:1033F0000180704770B5002440F66A12C1F3421391
:1034000001F01F05012606FA05F2012B0CD0022B54
:103410000DD0838A1340090A8E40008830400BB1DA
:1034200000B10124204670BD83891340F3E7038A6D
:103430001340F0E740F66A120A0A01219140C9439D
:1034400001807047001001400044004000480040E7
:10345000004C004000500040001401400078004043
:10346000007C00407CB501210220FEF792FD012185
:103470000846FEF7BEFD4FF46040009002258DF82F
:1034800005508DF8045000248DF806408DF8074053
:10349000504E69463046FEF769FB01220F21304647
:1034A000FEF7DCFB01220E213046FEF7D7FB01229E
:1034B0000D213046FEF7D2FB202100918DF80550FA
:1034C00001218DF804108DF806408DF807406946FB
:1034D0003046FEF74BFB7CBD70B588B0FFF7C2FFEE
:1034E0003D4E3046FFF762F80024ADF81C40ADF8C1
:1034F00014404020ADF8160040F634000690012537
:103500008DF81E5005A93046FFF70CF97020ADF874
:103510000000ADF802500220ADF80C00ADF81040EC
:103520000420ADF804000820ADF80E00ADF81240FC
:10353000029469463046FFF77FF9029469463046A7
:10354000FFF7AAF9029469463046FFF7E5F908212A
:103550003046FFF7C1FA08213046FFF7C3FA0821C9
:103560003046FFF7C9FA01213046FFF73DF9012146
:103570003046FFF7BDFC01213046FFF7C8FC0122B1
:1035800011463046FFF7A1FC01213046FFF777FCDA
:1035900001213046FFF744F910496806086008B079
:1035A00070BD10B500210C48FFF769FCBDE8104064
:1035B0004FF460410748FEF743BB10B501210648B0
:1035C000FFF75DFCBDE810404FF460410148FEF795
:1035D00035BB0000000402400000014000E100E0B3
:1035E00008B54FF4A060FDF737FD19208DF80000F5
:1035F00000208DF8010002208DF8020001208DF8D6
:1036000003006846FDF72DFD08BD0000F0B587B04A
:10361000054601210846FEF7BCFC01211020FEF7FB
:10362000E8FC314F072209213846FEF717FB072235
:103630000A213846FEF712FB4FF4C06005900220C5
:103640008DF818008DF8190000248DF81A40012615
:103650008DF81B6005A93846FEF788FA0195ADF88C
:103660000840ADF80A40ADF80C40ADF810400C2011
:10367000ADF80E001D4C01A92046FFF769FD0121A0
:103680002046FFF7DEFD012240F225512046FFF7DC
:103690008BFE25208DF8000003208DF801008DF8A9
:1036A00002008DF803606846FDF7DBFC07B0F0BD53
:1036B00070B504460D4DE1B22846FFF7EEFD8021BE
:1036C0002846FFF78CFE0028F9D0204670BD10B5C3
:1036D000064C20212046FFF782FE0028F9D0204624
:1036E000BDE81040FFF7DDBD0000024000100140C2
:1036F000F0B587B001210846FEF74BFC0121080315
:10370000FEF777FC1020059001268DF81860002444
:103710008DF81A4002258DF81950434F05A93846F7
:10372000FEF724FA052204213846FEF797FA102105
:103730003846FEF783FAE02105918DF818508DF890
:103740001A408DF8195005A93846FEF70FFA0522E0
:1037500011463846FEF782FA052206213846FEF762
:103760007DFA052207213846FEF778FAADF80040C9
:103770004FF48270ADF80200A802ADF80400ADF875
:103780000640ADF808608010ADF80A000820ADF8DA
:103790000C00ADF80E400720ADF81000234C694630
:1037A0002046FEF747FD01212046FEF7E5FD07B064
:1037B000F0BD70B5064600241C4D05E0641CA4B2A3
:1037C000C82C01D9002070BD02212846FEF779FEE1
:1037D0000028F3D031462846FEF740FE002405E0DD
:1037E000641CA4B2C82C01D9002070BD0121284658
:1037F000FEF767FE0028F3D02846BDE87040FEF7CC
:103800002BBE70B50446084D10212846FEF718FA65
:103810002046FFF7CEFF044610212846FEF70EFA99
:10382000C4F30D0070BD00000000024000300140F4
:103830001CB501210220FEF7ACFB012000908DF8A1
:10384000040000208DF806008DF807008DF80500B3
:10385000054C69462046FEF789F902210091694628
:103860002046FEF783F91CBD000402407CB501210F
:103870000520FEF78EFB0720009003258DF80450ED
:1038800000248DF8074069462948FEF76FF930207B
:1038900000908DF804508DF8074069462548FEF7E2
:1038A00065F97CBD2448016841F4806101600168CC
:1038B00041F400710160016841F4807101601E48AB
:1038C0001438016841F0010101601C481621C0F85C
:1038D0000413816841F00101816000214163D0F847
:1038E000081141F00101C0F808110121C0F834119C
:1038F000D0F8081241F00101C0F808120221C0F806
:1039000034120B490A6842F03F020A60C16841F074
:103910000101C160D0F80C1141F00401C0F80C1194
:10392000D0F8101241F04001C0F810127047B9E70A
:1039300000000240000802404438024000200140DC
:1039400010B504466FF00400FDF7CFFB2949E008ED
:10395000087000EB4002C2EBC0104FF6FF7202EAA3
:10396000C000488010BD2349097848434FF0E0214A
:10397000486100238B61086940F001000861086913
:10398000C20701D0C003FAD5086920F00100086120
:103990008B6170471749498848434FF0E0214861DF
:1039A00000238B61086940F0010008610869C207C3
:1039B00001D0C003FAD5086920F0010008618B61CD
:1039C000704770B54FF40775B0FBF5F1CCB2B0FBA2
:1039D000F5F105FB110604E02846FFF7DBFF641E46
:1039E000E4B2002CF8D1002E03D03046BDE8704080
:1039F000D0E770BD3C00002070B504462DED048B6F
:103A0000F0EE409AF0EE608AB0EE419A0D4616460E
:103A1000B0EE690A01F088F9B0EE408AB0EE690AAA
:103A200001F062F968EE280A40EE490AC4ED000A86
:103A30009FEDFE1AF6EE000A60EE011A48EE601ADB
:103A400061EEA82ADFEDFA1A28EE212A00EE602A9C
:103A500042EE492AC5ED002A60EE211A28EE011A2D
:103A600048EE601A00EE601A61EEA81A41EE491A9B
:103A7000C6ED001ABDEC048B70BD70B505462DED8A
:103A8000068BB0EE40AAF0EE608AB0EE419AF0EEFE
:103A9000619A0C46B0EE4A0A01F046F9B0EE408A4F
:103AA000B0EE4A0A01F020F9DFEDE02AB6EE002A76
:103AB00060EE220A48EE420A20EE891A08EE281A21
:103AC000DFEDDB1A60EE210A48EE420A00EEA91A89
:103AD000DFEDD80A21EE201A85ED001A68EE211AD2
:103AE000B1EE401A21EE281A40EE421A01EEC91A30
:103AF00068EE221A40EE421A01EEE91A21EE200A7F
:103B000084ED000ABDEC068B70BD70B504462DED4A
:103B1000088BF0EE408AB0EE60AAF0EE419AB0EE6B
:103B200061BA0D461646B0EE4B1AF0EE690AB0EED9
:103B30004A0A01F026F9B0EE408AB0EE4B1AF0EED8
:103B4000690AB0EE4A0A01F004F938EE000AB6EE4E
:103B5000009A20EE098A7AEE480A80EEA80A30EE32
:103B6000090A9FEDB5AAF0EE4A0A01F0E2F8DFED8E
:103B7000B3AAF0EE6A0A01F0E4F884ED000A79EEE7
:103B8000C80A80EEA80AF0EE4A0A30EE090A01F0EF
:103B9000D0F8F0EE6A0A01F0D4F885ED000A3BEEA9
:103BA000480AC0EE280A30EE890AF0EE4A0A01F00F
:103BB000C0F8F0EE6A0A01F0C4F886ED000ABDEC28
:103BC000088B70BD10B504462DED028B94ED000AF4
:103BD000B5EEC00AF1EE10FA01D2012000E000209B
:103BE00000EE900AB0EE001AB7EE008AF8EE600A16
:103BF00000EEC18A10EE100A06F005F941EC100B38
:103C000006F0A8FF9FED8E1B51EC100B53EC112B0F
:103C100006F00CF90ED894ED000ADFED8B0A20EEC9
:103C2000200ADFED8A0A08EE200A84ED000ABDECC6
:103C3000028B10BD94ED000AF0EE040A20EE200A7B
:103C400084ED000AF3E72DE9F35F834600250026A3
:103C50004FF48068002440F21A49DFF8F4A17D4F48
:103C600012E0CAF83C90CAF83890CAF83490B868A4
:103C700040F08040B8600120FFF7A3FED7F84C0168
:103C80000644F86C0544641C4445EADB95FBF8F0F7
:103C9000CBF8000096FBF8F101980160BDE8FC9FAD
:103CA0006D49D1ED020A9FED6D0A20EE801ADFED1D
:103CB0006C0A21EE201A80ED1A1A91ED021A21EEFB
:103CC000001A61EE200AC0ED1B0AD1ED020A60EE77
:103CD000800AC0ED180AD1ED020A20EE800A80EDBC
:103CE000190A91ED020ADFED5F0A20EE200AF0EEDC
:103CF000000A20EE201ADFED5C1AB7EE000AF0EEA3
:103D0000400A41EE610A80EE201A30EE410A80ED51
:103D10001C0A70474E4940F20D22CA634A638A6307
:103D20009FED520A80ED210A80ED220A80ED0C0AF7
:103D300080ED0D0A80ED0E0A80ED1E0A80ED1D0A51
:103D400080ED110A80ED100A70479FED490B80ED60
:103D5000000B9FED490A80ED040A704710B5044638
:103D60002DED028BD4ED060A9FED440A94ED0A1A5C
:103D700060EE802ADFED421A41EE612A9FED412A72
:103D800082EE820ADFED402A60EEA20A41EE610A6D
:103D900080EE828AD4ED220A00F0D3FFF0EE480ACA
:103DA00000F0C7FF84ED220A41E770B504462DED0F
:103DB000048BB0EE409AD4F89400401CC4F89400F0
:103DC0006168D4F88000314D081AE26F21682B68D1
:103DD0009FED2F0A891A002B10D000EE900AF8EE02
:103DE000E00A60EE800AC4ED040A00EE901AF8EED4
:103DF000E00A20EE800A84ED050A0FE000EE901A3A
:103E0000F8EEE00A60EE800AC4ED040A00EE900AC3
:103E1000F8EEE00A20EE800A84ED050A94ED040A2B
:103E2000F1EE400A94ED050A34E00000D7B35D3F9F
:103E3000D7B35DBFABAA2A3FCDCC4C3D3333733FE4
:103E400000000040E17A843F7F6A7C3F4260653C2D
:103E50000000014000200140900A0020ACC5A738B6
:103E600060E5D03C17B7D137DB0F494000000000B8
:103E70000000000000003940CDCCCC3D7DD0133F88
:103E800076896A3DAC8B5B3E7DD013BF900B0020E2
:103E90000000A53C30EEC00A84ED030AB0EE490AEA
:103EA00000F022FFB0EE490A00F03EFF04F13401B9
:103EB000D4ED051A94ED041AD4ED030A94ED080A22
:103EC000081FFFF7DAFD94ED0E0A5FED240A1FEDDF
:103ED000261A60EE201A94ED0D0A40EE011AC4ED88
:103EE0000E1AD4ED0F1A61EEA01AD4ED0C0A40EEB2
:103EF000811AC4ED0F1A94ED211A31EE608AD4EDC7
:103F0000220A70EEC08A94ED1D0A30EE080A84ED94
:103F10001D0A94ED1E0A30EE280A84ED1E0A694837
:103F20005FED320A90ED020A20EE200A5FED340ABE
:103F300060EE200A9FED641A04F17801081F81EEFB
:103F4000200A00F06DFF94ED1A0AD4ED1D0A20EE50
:103F5000200AD4ED180A00EE880A84ED100A94EDC8
:103F60001B0AD4ED1E0A20EE200AD4ED190A00EE39
:103F7000A80A84ED110A04F1440194ED060A081F11
:103F800000F04EFF04F15C02111F94ED111AD4ED04
:103F9000100A94ED080A081FFFF72EFD04F15002E5
:103FA000111FD4ED171A94ED161AD4ED150A94EDDD
:103FB000060A081FFFF7A9FDF7EE000A9FED430A66
:103FC0004348296809B394ED121A30EEC11A21EE64
:103FD000001ABCEEC11A11EE101AC16394ED131A47
:103FE00030EEC11A21EE001ABCEEC11A11EE101A01
:103FF000816394ED141A70EEC10A20EE800ABCEEC3
:10400000C00A10EE101A416320E094ED121A30EE4F
:10401000C11A21EE001ABCEEC11A11EE101AC163CA
:1040200094ED131A30EEC11A21EE001ABCEEC11A3B
:1040300011EE101A416394ED141A70EEC10A20EECD
:10404000800ABCEEC00A10EE101A816384ED089A53
:10405000D4F8940049F64041884202DD0020C4F8BB
:104060009400BDEC048B70BD90ED290AD0ED070AD9
:1040700090ED091A30EE600AD0ED2B0A20EE200AEE
:10408000D0ED2A0A70EEC10A90ED2C1A01EE200A3A
:10409000D0ED2D0A9FED0F1A70EE200A80EE810AF6
:1040A000DFED0D0A20EE200A80ED220A1FED910AB5
:1040B00080ED210AF3EE080ABBEE080A883000F012
:1040C000A1BE0000900A00206666E641004003455C
:1040D00000000140000008427B1462412DE9F04FCE
:1040E0002DED0C8B8BB083468A46F8A006F09EFC23
:1040F0009FEDFE8ADFEDFECAB0EE48CA8DED088A5C
:10410000B6EE000A8DED050A002408AA09A90AA83E
:10411000B0EE4C1AF0EE6C0AB0EE480AFFF76CFCF9
:1041200005AA06A907A8DDED081A9DED091ADDED1F
:104130000A0AB7EE000AFFF7E8FC002544F62066FD
:10414000F7EE008ADFEDEB9ADFF8AC939DED070AFE
:1041500038EEC00A20EE290ABCEEC00A10EE100AA2
:10416000C9F83C009DED060A38EEC00A20EE290A87
:10417000BCEEC00A10EE100AC9F838009DED050A21
:1041800038EEC00A20EE290ABCEEC00A10EE100A72
:10419000C9F834006420FFF7E6FB6D1CB542D5DB9F
:1041A00058469FEDD6DAB0EE4D0A00F021FF4FF4ED
:1041B0007A70FFF7D8FBDAF88010DAF80400401ABA
:1041C00000EE100AF8EEC00A9FEDCD0A20EE801A2C
:1041D0008AED041ADAF87C10DAF80000401A00EED2
:1041E000900AF8EEE00A60EE801ACAED051AB1EE08
:1041F000410A70EE610ACAED030A0AF134019AED30
:10420000080A081FFFF739FCDAF8340005F0FBFD57
:1042100041EC100B9FEDBBBBB0EE4B1AF0EE6B1AEE
:1042200006F05EFDB0EE40AAF0EE60AADAF83000CB
:1042300005F0E9FD41EC100BB0EE4B1AF0EE6B1AF5
:1042400006F04EFD53EC1A2B51EC100B05F034FD2B
:1042500041EC100B07F034FC51EC100B05F0FEFDA7
:104260000546AAA006F0E2FB284605F0CCFD05466F
:104270000E46DAF8340005F0C6FD07468846DAF83F
:10428000300005F0C0FD41EC100BCDE90078CDE920
:10429000025653EC102BA0A006F0C8FBA34F6BE016
:1042A00008AA09A90AA8B0EE4C1AF0EE6C0AB0EE02
:1042B000480AFFF7A1FB05AA06A907A8DDED081A21
:1042C0009DED091ADDED0A0AB7EE000AFFF71DFCA5
:1042D0006420FFF748FB9DED070A38EEC00A20EE88
:1042E000290ABCEEC00A10EE100AC9F83C009DED88
:1042F000060A38EEC00A20EE290ABCEEC00A10EE0B
:10430000100AC9F838009DED050A38EEC00A20EE03
:10431000290ABCEEC00A10EE100AC9F8340058464B
:10432000B0EE4D0A00F064FE00F082FFB5EEC08AE8
:10433000F1EE10FA01D1B0EE409AC82C17DD00243E
:1043400010EE100A05F05FFDF1EE0C0A054688EE4E
:10435000200A0E4610EE100A05F055FD41EC100B38
:10436000CDE9005653EC102B71A006F05FFB641CE6
:104370009FED730A38EE008A18EE100AB8428FDB00
:1043800000F056FF70EE490AF5EEC00AF1EE10FAA1
:1043900001DD012600E0002610EE100A05F033FDD5
:1043A00004460D4619EE100A05F02DFD41EC100BE8
:1043B00064A053EC102BCDE9004506F037FB3146E5
:1043C0006AA006F033FB1EB16DA006F02FFB02E0E1
:1043D00070A006F02BFB7B4806600BB0BDEC0C8B8D
:1043E000BDE8F08F2DE9F34F0C462DED0C8BADF5AC
:1043F0000D7D75A006F01AFBDFED7C9A4FF4606727
:10440000384608F0DDF98246384608F0D9F9054605
:10441000BAF1000F58D0002D56D04FF40078404626
:1044200008F0CEF98B908B9800284DD03946504635
:1044300005F023FC3946284605F01FFC41468B98C1
:1044400005F01BFC384608F0BBF90646384608F074
:10445000B7F98346002E37D0BBF1000F34D0394670
:10446000304605F00AFC3946584605F006FC414640
:1044700009A805F002FC8B9800F0ECFE384608F025
:104480009FF98A90384608F09BF989908A9800280D
:104490001AD08998002817D039468A9805F0EDFB84
:1044A0003946899805F0E9FB9FED10CAB0EE4C8AB9
:1044B000DFED0FDA8DED06CAB6EE00DA8DED03DA28
:1044C00006AA07A908A893E0AAE300000A0D204362
:1044D0006865636B696E67207068617365206F72D1
:1044E000646572696E670A0D00000000000000003C
:1044F0009A99193E004083440000014017B7D13714
:104500000000A53C00000000000000400A0D4375BB
:104510007272656E740A0D00256609202020202520
:10452000660920202025660D0A000000DB0F4941A6
:10453000252E346609202020252E34660D0A000021
:104540006F12833A54686574612053746172743ACF
:104550002020202566202020205468657461204595
:104560006E643A202025660A0D00000044697265D9
:104570006374696F6E3A202025640A0D0000000004
:1045800050686173696E6720636F72726563740A45
:104590000D00000050686173696E6720696E636F7B
:1045A00072726563742E20205377617070696E6734
:1045B00020706861736573205620616E6420570A0D
:1045C0000D000000900B00205374617274696E67D7
:1045D0002063616C6962726174696F6E2070726FC2
:1045E0006365647572650A0D000000007CD9A03A0D
:1045F000B0EE4C1AF0EE6D0AB0EE480AFFF7FCF987
:1046000003AA04A905A8DDED061A9DED071ADDED44
:10461000080AB7EE000AFFF778FA4FF00008FE4FDD
:10462000F7EE008A1FED4D9ADFF8F0939DED050A35
:1046300038EEC00A20EE090ABCEEC00A10EE100ADD
:10464000C9F83C003868C0B19DED040A38EEC00AD4
:1046500020EE090ABCEEC00A10EE100AC9F83800B4
:104660009DED030A38EEC00A20EE090ABCEEC00A2E
:1046700010EE100AC9F8340017E09DED040A38EE78
:10468000C00A20EE090ABCEEC00A10EE100AC9F8F2
:1046900034009DED030A38EEC00A20EE090ABCEE94
:1046A000C00A10EE100AC9F838006420FFF75BF961
:1046B00008F1010849F640408045B7DB5FED71CA5B
:1046C0009998B0EE6C0A00F093FCD4F88010606802
:1046D000401A00EE100AF8EEC00A1FED770A20EE2D
:1046E000801A84ED041A2168E06F081A00EE900A1F
:1046F000F8EEE00A60EE801AC4ED051AB1EE410A48
:1047000070EE610AC4ED030A04F1340194ED080A65
:10471000081FFFF7B2F9606B05F075FB41EC100B59
:104720001FED88BBB0EE4B1AF0EE6B1A06F0D8FA0C
:10473000B0EE40AAF0EE60AA206B05F064FB41ECFD
:10474000100BB0EE4B1AF0EE6B1A06F0C9FA53ECF0
:104750001A2B51EC100B05F0AFFA41EC100B07F0DF
:10476000AFF951EC100B05F079FB0BEE900AACA001
:1047700006F05CF90024B1EE0CBA002738EE298A65
:1047800006AA07A908A8B0EE4C1AF0EE6D0AB0EE22
:10479000480AFFF731F903AA04A905A8DDED061AB6
:1047A0009DED071ADDED080AB7EE000AFFF7ADF937
:1047B0009DED050A38EEC00A20EE090ABCEEC00ADB
:1047C00010EE100AC9F83C0093480068C0B19DED96
:1047D000040A38EEC00A20EE090ABCEEC00A10EE48
:1047E000100AC9F838009DED030A38EEC00A20EE21
:1047F000090ABCEEC00A10EE100AC9F8340017E02E
:104800009DED040A38EEC00A20EE090ABCEEC00A8B
:1048100010EE100AC9F834009DED030A38EEC00A04
:1048200020EE090ABCEEC00A10EE100AC9F83800E2
:104830006420FFF798F8B0EE6C0A999800F0D8FB66
:104840007F1C282F9ADBB0EE6C0A999800F0D0FB01
:1048500000F0EEFCB0EE40AAC8EE0BAA0AEB840012
:104860003AEECA0A80ED000A00F0EAFC8A9941F8A3
:1048700024008C901AEE100A05F0C5FA0746884607
:104880001AEE900A05F0BFFA41EC100B8C98CDE9B6
:104890000078029053EC102B21466DA006F0C6F86C
:1048A000641CB4F5607FFFF668AF00240027DFF8D2
:1048B0006891DFF8688138EE698A06AA07A908A816
:1048C000B0EE4C1AF0EE6D0AB0EE480AFFF794F81D
:1048D00003AA04A905A8DDED061A9DED071ADDED72
:1048E000080AB7EE000AFFF710F99DED050A38EE49
:1048F000C00A20EE090ABCEEC00A10EE100AC8F881
:104900003C00D9F80000C0B19DED040A38EEC00AA1
:1049100020EE090ABCEEC00A10EE100AC8F83800F2
:104920009DED030A38EEC00A20EE090ABCEEC00A6B
:1049300010EE100AC8F8340017E09DED040A38EEB6
:10494000C00A20EE090ABCEEC00A10EE100AC8F830
:1049500034009DED030A38EEC00A20EE090ABCEED1
:10496000C00A10EE100AC8F838006420FEF7FBFFFA
:10497000B0EE6C0A999800F03BFB7F1C282F9ADB65
:10498000B0EE6C0A999800F033FB00F051FCB0EEE9
:1049900040AAC8EE0BAA05EB84003AEECA0A80EDE5
:1049A000000A00F04DFC8999814641F824001AEE76
:1049B000100A05F028FA074688461AEE900A05F014
:1049C00022FA41EC100B8DE8800353EC102B2146AA
:1049D0001FA006F02BF8641C4FF46077BC42FFF672
:1049E00065AFB0EE4C0A0020DFED200A0AEB800133
:1049F00091ED001AA0F27F31A5EB8101D1ED001AF3
:104A000071EE211A81EEA01A31EE000A401CB84264
:104A1000ECDB20EE0B0A2BE0900B002000000140A5
:104A20002043757272656E7420416E676C65203A22
:104A300020526F746F7220416E676C65203A20526D
:104A4000617720456E636F646572200A0D0A0D0060
:104A5000256409252E346609202020252E34660978
:104A60002020202025640D0A000000000000E04402
:104A700010EE100A05F0C7F941EC100B9FED6B1B0F
:104A800006F0AAF851EC100B05F0E8F908EE900AD0
:104A9000B0EE680A00F0D8FB6648C0ED008A00203E
:104AA0000AEB800191ED000AA0F27F31A5EB8101B4
:104AB000D1ED000A06EB800130EE200A20EE0D0A4F
:104AC00081ED000A401CB842EADB00249FED5A8ABF
:104AD00000210BEB840808194038002802DA00F5A1
:104AE000607003E0B84201DBA0F5607006EB800067
:104AF00098ED000AD0ED000A00EE880A88ED000A61
:104B0000491C8029E7DB802C12DA06EB8400D8ED03
:104B1000000A90ED000A30EE600A20EE0B0A06F063
:104B200007FF20EE2B0A09A800EB840080ED000AA5
:104B3000D8ED000A9FED411A80EE810A30EE0CCAD2
:104B4000641CBC42C4DB8A9801688998D0F8FC0DCB
:104B5000084400EBD0704FEA600839A005F066FF0A
:104B600043A005F063FF00279FED4E8A07EBE81492
:104B70007F2C00DD803C00F06BFB00EE100AC7EBE1
:104B8000C7000BEB8000B8EEC00AD0ED000A8B988E
:104B900070EECC0A20EE200AC0EE080ABDEEE00A54
:104BA00010EE103A40F82430224639463EA005F077
:104BB0003DFF0120FEF705FF7F1C802FD6DB8B9881
:104BC00000F048FB80223D488B9905F03DF818EE37
:104BD000900A05F018F941EC100B39A053EC102B9A
:104BE00005F024FF00F050FB08B900F04AFB00F08C
:104BF0004EFB00F08EFB584607F0BAFD304607F03A
:104C0000B7FD504607F0B4FD284607F0B1FD8B987C
:104C100007F0AEFD8A9807F0ABFD899807F0A8FD74
:104C20000DF50D7DBDEC0C8BBDE8FC8F0000006028
:104C3000FB211940900A00200000003C0000604465
:104C40000A0D20456E636F646572206E6F6E2D6C69
:104C5000696E65617269747920636F6D70656E73DA
:104C60006174696F6E207461626C650D0A000000EA
:104C70002053616D706C65204E756D626572203ACF
:104C8000204C6F6F6B757020496E646578203A20F8
:104C90004C6F6F6B75702056616C75650A0D0A0D4F
:104CA00000000000DB0FC940256409202020256496
:104CB000092020202564200D0A000000A40B0020FC
:104CC0000A0D456E636F64657220456C656374728E
:104CD0006963616C204F6666736574202872616435
:104CE000292025660D0A0000DFED830A01E030EE81
:104CF000200AB5EEC00AF1EE10FAF8D37F4901E0C0
:104D000030EE600A10EE100A8842F9DADFED7C0A14
:104D10007C4920EE200ABDEEC00A10EE100A01EB1D
:104D2000800090ED000A7047DFED770A30EEC00A90
:104D3000DAE7B4EEE00AF1EE10FA01DCB0EE600A58
:104D40007047B4EEE00AF1EE10FA01D3B0EE600A5B
:104D50007047B4EEE00AF1EE10FA07DDB4EEC10AD6
:104D6000F1EE10FA01DCB0EE410A7047F4EEC10A30
:104D7000F1EE10FA02DDB0EE600A7047B0EE410AC3
:104D80007047B4EEE00AF1EE10FA07D2B4EEC10AB1
:104D9000F1EE10FA01D3B0EE410A7047F4EEC10A09
:104DA000F1EE10FA02D2B0EE600A7047B0EE410A9E
:104DB0007047B5EEC00AF6EE000AF1EE10FA03D223
:104DC00030EE600A05F090BE30EE200A05F0CCBE51
:104DD0000CB58DED010A8DED000A4C49019801EBEF
:104DE000600001904A490098A1EB60000090DDED61
:104DF000010A9DED001A40EE010AB6EE000A20EE0F
:104E0000800A0CBD00B5B0EE401A90ED000AFFF725
:104E100098FFF0EE410AFFF78CFF80ED000A00BD1D
:104E200030B504460D46F0EE401A94ED000A60EEEF
:104E3000000A95ED000A40EE000AB0EE600AFFF7A6
:104E4000C7FFB4EEE10AF1EE10FA0FDDD4ED000A6F
:104E500060EEA10A80EE801A84ED001AD5ED000AFA
:104E600060EEA10A80EE801A85ED001A30BD31EEA9
:104E7000601A30EE600ADFED270A20EE200AC0EE4D
:104E8000010ABCEEE00A10EE100A704770EEC00A8C
:104E900001EE100AB8EE411A61EE200A9FED1E1ACB
:104EA00000EE810A704731EE601A0121814070EEF8
:104EB000600A491E00EE101AB8EEC00A20EE800A01
:104EC000C0EE010ABDEEE00A10EE100A704770EE67
:104ED000C00A01EE100A01208840B8EEC11A401E37
:104EE00021EE201A00EE900AF8EEE01AC1EE210A37
:104EF00030EE800A70470000DB0FC940DB0FC9406D
:104F000083F9A242A0C80008DB0FC93F00F8BC1F0C
:104F1000DF59375F0000804F0000802F0B2800DD35
:104F20000B204860244A52F82000086000200872D4
:104F30007047007A704710B50446FCF733FBF12048
:104F4000FCF779FD1C496068303151F820000221DE
:104F5000FCF769FB0120207210BD126802EB800093
:104F6000FCF73ABC126802EB8000FCF735BC82B05B
:104F70008DED010A096801EB8000019902B0FCF790
:104F80002BBC10B50446FCF719FB0021217210BDA3
:104F9000094A52F8200050F821007047064A52F89A
:104FA000200050F821007047034A52F8200000EB1F
:104FB000810090ED000A70474000002050601161B0
:104FC00082ED880A00219160A348436943F40043BD
:104FD00043614FF6FF70506182ED8A0A9FED9F0A90
:104FE00082ED8B0A82ED8C0A82ED8D0A116070478A
:104FF00070B504462DED028BB0EE408A964D10211F
:105000002846FCF71DFEA08A80B2FEF7D2FBC0F353
:105010000D00206010212846FCF710FE2068C11109
:1050200004EB81018A69012101EBE011CB1701EB4F
:10503000536323F07F03C91A04EB8101896920F0CF
:105040007F03C31A891A4B4302EBE3110144E26860
:1050500060688A1A00EBD073B2EB630F03DDA268BD
:10506000521EA26008E0434203EBD373B2EB630F1E
:1050700002DAA268521CA260E16094ED8B1A84ED02
:105080008C1A00EE101AB8EEC00ADFED751A60EE49
:10509000210A00EE100AB8EEC02A80EE820A84EDE2
:1050A0008B0AA268424300EE902AB8EEE02A00EE96
:1050B000901AF8EEE00A72EE200A20EEA12A00EE25
:1050C000900AF8EEE02AC2EE220AC4ED860A94EDB8
:1050D0008A2A70EEC20AC4ED890A00EE900A22699B
:1050E000F8EEE00A4A4392FBF0F181EEA02A00FBC1
:1050F000112000EE900AF8EEE02AD4ED880A42EE84
:10510000220AF5EEC00AF1EE10FA02D270EEA10A00
:1051100006E010EE900A5349884201DD70EEE10A84
:10512000C4ED870A30EE411A11EE100A10F17F5FCC
:1051300004D931EE210AC0EE081A0BE011EE100A74
:105140004949884204DD31EE610AC0EE081A01E0E7
:10515000C1EE081A2821F0EE610A01200CE00A1ABB
:10516000531E04EB830304EB820293ED8E0A82ED5F
:105170008E0A70EE200A401C8842F0DBC4ED8E1AC5
:1051800000EE101AB8EEC01A80EE810A84EDB60A5D
:10519000D4ED040AF8EEE00A20EE200A84EDB70A06
:1051A000D4EDB80A9FED311A60EE810A9FED301AF6
:1051B00040EE010AC4EDB80ABDEC028B70BD006878
:1051C000704790ED890AD0ED8A0A30EE200A7047C8
:1051D00090ED890A704790ED870A704790EDB70A05
:1051E000704790EDB60A70472248F1E710B50446C3
:1051F0000020A0609FED190A84ED8A0A1D489FEDEA
:105200001E0AFFF7F5FEFFF7EFFF84ED8A0A10BDD7
:1052100080ED880A704780ED8A0A704740687047C1
:105220000B4601464FF4007203F1180004F00CBD68
:105230001048C6E70F48CEE70E48D2E70D48CDE745
:105240000C48BCE70B48D1E70A48E1E70948E2E728
:105250000848E3E70749E3E70000024000000000D8
:10526000DB0FC940DB0FC94000004040A4707D3F08
:105270000AD7233CA01200206F1283392649FFF77A
:105280004DBE2548FFF757BE2348FFF752BE70B505
:105290000024224D204A204655F82410FFF75DFED9
:1052A000641CFF2CF6DD1E4D4FF4A0760AE0A4F539
:1052B000807005EB8000184990ED000A2046FFF74A
:1052C00056FE641CB442F2DB13490020087270BD24
:1052D0002DE9F0410024114E0F4D21466868FFF77B
:1052E00057FE46F82400641CFF2CF6DD0C4E4FF4EC
:1052F000A0770AE021466868FFF756FEA4F58070A3
:1053000006EB800080ED000A641CBC42F2DBBDE8C5
:10531000F0810148FFF735BE84150020900B002076
:10532000900A002030B585B001210420FCF731FE41
:1053300001218803FCF75DFE00248DF808408DF8FC
:105340000B404FF40055019501A94948FCF70EFCAC
:105350000D210220FDF700F903958DF810400C2077
:105360008DF8110001258DF8125003A8FCF782F882
:105370004FF4A060FBF770FE28208DF800008DF838
:1053800001408DF802508DF803506846FBF769FE26
:1053900005B030BD30B585B001210420FCF7F9FD22
:1053A00001218803FCF725FE00258DF808508DF8B3
:1053B0000B500124019401A92D48FCF7D7FB0021D3
:1053C0000220FDF7C9F803948DF810500C208DF8D9
:1053D00011008DF8124003A8FCF74CF84FF4A060C0
:1053E000FBF73AFE06208DF8000002208DF8010040
:1053F0008DF802408DF803406846FBF732FEC7E7A0
:1054000030B585B001210846FCF7C3FD01218803B2
:10541000FCF7EFFD00248DF808408DF80B400825BF
:10542000019501A91348FCF7A1FB03210020FDF71A
:1054300093F803958DF810400C208DF8110001248D
:105440008DF8124003A8FCF715F84FF4A060FBF7A5
:1054500003FE09208DF8000002208DF801008DF870
:1054600002408DF803406846FBF7FBFD90E7000023
:10547000000802400000024010B586B0464C2046AD
:10548000FCF782FE0021ADF80410ADF808100222EE
:10549000ADF80A200122ADF80C205002ADF80E0044
:1054A000ADF81010ADF812100720ADF814004FF44D
:1054B0008270ADF8060001A92046FCF7BBFE012171
:1054C0002046FCF759FF06B010BD2DE9FC41012133
:1054D0008803FCF782FD01210620FCF75AFD2F4EC0
:1054E00005220A213046FCF7B9FB2D4F0522022187
:1054F0003846FCF7B3FB052203213846FCF7AEFB28
:1055000002248DF804408DF8054000258DF80650E2
:105510008DF807406002009069463046FCF726FB94
:105520000420009069463846FCF720FB08200090D4
:1055300069463846FCF71AFB01210220FCF729FDD9
:10554000E002009001218DF804108DF805408DF8DF
:1055500006508DF8071069463046FCF707FBFFF749
:105560008BFFBDE8FC8170B505460B4C022120463F
:10557000FCF7A7FF0028F9D029462046FCF76EFF6C
:1055800001212046FCF79DFF0028F9D02046FCF7BA
:1055900063FFC0B270BD000000380040000402404C
:1055A000000802407FB5044601210220FCF715FDEA
:1055B000184D2846FCF7FAFFC820444302942920DE
:1055C000ADF804000020ADF80C00ADF8060001A90C
:1055D0002846FDF7A7F801212846FDF789FC01229E
:1055E00011462846FDF771FC01212846FDF718F900
:1055F0004FF4A060FBF730FD1D208DF80000012066
:105600008DF801008DF802008DF803006846FBF765
:1056100028FD7FBD000400401CB541EAC000009099
:105620004FF48051C348FCF70BFB9DF80100FFF7D6
:105630009AFF01909DF80000FFF795FF01901CBDB7
:1056400070B505460846144600260221FFF7E4FF20
:1056500006E004B9FF263046FFF785FF05F8010B89
:10566000641EA4B2F5D2BDE870404FF48051B14839
:10567000FCF7E4BA70B51D2000F050F9092000F0E5
:105680004DF9062000F04AF9282000F047F9A94D0D
:105690004FF4805421462846FCF7D2FA02224FF4F8
:1056A0000871A548FFF7CCFF21462846FCF7C6FA4B
:1056B0001D2000F028F9092000F025F9062000F04F
:1056C00022F9BDE87040282000F01DB970B5994D51
:1056D0004FF4805421462846FCF7B0FA214628466C
:1056E000FCF7AEFA02224FF408719348FFF7A8FFC7
:1056F00021462846BDE87040FCF7A0BA1CB541EA37
:10570000C00001904FF480518A48FCF799FA9DF847
:105710000500FFF728FF00909DF80400FFF723FF26
:1057200000901CBD7047F8B505460E46144624E0AF
:105730001D2000F0F3F8092000F0F0F8062000F03A
:10574000EDF804213046FFF7D9FF15F8010BFFF7FC
:105750000AFF00901D2000F0D6F8092000F0D3F8D1
:10576000062000F0D0F8282000F0CDF84FF480514A
:105770007048FCF763FA761CB6B2641EA4B2D7D2A6
:10578000F8BD70B505460E46144627E01D2000F012
:10579000C5F8092000F0C2F8062000F0BFF8282064
:1057A00000F0BCF802213046FFF7A8FFFF20FFF70A
:1057B000DAFE05F8010B1D2000F0A5F8092000F025
:1057C000A2F8062000F09FF8282000F09CF84FF483
:1057D00080515848FCF732FA761CB6B2641EA4B267
:1057E000D4D270BDF8B5FFF79DFFFFF76EFE002421
:1057F00093254FF401760095022231466846FFF763
:1058000092FF0094022231466846FFF7BAFFBDF8C6
:1058100000009328EFD10094042231466846FFF738
:1058200082FFFFF77FFD282000F06DF8FFF7B2FD43
:10583000FFF7E6FD062000F066F8092000F063F8A7
:105840000A20FFF7AFFE1D2000F05DF862B60020D1
:10585000F8BD704710B5FFF70DFF3748008810BD41
:1058600010B5FFF733FF3448008810BD38B5054642
:10587000084614460421FFF7CFFE04E02878FFF71E
:1058800072FE00906D1C641EA4B2F7D2BDE83840D1
:105890004FF480512748FCF7D1B910B54FF40044BC
:1058A0002046FBF738FE30B12046FBF73DFE0221D3
:1058B0002048FCF7C3F94FF400542046FBF72BFEB9
:1058C000002806D000F067FB2046BDE81040FBF73B
:1058D0002BBE10BD10B500F0C2FBBDE8104001208A
:1058E000FBF722BE10B500F01AFCBDE810400820FE
:1058F000FBF71ABE10B500F0FDFABDE8104001211B
:105900000E48FDF704BB00F01F0201219140400941
:10591000800000F1E020C0F80011704700F01F0285
:10592000012191404009800000F1E020C0F8801181
:105930007047000000040240A00000200004004066
:1059400010B590B001214805FCF723FBC74C204659
:10595000FBF7E0FB2046FBF7F0FC0028FAD10190B2
:10596000C3490291C3490391402104914FF4A041DE
:10597000059106904FF480610791089009900A9074
:10598000C9010B910C900D900E900F9001A920462B
:10599000FBF74BFC012210212046FBF7FFFC10B067
:1059A00010BD10B590B001214805FCF7F2FAAF4CDC
:1059B000183C2046FBF7AEFB2046FBF7BEFC002858
:1059C000FAD10190AA490291AB49039104904FF496
:1059D0004871059106904FF48061079108900990F5
:1059E0000A90C9010B910C900D900E900F9001A997
:1059F0002046FBF71AFC012210212046FBF7CEFCC3
:105A0000CDE770B59D4C994D21462846FBF7DFFC4C
:105A1000002809D021462846FBF7FCFC6114BDE8AC
:105A200070409748FCF70AB970BD70B58F4D954C22
:105A3000183D21462846FBF7CAFC002809D0A914C6
:105A40008F48FCF7FBF821462846BDE87040FBF77D
:105A5000E1BC70BD2DE9F04104460D469046834EF1
:105A600000213046FBF71AFC804F0021183F3846D2
:105A7000FBF714FC41463046FBF734FC4146384600
:105A8000FBF730FC8048016841F4806101607E488A
:105A90001830016841F4806101607B480C3004607B
:105AA0007948243005607248008874493046FBF715
:105AB00064FC74493846FBF760FCB1147048FCF78D
:105AC000BFF801213046FBF7E9FB3846BDE8F0415D
:105AD0000121FBF7E3BB70B504460E46634D002180
:105AE0002846FBF7DBFB31462846FBF7FBFB664805
:105AF000243004605E48008860492846FBF73DFC7E
:105B0000A9145F48FCF79CF8BDE870405748012194
:105B10001838FBF7C3BB2DE9F04104460F46904609
:105B2000524D0021183D2846FBF7B8FB4F4E00218F
:105B30003046FBF7B3FB41462846FBF7D3FB414613
:105B40003046FBF7CFFB49497039886D40F48060DF
:105B50008865086F40F4806008674C66CF674448EA
:105B60000088434C0C3C02212046FCF7AAFC00288C
:105B7000F9D001212846FBF791FB01213046FBF7C4
:105B80008DFB4FF0C05421462846FBF7E1FB00286F
:105B9000F9D03E4F30463946FBF7DAFB0028F9D002
:105BA00000212846FBF77AFB00213046FBF776FB05
:105BB00021462846FBF7E1FB39463046BDE8F04177
:105BC000FBF7DBBB2DE9F04104460D469046274E1E
:105BD0000021183E3046FBF761FB244F0021384678
:105BE000FBF75CFB41463046FBF77CFB4146384601
:105BF000FBF778FB1D497039086F20F48060086757
:105C00004C66CD671A480088194C0C3C022120468E
:105C1000FCF757FC0028F9D001213046FBF73EFB8A
:105C200001213846FBF73AFB4FF0C054214630467D
:105C3000FBF78EFB0028F9D0144D38462946FBF7B8
:105C400087FB0028F9D000213046FBF727FB002115
:105C50003846FBF723FB21463046FBF78EFB2946EF
:105C60003846BDE8F041FBF788BB00007060024099
:105C70000C38004090150020906500202080002006
:105C800000040240008000185864024020000020F8
:105C90007D48006870477C4B196813E00A8982428E
:105CA0000FD10A68486802B1506000B1026000225A
:105CB0000A604A601A6809891289914200D1186005
:105CC000704749680029E9D1704730B56E4D2C689E
:105CD00003E020896468FFF7DEFF002CF9D1002083
:105CE000286030BD30B500282CD0674A00241168E8
:105CF00051B10D8903899D421AD904601168416030
:105D000008601060002030BD106044600460002016
:105D100030BD012030BD08D90A68026041600A68C0
:105D200002B150600860002030BD4A6822B11146BF
:105D30000A899A42EFD1ECE74860016044604FF075
:105D4000000030BD4FF0010030BD30B504460020EA
:105D50004FF6FF7505E02046FFF7C4FF002803D18A
:105D600028342189A942F6D130BD00B5464900202A
:105D70000860081DFFF7E9FF002803D143485DF8DC
:105D800004EBE2E700BD10B5414820230380002466
:105D900044804460846044F21F0181814CF250329F
:105DA000026144618483046280F840403948038082
:105DB0004480446084608181026144618483046220
:105DC00080F8404034480470FFF7CFFF08B1FFF778
:105DD0007CFF3248047032480470324804803248F4
:105DE000047032480460324804603248046032482B
:105DF000046010BD2DE9F84F2E4F3E68002E40D0B4
:105E0000DFF89C802A4C294D98F800000090DFF8BC
:105E10009890DFF890A0236899F80010BAF8000075
:105E20002A68B0470646FF2E2BD0DFF870B0002757
:105E30009BF8000001280DD0022804D003280FD0C1
:105E4000042812D10CE01C49086818B106F090FC37
:105E50001948076000221146304602F02FFE04E088
:105E600022683046296802F029FE8BF80070AAF8F3
:105E7000007089F800702F60276088F800700D4866
:105E80000760BDE8F88F0000DC00002064090020F6
:105E9000A06B0020E46B00201803002029030020E1
:105EA0002A030020320300202B0300203C030020A3
:105EB00040030020440300204803002010B5C748D9
:105EC00003F0FAFDC6480288C6480188BDE81040C4
:105ED000C248FFF7CBBC10B5C3480288C34801884D
:105EE000BE484438FFF7ACFBBC48BDE8104044381E
:105EF00003F039BEBE484068002803D1BD49488838
:105F0000401C4880BC48007830B1BC49B1F9000061
:105F1000002801DD401E088001F06BB870B5B8485C
:105F20000078002817D1B7480078002813D0002245
:105F3000AF4B988B012800D10122B34CB34DAD4833
:105F400000214AB1596099836160A1834180012198
:105F500041702968416070BD4278012AFBD12A68EE
:105F6000456843F60956521BA94D6A434FF4FA653A
:105F700092FBF5F54288724305EB82125A6062602B
:105F800041804160417070BDA2480078002801D076
:105F900003F046BE70472DE9F0419A48007800288A
:105FA0005BD0FFF75DFC0446904F8F4D904E60052F
:105FB00025D59948007828B19148007810B19749C3
:105FC00000200880308D08B1401E3085FFF7A6FF05
:105FD0009349012008709348007810B1FFF77BFFC8
:105FE0000DE0022239889048FFF72AFB388829887B
:105FF00002220844801E81B28B48FFF721FB200556
:1060000003D5288808B9FFF789FF7088012801D1D6
:10601000FFF7BAFF7F487C4C007830B160880128D8
:1060200001D0222801D1FFF749FFFFF719FC4005F5
:1060300013D5708D401C70856085022239887A489E
:10604000FFF7FEFA38882988BDE8F0410844801E31
:1060500081B202227448FFF7F3BABDE8F0812DE95E
:10606000F04772480025058065480078002854D024
:10607000DFF8A0816E4E98F8000010B13088401C07
:1060800030806C4802882AB35548644C5E4F0188C2
:106090005548B4F800C00088944512D9664A128960
:1060A00040B1DFF84C91B9F82830934202D8DB1C9C
:1060B000A9F8283029B120B93B8D934201D8DB1CC7
:1060C0003B8558B951B1FFF7CBFB000503D42088BD
:1060D000401C208006E025803D8503E00CF1010C8A
:1060E000A4F800C04748007820B94E48007808B1AD
:1060F000FFF7F1FEFFF748FF98F8000000280CD0EA
:106100004E4C2088002808D03188884205D1FFF7FE
:10611000D5FE2088012800D13580BDE8F08710B574
:106120004748002404803B480078002808D03648BF
:106130004088032804D14148008808B9FFF7BEFE13
:106140003B48048010BD10B501F033F8FFF71BFE8B
:106150002849002048804860487001220A7010BD1C
:1061600070B524480078002836D026482C4C294E9B
:10617000007808B1217811BB21490978F9B90125C6
:1061800080B9FFF767FB410506D5257025480078E3
:1061900040B1FFF7A0FE05E01349098811B90005D9
:1061A00000D52570274D4FF48074C5F88041FFF766
:1061B000EBFE307808B1FFF781FEC5F8004101F031
:1061C0003DF8FFF717FE00F056FF3078002803D0A7
:1061D000BDE8704002F0BEBF70BD0000F468002052
:1061E000D4020020DE020020D6020020DC020020C3
:1061F000A06B002098020020B4020020BA02002008
:10620000AD020020B0020020E46B00202404004016
:1062100040420F00AA020020AE020020BC02002073
:10622000AB020020A9020020E2020020C4020020EC
:10623000CE020020BE0200200C030020CC02002071
:10624000C802002004E000E01A49002008601A4952
:1062500008807047C188090B09290CD2DFE801F0DA
:106260000B09050909090909070002F091BA02F0B2
:106270006ABC042070470520704710B50D4C20689B
:10628000002805D0002101F0B6F9002020600DE0C3
:106290004FF4807006F094FA04464CB10E22074980
:1062A000204603F0D1FC204602F04DFC002010BD3A
:1062B000072010BDA402002034030020286C002019
:1062C00038B504464FF40175022229466846FFF7A7
:1062D00058FABDF8002022400092282001F041F831
:1062E000022229466846FFF71EFA282001F02EF800
:1062F00038BD38B504464FF4017502222946684678
:10630000FFF73FFABDF8002022430092282001F059
:1063100028F8022229466846FFF705FA282001F0EE
:1063200015F838BD38B500240094022240F202511D
:106330006846FFF726FABDF800000090F84902050C
:1063400001D4C00401D50C7038BD0120087038BDDF
:1063500010B54FF4006101EBC001F14808223C3058
:10636000FFF70FFAEE483C3010BD38B54FF480719E
:10637000009140F6060101EBC00402222146684666
:10638000FFF7D1F9022221466846FFF7FAF9BDF876
:106390000000C005F6D538BD38B50021009140F6A3
:1063A000060101EBC004022221466846FFF7BBF953
:1063B000022221466846FFF7E4F9BDF80000C00557
:1063C000F6D438BD2DE9F04705460024D44E42F6F8
:1063D000FF70318E814209D30020FFF7B9FF418859
:1063E0000288CB0704D01720BDE8F0871420FBE714
:1063F000D30701D01720F7E783794FF48079DB07C3
:106400004FF480574FF4405806D08088C0F3810382
:10641000012B03D0162414E0162412E0800701D4C7
:1064200016240EE0222901D216240AE0494501D99A
:10643000162406E0BA4201D2162402E0424500D3F7
:10644000162414BB0120FFF783FF41880288CB0785
:1064500001D01720C8E7D30701D01720C4E78379FC
:10646000DB0705D0808810F00C0F03D0162414E051
:10647000162412E0800701D416240EE0222901D24E
:1064800016240AE0494501D9162406E0BA4201D291
:10649000162402E0424500D316244FF0010A4FF0C3
:1064A0000009CCBB032D40D986F809A00320FFF7D3
:1064B0004FFF014648880A88C30701D0172093E799
:1064C000D30701D017208FE7CB885FEAC37C00D0C9
:1064D00048B1DB0723D0B38D984202D10BB14428D9
:1064E00003D903241FE004241DE0888810F00C0F5A
:1064F00001D0042417E0B17B022903D1BA4201D3B1
:10650000424504D3022908D0F18E8A4205D1800782
:1065100009D586F8099006E007E0022403E0B18D72
:10652000084300D0032404B11E24B4BB022D46D975
:106530000220FFF70DFF014648880A88C30701D0F3
:10654000172051E7D30701D017204DE7CB885FEA2A
:10655000C37C00D070B1DB072BD0F38D984226D1DD
:106560002BB3442823D88888C0F38101012903D0A4
:10657000042422E0042420E0B17B022903D1BA42A2
:1065800001D3424504D302290FD0B18E8A420CD1E7
:10659000410603D586F804A002E010E086F80490D6
:1065A00080070AD586F8099007E0022405E0032455
:1065B00003E0F18D084300D0032404B11D243CB155
:1065C00009E02846FFF7C4FEC08830826D1CEDB29A
:1065D000707B8542F5D3204606E72DE9F04F85B064
:1065E0000027039702970197009700254FF00309B2
:1065F00003264C4880894C498C890440DFF820816F
:10660000A8F8387088F803700220FFF7A1FE01880F
:10661000A8F834100079800700D501260320FFF781
:1066200097FE0188A8F836100079800701D54FF051
:1066300001093E48B8F82CC0DFF8F4A00CFB0913A0
:106640000088834204DDBAF8002002448A420AD856
:10665000384ADFF8E4B01288934208DDBBF8003016
:1066600013448B4203D91E2005B0BDE8F08FB8F863
:106670003430B8F82E9009FB0636864204DDBAF8AD
:106680000090484498420CD8964204DDBBF80000C4
:106690001044984205D88E4205DD01EB0C0098426B
:1066A00001D91D20E0E702224FF4186104A8FFF78A
:1066B00068F8BDF81000049004224FF41A6101A894
:1066C000FFF75FF8042240F6A4116846FFF759F877
:1066D000009A144E7088DFF85090B9F80210BDF897
:1066E000103013F4106F47D013F4C06F07D05FEA77
:1066F000835C06D45FEA435C03D53020B4E73020E6
:10670000B2E7DCB15FEA447C02D45FEA835C05D483
:106710005FEA047C12D45FEA435C0FD53020A3E724
:10672000A8020020A06B0020E46B0020FA020020E9
:10673000F4020020F8020020F6020020DDF804C078
:10674000BCF1000F09D0ACF5404ADFF810B4AAF54F
:10675000547ADA4501D3362086E75FEA835A06D5B4
:106760005FEA435A03D512B1624500D301251DB13A
:10677000E40601D4302077E7F94C94F800C00124F6
:10678000BCF1000F1ED013F4106F0DD05FEA435C14
:1067900003D4032812D0032910D09B053DD402282E
:1067A0000ED002290CD038E0022805D0032803D0EF
:1067B000022901D0032930D1302055E7302053E79A
:1067C000302051E713F4106F05D0B8F82E00C8B18F
:1067D000B5B1032017E0B8F82E0038B10120B8F8A1
:1067E0002C1009B1222109E0002107E0B8F82C00A3
:1067F00010B10020012101E000200021B4830CE051
:10680000022000E00020B8F82C1029B1590501D56C
:10681000032102E0022100E00021032802D0022827
:1068200005D009E0019B7362C9F8243004E0019BA4
:1068300073629BB2C9F8243098F809300BB980B163
:1068400079B150EA010301D088F8084098F808307F
:106850004FF4806A73B1B8F82E3023B1A8F838A08D
:1068600008E0292000E7B8F82C301BB14FF4006392
:10687000A8F83830022805D0032803D0022901D017
:10688000032906D188F80540B8F82E300BB9A8F8CE
:1068900038707080A9F80210A8F82470A8F8267043
:1068A000A8F81670A8F81470012D02D0022821D083
:1068B00022E0019882420DD3B2FBF0F189B2A8F830
:1068C0001610B2FBF0F300FB13232BB9491CA8F8F8
:1068D000161001E0A8F81640B2FBF0F189B2A8F852
:1068E0002410B2FBF0F300FB132048B1491CA8F8B8
:1068F000241005E0A8F81640032901D0A8F8244088
:106900009848078002224FF4846102A8FEF739FFFD
:10691000BDF808000290B8F82E10D1B1C8B102221B
:10692000514603A8FEF72DFFBDF80C00039060B19F
:10693000801CBDF80810484346F2A7110844491CC2
:10694000B0FBF1F0A8F8320006E00297A8F8327028
:1069500002E00397A8F83270B8F8320010B998F83E
:10696000041089BB10B198F8040068B398F80800C7
:1069700040B1B8F82E0028B1B8F8380040F4806073
:10698000A8F83800A8F81E70A8F81C70A8F82070A5
:10699000A8F8227088F8067088F80770A8F81870B0
:1069A00089F8407086F840703785BDF81020900552
:1069B00039D56D4D01980A2348B1B0FBF5F1052991
:1069C00008D2A8F81E400DE0FFE71F204CE6A8F80B
:1069D0001E7007E04FF6FF7606EA4101B1FBF3F1C6
:1069E000A8F81E1051051ED50099814204D2B8F8AE
:1069F0001E00A8F8220016E0B1FBF5F0052802D22F
:106A0000A8F8224007E04FF6FF7101EA4000B0FB12
:106A1000F3F0A8F82200B8F82200B8F81E1000EB36
:106A20005100A8F82200B8F82E0010B10220FFF79C
:106A3000B3FCB8F82C0010B10320FFF7ADFCFFF752
:106A40003DFA002010E6FF2048498A7A002A01D04A
:106A5000088D70474A79002AFBD0C8220A83002299
:106A60004A83704741480021C1704170704710B59A
:106A70003E4CE08D002802D00220FFF776FCA08D6E
:106A800010B10320FFF771FC4FF2F330FFF718FC51
:106A90000020E07020726071A071E071E082A0823D
:106AA000E083A08320846084A084E084304981F85E
:106AB000400020832071A0702949087010BD28492A
:106AC00000200870704738B50091284CA27B8242A4
:106AD00000D0A073A1F57F42FF3A06D000910222B8
:106AE0004FF49A716846FEF71EFEA07B00900222CA
:106AF0004FF498716846FEF716FE38BD2DE9F05F39
:106B00008A460024A346194F611E79824FF001097D
:106B100087F80B90C10600F00F063846807B05D53C
:106B20004FF0010B20F01000B87306E0C10601D54C
:106B3000012E72D100F00F00B873B87B0001304411
:106B4000C5B2442D2BD015DC122D1CD0222D1AD00D
:106B5000242D1DD0422D26D115E00000B13C4FC39D
:106B60001803002026030020A0860100A8020020B0
:106B7000E46B0020482D12D0822D04D0842D0ED03D
:106B8000882D10D10BE00220FFF71CFC04460AE020
:106B9000F649881E02F081FE0446200003D1787B6E
:106BA000FFF710FC04464FF000083CB1B87B022808
:106BB0007ED004287DD0082840D1F0E0A7F82A80B4
:106BC000342D1ED01EDC222D2CD00EDC142D18D01E
:106BD00006DC112D6ED0122D35D0132D6BD12CE08B
:106BE000182D0ED0212D66D1B2E0282D09D004DC5D
:106BF000232D06D0242D5ED145E0312D1FD0322D1E
:106C000059D1C8E0482D60D00DDC422D75D005DC8F
:106C1000382D73D0412D4ED191E0FCE0432D6DD045
:106C2000442D48D19EE0A5F18100082843D2DFE839
:106C300000F07D6DB266B4B4B4991324BBE01324A4
:106C4000FFF73DFFB7E0FFF76DFB387800B951243F
:106C5000002C39D100F0F4FB0446200009D187F85C
:106C60000B8002F0B8FD0446200002D1C04880F835
:106C700000904CB3FF2C27D0F87A08B902F0ADFD94
:106C800000F015FC97E0FFF7A8FC044620000DD1AA
:106C900087F80B80B5480A3002F0A1FD04462000B9
:106CA00004D1388FFFF725FB87F8029064B103E029
:106CB0007DE078E054E070E0FF2C7CD0F87A08B9F1
:106CC00002F0E5FDFFF7D3FE75E0FFF7BCFE0446DA
:106CD000200008D187F80B8002F0DBFD044620007D
:106CE00001D187F8019004B3FF2C64D0F87A08B979
:106CF00002F0D1FDFFF7B6FE5DE010E04BE002F0E0
:106D0000CAFDFFF7AFFE87F80B8054E002F0C3FD29
:106D10000446FFF7A7FE87F80B8034B9422502F03E
:106D2000B6FDFFF7A4FE87F80B8044E002F0B3FD48
:106D30000446FFF797FE87F80B805CBB412502F005
:106D4000A6FD0446FFF793FE87F80B8014BB2125B0
:106D500000F0ADFB02F041FD0446FFF7B0FE2AE073
:106D6000FFF7ADFEBBF1000F02D0284602F032FD66
:106D7000B87A70B9B87B10F00C0F0AD0F88D18B142
:106D80000220FFF709FB04E0B88D10B10320FFF7E4
:106D900003FBFE240FE011240DE012240BE002F0AF
:106DA0007AFDFFF75FFE02F072FDFFF760FE162C22
:106DB0001AD00220B873FF2C1DD0B87B00F00F0151
:106DC000B14250D054EA0A0134D03043000731D5E3
:106DD000787818B102F05FFDFFF744FEF88D20B31C
:106DE0000220FFF7C2FA25E000F061FB02F0F5FC9B
:106DF00087F80E90DFE787F80C907D85122D0CD078
:106E0000132D0AD0242D0CD0482D0AD0C82078820A
:106E1000788A32387882BDE8F09F4FF4FA60788241
:106E2000F6E742F228307882F2E7B88D10B10320FD
:106E3000FFF79BFA4CB1B87B082801D10420B87346
:106E4000B87B40F01000B87306E0BAF1000F02D032
:106E5000544646F01006BE7387F80C802146B87B76
:106E6000BDE8F05F2FE687F80C80BDE8F05F0021F9
:106E700029E62DE9F0413D4F2E3F387B002879D09F
:106E800000250024788A0126A04648B1788D122872
:106E900047D0132845D0242858D0482815D16DE074
:106EA000788DC0F30715122806D0132804D02428A3
:106EB0000ED0482809D117E0F87A08B902F08DFC05
:106EC00000F0F5FAB87A08B13C8D81E001247FE04A
:106ED000F87A08B902F0DBFCFFF7C9FDB87A08B10F
:106EE0003C8D75E0012473E0787960B1B87910B118
:106EF000F87810B105E02D240BE0F88D08B11B24C3
:106F000007E01A2405E0F88D08B11B2401E00825EC
:106F10007E7054B3F87A08B902F0BDFCFFF7A2FD09
:106F200056E0F87A08B387F80B8002F054FC30B1D1
:106F3000FF284DD002F051FC00F0B9FA48E00C48AF
:106F4000067097F82A0000F00F0541E0F87A60B16A
:106F500087F80B8005480A3002F041FC58B1FF2841
:106F600036D002F094FCFFF782FD31E0D60200201B
:106F7000EE0200203BE0BE70042529E0F87A38B329
:106F80007879C0B1B7F91800002821DDB7F91A10D7
:106F900088421DDCA7F81880A7F81A8002F079FC57
:106FA00030B1FF2814D002F076FCFFF75BFD0FE054
:106FB0007E7008250CE0F88D08B1F87840B102F039
:106FC00068FC88B1FF2803D002F065FCFFF74AFD9A
:106FD000002D0CD087F80C800CB145F0100521462F
:106FE0002846BDE8F0416EE57E700825F0E7BDE873
:106FF000F08130B5E04A507900282AD0D08B0124A6
:10700000002320B1918B814201D3937106E0918BD3
:10701000814202D2908B401C90839471907940B150
:10702000518C31B1108C884202D2401C108400E097
:1070300093719079D0B1D148D14D018D2D89A9425C
:1070400008D2D471B2F91800002802DD508B401C20
:10705000508330BDD1790029FBD0D37180F84040F6
:10706000B2F918000028F4DD538330BDD079002830
:10707000FBD0D37130BD38B5BF4C608E002816D020
:107080000025009502224FF488616846FEF779FBDF
:10709000BDF800000090C00709D1E08D38B16078DC
:1070A00020B11B210420FFF729FD38BDE570607970
:1070B0000028FAD060780028F7D0A07938B1E079BC
:1070C0000028F2D1BDE838401A21042016E5BDE8B9
:1070D00038402C21042011E570B50C46A64D002641
:1070E00001212A7B002A40D0E87A28B1002C02D066
:1070F000A9722C856E8270BDECB1A9722C85688D49
:10710000122806D0132804D0242807D048280ED1EE
:1071100009E002F062FB00F0CAF908E002F0B7FBF8
:10712000FFF7A5FC03E002F0B6FBFFF79BFC688DC0
:10713000C0F3071011E0688D122806D0132804D080
:10714000242805D0482806D104E08E4A117002E0B8
:10715000A97000E0697000F00F002E730CB140F0D0
:1071600010002146BDE87040ADE464B1A9722C85E1
:10717000AA7B00F00F0102F00F029142BBD2214620
:10718000BDE87040BAE4A87A0028B4D0A87B00F02B
:107190000F000C280AD1E88D18B10220FFF7FCF887
:1071A00004E0A88D10B10320FFF7F6F8AE722E852B
:1071B00070BDF8B500250095022204216846FEF74F
:1071C000E0FABDF8000000906B4C000A60730222E8
:1071D00006216846FEF7D5FABDF80000009040F69B
:1071E000FF7101EB80202086FFF79CF8002604E069
:1071F0003046FFF7BAF8761CF6B2607B8642F7D3CA
:1072000000F0ECF8E5722573E5706570A5702571E6
:107210006586A583E583258465846571A5722585CA
:107220002587E585A5850120A0730021FFF74BFC8C
:1072300065852572BDE8F840FFF706B82DE9FC41E9
:10724000002601960120009000F0FBFADFF834815F
:1072500040F60E0798F8000038B102223946684619
:10726000FEF78FFABDF800000090FEF7F3FA04462F
:10727000414DE00710D0287B70B902224FF4907185
:1072800001A8FEF77EFABDF80400019024F0110475
:10729000C0B20021FFF732FCE0060FD5287B68B9A9
:1072A000A87BC1060AD420F01001012906D024F0E1
:1072B000100400F00F000021FFF720FC287B08B12C
:1072C000FFF7D7FD98F8000000283DD0BDF800007A
:1072D000C00705D1A87B002100F00F00FFF70EFCCE
:1072E000A00509D56E8728480222018822483A3035
:1072F000FEF719FA00F0EEF9BDF80000234C810703
:1073000001D5217819B1800718D42078B0B100F0E8
:107310000EFA207828B1BDF8000040F4007000900B
:1073200004E0BDF8000020F400700090BDF80000FB
:107330000090022239466846FEF7F5F9FEF78AFA10
:10734000C00501D500F011FABDE8FC8100F01F0274
:10735000012191404009800000F1E020C0F80011B7
:10736000704700F01F02012191404009800000F1A8
:10737000E020C0F880117047A8020020A06B002018
:107380000C030020EE020020FA020020EF02002091
:1073900010B54B885A1C92B28C88944200D10022BE
:1073A0000C88944201D1072010BD01EB8303986043
:1073B0004A80002010BD0188428891420BD000EB2A
:1073C00081029268491C89B201808388994203D165
:1073D0000021018000E0002210467047F8B5FD4D05
:1073E000222068814FF4807028810001A881E88103
:1073F000F9480024048044800A21818034380480C4
:10740000448081802C61AC616C61EC61EC70009413
:1074100040F60E06022231466846FEF7B2F9BDF884
:10742000000020F400700090022231466846FEF70A
:107430007AF9AC706C702C70AC712C716C71F8BDF9
:1074400070B500250020FEF783FFE24C4188618182
:107450000088A0810120FEF77BFF41882181008800
:10746000E081A28963891344834204D9084490428D
:1074700001D9162070BD0020FEF78EFF0120FEF717
:107480008BFF608905F09CF9206128B10021E17132
:1074900005F06EF9284670BD0120E0710A2005F064
:1074A0008FF9206100B9022505F062F9F2E7F8B51D
:1074B000C84D0024AC700020FEF757FF0120FEF7F6
:1074C00054FFA86908B105F053F9E86920B1A9692A
:1074D000884201D005F04CF9686938B1A969884241
:1074E00004D0E969884201D005F042F9AC616C61D1
:1074F000EC61EC70009440F60E06022231466846BC
:10750000FEF73FF9BDF8000020F400700090022261
:1075100031466846FEF707F96C702C70AC712C711F
:107520006C71AD48FFF747FF08B105F021F9AA4893
:107530003438FFF740FF002803D0BDE8F84005F0DD
:1075400017B9F8BD8188C1F30321032901D00220B6
:107550007047FEF77FBE2DE9F84305469F48007847
:1075600000F00F00012807D09A4EB07830B1707843
:1075700030B10720BDE8F883F020FBE7F020F9E701
:107580002C88F189A01D804682B22846FEF7CBF8F0
:1075900000270097022240F60C016846FEF7F1F83A
:1075A000BDF800000090BDF80000000518D4307A46
:1075B000001B801FC0B28A490F80022807D228F022
:1075C0000101C0F102022944854802F03DFBF08927
:1075D000318902220844801E81B28148FEF7A3F857
:1075E000706908B1376101E07E4830617561012042
:1075F00070700020BEE72DE9F04105460C460027DB
:107600007648007800F00F00012808D0A88820F400
:107610007040A8806F4E7179490703D004E0F020D4
:10762000BDE8F08101217171717940EA0130A880D3
:107630002846FFF790FF68B1674928463439FFF7BD
:10764000A7FE074617B144F0800406E07079401C9D
:10765000707102E07079401C7071200604D5B17918
:1076600004F07F000843B0713846D9E770B504468E
:10767000A188080B228804250126B2F5807F0BD94A
:10768000258021F47060A080E680082020812046BB
:10769000BDE870400021AEE74E4910B10A79904232
:1076A00012D008714C492046FFF772FE002810D016
:1076B0002580A18821F47061A180E6802081204688
:1076C000BDE87040002196E72046BDE8704005F017
:1076D0004FB870BD70B53F4C00256570A06900289B
:1076E00004D0E16911B905F043F8A5616069A061B2
:1076F000E06918B1FFF72FFFE56106E0364834383E
:10770000FFF759FE08B1FFF726FFA07900280DD03A
:1077100081070BD520F00200A0712069FEF7ADFDB6
:10772000002803D0A07940F00200A07170BD70B5B0
:10773000284DAC69002C11D06878002650B1E8695A
:1077400040B90120FEF711FE6869E8610120FEF7EB
:1077500023FE6E702046FFF7FEFEAE61E87810B1A2
:107760000020E87070BD0120FBE72DE9FC41194EB7
:10777000022201A8B189FEF704F8BDF804000190C7
:10778000F07901270025012817D10A2005F018F803
:10779000044694B125606560258104202080A0887E
:1077A00020F47060A080E78007202081002120461F
:1077B000FFF721FF204604F0DBFFBDF80400801D29
:1077C00081B201917078B27910430DD03770BDE865
:1077D000FC810000EC0200206C6B0020B60200204F
:1077E000E2020020386A002035707089814200D999
:1077F000019004F0E5FF306108B3BDF80420B189C1
:10780000FDF7BFFF0095022240F604016846FDF730
:10781000B8FFBDF800000090BDF8000000050AD5D3
:107820001A480580B089718902220844801E81B2FD
:107830001648FDF7A6FF3069FFF718FFC7E7377056
:10784000C5E72DE9F0410426012700251048FFF780
:10785000B2FD04461CB12046FFF774FE054655B143
:107860002680A08820F47060A080E7802581002118
:107870002046FFF7C0FE002CE7D10648007800281C
:1078800002D0BDE8F04170E7CAE60000E202002045
:107890006C6B0020EC02002010B50446FEF7F8F9EE
:1078A00003E00189A14202D040680028F9D110BD4F
:1078B000F0B59489C4F30320E6B200240225002B1E
:1078C00023D0072803D0082803D0012015E000208A
:1078D000F0BD90690078126912894243D21DD00828
:1078E0000029F5D1801CF0BD136900EB400705EBC2
:1078F0004707DB5B1C44401CC0B2B042F4D9E41D16
:10790000E0080029EFD1801CF0BD07280BD079B129
:1079100008280FD0106901EB410105EB4101405AE5
:10792000C01DC008F0BD10694088C01DC008F0BD72
:107930000120F0BD10690089C01DC008F0BD10B560
:107940006422B1FBF2F3047823440370B1FBF2F339
:1079500002FB13110A22B1FBF2F344782344437073
:10796000B1FBF2F302FB13113031817010BD82893B
:10797000C2F303220069082A04D001EB410100EBA5
:10798000410070470029FCD0801D70472DE9F04769
:107990008046202000FA08F087B2FEF779F9054604
:1079A00000261AE02889B0F5805F15D3444684B1DB
:1079B00095F80C90002309E0D9B22846FFF7D7FFCD
:1079C0008088384200D000245B1C9BB20CB14B4530
:1079D000F2D90CB9761CB6B26D68002DE2D13046F2
:1079E000BDE8F0872DE9F05F82460A9D8B46174679
:1079F0009846202000FA0AF01FFA80F9BBF8000030
:107A0000B0F5805F03D0FE48046854BB2CE0FEF75D
:107A10003FF904462000F8D1002DF6D01B20287035
:107A2000F3E72089B0F5805F1AD3554685B1237BF3
:107A300000260AE031462046FFF799FF808810EAC9
:107A4000090F00D00025761CF6B20DB19E42F1D987
:107A500035B92089A8F8000008F10208BF1EBFB29E
:107A600064680CB1012FDCD81CB12089ABF8000090
:107A700003E04FF6FF70ABF80000E14804603846C1
:107A8000BDE8F09F2DE9FF410F4698460025566955
:107A90009089C0F30320002F04D0072802D00928C2
:107AA0000DD033E0304602F0F3F885B2B8F1000FA4
:107AB00040D02A463146404602F0C6F83AE001245A
:107AC000304602F0E5F80644761C18E0BC420FD1BF
:107AD000304602F0DDF885B2B8F1000F06D02DB1C6
:107AE0002A463146404602F0AFF80FE000250DE08F
:107AF000641CA4B2304602F0CBF80644761CBC42AB
:107B000004D83078FF2801D0FE28DFD195B90C25A4
:107B1000B8F1000F0ED00D22BA49684602F094F871
:107B200039460DF10900FFF70AFF0D22694640466C
:107B300002F08AF804B02846BDE8F0810A307047A8
:107B40002DE9F041054600208A89C2F30327002D64
:107B500000D01020072F03D001234FF4187C31E010
:107B60000020E9E7082F13D00A6903EB430402EB76
:107B7000440422881F2A28D00DDCA2F10306092E16
:107B800019D2DFE806F02232182232321818220009
:107B90000C69A41DEDE7624517D006DC202A24D02D
:107BA0002E2A12D02F2A06D11FE0A2F50076623EBF
:107BB0001BD0012E19D0AB4202D26288104480B291
:107BC0005B1C9BB2AB42CDD9B6E70F304FF6F076D7
:107BD0003040AB42F4D20B2A01D0624502D1628818
:107BE000104480B2103080B2EAE71F304FF6E076E2
:107BF0003040AB42E4D2A2F50076623E06D0A2F558
:107C00000076633E02D0203080B2D9E7628810440B
:107C100080B2D5E770B57C4B7C4C03F1440241F651
:107C20003246751C9B8992892488022923D003DC63
:107C300039B1012937D106E0032928D0222932D1D0
:107C400012E0002070BDB04204D11CB1990701D5EB
:107C5000002070BDA84226D1900724D51CBB6C48DB
:107C6000008800B3002070BDA8421CD190071AD52F
:107C7000CCB1002070BDB04203D1590701D500201E
:107C800070BDA8420FD150070DD5002070BDB04285
:107C900003D1190701D5002070BDA84203D11007F8
:107CA00001D5002070BD122070BD2DE9FF4F85B0B9
:107CB0000F46DDE91248154699463E46B9F80C00D4
:107CC000C0F30321049100F0FF0A039704994FF4D5
:107CD0008053072906D00598984203D3D9F8180095
:107CE00090F800A0B8F1000F0CD00498072802D03B
:107CF0000598984203D2052009B0BDE8F08FCDF871
:107D00000CA018E0574501D91120F5E7F1B248461B
:107D1000FFF72DFE808870B13E4900F00702097818
:107D200001F00F01B1EB420F05D9400701D01A2035
:107D3000E2E70620E0E7D9F81CC0BCF1000F07D04D
:107D4000CDF8008023462A4639460598E047D3E718
:107D50000598B0F5805F37D2AFB3D9F818303946FF
:107D60004846FFF704FE4088C01DC2087F1E53F836
:107D70002710C8071DD00023C1F34E0040000AE0C1
:107D80000188090A2180857841EA052124F8021B2F
:107D9000801C5B1C9BB2B3EB520FF1D3D10707D011
:107DA000218801F47F412180008841EA1020208051
:107DB0004EE10888208048886080201D091D121F20
:107DC00001F042FF44E1FFE700200290019039E119
:107DD000D9F81850002346B10598B0F5805F04D358
:107DE000F0B24946FFF7ACFE0346180905EB400B1D
:107DF000F1B24846FFF7BBFD0546064800780BE0A8
:107E00005C03002019030020A06B0020D602002094
:107E1000D4020020B6020020297900F00F0001F002
:107E20000701B0EB410F71D8BE4204D0B8F1000F8A
:107E300008D0BE4206D336B90498072803D0A4F868
:107E400000A0A41CFCE02888B0F5E06F0DD3698881
:107E5000082902D82F3188B207E0102902D0202942
:107E600002D002E0062000E007201F2876D013DCB5
:107E70001F283AD2DFE800F03B4D4D727B4D727BFC
:107E80007BB09A9A3939393939873939398739394B
:107E90003939398739394D0034283AD012DC302845
:107EA00037D008DC202862D02D2832D02E2855D09B
:107EB0002F281AD15BE031282BD0322829D0332843
:107EC00013D126E0B0F5187F70D006DC352820D01D
:107ED00036281ED0372808D11BE0A0F50070613885
:107EE00064D0012862D0022860D0182004E7B8F1DD
:107EF000000F0CD06888010703D0C118090700D112
:107F0000A41CC0F3031004EB40047AE07CE01820CA
:107F1000F2E66888FC4903F00F0C31F8100000FA13
:107F20000CF082B2BBF80000190700D12180218833
:107F30002180B8F1000F03D010400143218004E0FC
:107F4000104020FA0CF00843208020882080A87878
:107F50001844000755D1A41C53E0FFE7180701D0CF
:107F60000520C9E6BBF8000024F8020B49E0180719
:107F700001D00520C0E6BBF800002080BBF802005D
:107F80006080241D3DE0180701D00520B4E6BBF851
:107F900000002080BBF802006080BBF80400A080D5
:107FA000BBF80600E08008342BE0FFE7180701D09B
:107FB0000520A1E668885946C01DC208204601F088
:107FC00043FE688840F00F01090904EB41040007F3
:107FD00017D02078208014E0180701D005208BE608
:107FE00068885946C01DC208204601F02DFE6888E9
:107FF00040F00F01090904EB4104000701D020788B
:108000002080012002901BE00020190700D1218070
:1080100069880A0704D01944090701D1A41C2180EA
:10802000002103E0A41C2180401CC0B2AA78C2F346
:1080300003128242F6D8287940070BD01A2001900B
:10804000761CB6B2039886427FF6C2AE029820B183
:10805000002051E606200190F2E701984CE62DE958
:10806000F04F87B08246DDE91049884617469B46A7
:108070004646BBF80C10C1F3032205920020C9B29A
:10808000049100210391CDF80880AAF5B053059A18
:10809000A3F5C261AAF5D0550691072A0DD0DBF8E9
:1080A0001800007848B906991F2905D94FF40072C5
:1080B000934201D3954200D20498B9F1000F0ED03B
:1080C0000599072903D0B8F1000F03D005E005207A
:1080D00007B012E6390000D02078029018E0804501
:1080E00001D91120F4E741465846FFF740FC874983
:1080F0008088097800F0380201F00F01B1EB920F8F
:1081000006D910F0380F01D01A20E1E70720DFE789
:10811000B8F1000F0ED006981F2805D94FF4007152
:108120008B4201D38D4205D2DBF81800007808B1EC
:1081300001200390DBF820503DB123463A464146EA
:108140005046CDF80090A847C2E7002001900720D4
:108150000090380079D1BBE7DBF81850F1B25846EF
:10816000FFF705FC0746F0B25946FFF7E9FC014668
:1081700066483A79007802F0380200F00F00B0EB60
:10818000920F7CD816B1080905EB4005464504D08E
:10819000B9F1000F74D0464572D366B90598072827
:1081A00009D02088C1B2049A8A4201D213208FE7F5
:1081B0002880A41C10E13888B0F5E06F0DD37A88D0
:1081C000082A02D82F3290B207E0102A02D0202AC3
:1081D00002D002E0062000E007201F2878D013DC40
:1081E0001F283BD2DFE800F03C4F4F74B14F74B111
:1081F000B1D5E7E73A3A3A3A3AC73A3A3AC73A3A59
:108200003A3A3AC73A3A4F0034283CD012DC302888
:1082100039D008DC202805D02D2834D02E2857D07E
:108220002F281BD191E031282DD032282BD0332894
:1082300014D128E0B0F5187F6AD007DC352822D0A9
:10824000362820D0372809D11DE0DAE0A0F50070EB
:1082500061385DD001285BD0022859D0182037E75B
:10826000B9F1000F0DD07888020703D00144090747
:1082700000D1A41CC0F3031004EB4004ACE0AEE05A
:10828000BDE0182024E77A881F4801F00F0C30F871
:10829000122002FA0CF083B228889843B9F1000F3B
:1082A00003D022881A4002430AE0238833EA020EF0
:1082B00001D012200CE7134003FA0CF303439AB2E7
:1082C0002A80B8780844000700D1A41C84E0FFE7A6
:1082D000080701D00520FBE62788039820B12888ED
:1082E000B84201D01C20F3E606981F2811D8A7F544
:1082F000B0504FF4007188420BD3A7F5D05088429C
:1083000007D337B11220E3E698D40008B602002064
:1083100051E0AAF5E050323803D0AAF5E0503338E6
:1083200010D1012E0ED12888B84208D039465046C7
:10833000FFF770FC0090009808B10098C8E6364935
:10834000012008702F80A41C46E0080701D00520FA
:10835000BEE6039848B128882188884203D16888FE
:108360006188884201D01C20B2E62088288060887D
:108370006880241D30E0080701D00520A8E6208889
:10838000288060886880A088A880E088E880083419
:1083900022E0080701D005209AE678882146C01D12
:1083A000C208284601F050FC788840F00F00000910
:1083B00004EB400410E0080701D0052088E6788827
:1083C0002146C01DC208284601F03EFC788840F0D6
:1083D0000F00000904EB4004012001900FE036B1CA
:1083E0007888020706D00144090702D002E0A41CE5
:1083F00003E0A41C000904EB400418200090761C44
:10840000B6B2029886427FF6A7AE019808B1002066
:108410005EE600985CE60000180300202DE9FC47AA
:10842000044600260025228902F01001FE4FA846CE
:10843000387A814201D101269BE0FC480088093846
:1084400080B23972396A002975D0D7E90A35ED1A38
:108450005FEAC27C4FF0010916D0854212D820880D
:10846000C01E854205D8C2F3420CCCF1070CAC45C6
:1084700003D0072D04D9854202D187F805800AE090
:108480000E2608E00E2606E087F80590854201D802
:108490000E2600E00546002E6BD1E348DB07806A1C
:1084A00020F0010014D00A5C0A522389B86A03F450
:1084B0007F4320F001001A430A52B86A6A1E09EB92
:1084C000500001EB400004F10A0101F0BDFB1DE08A
:1084D000130AA27A43EA02220A5201206A1C12E01D
:1084E000431E04EB430304EB400C5B899CF80AC079
:1084F0001B0A43EA0C23D7F828C000EB5C0C21F8D8
:108500001C30401C80B2B0EB520FE9D3787970BBBD
:10851000B879396ACDE90010F979388AD7E90B239F
:10852000FFF79DFD0646FF2E06D0386A04F020F9BD
:10853000C7F820801DE01BE002207870B879B87081
:10854000F879F870388A7881F86A7861386AB861A1
:10855000386B006AF86187F800907C6287F80580C4
:1085600087F80480C7F82880FF20BDE8FC8700E07A
:1085700003266EB187F8058087F80480386A18B141
:1085800004F0F6F8C7F82080C7F828803046ECE7FA
:108590000A202080E08820F4704040F44050E080C1
:1085A000387A10B13020208101E0202020817879B4
:1085B000012804D0C7F8288087F80480E6E7B86A65
:1085C0002844B862E2E72DE9F04700260446964FBA
:1085D000007A397A00F01000884201D1012677E054
:1085E0009349098809398DB23872B96AF86A4A190B
:1085F00001234FF00008824203D9451A87F805800D
:1086000000E07B7194F808C0A4F808C086485FEACF
:10861000C17A826A22F00109026A11D032F8090097
:1086200000F47F404CEA000CA4F808C003EB5100B2
:1086300002EB40016A1E04F10A0001F005FB1AE09A
:1086400000204B0812F809104CEA012121810FE0AB
:108650003A6AC11832F811C0491C4FEA1C2C12F8B2
:10866000111004EB40024CEA01215181401C80B200
:10867000B0EB550FECD3E08820F4704040F440504C
:10868000E080208920F0FF002081797919B13A7AC1
:108690001043208104E03A7A42F001021043208125
:1086A000072D08D20A2020802089C5F1070240EA60
:1086B0004200208101E0E81C208001290BD0386AAB
:1086C00004F056F8C7F82080C7F8288087F804809F
:1086D0003046BDE8F087B86A2844B862F8E72DE96B
:1086E000F0410746DDE90604602904D019B1258967
:1086F00005F47F452581E5880A2625F470459FB15C
:10870000268045F40050E08080202081494850F8C0
:108710002700E06002212046FEF76DFF002801D00F
:1087200045480460BDE8F08145F44055E5804029A6
:1087300008D039B36029EDD02680208940F0600050
:108740002081E7E7411E03290BD826802189C0B28A
:108750001143C0F10400432242EA80000143218119
:10876000D8E7834202D20A33238002E000F10A01F3
:108770002180A081000CE081208942F04101084362
:108780002081C7E72680208940F020002081C1E7B2
:108790002DE9F04F89B006460024318901F0FF0829
:1087A00008F0E00B30880790A146A24600251E483D
:1087B0000078002803D0092009B0BDE8F08FBBF194
:1087C000000F72D0BBF1200F13D0BBF1400F10D0BF
:1087D000BBF1600FF5D00324FF2C08D0CDE900A633
:1087E000ABB208F0100259462046FFF778FF002090
:1087F000E2E770894FF6FF7202EA002202EB1121D4
:1088000089B20691000A05900698FFF745F8049092
:10881000049800287ED00020039000270290DDE914
:10882000042108F0100309E028030020F6020020CC
:10883000F4020020B8D40008A40200200698FFF734
:1088400037F88246054606F10C00011D0891BBF180
:10885000400F06D008F002010391BBF1200F1DD09C
:1088600048E007990A2901D00820A5E7BAF1040FCA
:108870000AD8BAF1000F07D0012103910746002161
:10888000398038467980E8E7FE490D88103D554526
:1088900002D201210291E0E7089FDEE7039959B176
:1088A00007990A2902D0082086E7F4E0C8F381017D
:1088B000C1F1040507461DE0B089F18900EB0145CF
:1088C000F14805F110010088814205D90799801F00
:1088D000814208D008206FE7079805F10A01884215
:1088E00001D0082068E7089F07980A38854201D917
:1088F000012002905FEAC86005D54FF00109059894
:10890000012800D90524002C7FF466AF029878B3C3
:10891000012000E0BDE0DD4F7871387287F80690E5
:10892000069838820598F87104983863BBF1400FB7
:108930001BD0FD62386A18B103F01AFF00203862BC
:10894000F86A401C20F0010003F03AFF386280B161
:10895000BBF1400F14D0079A08990A3A154601F066
:1089600073F900203871BD6236E7C7F82CA0E1E743
:1089700038E0B9F1000F01D005242DE704242BE7DE
:10898000CDE90009DDE9043152460698FFF78DF97B
:10899000044620001ED0FF2CE5D10420787087F813
:1089A00002900598F87006987881C7F814A0386A84
:1089B000B8610498C069F861012038707E6230891E
:1089C00020F0FF0008F0F00108433081602038718A
:1089D0000020F1E62A46396A089801F035F960204E
:1089E0003871C0E7BAF1000F06D1A8480699018294
:1089F0000599C17104990163BBF1400F23D0CDE902
:108A00000079DDE904312A460698FFF728FB044681
:108A1000FF2CA9D19D480121417080F80290059A50
:108A2000C270069A428145618761049A126AC261E6
:108A300001704662308920F0FF0008F0F001084321
:108A400030810020B8E6CDE90079DDE904315246F5
:108A50000698FFF72AF90446FF2C85D18B4803219D
:108A6000417080F802900599C17006994181C0F863
:108A700014A087610499C969C1610121017046622E
:108A8000308920F0FF0008F0F00108433081002019
:108A900092E60824A0E67D48007983450CD1BBF11D
:108AA000000F04D03046FFF78EFD044694E63046B2
:108AB000FFF7B4FC04468FE603248DE62DE9FC475E
:108AC0000D46814611460026704C2078002839D08A
:108AD000636A187A00F0E00700F01008402F26D1F2
:108AE00068480088103886B22046406A1030AE428E
:108AF0000DD201226271227284F80680E562602242
:108B000022712162324601F09FF8A6620FE06A1ED0
:108B1000032A07D80C331846994208D02A4601F098
:108B200093F804E0814202D02A4601F08DF800203B
:108B30002070606A3346CDE90050424639464846C7
:108B4000FFF7CDFD11E52DE9FF5F044600270397F0
:108B5000207A00F07F0602200190052E06D02088A2
:108B6000082808D2062004B0BDE8F09F20880A2813
:108B700001D20620F7E7DFF80C91DFF810814FF4FF
:108B80008055012E20D0032E7AD0052E78D00320D8
:108B900003909DF80C0070B10A212180218921F0F9
:108BA0007F0141F0070121816781394951F8200097
:108BB000E060A8F80C7020460199FEF71CFD08B192
:108BC000344804600020CEE7A0890528E1D800F0F1
:108BD000FF0A0E222146304801F036F8BAF10100B2
:108BE000C6B20FD2A8F80C7000252846FEF7CEFEBC
:108BF000291D04EB4101C8806D1CEDB2052DF4D395
:108C0000122038E0B8F80C0060B1B9F800100C3947
:108C10008AB204F10C03B8F80E100291401EA8F8B5
:108C20000C0019E03046FEF7B1FE0295B9F80010CD
:108C30000E398AB204F10E03B2EB400F0AD2911C36
:108C400089B2C2EB40000844401E90FBF1F0A8F846
:108C50000C0001E0A8F80C7003A8009002A93046AF
:108C6000FEF7C0FEBDF80810A8F80E10B9F8001005
:108C7000081A801F80B220809DF80C0000280DE0AB
:108C800022E00000F4020020F60200202803002069
:108C9000B8D40008A4020020286C00207FF479AF2B
:108CA000208920F07F0040F002002081B8F80C10ED
:108CB000618100293FF46DAF20F0800040F080001A
:108CC00020818220019064E7A0890290A84202D20C
:108CD000052003905DE7FEF7DFFD83465FEA0B00AA
:108CE00075D00025032E1DD094F80EA0FEF726FFA8
:108CF000807882455BD851465846FEF738FE0168B9
:108D000021618088A082A07BE0815846FEF716FF93
:108D10004088C0F3032004F11605082823D0092851
:108D200021D023E05846FEF709FF0068C4F80E0082
:108D300000235A461946BDF80800FEF7A3FE0C3082
:108D400080B2B9F80010891F884201D90C2530E0A3
:108D500004F112035A460021BDF80800FEF792FE06
:108D60000C3085B225E0BAF1000F0FD000235A462F
:108D70005146BDF80800FEF785FE103080B2B9F804
:108D80000010891F884208D9102512E00D221149D0
:108D9000284600F059FF1C250BE02B465A46514649
:108DA000BDF80800FEF76EFE103085B201E011201C
:108DB00003909DF80C00002885D1678125802089CB
:108DC00020F07F00761C30432081E2E6FFE7082098
:108DD0000390DEE6190300202DE9F04F2DED028B04
:108DE00081B00020009000254FF400664FF010087D
:108DF00082464FF0010B9FEDFB8BFC48C5EB051144
:108E000000EB0114F021204600F037FF84F800A0A9
:108E100084F801B084F802B084F803A084F804A0B8
:108E200084F805B0A4F806B0A4F808A084ED048B7B
:108E3000C4F818A004F11C07CC22ED49384600F014
:108E400003FF0021300407E004EB8102136A05FBF5
:108E500000331362491C89B2A28B8A42F4D80021E4
:108E600007E004EB8102536C05FB00335364491C9B
:108E700089B2B4F840208A42F3D8002107E004EB1D
:108E80008102136D05FB00331365491C89B2B4F8E8
:108E90004C208A42F3D8002107E004EB8102D36D15
:108EA00005FB0033D365491C89B2B4F858208A42C7
:108EB000F3D8002108E004EB810252F8883F05FB5B
:108EC00000331360491C89B2B4F884208A42F2D876
:108ED000002108E004EB810252F8943F05FB0033C7
:108EE0001360491C89B2B4F890208A42F2D84FF43A
:108EF000A069484603F064FCC4F8E800BC494A464F
:108F0000CC3100F0A1FED4F8E8004FF6FF73EEE09C
:108F100046F25A0CA2EB0C0162457DD032DC42F2E3
:108F2000060CA2EB0C01624569D018DCB2F5D05FEB
:108F300058D009DCB2F5B05F4AD06FF4B051511887
:108F400048D0012945D149E06FF4D05151184DD096
:108F500001294FD0A1F5C06104393AD188E00A292E
:108F600072D006DC012970D002296FD0032930D1DC
:108F700091E0A1F58041393942D0012944D002293C
:108F800027D145E017296FD010DC062954D006DC24
:108F9000012945D0022947D004291AD148E00729E0
:108FA0004ED00A2953D0122913D154E02B296FD067
:108FB00006DC1D2953D0202976D0232909D177E05A
:108FC00068297DD0A5297FD0B1F5956F01D17FE0CB
:108FD000876180E004F1400181617CE004F14C0193
:108FE000816178E004F15801816174E004F1840149
:108FF000816170E004F1900181616CE00CE03BE084
:1090000004F19C01816166E004F19E01816162E0EE
:1090100004F19F0181615EE004F1A00181615AE0E9
:1090200004F1A201816156E004F1A401816152E0E2
:1090300004F1A60181614EE004F1A80181614AE0DA
:1090400004F1AA01816146E029E019E01CE004F185
:10905000AC0181613FE004F1B00181613BE004F1CA
:10906000B401816137E0FFE704F1B801816132E0CA
:1090700004F1BC0181612EE004F1BE0181612AE0AE
:1090800004F1C001816126E004F1C201816122E0A6
:1090900012E009E014E004F1C40181611BE004F175
:1090A000C601816117E00FE004F1C801816112E09F
:1090B00004F1CC0181610EE004F1D80181610AE084
:1090C00004F1DC01816106E004F1E001816102E06C
:1090D00004F1E4018161A2F5A051B14203D205FB84
:1090E0000821018102E005FB062101812830028967
:1090F0009A427FF40DAF6D1CADB2022DFFF47DAE30
:10910000009801B0BDEC028BBDE8F08F2DE9F04175
:109110000025DFF8D880C5EB051008EB0017D7F85D
:10912000E84064B14FF6FF7602E0FCF7B4FD283466
:109130002089B042F9D1D7F8E80003F019FB2D4996
:10914000002008802C4908806D1CEDB2022DE2D36E
:10915000BDE8F0812DE9F05F0026DFF8A0B04FF008
:10916000040A4FF00208B14601272048C6EB061159
:1091700000EB0114207800287ED094F89F5094F8DA
:109180009E004FF690510D402189002975D1E1884C
:10919000042905D21A490978082901D1A4F806A0A2
:1091A000E188102975D008DC01292BD0022932D0A2
:1091B000042939D0082906D14DE020297DD0402945
:1091C0007CD080297BD00025E780E088102877D0EC
:1091D00077DC012876D0022874D0042872D00828C1
:1091E00071D1D1E00000000000000000386C0020C8
:1091F00090030020D6020020D402002008000020A6
:10920000B6020020F7480078082801D0E780DCE7A4
:10921000A4F80680D9E745F0200500F0870006286D
:10922000D3D1A4F806A0D0E745F0210500F08601CF
:1092300002290DD010F0820F0AD000F0C7010729D3
:1092400003D000F08F000F28BFD10820E080BCE7DA
:10925000A4F80680B9E745F0230500F08701062948
:1092600011D000F08601022910D010F0820F0DD02D
:1092700000F08F000F2802E079E02BE009E0A4D194
:109280001020E080A1E7A4F806A09EE7A4F80680DD
:109290009BE745F0270500F08F01072914D000F067
:1092A000860102291BD000F0870106291AD010F090
:1092B000820F8AD1A4F8068087E71DE031E03CE008
:1092C00070E041E059E045E0B4F8A40020B146F276
:1092D0005C002081BDE8F09F0820E08075E7202039
:1092E000E08072E7B4F8A20018B146F25B0020817A
:1092F000F0E7A4F806A068E745F00705B4F8A01069
:1093000049B194F89F1001F06F01072903D046F28C
:109310005A002081DEE710F0820F84D1A4F8068085
:1093200053E745F00F05B4F8A60018B146F25E0009
:109330002081CFE78020E08047E745F00805000660
:1093400085D5A4F8068040E720282BD0402829D0D6
:1093500080283AD0677084F8039084F8049067718D
:10936000E078012838D025F0100084F89F00761CA2
:10937000B6B2022EFFF4F9AEACE7677084F8039042
:1093800084F804906771EBE76770E77084F80490E5
:109390006771DBF800000028E2D0CBF8009092481B
:1093A0000760DDE784F80190E770277184F8059085
:1093B000DBF80000022803D0CBF800808A48076061
:1093C00001218A48F8F73AFCCAE7677084F80390ED
:1093D00084F804906771C3E745F01000C5E730B525
:1093E0000021834B4024C1EB011203EB02121578DC
:1093F00015B1D480A2F89C00491C89B20229F2D38D
:1094000030BD7C49D1ED070A9FED7B0A20EE801A22
:10941000DFED7A0AAC30C1EE201ABDEEE11A80ED24
:10942000001A91ED091A61EE001A9FED751A81EE8E
:10943000812AFDEEC21AC0ED011AD1ED0E1A21EEFD
:10944000800AC0EE201ABDEEE10A80ED020A002279
:10945000828291ED060ADFED6B1A20EE210ABCEE46
:10946000C00A10EE102AC28240F6EF320283428315
:1094700010F8A82CAC38002A4ED08278EAB3C27813
:10948000DAB34278CABBB0F8AA20082A02D0092A67
:1094900042D140E090ED320AB8EEC00A60EE201AE8
:1094A0009FED590A61EE801AC1ED291AD0ED381AE4
:1094B000F8EEE11A21EE811A21EE001A81ED2A1A46
:1094C00090ED2E1AB8EEC11A61EE200A20EE800A45
:1094D00081ED2D0AB0F8BC2000EE102AB8EE400A4B
:1094E000DFED4A0A60EE200A9FED490A60EE800A2D
:1094F000C1ED2B0AB0F8BE2000E00DE000EE902A8E
:10950000F8EE600A9FED431A60EE810A20EE800AB1
:1095100081ED2C0A00E0C18830F8A81F4180704717
:10952000012807D0022807D0032807D0042807D035
:1095300000207047012070470120704701207047CC
:109540000120704710B50246108992F89F1000283C
:1095500005D0B2F8AA30082B1FD0092B1DD082F8F5
:109560009F10A0F5C0405A384FF0000318D00128D2
:109570005AD0022863D004286CD092F89F0082F859
:109580009F0092F8A810D2F8E400491EC840C00716
:109590006BD0BDE81040104633E782F89F10E0E73B
:1095A000B2F8A000B2F9A0104C1F042C0BD2052970
:1095B00000D10120062900D10220072900D1032073
:1095C000082900D10420114600B2FFF7A9FF0028A6
:1095D000D7D01381B2F9A000411E04291CD2022069
:1095E000D080CEE7B60200200C000020000402402C
:1095F000386C0020900F00200000004F0000FA435C
:109600000000FA440000C8420000003000007A4424
:109610000000803700004843401F0428B1D292F870
:109620009F0082F89F00ACE7B2F9A2001146FFF755
:1096300077FF0028A5D013810420D080A1E7B2F9DC
:10964000A4001146FFF76CFF00289AD01381082070
:10965000D08096E7B2F9A6001146FFF761FF002817
:109660008FD013818020D0808BE710BDF0B5059A94
:10967000FA4C20880D46002A04D00A0000D1187840
:10968000C5B245E0814201D91120F0BDF44A01EB99
:10969000410002EB4000F34A8088127800F038065F
:1096A00002F00F02B2EB960F32D910F0380F01D052
:1096B0001A20F0BD0720F0BD01B3481E064604EB9A
:1096C00080004768021DB3F800C0A2F800C0B3F8DC
:1096D00002C0A2F802C01B1D4068E34A904215D0A8
:1096E000E24A904212D0E24A90420FD070B1481E36
:1096F00004EB80004760C7B1218017E01888C2B230
:10970000022A01D91320F0BD20809B1C491C89B27C
:10971000A942D1D90020D14F26880C3F3E80A7F125
:109720000C031E809D1D2E8023E026801220F0BD9C
:1097300007EB800241F28931516004EB8001DFF8D0
:1097400028C34968CCF1000C11EB0C0115D0B1F520
:10975000801F21D0B1F5001F2DD003EB400C00215C
:10976000ACF8021005EB400CACF802105160401C44
:10977000C0B28642DCD80020F0BD4FF4B05103EBFC
:10978000400201EB001151804FF4D05105EB400233
:1097900001EB00115180EAE741F2016103EB400265
:1097A00001EB0011518041F6012105EB400201EB74
:1097B00000115180DBE741F2026103EB400201EB53
:1097C0000011518041F6022105EB400201EB00112E
:1097D0005180CCE7704700207047002070472DE98A
:1097E000F843002000909D48008800282FD19B4B13
:1097F000183B03F10C041A88228003F124063280FE
:1098000041F28935984FDFF864C2DFF864821CE0CA
:1098100004EB80014D6003EB4001897811F00F01EA
:1098200004D0012906D002290DD108E006EB800101
:109830004F6008E006EB8001C1F804C003E006EBCE
:109840008001C1F80480401CC0B28242E0D80422EA
:109850004FF41A616846FBF794FF00988549097830
:10986000012911D14FF47A71B0FBF1F2009200207E
:10987000814BC0EB001103EB01110C7804B18A613C
:10988000401C80B20228F4D30020BDE8F8830020F9
:10989000704700207047002070472DE9F35F0027D4
:1098A0000026002400256D4818380188022902D9B5
:1098B0001920BDE8FC9F4FF6FF7ADFF8BC8138E045
:1098C0000CEB46008078C0F30310B0421AD1C6EB0F
:1098D000061008EB001B9BF8000040BBDBF8E8908B
:1098E00008E04846FCF7FEF90746380000D0E0E7FC
:1098F00009F12809B9F808005045F2D101208BF888
:10990000000014E0C6EB061008EB001B9BF80000FB
:1099100068B1DBF8E89003E0FCF7BDF909F128092C
:10992000B9F808005045F7D100208BF80000761CEC
:10993000B6B2DFF828C1ACF1180CBCF80030B34265
:10994000BED800214EE00CEB4100807810F00F00F3
:1099500004D0012818D0022842D12BE0C1EB01101D
:1099600008EB00104FF4C072C0F8E4200022868B90
:1099700007E000EB820999F820904D44ADB2521CEB
:1099800092B29642F5D82BE0C1EB011208EB02121D
:109990008020C2F8E4000020B2F8406007E002EB4B
:1099A000800999F844904D44ADB2401C80B2864283
:1099B000F5D815E0C1EB011208EB02124FF48070EC
:1099C000C2F8E4000020B2F84C6007E002EB800926
:1099D00099F850904D44ADB2401C80B28642F5D803
:1099E000491C89B28B42AED84FEAD50CAFBB0021DF
:1099F0001A4E123E358855E006EB4100807810F093
:109A00000F0004D0012815D0022849D136E00020EB
:109A1000C1EB011208EB0212B2F8583007E002EB7A
:109A2000800999F85C904C44A4B2401C80B28342F7
:109A3000F5D835E00020C1EB011208EB0212B2F8B4
:109A4000843007E002EB800999F888904C44A4B276
:109A5000401C80B28342F5D822E026E07803002043
:109A6000B2D90008B6020020009811000098210029
:109A700000983100AD020020386C00200020C1EBBE
:109A8000011208EB0212B2F8903007E002EB8009F5
:109A900099F894904C44A4B2401C80B28342F5D80B
:109AA000491C89B28D42A7D8E40800980480019827
:109AB000A0F800C03846FCE630B50022604C614D8D
:109AC0004DE005EB42018B78C3F3031113F00F0354
:109AD00004D0012B24D0022B3FD130E0C1EB011187
:109AE00004EB01119C31CB7803800B8A43800B6916
:109AF0001B0C83808B8AC3804B691B0C03810B8BEF
:109B000043818B691B0C83810B88C381CB8C0382BF
:109B10000B8D43824B8D8382897BC18218301CE080
:109B2000C1EB011104EB0111A03111F8013C0380DC
:109B30008B894380C968090C8180801D0DE0C1EBD1
:109B4000011104EB0111A03111F8013C03800B8AD3
:109B500043800969090C8180801D521C92B22988BA
:109B60009142AED830BDF0B50022364E344CB61F0F
:109B7000358852E006EB42018B78C3F3031113F0F2
:109B80000F0304D0012B25D0022B44D133E0C1EBCD
:109B9000011104EB0111A031037801F8023C438864
:109BA0008B62878803EB07438B62C3880B6407894A
:109BB00003EB07430B6443898B61878903EB0743FE
:109BC0008B61C38910308B830388CB838378001D1E
:109BD0000B8120E0C1EB011104EB0111A03110F861
:109BE000023B01F8023C03888B624788001D03EBAF
:109BF00007438B620FE0C1EB011104EB0111A031AF
:109C000010F8023B01F8023C03880B644788001DF2
:109C100003EB07430B64521C92B29542AAD8F0BDE5
:109C200030B50024064DC4EB041005EB001001789C
:109C300009B1FFF787FC641CA4B2022CF3D330BD3A
:109C4000386C00206603002040EA01039B0703D024
:109C500009E008C9121F08C0042AFAD203E011F86B
:109C6000013B00F8013B521EF9D27047D2B201E02D
:109C700000F8012B491EFBD270470022F6E710B511
:109C800013460A4604461946FFF7F0FF204610BD6A
:109C9000421C10F8011B0029FBD1801A704770B5D7
:109CA000064600F0FFFE046805460A220021304601
:109CB00000F0A6F92C6070BD2DE9FE4F804681EAC8
:109CC0000300C00F0C46009021F0004123F0004536
:109CD000B8EB0200A94105D24046214690461C46F9
:109CE0000B46024623F00040104347D0270DC7F330
:109CF0000A00C3F30A510290401A019040286BDA1F
:109D0000C3F3130040F4801B0098924620B1002357
:109D1000D2EB030A63EB0B0B01985946C0F14002EA
:109D2000504600F0FEF806460D4650465946019A48
:109D300000F006F910EB08006141002487EA115297
:109D400084EAE7731A4340D0009A62B3019A012A69
:109D50004FEA075215DC001B61EB02014FF0004295
:109D600002EA0752CDE90042001C41F5801132465B
:109D70002B4600F0C3F903B0BDE8F08F4046214602
:109D8000F9E7001B61EB0201001C41F5801300188C
:109D90005B412018A2F5001747EB030140EAD5709C
:109DA000B6196D4111E06D084FEA360645EAC075F7
:109DB0004FEA0752001B61EB0201001C41F58011C4
:109DC00049084FEA30000019514132462B4603B092
:109DD000BDE8F04F00F083B9009801224000002355
:109DE000D0EB020263EBE073009821464FEAE07487
:109DF000B8EB000061EB0401E9E783F000435BE7A7
:109E000081F0004158E700F0004230F000400AD0F5
:109E1000C10D01F56071C0F3160042EA0151C2089C
:109E200040071143704700200146704730B5041EBB
:109E300071F1000404DB4FF00044404264EB010187
:109E4000141E73F1000405DB1C464FF00043524220
:109E500063EB0403994208BF904230BD01F0004318
:109E600030B421F0004150EA010206D00A0DA2F5FB
:109E70006072C1F31301002A02DC30BC002070477D
:109E8000440F44EAC104C100E01830BC00EBC250EA
:109E900000F0EEB830B50B46014600202022012428
:109EA00009E021FA02F59D4205D303FA02F5491BA8
:109EB00004FA02F52844151EA2F10102F1DC30BDBE
:109EC0002DE9F05F0546002092469B4688460646EF
:109ED000814640241BE0284641464746224600F082
:109EE00023FB53465A46C01A914110D311461846D7
:109EF000224600F016F82D1A67EB01084F4622465D
:109F00000120002100F00DF817EB00094E41201E42
:109F1000A4F10104DFDC484631462A464346BDE849
:109F2000F09F202A04DB203A00FA02F1002070475B
:109F30009140C2F1200320FA03F319439040704787
:109F4000202A06DBCB17203A41FA02F043EAE073FD
:109F500006E041FA02F3D040C2F1200291400843EA
:109F6000194670470FB4002300B589B00CA90091C1
:109F70000B996FF00042CB601E4B06931E4B07936C
:109F80000423CDE901321D4A089202466B460020A7
:109F900000F07CFB09B05DF814FB70B586B0064696
:109FA0004FF0FF300091CDE90101002015460C462D
:109FB00004903246694604A8FFF7D4FF024604988D
:109FC000211825B108B1084600E020462860049811
:109FD00000280DD0002A02DD0098884208D0081B16
:109FE0000094CDE901043246694604A8FFF7BAFFA0
:109FF00006B070BDC5A80008E3A8000851A5000878
:10A000002DE9F04791460F4680460446002614F895
:10A01000015B2DB100F098FA0068405DC007F6D1F1
:10A020002B2D02D02D2D18D0641E4A4639462046CD
:10A0300000F068FC27B13968A14201D1C7F800805F
:10A0400071054FF002040BD54042002803DD00F0FB
:10A0500029FD0460A007BDE8F08746F48066E4E7C8
:10A060000028F8DA00F01EFD04606FF00040F2E70F
:10A070000029A8BF7047401C490008BF20F001001C
:10A08000704710B4B0FA80FC00FA0CF050EA0104FA
:10A0900004BF10BC704749B1CCF1200421FA04F48C
:10A0A00011FA0CF118BF012121430843A3EB0C0165
:10A0B000CB1D4FEA00614FEA102042BF002010BCC8
:10A0C000704700EBC35010440029A4BF10BC704778
:10A0D000401C490008BF20F0010010BC704710B5BB
:10A0E000141E73F1000408DA401C41F100019218BB
:10A0F0005B411A4301D120F0010010BD2DE9F04D64
:10A1000092469B4611B1B1FA81F202E0B0FA80F2B8
:10A1100020329046FFF705FF04460F4640EA0A004A
:10A1200041EA0B0153465A46084313D0114653EAFD
:10A13000010019D0C8F14002504600F0F5F905467B
:10A140000E46504659464246FFF7EBFE084305D0FF
:10A15000012004E020463946BDE8F08D002005438B
:10A1600046EAE0762C4337430A986305E40AA0EBFD
:10A1700008000022FD0A44EA47540A3002D50020B4
:10A180000146E9E7010510196941DDE908450019B3
:10A190006941BDE8F04DA2E72DE9FE4F81EA0304D5
:10A1A00004F0004421F0004100944FF0000B23F034
:10A1B000004350EA01045ED052EA03045BD0C3F3CB
:10A1C0000A54C1F30A552C44A4F2F3340194A0FBC1
:10A1D0000254C1F3130141F48011C3F3130343F498
:10A1E000801301FB024400FB034E840A970A44EAF1
:10A1F000815447EA8357A4FB076802958D0A05FB43
:10A2000007854FEA932C04FB0C542705029D4FEA67
:10A21000065847EA1637B5EB08056EEB070C870EB4
:10A22000920E47EA811742EA8312A7FB0201B6EBBE
:10A230000B0164EB00042B0D43EA0C335E1844EB76
:10A240001C50DA465146E7FB0201C5F313044FEAFE
:10A250000B3343EA14534FEA0432019C43EA0603EA
:10A26000A4F10C040294009CCDE900B4FFF746FF72
:10A2700003B0BDE8F08F00200146F9E72DE9F04D6D
:10A2800081EA030404F0004B21F0004514464FF02E
:10A29000000A23F0004150EA050220D054EA0102EE
:10A2A0001DD0C5F30A570246C5F31303C1F31300CB
:10A2B000C1F30A5640F4801543F48013A7EB060857
:10A2C000101BD64608F2FD3873EB050002D308F1E7
:10A2D000010801E092185B41B8F1000F03DA002099
:10A2E0000146BDE8F08D00204FF4801106468446FB
:10A2F0000EE0171B73EB050705D3121B63EB050379
:10A3000006434CEA010C49084FEA300092185B41C1
:10A3100050EA0107EDD152EA030012D082EA0400AC
:10A3200083EA0501084305D0101BAB4106D2012288
:10A33000002306E000224FF0004302E06FF001022C
:10A3400053101AEB06004CEB085110EB0A0041EBDE
:10A350000B01BDE8F04DFFF7C2BE70B521F0004320
:10A3600003430CD0C1F30A550024D5EB040564EB7C
:10A370000403D617AD1AB34102DB0020014670BDBD
:10A38000201841EB025170BD2DE9F04D00231A4613
:10A390001B1A8A4103DB00200146BDE8F08DC1F3A2
:10A3A0000A52C1F3130141F480154FF0000BD1079D
:10A3B00002D100186D41521E0027044640F2FF11E1
:10A3C000384601EB620A3E468046024600204FF4C2
:10A3D000801100F0A9F8C2197141BB1846EB0100C9
:10A3E000B4EB030C75EB000C04D3E41A65EB000529
:10A3F00017460E46241908F101006D4180463428A5
:10A40000E3DDF91946EB0600091BA84103D24FF022
:10A41000FF32134601E0002213461BEB070046EB18
:10A420000A51BDE8F04DFFF75ABE2DE9FE4FC3F3C8
:10A430000A5701F000450024C1F30A56C3F3130381
:10A44000C1F3130143F4801312EB020AA64641F450
:10A450008011009543EB030CA7F1010B16E0B0EB64
:10A460000A0061EB0C01071E71F1000707DA4FF0DB
:10A470000008D0EB080085F0004568EB0101171AD1
:10A4800073EB0107EBD3761E001849415E45F6DAFF
:10A4900050EA010209D0CDE900E5002213460296F8
:10A4A000FFF72CFE03B0BDE8F08F20460099F9E7D6
:10A4B0000EB5C10F80EAE0700844CA07002140F2DF
:10A4C00033438DE80E000A460B46FFF717FE03B034
:10A4D00000BDC1F30A52C1F3130140F2FF3341F44E
:10A4E00080119A4202DA00200146704740F233435D
:10A4F0009A42A2F2334202DC524200F015B8FFF752
:10A5000010BD0000064C074D06E0E06840F0010376
:10A5100094E8070098471034AC42F6D3F5F738FEBC
:10A5200094DB0008B4DB0008202A04DB203A21FA7F
:10A5300002F00021704721FA02F3D040C2F120025C
:10A5400091400843194670470048704744DB0008B3
:10A5500010B50446FFF7F8FF0068005D00F0010049
:10A5600010BD00002DE9FF4F087883B09946FF2801
:10A5700005D0491C2D2804D00024002008E000202C
:10A580000BE00124F9E700EB800003EB4000491CDD
:10A590000B78FF2BF7D104B14042002302931478CB
:10A5A00019461D462D2C01D02B2C04D1521C2D2CCC
:10A5B00013D000240294AA461478FF2C0FD00A2549
:10A5C000A3FB057801FB05814FF0000C03FB0C1188
:10A5D000521CE3194AEB0101EEE70124EAE781444A
:10A5E00053EA010002D019F5C87F06DA039800216A
:10A5F000C0E9001107B0BDE8F08F0025AE4E2F4630
:10A60000DFF8B882184600F0DAF9CDE90001B9F1B7
:10A61000000002DAC9F1000400E004460023A74A62
:10A620001AEB030B42EB045A12E0E00707D02A466C
:10A63000334638464146FFF7AFFD074688462A466F
:10A64000334610461946FFF7A7FD05460E4664102F
:10A65000002CEAD1DDE90001B9F1000F5A4653465A
:10A6600006DAFFF70BFE3A464346FFF707FE05E022
:10A67000FFF792FD3A464346FFF78EFD029A0AB174
:10A6800081F00041039AC2E90001B3E72DE9FF4FD1
:10A690001F468DB0D7E901464FF0FF382E204546C2
:10A6A0004FF000090B90B9696D1C0E988847396A04
:10A6B000824688470028F6D1BAF1FF3F0AD024F439
:10A6C000D064002E11DDBAF12B0F08D0BAF12D0F96
:10A6D0000BD102E0404611B08DE744F48064B969C3
:10A6E0006D1C0E9888478246761E6946600501D526
:10A6F0002D2000E02B208DF8000001F1010B0DF161
:10A70000200809E0B9696D1C0E98884782460F98A9
:10A7100044F40074761E0560002E02DDBAF1300F9D
:10A72000F0D00B998A453ED144F0800406E00F99A1
:10A73000681CA9F1010944F400740860B9696D1C32
:10A74000761E0E98884782463028F0D02BE00B9971
:10A750008A4505D1200603D444F08004761E18E013
:10A76000504601F059FC08B30DF11301761E44F474
:10A7700000748B4508D2AAF130000BF8010B2006BB
:10A7800007D5A9F1010003E0200602D409F1010078
:10A790008146A00502D50F99681C0860B9696D1C37
:10A7A0000E9888478246002ED1DC53E0002E51DD02
:10A7B000BAF1650F02D0BAF1450F4BD1A00549D5CA
:10A7C000B9696D1C24F44074761E0E988847824641
:10A7D000002E0CDD2B2804D0BAF12D0F07D144F444
:10A7E0008074B9696D1C0E9888478246761EE00514
:10A7F00001D52D2100E02B2108F8011BCDF82C807C
:10A8000021E00DF12901761E44F4007488450CD234
:10A81000AAF1300010F0FF0088F8000002D10B9977
:10A82000884509D908F1010806E0E00501D524486A
:10A8300001E042F20F708146B9696D1C0E9888479D
:10A8400082460F980560002E04DD504601F0E4FBBF
:10A850000028D6D1F9690E988847FF208BF80000B0
:10A8600088F800000020069007904B466A4608A929
:10A8700006A8FFF777FEA00502D46FF001002AE7D3
:10A8800014F0240F0AD0E00714D1DDE9061238686D
:10A89000031D3B600068C0E900120BE0DDE9060122
:10A8A000FFF7DCFA0146E00704D13868021D3A6080
:10A8B0000068016028460EE7000014400000F03FE9
:10A8C000F1D8FFFF426842B1016811F8013B23B1A2
:10A8D000521EC0E90012184670470121C160881E4F
:10A8E000704742685AB1C368016843B983688B42B4
:10A8F00005D0491E521CC0E90012002070474FF0DD
:10A90000FF3070472DE9F05F82460078002715463A
:10A910008B460AF10104B946302801D09DB113E0FD
:10A9200014F8010B0127782803D0582801D045B12D
:10A930000AE00DB1102D07D10027102514F8010BE6
:10A9400002E0082500E00A250026B0460EE005FBDF
:10A95000080005FB06F1012701EB10461FFA80F8FD
:10A96000B6F5803F00D3B94614F8010B294600F034
:10A9700018F80028EBDABBF1000F05D00FB1641E08
:10A9800000E05446CBF80040B9F1000F06D000F0CB
:10A9900089F802210160C81EBDE8F09F48EA064020
:10A9A000FAE73A2800D2303820F02002412A01D3B9
:10A9B000A2F13700884201D34FF0FF3070470EB547
:10A9C00040F2334202920022CDE900221346FFF703
:10A9D00095FB03B000BD70B58C1810F8015B15F045
:10A9E000070301D110F8013B2A1106D110F8012B01
:10A9F00003E010F8016B01F8016B5B1EF9D12B0726
:10AA000005D40023521E0DD401F8013BFAE710F8DB
:10AA1000013BCB1A921C03E013F8015B01F8015BC8
:10AA2000521EF9D5A142D8D3002070BD0FB4054BFA
:10AA300010B503A9044A029801F0F6FA10BC5DF8BB
:10AA400014FB0000B13600087C0A002003B4019812
:10AA50004100009850EAC12018BF04204A0D18BFD9
:10AA600040F0010040F2FF72B2EB515F08BF40F0CE
:10AA70000200012808BF052002B07047410008020B
:10AA800018BF04200A0E18BF40F001004FF07F42AB
:10AA900032EA010108BF40F00200012808BF05208A
:10AAA0007047000000487047880A0020000000003E
:10AAB00030B583B0044601F0D1F99FED090B05468E
:10AAC0008DED000B002221466846FFF766FA284606
:10AAD00001F0DAF99DED000B03B030BD000000007D
:10AAE000000000000000000010EE100AC0F3C75183
:10AAF0007F391729A8BF7047DFED140A002970EECF
:10AB0000200A0CDAF5EEC00AF1EE10FA1ADD002880
:10AB1000C8BF4FF07E50B8BF4FF0004012E00C4A63
:10AB200022FA01F2104208BF7047F5EEC00AF1EEBA
:10AB300010FA07DD002804DD4FF4000323FA01F1C9
:10AB40000844904300EE100A70470000CAF24971B1
:10AB5000FFFF7F002DED020B019820F000400190D7
:10AB60009DED000B02B0704710EE100AC0F3C75104
:10AB70007F391729A8BF7047DFED140A002970EE4E
:10AB8000200A0DDAF5EEC00AF1EE10FA1ADD0028FF
:10AB9000A8BF002016DAB0F1004F18BF0C4811E032
:10ABA0000C4ACA40104208BF7047F5EEC00AF1EEE9
:10ABB00010FA07DD002804DA4FF4000323FA01F14C
:10ABC0000844904300EE100A70470000CAF2497131
:10ABD000000080BFFFFF7F0010B52DED040B86B095
:10ABE0009DED060B10EE100A10EE901A8DED000B85
:10ABF000002818BF0120084320F00040C0F17F600A
:10AC000000F1E040C00F21D19DED080B10EE101AAD
:10AC100010EE900A8DED000B002918BF01210843AA
:10AC200020F00040C0F17F6000F1E040C00F0DD186
:10AC300029490798B1EB400F04BF0698002842D07D
:10AC40000998400004BF089800283CD09DED080BEF
:10AC500053EC102B9DED060B51EC100BFFF7E5FBB1
:10AC6000CDE902019DED020B40F2FF7110EE900A5A
:10AC70008DED000B31EA105021D00798039900F0B8
:10AC8000004001F00041884219D09DED080B8DED88
:10AC9000040B9DED020B8DED000B10EE900A059953
:10ACA00061F31E0005909DED041B9DED020B51EC20
:10ACB000110B53EC102BFFF7A3F8CDE902019DED2A
:10ACC000020B0AB010BD012001F0DEF80AB0BDE8A9
:10ACD000104000F0D5BF00000000E0FF00000000C1
:10ACE0002DE9F04D2DED040B2DED0E8B96B0DDE929
:10ACF0002550279CDDF890A025F0004624F0004860
:10AD0000BAF1000F14BF0121002101EB4502FC49FB
:10AD100053184A1093422AD3002814BF012300235A
:10AD200003EB44030B44F7498B4220D358EA00015C
:10AD30009FEDF59B76D0DFF8D8B35D4503D1BAF12E
:10AD4000000F05D188E0BAF1000F08BF002100D044
:10AD5000012101EB450111F5001F08D8002814BF9F
:10AD60000121002101EB440111F5001F0BD99DEDDC
:10AD7000261B9DED240B16B0BDEC0E8B04B0BDE878
:10AD8000F04D00F071BF0027002DBCBFE1498845A0
:10AD900021DAE1498845A8BF02271CDAC3451ADC3D
:10ADA000DE4901EB2851142908DDC1F1340220FAF3
:10ADB00002F101FA02F282420DD108E058B9C1F164
:10ADC000140228FA02F101FA02F2424503D101F01D
:10ADD0000101C1F1020756EA0A0124D1002C22DA4E
:10ADE000002D18BF022F01D0012F0AD0022001F040
:10ADF0004BF816B0BDEC0E8B04B0BDE8F04D00F082
:10AE00001BBF022001F040F800F016FF51EC100BC0
:10AE100081F0004141EC100B16B0BDEC0E8B04B07C
:10AE2000BDE8F08D18E09FEDBEAB9FEDBF8B002815
:10AE300071D1B848804522D105F1804010F58010CD
:10AE400008BFBAF1000F07D0B3450ADC002CA8BF39
:10AE50009DED260BE0DA0DE0B0EE490AF0EE690A4E
:10AE6000DAE7002C06DA9DED260B51EC100B81F091
:10AE700000416FE0AE48784490ED000BCCE7D84538
:10AE80004DD1002C48DA2EB186423AD1BAF1000FEA
:10AE900042D126E0BAF1000F13D0022000F0F4FFF7
:10AEA00000F0FEFE8DED020B9DED240B8DED000BF1
:10AEB00010EE900A039961F31E0003909DED020BC2
:10AEC000AAE78DED02AB9DED240B1AEE901A10EE61
:10AED000900A8DED000B61F31E0003909DED020BB7
:10AEE0009AE78DED028B9DED240B18EE901A10EE73
:10AEF000900A8DED000B61F31E0003909DED020B97
:10AF00008AE709DA9DED240B51EC190B53EC102B59
:10AF1000FFF7B4F91EE020E09DED240B7CE78642AC
:10AF20001BDAB4F1804F0DD0A4F10050B0F1FF5006
:10AF300013D1002D11DB9DED240B51EC100B01F012
:10AF400077FC07E09DED240B53EC102B51EC100B1C
:10AF500000F0C2BC41EC100B5EE79DED240B51EC00
:10AF6000100B01F0F8FBBAF1000FCDE90E0142D150
:10AF70009FED710B46B3A6F1E040B0F17F600CD0BD
:10AF80005E4538D1002D00DAA7B3022F0CBF012097
:10AF90004FF0FF30FFF78CFADCE7002D01DD002CCD
:10AFA0000DDA002D01DD002C1FDB002D16DA002C40
:10AFB00014DB012F08BF9FED620B3FF42DAFB0EE05
:10AFC0004A0AF0EE6A0A27E7022F18BF002D0CD0BC
:10AFD000012F0AD1002DFFF61FAF06E0002DB8BFEC
:10AFE000002C08DA012F3FF417AFB0EE480AF0EE5C
:10AFF000680A11E71BE0012000EBE57050EA070149
:10B0000015D0791EB0EE498AF0EE698A084308BF70
:10B010009FED4D8B4E480025804570DD4D494E48D3
:10B02000884514DDB0420DDB002C19DB2FE0012038
:10B0300000F02AFF16B0BDEC0E8B04B0BDE8F04D59
:10B0400000F01EBEB34502DC002C09DC1FE0864286
:10B0500002DA002C1BDA03E05E452BDD002C16DD46
:10B06000022000F011FF00F01BFE8DED020B53ECEF
:10B070001A2B51EC180BFFF78FF8CDE9000103995B
:10B08000019861F31E0003909DED020BC4E60220BF
:10B0900000F0FAFE00F014FE10EE901A18EE900A7E
:10B0A0008DED020B8DED008B61F31E0003909DED85
:10B0B000020BB1E69DED0E0B53EC192B51EC100B6E
:10B0C000FEF79BFE9FED260BCDE9080153EC102BFC
:10B0D0009DED080B51EC100BFFF75EF89FED221B66
:10B0E00053EC112BFEF78CFE9DED081B53EC112B3E
:10B0F000FFF752F89FED1E1B53EC112B3CE08CE048
:10B10000FFFF1F00FFFF0F00000000000000F03FE6
:10B110000000F03F0000F07F0000404301FCFFFF13
:10B12000000000000000F07F0000000000000000B0
:10B130001E2C000000000000000000000000008045
:10B14000000000000000F0FF000000000000F0BF61
:10B150000000E0410000F043FFFFEF3F000000006F
:10B16000000000000000D03F555555555555D53FBE
:10B17000000000000000E03FFEF742FE9DED080BDE
:10B1800041EC1A0B53EC102B51EC100BFFF704F8A9
:10B1900053EC1A2BFFF700F841EC1A0B9FEDFE0B56
:10B1A00053EC102B9DED080B51EC100BFEF7F4FF48
:10B1B00041EC1B0B9FEDFA0B51EC1A0B53EC102BCF
:10B1C000FEF7EAFF41EC1A0B9FEDF70B53EC102B47
:10B1D0009DED080B51EC100BFEF7DEFF53EC1A2B24
:10B1E000FEF70BFE41EC1A0B51EC1B0B53EC1A2B28
:10B1F000FEF762FD0690CDE906519DED060B53EC7E
:10B200001B2B51EC100BFEF7F8FD53EC1A2BFEF73D
:10B21000F7FD41EC100B00F0A1B90020B6F5801F3E
:10B220000EDA9FEDE30B53EC102B9DED0E0B51EC62
:10B23000100BFEF7B1FFCDE90E016FF034000E46A2
:10B2400000EB2650A0F2FF37C6F31300DA4940F0B6
:10B250007F6646F040568842D8BF002408DDD749B3
:10B260008142C8BF012403DC0024A6F580167F1CA0
:10B27000D348784400EBC4000F9690ED00CB9DEDD1
:10B280000E0B53EC1C2B51EC100BFEF7B6FD9DED95
:10B290000E0B41EC1B0B53EC1C2B51EC100BFEF76F
:10B2A0000BFD41EC100B51EC190B53EC102BFEF77E
:10B2B000E5FF41EC1D0B51EC1B0B53EC1D2BFEF776
:10B2C0006BFF41EC1A0BBF488DED10AB7844109525
:10B2D00090ED000B4FF0005040EA660000EB844018
:10B2E0008DED080B00F5002009909DED080B53EC47
:10B2F0001C2B51EC100BFEF780FD9DED0E1B53EC4B
:10B30000112BFEF77DFD41EC100B53EC102B9DED46
:10B31000100B51EC100BFEF73FFF9DED080B41ECBD
:10B320001C0B53EC102B9DED100B51EC100BFEF78A
:10B3300033FF53EC1B2BFEF763FD53EC1C2BFEF786
:10B340005CFD53EC1D2BFEF727FF41EC1C0B53EC6F
:10B350001A2B51EC1A0BFEF71FFF41EC1B0B9A48FE
:10B360000621B0EE4B0AF0EE6B0A784400F0E5FBE4
:10B37000B0EE401AF0EE601AB0EE41DAF0EE61DAAB
:10B3800053EC1B2B51EC1B0BFEF706FF53EC1D2B54
:10B39000FEF702FF9DED100B41EC1B0B53EC1A2B3B
:10B3A00051EC100BFEF788FC53EC1C2BFEF7F4FE5F
:10B3B00053EC1B2BFEF780FC9DED100B41EC1B0B9F
:10B3C00053EC102B51EC100BFEF7E6FE41EC1D0B7D
:10B3D0009FED7FEB53EC1E2BFEF76EFC53EC1B2B0B
:10B3E000FEF76AFC0890CDE908519DED080B53EC7F
:10B3F0001E2B51EC100BFEF700FD53EC1D2BFEF73E
:10B40000FCFC53EC1B2BFEF7FBFC9DED080B41EC09
:10B410001D0B53EC102B9DED100B51EC100BFEF798
:10B42000BBFE41EC1B0B53EC1A2B51EC1D0BFEF732
:10B43000B3FE9DED080B41EC1A0B53EC102B51ECB5
:10B440001C0BFEF7A9FE53EC1A2BFEF735FC41EC62
:10B450001A0B51EC1B0B53EC1A2BFEF72DFC0C9026
:10B46000CDE90C519DED0C0B53EC1B2B51EC100B4B
:10B47000FEF7C3FC53EC1A2BFEF7C2FC41EC1B0B8E
:10B480009FED550B53EC102B9DED0C0B51EC100B5D
:10B49000FEF782FE41EC1A0B9FED510B51EC1B0B9A
:10B4A00053EC102BFEF778FE41EC1B0B9FED4E0B7F
:10B4B00053EC102B9DED0C0B51EC100BFEF76CFEBA
:10B4C00053EC1B2BFEF7F8FB41EC100B484878447B
:10B4D00000EBC40090ED001B51EC100B53EC112B52
:10B4E000FEF7EAFB41EC1B0B3846FEF7E1FFCDE926
:10B4F000080153EC1B2B51EC1A0BFEF7DDFB41EC62
:10B50000100B3C48784400EBC40090ED00CB51ECAC
:10B51000100B53EC1C2BFEF7CFFB9DED081B53ECDF
:10B52000112BFEF7C9FB0690CDE906519DED080BE6
:10B5300053EC102B9DED060B51EC100BFEF75DFC50
:10B5400053EC1C2BFEF759FC53EC1A2BFEF755FC61
:10B5500053EC1B2BFEF754FC41EC100B9DED261B0E
:10B5600053EC102B8DED001B00959DED260B51EC3F
:10B57000100BFEF711FE9DED000B41EC1A0B53EC86
:10B58000102B9DED260B51EC100BFEF736FC9DEDBC
:10B59000061B53EC112B2FE0000000604715F73F0E
:10B5A000FE822B654715F73F44DF5DF80BAE543E36
:10B5B00000000000000040438E9803007AB60B00A4
:10B5C0009A270000C8270000D226000000000000D3
:10B5D0000000000000000840000000E009C7EE3F46
:10B5E000FD033ADC09C7EE3FF5015B14E02F3EBED8
:10B5F0005E25000018250000FEF7CEFD53EC1A2B47
:10B60000FEF75AFB9DED060B41EC1A0B53EC102B89
:10B610009DED000B51EC100BFEF7BEFDCDE90C01CA
:10B620009DED0C0B51EC1A0B53EC102BFEF744FB69
:10B63000CDE902010C46AA498C422FDB611A08436E
:10B6400018D19DED0C0B53EC102B9DED020B51EC22
:10B65000100BFEF7D2FB41EC1B0B9FEDA30B51EC43
:10B660001A0B53EC102BFEF727FB53EC1B2BFEF7AA
:10B67000DDFB2DD2022000F007FC00F011FB10EEE4
:10B68000901A18EE900A8DED020B8DED008B61F390
:10B690001E0003909DED020BFFF7BEBB944A24F001
:10B6A0000041914214D39349214408437FF4EFAC05
:10B6B0009DED0C0B53EC102B9DED020B51EC100B80
:10B6C000FEF79BFB53EC1A2BFEF7B0FB7FF6DFACCB
:10B6D00024F000408849894A002601EB205182422B
:10B6E0002BDA481C4FF4801121FA00F02044844AE0
:10B6F000C0F30A517A44A1F2FF3192ED000B814A66
:10B700008DED080BCA4020EA0202C0F3130040F49A
:10B710008010C1F1140120FA01F60992002CB8BF83
:10B7200076429DED080B53EC102B9DED0C0B51EC6C
:10B73000100BFEF762FBCDE90C019DED0C0B51ECFB
:10B740001A0B53EC102BFEF7B7FA9FED6F0B089016
:10B75000CDE9085153EC102B9DED080B51EC100B6B
:10B76000FEF71AFD41EC1B0B9FED690B53EC102B00
:10B770009DED080B51EC100BFEF70EFD9DED0C0B33
:10B7800041EC1C0B53EC102B9DED080B51EC100BF6
:10B79000FEF733FB53EC1A2BFEF732FB9FED5E1BDB
:10B7A00053EC112BFEF7F8FC53EC1C2BFEF784FA3C
:10B7B00041EC1A0B51EC1B0B53EC1A2BFEF77CFAE5
:10B7C000CDE902019DED020B53EC1B2B51EC100B4C
:10B7D000FEF713FB53EC1A2BFEF712FB9DED020B49
:10B7E00041EC1A0B53EC102B51EC100BFEF7D4FC70
:10B7F000CDE908014A489DED080B0521784400F089
:10B800009CF99DED081B51EC100B53EC112BFEF72E
:10B81000C3FC9DED021B53EC112BFEF7F1FACDE9B1
:10B8200006019DED020B53EC1A2B51EC100BFEF7A9
:10B83000B3FC53EC1A2BFEF73FFA9FED3B0B41ECA8
:10B840001A0B53EC102B9DED060B51EC100BFEF771
:10B85000D4FA9DED060B41EC1B0B53EC102B9DED28
:10B86000020B51EC100BFEF797FC53EC1B2BFEF771
:10B8700005FD53EC1A2BFEF7C0FA9DED021B53ECAD
:10B88000112BFEF7BAFA53EC192BFEF7B9FACDE9F2
:10B89000020101EB065001150029C8BF039015DC19
:10B8A0009DED020B324651EC100BFEF756FDFFF7F3
:10B8B000CDF8042808BF00F003FA32469DED020BD4
:10B8C00051EC100BFEF749FDCDE902019DED020B95
:10B8D00051EC180B53EC102BFEF75EFCFFF73ABB54
:10B8E0000000904000000000FE822B654715973C49
:10B8F00000CC904000346F3F01FCFFFF0000E03FB0
:10B90000A0230000FFFF0F0000000000432EE63FD1
:10B91000396CA80C615C20BEEF39FAFE422EE63F7E
:10B920007022000000000000000000000000004045
:10B9300000B510EE101A2DED028B81B0524A684608
:10B94000B2EB410F2ED94FF0E640B0EB410F94BF60
:10B9500000204FF0FF3000900098B0EE408A0028A1
:10B960006ADB10F0010F4BD068EE080A9FED471A12
:10B970009FED470A00EE810A9FED461A10F0020F74
:10B9800000EE801AB7EE000A00EE810A02BF01B095
:10B99000BDEC028B00BD00BF01B0B1EE400ABDECB2
:10B9A000028B00BD3C4B21F00042934241D911F083
:10B9B000004FDFED3A0A20EE201ADFED390A19BFF9
:10B9C00031EE601A71EE200A31EE201A71EE600A33
:10B9D000BDEEE01A11EE100A9FED321A00F00300DE
:10B9E00000EEC10A9FED301A009000EEC10A9FEDF3
:10B9F0002F1A00EEC10A9FED2E1A00EEC10AABE726
:10BA000028EE080A9FED2B1ADFED2B0A10F0020F2B
:10BA100040EE410A9FED291A00EE201A61EE000A5D
:10BA2000B0EE480A08EE200AB6D101B0BDEC028B98
:10BA300000BD00F069F98FE718EE100A4000B0F180
:10BA40007F4F0DD218EE100AFFF718F8042808BF30
:10BA500000F052F9B0EE480A01B0BDEC028B00BD17
:10BA600009D1012000F010FA01B0BDEC028B5DF8A5
:10BA700004EB00F039B901B0B0EE480ABDEC028B1E
:10BA80005DF804EB00F02CB9B61F927EB93AB2BA59
:10BA9000CA9F2A3DDDFFFFBE490E494683F9223F7A
:10BAA0000000004B0000C93F00A0FD390020A23378
:10BAB0001A61342C336D4C39DA82083CA0AA2ABEB4
:10BAC00000B52DED048BB0EE409AF0EE609A83B095
:10BAD00051EC190BFEF758FC41EC180B18EE100A4C
:10BAE00018EE901A8DED008B002818BF0120084336
:10BAF00020F00040C0F17F6000F1E040C00F14D0A2
:10BB000019EE101A19EE900A8DED009B002918BF4E
:10BB10000121084320F00040C0F17F6000F1E040C7
:10BB2000C00F04BF012000F0AFF9B0EE480A03B027
:10BB3000F0EE680ABDEC048B00BD70B504462DED37
:10BB4000028B4D1E00EBC500B0EE408AF0EE608A1D
:10BB500090ED000B35F0060017D053EC182B51EC8C
:10BB6000100BFEF719FB41EC100B6D1E04EBC5002A
:10BB700090ED001B51EC100B53EC112BFEF79CF8D1
:10BB800041EC100B35F00600E7D1022D36D0042D24
:10BB90001CD0062D1CBFBDEC028B70BD53EC182BC6
:10BBA00051EC100BFEF7F8FA94ED0A1B53EC112B35
:10BBB000FEF782F853EC182BFEF7EEFA94ED081B13
:10BBC00053EC112BFEF778F841EC100B53EC182BCB
:10BBD00051EC100BFEF7E0FA94ED061B53EC112B21
:10BBE000FEF76AF853EC182BFEF7D6FA94ED040B27
:10BBF00053EC102BFEF760F841EC100B53EC182BB4
:10BC000051EC100BFEF7C8FA94ED021B53EC112B0C
:10BC1000FEF752F853EC182BFEF7BEFA94ED001B1A
:10BC200053EC112BFEF748F8BDEC028B41EC100BE6
:10BC300070BD0000000000009FED070B10B553EC35
:10BC4000102B9FED070B51EC100BFEF717FB41EC8F
:10BC5000100B10BD000000000000000000000000FC
:10BC6000000000000000F03F10B553EC112B51EC28
:10BC7000100BFEF721F841EC100B10BD0000000086
:10BC80009FED050B10B553EC102B51EC100BFEF78C
:10BC9000F5FA41EC100B10BD0000000000000000A0
:10BCA0009FED050B10B553EC102B51EC100BFEF76C
:10BCB00073FA41EC100B10BD000000000000007092
:10BCC0009FED050B10B553EC102B51EC100BFEF74C
:10BCD00063FA41EC100B10BD0000000000000010E2
:10BCE00030EE000A70470000DFED020A80EEA00A85
:10BCF00070470000000000009FED020A20EE000ADD
:10BD000070470000000000102DE9F0014FF07F4265
:10BD1000B2EB410F9FBF4FF0FF310160BDE8F00172
:10BD200070474FF0004242EA0123C1F3C752783A0C
:10BD3000551112F01F0C434CCCF120067C44C1F38A
:10BD4000C752A2F178024FEA621204EB820254F861
:10BD5000254008BFD2E9015612D0556804FA0CF408
:10BD600025FA06F73C43976805FA0CF527FA06F81A
:10BD7000D26807FA0CFCF24045EA08054CEA0206D4
:10BD8000A4FB034CA5FB0352A6FB03631D449D4289
:10BD900034BF012600261319334416B1934202D949
:10BDA00003E0934201D2012200E00022624402F14A
:10BDB000200C9206DC0C42EA443200EE102A5B03AF
:10BDC000DFED210AF8EEC01A00EE103A4FEA9C1C93
:10BDD00011F0004FB8EE400AC0F800C020EE201A63
:10BDE00000EE105ADFED190AB8EE400A20EE200AE4
:10BDF00071EE810A70EE800A10EE902A02F5006260
:10BE00006FF30B0200EE902A70EEE11A31EEC11AC8
:10BE1000DFED101A30EE411A9FED0D0A20EE800A78
:10BE200001EE210A9FED0C1A00EE810A04BFBDE865
:10BE3000F0017047CCF180510160BDE8F001B1EE36
:10BE4000400A7047601D0000000000360000802C92
:10BE500022AAFD29DB0FC92F0000C92F0148006865
:10BE600070470000880A002002E008C8121F08C1BD
:10BE7000002AFAD170477047002001E001C1121F6B
:10BE8000002AFBD17047000001490860704700009C
:10BE9000880A00202DE9FF5F82B00021DDE904302F
:10BEA000020DDDF840B0034318D044F61050A2F262
:10BEB000FF3242431514119801281FD0A5EB0B0047
:10BEC000401C5FEA000A4FF000064E4FDFF8389141
:10BED000B046504615D5CAF1000413E0119801246C
:10BEE0004AA3012801D16FEA0B010298119AC0E917
:10BEF0000031C0E9024206B0BDE8F09FCBF100007E
:10BF0000DFE704460021404A491842EB0450CDE9DE
:10BF1000001012E0E00707D032463B464046494653
:10BF2000FEF73AF98046894632463B4610461946A6
:10BF3000FEF732F906460F466410002CEAD1DDE91F
:10BF40000401DDE90023BAF1000F06DAFEF724F957
:10BF500042464B46FEF720F905E0FEF78FF94246D0
:10BF60004B46FEF78BF904460E460022284BFDF7A0
:10BF70005DFF03D84FF0FF30014607E00022254B5C
:10BF800020463146FDF798FEFEF7A3FA102409E09B
:10BF9000002C0ADB0A220023FDF792FF039B3032BC
:10BFA0001A55641E50EA0102F2D1641C039AC4F1CE
:10BFB00011031444119A012A03D0012208430DD120
:10BFC0000AE0084304D000204FF0110B119072E7F3
:10BFD000A3EB0B056D1E0DE05B4504DD4FF0000289
:10BFE00005F1010504E003DA4FF00002A5F10105B7
:10BFF000002AECD002981199C0E90231C0E900454D
:10C0000079E70000000014400000F03F300000001D
:10C010000000F0430000E03F30380A2801D2012040
:10C0200070470020704700002DE9FF4F95B09B46F8
:10C030008946064600250FE2252877D100242746A9
:10C04000F84A0121059400E0044316F8013F203B23
:10C0500001FA03F01042F7D130782A2811D06FF09E
:10C060002F033078A0F13002092A16D8059A44F03F
:10C07000020402EB820203EB42021044761C05909C
:10C08000EFE759F8042B0592002A03DA504244F4F2
:10C090000054059044F00204761C30782E2816D106
:10C0A00016F8010F44F004042A280DD06FF02F0277
:10C0B0003078A0F13003092B09D807EB870302EB96
:10C0C0004303C718761CF3E759F8047B761C3078D5
:10C0D0006C280FD006DC4C2817D068280DD06A28B1
:10C0E00014D104E0742810D07A280FD10DE044F464
:10C0F00000140AE044F4801401E044F4401472781F
:10C10000824202D104F58014761C761C30786628B1
:10C110000BD013DC582877D009DC002875D04528CF
:10C12000F6D04628F4D047281AD19DE118E06328BC
:10C1300035D0642879D0652812D195E1702873D064
:10C1400008DC6728F1D069286FD06E280DD06F28E1
:10C1500006D1B5E073282CD0752875D0782874D016
:10C160005A46179990476D1C75E1C4F30250022896
:10C1700009D003280DD0D9F8001004280DD00D6087
:10C1800009F1040967E1D9F80010EA17C1E9005282
:10C19000F6E7D9F800100D80F2E70D70F0E719F816
:10C1A000041B8DF8001000208DF80100EA460120E4
:10C1B00003E059F804AB4FF0FF3061074FF0000186
:10C1C00002D40DE008F101018846B9420FDA80453A
:10C1D000F8DB1AF808100029F4D108E008F1010191
:10C1E00088468142FADB1AF808100029F6D1059832
:10C1F0005B46A0EB080721463846179A00F094FAF0
:10C20000284400EB080507E04DE029E10DE01AF8AD
:10C21000010B5A4617999047B8F10108F7D25B46CF
:10C2200021463846179A13E142E00A220092C4F3ED
:10C2300002524FF0000A022A08D059F804CB032A10
:10C240004FEAEC710AD00DE029E02AE009F107017C
:10C2500021F00702F2E802C1914609E00FFA8CFCD6
:10C260004FEAEC71042A03D14FFA8CFC4FEAEC71CF
:10C27000002907DA0A460021DCF1000C61EB02011B
:10C280002D2202E0220504D52B228DF80420012264
:10C2900003E0E20701D02022F7E7904659E00A21A7
:10C2A00002E010220DE010214FF0000A00910BE097
:10C2B00010224FF0000A44F004040827009203E023
:10C2C00008224FF0000A0092C4F30252022A05D05D
:10C2D00059F804CB0021032A08D009E009F107012D
:10C2E00021F00702F2E802C1914605E01FFA8CFC3A
:10C2F000042A01D10CF0FF0C4FF00008220728D5CA
:10C30000702806D0009B83F0100353EA0A0305D07F
:10C310000EE040228DF80420012208E05CEA0102D0
:10C3200006D030228DF804208DF8050002229046B8
:10C33000009B83F0080353EA0A030AD15CEA010276
:10C3400001D1620705D530228DF804204FF0010895
:10C350007F1E582804D034A003900EA802900DE050
:10C3600036A0F9E753466046009AFDF7A9FD8446DA
:10C370000398825C0298401E029002705CEA010001
:10C38000F0D1029806A9081A00F1200A600702D528
:10C3900024F4803400E00127574502DDA7EB0A00B2
:10C3A00000E0002000EB0A01009005984144401A8B
:10C3B0000590E00306D45B462146179A059800F0E5
:10C3C000B3F90544002706E001A85A46C05D179955
:10C3D00090476D1C7F1C4745F6DBE0030CD55B46A0
:10C3E0002146179A059800F09FF9054404E0302093
:10C3F0005A46179990476D1C0099481E00900029D5
:10C40000F5DC08E0029802995A460078491C02912E
:10C41000179990476D1CBAF10001AAF1010AF1DCED
:10C4200065E10000092801003031323334353637F8
:10C430003839616263646566000000003031323370
:10C440003435363738394142434445460000000010
:10C4500000F058F90544761C307800287FF4ECADE4
:10C4600019B02846BDE8F08F620700D4062709F10D
:10C47000070222F0070CFCE80223E14603F0004823
:10C480005FEA080C02D00FF2702C0DE05FEA045C4A
:10C4900002D50FF2682C07E05FEAC47C02D00FF2ED
:10C4A000602C01E0AFF2700C4FF0FF3823F0004336
:10C4B000CDF850C065280CD006DC452809D04628A8
:10C4C0001DD047283DD13DE0662818D067287ED191
:10C4D00038E00021112F01DB112000E0781CCDE9AC
:10C4E000000106A90EA8FFF7D5FCDDE90F010E9AA1
:10C4F00003910021009207F1010A04914DE04FF0F1
:10C5000000400097CDE9011006A90EA8FFF7C2FC74
:10C51000DDE90F0203920E9B11990022DDF80CA0B9
:10C520000093049211B9791C00EB010AB7EB0A00E1
:10C5300004D4C0F1FF3007F1010A0490AAEB070010
:10C54000019044E0012F00DA01270021112F01DDC5
:10C55000112000E03846CDE9000106A90EA8FFF73A
:10C5600099FCDDE90F010E9A0391002104910092DC
:10C57000BA4621070CD40399514500DA8A46BAF12C
:10C58000010F05DD009AAAF10101515C302908D0A4
:10C59000B84202DA10F1040F06DA0121CDE90110E8
:10C5A00015E0AAF10101E9E7002805DC049901443E
:10C5B0000491AAEB000102E0411C514500DD8A46CE
:10C5C0000499401A401C01904FF00040029020074F
:10C5D00004D40198504501DBCDF8048000208DF88B
:10C5E0004F0002980DF14F07B0F1004F25D02B20DE
:10C5F0000E9002984FF0020800280CDA4042029098
:10C600002D200E9007E00A210298FDF743FC3031FF
:10C61000029007F8011DB8F10001A8F10108F2DC51
:10C6200002980028EFD1791E0E980870307800F03B
:10C63000200040F0450007F8020D12A8C01B00F1D1
:10C6400007081498007800B1012000EB0A01019856
:10C6500001EBE07105984144401A401E0590E0034B
:10C6600006D45B462146179A059800F05DF805440C
:10C670001498007818B15A46179990476D1CE0033A
:10C6800024D55B462146179A059800F04DF80544DD
:10C690001CE00498002807DBDDE90301884203DD84
:10C6A0000098405C179901E0179930205A4690474E
:10C6B000049805F10105401C04900198401E01906A
:10C6C00004D12E205A46179990476D1CBAF10001EB
:10C6D000AAF1010ADDDC05E017F8010B5A461799AB
:10C6E00090476D1CB8F10001A8F10108F4DC5B462D
:10C6F0002146179A0598ABE62D0000002B0000009C
:10C70000200000002DE9F041044600251E46174692
:10C71000880404D405E039462020B0476D1C641E0F
:10C72000F9D52846BDE8F0812DE9F0410446002501
:10C730001E469046C80301D5302700E02027880414
:10C7400004D505E041463846B0476D1C641EF9D556
:10C750002846BDE8F08182B0CDE9000121F000401B
:10C7600001909DED000B02B051EC100B70470000E2
:10C7700010B5002821D0114B0022001F196803E0DA
:10C78000814203D80A4649680029F9D152B1136899
:10C79000841A9C4204D1006818441060104602E0DC
:10C7A000506000E0186039B102680B1A934203D15F
:10C7B0000B681A4402604968416010BD800A00207D
:10C7C000F0B50B30154D20F007010024144A0FE09E
:10C7D00003688B420BD38B4205D95E1A4318476816
:10C7E000C3E9006700E04368136002C004E0021D73
:10C7F00010680028ECD12046002802D1286808B132
:10C800000020F0BD064A07481060074A121A22F0BD
:10C810000702C0E9002401202860D7E7840A00202D
:10C82000800A00201C6E002018EE0020F6F740BFA2
:10C8300000B52DED048B83B041EC190BFDF7A4FD81
:10C8400041EC180B18EE100A18EE901A8DED008BC3
:10C85000002818BF0120084320F00040C0F17F608D
:10C8600000F1E040C00F14D019EE101A19EE900A32
:10C870008DED009B002918BF0121084320F00040E6
:10C88000C0F17F6000F1E040C00F04BF0120FFF75E
:10C89000FBFA51EC180B03B0BDEC048B00BD00009B
:10C8A000000000002975493CDF6EC93C6F0E173D42
:10C8B0003160493D8FA97B3D38F4963D6B0EB03D0C
:10C8C0004721C93D5E2EE23DEC2FFB3D7F130A3E22
:10C8D000698C163E76FD223EA5662F3E97CA3B3EEA
:10C8E0004A29483E807D543EDAC9603E560E6D3E70
:10C8F000F54A793E3CBD823E0FD1883EA4DF8E3E94
:10C90000FBE8943EC4EB9A3EFFE7A03EFCDEA63E69
:10C910006CCFAC3E4EB9B23EA29CB83E1878BE3E3B
:10C92000B24BC43EBD18CA3EECDDCF3EED99D53EBC
:10C93000614FDB3E59FAE03EC39EE63EB038EC3E26
:10C9400071C9F13E5452F73EBBD0FC3E5322013F29
:10C95000B2D7033FD387063FB532093F5AD80B3FC2
:10C96000C0780E3F4013113F82A8133FDF37163FB8
:10C9700055C1183FE5441B3F8FC21D3F543A203F2D
:10C980008AAB223FDB16253F9E7B273FD3D9293F29
:10C990007B312C3FED812E3F79CC303FD00F333FA0
:10C9A000F14B353F8481373FE2AF393F0AD73B3FF8
:10C9B000FDF63D3F130F403F9B20423F9E29443FE1
:10C9C000132C463F0326483FBD184A3F9B034C3F6C
:10C9D000F3E54D3F16C14F3FB493513F745E533F53
:10C9E0005721553F0EDB563F8F8D583FE3365A3F58
:10C9F000B2D75B3FA4705D3F69005F3F5188603FE5
:10CA00000C07623F9A7C633FA3E9643F274E663F71
:10CA10007EA9673F50FC683F4E456A3FC6856B3F25
:10CA200012BD6C3F31EB6D3F23106F3F412B703FC8
:10CA3000D93D713F9D46723F3546733F9F3C743FE1
:10CA40003529753F9E0C763F32E6763F9AB6773FA2
:10CA50002C7D783FEB39793F7CED793F39977A3FF0
:10CA600022377B3F36CD7B3F75597C3F87DC7C3F4F
:10CA70001D557D3F87C47D3F74297E3F34857E3FB1
:10CA800077D67E3F8E1E7F3F295C7F3FEF8F7F3FB3
:10CA900088BA7F3FA5DA7F3FEDF07F3F61FD7F3FA2
:10CAA0000000803F23F87F3F19E77F3F92CB7F3F15
:10CAB00037A67F3FAF777F3FAB3E7F3FD2FB7E3FC6
:10CAC00025AF7E3FA3587E3F4DF87D3F228E7D3FB0
:10CAD000221A7D3F4E9C7C3FA5147C3F27837B3FE1
:10CAE000D5E77A3F57437A3F0395793FDBDC783FC0
:10CAF000DF1A783FB54F773FB77A763FE59B753FB2
:10CB0000E5B3743FB9C2733FB9C7723F8BC3713F7E
:10CB100031B6703F029F6F3FA67E6E3F1D556D3F41
:10CB200068226C3F86E66A3F1FA2693FE353683F75
:10CB300022FD663F349D653F1A34643F22C3623F45
:10CB40005648613FACC55F3FD6395E3F7AA55C3F32
:10CB50009A085B3F3563593F4AB5573F82FF553FBF
:10CB60008E40543F637A523FB4AB503F80D44E3F27
:10CB70006FF54C3F280F4B3F5C20493FB329473F9F
:10CB8000D42B453F1826433F7E18413FB0033F3F1B
:10CB9000ABE73C3F72C43A3F5B99383FB667363FDC
:10CBA000DC2E343FCCEE313F2FA82F3F5C5A2D3F77
:10CBB000FB052B3F0DAB283F9049263F2EE2233F3C
:10CBC0009773213F19FF1E3FB6841C3FC5031A3FD0
:10CBD000957D173FD8F0143FDD5E123FFCC60F3F36
:10CBE00035290D3F2F860A3FECDD073F6A30053FB0
:10CBF000AA7D023F598BFF3E3012FA3E8A8EF43EE8
:10CC00000803EF3E096DE93EDDCDE33E8525DE3EBE
:10CC10004F75D83E3CBDD23EFCFBCC3EDF32C73E1A
:10CC20003563C13E5D8ABB3E47ACB53E05C5AF3EF0
:10CC300084D8A93E75E5A33E89EA9D3E60EA973E09
:10CC4000F7E4913E02D98B3ECEC7853EB7627F3E68
:10CC5000F52D733EB7EE663EFDA45A3E65534E3E3B
:10CC6000F0F9413E3D9B353E0E32293EA0C31C3EAD
:10CC7000F44F103E0AD7033EC4B1EE3DB9A5D53DF1
:10CC8000A298BC3D1B82A33D49658A3D6685623DF5
:10CC9000D637303DF7C7FB3CC615973C5374C93BAC
:10CCA0005374C9BBC61597BCF7C7FBBCD63730BD9C
:10CCB000668562BD49658ABD1B82A3BDA298BCBDC5
:10CCC000B9A5D5BDC4B1EEBD0AD703BEF44F10BEA1
:10CCD000A0C31CBE0E3229BE3D9B35BEF0F941BE3D
:10CCE00065534EBEFDA45ABEB7EE66BEF52D73BEAB
:10CCF000B7627FBECEC785BE02D98BBEF7E491BEB8
:10CD000060EA97BE89EA9DBE75E5A3BE84D8A9BE38
:10CD100005C5AFBE47ACB5BE5D8ABBBE3563C1BEFF
:10CD2000DF32C7BEFCFBCCBE3CBDD2BE4F75D8BE09
:10CD30008525DEBEDDCDE3BE096DE9BE0803EFBE8D
:10CD40008A8EF4BE3012FABE598BFFBEAA7D02BF96
:10CD50006A3005BFECDD07BF2F860ABF35290DBF3E
:10CD6000FCC60FBFDD5E12BFD8F014BF957D17BFA4
:10CD7000C5031ABFB6841CBF19FF1EBF977321BF1E
:10CD80002EE223BF904926BF0DAB28BFFB052BBF6A
:10CD90005C5A2DBF2FA82FBFCCEE31BFDC2E34BF85
:10CDA000B66736BF5B9938BF72C43ABFABE73CBFCA
:10CDB000B0033FBF7E1841BF182643BFD42B45BFE9
:10CDC000B32947BF5C2049BF280F4BBF6FF54CBF4D
:10CDD00080D44EBFB4AB50BF637A52BF8E4054BFB5
:10CDE00082FF55BF4AB557BF356359BF9A085BBF2D
:10CDF0007AA55CBFD6395EBFACC55FBF564861BF80
:10CE000022C362BF1A3464BF349D65BF22FD66BF72
:10CE1000E35368BF1FA269BF86E66ABF68226CBF82
:10CE20001D556DBFA67E6EBF029F6FBF31B670BF2E
:10CE30008BC371BFB9C772BFB9C273BFE5B374BF4B
:10CE4000E59B75BFB77A76BFB54F77BFDF1A78BF5E
:10CE5000DBDC78BF039579BF57437ABFD5E77ABF4C
:10CE600027837BBFA5147CBF4E9C7CBF221A7DBF4D
:10CE7000228E7DBF4DF87DBFA3587EBF25AF7EBFFC
:10CE8000D2FB7EBFAB3E7FBFAF777FBF37A67FBFF2
:10CE900092CB7FBF19E77FBF23F87FBF000080BF21
:10CEA00061FD7FBFEDF07FBFA5DA7FBF88BA7FBF8E
:10CEB000EF8F7FBF295C7FBF8E1E7FBF77D67EBF7F
:10CEC00034857EBF74297EBF87C47DBF1D557DBF5D
:10CED00087DC7CBF75597CBF36CD7BBF22377BBFDB
:10CEE00039977ABF7CED79BFEB3979BF2C7D78BF5C
:10CEF0009AB677BF32E676BF9E0C76BF352975BFEE
:10CF00009F3C74BF354673BF9D4672BFD93D71BF0C
:10CF1000412B70BF23106FBF31EB6DBF12BD6CBFD3
:10CF2000C6856BBF4E456ABF50FC68BF7EA967BF10
:10CF3000274E66BFA3E964BF9A7C63BF0C0762BF3C
:10CF4000518860BF69005FBFA4705DBFB2D75BBF8F
:10CF5000E3365ABF8F8D58BF0EDB56BF572155BFE2
:10CF6000745E53BFB49351BF16C14FBFF3E54DBFBD
:10CF70009B034CBFBD184ABF032648BF132C46BFB6
:10CF80009E2944BF9B2042BF130F40BFFDF63DBF0B
:10CF90000AD73BBFE2AF39BF848137BFF14B35BF02
:10CFA000D00F33BF79CC30BFED812EBF7B312CBF8A
:10CFB000D3D929BF9E7B27BFDB1625BF8AAB22BFF3
:10CFC000543A20BF8FC21DBFE5441BBF55C118BFD7
:10CFD000DF3716BF82A813BF401311BFC0780EBF42
:10CFE0005AD80BBFB53209BFD38706BFB2D703BF2C
:10CFF000532201BFBBD0FCBE5452F7BE71C9F1BE73
:10D00000B038ECBEC39EE6BE59FAE0BE614FDBBE4F
:10D01000ED99D5BEECDDCFBEBD18CABEB24BC4BEC5
:10D020001878BEBEA29CB8BE4EB9B2BE6CCFACBE24
:10D03000FCDEA6BEFFE7A0BEC4EB9ABEFBE894BE32
:10D04000A4DF8EBE0FD188BE3CBD82BEF54A79BE3C
:10D05000560E6DBEDAC960BE807D54BE4A2948BEF8
:10D0600097CA3BBEA5662FBE76FD22BE698C16BE52
:10D070007F130ABEEC2FFBBD5E2EE2BD4721C9BD6A
:10D080006B0EB0BD38F496BD8FA97BBD316049BD34
:10D090006F0E17BDDF6EC9BC297549BC00000000CA
:10D0A0000700200007004465766963652074797085
:10D0B00065000500080007004572726F72207265F6
:10D0C00067697374657200000900500007004465C9
:10D0D00076696365206E616D6500090020000700B8
:10D0E00048617264776172652076657273696F6EEC
:10D0F0000000090020000700536F667477617265B5
:10D100002076657273696F6E0000050008000700E5
:10D11000070020000700070020000700070020008C
:10D1200007000700200007004964656E7469747980
:10D130000056656E646F722049440050726F6475CA
:10D14000637420636F6465005265766973696F6EFE
:10D150000053657269616C206E756D62657200FFC7
:10D160000000050008000700070020003F0006003F
:10D1700010003F004572726F722053657474696EBF
:10D180006773004C6F63616C204572726F7220523E
:10D1900065616374696F6E0053796E6320457272C6
:10D1A0006F7220436F756E746572204C696D69747F
:10D1B00000FF000005000800070005000800070048
:10D1C00053796E63206D616E61676572207479704A
:10D1D0006500050008000700060010000F000700AA
:10D1E00020000700000020000000060010000700DB
:10D1F00007002000070007002000070000002000B3
:10D200000000060010003F00070020000700070094
:10D2100020003F0006001000070006001000070075
:10D2200000001000000000001000000000002000BE
:10D2300000000000200000000000200000000000AE
:10D2400020000000000000000000000000000000BE
:10D2500000000000000000000000000000000000CE
:10D2600000000000000000000000000000000000BE
:10D2700000000000000000000000000000000000AE
:10D28000000000000000000000000000000000009E
:10D290000000010001000700534D206F7574707588
:10D2A0007420706172616D657465720053796E638C
:10D2B00068726F6E697A6174696F6E2054797065F7
:10D2C000004379636C652054696D65000053796E85
:10D2D0006368726F6E697A6174696F6E20547970D9
:10D2E000657320737570706F72746564004D696E3C
:10D2F000696D756D204379636C652054696D6500B7
:10D3000043616C6320616E6420436F7079205469BF
:10D310006D650000476574204379636C652054692E
:10D320006D650044656C61792054696D65005379C1
:10D330006E6330204379636C652054696D650053DA
:10D340004D2D4576656E74204D6973736564004399
:10D3500079636C652054696D6520546F6F20536D3F
:10D36000616C6C0053686966742054696D65205463
:10D370006F6F2053686F727400000000000000009F
:10D38000000000000000000000000053796E6320E0
:10D390004572726F7200FF00534D20696E70757494
:10D3A00020706172616D657465720053796E636897
:10D3B000726F6E697A6174696F6E2054797065005E
:10D3C0004379636C652054696D65000053796E6321
:10D3D00068726F6E697A6174696F6E2054797065D6
:10D3E0007320737570706F72746564004D696E6937
:10D3F0006D756D204379636C652054696D650043DC
:10D40000616C6320616E6420436F70792054696D94
:10D41000650000476574204379636C652054696D2D
:10D42000650044656C61792054696D650053796EBF
:10D430006330204379636C652054696D6500534DFA
:10D440002D4576656E74204D69737365640043796C
:10D45000636C652054696D6520546F6F20536D6156
:10D460006C6C0053686966742054696D6520546F54
:10D470006F2053686F72740000000000000000000D
:10D480000000000000000000000053796E6320459A
:10D4900072726F7200FF00000000010003000700BD
:10D4A0000F001F003F007F00FF00FF01FF03FF0789
:10D4B000FF0FFF1FFF3FFF7F00000000000003057C
:10D4C0000000040501000405050004050000010634
:10D4D00001000106020001060000020641000406E8
:10D4E0004200040643000406470004060000060646
:10D4F00010000706120007061300070611000906B0
:10D500003000090631000906320009063300090619
:10D51000360009060000000820000008210000086D
:10D520002200000823000008030001060400010691
:10D53000050008000F00060010000F00527850444C
:10D540004F2061737369676E00547850444F2061B7
:10D55000737369676E00050008000700070020006C
:10D560000700070020000700070020000700070051
:10D570002000070007002000070007002000070028
:10D580000700200007000700200007006373702FCA
:10D5900063737620527850444F00FF000500080066
:10D5A0000700070020000700070020000700637342
:10D5B0007020527850444F00FF000500080007001B
:10D5C0000700200007000700200007006373762093
:10D5D000527850444F00FF00050008000700070084
:10D5E00020000700070020000700070020000700B8
:10D5F00007002000070007002000070007002000A8
:10D6000007000700200007000700200007000700B0
:10D61000200007000700200007006373702F63736A
:10D620007620547850444F00FF00050008000700A2
:10D630000700200007000700200007006373702028
:10D64000547850444F00FF00050008000700070011
:10D65000200007000700200007006373762054783D
:10D6600050444F00FF000600100007004572726F23
:10D670007220436F64650000060010008700457249
:10D68000726F7220636F64650000060010008700EF
:10D690004D6F746F7220566F6C7461676500030084
:10D6A000100087004D6F746F722054656D70657245
:10D6B000617475726500030010008700447269761A
:10D6C00065722054656D70657261747572650000D5
:10D6D000060010007F00436F6E74726F6C20576FEE
:10D6E0007264000006001000870053746174757343
:10D6F00020576F726400030010003F00517569638A
:10D700006B73746F70204F7074696F6E20436F6419
:10D710006500030010003F0053687574646F776EF6
:10D72000204F7074696F6E20436F646500000300C2
:10D7300010003F0044697361626C65204F70657230
:10D740006174696F6E204F7074696F6E20436F64EF
:10D750006500030010003F004661756C742052653F
:10D76000616374696F6E20436F6465000200080096
:10D770007F004D6F646573206F66204F7065726126
:10D7800074696F6E00000200080087004D6F6465C9
:10D7900073206F66204F7065726174696F6E2044EC
:10D7A0006973706C61790000040020008700506F7D
:10D7B000736974696F6E2041637475616C20566182
:10D7C0006C75650004002000870056656C6F636906
:10D7D00074792041637475616C2056616C756500C5
:10D7E000040020008700546F7271756520416374D6
:10D7F00075616C2056616C756500040020007F0027
:10D8000054617267657420506F736974696F6E003C
:10D81000040020007F005461726765742056656CB7
:10D820006F6369747900040020007F00546172679F
:10D83000657420546F7271756500060010007F00DA
:10D840004B700000060010007F004B6400000500D4
:10D8500008000700040020003F00040020003F00F3
:10D86000536F66747761726520506F736974696F66
:10D870006E204C696D6974004D696E20706F73691C
:10D8800074696F6E206C696D6974004D61782070E9
:10D890006F736974696F6E206C696D697400FF0045
:10D8A000040020003F00517569636B73746F702032
:10D8B0004465636C61726174696F6E0005000800F5
:10D8C0000700050008003F00020008003F00496E05
:10D8D000746572706F6C6174696F6E2054696D65E8
:10D8E00020506572696F6400496E746572706F6C68
:10D8F0006174696F6E20706572696F642000496E93
:10D90000746572706F6C6174696F6E20496E6465C6
:10D910007800FF00070020000700537570706F72D9
:10D92000746564204472697665204D6F6465730088
:10D9300005000800070006001000070006001000A0
:10D9400007004D6F64756C6172206465766963656C
:10D950002070726F66696C65004D6F64756C652030
:10D96000696E6465782064697374616E6365004DE7
:10D970006178696D756D206E756D626572206F6678
:10D98000206D6F64756C657300FF00000500080072
:10D9900007000700200007000700200007004D6F68
:10D9A00064756C652070726F66696C65206C697354
:10D9B0007400050008000F00070020000F0007009A
:10D9C00020000F00436F6E66696775726564206D95
:10D9D0006F64756C65204964656E74206C6973743E
:10D9E00000000500080007000700200007000700EE
:10D9F000200007004D6F64756C6520646574656375
:10DA0000746564206C6973740000000000000000FD
:10DA1000000000000000F03F000000000000F83FA0
:10DA200000000000000000000000004003B8E23FDA
:10DA3000000000000000000006D0CF43EBFD4C3E8C
:10DA4000033333333333E33FFFAB6FDBB66DDB3F81
:10DA50004D268F515555D53F01411DA96074D13FC9
:10DA600065DBC9934A86CD3FEF4E454A287ECA3FC3
:10DA70003E5555555555C53F93BDBE166CC166BF45
:10DA80002CDE25AF6A56113FF16BD2C541BDBBBE3E
:10DA9000D0A4BE726937663E00000000000000009E
:10DAA000000000006E83F9A22915444ED15727FCCF
:10DAB000C0DD34F5999562DB4190433CAB6351FE88
:10DAC0000040404040404040404041414141414091
:10DAD0004040404040404040404040404040404046
:10DAE00040050202020202020202020202020202D5
:10DAF00002202020202020202020200202020202DA
:10DB00000202909090909090101010101010101031
:10DB1000101010101010101010101010020202023D
:10DB20000202888888888888080808080808080881
:10DB3000080808080808080808080808020202027D
:10DB400040000000C1DA00080A0D20546F2063680D
:10DB5000616E676520612076616C75652C20747933
:10DB600070652027707265666978272776616C7505
:10DB7000652727454E544552270A0D20692E652EEC
:10DB8000202762313030302727454E544552270A2E
:10DB90000D0A0D00B4DB0008000000208C0A000014
:10DBA000D6A9000820DF00088C0A00208C23010081
:10DBB00078BE00080119847A030A68090102030487
:10DBC000060708090CA9103112081A40041A80042B
:10DBD0001AC004111A01041A02041A04041A0604D1
:10DBE0001A08041A0A041A0C041A0E0429312132E4
:10DBF00010321832205A3004323832403248325013
:10DC00007258438913100B5353432D44657669634F
:10DC100065156E2E612E1D352E31316631298950E4
:10DC200008523048261101023A04A6F123100719C0
:10DC30000313A0D01B08A6044AA47B01113C0110C9
:10DC400005281AB2241AB8040A15A8281B08107649
:10DC500019281AC8241ACE040A15AA285A09281AFB
:10DC6000DA241AE0040A15B5285A0A281AF2241AE6
:10DC7000F8040A15BA28141810231A042B130AD111
:10DC80001B0828040A15C02814F1102A1A02281AA1
:10DC900062241A74040B140C032811131C052304AA
:10DCA000082AB44C19040A15D45014321C291A201D
:10DCB000501AD2241398D20C1408A06B28AA332827
:10DCC00012D30B1508E4280392FFFF3202320142FF
:10DCD00004000D3B537562496E6465782030303026
:10DCE00012013B0216064A1A5C6B89131831FB9825
:10DCF000110C32081210144060201A7A041AFF0422
:10DD00001471601014052010140620082B60602088
:10DD100029A86924890C3CFF600A0C1A410C1A647A
:10DD2000041A6C041A773C1A073C1A08041A0904EE
:10DD30001A10449A6144492CA90C41291019B201C6
:10DD4000253926146CCA884C94357710031101FDCF
:10DD50001316212308091356D51B088C0401181A21
:10DD600001281A02281A9C240A19AE285A02281AD5
:10DD7000BA240A19CC2811131A211A0A281AD824ED
:10DD80000B191AD678192829501A2A240A193C285E
:10DD90005A02281A48240A195A28243F60062207E2
:10DDA0001A66240A196C285A40281AD0240A19D64F
:10DDB000285A41281AE4240A19EA283C5A60032800
:10DDC0001AF6240A19FC285A5B281312D71B0818C4
:10DDD0000401185A5C281A2E240A1934285A5E287D
:10DDE0001A52240A1958283C606002281A6C240A26
:10DDF0001972285A61281A86240A198C283C6460F2
:10DE000004281AA8240A19AE285A6C281AC4240A0D
:10DE100019CA285A77C81AE0240A19E6281A7D5028
:10DE20001A021E134ED81B08600401185A7A782A69
:10DE3000FA4C0919285A71281A26240A192C283C48
:10DE4000052006281A3A240A1940285A06281A4496
:10DE5000240A194A285A07281378D61B087E040179
:10DE6000185A08281A8A240A1990283C09200328DD
:10DE70001A9E240A19A4285A10281AB6240A19BC72
:10DE8000281B85602519031AA0C40A19A6C814C244
:10DE9000602A2302091ABC240A19CE283CFF600418
:10DEA000501A10240A1916284B0265781314D91B2E
:10DEB000081A04091750021EFF22021A08049114BE
:10DEC000121C061A024E1330D51B083C04136003C3
:10DED0000214209A13281A49040A156628114AF0D8
:10DEE000F81A30A41A42040B145C09283C10F007FD
:10DEF000501A8C241A9E040A156C505A30281AB2F3
:10DF0000241AC4045A7828136D961916A15A502859
:10DF10001AE2241AF4040A158450032EFFFF0000AD
:040000050800018965
:00000001FF
